{
	"Government Citizen Info Tracking/GCIT smart contract.sol": {
		"GCITContract": {
			"abi": [
				{
					"inputs": [],
					"stateMutability": "nonpayable",
					"type": "constructor"
				},
				{
					"anonymous": false,
					"inputs": [
						{
							"indexed": false,
							"internalType": "uint256",
							"name": "proposalId",
							"type": "uint256"
						},
						{
							"indexed": false,
							"internalType": "string",
							"name": "description",
							"type": "string"
						}
					],
					"name": "LawEnacted",
					"type": "event"
				},
				{
					"anonymous": false,
					"inputs": [
						{
							"indexed": false,
							"internalType": "uint256",
							"name": "proposalId",
							"type": "uint256"
						},
						{
							"indexed": false,
							"internalType": "string",
							"name": "description",
							"type": "string"
						}
					],
					"name": "LawRejected",
					"type": "event"
				},
				{
					"anonymous": false,
					"inputs": [
						{
							"indexed": false,
							"internalType": "address",
							"name": "citizen",
							"type": "address"
						}
					],
					"name": "NewCitizen",
					"type": "event"
				},
				{
					"anonymous": false,
					"inputs": [
						{
							"indexed": false,
							"internalType": "address",
							"name": "official",
							"type": "address"
						}
					],
					"name": "NewOfficial",
					"type": "event"
				},
				{
					"anonymous": false,
					"inputs": [
						{
							"indexed": false,
							"internalType": "uint256",
							"name": "proposalId",
							"type": "uint256"
						},
						{
							"indexed": false,
							"internalType": "string",
							"name": "description",
							"type": "string"
						}
					],
					"name": "NewProposal",
					"type": "event"
				},
				{
					"anonymous": false,
					"inputs": [
						{
							"indexed": false,
							"internalType": "uint256",
							"name": "proposalId",
							"type": "uint256"
						},
						{
							"indexed": false,
							"internalType": "bool",
							"name": "support",
							"type": "bool"
						}
					],
					"name": "VoteCasted",
					"type": "event"
				},
				{
					"inputs": [
						{
							"internalType": "uint256",
							"name": "",
							"type": "uint256"
						}
					],
					"name": "citizens",
					"outputs": [
						{
							"internalType": "address",
							"name": "",
							"type": "address"
						}
					],
					"stateMutability": "view",
					"type": "function"
				},
				{
					"inputs": [
						{
							"internalType": "uint256",
							"name": "proposalId",
							"type": "uint256"
						}
					],
					"name": "enactLaw",
					"outputs": [],
					"stateMutability": "nonpayable",
					"type": "function"
				},
				{
					"inputs": [],
					"name": "getCitizens",
					"outputs": [
						{
							"internalType": "address[]",
							"name": "",
							"type": "address[]"
						}
					],
					"stateMutability": "view",
					"type": "function"
				},
				{
					"inputs": [],
					"name": "getOfficials",
					"outputs": [
						{
							"internalType": "address[]",
							"name": "",
							"type": "address[]"
						}
					],
					"stateMutability": "view",
					"type": "function"
				},
				{
					"inputs": [
						{
							"internalType": "address",
							"name": "",
							"type": "address"
						}
					],
					"name": "isOfficial",
					"outputs": [
						{
							"internalType": "bool",
							"name": "",
							"type": "bool"
						}
					],
					"stateMutability": "view",
					"type": "function"
				},
				{
					"inputs": [
						{
							"internalType": "address",
							"name": "",
							"type": "address"
						}
					],
					"name": "isVoted",
					"outputs": [
						{
							"internalType": "bool",
							"name": "",
							"type": "bool"
						}
					],
					"stateMutability": "view",
					"type": "function"
				},
				{
					"inputs": [],
					"name": "newCitizen",
					"outputs": [],
					"stateMutability": "nonpayable",
					"type": "function"
				},
				{
					"inputs": [],
					"name": "newOfficai",
					"outputs": [],
					"stateMutability": "nonpayable",
					"type": "function"
				},
				{
					"inputs": [
						{
							"internalType": "uint256",
							"name": "",
							"type": "uint256"
						}
					],
					"name": "officials",
					"outputs": [
						{
							"internalType": "address",
							"name": "",
							"type": "address"
						}
					],
					"stateMutability": "view",
					"type": "function"
				},
				{
					"inputs": [
						{
							"internalType": "uint256",
							"name": "",
							"type": "uint256"
						}
					],
					"name": "proposals",
					"outputs": [
						{
							"internalType": "string",
							"name": "description",
							"type": "string"
						},
						{
							"internalType": "address",
							"name": "proposer",
							"type": "address"
						},
						{
							"internalType": "uint256",
							"name": "yesVotes",
							"type": "uint256"
						},
						{
							"internalType": "uint256",
							"name": "noVotes",
							"type": "uint256"
						},
						{
							"internalType": "bool",
							"name": "enacted",
							"type": "bool"
						}
					],
					"stateMutability": "view",
					"type": "function"
				},
				{
					"inputs": [
						{
							"internalType": "string",
							"name": "_description",
							"type": "string"
						}
					],
					"name": "proposeLaw",
					"outputs": [],
					"stateMutability": "nonpayable",
					"type": "function"
				},
				{
					"inputs": [
						{
							"internalType": "address",
							"name": "user",
							"type": "address"
						}
					],
					"name": "toggelOfficialStatus",
					"outputs": [],
					"stateMutability": "nonpayable",
					"type": "function"
				},
				{
					"inputs": [
						{
							"internalType": "uint256",
							"name": "proposalId",
							"type": "uint256"
						},
						{
							"internalType": "bool",
							"name": "support",
							"type": "bool"
						}
					],
					"name": "voteProposal",
					"outputs": [],
					"stateMutability": "nonpayable",
					"type": "function"
				}
			],
			"devdoc": {
				"kind": "dev",
				"methods": {},
				"version": 1
			},
			"evm": {
				"assembly": "    /* \"Government Citizen Info Tracking/GCIT smart contract.sol\":57:3661  contract GCITContract {... */\n  mstore(0x40, 0x80)\n    /* \"Government Citizen Info Tracking/GCIT smart contract.sol\":1011:1071  constructor () {... */\n  callvalue\n  dup1\n  iszero\n  tag_1\n  jumpi\n  0x00\n  dup1\n  revert\ntag_1:\n  pop\n    /* \"Government Citizen Info Tracking/GCIT smart contract.sol\":1053:1063  msg.sender */\n  caller\n    /* \"Government Citizen Info Tracking/GCIT smart contract.sol\":1036:1041  owner */\n  0x00\n  dup1\n    /* \"Government Citizen Info Tracking/GCIT smart contract.sol\":1036:1064  owner = payable (msg.sender) */\n  0x0100\n  exp\n  dup2\n  sload\n  dup2\n  0xffffffffffffffffffffffffffffffffffffffff\n  mul\n  not\n  and\n  swap1\n  dup4\n  0xffffffffffffffffffffffffffffffffffffffff\n  and\n  mul\n  or\n  swap1\n  sstore\n  pop\n    /* \"Government Citizen Info Tracking/GCIT smart contract.sol\":57:3661  contract GCITContract {... */\n  dataSize(sub_0)\n  dup1\n  dataOffset(sub_0)\n  0x00\n  codecopy\n  0x00\n  return\nstop\n\nsub_0: assembly {\n        /* \"Government Citizen Info Tracking/GCIT smart contract.sol\":57:3661  contract GCITContract {... */\n      mstore(0x40, 0x80)\n      callvalue\n      dup1\n      iszero\n      tag_1\n      jumpi\n      0x00\n      dup1\n      revert\n    tag_1:\n      pop\n      jumpi(tag_2, lt(calldatasize, 0x04))\n      shr(0xe0, calldataload(0x00))\n      dup1\n      0x77b81aac\n      gt\n      tag_16\n      jumpi\n      dup1\n      0xbcfb9b61\n      gt\n      tag_17\n      jumpi\n      dup1\n      0xbcfb9b61\n      eq\n      tag_12\n      jumpi\n      dup1\n      0xcbff75cb\n      eq\n      tag_13\n      jumpi\n      dup1\n      0xdd99e1d4\n      eq\n      tag_14\n      jumpi\n      dup1\n      0xeee8c7db\n      eq\n      tag_15\n      jumpi\n      jump(tag_2)\n    tag_17:\n      dup1\n      0x77b81aac\n      eq\n      tag_9\n      jumpi\n      dup1\n      0x97ad6afd\n      eq\n      tag_10\n      jumpi\n      dup1\n      0xba05f053\n      eq\n      tag_11\n      jumpi\n      jump(tag_2)\n    tag_16:\n      dup1\n      0x013cf08b\n      eq\n      tag_3\n      jumpi\n      dup1\n      0x09a34f00\n      eq\n      tag_4\n      jumpi\n      dup1\n      0x1e66d267\n      eq\n      tag_5\n      jumpi\n      dup1\n      0x445ed26e\n      eq\n      tag_6\n      jumpi\n      dup1\n      0x55cf576e\n      eq\n      tag_7\n      jumpi\n      dup1\n      0x58bc7331\n      eq\n      tag_8\n      jumpi\n    tag_2:\n      0x00\n      dup1\n      revert\n        /* \"Government Citizen Info Tracking/GCIT smart contract.sol\":468:498  LawProposed[] public proposals */\n    tag_3:\n      tag_18\n      0x04\n      dup1\n      calldatasize\n      sub\n      dup2\n      add\n      swap1\n      tag_19\n      swap2\n      swap1\n      tag_20\n      jump\t// in\n    tag_19:\n      tag_21\n      jump\t// in\n    tag_18:\n      mload(0x40)\n      tag_22\n      swap6\n      swap5\n      swap4\n      swap3\n      swap2\n      swap1\n      tag_23\n      jump\t// in\n    tag_22:\n      mload(0x40)\n      dup1\n      swap2\n      sub\n      swap1\n      return\n        /* \"Government Citizen Info Tracking/GCIT smart contract.sol\":135:160  address[] public citizens */\n    tag_4:\n      tag_24\n      0x04\n      dup1\n      calldatasize\n      sub\n      dup2\n      add\n      swap1\n      tag_25\n      swap2\n      swap1\n      tag_20\n      jump\t// in\n    tag_25:\n      tag_26\n      jump\t// in\n    tag_24:\n      mload(0x40)\n      tag_27\n      swap2\n      swap1\n      tag_28\n      jump\t// in\n    tag_27:\n      mload(0x40)\n      dup1\n      swap2\n      sub\n      swap1\n      return\n        /* \"Government Citizen Info Tracking/GCIT smart contract.sol\":1365:1595  function newOfficai () external {... */\n    tag_5:\n      tag_29\n      tag_30\n      jump\t// in\n    tag_29:\n      stop\n        /* \"Government Citizen Info Tracking/GCIT smart contract.sol\":2556:3079  function enactLaw(uint256 proposalId) external onlyOwner {... */\n    tag_6:\n      tag_31\n      0x04\n      dup1\n      calldatasize\n      sub\n      dup2\n      add\n      swap1\n      tag_32\n      swap2\n      swap1\n      tag_20\n      jump\t// in\n    tag_32:\n      tag_33\n      jump\t// in\n    tag_31:\n      stop\n        /* \"Government Citizen Info Tracking/GCIT smart contract.sol\":3368:3659  function toggelOfficialStatus (address user) external {... */\n    tag_7:\n      tag_34\n      0x04\n      dup1\n      calldatasize\n      sub\n      dup2\n      add\n      swap1\n      tag_35\n      swap2\n      swap1\n      tag_36\n      jump\t// in\n    tag_35:\n      tag_37\n      jump\t// in\n    tag_34:\n      stop\n        /* \"Government Citizen Info Tracking/GCIT smart contract.sol\":3213:3312  function getOfficials () external view returns (address[] memory) {... */\n    tag_8:\n      tag_38\n      tag_39\n      jump\t// in\n    tag_38:\n      mload(0x40)\n      tag_40\n      swap2\n      swap1\n      tag_41\n      jump\t// in\n    tag_40:\n      mload(0x40)\n      dup1\n      swap2\n      sub\n      swap1\n      return\n        /* \"Government Citizen Info Tracking/GCIT smart contract.sol\":198:241  mapping (address => bool) public isOfficial */\n    tag_9:\n      tag_42\n      0x04\n      dup1\n      calldatasize\n      sub\n      dup2\n      add\n      swap1\n      tag_43\n      swap2\n      swap1\n      tag_36\n      jump\t// in\n    tag_43:\n      tag_44\n      jump\t// in\n    tag_42:\n      mload(0x40)\n      tag_45\n      swap2\n      swap1\n      tag_46\n      jump\t// in\n    tag_45:\n      mload(0x40)\n      dup1\n      swap2\n      sub\n      swap1\n      return\n        /* \"Government Citizen Info Tracking/GCIT smart contract.sol\":166:192  address[] public officials */\n    tag_10:\n      tag_47\n      0x04\n      dup1\n      calldatasize\n      sub\n      dup2\n      add\n      swap1\n      tag_48\n      swap2\n      swap1\n      tag_20\n      jump\t// in\n    tag_48:\n      tag_49\n      jump\t// in\n    tag_47:\n      mload(0x40)\n      tag_50\n      swap2\n      swap1\n      tag_28\n      jump\t// in\n    tag_50:\n      mload(0x40)\n      dup1\n      swap2\n      sub\n      swap1\n      return\n        /* \"Government Citizen Info Tracking/GCIT smart contract.sol\":1626:2026  function proposeLaw (string memory _description) external {... */\n    tag_11:\n      tag_51\n      0x04\n      dup1\n      calldatasize\n      sub\n      dup2\n      add\n      swap1\n      tag_52\n      swap2\n      swap1\n      tag_53\n      jump\t// in\n    tag_52:\n      tag_54\n      jump\t// in\n    tag_51:\n      stop\n        /* \"Government Citizen Info Tracking/GCIT smart contract.sol\":2062:2533  function voteProposal (uint256 proposalId, bool support) external {... */\n    tag_12:\n      tag_55\n      0x04\n      dup1\n      calldatasize\n      sub\n      dup2\n      add\n      swap1\n      tag_56\n      swap2\n      swap1\n      tag_57\n      jump\t// in\n    tag_56:\n      tag_58\n      jump\t// in\n    tag_55:\n      stop\n        /* \"Government Citizen Info Tracking/GCIT smart contract.sol\":247:287  mapping (address => bool) public isVoted */\n    tag_13:\n      tag_59\n      0x04\n      dup1\n      calldatasize\n      sub\n      dup2\n      add\n      swap1\n      tag_60\n      swap2\n      swap1\n      tag_36\n      jump\t// in\n    tag_60:\n      tag_61\n      jump\t// in\n    tag_59:\n      mload(0x40)\n      tag_62\n      swap2\n      swap1\n      tag_46\n      jump\t// in\n    tag_62:\n      mload(0x40)\n      dup1\n      swap2\n      sub\n      swap1\n      return\n        /* \"Government Citizen Info Tracking/GCIT smart contract.sol\":1132:1328  function newCitizen () external {... */\n    tag_14:\n      tag_63\n      tag_64\n      jump\t// in\n    tag_63:\n      stop\n        /* \"Government Citizen Info Tracking/GCIT smart contract.sol\":3110:3207  function getCitizens () external view returns (address[] memory) {... */\n    tag_15:\n      tag_65\n      tag_66\n      jump\t// in\n    tag_65:\n      mload(0x40)\n      tag_67\n      swap2\n      swap1\n      tag_41\n      jump\t// in\n    tag_67:\n      mload(0x40)\n      dup1\n      swap2\n      sub\n      swap1\n      return\n        /* \"Government Citizen Info Tracking/GCIT smart contract.sol\":468:498  LawProposed[] public proposals */\n    tag_21:\n      0x05\n      dup2\n      dup2\n      sload\n      dup2\n      lt\n      tag_68\n      jumpi\n      0x00\n      dup1\n      revert\n    tag_68:\n      swap1\n      0x00\n      mstore\n      keccak256(0x00, 0x20)\n      swap1\n      0x05\n      mul\n      add\n      0x00\n      swap2\n      pop\n      swap1\n      pop\n      dup1\n      0x00\n      add\n      dup1\n      sload\n      tag_70\n      swap1\n      tag_71\n      jump\t// in\n    tag_70:\n      dup1\n      0x1f\n      add\n      0x20\n      dup1\n      swap2\n      div\n      mul\n      0x20\n      add\n      mload(0x40)\n      swap1\n      dup2\n      add\n      0x40\n      mstore\n      dup1\n      swap3\n      swap2\n      swap1\n      dup2\n      dup2\n      mstore\n      0x20\n      add\n      dup3\n      dup1\n      sload\n      tag_72\n      swap1\n      tag_71\n      jump\t// in\n    tag_72:\n      dup1\n      iszero\n      tag_73\n      jumpi\n      dup1\n      0x1f\n      lt\n      tag_74\n      jumpi\n      0x0100\n      dup1\n      dup4\n      sload\n      div\n      mul\n      dup4\n      mstore\n      swap2\n      0x20\n      add\n      swap2\n      jump(tag_73)\n    tag_74:\n      dup3\n      add\n      swap2\n      swap1\n      0x00\n      mstore\n      keccak256(0x00, 0x20)\n      swap1\n    tag_75:\n      dup2\n      sload\n      dup2\n      mstore\n      swap1\n      0x01\n      add\n      swap1\n      0x20\n      add\n      dup1\n      dup4\n      gt\n      tag_75\n      jumpi\n      dup3\n      swap1\n      sub\n      0x1f\n      and\n      dup3\n      add\n      swap2\n    tag_73:\n      pop\n      pop\n      pop\n      pop\n      pop\n      swap1\n      dup1\n      0x01\n      add\n      0x00\n      swap1\n      sload\n      swap1\n      0x0100\n      exp\n      swap1\n      div\n      0xffffffffffffffffffffffffffffffffffffffff\n      and\n      swap1\n      dup1\n      0x02\n      add\n      sload\n      swap1\n      dup1\n      0x03\n      add\n      sload\n      swap1\n      dup1\n      0x04\n      add\n      0x00\n      swap1\n      sload\n      swap1\n      0x0100\n      exp\n      swap1\n      div\n      0xff\n      and\n      swap1\n      pop\n      dup6\n      jump\t// out\n        /* \"Government Citizen Info Tracking/GCIT smart contract.sol\":135:160  address[] public citizens */\n    tag_26:\n      0x01\n      dup2\n      dup2\n      sload\n      dup2\n      lt\n      tag_76\n      jumpi\n      0x00\n      dup1\n      revert\n    tag_76:\n      swap1\n      0x00\n      mstore\n      keccak256(0x00, 0x20)\n      add\n      0x00\n      swap2\n      pop\n      sload\n      swap1\n      0x0100\n      exp\n      swap1\n      div\n      0xffffffffffffffffffffffffffffffffffffffff\n      and\n      dup2\n      jump\t// out\n        /* \"Government Citizen Info Tracking/GCIT smart contract.sol\":1365:1595  function newOfficai () external {... */\n    tag_30:\n        /* \"Government Citizen Info Tracking/GCIT smart contract.sol\":1416:1426  isOfficial */\n      0x03\n        /* \"Government Citizen Info Tracking/GCIT smart contract.sol\":1416:1438  isOfficial[msg.sender] */\n      0x00\n        /* \"Government Citizen Info Tracking/GCIT smart contract.sol\":1427:1437  msg.sender */\n      caller\n        /* \"Government Citizen Info Tracking/GCIT smart contract.sol\":1416:1438  isOfficial[msg.sender] */\n      0xffffffffffffffffffffffffffffffffffffffff\n      and\n      0xffffffffffffffffffffffffffffffffffffffff\n      and\n      dup2\n      mstore\n      0x20\n      add\n      swap1\n      dup2\n      mstore\n      0x20\n      add\n      0x00\n      keccak256\n      0x00\n      swap1\n      sload\n      swap1\n      0x0100\n      exp\n      swap1\n      div\n      0xff\n      and\n        /* \"Government Citizen Info Tracking/GCIT smart contract.sol\":1415:1438  !isOfficial[msg.sender] */\n      iszero\n        /* \"Government Citizen Info Tracking/GCIT smart contract.sol\":1407:1474  require(!isOfficial[msg.sender], \"Already registered as official.\") */\n      tag_79\n      jumpi\n      mload(0x40)\n      0x08c379a000000000000000000000000000000000000000000000000000000000\n      dup2\n      mstore\n      0x04\n      add\n      tag_80\n      swap1\n      tag_81\n      jump\t// in\n    tag_80:\n      mload(0x40)\n      dup1\n      swap2\n      sub\n      swap1\n      revert\n    tag_79:\n        /* \"Government Citizen Info Tracking/GCIT smart contract.sol\":1485:1494  officials */\n      0x02\n        /* \"Government Citizen Info Tracking/GCIT smart contract.sol\":1500:1510  msg.sender */\n      caller\n        /* \"Government Citizen Info Tracking/GCIT smart contract.sol\":1485:1511  officials.push(msg.sender) */\n      swap1\n      dup1\n      0x01\n      dup2\n      sload\n      add\n      dup1\n      dup3\n      sstore\n      dup1\n      swap2\n      pop\n      pop\n      0x01\n      swap1\n      sub\n      swap1\n      0x00\n      mstore\n      keccak256(0x00, 0x20)\n      add\n      0x00\n      swap1\n      swap2\n      swap1\n      swap2\n      swap1\n      swap2\n      0x0100\n      exp\n      dup2\n      sload\n      dup2\n      0xffffffffffffffffffffffffffffffffffffffff\n      mul\n      not\n      and\n      swap1\n      dup4\n      0xffffffffffffffffffffffffffffffffffffffff\n      and\n      mul\n      or\n      swap1\n      sstore\n      pop\n        /* \"Government Citizen Info Tracking/GCIT smart contract.sol\":1546:1550  true */\n      0x01\n        /* \"Government Citizen Info Tracking/GCIT smart contract.sol\":1521:1531  isOfficial */\n      0x03\n        /* \"Government Citizen Info Tracking/GCIT smart contract.sol\":1521:1543  isOfficial[msg.sender] */\n      0x00\n        /* \"Government Citizen Info Tracking/GCIT smart contract.sol\":1532:1542  msg.sender */\n      caller\n        /* \"Government Citizen Info Tracking/GCIT smart contract.sol\":1521:1543  isOfficial[msg.sender] */\n      0xffffffffffffffffffffffffffffffffffffffff\n      and\n      0xffffffffffffffffffffffffffffffffffffffff\n      and\n      dup2\n      mstore\n      0x20\n      add\n      swap1\n      dup2\n      mstore\n      0x20\n      add\n      0x00\n      keccak256\n      0x00\n        /* \"Government Citizen Info Tracking/GCIT smart contract.sol\":1521:1550  isOfficial[msg.sender] = true */\n      0x0100\n      exp\n      dup2\n      sload\n      dup2\n      0xff\n      mul\n      not\n      and\n      swap1\n      dup4\n      iszero\n      iszero\n      mul\n      or\n      swap1\n      sstore\n      pop\n        /* \"Government Citizen Info Tracking/GCIT smart contract.sol\":1565:1588  NewOfficial(msg.sender) */\n      0xb7fcdd20d03d875d53ec5d179f2b54e90664b043a69ced790bb5f367b63bafda\n        /* \"Government Citizen Info Tracking/GCIT smart contract.sol\":1577:1587  msg.sender */\n      caller\n        /* \"Government Citizen Info Tracking/GCIT smart contract.sol\":1565:1588  NewOfficial(msg.sender) */\n      mload(0x40)\n      tag_83\n      swap2\n      swap1\n      tag_28\n      jump\t// in\n    tag_83:\n      mload(0x40)\n      dup1\n      swap2\n      sub\n      swap1\n      log1\n        /* \"Government Citizen Info Tracking/GCIT smart contract.sol\":1365:1595  function newOfficai () external {... */\n      jump\t// out\n        /* \"Government Citizen Info Tracking/GCIT smart contract.sol\":2556:3079  function enactLaw(uint256 proposalId) external onlyOwner {... */\n    tag_33:\n        /* \"Government Citizen Info Tracking/GCIT smart contract.sol\":914:919  owner */\n      0x00\n      dup1\n      sload\n      swap1\n      0x0100\n      exp\n      swap1\n      div\n      0xffffffffffffffffffffffffffffffffffffffff\n      and\n        /* \"Government Citizen Info Tracking/GCIT smart contract.sol\":900:919  msg.sender == owner */\n      0xffffffffffffffffffffffffffffffffffffffff\n      and\n        /* \"Government Citizen Info Tracking/GCIT smart contract.sol\":900:910  msg.sender */\n      caller\n        /* \"Government Citizen Info Tracking/GCIT smart contract.sol\":900:919  msg.sender == owner */\n      0xffffffffffffffffffffffffffffffffffffffff\n      and\n      eq\n        /* \"Government Citizen Info Tracking/GCIT smart contract.sol\":892:968  require(msg.sender == owner, \"Only contract owner can perform this action.\") */\n      tag_85\n      jumpi\n      mload(0x40)\n      0x08c379a000000000000000000000000000000000000000000000000000000000\n      dup2\n      mstore\n      0x04\n      add\n      tag_86\n      swap1\n      tag_87\n      jump\t// in\n    tag_86:\n      mload(0x40)\n      dup1\n      swap2\n      sub\n      swap1\n      revert\n    tag_85:\n        /* \"Government Citizen Info Tracking/GCIT smart contract.sol\":2663:2664  1 */\n      0x01\n        /* \"Government Citizen Info Tracking/GCIT smart contract.sol\":2644:2653  proposals */\n      0x05\n        /* \"Government Citizen Info Tracking/GCIT smart contract.sol\":2644:2660  proposals.length */\n      dup1\n      sload\n      swap1\n      pop\n        /* \"Government Citizen Info Tracking/GCIT smart contract.sol\":2644:2664  proposals.length - 1 */\n      tag_89\n      swap2\n      swap1\n      tag_90\n      jump\t// in\n    tag_89:\n        /* \"Government Citizen Info Tracking/GCIT smart contract.sol\":2631:2641  proposalId */\n      dup2\n        /* \"Government Citizen Info Tracking/GCIT smart contract.sol\":2631:2664  proposalId < proposals.length - 1 */\n      lt\n        /* \"Government Citizen Info Tracking/GCIT smart contract.sol\":2623:2689  require(proposalId < proposals.length - 1, \"Invalid proposal Id.\") */\n      tag_91\n      jumpi\n      mload(0x40)\n      0x08c379a000000000000000000000000000000000000000000000000000000000\n      dup2\n      mstore\n      0x04\n      add\n      tag_92\n      swap1\n      tag_93\n      jump\t// in\n    tag_92:\n      mload(0x40)\n      dup1\n      swap2\n      sub\n      swap1\n      revert\n    tag_91:\n        /* \"Government Citizen Info Tracking/GCIT smart contract.sol\":2699:2727  LawProposed storage proposal */\n      0x00\n        /* \"Government Citizen Info Tracking/GCIT smart contract.sol\":2730:2739  proposals */\n      0x05\n        /* \"Government Citizen Info Tracking/GCIT smart contract.sol\":2740:2750  proposalId */\n      dup3\n        /* \"Government Citizen Info Tracking/GCIT smart contract.sol\":2730:2751  proposals[proposalId] */\n      dup2\n      sload\n      dup2\n      lt\n      tag_94\n      jumpi\n      tag_95\n      tag_96\n      jump\t// in\n    tag_95:\n    tag_94:\n      swap1\n      0x00\n      mstore\n      keccak256(0x00, 0x20)\n      swap1\n      0x05\n      mul\n      add\n        /* \"Government Citizen Info Tracking/GCIT smart contract.sol\":2699:2751  LawProposed storage proposal = proposals[proposalId] */\n      swap1\n      pop\n        /* \"Government Citizen Info Tracking/GCIT smart contract.sol\":2770:2778  proposal */\n      dup1\n        /* \"Government Citizen Info Tracking/GCIT smart contract.sol\":2770:2786  proposal.enacted */\n      0x04\n      add\n      0x00\n      swap1\n      sload\n      swap1\n      0x0100\n      exp\n      swap1\n      div\n      0xff\n      and\n        /* \"Government Citizen Info Tracking/GCIT smart contract.sol\":2769:2786  !proposal.enacted */\n      iszero\n        /* \"Government Citizen Info Tracking/GCIT smart contract.sol\":2761:2828  require(!proposal.enacted, \"Proposal already enacted or rejected.\") */\n      tag_98\n      jumpi\n      mload(0x40)\n      0x08c379a000000000000000000000000000000000000000000000000000000000\n      dup2\n      mstore\n      0x04\n      add\n      tag_99\n      swap1\n      tag_100\n      jump\t// in\n    tag_99:\n      mload(0x40)\n      dup1\n      swap2\n      sub\n      swap1\n      revert\n    tag_98:\n        /* \"Government Citizen Info Tracking/GCIT smart contract.sol\":2863:2871  proposal */\n      dup1\n        /* \"Government Citizen Info Tracking/GCIT smart contract.sol\":2863:2879  proposal.noVotes */\n      0x03\n      add\n      sload\n        /* \"Government Citizen Info Tracking/GCIT smart contract.sol\":2843:2851  proposal */\n      dup2\n        /* \"Government Citizen Info Tracking/GCIT smart contract.sol\":2843:2860  proposal.yesVotes */\n      0x02\n      add\n      sload\n        /* \"Government Citizen Info Tracking/GCIT smart contract.sol\":2843:2879  proposal.yesVotes > proposal.noVotes */\n      gt\n        /* \"Government Citizen Info Tracking/GCIT smart contract.sol\":2839:3073  if (proposal.yesVotes > proposal.noVotes) {... */\n      iszero\n      tag_101\n      jumpi\n        /* \"Government Citizen Info Tracking/GCIT smart contract.sol\":2914:2918  true */\n      0x01\n        /* \"Government Citizen Info Tracking/GCIT smart contract.sol\":2895:2903  proposal */\n      dup2\n        /* \"Government Citizen Info Tracking/GCIT smart contract.sol\":2895:2911  proposal.enacted */\n      0x04\n      add\n      0x00\n        /* \"Government Citizen Info Tracking/GCIT smart contract.sol\":2895:2918  proposal.enacted = true */\n      0x0100\n      exp\n      dup2\n      sload\n      dup2\n      0xff\n      mul\n      not\n      and\n      swap1\n      dup4\n      iszero\n      iszero\n      mul\n      or\n      swap1\n      sstore\n      pop\n        /* \"Government Citizen Info Tracking/GCIT smart contract.sol\":2937:2981  LawEnacted(proposalId, proposal.description) */\n      0x0f80dead99a18a848dcf7fa12502623fff1ab42eae8f5a5f1f905927e1db1b85\n        /* \"Government Citizen Info Tracking/GCIT smart contract.sol\":2948:2958  proposalId */\n      dup3\n        /* \"Government Citizen Info Tracking/GCIT smart contract.sol\":2960:2968  proposal */\n      dup3\n        /* \"Government Citizen Info Tracking/GCIT smart contract.sol\":2960:2980  proposal.description */\n      0x00\n      add\n        /* \"Government Citizen Info Tracking/GCIT smart contract.sol\":2937:2981  LawEnacted(proposalId, proposal.description) */\n      mload(0x40)\n      tag_102\n      swap3\n      swap2\n      swap1\n      tag_103\n      jump\t// in\n    tag_102:\n      mload(0x40)\n      dup1\n      swap2\n      sub\n      swap1\n      log1\n        /* \"Government Citizen Info Tracking/GCIT smart contract.sol\":2839:3073  if (proposal.yesVotes > proposal.noVotes) {... */\n      jump(tag_104)\n    tag_101:\n        /* \"Government Citizen Info Tracking/GCIT smart contract.sol\":3017:3062  LawRejected(proposalId, proposal.description) */\n      0x0cd74dd1ceb9bafb229618ba9f08a9f7d116dc8f1975f422a099b41c48035ef2\n        /* \"Government Citizen Info Tracking/GCIT smart contract.sol\":3029:3039  proposalId */\n      dup3\n        /* \"Government Citizen Info Tracking/GCIT smart contract.sol\":3041:3049  proposal */\n      dup3\n        /* \"Government Citizen Info Tracking/GCIT smart contract.sol\":3041:3061  proposal.description */\n      0x00\n      add\n        /* \"Government Citizen Info Tracking/GCIT smart contract.sol\":3017:3062  LawRejected(proposalId, proposal.description) */\n      mload(0x40)\n      tag_105\n      swap3\n      swap2\n      swap1\n      tag_103\n      jump\t// in\n    tag_105:\n      mload(0x40)\n      dup1\n      swap2\n      sub\n      swap1\n      log1\n        /* \"Government Citizen Info Tracking/GCIT smart contract.sol\":2839:3073  if (proposal.yesVotes > proposal.noVotes) {... */\n    tag_104:\n        /* \"Government Citizen Info Tracking/GCIT smart contract.sol\":2613:3079  {... */\n      pop\n        /* \"Government Citizen Info Tracking/GCIT smart contract.sol\":2556:3079  function enactLaw(uint256 proposalId) external onlyOwner {... */\n      pop\n      jump\t// out\n        /* \"Government Citizen Info Tracking/GCIT smart contract.sol\":3368:3659  function toggelOfficialStatus (address user) external {... */\n    tag_37:\n        /* \"Government Citizen Info Tracking/GCIT smart contract.sol\":3452:3462  isOfficial */\n      0x03\n        /* \"Government Citizen Info Tracking/GCIT smart contract.sol\":3452:3468  isOfficial[user] */\n      0x00\n        /* \"Government Citizen Info Tracking/GCIT smart contract.sol\":3463:3467  user */\n      dup3\n        /* \"Government Citizen Info Tracking/GCIT smart contract.sol\":3452:3468  isOfficial[user] */\n      0xffffffffffffffffffffffffffffffffffffffff\n      and\n      0xffffffffffffffffffffffffffffffffffffffff\n      and\n      dup2\n      mstore\n      0x20\n      add\n      swap1\n      dup2\n      mstore\n      0x20\n      add\n      0x00\n      keccak256\n      0x00\n      swap1\n      sload\n      swap1\n      0x0100\n      exp\n      swap1\n      div\n      0xff\n      and\n        /* \"Government Citizen Info Tracking/GCIT smart contract.sol\":3451:3468  !isOfficial[user] */\n      iszero\n        /* \"Government Citizen Info Tracking/GCIT smart contract.sol\":3432:3442  isOfficial */\n      0x03\n        /* \"Government Citizen Info Tracking/GCIT smart contract.sol\":3432:3448  isOfficial[user] */\n      0x00\n        /* \"Government Citizen Info Tracking/GCIT smart contract.sol\":3443:3447  user */\n      dup4\n        /* \"Government Citizen Info Tracking/GCIT smart contract.sol\":3432:3448  isOfficial[user] */\n      0xffffffffffffffffffffffffffffffffffffffff\n      and\n      0xffffffffffffffffffffffffffffffffffffffff\n      and\n      dup2\n      mstore\n      0x20\n      add\n      swap1\n      dup2\n      mstore\n      0x20\n      add\n      0x00\n      keccak256\n      0x00\n        /* \"Government Citizen Info Tracking/GCIT smart contract.sol\":3432:3468  isOfficial[user] = !isOfficial[user] */\n      0x0100\n      exp\n      dup2\n      sload\n      dup2\n      0xff\n      mul\n      not\n      and\n      swap1\n      dup4\n      iszero\n      iszero\n      mul\n      or\n      swap1\n      sstore\n      pop\n        /* \"Government Citizen Info Tracking/GCIT smart contract.sol\":3491:3501  isOfficial */\n      0x03\n        /* \"Government Citizen Info Tracking/GCIT smart contract.sol\":3491:3507  isOfficial[user] */\n      0x00\n        /* \"Government Citizen Info Tracking/GCIT smart contract.sol\":3502:3506  user */\n      dup3\n        /* \"Government Citizen Info Tracking/GCIT smart contract.sol\":3491:3507  isOfficial[user] */\n      0xffffffffffffffffffffffffffffffffffffffff\n      and\n      0xffffffffffffffffffffffffffffffffffffffff\n      and\n      dup2\n      mstore\n      0x20\n      add\n      swap1\n      dup2\n      mstore\n      0x20\n      add\n      0x00\n      keccak256\n      0x00\n      swap1\n      sload\n      swap1\n      0x0100\n      exp\n      swap1\n      div\n      0xff\n      and\n        /* \"Government Citizen Info Tracking/GCIT smart contract.sol\":3487:3653  if (isOfficial[user]) {... */\n      iszero\n      tag_107\n      jumpi\n        /* \"Government Citizen Info Tracking/GCIT smart contract.sol\":3523:3532  officials */\n      0x02\n        /* \"Government Citizen Info Tracking/GCIT smart contract.sol\":3538:3542  user */\n      dup2\n        /* \"Government Citizen Info Tracking/GCIT smart contract.sol\":3523:3543  officials.push(user) */\n      swap1\n      dup1\n      0x01\n      dup2\n      sload\n      add\n      dup1\n      dup3\n      sstore\n      dup1\n      swap2\n      pop\n      pop\n      0x01\n      swap1\n      sub\n      swap1\n      0x00\n      mstore\n      keccak256(0x00, 0x20)\n      add\n      0x00\n      swap1\n      swap2\n      swap1\n      swap2\n      swap1\n      swap2\n      0x0100\n      exp\n      dup2\n      sload\n      dup2\n      0xffffffffffffffffffffffffffffffffffffffff\n      mul\n      not\n      and\n      swap1\n      dup4\n      0xffffffffffffffffffffffffffffffffffffffff\n      and\n      mul\n      or\n      swap1\n      sstore\n      pop\n        /* \"Government Citizen Info Tracking/GCIT smart contract.sol\":3487:3653  if (isOfficial[user]) {... */\n      jump(tag_109)\n    tag_107:\n    tag_109:\n        /* \"Government Citizen Info Tracking/GCIT smart contract.sol\":3368:3659  function toggelOfficialStatus (address user) external {... */\n      pop\n      jump\t// out\n        /* \"Government Citizen Info Tracking/GCIT smart contract.sol\":3213:3312  function getOfficials () external view returns (address[] memory) {... */\n    tag_39:\n        /* \"Government Citizen Info Tracking/GCIT smart contract.sol\":3261:3277  address[] memory */\n      0x60\n        /* \"Government Citizen Info Tracking/GCIT smart contract.sol\":3296:3305  officials */\n      0x02\n        /* \"Government Citizen Info Tracking/GCIT smart contract.sol\":3289:3305  return officials */\n      dup1\n      sload\n      dup1\n      0x20\n      mul\n      0x20\n      add\n      mload(0x40)\n      swap1\n      dup2\n      add\n      0x40\n      mstore\n      dup1\n      swap3\n      swap2\n      swap1\n      dup2\n      dup2\n      mstore\n      0x20\n      add\n      dup3\n      dup1\n      sload\n      dup1\n      iszero\n      tag_111\n      jumpi\n      0x20\n      mul\n      dup3\n      add\n      swap2\n      swap1\n      0x00\n      mstore\n      keccak256(0x00, 0x20)\n      swap1\n    tag_112:\n      dup2\n      0x00\n      swap1\n      sload\n      swap1\n      0x0100\n      exp\n      swap1\n      div\n      0xffffffffffffffffffffffffffffffffffffffff\n      and\n      0xffffffffffffffffffffffffffffffffffffffff\n      and\n      dup2\n      mstore\n      0x20\n      add\n      swap1\n      0x01\n      add\n      swap1\n      dup1\n      dup4\n      gt\n      tag_112\n      jumpi\n    tag_111:\n      pop\n      pop\n      pop\n      pop\n      pop\n      swap1\n      pop\n        /* \"Government Citizen Info Tracking/GCIT smart contract.sol\":3213:3312  function getOfficials () external view returns (address[] memory) {... */\n      swap1\n      jump\t// out\n        /* \"Government Citizen Info Tracking/GCIT smart contract.sol\":198:241  mapping (address => bool) public isOfficial */\n    tag_44:\n      mstore(0x20, 0x03)\n      dup1\n      0x00\n      mstore\n      keccak256(0x00, 0x40)\n      0x00\n      swap2\n      pop\n      sload\n      swap1\n      0x0100\n      exp\n      swap1\n      div\n      0xff\n      and\n      dup2\n      jump\t// out\n        /* \"Government Citizen Info Tracking/GCIT smart contract.sol\":166:192  address[] public officials */\n    tag_49:\n      0x02\n      dup2\n      dup2\n      sload\n      dup2\n      lt\n      tag_113\n      jumpi\n      0x00\n      dup1\n      revert\n    tag_113:\n      swap1\n      0x00\n      mstore\n      keccak256(0x00, 0x20)\n      add\n      0x00\n      swap2\n      pop\n      sload\n      swap1\n      0x0100\n      exp\n      swap1\n      div\n      0xffffffffffffffffffffffffffffffffffffffff\n      and\n      dup2\n      jump\t// out\n        /* \"Government Citizen Info Tracking/GCIT smart contract.sol\":1626:2026  function proposeLaw (string memory _description) external {... */\n    tag_54:\n        /* \"Government Citizen Info Tracking/GCIT smart contract.sol\":1702:1712  isOfficial */\n      0x03\n        /* \"Government Citizen Info Tracking/GCIT smart contract.sol\":1702:1724  isOfficial[msg.sender] */\n      0x00\n        /* \"Government Citizen Info Tracking/GCIT smart contract.sol\":1713:1723  msg.sender */\n      caller\n        /* \"Government Citizen Info Tracking/GCIT smart contract.sol\":1702:1724  isOfficial[msg.sender] */\n      0xffffffffffffffffffffffffffffffffffffffff\n      and\n      0xffffffffffffffffffffffffffffffffffffffff\n      and\n      dup2\n      mstore\n      0x20\n      add\n      swap1\n      dup2\n      mstore\n      0x20\n      add\n      0x00\n      keccak256\n      0x00\n      swap1\n      sload\n      swap1\n      0x0100\n      exp\n      swap1\n      div\n      0xff\n      and\n        /* \"Government Citizen Info Tracking/GCIT smart contract.sol\":1694:1758  require(isOfficial[msg.sender], \"Only owner can propose a law.\") */\n      tag_116\n      jumpi\n      mload(0x40)\n      0x08c379a000000000000000000000000000000000000000000000000000000000\n      dup2\n      mstore\n      0x04\n      add\n      tag_117\n      swap1\n      tag_118\n      jump\t// in\n    tag_117:\n      mload(0x40)\n      dup1\n      swap2\n      sub\n      swap1\n      revert\n    tag_116:\n        /* \"Government Citizen Info Tracking/GCIT smart contract.sol\":1769:1778  proposals */\n      0x05\n        /* \"Government Citizen Info Tracking/GCIT smart contract.sol\":1784:1956  LawProposed({... */\n      mload(0x40)\n      dup1\n      0xa0\n      add\n      0x40\n      mstore\n      dup1\n        /* \"Government Citizen Info Tracking/GCIT smart contract.sol\":1823:1835  _description */\n      dup4\n        /* \"Government Citizen Info Tracking/GCIT smart contract.sol\":1784:1956  LawProposed({... */\n      dup2\n      mstore\n      0x20\n      add\n        /* \"Government Citizen Info Tracking/GCIT smart contract.sol\":1859:1869  msg.sender */\n      caller\n        /* \"Government Citizen Info Tracking/GCIT smart contract.sol\":1784:1956  LawProposed({... */\n      0xffffffffffffffffffffffffffffffffffffffff\n      and\n      dup2\n      mstore\n      0x20\n      add\n        /* \"Government Citizen Info Tracking/GCIT smart contract.sol\":1893:1894  0 */\n      0x00\n        /* \"Government Citizen Info Tracking/GCIT smart contract.sol\":1784:1956  LawProposed({... */\n      dup2\n      mstore\n      0x20\n      add\n        /* \"Government Citizen Info Tracking/GCIT smart contract.sol\":1916:1917  0 */\n      0x00\n        /* \"Government Citizen Info Tracking/GCIT smart contract.sol\":1784:1956  LawProposed({... */\n      dup2\n      mstore\n      0x20\n      add\n        /* \"Government Citizen Info Tracking/GCIT smart contract.sol\":1940:1945  false */\n      0x00\n        /* \"Government Citizen Info Tracking/GCIT smart contract.sol\":1784:1956  LawProposed({... */\n      iszero\n      iszero\n      dup2\n      mstore\n      pop\n        /* \"Government Citizen Info Tracking/GCIT smart contract.sol\":1769:1957  proposals.push(LawProposed({... */\n      swap1\n      dup1\n      0x01\n      dup2\n      sload\n      add\n      dup1\n      dup3\n      sstore\n      dup1\n      swap2\n      pop\n      pop\n      0x01\n      swap1\n      sub\n      swap1\n      0x00\n      mstore\n      keccak256(0x00, 0x20)\n      swap1\n      0x05\n      mul\n      add\n      0x00\n      swap1\n      swap2\n      swap1\n      swap2\n      swap1\n      swap2\n      pop\n      0x00\n      dup3\n      add\n      mload\n      dup2\n      0x00\n      add\n      swap1\n      dup2\n      tag_120\n      swap2\n      swap1\n      tag_121\n      jump\t// in\n    tag_120:\n      pop\n      0x20\n      dup3\n      add\n      mload\n      dup2\n      0x01\n      add\n      exp(0x0100, 0x00)\n      dup2\n      sload\n      dup2\n      0xffffffffffffffffffffffffffffffffffffffff\n      mul\n      not\n      and\n      swap1\n      dup4\n      0xffffffffffffffffffffffffffffffffffffffff\n      and\n      mul\n      or\n      swap1\n      sstore\n      pop\n      0x40\n      dup3\n      add\n      mload\n      dup2\n      0x02\n      add\n      sstore\n      0x60\n      dup3\n      add\n      mload\n      dup2\n      0x03\n      add\n      sstore\n      0x80\n      dup3\n      add\n      mload\n      dup2\n      0x04\n      add\n      exp(0x0100, 0x00)\n      dup2\n      sload\n      dup2\n      0xff\n      mul\n      not\n      and\n      swap1\n      dup4\n      iszero\n      iszero\n      mul\n      or\n      swap1\n      sstore\n      pop\n      pop\n      pop\n        /* \"Government Citizen Info Tracking/GCIT smart contract.sol\":1972:2019  NewProposal(proposals.length - 1, _description) */\n      0xa9ef596c73fbcfb4a78bc139b1a19c35247c1f37d2489c0513ad2dd3eb7d8c6b\n        /* \"Government Citizen Info Tracking/GCIT smart contract.sol\":2003:2004  1 */\n      0x01\n        /* \"Government Citizen Info Tracking/GCIT smart contract.sol\":1984:1993  proposals */\n      0x05\n        /* \"Government Citizen Info Tracking/GCIT smart contract.sol\":1984:2000  proposals.length */\n      dup1\n      sload\n      swap1\n      pop\n        /* \"Government Citizen Info Tracking/GCIT smart contract.sol\":1984:2004  proposals.length - 1 */\n      tag_122\n      swap2\n      swap1\n      tag_90\n      jump\t// in\n    tag_122:\n        /* \"Government Citizen Info Tracking/GCIT smart contract.sol\":2006:2018  _description */\n      dup3\n        /* \"Government Citizen Info Tracking/GCIT smart contract.sol\":1972:2019  NewProposal(proposals.length - 1, _description) */\n      mload(0x40)\n      tag_123\n      swap3\n      swap2\n      swap1\n      tag_124\n      jump\t// in\n    tag_123:\n      mload(0x40)\n      dup1\n      swap2\n      sub\n      swap1\n      log1\n        /* \"Government Citizen Info Tracking/GCIT smart contract.sol\":1626:2026  function proposeLaw (string memory _description) external {... */\n      pop\n      jump\t// out\n        /* \"Government Citizen Info Tracking/GCIT smart contract.sol\":2062:2533  function voteProposal (uint256 proposalId, bool support) external {... */\n    tag_58:\n        /* \"Government Citizen Info Tracking/GCIT smart contract.sol\":2147:2154  isVoted */\n      0x04\n        /* \"Government Citizen Info Tracking/GCIT smart contract.sol\":2147:2166  isVoted[msg.sender] */\n      0x00\n        /* \"Government Citizen Info Tracking/GCIT smart contract.sol\":2155:2165  msg.sender */\n      caller\n        /* \"Government Citizen Info Tracking/GCIT smart contract.sol\":2147:2166  isVoted[msg.sender] */\n      0xffffffffffffffffffffffffffffffffffffffff\n      and\n      0xffffffffffffffffffffffffffffffffffffffff\n      and\n      dup2\n      mstore\n      0x20\n      add\n      swap1\n      dup2\n      mstore\n      0x20\n      add\n      0x00\n      keccak256\n      0x00\n      swap1\n      sload\n      swap1\n      0x0100\n      exp\n      swap1\n      div\n      0xff\n      and\n        /* \"Government Citizen Info Tracking/GCIT smart contract.sol\":2146:2166  !isVoted[msg.sender] */\n      iszero\n        /* \"Government Citizen Info Tracking/GCIT smart contract.sol\":2138:2185  require(!isVoted[msg.sender], \"Already voted.\") */\n      tag_126\n      jumpi\n      mload(0x40)\n      0x08c379a000000000000000000000000000000000000000000000000000000000\n      dup2\n      mstore\n      0x04\n      add\n      tag_127\n      swap1\n      tag_128\n      jump\t// in\n    tag_127:\n      mload(0x40)\n      dup1\n      swap2\n      sub\n      swap1\n      revert\n    tag_126:\n        /* \"Government Citizen Info Tracking/GCIT smart contract.sol\":2235:2236  1 */\n      0x01\n        /* \"Government Citizen Info Tracking/GCIT smart contract.sol\":2216:2225  proposals */\n      0x05\n        /* \"Government Citizen Info Tracking/GCIT smart contract.sol\":2216:2232  proposals.length */\n      dup1\n      sload\n      swap1\n      pop\n        /* \"Government Citizen Info Tracking/GCIT smart contract.sol\":2216:2236  proposals.length - 1 */\n      tag_129\n      swap2\n      swap1\n      tag_90\n      jump\t// in\n    tag_129:\n        /* \"Government Citizen Info Tracking/GCIT smart contract.sol\":2203:2213  proposalId */\n      dup3\n        /* \"Government Citizen Info Tracking/GCIT smart contract.sol\":2203:2236  proposalId < proposals.length - 1 */\n      lt\n        /* \"Government Citizen Info Tracking/GCIT smart contract.sol\":2195:2260  require(proposalId < proposals.length - 1, \"Invalid proposal Id\") */\n      tag_130\n      jumpi\n      mload(0x40)\n      0x08c379a000000000000000000000000000000000000000000000000000000000\n      dup2\n      mstore\n      0x04\n      add\n      tag_131\n      swap1\n      tag_132\n      jump\t// in\n    tag_131:\n      mload(0x40)\n      dup1\n      swap2\n      sub\n      swap1\n      revert\n    tag_130:\n        /* \"Government Citizen Info Tracking/GCIT smart contract.sol\":2271:2299  LawProposed storage proposal */\n      0x00\n        /* \"Government Citizen Info Tracking/GCIT smart contract.sol\":2302:2311  proposals */\n      0x05\n        /* \"Government Citizen Info Tracking/GCIT smart contract.sol\":2312:2322  proposalId */\n      dup4\n        /* \"Government Citizen Info Tracking/GCIT smart contract.sol\":2302:2323  proposals[proposalId] */\n      dup2\n      sload\n      dup2\n      lt\n      tag_133\n      jumpi\n      tag_134\n      tag_96\n      jump\t// in\n    tag_134:\n    tag_133:\n      swap1\n      0x00\n      mstore\n      keccak256(0x00, 0x20)\n      swap1\n      0x05\n      mul\n      add\n        /* \"Government Citizen Info Tracking/GCIT smart contract.sol\":2271:2323  LawProposed storage proposal = proposals[proposalId] */\n      swap1\n      pop\n        /* \"Government Citizen Info Tracking/GCIT smart contract.sol\":2336:2343  support */\n      dup2\n        /* \"Government Citizen Info Tracking/GCIT smart contract.sol\":2333:2444  if(support) {... */\n      iszero\n      tag_136\n      jumpi\n        /* \"Government Citizen Info Tracking/GCIT smart contract.sol\":2380:2381  1 */\n      0x01\n        /* \"Government Citizen Info Tracking/GCIT smart contract.sol\":2359:2367  proposal */\n      dup2\n        /* \"Government Citizen Info Tracking/GCIT smart contract.sol\":2359:2376  proposal.yesVotes */\n      0x02\n      add\n      0x00\n        /* \"Government Citizen Info Tracking/GCIT smart contract.sol\":2359:2381  proposal.yesVotes += 1 */\n      dup3\n      dup3\n      sload\n      tag_137\n      swap2\n      swap1\n      tag_138\n      jump\t// in\n    tag_137:\n      swap3\n      pop\n      pop\n      dup2\n      swap1\n      sstore\n      pop\n        /* \"Government Citizen Info Tracking/GCIT smart contract.sol\":2333:2444  if(support) {... */\n      jump(tag_139)\n    tag_136:\n        /* \"Government Citizen Info Tracking/GCIT smart contract.sol\":2432:2433  1 */\n      0x01\n        /* \"Government Citizen Info Tracking/GCIT smart contract.sol\":2412:2420  proposal */\n      dup2\n        /* \"Government Citizen Info Tracking/GCIT smart contract.sol\":2412:2428  proposal.noVotes */\n      0x03\n      add\n      0x00\n        /* \"Government Citizen Info Tracking/GCIT smart contract.sol\":2412:2433  proposal.noVotes -= 1 */\n      dup3\n      dup3\n      sload\n      tag_140\n      swap2\n      swap1\n      tag_90\n      jump\t// in\n    tag_140:\n      swap3\n      pop\n      pop\n      dup2\n      swap1\n      sstore\n      pop\n        /* \"Government Citizen Info Tracking/GCIT smart contract.sol\":2333:2444  if(support) {... */\n    tag_139:\n        /* \"Government Citizen Info Tracking/GCIT smart contract.sol\":2476:2480  true */\n      0x01\n        /* \"Government Citizen Info Tracking/GCIT smart contract.sol\":2454:2461  isVoted */\n      0x04\n        /* \"Government Citizen Info Tracking/GCIT smart contract.sol\":2454:2473  isVoted[msg.sender] */\n      0x00\n        /* \"Government Citizen Info Tracking/GCIT smart contract.sol\":2462:2472  msg.sender */\n      caller\n        /* \"Government Citizen Info Tracking/GCIT smart contract.sol\":2454:2473  isVoted[msg.sender] */\n      0xffffffffffffffffffffffffffffffffffffffff\n      and\n      0xffffffffffffffffffffffffffffffffffffffff\n      and\n      dup2\n      mstore\n      0x20\n      add\n      swap1\n      dup2\n      mstore\n      0x20\n      add\n      0x00\n      keccak256\n      0x00\n        /* \"Government Citizen Info Tracking/GCIT smart contract.sol\":2454:2480  isVoted[msg.sender] = true */\n      0x0100\n      exp\n      dup2\n      sload\n      dup2\n      0xff\n      mul\n      not\n      and\n      swap1\n      dup4\n      iszero\n      iszero\n      mul\n      or\n      swap1\n      sstore\n      pop\n        /* \"Government Citizen Info Tracking/GCIT smart contract.sol\":2495:2526  VoteCasted(proposalId, support) */\n      0x98b03f1463128a74cc9dd4acc43b54ef12ac07daacbcd621d2e4266091b7024a\n        /* \"Government Citizen Info Tracking/GCIT smart contract.sol\":2506:2516  proposalId */\n      dup4\n        /* \"Government Citizen Info Tracking/GCIT smart contract.sol\":2518:2525  support */\n      dup4\n        /* \"Government Citizen Info Tracking/GCIT smart contract.sol\":2495:2526  VoteCasted(proposalId, support) */\n      mload(0x40)\n      tag_141\n      swap3\n      swap2\n      swap1\n      tag_142\n      jump\t// in\n    tag_141:\n      mload(0x40)\n      dup1\n      swap2\n      sub\n      swap1\n      log1\n        /* \"Government Citizen Info Tracking/GCIT smart contract.sol\":2128:2533  {... */\n      pop\n        /* \"Government Citizen Info Tracking/GCIT smart contract.sol\":2062:2533  function voteProposal (uint256 proposalId, bool support) external {... */\n      pop\n      pop\n      jump\t// out\n        /* \"Government Citizen Info Tracking/GCIT smart contract.sol\":247:287  mapping (address => bool) public isVoted */\n    tag_61:\n      mstore(0x20, 0x04)\n      dup1\n      0x00\n      mstore\n      keccak256(0x00, 0x40)\n      0x00\n      swap2\n      pop\n      sload\n      swap1\n      0x0100\n      exp\n      swap1\n      div\n      0xff\n      and\n      dup2\n      jump\t// out\n        /* \"Government Citizen Info Tracking/GCIT smart contract.sol\":1132:1328  function newCitizen () external {... */\n    tag_64:\n        /* \"Government Citizen Info Tracking/GCIT smart contract.sol\":1183:1193  isOfficial */\n      0x03\n        /* \"Government Citizen Info Tracking/GCIT smart contract.sol\":1183:1205  isOfficial[msg.sender] */\n      0x00\n        /* \"Government Citizen Info Tracking/GCIT smart contract.sol\":1194:1204  msg.sender */\n      caller\n        /* \"Government Citizen Info Tracking/GCIT smart contract.sol\":1183:1205  isOfficial[msg.sender] */\n      0xffffffffffffffffffffffffffffffffffffffff\n      and\n      0xffffffffffffffffffffffffffffffffffffffff\n      and\n      dup2\n      mstore\n      0x20\n      add\n      swap1\n      dup2\n      mstore\n      0x20\n      add\n      0x00\n      keccak256\n      0x00\n      swap1\n      sload\n      swap1\n      0x0100\n      exp\n      swap1\n      div\n      0xff\n      and\n        /* \"Government Citizen Info Tracking/GCIT smart contract.sol\":1182:1205  !isOfficial[msg.sender] */\n      iszero\n        /* \"Government Citizen Info Tracking/GCIT smart contract.sol\":1174:1248  require(!isOfficial[msg.sender], \"Officials cannot register as citizens.\") */\n      tag_144\n      jumpi\n      mload(0x40)\n      0x08c379a000000000000000000000000000000000000000000000000000000000\n      dup2\n      mstore\n      0x04\n      add\n      tag_145\n      swap1\n      tag_146\n      jump\t// in\n    tag_145:\n      mload(0x40)\n      dup1\n      swap2\n      sub\n      swap1\n      revert\n    tag_144:\n        /* \"Government Citizen Info Tracking/GCIT smart contract.sol\":1259:1267  citizens */\n      0x01\n        /* \"Government Citizen Info Tracking/GCIT smart contract.sol\":1273:1283  msg.sender */\n      caller\n        /* \"Government Citizen Info Tracking/GCIT smart contract.sol\":1259:1284  citizens.push(msg.sender) */\n      swap1\n      dup1\n      0x01\n      dup2\n      sload\n      add\n      dup1\n      dup3\n      sstore\n      dup1\n      swap2\n      pop\n      pop\n      0x01\n      swap1\n      sub\n      swap1\n      0x00\n      mstore\n      keccak256(0x00, 0x20)\n      add\n      0x00\n      swap1\n      swap2\n      swap1\n      swap2\n      swap1\n      swap2\n      0x0100\n      exp\n      dup2\n      sload\n      dup2\n      0xffffffffffffffffffffffffffffffffffffffff\n      mul\n      not\n      and\n      swap1\n      dup4\n      0xffffffffffffffffffffffffffffffffffffffff\n      and\n      mul\n      or\n      swap1\n      sstore\n      pop\n        /* \"Government Citizen Info Tracking/GCIT smart contract.sol\":1299:1321  NewCitizen(msg.sender) */\n      0xb02c854262a0f639ed4a5b8dec912bb096e42f257cfd84b990c63f5f074774e0\n        /* \"Government Citizen Info Tracking/GCIT smart contract.sol\":1310:1320  msg.sender */\n      caller\n        /* \"Government Citizen Info Tracking/GCIT smart contract.sol\":1299:1321  NewCitizen(msg.sender) */\n      mload(0x40)\n      tag_148\n      swap2\n      swap1\n      tag_28\n      jump\t// in\n    tag_148:\n      mload(0x40)\n      dup1\n      swap2\n      sub\n      swap1\n      log1\n        /* \"Government Citizen Info Tracking/GCIT smart contract.sol\":1132:1328  function newCitizen () external {... */\n      jump\t// out\n        /* \"Government Citizen Info Tracking/GCIT smart contract.sol\":3110:3207  function getCitizens () external view returns (address[] memory) {... */\n    tag_66:\n        /* \"Government Citizen Info Tracking/GCIT smart contract.sol\":3157:3173  address[] memory */\n      0x60\n        /* \"Government Citizen Info Tracking/GCIT smart contract.sol\":3192:3200  citizens */\n      0x01\n        /* \"Government Citizen Info Tracking/GCIT smart contract.sol\":3185:3200  return citizens */\n      dup1\n      sload\n      dup1\n      0x20\n      mul\n      0x20\n      add\n      mload(0x40)\n      swap1\n      dup2\n      add\n      0x40\n      mstore\n      dup1\n      swap3\n      swap2\n      swap1\n      dup2\n      dup2\n      mstore\n      0x20\n      add\n      dup3\n      dup1\n      sload\n      dup1\n      iszero\n      tag_150\n      jumpi\n      0x20\n      mul\n      dup3\n      add\n      swap2\n      swap1\n      0x00\n      mstore\n      keccak256(0x00, 0x20)\n      swap1\n    tag_151:\n      dup2\n      0x00\n      swap1\n      sload\n      swap1\n      0x0100\n      exp\n      swap1\n      div\n      0xffffffffffffffffffffffffffffffffffffffff\n      and\n      0xffffffffffffffffffffffffffffffffffffffff\n      and\n      dup2\n      mstore\n      0x20\n      add\n      swap1\n      0x01\n      add\n      swap1\n      dup1\n      dup4\n      gt\n      tag_151\n      jumpi\n    tag_150:\n      pop\n      pop\n      pop\n      pop\n      pop\n      swap1\n      pop\n        /* \"Government Citizen Info Tracking/GCIT smart contract.sol\":3110:3207  function getCitizens () external view returns (address[] memory) {... */\n      swap1\n      jump\t// out\n        /* \"#utility.yul\":7:82   */\n    tag_152:\n        /* \"#utility.yul\":40:46   */\n      0x00\n        /* \"#utility.yul\":73:75   */\n      0x40\n        /* \"#utility.yul\":67:76   */\n      mload\n        /* \"#utility.yul\":57:76   */\n      swap1\n      pop\n        /* \"#utility.yul\":7:82   */\n      swap1\n      jump\t// out\n        /* \"#utility.yul\":88:205   */\n    tag_153:\n        /* \"#utility.yul\":197:198   */\n      0x00\n        /* \"#utility.yul\":194:195   */\n      dup1\n        /* \"#utility.yul\":187:199   */\n      revert\n        /* \"#utility.yul\":211:328   */\n    tag_154:\n        /* \"#utility.yul\":320:321   */\n      0x00\n        /* \"#utility.yul\":317:318   */\n      dup1\n        /* \"#utility.yul\":310:322   */\n      revert\n        /* \"#utility.yul\":334:411   */\n    tag_155:\n        /* \"#utility.yul\":371:378   */\n      0x00\n        /* \"#utility.yul\":400:405   */\n      dup2\n        /* \"#utility.yul\":389:405   */\n      swap1\n      pop\n        /* \"#utility.yul\":334:411   */\n      swap2\n      swap1\n      pop\n      jump\t// out\n        /* \"#utility.yul\":417:539   */\n    tag_156:\n        /* \"#utility.yul\":490:514   */\n      tag_229\n        /* \"#utility.yul\":508:513   */\n      dup2\n        /* \"#utility.yul\":490:514   */\n      tag_155\n      jump\t// in\n    tag_229:\n        /* \"#utility.yul\":483:488   */\n      dup2\n        /* \"#utility.yul\":480:515   */\n      eq\n        /* \"#utility.yul\":470:533   */\n      tag_230\n      jumpi\n        /* \"#utility.yul\":529:530   */\n      0x00\n        /* \"#utility.yul\":526:527   */\n      dup1\n        /* \"#utility.yul\":519:531   */\n      revert\n        /* \"#utility.yul\":470:533   */\n    tag_230:\n        /* \"#utility.yul\":417:539   */\n      pop\n      jump\t// out\n        /* \"#utility.yul\":545:684   */\n    tag_157:\n        /* \"#utility.yul\":591:596   */\n      0x00\n        /* \"#utility.yul\":629:635   */\n      dup2\n        /* \"#utility.yul\":616:636   */\n      calldataload\n        /* \"#utility.yul\":607:636   */\n      swap1\n      pop\n        /* \"#utility.yul\":645:678   */\n      tag_232\n        /* \"#utility.yul\":672:677   */\n      dup2\n        /* \"#utility.yul\":645:678   */\n      tag_156\n      jump\t// in\n    tag_232:\n        /* \"#utility.yul\":545:684   */\n      swap3\n      swap2\n      pop\n      pop\n      jump\t// out\n        /* \"#utility.yul\":690:1019   */\n    tag_20:\n        /* \"#utility.yul\":749:755   */\n      0x00\n        /* \"#utility.yul\":798:800   */\n      0x20\n        /* \"#utility.yul\":786:795   */\n      dup3\n        /* \"#utility.yul\":777:784   */\n      dup5\n        /* \"#utility.yul\":773:796   */\n      sub\n        /* \"#utility.yul\":769:801   */\n      slt\n        /* \"#utility.yul\":766:885   */\n      iszero\n      tag_234\n      jumpi\n        /* \"#utility.yul\":804:883   */\n      tag_235\n      tag_153\n      jump\t// in\n    tag_235:\n        /* \"#utility.yul\":766:885   */\n    tag_234:\n        /* \"#utility.yul\":924:925   */\n      0x00\n        /* \"#utility.yul\":949:1002   */\n      tag_236\n        /* \"#utility.yul\":994:1001   */\n      dup5\n        /* \"#utility.yul\":985:991   */\n      dup3\n        /* \"#utility.yul\":974:983   */\n      dup6\n        /* \"#utility.yul\":970:992   */\n      add\n        /* \"#utility.yul\":949:1002   */\n      tag_157\n      jump\t// in\n    tag_236:\n        /* \"#utility.yul\":939:1002   */\n      swap2\n      pop\n        /* \"#utility.yul\":895:1012   */\n      pop\n        /* \"#utility.yul\":690:1019   */\n      swap3\n      swap2\n      pop\n      pop\n      jump\t// out\n        /* \"#utility.yul\":1025:1124   */\n    tag_158:\n        /* \"#utility.yul\":1077:1083   */\n      0x00\n        /* \"#utility.yul\":1111:1116   */\n      dup2\n        /* \"#utility.yul\":1105:1117   */\n      mload\n        /* \"#utility.yul\":1095:1117   */\n      swap1\n      pop\n        /* \"#utility.yul\":1025:1124   */\n      swap2\n      swap1\n      pop\n      jump\t// out\n        /* \"#utility.yul\":1130:1299   */\n    tag_159:\n        /* \"#utility.yul\":1214:1225   */\n      0x00\n        /* \"#utility.yul\":1248:1254   */\n      dup3\n        /* \"#utility.yul\":1243:1246   */\n      dup3\n        /* \"#utility.yul\":1236:1255   */\n      mstore\n        /* \"#utility.yul\":1288:1292   */\n      0x20\n        /* \"#utility.yul\":1283:1286   */\n      dup3\n        /* \"#utility.yul\":1279:1293   */\n      add\n        /* \"#utility.yul\":1264:1293   */\n      swap1\n      pop\n        /* \"#utility.yul\":1130:1299   */\n      swap3\n      swap2\n      pop\n      pop\n      jump\t// out\n        /* \"#utility.yul\":1305:1551   */\n    tag_160:\n        /* \"#utility.yul\":1386:1387   */\n      0x00\n        /* \"#utility.yul\":1396:1509   */\n    tag_240:\n        /* \"#utility.yul\":1410:1416   */\n      dup4\n        /* \"#utility.yul\":1407:1408   */\n      dup2\n        /* \"#utility.yul\":1404:1417   */\n      lt\n        /* \"#utility.yul\":1396:1509   */\n      iszero\n      tag_242\n      jumpi\n        /* \"#utility.yul\":1495:1496   */\n      dup1\n        /* \"#utility.yul\":1490:1493   */\n      dup3\n        /* \"#utility.yul\":1486:1497   */\n      add\n        /* \"#utility.yul\":1480:1498   */\n      mload\n        /* \"#utility.yul\":1476:1477   */\n      dup2\n        /* \"#utility.yul\":1471:1474   */\n      dup5\n        /* \"#utility.yul\":1467:1478   */\n      add\n        /* \"#utility.yul\":1460:1499   */\n      mstore\n        /* \"#utility.yul\":1432:1434   */\n      0x20\n        /* \"#utility.yul\":1429:1430   */\n      dup2\n        /* \"#utility.yul\":1425:1435   */\n      add\n        /* \"#utility.yul\":1420:1435   */\n      swap1\n      pop\n        /* \"#utility.yul\":1396:1509   */\n      jump(tag_240)\n    tag_242:\n        /* \"#utility.yul\":1543:1544   */\n      0x00\n        /* \"#utility.yul\":1534:1540   */\n      dup5\n        /* \"#utility.yul\":1529:1532   */\n      dup5\n        /* \"#utility.yul\":1525:1541   */\n      add\n        /* \"#utility.yul\":1518:1545   */\n      mstore\n        /* \"#utility.yul\":1367:1551   */\n      pop\n        /* \"#utility.yul\":1305:1551   */\n      pop\n      pop\n      pop\n      jump\t// out\n        /* \"#utility.yul\":1557:1659   */\n    tag_161:\n        /* \"#utility.yul\":1598:1604   */\n      0x00\n        /* \"#utility.yul\":1649:1651   */\n      0x1f\n        /* \"#utility.yul\":1645:1652   */\n      not\n        /* \"#utility.yul\":1640:1642   */\n      0x1f\n        /* \"#utility.yul\":1633:1638   */\n      dup4\n        /* \"#utility.yul\":1629:1643   */\n      add\n        /* \"#utility.yul\":1625:1653   */\n      and\n        /* \"#utility.yul\":1615:1653   */\n      swap1\n      pop\n        /* \"#utility.yul\":1557:1659   */\n      swap2\n      swap1\n      pop\n      jump\t// out\n        /* \"#utility.yul\":1665:2042   */\n    tag_162:\n        /* \"#utility.yul\":1753:1756   */\n      0x00\n        /* \"#utility.yul\":1781:1820   */\n      tag_245\n        /* \"#utility.yul\":1814:1819   */\n      dup3\n        /* \"#utility.yul\":1781:1820   */\n      tag_158\n      jump\t// in\n    tag_245:\n        /* \"#utility.yul\":1836:1907   */\n      tag_246\n        /* \"#utility.yul\":1900:1906   */\n      dup2\n        /* \"#utility.yul\":1895:1898   */\n      dup6\n        /* \"#utility.yul\":1836:1907   */\n      tag_159\n      jump\t// in\n    tag_246:\n        /* \"#utility.yul\":1829:1907   */\n      swap4\n      pop\n        /* \"#utility.yul\":1916:1981   */\n      tag_247\n        /* \"#utility.yul\":1974:1980   */\n      dup2\n        /* \"#utility.yul\":1969:1972   */\n      dup6\n        /* \"#utility.yul\":1962:1966   */\n      0x20\n        /* \"#utility.yul\":1955:1960   */\n      dup7\n        /* \"#utility.yul\":1951:1967   */\n      add\n        /* \"#utility.yul\":1916:1981   */\n      tag_160\n      jump\t// in\n    tag_247:\n        /* \"#utility.yul\":2006:2035   */\n      tag_248\n        /* \"#utility.yul\":2028:2034   */\n      dup2\n        /* \"#utility.yul\":2006:2035   */\n      tag_161\n      jump\t// in\n    tag_248:\n        /* \"#utility.yul\":2001:2004   */\n      dup5\n        /* \"#utility.yul\":1997:2036   */\n      add\n        /* \"#utility.yul\":1990:2036   */\n      swap2\n      pop\n        /* \"#utility.yul\":1757:2042   */\n      pop\n        /* \"#utility.yul\":1665:2042   */\n      swap3\n      swap2\n      pop\n      pop\n      jump\t// out\n        /* \"#utility.yul\":2048:2174   */\n    tag_163:\n        /* \"#utility.yul\":2085:2092   */\n      0x00\n        /* \"#utility.yul\":2125:2167   */\n      0xffffffffffffffffffffffffffffffffffffffff\n        /* \"#utility.yul\":2118:2123   */\n      dup3\n        /* \"#utility.yul\":2114:2168   */\n      and\n        /* \"#utility.yul\":2103:2168   */\n      swap1\n      pop\n        /* \"#utility.yul\":2048:2174   */\n      swap2\n      swap1\n      pop\n      jump\t// out\n        /* \"#utility.yul\":2180:2276   */\n    tag_164:\n        /* \"#utility.yul\":2217:2224   */\n      0x00\n        /* \"#utility.yul\":2246:2270   */\n      tag_251\n        /* \"#utility.yul\":2264:2269   */\n      dup3\n        /* \"#utility.yul\":2246:2270   */\n      tag_163\n      jump\t// in\n    tag_251:\n        /* \"#utility.yul\":2235:2270   */\n      swap1\n      pop\n        /* \"#utility.yul\":2180:2276   */\n      swap2\n      swap1\n      pop\n      jump\t// out\n        /* \"#utility.yul\":2282:2400   */\n    tag_165:\n        /* \"#utility.yul\":2369:2393   */\n      tag_253\n        /* \"#utility.yul\":2387:2392   */\n      dup2\n        /* \"#utility.yul\":2369:2393   */\n      tag_164\n      jump\t// in\n    tag_253:\n        /* \"#utility.yul\":2364:2367   */\n      dup3\n        /* \"#utility.yul\":2357:2394   */\n      mstore\n        /* \"#utility.yul\":2282:2400   */\n      pop\n      pop\n      jump\t// out\n        /* \"#utility.yul\":2406:2524   */\n    tag_166:\n        /* \"#utility.yul\":2493:2517   */\n      tag_255\n        /* \"#utility.yul\":2511:2516   */\n      dup2\n        /* \"#utility.yul\":2493:2517   */\n      tag_155\n      jump\t// in\n    tag_255:\n        /* \"#utility.yul\":2488:2491   */\n      dup3\n        /* \"#utility.yul\":2481:2518   */\n      mstore\n        /* \"#utility.yul\":2406:2524   */\n      pop\n      pop\n      jump\t// out\n        /* \"#utility.yul\":2530:2620   */\n    tag_167:\n        /* \"#utility.yul\":2564:2571   */\n      0x00\n        /* \"#utility.yul\":2607:2612   */\n      dup2\n        /* \"#utility.yul\":2600:2613   */\n      iszero\n        /* \"#utility.yul\":2593:2614   */\n      iszero\n        /* \"#utility.yul\":2582:2614   */\n      swap1\n      pop\n        /* \"#utility.yul\":2530:2620   */\n      swap2\n      swap1\n      pop\n      jump\t// out\n        /* \"#utility.yul\":2626:2735   */\n    tag_168:\n        /* \"#utility.yul\":2707:2728   */\n      tag_258\n        /* \"#utility.yul\":2722:2727   */\n      dup2\n        /* \"#utility.yul\":2707:2728   */\n      tag_167\n      jump\t// in\n    tag_258:\n        /* \"#utility.yul\":2702:2705   */\n      dup3\n        /* \"#utility.yul\":2695:2729   */\n      mstore\n        /* \"#utility.yul\":2626:2735   */\n      pop\n      pop\n      jump\t// out\n        /* \"#utility.yul\":2741:3484   */\n    tag_23:\n        /* \"#utility.yul\":2960:2964   */\n      0x00\n        /* \"#utility.yul\":2998:3001   */\n      0xa0\n        /* \"#utility.yul\":2987:2996   */\n      dup3\n        /* \"#utility.yul\":2983:3002   */\n      add\n        /* \"#utility.yul\":2975:3002   */\n      swap1\n      pop\n        /* \"#utility.yul\":3048:3057   */\n      dup2\n        /* \"#utility.yul\":3042:3046   */\n      dup2\n        /* \"#utility.yul\":3038:3058   */\n      sub\n        /* \"#utility.yul\":3034:3035   */\n      0x00\n        /* \"#utility.yul\":3023:3032   */\n      dup4\n        /* \"#utility.yul\":3019:3036   */\n      add\n        /* \"#utility.yul\":3012:3059   */\n      mstore\n        /* \"#utility.yul\":3076:3154   */\n      tag_260\n        /* \"#utility.yul\":3149:3153   */\n      dup2\n        /* \"#utility.yul\":3140:3146   */\n      dup9\n        /* \"#utility.yul\":3076:3154   */\n      tag_162\n      jump\t// in\n    tag_260:\n        /* \"#utility.yul\":3068:3154   */\n      swap1\n      pop\n        /* \"#utility.yul\":3164:3236   */\n      tag_261\n        /* \"#utility.yul\":3232:3234   */\n      0x20\n        /* \"#utility.yul\":3221:3230   */\n      dup4\n        /* \"#utility.yul\":3217:3235   */\n      add\n        /* \"#utility.yul\":3208:3214   */\n      dup8\n        /* \"#utility.yul\":3164:3236   */\n      tag_165\n      jump\t// in\n    tag_261:\n        /* \"#utility.yul\":3246:3318   */\n      tag_262\n        /* \"#utility.yul\":3314:3316   */\n      0x40\n        /* \"#utility.yul\":3303:3312   */\n      dup4\n        /* \"#utility.yul\":3299:3317   */\n      add\n        /* \"#utility.yul\":3290:3296   */\n      dup7\n        /* \"#utility.yul\":3246:3318   */\n      tag_166\n      jump\t// in\n    tag_262:\n        /* \"#utility.yul\":3328:3400   */\n      tag_263\n        /* \"#utility.yul\":3396:3398   */\n      0x60\n        /* \"#utility.yul\":3385:3394   */\n      dup4\n        /* \"#utility.yul\":3381:3399   */\n      add\n        /* \"#utility.yul\":3372:3378   */\n      dup6\n        /* \"#utility.yul\":3328:3400   */\n      tag_166\n      jump\t// in\n    tag_263:\n        /* \"#utility.yul\":3410:3477   */\n      tag_264\n        /* \"#utility.yul\":3472:3475   */\n      0x80\n        /* \"#utility.yul\":3461:3470   */\n      dup4\n        /* \"#utility.yul\":3457:3476   */\n      add\n        /* \"#utility.yul\":3448:3454   */\n      dup5\n        /* \"#utility.yul\":3410:3477   */\n      tag_168\n      jump\t// in\n    tag_264:\n        /* \"#utility.yul\":2741:3484   */\n      swap7\n      swap6\n      pop\n      pop\n      pop\n      pop\n      pop\n      pop\n      jump\t// out\n        /* \"#utility.yul\":3490:3712   */\n    tag_28:\n        /* \"#utility.yul\":3583:3587   */\n      0x00\n        /* \"#utility.yul\":3621:3623   */\n      0x20\n        /* \"#utility.yul\":3610:3619   */\n      dup3\n        /* \"#utility.yul\":3606:3624   */\n      add\n        /* \"#utility.yul\":3598:3624   */\n      swap1\n      pop\n        /* \"#utility.yul\":3634:3705   */\n      tag_266\n        /* \"#utility.yul\":3702:3703   */\n      0x00\n        /* \"#utility.yul\":3691:3700   */\n      dup4\n        /* \"#utility.yul\":3687:3704   */\n      add\n        /* \"#utility.yul\":3678:3684   */\n      dup5\n        /* \"#utility.yul\":3634:3705   */\n      tag_165\n      jump\t// in\n    tag_266:\n        /* \"#utility.yul\":3490:3712   */\n      swap3\n      swap2\n      pop\n      pop\n      jump\t// out\n        /* \"#utility.yul\":3718:3840   */\n    tag_169:\n        /* \"#utility.yul\":3791:3815   */\n      tag_268\n        /* \"#utility.yul\":3809:3814   */\n      dup2\n        /* \"#utility.yul\":3791:3815   */\n      tag_164\n      jump\t// in\n    tag_268:\n        /* \"#utility.yul\":3784:3789   */\n      dup2\n        /* \"#utility.yul\":3781:3816   */\n      eq\n        /* \"#utility.yul\":3771:3834   */\n      tag_269\n      jumpi\n        /* \"#utility.yul\":3830:3831   */\n      0x00\n        /* \"#utility.yul\":3827:3828   */\n      dup1\n        /* \"#utility.yul\":3820:3832   */\n      revert\n        /* \"#utility.yul\":3771:3834   */\n    tag_269:\n        /* \"#utility.yul\":3718:3840   */\n      pop\n      jump\t// out\n        /* \"#utility.yul\":3846:3985   */\n    tag_170:\n        /* \"#utility.yul\":3892:3897   */\n      0x00\n        /* \"#utility.yul\":3930:3936   */\n      dup2\n        /* \"#utility.yul\":3917:3937   */\n      calldataload\n        /* \"#utility.yul\":3908:3937   */\n      swap1\n      pop\n        /* \"#utility.yul\":3946:3979   */\n      tag_271\n        /* \"#utility.yul\":3973:3978   */\n      dup2\n        /* \"#utility.yul\":3946:3979   */\n      tag_169\n      jump\t// in\n    tag_271:\n        /* \"#utility.yul\":3846:3985   */\n      swap3\n      swap2\n      pop\n      pop\n      jump\t// out\n        /* \"#utility.yul\":3991:4320   */\n    tag_36:\n        /* \"#utility.yul\":4050:4056   */\n      0x00\n        /* \"#utility.yul\":4099:4101   */\n      0x20\n        /* \"#utility.yul\":4087:4096   */\n      dup3\n        /* \"#utility.yul\":4078:4085   */\n      dup5\n        /* \"#utility.yul\":4074:4097   */\n      sub\n        /* \"#utility.yul\":4070:4102   */\n      slt\n        /* \"#utility.yul\":4067:4186   */\n      iszero\n      tag_273\n      jumpi\n        /* \"#utility.yul\":4105:4184   */\n      tag_274\n      tag_153\n      jump\t// in\n    tag_274:\n        /* \"#utility.yul\":4067:4186   */\n    tag_273:\n        /* \"#utility.yul\":4225:4226   */\n      0x00\n        /* \"#utility.yul\":4250:4303   */\n      tag_275\n        /* \"#utility.yul\":4295:4302   */\n      dup5\n        /* \"#utility.yul\":4286:4292   */\n      dup3\n        /* \"#utility.yul\":4275:4284   */\n      dup6\n        /* \"#utility.yul\":4271:4293   */\n      add\n        /* \"#utility.yul\":4250:4303   */\n      tag_170\n      jump\t// in\n    tag_275:\n        /* \"#utility.yul\":4240:4303   */\n      swap2\n      pop\n        /* \"#utility.yul\":4196:4313   */\n      pop\n        /* \"#utility.yul\":3991:4320   */\n      swap3\n      swap2\n      pop\n      pop\n      jump\t// out\n        /* \"#utility.yul\":4326:4440   */\n    tag_171:\n        /* \"#utility.yul\":4393:4399   */\n      0x00\n        /* \"#utility.yul\":4427:4432   */\n      dup2\n        /* \"#utility.yul\":4421:4433   */\n      mload\n        /* \"#utility.yul\":4411:4433   */\n      swap1\n      pop\n        /* \"#utility.yul\":4326:4440   */\n      swap2\n      swap1\n      pop\n      jump\t// out\n        /* \"#utility.yul\":4446:4630   */\n    tag_172:\n        /* \"#utility.yul\":4545:4556   */\n      0x00\n        /* \"#utility.yul\":4579:4585   */\n      dup3\n        /* \"#utility.yul\":4574:4577   */\n      dup3\n        /* \"#utility.yul\":4567:4586   */\n      mstore\n        /* \"#utility.yul\":4619:4623   */\n      0x20\n        /* \"#utility.yul\":4614:4617   */\n      dup3\n        /* \"#utility.yul\":4610:4624   */\n      add\n        /* \"#utility.yul\":4595:4624   */\n      swap1\n      pop\n        /* \"#utility.yul\":4446:4630   */\n      swap3\n      swap2\n      pop\n      pop\n      jump\t// out\n        /* \"#utility.yul\":4636:4768   */\n    tag_173:\n        /* \"#utility.yul\":4703:4707   */\n      0x00\n        /* \"#utility.yul\":4726:4729   */\n      dup2\n        /* \"#utility.yul\":4718:4729   */\n      swap1\n      pop\n        /* \"#utility.yul\":4756:4760   */\n      0x20\n        /* \"#utility.yul\":4751:4754   */\n      dup3\n        /* \"#utility.yul\":4747:4761   */\n      add\n        /* \"#utility.yul\":4739:4761   */\n      swap1\n      pop\n        /* \"#utility.yul\":4636:4768   */\n      swap2\n      swap1\n      pop\n      jump\t// out\n        /* \"#utility.yul\":4774:4882   */\n    tag_174:\n        /* \"#utility.yul\":4851:4875   */\n      tag_280\n        /* \"#utility.yul\":4869:4874   */\n      dup2\n        /* \"#utility.yul\":4851:4875   */\n      tag_164\n      jump\t// in\n    tag_280:\n        /* \"#utility.yul\":4846:4849   */\n      dup3\n        /* \"#utility.yul\":4839:4876   */\n      mstore\n        /* \"#utility.yul\":4774:4882   */\n      pop\n      pop\n      jump\t// out\n        /* \"#utility.yul\":4888:5067   */\n    tag_175:\n        /* \"#utility.yul\":4957:4967   */\n      0x00\n        /* \"#utility.yul\":4978:5024   */\n      tag_282\n        /* \"#utility.yul\":5020:5023   */\n      dup4\n        /* \"#utility.yul\":5012:5018   */\n      dup4\n        /* \"#utility.yul\":4978:5024   */\n      tag_174\n      jump\t// in\n    tag_282:\n        /* \"#utility.yul\":5056:5060   */\n      0x20\n        /* \"#utility.yul\":5051:5054   */\n      dup4\n        /* \"#utility.yul\":5047:5061   */\n      add\n        /* \"#utility.yul\":5033:5061   */\n      swap1\n      pop\n        /* \"#utility.yul\":4888:5067   */\n      swap3\n      swap2\n      pop\n      pop\n      jump\t// out\n        /* \"#utility.yul\":5073:5186   */\n    tag_176:\n        /* \"#utility.yul\":5143:5147   */\n      0x00\n        /* \"#utility.yul\":5175:5179   */\n      0x20\n        /* \"#utility.yul\":5170:5173   */\n      dup3\n        /* \"#utility.yul\":5166:5180   */\n      add\n        /* \"#utility.yul\":5158:5180   */\n      swap1\n      pop\n        /* \"#utility.yul\":5073:5186   */\n      swap2\n      swap1\n      pop\n      jump\t// out\n        /* \"#utility.yul\":5222:5954   */\n    tag_177:\n        /* \"#utility.yul\":5341:5344   */\n      0x00\n        /* \"#utility.yul\":5370:5424   */\n      tag_285\n        /* \"#utility.yul\":5418:5423   */\n      dup3\n        /* \"#utility.yul\":5370:5424   */\n      tag_171\n      jump\t// in\n    tag_285:\n        /* \"#utility.yul\":5440:5526   */\n      tag_286\n        /* \"#utility.yul\":5519:5525   */\n      dup2\n        /* \"#utility.yul\":5514:5517   */\n      dup6\n        /* \"#utility.yul\":5440:5526   */\n      tag_172\n      jump\t// in\n    tag_286:\n        /* \"#utility.yul\":5433:5526   */\n      swap4\n      pop\n        /* \"#utility.yul\":5550:5606   */\n      tag_287\n        /* \"#utility.yul\":5600:5605   */\n      dup4\n        /* \"#utility.yul\":5550:5606   */\n      tag_173\n      jump\t// in\n    tag_287:\n        /* \"#utility.yul\":5629:5636   */\n      dup1\n        /* \"#utility.yul\":5660:5661   */\n      0x00\n        /* \"#utility.yul\":5645:5929   */\n    tag_288:\n        /* \"#utility.yul\":5670:5676   */\n      dup4\n        /* \"#utility.yul\":5667:5668   */\n      dup2\n        /* \"#utility.yul\":5664:5677   */\n      lt\n        /* \"#utility.yul\":5645:5929   */\n      iszero\n      tag_290\n      jumpi\n        /* \"#utility.yul\":5746:5752   */\n      dup2\n        /* \"#utility.yul\":5740:5753   */\n      mload\n        /* \"#utility.yul\":5773:5836   */\n      tag_291\n        /* \"#utility.yul\":5832:5835   */\n      dup9\n        /* \"#utility.yul\":5817:5830   */\n      dup3\n        /* \"#utility.yul\":5773:5836   */\n      tag_175\n      jump\t// in\n    tag_291:\n        /* \"#utility.yul\":5766:5836   */\n      swap8\n      pop\n        /* \"#utility.yul\":5859:5919   */\n      tag_292\n        /* \"#utility.yul\":5912:5918   */\n      dup4\n        /* \"#utility.yul\":5859:5919   */\n      tag_176\n      jump\t// in\n    tag_292:\n        /* \"#utility.yul\":5849:5919   */\n      swap3\n      pop\n        /* \"#utility.yul\":5705:5929   */\n      pop\n        /* \"#utility.yul\":5692:5693   */\n      0x01\n        /* \"#utility.yul\":5689:5690   */\n      dup2\n        /* \"#utility.yul\":5685:5694   */\n      add\n        /* \"#utility.yul\":5680:5694   */\n      swap1\n      pop\n        /* \"#utility.yul\":5645:5929   */\n      jump(tag_288)\n    tag_290:\n        /* \"#utility.yul\":5649:5663   */\n      pop\n        /* \"#utility.yul\":5945:5948   */\n      dup6\n        /* \"#utility.yul\":5938:5948   */\n      swap4\n      pop\n        /* \"#utility.yul\":5346:5954   */\n      pop\n      pop\n      pop\n        /* \"#utility.yul\":5222:5954   */\n      swap3\n      swap2\n      pop\n      pop\n      jump\t// out\n        /* \"#utility.yul\":5960:6333   */\n    tag_41:\n        /* \"#utility.yul\":6103:6107   */\n      0x00\n        /* \"#utility.yul\":6141:6143   */\n      0x20\n        /* \"#utility.yul\":6130:6139   */\n      dup3\n        /* \"#utility.yul\":6126:6144   */\n      add\n        /* \"#utility.yul\":6118:6144   */\n      swap1\n      pop\n        /* \"#utility.yul\":6190:6199   */\n      dup2\n        /* \"#utility.yul\":6184:6188   */\n      dup2\n        /* \"#utility.yul\":6180:6200   */\n      sub\n        /* \"#utility.yul\":6176:6177   */\n      0x00\n        /* \"#utility.yul\":6165:6174   */\n      dup4\n        /* \"#utility.yul\":6161:6178   */\n      add\n        /* \"#utility.yul\":6154:6201   */\n      mstore\n        /* \"#utility.yul\":6218:6326   */\n      tag_294\n        /* \"#utility.yul\":6321:6325   */\n      dup2\n        /* \"#utility.yul\":6312:6318   */\n      dup5\n        /* \"#utility.yul\":6218:6326   */\n      tag_177\n      jump\t// in\n    tag_294:\n        /* \"#utility.yul\":6210:6326   */\n      swap1\n      pop\n        /* \"#utility.yul\":5960:6333   */\n      swap3\n      swap2\n      pop\n      pop\n      jump\t// out\n        /* \"#utility.yul\":6339:6549   */\n    tag_46:\n        /* \"#utility.yul\":6426:6430   */\n      0x00\n        /* \"#utility.yul\":6464:6466   */\n      0x20\n        /* \"#utility.yul\":6453:6462   */\n      dup3\n        /* \"#utility.yul\":6449:6467   */\n      add\n        /* \"#utility.yul\":6441:6467   */\n      swap1\n      pop\n        /* \"#utility.yul\":6477:6542   */\n      tag_296\n        /* \"#utility.yul\":6539:6540   */\n      0x00\n        /* \"#utility.yul\":6528:6537   */\n      dup4\n        /* \"#utility.yul\":6524:6541   */\n      add\n        /* \"#utility.yul\":6515:6521   */\n      dup5\n        /* \"#utility.yul\":6477:6542   */\n      tag_168\n      jump\t// in\n    tag_296:\n        /* \"#utility.yul\":6339:6549   */\n      swap3\n      swap2\n      pop\n      pop\n      jump\t// out\n        /* \"#utility.yul\":6555:6672   */\n    tag_178:\n        /* \"#utility.yul\":6664:6665   */\n      0x00\n        /* \"#utility.yul\":6661:6662   */\n      dup1\n        /* \"#utility.yul\":6654:6666   */\n      revert\n        /* \"#utility.yul\":6678:6795   */\n    tag_179:\n        /* \"#utility.yul\":6787:6788   */\n      0x00\n        /* \"#utility.yul\":6784:6785   */\n      dup1\n        /* \"#utility.yul\":6777:6789   */\n      revert\n        /* \"#utility.yul\":6801:6981   */\n    tag_180:\n        /* \"#utility.yul\":6849:6926   */\n      0x4e487b7100000000000000000000000000000000000000000000000000000000\n        /* \"#utility.yul\":6846:6847   */\n      0x00\n        /* \"#utility.yul\":6839:6927   */\n      mstore\n        /* \"#utility.yul\":6946:6950   */\n      0x41\n        /* \"#utility.yul\":6943:6944   */\n      0x04\n        /* \"#utility.yul\":6936:6951   */\n      mstore\n        /* \"#utility.yul\":6970:6974   */\n      0x24\n        /* \"#utility.yul\":6967:6968   */\n      0x00\n        /* \"#utility.yul\":6960:6975   */\n      revert\n        /* \"#utility.yul\":6987:7268   */\n    tag_181:\n        /* \"#utility.yul\":7070:7097   */\n      tag_301\n        /* \"#utility.yul\":7092:7096   */\n      dup3\n        /* \"#utility.yul\":7070:7097   */\n      tag_161\n      jump\t// in\n    tag_301:\n        /* \"#utility.yul\":7062:7068   */\n      dup2\n        /* \"#utility.yul\":7058:7098   */\n      add\n        /* \"#utility.yul\":7200:7206   */\n      dup2\n        /* \"#utility.yul\":7188:7198   */\n      dup2\n        /* \"#utility.yul\":7185:7207   */\n      lt\n        /* \"#utility.yul\":7164:7182   */\n      0xffffffffffffffff\n        /* \"#utility.yul\":7152:7162   */\n      dup3\n        /* \"#utility.yul\":7149:7183   */\n      gt\n        /* \"#utility.yul\":7146:7208   */\n      or\n        /* \"#utility.yul\":7143:7231   */\n      iszero\n      tag_302\n      jumpi\n        /* \"#utility.yul\":7211:7229   */\n      tag_303\n      tag_180\n      jump\t// in\n    tag_303:\n        /* \"#utility.yul\":7143:7231   */\n    tag_302:\n        /* \"#utility.yul\":7251:7261   */\n      dup1\n        /* \"#utility.yul\":7247:7249   */\n      0x40\n        /* \"#utility.yul\":7240:7262   */\n      mstore\n        /* \"#utility.yul\":7030:7268   */\n      pop\n        /* \"#utility.yul\":6987:7268   */\n      pop\n      pop\n      jump\t// out\n        /* \"#utility.yul\":7274:7403   */\n    tag_182:\n        /* \"#utility.yul\":7308:7314   */\n      0x00\n        /* \"#utility.yul\":7335:7355   */\n      tag_305\n      tag_152\n      jump\t// in\n    tag_305:\n        /* \"#utility.yul\":7325:7355   */\n      swap1\n      pop\n        /* \"#utility.yul\":7364:7397   */\n      tag_306\n        /* \"#utility.yul\":7392:7396   */\n      dup3\n        /* \"#utility.yul\":7384:7390   */\n      dup3\n        /* \"#utility.yul\":7364:7397   */\n      tag_181\n      jump\t// in\n    tag_306:\n        /* \"#utility.yul\":7274:7403   */\n      swap2\n      swap1\n      pop\n      jump\t// out\n        /* \"#utility.yul\":7409:7717   */\n    tag_183:\n        /* \"#utility.yul\":7471:7475   */\n      0x00\n        /* \"#utility.yul\":7561:7579   */\n      0xffffffffffffffff\n        /* \"#utility.yul\":7553:7559   */\n      dup3\n        /* \"#utility.yul\":7550:7580   */\n      gt\n        /* \"#utility.yul\":7547:7603   */\n      iszero\n      tag_308\n      jumpi\n        /* \"#utility.yul\":7583:7601   */\n      tag_309\n      tag_180\n      jump\t// in\n    tag_309:\n        /* \"#utility.yul\":7547:7603   */\n    tag_308:\n        /* \"#utility.yul\":7621:7650   */\n      tag_310\n        /* \"#utility.yul\":7643:7649   */\n      dup3\n        /* \"#utility.yul\":7621:7650   */\n      tag_161\n      jump\t// in\n    tag_310:\n        /* \"#utility.yul\":7613:7650   */\n      swap1\n      pop\n        /* \"#utility.yul\":7705:7709   */\n      0x20\n        /* \"#utility.yul\":7699:7703   */\n      dup2\n        /* \"#utility.yul\":7695:7710   */\n      add\n        /* \"#utility.yul\":7687:7710   */\n      swap1\n      pop\n        /* \"#utility.yul\":7409:7717   */\n      swap2\n      swap1\n      pop\n      jump\t// out\n        /* \"#utility.yul\":7723:7869   */\n    tag_184:\n        /* \"#utility.yul\":7820:7826   */\n      dup3\n        /* \"#utility.yul\":7815:7818   */\n      dup2\n        /* \"#utility.yul\":7810:7813   */\n      dup4\n        /* \"#utility.yul\":7797:7827   */\n      calldatacopy\n        /* \"#utility.yul\":7861:7862   */\n      0x00\n        /* \"#utility.yul\":7852:7858   */\n      dup4\n        /* \"#utility.yul\":7847:7850   */\n      dup4\n        /* \"#utility.yul\":7843:7859   */\n      add\n        /* \"#utility.yul\":7836:7863   */\n      mstore\n        /* \"#utility.yul\":7723:7869   */\n      pop\n      pop\n      pop\n      jump\t// out\n        /* \"#utility.yul\":7875:8300   */\n    tag_185:\n        /* \"#utility.yul\":7953:7958   */\n      0x00\n        /* \"#utility.yul\":7978:8044   */\n      tag_313\n        /* \"#utility.yul\":7994:8043   */\n      tag_314\n        /* \"#utility.yul\":8036:8042   */\n      dup5\n        /* \"#utility.yul\":7994:8043   */\n      tag_183\n      jump\t// in\n    tag_314:\n        /* \"#utility.yul\":7978:8044   */\n      tag_182\n      jump\t// in\n    tag_313:\n        /* \"#utility.yul\":7969:8044   */\n      swap1\n      pop\n        /* \"#utility.yul\":8067:8073   */\n      dup3\n        /* \"#utility.yul\":8060:8065   */\n      dup2\n        /* \"#utility.yul\":8053:8074   */\n      mstore\n        /* \"#utility.yul\":8105:8109   */\n      0x20\n        /* \"#utility.yul\":8098:8103   */\n      dup2\n        /* \"#utility.yul\":8094:8110   */\n      add\n        /* \"#utility.yul\":8143:8146   */\n      dup5\n        /* \"#utility.yul\":8134:8140   */\n      dup5\n        /* \"#utility.yul\":8129:8132   */\n      dup5\n        /* \"#utility.yul\":8125:8141   */\n      add\n        /* \"#utility.yul\":8122:8147   */\n      gt\n        /* \"#utility.yul\":8119:8231   */\n      iszero\n      tag_315\n      jumpi\n        /* \"#utility.yul\":8150:8229   */\n      tag_316\n      tag_179\n      jump\t// in\n    tag_316:\n        /* \"#utility.yul\":8119:8231   */\n    tag_315:\n        /* \"#utility.yul\":8240:8294   */\n      tag_317\n        /* \"#utility.yul\":8287:8293   */\n      dup5\n        /* \"#utility.yul\":8282:8285   */\n      dup3\n        /* \"#utility.yul\":8277:8280   */\n      dup6\n        /* \"#utility.yul\":8240:8294   */\n      tag_184\n      jump\t// in\n    tag_317:\n        /* \"#utility.yul\":7959:8300   */\n      pop\n        /* \"#utility.yul\":7875:8300   */\n      swap4\n      swap3\n      pop\n      pop\n      pop\n      jump\t// out\n        /* \"#utility.yul\":8320:8660   */\n    tag_186:\n        /* \"#utility.yul\":8376:8381   */\n      0x00\n        /* \"#utility.yul\":8425:8428   */\n      dup3\n        /* \"#utility.yul\":8418:8422   */\n      0x1f\n        /* \"#utility.yul\":8410:8416   */\n      dup4\n        /* \"#utility.yul\":8406:8423   */\n      add\n        /* \"#utility.yul\":8402:8429   */\n      slt\n        /* \"#utility.yul\":8392:8514   */\n      tag_319\n      jumpi\n        /* \"#utility.yul\":8433:8512   */\n      tag_320\n      tag_178\n      jump\t// in\n    tag_320:\n        /* \"#utility.yul\":8392:8514   */\n    tag_319:\n        /* \"#utility.yul\":8550:8556   */\n      dup2\n        /* \"#utility.yul\":8537:8557   */\n      calldataload\n        /* \"#utility.yul\":8575:8654   */\n      tag_321\n        /* \"#utility.yul\":8650:8653   */\n      dup5\n        /* \"#utility.yul\":8642:8648   */\n      dup3\n        /* \"#utility.yul\":8635:8639   */\n      0x20\n        /* \"#utility.yul\":8627:8633   */\n      dup7\n        /* \"#utility.yul\":8623:8640   */\n      add\n        /* \"#utility.yul\":8575:8654   */\n      tag_185\n      jump\t// in\n    tag_321:\n        /* \"#utility.yul\":8566:8654   */\n      swap2\n      pop\n        /* \"#utility.yul\":8382:8660   */\n      pop\n        /* \"#utility.yul\":8320:8660   */\n      swap3\n      swap2\n      pop\n      pop\n      jump\t// out\n        /* \"#utility.yul\":8666:9175   */\n    tag_53:\n        /* \"#utility.yul\":8735:8741   */\n      0x00\n        /* \"#utility.yul\":8784:8786   */\n      0x20\n        /* \"#utility.yul\":8772:8781   */\n      dup3\n        /* \"#utility.yul\":8763:8770   */\n      dup5\n        /* \"#utility.yul\":8759:8782   */\n      sub\n        /* \"#utility.yul\":8755:8787   */\n      slt\n        /* \"#utility.yul\":8752:8871   */\n      iszero\n      tag_323\n      jumpi\n        /* \"#utility.yul\":8790:8869   */\n      tag_324\n      tag_153\n      jump\t// in\n    tag_324:\n        /* \"#utility.yul\":8752:8871   */\n    tag_323:\n        /* \"#utility.yul\":8938:8939   */\n      0x00\n        /* \"#utility.yul\":8927:8936   */\n      dup3\n        /* \"#utility.yul\":8923:8940   */\n      add\n        /* \"#utility.yul\":8910:8941   */\n      calldataload\n        /* \"#utility.yul\":8968:8986   */\n      0xffffffffffffffff\n        /* \"#utility.yul\":8960:8966   */\n      dup2\n        /* \"#utility.yul\":8957:8987   */\n      gt\n        /* \"#utility.yul\":8954:9071   */\n      iszero\n      tag_325\n      jumpi\n        /* \"#utility.yul\":8990:9069   */\n      tag_326\n      tag_154\n      jump\t// in\n    tag_326:\n        /* \"#utility.yul\":8954:9071   */\n    tag_325:\n        /* \"#utility.yul\":9095:9158   */\n      tag_327\n        /* \"#utility.yul\":9150:9157   */\n      dup5\n        /* \"#utility.yul\":9141:9147   */\n      dup3\n        /* \"#utility.yul\":9130:9139   */\n      dup6\n        /* \"#utility.yul\":9126:9148   */\n      add\n        /* \"#utility.yul\":9095:9158   */\n      tag_186\n      jump\t// in\n    tag_327:\n        /* \"#utility.yul\":9085:9158   */\n      swap2\n      pop\n        /* \"#utility.yul\":8881:9168   */\n      pop\n        /* \"#utility.yul\":8666:9175   */\n      swap3\n      swap2\n      pop\n      pop\n      jump\t// out\n        /* \"#utility.yul\":9181:9297   */\n    tag_187:\n        /* \"#utility.yul\":9251:9272   */\n      tag_329\n        /* \"#utility.yul\":9266:9271   */\n      dup2\n        /* \"#utility.yul\":9251:9272   */\n      tag_167\n      jump\t// in\n    tag_329:\n        /* \"#utility.yul\":9244:9249   */\n      dup2\n        /* \"#utility.yul\":9241:9273   */\n      eq\n        /* \"#utility.yul\":9231:9291   */\n      tag_330\n      jumpi\n        /* \"#utility.yul\":9287:9288   */\n      0x00\n        /* \"#utility.yul\":9284:9285   */\n      dup1\n        /* \"#utility.yul\":9277:9289   */\n      revert\n        /* \"#utility.yul\":9231:9291   */\n    tag_330:\n        /* \"#utility.yul\":9181:9297   */\n      pop\n      jump\t// out\n        /* \"#utility.yul\":9303:9436   */\n    tag_188:\n        /* \"#utility.yul\":9346:9351   */\n      0x00\n        /* \"#utility.yul\":9384:9390   */\n      dup2\n        /* \"#utility.yul\":9371:9391   */\n      calldataload\n        /* \"#utility.yul\":9362:9391   */\n      swap1\n      pop\n        /* \"#utility.yul\":9400:9430   */\n      tag_332\n        /* \"#utility.yul\":9424:9429   */\n      dup2\n        /* \"#utility.yul\":9400:9430   */\n      tag_187\n      jump\t// in\n    tag_332:\n        /* \"#utility.yul\":9303:9436   */\n      swap3\n      swap2\n      pop\n      pop\n      jump\t// out\n        /* \"#utility.yul\":9442:9910   */\n    tag_57:\n        /* \"#utility.yul\":9507:9513   */\n      0x00\n        /* \"#utility.yul\":9515:9521   */\n      dup1\n        /* \"#utility.yul\":9564:9566   */\n      0x40\n        /* \"#utility.yul\":9552:9561   */\n      dup4\n        /* \"#utility.yul\":9543:9550   */\n      dup6\n        /* \"#utility.yul\":9539:9562   */\n      sub\n        /* \"#utility.yul\":9535:9567   */\n      slt\n        /* \"#utility.yul\":9532:9651   */\n      iszero\n      tag_334\n      jumpi\n        /* \"#utility.yul\":9570:9649   */\n      tag_335\n      tag_153\n      jump\t// in\n    tag_335:\n        /* \"#utility.yul\":9532:9651   */\n    tag_334:\n        /* \"#utility.yul\":9690:9691   */\n      0x00\n        /* \"#utility.yul\":9715:9768   */\n      tag_336\n        /* \"#utility.yul\":9760:9767   */\n      dup6\n        /* \"#utility.yul\":9751:9757   */\n      dup3\n        /* \"#utility.yul\":9740:9749   */\n      dup7\n        /* \"#utility.yul\":9736:9758   */\n      add\n        /* \"#utility.yul\":9715:9768   */\n      tag_157\n      jump\t// in\n    tag_336:\n        /* \"#utility.yul\":9705:9768   */\n      swap3\n      pop\n        /* \"#utility.yul\":9661:9778   */\n      pop\n        /* \"#utility.yul\":9817:9819   */\n      0x20\n        /* \"#utility.yul\":9843:9893   */\n      tag_337\n        /* \"#utility.yul\":9885:9892   */\n      dup6\n        /* \"#utility.yul\":9876:9882   */\n      dup3\n        /* \"#utility.yul\":9865:9874   */\n      dup7\n        /* \"#utility.yul\":9861:9883   */\n      add\n        /* \"#utility.yul\":9843:9893   */\n      tag_188\n      jump\t// in\n    tag_337:\n        /* \"#utility.yul\":9833:9893   */\n      swap2\n      pop\n        /* \"#utility.yul\":9788:9903   */\n      pop\n        /* \"#utility.yul\":9442:9910   */\n      swap3\n      pop\n      swap3\n      swap1\n      pop\n      jump\t// out\n        /* \"#utility.yul\":9916:10096   */\n    tag_189:\n        /* \"#utility.yul\":9964:10041   */\n      0x4e487b7100000000000000000000000000000000000000000000000000000000\n        /* \"#utility.yul\":9961:9962   */\n      0x00\n        /* \"#utility.yul\":9954:10042   */\n      mstore\n        /* \"#utility.yul\":10061:10065   */\n      0x22\n        /* \"#utility.yul\":10058:10059   */\n      0x04\n        /* \"#utility.yul\":10051:10066   */\n      mstore\n        /* \"#utility.yul\":10085:10089   */\n      0x24\n        /* \"#utility.yul\":10082:10083   */\n      0x00\n        /* \"#utility.yul\":10075:10090   */\n      revert\n        /* \"#utility.yul\":10102:10422   */\n    tag_71:\n        /* \"#utility.yul\":10146:10152   */\n      0x00\n        /* \"#utility.yul\":10183:10184   */\n      0x02\n        /* \"#utility.yul\":10177:10181   */\n      dup3\n        /* \"#utility.yul\":10173:10185   */\n      div\n        /* \"#utility.yul\":10163:10185   */\n      swap1\n      pop\n        /* \"#utility.yul\":10230:10231   */\n      0x01\n        /* \"#utility.yul\":10224:10228   */\n      dup3\n        /* \"#utility.yul\":10220:10232   */\n      and\n        /* \"#utility.yul\":10251:10269   */\n      dup1\n        /* \"#utility.yul\":10241:10322   */\n      tag_340\n      jumpi\n        /* \"#utility.yul\":10307:10311   */\n      0x7f\n        /* \"#utility.yul\":10299:10305   */\n      dup3\n        /* \"#utility.yul\":10295:10312   */\n      and\n        /* \"#utility.yul\":10285:10312   */\n      swap2\n      pop\n        /* \"#utility.yul\":10241:10322   */\n    tag_340:\n        /* \"#utility.yul\":10369:10371   */\n      0x20\n        /* \"#utility.yul\":10361:10367   */\n      dup3\n        /* \"#utility.yul\":10358:10372   */\n      lt\n        /* \"#utility.yul\":10338:10356   */\n      dup2\n        /* \"#utility.yul\":10335:10373   */\n      sub\n        /* \"#utility.yul\":10332:10416   */\n      tag_341\n      jumpi\n        /* \"#utility.yul\":10388:10406   */\n      tag_342\n      tag_189\n      jump\t// in\n    tag_342:\n        /* \"#utility.yul\":10332:10416   */\n    tag_341:\n        /* \"#utility.yul\":10153:10422   */\n      pop\n        /* \"#utility.yul\":10102:10422   */\n      swap2\n      swap1\n      pop\n      jump\t// out\n        /* \"#utility.yul\":10428:10609   */\n    tag_190:\n        /* \"#utility.yul\":10568:10601   */\n      0x416c72656164792072656769737465726564206173206f6666696369616c2e00\n        /* \"#utility.yul\":10564:10565   */\n      0x00\n        /* \"#utility.yul\":10556:10562   */\n      dup3\n        /* \"#utility.yul\":10552:10566   */\n      add\n        /* \"#utility.yul\":10545:10602   */\n      mstore\n        /* \"#utility.yul\":10428:10609   */\n      pop\n      jump\t// out\n        /* \"#utility.yul\":10615:10981   */\n    tag_191:\n        /* \"#utility.yul\":10757:10760   */\n      0x00\n        /* \"#utility.yul\":10778:10845   */\n      tag_345\n        /* \"#utility.yul\":10842:10844   */\n      0x1f\n        /* \"#utility.yul\":10837:10840   */\n      dup4\n        /* \"#utility.yul\":10778:10845   */\n      tag_159\n      jump\t// in\n    tag_345:\n        /* \"#utility.yul\":10771:10845   */\n      swap2\n      pop\n        /* \"#utility.yul\":10854:10947   */\n      tag_346\n        /* \"#utility.yul\":10943:10946   */\n      dup3\n        /* \"#utility.yul\":10854:10947   */\n      tag_190\n      jump\t// in\n    tag_346:\n        /* \"#utility.yul\":10972:10974   */\n      0x20\n        /* \"#utility.yul\":10967:10970   */\n      dup3\n        /* \"#utility.yul\":10963:10975   */\n      add\n        /* \"#utility.yul\":10956:10975   */\n      swap1\n      pop\n        /* \"#utility.yul\":10615:10981   */\n      swap2\n      swap1\n      pop\n      jump\t// out\n        /* \"#utility.yul\":10987:11406   */\n    tag_81:\n        /* \"#utility.yul\":11153:11157   */\n      0x00\n        /* \"#utility.yul\":11191:11193   */\n      0x20\n        /* \"#utility.yul\":11180:11189   */\n      dup3\n        /* \"#utility.yul\":11176:11194   */\n      add\n        /* \"#utility.yul\":11168:11194   */\n      swap1\n      pop\n        /* \"#utility.yul\":11240:11249   */\n      dup2\n        /* \"#utility.yul\":11234:11238   */\n      dup2\n        /* \"#utility.yul\":11230:11250   */\n      sub\n        /* \"#utility.yul\":11226:11227   */\n      0x00\n        /* \"#utility.yul\":11215:11224   */\n      dup4\n        /* \"#utility.yul\":11211:11228   */\n      add\n        /* \"#utility.yul\":11204:11251   */\n      mstore\n        /* \"#utility.yul\":11268:11399   */\n      tag_348\n        /* \"#utility.yul\":11394:11398   */\n      dup2\n        /* \"#utility.yul\":11268:11399   */\n      tag_191\n      jump\t// in\n    tag_348:\n        /* \"#utility.yul\":11260:11399   */\n      swap1\n      pop\n        /* \"#utility.yul\":10987:11406   */\n      swap2\n      swap1\n      pop\n      jump\t// out\n        /* \"#utility.yul\":11412:11643   */\n    tag_192:\n        /* \"#utility.yul\":11552:11586   */\n      0x4f6e6c7920636f6e7472616374206f776e65722063616e20706572666f726d20\n        /* \"#utility.yul\":11548:11549   */\n      0x00\n        /* \"#utility.yul\":11540:11546   */\n      dup3\n        /* \"#utility.yul\":11536:11550   */\n      add\n        /* \"#utility.yul\":11529:11587   */\n      mstore\n        /* \"#utility.yul\":11621:11635   */\n      0x7468697320616374696f6e2e0000000000000000000000000000000000000000\n        /* \"#utility.yul\":11616:11618   */\n      0x20\n        /* \"#utility.yul\":11608:11614   */\n      dup3\n        /* \"#utility.yul\":11604:11619   */\n      add\n        /* \"#utility.yul\":11597:11636   */\n      mstore\n        /* \"#utility.yul\":11412:11643   */\n      pop\n      jump\t// out\n        /* \"#utility.yul\":11649:12015   */\n    tag_193:\n        /* \"#utility.yul\":11791:11794   */\n      0x00\n        /* \"#utility.yul\":11812:11879   */\n      tag_351\n        /* \"#utility.yul\":11876:11878   */\n      0x2c\n        /* \"#utility.yul\":11871:11874   */\n      dup4\n        /* \"#utility.yul\":11812:11879   */\n      tag_159\n      jump\t// in\n    tag_351:\n        /* \"#utility.yul\":11805:11879   */\n      swap2\n      pop\n        /* \"#utility.yul\":11888:11981   */\n      tag_352\n        /* \"#utility.yul\":11977:11980   */\n      dup3\n        /* \"#utility.yul\":11888:11981   */\n      tag_192\n      jump\t// in\n    tag_352:\n        /* \"#utility.yul\":12006:12008   */\n      0x40\n        /* \"#utility.yul\":12001:12004   */\n      dup3\n        /* \"#utility.yul\":11997:12009   */\n      add\n        /* \"#utility.yul\":11990:12009   */\n      swap1\n      pop\n        /* \"#utility.yul\":11649:12015   */\n      swap2\n      swap1\n      pop\n      jump\t// out\n        /* \"#utility.yul\":12021:12440   */\n    tag_87:\n        /* \"#utility.yul\":12187:12191   */\n      0x00\n        /* \"#utility.yul\":12225:12227   */\n      0x20\n        /* \"#utility.yul\":12214:12223   */\n      dup3\n        /* \"#utility.yul\":12210:12228   */\n      add\n        /* \"#utility.yul\":12202:12228   */\n      swap1\n      pop\n        /* \"#utility.yul\":12274:12283   */\n      dup2\n        /* \"#utility.yul\":12268:12272   */\n      dup2\n        /* \"#utility.yul\":12264:12284   */\n      sub\n        /* \"#utility.yul\":12260:12261   */\n      0x00\n        /* \"#utility.yul\":12249:12258   */\n      dup4\n        /* \"#utility.yul\":12245:12262   */\n      add\n        /* \"#utility.yul\":12238:12285   */\n      mstore\n        /* \"#utility.yul\":12302:12433   */\n      tag_354\n        /* \"#utility.yul\":12428:12432   */\n      dup2\n        /* \"#utility.yul\":12302:12433   */\n      tag_193\n      jump\t// in\n    tag_354:\n        /* \"#utility.yul\":12294:12433   */\n      swap1\n      pop\n        /* \"#utility.yul\":12021:12440   */\n      swap2\n      swap1\n      pop\n      jump\t// out\n        /* \"#utility.yul\":12446:12626   */\n    tag_194:\n        /* \"#utility.yul\":12494:12571   */\n      0x4e487b7100000000000000000000000000000000000000000000000000000000\n        /* \"#utility.yul\":12491:12492   */\n      0x00\n        /* \"#utility.yul\":12484:12572   */\n      mstore\n        /* \"#utility.yul\":12591:12595   */\n      0x11\n        /* \"#utility.yul\":12588:12589   */\n      0x04\n        /* \"#utility.yul\":12581:12596   */\n      mstore\n        /* \"#utility.yul\":12615:12619   */\n      0x24\n        /* \"#utility.yul\":12612:12613   */\n      0x00\n        /* \"#utility.yul\":12605:12620   */\n      revert\n        /* \"#utility.yul\":12632:12826   */\n    tag_90:\n        /* \"#utility.yul\":12672:12676   */\n      0x00\n        /* \"#utility.yul\":12692:12712   */\n      tag_357\n        /* \"#utility.yul\":12710:12711   */\n      dup3\n        /* \"#utility.yul\":12692:12712   */\n      tag_155\n      jump\t// in\n    tag_357:\n        /* \"#utility.yul\":12687:12712   */\n      swap2\n      pop\n        /* \"#utility.yul\":12726:12746   */\n      tag_358\n        /* \"#utility.yul\":12744:12745   */\n      dup4\n        /* \"#utility.yul\":12726:12746   */\n      tag_155\n      jump\t// in\n    tag_358:\n        /* \"#utility.yul\":12721:12746   */\n      swap3\n      pop\n        /* \"#utility.yul\":12770:12771   */\n      dup3\n        /* \"#utility.yul\":12767:12768   */\n      dup3\n        /* \"#utility.yul\":12763:12772   */\n      sub\n        /* \"#utility.yul\":12755:12772   */\n      swap1\n      pop\n        /* \"#utility.yul\":12794:12795   */\n      dup2\n        /* \"#utility.yul\":12788:12792   */\n      dup2\n        /* \"#utility.yul\":12785:12796   */\n      gt\n        /* \"#utility.yul\":12782:12819   */\n      iszero\n      tag_359\n      jumpi\n        /* \"#utility.yul\":12799:12817   */\n      tag_360\n      tag_194\n      jump\t// in\n    tag_360:\n        /* \"#utility.yul\":12782:12819   */\n    tag_359:\n        /* \"#utility.yul\":12632:12826   */\n      swap3\n      swap2\n      pop\n      pop\n      jump\t// out\n        /* \"#utility.yul\":12832:13002   */\n    tag_195:\n        /* \"#utility.yul\":12972:12994   */\n      0x496e76616c69642070726f706f73616c2049642e000000000000000000000000\n        /* \"#utility.yul\":12968:12969   */\n      0x00\n        /* \"#utility.yul\":12960:12966   */\n      dup3\n        /* \"#utility.yul\":12956:12970   */\n      add\n        /* \"#utility.yul\":12949:12995   */\n      mstore\n        /* \"#utility.yul\":12832:13002   */\n      pop\n      jump\t// out\n        /* \"#utility.yul\":13008:13374   */\n    tag_196:\n        /* \"#utility.yul\":13150:13153   */\n      0x00\n        /* \"#utility.yul\":13171:13238   */\n      tag_363\n        /* \"#utility.yul\":13235:13237   */\n      0x14\n        /* \"#utility.yul\":13230:13233   */\n      dup4\n        /* \"#utility.yul\":13171:13238   */\n      tag_159\n      jump\t// in\n    tag_363:\n        /* \"#utility.yul\":13164:13238   */\n      swap2\n      pop\n        /* \"#utility.yul\":13247:13340   */\n      tag_364\n        /* \"#utility.yul\":13336:13339   */\n      dup3\n        /* \"#utility.yul\":13247:13340   */\n      tag_195\n      jump\t// in\n    tag_364:\n        /* \"#utility.yul\":13365:13367   */\n      0x20\n        /* \"#utility.yul\":13360:13363   */\n      dup3\n        /* \"#utility.yul\":13356:13368   */\n      add\n        /* \"#utility.yul\":13349:13368   */\n      swap1\n      pop\n        /* \"#utility.yul\":13008:13374   */\n      swap2\n      swap1\n      pop\n      jump\t// out\n        /* \"#utility.yul\":13380:13799   */\n    tag_93:\n        /* \"#utility.yul\":13546:13550   */\n      0x00\n        /* \"#utility.yul\":13584:13586   */\n      0x20\n        /* \"#utility.yul\":13573:13582   */\n      dup3\n        /* \"#utility.yul\":13569:13587   */\n      add\n        /* \"#utility.yul\":13561:13587   */\n      swap1\n      pop\n        /* \"#utility.yul\":13633:13642   */\n      dup2\n        /* \"#utility.yul\":13627:13631   */\n      dup2\n        /* \"#utility.yul\":13623:13643   */\n      sub\n        /* \"#utility.yul\":13619:13620   */\n      0x00\n        /* \"#utility.yul\":13608:13617   */\n      dup4\n        /* \"#utility.yul\":13604:13621   */\n      add\n        /* \"#utility.yul\":13597:13644   */\n      mstore\n        /* \"#utility.yul\":13661:13792   */\n      tag_366\n        /* \"#utility.yul\":13787:13791   */\n      dup2\n        /* \"#utility.yul\":13661:13792   */\n      tag_196\n      jump\t// in\n    tag_366:\n        /* \"#utility.yul\":13653:13792   */\n      swap1\n      pop\n        /* \"#utility.yul\":13380:13799   */\n      swap2\n      swap1\n      pop\n      jump\t// out\n        /* \"#utility.yul\":13805:13985   */\n    tag_96:\n        /* \"#utility.yul\":13853:13930   */\n      0x4e487b7100000000000000000000000000000000000000000000000000000000\n        /* \"#utility.yul\":13850:13851   */\n      0x00\n        /* \"#utility.yul\":13843:13931   */\n      mstore\n        /* \"#utility.yul\":13950:13954   */\n      0x32\n        /* \"#utility.yul\":13947:13948   */\n      0x04\n        /* \"#utility.yul\":13940:13955   */\n      mstore\n        /* \"#utility.yul\":13974:13978   */\n      0x24\n        /* \"#utility.yul\":13971:13972   */\n      0x00\n        /* \"#utility.yul\":13964:13979   */\n      revert\n        /* \"#utility.yul\":13991:14215   */\n    tag_197:\n        /* \"#utility.yul\":14131:14165   */\n      0x50726f706f73616c20616c726561647920656e6163746564206f722072656a65\n        /* \"#utility.yul\":14127:14128   */\n      0x00\n        /* \"#utility.yul\":14119:14125   */\n      dup3\n        /* \"#utility.yul\":14115:14129   */\n      add\n        /* \"#utility.yul\":14108:14166   */\n      mstore\n        /* \"#utility.yul\":14200:14207   */\n      0x637465642e000000000000000000000000000000000000000000000000000000\n        /* \"#utility.yul\":14195:14197   */\n      0x20\n        /* \"#utility.yul\":14187:14193   */\n      dup3\n        /* \"#utility.yul\":14183:14198   */\n      add\n        /* \"#utility.yul\":14176:14208   */\n      mstore\n        /* \"#utility.yul\":13991:14215   */\n      pop\n      jump\t// out\n        /* \"#utility.yul\":14221:14587   */\n    tag_198:\n        /* \"#utility.yul\":14363:14366   */\n      0x00\n        /* \"#utility.yul\":14384:14451   */\n      tag_370\n        /* \"#utility.yul\":14448:14450   */\n      0x25\n        /* \"#utility.yul\":14443:14446   */\n      dup4\n        /* \"#utility.yul\":14384:14451   */\n      tag_159\n      jump\t// in\n    tag_370:\n        /* \"#utility.yul\":14377:14451   */\n      swap2\n      pop\n        /* \"#utility.yul\":14460:14553   */\n      tag_371\n        /* \"#utility.yul\":14549:14552   */\n      dup3\n        /* \"#utility.yul\":14460:14553   */\n      tag_197\n      jump\t// in\n    tag_371:\n        /* \"#utility.yul\":14578:14580   */\n      0x40\n        /* \"#utility.yul\":14573:14576   */\n      dup3\n        /* \"#utility.yul\":14569:14581   */\n      add\n        /* \"#utility.yul\":14562:14581   */\n      swap1\n      pop\n        /* \"#utility.yul\":14221:14587   */\n      swap2\n      swap1\n      pop\n      jump\t// out\n        /* \"#utility.yul\":14593:15012   */\n    tag_100:\n        /* \"#utility.yul\":14759:14763   */\n      0x00\n        /* \"#utility.yul\":14797:14799   */\n      0x20\n        /* \"#utility.yul\":14786:14795   */\n      dup3\n        /* \"#utility.yul\":14782:14800   */\n      add\n        /* \"#utility.yul\":14774:14800   */\n      swap1\n      pop\n        /* \"#utility.yul\":14846:14855   */\n      dup2\n        /* \"#utility.yul\":14840:14844   */\n      dup2\n        /* \"#utility.yul\":14836:14856   */\n      sub\n        /* \"#utility.yul\":14832:14833   */\n      0x00\n        /* \"#utility.yul\":14821:14830   */\n      dup4\n        /* \"#utility.yul\":14817:14834   */\n      add\n        /* \"#utility.yul\":14810:14857   */\n      mstore\n        /* \"#utility.yul\":14874:15005   */\n      tag_373\n        /* \"#utility.yul\":15000:15004   */\n      dup2\n        /* \"#utility.yul\":14874:15005   */\n      tag_198\n      jump\t// in\n    tag_373:\n        /* \"#utility.yul\":14866:15005   */\n      swap1\n      pop\n        /* \"#utility.yul\":14593:15012   */\n      swap2\n      swap1\n      pop\n      jump\t// out\n        /* \"#utility.yul\":15018:15159   */\n    tag_199:\n        /* \"#utility.yul\":15067:15071   */\n      0x00\n        /* \"#utility.yul\":15090:15093   */\n      dup2\n        /* \"#utility.yul\":15082:15093   */\n      swap1\n      pop\n        /* \"#utility.yul\":15113:15116   */\n      dup2\n        /* \"#utility.yul\":15110:15111   */\n      0x00\n        /* \"#utility.yul\":15103:15117   */\n      mstore\n        /* \"#utility.yul\":15147:15151   */\n      0x20\n        /* \"#utility.yul\":15144:15145   */\n      0x00\n        /* \"#utility.yul\":15134:15152   */\n      keccak256\n        /* \"#utility.yul\":15126:15152   */\n      swap1\n      pop\n        /* \"#utility.yul\":15018:15159   */\n      swap2\n      swap1\n      pop\n      jump\t// out\n        /* \"#utility.yul\":15189:16020   */\n    tag_200:\n        /* \"#utility.yul\":15274:15277   */\n      0x00\n        /* \"#utility.yul\":15311:15316   */\n      dup2\n        /* \"#utility.yul\":15305:15317   */\n      sload\n        /* \"#utility.yul\":15340:15376   */\n      tag_376\n        /* \"#utility.yul\":15366:15375   */\n      dup2\n        /* \"#utility.yul\":15340:15376   */\n      tag_71\n      jump\t// in\n    tag_376:\n        /* \"#utility.yul\":15392:15463   */\n      tag_377\n        /* \"#utility.yul\":15456:15462   */\n      dup2\n        /* \"#utility.yul\":15451:15454   */\n      dup7\n        /* \"#utility.yul\":15392:15463   */\n      tag_159\n      jump\t// in\n    tag_377:\n        /* \"#utility.yul\":15385:15463   */\n      swap5\n      pop\n        /* \"#utility.yul\":15494:15495   */\n      0x01\n        /* \"#utility.yul\":15483:15492   */\n      dup3\n        /* \"#utility.yul\":15479:15496   */\n      and\n        /* \"#utility.yul\":15510:15511   */\n      0x00\n        /* \"#utility.yul\":15505:15669   */\n      dup2\n      eq\n      tag_379\n      jumpi\n        /* \"#utility.yul\":15683:15684   */\n      0x01\n        /* \"#utility.yul\":15678:16014   */\n      dup2\n      eq\n      tag_380\n      jumpi\n        /* \"#utility.yul\":15472:16014   */\n      jump(tag_378)\n        /* \"#utility.yul\":15505:15669   */\n    tag_379:\n        /* \"#utility.yul\":15589:15593   */\n      0xff\n        /* \"#utility.yul\":15585:15594   */\n      not\n        /* \"#utility.yul\":15574:15583   */\n      dup4\n        /* \"#utility.yul\":15570:15595   */\n      and\n        /* \"#utility.yul\":15565:15568   */\n      dup7\n        /* \"#utility.yul\":15558:15596   */\n      mstore\n        /* \"#utility.yul\":15649:15655   */\n      dup2\n        /* \"#utility.yul\":15642:15656   */\n      iszero\n        /* \"#utility.yul\":15635:15657   */\n      iszero\n        /* \"#utility.yul\":15629:15633   */\n      0x20\n        /* \"#utility.yul\":15625:15658   */\n      mul\n        /* \"#utility.yul\":15620:15623   */\n      dup7\n        /* \"#utility.yul\":15616:15659   */\n      add\n        /* \"#utility.yul\":15609:15659   */\n      swap4\n      pop\n        /* \"#utility.yul\":15505:15669   */\n      jump(tag_378)\n        /* \"#utility.yul\":15678:16014   */\n    tag_380:\n        /* \"#utility.yul\":15745:15783   */\n      tag_381\n        /* \"#utility.yul\":15777:15782   */\n      dup6\n        /* \"#utility.yul\":15745:15783   */\n      tag_199\n      jump\t// in\n    tag_381:\n        /* \"#utility.yul\":15805:15806   */\n      0x00\n        /* \"#utility.yul\":15819:15973   */\n    tag_382:\n        /* \"#utility.yul\":15833:15839   */\n      dup4\n        /* \"#utility.yul\":15830:15831   */\n      dup2\n        /* \"#utility.yul\":15827:15840   */\n      lt\n        /* \"#utility.yul\":15819:15973   */\n      iszero\n      tag_384\n      jumpi\n        /* \"#utility.yul\":15907:15914   */\n      dup2\n        /* \"#utility.yul\":15901:15915   */\n      sload\n        /* \"#utility.yul\":15897:15898   */\n      dup2\n        /* \"#utility.yul\":15892:15895   */\n      dup10\n        /* \"#utility.yul\":15888:15899   */\n      add\n        /* \"#utility.yul\":15881:15916   */\n      mstore\n        /* \"#utility.yul\":15957:15958   */\n      0x01\n        /* \"#utility.yul\":15948:15955   */\n      dup3\n        /* \"#utility.yul\":15944:15959   */\n      add\n        /* \"#utility.yul\":15933:15959   */\n      swap2\n      pop\n        /* \"#utility.yul\":15855:15859   */\n      0x20\n        /* \"#utility.yul\":15852:15853   */\n      dup2\n        /* \"#utility.yul\":15848:15860   */\n      add\n        /* \"#utility.yul\":15843:15860   */\n      swap1\n      pop\n        /* \"#utility.yul\":15819:15973   */\n      jump(tag_382)\n    tag_384:\n        /* \"#utility.yul\":16002:16003   */\n      dup1\n        /* \"#utility.yul\":15997:16000   */\n      dup9\n        /* \"#utility.yul\":15993:16004   */\n      add\n        /* \"#utility.yul\":15986:16004   */\n      swap6\n      pop\n        /* \"#utility.yul\":15685:16014   */\n      pop\n      pop\n        /* \"#utility.yul\":15472:16014   */\n    tag_378:\n      pop\n        /* \"#utility.yul\":15278:16020   */\n      pop\n      pop\n        /* \"#utility.yul\":15189:16020   */\n      swap3\n      swap2\n      pop\n      pop\n      jump\t// out\n        /* \"#utility.yul\":16026:16443   */\n    tag_103:\n        /* \"#utility.yul\":16164:16168   */\n      0x00\n        /* \"#utility.yul\":16202:16204   */\n      0x40\n        /* \"#utility.yul\":16191:16200   */\n      dup3\n        /* \"#utility.yul\":16187:16205   */\n      add\n        /* \"#utility.yul\":16179:16205   */\n      swap1\n      pop\n        /* \"#utility.yul\":16215:16286   */\n      tag_386\n        /* \"#utility.yul\":16283:16284   */\n      0x00\n        /* \"#utility.yul\":16272:16281   */\n      dup4\n        /* \"#utility.yul\":16268:16285   */\n      add\n        /* \"#utility.yul\":16259:16265   */\n      dup6\n        /* \"#utility.yul\":16215:16286   */\n      tag_166\n      jump\t// in\n    tag_386:\n        /* \"#utility.yul\":16333:16342   */\n      dup2\n        /* \"#utility.yul\":16327:16331   */\n      dup2\n        /* \"#utility.yul\":16323:16343   */\n      sub\n        /* \"#utility.yul\":16318:16320   */\n      0x20\n        /* \"#utility.yul\":16307:16316   */\n      dup4\n        /* \"#utility.yul\":16303:16321   */\n      add\n        /* \"#utility.yul\":16296:16344   */\n      mstore\n        /* \"#utility.yul\":16361:16436   */\n      tag_387\n        /* \"#utility.yul\":16431:16435   */\n      dup2\n        /* \"#utility.yul\":16422:16428   */\n      dup5\n        /* \"#utility.yul\":16361:16436   */\n      tag_200\n      jump\t// in\n    tag_387:\n        /* \"#utility.yul\":16353:16436   */\n      swap1\n      pop\n        /* \"#utility.yul\":16026:16443   */\n      swap4\n      swap3\n      pop\n      pop\n      pop\n      jump\t// out\n        /* \"#utility.yul\":16449:16628   */\n    tag_201:\n        /* \"#utility.yul\":16589:16620   */\n      0x4f6e6c79206f776e65722063616e2070726f706f73652061206c61772e000000\n        /* \"#utility.yul\":16585:16586   */\n      0x00\n        /* \"#utility.yul\":16577:16583   */\n      dup3\n        /* \"#utility.yul\":16573:16587   */\n      add\n        /* \"#utility.yul\":16566:16621   */\n      mstore\n        /* \"#utility.yul\":16449:16628   */\n      pop\n      jump\t// out\n        /* \"#utility.yul\":16634:17000   */\n    tag_202:\n        /* \"#utility.yul\":16776:16779   */\n      0x00\n        /* \"#utility.yul\":16797:16864   */\n      tag_390\n        /* \"#utility.yul\":16861:16863   */\n      0x1d\n        /* \"#utility.yul\":16856:16859   */\n      dup4\n        /* \"#utility.yul\":16797:16864   */\n      tag_159\n      jump\t// in\n    tag_390:\n        /* \"#utility.yul\":16790:16864   */\n      swap2\n      pop\n        /* \"#utility.yul\":16873:16966   */\n      tag_391\n        /* \"#utility.yul\":16962:16965   */\n      dup3\n        /* \"#utility.yul\":16873:16966   */\n      tag_201\n      jump\t// in\n    tag_391:\n        /* \"#utility.yul\":16991:16993   */\n      0x20\n        /* \"#utility.yul\":16986:16989   */\n      dup3\n        /* \"#utility.yul\":16982:16994   */\n      add\n        /* \"#utility.yul\":16975:16994   */\n      swap1\n      pop\n        /* \"#utility.yul\":16634:17000   */\n      swap2\n      swap1\n      pop\n      jump\t// out\n        /* \"#utility.yul\":17006:17425   */\n    tag_118:\n        /* \"#utility.yul\":17172:17176   */\n      0x00\n        /* \"#utility.yul\":17210:17212   */\n      0x20\n        /* \"#utility.yul\":17199:17208   */\n      dup3\n        /* \"#utility.yul\":17195:17213   */\n      add\n        /* \"#utility.yul\":17187:17213   */\n      swap1\n      pop\n        /* \"#utility.yul\":17259:17268   */\n      dup2\n        /* \"#utility.yul\":17253:17257   */\n      dup2\n        /* \"#utility.yul\":17249:17269   */\n      sub\n        /* \"#utility.yul\":17245:17246   */\n      0x00\n        /* \"#utility.yul\":17234:17243   */\n      dup4\n        /* \"#utility.yul\":17230:17247   */\n      add\n        /* \"#utility.yul\":17223:17270   */\n      mstore\n        /* \"#utility.yul\":17287:17418   */\n      tag_393\n        /* \"#utility.yul\":17413:17417   */\n      dup2\n        /* \"#utility.yul\":17287:17418   */\n      tag_202\n      jump\t// in\n    tag_393:\n        /* \"#utility.yul\":17279:17418   */\n      swap1\n      pop\n        /* \"#utility.yul\":17006:17425   */\n      swap2\n      swap1\n      pop\n      jump\t// out\n        /* \"#utility.yul\":17431:17524   */\n    tag_203:\n        /* \"#utility.yul\":17468:17474   */\n      0x00\n        /* \"#utility.yul\":17515:17517   */\n      0x20\n        /* \"#utility.yul\":17510:17512   */\n      0x1f\n        /* \"#utility.yul\":17503:17508   */\n      dup4\n        /* \"#utility.yul\":17499:17513   */\n      add\n        /* \"#utility.yul\":17495:17518   */\n      div\n        /* \"#utility.yul\":17485:17518   */\n      swap1\n      pop\n        /* \"#utility.yul\":17431:17524   */\n      swap2\n      swap1\n      pop\n      jump\t// out\n        /* \"#utility.yul\":17530:17637   */\n    tag_204:\n        /* \"#utility.yul\":17574:17582   */\n      0x00\n        /* \"#utility.yul\":17624:17629   */\n      dup3\n        /* \"#utility.yul\":17618:17622   */\n      dup3\n        /* \"#utility.yul\":17614:17630   */\n      shl\n        /* \"#utility.yul\":17593:17630   */\n      swap1\n      pop\n        /* \"#utility.yul\":17530:17637   */\n      swap3\n      swap2\n      pop\n      pop\n      jump\t// out\n        /* \"#utility.yul\":17643:18036   */\n    tag_205:\n        /* \"#utility.yul\":17712:17718   */\n      0x00\n        /* \"#utility.yul\":17762:17763   */\n      0x08\n        /* \"#utility.yul\":17750:17760   */\n      dup4\n        /* \"#utility.yul\":17746:17764   */\n      mul\n        /* \"#utility.yul\":17785:17882   */\n      tag_397\n        /* \"#utility.yul\":17815:17881   */\n      0xffffffffffffffffffffffffffffffffffffffffffffffffffffffffffffffff\n        /* \"#utility.yul\":17804:17813   */\n      dup3\n        /* \"#utility.yul\":17785:17882   */\n      tag_204\n      jump\t// in\n    tag_397:\n        /* \"#utility.yul\":17903:17942   */\n      tag_398\n        /* \"#utility.yul\":17933:17941   */\n      dup7\n        /* \"#utility.yul\":17922:17931   */\n      dup4\n        /* \"#utility.yul\":17903:17942   */\n      tag_204\n      jump\t// in\n    tag_398:\n        /* \"#utility.yul\":17891:17942   */\n      swap6\n      pop\n        /* \"#utility.yul\":17975:17979   */\n      dup1\n        /* \"#utility.yul\":17971:17980   */\n      not\n        /* \"#utility.yul\":17964:17969   */\n      dup5\n        /* \"#utility.yul\":17960:17981   */\n      and\n        /* \"#utility.yul\":17951:17981   */\n      swap4\n      pop\n        /* \"#utility.yul\":18024:18028   */\n      dup1\n        /* \"#utility.yul\":18014:18022   */\n      dup7\n        /* \"#utility.yul\":18010:18029   */\n      and\n        /* \"#utility.yul\":18003:18008   */\n      dup5\n        /* \"#utility.yul\":18000:18030   */\n      or\n        /* \"#utility.yul\":17990:18030   */\n      swap3\n      pop\n        /* \"#utility.yul\":17719:18036   */\n      pop\n      pop\n        /* \"#utility.yul\":17643:18036   */\n      swap4\n      swap3\n      pop\n      pop\n      pop\n      jump\t// out\n        /* \"#utility.yul\":18042:18102   */\n    tag_206:\n        /* \"#utility.yul\":18070:18073   */\n      0x00\n        /* \"#utility.yul\":18091:18096   */\n      dup2\n        /* \"#utility.yul\":18084:18096   */\n      swap1\n      pop\n        /* \"#utility.yul\":18042:18102   */\n      swap2\n      swap1\n      pop\n      jump\t// out\n        /* \"#utility.yul\":18108:18250   */\n    tag_207:\n        /* \"#utility.yul\":18158:18167   */\n      0x00\n        /* \"#utility.yul\":18191:18244   */\n      tag_401\n        /* \"#utility.yul\":18209:18243   */\n      tag_402\n        /* \"#utility.yul\":18218:18242   */\n      tag_403\n        /* \"#utility.yul\":18236:18241   */\n      dup5\n        /* \"#utility.yul\":18218:18242   */\n      tag_155\n      jump\t// in\n    tag_403:\n        /* \"#utility.yul\":18209:18243   */\n      tag_206\n      jump\t// in\n    tag_402:\n        /* \"#utility.yul\":18191:18244   */\n      tag_155\n      jump\t// in\n    tag_401:\n        /* \"#utility.yul\":18178:18244   */\n      swap1\n      pop\n        /* \"#utility.yul\":18108:18250   */\n      swap2\n      swap1\n      pop\n      jump\t// out\n        /* \"#utility.yul\":18256:18331   */\n    tag_208:\n        /* \"#utility.yul\":18299:18302   */\n      0x00\n        /* \"#utility.yul\":18320:18325   */\n      dup2\n        /* \"#utility.yul\":18313:18325   */\n      swap1\n      pop\n        /* \"#utility.yul\":18256:18331   */\n      swap2\n      swap1\n      pop\n      jump\t// out\n        /* \"#utility.yul\":18337:18606   */\n    tag_209:\n        /* \"#utility.yul\":18447:18486   */\n      tag_406\n        /* \"#utility.yul\":18478:18485   */\n      dup4\n        /* \"#utility.yul\":18447:18486   */\n      tag_207\n      jump\t// in\n    tag_406:\n        /* \"#utility.yul\":18508:18599   */\n      tag_407\n        /* \"#utility.yul\":18557:18598   */\n      tag_408\n        /* \"#utility.yul\":18581:18597   */\n      dup3\n        /* \"#utility.yul\":18557:18598   */\n      tag_208\n      jump\t// in\n    tag_408:\n        /* \"#utility.yul\":18549:18555   */\n      dup5\n        /* \"#utility.yul\":18542:18546   */\n      dup5\n        /* \"#utility.yul\":18536:18547   */\n      sload\n        /* \"#utility.yul\":18508:18599   */\n      tag_205\n      jump\t// in\n    tag_407:\n        /* \"#utility.yul\":18502:18506   */\n      dup3\n        /* \"#utility.yul\":18495:18600   */\n      sstore\n        /* \"#utility.yul\":18413:18606   */\n      pop\n        /* \"#utility.yul\":18337:18606   */\n      pop\n      pop\n      pop\n      jump\t// out\n        /* \"#utility.yul\":18612:18685   */\n    tag_210:\n        /* \"#utility.yul\":18657:18660   */\n      0x00\n        /* \"#utility.yul\":18612:18685   */\n      swap1\n      jump\t// out\n        /* \"#utility.yul\":18691:18880   */\n    tag_211:\n        /* \"#utility.yul\":18768:18800   */\n      tag_411\n      tag_210\n      jump\t// in\n    tag_411:\n        /* \"#utility.yul\":18809:18874   */\n      tag_412\n        /* \"#utility.yul\":18867:18873   */\n      dup2\n        /* \"#utility.yul\":18859:18865   */\n      dup5\n        /* \"#utility.yul\":18853:18857   */\n      dup5\n        /* \"#utility.yul\":18809:18874   */\n      tag_209\n      jump\t// in\n    tag_412:\n        /* \"#utility.yul\":18744:18880   */\n      pop\n        /* \"#utility.yul\":18691:18880   */\n      pop\n      pop\n      jump\t// out\n        /* \"#utility.yul\":18886:19072   */\n    tag_212:\n        /* \"#utility.yul\":18946:19066   */\n    tag_414:\n        /* \"#utility.yul\":18963:18966   */\n      dup2\n        /* \"#utility.yul\":18956:18961   */\n      dup2\n        /* \"#utility.yul\":18953:18967   */\n      lt\n        /* \"#utility.yul\":18946:19066   */\n      iszero\n      tag_416\n      jumpi\n        /* \"#utility.yul\":19017:19056   */\n      tag_417\n        /* \"#utility.yul\":19054:19055   */\n      0x00\n        /* \"#utility.yul\":19047:19052   */\n      dup3\n        /* \"#utility.yul\":19017:19056   */\n      tag_211\n      jump\t// in\n    tag_417:\n        /* \"#utility.yul\":18990:18991   */\n      0x01\n        /* \"#utility.yul\":18983:18988   */\n      dup2\n        /* \"#utility.yul\":18979:18992   */\n      add\n        /* \"#utility.yul\":18970:18992   */\n      swap1\n      pop\n        /* \"#utility.yul\":18946:19066   */\n      jump(tag_414)\n    tag_416:\n        /* \"#utility.yul\":18886:19072   */\n      pop\n      pop\n      jump\t// out\n        /* \"#utility.yul\":19078:19621   */\n    tag_213:\n        /* \"#utility.yul\":19179:19181   */\n      0x1f\n        /* \"#utility.yul\":19174:19177   */\n      dup3\n        /* \"#utility.yul\":19171:19182   */\n      gt\n        /* \"#utility.yul\":19168:19614   */\n      iszero\n      tag_419\n      jumpi\n        /* \"#utility.yul\":19213:19251   */\n      tag_420\n        /* \"#utility.yul\":19245:19250   */\n      dup2\n        /* \"#utility.yul\":19213:19251   */\n      tag_199\n      jump\t// in\n    tag_420:\n        /* \"#utility.yul\":19297:19326   */\n      tag_421\n        /* \"#utility.yul\":19315:19325   */\n      dup5\n        /* \"#utility.yul\":19297:19326   */\n      tag_203\n      jump\t// in\n    tag_421:\n        /* \"#utility.yul\":19287:19295   */\n      dup2\n        /* \"#utility.yul\":19283:19327   */\n      add\n        /* \"#utility.yul\":19480:19482   */\n      0x20\n        /* \"#utility.yul\":19468:19478   */\n      dup6\n        /* \"#utility.yul\":19465:19483   */\n      lt\n        /* \"#utility.yul\":19462:19511   */\n      iszero\n      tag_422\n      jumpi\n        /* \"#utility.yul\":19501:19509   */\n      dup2\n        /* \"#utility.yul\":19486:19509   */\n      swap1\n      pop\n        /* \"#utility.yul\":19462:19511   */\n    tag_422:\n        /* \"#utility.yul\":19524:19604   */\n      tag_423\n        /* \"#utility.yul\":19580:19602   */\n      tag_424\n        /* \"#utility.yul\":19598:19601   */\n      dup6\n        /* \"#utility.yul\":19580:19602   */\n      tag_203\n      jump\t// in\n    tag_424:\n        /* \"#utility.yul\":19570:19578   */\n      dup4\n        /* \"#utility.yul\":19566:19603   */\n      add\n        /* \"#utility.yul\":19553:19564   */\n      dup3\n        /* \"#utility.yul\":19524:19604   */\n      tag_212\n      jump\t// in\n    tag_423:\n        /* \"#utility.yul\":19183:19614   */\n      pop\n      pop\n        /* \"#utility.yul\":19168:19614   */\n    tag_419:\n        /* \"#utility.yul\":19078:19621   */\n      pop\n      pop\n      pop\n      jump\t// out\n        /* \"#utility.yul\":19627:19744   */\n    tag_214:\n        /* \"#utility.yul\":19681:19689   */\n      0x00\n        /* \"#utility.yul\":19731:19736   */\n      dup3\n        /* \"#utility.yul\":19725:19729   */\n      dup3\n        /* \"#utility.yul\":19721:19737   */\n      shr\n        /* \"#utility.yul\":19700:19737   */\n      swap1\n      pop\n        /* \"#utility.yul\":19627:19744   */\n      swap3\n      swap2\n      pop\n      pop\n      jump\t// out\n        /* \"#utility.yul\":19750:19919   */\n    tag_215:\n        /* \"#utility.yul\":19794:19800   */\n      0x00\n        /* \"#utility.yul\":19827:19878   */\n      tag_427\n        /* \"#utility.yul\":19875:19876   */\n      0x00\n        /* \"#utility.yul\":19871:19877   */\n      not\n        /* \"#utility.yul\":19863:19868   */\n      dup5\n        /* \"#utility.yul\":19860:19861   */\n      0x08\n        /* \"#utility.yul\":19856:19869   */\n      mul\n        /* \"#utility.yul\":19827:19878   */\n      tag_214\n      jump\t// in\n    tag_427:\n        /* \"#utility.yul\":19823:19879   */\n      not\n        /* \"#utility.yul\":19908:19912   */\n      dup1\n        /* \"#utility.yul\":19902:19906   */\n      dup4\n        /* \"#utility.yul\":19898:19913   */\n      and\n        /* \"#utility.yul\":19888:19913   */\n      swap2\n      pop\n        /* \"#utility.yul\":19801:19919   */\n      pop\n        /* \"#utility.yul\":19750:19919   */\n      swap3\n      swap2\n      pop\n      pop\n      jump\t// out\n        /* \"#utility.yul\":19924:20219   */\n    tag_216:\n        /* \"#utility.yul\":20000:20004   */\n      0x00\n        /* \"#utility.yul\":20146:20175   */\n      tag_429\n        /* \"#utility.yul\":20171:20174   */\n      dup4\n        /* \"#utility.yul\":20165:20169   */\n      dup4\n        /* \"#utility.yul\":20146:20175   */\n      tag_215\n      jump\t// in\n    tag_429:\n        /* \"#utility.yul\":20138:20175   */\n      swap2\n      pop\n        /* \"#utility.yul\":20208:20211   */\n      dup3\n        /* \"#utility.yul\":20205:20206   */\n      0x02\n        /* \"#utility.yul\":20201:20212   */\n      mul\n        /* \"#utility.yul\":20195:20199   */\n      dup3\n        /* \"#utility.yul\":20192:20213   */\n      or\n        /* \"#utility.yul\":20184:20213   */\n      swap1\n      pop\n        /* \"#utility.yul\":19924:20219   */\n      swap3\n      swap2\n      pop\n      pop\n      jump\t// out\n        /* \"#utility.yul\":20224:21619   */\n    tag_121:\n        /* \"#utility.yul\":20341:20378   */\n      tag_431\n        /* \"#utility.yul\":20374:20377   */\n      dup3\n        /* \"#utility.yul\":20341:20378   */\n      tag_158\n      jump\t// in\n    tag_431:\n        /* \"#utility.yul\":20443:20461   */\n      0xffffffffffffffff\n        /* \"#utility.yul\":20435:20441   */\n      dup2\n        /* \"#utility.yul\":20432:20462   */\n      gt\n        /* \"#utility.yul\":20429:20485   */\n      iszero\n      tag_432\n      jumpi\n        /* \"#utility.yul\":20465:20483   */\n      tag_433\n      tag_180\n      jump\t// in\n    tag_433:\n        /* \"#utility.yul\":20429:20485   */\n    tag_432:\n        /* \"#utility.yul\":20509:20547   */\n      tag_434\n        /* \"#utility.yul\":20541:20545   */\n      dup3\n        /* \"#utility.yul\":20535:20546   */\n      sload\n        /* \"#utility.yul\":20509:20547   */\n      tag_71\n      jump\t// in\n    tag_434:\n        /* \"#utility.yul\":20594:20661   */\n      tag_435\n        /* \"#utility.yul\":20654:20660   */\n      dup3\n        /* \"#utility.yul\":20646:20652   */\n      dup3\n        /* \"#utility.yul\":20640:20644   */\n      dup6\n        /* \"#utility.yul\":20594:20661   */\n      tag_213\n      jump\t// in\n    tag_435:\n        /* \"#utility.yul\":20688:20689   */\n      0x00\n        /* \"#utility.yul\":20712:20716   */\n      0x20\n        /* \"#utility.yul\":20699:20716   */\n      swap1\n      pop\n        /* \"#utility.yul\":20744:20746   */\n      0x1f\n        /* \"#utility.yul\":20736:20742   */\n      dup4\n        /* \"#utility.yul\":20733:20747   */\n      gt\n        /* \"#utility.yul\":20761:20762   */\n      0x01\n        /* \"#utility.yul\":20756:21374   */\n      dup2\n      eq\n      tag_437\n      jumpi\n        /* \"#utility.yul\":21418:21419   */\n      0x00\n        /* \"#utility.yul\":21435:21441   */\n      dup5\n        /* \"#utility.yul\":21432:21509   */\n      iszero\n      tag_438\n      jumpi\n        /* \"#utility.yul\":21484:21493   */\n      dup3\n        /* \"#utility.yul\":21479:21482   */\n      dup8\n        /* \"#utility.yul\":21475:21494   */\n      add\n        /* \"#utility.yul\":21469:21495   */\n      mload\n        /* \"#utility.yul\":21460:21495   */\n      swap1\n      pop\n        /* \"#utility.yul\":21432:21509   */\n    tag_438:\n        /* \"#utility.yul\":21535:21602   */\n      tag_439\n        /* \"#utility.yul\":21595:21601   */\n      dup6\n        /* \"#utility.yul\":21588:21593   */\n      dup3\n        /* \"#utility.yul\":21535:21602   */\n      tag_216\n      jump\t// in\n    tag_439:\n        /* \"#utility.yul\":21529:21533   */\n      dup7\n        /* \"#utility.yul\":21522:21603   */\n      sstore\n        /* \"#utility.yul\":21391:21613   */\n      pop\n        /* \"#utility.yul\":20726:21613   */\n      jump(tag_436)\n        /* \"#utility.yul\":20756:21374   */\n    tag_437:\n        /* \"#utility.yul\":20808:20812   */\n      0x1f\n        /* \"#utility.yul\":20804:20813   */\n      not\n        /* \"#utility.yul\":20796:20802   */\n      dup5\n        /* \"#utility.yul\":20792:20814   */\n      and\n        /* \"#utility.yul\":20842:20879   */\n      tag_440\n        /* \"#utility.yul\":20874:20878   */\n      dup7\n        /* \"#utility.yul\":20842:20879   */\n      tag_199\n      jump\t// in\n    tag_440:\n        /* \"#utility.yul\":20901:20902   */\n      0x00\n        /* \"#utility.yul\":20915:21123   */\n    tag_441:\n        /* \"#utility.yul\":20929:20936   */\n      dup3\n        /* \"#utility.yul\":20926:20927   */\n      dup2\n        /* \"#utility.yul\":20923:20937   */\n      lt\n        /* \"#utility.yul\":20915:21123   */\n      iszero\n      tag_443\n      jumpi\n        /* \"#utility.yul\":21008:21017   */\n      dup5\n        /* \"#utility.yul\":21003:21006   */\n      dup10\n        /* \"#utility.yul\":20999:21018   */\n      add\n        /* \"#utility.yul\":20993:21019   */\n      mload\n        /* \"#utility.yul\":20985:20991   */\n      dup3\n        /* \"#utility.yul\":20978:21020   */\n      sstore\n        /* \"#utility.yul\":21059:21060   */\n      0x01\n        /* \"#utility.yul\":21051:21057   */\n      dup3\n        /* \"#utility.yul\":21047:21061   */\n      add\n        /* \"#utility.yul\":21037:21061   */\n      swap2\n      pop\n        /* \"#utility.yul\":21106:21108   */\n      0x20\n        /* \"#utility.yul\":21095:21104   */\n      dup6\n        /* \"#utility.yul\":21091:21109   */\n      add\n        /* \"#utility.yul\":21078:21109   */\n      swap5\n      pop\n        /* \"#utility.yul\":20952:20956   */\n      0x20\n        /* \"#utility.yul\":20949:20950   */\n      dup2\n        /* \"#utility.yul\":20945:20957   */\n      add\n        /* \"#utility.yul\":20940:20957   */\n      swap1\n      pop\n        /* \"#utility.yul\":20915:21123   */\n      jump(tag_441)\n    tag_443:\n        /* \"#utility.yul\":21151:21157   */\n      dup7\n        /* \"#utility.yul\":21142:21149   */\n      dup4\n        /* \"#utility.yul\":21139:21158   */\n      lt\n        /* \"#utility.yul\":21136:21315   */\n      iszero\n      tag_444\n      jumpi\n        /* \"#utility.yul\":21209:21218   */\n      dup5\n        /* \"#utility.yul\":21204:21207   */\n      dup10\n        /* \"#utility.yul\":21200:21219   */\n      add\n        /* \"#utility.yul\":21194:21220   */\n      mload\n        /* \"#utility.yul\":21252:21300   */\n      tag_445\n        /* \"#utility.yul\":21294:21298   */\n      0x1f\n        /* \"#utility.yul\":21286:21292   */\n      dup10\n        /* \"#utility.yul\":21282:21299   */\n      and\n        /* \"#utility.yul\":21271:21280   */\n      dup3\n        /* \"#utility.yul\":21252:21300   */\n      tag_215\n      jump\t// in\n    tag_445:\n        /* \"#utility.yul\":21244:21250   */\n      dup4\n        /* \"#utility.yul\":21237:21301   */\n      sstore\n        /* \"#utility.yul\":21159:21315   */\n      pop\n        /* \"#utility.yul\":21136:21315   */\n    tag_444:\n        /* \"#utility.yul\":21361:21362   */\n      0x01\n        /* \"#utility.yul\":21357:21358   */\n      0x02\n        /* \"#utility.yul\":21349:21355   */\n      dup9\n        /* \"#utility.yul\":21345:21359   */\n      mul\n        /* \"#utility.yul\":21341:21363   */\n      add\n        /* \"#utility.yul\":21335:21339   */\n      dup9\n        /* \"#utility.yul\":21328:21364   */\n      sstore\n        /* \"#utility.yul\":20763:21374   */\n      pop\n      pop\n      pop\n        /* \"#utility.yul\":20726:21613   */\n    tag_436:\n      pop\n        /* \"#utility.yul\":20316:21619   */\n      pop\n      pop\n      pop\n        /* \"#utility.yul\":20224:21619   */\n      pop\n      pop\n      jump\t// out\n        /* \"#utility.yul\":21625:22048   */\n    tag_124:\n        /* \"#utility.yul\":21766:21770   */\n      0x00\n        /* \"#utility.yul\":21804:21806   */\n      0x40\n        /* \"#utility.yul\":21793:21802   */\n      dup3\n        /* \"#utility.yul\":21789:21807   */\n      add\n        /* \"#utility.yul\":21781:21807   */\n      swap1\n      pop\n        /* \"#utility.yul\":21817:21888   */\n      tag_447\n        /* \"#utility.yul\":21885:21886   */\n      0x00\n        /* \"#utility.yul\":21874:21883   */\n      dup4\n        /* \"#utility.yul\":21870:21887   */\n      add\n        /* \"#utility.yul\":21861:21867   */\n      dup6\n        /* \"#utility.yul\":21817:21888   */\n      tag_166\n      jump\t// in\n    tag_447:\n        /* \"#utility.yul\":21935:21944   */\n      dup2\n        /* \"#utility.yul\":21929:21933   */\n      dup2\n        /* \"#utility.yul\":21925:21945   */\n      sub\n        /* \"#utility.yul\":21920:21922   */\n      0x20\n        /* \"#utility.yul\":21909:21918   */\n      dup4\n        /* \"#utility.yul\":21905:21923   */\n      add\n        /* \"#utility.yul\":21898:21946   */\n      mstore\n        /* \"#utility.yul\":21963:22041   */\n      tag_448\n        /* \"#utility.yul\":22036:22040   */\n      dup2\n        /* \"#utility.yul\":22027:22033   */\n      dup5\n        /* \"#utility.yul\":21963:22041   */\n      tag_162\n      jump\t// in\n    tag_448:\n        /* \"#utility.yul\":21955:22041   */\n      swap1\n      pop\n        /* \"#utility.yul\":21625:22048   */\n      swap4\n      swap3\n      pop\n      pop\n      pop\n      jump\t// out\n        /* \"#utility.yul\":22054:22218   */\n    tag_217:\n        /* \"#utility.yul\":22194:22210   */\n      0x416c726561647920766f7465642e000000000000000000000000000000000000\n        /* \"#utility.yul\":22190:22191   */\n      0x00\n        /* \"#utility.yul\":22182:22188   */\n      dup3\n        /* \"#utility.yul\":22178:22192   */\n      add\n        /* \"#utility.yul\":22171:22211   */\n      mstore\n        /* \"#utility.yul\":22054:22218   */\n      pop\n      jump\t// out\n        /* \"#utility.yul\":22224:22590   */\n    tag_218:\n        /* \"#utility.yul\":22366:22369   */\n      0x00\n        /* \"#utility.yul\":22387:22454   */\n      tag_451\n        /* \"#utility.yul\":22451:22453   */\n      0x0e\n        /* \"#utility.yul\":22446:22449   */\n      dup4\n        /* \"#utility.yul\":22387:22454   */\n      tag_159\n      jump\t// in\n    tag_451:\n        /* \"#utility.yul\":22380:22454   */\n      swap2\n      pop\n        /* \"#utility.yul\":22463:22556   */\n      tag_452\n        /* \"#utility.yul\":22552:22555   */\n      dup3\n        /* \"#utility.yul\":22463:22556   */\n      tag_217\n      jump\t// in\n    tag_452:\n        /* \"#utility.yul\":22581:22583   */\n      0x20\n        /* \"#utility.yul\":22576:22579   */\n      dup3\n        /* \"#utility.yul\":22572:22584   */\n      add\n        /* \"#utility.yul\":22565:22584   */\n      swap1\n      pop\n        /* \"#utility.yul\":22224:22590   */\n      swap2\n      swap1\n      pop\n      jump\t// out\n        /* \"#utility.yul\":22596:23015   */\n    tag_128:\n        /* \"#utility.yul\":22762:22766   */\n      0x00\n        /* \"#utility.yul\":22800:22802   */\n      0x20\n        /* \"#utility.yul\":22789:22798   */\n      dup3\n        /* \"#utility.yul\":22785:22803   */\n      add\n        /* \"#utility.yul\":22777:22803   */\n      swap1\n      pop\n        /* \"#utility.yul\":22849:22858   */\n      dup2\n        /* \"#utility.yul\":22843:22847   */\n      dup2\n        /* \"#utility.yul\":22839:22859   */\n      sub\n        /* \"#utility.yul\":22835:22836   */\n      0x00\n        /* \"#utility.yul\":22824:22833   */\n      dup4\n        /* \"#utility.yul\":22820:22837   */\n      add\n        /* \"#utility.yul\":22813:22860   */\n      mstore\n        /* \"#utility.yul\":22877:23008   */\n      tag_454\n        /* \"#utility.yul\":23003:23007   */\n      dup2\n        /* \"#utility.yul\":22877:23008   */\n      tag_218\n      jump\t// in\n    tag_454:\n        /* \"#utility.yul\":22869:23008   */\n      swap1\n      pop\n        /* \"#utility.yul\":22596:23015   */\n      swap2\n      swap1\n      pop\n      jump\t// out\n        /* \"#utility.yul\":23021:23190   */\n    tag_219:\n        /* \"#utility.yul\":23161:23182   */\n      0x496e76616c69642070726f706f73616c20496400000000000000000000000000\n        /* \"#utility.yul\":23157:23158   */\n      0x00\n        /* \"#utility.yul\":23149:23155   */\n      dup3\n        /* \"#utility.yul\":23145:23159   */\n      add\n        /* \"#utility.yul\":23138:23183   */\n      mstore\n        /* \"#utility.yul\":23021:23190   */\n      pop\n      jump\t// out\n        /* \"#utility.yul\":23196:23562   */\n    tag_220:\n        /* \"#utility.yul\":23338:23341   */\n      0x00\n        /* \"#utility.yul\":23359:23426   */\n      tag_457\n        /* \"#utility.yul\":23423:23425   */\n      0x13\n        /* \"#utility.yul\":23418:23421   */\n      dup4\n        /* \"#utility.yul\":23359:23426   */\n      tag_159\n      jump\t// in\n    tag_457:\n        /* \"#utility.yul\":23352:23426   */\n      swap2\n      pop\n        /* \"#utility.yul\":23435:23528   */\n      tag_458\n        /* \"#utility.yul\":23524:23527   */\n      dup3\n        /* \"#utility.yul\":23435:23528   */\n      tag_219\n      jump\t// in\n    tag_458:\n        /* \"#utility.yul\":23553:23555   */\n      0x20\n        /* \"#utility.yul\":23548:23551   */\n      dup3\n        /* \"#utility.yul\":23544:23556   */\n      add\n        /* \"#utility.yul\":23537:23556   */\n      swap1\n      pop\n        /* \"#utility.yul\":23196:23562   */\n      swap2\n      swap1\n      pop\n      jump\t// out\n        /* \"#utility.yul\":23568:23987   */\n    tag_132:\n        /* \"#utility.yul\":23734:23738   */\n      0x00\n        /* \"#utility.yul\":23772:23774   */\n      0x20\n        /* \"#utility.yul\":23761:23770   */\n      dup3\n        /* \"#utility.yul\":23757:23775   */\n      add\n        /* \"#utility.yul\":23749:23775   */\n      swap1\n      pop\n        /* \"#utility.yul\":23821:23830   */\n      dup2\n        /* \"#utility.yul\":23815:23819   */\n      dup2\n        /* \"#utility.yul\":23811:23831   */\n      sub\n        /* \"#utility.yul\":23807:23808   */\n      0x00\n        /* \"#utility.yul\":23796:23805   */\n      dup4\n        /* \"#utility.yul\":23792:23809   */\n      add\n        /* \"#utility.yul\":23785:23832   */\n      mstore\n        /* \"#utility.yul\":23849:23980   */\n      tag_460\n        /* \"#utility.yul\":23975:23979   */\n      dup2\n        /* \"#utility.yul\":23849:23980   */\n      tag_220\n      jump\t// in\n    tag_460:\n        /* \"#utility.yul\":23841:23980   */\n      swap1\n      pop\n        /* \"#utility.yul\":23568:23987   */\n      swap2\n      swap1\n      pop\n      jump\t// out\n        /* \"#utility.yul\":23993:24184   */\n    tag_138:\n        /* \"#utility.yul\":24033:24036   */\n      0x00\n        /* \"#utility.yul\":24052:24072   */\n      tag_462\n        /* \"#utility.yul\":24070:24071   */\n      dup3\n        /* \"#utility.yul\":24052:24072   */\n      tag_155\n      jump\t// in\n    tag_462:\n        /* \"#utility.yul\":24047:24072   */\n      swap2\n      pop\n        /* \"#utility.yul\":24086:24106   */\n      tag_463\n        /* \"#utility.yul\":24104:24105   */\n      dup4\n        /* \"#utility.yul\":24086:24106   */\n      tag_155\n      jump\t// in\n    tag_463:\n        /* \"#utility.yul\":24081:24106   */\n      swap3\n      pop\n        /* \"#utility.yul\":24129:24130   */\n      dup3\n        /* \"#utility.yul\":24126:24127   */\n      dup3\n        /* \"#utility.yul\":24122:24131   */\n      add\n        /* \"#utility.yul\":24115:24131   */\n      swap1\n      pop\n        /* \"#utility.yul\":24150:24153   */\n      dup1\n        /* \"#utility.yul\":24147:24148   */\n      dup3\n        /* \"#utility.yul\":24144:24154   */\n      gt\n        /* \"#utility.yul\":24141:24177   */\n      iszero\n      tag_464\n      jumpi\n        /* \"#utility.yul\":24157:24175   */\n      tag_465\n      tag_194\n      jump\t// in\n    tag_465:\n        /* \"#utility.yul\":24141:24177   */\n    tag_464:\n        /* \"#utility.yul\":23993:24184   */\n      swap3\n      swap2\n      pop\n      pop\n      jump\t// out\n        /* \"#utility.yul\":24190:24510   */\n    tag_142:\n        /* \"#utility.yul\":24305:24309   */\n      0x00\n        /* \"#utility.yul\":24343:24345   */\n      0x40\n        /* \"#utility.yul\":24332:24341   */\n      dup3\n        /* \"#utility.yul\":24328:24346   */\n      add\n        /* \"#utility.yul\":24320:24346   */\n      swap1\n      pop\n        /* \"#utility.yul\":24356:24427   */\n      tag_467\n        /* \"#utility.yul\":24424:24425   */\n      0x00\n        /* \"#utility.yul\":24413:24422   */\n      dup4\n        /* \"#utility.yul\":24409:24426   */\n      add\n        /* \"#utility.yul\":24400:24406   */\n      dup6\n        /* \"#utility.yul\":24356:24427   */\n      tag_166\n      jump\t// in\n    tag_467:\n        /* \"#utility.yul\":24437:24503   */\n      tag_468\n        /* \"#utility.yul\":24499:24501   */\n      0x20\n        /* \"#utility.yul\":24488:24497   */\n      dup4\n        /* \"#utility.yul\":24484:24502   */\n      add\n        /* \"#utility.yul\":24475:24481   */\n      dup5\n        /* \"#utility.yul\":24437:24503   */\n      tag_168\n      jump\t// in\n    tag_468:\n        /* \"#utility.yul\":24190:24510   */\n      swap4\n      swap3\n      pop\n      pop\n      pop\n      jump\t// out\n        /* \"#utility.yul\":24516:24741   */\n    tag_221:\n        /* \"#utility.yul\":24656:24690   */\n      0x4f6666696369616c732063616e6e6f7420726567697374657220617320636974\n        /* \"#utility.yul\":24652:24653   */\n      0x00\n        /* \"#utility.yul\":24644:24650   */\n      dup3\n        /* \"#utility.yul\":24640:24654   */\n      add\n        /* \"#utility.yul\":24633:24691   */\n      mstore\n        /* \"#utility.yul\":24725:24733   */\n      0x697a656e732e0000000000000000000000000000000000000000000000000000\n        /* \"#utility.yul\":24720:24722   */\n      0x20\n        /* \"#utility.yul\":24712:24718   */\n      dup3\n        /* \"#utility.yul\":24708:24723   */\n      add\n        /* \"#utility.yul\":24701:24734   */\n      mstore\n        /* \"#utility.yul\":24516:24741   */\n      pop\n      jump\t// out\n        /* \"#utility.yul\":24747:25113   */\n    tag_222:\n        /* \"#utility.yul\":24889:24892   */\n      0x00\n        /* \"#utility.yul\":24910:24977   */\n      tag_471\n        /* \"#utility.yul\":24974:24976   */\n      0x26\n        /* \"#utility.yul\":24969:24972   */\n      dup4\n        /* \"#utility.yul\":24910:24977   */\n      tag_159\n      jump\t// in\n    tag_471:\n        /* \"#utility.yul\":24903:24977   */\n      swap2\n      pop\n        /* \"#utility.yul\":24986:25079   */\n      tag_472\n        /* \"#utility.yul\":25075:25078   */\n      dup3\n        /* \"#utility.yul\":24986:25079   */\n      tag_221\n      jump\t// in\n    tag_472:\n        /* \"#utility.yul\":25104:25106   */\n      0x40\n        /* \"#utility.yul\":25099:25102   */\n      dup3\n        /* \"#utility.yul\":25095:25107   */\n      add\n        /* \"#utility.yul\":25088:25107   */\n      swap1\n      pop\n        /* \"#utility.yul\":24747:25113   */\n      swap2\n      swap1\n      pop\n      jump\t// out\n        /* \"#utility.yul\":25119:25538   */\n    tag_146:\n        /* \"#utility.yul\":25285:25289   */\n      0x00\n        /* \"#utility.yul\":25323:25325   */\n      0x20\n        /* \"#utility.yul\":25312:25321   */\n      dup3\n        /* \"#utility.yul\":25308:25326   */\n      add\n        /* \"#utility.yul\":25300:25326   */\n      swap1\n      pop\n        /* \"#utility.yul\":25372:25381   */\n      dup2\n        /* \"#utility.yul\":25366:25370   */\n      dup2\n        /* \"#utility.yul\":25362:25382   */\n      sub\n        /* \"#utility.yul\":25358:25359   */\n      0x00\n        /* \"#utility.yul\":25347:25356   */\n      dup4\n        /* \"#utility.yul\":25343:25360   */\n      add\n        /* \"#utility.yul\":25336:25383   */\n      mstore\n        /* \"#utility.yul\":25400:25531   */\n      tag_474\n        /* \"#utility.yul\":25526:25530   */\n      dup2\n        /* \"#utility.yul\":25400:25531   */\n      tag_222\n      jump\t// in\n    tag_474:\n        /* \"#utility.yul\":25392:25531   */\n      swap1\n      pop\n        /* \"#utility.yul\":25119:25538   */\n      swap2\n      swap1\n      pop\n      jump\t// out\n\n    auxdata: 0xa2646970667358221220f1367129cb78889840683a5edd32df09ebef8f7729e10305ee97a6de3c7efec064736f6c63430008160033\n}\n",
				"bytecode": {
					"linkReferences": {},
					"object": "608060405234801561000f575f80fd5b50335f806101000a81548173ffffffffffffffffffffffffffffffffffffffff021916908373ffffffffffffffffffffffffffffffffffffffff160217905550611c368061005c5f395ff3fe608060405234801561000f575f80fd5b50600436106100cd575f3560e01c806377b81aac1161008a578063bcfb9b6111610064578063bcfb9b6114610211578063cbff75cb1461022d578063dd99e1d41461025d578063eee8c7db14610267576100cd565b806377b81aac1461019557806397ad6afd146101c5578063ba05f053146101f5576100cd565b8063013cf08b146100d157806309a34f00146101055780631e66d26714610135578063445ed26e1461013f57806355cf576e1461015b57806358bc733114610177575b5f80fd5b6100eb60048036038101906100e69190610f13565b610285565b6040516100fc959493929190611030565b60405180910390f35b61011f600480360381019061011a9190610f13565b610377565b60405161012c9190611088565b60405180910390f35b61013d6103b2565b005b61015960048036038101906101549190610f13565b61052a565b005b610175600480360381019061017091906110cb565b61072a565b005b61017f610880565b60405161018c91906111ad565b60405180910390f35b6101af60048036038101906101aa91906110cb565b61090b565b6040516101bc91906111cd565b60405180910390f35b6101df60048036038101906101da9190610f13565b610928565b6040516101ec9190611088565b60405180910390f35b61020f600480360381019061020a9190611312565b610963565b005b61022b60048036038101906102269190611383565b610b2f565b005b610247600480360381019061024291906110cb565b610d04565b60405161025491906111cd565b60405180910390f35b610265610d21565b005b61026f610e44565b60405161027c91906111ad565b60405180910390f35b60058181548110610294575f80fd5b905f5260205f2090600502015f91509050805f0180546102b3906113ee565b80601f01602080910402602001604051908101604052809291908181526020018280546102df906113ee565b801561032a5780601f106103015761010080835404028352916020019161032a565b820191905f5260205f20905b81548152906001019060200180831161030d57829003601f168201915b505050505090806001015f9054906101000a900473ffffffffffffffffffffffffffffffffffffffff1690806002015490806003015490806004015f9054906101000a900460ff16905085565b60018181548110610386575f80fd5b905f5260205f20015f915054906101000a900473ffffffffffffffffffffffffffffffffffffffff1681565b60035f3373ffffffffffffffffffffffffffffffffffffffff1673ffffffffffffffffffffffffffffffffffffffff1681526020019081526020015f205f9054906101000a900460ff161561043c576040517f08c379a000000000000000000000000000000000000000000000000000000000815260040161043390611468565b60405180910390fd5b600233908060018154018082558091505060019003905f5260205f20015f9091909190916101000a81548173ffffffffffffffffffffffffffffffffffffffff021916908373ffffffffffffffffffffffffffffffffffffffff160217905550600160035f3373ffffffffffffffffffffffffffffffffffffffff1673ffffffffffffffffffffffffffffffffffffffff1681526020019081526020015f205f6101000a81548160ff0219169083151502179055507fb7fcdd20d03d875d53ec5d179f2b54e90664b043a69ced790bb5f367b63bafda336040516105209190611088565b60405180910390a1565b5f8054906101000a900473ffffffffffffffffffffffffffffffffffffffff1673ffffffffffffffffffffffffffffffffffffffff163373ffffffffffffffffffffffffffffffffffffffff16146105b7576040517f08c379a00000000000000000000000000000000000000000000000000000000081526004016105ae906114f6565b60405180910390fd5b60016005805490506105c99190611541565b811061060a576040517f08c379a0000000000000000000000000000000000000000000000000000000008152600401610601906115be565b60405180910390fd5b5f6005828154811061061f5761061e6115dc565b5b905f5260205f2090600502019050806004015f9054906101000a900460ff161561067e576040517f08c379a000000000000000000000000000000000000000000000000000000000815260040161067590611679565b60405180910390fd5b8060030154816002015411156106ea576001816004015f6101000a81548160ff0219169083151502179055507f0f80dead99a18a848dcf7fa12502623fff1ab42eae8f5a5f1f905927e1db1b8582825f016040516106dd92919061172a565b60405180910390a1610726565b7f0cd74dd1ceb9bafb229618ba9f08a9f7d116dc8f1975f422a099b41c48035ef282825f0160405161071d92919061172a565b60405180910390a15b5050565b60035f8273ffffffffffffffffffffffffffffffffffffffff1673ffffffffffffffffffffffffffffffffffffffff1681526020019081526020015f205f9054906101000a900460ff161560035f8373ffffffffffffffffffffffffffffffffffffffff1673ffffffffffffffffffffffffffffffffffffffff1681526020019081526020015f205f6101000a81548160ff02191690831515021790555060035f8273ffffffffffffffffffffffffffffffffffffffff1673ffffffffffffffffffffffffffffffffffffffff1681526020019081526020015f205f9054906101000a900460ff161561087c57600281908060018154018082558091505060019003905f5260205f20015f9091909190916101000a81548173ffffffffffffffffffffffffffffffffffffffff021916908373ffffffffffffffffffffffffffffffffffffffff16021790555061087d565b5b50565b6060600280548060200260200160405190810160405280929190818152602001828054801561090157602002820191905f5260205f20905b815f9054906101000a900473ffffffffffffffffffffffffffffffffffffffff1673ffffffffffffffffffffffffffffffffffffffff16815260200190600101908083116108b8575b5050505050905090565b6003602052805f5260405f205f915054906101000a900460ff1681565b60028181548110610937575f80fd5b905f5260205f20015f915054906101000a900473ffffffffffffffffffffffffffffffffffffffff1681565b60035f3373ffffffffffffffffffffffffffffffffffffffff1673ffffffffffffffffffffffffffffffffffffffff1681526020019081526020015f205f9054906101000a900460ff166109ec576040517f08c379a00000000000000000000000000000000000000000000000000000000081526004016109e3906117a2565b60405180910390fd5b60056040518060a001604052808381526020013373ffffffffffffffffffffffffffffffffffffffff1681526020015f81526020015f81526020015f1515815250908060018154018082558091505060019003905f5260205f2090600502015f909190919091505f820151815f019081610a66919061194b565b506020820151816001015f6101000a81548173ffffffffffffffffffffffffffffffffffffffff021916908373ffffffffffffffffffffffffffffffffffffffff16021790555060408201518160020155606082015181600301556080820151816004015f6101000a81548160ff02191690831515021790555050507fa9ef596c73fbcfb4a78bc139b1a19c35247c1f37d2489c0513ad2dd3eb7d8c6b6001600580549050610b159190611541565b82604051610b24929190611a1a565b60405180910390a150565b60045f3373ffffffffffffffffffffffffffffffffffffffff1673ffffffffffffffffffffffffffffffffffffffff1681526020019081526020015f205f9054906101000a900460ff1615610bb9576040517f08c379a0000000000000000000000000000000000000000000000000000000008152600401610bb090611a92565b60405180910390fd5b6001600580549050610bcb9190611541565b8210610c0c576040517f08c379a0000000000000000000000000000000000000000000000000000000008152600401610c0390611afa565b60405180910390fd5b5f60058381548110610c2157610c206115dc565b5b905f5260205f20906005020190508115610c55576001816002015f828254610c499190611b18565b92505081905550610c71565b6001816003015f828254610c699190611541565b925050819055505b600160045f3373ffffffffffffffffffffffffffffffffffffffff1673ffffffffffffffffffffffffffffffffffffffff1681526020019081526020015f205f6101000a81548160ff0219169083151502179055507f98b03f1463128a74cc9dd4acc43b54ef12ac07daacbcd621d2e4266091b7024a8383604051610cf7929190611b4b565b60405180910390a1505050565b6004602052805f5260405f205f915054906101000a900460ff1681565b60035f3373ffffffffffffffffffffffffffffffffffffffff1673ffffffffffffffffffffffffffffffffffffffff1681526020019081526020015f205f9054906101000a900460ff1615610dab576040517f08c379a0000000000000000000000000000000000000000000000000000000008152600401610da290611be2565b60405180910390fd5b600133908060018154018082558091505060019003905f5260205f20015f9091909190916101000a81548173ffffffffffffffffffffffffffffffffffffffff021916908373ffffffffffffffffffffffffffffffffffffffff1602179055507fb02c854262a0f639ed4a5b8dec912bb096e42f257cfd84b990c63f5f074774e033604051610e3a9190611088565b60405180910390a1565b60606001805480602002602001604051908101604052809291908181526020018280548015610ec557602002820191905f5260205f20905b815f9054906101000a900473ffffffffffffffffffffffffffffffffffffffff1673ffffffffffffffffffffffffffffffffffffffff1681526020019060010190808311610e7c575b5050505050905090565b5f604051905090565b5f80fd5b5f80fd5b5f819050919050565b610ef281610ee0565b8114610efc575f80fd5b50565b5f81359050610f0d81610ee9565b92915050565b5f60208284031215610f2857610f27610ed8565b5b5f610f3584828501610eff565b91505092915050565b5f81519050919050565b5f82825260208201905092915050565b5f5b83811015610f75578082015181840152602081019050610f5a565b5f8484015250505050565b5f601f19601f8301169050919050565b5f610f9a82610f3e565b610fa48185610f48565b9350610fb4818560208601610f58565b610fbd81610f80565b840191505092915050565b5f73ffffffffffffffffffffffffffffffffffffffff82169050919050565b5f610ff182610fc8565b9050919050565b61100181610fe7565b82525050565b61101081610ee0565b82525050565b5f8115159050919050565b61102a81611016565b82525050565b5f60a0820190508181035f8301526110488188610f90565b90506110576020830187610ff8565b6110646040830186611007565b6110716060830185611007565b61107e6080830184611021565b9695505050505050565b5f60208201905061109b5f830184610ff8565b92915050565b6110aa81610fe7565b81146110b4575f80fd5b50565b5f813590506110c5816110a1565b92915050565b5f602082840312156110e0576110df610ed8565b5b5f6110ed848285016110b7565b91505092915050565b5f81519050919050565b5f82825260208201905092915050565b5f819050602082019050919050565b61112881610fe7565b82525050565b5f611139838361111f565b60208301905092915050565b5f602082019050919050565b5f61115b826110f6565b6111658185611100565b935061117083611110565b805f5b838110156111a0578151611187888261112e565b975061119283611145565b925050600181019050611173565b5085935050505092915050565b5f6020820190508181035f8301526111c58184611151565b905092915050565b5f6020820190506111e05f830184611021565b92915050565b5f80fd5b5f80fd5b7f4e487b71000000000000000000000000000000000000000000000000000000005f52604160045260245ffd5b61122482610f80565b810181811067ffffffffffffffff82111715611243576112426111ee565b5b80604052505050565b5f611255610ecf565b9050611261828261121b565b919050565b5f67ffffffffffffffff8211156112805761127f6111ee565b5b61128982610f80565b9050602081019050919050565b828183375f83830152505050565b5f6112b66112b184611266565b61124c565b9050828152602081018484840111156112d2576112d16111ea565b5b6112dd848285611296565b509392505050565b5f82601f8301126112f9576112f86111e6565b5b81356113098482602086016112a4565b91505092915050565b5f6020828403121561132757611326610ed8565b5b5f82013567ffffffffffffffff81111561134457611343610edc565b5b611350848285016112e5565b91505092915050565b61136281611016565b811461136c575f80fd5b50565b5f8135905061137d81611359565b92915050565b5f806040838503121561139957611398610ed8565b5b5f6113a685828601610eff565b92505060206113b78582860161136f565b9150509250929050565b7f4e487b71000000000000000000000000000000000000000000000000000000005f52602260045260245ffd5b5f600282049050600182168061140557607f821691505b602082108103611418576114176113c1565b5b50919050565b7f416c72656164792072656769737465726564206173206f6666696369616c2e005f82015250565b5f611452601f83610f48565b915061145d8261141e565b602082019050919050565b5f6020820190508181035f83015261147f81611446565b9050919050565b7f4f6e6c7920636f6e7472616374206f776e65722063616e20706572666f726d205f8201527f7468697320616374696f6e2e0000000000000000000000000000000000000000602082015250565b5f6114e0602c83610f48565b91506114eb82611486565b604082019050919050565b5f6020820190508181035f83015261150d816114d4565b9050919050565b7f4e487b71000000000000000000000000000000000000000000000000000000005f52601160045260245ffd5b5f61154b82610ee0565b915061155683610ee0565b925082820390508181111561156e5761156d611514565b5b92915050565b7f496e76616c69642070726f706f73616c2049642e0000000000000000000000005f82015250565b5f6115a8601483610f48565b91506115b382611574565b602082019050919050565b5f6020820190508181035f8301526115d58161159c565b9050919050565b7f4e487b71000000000000000000000000000000000000000000000000000000005f52603260045260245ffd5b7f50726f706f73616c20616c726561647920656e6163746564206f722072656a655f8201527f637465642e000000000000000000000000000000000000000000000000000000602082015250565b5f611663602583610f48565b915061166e82611609565b604082019050919050565b5f6020820190508181035f83015261169081611657565b9050919050565b5f819050815f5260205f209050919050565b5f81546116b5816113ee565b6116bf8186610f48565b9450600182165f81146116d957600181146116ef57611721565b60ff198316865281151560200286019350611721565b6116f885611697565b5f5b83811015611719578154818901526001820191506020810190506116fa565b808801955050505b50505092915050565b5f60408201905061173d5f830185611007565b818103602083015261174f81846116a9565b90509392505050565b7f4f6e6c79206f776e65722063616e2070726f706f73652061206c61772e0000005f82015250565b5f61178c601d83610f48565b915061179782611758565b602082019050919050565b5f6020820190508181035f8301526117b981611780565b9050919050565b5f6020601f8301049050919050565b5f82821b905092915050565b5f6008830261180a7fffffffffffffffffffffffffffffffffffffffffffffffffffffffffffffffff826117cf565b61181486836117cf565b95508019841693508086168417925050509392505050565b5f819050919050565b5f61184f61184a61184584610ee0565b61182c565b610ee0565b9050919050565b5f819050919050565b61186883611835565b61187c61187482611856565b8484546117db565b825550505050565b5f90565b611890611884565b61189b81848461185f565b505050565b5b818110156118be576118b35f82611888565b6001810190506118a1565b5050565b601f821115611903576118d481611697565b6118dd846117c0565b810160208510156118ec578190505b6119006118f8856117c0565b8301826118a0565b50505b505050565b5f82821c905092915050565b5f6119235f1984600802611908565b1980831691505092915050565b5f61193b8383611914565b9150826002028217905092915050565b61195482610f3e565b67ffffffffffffffff81111561196d5761196c6111ee565b5b61197782546113ee565b6119828282856118c2565b5f60209050601f8311600181146119b3575f84156119a1578287015190505b6119ab8582611930565b865550611a12565b601f1984166119c186611697565b5f5b828110156119e8578489015182556001820191506020850194506020810190506119c3565b86831015611a055784890151611a01601f891682611914565b8355505b6001600288020188555050505b505050505050565b5f604082019050611a2d5f830185611007565b8181036020830152611a3f8184610f90565b90509392505050565b7f416c726561647920766f7465642e0000000000000000000000000000000000005f82015250565b5f611a7c600e83610f48565b9150611a8782611a48565b602082019050919050565b5f6020820190508181035f830152611aa981611a70565b9050919050565b7f496e76616c69642070726f706f73616c204964000000000000000000000000005f82015250565b5f611ae4601383610f48565b9150611aef82611ab0565b602082019050919050565b5f6020820190508181035f830152611b1181611ad8565b9050919050565b5f611b2282610ee0565b9150611b2d83610ee0565b9250828201905080821115611b4557611b44611514565b5b92915050565b5f604082019050611b5e5f830185611007565b611b6b6020830184611021565b9392505050565b7f4f6666696369616c732063616e6e6f74207265676973746572206173206369745f8201527f697a656e732e0000000000000000000000000000000000000000000000000000602082015250565b5f611bcc602683610f48565b9150611bd782611b72565b604082019050919050565b5f6020820190508181035f830152611bf981611bc0565b905091905056fea2646970667358221220f1367129cb78889840683a5edd32df09ebef8f7729e10305ee97a6de3c7efec064736f6c63430008160033",
					"opcodes": "PUSH1 0x80 PUSH1 0x40 MSTORE CALLVALUE DUP1 ISZERO PUSH2 0xF JUMPI PUSH0 DUP1 REVERT JUMPDEST POP CALLER PUSH0 DUP1 PUSH2 0x100 EXP DUP2 SLOAD DUP2 PUSH20 0xFFFFFFFFFFFFFFFFFFFFFFFFFFFFFFFFFFFFFFFF MUL NOT AND SWAP1 DUP4 PUSH20 0xFFFFFFFFFFFFFFFFFFFFFFFFFFFFFFFFFFFFFFFF AND MUL OR SWAP1 SSTORE POP PUSH2 0x1C36 DUP1 PUSH2 0x5C PUSH0 CODECOPY PUSH0 RETURN INVALID PUSH1 0x80 PUSH1 0x40 MSTORE CALLVALUE DUP1 ISZERO PUSH2 0xF JUMPI PUSH0 DUP1 REVERT JUMPDEST POP PUSH1 0x4 CALLDATASIZE LT PUSH2 0xCD JUMPI PUSH0 CALLDATALOAD PUSH1 0xE0 SHR DUP1 PUSH4 0x77B81AAC GT PUSH2 0x8A JUMPI DUP1 PUSH4 0xBCFB9B61 GT PUSH2 0x64 JUMPI DUP1 PUSH4 0xBCFB9B61 EQ PUSH2 0x211 JUMPI DUP1 PUSH4 0xCBFF75CB EQ PUSH2 0x22D JUMPI DUP1 PUSH4 0xDD99E1D4 EQ PUSH2 0x25D JUMPI DUP1 PUSH4 0xEEE8C7DB EQ PUSH2 0x267 JUMPI PUSH2 0xCD JUMP JUMPDEST DUP1 PUSH4 0x77B81AAC EQ PUSH2 0x195 JUMPI DUP1 PUSH4 0x97AD6AFD EQ PUSH2 0x1C5 JUMPI DUP1 PUSH4 0xBA05F053 EQ PUSH2 0x1F5 JUMPI PUSH2 0xCD JUMP JUMPDEST DUP1 PUSH4 0x13CF08B EQ PUSH2 0xD1 JUMPI DUP1 PUSH4 0x9A34F00 EQ PUSH2 0x105 JUMPI DUP1 PUSH4 0x1E66D267 EQ PUSH2 0x135 JUMPI DUP1 PUSH4 0x445ED26E EQ PUSH2 0x13F JUMPI DUP1 PUSH4 0x55CF576E EQ PUSH2 0x15B JUMPI DUP1 PUSH4 0x58BC7331 EQ PUSH2 0x177 JUMPI JUMPDEST PUSH0 DUP1 REVERT JUMPDEST PUSH2 0xEB PUSH1 0x4 DUP1 CALLDATASIZE SUB DUP2 ADD SWAP1 PUSH2 0xE6 SWAP2 SWAP1 PUSH2 0xF13 JUMP JUMPDEST PUSH2 0x285 JUMP JUMPDEST PUSH1 0x40 MLOAD PUSH2 0xFC SWAP6 SWAP5 SWAP4 SWAP3 SWAP2 SWAP1 PUSH2 0x1030 JUMP JUMPDEST PUSH1 0x40 MLOAD DUP1 SWAP2 SUB SWAP1 RETURN JUMPDEST PUSH2 0x11F PUSH1 0x4 DUP1 CALLDATASIZE SUB DUP2 ADD SWAP1 PUSH2 0x11A SWAP2 SWAP1 PUSH2 0xF13 JUMP JUMPDEST PUSH2 0x377 JUMP JUMPDEST PUSH1 0x40 MLOAD PUSH2 0x12C SWAP2 SWAP1 PUSH2 0x1088 JUMP JUMPDEST PUSH1 0x40 MLOAD DUP1 SWAP2 SUB SWAP1 RETURN JUMPDEST PUSH2 0x13D PUSH2 0x3B2 JUMP JUMPDEST STOP JUMPDEST PUSH2 0x159 PUSH1 0x4 DUP1 CALLDATASIZE SUB DUP2 ADD SWAP1 PUSH2 0x154 SWAP2 SWAP1 PUSH2 0xF13 JUMP JUMPDEST PUSH2 0x52A JUMP JUMPDEST STOP JUMPDEST PUSH2 0x175 PUSH1 0x4 DUP1 CALLDATASIZE SUB DUP2 ADD SWAP1 PUSH2 0x170 SWAP2 SWAP1 PUSH2 0x10CB JUMP JUMPDEST PUSH2 0x72A JUMP JUMPDEST STOP JUMPDEST PUSH2 0x17F PUSH2 0x880 JUMP JUMPDEST PUSH1 0x40 MLOAD PUSH2 0x18C SWAP2 SWAP1 PUSH2 0x11AD JUMP JUMPDEST PUSH1 0x40 MLOAD DUP1 SWAP2 SUB SWAP1 RETURN JUMPDEST PUSH2 0x1AF PUSH1 0x4 DUP1 CALLDATASIZE SUB DUP2 ADD SWAP1 PUSH2 0x1AA SWAP2 SWAP1 PUSH2 0x10CB JUMP JUMPDEST PUSH2 0x90B JUMP JUMPDEST PUSH1 0x40 MLOAD PUSH2 0x1BC SWAP2 SWAP1 PUSH2 0x11CD JUMP JUMPDEST PUSH1 0x40 MLOAD DUP1 SWAP2 SUB SWAP1 RETURN JUMPDEST PUSH2 0x1DF PUSH1 0x4 DUP1 CALLDATASIZE SUB DUP2 ADD SWAP1 PUSH2 0x1DA SWAP2 SWAP1 PUSH2 0xF13 JUMP JUMPDEST PUSH2 0x928 JUMP JUMPDEST PUSH1 0x40 MLOAD PUSH2 0x1EC SWAP2 SWAP1 PUSH2 0x1088 JUMP JUMPDEST PUSH1 0x40 MLOAD DUP1 SWAP2 SUB SWAP1 RETURN JUMPDEST PUSH2 0x20F PUSH1 0x4 DUP1 CALLDATASIZE SUB DUP2 ADD SWAP1 PUSH2 0x20A SWAP2 SWAP1 PUSH2 0x1312 JUMP JUMPDEST PUSH2 0x963 JUMP JUMPDEST STOP JUMPDEST PUSH2 0x22B PUSH1 0x4 DUP1 CALLDATASIZE SUB DUP2 ADD SWAP1 PUSH2 0x226 SWAP2 SWAP1 PUSH2 0x1383 JUMP JUMPDEST PUSH2 0xB2F JUMP JUMPDEST STOP JUMPDEST PUSH2 0x247 PUSH1 0x4 DUP1 CALLDATASIZE SUB DUP2 ADD SWAP1 PUSH2 0x242 SWAP2 SWAP1 PUSH2 0x10CB JUMP JUMPDEST PUSH2 0xD04 JUMP JUMPDEST PUSH1 0x40 MLOAD PUSH2 0x254 SWAP2 SWAP1 PUSH2 0x11CD JUMP JUMPDEST PUSH1 0x40 MLOAD DUP1 SWAP2 SUB SWAP1 RETURN JUMPDEST PUSH2 0x265 PUSH2 0xD21 JUMP JUMPDEST STOP JUMPDEST PUSH2 0x26F PUSH2 0xE44 JUMP JUMPDEST PUSH1 0x40 MLOAD PUSH2 0x27C SWAP2 SWAP1 PUSH2 0x11AD JUMP JUMPDEST PUSH1 0x40 MLOAD DUP1 SWAP2 SUB SWAP1 RETURN JUMPDEST PUSH1 0x5 DUP2 DUP2 SLOAD DUP2 LT PUSH2 0x294 JUMPI PUSH0 DUP1 REVERT JUMPDEST SWAP1 PUSH0 MSTORE PUSH1 0x20 PUSH0 KECCAK256 SWAP1 PUSH1 0x5 MUL ADD PUSH0 SWAP2 POP SWAP1 POP DUP1 PUSH0 ADD DUP1 SLOAD PUSH2 0x2B3 SWAP1 PUSH2 0x13EE JUMP JUMPDEST DUP1 PUSH1 0x1F ADD PUSH1 0x20 DUP1 SWAP2 DIV MUL PUSH1 0x20 ADD PUSH1 0x40 MLOAD SWAP1 DUP2 ADD PUSH1 0x40 MSTORE DUP1 SWAP3 SWAP2 SWAP1 DUP2 DUP2 MSTORE PUSH1 0x20 ADD DUP3 DUP1 SLOAD PUSH2 0x2DF SWAP1 PUSH2 0x13EE JUMP JUMPDEST DUP1 ISZERO PUSH2 0x32A JUMPI DUP1 PUSH1 0x1F LT PUSH2 0x301 JUMPI PUSH2 0x100 DUP1 DUP4 SLOAD DIV MUL DUP4 MSTORE SWAP2 PUSH1 0x20 ADD SWAP2 PUSH2 0x32A JUMP JUMPDEST DUP3 ADD SWAP2 SWAP1 PUSH0 MSTORE PUSH1 0x20 PUSH0 KECCAK256 SWAP1 JUMPDEST DUP2 SLOAD DUP2 MSTORE SWAP1 PUSH1 0x1 ADD SWAP1 PUSH1 0x20 ADD DUP1 DUP4 GT PUSH2 0x30D JUMPI DUP3 SWAP1 SUB PUSH1 0x1F AND DUP3 ADD SWAP2 JUMPDEST POP POP POP POP POP SWAP1 DUP1 PUSH1 0x1 ADD PUSH0 SWAP1 SLOAD SWAP1 PUSH2 0x100 EXP SWAP1 DIV PUSH20 0xFFFFFFFFFFFFFFFFFFFFFFFFFFFFFFFFFFFFFFFF AND SWAP1 DUP1 PUSH1 0x2 ADD SLOAD SWAP1 DUP1 PUSH1 0x3 ADD SLOAD SWAP1 DUP1 PUSH1 0x4 ADD PUSH0 SWAP1 SLOAD SWAP1 PUSH2 0x100 EXP SWAP1 DIV PUSH1 0xFF AND SWAP1 POP DUP6 JUMP JUMPDEST PUSH1 0x1 DUP2 DUP2 SLOAD DUP2 LT PUSH2 0x386 JUMPI PUSH0 DUP1 REVERT JUMPDEST SWAP1 PUSH0 MSTORE PUSH1 0x20 PUSH0 KECCAK256 ADD PUSH0 SWAP2 POP SLOAD SWAP1 PUSH2 0x100 EXP SWAP1 DIV PUSH20 0xFFFFFFFFFFFFFFFFFFFFFFFFFFFFFFFFFFFFFFFF AND DUP2 JUMP JUMPDEST PUSH1 0x3 PUSH0 CALLER PUSH20 0xFFFFFFFFFFFFFFFFFFFFFFFFFFFFFFFFFFFFFFFF AND PUSH20 0xFFFFFFFFFFFFFFFFFFFFFFFFFFFFFFFFFFFFFFFF AND DUP2 MSTORE PUSH1 0x20 ADD SWAP1 DUP2 MSTORE PUSH1 0x20 ADD PUSH0 KECCAK256 PUSH0 SWAP1 SLOAD SWAP1 PUSH2 0x100 EXP SWAP1 DIV PUSH1 0xFF AND ISZERO PUSH2 0x43C JUMPI PUSH1 0x40 MLOAD PUSH32 0x8C379A000000000000000000000000000000000000000000000000000000000 DUP2 MSTORE PUSH1 0x4 ADD PUSH2 0x433 SWAP1 PUSH2 0x1468 JUMP JUMPDEST PUSH1 0x40 MLOAD DUP1 SWAP2 SUB SWAP1 REVERT JUMPDEST PUSH1 0x2 CALLER SWAP1 DUP1 PUSH1 0x1 DUP2 SLOAD ADD DUP1 DUP3 SSTORE DUP1 SWAP2 POP POP PUSH1 0x1 SWAP1 SUB SWAP1 PUSH0 MSTORE PUSH1 0x20 PUSH0 KECCAK256 ADD PUSH0 SWAP1 SWAP2 SWAP1 SWAP2 SWAP1 SWAP2 PUSH2 0x100 EXP DUP2 SLOAD DUP2 PUSH20 0xFFFFFFFFFFFFFFFFFFFFFFFFFFFFFFFFFFFFFFFF MUL NOT AND SWAP1 DUP4 PUSH20 0xFFFFFFFFFFFFFFFFFFFFFFFFFFFFFFFFFFFFFFFF AND MUL OR SWAP1 SSTORE POP PUSH1 0x1 PUSH1 0x3 PUSH0 CALLER PUSH20 0xFFFFFFFFFFFFFFFFFFFFFFFFFFFFFFFFFFFFFFFF AND PUSH20 0xFFFFFFFFFFFFFFFFFFFFFFFFFFFFFFFFFFFFFFFF AND DUP2 MSTORE PUSH1 0x20 ADD SWAP1 DUP2 MSTORE PUSH1 0x20 ADD PUSH0 KECCAK256 PUSH0 PUSH2 0x100 EXP DUP2 SLOAD DUP2 PUSH1 0xFF MUL NOT AND SWAP1 DUP4 ISZERO ISZERO MUL OR SWAP1 SSTORE POP PUSH32 0xB7FCDD20D03D875D53EC5D179F2B54E90664B043A69CED790BB5F367B63BAFDA CALLER PUSH1 0x40 MLOAD PUSH2 0x520 SWAP2 SWAP1 PUSH2 0x1088 JUMP JUMPDEST PUSH1 0x40 MLOAD DUP1 SWAP2 SUB SWAP1 LOG1 JUMP JUMPDEST PUSH0 DUP1 SLOAD SWAP1 PUSH2 0x100 EXP SWAP1 DIV PUSH20 0xFFFFFFFFFFFFFFFFFFFFFFFFFFFFFFFFFFFFFFFF AND PUSH20 0xFFFFFFFFFFFFFFFFFFFFFFFFFFFFFFFFFFFFFFFF AND CALLER PUSH20 0xFFFFFFFFFFFFFFFFFFFFFFFFFFFFFFFFFFFFFFFF AND EQ PUSH2 0x5B7 JUMPI PUSH1 0x40 MLOAD PUSH32 0x8C379A000000000000000000000000000000000000000000000000000000000 DUP2 MSTORE PUSH1 0x4 ADD PUSH2 0x5AE SWAP1 PUSH2 0x14F6 JUMP JUMPDEST PUSH1 0x40 MLOAD DUP1 SWAP2 SUB SWAP1 REVERT JUMPDEST PUSH1 0x1 PUSH1 0x5 DUP1 SLOAD SWAP1 POP PUSH2 0x5C9 SWAP2 SWAP1 PUSH2 0x1541 JUMP JUMPDEST DUP2 LT PUSH2 0x60A JUMPI PUSH1 0x40 MLOAD PUSH32 0x8C379A000000000000000000000000000000000000000000000000000000000 DUP2 MSTORE PUSH1 0x4 ADD PUSH2 0x601 SWAP1 PUSH2 0x15BE JUMP JUMPDEST PUSH1 0x40 MLOAD DUP1 SWAP2 SUB SWAP1 REVERT JUMPDEST PUSH0 PUSH1 0x5 DUP3 DUP2 SLOAD DUP2 LT PUSH2 0x61F JUMPI PUSH2 0x61E PUSH2 0x15DC JUMP JUMPDEST JUMPDEST SWAP1 PUSH0 MSTORE PUSH1 0x20 PUSH0 KECCAK256 SWAP1 PUSH1 0x5 MUL ADD SWAP1 POP DUP1 PUSH1 0x4 ADD PUSH0 SWAP1 SLOAD SWAP1 PUSH2 0x100 EXP SWAP1 DIV PUSH1 0xFF AND ISZERO PUSH2 0x67E JUMPI PUSH1 0x40 MLOAD PUSH32 0x8C379A000000000000000000000000000000000000000000000000000000000 DUP2 MSTORE PUSH1 0x4 ADD PUSH2 0x675 SWAP1 PUSH2 0x1679 JUMP JUMPDEST PUSH1 0x40 MLOAD DUP1 SWAP2 SUB SWAP1 REVERT JUMPDEST DUP1 PUSH1 0x3 ADD SLOAD DUP2 PUSH1 0x2 ADD SLOAD GT ISZERO PUSH2 0x6EA JUMPI PUSH1 0x1 DUP2 PUSH1 0x4 ADD PUSH0 PUSH2 0x100 EXP DUP2 SLOAD DUP2 PUSH1 0xFF MUL NOT AND SWAP1 DUP4 ISZERO ISZERO MUL OR SWAP1 SSTORE POP PUSH32 0xF80DEAD99A18A848DCF7FA12502623FFF1AB42EAE8F5A5F1F905927E1DB1B85 DUP3 DUP3 PUSH0 ADD PUSH1 0x40 MLOAD PUSH2 0x6DD SWAP3 SWAP2 SWAP1 PUSH2 0x172A JUMP JUMPDEST PUSH1 0x40 MLOAD DUP1 SWAP2 SUB SWAP1 LOG1 PUSH2 0x726 JUMP JUMPDEST PUSH32 0xCD74DD1CEB9BAFB229618BA9F08A9F7D116DC8F1975F422A099B41C48035EF2 DUP3 DUP3 PUSH0 ADD PUSH1 0x40 MLOAD PUSH2 0x71D SWAP3 SWAP2 SWAP1 PUSH2 0x172A JUMP JUMPDEST PUSH1 0x40 MLOAD DUP1 SWAP2 SUB SWAP1 LOG1 JUMPDEST POP POP JUMP JUMPDEST PUSH1 0x3 PUSH0 DUP3 PUSH20 0xFFFFFFFFFFFFFFFFFFFFFFFFFFFFFFFFFFFFFFFF AND PUSH20 0xFFFFFFFFFFFFFFFFFFFFFFFFFFFFFFFFFFFFFFFF AND DUP2 MSTORE PUSH1 0x20 ADD SWAP1 DUP2 MSTORE PUSH1 0x20 ADD PUSH0 KECCAK256 PUSH0 SWAP1 SLOAD SWAP1 PUSH2 0x100 EXP SWAP1 DIV PUSH1 0xFF AND ISZERO PUSH1 0x3 PUSH0 DUP4 PUSH20 0xFFFFFFFFFFFFFFFFFFFFFFFFFFFFFFFFFFFFFFFF AND PUSH20 0xFFFFFFFFFFFFFFFFFFFFFFFFFFFFFFFFFFFFFFFF AND DUP2 MSTORE PUSH1 0x20 ADD SWAP1 DUP2 MSTORE PUSH1 0x20 ADD PUSH0 KECCAK256 PUSH0 PUSH2 0x100 EXP DUP2 SLOAD DUP2 PUSH1 0xFF MUL NOT AND SWAP1 DUP4 ISZERO ISZERO MUL OR SWAP1 SSTORE POP PUSH1 0x3 PUSH0 DUP3 PUSH20 0xFFFFFFFFFFFFFFFFFFFFFFFFFFFFFFFFFFFFFFFF AND PUSH20 0xFFFFFFFFFFFFFFFFFFFFFFFFFFFFFFFFFFFFFFFF AND DUP2 MSTORE PUSH1 0x20 ADD SWAP1 DUP2 MSTORE PUSH1 0x20 ADD PUSH0 KECCAK256 PUSH0 SWAP1 SLOAD SWAP1 PUSH2 0x100 EXP SWAP1 DIV PUSH1 0xFF AND ISZERO PUSH2 0x87C JUMPI PUSH1 0x2 DUP2 SWAP1 DUP1 PUSH1 0x1 DUP2 SLOAD ADD DUP1 DUP3 SSTORE DUP1 SWAP2 POP POP PUSH1 0x1 SWAP1 SUB SWAP1 PUSH0 MSTORE PUSH1 0x20 PUSH0 KECCAK256 ADD PUSH0 SWAP1 SWAP2 SWAP1 SWAP2 SWAP1 SWAP2 PUSH2 0x100 EXP DUP2 SLOAD DUP2 PUSH20 0xFFFFFFFFFFFFFFFFFFFFFFFFFFFFFFFFFFFFFFFF MUL NOT AND SWAP1 DUP4 PUSH20 0xFFFFFFFFFFFFFFFFFFFFFFFFFFFFFFFFFFFFFFFF AND MUL OR SWAP1 SSTORE POP PUSH2 0x87D JUMP JUMPDEST JUMPDEST POP JUMP JUMPDEST PUSH1 0x60 PUSH1 0x2 DUP1 SLOAD DUP1 PUSH1 0x20 MUL PUSH1 0x20 ADD PUSH1 0x40 MLOAD SWAP1 DUP2 ADD PUSH1 0x40 MSTORE DUP1 SWAP3 SWAP2 SWAP1 DUP2 DUP2 MSTORE PUSH1 0x20 ADD DUP3 DUP1 SLOAD DUP1 ISZERO PUSH2 0x901 JUMPI PUSH1 0x20 MUL DUP3 ADD SWAP2 SWAP1 PUSH0 MSTORE PUSH1 0x20 PUSH0 KECCAK256 SWAP1 JUMPDEST DUP2 PUSH0 SWAP1 SLOAD SWAP1 PUSH2 0x100 EXP SWAP1 DIV PUSH20 0xFFFFFFFFFFFFFFFFFFFFFFFFFFFFFFFFFFFFFFFF AND PUSH20 0xFFFFFFFFFFFFFFFFFFFFFFFFFFFFFFFFFFFFFFFF AND DUP2 MSTORE PUSH1 0x20 ADD SWAP1 PUSH1 0x1 ADD SWAP1 DUP1 DUP4 GT PUSH2 0x8B8 JUMPI JUMPDEST POP POP POP POP POP SWAP1 POP SWAP1 JUMP JUMPDEST PUSH1 0x3 PUSH1 0x20 MSTORE DUP1 PUSH0 MSTORE PUSH1 0x40 PUSH0 KECCAK256 PUSH0 SWAP2 POP SLOAD SWAP1 PUSH2 0x100 EXP SWAP1 DIV PUSH1 0xFF AND DUP2 JUMP JUMPDEST PUSH1 0x2 DUP2 DUP2 SLOAD DUP2 LT PUSH2 0x937 JUMPI PUSH0 DUP1 REVERT JUMPDEST SWAP1 PUSH0 MSTORE PUSH1 0x20 PUSH0 KECCAK256 ADD PUSH0 SWAP2 POP SLOAD SWAP1 PUSH2 0x100 EXP SWAP1 DIV PUSH20 0xFFFFFFFFFFFFFFFFFFFFFFFFFFFFFFFFFFFFFFFF AND DUP2 JUMP JUMPDEST PUSH1 0x3 PUSH0 CALLER PUSH20 0xFFFFFFFFFFFFFFFFFFFFFFFFFFFFFFFFFFFFFFFF AND PUSH20 0xFFFFFFFFFFFFFFFFFFFFFFFFFFFFFFFFFFFFFFFF AND DUP2 MSTORE PUSH1 0x20 ADD SWAP1 DUP2 MSTORE PUSH1 0x20 ADD PUSH0 KECCAK256 PUSH0 SWAP1 SLOAD SWAP1 PUSH2 0x100 EXP SWAP1 DIV PUSH1 0xFF AND PUSH2 0x9EC JUMPI PUSH1 0x40 MLOAD PUSH32 0x8C379A000000000000000000000000000000000000000000000000000000000 DUP2 MSTORE PUSH1 0x4 ADD PUSH2 0x9E3 SWAP1 PUSH2 0x17A2 JUMP JUMPDEST PUSH1 0x40 MLOAD DUP1 SWAP2 SUB SWAP1 REVERT JUMPDEST PUSH1 0x5 PUSH1 0x40 MLOAD DUP1 PUSH1 0xA0 ADD PUSH1 0x40 MSTORE DUP1 DUP4 DUP2 MSTORE PUSH1 0x20 ADD CALLER PUSH20 0xFFFFFFFFFFFFFFFFFFFFFFFFFFFFFFFFFFFFFFFF AND DUP2 MSTORE PUSH1 0x20 ADD PUSH0 DUP2 MSTORE PUSH1 0x20 ADD PUSH0 DUP2 MSTORE PUSH1 0x20 ADD PUSH0 ISZERO ISZERO DUP2 MSTORE POP SWAP1 DUP1 PUSH1 0x1 DUP2 SLOAD ADD DUP1 DUP3 SSTORE DUP1 SWAP2 POP POP PUSH1 0x1 SWAP1 SUB SWAP1 PUSH0 MSTORE PUSH1 0x20 PUSH0 KECCAK256 SWAP1 PUSH1 0x5 MUL ADD PUSH0 SWAP1 SWAP2 SWAP1 SWAP2 SWAP1 SWAP2 POP PUSH0 DUP3 ADD MLOAD DUP2 PUSH0 ADD SWAP1 DUP2 PUSH2 0xA66 SWAP2 SWAP1 PUSH2 0x194B JUMP JUMPDEST POP PUSH1 0x20 DUP3 ADD MLOAD DUP2 PUSH1 0x1 ADD PUSH0 PUSH2 0x100 EXP DUP2 SLOAD DUP2 PUSH20 0xFFFFFFFFFFFFFFFFFFFFFFFFFFFFFFFFFFFFFFFF MUL NOT AND SWAP1 DUP4 PUSH20 0xFFFFFFFFFFFFFFFFFFFFFFFFFFFFFFFFFFFFFFFF AND MUL OR SWAP1 SSTORE POP PUSH1 0x40 DUP3 ADD MLOAD DUP2 PUSH1 0x2 ADD SSTORE PUSH1 0x60 DUP3 ADD MLOAD DUP2 PUSH1 0x3 ADD SSTORE PUSH1 0x80 DUP3 ADD MLOAD DUP2 PUSH1 0x4 ADD PUSH0 PUSH2 0x100 EXP DUP2 SLOAD DUP2 PUSH1 0xFF MUL NOT AND SWAP1 DUP4 ISZERO ISZERO MUL OR SWAP1 SSTORE POP POP POP PUSH32 0xA9EF596C73FBCFB4A78BC139B1A19C35247C1F37D2489C0513AD2DD3EB7D8C6B PUSH1 0x1 PUSH1 0x5 DUP1 SLOAD SWAP1 POP PUSH2 0xB15 SWAP2 SWAP1 PUSH2 0x1541 JUMP JUMPDEST DUP3 PUSH1 0x40 MLOAD PUSH2 0xB24 SWAP3 SWAP2 SWAP1 PUSH2 0x1A1A JUMP JUMPDEST PUSH1 0x40 MLOAD DUP1 SWAP2 SUB SWAP1 LOG1 POP JUMP JUMPDEST PUSH1 0x4 PUSH0 CALLER PUSH20 0xFFFFFFFFFFFFFFFFFFFFFFFFFFFFFFFFFFFFFFFF AND PUSH20 0xFFFFFFFFFFFFFFFFFFFFFFFFFFFFFFFFFFFFFFFF AND DUP2 MSTORE PUSH1 0x20 ADD SWAP1 DUP2 MSTORE PUSH1 0x20 ADD PUSH0 KECCAK256 PUSH0 SWAP1 SLOAD SWAP1 PUSH2 0x100 EXP SWAP1 DIV PUSH1 0xFF AND ISZERO PUSH2 0xBB9 JUMPI PUSH1 0x40 MLOAD PUSH32 0x8C379A000000000000000000000000000000000000000000000000000000000 DUP2 MSTORE PUSH1 0x4 ADD PUSH2 0xBB0 SWAP1 PUSH2 0x1A92 JUMP JUMPDEST PUSH1 0x40 MLOAD DUP1 SWAP2 SUB SWAP1 REVERT JUMPDEST PUSH1 0x1 PUSH1 0x5 DUP1 SLOAD SWAP1 POP PUSH2 0xBCB SWAP2 SWAP1 PUSH2 0x1541 JUMP JUMPDEST DUP3 LT PUSH2 0xC0C JUMPI PUSH1 0x40 MLOAD PUSH32 0x8C379A000000000000000000000000000000000000000000000000000000000 DUP2 MSTORE PUSH1 0x4 ADD PUSH2 0xC03 SWAP1 PUSH2 0x1AFA JUMP JUMPDEST PUSH1 0x40 MLOAD DUP1 SWAP2 SUB SWAP1 REVERT JUMPDEST PUSH0 PUSH1 0x5 DUP4 DUP2 SLOAD DUP2 LT PUSH2 0xC21 JUMPI PUSH2 0xC20 PUSH2 0x15DC JUMP JUMPDEST JUMPDEST SWAP1 PUSH0 MSTORE PUSH1 0x20 PUSH0 KECCAK256 SWAP1 PUSH1 0x5 MUL ADD SWAP1 POP DUP2 ISZERO PUSH2 0xC55 JUMPI PUSH1 0x1 DUP2 PUSH1 0x2 ADD PUSH0 DUP3 DUP3 SLOAD PUSH2 0xC49 SWAP2 SWAP1 PUSH2 0x1B18 JUMP JUMPDEST SWAP3 POP POP DUP2 SWAP1 SSTORE POP PUSH2 0xC71 JUMP JUMPDEST PUSH1 0x1 DUP2 PUSH1 0x3 ADD PUSH0 DUP3 DUP3 SLOAD PUSH2 0xC69 SWAP2 SWAP1 PUSH2 0x1541 JUMP JUMPDEST SWAP3 POP POP DUP2 SWAP1 SSTORE POP JUMPDEST PUSH1 0x1 PUSH1 0x4 PUSH0 CALLER PUSH20 0xFFFFFFFFFFFFFFFFFFFFFFFFFFFFFFFFFFFFFFFF AND PUSH20 0xFFFFFFFFFFFFFFFFFFFFFFFFFFFFFFFFFFFFFFFF AND DUP2 MSTORE PUSH1 0x20 ADD SWAP1 DUP2 MSTORE PUSH1 0x20 ADD PUSH0 KECCAK256 PUSH0 PUSH2 0x100 EXP DUP2 SLOAD DUP2 PUSH1 0xFF MUL NOT AND SWAP1 DUP4 ISZERO ISZERO MUL OR SWAP1 SSTORE POP PUSH32 0x98B03F1463128A74CC9DD4ACC43B54EF12AC07DAACBCD621D2E4266091B7024A DUP4 DUP4 PUSH1 0x40 MLOAD PUSH2 0xCF7 SWAP3 SWAP2 SWAP1 PUSH2 0x1B4B JUMP JUMPDEST PUSH1 0x40 MLOAD DUP1 SWAP2 SUB SWAP1 LOG1 POP POP POP JUMP JUMPDEST PUSH1 0x4 PUSH1 0x20 MSTORE DUP1 PUSH0 MSTORE PUSH1 0x40 PUSH0 KECCAK256 PUSH0 SWAP2 POP SLOAD SWAP1 PUSH2 0x100 EXP SWAP1 DIV PUSH1 0xFF AND DUP2 JUMP JUMPDEST PUSH1 0x3 PUSH0 CALLER PUSH20 0xFFFFFFFFFFFFFFFFFFFFFFFFFFFFFFFFFFFFFFFF AND PUSH20 0xFFFFFFFFFFFFFFFFFFFFFFFFFFFFFFFFFFFFFFFF AND DUP2 MSTORE PUSH1 0x20 ADD SWAP1 DUP2 MSTORE PUSH1 0x20 ADD PUSH0 KECCAK256 PUSH0 SWAP1 SLOAD SWAP1 PUSH2 0x100 EXP SWAP1 DIV PUSH1 0xFF AND ISZERO PUSH2 0xDAB JUMPI PUSH1 0x40 MLOAD PUSH32 0x8C379A000000000000000000000000000000000000000000000000000000000 DUP2 MSTORE PUSH1 0x4 ADD PUSH2 0xDA2 SWAP1 PUSH2 0x1BE2 JUMP JUMPDEST PUSH1 0x40 MLOAD DUP1 SWAP2 SUB SWAP1 REVERT JUMPDEST PUSH1 0x1 CALLER SWAP1 DUP1 PUSH1 0x1 DUP2 SLOAD ADD DUP1 DUP3 SSTORE DUP1 SWAP2 POP POP PUSH1 0x1 SWAP1 SUB SWAP1 PUSH0 MSTORE PUSH1 0x20 PUSH0 KECCAK256 ADD PUSH0 SWAP1 SWAP2 SWAP1 SWAP2 SWAP1 SWAP2 PUSH2 0x100 EXP DUP2 SLOAD DUP2 PUSH20 0xFFFFFFFFFFFFFFFFFFFFFFFFFFFFFFFFFFFFFFFF MUL NOT AND SWAP1 DUP4 PUSH20 0xFFFFFFFFFFFFFFFFFFFFFFFFFFFFFFFFFFFFFFFF AND MUL OR SWAP1 SSTORE POP PUSH32 0xB02C854262A0F639ED4A5B8DEC912BB096E42F257CFD84B990C63F5F074774E0 CALLER PUSH1 0x40 MLOAD PUSH2 0xE3A SWAP2 SWAP1 PUSH2 0x1088 JUMP JUMPDEST PUSH1 0x40 MLOAD DUP1 SWAP2 SUB SWAP1 LOG1 JUMP JUMPDEST PUSH1 0x60 PUSH1 0x1 DUP1 SLOAD DUP1 PUSH1 0x20 MUL PUSH1 0x20 ADD PUSH1 0x40 MLOAD SWAP1 DUP2 ADD PUSH1 0x40 MSTORE DUP1 SWAP3 SWAP2 SWAP1 DUP2 DUP2 MSTORE PUSH1 0x20 ADD DUP3 DUP1 SLOAD DUP1 ISZERO PUSH2 0xEC5 JUMPI PUSH1 0x20 MUL DUP3 ADD SWAP2 SWAP1 PUSH0 MSTORE PUSH1 0x20 PUSH0 KECCAK256 SWAP1 JUMPDEST DUP2 PUSH0 SWAP1 SLOAD SWAP1 PUSH2 0x100 EXP SWAP1 DIV PUSH20 0xFFFFFFFFFFFFFFFFFFFFFFFFFFFFFFFFFFFFFFFF AND PUSH20 0xFFFFFFFFFFFFFFFFFFFFFFFFFFFFFFFFFFFFFFFF AND DUP2 MSTORE PUSH1 0x20 ADD SWAP1 PUSH1 0x1 ADD SWAP1 DUP1 DUP4 GT PUSH2 0xE7C JUMPI JUMPDEST POP POP POP POP POP SWAP1 POP SWAP1 JUMP JUMPDEST PUSH0 PUSH1 0x40 MLOAD SWAP1 POP SWAP1 JUMP JUMPDEST PUSH0 DUP1 REVERT JUMPDEST PUSH0 DUP1 REVERT JUMPDEST PUSH0 DUP2 SWAP1 POP SWAP2 SWAP1 POP JUMP JUMPDEST PUSH2 0xEF2 DUP2 PUSH2 0xEE0 JUMP JUMPDEST DUP2 EQ PUSH2 0xEFC JUMPI PUSH0 DUP1 REVERT JUMPDEST POP JUMP JUMPDEST PUSH0 DUP2 CALLDATALOAD SWAP1 POP PUSH2 0xF0D DUP2 PUSH2 0xEE9 JUMP JUMPDEST SWAP3 SWAP2 POP POP JUMP JUMPDEST PUSH0 PUSH1 0x20 DUP3 DUP5 SUB SLT ISZERO PUSH2 0xF28 JUMPI PUSH2 0xF27 PUSH2 0xED8 JUMP JUMPDEST JUMPDEST PUSH0 PUSH2 0xF35 DUP5 DUP3 DUP6 ADD PUSH2 0xEFF JUMP JUMPDEST SWAP2 POP POP SWAP3 SWAP2 POP POP JUMP JUMPDEST PUSH0 DUP2 MLOAD SWAP1 POP SWAP2 SWAP1 POP JUMP JUMPDEST PUSH0 DUP3 DUP3 MSTORE PUSH1 0x20 DUP3 ADD SWAP1 POP SWAP3 SWAP2 POP POP JUMP JUMPDEST PUSH0 JUMPDEST DUP4 DUP2 LT ISZERO PUSH2 0xF75 JUMPI DUP1 DUP3 ADD MLOAD DUP2 DUP5 ADD MSTORE PUSH1 0x20 DUP2 ADD SWAP1 POP PUSH2 0xF5A JUMP JUMPDEST PUSH0 DUP5 DUP5 ADD MSTORE POP POP POP POP JUMP JUMPDEST PUSH0 PUSH1 0x1F NOT PUSH1 0x1F DUP4 ADD AND SWAP1 POP SWAP2 SWAP1 POP JUMP JUMPDEST PUSH0 PUSH2 0xF9A DUP3 PUSH2 0xF3E JUMP JUMPDEST PUSH2 0xFA4 DUP2 DUP6 PUSH2 0xF48 JUMP JUMPDEST SWAP4 POP PUSH2 0xFB4 DUP2 DUP6 PUSH1 0x20 DUP7 ADD PUSH2 0xF58 JUMP JUMPDEST PUSH2 0xFBD DUP2 PUSH2 0xF80 JUMP JUMPDEST DUP5 ADD SWAP2 POP POP SWAP3 SWAP2 POP POP JUMP JUMPDEST PUSH0 PUSH20 0xFFFFFFFFFFFFFFFFFFFFFFFFFFFFFFFFFFFFFFFF DUP3 AND SWAP1 POP SWAP2 SWAP1 POP JUMP JUMPDEST PUSH0 PUSH2 0xFF1 DUP3 PUSH2 0xFC8 JUMP JUMPDEST SWAP1 POP SWAP2 SWAP1 POP JUMP JUMPDEST PUSH2 0x1001 DUP2 PUSH2 0xFE7 JUMP JUMPDEST DUP3 MSTORE POP POP JUMP JUMPDEST PUSH2 0x1010 DUP2 PUSH2 0xEE0 JUMP JUMPDEST DUP3 MSTORE POP POP JUMP JUMPDEST PUSH0 DUP2 ISZERO ISZERO SWAP1 POP SWAP2 SWAP1 POP JUMP JUMPDEST PUSH2 0x102A DUP2 PUSH2 0x1016 JUMP JUMPDEST DUP3 MSTORE POP POP JUMP JUMPDEST PUSH0 PUSH1 0xA0 DUP3 ADD SWAP1 POP DUP2 DUP2 SUB PUSH0 DUP4 ADD MSTORE PUSH2 0x1048 DUP2 DUP9 PUSH2 0xF90 JUMP JUMPDEST SWAP1 POP PUSH2 0x1057 PUSH1 0x20 DUP4 ADD DUP8 PUSH2 0xFF8 JUMP JUMPDEST PUSH2 0x1064 PUSH1 0x40 DUP4 ADD DUP7 PUSH2 0x1007 JUMP JUMPDEST PUSH2 0x1071 PUSH1 0x60 DUP4 ADD DUP6 PUSH2 0x1007 JUMP JUMPDEST PUSH2 0x107E PUSH1 0x80 DUP4 ADD DUP5 PUSH2 0x1021 JUMP JUMPDEST SWAP7 SWAP6 POP POP POP POP POP POP JUMP JUMPDEST PUSH0 PUSH1 0x20 DUP3 ADD SWAP1 POP PUSH2 0x109B PUSH0 DUP4 ADD DUP5 PUSH2 0xFF8 JUMP JUMPDEST SWAP3 SWAP2 POP POP JUMP JUMPDEST PUSH2 0x10AA DUP2 PUSH2 0xFE7 JUMP JUMPDEST DUP2 EQ PUSH2 0x10B4 JUMPI PUSH0 DUP1 REVERT JUMPDEST POP JUMP JUMPDEST PUSH0 DUP2 CALLDATALOAD SWAP1 POP PUSH2 0x10C5 DUP2 PUSH2 0x10A1 JUMP JUMPDEST SWAP3 SWAP2 POP POP JUMP JUMPDEST PUSH0 PUSH1 0x20 DUP3 DUP5 SUB SLT ISZERO PUSH2 0x10E0 JUMPI PUSH2 0x10DF PUSH2 0xED8 JUMP JUMPDEST JUMPDEST PUSH0 PUSH2 0x10ED DUP5 DUP3 DUP6 ADD PUSH2 0x10B7 JUMP JUMPDEST SWAP2 POP POP SWAP3 SWAP2 POP POP JUMP JUMPDEST PUSH0 DUP2 MLOAD SWAP1 POP SWAP2 SWAP1 POP JUMP JUMPDEST PUSH0 DUP3 DUP3 MSTORE PUSH1 0x20 DUP3 ADD SWAP1 POP SWAP3 SWAP2 POP POP JUMP JUMPDEST PUSH0 DUP2 SWAP1 POP PUSH1 0x20 DUP3 ADD SWAP1 POP SWAP2 SWAP1 POP JUMP JUMPDEST PUSH2 0x1128 DUP2 PUSH2 0xFE7 JUMP JUMPDEST DUP3 MSTORE POP POP JUMP JUMPDEST PUSH0 PUSH2 0x1139 DUP4 DUP4 PUSH2 0x111F JUMP JUMPDEST PUSH1 0x20 DUP4 ADD SWAP1 POP SWAP3 SWAP2 POP POP JUMP JUMPDEST PUSH0 PUSH1 0x20 DUP3 ADD SWAP1 POP SWAP2 SWAP1 POP JUMP JUMPDEST PUSH0 PUSH2 0x115B DUP3 PUSH2 0x10F6 JUMP JUMPDEST PUSH2 0x1165 DUP2 DUP6 PUSH2 0x1100 JUMP JUMPDEST SWAP4 POP PUSH2 0x1170 DUP4 PUSH2 0x1110 JUMP JUMPDEST DUP1 PUSH0 JUMPDEST DUP4 DUP2 LT ISZERO PUSH2 0x11A0 JUMPI DUP2 MLOAD PUSH2 0x1187 DUP9 DUP3 PUSH2 0x112E JUMP JUMPDEST SWAP8 POP PUSH2 0x1192 DUP4 PUSH2 0x1145 JUMP JUMPDEST SWAP3 POP POP PUSH1 0x1 DUP2 ADD SWAP1 POP PUSH2 0x1173 JUMP JUMPDEST POP DUP6 SWAP4 POP POP POP POP SWAP3 SWAP2 POP POP JUMP JUMPDEST PUSH0 PUSH1 0x20 DUP3 ADD SWAP1 POP DUP2 DUP2 SUB PUSH0 DUP4 ADD MSTORE PUSH2 0x11C5 DUP2 DUP5 PUSH2 0x1151 JUMP JUMPDEST SWAP1 POP SWAP3 SWAP2 POP POP JUMP JUMPDEST PUSH0 PUSH1 0x20 DUP3 ADD SWAP1 POP PUSH2 0x11E0 PUSH0 DUP4 ADD DUP5 PUSH2 0x1021 JUMP JUMPDEST SWAP3 SWAP2 POP POP JUMP JUMPDEST PUSH0 DUP1 REVERT JUMPDEST PUSH0 DUP1 REVERT JUMPDEST PUSH32 0x4E487B7100000000000000000000000000000000000000000000000000000000 PUSH0 MSTORE PUSH1 0x41 PUSH1 0x4 MSTORE PUSH1 0x24 PUSH0 REVERT JUMPDEST PUSH2 0x1224 DUP3 PUSH2 0xF80 JUMP JUMPDEST DUP2 ADD DUP2 DUP2 LT PUSH8 0xFFFFFFFFFFFFFFFF DUP3 GT OR ISZERO PUSH2 0x1243 JUMPI PUSH2 0x1242 PUSH2 0x11EE JUMP JUMPDEST JUMPDEST DUP1 PUSH1 0x40 MSTORE POP POP POP JUMP JUMPDEST PUSH0 PUSH2 0x1255 PUSH2 0xECF JUMP JUMPDEST SWAP1 POP PUSH2 0x1261 DUP3 DUP3 PUSH2 0x121B JUMP JUMPDEST SWAP2 SWAP1 POP JUMP JUMPDEST PUSH0 PUSH8 0xFFFFFFFFFFFFFFFF DUP3 GT ISZERO PUSH2 0x1280 JUMPI PUSH2 0x127F PUSH2 0x11EE JUMP JUMPDEST JUMPDEST PUSH2 0x1289 DUP3 PUSH2 0xF80 JUMP JUMPDEST SWAP1 POP PUSH1 0x20 DUP2 ADD SWAP1 POP SWAP2 SWAP1 POP JUMP JUMPDEST DUP3 DUP2 DUP4 CALLDATACOPY PUSH0 DUP4 DUP4 ADD MSTORE POP POP POP JUMP JUMPDEST PUSH0 PUSH2 0x12B6 PUSH2 0x12B1 DUP5 PUSH2 0x1266 JUMP JUMPDEST PUSH2 0x124C JUMP JUMPDEST SWAP1 POP DUP3 DUP2 MSTORE PUSH1 0x20 DUP2 ADD DUP5 DUP5 DUP5 ADD GT ISZERO PUSH2 0x12D2 JUMPI PUSH2 0x12D1 PUSH2 0x11EA JUMP JUMPDEST JUMPDEST PUSH2 0x12DD DUP5 DUP3 DUP6 PUSH2 0x1296 JUMP JUMPDEST POP SWAP4 SWAP3 POP POP POP JUMP JUMPDEST PUSH0 DUP3 PUSH1 0x1F DUP4 ADD SLT PUSH2 0x12F9 JUMPI PUSH2 0x12F8 PUSH2 0x11E6 JUMP JUMPDEST JUMPDEST DUP2 CALLDATALOAD PUSH2 0x1309 DUP5 DUP3 PUSH1 0x20 DUP7 ADD PUSH2 0x12A4 JUMP JUMPDEST SWAP2 POP POP SWAP3 SWAP2 POP POP JUMP JUMPDEST PUSH0 PUSH1 0x20 DUP3 DUP5 SUB SLT ISZERO PUSH2 0x1327 JUMPI PUSH2 0x1326 PUSH2 0xED8 JUMP JUMPDEST JUMPDEST PUSH0 DUP3 ADD CALLDATALOAD PUSH8 0xFFFFFFFFFFFFFFFF DUP2 GT ISZERO PUSH2 0x1344 JUMPI PUSH2 0x1343 PUSH2 0xEDC JUMP JUMPDEST JUMPDEST PUSH2 0x1350 DUP5 DUP3 DUP6 ADD PUSH2 0x12E5 JUMP JUMPDEST SWAP2 POP POP SWAP3 SWAP2 POP POP JUMP JUMPDEST PUSH2 0x1362 DUP2 PUSH2 0x1016 JUMP JUMPDEST DUP2 EQ PUSH2 0x136C JUMPI PUSH0 DUP1 REVERT JUMPDEST POP JUMP JUMPDEST PUSH0 DUP2 CALLDATALOAD SWAP1 POP PUSH2 0x137D DUP2 PUSH2 0x1359 JUMP JUMPDEST SWAP3 SWAP2 POP POP JUMP JUMPDEST PUSH0 DUP1 PUSH1 0x40 DUP4 DUP6 SUB SLT ISZERO PUSH2 0x1399 JUMPI PUSH2 0x1398 PUSH2 0xED8 JUMP JUMPDEST JUMPDEST PUSH0 PUSH2 0x13A6 DUP6 DUP3 DUP7 ADD PUSH2 0xEFF JUMP JUMPDEST SWAP3 POP POP PUSH1 0x20 PUSH2 0x13B7 DUP6 DUP3 DUP7 ADD PUSH2 0x136F JUMP JUMPDEST SWAP2 POP POP SWAP3 POP SWAP3 SWAP1 POP JUMP JUMPDEST PUSH32 0x4E487B7100000000000000000000000000000000000000000000000000000000 PUSH0 MSTORE PUSH1 0x22 PUSH1 0x4 MSTORE PUSH1 0x24 PUSH0 REVERT JUMPDEST PUSH0 PUSH1 0x2 DUP3 DIV SWAP1 POP PUSH1 0x1 DUP3 AND DUP1 PUSH2 0x1405 JUMPI PUSH1 0x7F DUP3 AND SWAP2 POP JUMPDEST PUSH1 0x20 DUP3 LT DUP2 SUB PUSH2 0x1418 JUMPI PUSH2 0x1417 PUSH2 0x13C1 JUMP JUMPDEST JUMPDEST POP SWAP2 SWAP1 POP JUMP JUMPDEST PUSH32 0x416C72656164792072656769737465726564206173206F6666696369616C2E00 PUSH0 DUP3 ADD MSTORE POP JUMP JUMPDEST PUSH0 PUSH2 0x1452 PUSH1 0x1F DUP4 PUSH2 0xF48 JUMP JUMPDEST SWAP2 POP PUSH2 0x145D DUP3 PUSH2 0x141E JUMP JUMPDEST PUSH1 0x20 DUP3 ADD SWAP1 POP SWAP2 SWAP1 POP JUMP JUMPDEST PUSH0 PUSH1 0x20 DUP3 ADD SWAP1 POP DUP2 DUP2 SUB PUSH0 DUP4 ADD MSTORE PUSH2 0x147F DUP2 PUSH2 0x1446 JUMP JUMPDEST SWAP1 POP SWAP2 SWAP1 POP JUMP JUMPDEST PUSH32 0x4F6E6C7920636F6E7472616374206F776E65722063616E20706572666F726D20 PUSH0 DUP3 ADD MSTORE PUSH32 0x7468697320616374696F6E2E0000000000000000000000000000000000000000 PUSH1 0x20 DUP3 ADD MSTORE POP JUMP JUMPDEST PUSH0 PUSH2 0x14E0 PUSH1 0x2C DUP4 PUSH2 0xF48 JUMP JUMPDEST SWAP2 POP PUSH2 0x14EB DUP3 PUSH2 0x1486 JUMP JUMPDEST PUSH1 0x40 DUP3 ADD SWAP1 POP SWAP2 SWAP1 POP JUMP JUMPDEST PUSH0 PUSH1 0x20 DUP3 ADD SWAP1 POP DUP2 DUP2 SUB PUSH0 DUP4 ADD MSTORE PUSH2 0x150D DUP2 PUSH2 0x14D4 JUMP JUMPDEST SWAP1 POP SWAP2 SWAP1 POP JUMP JUMPDEST PUSH32 0x4E487B7100000000000000000000000000000000000000000000000000000000 PUSH0 MSTORE PUSH1 0x11 PUSH1 0x4 MSTORE PUSH1 0x24 PUSH0 REVERT JUMPDEST PUSH0 PUSH2 0x154B DUP3 PUSH2 0xEE0 JUMP JUMPDEST SWAP2 POP PUSH2 0x1556 DUP4 PUSH2 0xEE0 JUMP JUMPDEST SWAP3 POP DUP3 DUP3 SUB SWAP1 POP DUP2 DUP2 GT ISZERO PUSH2 0x156E JUMPI PUSH2 0x156D PUSH2 0x1514 JUMP JUMPDEST JUMPDEST SWAP3 SWAP2 POP POP JUMP JUMPDEST PUSH32 0x496E76616C69642070726F706F73616C2049642E000000000000000000000000 PUSH0 DUP3 ADD MSTORE POP JUMP JUMPDEST PUSH0 PUSH2 0x15A8 PUSH1 0x14 DUP4 PUSH2 0xF48 JUMP JUMPDEST SWAP2 POP PUSH2 0x15B3 DUP3 PUSH2 0x1574 JUMP JUMPDEST PUSH1 0x20 DUP3 ADD SWAP1 POP SWAP2 SWAP1 POP JUMP JUMPDEST PUSH0 PUSH1 0x20 DUP3 ADD SWAP1 POP DUP2 DUP2 SUB PUSH0 DUP4 ADD MSTORE PUSH2 0x15D5 DUP2 PUSH2 0x159C JUMP JUMPDEST SWAP1 POP SWAP2 SWAP1 POP JUMP JUMPDEST PUSH32 0x4E487B7100000000000000000000000000000000000000000000000000000000 PUSH0 MSTORE PUSH1 0x32 PUSH1 0x4 MSTORE PUSH1 0x24 PUSH0 REVERT JUMPDEST PUSH32 0x50726F706F73616C20616C726561647920656E6163746564206F722072656A65 PUSH0 DUP3 ADD MSTORE PUSH32 0x637465642E000000000000000000000000000000000000000000000000000000 PUSH1 0x20 DUP3 ADD MSTORE POP JUMP JUMPDEST PUSH0 PUSH2 0x1663 PUSH1 0x25 DUP4 PUSH2 0xF48 JUMP JUMPDEST SWAP2 POP PUSH2 0x166E DUP3 PUSH2 0x1609 JUMP JUMPDEST PUSH1 0x40 DUP3 ADD SWAP1 POP SWAP2 SWAP1 POP JUMP JUMPDEST PUSH0 PUSH1 0x20 DUP3 ADD SWAP1 POP DUP2 DUP2 SUB PUSH0 DUP4 ADD MSTORE PUSH2 0x1690 DUP2 PUSH2 0x1657 JUMP JUMPDEST SWAP1 POP SWAP2 SWAP1 POP JUMP JUMPDEST PUSH0 DUP2 SWAP1 POP DUP2 PUSH0 MSTORE PUSH1 0x20 PUSH0 KECCAK256 SWAP1 POP SWAP2 SWAP1 POP JUMP JUMPDEST PUSH0 DUP2 SLOAD PUSH2 0x16B5 DUP2 PUSH2 0x13EE JUMP JUMPDEST PUSH2 0x16BF DUP2 DUP7 PUSH2 0xF48 JUMP JUMPDEST SWAP5 POP PUSH1 0x1 DUP3 AND PUSH0 DUP2 EQ PUSH2 0x16D9 JUMPI PUSH1 0x1 DUP2 EQ PUSH2 0x16EF JUMPI PUSH2 0x1721 JUMP JUMPDEST PUSH1 0xFF NOT DUP4 AND DUP7 MSTORE DUP2 ISZERO ISZERO PUSH1 0x20 MUL DUP7 ADD SWAP4 POP PUSH2 0x1721 JUMP JUMPDEST PUSH2 0x16F8 DUP6 PUSH2 0x1697 JUMP JUMPDEST PUSH0 JUMPDEST DUP4 DUP2 LT ISZERO PUSH2 0x1719 JUMPI DUP2 SLOAD DUP2 DUP10 ADD MSTORE PUSH1 0x1 DUP3 ADD SWAP2 POP PUSH1 0x20 DUP2 ADD SWAP1 POP PUSH2 0x16FA JUMP JUMPDEST DUP1 DUP9 ADD SWAP6 POP POP POP JUMPDEST POP POP POP SWAP3 SWAP2 POP POP JUMP JUMPDEST PUSH0 PUSH1 0x40 DUP3 ADD SWAP1 POP PUSH2 0x173D PUSH0 DUP4 ADD DUP6 PUSH2 0x1007 JUMP JUMPDEST DUP2 DUP2 SUB PUSH1 0x20 DUP4 ADD MSTORE PUSH2 0x174F DUP2 DUP5 PUSH2 0x16A9 JUMP JUMPDEST SWAP1 POP SWAP4 SWAP3 POP POP POP JUMP JUMPDEST PUSH32 0x4F6E6C79206F776E65722063616E2070726F706F73652061206C61772E000000 PUSH0 DUP3 ADD MSTORE POP JUMP JUMPDEST PUSH0 PUSH2 0x178C PUSH1 0x1D DUP4 PUSH2 0xF48 JUMP JUMPDEST SWAP2 POP PUSH2 0x1797 DUP3 PUSH2 0x1758 JUMP JUMPDEST PUSH1 0x20 DUP3 ADD SWAP1 POP SWAP2 SWAP1 POP JUMP JUMPDEST PUSH0 PUSH1 0x20 DUP3 ADD SWAP1 POP DUP2 DUP2 SUB PUSH0 DUP4 ADD MSTORE PUSH2 0x17B9 DUP2 PUSH2 0x1780 JUMP JUMPDEST SWAP1 POP SWAP2 SWAP1 POP JUMP JUMPDEST PUSH0 PUSH1 0x20 PUSH1 0x1F DUP4 ADD DIV SWAP1 POP SWAP2 SWAP1 POP JUMP JUMPDEST PUSH0 DUP3 DUP3 SHL SWAP1 POP SWAP3 SWAP2 POP POP JUMP JUMPDEST PUSH0 PUSH1 0x8 DUP4 MUL PUSH2 0x180A PUSH32 0xFFFFFFFFFFFFFFFFFFFFFFFFFFFFFFFFFFFFFFFFFFFFFFFFFFFFFFFFFFFFFFFF DUP3 PUSH2 0x17CF JUMP JUMPDEST PUSH2 0x1814 DUP7 DUP4 PUSH2 0x17CF JUMP JUMPDEST SWAP6 POP DUP1 NOT DUP5 AND SWAP4 POP DUP1 DUP7 AND DUP5 OR SWAP3 POP POP POP SWAP4 SWAP3 POP POP POP JUMP JUMPDEST PUSH0 DUP2 SWAP1 POP SWAP2 SWAP1 POP JUMP JUMPDEST PUSH0 PUSH2 0x184F PUSH2 0x184A PUSH2 0x1845 DUP5 PUSH2 0xEE0 JUMP JUMPDEST PUSH2 0x182C JUMP JUMPDEST PUSH2 0xEE0 JUMP JUMPDEST SWAP1 POP SWAP2 SWAP1 POP JUMP JUMPDEST PUSH0 DUP2 SWAP1 POP SWAP2 SWAP1 POP JUMP JUMPDEST PUSH2 0x1868 DUP4 PUSH2 0x1835 JUMP JUMPDEST PUSH2 0x187C PUSH2 0x1874 DUP3 PUSH2 0x1856 JUMP JUMPDEST DUP5 DUP5 SLOAD PUSH2 0x17DB JUMP JUMPDEST DUP3 SSTORE POP POP POP POP JUMP JUMPDEST PUSH0 SWAP1 JUMP JUMPDEST PUSH2 0x1890 PUSH2 0x1884 JUMP JUMPDEST PUSH2 0x189B DUP2 DUP5 DUP5 PUSH2 0x185F JUMP JUMPDEST POP POP POP JUMP JUMPDEST JUMPDEST DUP2 DUP2 LT ISZERO PUSH2 0x18BE JUMPI PUSH2 0x18B3 PUSH0 DUP3 PUSH2 0x1888 JUMP JUMPDEST PUSH1 0x1 DUP2 ADD SWAP1 POP PUSH2 0x18A1 JUMP JUMPDEST POP POP JUMP JUMPDEST PUSH1 0x1F DUP3 GT ISZERO PUSH2 0x1903 JUMPI PUSH2 0x18D4 DUP2 PUSH2 0x1697 JUMP JUMPDEST PUSH2 0x18DD DUP5 PUSH2 0x17C0 JUMP JUMPDEST DUP2 ADD PUSH1 0x20 DUP6 LT ISZERO PUSH2 0x18EC JUMPI DUP2 SWAP1 POP JUMPDEST PUSH2 0x1900 PUSH2 0x18F8 DUP6 PUSH2 0x17C0 JUMP JUMPDEST DUP4 ADD DUP3 PUSH2 0x18A0 JUMP JUMPDEST POP POP JUMPDEST POP POP POP JUMP JUMPDEST PUSH0 DUP3 DUP3 SHR SWAP1 POP SWAP3 SWAP2 POP POP JUMP JUMPDEST PUSH0 PUSH2 0x1923 PUSH0 NOT DUP5 PUSH1 0x8 MUL PUSH2 0x1908 JUMP JUMPDEST NOT DUP1 DUP4 AND SWAP2 POP POP SWAP3 SWAP2 POP POP JUMP JUMPDEST PUSH0 PUSH2 0x193B DUP4 DUP4 PUSH2 0x1914 JUMP JUMPDEST SWAP2 POP DUP3 PUSH1 0x2 MUL DUP3 OR SWAP1 POP SWAP3 SWAP2 POP POP JUMP JUMPDEST PUSH2 0x1954 DUP3 PUSH2 0xF3E JUMP JUMPDEST PUSH8 0xFFFFFFFFFFFFFFFF DUP2 GT ISZERO PUSH2 0x196D JUMPI PUSH2 0x196C PUSH2 0x11EE JUMP JUMPDEST JUMPDEST PUSH2 0x1977 DUP3 SLOAD PUSH2 0x13EE JUMP JUMPDEST PUSH2 0x1982 DUP3 DUP3 DUP6 PUSH2 0x18C2 JUMP JUMPDEST PUSH0 PUSH1 0x20 SWAP1 POP PUSH1 0x1F DUP4 GT PUSH1 0x1 DUP2 EQ PUSH2 0x19B3 JUMPI PUSH0 DUP5 ISZERO PUSH2 0x19A1 JUMPI DUP3 DUP8 ADD MLOAD SWAP1 POP JUMPDEST PUSH2 0x19AB DUP6 DUP3 PUSH2 0x1930 JUMP JUMPDEST DUP7 SSTORE POP PUSH2 0x1A12 JUMP JUMPDEST PUSH1 0x1F NOT DUP5 AND PUSH2 0x19C1 DUP7 PUSH2 0x1697 JUMP JUMPDEST PUSH0 JUMPDEST DUP3 DUP2 LT ISZERO PUSH2 0x19E8 JUMPI DUP5 DUP10 ADD MLOAD DUP3 SSTORE PUSH1 0x1 DUP3 ADD SWAP2 POP PUSH1 0x20 DUP6 ADD SWAP5 POP PUSH1 0x20 DUP2 ADD SWAP1 POP PUSH2 0x19C3 JUMP JUMPDEST DUP7 DUP4 LT ISZERO PUSH2 0x1A05 JUMPI DUP5 DUP10 ADD MLOAD PUSH2 0x1A01 PUSH1 0x1F DUP10 AND DUP3 PUSH2 0x1914 JUMP JUMPDEST DUP4 SSTORE POP JUMPDEST PUSH1 0x1 PUSH1 0x2 DUP9 MUL ADD DUP9 SSTORE POP POP POP JUMPDEST POP POP POP POP POP POP JUMP JUMPDEST PUSH0 PUSH1 0x40 DUP3 ADD SWAP1 POP PUSH2 0x1A2D PUSH0 DUP4 ADD DUP6 PUSH2 0x1007 JUMP JUMPDEST DUP2 DUP2 SUB PUSH1 0x20 DUP4 ADD MSTORE PUSH2 0x1A3F DUP2 DUP5 PUSH2 0xF90 JUMP JUMPDEST SWAP1 POP SWAP4 SWAP3 POP POP POP JUMP JUMPDEST PUSH32 0x416C726561647920766F7465642E000000000000000000000000000000000000 PUSH0 DUP3 ADD MSTORE POP JUMP JUMPDEST PUSH0 PUSH2 0x1A7C PUSH1 0xE DUP4 PUSH2 0xF48 JUMP JUMPDEST SWAP2 POP PUSH2 0x1A87 DUP3 PUSH2 0x1A48 JUMP JUMPDEST PUSH1 0x20 DUP3 ADD SWAP1 POP SWAP2 SWAP1 POP JUMP JUMPDEST PUSH0 PUSH1 0x20 DUP3 ADD SWAP1 POP DUP2 DUP2 SUB PUSH0 DUP4 ADD MSTORE PUSH2 0x1AA9 DUP2 PUSH2 0x1A70 JUMP JUMPDEST SWAP1 POP SWAP2 SWAP1 POP JUMP JUMPDEST PUSH32 0x496E76616C69642070726F706F73616C20496400000000000000000000000000 PUSH0 DUP3 ADD MSTORE POP JUMP JUMPDEST PUSH0 PUSH2 0x1AE4 PUSH1 0x13 DUP4 PUSH2 0xF48 JUMP JUMPDEST SWAP2 POP PUSH2 0x1AEF DUP3 PUSH2 0x1AB0 JUMP JUMPDEST PUSH1 0x20 DUP3 ADD SWAP1 POP SWAP2 SWAP1 POP JUMP JUMPDEST PUSH0 PUSH1 0x20 DUP3 ADD SWAP1 POP DUP2 DUP2 SUB PUSH0 DUP4 ADD MSTORE PUSH2 0x1B11 DUP2 PUSH2 0x1AD8 JUMP JUMPDEST SWAP1 POP SWAP2 SWAP1 POP JUMP JUMPDEST PUSH0 PUSH2 0x1B22 DUP3 PUSH2 0xEE0 JUMP JUMPDEST SWAP2 POP PUSH2 0x1B2D DUP4 PUSH2 0xEE0 JUMP JUMPDEST SWAP3 POP DUP3 DUP3 ADD SWAP1 POP DUP1 DUP3 GT ISZERO PUSH2 0x1B45 JUMPI PUSH2 0x1B44 PUSH2 0x1514 JUMP JUMPDEST JUMPDEST SWAP3 SWAP2 POP POP JUMP JUMPDEST PUSH0 PUSH1 0x40 DUP3 ADD SWAP1 POP PUSH2 0x1B5E PUSH0 DUP4 ADD DUP6 PUSH2 0x1007 JUMP JUMPDEST PUSH2 0x1B6B PUSH1 0x20 DUP4 ADD DUP5 PUSH2 0x1021 JUMP JUMPDEST SWAP4 SWAP3 POP POP POP JUMP JUMPDEST PUSH32 0x4F6666696369616C732063616E6E6F7420726567697374657220617320636974 PUSH0 DUP3 ADD MSTORE PUSH32 0x697A656E732E0000000000000000000000000000000000000000000000000000 PUSH1 0x20 DUP3 ADD MSTORE POP JUMP JUMPDEST PUSH0 PUSH2 0x1BCC PUSH1 0x26 DUP4 PUSH2 0xF48 JUMP JUMPDEST SWAP2 POP PUSH2 0x1BD7 DUP3 PUSH2 0x1B72 JUMP JUMPDEST PUSH1 0x40 DUP3 ADD SWAP1 POP SWAP2 SWAP1 POP JUMP JUMPDEST PUSH0 PUSH1 0x20 DUP3 ADD SWAP1 POP DUP2 DUP2 SUB PUSH0 DUP4 ADD MSTORE PUSH2 0x1BF9 DUP2 PUSH2 0x1BC0 JUMP JUMPDEST SWAP1 POP SWAP2 SWAP1 POP JUMP INVALID LOG2 PUSH5 0x6970667358 0x22 SLT KECCAK256 CALL CALLDATASIZE PUSH18 0x29CB78889840683A5EDD32DF09EBEF8F7729 0xE1 SUB SDIV 0xEE SWAP8 0xA6 0xDE EXTCODECOPY PUSH31 0xFEC064736F6C63430008160033000000000000000000000000000000000000 "
				},
				"gasEstimates": {
					"creation": {
						"codeDepositCost": "1444400",
						"executionCost": "25769",
						"totalCost": "1470169"
					},
					"external": {
						"citizens(uint256)": "4967",
						"enactLaw(uint256)": "infinite",
						"getCitizens()": "infinite",
						"getOfficials()": "infinite",
						"isOfficial(address)": "2856",
						"isVoted(address)": "2877",
						"newCitizen()": "52261",
						"newOfficai()": "76593",
						"officials(uint256)": "4989",
						"proposals(uint256)": "infinite",
						"proposeLaw(string)": "infinite",
						"toggelOfficialStatus(address)": "77948",
						"voteProposal(uint256,bool)": "infinite"
					}
				},
				"methodIdentifiers": {
					"citizens(uint256)": "09a34f00",
					"enactLaw(uint256)": "445ed26e",
					"getCitizens()": "eee8c7db",
					"getOfficials()": "58bc7331",
					"isOfficial(address)": "77b81aac",
					"isVoted(address)": "cbff75cb",
					"newCitizen()": "dd99e1d4",
					"newOfficai()": "1e66d267",
					"officials(uint256)": "97ad6afd",
					"proposals(uint256)": "013cf08b",
					"proposeLaw(string)": "ba05f053",
					"toggelOfficialStatus(address)": "55cf576e",
					"voteProposal(uint256,bool)": "bcfb9b61"
				}
			},
			"storageLayout": {
				"storage": [
					{
						"astId": 3,
						"contract": "Government Citizen Info Tracking/GCIT smart contract.sol:GCITContract",
						"label": "owner",
						"offset": 0,
						"slot": "0",
						"type": "t_address_payable"
					},
					{
						"astId": 6,
						"contract": "Government Citizen Info Tracking/GCIT smart contract.sol:GCITContract",
						"label": "citizens",
						"offset": 0,
						"slot": "1",
						"type": "t_array(t_address)dyn_storage"
					},
					{
						"astId": 9,
						"contract": "Government Citizen Info Tracking/GCIT smart contract.sol:GCITContract",
						"label": "officials",
						"offset": 0,
						"slot": "2",
						"type": "t_array(t_address)dyn_storage"
					},
					{
						"astId": 13,
						"contract": "Government Citizen Info Tracking/GCIT smart contract.sol:GCITContract",
						"label": "isOfficial",
						"offset": 0,
						"slot": "3",
						"type": "t_mapping(t_address,t_bool)"
					},
					{
						"astId": 17,
						"contract": "Government Citizen Info Tracking/GCIT smart contract.sol:GCITContract",
						"label": "isVoted",
						"offset": 0,
						"slot": "4",
						"type": "t_mapping(t_address,t_bool)"
					},
					{
						"astId": 32,
						"contract": "Government Citizen Info Tracking/GCIT smart contract.sol:GCITContract",
						"label": "proposals",
						"offset": 0,
						"slot": "5",
						"type": "t_array(t_struct(LawProposed)28_storage)dyn_storage"
					}
				],
				"types": {
					"t_address": {
						"encoding": "inplace",
						"label": "address",
						"numberOfBytes": "20"
					},
					"t_address_payable": {
						"encoding": "inplace",
						"label": "address payable",
						"numberOfBytes": "20"
					},
					"t_array(t_address)dyn_storage": {
						"base": "t_address",
						"encoding": "dynamic_array",
						"label": "address[]",
						"numberOfBytes": "32"
					},
					"t_array(t_struct(LawProposed)28_storage)dyn_storage": {
						"base": "t_struct(LawProposed)28_storage",
						"encoding": "dynamic_array",
						"label": "struct GCITContract.LawProposed[]",
						"numberOfBytes": "32"
					},
					"t_bool": {
						"encoding": "inplace",
						"label": "bool",
						"numberOfBytes": "1"
					},
					"t_mapping(t_address,t_bool)": {
						"encoding": "mapping",
						"key": "t_address",
						"label": "mapping(address => bool)",
						"numberOfBytes": "32",
						"value": "t_bool"
					},
					"t_string_storage": {
						"encoding": "bytes",
						"label": "string",
						"numberOfBytes": "32"
					},
					"t_struct(LawProposed)28_storage": {
						"encoding": "inplace",
						"label": "struct GCITContract.LawProposed",
						"members": [
							{
								"astId": 19,
								"contract": "Government Citizen Info Tracking/GCIT smart contract.sol:GCITContract",
								"label": "description",
								"offset": 0,
								"slot": "0",
								"type": "t_string_storage"
							},
							{
								"astId": 21,
								"contract": "Government Citizen Info Tracking/GCIT smart contract.sol:GCITContract",
								"label": "proposer",
								"offset": 0,
								"slot": "1",
								"type": "t_address"
							},
							{
								"astId": 23,
								"contract": "Government Citizen Info Tracking/GCIT smart contract.sol:GCITContract",
								"label": "yesVotes",
								"offset": 0,
								"slot": "2",
								"type": "t_uint256"
							},
							{
								"astId": 25,
								"contract": "Government Citizen Info Tracking/GCIT smart contract.sol:GCITContract",
								"label": "noVotes",
								"offset": 0,
								"slot": "3",
								"type": "t_uint256"
							},
							{
								"astId": 27,
								"contract": "Government Citizen Info Tracking/GCIT smart contract.sol:GCITContract",
								"label": "enacted",
								"offset": 0,
								"slot": "4",
								"type": "t_bool"
							}
						],
						"numberOfBytes": "160"
					},
					"t_uint256": {
						"encoding": "inplace",
						"label": "uint256",
						"numberOfBytes": "32"
					}
				}
			},
			"userdoc": {
				"kind": "user",
				"methods": {},
				"version": 1
			}
		}
	}
}