{
	"DeFI Accounting/Advanced DeFI Accounting S_C.sol": {
		"AdvancedAccounting": {
			"abi": [
				{
					"inputs": [],
					"stateMutability": "nonpayable",
					"type": "constructor"
				},
				{
					"anonymous": false,
					"inputs": [
						{
							"indexed": true,
							"internalType": "address",
							"name": "account",
							"type": "address"
						},
						{
							"indexed": false,
							"internalType": "uint256",
							"name": "amount",
							"type": "uint256"
						}
					],
					"name": "DepositMade",
					"type": "event"
				},
				{
					"anonymous": false,
					"inputs": [
						{
							"indexed": true,
							"internalType": "address",
							"name": "borrower",
							"type": "address"
						},
						{
							"indexed": false,
							"internalType": "uint256",
							"name": "amount",
							"type": "uint256"
						}
					],
					"name": "LoanRepaid",
					"type": "event"
				},
				{
					"anonymous": false,
					"inputs": [
						{
							"indexed": true,
							"internalType": "address",
							"name": "borrower",
							"type": "address"
						},
						{
							"indexed": false,
							"internalType": "uint256",
							"name": "amount",
							"type": "uint256"
						},
						{
							"indexed": false,
							"internalType": "uint256",
							"name": "interestRate",
							"type": "uint256"
						},
						{
							"indexed": false,
							"internalType": "uint256",
							"name": "dueDate",
							"type": "uint256"
						}
					],
					"name": "LoanTaken",
					"type": "event"
				},
				{
					"anonymous": false,
					"inputs": [
						{
							"indexed": true,
							"internalType": "bytes32",
							"name": "transactionId",
							"type": "bytes32"
						},
						{
							"indexed": true,
							"internalType": "address",
							"name": "creator",
							"type": "address"
						},
						{
							"indexed": false,
							"internalType": "uint256",
							"name": "value",
							"type": "uint256"
						},
						{
							"indexed": false,
							"internalType": "string",
							"name": "description",
							"type": "string"
						}
					],
					"name": "MultiSigTransactionCreated",
					"type": "event"
				},
				{
					"anonymous": false,
					"inputs": [
						{
							"indexed": true,
							"internalType": "bytes32",
							"name": "transactionId",
							"type": "bytes32"
						},
						{
							"indexed": true,
							"internalType": "address",
							"name": "executor",
							"type": "address"
						}
					],
					"name": "MultiSigTransactionExecuted",
					"type": "event"
				},
				{
					"anonymous": false,
					"inputs": [
						{
							"indexed": true,
							"internalType": "address",
							"name": "account",
							"type": "address"
						},
						{
							"indexed": false,
							"internalType": "uint256",
							"name": "amount",
							"type": "uint256"
						}
					],
					"name": "WithdrawalMade",
					"type": "event"
				},
				{
					"inputs": [],
					"name": "TIME_LOCK",
					"outputs": [
						{
							"internalType": "uint256",
							"name": "",
							"type": "uint256"
						}
					],
					"stateMutability": "view",
					"type": "function"
				},
				{
					"inputs": [
						{
							"internalType": "address",
							"name": "",
							"type": "address"
						}
					],
					"name": "accounts",
					"outputs": [
						{
							"internalType": "uint256",
							"name": "balance",
							"type": "uint256"
						},
						{
							"internalType": "uint256",
							"name": "lastWithdrawTime",
							"type": "uint256"
						}
					],
					"stateMutability": "view",
					"type": "function"
				},
				{
					"inputs": [
						{
							"internalType": "address[]",
							"name": "_signers",
							"type": "address[]"
						},
						{
							"internalType": "uint256",
							"name": "_value",
							"type": "uint256"
						},
						{
							"internalType": "string",
							"name": "_description",
							"type": "string"
						}
					],
					"name": "createMultiSigTransaction",
					"outputs": [],
					"stateMutability": "nonpayable",
					"type": "function"
				},
				{
					"inputs": [],
					"name": "deposit",
					"outputs": [],
					"stateMutability": "payable",
					"type": "function"
				},
				{
					"inputs": [
						{
							"internalType": "bytes32",
							"name": "_transactionId",
							"type": "bytes32"
						}
					],
					"name": "executeMultiSigTransaction",
					"outputs": [],
					"stateMutability": "nonpayable",
					"type": "function"
				},
				{
					"inputs": [
						{
							"internalType": "address",
							"name": "",
							"type": "address"
						},
						{
							"internalType": "uint256",
							"name": "",
							"type": "uint256"
						}
					],
					"name": "loans",
					"outputs": [
						{
							"internalType": "uint256",
							"name": "amount",
							"type": "uint256"
						},
						{
							"internalType": "uint256",
							"name": "interestRate",
							"type": "uint256"
						},
						{
							"internalType": "uint256",
							"name": "dueDate",
							"type": "uint256"
						},
						{
							"internalType": "bool",
							"name": "isRepaid",
							"type": "bool"
						}
					],
					"stateMutability": "view",
					"type": "function"
				},
				{
					"inputs": [
						{
							"internalType": "bytes32",
							"name": "",
							"type": "bytes32"
						}
					],
					"name": "multiSigTransactions",
					"outputs": [
						{
							"internalType": "address",
							"name": "initiator",
							"type": "address"
						},
						{
							"internalType": "uint256",
							"name": "value",
							"type": "uint256"
						},
						{
							"internalType": "string",
							"name": "description",
							"type": "string"
						},
						{
							"internalType": "bool",
							"name": "executed",
							"type": "bool"
						}
					],
					"stateMutability": "view",
					"type": "function"
				},
				{
					"inputs": [],
					"name": "owner",
					"outputs": [
						{
							"internalType": "address",
							"name": "",
							"type": "address"
						}
					],
					"stateMutability": "view",
					"type": "function"
				},
				{
					"inputs": [
						{
							"internalType": "uint256",
							"name": "_loanIndex",
							"type": "uint256"
						}
					],
					"name": "repayLoan",
					"outputs": [],
					"stateMutability": "payable",
					"type": "function"
				},
				{
					"inputs": [
						{
							"internalType": "uint256",
							"name": "_amount",
							"type": "uint256"
						},
						{
							"internalType": "uint256",
							"name": "_interestRate",
							"type": "uint256"
						},
						{
							"internalType": "uint256",
							"name": "_duration",
							"type": "uint256"
						}
					],
					"name": "takeLoan",
					"outputs": [],
					"stateMutability": "nonpayable",
					"type": "function"
				},
				{
					"inputs": [
						{
							"internalType": "uint256",
							"name": "_amount",
							"type": "uint256"
						}
					],
					"name": "withdraw",
					"outputs": [],
					"stateMutability": "nonpayable",
					"type": "function"
				}
			],
			"devdoc": {
				"details": "Implements deposit & withdrawal management, loan issuance with interest, and multi-signature transactions.",
				"kind": "dev",
				"methods": {},
				"title": "Advanced Accounting Smart Contract",
				"version": 1
			},
			"evm": {
				"assembly": "    /* \"DeFI Accounting/Advanced DeFI Accounting S_C.sol\":225:6248  contract AdvancedAccounting {... */\n  mstore(0x40, 0x80)\n    /* \"DeFI Accounting/Advanced DeFI Accounting S_C.sol\":2443:2492  constructor() {... */\n  callvalue\n  dup1\n  iszero\n  tag_1\n  jumpi\n  0x00\n  dup1\n  revert\ntag_1:\n  pop\n    /* \"DeFI Accounting/Advanced DeFI Accounting S_C.sol\":2475:2485  msg.sender */\n  caller\n    /* \"DeFI Accounting/Advanced DeFI Accounting S_C.sol\":2467:2472  owner */\n  0x03\n  0x00\n    /* \"DeFI Accounting/Advanced DeFI Accounting S_C.sol\":2467:2485  owner = msg.sender */\n  0x0100\n  exp\n  dup2\n  sload\n  dup2\n  0xffffffffffffffffffffffffffffffffffffffff\n  mul\n  not\n  and\n  swap1\n  dup4\n  0xffffffffffffffffffffffffffffffffffffffff\n  and\n  mul\n  or\n  swap1\n  sstore\n  pop\n    /* \"DeFI Accounting/Advanced DeFI Accounting S_C.sol\":225:6248  contract AdvancedAccounting {... */\n  dataSize(sub_0)\n  dup1\n  dataOffset(sub_0)\n  0x00\n  codecopy\n  0x00\n  return\nstop\n\nsub_0: assembly {\n        /* \"DeFI Accounting/Advanced DeFI Accounting S_C.sol\":225:6248  contract AdvancedAccounting {... */\n      mstore(0x40, 0x80)\n      jumpi(tag_1, lt(calldatasize, 0x04))\n      shr(0xe0, calldataload(0x00))\n      dup1\n      0xa063416c\n      gt\n      tag_13\n      jumpi\n      dup1\n      0xa063416c\n      eq\n      tag_7\n      jumpi\n      dup1\n      0xab7b1c89\n      eq\n      tag_8\n      jumpi\n      dup1\n      0xb0c11a70\n      eq\n      tag_9\n      jumpi\n      dup1\n      0xd0e30db0\n      eq\n      tag_10\n      jumpi\n      dup1\n      0xe0a09c68\n      eq\n      tag_11\n      jumpi\n      dup1\n      0xf7f4f8ca\n      eq\n      tag_12\n      jumpi\n      jump(tag_1)\n    tag_13:\n      dup1\n      0x10c9e386\n      eq\n      tag_2\n      jumpi\n      dup1\n      0x2e1a7d4d\n      eq\n      tag_3\n      jumpi\n      dup1\n      0x5e5c06e2\n      eq\n      tag_4\n      jumpi\n      dup1\n      0x8da5cb5b\n      eq\n      tag_5\n      jumpi\n      dup1\n      0x98c61c37\n      eq\n      tag_6\n      jumpi\n    tag_1:\n      0x00\n      dup1\n      revert\n        /* \"DeFI Accounting/Advanced DeFI Accounting S_C.sol\":3370:3774  function takeLoan(uint256 _amount, uint256 _interestRate, uint256 _duration) public {... */\n    tag_2:\n      callvalue\n      dup1\n      iszero\n      tag_14\n      jumpi\n      0x00\n      dup1\n      revert\n    tag_14:\n      pop\n      tag_15\n      0x04\n      dup1\n      calldatasize\n      sub\n      dup2\n      add\n      swap1\n      tag_16\n      swap2\n      swap1\n      tag_17\n      jump\t// in\n    tag_16:\n      tag_18\n      jump\t// in\n    tag_15:\n      stop\n        /* \"DeFI Accounting/Advanced DeFI Accounting S_C.sol\":2839:3301  function withdraw(uint256 _amount) public {... */\n    tag_3:\n      callvalue\n      dup1\n      iszero\n      tag_19\n      jumpi\n      0x00\n      dup1\n      revert\n    tag_19:\n      pop\n      tag_20\n      0x04\n      dup1\n      calldatasize\n      sub\n      dup2\n      add\n      swap1\n      tag_21\n      swap2\n      swap1\n      tag_22\n      jump\t// in\n    tag_21:\n      tag_23\n      jump\t// in\n    tag_20:\n      stop\n        /* \"DeFI Accounting/Advanced DeFI Accounting S_C.sol\":1035:1078  mapping(address => Account) public accounts */\n    tag_4:\n      callvalue\n      dup1\n      iszero\n      tag_24\n      jumpi\n      0x00\n      dup1\n      revert\n    tag_24:\n      pop\n      tag_25\n      0x04\n      dup1\n      calldatasize\n      sub\n      dup2\n      add\n      swap1\n      tag_26\n      swap2\n      swap1\n      tag_27\n      jump\t// in\n    tag_26:\n      tag_28\n      jump\t// in\n    tag_25:\n      mload(0x40)\n      tag_29\n      swap3\n      swap2\n      swap1\n      tag_30\n      jump\t// in\n    tag_29:\n      mload(0x40)\n      dup1\n      swap2\n      sub\n      swap1\n      return\n        /* \"DeFI Accounting/Advanced DeFI Accounting S_C.sol\":1381:1401  address public owner */\n    tag_5:\n      callvalue\n      dup1\n      iszero\n      tag_31\n      jumpi\n      0x00\n      dup1\n      revert\n    tag_31:\n      pop\n      tag_32\n      tag_33\n      jump\t// in\n    tag_32:\n      mload(0x40)\n      tag_34\n      swap2\n      swap1\n      tag_35\n      jump\t// in\n    tag_34:\n      mload(0x40)\n      dup1\n      swap2\n      sub\n      swap1\n      return\n        /* \"DeFI Accounting/Advanced DeFI Accounting S_C.sol\":1151:1190  mapping(address => Loan[]) public loans */\n    tag_6:\n      callvalue\n      dup1\n      iszero\n      tag_36\n      jumpi\n      0x00\n      dup1\n      revert\n    tag_36:\n      pop\n      tag_37\n      0x04\n      dup1\n      calldatasize\n      sub\n      dup2\n      add\n      swap1\n      tag_38\n      swap2\n      swap1\n      tag_39\n      jump\t// in\n    tag_38:\n      tag_40\n      jump\t// in\n    tag_37:\n      mload(0x40)\n      tag_41\n      swap5\n      swap4\n      swap3\n      swap2\n      swap1\n      tag_42\n      jump\t// in\n    tag_41:\n      mload(0x40)\n      dup1\n      swap2\n      sub\n      swap1\n      return\n        /* \"DeFI Accounting/Advanced DeFI Accounting S_C.sol\":4350:4871  function createMultiSigTransaction(address[] memory _signers, uint256 _value, string memory _description) public onlyOwner {... */\n    tag_7:\n      callvalue\n      dup1\n      iszero\n      tag_43\n      jumpi\n      0x00\n      dup1\n      revert\n    tag_43:\n      pop\n      tag_44\n      0x04\n      dup1\n      calldatasize\n      sub\n      dup2\n      add\n      swap1\n      tag_45\n      swap2\n      swap1\n      tag_46\n      jump\t// in\n    tag_45:\n      tag_47\n      jump\t// in\n    tag_44:\n      stop\n        /* \"DeFI Accounting/Advanced DeFI Accounting S_C.sol\":3828:4292  function repayLoan(uint256 _loanIndex) public payable {... */\n    tag_8:\n      tag_48\n      0x04\n      dup1\n      calldatasize\n      sub\n      dup2\n      add\n      swap1\n      tag_49\n      swap2\n      swap1\n      tag_22\n      jump\t// in\n    tag_49:\n      tag_50\n      jump\t// in\n    tag_48:\n      stop\n        /* \"DeFI Accounting/Advanced DeFI Accounting S_C.sol\":1259:1326  mapping(bytes32 => MultiSigTransaction) public multiSigTransactions */\n    tag_9:\n      callvalue\n      dup1\n      iszero\n      tag_51\n      jumpi\n      0x00\n      dup1\n      revert\n    tag_51:\n      pop\n      tag_52\n      0x04\n      dup1\n      calldatasize\n      sub\n      dup2\n      add\n      swap1\n      tag_53\n      swap2\n      swap1\n      tag_54\n      jump\t// in\n    tag_53:\n      tag_55\n      jump\t// in\n    tag_52:\n      mload(0x40)\n      tag_56\n      swap5\n      swap4\n      swap3\n      swap2\n      swap1\n      tag_57\n      jump\t// in\n    tag_56:\n      mload(0x40)\n      dup1\n      swap2\n      sub\n      swap1\n      return\n        /* \"DeFI Accounting/Advanced DeFI Accounting S_C.sol\":2555:2768  function deposit() public payable {... */\n    tag_10:\n      tag_58\n      tag_59\n      jump\t// in\n    tag_58:\n      stop\n        /* \"DeFI Accounting/Advanced DeFI Accounting S_C.sol\":1552:1597  uint256 public constant TIME_LOCK = 1 minutes */\n    tag_11:\n      callvalue\n      dup1\n      iszero\n      tag_60\n      jumpi\n      0x00\n      dup1\n      revert\n    tag_60:\n      pop\n      tag_61\n      tag_62\n      jump\t// in\n    tag_61:\n      mload(0x40)\n      tag_63\n      swap2\n      swap1\n      tag_64\n      jump\t// in\n    tag_63:\n      mload(0x40)\n      dup1\n      swap2\n      sub\n      swap1\n      return\n        /* \"DeFI Accounting/Advanced DeFI Accounting S_C.sol\":4955:5472  function executeMultiSigTransaction(bytes32 _transactionId) public {... */\n    tag_12:\n      callvalue\n      dup1\n      iszero\n      tag_65\n      jumpi\n      0x00\n      dup1\n      revert\n    tag_65:\n      pop\n      tag_66\n      0x04\n      dup1\n      calldatasize\n      sub\n      dup2\n      add\n      swap1\n      tag_67\n      swap2\n      swap1\n      tag_54\n      jump\t// in\n    tag_67:\n      tag_68\n      jump\t// in\n    tag_66:\n      stop\n        /* \"DeFI Accounting/Advanced DeFI Accounting S_C.sol\":3370:3774  function takeLoan(uint256 _amount, uint256 _interestRate, uint256 _duration) public {... */\n    tag_18:\n        /* \"DeFI Accounting/Advanced DeFI Accounting S_C.sol\":3482:3483  0 */\n      0x00\n        /* \"DeFI Accounting/Advanced DeFI Accounting S_C.sol\":3472:3479  _amount */\n      dup4\n        /* \"DeFI Accounting/Advanced DeFI Accounting S_C.sol\":3472:3483  _amount > 0 */\n      gt\n        /* \"DeFI Accounting/Advanced DeFI Accounting S_C.sol\":3464:3522  require(_amount > 0, \"Loan amount must be greater than 0\") */\n      tag_70\n      jumpi\n      mload(0x40)\n      0x08c379a000000000000000000000000000000000000000000000000000000000\n      dup2\n      mstore\n      0x04\n      add\n      tag_71\n      swap1\n      tag_72\n      jump\t// in\n    tag_71:\n      mload(0x40)\n      dup1\n      swap2\n      sub\n      swap1\n      revert\n    tag_70:\n        /* \"DeFI Accounting/Advanced DeFI Accounting S_C.sol\":3541:3546  loans */\n      0x01\n        /* \"DeFI Accounting/Advanced DeFI Accounting S_C.sol\":3541:3558  loans[msg.sender] */\n      0x00\n        /* \"DeFI Accounting/Advanced DeFI Accounting S_C.sol\":3547:3557  msg.sender */\n      caller\n        /* \"DeFI Accounting/Advanced DeFI Accounting S_C.sol\":3541:3558  loans[msg.sender] */\n      0xffffffffffffffffffffffffffffffffffffffff\n      and\n      0xffffffffffffffffffffffffffffffffffffffff\n      and\n      dup2\n      mstore\n      0x20\n      add\n      swap1\n      dup2\n      mstore\n      0x20\n      add\n      0x00\n      keccak256\n        /* \"DeFI Accounting/Advanced DeFI Accounting S_C.sol\":3564:3628  Loan(_amount, _interestRate, block.timestamp + _duration, false) */\n      mload(0x40)\n      dup1\n      0x80\n      add\n      0x40\n      mstore\n      dup1\n        /* \"DeFI Accounting/Advanced DeFI Accounting S_C.sol\":3569:3576  _amount */\n      dup6\n        /* \"DeFI Accounting/Advanced DeFI Accounting S_C.sol\":3564:3628  Loan(_amount, _interestRate, block.timestamp + _duration, false) */\n      dup2\n      mstore\n      0x20\n      add\n        /* \"DeFI Accounting/Advanced DeFI Accounting S_C.sol\":3578:3591  _interestRate */\n      dup5\n        /* \"DeFI Accounting/Advanced DeFI Accounting S_C.sol\":3564:3628  Loan(_amount, _interestRate, block.timestamp + _duration, false) */\n      dup2\n      mstore\n      0x20\n      add\n        /* \"DeFI Accounting/Advanced DeFI Accounting S_C.sol\":3611:3620  _duration */\n      dup4\n        /* \"DeFI Accounting/Advanced DeFI Accounting S_C.sol\":3593:3608  block.timestamp */\n      timestamp\n        /* \"DeFI Accounting/Advanced DeFI Accounting S_C.sol\":3593:3620  block.timestamp + _duration */\n      tag_73\n      swap2\n      swap1\n      tag_74\n      jump\t// in\n    tag_73:\n        /* \"DeFI Accounting/Advanced DeFI Accounting S_C.sol\":3564:3628  Loan(_amount, _interestRate, block.timestamp + _duration, false) */\n      dup2\n      mstore\n      0x20\n      add\n        /* \"DeFI Accounting/Advanced DeFI Accounting S_C.sol\":3622:3627  false */\n      0x00\n        /* \"DeFI Accounting/Advanced DeFI Accounting S_C.sol\":3564:3628  Loan(_amount, _interestRate, block.timestamp + _duration, false) */\n      iszero\n      iszero\n      dup2\n      mstore\n      pop\n        /* \"DeFI Accounting/Advanced DeFI Accounting S_C.sol\":3541:3629  loans[msg.sender].push(Loan(_amount, _interestRate, block.timestamp + _duration, false)) */\n      swap1\n      dup1\n      0x01\n      dup2\n      sload\n      add\n      dup1\n      dup3\n      sstore\n      dup1\n      swap2\n      pop\n      pop\n      0x01\n      swap1\n      sub\n      swap1\n      0x00\n      mstore\n      keccak256(0x00, 0x20)\n      swap1\n      0x04\n      mul\n      add\n      0x00\n      swap1\n      swap2\n      swap1\n      swap2\n      swap1\n      swap2\n      pop\n      0x00\n      dup3\n      add\n      mload\n      dup2\n      0x00\n      add\n      sstore\n      0x20\n      dup3\n      add\n      mload\n      dup2\n      0x01\n      add\n      sstore\n      0x40\n      dup3\n      add\n      mload\n      dup2\n      0x02\n      add\n      sstore\n      0x60\n      dup3\n      add\n      mload\n      dup2\n      0x03\n      add\n      exp(0x0100, 0x00)\n      dup2\n      sload\n      dup2\n      0xff\n      mul\n      not\n      and\n      swap1\n      dup4\n      iszero\n      iszero\n      mul\n      or\n      swap1\n      sstore\n      pop\n      pop\n      pop\n        /* \"DeFI Accounting/Advanced DeFI Accounting S_C.sol\":3671:3678  _amount */\n      dup3\n        /* \"DeFI Accounting/Advanced DeFI Accounting S_C.sol\":3639:3647  accounts */\n      0x00\n        /* \"DeFI Accounting/Advanced DeFI Accounting S_C.sol\":3639:3659  accounts[msg.sender] */\n      dup1\n        /* \"DeFI Accounting/Advanced DeFI Accounting S_C.sol\":3648:3658  msg.sender */\n      caller\n        /* \"DeFI Accounting/Advanced DeFI Accounting S_C.sol\":3639:3659  accounts[msg.sender] */\n      0xffffffffffffffffffffffffffffffffffffffff\n      and\n      0xffffffffffffffffffffffffffffffffffffffff\n      and\n      dup2\n      mstore\n      0x20\n      add\n      swap1\n      dup2\n      mstore\n      0x20\n      add\n      0x00\n      keccak256\n        /* \"DeFI Accounting/Advanced DeFI Accounting S_C.sol\":3639:3667  accounts[msg.sender].balance */\n      0x00\n      add\n      0x00\n        /* \"DeFI Accounting/Advanced DeFI Accounting S_C.sol\":3639:3678  accounts[msg.sender].balance += _amount */\n      dup3\n      dup3\n      sload\n      tag_76\n      swap2\n      swap1\n      tag_74\n      jump\t// in\n    tag_76:\n      swap3\n      pop\n      pop\n      dup2\n      swap1\n      sstore\n      pop\n        /* \"DeFI Accounting/Advanced DeFI Accounting S_C.sol\":3703:3713  msg.sender */\n      caller\n        /* \"DeFI Accounting/Advanced DeFI Accounting S_C.sol\":3693:3767  LoanTaken(msg.sender, _amount, _interestRate, block.timestamp + _duration) */\n      0xffffffffffffffffffffffffffffffffffffffff\n      and\n      0x1daae93c0719c540c3891d8a11e5f3b79cbd03028f1fa7e520d31c1a87843335\n        /* \"DeFI Accounting/Advanced DeFI Accounting S_C.sol\":3715:3722  _amount */\n      dup5\n        /* \"DeFI Accounting/Advanced DeFI Accounting S_C.sol\":3724:3737  _interestRate */\n      dup5\n        /* \"DeFI Accounting/Advanced DeFI Accounting S_C.sol\":3757:3766  _duration */\n      dup5\n        /* \"DeFI Accounting/Advanced DeFI Accounting S_C.sol\":3739:3754  block.timestamp */\n      timestamp\n        /* \"DeFI Accounting/Advanced DeFI Accounting S_C.sol\":3739:3766  block.timestamp + _duration */\n      tag_77\n      swap2\n      swap1\n      tag_74\n      jump\t// in\n    tag_77:\n        /* \"DeFI Accounting/Advanced DeFI Accounting S_C.sol\":3693:3767  LoanTaken(msg.sender, _amount, _interestRate, block.timestamp + _duration) */\n      mload(0x40)\n      tag_78\n      swap4\n      swap3\n      swap2\n      swap1\n      tag_79\n      jump\t// in\n    tag_78:\n      mload(0x40)\n      dup1\n      swap2\n      sub\n      swap1\n      log2\n        /* \"DeFI Accounting/Advanced DeFI Accounting S_C.sol\":3370:3774  function takeLoan(uint256 _amount, uint256 _interestRate, uint256 _duration) public {... */\n      pop\n      pop\n      pop\n      jump\t// out\n        /* \"DeFI Accounting/Advanced DeFI Accounting S_C.sol\":2839:3301  function withdraw(uint256 _amount) public {... */\n    tag_23:\n        /* \"DeFI Accounting/Advanced DeFI Accounting S_C.sol\":2910:2918  accounts */\n      0x00\n        /* \"DeFI Accounting/Advanced DeFI Accounting S_C.sol\":2910:2930  accounts[msg.sender] */\n      dup1\n        /* \"DeFI Accounting/Advanced DeFI Accounting S_C.sol\":2919:2929  msg.sender */\n      caller\n        /* \"DeFI Accounting/Advanced DeFI Accounting S_C.sol\":2910:2930  accounts[msg.sender] */\n      0xffffffffffffffffffffffffffffffffffffffff\n      and\n      0xffffffffffffffffffffffffffffffffffffffff\n      and\n      dup2\n      mstore\n      0x20\n      add\n      swap1\n      dup2\n      mstore\n      0x20\n      add\n      0x00\n      keccak256\n        /* \"DeFI Accounting/Advanced DeFI Accounting S_C.sol\":2910:2938  accounts[msg.sender].balance */\n      0x00\n      add\n      sload\n        /* \"DeFI Accounting/Advanced DeFI Accounting S_C.sol\":2899:2906  _amount */\n      dup2\n        /* \"DeFI Accounting/Advanced DeFI Accounting S_C.sol\":2899:2938  _amount <= accounts[msg.sender].balance */\n      gt\n      iszero\n        /* \"DeFI Accounting/Advanced DeFI Accounting S_C.sol\":2891:2963  require(_amount <= accounts[msg.sender].balance, \"Insufficient balance\") */\n      tag_81\n      jumpi\n      mload(0x40)\n      0x08c379a000000000000000000000000000000000000000000000000000000000\n      dup2\n      mstore\n      0x04\n      add\n      tag_82\n      swap1\n      tag_83\n      jump\t// in\n    tag_82:\n      mload(0x40)\n      dup1\n      swap2\n      sub\n      swap1\n      revert\n    tag_81:\n        /* \"DeFI Accounting/Advanced DeFI Accounting S_C.sol\":1588:1597  1 minutes */\n      0x3c\n        /* \"DeFI Accounting/Advanced DeFI Accounting S_C.sol\":3000:3008  accounts */\n      0x00\n        /* \"DeFI Accounting/Advanced DeFI Accounting S_C.sol\":3000:3020  accounts[msg.sender] */\n      dup1\n        /* \"DeFI Accounting/Advanced DeFI Accounting S_C.sol\":3009:3019  msg.sender */\n      caller\n        /* \"DeFI Accounting/Advanced DeFI Accounting S_C.sol\":3000:3020  accounts[msg.sender] */\n      0xffffffffffffffffffffffffffffffffffffffff\n      and\n      0xffffffffffffffffffffffffffffffffffffffff\n      and\n      dup2\n      mstore\n      0x20\n      add\n      swap1\n      dup2\n      mstore\n      0x20\n      add\n      0x00\n      keccak256\n        /* \"DeFI Accounting/Advanced DeFI Accounting S_C.sol\":3000:3037  accounts[msg.sender].lastWithdrawTime */\n      0x01\n      add\n      sload\n        /* \"DeFI Accounting/Advanced DeFI Accounting S_C.sol\":3000:3049  accounts[msg.sender].lastWithdrawTime + TIME_LOCK */\n      tag_84\n      swap2\n      swap1\n      tag_74\n      jump\t// in\n    tag_84:\n        /* \"DeFI Accounting/Advanced DeFI Accounting S_C.sol\":2981:2996  block.timestamp */\n      timestamp\n        /* \"DeFI Accounting/Advanced DeFI Accounting S_C.sol\":2981:3049  block.timestamp >= accounts[msg.sender].lastWithdrawTime + TIME_LOCK */\n      lt\n      iszero\n        /* \"DeFI Accounting/Advanced DeFI Accounting S_C.sol\":2973:3074  require(block.timestamp >= accounts[msg.sender].lastWithdrawTime + TIME_LOCK, \"Withdrawal is locked\") */\n      tag_85\n      jumpi\n      mload(0x40)\n      0x08c379a000000000000000000000000000000000000000000000000000000000\n      dup2\n      mstore\n      0x04\n      add\n      tag_86\n      swap1\n      tag_87\n      jump\t// in\n    tag_86:\n      mload(0x40)\n      dup1\n      swap2\n      sub\n      swap1\n      revert\n    tag_85:\n        /* \"DeFI Accounting/Advanced DeFI Accounting S_C.sol\":3125:3132  _amount */\n      dup1\n        /* \"DeFI Accounting/Advanced DeFI Accounting S_C.sol\":3093:3101  accounts */\n      0x00\n        /* \"DeFI Accounting/Advanced DeFI Accounting S_C.sol\":3093:3113  accounts[msg.sender] */\n      dup1\n        /* \"DeFI Accounting/Advanced DeFI Accounting S_C.sol\":3102:3112  msg.sender */\n      caller\n        /* \"DeFI Accounting/Advanced DeFI Accounting S_C.sol\":3093:3113  accounts[msg.sender] */\n      0xffffffffffffffffffffffffffffffffffffffff\n      and\n      0xffffffffffffffffffffffffffffffffffffffff\n      and\n      dup2\n      mstore\n      0x20\n      add\n      swap1\n      dup2\n      mstore\n      0x20\n      add\n      0x00\n      keccak256\n        /* \"DeFI Accounting/Advanced DeFI Accounting S_C.sol\":3093:3121  accounts[msg.sender].balance */\n      0x00\n      add\n      0x00\n        /* \"DeFI Accounting/Advanced DeFI Accounting S_C.sol\":3093:3132  accounts[msg.sender].balance -= _amount */\n      dup3\n      dup3\n      sload\n      tag_88\n      swap2\n      swap1\n      tag_89\n      jump\t// in\n    tag_88:\n      swap3\n      pop\n      pop\n      dup2\n      swap1\n      sstore\n      pop\n        /* \"DeFI Accounting/Advanced DeFI Accounting S_C.sol\":3182:3197  block.timestamp */\n      timestamp\n        /* \"DeFI Accounting/Advanced DeFI Accounting S_C.sol\":3142:3150  accounts */\n      0x00\n        /* \"DeFI Accounting/Advanced DeFI Accounting S_C.sol\":3142:3162  accounts[msg.sender] */\n      dup1\n        /* \"DeFI Accounting/Advanced DeFI Accounting S_C.sol\":3151:3161  msg.sender */\n      caller\n        /* \"DeFI Accounting/Advanced DeFI Accounting S_C.sol\":3142:3162  accounts[msg.sender] */\n      0xffffffffffffffffffffffffffffffffffffffff\n      and\n      0xffffffffffffffffffffffffffffffffffffffff\n      and\n      dup2\n      mstore\n      0x20\n      add\n      swap1\n      dup2\n      mstore\n      0x20\n      add\n      0x00\n      keccak256\n        /* \"DeFI Accounting/Advanced DeFI Accounting S_C.sol\":3142:3179  accounts[msg.sender].lastWithdrawTime */\n      0x01\n      add\n        /* \"DeFI Accounting/Advanced DeFI Accounting S_C.sol\":3142:3197  accounts[msg.sender].lastWithdrawTime = block.timestamp */\n      dup2\n      swap1\n      sstore\n      pop\n        /* \"DeFI Accounting/Advanced DeFI Accounting S_C.sol\":3215:3225  msg.sender */\n      caller\n        /* \"DeFI Accounting/Advanced DeFI Accounting S_C.sol\":3207:3235  payable(msg.sender).transfer */\n      0xffffffffffffffffffffffffffffffffffffffff\n      and\n        /* \"DeFI Accounting/Advanced DeFI Accounting S_C.sol\":3207:3244  payable(msg.sender).transfer(_amount) */\n      0x08fc\n        /* \"DeFI Accounting/Advanced DeFI Accounting S_C.sol\":3236:3243  _amount */\n      dup3\n        /* \"DeFI Accounting/Advanced DeFI Accounting S_C.sol\":3207:3244  payable(msg.sender).transfer(_amount) */\n      swap1\n      dup2\n      iszero\n      mul\n      swap1\n      mload(0x40)\n      0x00\n      mload(0x40)\n      dup1\n      dup4\n      sub\n      dup2\n      dup6\n      dup9\n      dup9\n      call\n      swap4\n      pop\n      pop\n      pop\n      pop\n      iszero\n      dup1\n      iszero\n      tag_91\n      jumpi\n      returndatasize\n      0x00\n      dup1\n      returndatacopy\n      revert(0x00, returndatasize)\n    tag_91:\n      pop\n        /* \"DeFI Accounting/Advanced DeFI Accounting S_C.sol\":3274:3284  msg.sender */\n      caller\n        /* \"DeFI Accounting/Advanced DeFI Accounting S_C.sol\":3259:3294  WithdrawalMade(msg.sender, _amount) */\n      0xffffffffffffffffffffffffffffffffffffffff\n      and\n      0xbc158bb64f05d6383aea69bbb0b20c1bbf4b7a18f63359c5649b7c39e29d3884\n        /* \"DeFI Accounting/Advanced DeFI Accounting S_C.sol\":3286:3293  _amount */\n      dup3\n        /* \"DeFI Accounting/Advanced DeFI Accounting S_C.sol\":3259:3294  WithdrawalMade(msg.sender, _amount) */\n      mload(0x40)\n      tag_92\n      swap2\n      swap1\n      tag_64\n      jump\t// in\n    tag_92:\n      mload(0x40)\n      dup1\n      swap2\n      sub\n      swap1\n      log2\n        /* \"DeFI Accounting/Advanced DeFI Accounting S_C.sol\":2839:3301  function withdraw(uint256 _amount) public {... */\n      pop\n      jump\t// out\n        /* \"DeFI Accounting/Advanced DeFI Accounting S_C.sol\":1035:1078  mapping(address => Account) public accounts */\n    tag_28:\n      mstore(0x20, 0x00)\n      dup1\n      0x00\n      mstore\n      keccak256(0x00, 0x40)\n      0x00\n      swap2\n      pop\n      swap1\n      pop\n      dup1\n      0x00\n      add\n      sload\n      swap1\n      dup1\n      0x01\n      add\n      sload\n      swap1\n      pop\n      dup3\n      jump\t// out\n        /* \"DeFI Accounting/Advanced DeFI Accounting S_C.sol\":1381:1401  address public owner */\n    tag_33:\n      0x03\n      0x00\n      swap1\n      sload\n      swap1\n      0x0100\n      exp\n      swap1\n      div\n      0xffffffffffffffffffffffffffffffffffffffff\n      and\n      dup2\n      jump\t// out\n        /* \"DeFI Accounting/Advanced DeFI Accounting S_C.sol\":1151:1190  mapping(address => Loan[]) public loans */\n    tag_40:\n      mstore(0x20, 0x01)\n      dup2\n      0x00\n      mstore\n      keccak256(0x00, 0x40)\n      dup2\n      dup2\n      sload\n      dup2\n      lt\n      tag_93\n      jumpi\n      0x00\n      dup1\n      revert\n    tag_93:\n      swap1\n      0x00\n      mstore\n      keccak256(0x00, 0x20)\n      swap1\n      0x04\n      mul\n      add\n      0x00\n      swap2\n      pop\n      swap2\n      pop\n      pop\n      dup1\n      0x00\n      add\n      sload\n      swap1\n      dup1\n      0x01\n      add\n      sload\n      swap1\n      dup1\n      0x02\n      add\n      sload\n      swap1\n      dup1\n      0x03\n      add\n      0x00\n      swap1\n      sload\n      swap1\n      0x0100\n      exp\n      swap1\n      div\n      0xff\n      and\n      swap1\n      pop\n      dup5\n      jump\t// out\n        /* \"DeFI Accounting/Advanced DeFI Accounting S_C.sol\":4350:4871  function createMultiSigTransaction(address[] memory _signers, uint256 _value, string memory _description) public onlyOwner {... */\n    tag_47:\n        /* \"DeFI Accounting/Advanced DeFI Accounting S_C.sol\":2311:2316  owner */\n      0x03\n      0x00\n      swap1\n      sload\n      swap1\n      0x0100\n      exp\n      swap1\n      div\n      0xffffffffffffffffffffffffffffffffffffffff\n      and\n        /* \"DeFI Accounting/Advanced DeFI Accounting S_C.sol\":2297:2316  msg.sender == owner */\n      0xffffffffffffffffffffffffffffffffffffffff\n      and\n        /* \"DeFI Accounting/Advanced DeFI Accounting S_C.sol\":2297:2307  msg.sender */\n      caller\n        /* \"DeFI Accounting/Advanced DeFI Accounting S_C.sol\":2297:2316  msg.sender == owner */\n      0xffffffffffffffffffffffffffffffffffffffff\n      and\n      eq\n        /* \"DeFI Accounting/Advanced DeFI Accounting S_C.sol\":2289:2359  require(msg.sender == owner, \"Only the owner can perform this action\") */\n      tag_96\n      jumpi\n      mload(0x40)\n      0x08c379a000000000000000000000000000000000000000000000000000000000\n      dup2\n      mstore\n      0x04\n      add\n      tag_97\n      swap1\n      tag_98\n      jump\t// in\n    tag_97:\n      mload(0x40)\n      dup1\n      swap2\n      sub\n      swap1\n      revert\n    tag_96:\n        /* \"DeFI Accounting/Advanced DeFI Accounting S_C.sol\":4509:4510  1 */\n      0x01\n        /* \"DeFI Accounting/Advanced DeFI Accounting S_C.sol\":4491:4499  _signers */\n      dup4\n        /* \"DeFI Accounting/Advanced DeFI Accounting S_C.sol\":4491:4506  _signers.length */\n      mload\n        /* \"DeFI Accounting/Advanced DeFI Accounting S_C.sol\":4491:4510  _signers.length > 1 */\n      gt\n        /* \"DeFI Accounting/Advanced DeFI Accounting S_C.sol\":4483:4544  require(_signers.length > 1, \"At least two signers required\") */\n      tag_100\n      jumpi\n      mload(0x40)\n      0x08c379a000000000000000000000000000000000000000000000000000000000\n      dup2\n      mstore\n      0x04\n      add\n      tag_101\n      swap1\n      tag_102\n      jump\t// in\n    tag_101:\n      mload(0x40)\n      dup1\n      swap2\n      sub\n      swap1\n      revert\n    tag_100:\n        /* \"DeFI Accounting/Advanced DeFI Accounting S_C.sol\":4554:4575  bytes32 transactionId */\n      0x00\n        /* \"DeFI Accounting/Advanced DeFI Accounting S_C.sol\":4605:4620  block.timestamp */\n      timestamp\n        /* \"DeFI Accounting/Advanced DeFI Accounting S_C.sol\":4622:4632  msg.sender */\n      caller\n        /* \"DeFI Accounting/Advanced DeFI Accounting S_C.sol\":4634:4640  _value */\n      dup5\n        /* \"DeFI Accounting/Advanced DeFI Accounting S_C.sol\":4642:4654  _description */\n      dup5\n        /* \"DeFI Accounting/Advanced DeFI Accounting S_C.sol\":4588:4655  abi.encodePacked(block.timestamp, msg.sender, _value, _description) */\n      add(0x20, mload(0x40))\n      tag_103\n      swap5\n      swap4\n      swap3\n      swap2\n      swap1\n      tag_104\n      jump\t// in\n    tag_103:\n      mload(0x40)\n      0x20\n      dup2\n      dup4\n      sub\n      sub\n      dup2\n      mstore\n      swap1\n      0x40\n      mstore\n        /* \"DeFI Accounting/Advanced DeFI Accounting S_C.sol\":4578:4656  keccak256(abi.encodePacked(block.timestamp, msg.sender, _value, _description)) */\n      dup1\n      mload\n      swap1\n      0x20\n      add\n      keccak256\n        /* \"DeFI Accounting/Advanced DeFI Accounting S_C.sol\":4554:4656  bytes32 transactionId = keccak256(abi.encodePacked(block.timestamp, msg.sender, _value, _description)) */\n      swap1\n      pop\n        /* \"DeFI Accounting/Advanced DeFI Accounting S_C.sol\":4704:4774  MultiSigTransaction(msg.sender, _signers, _value, _description, false) */\n      mload(0x40)\n      dup1\n      0xa0\n      add\n      0x40\n      mstore\n      dup1\n        /* \"DeFI Accounting/Advanced DeFI Accounting S_C.sol\":4724:4734  msg.sender */\n      caller\n        /* \"DeFI Accounting/Advanced DeFI Accounting S_C.sol\":4704:4774  MultiSigTransaction(msg.sender, _signers, _value, _description, false) */\n      0xffffffffffffffffffffffffffffffffffffffff\n      and\n      dup2\n      mstore\n      0x20\n      add\n        /* \"DeFI Accounting/Advanced DeFI Accounting S_C.sol\":4736:4744  _signers */\n      dup6\n        /* \"DeFI Accounting/Advanced DeFI Accounting S_C.sol\":4704:4774  MultiSigTransaction(msg.sender, _signers, _value, _description, false) */\n      dup2\n      mstore\n      0x20\n      add\n        /* \"DeFI Accounting/Advanced DeFI Accounting S_C.sol\":4746:4752  _value */\n      dup5\n        /* \"DeFI Accounting/Advanced DeFI Accounting S_C.sol\":4704:4774  MultiSigTransaction(msg.sender, _signers, _value, _description, false) */\n      dup2\n      mstore\n      0x20\n      add\n        /* \"DeFI Accounting/Advanced DeFI Accounting S_C.sol\":4754:4766  _description */\n      dup4\n        /* \"DeFI Accounting/Advanced DeFI Accounting S_C.sol\":4704:4774  MultiSigTransaction(msg.sender, _signers, _value, _description, false) */\n      dup2\n      mstore\n      0x20\n      add\n        /* \"DeFI Accounting/Advanced DeFI Accounting S_C.sol\":4768:4773  false */\n      0x00\n        /* \"DeFI Accounting/Advanced DeFI Accounting S_C.sol\":4704:4774  MultiSigTransaction(msg.sender, _signers, _value, _description, false) */\n      iszero\n      iszero\n      dup2\n      mstore\n      pop\n        /* \"DeFI Accounting/Advanced DeFI Accounting S_C.sol\":4666:4686  multiSigTransactions */\n      0x02\n        /* \"DeFI Accounting/Advanced DeFI Accounting S_C.sol\":4666:4701  multiSigTransactions[transactionId] */\n      0x00\n        /* \"DeFI Accounting/Advanced DeFI Accounting S_C.sol\":4687:4700  transactionId */\n      dup4\n        /* \"DeFI Accounting/Advanced DeFI Accounting S_C.sol\":4666:4701  multiSigTransactions[transactionId] */\n      dup2\n      mstore\n      0x20\n      add\n      swap1\n      dup2\n      mstore\n      0x20\n      add\n      0x00\n      keccak256\n        /* \"DeFI Accounting/Advanced DeFI Accounting S_C.sol\":4666:4774  multiSigTransactions[transactionId] = MultiSigTransaction(msg.sender, _signers, _value, _description, false) */\n      0x00\n      dup3\n      add\n      mload\n      dup2\n      0x00\n      add\n      exp(0x0100, 0x00)\n      dup2\n      sload\n      dup2\n      0xffffffffffffffffffffffffffffffffffffffff\n      mul\n      not\n      and\n      swap1\n      dup4\n      0xffffffffffffffffffffffffffffffffffffffff\n      and\n      mul\n      or\n      swap1\n      sstore\n      pop\n      0x20\n      dup3\n      add\n      mload\n      dup2\n      0x01\n      add\n      swap1\n      dup1\n      mload\n      swap1\n      0x20\n      add\n      swap1\n      tag_105\n      swap3\n      swap2\n      swap1\n      tag_106\n      jump\t// in\n    tag_105:\n      pop\n      0x40\n      dup3\n      add\n      mload\n      dup2\n      0x02\n      add\n      sstore\n      0x60\n      dup3\n      add\n      mload\n      dup2\n      0x03\n      add\n      swap1\n      dup2\n      tag_107\n      swap2\n      swap1\n      tag_108\n      jump\t// in\n    tag_107:\n      pop\n      0x80\n      dup3\n      add\n      mload\n      dup2\n      0x04\n      add\n      exp(0x0100, 0x00)\n      dup2\n      sload\n      dup2\n      0xff\n      mul\n      not\n      and\n      swap1\n      dup4\n      iszero\n      iszero\n      mul\n      or\n      swap1\n      sstore\n      pop\n      swap1\n      pop\n      pop\n        /* \"DeFI Accounting/Advanced DeFI Accounting S_C.sol\":4831:4841  msg.sender */\n      caller\n        /* \"DeFI Accounting/Advanced DeFI Accounting S_C.sol\":4789:4864  MultiSigTransactionCreated(transactionId, msg.sender, _value, _description) */\n      0xffffffffffffffffffffffffffffffffffffffff\n      and\n        /* \"DeFI Accounting/Advanced DeFI Accounting S_C.sol\":4816:4829  transactionId */\n      dup2\n        /* \"DeFI Accounting/Advanced DeFI Accounting S_C.sol\":4789:4864  MultiSigTransactionCreated(transactionId, msg.sender, _value, _description) */\n      0xfd74b5f657a19eb96ae7d01d747a216747c1454bc1722bbbce4b7f92e653070b\n        /* \"DeFI Accounting/Advanced DeFI Accounting S_C.sol\":4843:4849  _value */\n      dup6\n        /* \"DeFI Accounting/Advanced DeFI Accounting S_C.sol\":4851:4863  _description */\n      dup6\n        /* \"DeFI Accounting/Advanced DeFI Accounting S_C.sol\":4789:4864  MultiSigTransactionCreated(transactionId, msg.sender, _value, _description) */\n      mload(0x40)\n      tag_109\n      swap3\n      swap2\n      swap1\n      tag_110\n      jump\t// in\n    tag_109:\n      mload(0x40)\n      dup1\n      swap2\n      sub\n      swap1\n      log3\n        /* \"DeFI Accounting/Advanced DeFI Accounting S_C.sol\":4473:4871  {... */\n      pop\n        /* \"DeFI Accounting/Advanced DeFI Accounting S_C.sol\":4350:4871  function createMultiSigTransaction(address[] memory _signers, uint256 _value, string memory _description) public onlyOwner {... */\n      pop\n      pop\n      pop\n      jump\t// out\n        /* \"DeFI Accounting/Advanced DeFI Accounting S_C.sol\":3828:4292  function repayLoan(uint256 _loanIndex) public payable {... */\n    tag_50:\n        /* \"DeFI Accounting/Advanced DeFI Accounting S_C.sol\":3892:3909  Loan storage loan */\n      0x00\n        /* \"DeFI Accounting/Advanced DeFI Accounting S_C.sol\":3912:3917  loans */\n      0x01\n        /* \"DeFI Accounting/Advanced DeFI Accounting S_C.sol\":3912:3929  loans[msg.sender] */\n      0x00\n        /* \"DeFI Accounting/Advanced DeFI Accounting S_C.sol\":3918:3928  msg.sender */\n      caller\n        /* \"DeFI Accounting/Advanced DeFI Accounting S_C.sol\":3912:3929  loans[msg.sender] */\n      0xffffffffffffffffffffffffffffffffffffffff\n      and\n      0xffffffffffffffffffffffffffffffffffffffff\n      and\n      dup2\n      mstore\n      0x20\n      add\n      swap1\n      dup2\n      mstore\n      0x20\n      add\n      0x00\n      keccak256\n        /* \"DeFI Accounting/Advanced DeFI Accounting S_C.sol\":3930:3940  _loanIndex */\n      dup3\n        /* \"DeFI Accounting/Advanced DeFI Accounting S_C.sol\":3912:3941  loans[msg.sender][_loanIndex] */\n      dup2\n      sload\n      dup2\n      lt\n      tag_112\n      jumpi\n      tag_113\n      tag_114\n      jump\t// in\n    tag_113:\n    tag_112:\n      swap1\n      0x00\n      mstore\n      keccak256(0x00, 0x20)\n      swap1\n      0x04\n      mul\n      add\n        /* \"DeFI Accounting/Advanced DeFI Accounting S_C.sol\":3892:3941  Loan storage loan = loans[msg.sender][_loanIndex] */\n      swap1\n      pop\n        /* \"DeFI Accounting/Advanced DeFI Accounting S_C.sol\":3960:3964  loan */\n      dup1\n        /* \"DeFI Accounting/Advanced DeFI Accounting S_C.sol\":3960:3973  loan.isRepaid */\n      0x03\n      add\n      0x00\n      swap1\n      sload\n      swap1\n      0x0100\n      exp\n      swap1\n      div\n      0xff\n      and\n        /* \"DeFI Accounting/Advanced DeFI Accounting S_C.sol\":3959:3973  !loan.isRepaid */\n      iszero\n        /* \"DeFI Accounting/Advanced DeFI Accounting S_C.sol\":3951:4000  require(!loan.isRepaid, \"Loan is already repaid\") */\n      tag_116\n      jumpi\n      mload(0x40)\n      0x08c379a000000000000000000000000000000000000000000000000000000000\n      dup2\n      mstore\n      0x04\n      add\n      tag_117\n      swap1\n      tag_118\n      jump\t// in\n    tag_117:\n      mload(0x40)\n      dup1\n      swap2\n      sub\n      swap1\n      revert\n    tag_116:\n        /* \"DeFI Accounting/Advanced DeFI Accounting S_C.sol\":4010:4033  uint256 repaymentAmount */\n      0x00\n        /* \"DeFI Accounting/Advanced DeFI Accounting S_C.sol\":4050:4113  calculateInterest(loan.amount, loan.interestRate, loan.dueDate) */\n      tag_119\n        /* \"DeFI Accounting/Advanced DeFI Accounting S_C.sol\":4068:4072  loan */\n      dup3\n        /* \"DeFI Accounting/Advanced DeFI Accounting S_C.sol\":4068:4079  loan.amount */\n      0x00\n      add\n      sload\n        /* \"DeFI Accounting/Advanced DeFI Accounting S_C.sol\":4081:4085  loan */\n      dup4\n        /* \"DeFI Accounting/Advanced DeFI Accounting S_C.sol\":4081:4098  loan.interestRate */\n      0x01\n      add\n      sload\n        /* \"DeFI Accounting/Advanced DeFI Accounting S_C.sol\":4100:4104  loan */\n      dup5\n        /* \"DeFI Accounting/Advanced DeFI Accounting S_C.sol\":4100:4112  loan.dueDate */\n      0x02\n      add\n      sload\n        /* \"DeFI Accounting/Advanced DeFI Accounting S_C.sol\":4050:4067  calculateInterest */\n      tag_120\n        /* \"DeFI Accounting/Advanced DeFI Accounting S_C.sol\":4050:4113  calculateInterest(loan.amount, loan.interestRate, loan.dueDate) */\n      jump\t// in\n    tag_119:\n        /* \"DeFI Accounting/Advanced DeFI Accounting S_C.sol\":4036:4040  loan */\n      dup3\n        /* \"DeFI Accounting/Advanced DeFI Accounting S_C.sol\":4036:4047  loan.amount */\n      0x00\n      add\n      sload\n        /* \"DeFI Accounting/Advanced DeFI Accounting S_C.sol\":4036:4113  loan.amount + calculateInterest(loan.amount, loan.interestRate, loan.dueDate) */\n      tag_121\n      swap2\n      swap1\n      tag_74\n      jump\t// in\n    tag_121:\n        /* \"DeFI Accounting/Advanced DeFI Accounting S_C.sol\":4010:4113  uint256 repaymentAmount = loan.amount + calculateInterest(loan.amount, loan.interestRate, loan.dueDate) */\n      swap1\n      pop\n        /* \"DeFI Accounting/Advanced DeFI Accounting S_C.sol\":4144:4159  repaymentAmount */\n      dup1\n        /* \"DeFI Accounting/Advanced DeFI Accounting S_C.sol\":4131:4140  msg.value */\n      callvalue\n        /* \"DeFI Accounting/Advanced DeFI Accounting S_C.sol\":4131:4159  msg.value >= repaymentAmount */\n      lt\n      iszero\n        /* \"DeFI Accounting/Advanced DeFI Accounting S_C.sol\":4123:4201  require(msg.value >= repaymentAmount, \"Insufficient amount to repay the loan\") */\n      tag_122\n      jumpi\n      mload(0x40)\n      0x08c379a000000000000000000000000000000000000000000000000000000000\n      dup2\n      mstore\n      0x04\n      add\n      tag_123\n      swap1\n      tag_124\n      jump\t// in\n    tag_123:\n      mload(0x40)\n      dup1\n      swap2\n      sub\n      swap1\n      revert\n    tag_122:\n        /* \"DeFI Accounting/Advanced DeFI Accounting S_C.sol\":4227:4231  true */\n      0x01\n        /* \"DeFI Accounting/Advanced DeFI Accounting S_C.sol\":4211:4215  loan */\n      dup3\n        /* \"DeFI Accounting/Advanced DeFI Accounting S_C.sol\":4211:4224  loan.isRepaid */\n      0x03\n      add\n      0x00\n        /* \"DeFI Accounting/Advanced DeFI Accounting S_C.sol\":4211:4231  loan.isRepaid = true */\n      0x0100\n      exp\n      dup2\n      sload\n      dup2\n      0xff\n      mul\n      not\n      and\n      swap1\n      dup4\n      iszero\n      iszero\n      mul\n      or\n      swap1\n      sstore\n      pop\n        /* \"DeFI Accounting/Advanced DeFI Accounting S_C.sol\":4257:4267  msg.sender */\n      caller\n        /* \"DeFI Accounting/Advanced DeFI Accounting S_C.sol\":4246:4285  LoanRepaid(msg.sender, repaymentAmount) */\n      0xffffffffffffffffffffffffffffffffffffffff\n      and\n      0xc200a1f31dd659e356e0f112c82558e25f49f7b0f84438691cd96f5cb3558823\n        /* \"DeFI Accounting/Advanced DeFI Accounting S_C.sol\":4269:4284  repaymentAmount */\n      dup3\n        /* \"DeFI Accounting/Advanced DeFI Accounting S_C.sol\":4246:4285  LoanRepaid(msg.sender, repaymentAmount) */\n      mload(0x40)\n      tag_125\n      swap2\n      swap1\n      tag_64\n      jump\t// in\n    tag_125:\n      mload(0x40)\n      dup1\n      swap2\n      sub\n      swap1\n      log2\n        /* \"DeFI Accounting/Advanced DeFI Accounting S_C.sol\":3882:4292  {... */\n      pop\n      pop\n        /* \"DeFI Accounting/Advanced DeFI Accounting S_C.sol\":3828:4292  function repayLoan(uint256 _loanIndex) public payable {... */\n      pop\n      jump\t// out\n        /* \"DeFI Accounting/Advanced DeFI Accounting S_C.sol\":1259:1326  mapping(bytes32 => MultiSigTransaction) public multiSigTransactions */\n    tag_55:\n      mstore(0x20, 0x02)\n      dup1\n      0x00\n      mstore\n      keccak256(0x00, 0x40)\n      0x00\n      swap2\n      pop\n      swap1\n      pop\n      dup1\n      0x00\n      add\n      0x00\n      swap1\n      sload\n      swap1\n      0x0100\n      exp\n      swap1\n      div\n      0xffffffffffffffffffffffffffffffffffffffff\n      and\n      swap1\n      dup1\n      0x02\n      add\n      sload\n      swap1\n      dup1\n      0x03\n      add\n      dup1\n      sload\n      tag_126\n      swap1\n      tag_127\n      jump\t// in\n    tag_126:\n      dup1\n      0x1f\n      add\n      0x20\n      dup1\n      swap2\n      div\n      mul\n      0x20\n      add\n      mload(0x40)\n      swap1\n      dup2\n      add\n      0x40\n      mstore\n      dup1\n      swap3\n      swap2\n      swap1\n      dup2\n      dup2\n      mstore\n      0x20\n      add\n      dup3\n      dup1\n      sload\n      tag_128\n      swap1\n      tag_127\n      jump\t// in\n    tag_128:\n      dup1\n      iszero\n      tag_129\n      jumpi\n      dup1\n      0x1f\n      lt\n      tag_130\n      jumpi\n      0x0100\n      dup1\n      dup4\n      sload\n      div\n      mul\n      dup4\n      mstore\n      swap2\n      0x20\n      add\n      swap2\n      jump(tag_129)\n    tag_130:\n      dup3\n      add\n      swap2\n      swap1\n      0x00\n      mstore\n      keccak256(0x00, 0x20)\n      swap1\n    tag_131:\n      dup2\n      sload\n      dup2\n      mstore\n      swap1\n      0x01\n      add\n      swap1\n      0x20\n      add\n      dup1\n      dup4\n      gt\n      tag_131\n      jumpi\n      dup3\n      swap1\n      sub\n      0x1f\n      and\n      dup3\n      add\n      swap2\n    tag_129:\n      pop\n      pop\n      pop\n      pop\n      pop\n      swap1\n      dup1\n      0x04\n      add\n      0x00\n      swap1\n      sload\n      swap1\n      0x0100\n      exp\n      swap1\n      div\n      0xff\n      and\n      swap1\n      pop\n      dup5\n      jump\t// out\n        /* \"DeFI Accounting/Advanced DeFI Accounting S_C.sol\":2555:2768  function deposit() public payable {... */\n    tag_59:\n        /* \"DeFI Accounting/Advanced DeFI Accounting S_C.sol\":2619:2620  0 */\n      0x00\n        /* \"DeFI Accounting/Advanced DeFI Accounting S_C.sol\":2607:2616  msg.value */\n      callvalue\n        /* \"DeFI Accounting/Advanced DeFI Accounting S_C.sol\":2607:2620  msg.value > 0 */\n      gt\n        /* \"DeFI Accounting/Advanced DeFI Accounting S_C.sol\":2599:2661  require(msg.value > 0, \"Deposit value must be greater than 0\") */\n      tag_133\n      jumpi\n      mload(0x40)\n      0x08c379a000000000000000000000000000000000000000000000000000000000\n      dup2\n      mstore\n      0x04\n      add\n      tag_134\n      swap1\n      tag_135\n      jump\t// in\n    tag_134:\n      mload(0x40)\n      dup1\n      swap2\n      sub\n      swap1\n      revert\n    tag_133:\n        /* \"DeFI Accounting/Advanced DeFI Accounting S_C.sol\":2703:2712  msg.value */\n      callvalue\n        /* \"DeFI Accounting/Advanced DeFI Accounting S_C.sol\":2671:2679  accounts */\n      0x00\n        /* \"DeFI Accounting/Advanced DeFI Accounting S_C.sol\":2671:2691  accounts[msg.sender] */\n      dup1\n        /* \"DeFI Accounting/Advanced DeFI Accounting S_C.sol\":2680:2690  msg.sender */\n      caller\n        /* \"DeFI Accounting/Advanced DeFI Accounting S_C.sol\":2671:2691  accounts[msg.sender] */\n      0xffffffffffffffffffffffffffffffffffffffff\n      and\n      0xffffffffffffffffffffffffffffffffffffffff\n      and\n      dup2\n      mstore\n      0x20\n      add\n      swap1\n      dup2\n      mstore\n      0x20\n      add\n      0x00\n      keccak256\n        /* \"DeFI Accounting/Advanced DeFI Accounting S_C.sol\":2671:2699  accounts[msg.sender].balance */\n      0x00\n      add\n      0x00\n        /* \"DeFI Accounting/Advanced DeFI Accounting S_C.sol\":2671:2712  accounts[msg.sender].balance += msg.value */\n      dup3\n      dup3\n      sload\n      tag_136\n      swap2\n      swap1\n      tag_74\n      jump\t// in\n    tag_136:\n      swap3\n      pop\n      pop\n      dup2\n      swap1\n      sstore\n      pop\n        /* \"DeFI Accounting/Advanced DeFI Accounting S_C.sol\":2739:2749  msg.sender */\n      caller\n        /* \"DeFI Accounting/Advanced DeFI Accounting S_C.sol\":2727:2761  DepositMade(msg.sender, msg.value) */\n      0xffffffffffffffffffffffffffffffffffffffff\n      and\n      0xd15c9547ea5c06670c0010ce19bc32d54682a4b3801ece7f3ab0c3f17106b4bb\n        /* \"DeFI Accounting/Advanced DeFI Accounting S_C.sol\":2751:2760  msg.value */\n      callvalue\n        /* \"DeFI Accounting/Advanced DeFI Accounting S_C.sol\":2727:2761  DepositMade(msg.sender, msg.value) */\n      mload(0x40)\n      tag_137\n      swap2\n      swap1\n      tag_64\n      jump\t// in\n    tag_137:\n      mload(0x40)\n      dup1\n      swap2\n      sub\n      swap1\n      log2\n        /* \"DeFI Accounting/Advanced DeFI Accounting S_C.sol\":2555:2768  function deposit() public payable {... */\n      jump\t// out\n        /* \"DeFI Accounting/Advanced DeFI Accounting S_C.sol\":1552:1597  uint256 public constant TIME_LOCK = 1 minutes */\n    tag_62:\n        /* \"DeFI Accounting/Advanced DeFI Accounting S_C.sol\":1588:1597  1 minutes */\n      0x3c\n        /* \"DeFI Accounting/Advanced DeFI Accounting S_C.sol\":1552:1597  uint256 public constant TIME_LOCK = 1 minutes */\n      dup2\n      jump\t// out\n        /* \"DeFI Accounting/Advanced DeFI Accounting S_C.sol\":4955:5472  function executeMultiSigTransaction(bytes32 _transactionId) public {... */\n    tag_68:\n        /* \"DeFI Accounting/Advanced DeFI Accounting S_C.sol\":5032:5071  MultiSigTransaction storage transaction */\n      0x00\n        /* \"DeFI Accounting/Advanced DeFI Accounting S_C.sol\":5074:5094  multiSigTransactions */\n      0x02\n        /* \"DeFI Accounting/Advanced DeFI Accounting S_C.sol\":5074:5110  multiSigTransactions[_transactionId] */\n      0x00\n        /* \"DeFI Accounting/Advanced DeFI Accounting S_C.sol\":5095:5109  _transactionId */\n      dup4\n        /* \"DeFI Accounting/Advanced DeFI Accounting S_C.sol\":5074:5110  multiSigTransactions[_transactionId] */\n      dup2\n      mstore\n      0x20\n      add\n      swap1\n      dup2\n      mstore\n      0x20\n      add\n      0x00\n      keccak256\n        /* \"DeFI Accounting/Advanced DeFI Accounting S_C.sol\":5032:5110  MultiSigTransaction storage transaction = multiSigTransactions[_transactionId] */\n      swap1\n      pop\n        /* \"DeFI Accounting/Advanced DeFI Accounting S_C.sol\":5129:5140  transaction */\n      dup1\n        /* \"DeFI Accounting/Advanced DeFI Accounting S_C.sol\":5129:5149  transaction.executed */\n      0x04\n      add\n      0x00\n      swap1\n      sload\n      swap1\n      0x0100\n      exp\n      swap1\n      div\n      0xff\n      and\n        /* \"DeFI Accounting/Advanced DeFI Accounting S_C.sol\":5128:5149  !transaction.executed */\n      iszero\n        /* \"DeFI Accounting/Advanced DeFI Accounting S_C.sol\":5120:5182  require(!transaction.executed, \"Transaction already executed\") */\n      tag_139\n      jumpi\n      mload(0x40)\n      0x08c379a000000000000000000000000000000000000000000000000000000000\n      dup2\n      mstore\n      0x04\n      add\n      tag_140\n      swap1\n      tag_141\n      jump\t// in\n    tag_140:\n      mload(0x40)\n      dup1\n      swap2\n      sub\n      swap1\n      revert\n    tag_139:\n        /* \"DeFI Accounting/Advanced DeFI Accounting S_C.sol\":5200:5233  isSigner(transaction, msg.sender) */\n      tag_142\n        /* \"DeFI Accounting/Advanced DeFI Accounting S_C.sol\":5209:5220  transaction */\n      dup2\n        /* \"DeFI Accounting/Advanced DeFI Accounting S_C.sol\":5222:5232  msg.sender */\n      caller\n        /* \"DeFI Accounting/Advanced DeFI Accounting S_C.sol\":5200:5208  isSigner */\n      tag_143\n        /* \"DeFI Accounting/Advanced DeFI Accounting S_C.sol\":5200:5233  isSigner(transaction, msg.sender) */\n      jump\t// in\n    tag_142:\n        /* \"DeFI Accounting/Advanced DeFI Accounting S_C.sol\":5192:5260  require(isSigner(transaction, msg.sender), \"Caller is not a signer\") */\n      tag_144\n      jumpi\n      mload(0x40)\n      0x08c379a000000000000000000000000000000000000000000000000000000000\n      dup2\n      mstore\n      0x04\n      add\n      tag_145\n      swap1\n      tag_146\n      jump\t// in\n    tag_145:\n      mload(0x40)\n      dup1\n      swap2\n      sub\n      swap1\n      revert\n    tag_144:\n        /* \"DeFI Accounting/Advanced DeFI Accounting S_C.sol\":5293:5297  true */\n      0x01\n        /* \"DeFI Accounting/Advanced DeFI Accounting S_C.sol\":5270:5281  transaction */\n      dup2\n        /* \"DeFI Accounting/Advanced DeFI Accounting S_C.sol\":5270:5290  transaction.executed */\n      0x04\n      add\n      0x00\n        /* \"DeFI Accounting/Advanced DeFI Accounting S_C.sol\":5270:5297  transaction.executed = true */\n      0x0100\n      exp\n      dup2\n      sload\n      dup2\n      0xff\n      mul\n      not\n      and\n      swap1\n      dup4\n      iszero\n      iszero\n      mul\n      or\n      swap1\n      sstore\n      pop\n        /* \"DeFI Accounting/Advanced DeFI Accounting S_C.sol\":5454:5464  msg.sender */\n      caller\n        /* \"DeFI Accounting/Advanced DeFI Accounting S_C.sol\":5410:5465  MultiSigTransactionExecuted(_transactionId, msg.sender) */\n      0xffffffffffffffffffffffffffffffffffffffff\n      and\n        /* \"DeFI Accounting/Advanced DeFI Accounting S_C.sol\":5438:5452  _transactionId */\n      dup3\n        /* \"DeFI Accounting/Advanced DeFI Accounting S_C.sol\":5410:5465  MultiSigTransactionExecuted(_transactionId, msg.sender) */\n      0x7efc7e3e06efec0944252879d6ed13a80e06353f99e0ddcefdd6400391a8f5d8\n      mload(0x40)\n      mload(0x40)\n      dup1\n      swap2\n      sub\n      swap1\n      log3\n        /* \"DeFI Accounting/Advanced DeFI Accounting S_C.sol\":5022:5472  {... */\n      pop\n        /* \"DeFI Accounting/Advanced DeFI Accounting S_C.sol\":4955:5472  function executeMultiSigTransaction(bytes32 _transactionId) public {... */\n      pop\n      jump\t// out\n        /* \"DeFI Accounting/Advanced DeFI Accounting S_C.sol\":5524:5850  function calculateInterest(uint256 _amount, uint256 _interestRate, uint256 _dueDate) private view returns (uint256) {... */\n    tag_120:\n        /* \"DeFI Accounting/Advanced DeFI Accounting S_C.sol\":5631:5638  uint256 */\n      0x00\n        /* \"DeFI Accounting/Advanced DeFI Accounting S_C.sol\":5650:5669  uint256 timeElapsed */\n      dup1\n        /* \"DeFI Accounting/Advanced DeFI Accounting S_C.sol\":5690:5698  _dueDate */\n      dup3\n        /* \"DeFI Accounting/Advanced DeFI Accounting S_C.sol\":5672:5687  block.timestamp */\n      timestamp\n        /* \"DeFI Accounting/Advanced DeFI Accounting S_C.sol\":5672:5698  block.timestamp > _dueDate */\n      gt\n        /* \"DeFI Accounting/Advanced DeFI Accounting S_C.sol\":5672:5731  block.timestamp > _dueDate ? block.timestamp - _dueDate : 0 */\n      tag_148\n      jumpi\n        /* \"DeFI Accounting/Advanced DeFI Accounting S_C.sol\":5730:5731  0 */\n      0x00\n        /* \"DeFI Accounting/Advanced DeFI Accounting S_C.sol\":5672:5731  block.timestamp > _dueDate ? block.timestamp - _dueDate : 0 */\n      jump(tag_149)\n    tag_148:\n        /* \"DeFI Accounting/Advanced DeFI Accounting S_C.sol\":5719:5727  _dueDate */\n      dup3\n        /* \"DeFI Accounting/Advanced DeFI Accounting S_C.sol\":5701:5716  block.timestamp */\n      timestamp\n        /* \"DeFI Accounting/Advanced DeFI Accounting S_C.sol\":5701:5727  block.timestamp - _dueDate */\n      tag_150\n      swap2\n      swap1\n      tag_89\n      jump\t// in\n    tag_150:\n        /* \"DeFI Accounting/Advanced DeFI Accounting S_C.sol\":5672:5731  block.timestamp > _dueDate ? block.timestamp - _dueDate : 0 */\n    tag_149:\n        /* \"DeFI Accounting/Advanced DeFI Accounting S_C.sol\":5650:5731  uint256 timeElapsed = block.timestamp > _dueDate ? block.timestamp - _dueDate : 0 */\n      swap1\n      pop\n        /* \"DeFI Accounting/Advanced DeFI Accounting S_C.sol\":5741:5757  uint256 interest */\n      0x00\n        /* \"DeFI Accounting/Advanced DeFI Accounting S_C.sol\":5803:5817  365 days * 100 */\n      0xbbf81e00\n        /* \"DeFI Accounting/Advanced DeFI Accounting S_C.sol\":5787:5798  timeElapsed */\n      dup3\n        /* \"DeFI Accounting/Advanced DeFI Accounting S_C.sol\":5771:5784  _interestRate */\n      dup7\n        /* \"DeFI Accounting/Advanced DeFI Accounting S_C.sol\":5761:5768  _amount */\n      dup9\n        /* \"DeFI Accounting/Advanced DeFI Accounting S_C.sol\":5761:5784  _amount * _interestRate */\n      tag_151\n      swap2\n      swap1\n      tag_152\n      jump\t// in\n    tag_151:\n        /* \"DeFI Accounting/Advanced DeFI Accounting S_C.sol\":5761:5798  _amount * _interestRate * timeElapsed */\n      tag_153\n      swap2\n      swap1\n      tag_152\n      jump\t// in\n    tag_153:\n        /* \"DeFI Accounting/Advanced DeFI Accounting S_C.sol\":5760:5818  (_amount * _interestRate * timeElapsed) / (365 days * 100) */\n      tag_154\n      swap2\n      swap1\n      tag_155\n      jump\t// in\n    tag_154:\n        /* \"DeFI Accounting/Advanced DeFI Accounting S_C.sol\":5741:5818  uint256 interest = (_amount * _interestRate * timeElapsed) / (365 days * 100) */\n      swap1\n      pop\n        /* \"DeFI Accounting/Advanced DeFI Accounting S_C.sol\":5835:5843  interest */\n      dup1\n        /* \"DeFI Accounting/Advanced DeFI Accounting S_C.sol\":5828:5843  return interest */\n      swap3\n      pop\n      pop\n      pop\n        /* \"DeFI Accounting/Advanced DeFI Accounting S_C.sol\":5524:5850  function calculateInterest(uint256 _amount, uint256 _interestRate, uint256 _dueDate) private view returns (uint256) {... */\n      swap4\n      swap3\n      pop\n      pop\n      pop\n      jump\t// out\n        /* \"DeFI Accounting/Advanced DeFI Accounting S_C.sol\":5937:6246  function isSigner(MultiSigTransaction storage _transaction, address _signer) private view returns (bool) {... */\n    tag_143:\n        /* \"DeFI Accounting/Advanced DeFI Accounting S_C.sol\":6036:6040  bool */\n      0x00\n        /* \"DeFI Accounting/Advanced DeFI Accounting S_C.sol\":6057:6066  uint256 i */\n      dup1\n        /* \"DeFI Accounting/Advanced DeFI Accounting S_C.sol\":6069:6070  0 */\n      0x00\n        /* \"DeFI Accounting/Advanced DeFI Accounting S_C.sol\":6057:6070  uint256 i = 0 */\n      swap1\n      pop\n        /* \"DeFI Accounting/Advanced DeFI Accounting S_C.sol\":6052:6218  for (uint256 i = 0; i < _transaction.signers.length; i++) {... */\n    tag_157:\n        /* \"DeFI Accounting/Advanced DeFI Accounting S_C.sol\":6076:6088  _transaction */\n      dup4\n        /* \"DeFI Accounting/Advanced DeFI Accounting S_C.sol\":6076:6096  _transaction.signers */\n      0x01\n      add\n        /* \"DeFI Accounting/Advanced DeFI Accounting S_C.sol\":6076:6103  _transaction.signers.length */\n      dup1\n      sload\n      swap1\n      pop\n        /* \"DeFI Accounting/Advanced DeFI Accounting S_C.sol\":6072:6073  i */\n      dup2\n        /* \"DeFI Accounting/Advanced DeFI Accounting S_C.sol\":6072:6103  i < _transaction.signers.length */\n      lt\n        /* \"DeFI Accounting/Advanced DeFI Accounting S_C.sol\":6052:6218  for (uint256 i = 0; i < _transaction.signers.length; i++) {... */\n      iszero\n      tag_158\n      jumpi\n        /* \"DeFI Accounting/Advanced DeFI Accounting S_C.sol\":6155:6162  _signer */\n      dup3\n        /* \"DeFI Accounting/Advanced DeFI Accounting S_C.sol\":6128:6162  _transaction.signers[i] == _signer */\n      0xffffffffffffffffffffffffffffffffffffffff\n      and\n        /* \"DeFI Accounting/Advanced DeFI Accounting S_C.sol\":6128:6140  _transaction */\n      dup5\n        /* \"DeFI Accounting/Advanced DeFI Accounting S_C.sol\":6128:6148  _transaction.signers */\n      0x01\n      add\n        /* \"DeFI Accounting/Advanced DeFI Accounting S_C.sol\":6149:6150  i */\n      dup3\n        /* \"DeFI Accounting/Advanced DeFI Accounting S_C.sol\":6128:6151  _transaction.signers[i] */\n      dup2\n      sload\n      dup2\n      lt\n      tag_160\n      jumpi\n      tag_161\n      tag_114\n      jump\t// in\n    tag_161:\n    tag_160:\n      swap1\n      0x00\n      mstore\n      keccak256(0x00, 0x20)\n      add\n      0x00\n      swap1\n      sload\n      swap1\n      0x0100\n      exp\n      swap1\n      div\n      0xffffffffffffffffffffffffffffffffffffffff\n      and\n        /* \"DeFI Accounting/Advanced DeFI Accounting S_C.sol\":6128:6162  _transaction.signers[i] == _signer */\n      0xffffffffffffffffffffffffffffffffffffffff\n      and\n      sub\n        /* \"DeFI Accounting/Advanced DeFI Accounting S_C.sol\":6124:6208  if (_transaction.signers[i] == _signer) {... */\n      tag_163\n      jumpi\n        /* \"DeFI Accounting/Advanced DeFI Accounting S_C.sol\":6189:6193  true */\n      0x01\n        /* \"DeFI Accounting/Advanced DeFI Accounting S_C.sol\":6182:6193  return true */\n      swap2\n      pop\n      pop\n      jump(tag_156)\n        /* \"DeFI Accounting/Advanced DeFI Accounting S_C.sol\":6124:6208  if (_transaction.signers[i] == _signer) {... */\n    tag_163:\n        /* \"DeFI Accounting/Advanced DeFI Accounting S_C.sol\":6105:6108  i++ */\n      dup1\n      dup1\n      0x01\n      add\n      swap2\n      pop\n      pop\n        /* \"DeFI Accounting/Advanced DeFI Accounting S_C.sol\":6052:6218  for (uint256 i = 0; i < _transaction.signers.length; i++) {... */\n      jump(tag_157)\n    tag_158:\n      pop\n        /* \"DeFI Accounting/Advanced DeFI Accounting S_C.sol\":6234:6239  false */\n      0x00\n        /* \"DeFI Accounting/Advanced DeFI Accounting S_C.sol\":6227:6239  return false */\n      swap1\n      pop\n        /* \"DeFI Accounting/Advanced DeFI Accounting S_C.sol\":5937:6246  function isSigner(MultiSigTransaction storage _transaction, address _signer) private view returns (bool) {... */\n    tag_156:\n      swap3\n      swap2\n      pop\n      pop\n      jump\t// out\n    tag_106:\n      dup3\n      dup1\n      sload\n      dup3\n      dup3\n      sstore\n      swap1\n      0x00\n      mstore\n      keccak256(0x00, 0x20)\n      swap1\n      dup2\n      add\n      swap3\n      dup3\n      iszero\n      tag_164\n      jumpi\n      swap2\n      0x20\n      mul\n      dup3\n      add\n    tag_165:\n      dup3\n      dup2\n      gt\n      iszero\n      tag_166\n      jumpi\n      dup3\n      mload\n      dup3\n      exp(0x0100, 0x00)\n      dup2\n      sload\n      dup2\n      0xffffffffffffffffffffffffffffffffffffffff\n      mul\n      not\n      and\n      swap1\n      dup4\n      0xffffffffffffffffffffffffffffffffffffffff\n      and\n      mul\n      or\n      swap1\n      sstore\n      pop\n      swap2\n      0x20\n      add\n      swap2\n      swap1\n      0x01\n      add\n      swap1\n      jump(tag_165)\n    tag_166:\n    tag_164:\n      pop\n      swap1\n      pop\n      tag_167\n      swap2\n      swap1\n      tag_168\n      jump\t// in\n    tag_167:\n      pop\n      swap1\n      jump\t// out\n    tag_168:\n    tag_169:\n      dup1\n      dup3\n      gt\n      iszero\n      tag_170\n      jumpi\n      0x00\n      dup2\n      0x00\n      swap1\n      sstore\n      pop\n      0x01\n      add\n      jump(tag_169)\n    tag_170:\n      pop\n      swap1\n      jump\t// out\n        /* \"#utility.yul\":7:82   */\n    tag_171:\n        /* \"#utility.yul\":40:46   */\n      0x00\n        /* \"#utility.yul\":73:75   */\n      0x40\n        /* \"#utility.yul\":67:76   */\n      mload\n        /* \"#utility.yul\":57:76   */\n      swap1\n      pop\n        /* \"#utility.yul\":7:82   */\n      swap1\n      jump\t// out\n        /* \"#utility.yul\":88:205   */\n    tag_172:\n        /* \"#utility.yul\":197:198   */\n      0x00\n        /* \"#utility.yul\":194:195   */\n      dup1\n        /* \"#utility.yul\":187:199   */\n      revert\n        /* \"#utility.yul\":211:328   */\n    tag_173:\n        /* \"#utility.yul\":320:321   */\n      0x00\n        /* \"#utility.yul\":317:318   */\n      dup1\n        /* \"#utility.yul\":310:322   */\n      revert\n        /* \"#utility.yul\":334:411   */\n    tag_174:\n        /* \"#utility.yul\":371:378   */\n      0x00\n        /* \"#utility.yul\":400:405   */\n      dup2\n        /* \"#utility.yul\":389:405   */\n      swap1\n      pop\n        /* \"#utility.yul\":334:411   */\n      swap2\n      swap1\n      pop\n      jump\t// out\n        /* \"#utility.yul\":417:539   */\n    tag_175:\n        /* \"#utility.yul\":490:514   */\n      tag_258\n        /* \"#utility.yul\":508:513   */\n      dup2\n        /* \"#utility.yul\":490:514   */\n      tag_174\n      jump\t// in\n    tag_258:\n        /* \"#utility.yul\":483:488   */\n      dup2\n        /* \"#utility.yul\":480:515   */\n      eq\n        /* \"#utility.yul\":470:533   */\n      tag_259\n      jumpi\n        /* \"#utility.yul\":529:530   */\n      0x00\n        /* \"#utility.yul\":526:527   */\n      dup1\n        /* \"#utility.yul\":519:531   */\n      revert\n        /* \"#utility.yul\":470:533   */\n    tag_259:\n        /* \"#utility.yul\":417:539   */\n      pop\n      jump\t// out\n        /* \"#utility.yul\":545:684   */\n    tag_176:\n        /* \"#utility.yul\":591:596   */\n      0x00\n        /* \"#utility.yul\":629:635   */\n      dup2\n        /* \"#utility.yul\":616:636   */\n      calldataload\n        /* \"#utility.yul\":607:636   */\n      swap1\n      pop\n        /* \"#utility.yul\":645:678   */\n      tag_261\n        /* \"#utility.yul\":672:677   */\n      dup2\n        /* \"#utility.yul\":645:678   */\n      tag_175\n      jump\t// in\n    tag_261:\n        /* \"#utility.yul\":545:684   */\n      swap3\n      swap2\n      pop\n      pop\n      jump\t// out\n        /* \"#utility.yul\":690:1309   */\n    tag_17:\n        /* \"#utility.yul\":767:773   */\n      0x00\n        /* \"#utility.yul\":775:781   */\n      dup1\n        /* \"#utility.yul\":783:789   */\n      0x00\n        /* \"#utility.yul\":832:834   */\n      0x60\n        /* \"#utility.yul\":820:829   */\n      dup5\n        /* \"#utility.yul\":811:818   */\n      dup7\n        /* \"#utility.yul\":807:830   */\n      sub\n        /* \"#utility.yul\":803:835   */\n      slt\n        /* \"#utility.yul\":800:919   */\n      iszero\n      tag_263\n      jumpi\n        /* \"#utility.yul\":838:917   */\n      tag_264\n      tag_172\n      jump\t// in\n    tag_264:\n        /* \"#utility.yul\":800:919   */\n    tag_263:\n        /* \"#utility.yul\":958:959   */\n      0x00\n        /* \"#utility.yul\":983:1036   */\n      tag_265\n        /* \"#utility.yul\":1028:1035   */\n      dup7\n        /* \"#utility.yul\":1019:1025   */\n      dup3\n        /* \"#utility.yul\":1008:1017   */\n      dup8\n        /* \"#utility.yul\":1004:1026   */\n      add\n        /* \"#utility.yul\":983:1036   */\n      tag_176\n      jump\t// in\n    tag_265:\n        /* \"#utility.yul\":973:1036   */\n      swap4\n      pop\n        /* \"#utility.yul\":929:1046   */\n      pop\n        /* \"#utility.yul\":1085:1087   */\n      0x20\n        /* \"#utility.yul\":1111:1164   */\n      tag_266\n        /* \"#utility.yul\":1156:1163   */\n      dup7\n        /* \"#utility.yul\":1147:1153   */\n      dup3\n        /* \"#utility.yul\":1136:1145   */\n      dup8\n        /* \"#utility.yul\":1132:1154   */\n      add\n        /* \"#utility.yul\":1111:1164   */\n      tag_176\n      jump\t// in\n    tag_266:\n        /* \"#utility.yul\":1101:1164   */\n      swap3\n      pop\n        /* \"#utility.yul\":1056:1174   */\n      pop\n        /* \"#utility.yul\":1213:1215   */\n      0x40\n        /* \"#utility.yul\":1239:1292   */\n      tag_267\n        /* \"#utility.yul\":1284:1291   */\n      dup7\n        /* \"#utility.yul\":1275:1281   */\n      dup3\n        /* \"#utility.yul\":1264:1273   */\n      dup8\n        /* \"#utility.yul\":1260:1282   */\n      add\n        /* \"#utility.yul\":1239:1292   */\n      tag_176\n      jump\t// in\n    tag_267:\n        /* \"#utility.yul\":1229:1292   */\n      swap2\n      pop\n        /* \"#utility.yul\":1184:1302   */\n      pop\n        /* \"#utility.yul\":690:1309   */\n      swap3\n      pop\n      swap3\n      pop\n      swap3\n      jump\t// out\n        /* \"#utility.yul\":1315:1644   */\n    tag_22:\n        /* \"#utility.yul\":1374:1380   */\n      0x00\n        /* \"#utility.yul\":1423:1425   */\n      0x20\n        /* \"#utility.yul\":1411:1420   */\n      dup3\n        /* \"#utility.yul\":1402:1409   */\n      dup5\n        /* \"#utility.yul\":1398:1421   */\n      sub\n        /* \"#utility.yul\":1394:1426   */\n      slt\n        /* \"#utility.yul\":1391:1510   */\n      iszero\n      tag_269\n      jumpi\n        /* \"#utility.yul\":1429:1508   */\n      tag_270\n      tag_172\n      jump\t// in\n    tag_270:\n        /* \"#utility.yul\":1391:1510   */\n    tag_269:\n        /* \"#utility.yul\":1549:1550   */\n      0x00\n        /* \"#utility.yul\":1574:1627   */\n      tag_271\n        /* \"#utility.yul\":1619:1626   */\n      dup5\n        /* \"#utility.yul\":1610:1616   */\n      dup3\n        /* \"#utility.yul\":1599:1608   */\n      dup6\n        /* \"#utility.yul\":1595:1617   */\n      add\n        /* \"#utility.yul\":1574:1627   */\n      tag_176\n      jump\t// in\n    tag_271:\n        /* \"#utility.yul\":1564:1627   */\n      swap2\n      pop\n        /* \"#utility.yul\":1520:1637   */\n      pop\n        /* \"#utility.yul\":1315:1644   */\n      swap3\n      swap2\n      pop\n      pop\n      jump\t// out\n        /* \"#utility.yul\":1650:1776   */\n    tag_177:\n        /* \"#utility.yul\":1687:1694   */\n      0x00\n        /* \"#utility.yul\":1727:1769   */\n      0xffffffffffffffffffffffffffffffffffffffff\n        /* \"#utility.yul\":1720:1725   */\n      dup3\n        /* \"#utility.yul\":1716:1770   */\n      and\n        /* \"#utility.yul\":1705:1770   */\n      swap1\n      pop\n        /* \"#utility.yul\":1650:1776   */\n      swap2\n      swap1\n      pop\n      jump\t// out\n        /* \"#utility.yul\":1782:1878   */\n    tag_178:\n        /* \"#utility.yul\":1819:1826   */\n      0x00\n        /* \"#utility.yul\":1848:1872   */\n      tag_274\n        /* \"#utility.yul\":1866:1871   */\n      dup3\n        /* \"#utility.yul\":1848:1872   */\n      tag_177\n      jump\t// in\n    tag_274:\n        /* \"#utility.yul\":1837:1872   */\n      swap1\n      pop\n        /* \"#utility.yul\":1782:1878   */\n      swap2\n      swap1\n      pop\n      jump\t// out\n        /* \"#utility.yul\":1884:2006   */\n    tag_179:\n        /* \"#utility.yul\":1957:1981   */\n      tag_276\n        /* \"#utility.yul\":1975:1980   */\n      dup2\n        /* \"#utility.yul\":1957:1981   */\n      tag_178\n      jump\t// in\n    tag_276:\n        /* \"#utility.yul\":1950:1955   */\n      dup2\n        /* \"#utility.yul\":1947:1982   */\n      eq\n        /* \"#utility.yul\":1937:2000   */\n      tag_277\n      jumpi\n        /* \"#utility.yul\":1996:1997   */\n      0x00\n        /* \"#utility.yul\":1993:1994   */\n      dup1\n        /* \"#utility.yul\":1986:1998   */\n      revert\n        /* \"#utility.yul\":1937:2000   */\n    tag_277:\n        /* \"#utility.yul\":1884:2006   */\n      pop\n      jump\t// out\n        /* \"#utility.yul\":2012:2151   */\n    tag_180:\n        /* \"#utility.yul\":2058:2063   */\n      0x00\n        /* \"#utility.yul\":2096:2102   */\n      dup2\n        /* \"#utility.yul\":2083:2103   */\n      calldataload\n        /* \"#utility.yul\":2074:2103   */\n      swap1\n      pop\n        /* \"#utility.yul\":2112:2145   */\n      tag_279\n        /* \"#utility.yul\":2139:2144   */\n      dup2\n        /* \"#utility.yul\":2112:2145   */\n      tag_179\n      jump\t// in\n    tag_279:\n        /* \"#utility.yul\":2012:2151   */\n      swap3\n      swap2\n      pop\n      pop\n      jump\t// out\n        /* \"#utility.yul\":2157:2486   */\n    tag_27:\n        /* \"#utility.yul\":2216:2222   */\n      0x00\n        /* \"#utility.yul\":2265:2267   */\n      0x20\n        /* \"#utility.yul\":2253:2262   */\n      dup3\n        /* \"#utility.yul\":2244:2251   */\n      dup5\n        /* \"#utility.yul\":2240:2263   */\n      sub\n        /* \"#utility.yul\":2236:2268   */\n      slt\n        /* \"#utility.yul\":2233:2352   */\n      iszero\n      tag_281\n      jumpi\n        /* \"#utility.yul\":2271:2350   */\n      tag_282\n      tag_172\n      jump\t// in\n    tag_282:\n        /* \"#utility.yul\":2233:2352   */\n    tag_281:\n        /* \"#utility.yul\":2391:2392   */\n      0x00\n        /* \"#utility.yul\":2416:2469   */\n      tag_283\n        /* \"#utility.yul\":2461:2468   */\n      dup5\n        /* \"#utility.yul\":2452:2458   */\n      dup3\n        /* \"#utility.yul\":2441:2450   */\n      dup6\n        /* \"#utility.yul\":2437:2459   */\n      add\n        /* \"#utility.yul\":2416:2469   */\n      tag_180\n      jump\t// in\n    tag_283:\n        /* \"#utility.yul\":2406:2469   */\n      swap2\n      pop\n        /* \"#utility.yul\":2362:2479   */\n      pop\n        /* \"#utility.yul\":2157:2486   */\n      swap3\n      swap2\n      pop\n      pop\n      jump\t// out\n        /* \"#utility.yul\":2492:2610   */\n    tag_181:\n        /* \"#utility.yul\":2579:2603   */\n      tag_285\n        /* \"#utility.yul\":2597:2602   */\n      dup2\n        /* \"#utility.yul\":2579:2603   */\n      tag_174\n      jump\t// in\n    tag_285:\n        /* \"#utility.yul\":2574:2577   */\n      dup3\n        /* \"#utility.yul\":2567:2604   */\n      mstore\n        /* \"#utility.yul\":2492:2610   */\n      pop\n      pop\n      jump\t// out\n        /* \"#utility.yul\":2616:2948   */\n    tag_30:\n        /* \"#utility.yul\":2737:2741   */\n      0x00\n        /* \"#utility.yul\":2775:2777   */\n      0x40\n        /* \"#utility.yul\":2764:2773   */\n      dup3\n        /* \"#utility.yul\":2760:2778   */\n      add\n        /* \"#utility.yul\":2752:2778   */\n      swap1\n      pop\n        /* \"#utility.yul\":2788:2859   */\n      tag_287\n        /* \"#utility.yul\":2856:2857   */\n      0x00\n        /* \"#utility.yul\":2845:2854   */\n      dup4\n        /* \"#utility.yul\":2841:2858   */\n      add\n        /* \"#utility.yul\":2832:2838   */\n      dup6\n        /* \"#utility.yul\":2788:2859   */\n      tag_181\n      jump\t// in\n    tag_287:\n        /* \"#utility.yul\":2869:2941   */\n      tag_288\n        /* \"#utility.yul\":2937:2939   */\n      0x20\n        /* \"#utility.yul\":2926:2935   */\n      dup4\n        /* \"#utility.yul\":2922:2940   */\n      add\n        /* \"#utility.yul\":2913:2919   */\n      dup5\n        /* \"#utility.yul\":2869:2941   */\n      tag_181\n      jump\t// in\n    tag_288:\n        /* \"#utility.yul\":2616:2948   */\n      swap4\n      swap3\n      pop\n      pop\n      pop\n      jump\t// out\n        /* \"#utility.yul\":2954:3072   */\n    tag_182:\n        /* \"#utility.yul\":3041:3065   */\n      tag_290\n        /* \"#utility.yul\":3059:3064   */\n      dup2\n        /* \"#utility.yul\":3041:3065   */\n      tag_178\n      jump\t// in\n    tag_290:\n        /* \"#utility.yul\":3036:3039   */\n      dup3\n        /* \"#utility.yul\":3029:3066   */\n      mstore\n        /* \"#utility.yul\":2954:3072   */\n      pop\n      pop\n      jump\t// out\n        /* \"#utility.yul\":3078:3300   */\n    tag_35:\n        /* \"#utility.yul\":3171:3175   */\n      0x00\n        /* \"#utility.yul\":3209:3211   */\n      0x20\n        /* \"#utility.yul\":3198:3207   */\n      dup3\n        /* \"#utility.yul\":3194:3212   */\n      add\n        /* \"#utility.yul\":3186:3212   */\n      swap1\n      pop\n        /* \"#utility.yul\":3222:3293   */\n      tag_292\n        /* \"#utility.yul\":3290:3291   */\n      0x00\n        /* \"#utility.yul\":3279:3288   */\n      dup4\n        /* \"#utility.yul\":3275:3292   */\n      add\n        /* \"#utility.yul\":3266:3272   */\n      dup5\n        /* \"#utility.yul\":3222:3293   */\n      tag_182\n      jump\t// in\n    tag_292:\n        /* \"#utility.yul\":3078:3300   */\n      swap3\n      swap2\n      pop\n      pop\n      jump\t// out\n        /* \"#utility.yul\":3306:3780   */\n    tag_39:\n        /* \"#utility.yul\":3374:3380   */\n      0x00\n        /* \"#utility.yul\":3382:3388   */\n      dup1\n        /* \"#utility.yul\":3431:3433   */\n      0x40\n        /* \"#utility.yul\":3419:3428   */\n      dup4\n        /* \"#utility.yul\":3410:3417   */\n      dup6\n        /* \"#utility.yul\":3406:3429   */\n      sub\n        /* \"#utility.yul\":3402:3434   */\n      slt\n        /* \"#utility.yul\":3399:3518   */\n      iszero\n      tag_294\n      jumpi\n        /* \"#utility.yul\":3437:3516   */\n      tag_295\n      tag_172\n      jump\t// in\n    tag_295:\n        /* \"#utility.yul\":3399:3518   */\n    tag_294:\n        /* \"#utility.yul\":3557:3558   */\n      0x00\n        /* \"#utility.yul\":3582:3635   */\n      tag_296\n        /* \"#utility.yul\":3627:3634   */\n      dup6\n        /* \"#utility.yul\":3618:3624   */\n      dup3\n        /* \"#utility.yul\":3607:3616   */\n      dup7\n        /* \"#utility.yul\":3603:3625   */\n      add\n        /* \"#utility.yul\":3582:3635   */\n      tag_180\n      jump\t// in\n    tag_296:\n        /* \"#utility.yul\":3572:3635   */\n      swap3\n      pop\n        /* \"#utility.yul\":3528:3645   */\n      pop\n        /* \"#utility.yul\":3684:3686   */\n      0x20\n        /* \"#utility.yul\":3710:3763   */\n      tag_297\n        /* \"#utility.yul\":3755:3762   */\n      dup6\n        /* \"#utility.yul\":3746:3752   */\n      dup3\n        /* \"#utility.yul\":3735:3744   */\n      dup7\n        /* \"#utility.yul\":3731:3753   */\n      add\n        /* \"#utility.yul\":3710:3763   */\n      tag_176\n      jump\t// in\n    tag_297:\n        /* \"#utility.yul\":3700:3763   */\n      swap2\n      pop\n        /* \"#utility.yul\":3655:3773   */\n      pop\n        /* \"#utility.yul\":3306:3780   */\n      swap3\n      pop\n      swap3\n      swap1\n      pop\n      jump\t// out\n        /* \"#utility.yul\":3786:3876   */\n    tag_183:\n        /* \"#utility.yul\":3820:3827   */\n      0x00\n        /* \"#utility.yul\":3863:3868   */\n      dup2\n        /* \"#utility.yul\":3856:3869   */\n      iszero\n        /* \"#utility.yul\":3849:3870   */\n      iszero\n        /* \"#utility.yul\":3838:3870   */\n      swap1\n      pop\n        /* \"#utility.yul\":3786:3876   */\n      swap2\n      swap1\n      pop\n      jump\t// out\n        /* \"#utility.yul\":3882:3991   */\n    tag_184:\n        /* \"#utility.yul\":3963:3984   */\n      tag_300\n        /* \"#utility.yul\":3978:3983   */\n      dup2\n        /* \"#utility.yul\":3963:3984   */\n      tag_183\n      jump\t// in\n    tag_300:\n        /* \"#utility.yul\":3958:3961   */\n      dup3\n        /* \"#utility.yul\":3951:3985   */\n      mstore\n        /* \"#utility.yul\":3882:3991   */\n      pop\n      pop\n      jump\t// out\n        /* \"#utility.yul\":3997:4538   */\n    tag_42:\n        /* \"#utility.yul\":4168:4172   */\n      0x00\n        /* \"#utility.yul\":4206:4209   */\n      0x80\n        /* \"#utility.yul\":4195:4204   */\n      dup3\n        /* \"#utility.yul\":4191:4210   */\n      add\n        /* \"#utility.yul\":4183:4210   */\n      swap1\n      pop\n        /* \"#utility.yul\":4220:4291   */\n      tag_302\n        /* \"#utility.yul\":4288:4289   */\n      0x00\n        /* \"#utility.yul\":4277:4286   */\n      dup4\n        /* \"#utility.yul\":4273:4290   */\n      add\n        /* \"#utility.yul\":4264:4270   */\n      dup8\n        /* \"#utility.yul\":4220:4291   */\n      tag_181\n      jump\t// in\n    tag_302:\n        /* \"#utility.yul\":4301:4373   */\n      tag_303\n        /* \"#utility.yul\":4369:4371   */\n      0x20\n        /* \"#utility.yul\":4358:4367   */\n      dup4\n        /* \"#utility.yul\":4354:4372   */\n      add\n        /* \"#utility.yul\":4345:4351   */\n      dup7\n        /* \"#utility.yul\":4301:4373   */\n      tag_181\n      jump\t// in\n    tag_303:\n        /* \"#utility.yul\":4383:4455   */\n      tag_304\n        /* \"#utility.yul\":4451:4453   */\n      0x40\n        /* \"#utility.yul\":4440:4449   */\n      dup4\n        /* \"#utility.yul\":4436:4454   */\n      add\n        /* \"#utility.yul\":4427:4433   */\n      dup6\n        /* \"#utility.yul\":4383:4455   */\n      tag_181\n      jump\t// in\n    tag_304:\n        /* \"#utility.yul\":4465:4531   */\n      tag_305\n        /* \"#utility.yul\":4527:4529   */\n      0x60\n        /* \"#utility.yul\":4516:4525   */\n      dup4\n        /* \"#utility.yul\":4512:4530   */\n      add\n        /* \"#utility.yul\":4503:4509   */\n      dup5\n        /* \"#utility.yul\":4465:4531   */\n      tag_184\n      jump\t// in\n    tag_305:\n        /* \"#utility.yul\":3997:4538   */\n      swap6\n      swap5\n      pop\n      pop\n      pop\n      pop\n      pop\n      jump\t// out\n        /* \"#utility.yul\":4544:4661   */\n    tag_185:\n        /* \"#utility.yul\":4653:4654   */\n      0x00\n        /* \"#utility.yul\":4650:4651   */\n      dup1\n        /* \"#utility.yul\":4643:4655   */\n      revert\n        /* \"#utility.yul\":4667:4769   */\n    tag_186:\n        /* \"#utility.yul\":4708:4714   */\n      0x00\n        /* \"#utility.yul\":4759:4761   */\n      0x1f\n        /* \"#utility.yul\":4755:4762   */\n      not\n        /* \"#utility.yul\":4750:4752   */\n      0x1f\n        /* \"#utility.yul\":4743:4748   */\n      dup4\n        /* \"#utility.yul\":4739:4753   */\n      add\n        /* \"#utility.yul\":4735:4763   */\n      and\n        /* \"#utility.yul\":4725:4763   */\n      swap1\n      pop\n        /* \"#utility.yul\":4667:4769   */\n      swap2\n      swap1\n      pop\n      jump\t// out\n        /* \"#utility.yul\":4775:4955   */\n    tag_187:\n        /* \"#utility.yul\":4823:4900   */\n      0x4e487b7100000000000000000000000000000000000000000000000000000000\n        /* \"#utility.yul\":4820:4821   */\n      0x00\n        /* \"#utility.yul\":4813:4901   */\n      mstore\n        /* \"#utility.yul\":4920:4924   */\n      0x41\n        /* \"#utility.yul\":4917:4918   */\n      0x04\n        /* \"#utility.yul\":4910:4925   */\n      mstore\n        /* \"#utility.yul\":4944:4948   */\n      0x24\n        /* \"#utility.yul\":4941:4942   */\n      0x00\n        /* \"#utility.yul\":4934:4949   */\n      revert\n        /* \"#utility.yul\":4961:5242   */\n    tag_188:\n        /* \"#utility.yul\":5044:5071   */\n      tag_310\n        /* \"#utility.yul\":5066:5070   */\n      dup3\n        /* \"#utility.yul\":5044:5071   */\n      tag_186\n      jump\t// in\n    tag_310:\n        /* \"#utility.yul\":5036:5042   */\n      dup2\n        /* \"#utility.yul\":5032:5072   */\n      add\n        /* \"#utility.yul\":5174:5180   */\n      dup2\n        /* \"#utility.yul\":5162:5172   */\n      dup2\n        /* \"#utility.yul\":5159:5181   */\n      lt\n        /* \"#utility.yul\":5138:5156   */\n      0xffffffffffffffff\n        /* \"#utility.yul\":5126:5136   */\n      dup3\n        /* \"#utility.yul\":5123:5157   */\n      gt\n        /* \"#utility.yul\":5120:5182   */\n      or\n        /* \"#utility.yul\":5117:5205   */\n      iszero\n      tag_311\n      jumpi\n        /* \"#utility.yul\":5185:5203   */\n      tag_312\n      tag_187\n      jump\t// in\n    tag_312:\n        /* \"#utility.yul\":5117:5205   */\n    tag_311:\n        /* \"#utility.yul\":5225:5235   */\n      dup1\n        /* \"#utility.yul\":5221:5223   */\n      0x40\n        /* \"#utility.yul\":5214:5236   */\n      mstore\n        /* \"#utility.yul\":5004:5242   */\n      pop\n        /* \"#utility.yul\":4961:5242   */\n      pop\n      pop\n      jump\t// out\n        /* \"#utility.yul\":5248:5377   */\n    tag_189:\n        /* \"#utility.yul\":5282:5288   */\n      0x00\n        /* \"#utility.yul\":5309:5329   */\n      tag_314\n      tag_171\n      jump\t// in\n    tag_314:\n        /* \"#utility.yul\":5299:5329   */\n      swap1\n      pop\n        /* \"#utility.yul\":5338:5371   */\n      tag_315\n        /* \"#utility.yul\":5366:5370   */\n      dup3\n        /* \"#utility.yul\":5358:5364   */\n      dup3\n        /* \"#utility.yul\":5338:5371   */\n      tag_188\n      jump\t// in\n    tag_315:\n        /* \"#utility.yul\":5248:5377   */\n      swap2\n      swap1\n      pop\n      jump\t// out\n        /* \"#utility.yul\":5383:5694   */\n    tag_190:\n        /* \"#utility.yul\":5460:5464   */\n      0x00\n        /* \"#utility.yul\":5550:5568   */\n      0xffffffffffffffff\n        /* \"#utility.yul\":5542:5548   */\n      dup3\n        /* \"#utility.yul\":5539:5569   */\n      gt\n        /* \"#utility.yul\":5536:5592   */\n      iszero\n      tag_317\n      jumpi\n        /* \"#utility.yul\":5572:5590   */\n      tag_318\n      tag_187\n      jump\t// in\n    tag_318:\n        /* \"#utility.yul\":5536:5592   */\n    tag_317:\n        /* \"#utility.yul\":5622:5626   */\n      0x20\n        /* \"#utility.yul\":5614:5620   */\n      dup3\n        /* \"#utility.yul\":5610:5627   */\n      mul\n        /* \"#utility.yul\":5602:5627   */\n      swap1\n      pop\n        /* \"#utility.yul\":5682:5686   */\n      0x20\n        /* \"#utility.yul\":5676:5680   */\n      dup2\n        /* \"#utility.yul\":5672:5687   */\n      add\n        /* \"#utility.yul\":5664:5687   */\n      swap1\n      pop\n        /* \"#utility.yul\":5383:5694   */\n      swap2\n      swap1\n      pop\n      jump\t// out\n        /* \"#utility.yul\":5700:5817   */\n    tag_191:\n        /* \"#utility.yul\":5809:5810   */\n      0x00\n        /* \"#utility.yul\":5806:5807   */\n      dup1\n        /* \"#utility.yul\":5799:5811   */\n      revert\n        /* \"#utility.yul\":5840:6550   */\n    tag_192:\n        /* \"#utility.yul\":5936:5941   */\n      0x00\n        /* \"#utility.yul\":5961:6042   */\n      tag_321\n        /* \"#utility.yul\":5977:6041   */\n      tag_322\n        /* \"#utility.yul\":6034:6040   */\n      dup5\n        /* \"#utility.yul\":5977:6041   */\n      tag_190\n      jump\t// in\n    tag_322:\n        /* \"#utility.yul\":5961:6042   */\n      tag_189\n      jump\t// in\n    tag_321:\n        /* \"#utility.yul\":5952:6042   */\n      swap1\n      pop\n        /* \"#utility.yul\":6062:6067   */\n      dup1\n        /* \"#utility.yul\":6091:6097   */\n      dup4\n        /* \"#utility.yul\":6084:6089   */\n      dup3\n        /* \"#utility.yul\":6077:6098   */\n      mstore\n        /* \"#utility.yul\":6125:6129   */\n      0x20\n        /* \"#utility.yul\":6118:6123   */\n      dup3\n        /* \"#utility.yul\":6114:6130   */\n      add\n        /* \"#utility.yul\":6107:6130   */\n      swap1\n      pop\n        /* \"#utility.yul\":6178:6182   */\n      0x20\n        /* \"#utility.yul\":6170:6176   */\n      dup5\n        /* \"#utility.yul\":6166:6183   */\n      mul\n        /* \"#utility.yul\":6158:6164   */\n      dup4\n        /* \"#utility.yul\":6154:6184   */\n      add\n        /* \"#utility.yul\":6207:6210   */\n      dup6\n        /* \"#utility.yul\":6199:6205   */\n      dup2\n        /* \"#utility.yul\":6196:6211   */\n      gt\n        /* \"#utility.yul\":6193:6315   */\n      iszero\n      tag_323\n      jumpi\n        /* \"#utility.yul\":6226:6305   */\n      tag_324\n      tag_191\n      jump\t// in\n    tag_324:\n        /* \"#utility.yul\":6193:6315   */\n    tag_323:\n        /* \"#utility.yul\":6341:6347   */\n      dup4\n        /* \"#utility.yul\":6324:6544   */\n    tag_325:\n        /* \"#utility.yul\":6358:6364   */\n      dup2\n        /* \"#utility.yul\":6353:6356   */\n      dup2\n        /* \"#utility.yul\":6350:6365   */\n      lt\n        /* \"#utility.yul\":6324:6544   */\n      iszero\n      tag_327\n      jumpi\n        /* \"#utility.yul\":6433:6436   */\n      dup1\n        /* \"#utility.yul\":6462:6499   */\n      tag_328\n        /* \"#utility.yul\":6495:6498   */\n      dup9\n        /* \"#utility.yul\":6483:6493   */\n      dup3\n        /* \"#utility.yul\":6462:6499   */\n      tag_180\n      jump\t// in\n    tag_328:\n        /* \"#utility.yul\":6457:6460   */\n      dup5\n        /* \"#utility.yul\":6450:6500   */\n      mstore\n        /* \"#utility.yul\":6529:6533   */\n      0x20\n        /* \"#utility.yul\":6524:6527   */\n      dup5\n        /* \"#utility.yul\":6520:6534   */\n      add\n        /* \"#utility.yul\":6513:6534   */\n      swap4\n      pop\n        /* \"#utility.yul\":6400:6544   */\n      pop\n        /* \"#utility.yul\":6384:6388   */\n      0x20\n        /* \"#utility.yul\":6379:6382   */\n      dup2\n        /* \"#utility.yul\":6375:6389   */\n      add\n        /* \"#utility.yul\":6368:6389   */\n      swap1\n      pop\n        /* \"#utility.yul\":6324:6544   */\n      jump(tag_325)\n    tag_327:\n        /* \"#utility.yul\":6328:6349   */\n      pop\n        /* \"#utility.yul\":5942:6550   */\n      pop\n      pop\n        /* \"#utility.yul\":5840:6550   */\n      swap4\n      swap3\n      pop\n      pop\n      pop\n      jump\t// out\n        /* \"#utility.yul\":6573:6943   */\n    tag_193:\n        /* \"#utility.yul\":6644:6649   */\n      0x00\n        /* \"#utility.yul\":6693:6696   */\n      dup3\n        /* \"#utility.yul\":6686:6690   */\n      0x1f\n        /* \"#utility.yul\":6678:6684   */\n      dup4\n        /* \"#utility.yul\":6674:6691   */\n      add\n        /* \"#utility.yul\":6670:6697   */\n      slt\n        /* \"#utility.yul\":6660:6782   */\n      tag_330\n      jumpi\n        /* \"#utility.yul\":6701:6780   */\n      tag_331\n      tag_185\n      jump\t// in\n    tag_331:\n        /* \"#utility.yul\":6660:6782   */\n    tag_330:\n        /* \"#utility.yul\":6818:6824   */\n      dup2\n        /* \"#utility.yul\":6805:6825   */\n      calldataload\n        /* \"#utility.yul\":6843:6937   */\n      tag_332\n        /* \"#utility.yul\":6933:6936   */\n      dup5\n        /* \"#utility.yul\":6925:6931   */\n      dup3\n        /* \"#utility.yul\":6918:6922   */\n      0x20\n        /* \"#utility.yul\":6910:6916   */\n      dup7\n        /* \"#utility.yul\":6906:6923   */\n      add\n        /* \"#utility.yul\":6843:6937   */\n      tag_192\n      jump\t// in\n    tag_332:\n        /* \"#utility.yul\":6834:6937   */\n      swap2\n      pop\n        /* \"#utility.yul\":6650:6943   */\n      pop\n        /* \"#utility.yul\":6573:6943   */\n      swap3\n      swap2\n      pop\n      pop\n      jump\t// out\n        /* \"#utility.yul\":6949:7066   */\n    tag_194:\n        /* \"#utility.yul\":7058:7059   */\n      0x00\n        /* \"#utility.yul\":7055:7056   */\n      dup1\n        /* \"#utility.yul\":7048:7060   */\n      revert\n        /* \"#utility.yul\":7072:7380   */\n    tag_195:\n        /* \"#utility.yul\":7134:7138   */\n      0x00\n        /* \"#utility.yul\":7224:7242   */\n      0xffffffffffffffff\n        /* \"#utility.yul\":7216:7222   */\n      dup3\n        /* \"#utility.yul\":7213:7243   */\n      gt\n        /* \"#utility.yul\":7210:7266   */\n      iszero\n      tag_335\n      jumpi\n        /* \"#utility.yul\":7246:7264   */\n      tag_336\n      tag_187\n      jump\t// in\n    tag_336:\n        /* \"#utility.yul\":7210:7266   */\n    tag_335:\n        /* \"#utility.yul\":7284:7313   */\n      tag_337\n        /* \"#utility.yul\":7306:7312   */\n      dup3\n        /* \"#utility.yul\":7284:7313   */\n      tag_186\n      jump\t// in\n    tag_337:\n        /* \"#utility.yul\":7276:7313   */\n      swap1\n      pop\n        /* \"#utility.yul\":7368:7372   */\n      0x20\n        /* \"#utility.yul\":7362:7366   */\n      dup2\n        /* \"#utility.yul\":7358:7373   */\n      add\n        /* \"#utility.yul\":7350:7373   */\n      swap1\n      pop\n        /* \"#utility.yul\":7072:7380   */\n      swap2\n      swap1\n      pop\n      jump\t// out\n        /* \"#utility.yul\":7386:7532   */\n    tag_196:\n        /* \"#utility.yul\":7483:7489   */\n      dup3\n        /* \"#utility.yul\":7478:7481   */\n      dup2\n        /* \"#utility.yul\":7473:7476   */\n      dup4\n        /* \"#utility.yul\":7460:7490   */\n      calldatacopy\n        /* \"#utility.yul\":7524:7525   */\n      0x00\n        /* \"#utility.yul\":7515:7521   */\n      dup4\n        /* \"#utility.yul\":7510:7513   */\n      dup4\n        /* \"#utility.yul\":7506:7522   */\n      add\n        /* \"#utility.yul\":7499:7526   */\n      mstore\n        /* \"#utility.yul\":7386:7532   */\n      pop\n      pop\n      pop\n      jump\t// out\n        /* \"#utility.yul\":7538:7963   */\n    tag_197:\n        /* \"#utility.yul\":7616:7621   */\n      0x00\n        /* \"#utility.yul\":7641:7707   */\n      tag_340\n        /* \"#utility.yul\":7657:7706   */\n      tag_341\n        /* \"#utility.yul\":7699:7705   */\n      dup5\n        /* \"#utility.yul\":7657:7706   */\n      tag_195\n      jump\t// in\n    tag_341:\n        /* \"#utility.yul\":7641:7707   */\n      tag_189\n      jump\t// in\n    tag_340:\n        /* \"#utility.yul\":7632:7707   */\n      swap1\n      pop\n        /* \"#utility.yul\":7730:7736   */\n      dup3\n        /* \"#utility.yul\":7723:7728   */\n      dup2\n        /* \"#utility.yul\":7716:7737   */\n      mstore\n        /* \"#utility.yul\":7768:7772   */\n      0x20\n        /* \"#utility.yul\":7761:7766   */\n      dup2\n        /* \"#utility.yul\":7757:7773   */\n      add\n        /* \"#utility.yul\":7806:7809   */\n      dup5\n        /* \"#utility.yul\":7797:7803   */\n      dup5\n        /* \"#utility.yul\":7792:7795   */\n      dup5\n        /* \"#utility.yul\":7788:7804   */\n      add\n        /* \"#utility.yul\":7785:7810   */\n      gt\n        /* \"#utility.yul\":7782:7894   */\n      iszero\n      tag_342\n      jumpi\n        /* \"#utility.yul\":7813:7892   */\n      tag_343\n      tag_194\n      jump\t// in\n    tag_343:\n        /* \"#utility.yul\":7782:7894   */\n    tag_342:\n        /* \"#utility.yul\":7903:7957   */\n      tag_344\n        /* \"#utility.yul\":7950:7956   */\n      dup5\n        /* \"#utility.yul\":7945:7948   */\n      dup3\n        /* \"#utility.yul\":7940:7943   */\n      dup6\n        /* \"#utility.yul\":7903:7957   */\n      tag_196\n      jump\t// in\n    tag_344:\n        /* \"#utility.yul\":7622:7963   */\n      pop\n        /* \"#utility.yul\":7538:7963   */\n      swap4\n      swap3\n      pop\n      pop\n      pop\n      jump\t// out\n        /* \"#utility.yul\":7983:8323   */\n    tag_198:\n        /* \"#utility.yul\":8039:8044   */\n      0x00\n        /* \"#utility.yul\":8088:8091   */\n      dup3\n        /* \"#utility.yul\":8081:8085   */\n      0x1f\n        /* \"#utility.yul\":8073:8079   */\n      dup4\n        /* \"#utility.yul\":8069:8086   */\n      add\n        /* \"#utility.yul\":8065:8092   */\n      slt\n        /* \"#utility.yul\":8055:8177   */\n      tag_346\n      jumpi\n        /* \"#utility.yul\":8096:8175   */\n      tag_347\n      tag_185\n      jump\t// in\n    tag_347:\n        /* \"#utility.yul\":8055:8177   */\n    tag_346:\n        /* \"#utility.yul\":8213:8219   */\n      dup2\n        /* \"#utility.yul\":8200:8220   */\n      calldataload\n        /* \"#utility.yul\":8238:8317   */\n      tag_348\n        /* \"#utility.yul\":8313:8316   */\n      dup5\n        /* \"#utility.yul\":8305:8311   */\n      dup3\n        /* \"#utility.yul\":8298:8302   */\n      0x20\n        /* \"#utility.yul\":8290:8296   */\n      dup7\n        /* \"#utility.yul\":8286:8303   */\n      add\n        /* \"#utility.yul\":8238:8317   */\n      tag_197\n      jump\t// in\n    tag_348:\n        /* \"#utility.yul\":8229:8317   */\n      swap2\n      pop\n        /* \"#utility.yul\":8045:8323   */\n      pop\n        /* \"#utility.yul\":7983:8323   */\n      swap3\n      swap2\n      pop\n      pop\n      jump\t// out\n        /* \"#utility.yul\":8329:9338   */\n    tag_46:\n        /* \"#utility.yul\":8441:8447   */\n      0x00\n        /* \"#utility.yul\":8449:8455   */\n      dup1\n        /* \"#utility.yul\":8457:8463   */\n      0x00\n        /* \"#utility.yul\":8506:8508   */\n      0x60\n        /* \"#utility.yul\":8494:8503   */\n      dup5\n        /* \"#utility.yul\":8485:8492   */\n      dup7\n        /* \"#utility.yul\":8481:8504   */\n      sub\n        /* \"#utility.yul\":8477:8509   */\n      slt\n        /* \"#utility.yul\":8474:8593   */\n      iszero\n      tag_350\n      jumpi\n        /* \"#utility.yul\":8512:8591   */\n      tag_351\n      tag_172\n      jump\t// in\n    tag_351:\n        /* \"#utility.yul\":8474:8593   */\n    tag_350:\n        /* \"#utility.yul\":8660:8661   */\n      0x00\n        /* \"#utility.yul\":8649:8658   */\n      dup5\n        /* \"#utility.yul\":8645:8662   */\n      add\n        /* \"#utility.yul\":8632:8663   */\n      calldataload\n        /* \"#utility.yul\":8690:8708   */\n      0xffffffffffffffff\n        /* \"#utility.yul\":8682:8688   */\n      dup2\n        /* \"#utility.yul\":8679:8709   */\n      gt\n        /* \"#utility.yul\":8676:8793   */\n      iszero\n      tag_352\n      jumpi\n        /* \"#utility.yul\":8712:8791   */\n      tag_353\n      tag_173\n      jump\t// in\n    tag_353:\n        /* \"#utility.yul\":8676:8793   */\n    tag_352:\n        /* \"#utility.yul\":8817:8895   */\n      tag_354\n        /* \"#utility.yul\":8887:8894   */\n      dup7\n        /* \"#utility.yul\":8878:8884   */\n      dup3\n        /* \"#utility.yul\":8867:8876   */\n      dup8\n        /* \"#utility.yul\":8863:8885   */\n      add\n        /* \"#utility.yul\":8817:8895   */\n      tag_193\n      jump\t// in\n    tag_354:\n        /* \"#utility.yul\":8807:8895   */\n      swap4\n      pop\n        /* \"#utility.yul\":8603:8905   */\n      pop\n        /* \"#utility.yul\":8944:8946   */\n      0x20\n        /* \"#utility.yul\":8970:9023   */\n      tag_355\n        /* \"#utility.yul\":9015:9022   */\n      dup7\n        /* \"#utility.yul\":9006:9012   */\n      dup3\n        /* \"#utility.yul\":8995:9004   */\n      dup8\n        /* \"#utility.yul\":8991:9013   */\n      add\n        /* \"#utility.yul\":8970:9023   */\n      tag_176\n      jump\t// in\n    tag_355:\n        /* \"#utility.yul\":8960:9023   */\n      swap3\n      pop\n        /* \"#utility.yul\":8915:9033   */\n      pop\n        /* \"#utility.yul\":9100:9102   */\n      0x40\n        /* \"#utility.yul\":9089:9098   */\n      dup5\n        /* \"#utility.yul\":9085:9103   */\n      add\n        /* \"#utility.yul\":9072:9104   */\n      calldataload\n        /* \"#utility.yul\":9131:9149   */\n      0xffffffffffffffff\n        /* \"#utility.yul\":9123:9129   */\n      dup2\n        /* \"#utility.yul\":9120:9150   */\n      gt\n        /* \"#utility.yul\":9117:9234   */\n      iszero\n      tag_356\n      jumpi\n        /* \"#utility.yul\":9153:9232   */\n      tag_357\n      tag_173\n      jump\t// in\n    tag_357:\n        /* \"#utility.yul\":9117:9234   */\n    tag_356:\n        /* \"#utility.yul\":9258:9321   */\n      tag_358\n        /* \"#utility.yul\":9313:9320   */\n      dup7\n        /* \"#utility.yul\":9304:9310   */\n      dup3\n        /* \"#utility.yul\":9293:9302   */\n      dup8\n        /* \"#utility.yul\":9289:9311   */\n      add\n        /* \"#utility.yul\":9258:9321   */\n      tag_198\n      jump\t// in\n    tag_358:\n        /* \"#utility.yul\":9248:9321   */\n      swap2\n      pop\n        /* \"#utility.yul\":9043:9331   */\n      pop\n        /* \"#utility.yul\":8329:9338   */\n      swap3\n      pop\n      swap3\n      pop\n      swap3\n      jump\t// out\n        /* \"#utility.yul\":9344:9421   */\n    tag_199:\n        /* \"#utility.yul\":9381:9388   */\n      0x00\n        /* \"#utility.yul\":9410:9415   */\n      dup2\n        /* \"#utility.yul\":9399:9415   */\n      swap1\n      pop\n        /* \"#utility.yul\":9344:9421   */\n      swap2\n      swap1\n      pop\n      jump\t// out\n        /* \"#utility.yul\":9427:9549   */\n    tag_200:\n        /* \"#utility.yul\":9500:9524   */\n      tag_361\n        /* \"#utility.yul\":9518:9523   */\n      dup2\n        /* \"#utility.yul\":9500:9524   */\n      tag_199\n      jump\t// in\n    tag_361:\n        /* \"#utility.yul\":9493:9498   */\n      dup2\n        /* \"#utility.yul\":9490:9525   */\n      eq\n        /* \"#utility.yul\":9480:9543   */\n      tag_362\n      jumpi\n        /* \"#utility.yul\":9539:9540   */\n      0x00\n        /* \"#utility.yul\":9536:9537   */\n      dup1\n        /* \"#utility.yul\":9529:9541   */\n      revert\n        /* \"#utility.yul\":9480:9543   */\n    tag_362:\n        /* \"#utility.yul\":9427:9549   */\n      pop\n      jump\t// out\n        /* \"#utility.yul\":9555:9694   */\n    tag_201:\n        /* \"#utility.yul\":9601:9606   */\n      0x00\n        /* \"#utility.yul\":9639:9645   */\n      dup2\n        /* \"#utility.yul\":9626:9646   */\n      calldataload\n        /* \"#utility.yul\":9617:9646   */\n      swap1\n      pop\n        /* \"#utility.yul\":9655:9688   */\n      tag_364\n        /* \"#utility.yul\":9682:9687   */\n      dup2\n        /* \"#utility.yul\":9655:9688   */\n      tag_200\n      jump\t// in\n    tag_364:\n        /* \"#utility.yul\":9555:9694   */\n      swap3\n      swap2\n      pop\n      pop\n      jump\t// out\n        /* \"#utility.yul\":9700:10029   */\n    tag_54:\n        /* \"#utility.yul\":9759:9765   */\n      0x00\n        /* \"#utility.yul\":9808:9810   */\n      0x20\n        /* \"#utility.yul\":9796:9805   */\n      dup3\n        /* \"#utility.yul\":9787:9794   */\n      dup5\n        /* \"#utility.yul\":9783:9806   */\n      sub\n        /* \"#utility.yul\":9779:9811   */\n      slt\n        /* \"#utility.yul\":9776:9895   */\n      iszero\n      tag_366\n      jumpi\n        /* \"#utility.yul\":9814:9893   */\n      tag_367\n      tag_172\n      jump\t// in\n    tag_367:\n        /* \"#utility.yul\":9776:9895   */\n    tag_366:\n        /* \"#utility.yul\":9934:9935   */\n      0x00\n        /* \"#utility.yul\":9959:10012   */\n      tag_368\n        /* \"#utility.yul\":10004:10011   */\n      dup5\n        /* \"#utility.yul\":9995:10001   */\n      dup3\n        /* \"#utility.yul\":9984:9993   */\n      dup6\n        /* \"#utility.yul\":9980:10002   */\n      add\n        /* \"#utility.yul\":9959:10012   */\n      tag_201\n      jump\t// in\n    tag_368:\n        /* \"#utility.yul\":9949:10012   */\n      swap2\n      pop\n        /* \"#utility.yul\":9905:10022   */\n      pop\n        /* \"#utility.yul\":9700:10029   */\n      swap3\n      swap2\n      pop\n      pop\n      jump\t// out\n        /* \"#utility.yul\":10035:10134   */\n    tag_202:\n        /* \"#utility.yul\":10087:10093   */\n      0x00\n        /* \"#utility.yul\":10121:10126   */\n      dup2\n        /* \"#utility.yul\":10115:10127   */\n      mload\n        /* \"#utility.yul\":10105:10127   */\n      swap1\n      pop\n        /* \"#utility.yul\":10035:10134   */\n      swap2\n      swap1\n      pop\n      jump\t// out\n        /* \"#utility.yul\":10140:10309   */\n    tag_203:\n        /* \"#utility.yul\":10224:10235   */\n      0x00\n        /* \"#utility.yul\":10258:10264   */\n      dup3\n        /* \"#utility.yul\":10253:10256   */\n      dup3\n        /* \"#utility.yul\":10246:10265   */\n      mstore\n        /* \"#utility.yul\":10298:10302   */\n      0x20\n        /* \"#utility.yul\":10293:10296   */\n      dup3\n        /* \"#utility.yul\":10289:10303   */\n      add\n        /* \"#utility.yul\":10274:10303   */\n      swap1\n      pop\n        /* \"#utility.yul\":10140:10309   */\n      swap3\n      swap2\n      pop\n      pop\n      jump\t// out\n        /* \"#utility.yul\":10315:10561   */\n    tag_204:\n        /* \"#utility.yul\":10396:10397   */\n      0x00\n        /* \"#utility.yul\":10406:10519   */\n    tag_372:\n        /* \"#utility.yul\":10420:10426   */\n      dup4\n        /* \"#utility.yul\":10417:10418   */\n      dup2\n        /* \"#utility.yul\":10414:10427   */\n      lt\n        /* \"#utility.yul\":10406:10519   */\n      iszero\n      tag_374\n      jumpi\n        /* \"#utility.yul\":10505:10506   */\n      dup1\n        /* \"#utility.yul\":10500:10503   */\n      dup3\n        /* \"#utility.yul\":10496:10507   */\n      add\n        /* \"#utility.yul\":10490:10508   */\n      mload\n        /* \"#utility.yul\":10486:10487   */\n      dup2\n        /* \"#utility.yul\":10481:10484   */\n      dup5\n        /* \"#utility.yul\":10477:10488   */\n      add\n        /* \"#utility.yul\":10470:10509   */\n      mstore\n        /* \"#utility.yul\":10442:10444   */\n      0x20\n        /* \"#utility.yul\":10439:10440   */\n      dup2\n        /* \"#utility.yul\":10435:10445   */\n      add\n        /* \"#utility.yul\":10430:10445   */\n      swap1\n      pop\n        /* \"#utility.yul\":10406:10519   */\n      jump(tag_372)\n    tag_374:\n        /* \"#utility.yul\":10553:10554   */\n      0x00\n        /* \"#utility.yul\":10544:10550   */\n      dup5\n        /* \"#utility.yul\":10539:10542   */\n      dup5\n        /* \"#utility.yul\":10535:10551   */\n      add\n        /* \"#utility.yul\":10528:10555   */\n      mstore\n        /* \"#utility.yul\":10377:10561   */\n      pop\n        /* \"#utility.yul\":10315:10561   */\n      pop\n      pop\n      pop\n      jump\t// out\n        /* \"#utility.yul\":10567:10944   */\n    tag_205:\n        /* \"#utility.yul\":10655:10658   */\n      0x00\n        /* \"#utility.yul\":10683:10722   */\n      tag_376\n        /* \"#utility.yul\":10716:10721   */\n      dup3\n        /* \"#utility.yul\":10683:10722   */\n      tag_202\n      jump\t// in\n    tag_376:\n        /* \"#utility.yul\":10738:10809   */\n      tag_377\n        /* \"#utility.yul\":10802:10808   */\n      dup2\n        /* \"#utility.yul\":10797:10800   */\n      dup6\n        /* \"#utility.yul\":10738:10809   */\n      tag_203\n      jump\t// in\n    tag_377:\n        /* \"#utility.yul\":10731:10809   */\n      swap4\n      pop\n        /* \"#utility.yul\":10818:10883   */\n      tag_378\n        /* \"#utility.yul\":10876:10882   */\n      dup2\n        /* \"#utility.yul\":10871:10874   */\n      dup6\n        /* \"#utility.yul\":10864:10868   */\n      0x20\n        /* \"#utility.yul\":10857:10862   */\n      dup7\n        /* \"#utility.yul\":10853:10869   */\n      add\n        /* \"#utility.yul\":10818:10883   */\n      tag_204\n      jump\t// in\n    tag_378:\n        /* \"#utility.yul\":10908:10937   */\n      tag_379\n        /* \"#utility.yul\":10930:10936   */\n      dup2\n        /* \"#utility.yul\":10908:10937   */\n      tag_186\n      jump\t// in\n    tag_379:\n        /* \"#utility.yul\":10903:10906   */\n      dup5\n        /* \"#utility.yul\":10899:10938   */\n      add\n        /* \"#utility.yul\":10892:10938   */\n      swap2\n      pop\n        /* \"#utility.yul\":10659:10944   */\n      pop\n        /* \"#utility.yul\":10567:10944   */\n      swap3\n      swap2\n      pop\n      pop\n      jump\t// out\n        /* \"#utility.yul\":10950:11582   */\n    tag_57:\n        /* \"#utility.yul\":11141:11145   */\n      0x00\n        /* \"#utility.yul\":11179:11182   */\n      0x80\n        /* \"#utility.yul\":11168:11177   */\n      dup3\n        /* \"#utility.yul\":11164:11183   */\n      add\n        /* \"#utility.yul\":11156:11183   */\n      swap1\n      pop\n        /* \"#utility.yul\":11193:11264   */\n      tag_381\n        /* \"#utility.yul\":11261:11262   */\n      0x00\n        /* \"#utility.yul\":11250:11259   */\n      dup4\n        /* \"#utility.yul\":11246:11263   */\n      add\n        /* \"#utility.yul\":11237:11243   */\n      dup8\n        /* \"#utility.yul\":11193:11264   */\n      tag_182\n      jump\t// in\n    tag_381:\n        /* \"#utility.yul\":11274:11346   */\n      tag_382\n        /* \"#utility.yul\":11342:11344   */\n      0x20\n        /* \"#utility.yul\":11331:11340   */\n      dup4\n        /* \"#utility.yul\":11327:11345   */\n      add\n        /* \"#utility.yul\":11318:11324   */\n      dup7\n        /* \"#utility.yul\":11274:11346   */\n      tag_181\n      jump\t// in\n    tag_382:\n        /* \"#utility.yul\":11393:11402   */\n      dup2\n        /* \"#utility.yul\":11387:11391   */\n      dup2\n        /* \"#utility.yul\":11383:11403   */\n      sub\n        /* \"#utility.yul\":11378:11380   */\n      0x40\n        /* \"#utility.yul\":11367:11376   */\n      dup4\n        /* \"#utility.yul\":11363:11381   */\n      add\n        /* \"#utility.yul\":11356:11404   */\n      mstore\n        /* \"#utility.yul\":11421:11499   */\n      tag_383\n        /* \"#utility.yul\":11494:11498   */\n      dup2\n        /* \"#utility.yul\":11485:11491   */\n      dup6\n        /* \"#utility.yul\":11421:11499   */\n      tag_205\n      jump\t// in\n    tag_383:\n        /* \"#utility.yul\":11413:11499   */\n      swap1\n      pop\n        /* \"#utility.yul\":11509:11575   */\n      tag_384\n        /* \"#utility.yul\":11571:11573   */\n      0x60\n        /* \"#utility.yul\":11560:11569   */\n      dup4\n        /* \"#utility.yul\":11556:11574   */\n      add\n        /* \"#utility.yul\":11547:11553   */\n      dup5\n        /* \"#utility.yul\":11509:11575   */\n      tag_184\n      jump\t// in\n    tag_384:\n        /* \"#utility.yul\":10950:11582   */\n      swap6\n      swap5\n      pop\n      pop\n      pop\n      pop\n      pop\n      jump\t// out\n        /* \"#utility.yul\":11588:11810   */\n    tag_64:\n        /* \"#utility.yul\":11681:11685   */\n      0x00\n        /* \"#utility.yul\":11719:11721   */\n      0x20\n        /* \"#utility.yul\":11708:11717   */\n      dup3\n        /* \"#utility.yul\":11704:11722   */\n      add\n        /* \"#utility.yul\":11696:11722   */\n      swap1\n      pop\n        /* \"#utility.yul\":11732:11803   */\n      tag_386\n        /* \"#utility.yul\":11800:11801   */\n      0x00\n        /* \"#utility.yul\":11789:11798   */\n      dup4\n        /* \"#utility.yul\":11785:11802   */\n      add\n        /* \"#utility.yul\":11776:11782   */\n      dup5\n        /* \"#utility.yul\":11732:11803   */\n      tag_181\n      jump\t// in\n    tag_386:\n        /* \"#utility.yul\":11588:11810   */\n      swap3\n      swap2\n      pop\n      pop\n      jump\t// out\n        /* \"#utility.yul\":11816:12037   */\n    tag_206:\n        /* \"#utility.yul\":11956:11990   */\n      0x4c6f616e20616d6f756e74206d7573742062652067726561746572207468616e\n        /* \"#utility.yul\":11952:11953   */\n      0x00\n        /* \"#utility.yul\":11944:11950   */\n      dup3\n        /* \"#utility.yul\":11940:11954   */\n      add\n        /* \"#utility.yul\":11933:11991   */\n      mstore\n        /* \"#utility.yul\":12025:12029   */\n      0x2030000000000000000000000000000000000000000000000000000000000000\n        /* \"#utility.yul\":12020:12022   */\n      0x20\n        /* \"#utility.yul\":12012:12018   */\n      dup3\n        /* \"#utility.yul\":12008:12023   */\n      add\n        /* \"#utility.yul\":12001:12030   */\n      mstore\n        /* \"#utility.yul\":11816:12037   */\n      pop\n      jump\t// out\n        /* \"#utility.yul\":12043:12409   */\n    tag_207:\n        /* \"#utility.yul\":12185:12188   */\n      0x00\n        /* \"#utility.yul\":12206:12273   */\n      tag_389\n        /* \"#utility.yul\":12270:12272   */\n      0x22\n        /* \"#utility.yul\":12265:12268   */\n      dup4\n        /* \"#utility.yul\":12206:12273   */\n      tag_203\n      jump\t// in\n    tag_389:\n        /* \"#utility.yul\":12199:12273   */\n      swap2\n      pop\n        /* \"#utility.yul\":12282:12375   */\n      tag_390\n        /* \"#utility.yul\":12371:12374   */\n      dup3\n        /* \"#utility.yul\":12282:12375   */\n      tag_206\n      jump\t// in\n    tag_390:\n        /* \"#utility.yul\":12400:12402   */\n      0x40\n        /* \"#utility.yul\":12395:12398   */\n      dup3\n        /* \"#utility.yul\":12391:12403   */\n      add\n        /* \"#utility.yul\":12384:12403   */\n      swap1\n      pop\n        /* \"#utility.yul\":12043:12409   */\n      swap2\n      swap1\n      pop\n      jump\t// out\n        /* \"#utility.yul\":12415:12834   */\n    tag_72:\n        /* \"#utility.yul\":12581:12585   */\n      0x00\n        /* \"#utility.yul\":12619:12621   */\n      0x20\n        /* \"#utility.yul\":12608:12617   */\n      dup3\n        /* \"#utility.yul\":12604:12622   */\n      add\n        /* \"#utility.yul\":12596:12622   */\n      swap1\n      pop\n        /* \"#utility.yul\":12668:12677   */\n      dup2\n        /* \"#utility.yul\":12662:12666   */\n      dup2\n        /* \"#utility.yul\":12658:12678   */\n      sub\n        /* \"#utility.yul\":12654:12655   */\n      0x00\n        /* \"#utility.yul\":12643:12652   */\n      dup4\n        /* \"#utility.yul\":12639:12656   */\n      add\n        /* \"#utility.yul\":12632:12679   */\n      mstore\n        /* \"#utility.yul\":12696:12827   */\n      tag_392\n        /* \"#utility.yul\":12822:12826   */\n      dup2\n        /* \"#utility.yul\":12696:12827   */\n      tag_207\n      jump\t// in\n    tag_392:\n        /* \"#utility.yul\":12688:12827   */\n      swap1\n      pop\n        /* \"#utility.yul\":12415:12834   */\n      swap2\n      swap1\n      pop\n      jump\t// out\n        /* \"#utility.yul\":12840:13020   */\n    tag_208:\n        /* \"#utility.yul\":12888:12965   */\n      0x4e487b7100000000000000000000000000000000000000000000000000000000\n        /* \"#utility.yul\":12885:12886   */\n      0x00\n        /* \"#utility.yul\":12878:12966   */\n      mstore\n        /* \"#utility.yul\":12985:12989   */\n      0x11\n        /* \"#utility.yul\":12982:12983   */\n      0x04\n        /* \"#utility.yul\":12975:12990   */\n      mstore\n        /* \"#utility.yul\":13009:13013   */\n      0x24\n        /* \"#utility.yul\":13006:13007   */\n      0x00\n        /* \"#utility.yul\":12999:13014   */\n      revert\n        /* \"#utility.yul\":13026:13217   */\n    tag_74:\n        /* \"#utility.yul\":13066:13069   */\n      0x00\n        /* \"#utility.yul\":13085:13105   */\n      tag_395\n        /* \"#utility.yul\":13103:13104   */\n      dup3\n        /* \"#utility.yul\":13085:13105   */\n      tag_174\n      jump\t// in\n    tag_395:\n        /* \"#utility.yul\":13080:13105   */\n      swap2\n      pop\n        /* \"#utility.yul\":13119:13139   */\n      tag_396\n        /* \"#utility.yul\":13137:13138   */\n      dup4\n        /* \"#utility.yul\":13119:13139   */\n      tag_174\n      jump\t// in\n    tag_396:\n        /* \"#utility.yul\":13114:13139   */\n      swap3\n      pop\n        /* \"#utility.yul\":13162:13163   */\n      dup3\n        /* \"#utility.yul\":13159:13160   */\n      dup3\n        /* \"#utility.yul\":13155:13164   */\n      add\n        /* \"#utility.yul\":13148:13164   */\n      swap1\n      pop\n        /* \"#utility.yul\":13183:13186   */\n      dup1\n        /* \"#utility.yul\":13180:13181   */\n      dup3\n        /* \"#utility.yul\":13177:13187   */\n      gt\n        /* \"#utility.yul\":13174:13210   */\n      iszero\n      tag_397\n      jumpi\n        /* \"#utility.yul\":13190:13208   */\n      tag_398\n      tag_208\n      jump\t// in\n    tag_398:\n        /* \"#utility.yul\":13174:13210   */\n    tag_397:\n        /* \"#utility.yul\":13026:13217   */\n      swap3\n      swap2\n      pop\n      pop\n      jump\t// out\n        /* \"#utility.yul\":13223:13665   */\n    tag_79:\n        /* \"#utility.yul\":13372:13376   */\n      0x00\n        /* \"#utility.yul\":13410:13412   */\n      0x60\n        /* \"#utility.yul\":13399:13408   */\n      dup3\n        /* \"#utility.yul\":13395:13413   */\n      add\n        /* \"#utility.yul\":13387:13413   */\n      swap1\n      pop\n        /* \"#utility.yul\":13423:13494   */\n      tag_400\n        /* \"#utility.yul\":13491:13492   */\n      0x00\n        /* \"#utility.yul\":13480:13489   */\n      dup4\n        /* \"#utility.yul\":13476:13493   */\n      add\n        /* \"#utility.yul\":13467:13473   */\n      dup7\n        /* \"#utility.yul\":13423:13494   */\n      tag_181\n      jump\t// in\n    tag_400:\n        /* \"#utility.yul\":13504:13576   */\n      tag_401\n        /* \"#utility.yul\":13572:13574   */\n      0x20\n        /* \"#utility.yul\":13561:13570   */\n      dup4\n        /* \"#utility.yul\":13557:13575   */\n      add\n        /* \"#utility.yul\":13548:13554   */\n      dup6\n        /* \"#utility.yul\":13504:13576   */\n      tag_181\n      jump\t// in\n    tag_401:\n        /* \"#utility.yul\":13586:13658   */\n      tag_402\n        /* \"#utility.yul\":13654:13656   */\n      0x40\n        /* \"#utility.yul\":13643:13652   */\n      dup4\n        /* \"#utility.yul\":13639:13657   */\n      add\n        /* \"#utility.yul\":13630:13636   */\n      dup5\n        /* \"#utility.yul\":13586:13658   */\n      tag_181\n      jump\t// in\n    tag_402:\n        /* \"#utility.yul\":13223:13665   */\n      swap5\n      swap4\n      pop\n      pop\n      pop\n      pop\n      jump\t// out\n        /* \"#utility.yul\":13671:13841   */\n    tag_209:\n        /* \"#utility.yul\":13811:13833   */\n      0x496e73756666696369656e742062616c616e6365000000000000000000000000\n        /* \"#utility.yul\":13807:13808   */\n      0x00\n        /* \"#utility.yul\":13799:13805   */\n      dup3\n        /* \"#utility.yul\":13795:13809   */\n      add\n        /* \"#utility.yul\":13788:13834   */\n      mstore\n        /* \"#utility.yul\":13671:13841   */\n      pop\n      jump\t// out\n        /* \"#utility.yul\":13847:14213   */\n    tag_210:\n        /* \"#utility.yul\":13989:13992   */\n      0x00\n        /* \"#utility.yul\":14010:14077   */\n      tag_405\n        /* \"#utility.yul\":14074:14076   */\n      0x14\n        /* \"#utility.yul\":14069:14072   */\n      dup4\n        /* \"#utility.yul\":14010:14077   */\n      tag_203\n      jump\t// in\n    tag_405:\n        /* \"#utility.yul\":14003:14077   */\n      swap2\n      pop\n        /* \"#utility.yul\":14086:14179   */\n      tag_406\n        /* \"#utility.yul\":14175:14178   */\n      dup3\n        /* \"#utility.yul\":14086:14179   */\n      tag_209\n      jump\t// in\n    tag_406:\n        /* \"#utility.yul\":14204:14206   */\n      0x20\n        /* \"#utility.yul\":14199:14202   */\n      dup3\n        /* \"#utility.yul\":14195:14207   */\n      add\n        /* \"#utility.yul\":14188:14207   */\n      swap1\n      pop\n        /* \"#utility.yul\":13847:14213   */\n      swap2\n      swap1\n      pop\n      jump\t// out\n        /* \"#utility.yul\":14219:14638   */\n    tag_83:\n        /* \"#utility.yul\":14385:14389   */\n      0x00\n        /* \"#utility.yul\":14423:14425   */\n      0x20\n        /* \"#utility.yul\":14412:14421   */\n      dup3\n        /* \"#utility.yul\":14408:14426   */\n      add\n        /* \"#utility.yul\":14400:14426   */\n      swap1\n      pop\n        /* \"#utility.yul\":14472:14481   */\n      dup2\n        /* \"#utility.yul\":14466:14470   */\n      dup2\n        /* \"#utility.yul\":14462:14482   */\n      sub\n        /* \"#utility.yul\":14458:14459   */\n      0x00\n        /* \"#utility.yul\":14447:14456   */\n      dup4\n        /* \"#utility.yul\":14443:14460   */\n      add\n        /* \"#utility.yul\":14436:14483   */\n      mstore\n        /* \"#utility.yul\":14500:14631   */\n      tag_408\n        /* \"#utility.yul\":14626:14630   */\n      dup2\n        /* \"#utility.yul\":14500:14631   */\n      tag_210\n      jump\t// in\n    tag_408:\n        /* \"#utility.yul\":14492:14631   */\n      swap1\n      pop\n        /* \"#utility.yul\":14219:14638   */\n      swap2\n      swap1\n      pop\n      jump\t// out\n        /* \"#utility.yul\":14644:14814   */\n    tag_211:\n        /* \"#utility.yul\":14784:14806   */\n      0x5769746864726177616c206973206c6f636b6564000000000000000000000000\n        /* \"#utility.yul\":14780:14781   */\n      0x00\n        /* \"#utility.yul\":14772:14778   */\n      dup3\n        /* \"#utility.yul\":14768:14782   */\n      add\n        /* \"#utility.yul\":14761:14807   */\n      mstore\n        /* \"#utility.yul\":14644:14814   */\n      pop\n      jump\t// out\n        /* \"#utility.yul\":14820:15186   */\n    tag_212:\n        /* \"#utility.yul\":14962:14965   */\n      0x00\n        /* \"#utility.yul\":14983:15050   */\n      tag_411\n        /* \"#utility.yul\":15047:15049   */\n      0x14\n        /* \"#utility.yul\":15042:15045   */\n      dup4\n        /* \"#utility.yul\":14983:15050   */\n      tag_203\n      jump\t// in\n    tag_411:\n        /* \"#utility.yul\":14976:15050   */\n      swap2\n      pop\n        /* \"#utility.yul\":15059:15152   */\n      tag_412\n        /* \"#utility.yul\":15148:15151   */\n      dup3\n        /* \"#utility.yul\":15059:15152   */\n      tag_211\n      jump\t// in\n    tag_412:\n        /* \"#utility.yul\":15177:15179   */\n      0x20\n        /* \"#utility.yul\":15172:15175   */\n      dup3\n        /* \"#utility.yul\":15168:15180   */\n      add\n        /* \"#utility.yul\":15161:15180   */\n      swap1\n      pop\n        /* \"#utility.yul\":14820:15186   */\n      swap2\n      swap1\n      pop\n      jump\t// out\n        /* \"#utility.yul\":15192:15611   */\n    tag_87:\n        /* \"#utility.yul\":15358:15362   */\n      0x00\n        /* \"#utility.yul\":15396:15398   */\n      0x20\n        /* \"#utility.yul\":15385:15394   */\n      dup3\n        /* \"#utility.yul\":15381:15399   */\n      add\n        /* \"#utility.yul\":15373:15399   */\n      swap1\n      pop\n        /* \"#utility.yul\":15445:15454   */\n      dup2\n        /* \"#utility.yul\":15439:15443   */\n      dup2\n        /* \"#utility.yul\":15435:15455   */\n      sub\n        /* \"#utility.yul\":15431:15432   */\n      0x00\n        /* \"#utility.yul\":15420:15429   */\n      dup4\n        /* \"#utility.yul\":15416:15433   */\n      add\n        /* \"#utility.yul\":15409:15456   */\n      mstore\n        /* \"#utility.yul\":15473:15604   */\n      tag_414\n        /* \"#utility.yul\":15599:15603   */\n      dup2\n        /* \"#utility.yul\":15473:15604   */\n      tag_212\n      jump\t// in\n    tag_414:\n        /* \"#utility.yul\":15465:15604   */\n      swap1\n      pop\n        /* \"#utility.yul\":15192:15611   */\n      swap2\n      swap1\n      pop\n      jump\t// out\n        /* \"#utility.yul\":15617:15811   */\n    tag_89:\n        /* \"#utility.yul\":15657:15661   */\n      0x00\n        /* \"#utility.yul\":15677:15697   */\n      tag_416\n        /* \"#utility.yul\":15695:15696   */\n      dup3\n        /* \"#utility.yul\":15677:15697   */\n      tag_174\n      jump\t// in\n    tag_416:\n        /* \"#utility.yul\":15672:15697   */\n      swap2\n      pop\n        /* \"#utility.yul\":15711:15731   */\n      tag_417\n        /* \"#utility.yul\":15729:15730   */\n      dup4\n        /* \"#utility.yul\":15711:15731   */\n      tag_174\n      jump\t// in\n    tag_417:\n        /* \"#utility.yul\":15706:15731   */\n      swap3\n      pop\n        /* \"#utility.yul\":15755:15756   */\n      dup3\n        /* \"#utility.yul\":15752:15753   */\n      dup3\n        /* \"#utility.yul\":15748:15757   */\n      sub\n        /* \"#utility.yul\":15740:15757   */\n      swap1\n      pop\n        /* \"#utility.yul\":15779:15780   */\n      dup2\n        /* \"#utility.yul\":15773:15777   */\n      dup2\n        /* \"#utility.yul\":15770:15781   */\n      gt\n        /* \"#utility.yul\":15767:15804   */\n      iszero\n      tag_418\n      jumpi\n        /* \"#utility.yul\":15784:15802   */\n      tag_419\n      tag_208\n      jump\t// in\n    tag_419:\n        /* \"#utility.yul\":15767:15804   */\n    tag_418:\n        /* \"#utility.yul\":15617:15811   */\n      swap3\n      swap2\n      pop\n      pop\n      jump\t// out\n        /* \"#utility.yul\":15817:16042   */\n    tag_213:\n        /* \"#utility.yul\":15957:15991   */\n      0x4f6e6c7920746865206f776e65722063616e20706572666f726d207468697320\n        /* \"#utility.yul\":15953:15954   */\n      0x00\n        /* \"#utility.yul\":15945:15951   */\n      dup3\n        /* \"#utility.yul\":15941:15955   */\n      add\n        /* \"#utility.yul\":15934:15992   */\n      mstore\n        /* \"#utility.yul\":16026:16034   */\n      0x616374696f6e0000000000000000000000000000000000000000000000000000\n        /* \"#utility.yul\":16021:16023   */\n      0x20\n        /* \"#utility.yul\":16013:16019   */\n      dup3\n        /* \"#utility.yul\":16009:16024   */\n      add\n        /* \"#utility.yul\":16002:16035   */\n      mstore\n        /* \"#utility.yul\":15817:16042   */\n      pop\n      jump\t// out\n        /* \"#utility.yul\":16048:16414   */\n    tag_214:\n        /* \"#utility.yul\":16190:16193   */\n      0x00\n        /* \"#utility.yul\":16211:16278   */\n      tag_422\n        /* \"#utility.yul\":16275:16277   */\n      0x26\n        /* \"#utility.yul\":16270:16273   */\n      dup4\n        /* \"#utility.yul\":16211:16278   */\n      tag_203\n      jump\t// in\n    tag_422:\n        /* \"#utility.yul\":16204:16278   */\n      swap2\n      pop\n        /* \"#utility.yul\":16287:16380   */\n      tag_423\n        /* \"#utility.yul\":16376:16379   */\n      dup3\n        /* \"#utility.yul\":16287:16380   */\n      tag_213\n      jump\t// in\n    tag_423:\n        /* \"#utility.yul\":16405:16407   */\n      0x40\n        /* \"#utility.yul\":16400:16403   */\n      dup3\n        /* \"#utility.yul\":16396:16408   */\n      add\n        /* \"#utility.yul\":16389:16408   */\n      swap1\n      pop\n        /* \"#utility.yul\":16048:16414   */\n      swap2\n      swap1\n      pop\n      jump\t// out\n        /* \"#utility.yul\":16420:16839   */\n    tag_98:\n        /* \"#utility.yul\":16586:16590   */\n      0x00\n        /* \"#utility.yul\":16624:16626   */\n      0x20\n        /* \"#utility.yul\":16613:16622   */\n      dup3\n        /* \"#utility.yul\":16609:16627   */\n      add\n        /* \"#utility.yul\":16601:16627   */\n      swap1\n      pop\n        /* \"#utility.yul\":16673:16682   */\n      dup2\n        /* \"#utility.yul\":16667:16671   */\n      dup2\n        /* \"#utility.yul\":16663:16683   */\n      sub\n        /* \"#utility.yul\":16659:16660   */\n      0x00\n        /* \"#utility.yul\":16648:16657   */\n      dup4\n        /* \"#utility.yul\":16644:16661   */\n      add\n        /* \"#utility.yul\":16637:16684   */\n      mstore\n        /* \"#utility.yul\":16701:16832   */\n      tag_425\n        /* \"#utility.yul\":16827:16831   */\n      dup2\n        /* \"#utility.yul\":16701:16832   */\n      tag_214\n      jump\t// in\n    tag_425:\n        /* \"#utility.yul\":16693:16832   */\n      swap1\n      pop\n        /* \"#utility.yul\":16420:16839   */\n      swap2\n      swap1\n      pop\n      jump\t// out\n        /* \"#utility.yul\":16845:17024   */\n    tag_215:\n        /* \"#utility.yul\":16985:17016   */\n      0x4174206c656173742074776f207369676e657273207265717569726564000000\n        /* \"#utility.yul\":16981:16982   */\n      0x00\n        /* \"#utility.yul\":16973:16979   */\n      dup3\n        /* \"#utility.yul\":16969:16983   */\n      add\n        /* \"#utility.yul\":16962:17017   */\n      mstore\n        /* \"#utility.yul\":16845:17024   */\n      pop\n      jump\t// out\n        /* \"#utility.yul\":17030:17396   */\n    tag_216:\n        /* \"#utility.yul\":17172:17175   */\n      0x00\n        /* \"#utility.yul\":17193:17260   */\n      tag_428\n        /* \"#utility.yul\":17257:17259   */\n      0x1d\n        /* \"#utility.yul\":17252:17255   */\n      dup4\n        /* \"#utility.yul\":17193:17260   */\n      tag_203\n      jump\t// in\n    tag_428:\n        /* \"#utility.yul\":17186:17260   */\n      swap2\n      pop\n        /* \"#utility.yul\":17269:17362   */\n      tag_429\n        /* \"#utility.yul\":17358:17361   */\n      dup3\n        /* \"#utility.yul\":17269:17362   */\n      tag_215\n      jump\t// in\n    tag_429:\n        /* \"#utility.yul\":17387:17389   */\n      0x20\n        /* \"#utility.yul\":17382:17385   */\n      dup3\n        /* \"#utility.yul\":17378:17390   */\n      add\n        /* \"#utility.yul\":17371:17390   */\n      swap1\n      pop\n        /* \"#utility.yul\":17030:17396   */\n      swap2\n      swap1\n      pop\n      jump\t// out\n        /* \"#utility.yul\":17402:17821   */\n    tag_102:\n        /* \"#utility.yul\":17568:17572   */\n      0x00\n        /* \"#utility.yul\":17606:17608   */\n      0x20\n        /* \"#utility.yul\":17595:17604   */\n      dup3\n        /* \"#utility.yul\":17591:17609   */\n      add\n        /* \"#utility.yul\":17583:17609   */\n      swap1\n      pop\n        /* \"#utility.yul\":17655:17664   */\n      dup2\n        /* \"#utility.yul\":17649:17653   */\n      dup2\n        /* \"#utility.yul\":17645:17665   */\n      sub\n        /* \"#utility.yul\":17641:17642   */\n      0x00\n        /* \"#utility.yul\":17630:17639   */\n      dup4\n        /* \"#utility.yul\":17626:17643   */\n      add\n        /* \"#utility.yul\":17619:17666   */\n      mstore\n        /* \"#utility.yul\":17683:17814   */\n      tag_431\n        /* \"#utility.yul\":17809:17813   */\n      dup2\n        /* \"#utility.yul\":17683:17814   */\n      tag_216\n      jump\t// in\n    tag_431:\n        /* \"#utility.yul\":17675:17814   */\n      swap1\n      pop\n        /* \"#utility.yul\":17402:17821   */\n      swap2\n      swap1\n      pop\n      jump\t// out\n        /* \"#utility.yul\":17827:17906   */\n    tag_217:\n        /* \"#utility.yul\":17866:17873   */\n      0x00\n        /* \"#utility.yul\":17895:17900   */\n      dup2\n        /* \"#utility.yul\":17884:17900   */\n      swap1\n      pop\n        /* \"#utility.yul\":17827:17906   */\n      swap2\n      swap1\n      pop\n      jump\t// out\n        /* \"#utility.yul\":17912:18069   */\n    tag_218:\n        /* \"#utility.yul\":18017:18062   */\n      tag_434\n        /* \"#utility.yul\":18037:18061   */\n      tag_435\n        /* \"#utility.yul\":18055:18060   */\n      dup3\n        /* \"#utility.yul\":18037:18061   */\n      tag_174\n      jump\t// in\n    tag_435:\n        /* \"#utility.yul\":18017:18062   */\n      tag_217\n      jump\t// in\n    tag_434:\n        /* \"#utility.yul\":18012:18015   */\n      dup3\n        /* \"#utility.yul\":18005:18063   */\n      mstore\n        /* \"#utility.yul\":17912:18069   */\n      pop\n      pop\n      jump\t// out\n        /* \"#utility.yul\":18075:18169   */\n    tag_219:\n        /* \"#utility.yul\":18108:18116   */\n      0x00\n        /* \"#utility.yul\":18156:18161   */\n      dup2\n        /* \"#utility.yul\":18152:18154   */\n      0x60\n        /* \"#utility.yul\":18148:18162   */\n      shl\n        /* \"#utility.yul\":18127:18162   */\n      swap1\n      pop\n        /* \"#utility.yul\":18075:18169   */\n      swap2\n      swap1\n      pop\n      jump\t// out\n        /* \"#utility.yul\":18175:18269   */\n    tag_220:\n        /* \"#utility.yul\":18214:18221   */\n      0x00\n        /* \"#utility.yul\":18243:18263   */\n      tag_438\n        /* \"#utility.yul\":18257:18262   */\n      dup3\n        /* \"#utility.yul\":18243:18263   */\n      tag_219\n      jump\t// in\n    tag_438:\n        /* \"#utility.yul\":18232:18263   */\n      swap1\n      pop\n        /* \"#utility.yul\":18175:18269   */\n      swap2\n      swap1\n      pop\n      jump\t// out\n        /* \"#utility.yul\":18275:18375   */\n    tag_221:\n        /* \"#utility.yul\":18314:18321   */\n      0x00\n        /* \"#utility.yul\":18343:18369   */\n      tag_440\n        /* \"#utility.yul\":18363:18368   */\n      dup3\n        /* \"#utility.yul\":18343:18369   */\n      tag_220\n      jump\t// in\n    tag_440:\n        /* \"#utility.yul\":18332:18369   */\n      swap1\n      pop\n        /* \"#utility.yul\":18275:18375   */\n      swap2\n      swap1\n      pop\n      jump\t// out\n        /* \"#utility.yul\":18381:18538   */\n    tag_222:\n        /* \"#utility.yul\":18486:18531   */\n      tag_442\n        /* \"#utility.yul\":18506:18530   */\n      tag_443\n        /* \"#utility.yul\":18524:18529   */\n      dup3\n        /* \"#utility.yul\":18506:18530   */\n      tag_178\n      jump\t// in\n    tag_443:\n        /* \"#utility.yul\":18486:18531   */\n      tag_221\n      jump\t// in\n    tag_442:\n        /* \"#utility.yul\":18481:18484   */\n      dup3\n        /* \"#utility.yul\":18474:18532   */\n      mstore\n        /* \"#utility.yul\":18381:18538   */\n      pop\n      pop\n      jump\t// out\n        /* \"#utility.yul\":18544:18692   */\n    tag_223:\n        /* \"#utility.yul\":18646:18657   */\n      0x00\n        /* \"#utility.yul\":18683:18686   */\n      dup2\n        /* \"#utility.yul\":18668:18686   */\n      swap1\n      pop\n        /* \"#utility.yul\":18544:18692   */\n      swap3\n      swap2\n      pop\n      pop\n      jump\t// out\n        /* \"#utility.yul\":18698:19088   */\n    tag_224:\n        /* \"#utility.yul\":18804:18807   */\n      0x00\n        /* \"#utility.yul\":18832:18871   */\n      tag_446\n        /* \"#utility.yul\":18865:18870   */\n      dup3\n        /* \"#utility.yul\":18832:18871   */\n      tag_202\n      jump\t// in\n    tag_446:\n        /* \"#utility.yul\":18887:18976   */\n      tag_447\n        /* \"#utility.yul\":18969:18975   */\n      dup2\n        /* \"#utility.yul\":18964:18967   */\n      dup6\n        /* \"#utility.yul\":18887:18976   */\n      tag_223\n      jump\t// in\n    tag_447:\n        /* \"#utility.yul\":18880:18976   */\n      swap4\n      pop\n        /* \"#utility.yul\":18985:19050   */\n      tag_448\n        /* \"#utility.yul\":19043:19049   */\n      dup2\n        /* \"#utility.yul\":19038:19041   */\n      dup6\n        /* \"#utility.yul\":19031:19035   */\n      0x20\n        /* \"#utility.yul\":19024:19029   */\n      dup7\n        /* \"#utility.yul\":19020:19036   */\n      add\n        /* \"#utility.yul\":18985:19050   */\n      tag_204\n      jump\t// in\n    tag_448:\n        /* \"#utility.yul\":19075:19081   */\n      dup1\n        /* \"#utility.yul\":19070:19073   */\n      dup5\n        /* \"#utility.yul\":19066:19082   */\n      add\n        /* \"#utility.yul\":19059:19082   */\n      swap2\n      pop\n        /* \"#utility.yul\":18808:19088   */\n      pop\n        /* \"#utility.yul\":18698:19088   */\n      swap3\n      swap2\n      pop\n      pop\n      jump\t// out\n        /* \"#utility.yul\":19094:19792   */\n    tag_104:\n        /* \"#utility.yul\":19310:19313   */\n      0x00\n        /* \"#utility.yul\":19325:19400   */\n      tag_450\n        /* \"#utility.yul\":19396:19399   */\n      dup3\n        /* \"#utility.yul\":19387:19393   */\n      dup8\n        /* \"#utility.yul\":19325:19400   */\n      tag_218\n      jump\t// in\n    tag_450:\n        /* \"#utility.yul\":19425:19427   */\n      0x20\n        /* \"#utility.yul\":19420:19423   */\n      dup3\n        /* \"#utility.yul\":19416:19428   */\n      add\n        /* \"#utility.yul\":19409:19428   */\n      swap2\n      pop\n        /* \"#utility.yul\":19438:19513   */\n      tag_451\n        /* \"#utility.yul\":19509:19512   */\n      dup3\n        /* \"#utility.yul\":19500:19506   */\n      dup7\n        /* \"#utility.yul\":19438:19513   */\n      tag_222\n      jump\t// in\n    tag_451:\n        /* \"#utility.yul\":19538:19540   */\n      0x14\n        /* \"#utility.yul\":19533:19536   */\n      dup3\n        /* \"#utility.yul\":19529:19541   */\n      add\n        /* \"#utility.yul\":19522:19541   */\n      swap2\n      pop\n        /* \"#utility.yul\":19551:19626   */\n      tag_452\n        /* \"#utility.yul\":19622:19625   */\n      dup3\n        /* \"#utility.yul\":19613:19619   */\n      dup6\n        /* \"#utility.yul\":19551:19626   */\n      tag_218\n      jump\t// in\n    tag_452:\n        /* \"#utility.yul\":19651:19653   */\n      0x20\n        /* \"#utility.yul\":19646:19649   */\n      dup3\n        /* \"#utility.yul\":19642:19654   */\n      add\n        /* \"#utility.yul\":19635:19654   */\n      swap2\n      pop\n        /* \"#utility.yul\":19671:19766   */\n      tag_453\n        /* \"#utility.yul\":19762:19765   */\n      dup3\n        /* \"#utility.yul\":19753:19759   */\n      dup5\n        /* \"#utility.yul\":19671:19766   */\n      tag_224\n      jump\t// in\n    tag_453:\n        /* \"#utility.yul\":19664:19766   */\n      swap2\n      pop\n        /* \"#utility.yul\":19783:19786   */\n      dup2\n        /* \"#utility.yul\":19776:19786   */\n      swap1\n      pop\n        /* \"#utility.yul\":19094:19792   */\n      swap6\n      swap5\n      pop\n      pop\n      pop\n      pop\n      pop\n      jump\t// out\n        /* \"#utility.yul\":19798:19978   */\n    tag_225:\n        /* \"#utility.yul\":19846:19923   */\n      0x4e487b7100000000000000000000000000000000000000000000000000000000\n        /* \"#utility.yul\":19843:19844   */\n      0x00\n        /* \"#utility.yul\":19836:19924   */\n      mstore\n        /* \"#utility.yul\":19943:19947   */\n      0x22\n        /* \"#utility.yul\":19940:19941   */\n      0x04\n        /* \"#utility.yul\":19933:19948   */\n      mstore\n        /* \"#utility.yul\":19967:19971   */\n      0x24\n        /* \"#utility.yul\":19964:19965   */\n      0x00\n        /* \"#utility.yul\":19957:19972   */\n      revert\n        /* \"#utility.yul\":19984:20304   */\n    tag_127:\n        /* \"#utility.yul\":20028:20034   */\n      0x00\n        /* \"#utility.yul\":20065:20066   */\n      0x02\n        /* \"#utility.yul\":20059:20063   */\n      dup3\n        /* \"#utility.yul\":20055:20067   */\n      div\n        /* \"#utility.yul\":20045:20067   */\n      swap1\n      pop\n        /* \"#utility.yul\":20112:20113   */\n      0x01\n        /* \"#utility.yul\":20106:20110   */\n      dup3\n        /* \"#utility.yul\":20102:20114   */\n      and\n        /* \"#utility.yul\":20133:20151   */\n      dup1\n        /* \"#utility.yul\":20123:20204   */\n      tag_456\n      jumpi\n        /* \"#utility.yul\":20189:20193   */\n      0x7f\n        /* \"#utility.yul\":20181:20187   */\n      dup3\n        /* \"#utility.yul\":20177:20194   */\n      and\n        /* \"#utility.yul\":20167:20194   */\n      swap2\n      pop\n        /* \"#utility.yul\":20123:20204   */\n    tag_456:\n        /* \"#utility.yul\":20251:20253   */\n      0x20\n        /* \"#utility.yul\":20243:20249   */\n      dup3\n        /* \"#utility.yul\":20240:20254   */\n      lt\n        /* \"#utility.yul\":20220:20238   */\n      dup2\n        /* \"#utility.yul\":20217:20255   */\n      sub\n        /* \"#utility.yul\":20214:20298   */\n      tag_457\n      jumpi\n        /* \"#utility.yul\":20270:20288   */\n      tag_458\n      tag_225\n      jump\t// in\n    tag_458:\n        /* \"#utility.yul\":20214:20298   */\n    tag_457:\n        /* \"#utility.yul\":20035:20304   */\n      pop\n        /* \"#utility.yul\":19984:20304   */\n      swap2\n      swap1\n      pop\n      jump\t// out\n        /* \"#utility.yul\":20310:20451   */\n    tag_226:\n        /* \"#utility.yul\":20359:20363   */\n      0x00\n        /* \"#utility.yul\":20382:20385   */\n      dup2\n        /* \"#utility.yul\":20374:20385   */\n      swap1\n      pop\n        /* \"#utility.yul\":20405:20408   */\n      dup2\n        /* \"#utility.yul\":20402:20403   */\n      0x00\n        /* \"#utility.yul\":20395:20409   */\n      mstore\n        /* \"#utility.yul\":20439:20443   */\n      0x20\n        /* \"#utility.yul\":20436:20437   */\n      0x00\n        /* \"#utility.yul\":20426:20444   */\n      keccak256\n        /* \"#utility.yul\":20418:20444   */\n      swap1\n      pop\n        /* \"#utility.yul\":20310:20451   */\n      swap2\n      swap1\n      pop\n      jump\t// out\n        /* \"#utility.yul\":20457:20550   */\n    tag_227:\n        /* \"#utility.yul\":20494:20500   */\n      0x00\n        /* \"#utility.yul\":20541:20543   */\n      0x20\n        /* \"#utility.yul\":20536:20538   */\n      0x1f\n        /* \"#utility.yul\":20529:20534   */\n      dup4\n        /* \"#utility.yul\":20525:20539   */\n      add\n        /* \"#utility.yul\":20521:20544   */\n      div\n        /* \"#utility.yul\":20511:20544   */\n      swap1\n      pop\n        /* \"#utility.yul\":20457:20550   */\n      swap2\n      swap1\n      pop\n      jump\t// out\n        /* \"#utility.yul\":20556:20663   */\n    tag_228:\n        /* \"#utility.yul\":20600:20608   */\n      0x00\n        /* \"#utility.yul\":20650:20655   */\n      dup3\n        /* \"#utility.yul\":20644:20648   */\n      dup3\n        /* \"#utility.yul\":20640:20656   */\n      shl\n        /* \"#utility.yul\":20619:20656   */\n      swap1\n      pop\n        /* \"#utility.yul\":20556:20663   */\n      swap3\n      swap2\n      pop\n      pop\n      jump\t// out\n        /* \"#utility.yul\":20669:21062   */\n    tag_229:\n        /* \"#utility.yul\":20738:20744   */\n      0x00\n        /* \"#utility.yul\":20788:20789   */\n      0x08\n        /* \"#utility.yul\":20776:20786   */\n      dup4\n        /* \"#utility.yul\":20772:20790   */\n      mul\n        /* \"#utility.yul\":20811:20908   */\n      tag_463\n        /* \"#utility.yul\":20841:20907   */\n      0xffffffffffffffffffffffffffffffffffffffffffffffffffffffffffffffff\n        /* \"#utility.yul\":20830:20839   */\n      dup3\n        /* \"#utility.yul\":20811:20908   */\n      tag_228\n      jump\t// in\n    tag_463:\n        /* \"#utility.yul\":20929:20968   */\n      tag_464\n        /* \"#utility.yul\":20959:20967   */\n      dup7\n        /* \"#utility.yul\":20948:20957   */\n      dup4\n        /* \"#utility.yul\":20929:20968   */\n      tag_228\n      jump\t// in\n    tag_464:\n        /* \"#utility.yul\":20917:20968   */\n      swap6\n      pop\n        /* \"#utility.yul\":21001:21005   */\n      dup1\n        /* \"#utility.yul\":20997:21006   */\n      not\n        /* \"#utility.yul\":20990:20995   */\n      dup5\n        /* \"#utility.yul\":20986:21007   */\n      and\n        /* \"#utility.yul\":20977:21007   */\n      swap4\n      pop\n        /* \"#utility.yul\":21050:21054   */\n      dup1\n        /* \"#utility.yul\":21040:21048   */\n      dup7\n        /* \"#utility.yul\":21036:21055   */\n      and\n        /* \"#utility.yul\":21029:21034   */\n      dup5\n        /* \"#utility.yul\":21026:21056   */\n      or\n        /* \"#utility.yul\":21016:21056   */\n      swap3\n      pop\n        /* \"#utility.yul\":20745:21062   */\n      pop\n      pop\n        /* \"#utility.yul\":20669:21062   */\n      swap4\n      swap3\n      pop\n      pop\n      pop\n      jump\t// out\n        /* \"#utility.yul\":21068:21128   */\n    tag_230:\n        /* \"#utility.yul\":21096:21099   */\n      0x00\n        /* \"#utility.yul\":21117:21122   */\n      dup2\n        /* \"#utility.yul\":21110:21122   */\n      swap1\n      pop\n        /* \"#utility.yul\":21068:21128   */\n      swap2\n      swap1\n      pop\n      jump\t// out\n        /* \"#utility.yul\":21134:21276   */\n    tag_231:\n        /* \"#utility.yul\":21184:21193   */\n      0x00\n        /* \"#utility.yul\":21217:21270   */\n      tag_467\n        /* \"#utility.yul\":21235:21269   */\n      tag_468\n        /* \"#utility.yul\":21244:21268   */\n      tag_469\n        /* \"#utility.yul\":21262:21267   */\n      dup5\n        /* \"#utility.yul\":21244:21268   */\n      tag_174\n      jump\t// in\n    tag_469:\n        /* \"#utility.yul\":21235:21269   */\n      tag_230\n      jump\t// in\n    tag_468:\n        /* \"#utility.yul\":21217:21270   */\n      tag_174\n      jump\t// in\n    tag_467:\n        /* \"#utility.yul\":21204:21270   */\n      swap1\n      pop\n        /* \"#utility.yul\":21134:21276   */\n      swap2\n      swap1\n      pop\n      jump\t// out\n        /* \"#utility.yul\":21282:21357   */\n    tag_232:\n        /* \"#utility.yul\":21325:21328   */\n      0x00\n        /* \"#utility.yul\":21346:21351   */\n      dup2\n        /* \"#utility.yul\":21339:21351   */\n      swap1\n      pop\n        /* \"#utility.yul\":21282:21357   */\n      swap2\n      swap1\n      pop\n      jump\t// out\n        /* \"#utility.yul\":21363:21632   */\n    tag_233:\n        /* \"#utility.yul\":21473:21512   */\n      tag_472\n        /* \"#utility.yul\":21504:21511   */\n      dup4\n        /* \"#utility.yul\":21473:21512   */\n      tag_231\n      jump\t// in\n    tag_472:\n        /* \"#utility.yul\":21534:21625   */\n      tag_473\n        /* \"#utility.yul\":21583:21624   */\n      tag_474\n        /* \"#utility.yul\":21607:21623   */\n      dup3\n        /* \"#utility.yul\":21583:21624   */\n      tag_232\n      jump\t// in\n    tag_474:\n        /* \"#utility.yul\":21575:21581   */\n      dup5\n        /* \"#utility.yul\":21568:21572   */\n      dup5\n        /* \"#utility.yul\":21562:21573   */\n      sload\n        /* \"#utility.yul\":21534:21625   */\n      tag_229\n      jump\t// in\n    tag_473:\n        /* \"#utility.yul\":21528:21532   */\n      dup3\n        /* \"#utility.yul\":21521:21626   */\n      sstore\n        /* \"#utility.yul\":21439:21632   */\n      pop\n        /* \"#utility.yul\":21363:21632   */\n      pop\n      pop\n      pop\n      jump\t// out\n        /* \"#utility.yul\":21638:21711   */\n    tag_234:\n        /* \"#utility.yul\":21683:21686   */\n      0x00\n        /* \"#utility.yul\":21638:21711   */\n      swap1\n      jump\t// out\n        /* \"#utility.yul\":21717:21906   */\n    tag_235:\n        /* \"#utility.yul\":21794:21826   */\n      tag_477\n      tag_234\n      jump\t// in\n    tag_477:\n        /* \"#utility.yul\":21835:21900   */\n      tag_478\n        /* \"#utility.yul\":21893:21899   */\n      dup2\n        /* \"#utility.yul\":21885:21891   */\n      dup5\n        /* \"#utility.yul\":21879:21883   */\n      dup5\n        /* \"#utility.yul\":21835:21900   */\n      tag_233\n      jump\t// in\n    tag_478:\n        /* \"#utility.yul\":21770:21906   */\n      pop\n        /* \"#utility.yul\":21717:21906   */\n      pop\n      pop\n      jump\t// out\n        /* \"#utility.yul\":21912:22098   */\n    tag_236:\n        /* \"#utility.yul\":21972:22092   */\n    tag_480:\n        /* \"#utility.yul\":21989:21992   */\n      dup2\n        /* \"#utility.yul\":21982:21987   */\n      dup2\n        /* \"#utility.yul\":21979:21993   */\n      lt\n        /* \"#utility.yul\":21972:22092   */\n      iszero\n      tag_482\n      jumpi\n        /* \"#utility.yul\":22043:22082   */\n      tag_483\n        /* \"#utility.yul\":22080:22081   */\n      0x00\n        /* \"#utility.yul\":22073:22078   */\n      dup3\n        /* \"#utility.yul\":22043:22082   */\n      tag_235\n      jump\t// in\n    tag_483:\n        /* \"#utility.yul\":22016:22017   */\n      0x01\n        /* \"#utility.yul\":22009:22014   */\n      dup2\n        /* \"#utility.yul\":22005:22018   */\n      add\n        /* \"#utility.yul\":21996:22018   */\n      swap1\n      pop\n        /* \"#utility.yul\":21972:22092   */\n      jump(tag_480)\n    tag_482:\n        /* \"#utility.yul\":21912:22098   */\n      pop\n      pop\n      jump\t// out\n        /* \"#utility.yul\":22104:22647   */\n    tag_237:\n        /* \"#utility.yul\":22205:22207   */\n      0x1f\n        /* \"#utility.yul\":22200:22203   */\n      dup3\n        /* \"#utility.yul\":22197:22208   */\n      gt\n        /* \"#utility.yul\":22194:22640   */\n      iszero\n      tag_485\n      jumpi\n        /* \"#utility.yul\":22239:22277   */\n      tag_486\n        /* \"#utility.yul\":22271:22276   */\n      dup2\n        /* \"#utility.yul\":22239:22277   */\n      tag_226\n      jump\t// in\n    tag_486:\n        /* \"#utility.yul\":22323:22352   */\n      tag_487\n        /* \"#utility.yul\":22341:22351   */\n      dup5\n        /* \"#utility.yul\":22323:22352   */\n      tag_227\n      jump\t// in\n    tag_487:\n        /* \"#utility.yul\":22313:22321   */\n      dup2\n        /* \"#utility.yul\":22309:22353   */\n      add\n        /* \"#utility.yul\":22506:22508   */\n      0x20\n        /* \"#utility.yul\":22494:22504   */\n      dup6\n        /* \"#utility.yul\":22491:22509   */\n      lt\n        /* \"#utility.yul\":22488:22537   */\n      iszero\n      tag_488\n      jumpi\n        /* \"#utility.yul\":22527:22535   */\n      dup2\n        /* \"#utility.yul\":22512:22535   */\n      swap1\n      pop\n        /* \"#utility.yul\":22488:22537   */\n    tag_488:\n        /* \"#utility.yul\":22550:22630   */\n      tag_489\n        /* \"#utility.yul\":22606:22628   */\n      tag_490\n        /* \"#utility.yul\":22624:22627   */\n      dup6\n        /* \"#utility.yul\":22606:22628   */\n      tag_227\n      jump\t// in\n    tag_490:\n        /* \"#utility.yul\":22596:22604   */\n      dup4\n        /* \"#utility.yul\":22592:22629   */\n      add\n        /* \"#utility.yul\":22579:22590   */\n      dup3\n        /* \"#utility.yul\":22550:22630   */\n      tag_236\n      jump\t// in\n    tag_489:\n        /* \"#utility.yul\":22209:22640   */\n      pop\n      pop\n        /* \"#utility.yul\":22194:22640   */\n    tag_485:\n        /* \"#utility.yul\":22104:22647   */\n      pop\n      pop\n      pop\n      jump\t// out\n        /* \"#utility.yul\":22653:22770   */\n    tag_238:\n        /* \"#utility.yul\":22707:22715   */\n      0x00\n        /* \"#utility.yul\":22757:22762   */\n      dup3\n        /* \"#utility.yul\":22751:22755   */\n      dup3\n        /* \"#utility.yul\":22747:22763   */\n      shr\n        /* \"#utility.yul\":22726:22763   */\n      swap1\n      pop\n        /* \"#utility.yul\":22653:22770   */\n      swap3\n      swap2\n      pop\n      pop\n      jump\t// out\n        /* \"#utility.yul\":22776:22945   */\n    tag_239:\n        /* \"#utility.yul\":22820:22826   */\n      0x00\n        /* \"#utility.yul\":22853:22904   */\n      tag_493\n        /* \"#utility.yul\":22901:22902   */\n      0x00\n        /* \"#utility.yul\":22897:22903   */\n      not\n        /* \"#utility.yul\":22889:22894   */\n      dup5\n        /* \"#utility.yul\":22886:22887   */\n      0x08\n        /* \"#utility.yul\":22882:22895   */\n      mul\n        /* \"#utility.yul\":22853:22904   */\n      tag_238\n      jump\t// in\n    tag_493:\n        /* \"#utility.yul\":22849:22905   */\n      not\n        /* \"#utility.yul\":22934:22938   */\n      dup1\n        /* \"#utility.yul\":22928:22932   */\n      dup4\n        /* \"#utility.yul\":22924:22939   */\n      and\n        /* \"#utility.yul\":22914:22939   */\n      swap2\n      pop\n        /* \"#utility.yul\":22827:22945   */\n      pop\n        /* \"#utility.yul\":22776:22945   */\n      swap3\n      swap2\n      pop\n      pop\n      jump\t// out\n        /* \"#utility.yul\":22950:23245   */\n    tag_240:\n        /* \"#utility.yul\":23026:23030   */\n      0x00\n        /* \"#utility.yul\":23172:23201   */\n      tag_495\n        /* \"#utility.yul\":23197:23200   */\n      dup4\n        /* \"#utility.yul\":23191:23195   */\n      dup4\n        /* \"#utility.yul\":23172:23201   */\n      tag_239\n      jump\t// in\n    tag_495:\n        /* \"#utility.yul\":23164:23201   */\n      swap2\n      pop\n        /* \"#utility.yul\":23234:23237   */\n      dup3\n        /* \"#utility.yul\":23231:23232   */\n      0x02\n        /* \"#utility.yul\":23227:23238   */\n      mul\n        /* \"#utility.yul\":23221:23225   */\n      dup3\n        /* \"#utility.yul\":23218:23239   */\n      or\n        /* \"#utility.yul\":23210:23239   */\n      swap1\n      pop\n        /* \"#utility.yul\":22950:23245   */\n      swap3\n      swap2\n      pop\n      pop\n      jump\t// out\n        /* \"#utility.yul\":23250:24645   */\n    tag_108:\n        /* \"#utility.yul\":23367:23404   */\n      tag_497\n        /* \"#utility.yul\":23400:23403   */\n      dup3\n        /* \"#utility.yul\":23367:23404   */\n      tag_202\n      jump\t// in\n    tag_497:\n        /* \"#utility.yul\":23469:23487   */\n      0xffffffffffffffff\n        /* \"#utility.yul\":23461:23467   */\n      dup2\n        /* \"#utility.yul\":23458:23488   */\n      gt\n        /* \"#utility.yul\":23455:23511   */\n      iszero\n      tag_498\n      jumpi\n        /* \"#utility.yul\":23491:23509   */\n      tag_499\n      tag_187\n      jump\t// in\n    tag_499:\n        /* \"#utility.yul\":23455:23511   */\n    tag_498:\n        /* \"#utility.yul\":23535:23573   */\n      tag_500\n        /* \"#utility.yul\":23567:23571   */\n      dup3\n        /* \"#utility.yul\":23561:23572   */\n      sload\n        /* \"#utility.yul\":23535:23573   */\n      tag_127\n      jump\t// in\n    tag_500:\n        /* \"#utility.yul\":23620:23687   */\n      tag_501\n        /* \"#utility.yul\":23680:23686   */\n      dup3\n        /* \"#utility.yul\":23672:23678   */\n      dup3\n        /* \"#utility.yul\":23666:23670   */\n      dup6\n        /* \"#utility.yul\":23620:23687   */\n      tag_237\n      jump\t// in\n    tag_501:\n        /* \"#utility.yul\":23714:23715   */\n      0x00\n        /* \"#utility.yul\":23738:23742   */\n      0x20\n        /* \"#utility.yul\":23725:23742   */\n      swap1\n      pop\n        /* \"#utility.yul\":23770:23772   */\n      0x1f\n        /* \"#utility.yul\":23762:23768   */\n      dup4\n        /* \"#utility.yul\":23759:23773   */\n      gt\n        /* \"#utility.yul\":23787:23788   */\n      0x01\n        /* \"#utility.yul\":23782:24400   */\n      dup2\n      eq\n      tag_503\n      jumpi\n        /* \"#utility.yul\":24444:24445   */\n      0x00\n        /* \"#utility.yul\":24461:24467   */\n      dup5\n        /* \"#utility.yul\":24458:24535   */\n      iszero\n      tag_504\n      jumpi\n        /* \"#utility.yul\":24510:24519   */\n      dup3\n        /* \"#utility.yul\":24505:24508   */\n      dup8\n        /* \"#utility.yul\":24501:24520   */\n      add\n        /* \"#utility.yul\":24495:24521   */\n      mload\n        /* \"#utility.yul\":24486:24521   */\n      swap1\n      pop\n        /* \"#utility.yul\":24458:24535   */\n    tag_504:\n        /* \"#utility.yul\":24561:24628   */\n      tag_505\n        /* \"#utility.yul\":24621:24627   */\n      dup6\n        /* \"#utility.yul\":24614:24619   */\n      dup3\n        /* \"#utility.yul\":24561:24628   */\n      tag_240\n      jump\t// in\n    tag_505:\n        /* \"#utility.yul\":24555:24559   */\n      dup7\n        /* \"#utility.yul\":24548:24629   */\n      sstore\n        /* \"#utility.yul\":24417:24639   */\n      pop\n        /* \"#utility.yul\":23752:24639   */\n      jump(tag_502)\n        /* \"#utility.yul\":23782:24400   */\n    tag_503:\n        /* \"#utility.yul\":23834:23838   */\n      0x1f\n        /* \"#utility.yul\":23830:23839   */\n      not\n        /* \"#utility.yul\":23822:23828   */\n      dup5\n        /* \"#utility.yul\":23818:23840   */\n      and\n        /* \"#utility.yul\":23868:23905   */\n      tag_506\n        /* \"#utility.yul\":23900:23904   */\n      dup7\n        /* \"#utility.yul\":23868:23905   */\n      tag_226\n      jump\t// in\n    tag_506:\n        /* \"#utility.yul\":23927:23928   */\n      0x00\n        /* \"#utility.yul\":23941:24149   */\n    tag_507:\n        /* \"#utility.yul\":23955:23962   */\n      dup3\n        /* \"#utility.yul\":23952:23953   */\n      dup2\n        /* \"#utility.yul\":23949:23963   */\n      lt\n        /* \"#utility.yul\":23941:24149   */\n      iszero\n      tag_509\n      jumpi\n        /* \"#utility.yul\":24034:24043   */\n      dup5\n        /* \"#utility.yul\":24029:24032   */\n      dup10\n        /* \"#utility.yul\":24025:24044   */\n      add\n        /* \"#utility.yul\":24019:24045   */\n      mload\n        /* \"#utility.yul\":24011:24017   */\n      dup3\n        /* \"#utility.yul\":24004:24046   */\n      sstore\n        /* \"#utility.yul\":24085:24086   */\n      0x01\n        /* \"#utility.yul\":24077:24083   */\n      dup3\n        /* \"#utility.yul\":24073:24087   */\n      add\n        /* \"#utility.yul\":24063:24087   */\n      swap2\n      pop\n        /* \"#utility.yul\":24132:24134   */\n      0x20\n        /* \"#utility.yul\":24121:24130   */\n      dup6\n        /* \"#utility.yul\":24117:24135   */\n      add\n        /* \"#utility.yul\":24104:24135   */\n      swap5\n      pop\n        /* \"#utility.yul\":23978:23982   */\n      0x20\n        /* \"#utility.yul\":23975:23976   */\n      dup2\n        /* \"#utility.yul\":23971:23983   */\n      add\n        /* \"#utility.yul\":23966:23983   */\n      swap1\n      pop\n        /* \"#utility.yul\":23941:24149   */\n      jump(tag_507)\n    tag_509:\n        /* \"#utility.yul\":24177:24183   */\n      dup7\n        /* \"#utility.yul\":24168:24175   */\n      dup4\n        /* \"#utility.yul\":24165:24184   */\n      lt\n        /* \"#utility.yul\":24162:24341   */\n      iszero\n      tag_510\n      jumpi\n        /* \"#utility.yul\":24235:24244   */\n      dup5\n        /* \"#utility.yul\":24230:24233   */\n      dup10\n        /* \"#utility.yul\":24226:24245   */\n      add\n        /* \"#utility.yul\":24220:24246   */\n      mload\n        /* \"#utility.yul\":24278:24326   */\n      tag_511\n        /* \"#utility.yul\":24320:24324   */\n      0x1f\n        /* \"#utility.yul\":24312:24318   */\n      dup10\n        /* \"#utility.yul\":24308:24325   */\n      and\n        /* \"#utility.yul\":24297:24306   */\n      dup3\n        /* \"#utility.yul\":24278:24326   */\n      tag_239\n      jump\t// in\n    tag_511:\n        /* \"#utility.yul\":24270:24276   */\n      dup4\n        /* \"#utility.yul\":24263:24327   */\n      sstore\n        /* \"#utility.yul\":24185:24341   */\n      pop\n        /* \"#utility.yul\":24162:24341   */\n    tag_510:\n        /* \"#utility.yul\":24387:24388   */\n      0x01\n        /* \"#utility.yul\":24383:24384   */\n      0x02\n        /* \"#utility.yul\":24375:24381   */\n      dup9\n        /* \"#utility.yul\":24371:24385   */\n      mul\n        /* \"#utility.yul\":24367:24389   */\n      add\n        /* \"#utility.yul\":24361:24365   */\n      dup9\n        /* \"#utility.yul\":24354:24390   */\n      sstore\n        /* \"#utility.yul\":23789:24400   */\n      pop\n      pop\n      pop\n        /* \"#utility.yul\":23752:24639   */\n    tag_502:\n      pop\n        /* \"#utility.yul\":23342:24645   */\n      pop\n      pop\n      pop\n        /* \"#utility.yul\":23250:24645   */\n      pop\n      pop\n      jump\t// out\n        /* \"#utility.yul\":24651:25074   */\n    tag_110:\n        /* \"#utility.yul\":24792:24796   */\n      0x00\n        /* \"#utility.yul\":24830:24832   */\n      0x40\n        /* \"#utility.yul\":24819:24828   */\n      dup3\n        /* \"#utility.yul\":24815:24833   */\n      add\n        /* \"#utility.yul\":24807:24833   */\n      swap1\n      pop\n        /* \"#utility.yul\":24843:24914   */\n      tag_513\n        /* \"#utility.yul\":24911:24912   */\n      0x00\n        /* \"#utility.yul\":24900:24909   */\n      dup4\n        /* \"#utility.yul\":24896:24913   */\n      add\n        /* \"#utility.yul\":24887:24893   */\n      dup6\n        /* \"#utility.yul\":24843:24914   */\n      tag_181\n      jump\t// in\n    tag_513:\n        /* \"#utility.yul\":24961:24970   */\n      dup2\n        /* \"#utility.yul\":24955:24959   */\n      dup2\n        /* \"#utility.yul\":24951:24971   */\n      sub\n        /* \"#utility.yul\":24946:24948   */\n      0x20\n        /* \"#utility.yul\":24935:24944   */\n      dup4\n        /* \"#utility.yul\":24931:24949   */\n      add\n        /* \"#utility.yul\":24924:24972   */\n      mstore\n        /* \"#utility.yul\":24989:25067   */\n      tag_514\n        /* \"#utility.yul\":25062:25066   */\n      dup2\n        /* \"#utility.yul\":25053:25059   */\n      dup5\n        /* \"#utility.yul\":24989:25067   */\n      tag_205\n      jump\t// in\n    tag_514:\n        /* \"#utility.yul\":24981:25067   */\n      swap1\n      pop\n        /* \"#utility.yul\":24651:25074   */\n      swap4\n      swap3\n      pop\n      pop\n      pop\n      jump\t// out\n        /* \"#utility.yul\":25080:25260   */\n    tag_114:\n        /* \"#utility.yul\":25128:25205   */\n      0x4e487b7100000000000000000000000000000000000000000000000000000000\n        /* \"#utility.yul\":25125:25126   */\n      0x00\n        /* \"#utility.yul\":25118:25206   */\n      mstore\n        /* \"#utility.yul\":25225:25229   */\n      0x32\n        /* \"#utility.yul\":25222:25223   */\n      0x04\n        /* \"#utility.yul\":25215:25230   */\n      mstore\n        /* \"#utility.yul\":25249:25253   */\n      0x24\n        /* \"#utility.yul\":25246:25247   */\n      0x00\n        /* \"#utility.yul\":25239:25254   */\n      revert\n        /* \"#utility.yul\":25266:25438   */\n    tag_241:\n        /* \"#utility.yul\":25406:25430   */\n      0x4c6f616e20697320616c72656164792072657061696400000000000000000000\n        /* \"#utility.yul\":25402:25403   */\n      0x00\n        /* \"#utility.yul\":25394:25400   */\n      dup3\n        /* \"#utility.yul\":25390:25404   */\n      add\n        /* \"#utility.yul\":25383:25431   */\n      mstore\n        /* \"#utility.yul\":25266:25438   */\n      pop\n      jump\t// out\n        /* \"#utility.yul\":25444:25810   */\n    tag_242:\n        /* \"#utility.yul\":25586:25589   */\n      0x00\n        /* \"#utility.yul\":25607:25674   */\n      tag_518\n        /* \"#utility.yul\":25671:25673   */\n      0x16\n        /* \"#utility.yul\":25666:25669   */\n      dup4\n        /* \"#utility.yul\":25607:25674   */\n      tag_203\n      jump\t// in\n    tag_518:\n        /* \"#utility.yul\":25600:25674   */\n      swap2\n      pop\n        /* \"#utility.yul\":25683:25776   */\n      tag_519\n        /* \"#utility.yul\":25772:25775   */\n      dup3\n        /* \"#utility.yul\":25683:25776   */\n      tag_241\n      jump\t// in\n    tag_519:\n        /* \"#utility.yul\":25801:25803   */\n      0x20\n        /* \"#utility.yul\":25796:25799   */\n      dup3\n        /* \"#utility.yul\":25792:25804   */\n      add\n        /* \"#utility.yul\":25785:25804   */\n      swap1\n      pop\n        /* \"#utility.yul\":25444:25810   */\n      swap2\n      swap1\n      pop\n      jump\t// out\n        /* \"#utility.yul\":25816:26235   */\n    tag_118:\n        /* \"#utility.yul\":25982:25986   */\n      0x00\n        /* \"#utility.yul\":26020:26022   */\n      0x20\n        /* \"#utility.yul\":26009:26018   */\n      dup3\n        /* \"#utility.yul\":26005:26023   */\n      add\n        /* \"#utility.yul\":25997:26023   */\n      swap1\n      pop\n        /* \"#utility.yul\":26069:26078   */\n      dup2\n        /* \"#utility.yul\":26063:26067   */\n      dup2\n        /* \"#utility.yul\":26059:26079   */\n      sub\n        /* \"#utility.yul\":26055:26056   */\n      0x00\n        /* \"#utility.yul\":26044:26053   */\n      dup4\n        /* \"#utility.yul\":26040:26057   */\n      add\n        /* \"#utility.yul\":26033:26080   */\n      mstore\n        /* \"#utility.yul\":26097:26228   */\n      tag_521\n        /* \"#utility.yul\":26223:26227   */\n      dup2\n        /* \"#utility.yul\":26097:26228   */\n      tag_242\n      jump\t// in\n    tag_521:\n        /* \"#utility.yul\":26089:26228   */\n      swap1\n      pop\n        /* \"#utility.yul\":25816:26235   */\n      swap2\n      swap1\n      pop\n      jump\t// out\n        /* \"#utility.yul\":26241:26465   */\n    tag_243:\n        /* \"#utility.yul\":26381:26415   */\n      0x496e73756666696369656e7420616d6f756e7420746f20726570617920746865\n        /* \"#utility.yul\":26377:26378   */\n      0x00\n        /* \"#utility.yul\":26369:26375   */\n      dup3\n        /* \"#utility.yul\":26365:26379   */\n      add\n        /* \"#utility.yul\":26358:26416   */\n      mstore\n        /* \"#utility.yul\":26450:26457   */\n      0x206c6f616e000000000000000000000000000000000000000000000000000000\n        /* \"#utility.yul\":26445:26447   */\n      0x20\n        /* \"#utility.yul\":26437:26443   */\n      dup3\n        /* \"#utility.yul\":26433:26448   */\n      add\n        /* \"#utility.yul\":26426:26458   */\n      mstore\n        /* \"#utility.yul\":26241:26465   */\n      pop\n      jump\t// out\n        /* \"#utility.yul\":26471:26837   */\n    tag_244:\n        /* \"#utility.yul\":26613:26616   */\n      0x00\n        /* \"#utility.yul\":26634:26701   */\n      tag_524\n        /* \"#utility.yul\":26698:26700   */\n      0x25\n        /* \"#utility.yul\":26693:26696   */\n      dup4\n        /* \"#utility.yul\":26634:26701   */\n      tag_203\n      jump\t// in\n    tag_524:\n        /* \"#utility.yul\":26627:26701   */\n      swap2\n      pop\n        /* \"#utility.yul\":26710:26803   */\n      tag_525\n        /* \"#utility.yul\":26799:26802   */\n      dup3\n        /* \"#utility.yul\":26710:26803   */\n      tag_243\n      jump\t// in\n    tag_525:\n        /* \"#utility.yul\":26828:26830   */\n      0x40\n        /* \"#utility.yul\":26823:26826   */\n      dup3\n        /* \"#utility.yul\":26819:26831   */\n      add\n        /* \"#utility.yul\":26812:26831   */\n      swap1\n      pop\n        /* \"#utility.yul\":26471:26837   */\n      swap2\n      swap1\n      pop\n      jump\t// out\n        /* \"#utility.yul\":26843:27262   */\n    tag_124:\n        /* \"#utility.yul\":27009:27013   */\n      0x00\n        /* \"#utility.yul\":27047:27049   */\n      0x20\n        /* \"#utility.yul\":27036:27045   */\n      dup3\n        /* \"#utility.yul\":27032:27050   */\n      add\n        /* \"#utility.yul\":27024:27050   */\n      swap1\n      pop\n        /* \"#utility.yul\":27096:27105   */\n      dup2\n        /* \"#utility.yul\":27090:27094   */\n      dup2\n        /* \"#utility.yul\":27086:27106   */\n      sub\n        /* \"#utility.yul\":27082:27083   */\n      0x00\n        /* \"#utility.yul\":27071:27080   */\n      dup4\n        /* \"#utility.yul\":27067:27084   */\n      add\n        /* \"#utility.yul\":27060:27107   */\n      mstore\n        /* \"#utility.yul\":27124:27255   */\n      tag_527\n        /* \"#utility.yul\":27250:27254   */\n      dup2\n        /* \"#utility.yul\":27124:27255   */\n      tag_244\n      jump\t// in\n    tag_527:\n        /* \"#utility.yul\":27116:27255   */\n      swap1\n      pop\n        /* \"#utility.yul\":26843:27262   */\n      swap2\n      swap1\n      pop\n      jump\t// out\n        /* \"#utility.yul\":27268:27491   */\n    tag_245:\n        /* \"#utility.yul\":27408:27442   */\n      0x4465706f7369742076616c7565206d7573742062652067726561746572207468\n        /* \"#utility.yul\":27404:27405   */\n      0x00\n        /* \"#utility.yul\":27396:27402   */\n      dup3\n        /* \"#utility.yul\":27392:27406   */\n      add\n        /* \"#utility.yul\":27385:27443   */\n      mstore\n        /* \"#utility.yul\":27477:27483   */\n      0x616e203000000000000000000000000000000000000000000000000000000000\n        /* \"#utility.yul\":27472:27474   */\n      0x20\n        /* \"#utility.yul\":27464:27470   */\n      dup3\n        /* \"#utility.yul\":27460:27475   */\n      add\n        /* \"#utility.yul\":27453:27484   */\n      mstore\n        /* \"#utility.yul\":27268:27491   */\n      pop\n      jump\t// out\n        /* \"#utility.yul\":27497:27863   */\n    tag_246:\n        /* \"#utility.yul\":27639:27642   */\n      0x00\n        /* \"#utility.yul\":27660:27727   */\n      tag_530\n        /* \"#utility.yul\":27724:27726   */\n      0x24\n        /* \"#utility.yul\":27719:27722   */\n      dup4\n        /* \"#utility.yul\":27660:27727   */\n      tag_203\n      jump\t// in\n    tag_530:\n        /* \"#utility.yul\":27653:27727   */\n      swap2\n      pop\n        /* \"#utility.yul\":27736:27829   */\n      tag_531\n        /* \"#utility.yul\":27825:27828   */\n      dup3\n        /* \"#utility.yul\":27736:27829   */\n      tag_245\n      jump\t// in\n    tag_531:\n        /* \"#utility.yul\":27854:27856   */\n      0x40\n        /* \"#utility.yul\":27849:27852   */\n      dup3\n        /* \"#utility.yul\":27845:27857   */\n      add\n        /* \"#utility.yul\":27838:27857   */\n      swap1\n      pop\n        /* \"#utility.yul\":27497:27863   */\n      swap2\n      swap1\n      pop\n      jump\t// out\n        /* \"#utility.yul\":27869:28288   */\n    tag_135:\n        /* \"#utility.yul\":28035:28039   */\n      0x00\n        /* \"#utility.yul\":28073:28075   */\n      0x20\n        /* \"#utility.yul\":28062:28071   */\n      dup3\n        /* \"#utility.yul\":28058:28076   */\n      add\n        /* \"#utility.yul\":28050:28076   */\n      swap1\n      pop\n        /* \"#utility.yul\":28122:28131   */\n      dup2\n        /* \"#utility.yul\":28116:28120   */\n      dup2\n        /* \"#utility.yul\":28112:28132   */\n      sub\n        /* \"#utility.yul\":28108:28109   */\n      0x00\n        /* \"#utility.yul\":28097:28106   */\n      dup4\n        /* \"#utility.yul\":28093:28110   */\n      add\n        /* \"#utility.yul\":28086:28133   */\n      mstore\n        /* \"#utility.yul\":28150:28281   */\n      tag_533\n        /* \"#utility.yul\":28276:28280   */\n      dup2\n        /* \"#utility.yul\":28150:28281   */\n      tag_246\n      jump\t// in\n    tag_533:\n        /* \"#utility.yul\":28142:28281   */\n      swap1\n      pop\n        /* \"#utility.yul\":27869:28288   */\n      swap2\n      swap1\n      pop\n      jump\t// out\n        /* \"#utility.yul\":28294:28472   */\n    tag_247:\n        /* \"#utility.yul\":28434:28464   */\n      0x5472616e73616374696f6e20616c726561647920657865637574656400000000\n        /* \"#utility.yul\":28430:28431   */\n      0x00\n        /* \"#utility.yul\":28422:28428   */\n      dup3\n        /* \"#utility.yul\":28418:28432   */\n      add\n        /* \"#utility.yul\":28411:28465   */\n      mstore\n        /* \"#utility.yul\":28294:28472   */\n      pop\n      jump\t// out\n        /* \"#utility.yul\":28478:28844   */\n    tag_248:\n        /* \"#utility.yul\":28620:28623   */\n      0x00\n        /* \"#utility.yul\":28641:28708   */\n      tag_536\n        /* \"#utility.yul\":28705:28707   */\n      0x1c\n        /* \"#utility.yul\":28700:28703   */\n      dup4\n        /* \"#utility.yul\":28641:28708   */\n      tag_203\n      jump\t// in\n    tag_536:\n        /* \"#utility.yul\":28634:28708   */\n      swap2\n      pop\n        /* \"#utility.yul\":28717:28810   */\n      tag_537\n        /* \"#utility.yul\":28806:28809   */\n      dup3\n        /* \"#utility.yul\":28717:28810   */\n      tag_247\n      jump\t// in\n    tag_537:\n        /* \"#utility.yul\":28835:28837   */\n      0x20\n        /* \"#utility.yul\":28830:28833   */\n      dup3\n        /* \"#utility.yul\":28826:28838   */\n      add\n        /* \"#utility.yul\":28819:28838   */\n      swap1\n      pop\n        /* \"#utility.yul\":28478:28844   */\n      swap2\n      swap1\n      pop\n      jump\t// out\n        /* \"#utility.yul\":28850:29269   */\n    tag_141:\n        /* \"#utility.yul\":29016:29020   */\n      0x00\n        /* \"#utility.yul\":29054:29056   */\n      0x20\n        /* \"#utility.yul\":29043:29052   */\n      dup3\n        /* \"#utility.yul\":29039:29057   */\n      add\n        /* \"#utility.yul\":29031:29057   */\n      swap1\n      pop\n        /* \"#utility.yul\":29103:29112   */\n      dup2\n        /* \"#utility.yul\":29097:29101   */\n      dup2\n        /* \"#utility.yul\":29093:29113   */\n      sub\n        /* \"#utility.yul\":29089:29090   */\n      0x00\n        /* \"#utility.yul\":29078:29087   */\n      dup4\n        /* \"#utility.yul\":29074:29091   */\n      add\n        /* \"#utility.yul\":29067:29114   */\n      mstore\n        /* \"#utility.yul\":29131:29262   */\n      tag_539\n        /* \"#utility.yul\":29257:29261   */\n      dup2\n        /* \"#utility.yul\":29131:29262   */\n      tag_248\n      jump\t// in\n    tag_539:\n        /* \"#utility.yul\":29123:29262   */\n      swap1\n      pop\n        /* \"#utility.yul\":28850:29269   */\n      swap2\n      swap1\n      pop\n      jump\t// out\n        /* \"#utility.yul\":29275:29447   */\n    tag_249:\n        /* \"#utility.yul\":29415:29439   */\n      0x43616c6c6572206973206e6f742061207369676e657200000000000000000000\n        /* \"#utility.yul\":29411:29412   */\n      0x00\n        /* \"#utility.yul\":29403:29409   */\n      dup3\n        /* \"#utility.yul\":29399:29413   */\n      add\n        /* \"#utility.yul\":29392:29440   */\n      mstore\n        /* \"#utility.yul\":29275:29447   */\n      pop\n      jump\t// out\n        /* \"#utility.yul\":29453:29819   */\n    tag_250:\n        /* \"#utility.yul\":29595:29598   */\n      0x00\n        /* \"#utility.yul\":29616:29683   */\n      tag_542\n        /* \"#utility.yul\":29680:29682   */\n      0x16\n        /* \"#utility.yul\":29675:29678   */\n      dup4\n        /* \"#utility.yul\":29616:29683   */\n      tag_203\n      jump\t// in\n    tag_542:\n        /* \"#utility.yul\":29609:29683   */\n      swap2\n      pop\n        /* \"#utility.yul\":29692:29785   */\n      tag_543\n        /* \"#utility.yul\":29781:29784   */\n      dup3\n        /* \"#utility.yul\":29692:29785   */\n      tag_249\n      jump\t// in\n    tag_543:\n        /* \"#utility.yul\":29810:29812   */\n      0x20\n        /* \"#utility.yul\":29805:29808   */\n      dup3\n        /* \"#utility.yul\":29801:29813   */\n      add\n        /* \"#utility.yul\":29794:29813   */\n      swap1\n      pop\n        /* \"#utility.yul\":29453:29819   */\n      swap2\n      swap1\n      pop\n      jump\t// out\n        /* \"#utility.yul\":29825:30244   */\n    tag_146:\n        /* \"#utility.yul\":29991:29995   */\n      0x00\n        /* \"#utility.yul\":30029:30031   */\n      0x20\n        /* \"#utility.yul\":30018:30027   */\n      dup3\n        /* \"#utility.yul\":30014:30032   */\n      add\n        /* \"#utility.yul\":30006:30032   */\n      swap1\n      pop\n        /* \"#utility.yul\":30078:30087   */\n      dup2\n        /* \"#utility.yul\":30072:30076   */\n      dup2\n        /* \"#utility.yul\":30068:30088   */\n      sub\n        /* \"#utility.yul\":30064:30065   */\n      0x00\n        /* \"#utility.yul\":30053:30062   */\n      dup4\n        /* \"#utility.yul\":30049:30066   */\n      add\n        /* \"#utility.yul\":30042:30089   */\n      mstore\n        /* \"#utility.yul\":30106:30237   */\n      tag_545\n        /* \"#utility.yul\":30232:30236   */\n      dup2\n        /* \"#utility.yul\":30106:30237   */\n      tag_250\n      jump\t// in\n    tag_545:\n        /* \"#utility.yul\":30098:30237   */\n      swap1\n      pop\n        /* \"#utility.yul\":29825:30244   */\n      swap2\n      swap1\n      pop\n      jump\t// out\n        /* \"#utility.yul\":30250:30660   */\n    tag_152:\n        /* \"#utility.yul\":30290:30297   */\n      0x00\n        /* \"#utility.yul\":30313:30333   */\n      tag_547\n        /* \"#utility.yul\":30331:30332   */\n      dup3\n        /* \"#utility.yul\":30313:30333   */\n      tag_174\n      jump\t// in\n    tag_547:\n        /* \"#utility.yul\":30308:30333   */\n      swap2\n      pop\n        /* \"#utility.yul\":30347:30367   */\n      tag_548\n        /* \"#utility.yul\":30365:30366   */\n      dup4\n        /* \"#utility.yul\":30347:30367   */\n      tag_174\n      jump\t// in\n    tag_548:\n        /* \"#utility.yul\":30342:30367   */\n      swap3\n      pop\n        /* \"#utility.yul\":30402:30403   */\n      dup3\n        /* \"#utility.yul\":30399:30400   */\n      dup3\n        /* \"#utility.yul\":30395:30404   */\n      mul\n        /* \"#utility.yul\":30424:30454   */\n      tag_549\n        /* \"#utility.yul\":30442:30453   */\n      dup2\n        /* \"#utility.yul\":30424:30454   */\n      tag_174\n      jump\t// in\n    tag_549:\n        /* \"#utility.yul\":30413:30454   */\n      swap2\n      pop\n        /* \"#utility.yul\":30603:30604   */\n      dup3\n        /* \"#utility.yul\":30594:30601   */\n      dup3\n        /* \"#utility.yul\":30590:30605   */\n      div\n        /* \"#utility.yul\":30587:30588   */\n      dup5\n        /* \"#utility.yul\":30584:30606   */\n      eq\n        /* \"#utility.yul\":30564:30565   */\n      dup4\n        /* \"#utility.yul\":30557:30566   */\n      iszero\n        /* \"#utility.yul\":30537:30620   */\n      or\n        /* \"#utility.yul\":30514:30653   */\n      tag_550\n      jumpi\n        /* \"#utility.yul\":30633:30651   */\n      tag_551\n      tag_208\n      jump\t// in\n    tag_551:\n        /* \"#utility.yul\":30514:30653   */\n    tag_550:\n        /* \"#utility.yul\":30298:30660   */\n      pop\n        /* \"#utility.yul\":30250:30660   */\n      swap3\n      swap2\n      pop\n      pop\n      jump\t// out\n        /* \"#utility.yul\":30666:30846   */\n    tag_251:\n        /* \"#utility.yul\":30714:30791   */\n      0x4e487b7100000000000000000000000000000000000000000000000000000000\n        /* \"#utility.yul\":30711:30712   */\n      0x00\n        /* \"#utility.yul\":30704:30792   */\n      mstore\n        /* \"#utility.yul\":30811:30815   */\n      0x12\n        /* \"#utility.yul\":30808:30809   */\n      0x04\n        /* \"#utility.yul\":30801:30816   */\n      mstore\n        /* \"#utility.yul\":30835:30839   */\n      0x24\n        /* \"#utility.yul\":30832:30833   */\n      0x00\n        /* \"#utility.yul\":30825:30840   */\n      revert\n        /* \"#utility.yul\":30852:31037   */\n    tag_155:\n        /* \"#utility.yul\":30892:30893   */\n      0x00\n        /* \"#utility.yul\":30909:30929   */\n      tag_554\n        /* \"#utility.yul\":30927:30928   */\n      dup3\n        /* \"#utility.yul\":30909:30929   */\n      tag_174\n      jump\t// in\n    tag_554:\n        /* \"#utility.yul\":30904:30929   */\n      swap2\n      pop\n        /* \"#utility.yul\":30943:30963   */\n      tag_555\n        /* \"#utility.yul\":30961:30962   */\n      dup4\n        /* \"#utility.yul\":30943:30963   */\n      tag_174\n      jump\t// in\n    tag_555:\n        /* \"#utility.yul\":30938:30963   */\n      swap3\n      pop\n        /* \"#utility.yul\":30982:30983   */\n      dup3\n        /* \"#utility.yul\":30972:31007   */\n      tag_556\n      jumpi\n        /* \"#utility.yul\":30987:31005   */\n      tag_557\n      tag_251\n      jump\t// in\n    tag_557:\n        /* \"#utility.yul\":30972:31007   */\n    tag_556:\n        /* \"#utility.yul\":31029:31030   */\n      dup3\n        /* \"#utility.yul\":31026:31027   */\n      dup3\n        /* \"#utility.yul\":31022:31031   */\n      div\n        /* \"#utility.yul\":31017:31031   */\n      swap1\n      pop\n        /* \"#utility.yul\":30852:31037   */\n      swap3\n      swap2\n      pop\n      pop\n      jump\t// out\n\n    auxdata: 0xa2646970667358221220ea34e650b00d91071cf0f9544f1a4860366327e9964cbd66720ae8ac8147c1e964736f6c63430008160033\n}\n",
				"bytecode": {
					"linkReferences": {},
					"object": "608060405234801561000f575f80fd5b503360035f6101000a81548173ffffffffffffffffffffffffffffffffffffffff021916908373ffffffffffffffffffffffffffffffffffffffff160217905550611fa78061005d5f395ff3fe60806040526004361061009b575f3560e01c8063a063416c11610063578063a063416c14610195578063ab7b1c89146101bd578063b0c11a70146101d9578063d0e30db014610218578063e0a09c6814610222578063f7f4f8ca1461024c5761009b565b806310c9e3861461009f5780632e1a7d4d146100c75780635e5c06e2146100ef5780638da5cb5b1461012c57806398c61c3714610156575b5f80fd5b3480156100aa575f80fd5b506100c560048036038101906100c09190610f9b565b610274565b005b3480156100d2575f80fd5b506100ed60048036038101906100e89190610feb565b61043a565b005b3480156100fa575f80fd5b5061011560048036038101906101109190611070565b610676565b6040516101239291906110aa565b60405180910390f35b348015610137575f80fd5b50610140610695565b60405161014d91906110e0565b60405180910390f35b348015610161575f80fd5b5061017c600480360381019061017791906110f9565b6106ba565b60405161018c9493929190611151565b60405180910390f35b3480156101a0575f80fd5b506101bb60048036038101906101b69190611394565b61070c565b005b6101d760048036038101906101d29190610feb565b610959565b005b3480156101e4575f80fd5b506101ff60048036038101906101fa919061144f565b610ae1565b60405161020f94939291906114f4565b60405180910390f35b610220610bbe565b005b34801561022d575f80fd5b50610236610ca4565b604051610243919061153e565b60405180910390f35b348015610257575f80fd5b50610272600480360381019061026d919061144f565b610ca9565b005b5f83116102b6576040517f08c379a00000000000000000000000000000000000000000000000000000000081526004016102ad906115c7565b60405180910390fd5b60015f3373ffffffffffffffffffffffffffffffffffffffff1673ffffffffffffffffffffffffffffffffffffffff1681526020019081526020015f20604051806080016040528085815260200184815260200183426103169190611612565b81526020015f1515815250908060018154018082558091505060019003905f5260205f2090600402015f909190919091505f820151815f015560208201518160010155604082015181600201556060820151816003015f6101000a81548160ff0219169083151502179055505050825f803373ffffffffffffffffffffffffffffffffffffffff1673ffffffffffffffffffffffffffffffffffffffff1681526020019081526020015f205f015f8282546103d19190611612565b925050819055503373ffffffffffffffffffffffffffffffffffffffff167f1daae93c0719c540c3891d8a11e5f3b79cbd03028f1fa7e520d31c1a878433358484844261041e9190611612565b60405161042d93929190611645565b60405180910390a2505050565b5f803373ffffffffffffffffffffffffffffffffffffffff1673ffffffffffffffffffffffffffffffffffffffff1681526020019081526020015f205f01548111156104bb576040517f08c379a00000000000000000000000000000000000000000000000000000000081526004016104b2906116c4565b60405180910390fd5b603c5f803373ffffffffffffffffffffffffffffffffffffffff1673ffffffffffffffffffffffffffffffffffffffff1681526020019081526020015f20600101546105079190611612565b421015610549576040517f08c379a00000000000000000000000000000000000000000000000000000000081526004016105409061172c565b60405180910390fd5b805f803373ffffffffffffffffffffffffffffffffffffffff1673ffffffffffffffffffffffffffffffffffffffff1681526020019081526020015f205f015f828254610596919061174a565b92505081905550425f803373ffffffffffffffffffffffffffffffffffffffff1673ffffffffffffffffffffffffffffffffffffffff1681526020019081526020015f20600101819055503373ffffffffffffffffffffffffffffffffffffffff166108fc8290811502906040515f60405180830381858888f19350505050158015610624573d5f803e3d5ffd5b503373ffffffffffffffffffffffffffffffffffffffff167fbc158bb64f05d6383aea69bbb0b20c1bbf4b7a18f63359c5649b7c39e29d38848260405161066b919061153e565b60405180910390a250565b5f602052805f5260405f205f91509050805f0154908060010154905082565b60035f9054906101000a900473ffffffffffffffffffffffffffffffffffffffff1681565b6001602052815f5260405f2081815481106106d3575f80fd5b905f5260205f2090600402015f9150915050805f015490806001015490806002015490806003015f9054906101000a900460ff16905084565b60035f9054906101000a900473ffffffffffffffffffffffffffffffffffffffff1673ffffffffffffffffffffffffffffffffffffffff163373ffffffffffffffffffffffffffffffffffffffff161461079b576040517f08c379a0000000000000000000000000000000000000000000000000000000008152600401610792906117ed565b60405180910390fd5b60018351116107df576040517f08c379a00000000000000000000000000000000000000000000000000000000081526004016107d690611855565b60405180910390fd5b5f423384846040516020016107f79493929190611912565b6040516020818303038152906040528051906020012090506040518060a001604052803373ffffffffffffffffffffffffffffffffffffffff1681526020018581526020018481526020018381526020015f151581525060025f8381526020019081526020015f205f820151815f015f6101000a81548173ffffffffffffffffffffffffffffffffffffffff021916908373ffffffffffffffffffffffffffffffffffffffff16021790555060208201518160010190805190602001906108bf929190610eb5565b506040820151816002015560608201518160030190816108df9190611b55565b506080820151816004015f6101000a81548160ff0219169083151502179055509050503373ffffffffffffffffffffffffffffffffffffffff16817ffd74b5f657a19eb96ae7d01d747a216747c1454bc1722bbbce4b7f92e653070b858560405161094b929190611c24565b60405180910390a350505050565b5f60015f3373ffffffffffffffffffffffffffffffffffffffff1673ffffffffffffffffffffffffffffffffffffffff1681526020019081526020015f2082815481106109a9576109a8611c52565b5b905f5260205f2090600402019050806003015f9054906101000a900460ff1615610a08576040517f08c379a00000000000000000000000000000000000000000000000000000000081526004016109ff90611cc9565b60405180910390fd5b5f610a1f825f015483600101548460020154610dbb565b825f0154610a2d9190611612565b905080341015610a72576040517f08c379a0000000000000000000000000000000000000000000000000000000008152600401610a6990611d57565b60405180910390fd5b6001826003015f6101000a81548160ff0219169083151502179055503373ffffffffffffffffffffffffffffffffffffffff167fc200a1f31dd659e356e0f112c82558e25f49f7b0f84438691cd96f5cb355882382604051610ad4919061153e565b60405180910390a2505050565b6002602052805f5260405f205f91509050805f015f9054906101000a900473ffffffffffffffffffffffffffffffffffffffff1690806002015490806003018054610b2b90611988565b80601f0160208091040260200160405190810160405280929190818152602001828054610b5790611988565b8015610ba25780601f10610b7957610100808354040283529160200191610ba2565b820191905f5260205f20905b815481529060010190602001808311610b8557829003601f168201915b505050505090806004015f9054906101000a900460ff16905084565b5f3411610c00576040517f08c379a0000000000000000000000000000000000000000000000000000000008152600401610bf790611de5565b60405180910390fd5b345f803373ffffffffffffffffffffffffffffffffffffffff1673ffffffffffffffffffffffffffffffffffffffff1681526020019081526020015f205f015f828254610c4d9190611612565b925050819055503373ffffffffffffffffffffffffffffffffffffffff167fd15c9547ea5c06670c0010ce19bc32d54682a4b3801ece7f3ab0c3f17106b4bb34604051610c9a919061153e565b60405180910390a2565b603c81565b5f60025f8381526020019081526020015f209050806004015f9054906101000a900460ff1615610d0e576040517f08c379a0000000000000000000000000000000000000000000000000000000008152600401610d0590611e4d565b60405180910390fd5b610d188133610e0e565b610d57576040517f08c379a0000000000000000000000000000000000000000000000000000000008152600401610d4e90611eb5565b60405180910390fd5b6001816004015f6101000a81548160ff0219169083151502179055503373ffffffffffffffffffffffffffffffffffffffff16827f7efc7e3e06efec0944252879d6ed13a80e06353f99e0ddcefdd6400391a8f5d860405160405180910390a35050565b5f80824211610dca575f610dd7565b8242610dd6919061174a565b5b90505f63bbf81e00828688610dec9190611ed3565b610df69190611ed3565b610e009190611f41565b905080925050509392505050565b5f805f90505b8360010180549050811015610eaa578273ffffffffffffffffffffffffffffffffffffffff16846001018281548110610e5057610e4f611c52565b5b905f5260205f20015f9054906101000a900473ffffffffffffffffffffffffffffffffffffffff1673ffffffffffffffffffffffffffffffffffffffff1603610e9d576001915050610eaf565b8080600101915050610e14565b505f90505b92915050565b828054828255905f5260205f20908101928215610f2b579160200282015b82811115610f2a578251825f6101000a81548173ffffffffffffffffffffffffffffffffffffffff021916908373ffffffffffffffffffffffffffffffffffffffff16021790555091602001919060010190610ed3565b5b509050610f389190610f3c565b5090565b5b80821115610f53575f815f905550600101610f3d565b5090565b5f604051905090565b5f80fd5b5f80fd5b5f819050919050565b610f7a81610f68565b8114610f84575f80fd5b50565b5f81359050610f9581610f71565b92915050565b5f805f60608486031215610fb257610fb1610f60565b5b5f610fbf86828701610f87565b9350506020610fd086828701610f87565b9250506040610fe186828701610f87565b9150509250925092565b5f6020828403121561100057610fff610f60565b5b5f61100d84828501610f87565b91505092915050565b5f73ffffffffffffffffffffffffffffffffffffffff82169050919050565b5f61103f82611016565b9050919050565b61104f81611035565b8114611059575f80fd5b50565b5f8135905061106a81611046565b92915050565b5f6020828403121561108557611084610f60565b5b5f6110928482850161105c565b91505092915050565b6110a481610f68565b82525050565b5f6040820190506110bd5f83018561109b565b6110ca602083018461109b565b9392505050565b6110da81611035565b82525050565b5f6020820190506110f35f8301846110d1565b92915050565b5f806040838503121561110f5761110e610f60565b5b5f61111c8582860161105c565b925050602061112d85828601610f87565b9150509250929050565b5f8115159050919050565b61114b81611137565b82525050565b5f6080820190506111645f83018761109b565b611171602083018661109b565b61117e604083018561109b565b61118b6060830184611142565b95945050505050565b5f80fd5b5f601f19601f8301169050919050565b7f4e487b71000000000000000000000000000000000000000000000000000000005f52604160045260245ffd5b6111de82611198565b810181811067ffffffffffffffff821117156111fd576111fc6111a8565b5b80604052505050565b5f61120f610f57565b905061121b82826111d5565b919050565b5f67ffffffffffffffff82111561123a576112396111a8565b5b602082029050602081019050919050565b5f80fd5b5f61126161125c84611220565b611206565b905080838252602082019050602084028301858111156112845761128361124b565b5b835b818110156112ad5780611299888261105c565b845260208401935050602081019050611286565b5050509392505050565b5f82601f8301126112cb576112ca611194565b5b81356112db84826020860161124f565b91505092915050565b5f80fd5b5f67ffffffffffffffff821115611302576113016111a8565b5b61130b82611198565b9050602081019050919050565b828183375f83830152505050565b5f611338611333846112e8565b611206565b905082815260208101848484011115611354576113536112e4565b5b61135f848285611318565b509392505050565b5f82601f83011261137b5761137a611194565b5b813561138b848260208601611326565b91505092915050565b5f805f606084860312156113ab576113aa610f60565b5b5f84013567ffffffffffffffff8111156113c8576113c7610f64565b5b6113d4868287016112b7565b93505060206113e586828701610f87565b925050604084013567ffffffffffffffff81111561140657611405610f64565b5b61141286828701611367565b9150509250925092565b5f819050919050565b61142e8161141c565b8114611438575f80fd5b50565b5f8135905061144981611425565b92915050565b5f6020828403121561146457611463610f60565b5b5f6114718482850161143b565b91505092915050565b5f81519050919050565b5f82825260208201905092915050565b5f5b838110156114b1578082015181840152602081019050611496565b5f8484015250505050565b5f6114c68261147a565b6114d08185611484565b93506114e0818560208601611494565b6114e981611198565b840191505092915050565b5f6080820190506115075f8301876110d1565b611514602083018661109b565b818103604083015261152681856114bc565b90506115356060830184611142565b95945050505050565b5f6020820190506115515f83018461109b565b92915050565b7f4c6f616e20616d6f756e74206d7573742062652067726561746572207468616e5f8201527f2030000000000000000000000000000000000000000000000000000000000000602082015250565b5f6115b1602283611484565b91506115bc82611557565b604082019050919050565b5f6020820190508181035f8301526115de816115a5565b9050919050565b7f4e487b71000000000000000000000000000000000000000000000000000000005f52601160045260245ffd5b5f61161c82610f68565b915061162783610f68565b925082820190508082111561163f5761163e6115e5565b5b92915050565b5f6060820190506116585f83018661109b565b611665602083018561109b565b611672604083018461109b565b949350505050565b7f496e73756666696369656e742062616c616e63650000000000000000000000005f82015250565b5f6116ae601483611484565b91506116b98261167a565b602082019050919050565b5f6020820190508181035f8301526116db816116a2565b9050919050565b7f5769746864726177616c206973206c6f636b65640000000000000000000000005f82015250565b5f611716601483611484565b9150611721826116e2565b602082019050919050565b5f6020820190508181035f8301526117438161170a565b9050919050565b5f61175482610f68565b915061175f83610f68565b9250828203905081811115611777576117766115e5565b5b92915050565b7f4f6e6c7920746865206f776e65722063616e20706572666f726d2074686973205f8201527f616374696f6e0000000000000000000000000000000000000000000000000000602082015250565b5f6117d7602683611484565b91506117e28261177d565b604082019050919050565b5f6020820190508181035f830152611804816117cb565b9050919050565b7f4174206c656173742074776f207369676e6572732072657175697265640000005f82015250565b5f61183f601d83611484565b915061184a8261180b565b602082019050919050565b5f6020820190508181035f83015261186c81611833565b9050919050565b5f819050919050565b61188d61188882610f68565b611873565b82525050565b5f8160601b9050919050565b5f6118a982611893565b9050919050565b5f6118ba8261189f565b9050919050565b6118d26118cd82611035565b6118b0565b82525050565b5f81905092915050565b5f6118ec8261147a565b6118f681856118d8565b9350611906818560208601611494565b80840191505092915050565b5f61191d828761187c565b60208201915061192d82866118c1565b60148201915061193d828561187c565b60208201915061194d82846118e2565b915081905095945050505050565b7f4e487b71000000000000000000000000000000000000000000000000000000005f52602260045260245ffd5b5f600282049050600182168061199f57607f821691505b6020821081036119b2576119b161195b565b5b50919050565b5f819050815f5260205f209050919050565b5f6020601f8301049050919050565b5f82821b905092915050565b5f60088302611a147fffffffffffffffffffffffffffffffffffffffffffffffffffffffffffffffff826119d9565b611a1e86836119d9565b95508019841693508086168417925050509392505050565b5f819050919050565b5f611a59611a54611a4f84610f68565b611a36565b610f68565b9050919050565b5f819050919050565b611a7283611a3f565b611a86611a7e82611a60565b8484546119e5565b825550505050565b5f90565b611a9a611a8e565b611aa5818484611a69565b505050565b5b81811015611ac857611abd5f82611a92565b600181019050611aab565b5050565b601f821115611b0d57611ade816119b8565b611ae7846119ca565b81016020851015611af6578190505b611b0a611b02856119ca565b830182611aaa565b50505b505050565b5f82821c905092915050565b5f611b2d5f1984600802611b12565b1980831691505092915050565b5f611b458383611b1e565b9150826002028217905092915050565b611b5e8261147a565b67ffffffffffffffff811115611b7757611b766111a8565b5b611b818254611988565b611b8c828285611acc565b5f60209050601f831160018114611bbd575f8415611bab578287015190505b611bb58582611b3a565b865550611c1c565b601f198416611bcb866119b8565b5f5b82811015611bf257848901518255600182019150602085019450602081019050611bcd565b86831015611c0f5784890151611c0b601f891682611b1e565b8355505b6001600288020188555050505b505050505050565b5f604082019050611c375f83018561109b565b8181036020830152611c4981846114bc565b90509392505050565b7f4e487b71000000000000000000000000000000000000000000000000000000005f52603260045260245ffd5b7f4c6f616e20697320616c726561647920726570616964000000000000000000005f82015250565b5f611cb3601683611484565b9150611cbe82611c7f565b602082019050919050565b5f6020820190508181035f830152611ce081611ca7565b9050919050565b7f496e73756666696369656e7420616d6f756e7420746f207265706179207468655f8201527f206c6f616e000000000000000000000000000000000000000000000000000000602082015250565b5f611d41602583611484565b9150611d4c82611ce7565b604082019050919050565b5f6020820190508181035f830152611d6e81611d35565b9050919050565b7f4465706f7369742076616c7565206d75737420626520677265617465722074685f8201527f616e203000000000000000000000000000000000000000000000000000000000602082015250565b5f611dcf602483611484565b9150611dda82611d75565b604082019050919050565b5f6020820190508181035f830152611dfc81611dc3565b9050919050565b7f5472616e73616374696f6e20616c7265616479206578656375746564000000005f82015250565b5f611e37601c83611484565b9150611e4282611e03565b602082019050919050565b5f6020820190508181035f830152611e6481611e2b565b9050919050565b7f43616c6c6572206973206e6f742061207369676e6572000000000000000000005f82015250565b5f611e9f601683611484565b9150611eaa82611e6b565b602082019050919050565b5f6020820190508181035f830152611ecc81611e93565b9050919050565b5f611edd82610f68565b9150611ee883610f68565b9250828202611ef681610f68565b91508282048414831517611f0d57611f0c6115e5565b5b5092915050565b7f4e487b71000000000000000000000000000000000000000000000000000000005f52601260045260245ffd5b5f611f4b82610f68565b9150611f5683610f68565b925082611f6657611f65611f14565b5b82820490509291505056fea2646970667358221220ea34e650b00d91071cf0f9544f1a4860366327e9964cbd66720ae8ac8147c1e964736f6c63430008160033",
					"opcodes": "PUSH1 0x80 PUSH1 0x40 MSTORE CALLVALUE DUP1 ISZERO PUSH2 0xF JUMPI PUSH0 DUP1 REVERT JUMPDEST POP CALLER PUSH1 0x3 PUSH0 PUSH2 0x100 EXP DUP2 SLOAD DUP2 PUSH20 0xFFFFFFFFFFFFFFFFFFFFFFFFFFFFFFFFFFFFFFFF MUL NOT AND SWAP1 DUP4 PUSH20 0xFFFFFFFFFFFFFFFFFFFFFFFFFFFFFFFFFFFFFFFF AND MUL OR SWAP1 SSTORE POP PUSH2 0x1FA7 DUP1 PUSH2 0x5D PUSH0 CODECOPY PUSH0 RETURN INVALID PUSH1 0x80 PUSH1 0x40 MSTORE PUSH1 0x4 CALLDATASIZE LT PUSH2 0x9B JUMPI PUSH0 CALLDATALOAD PUSH1 0xE0 SHR DUP1 PUSH4 0xA063416C GT PUSH2 0x63 JUMPI DUP1 PUSH4 0xA063416C EQ PUSH2 0x195 JUMPI DUP1 PUSH4 0xAB7B1C89 EQ PUSH2 0x1BD JUMPI DUP1 PUSH4 0xB0C11A70 EQ PUSH2 0x1D9 JUMPI DUP1 PUSH4 0xD0E30DB0 EQ PUSH2 0x218 JUMPI DUP1 PUSH4 0xE0A09C68 EQ PUSH2 0x222 JUMPI DUP1 PUSH4 0xF7F4F8CA EQ PUSH2 0x24C JUMPI PUSH2 0x9B JUMP JUMPDEST DUP1 PUSH4 0x10C9E386 EQ PUSH2 0x9F JUMPI DUP1 PUSH4 0x2E1A7D4D EQ PUSH2 0xC7 JUMPI DUP1 PUSH4 0x5E5C06E2 EQ PUSH2 0xEF JUMPI DUP1 PUSH4 0x8DA5CB5B EQ PUSH2 0x12C JUMPI DUP1 PUSH4 0x98C61C37 EQ PUSH2 0x156 JUMPI JUMPDEST PUSH0 DUP1 REVERT JUMPDEST CALLVALUE DUP1 ISZERO PUSH2 0xAA JUMPI PUSH0 DUP1 REVERT JUMPDEST POP PUSH2 0xC5 PUSH1 0x4 DUP1 CALLDATASIZE SUB DUP2 ADD SWAP1 PUSH2 0xC0 SWAP2 SWAP1 PUSH2 0xF9B JUMP JUMPDEST PUSH2 0x274 JUMP JUMPDEST STOP JUMPDEST CALLVALUE DUP1 ISZERO PUSH2 0xD2 JUMPI PUSH0 DUP1 REVERT JUMPDEST POP PUSH2 0xED PUSH1 0x4 DUP1 CALLDATASIZE SUB DUP2 ADD SWAP1 PUSH2 0xE8 SWAP2 SWAP1 PUSH2 0xFEB JUMP JUMPDEST PUSH2 0x43A JUMP JUMPDEST STOP JUMPDEST CALLVALUE DUP1 ISZERO PUSH2 0xFA JUMPI PUSH0 DUP1 REVERT JUMPDEST POP PUSH2 0x115 PUSH1 0x4 DUP1 CALLDATASIZE SUB DUP2 ADD SWAP1 PUSH2 0x110 SWAP2 SWAP1 PUSH2 0x1070 JUMP JUMPDEST PUSH2 0x676 JUMP JUMPDEST PUSH1 0x40 MLOAD PUSH2 0x123 SWAP3 SWAP2 SWAP1 PUSH2 0x10AA JUMP JUMPDEST PUSH1 0x40 MLOAD DUP1 SWAP2 SUB SWAP1 RETURN JUMPDEST CALLVALUE DUP1 ISZERO PUSH2 0x137 JUMPI PUSH0 DUP1 REVERT JUMPDEST POP PUSH2 0x140 PUSH2 0x695 JUMP JUMPDEST PUSH1 0x40 MLOAD PUSH2 0x14D SWAP2 SWAP1 PUSH2 0x10E0 JUMP JUMPDEST PUSH1 0x40 MLOAD DUP1 SWAP2 SUB SWAP1 RETURN JUMPDEST CALLVALUE DUP1 ISZERO PUSH2 0x161 JUMPI PUSH0 DUP1 REVERT JUMPDEST POP PUSH2 0x17C PUSH1 0x4 DUP1 CALLDATASIZE SUB DUP2 ADD SWAP1 PUSH2 0x177 SWAP2 SWAP1 PUSH2 0x10F9 JUMP JUMPDEST PUSH2 0x6BA JUMP JUMPDEST PUSH1 0x40 MLOAD PUSH2 0x18C SWAP5 SWAP4 SWAP3 SWAP2 SWAP1 PUSH2 0x1151 JUMP JUMPDEST PUSH1 0x40 MLOAD DUP1 SWAP2 SUB SWAP1 RETURN JUMPDEST CALLVALUE DUP1 ISZERO PUSH2 0x1A0 JUMPI PUSH0 DUP1 REVERT JUMPDEST POP PUSH2 0x1BB PUSH1 0x4 DUP1 CALLDATASIZE SUB DUP2 ADD SWAP1 PUSH2 0x1B6 SWAP2 SWAP1 PUSH2 0x1394 JUMP JUMPDEST PUSH2 0x70C JUMP JUMPDEST STOP JUMPDEST PUSH2 0x1D7 PUSH1 0x4 DUP1 CALLDATASIZE SUB DUP2 ADD SWAP1 PUSH2 0x1D2 SWAP2 SWAP1 PUSH2 0xFEB JUMP JUMPDEST PUSH2 0x959 JUMP JUMPDEST STOP JUMPDEST CALLVALUE DUP1 ISZERO PUSH2 0x1E4 JUMPI PUSH0 DUP1 REVERT JUMPDEST POP PUSH2 0x1FF PUSH1 0x4 DUP1 CALLDATASIZE SUB DUP2 ADD SWAP1 PUSH2 0x1FA SWAP2 SWAP1 PUSH2 0x144F JUMP JUMPDEST PUSH2 0xAE1 JUMP JUMPDEST PUSH1 0x40 MLOAD PUSH2 0x20F SWAP5 SWAP4 SWAP3 SWAP2 SWAP1 PUSH2 0x14F4 JUMP JUMPDEST PUSH1 0x40 MLOAD DUP1 SWAP2 SUB SWAP1 RETURN JUMPDEST PUSH2 0x220 PUSH2 0xBBE JUMP JUMPDEST STOP JUMPDEST CALLVALUE DUP1 ISZERO PUSH2 0x22D JUMPI PUSH0 DUP1 REVERT JUMPDEST POP PUSH2 0x236 PUSH2 0xCA4 JUMP JUMPDEST PUSH1 0x40 MLOAD PUSH2 0x243 SWAP2 SWAP1 PUSH2 0x153E JUMP JUMPDEST PUSH1 0x40 MLOAD DUP1 SWAP2 SUB SWAP1 RETURN JUMPDEST CALLVALUE DUP1 ISZERO PUSH2 0x257 JUMPI PUSH0 DUP1 REVERT JUMPDEST POP PUSH2 0x272 PUSH1 0x4 DUP1 CALLDATASIZE SUB DUP2 ADD SWAP1 PUSH2 0x26D SWAP2 SWAP1 PUSH2 0x144F JUMP JUMPDEST PUSH2 0xCA9 JUMP JUMPDEST STOP JUMPDEST PUSH0 DUP4 GT PUSH2 0x2B6 JUMPI PUSH1 0x40 MLOAD PUSH32 0x8C379A000000000000000000000000000000000000000000000000000000000 DUP2 MSTORE PUSH1 0x4 ADD PUSH2 0x2AD SWAP1 PUSH2 0x15C7 JUMP JUMPDEST PUSH1 0x40 MLOAD DUP1 SWAP2 SUB SWAP1 REVERT JUMPDEST PUSH1 0x1 PUSH0 CALLER PUSH20 0xFFFFFFFFFFFFFFFFFFFFFFFFFFFFFFFFFFFFFFFF AND PUSH20 0xFFFFFFFFFFFFFFFFFFFFFFFFFFFFFFFFFFFFFFFF AND DUP2 MSTORE PUSH1 0x20 ADD SWAP1 DUP2 MSTORE PUSH1 0x20 ADD PUSH0 KECCAK256 PUSH1 0x40 MLOAD DUP1 PUSH1 0x80 ADD PUSH1 0x40 MSTORE DUP1 DUP6 DUP2 MSTORE PUSH1 0x20 ADD DUP5 DUP2 MSTORE PUSH1 0x20 ADD DUP4 TIMESTAMP PUSH2 0x316 SWAP2 SWAP1 PUSH2 0x1612 JUMP JUMPDEST DUP2 MSTORE PUSH1 0x20 ADD PUSH0 ISZERO ISZERO DUP2 MSTORE POP SWAP1 DUP1 PUSH1 0x1 DUP2 SLOAD ADD DUP1 DUP3 SSTORE DUP1 SWAP2 POP POP PUSH1 0x1 SWAP1 SUB SWAP1 PUSH0 MSTORE PUSH1 0x20 PUSH0 KECCAK256 SWAP1 PUSH1 0x4 MUL ADD PUSH0 SWAP1 SWAP2 SWAP1 SWAP2 SWAP1 SWAP2 POP PUSH0 DUP3 ADD MLOAD DUP2 PUSH0 ADD SSTORE PUSH1 0x20 DUP3 ADD MLOAD DUP2 PUSH1 0x1 ADD SSTORE PUSH1 0x40 DUP3 ADD MLOAD DUP2 PUSH1 0x2 ADD SSTORE PUSH1 0x60 DUP3 ADD MLOAD DUP2 PUSH1 0x3 ADD PUSH0 PUSH2 0x100 EXP DUP2 SLOAD DUP2 PUSH1 0xFF MUL NOT AND SWAP1 DUP4 ISZERO ISZERO MUL OR SWAP1 SSTORE POP POP POP DUP3 PUSH0 DUP1 CALLER PUSH20 0xFFFFFFFFFFFFFFFFFFFFFFFFFFFFFFFFFFFFFFFF AND PUSH20 0xFFFFFFFFFFFFFFFFFFFFFFFFFFFFFFFFFFFFFFFF AND DUP2 MSTORE PUSH1 0x20 ADD SWAP1 DUP2 MSTORE PUSH1 0x20 ADD PUSH0 KECCAK256 PUSH0 ADD PUSH0 DUP3 DUP3 SLOAD PUSH2 0x3D1 SWAP2 SWAP1 PUSH2 0x1612 JUMP JUMPDEST SWAP3 POP POP DUP2 SWAP1 SSTORE POP CALLER PUSH20 0xFFFFFFFFFFFFFFFFFFFFFFFFFFFFFFFFFFFFFFFF AND PUSH32 0x1DAAE93C0719C540C3891D8A11E5F3B79CBD03028F1FA7E520D31C1A87843335 DUP5 DUP5 DUP5 TIMESTAMP PUSH2 0x41E SWAP2 SWAP1 PUSH2 0x1612 JUMP JUMPDEST PUSH1 0x40 MLOAD PUSH2 0x42D SWAP4 SWAP3 SWAP2 SWAP1 PUSH2 0x1645 JUMP JUMPDEST PUSH1 0x40 MLOAD DUP1 SWAP2 SUB SWAP1 LOG2 POP POP POP JUMP JUMPDEST PUSH0 DUP1 CALLER PUSH20 0xFFFFFFFFFFFFFFFFFFFFFFFFFFFFFFFFFFFFFFFF AND PUSH20 0xFFFFFFFFFFFFFFFFFFFFFFFFFFFFFFFFFFFFFFFF AND DUP2 MSTORE PUSH1 0x20 ADD SWAP1 DUP2 MSTORE PUSH1 0x20 ADD PUSH0 KECCAK256 PUSH0 ADD SLOAD DUP2 GT ISZERO PUSH2 0x4BB JUMPI PUSH1 0x40 MLOAD PUSH32 0x8C379A000000000000000000000000000000000000000000000000000000000 DUP2 MSTORE PUSH1 0x4 ADD PUSH2 0x4B2 SWAP1 PUSH2 0x16C4 JUMP JUMPDEST PUSH1 0x40 MLOAD DUP1 SWAP2 SUB SWAP1 REVERT JUMPDEST PUSH1 0x3C PUSH0 DUP1 CALLER PUSH20 0xFFFFFFFFFFFFFFFFFFFFFFFFFFFFFFFFFFFFFFFF AND PUSH20 0xFFFFFFFFFFFFFFFFFFFFFFFFFFFFFFFFFFFFFFFF AND DUP2 MSTORE PUSH1 0x20 ADD SWAP1 DUP2 MSTORE PUSH1 0x20 ADD PUSH0 KECCAK256 PUSH1 0x1 ADD SLOAD PUSH2 0x507 SWAP2 SWAP1 PUSH2 0x1612 JUMP JUMPDEST TIMESTAMP LT ISZERO PUSH2 0x549 JUMPI PUSH1 0x40 MLOAD PUSH32 0x8C379A000000000000000000000000000000000000000000000000000000000 DUP2 MSTORE PUSH1 0x4 ADD PUSH2 0x540 SWAP1 PUSH2 0x172C JUMP JUMPDEST PUSH1 0x40 MLOAD DUP1 SWAP2 SUB SWAP1 REVERT JUMPDEST DUP1 PUSH0 DUP1 CALLER PUSH20 0xFFFFFFFFFFFFFFFFFFFFFFFFFFFFFFFFFFFFFFFF AND PUSH20 0xFFFFFFFFFFFFFFFFFFFFFFFFFFFFFFFFFFFFFFFF AND DUP2 MSTORE PUSH1 0x20 ADD SWAP1 DUP2 MSTORE PUSH1 0x20 ADD PUSH0 KECCAK256 PUSH0 ADD PUSH0 DUP3 DUP3 SLOAD PUSH2 0x596 SWAP2 SWAP1 PUSH2 0x174A JUMP JUMPDEST SWAP3 POP POP DUP2 SWAP1 SSTORE POP TIMESTAMP PUSH0 DUP1 CALLER PUSH20 0xFFFFFFFFFFFFFFFFFFFFFFFFFFFFFFFFFFFFFFFF AND PUSH20 0xFFFFFFFFFFFFFFFFFFFFFFFFFFFFFFFFFFFFFFFF AND DUP2 MSTORE PUSH1 0x20 ADD SWAP1 DUP2 MSTORE PUSH1 0x20 ADD PUSH0 KECCAK256 PUSH1 0x1 ADD DUP2 SWAP1 SSTORE POP CALLER PUSH20 0xFFFFFFFFFFFFFFFFFFFFFFFFFFFFFFFFFFFFFFFF AND PUSH2 0x8FC DUP3 SWAP1 DUP2 ISZERO MUL SWAP1 PUSH1 0x40 MLOAD PUSH0 PUSH1 0x40 MLOAD DUP1 DUP4 SUB DUP2 DUP6 DUP9 DUP9 CALL SWAP4 POP POP POP POP ISZERO DUP1 ISZERO PUSH2 0x624 JUMPI RETURNDATASIZE PUSH0 DUP1 RETURNDATACOPY RETURNDATASIZE PUSH0 REVERT JUMPDEST POP CALLER PUSH20 0xFFFFFFFFFFFFFFFFFFFFFFFFFFFFFFFFFFFFFFFF AND PUSH32 0xBC158BB64F05D6383AEA69BBB0B20C1BBF4B7A18F63359C5649B7C39E29D3884 DUP3 PUSH1 0x40 MLOAD PUSH2 0x66B SWAP2 SWAP1 PUSH2 0x153E JUMP JUMPDEST PUSH1 0x40 MLOAD DUP1 SWAP2 SUB SWAP1 LOG2 POP JUMP JUMPDEST PUSH0 PUSH1 0x20 MSTORE DUP1 PUSH0 MSTORE PUSH1 0x40 PUSH0 KECCAK256 PUSH0 SWAP2 POP SWAP1 POP DUP1 PUSH0 ADD SLOAD SWAP1 DUP1 PUSH1 0x1 ADD SLOAD SWAP1 POP DUP3 JUMP JUMPDEST PUSH1 0x3 PUSH0 SWAP1 SLOAD SWAP1 PUSH2 0x100 EXP SWAP1 DIV PUSH20 0xFFFFFFFFFFFFFFFFFFFFFFFFFFFFFFFFFFFFFFFF AND DUP2 JUMP JUMPDEST PUSH1 0x1 PUSH1 0x20 MSTORE DUP2 PUSH0 MSTORE PUSH1 0x40 PUSH0 KECCAK256 DUP2 DUP2 SLOAD DUP2 LT PUSH2 0x6D3 JUMPI PUSH0 DUP1 REVERT JUMPDEST SWAP1 PUSH0 MSTORE PUSH1 0x20 PUSH0 KECCAK256 SWAP1 PUSH1 0x4 MUL ADD PUSH0 SWAP2 POP SWAP2 POP POP DUP1 PUSH0 ADD SLOAD SWAP1 DUP1 PUSH1 0x1 ADD SLOAD SWAP1 DUP1 PUSH1 0x2 ADD SLOAD SWAP1 DUP1 PUSH1 0x3 ADD PUSH0 SWAP1 SLOAD SWAP1 PUSH2 0x100 EXP SWAP1 DIV PUSH1 0xFF AND SWAP1 POP DUP5 JUMP JUMPDEST PUSH1 0x3 PUSH0 SWAP1 SLOAD SWAP1 PUSH2 0x100 EXP SWAP1 DIV PUSH20 0xFFFFFFFFFFFFFFFFFFFFFFFFFFFFFFFFFFFFFFFF AND PUSH20 0xFFFFFFFFFFFFFFFFFFFFFFFFFFFFFFFFFFFFFFFF AND CALLER PUSH20 0xFFFFFFFFFFFFFFFFFFFFFFFFFFFFFFFFFFFFFFFF AND EQ PUSH2 0x79B JUMPI PUSH1 0x40 MLOAD PUSH32 0x8C379A000000000000000000000000000000000000000000000000000000000 DUP2 MSTORE PUSH1 0x4 ADD PUSH2 0x792 SWAP1 PUSH2 0x17ED JUMP JUMPDEST PUSH1 0x40 MLOAD DUP1 SWAP2 SUB SWAP1 REVERT JUMPDEST PUSH1 0x1 DUP4 MLOAD GT PUSH2 0x7DF JUMPI PUSH1 0x40 MLOAD PUSH32 0x8C379A000000000000000000000000000000000000000000000000000000000 DUP2 MSTORE PUSH1 0x4 ADD PUSH2 0x7D6 SWAP1 PUSH2 0x1855 JUMP JUMPDEST PUSH1 0x40 MLOAD DUP1 SWAP2 SUB SWAP1 REVERT JUMPDEST PUSH0 TIMESTAMP CALLER DUP5 DUP5 PUSH1 0x40 MLOAD PUSH1 0x20 ADD PUSH2 0x7F7 SWAP5 SWAP4 SWAP3 SWAP2 SWAP1 PUSH2 0x1912 JUMP JUMPDEST PUSH1 0x40 MLOAD PUSH1 0x20 DUP2 DUP4 SUB SUB DUP2 MSTORE SWAP1 PUSH1 0x40 MSTORE DUP1 MLOAD SWAP1 PUSH1 0x20 ADD KECCAK256 SWAP1 POP PUSH1 0x40 MLOAD DUP1 PUSH1 0xA0 ADD PUSH1 0x40 MSTORE DUP1 CALLER PUSH20 0xFFFFFFFFFFFFFFFFFFFFFFFFFFFFFFFFFFFFFFFF AND DUP2 MSTORE PUSH1 0x20 ADD DUP6 DUP2 MSTORE PUSH1 0x20 ADD DUP5 DUP2 MSTORE PUSH1 0x20 ADD DUP4 DUP2 MSTORE PUSH1 0x20 ADD PUSH0 ISZERO ISZERO DUP2 MSTORE POP PUSH1 0x2 PUSH0 DUP4 DUP2 MSTORE PUSH1 0x20 ADD SWAP1 DUP2 MSTORE PUSH1 0x20 ADD PUSH0 KECCAK256 PUSH0 DUP3 ADD MLOAD DUP2 PUSH0 ADD PUSH0 PUSH2 0x100 EXP DUP2 SLOAD DUP2 PUSH20 0xFFFFFFFFFFFFFFFFFFFFFFFFFFFFFFFFFFFFFFFF MUL NOT AND SWAP1 DUP4 PUSH20 0xFFFFFFFFFFFFFFFFFFFFFFFFFFFFFFFFFFFFFFFF AND MUL OR SWAP1 SSTORE POP PUSH1 0x20 DUP3 ADD MLOAD DUP2 PUSH1 0x1 ADD SWAP1 DUP1 MLOAD SWAP1 PUSH1 0x20 ADD SWAP1 PUSH2 0x8BF SWAP3 SWAP2 SWAP1 PUSH2 0xEB5 JUMP JUMPDEST POP PUSH1 0x40 DUP3 ADD MLOAD DUP2 PUSH1 0x2 ADD SSTORE PUSH1 0x60 DUP3 ADD MLOAD DUP2 PUSH1 0x3 ADD SWAP1 DUP2 PUSH2 0x8DF SWAP2 SWAP1 PUSH2 0x1B55 JUMP JUMPDEST POP PUSH1 0x80 DUP3 ADD MLOAD DUP2 PUSH1 0x4 ADD PUSH0 PUSH2 0x100 EXP DUP2 SLOAD DUP2 PUSH1 0xFF MUL NOT AND SWAP1 DUP4 ISZERO ISZERO MUL OR SWAP1 SSTORE POP SWAP1 POP POP CALLER PUSH20 0xFFFFFFFFFFFFFFFFFFFFFFFFFFFFFFFFFFFFFFFF AND DUP2 PUSH32 0xFD74B5F657A19EB96AE7D01D747A216747C1454BC1722BBBCE4B7F92E653070B DUP6 DUP6 PUSH1 0x40 MLOAD PUSH2 0x94B SWAP3 SWAP2 SWAP1 PUSH2 0x1C24 JUMP JUMPDEST PUSH1 0x40 MLOAD DUP1 SWAP2 SUB SWAP1 LOG3 POP POP POP POP JUMP JUMPDEST PUSH0 PUSH1 0x1 PUSH0 CALLER PUSH20 0xFFFFFFFFFFFFFFFFFFFFFFFFFFFFFFFFFFFFFFFF AND PUSH20 0xFFFFFFFFFFFFFFFFFFFFFFFFFFFFFFFFFFFFFFFF AND DUP2 MSTORE PUSH1 0x20 ADD SWAP1 DUP2 MSTORE PUSH1 0x20 ADD PUSH0 KECCAK256 DUP3 DUP2 SLOAD DUP2 LT PUSH2 0x9A9 JUMPI PUSH2 0x9A8 PUSH2 0x1C52 JUMP JUMPDEST JUMPDEST SWAP1 PUSH0 MSTORE PUSH1 0x20 PUSH0 KECCAK256 SWAP1 PUSH1 0x4 MUL ADD SWAP1 POP DUP1 PUSH1 0x3 ADD PUSH0 SWAP1 SLOAD SWAP1 PUSH2 0x100 EXP SWAP1 DIV PUSH1 0xFF AND ISZERO PUSH2 0xA08 JUMPI PUSH1 0x40 MLOAD PUSH32 0x8C379A000000000000000000000000000000000000000000000000000000000 DUP2 MSTORE PUSH1 0x4 ADD PUSH2 0x9FF SWAP1 PUSH2 0x1CC9 JUMP JUMPDEST PUSH1 0x40 MLOAD DUP1 SWAP2 SUB SWAP1 REVERT JUMPDEST PUSH0 PUSH2 0xA1F DUP3 PUSH0 ADD SLOAD DUP4 PUSH1 0x1 ADD SLOAD DUP5 PUSH1 0x2 ADD SLOAD PUSH2 0xDBB JUMP JUMPDEST DUP3 PUSH0 ADD SLOAD PUSH2 0xA2D SWAP2 SWAP1 PUSH2 0x1612 JUMP JUMPDEST SWAP1 POP DUP1 CALLVALUE LT ISZERO PUSH2 0xA72 JUMPI PUSH1 0x40 MLOAD PUSH32 0x8C379A000000000000000000000000000000000000000000000000000000000 DUP2 MSTORE PUSH1 0x4 ADD PUSH2 0xA69 SWAP1 PUSH2 0x1D57 JUMP JUMPDEST PUSH1 0x40 MLOAD DUP1 SWAP2 SUB SWAP1 REVERT JUMPDEST PUSH1 0x1 DUP3 PUSH1 0x3 ADD PUSH0 PUSH2 0x100 EXP DUP2 SLOAD DUP2 PUSH1 0xFF MUL NOT AND SWAP1 DUP4 ISZERO ISZERO MUL OR SWAP1 SSTORE POP CALLER PUSH20 0xFFFFFFFFFFFFFFFFFFFFFFFFFFFFFFFFFFFFFFFF AND PUSH32 0xC200A1F31DD659E356E0F112C82558E25F49F7B0F84438691CD96F5CB3558823 DUP3 PUSH1 0x40 MLOAD PUSH2 0xAD4 SWAP2 SWAP1 PUSH2 0x153E JUMP JUMPDEST PUSH1 0x40 MLOAD DUP1 SWAP2 SUB SWAP1 LOG2 POP POP POP JUMP JUMPDEST PUSH1 0x2 PUSH1 0x20 MSTORE DUP1 PUSH0 MSTORE PUSH1 0x40 PUSH0 KECCAK256 PUSH0 SWAP2 POP SWAP1 POP DUP1 PUSH0 ADD PUSH0 SWAP1 SLOAD SWAP1 PUSH2 0x100 EXP SWAP1 DIV PUSH20 0xFFFFFFFFFFFFFFFFFFFFFFFFFFFFFFFFFFFFFFFF AND SWAP1 DUP1 PUSH1 0x2 ADD SLOAD SWAP1 DUP1 PUSH1 0x3 ADD DUP1 SLOAD PUSH2 0xB2B SWAP1 PUSH2 0x1988 JUMP JUMPDEST DUP1 PUSH1 0x1F ADD PUSH1 0x20 DUP1 SWAP2 DIV MUL PUSH1 0x20 ADD PUSH1 0x40 MLOAD SWAP1 DUP2 ADD PUSH1 0x40 MSTORE DUP1 SWAP3 SWAP2 SWAP1 DUP2 DUP2 MSTORE PUSH1 0x20 ADD DUP3 DUP1 SLOAD PUSH2 0xB57 SWAP1 PUSH2 0x1988 JUMP JUMPDEST DUP1 ISZERO PUSH2 0xBA2 JUMPI DUP1 PUSH1 0x1F LT PUSH2 0xB79 JUMPI PUSH2 0x100 DUP1 DUP4 SLOAD DIV MUL DUP4 MSTORE SWAP2 PUSH1 0x20 ADD SWAP2 PUSH2 0xBA2 JUMP JUMPDEST DUP3 ADD SWAP2 SWAP1 PUSH0 MSTORE PUSH1 0x20 PUSH0 KECCAK256 SWAP1 JUMPDEST DUP2 SLOAD DUP2 MSTORE SWAP1 PUSH1 0x1 ADD SWAP1 PUSH1 0x20 ADD DUP1 DUP4 GT PUSH2 0xB85 JUMPI DUP3 SWAP1 SUB PUSH1 0x1F AND DUP3 ADD SWAP2 JUMPDEST POP POP POP POP POP SWAP1 DUP1 PUSH1 0x4 ADD PUSH0 SWAP1 SLOAD SWAP1 PUSH2 0x100 EXP SWAP1 DIV PUSH1 0xFF AND SWAP1 POP DUP5 JUMP JUMPDEST PUSH0 CALLVALUE GT PUSH2 0xC00 JUMPI PUSH1 0x40 MLOAD PUSH32 0x8C379A000000000000000000000000000000000000000000000000000000000 DUP2 MSTORE PUSH1 0x4 ADD PUSH2 0xBF7 SWAP1 PUSH2 0x1DE5 JUMP JUMPDEST PUSH1 0x40 MLOAD DUP1 SWAP2 SUB SWAP1 REVERT JUMPDEST CALLVALUE PUSH0 DUP1 CALLER PUSH20 0xFFFFFFFFFFFFFFFFFFFFFFFFFFFFFFFFFFFFFFFF AND PUSH20 0xFFFFFFFFFFFFFFFFFFFFFFFFFFFFFFFFFFFFFFFF AND DUP2 MSTORE PUSH1 0x20 ADD SWAP1 DUP2 MSTORE PUSH1 0x20 ADD PUSH0 KECCAK256 PUSH0 ADD PUSH0 DUP3 DUP3 SLOAD PUSH2 0xC4D SWAP2 SWAP1 PUSH2 0x1612 JUMP JUMPDEST SWAP3 POP POP DUP2 SWAP1 SSTORE POP CALLER PUSH20 0xFFFFFFFFFFFFFFFFFFFFFFFFFFFFFFFFFFFFFFFF AND PUSH32 0xD15C9547EA5C06670C0010CE19BC32D54682A4B3801ECE7F3AB0C3F17106B4BB CALLVALUE PUSH1 0x40 MLOAD PUSH2 0xC9A SWAP2 SWAP1 PUSH2 0x153E JUMP JUMPDEST PUSH1 0x40 MLOAD DUP1 SWAP2 SUB SWAP1 LOG2 JUMP JUMPDEST PUSH1 0x3C DUP2 JUMP JUMPDEST PUSH0 PUSH1 0x2 PUSH0 DUP4 DUP2 MSTORE PUSH1 0x20 ADD SWAP1 DUP2 MSTORE PUSH1 0x20 ADD PUSH0 KECCAK256 SWAP1 POP DUP1 PUSH1 0x4 ADD PUSH0 SWAP1 SLOAD SWAP1 PUSH2 0x100 EXP SWAP1 DIV PUSH1 0xFF AND ISZERO PUSH2 0xD0E JUMPI PUSH1 0x40 MLOAD PUSH32 0x8C379A000000000000000000000000000000000000000000000000000000000 DUP2 MSTORE PUSH1 0x4 ADD PUSH2 0xD05 SWAP1 PUSH2 0x1E4D JUMP JUMPDEST PUSH1 0x40 MLOAD DUP1 SWAP2 SUB SWAP1 REVERT JUMPDEST PUSH2 0xD18 DUP2 CALLER PUSH2 0xE0E JUMP JUMPDEST PUSH2 0xD57 JUMPI PUSH1 0x40 MLOAD PUSH32 0x8C379A000000000000000000000000000000000000000000000000000000000 DUP2 MSTORE PUSH1 0x4 ADD PUSH2 0xD4E SWAP1 PUSH2 0x1EB5 JUMP JUMPDEST PUSH1 0x40 MLOAD DUP1 SWAP2 SUB SWAP1 REVERT JUMPDEST PUSH1 0x1 DUP2 PUSH1 0x4 ADD PUSH0 PUSH2 0x100 EXP DUP2 SLOAD DUP2 PUSH1 0xFF MUL NOT AND SWAP1 DUP4 ISZERO ISZERO MUL OR SWAP1 SSTORE POP CALLER PUSH20 0xFFFFFFFFFFFFFFFFFFFFFFFFFFFFFFFFFFFFFFFF AND DUP3 PUSH32 0x7EFC7E3E06EFEC0944252879D6ED13A80E06353F99E0DDCEFDD6400391A8F5D8 PUSH1 0x40 MLOAD PUSH1 0x40 MLOAD DUP1 SWAP2 SUB SWAP1 LOG3 POP POP JUMP JUMPDEST PUSH0 DUP1 DUP3 TIMESTAMP GT PUSH2 0xDCA JUMPI PUSH0 PUSH2 0xDD7 JUMP JUMPDEST DUP3 TIMESTAMP PUSH2 0xDD6 SWAP2 SWAP1 PUSH2 0x174A JUMP JUMPDEST JUMPDEST SWAP1 POP PUSH0 PUSH4 0xBBF81E00 DUP3 DUP7 DUP9 PUSH2 0xDEC SWAP2 SWAP1 PUSH2 0x1ED3 JUMP JUMPDEST PUSH2 0xDF6 SWAP2 SWAP1 PUSH2 0x1ED3 JUMP JUMPDEST PUSH2 0xE00 SWAP2 SWAP1 PUSH2 0x1F41 JUMP JUMPDEST SWAP1 POP DUP1 SWAP3 POP POP POP SWAP4 SWAP3 POP POP POP JUMP JUMPDEST PUSH0 DUP1 PUSH0 SWAP1 POP JUMPDEST DUP4 PUSH1 0x1 ADD DUP1 SLOAD SWAP1 POP DUP2 LT ISZERO PUSH2 0xEAA JUMPI DUP3 PUSH20 0xFFFFFFFFFFFFFFFFFFFFFFFFFFFFFFFFFFFFFFFF AND DUP5 PUSH1 0x1 ADD DUP3 DUP2 SLOAD DUP2 LT PUSH2 0xE50 JUMPI PUSH2 0xE4F PUSH2 0x1C52 JUMP JUMPDEST JUMPDEST SWAP1 PUSH0 MSTORE PUSH1 0x20 PUSH0 KECCAK256 ADD PUSH0 SWAP1 SLOAD SWAP1 PUSH2 0x100 EXP SWAP1 DIV PUSH20 0xFFFFFFFFFFFFFFFFFFFFFFFFFFFFFFFFFFFFFFFF AND PUSH20 0xFFFFFFFFFFFFFFFFFFFFFFFFFFFFFFFFFFFFFFFF AND SUB PUSH2 0xE9D JUMPI PUSH1 0x1 SWAP2 POP POP PUSH2 0xEAF JUMP JUMPDEST DUP1 DUP1 PUSH1 0x1 ADD SWAP2 POP POP PUSH2 0xE14 JUMP JUMPDEST POP PUSH0 SWAP1 POP JUMPDEST SWAP3 SWAP2 POP POP JUMP JUMPDEST DUP3 DUP1 SLOAD DUP3 DUP3 SSTORE SWAP1 PUSH0 MSTORE PUSH1 0x20 PUSH0 KECCAK256 SWAP1 DUP2 ADD SWAP3 DUP3 ISZERO PUSH2 0xF2B JUMPI SWAP2 PUSH1 0x20 MUL DUP3 ADD JUMPDEST DUP3 DUP2 GT ISZERO PUSH2 0xF2A JUMPI DUP3 MLOAD DUP3 PUSH0 PUSH2 0x100 EXP DUP2 SLOAD DUP2 PUSH20 0xFFFFFFFFFFFFFFFFFFFFFFFFFFFFFFFFFFFFFFFF MUL NOT AND SWAP1 DUP4 PUSH20 0xFFFFFFFFFFFFFFFFFFFFFFFFFFFFFFFFFFFFFFFF AND MUL OR SWAP1 SSTORE POP SWAP2 PUSH1 0x20 ADD SWAP2 SWAP1 PUSH1 0x1 ADD SWAP1 PUSH2 0xED3 JUMP JUMPDEST JUMPDEST POP SWAP1 POP PUSH2 0xF38 SWAP2 SWAP1 PUSH2 0xF3C JUMP JUMPDEST POP SWAP1 JUMP JUMPDEST JUMPDEST DUP1 DUP3 GT ISZERO PUSH2 0xF53 JUMPI PUSH0 DUP2 PUSH0 SWAP1 SSTORE POP PUSH1 0x1 ADD PUSH2 0xF3D JUMP JUMPDEST POP SWAP1 JUMP JUMPDEST PUSH0 PUSH1 0x40 MLOAD SWAP1 POP SWAP1 JUMP JUMPDEST PUSH0 DUP1 REVERT JUMPDEST PUSH0 DUP1 REVERT JUMPDEST PUSH0 DUP2 SWAP1 POP SWAP2 SWAP1 POP JUMP JUMPDEST PUSH2 0xF7A DUP2 PUSH2 0xF68 JUMP JUMPDEST DUP2 EQ PUSH2 0xF84 JUMPI PUSH0 DUP1 REVERT JUMPDEST POP JUMP JUMPDEST PUSH0 DUP2 CALLDATALOAD SWAP1 POP PUSH2 0xF95 DUP2 PUSH2 0xF71 JUMP JUMPDEST SWAP3 SWAP2 POP POP JUMP JUMPDEST PUSH0 DUP1 PUSH0 PUSH1 0x60 DUP5 DUP7 SUB SLT ISZERO PUSH2 0xFB2 JUMPI PUSH2 0xFB1 PUSH2 0xF60 JUMP JUMPDEST JUMPDEST PUSH0 PUSH2 0xFBF DUP7 DUP3 DUP8 ADD PUSH2 0xF87 JUMP JUMPDEST SWAP4 POP POP PUSH1 0x20 PUSH2 0xFD0 DUP7 DUP3 DUP8 ADD PUSH2 0xF87 JUMP JUMPDEST SWAP3 POP POP PUSH1 0x40 PUSH2 0xFE1 DUP7 DUP3 DUP8 ADD PUSH2 0xF87 JUMP JUMPDEST SWAP2 POP POP SWAP3 POP SWAP3 POP SWAP3 JUMP JUMPDEST PUSH0 PUSH1 0x20 DUP3 DUP5 SUB SLT ISZERO PUSH2 0x1000 JUMPI PUSH2 0xFFF PUSH2 0xF60 JUMP JUMPDEST JUMPDEST PUSH0 PUSH2 0x100D DUP5 DUP3 DUP6 ADD PUSH2 0xF87 JUMP JUMPDEST SWAP2 POP POP SWAP3 SWAP2 POP POP JUMP JUMPDEST PUSH0 PUSH20 0xFFFFFFFFFFFFFFFFFFFFFFFFFFFFFFFFFFFFFFFF DUP3 AND SWAP1 POP SWAP2 SWAP1 POP JUMP JUMPDEST PUSH0 PUSH2 0x103F DUP3 PUSH2 0x1016 JUMP JUMPDEST SWAP1 POP SWAP2 SWAP1 POP JUMP JUMPDEST PUSH2 0x104F DUP2 PUSH2 0x1035 JUMP JUMPDEST DUP2 EQ PUSH2 0x1059 JUMPI PUSH0 DUP1 REVERT JUMPDEST POP JUMP JUMPDEST PUSH0 DUP2 CALLDATALOAD SWAP1 POP PUSH2 0x106A DUP2 PUSH2 0x1046 JUMP JUMPDEST SWAP3 SWAP2 POP POP JUMP JUMPDEST PUSH0 PUSH1 0x20 DUP3 DUP5 SUB SLT ISZERO PUSH2 0x1085 JUMPI PUSH2 0x1084 PUSH2 0xF60 JUMP JUMPDEST JUMPDEST PUSH0 PUSH2 0x1092 DUP5 DUP3 DUP6 ADD PUSH2 0x105C JUMP JUMPDEST SWAP2 POP POP SWAP3 SWAP2 POP POP JUMP JUMPDEST PUSH2 0x10A4 DUP2 PUSH2 0xF68 JUMP JUMPDEST DUP3 MSTORE POP POP JUMP JUMPDEST PUSH0 PUSH1 0x40 DUP3 ADD SWAP1 POP PUSH2 0x10BD PUSH0 DUP4 ADD DUP6 PUSH2 0x109B JUMP JUMPDEST PUSH2 0x10CA PUSH1 0x20 DUP4 ADD DUP5 PUSH2 0x109B JUMP JUMPDEST SWAP4 SWAP3 POP POP POP JUMP JUMPDEST PUSH2 0x10DA DUP2 PUSH2 0x1035 JUMP JUMPDEST DUP3 MSTORE POP POP JUMP JUMPDEST PUSH0 PUSH1 0x20 DUP3 ADD SWAP1 POP PUSH2 0x10F3 PUSH0 DUP4 ADD DUP5 PUSH2 0x10D1 JUMP JUMPDEST SWAP3 SWAP2 POP POP JUMP JUMPDEST PUSH0 DUP1 PUSH1 0x40 DUP4 DUP6 SUB SLT ISZERO PUSH2 0x110F JUMPI PUSH2 0x110E PUSH2 0xF60 JUMP JUMPDEST JUMPDEST PUSH0 PUSH2 0x111C DUP6 DUP3 DUP7 ADD PUSH2 0x105C JUMP JUMPDEST SWAP3 POP POP PUSH1 0x20 PUSH2 0x112D DUP6 DUP3 DUP7 ADD PUSH2 0xF87 JUMP JUMPDEST SWAP2 POP POP SWAP3 POP SWAP3 SWAP1 POP JUMP JUMPDEST PUSH0 DUP2 ISZERO ISZERO SWAP1 POP SWAP2 SWAP1 POP JUMP JUMPDEST PUSH2 0x114B DUP2 PUSH2 0x1137 JUMP JUMPDEST DUP3 MSTORE POP POP JUMP JUMPDEST PUSH0 PUSH1 0x80 DUP3 ADD SWAP1 POP PUSH2 0x1164 PUSH0 DUP4 ADD DUP8 PUSH2 0x109B JUMP JUMPDEST PUSH2 0x1171 PUSH1 0x20 DUP4 ADD DUP7 PUSH2 0x109B JUMP JUMPDEST PUSH2 0x117E PUSH1 0x40 DUP4 ADD DUP6 PUSH2 0x109B JUMP JUMPDEST PUSH2 0x118B PUSH1 0x60 DUP4 ADD DUP5 PUSH2 0x1142 JUMP JUMPDEST SWAP6 SWAP5 POP POP POP POP POP JUMP JUMPDEST PUSH0 DUP1 REVERT JUMPDEST PUSH0 PUSH1 0x1F NOT PUSH1 0x1F DUP4 ADD AND SWAP1 POP SWAP2 SWAP1 POP JUMP JUMPDEST PUSH32 0x4E487B7100000000000000000000000000000000000000000000000000000000 PUSH0 MSTORE PUSH1 0x41 PUSH1 0x4 MSTORE PUSH1 0x24 PUSH0 REVERT JUMPDEST PUSH2 0x11DE DUP3 PUSH2 0x1198 JUMP JUMPDEST DUP2 ADD DUP2 DUP2 LT PUSH8 0xFFFFFFFFFFFFFFFF DUP3 GT OR ISZERO PUSH2 0x11FD JUMPI PUSH2 0x11FC PUSH2 0x11A8 JUMP JUMPDEST JUMPDEST DUP1 PUSH1 0x40 MSTORE POP POP POP JUMP JUMPDEST PUSH0 PUSH2 0x120F PUSH2 0xF57 JUMP JUMPDEST SWAP1 POP PUSH2 0x121B DUP3 DUP3 PUSH2 0x11D5 JUMP JUMPDEST SWAP2 SWAP1 POP JUMP JUMPDEST PUSH0 PUSH8 0xFFFFFFFFFFFFFFFF DUP3 GT ISZERO PUSH2 0x123A JUMPI PUSH2 0x1239 PUSH2 0x11A8 JUMP JUMPDEST JUMPDEST PUSH1 0x20 DUP3 MUL SWAP1 POP PUSH1 0x20 DUP2 ADD SWAP1 POP SWAP2 SWAP1 POP JUMP JUMPDEST PUSH0 DUP1 REVERT JUMPDEST PUSH0 PUSH2 0x1261 PUSH2 0x125C DUP5 PUSH2 0x1220 JUMP JUMPDEST PUSH2 0x1206 JUMP JUMPDEST SWAP1 POP DUP1 DUP4 DUP3 MSTORE PUSH1 0x20 DUP3 ADD SWAP1 POP PUSH1 0x20 DUP5 MUL DUP4 ADD DUP6 DUP2 GT ISZERO PUSH2 0x1284 JUMPI PUSH2 0x1283 PUSH2 0x124B JUMP JUMPDEST JUMPDEST DUP4 JUMPDEST DUP2 DUP2 LT ISZERO PUSH2 0x12AD JUMPI DUP1 PUSH2 0x1299 DUP9 DUP3 PUSH2 0x105C JUMP JUMPDEST DUP5 MSTORE PUSH1 0x20 DUP5 ADD SWAP4 POP POP PUSH1 0x20 DUP2 ADD SWAP1 POP PUSH2 0x1286 JUMP JUMPDEST POP POP POP SWAP4 SWAP3 POP POP POP JUMP JUMPDEST PUSH0 DUP3 PUSH1 0x1F DUP4 ADD SLT PUSH2 0x12CB JUMPI PUSH2 0x12CA PUSH2 0x1194 JUMP JUMPDEST JUMPDEST DUP2 CALLDATALOAD PUSH2 0x12DB DUP5 DUP3 PUSH1 0x20 DUP7 ADD PUSH2 0x124F JUMP JUMPDEST SWAP2 POP POP SWAP3 SWAP2 POP POP JUMP JUMPDEST PUSH0 DUP1 REVERT JUMPDEST PUSH0 PUSH8 0xFFFFFFFFFFFFFFFF DUP3 GT ISZERO PUSH2 0x1302 JUMPI PUSH2 0x1301 PUSH2 0x11A8 JUMP JUMPDEST JUMPDEST PUSH2 0x130B DUP3 PUSH2 0x1198 JUMP JUMPDEST SWAP1 POP PUSH1 0x20 DUP2 ADD SWAP1 POP SWAP2 SWAP1 POP JUMP JUMPDEST DUP3 DUP2 DUP4 CALLDATACOPY PUSH0 DUP4 DUP4 ADD MSTORE POP POP POP JUMP JUMPDEST PUSH0 PUSH2 0x1338 PUSH2 0x1333 DUP5 PUSH2 0x12E8 JUMP JUMPDEST PUSH2 0x1206 JUMP JUMPDEST SWAP1 POP DUP3 DUP2 MSTORE PUSH1 0x20 DUP2 ADD DUP5 DUP5 DUP5 ADD GT ISZERO PUSH2 0x1354 JUMPI PUSH2 0x1353 PUSH2 0x12E4 JUMP JUMPDEST JUMPDEST PUSH2 0x135F DUP5 DUP3 DUP6 PUSH2 0x1318 JUMP JUMPDEST POP SWAP4 SWAP3 POP POP POP JUMP JUMPDEST PUSH0 DUP3 PUSH1 0x1F DUP4 ADD SLT PUSH2 0x137B JUMPI PUSH2 0x137A PUSH2 0x1194 JUMP JUMPDEST JUMPDEST DUP2 CALLDATALOAD PUSH2 0x138B DUP5 DUP3 PUSH1 0x20 DUP7 ADD PUSH2 0x1326 JUMP JUMPDEST SWAP2 POP POP SWAP3 SWAP2 POP POP JUMP JUMPDEST PUSH0 DUP1 PUSH0 PUSH1 0x60 DUP5 DUP7 SUB SLT ISZERO PUSH2 0x13AB JUMPI PUSH2 0x13AA PUSH2 0xF60 JUMP JUMPDEST JUMPDEST PUSH0 DUP5 ADD CALLDATALOAD PUSH8 0xFFFFFFFFFFFFFFFF DUP2 GT ISZERO PUSH2 0x13C8 JUMPI PUSH2 0x13C7 PUSH2 0xF64 JUMP JUMPDEST JUMPDEST PUSH2 0x13D4 DUP7 DUP3 DUP8 ADD PUSH2 0x12B7 JUMP JUMPDEST SWAP4 POP POP PUSH1 0x20 PUSH2 0x13E5 DUP7 DUP3 DUP8 ADD PUSH2 0xF87 JUMP JUMPDEST SWAP3 POP POP PUSH1 0x40 DUP5 ADD CALLDATALOAD PUSH8 0xFFFFFFFFFFFFFFFF DUP2 GT ISZERO PUSH2 0x1406 JUMPI PUSH2 0x1405 PUSH2 0xF64 JUMP JUMPDEST JUMPDEST PUSH2 0x1412 DUP7 DUP3 DUP8 ADD PUSH2 0x1367 JUMP JUMPDEST SWAP2 POP POP SWAP3 POP SWAP3 POP SWAP3 JUMP JUMPDEST PUSH0 DUP2 SWAP1 POP SWAP2 SWAP1 POP JUMP JUMPDEST PUSH2 0x142E DUP2 PUSH2 0x141C JUMP JUMPDEST DUP2 EQ PUSH2 0x1438 JUMPI PUSH0 DUP1 REVERT JUMPDEST POP JUMP JUMPDEST PUSH0 DUP2 CALLDATALOAD SWAP1 POP PUSH2 0x1449 DUP2 PUSH2 0x1425 JUMP JUMPDEST SWAP3 SWAP2 POP POP JUMP JUMPDEST PUSH0 PUSH1 0x20 DUP3 DUP5 SUB SLT ISZERO PUSH2 0x1464 JUMPI PUSH2 0x1463 PUSH2 0xF60 JUMP JUMPDEST JUMPDEST PUSH0 PUSH2 0x1471 DUP5 DUP3 DUP6 ADD PUSH2 0x143B JUMP JUMPDEST SWAP2 POP POP SWAP3 SWAP2 POP POP JUMP JUMPDEST PUSH0 DUP2 MLOAD SWAP1 POP SWAP2 SWAP1 POP JUMP JUMPDEST PUSH0 DUP3 DUP3 MSTORE PUSH1 0x20 DUP3 ADD SWAP1 POP SWAP3 SWAP2 POP POP JUMP JUMPDEST PUSH0 JUMPDEST DUP4 DUP2 LT ISZERO PUSH2 0x14B1 JUMPI DUP1 DUP3 ADD MLOAD DUP2 DUP5 ADD MSTORE PUSH1 0x20 DUP2 ADD SWAP1 POP PUSH2 0x1496 JUMP JUMPDEST PUSH0 DUP5 DUP5 ADD MSTORE POP POP POP POP JUMP JUMPDEST PUSH0 PUSH2 0x14C6 DUP3 PUSH2 0x147A JUMP JUMPDEST PUSH2 0x14D0 DUP2 DUP6 PUSH2 0x1484 JUMP JUMPDEST SWAP4 POP PUSH2 0x14E0 DUP2 DUP6 PUSH1 0x20 DUP7 ADD PUSH2 0x1494 JUMP JUMPDEST PUSH2 0x14E9 DUP2 PUSH2 0x1198 JUMP JUMPDEST DUP5 ADD SWAP2 POP POP SWAP3 SWAP2 POP POP JUMP JUMPDEST PUSH0 PUSH1 0x80 DUP3 ADD SWAP1 POP PUSH2 0x1507 PUSH0 DUP4 ADD DUP8 PUSH2 0x10D1 JUMP JUMPDEST PUSH2 0x1514 PUSH1 0x20 DUP4 ADD DUP7 PUSH2 0x109B JUMP JUMPDEST DUP2 DUP2 SUB PUSH1 0x40 DUP4 ADD MSTORE PUSH2 0x1526 DUP2 DUP6 PUSH2 0x14BC JUMP JUMPDEST SWAP1 POP PUSH2 0x1535 PUSH1 0x60 DUP4 ADD DUP5 PUSH2 0x1142 JUMP JUMPDEST SWAP6 SWAP5 POP POP POP POP POP JUMP JUMPDEST PUSH0 PUSH1 0x20 DUP3 ADD SWAP1 POP PUSH2 0x1551 PUSH0 DUP4 ADD DUP5 PUSH2 0x109B JUMP JUMPDEST SWAP3 SWAP2 POP POP JUMP JUMPDEST PUSH32 0x4C6F616E20616D6F756E74206D7573742062652067726561746572207468616E PUSH0 DUP3 ADD MSTORE PUSH32 0x2030000000000000000000000000000000000000000000000000000000000000 PUSH1 0x20 DUP3 ADD MSTORE POP JUMP JUMPDEST PUSH0 PUSH2 0x15B1 PUSH1 0x22 DUP4 PUSH2 0x1484 JUMP JUMPDEST SWAP2 POP PUSH2 0x15BC DUP3 PUSH2 0x1557 JUMP JUMPDEST PUSH1 0x40 DUP3 ADD SWAP1 POP SWAP2 SWAP1 POP JUMP JUMPDEST PUSH0 PUSH1 0x20 DUP3 ADD SWAP1 POP DUP2 DUP2 SUB PUSH0 DUP4 ADD MSTORE PUSH2 0x15DE DUP2 PUSH2 0x15A5 JUMP JUMPDEST SWAP1 POP SWAP2 SWAP1 POP JUMP JUMPDEST PUSH32 0x4E487B7100000000000000000000000000000000000000000000000000000000 PUSH0 MSTORE PUSH1 0x11 PUSH1 0x4 MSTORE PUSH1 0x24 PUSH0 REVERT JUMPDEST PUSH0 PUSH2 0x161C DUP3 PUSH2 0xF68 JUMP JUMPDEST SWAP2 POP PUSH2 0x1627 DUP4 PUSH2 0xF68 JUMP JUMPDEST SWAP3 POP DUP3 DUP3 ADD SWAP1 POP DUP1 DUP3 GT ISZERO PUSH2 0x163F JUMPI PUSH2 0x163E PUSH2 0x15E5 JUMP JUMPDEST JUMPDEST SWAP3 SWAP2 POP POP JUMP JUMPDEST PUSH0 PUSH1 0x60 DUP3 ADD SWAP1 POP PUSH2 0x1658 PUSH0 DUP4 ADD DUP7 PUSH2 0x109B JUMP JUMPDEST PUSH2 0x1665 PUSH1 0x20 DUP4 ADD DUP6 PUSH2 0x109B JUMP JUMPDEST PUSH2 0x1672 PUSH1 0x40 DUP4 ADD DUP5 PUSH2 0x109B JUMP JUMPDEST SWAP5 SWAP4 POP POP POP POP JUMP JUMPDEST PUSH32 0x496E73756666696369656E742062616C616E6365000000000000000000000000 PUSH0 DUP3 ADD MSTORE POP JUMP JUMPDEST PUSH0 PUSH2 0x16AE PUSH1 0x14 DUP4 PUSH2 0x1484 JUMP JUMPDEST SWAP2 POP PUSH2 0x16B9 DUP3 PUSH2 0x167A JUMP JUMPDEST PUSH1 0x20 DUP3 ADD SWAP1 POP SWAP2 SWAP1 POP JUMP JUMPDEST PUSH0 PUSH1 0x20 DUP3 ADD SWAP1 POP DUP2 DUP2 SUB PUSH0 DUP4 ADD MSTORE PUSH2 0x16DB DUP2 PUSH2 0x16A2 JUMP JUMPDEST SWAP1 POP SWAP2 SWAP1 POP JUMP JUMPDEST PUSH32 0x5769746864726177616C206973206C6F636B6564000000000000000000000000 PUSH0 DUP3 ADD MSTORE POP JUMP JUMPDEST PUSH0 PUSH2 0x1716 PUSH1 0x14 DUP4 PUSH2 0x1484 JUMP JUMPDEST SWAP2 POP PUSH2 0x1721 DUP3 PUSH2 0x16E2 JUMP JUMPDEST PUSH1 0x20 DUP3 ADD SWAP1 POP SWAP2 SWAP1 POP JUMP JUMPDEST PUSH0 PUSH1 0x20 DUP3 ADD SWAP1 POP DUP2 DUP2 SUB PUSH0 DUP4 ADD MSTORE PUSH2 0x1743 DUP2 PUSH2 0x170A JUMP JUMPDEST SWAP1 POP SWAP2 SWAP1 POP JUMP JUMPDEST PUSH0 PUSH2 0x1754 DUP3 PUSH2 0xF68 JUMP JUMPDEST SWAP2 POP PUSH2 0x175F DUP4 PUSH2 0xF68 JUMP JUMPDEST SWAP3 POP DUP3 DUP3 SUB SWAP1 POP DUP2 DUP2 GT ISZERO PUSH2 0x1777 JUMPI PUSH2 0x1776 PUSH2 0x15E5 JUMP JUMPDEST JUMPDEST SWAP3 SWAP2 POP POP JUMP JUMPDEST PUSH32 0x4F6E6C7920746865206F776E65722063616E20706572666F726D207468697320 PUSH0 DUP3 ADD MSTORE PUSH32 0x616374696F6E0000000000000000000000000000000000000000000000000000 PUSH1 0x20 DUP3 ADD MSTORE POP JUMP JUMPDEST PUSH0 PUSH2 0x17D7 PUSH1 0x26 DUP4 PUSH2 0x1484 JUMP JUMPDEST SWAP2 POP PUSH2 0x17E2 DUP3 PUSH2 0x177D JUMP JUMPDEST PUSH1 0x40 DUP3 ADD SWAP1 POP SWAP2 SWAP1 POP JUMP JUMPDEST PUSH0 PUSH1 0x20 DUP3 ADD SWAP1 POP DUP2 DUP2 SUB PUSH0 DUP4 ADD MSTORE PUSH2 0x1804 DUP2 PUSH2 0x17CB JUMP JUMPDEST SWAP1 POP SWAP2 SWAP1 POP JUMP JUMPDEST PUSH32 0x4174206C656173742074776F207369676E657273207265717569726564000000 PUSH0 DUP3 ADD MSTORE POP JUMP JUMPDEST PUSH0 PUSH2 0x183F PUSH1 0x1D DUP4 PUSH2 0x1484 JUMP JUMPDEST SWAP2 POP PUSH2 0x184A DUP3 PUSH2 0x180B JUMP JUMPDEST PUSH1 0x20 DUP3 ADD SWAP1 POP SWAP2 SWAP1 POP JUMP JUMPDEST PUSH0 PUSH1 0x20 DUP3 ADD SWAP1 POP DUP2 DUP2 SUB PUSH0 DUP4 ADD MSTORE PUSH2 0x186C DUP2 PUSH2 0x1833 JUMP JUMPDEST SWAP1 POP SWAP2 SWAP1 POP JUMP JUMPDEST PUSH0 DUP2 SWAP1 POP SWAP2 SWAP1 POP JUMP JUMPDEST PUSH2 0x188D PUSH2 0x1888 DUP3 PUSH2 0xF68 JUMP JUMPDEST PUSH2 0x1873 JUMP JUMPDEST DUP3 MSTORE POP POP JUMP JUMPDEST PUSH0 DUP2 PUSH1 0x60 SHL SWAP1 POP SWAP2 SWAP1 POP JUMP JUMPDEST PUSH0 PUSH2 0x18A9 DUP3 PUSH2 0x1893 JUMP JUMPDEST SWAP1 POP SWAP2 SWAP1 POP JUMP JUMPDEST PUSH0 PUSH2 0x18BA DUP3 PUSH2 0x189F JUMP JUMPDEST SWAP1 POP SWAP2 SWAP1 POP JUMP JUMPDEST PUSH2 0x18D2 PUSH2 0x18CD DUP3 PUSH2 0x1035 JUMP JUMPDEST PUSH2 0x18B0 JUMP JUMPDEST DUP3 MSTORE POP POP JUMP JUMPDEST PUSH0 DUP2 SWAP1 POP SWAP3 SWAP2 POP POP JUMP JUMPDEST PUSH0 PUSH2 0x18EC DUP3 PUSH2 0x147A JUMP JUMPDEST PUSH2 0x18F6 DUP2 DUP6 PUSH2 0x18D8 JUMP JUMPDEST SWAP4 POP PUSH2 0x1906 DUP2 DUP6 PUSH1 0x20 DUP7 ADD PUSH2 0x1494 JUMP JUMPDEST DUP1 DUP5 ADD SWAP2 POP POP SWAP3 SWAP2 POP POP JUMP JUMPDEST PUSH0 PUSH2 0x191D DUP3 DUP8 PUSH2 0x187C JUMP JUMPDEST PUSH1 0x20 DUP3 ADD SWAP2 POP PUSH2 0x192D DUP3 DUP7 PUSH2 0x18C1 JUMP JUMPDEST PUSH1 0x14 DUP3 ADD SWAP2 POP PUSH2 0x193D DUP3 DUP6 PUSH2 0x187C JUMP JUMPDEST PUSH1 0x20 DUP3 ADD SWAP2 POP PUSH2 0x194D DUP3 DUP5 PUSH2 0x18E2 JUMP JUMPDEST SWAP2 POP DUP2 SWAP1 POP SWAP6 SWAP5 POP POP POP POP POP JUMP JUMPDEST PUSH32 0x4E487B7100000000000000000000000000000000000000000000000000000000 PUSH0 MSTORE PUSH1 0x22 PUSH1 0x4 MSTORE PUSH1 0x24 PUSH0 REVERT JUMPDEST PUSH0 PUSH1 0x2 DUP3 DIV SWAP1 POP PUSH1 0x1 DUP3 AND DUP1 PUSH2 0x199F JUMPI PUSH1 0x7F DUP3 AND SWAP2 POP JUMPDEST PUSH1 0x20 DUP3 LT DUP2 SUB PUSH2 0x19B2 JUMPI PUSH2 0x19B1 PUSH2 0x195B JUMP JUMPDEST JUMPDEST POP SWAP2 SWAP1 POP JUMP JUMPDEST PUSH0 DUP2 SWAP1 POP DUP2 PUSH0 MSTORE PUSH1 0x20 PUSH0 KECCAK256 SWAP1 POP SWAP2 SWAP1 POP JUMP JUMPDEST PUSH0 PUSH1 0x20 PUSH1 0x1F DUP4 ADD DIV SWAP1 POP SWAP2 SWAP1 POP JUMP JUMPDEST PUSH0 DUP3 DUP3 SHL SWAP1 POP SWAP3 SWAP2 POP POP JUMP JUMPDEST PUSH0 PUSH1 0x8 DUP4 MUL PUSH2 0x1A14 PUSH32 0xFFFFFFFFFFFFFFFFFFFFFFFFFFFFFFFFFFFFFFFFFFFFFFFFFFFFFFFFFFFFFFFF DUP3 PUSH2 0x19D9 JUMP JUMPDEST PUSH2 0x1A1E DUP7 DUP4 PUSH2 0x19D9 JUMP JUMPDEST SWAP6 POP DUP1 NOT DUP5 AND SWAP4 POP DUP1 DUP7 AND DUP5 OR SWAP3 POP POP POP SWAP4 SWAP3 POP POP POP JUMP JUMPDEST PUSH0 DUP2 SWAP1 POP SWAP2 SWAP1 POP JUMP JUMPDEST PUSH0 PUSH2 0x1A59 PUSH2 0x1A54 PUSH2 0x1A4F DUP5 PUSH2 0xF68 JUMP JUMPDEST PUSH2 0x1A36 JUMP JUMPDEST PUSH2 0xF68 JUMP JUMPDEST SWAP1 POP SWAP2 SWAP1 POP JUMP JUMPDEST PUSH0 DUP2 SWAP1 POP SWAP2 SWAP1 POP JUMP JUMPDEST PUSH2 0x1A72 DUP4 PUSH2 0x1A3F JUMP JUMPDEST PUSH2 0x1A86 PUSH2 0x1A7E DUP3 PUSH2 0x1A60 JUMP JUMPDEST DUP5 DUP5 SLOAD PUSH2 0x19E5 JUMP JUMPDEST DUP3 SSTORE POP POP POP POP JUMP JUMPDEST PUSH0 SWAP1 JUMP JUMPDEST PUSH2 0x1A9A PUSH2 0x1A8E JUMP JUMPDEST PUSH2 0x1AA5 DUP2 DUP5 DUP5 PUSH2 0x1A69 JUMP JUMPDEST POP POP POP JUMP JUMPDEST JUMPDEST DUP2 DUP2 LT ISZERO PUSH2 0x1AC8 JUMPI PUSH2 0x1ABD PUSH0 DUP3 PUSH2 0x1A92 JUMP JUMPDEST PUSH1 0x1 DUP2 ADD SWAP1 POP PUSH2 0x1AAB JUMP JUMPDEST POP POP JUMP JUMPDEST PUSH1 0x1F DUP3 GT ISZERO PUSH2 0x1B0D JUMPI PUSH2 0x1ADE DUP2 PUSH2 0x19B8 JUMP JUMPDEST PUSH2 0x1AE7 DUP5 PUSH2 0x19CA JUMP JUMPDEST DUP2 ADD PUSH1 0x20 DUP6 LT ISZERO PUSH2 0x1AF6 JUMPI DUP2 SWAP1 POP JUMPDEST PUSH2 0x1B0A PUSH2 0x1B02 DUP6 PUSH2 0x19CA JUMP JUMPDEST DUP4 ADD DUP3 PUSH2 0x1AAA JUMP JUMPDEST POP POP JUMPDEST POP POP POP JUMP JUMPDEST PUSH0 DUP3 DUP3 SHR SWAP1 POP SWAP3 SWAP2 POP POP JUMP JUMPDEST PUSH0 PUSH2 0x1B2D PUSH0 NOT DUP5 PUSH1 0x8 MUL PUSH2 0x1B12 JUMP JUMPDEST NOT DUP1 DUP4 AND SWAP2 POP POP SWAP3 SWAP2 POP POP JUMP JUMPDEST PUSH0 PUSH2 0x1B45 DUP4 DUP4 PUSH2 0x1B1E JUMP JUMPDEST SWAP2 POP DUP3 PUSH1 0x2 MUL DUP3 OR SWAP1 POP SWAP3 SWAP2 POP POP JUMP JUMPDEST PUSH2 0x1B5E DUP3 PUSH2 0x147A JUMP JUMPDEST PUSH8 0xFFFFFFFFFFFFFFFF DUP2 GT ISZERO PUSH2 0x1B77 JUMPI PUSH2 0x1B76 PUSH2 0x11A8 JUMP JUMPDEST JUMPDEST PUSH2 0x1B81 DUP3 SLOAD PUSH2 0x1988 JUMP JUMPDEST PUSH2 0x1B8C DUP3 DUP3 DUP6 PUSH2 0x1ACC JUMP JUMPDEST PUSH0 PUSH1 0x20 SWAP1 POP PUSH1 0x1F DUP4 GT PUSH1 0x1 DUP2 EQ PUSH2 0x1BBD JUMPI PUSH0 DUP5 ISZERO PUSH2 0x1BAB JUMPI DUP3 DUP8 ADD MLOAD SWAP1 POP JUMPDEST PUSH2 0x1BB5 DUP6 DUP3 PUSH2 0x1B3A JUMP JUMPDEST DUP7 SSTORE POP PUSH2 0x1C1C JUMP JUMPDEST PUSH1 0x1F NOT DUP5 AND PUSH2 0x1BCB DUP7 PUSH2 0x19B8 JUMP JUMPDEST PUSH0 JUMPDEST DUP3 DUP2 LT ISZERO PUSH2 0x1BF2 JUMPI DUP5 DUP10 ADD MLOAD DUP3 SSTORE PUSH1 0x1 DUP3 ADD SWAP2 POP PUSH1 0x20 DUP6 ADD SWAP5 POP PUSH1 0x20 DUP2 ADD SWAP1 POP PUSH2 0x1BCD JUMP JUMPDEST DUP7 DUP4 LT ISZERO PUSH2 0x1C0F JUMPI DUP5 DUP10 ADD MLOAD PUSH2 0x1C0B PUSH1 0x1F DUP10 AND DUP3 PUSH2 0x1B1E JUMP JUMPDEST DUP4 SSTORE POP JUMPDEST PUSH1 0x1 PUSH1 0x2 DUP9 MUL ADD DUP9 SSTORE POP POP POP JUMPDEST POP POP POP POP POP POP JUMP JUMPDEST PUSH0 PUSH1 0x40 DUP3 ADD SWAP1 POP PUSH2 0x1C37 PUSH0 DUP4 ADD DUP6 PUSH2 0x109B JUMP JUMPDEST DUP2 DUP2 SUB PUSH1 0x20 DUP4 ADD MSTORE PUSH2 0x1C49 DUP2 DUP5 PUSH2 0x14BC JUMP JUMPDEST SWAP1 POP SWAP4 SWAP3 POP POP POP JUMP JUMPDEST PUSH32 0x4E487B7100000000000000000000000000000000000000000000000000000000 PUSH0 MSTORE PUSH1 0x32 PUSH1 0x4 MSTORE PUSH1 0x24 PUSH0 REVERT JUMPDEST PUSH32 0x4C6F616E20697320616C72656164792072657061696400000000000000000000 PUSH0 DUP3 ADD MSTORE POP JUMP JUMPDEST PUSH0 PUSH2 0x1CB3 PUSH1 0x16 DUP4 PUSH2 0x1484 JUMP JUMPDEST SWAP2 POP PUSH2 0x1CBE DUP3 PUSH2 0x1C7F JUMP JUMPDEST PUSH1 0x20 DUP3 ADD SWAP1 POP SWAP2 SWAP1 POP JUMP JUMPDEST PUSH0 PUSH1 0x20 DUP3 ADD SWAP1 POP DUP2 DUP2 SUB PUSH0 DUP4 ADD MSTORE PUSH2 0x1CE0 DUP2 PUSH2 0x1CA7 JUMP JUMPDEST SWAP1 POP SWAP2 SWAP1 POP JUMP JUMPDEST PUSH32 0x496E73756666696369656E7420616D6F756E7420746F20726570617920746865 PUSH0 DUP3 ADD MSTORE PUSH32 0x206C6F616E000000000000000000000000000000000000000000000000000000 PUSH1 0x20 DUP3 ADD MSTORE POP JUMP JUMPDEST PUSH0 PUSH2 0x1D41 PUSH1 0x25 DUP4 PUSH2 0x1484 JUMP JUMPDEST SWAP2 POP PUSH2 0x1D4C DUP3 PUSH2 0x1CE7 JUMP JUMPDEST PUSH1 0x40 DUP3 ADD SWAP1 POP SWAP2 SWAP1 POP JUMP JUMPDEST PUSH0 PUSH1 0x20 DUP3 ADD SWAP1 POP DUP2 DUP2 SUB PUSH0 DUP4 ADD MSTORE PUSH2 0x1D6E DUP2 PUSH2 0x1D35 JUMP JUMPDEST SWAP1 POP SWAP2 SWAP1 POP JUMP JUMPDEST PUSH32 0x4465706F7369742076616C7565206D7573742062652067726561746572207468 PUSH0 DUP3 ADD MSTORE PUSH32 0x616E203000000000000000000000000000000000000000000000000000000000 PUSH1 0x20 DUP3 ADD MSTORE POP JUMP JUMPDEST PUSH0 PUSH2 0x1DCF PUSH1 0x24 DUP4 PUSH2 0x1484 JUMP JUMPDEST SWAP2 POP PUSH2 0x1DDA DUP3 PUSH2 0x1D75 JUMP JUMPDEST PUSH1 0x40 DUP3 ADD SWAP1 POP SWAP2 SWAP1 POP JUMP JUMPDEST PUSH0 PUSH1 0x20 DUP3 ADD SWAP1 POP DUP2 DUP2 SUB PUSH0 DUP4 ADD MSTORE PUSH2 0x1DFC DUP2 PUSH2 0x1DC3 JUMP JUMPDEST SWAP1 POP SWAP2 SWAP1 POP JUMP JUMPDEST PUSH32 0x5472616E73616374696F6E20616C726561647920657865637574656400000000 PUSH0 DUP3 ADD MSTORE POP JUMP JUMPDEST PUSH0 PUSH2 0x1E37 PUSH1 0x1C DUP4 PUSH2 0x1484 JUMP JUMPDEST SWAP2 POP PUSH2 0x1E42 DUP3 PUSH2 0x1E03 JUMP JUMPDEST PUSH1 0x20 DUP3 ADD SWAP1 POP SWAP2 SWAP1 POP JUMP JUMPDEST PUSH0 PUSH1 0x20 DUP3 ADD SWAP1 POP DUP2 DUP2 SUB PUSH0 DUP4 ADD MSTORE PUSH2 0x1E64 DUP2 PUSH2 0x1E2B JUMP JUMPDEST SWAP1 POP SWAP2 SWAP1 POP JUMP JUMPDEST PUSH32 0x43616C6C6572206973206E6F742061207369676E657200000000000000000000 PUSH0 DUP3 ADD MSTORE POP JUMP JUMPDEST PUSH0 PUSH2 0x1E9F PUSH1 0x16 DUP4 PUSH2 0x1484 JUMP JUMPDEST SWAP2 POP PUSH2 0x1EAA DUP3 PUSH2 0x1E6B JUMP JUMPDEST PUSH1 0x20 DUP3 ADD SWAP1 POP SWAP2 SWAP1 POP JUMP JUMPDEST PUSH0 PUSH1 0x20 DUP3 ADD SWAP1 POP DUP2 DUP2 SUB PUSH0 DUP4 ADD MSTORE PUSH2 0x1ECC DUP2 PUSH2 0x1E93 JUMP JUMPDEST SWAP1 POP SWAP2 SWAP1 POP JUMP JUMPDEST PUSH0 PUSH2 0x1EDD DUP3 PUSH2 0xF68 JUMP JUMPDEST SWAP2 POP PUSH2 0x1EE8 DUP4 PUSH2 0xF68 JUMP JUMPDEST SWAP3 POP DUP3 DUP3 MUL PUSH2 0x1EF6 DUP2 PUSH2 0xF68 JUMP JUMPDEST SWAP2 POP DUP3 DUP3 DIV DUP5 EQ DUP4 ISZERO OR PUSH2 0x1F0D JUMPI PUSH2 0x1F0C PUSH2 0x15E5 JUMP JUMPDEST JUMPDEST POP SWAP3 SWAP2 POP POP JUMP JUMPDEST PUSH32 0x4E487B7100000000000000000000000000000000000000000000000000000000 PUSH0 MSTORE PUSH1 0x12 PUSH1 0x4 MSTORE PUSH1 0x24 PUSH0 REVERT JUMPDEST PUSH0 PUSH2 0x1F4B DUP3 PUSH2 0xF68 JUMP JUMPDEST SWAP2 POP PUSH2 0x1F56 DUP4 PUSH2 0xF68 JUMP JUMPDEST SWAP3 POP DUP3 PUSH2 0x1F66 JUMPI PUSH2 0x1F65 PUSH2 0x1F14 JUMP JUMPDEST JUMPDEST DUP3 DUP3 DIV SWAP1 POP SWAP3 SWAP2 POP POP JUMP INVALID LOG2 PUSH5 0x6970667358 0x22 SLT KECCAK256 0xEA CALLVALUE 0xE6 POP 0xB0 0xD SWAP2 SMOD SHR CREATE 0xF9 SLOAD 0x4F BYTE BASEFEE PUSH1 0x36 PUSH4 0x27E9964C 0xBD PUSH7 0x720AE8AC8147C1 0xE9 PUSH5 0x736F6C6343 STOP ADDMOD AND STOP CALLER "
				},
				"gasEstimates": {
					"creation": {
						"codeDepositCost": "1620600",
						"executionCost": "25964",
						"totalCost": "1646564"
					},
					"external": {
						"TIME_LOCK()": "413",
						"accounts(address)": "infinite",
						"createMultiSigTransaction(address[],uint256,string)": "infinite",
						"deposit()": "infinite",
						"executeMultiSigTransaction(bytes32)": "infinite",
						"loans(address,uint256)": "infinite",
						"multiSigTransactions(bytes32)": "infinite",
						"owner()": "2575",
						"repayLoan(uint256)": "infinite",
						"takeLoan(uint256,uint256,uint256)": "infinite",
						"withdraw(uint256)": "infinite"
					},
					"internal": {
						"calculateInterest(uint256,uint256,uint256)": "infinite",
						"isSigner(struct AdvancedAccounting.MultiSigTransaction storage pointer,address)": "infinite"
					}
				},
				"methodIdentifiers": {
					"TIME_LOCK()": "e0a09c68",
					"accounts(address)": "5e5c06e2",
					"createMultiSigTransaction(address[],uint256,string)": "a063416c",
					"deposit()": "d0e30db0",
					"executeMultiSigTransaction(bytes32)": "f7f4f8ca",
					"loans(address,uint256)": "98c61c37",
					"multiSigTransactions(bytes32)": "b0c11a70",
					"owner()": "8da5cb5b",
					"repayLoan(uint256)": "ab7b1c89",
					"takeLoan(uint256,uint256,uint256)": "10c9e386",
					"withdraw(uint256)": "2e1a7d4d"
				}
			},
			"storageLayout": {
				"storage": [
					{
						"astId": 33,
						"contract": "DeFI Accounting/Advanced DeFI Accounting S_C.sol:AdvancedAccounting",
						"label": "accounts",
						"offset": 0,
						"slot": "0",
						"type": "t_mapping(t_address,t_struct(Account)7_storage)"
					},
					{
						"astId": 39,
						"contract": "DeFI Accounting/Advanced DeFI Accounting S_C.sol:AdvancedAccounting",
						"label": "loans",
						"offset": 0,
						"slot": "1",
						"type": "t_mapping(t_address,t_array(t_struct(Loan)16_storage)dyn_storage)"
					},
					{
						"astId": 44,
						"contract": "DeFI Accounting/Advanced DeFI Accounting S_C.sol:AdvancedAccounting",
						"label": "multiSigTransactions",
						"offset": 0,
						"slot": "2",
						"type": "t_mapping(t_bytes32,t_struct(MultiSigTransaction)28_storage)"
					},
					{
						"astId": 46,
						"contract": "DeFI Accounting/Advanced DeFI Accounting S_C.sol:AdvancedAccounting",
						"label": "owner",
						"offset": 0,
						"slot": "3",
						"type": "t_address"
					}
				],
				"types": {
					"t_address": {
						"encoding": "inplace",
						"label": "address",
						"numberOfBytes": "20"
					},
					"t_array(t_address)dyn_storage": {
						"base": "t_address",
						"encoding": "dynamic_array",
						"label": "address[]",
						"numberOfBytes": "32"
					},
					"t_array(t_struct(Loan)16_storage)dyn_storage": {
						"base": "t_struct(Loan)16_storage",
						"encoding": "dynamic_array",
						"label": "struct AdvancedAccounting.Loan[]",
						"numberOfBytes": "32"
					},
					"t_bool": {
						"encoding": "inplace",
						"label": "bool",
						"numberOfBytes": "1"
					},
					"t_bytes32": {
						"encoding": "inplace",
						"label": "bytes32",
						"numberOfBytes": "32"
					},
					"t_mapping(t_address,t_array(t_struct(Loan)16_storage)dyn_storage)": {
						"encoding": "mapping",
						"key": "t_address",
						"label": "mapping(address => struct AdvancedAccounting.Loan[])",
						"numberOfBytes": "32",
						"value": "t_array(t_struct(Loan)16_storage)dyn_storage"
					},
					"t_mapping(t_address,t_struct(Account)7_storage)": {
						"encoding": "mapping",
						"key": "t_address",
						"label": "mapping(address => struct AdvancedAccounting.Account)",
						"numberOfBytes": "32",
						"value": "t_struct(Account)7_storage"
					},
					"t_mapping(t_bytes32,t_struct(MultiSigTransaction)28_storage)": {
						"encoding": "mapping",
						"key": "t_bytes32",
						"label": "mapping(bytes32 => struct AdvancedAccounting.MultiSigTransaction)",
						"numberOfBytes": "32",
						"value": "t_struct(MultiSigTransaction)28_storage"
					},
					"t_string_storage": {
						"encoding": "bytes",
						"label": "string",
						"numberOfBytes": "32"
					},
					"t_struct(Account)7_storage": {
						"encoding": "inplace",
						"label": "struct AdvancedAccounting.Account",
						"members": [
							{
								"astId": 4,
								"contract": "DeFI Accounting/Advanced DeFI Accounting S_C.sol:AdvancedAccounting",
								"label": "balance",
								"offset": 0,
								"slot": "0",
								"type": "t_uint256"
							},
							{
								"astId": 6,
								"contract": "DeFI Accounting/Advanced DeFI Accounting S_C.sol:AdvancedAccounting",
								"label": "lastWithdrawTime",
								"offset": 0,
								"slot": "1",
								"type": "t_uint256"
							}
						],
						"numberOfBytes": "64"
					},
					"t_struct(Loan)16_storage": {
						"encoding": "inplace",
						"label": "struct AdvancedAccounting.Loan",
						"members": [
							{
								"astId": 9,
								"contract": "DeFI Accounting/Advanced DeFI Accounting S_C.sol:AdvancedAccounting",
								"label": "amount",
								"offset": 0,
								"slot": "0",
								"type": "t_uint256"
							},
							{
								"astId": 11,
								"contract": "DeFI Accounting/Advanced DeFI Accounting S_C.sol:AdvancedAccounting",
								"label": "interestRate",
								"offset": 0,
								"slot": "1",
								"type": "t_uint256"
							},
							{
								"astId": 13,
								"contract": "DeFI Accounting/Advanced DeFI Accounting S_C.sol:AdvancedAccounting",
								"label": "dueDate",
								"offset": 0,
								"slot": "2",
								"type": "t_uint256"
							},
							{
								"astId": 15,
								"contract": "DeFI Accounting/Advanced DeFI Accounting S_C.sol:AdvancedAccounting",
								"label": "isRepaid",
								"offset": 0,
								"slot": "3",
								"type": "t_bool"
							}
						],
						"numberOfBytes": "128"
					},
					"t_struct(MultiSigTransaction)28_storage": {
						"encoding": "inplace",
						"label": "struct AdvancedAccounting.MultiSigTransaction",
						"members": [
							{
								"astId": 18,
								"contract": "DeFI Accounting/Advanced DeFI Accounting S_C.sol:AdvancedAccounting",
								"label": "initiator",
								"offset": 0,
								"slot": "0",
								"type": "t_address"
							},
							{
								"astId": 21,
								"contract": "DeFI Accounting/Advanced DeFI Accounting S_C.sol:AdvancedAccounting",
								"label": "signers",
								"offset": 0,
								"slot": "1",
								"type": "t_array(t_address)dyn_storage"
							},
							{
								"astId": 23,
								"contract": "DeFI Accounting/Advanced DeFI Accounting S_C.sol:AdvancedAccounting",
								"label": "value",
								"offset": 0,
								"slot": "2",
								"type": "t_uint256"
							},
							{
								"astId": 25,
								"contract": "DeFI Accounting/Advanced DeFI Accounting S_C.sol:AdvancedAccounting",
								"label": "description",
								"offset": 0,
								"slot": "3",
								"type": "t_string_storage"
							},
							{
								"astId": 27,
								"contract": "DeFI Accounting/Advanced DeFI Accounting S_C.sol:AdvancedAccounting",
								"label": "executed",
								"offset": 0,
								"slot": "4",
								"type": "t_bool"
							}
						],
						"numberOfBytes": "160"
					},
					"t_uint256": {
						"encoding": "inplace",
						"label": "uint256",
						"numberOfBytes": "32"
					}
				}
			},
			"userdoc": {
				"kind": "user",
				"methods": {},
				"version": 1
			}
		}
	}
}