{
	"Retail Industry/Advanced Retail Industry Smart Contract.sol": {
		"AdvancedRetail": {
			"abi": [
				{
					"inputs": [],
					"stateMutability": "nonpayable",
					"type": "constructor"
				},
				{
					"anonymous": false,
					"inputs": [
						{
							"indexed": true,
							"internalType": "bytes32",
							"name": "name",
							"type": "bytes32"
						},
						{
							"indexed": false,
							"internalType": "uint256",
							"name": "discountPercentage",
							"type": "uint256"
						}
					],
					"name": "DiscountApplied",
					"type": "event"
				},
				{
					"anonymous": false,
					"inputs": [
						{
							"indexed": true,
							"internalType": "address",
							"name": "customer",
							"type": "address"
						},
						{
							"indexed": false,
							"internalType": "uint256",
							"name": "points",
							"type": "uint256"
						}
					],
					"name": "LoyaltyPointsEarned",
					"type": "event"
				},
				{
					"anonymous": false,
					"inputs": [
						{
							"indexed": true,
							"internalType": "bytes32",
							"name": "name",
							"type": "bytes32"
						},
						{
							"indexed": false,
							"internalType": "uint256",
							"name": "newPrice",
							"type": "uint256"
						}
					],
					"name": "PriceUpdated",
					"type": "event"
				},
				{
					"anonymous": false,
					"inputs": [
						{
							"indexed": true,
							"internalType": "bytes32",
							"name": "name",
							"type": "bytes32"
						},
						{
							"indexed": false,
							"internalType": "uint256",
							"name": "price",
							"type": "uint256"
						},
						{
							"indexed": false,
							"internalType": "uint256",
							"name": "stock",
							"type": "uint256"
						}
					],
					"name": "ProductAdded",
					"type": "event"
				},
				{
					"anonymous": false,
					"inputs": [
						{
							"indexed": true,
							"internalType": "address",
							"name": "buyer",
							"type": "address"
						},
						{
							"indexed": true,
							"internalType": "bytes32",
							"name": "name",
							"type": "bytes32"
						},
						{
							"indexed": false,
							"internalType": "uint256",
							"name": "quantity",
							"type": "uint256"
						}
					],
					"name": "ProductPurchased",
					"type": "event"
				},
				{
					"anonymous": false,
					"inputs": [
						{
							"indexed": true,
							"internalType": "bytes32",
							"name": "name",
							"type": "bytes32"
						},
						{
							"indexed": false,
							"internalType": "uint256",
							"name": "newStock",
							"type": "uint256"
						}
					],
					"name": "StockUpdated",
					"type": "event"
				},
				{
					"inputs": [
						{
							"internalType": "bytes32",
							"name": "name",
							"type": "bytes32"
						},
						{
							"internalType": "uint256",
							"name": "points",
							"type": "uint256"
						}
					],
					"name": "addLoyaltyPointsToProduct",
					"outputs": [],
					"stateMutability": "nonpayable",
					"type": "function"
				},
				{
					"inputs": [
						{
							"internalType": "bytes32",
							"name": "name",
							"type": "bytes32"
						},
						{
							"internalType": "uint256",
							"name": "price",
							"type": "uint256"
						},
						{
							"internalType": "uint256",
							"name": "stock",
							"type": "uint256"
						},
						{
							"internalType": "bytes32",
							"name": "category",
							"type": "bytes32"
						}
					],
					"name": "addProduct",
					"outputs": [],
					"stateMutability": "nonpayable",
					"type": "function"
				},
				{
					"inputs": [
						{
							"internalType": "bytes32",
							"name": "name",
							"type": "bytes32"
						},
						{
							"internalType": "uint256",
							"name": "discountPercentage",
							"type": "uint256"
						},
						{
							"internalType": "uint256",
							"name": "duration",
							"type": "uint256"
						}
					],
					"name": "applyDiscount",
					"outputs": [],
					"stateMutability": "nonpayable",
					"type": "function"
				},
				{
					"inputs": [
						{
							"internalType": "bytes32",
							"name": "name",
							"type": "bytes32"
						},
						{
							"internalType": "uint256",
							"name": "basePrice",
							"type": "uint256"
						},
						{
							"internalType": "uint256",
							"name": "quantity",
							"type": "uint256"
						}
					],
					"name": "calculatePrice",
					"outputs": [
						{
							"internalType": "uint256",
							"name": "",
							"type": "uint256"
						}
					],
					"stateMutability": "view",
					"type": "function"
				},
				{
					"inputs": [
						{
							"internalType": "bytes32",
							"name": "",
							"type": "bytes32"
						},
						{
							"internalType": "uint256",
							"name": "",
							"type": "uint256"
						}
					],
					"name": "categoryProducts",
					"outputs": [
						{
							"internalType": "bytes32",
							"name": "",
							"type": "bytes32"
						}
					],
					"stateMutability": "view",
					"type": "function"
				},
				{
					"inputs": [
						{
							"internalType": "bytes32",
							"name": "",
							"type": "bytes32"
						}
					],
					"name": "discounts",
					"outputs": [
						{
							"internalType": "uint256",
							"name": "percentage",
							"type": "uint256"
						},
						{
							"internalType": "uint256",
							"name": "validUntil",
							"type": "uint256"
						}
					],
					"stateMutability": "view",
					"type": "function"
				},
				{
					"inputs": [
						{
							"internalType": "address",
							"name": "",
							"type": "address"
						}
					],
					"name": "loyaltyPoints",
					"outputs": [
						{
							"internalType": "uint256",
							"name": "",
							"type": "uint256"
						}
					],
					"stateMutability": "view",
					"type": "function"
				},
				{
					"inputs": [
						{
							"internalType": "bytes32",
							"name": "",
							"type": "bytes32"
						}
					],
					"name": "products",
					"outputs": [
						{
							"internalType": "bytes32",
							"name": "name",
							"type": "bytes32"
						},
						{
							"internalType": "uint256",
							"name": "price",
							"type": "uint256"
						},
						{
							"internalType": "uint256",
							"name": "stock",
							"type": "uint256"
						},
						{
							"internalType": "uint256",
							"name": "loyaltyPoints",
							"type": "uint256"
						},
						{
							"internalType": "bytes32",
							"name": "category",
							"type": "bytes32"
						}
					],
					"stateMutability": "view",
					"type": "function"
				},
				{
					"inputs": [
						{
							"internalType": "bytes32",
							"name": "name",
							"type": "bytes32"
						},
						{
							"internalType": "uint256",
							"name": "quantity",
							"type": "uint256"
						}
					],
					"name": "purchaseProduct",
					"outputs": [],
					"stateMutability": "payable",
					"type": "function"
				},
				{
					"inputs": [
						{
							"internalType": "bytes32",
							"name": "name",
							"type": "bytes32"
						},
						{
							"internalType": "uint256",
							"name": "newPrice",
							"type": "uint256"
						}
					],
					"name": "updateProductPrice",
					"outputs": [],
					"stateMutability": "nonpayable",
					"type": "function"
				},
				{
					"inputs": [
						{
							"internalType": "bytes32",
							"name": "name",
							"type": "bytes32"
						},
						{
							"internalType": "uint256",
							"name": "newStock",
							"type": "uint256"
						}
					],
					"name": "updateProductStock",
					"outputs": [],
					"stateMutability": "nonpayable",
					"type": "function"
				}
			],
			"devdoc": {
				"kind": "dev",
				"methods": {},
				"version": 1
			},
			"evm": {
				"assembly": "    /* \"Retail Industry/Advanced Retail Industry Smart Contract.sol\":167:4519  contract AdvancedRetail {... */\n  mstore(0x40, 0x80)\n    /* \"Retail Industry/Advanced Retail Industry Smart Contract.sol\":1882:1940  constructor() {... */\n  callvalue\n  dup1\n  iszero\n  tag_1\n  jumpi\n  0x00\n  dup1\n  revert\ntag_1:\n  pop\n    /* \"Retail Industry/Advanced Retail Industry Smart Contract.sol\":1922:1932  msg.sender */\n  caller\n    /* \"Retail Industry/Advanced Retail Industry Smart Contract.sol\":1906:1911  owner */\n  0x04\n  0x00\n    /* \"Retail Industry/Advanced Retail Industry Smart Contract.sol\":1906:1933  owner = payable(msg.sender) */\n  0x0100\n  exp\n  dup2\n  sload\n  dup2\n  0xffffffffffffffffffffffffffffffffffffffff\n  mul\n  not\n  and\n  swap1\n  dup4\n  0xffffffffffffffffffffffffffffffffffffffff\n  and\n  mul\n  or\n  swap1\n  sstore\n  pop\n    /* \"Retail Industry/Advanced Retail Industry Smart Contract.sol\":167:4519  contract AdvancedRetail {... */\n  dataSize(sub_0)\n  dup1\n  dataOffset(sub_0)\n  0x00\n  codecopy\n  0x00\n  return\nstop\n\nsub_0: assembly {\n        /* \"Retail Industry/Advanced Retail Industry Smart Contract.sol\":167:4519  contract AdvancedRetail {... */\n      mstore(0x40, 0x80)\n      jumpi(tag_1, lt(calldatasize, 0x04))\n      shr(0xe0, calldataload(0x00))\n      dup1\n      0xa30f30e6\n      gt\n      tag_13\n      jumpi\n      dup1\n      0xa30f30e6\n      eq\n      tag_7\n      jumpi\n      dup1\n      0xb0da2966\n      eq\n      tag_8\n      jumpi\n      dup1\n      0xbb3cc56f\n      eq\n      tag_9\n      jumpi\n      dup1\n      0xd27001db\n      eq\n      tag_10\n      jumpi\n      dup1\n      0xd45e4259\n      eq\n      tag_11\n      jumpi\n      dup1\n      0xe1252b3c\n      eq\n      tag_12\n      jumpi\n      jump(tag_1)\n    tag_13:\n      dup1\n      0x77bb3653\n      eq\n      tag_2\n      jumpi\n      dup1\n      0x788e72a5\n      eq\n      tag_3\n      jumpi\n      dup1\n      0x79054391\n      eq\n      tag_4\n      jumpi\n      dup1\n      0x9892146f\n      eq\n      tag_5\n      jumpi\n      dup1\n      0xa05bc3bb\n      eq\n      tag_6\n      jumpi\n    tag_1:\n      0x00\n      dup1\n      revert\n        /* \"Retail Industry/Advanced Retail Industry Smart Contract.sol\":2332:2502  function updateProductPrice(bytes32 name, uint256 newPrice) external onlyOwner {... */\n    tag_2:\n      callvalue\n      dup1\n      iszero\n      tag_14\n      jumpi\n      0x00\n      dup1\n      revert\n    tag_14:\n      pop\n      tag_15\n      0x04\n      dup1\n      calldatasize\n      sub\n      dup2\n      add\n      swap1\n      tag_16\n      swap2\n      swap1\n      tag_17\n      jump\t// in\n    tag_16:\n      tag_18\n      jump\t// in\n    tag_15:\n      stop\n        /* \"Retail Industry/Advanced Retail Industry Smart Contract.sol\":3115:3706  function purchaseProduct(bytes32 name, uint256 quantity) external payable {... */\n    tag_3:\n      tag_19\n      0x04\n      dup1\n      calldatasize\n      sub\n      dup2\n      add\n      swap1\n      tag_20\n      swap2\n      swap1\n      tag_17\n      jump\t// in\n    tag_20:\n      tag_21\n      jump\t// in\n    tag_19:\n      stop\n        /* \"Retail Industry/Advanced Retail Industry Smart Contract.sol\":660:703  mapping(bytes32 => Product) public products */\n    tag_4:\n      callvalue\n      dup1\n      iszero\n      tag_22\n      jumpi\n      0x00\n      dup1\n      revert\n    tag_22:\n      pop\n      tag_23\n      0x04\n      dup1\n      calldatasize\n      sub\n      dup2\n      add\n      swap1\n      tag_24\n      swap2\n      swap1\n      tag_25\n      jump\t// in\n    tag_24:\n      tag_26\n      jump\t// in\n    tag_23:\n      mload(0x40)\n      tag_27\n      swap6\n      swap5\n      swap4\n      swap3\n      swap2\n      swap1\n      tag_28\n      jump\t// in\n    tag_27:\n      mload(0x40)\n      dup1\n      swap2\n      sub\n      swap1\n      return\n        /* \"Retail Industry/Advanced Retail Industry Smart Contract.sol\":4271:4409  function addLoyaltyPointsToProduct(bytes32 name, uint256 points) external onlyOwner {... */\n    tag_5:\n      callvalue\n      dup1\n      iszero\n      tag_29\n      jumpi\n      0x00\n      dup1\n      revert\n    tag_29:\n      pop\n      tag_30\n      0x04\n      dup1\n      calldatasize\n      sub\n      dup2\n      add\n      swap1\n      tag_31\n      swap2\n      swap1\n      tag_17\n      jump\t// in\n    tag_31:\n      tag_32\n      jump\t// in\n    tag_30:\n      stop\n        /* \"Retail Industry/Advanced Retail Industry Smart Contract.sol\":1997:2266  function addProduct(bytes32 name, uint256 price, uint256 stock, bytes32 category) external onlyOwner {... */\n    tag_6:\n      callvalue\n      dup1\n      iszero\n      tag_33\n      jumpi\n      0x00\n      dup1\n      revert\n    tag_33:\n      pop\n      tag_34\n      0x04\n      dup1\n      calldatasize\n      sub\n      dup2\n      add\n      swap1\n      tag_35\n      swap2\n      swap1\n      tag_36\n      jump\t// in\n    tag_35:\n      tag_37\n      jump\t// in\n    tag_34:\n      stop\n        /* \"Retail Industry/Advanced Retail Industry Smart Contract.sol\":2577:2747  function updateProductStock(bytes32 name, uint256 newStock) external onlyOwner {... */\n    tag_7:\n      callvalue\n      dup1\n      iszero\n      tag_38\n      jumpi\n      0x00\n      dup1\n      revert\n    tag_38:\n      pop\n      tag_39\n      0x04\n      dup1\n      calldatasize\n      sub\n      dup2\n      add\n      swap1\n      tag_40\n      swap2\n      swap1\n      tag_17\n      jump\t// in\n    tag_40:\n      tag_41\n      jump\t// in\n    tag_39:\n      stop\n        /* \"Retail Industry/Advanced Retail Industry Smart Contract.sol\":2803:3052  function applyDiscount(bytes32 name, uint256 discountPercentage, uint256 duration) external onlyOwner {... */\n    tag_8:\n      callvalue\n      dup1\n      iszero\n      tag_42\n      jumpi\n      0x00\n      dup1\n      revert\n    tag_42:\n      pop\n      tag_43\n      0x04\n      dup1\n      calldatasize\n      sub\n      dup2\n      add\n      swap1\n      tag_44\n      swap2\n      swap1\n      tag_45\n      jump\t// in\n    tag_44:\n      tag_46\n      jump\t// in\n    tag_43:\n      stop\n        /* \"Retail Industry/Advanced Retail Industry Smart Contract.sol\":891:936  mapping(bytes32 => Discount) public discounts */\n    tag_9:\n      callvalue\n      dup1\n      iszero\n      tag_47\n      jumpi\n      0x00\n      dup1\n      revert\n    tag_47:\n      pop\n      tag_48\n      0x04\n      dup1\n      calldatasize\n      sub\n      dup2\n      add\n      swap1\n      tag_49\n      swap2\n      swap1\n      tag_25\n      jump\t// in\n    tag_49:\n      tag_50\n      jump\t// in\n    tag_48:\n      mload(0x40)\n      tag_51\n      swap3\n      swap2\n      swap1\n      tag_52\n      jump\t// in\n    tag_51:\n      mload(0x40)\n      dup1\n      swap2\n      sub\n      swap1\n      return\n        /* \"Retail Industry/Advanced Retail Industry Smart Contract.sol\":3811:4171  function calculatePrice(bytes32 name, uint256 basePrice, uint256 quantity) public view returns (uint256) {... */\n    tag_10:\n      callvalue\n      dup1\n      iszero\n      tag_53\n      jumpi\n      0x00\n      dup1\n      revert\n    tag_53:\n      pop\n      tag_54\n      0x04\n      dup1\n      calldatasize\n      sub\n      dup2\n      add\n      swap1\n      tag_55\n      swap2\n      swap1\n      tag_45\n      jump\t// in\n    tag_55:\n      tag_56\n      jump\t// in\n    tag_54:\n      mload(0x40)\n      tag_57\n      swap2\n      swap1\n      tag_58\n      jump\t// in\n    tag_57:\n      mload(0x40)\n      dup1\n      swap2\n      sub\n      swap1\n      return\n        /* \"Retail Industry/Advanced Retail Industry Smart Contract.sol\":779:827  mapping(address => uint256) public loyaltyPoints */\n    tag_11:\n      callvalue\n      dup1\n      iszero\n      tag_59\n      jumpi\n      0x00\n      dup1\n      revert\n    tag_59:\n      pop\n      tag_60\n      0x04\n      dup1\n      calldatasize\n      sub\n      dup2\n      add\n      swap1\n      tag_61\n      swap2\n      swap1\n      tag_62\n      jump\t// in\n    tag_61:\n      tag_63\n      jump\t// in\n    tag_60:\n      mload(0x40)\n      tag_64\n      swap2\n      swap1\n      tag_58\n      jump\t// in\n    tag_64:\n      mload(0x40)\n      dup1\n      swap2\n      sub\n      swap1\n      return\n        /* \"Retail Industry/Advanced Retail Industry Smart Contract.sol\":1002:1055  mapping(bytes32 => bytes32[]) public categoryProducts */\n    tag_12:\n      callvalue\n      dup1\n      iszero\n      tag_65\n      jumpi\n      0x00\n      dup1\n      revert\n    tag_65:\n      pop\n      tag_66\n      0x04\n      dup1\n      calldatasize\n      sub\n      dup2\n      add\n      swap1\n      tag_67\n      swap2\n      swap1\n      tag_17\n      jump\t// in\n    tag_67:\n      tag_68\n      jump\t// in\n    tag_66:\n      mload(0x40)\n      tag_69\n      swap2\n      swap1\n      tag_70\n      jump\t// in\n    tag_69:\n      mload(0x40)\n      dup1\n      swap2\n      sub\n      swap1\n      return\n        /* \"Retail Industry/Advanced Retail Industry Smart Contract.sol\":2332:2502  function updateProductPrice(bytes32 name, uint256 newPrice) external onlyOwner {... */\n    tag_18:\n        /* \"Retail Industry/Advanced Retail Industry Smart Contract.sol\":1746:1751  owner */\n      0x04\n      0x00\n      swap1\n      sload\n      swap1\n      0x0100\n      exp\n      swap1\n      div\n      0xffffffffffffffffffffffffffffffffffffffff\n      and\n        /* \"Retail Industry/Advanced Retail Industry Smart Contract.sol\":1732:1751  msg.sender == owner */\n      0xffffffffffffffffffffffffffffffffffffffff\n      and\n        /* \"Retail Industry/Advanced Retail Industry Smart Contract.sol\":1732:1742  msg.sender */\n      caller\n        /* \"Retail Industry/Advanced Retail Industry Smart Contract.sol\":1732:1751  msg.sender == owner */\n      0xffffffffffffffffffffffffffffffffffffffff\n      and\n      eq\n        /* \"Retail Industry/Advanced Retail Industry Smart Contract.sol\":1724:1794  require(msg.sender == owner, \"Only the owner can call this function.\") */\n      tag_72\n      jumpi\n      mload(0x40)\n      0x08c379a000000000000000000000000000000000000000000000000000000000\n      dup2\n      mstore\n      0x04\n      add\n      tag_73\n      swap1\n      tag_74\n      jump\t// in\n    tag_73:\n      mload(0x40)\n      dup1\n      swap2\n      sub\n      swap1\n      revert\n    tag_72:\n        /* \"Retail Industry/Advanced Retail Industry Smart Contract.sol\":2444:2452  newPrice */\n      dup1\n        /* \"Retail Industry/Advanced Retail Industry Smart Contract.sol\":2421:2429  products */\n      0x00\n        /* \"Retail Industry/Advanced Retail Industry Smart Contract.sol\":2421:2435  products[name] */\n      dup1\n        /* \"Retail Industry/Advanced Retail Industry Smart Contract.sol\":2430:2434  name */\n      dup5\n        /* \"Retail Industry/Advanced Retail Industry Smart Contract.sol\":2421:2435  products[name] */\n      dup2\n      mstore\n      0x20\n      add\n      swap1\n      dup2\n      mstore\n      0x20\n      add\n      0x00\n      keccak256\n        /* \"Retail Industry/Advanced Retail Industry Smart Contract.sol\":2421:2441  products[name].price */\n      0x01\n      add\n        /* \"Retail Industry/Advanced Retail Industry Smart Contract.sol\":2421:2452  products[name].price = newPrice */\n      dup2\n      swap1\n      sstore\n      pop\n        /* \"Retail Industry/Advanced Retail Industry Smart Contract.sol\":2480:2484  name */\n      dup2\n        /* \"Retail Industry/Advanced Retail Industry Smart Contract.sol\":2467:2495  PriceUpdated(name, newPrice) */\n      0x46eec4e0eeeef5830de3472bb39db7e52b1c809286dc87c4b85b20e003cc70c3\n        /* \"Retail Industry/Advanced Retail Industry Smart Contract.sol\":2486:2494  newPrice */\n      dup3\n        /* \"Retail Industry/Advanced Retail Industry Smart Contract.sol\":2467:2495  PriceUpdated(name, newPrice) */\n      mload(0x40)\n      tag_76\n      swap2\n      swap1\n      tag_58\n      jump\t// in\n    tag_76:\n      mload(0x40)\n      dup1\n      swap2\n      sub\n      swap1\n      log2\n        /* \"Retail Industry/Advanced Retail Industry Smart Contract.sol\":2332:2502  function updateProductPrice(bytes32 name, uint256 newPrice) external onlyOwner {... */\n      pop\n      pop\n      jump\t// out\n        /* \"Retail Industry/Advanced Retail Industry Smart Contract.sol\":3115:3706  function purchaseProduct(bytes32 name, uint256 quantity) external payable {... */\n    tag_21:\n        /* \"Retail Industry/Advanced Retail Industry Smart Contract.sol\":3199:3222  Product storage product */\n      0x00\n        /* \"Retail Industry/Advanced Retail Industry Smart Contract.sol\":3225:3233  products */\n      dup1\n        /* \"Retail Industry/Advanced Retail Industry Smart Contract.sol\":3225:3239  products[name] */\n      0x00\n        /* \"Retail Industry/Advanced Retail Industry Smart Contract.sol\":3234:3238  name */\n      dup5\n        /* \"Retail Industry/Advanced Retail Industry Smart Contract.sol\":3225:3239  products[name] */\n      dup2\n      mstore\n      0x20\n      add\n      swap1\n      dup2\n      mstore\n      0x20\n      add\n      0x00\n      keccak256\n        /* \"Retail Industry/Advanced Retail Industry Smart Contract.sol\":3199:3239  Product storage product = products[name] */\n      swap1\n      pop\n        /* \"Retail Industry/Advanced Retail Industry Smart Contract.sol\":3269:3276  product */\n      dup1\n        /* \"Retail Industry/Advanced Retail Industry Smart Contract.sol\":3269:3282  product.stock */\n      0x02\n      add\n      sload\n        /* \"Retail Industry/Advanced Retail Industry Smart Contract.sol\":3257:3265  quantity */\n      dup3\n        /* \"Retail Industry/Advanced Retail Industry Smart Contract.sol\":3257:3282  quantity <= product.stock */\n      gt\n      iszero\n        /* \"Retail Industry/Advanced Retail Industry Smart Contract.sol\":3249:3304  require(quantity <= product.stock, \"Not enough stock.\") */\n      tag_78\n      jumpi\n      mload(0x40)\n      0x08c379a000000000000000000000000000000000000000000000000000000000\n      dup2\n      mstore\n      0x04\n      add\n      tag_79\n      swap1\n      tag_80\n      jump\t// in\n    tag_79:\n      mload(0x40)\n      dup1\n      swap2\n      sub\n      swap1\n      revert\n    tag_78:\n        /* \"Retail Industry/Advanced Retail Industry Smart Contract.sol\":3314:3336  uint256 effectivePrice */\n      0x00\n        /* \"Retail Industry/Advanced Retail Industry Smart Contract.sol\":3339:3384  calculatePrice(name, product.price, quantity) */\n      tag_81\n        /* \"Retail Industry/Advanced Retail Industry Smart Contract.sol\":3354:3358  name */\n      dup5\n        /* \"Retail Industry/Advanced Retail Industry Smart Contract.sol\":3360:3367  product */\n      dup4\n        /* \"Retail Industry/Advanced Retail Industry Smart Contract.sol\":3360:3373  product.price */\n      0x01\n      add\n      sload\n        /* \"Retail Industry/Advanced Retail Industry Smart Contract.sol\":3375:3383  quantity */\n      dup6\n        /* \"Retail Industry/Advanced Retail Industry Smart Contract.sol\":3339:3353  calculatePrice */\n      tag_56\n        /* \"Retail Industry/Advanced Retail Industry Smart Contract.sol\":3339:3384  calculatePrice(name, product.price, quantity) */\n      jump\t// in\n    tag_81:\n        /* \"Retail Industry/Advanced Retail Industry Smart Contract.sol\":3314:3384  uint256 effectivePrice = calculatePrice(name, product.price, quantity) */\n      swap1\n      pop\n        /* \"Retail Industry/Advanced Retail Industry Smart Contract.sol\":3415:3429  effectivePrice */\n      dup1\n        /* \"Retail Industry/Advanced Retail Industry Smart Contract.sol\":3402:3411  msg.value */\n      callvalue\n        /* \"Retail Industry/Advanced Retail Industry Smart Contract.sol\":3402:3429  msg.value >= effectivePrice */\n      lt\n      iszero\n        /* \"Retail Industry/Advanced Retail Industry Smart Contract.sol\":3394:3453  require(msg.value >= effectivePrice, \"Insufficient funds.\") */\n      tag_82\n      jumpi\n      mload(0x40)\n      0x08c379a000000000000000000000000000000000000000000000000000000000\n      dup2\n      mstore\n      0x04\n      add\n      tag_83\n      swap1\n      tag_84\n      jump\t// in\n    tag_83:\n      mload(0x40)\n      dup1\n      swap2\n      sub\n      swap1\n      revert\n    tag_82:\n        /* \"Retail Industry/Advanced Retail Industry Smart Contract.sol\":3481:3489  quantity */\n      dup3\n        /* \"Retail Industry/Advanced Retail Industry Smart Contract.sol\":3464:3471  product */\n      dup3\n        /* \"Retail Industry/Advanced Retail Industry Smart Contract.sol\":3464:3477  product.stock */\n      0x02\n      add\n      0x00\n        /* \"Retail Industry/Advanced Retail Industry Smart Contract.sol\":3464:3489  product.stock -= quantity */\n      dup3\n      dup3\n      sload\n      tag_85\n      swap2\n      swap1\n      tag_86\n      jump\t// in\n    tag_85:\n      swap3\n      pop\n      pop\n      dup2\n      swap1\n      sstore\n      pop\n        /* \"Retail Industry/Advanced Retail Industry Smart Contract.sol\":3539:3546  product */\n      dup2\n        /* \"Retail Industry/Advanced Retail Industry Smart Contract.sol\":3539:3560  product.loyaltyPoints */\n      0x03\n      add\n      sload\n        /* \"Retail Industry/Advanced Retail Industry Smart Contract.sol\":3528:3536  quantity */\n      dup4\n        /* \"Retail Industry/Advanced Retail Industry Smart Contract.sol\":3528:3560  quantity * product.loyaltyPoints */\n      tag_87\n      swap2\n      swap1\n      tag_88\n      jump\t// in\n    tag_87:\n        /* \"Retail Industry/Advanced Retail Industry Smart Contract.sol\":3499:3512  loyaltyPoints */\n      0x01\n        /* \"Retail Industry/Advanced Retail Industry Smart Contract.sol\":3499:3524  loyaltyPoints[msg.sender] */\n      0x00\n        /* \"Retail Industry/Advanced Retail Industry Smart Contract.sol\":3513:3523  msg.sender */\n      caller\n        /* \"Retail Industry/Advanced Retail Industry Smart Contract.sol\":3499:3524  loyaltyPoints[msg.sender] */\n      0xffffffffffffffffffffffffffffffffffffffff\n      and\n      0xffffffffffffffffffffffffffffffffffffffff\n      and\n      dup2\n      mstore\n      0x20\n      add\n      swap1\n      dup2\n      mstore\n      0x20\n      add\n      0x00\n      keccak256\n      0x00\n        /* \"Retail Industry/Advanced Retail Industry Smart Contract.sol\":3499:3560  loyaltyPoints[msg.sender] += quantity * product.loyaltyPoints */\n      dup3\n      dup3\n      sload\n      tag_89\n      swap2\n      swap1\n      tag_90\n      jump\t// in\n    tag_89:\n      swap3\n      pop\n      pop\n      dup2\n      swap1\n      sstore\n      pop\n        /* \"Retail Industry/Advanced Retail Industry Smart Contract.sol\":3604:3608  name */\n      dup4\n        /* \"Retail Industry/Advanced Retail Industry Smart Contract.sol\":3592:3602  msg.sender */\n      caller\n        /* \"Retail Industry/Advanced Retail Industry Smart Contract.sol\":3575:3619  ProductPurchased(msg.sender, name, quantity) */\n      0xffffffffffffffffffffffffffffffffffffffff\n      and\n      0xfe742437e0748f9939796b8d688bde65e089227741ba43d30bea034761d5ab95\n        /* \"Retail Industry/Advanced Retail Industry Smart Contract.sol\":3610:3618  quantity */\n      dup6\n        /* \"Retail Industry/Advanced Retail Industry Smart Contract.sol\":3575:3619  ProductPurchased(msg.sender, name, quantity) */\n      mload(0x40)\n      tag_91\n      swap2\n      swap1\n      tag_58\n      jump\t// in\n    tag_91:\n      mload(0x40)\n      dup1\n      swap2\n      sub\n      swap1\n      log3\n        /* \"Retail Industry/Advanced Retail Industry Smart Contract.sol\":3654:3664  msg.sender */\n      caller\n        /* \"Retail Industry/Advanced Retail Industry Smart Contract.sol\":3634:3699  LoyaltyPointsEarned(msg.sender, quantity * product.loyaltyPoints) */\n      0xffffffffffffffffffffffffffffffffffffffff\n      and\n      0x175753914ef8c601477ea9da8b478482e8f41ba7c52ad0d1ae19da5e207fa00b\n        /* \"Retail Industry/Advanced Retail Industry Smart Contract.sol\":3677:3684  product */\n      dup4\n        /* \"Retail Industry/Advanced Retail Industry Smart Contract.sol\":3677:3698  product.loyaltyPoints */\n      0x03\n      add\n      sload\n        /* \"Retail Industry/Advanced Retail Industry Smart Contract.sol\":3666:3674  quantity */\n      dup6\n        /* \"Retail Industry/Advanced Retail Industry Smart Contract.sol\":3666:3698  quantity * product.loyaltyPoints */\n      tag_92\n      swap2\n      swap1\n      tag_88\n      jump\t// in\n    tag_92:\n        /* \"Retail Industry/Advanced Retail Industry Smart Contract.sol\":3634:3699  LoyaltyPointsEarned(msg.sender, quantity * product.loyaltyPoints) */\n      mload(0x40)\n      tag_93\n      swap2\n      swap1\n      tag_58\n      jump\t// in\n    tag_93:\n      mload(0x40)\n      dup1\n      swap2\n      sub\n      swap1\n      log2\n        /* \"Retail Industry/Advanced Retail Industry Smart Contract.sol\":3189:3706  {... */\n      pop\n      pop\n        /* \"Retail Industry/Advanced Retail Industry Smart Contract.sol\":3115:3706  function purchaseProduct(bytes32 name, uint256 quantity) external payable {... */\n      pop\n      pop\n      jump\t// out\n        /* \"Retail Industry/Advanced Retail Industry Smart Contract.sol\":660:703  mapping(bytes32 => Product) public products */\n    tag_26:\n      mstore(0x20, 0x00)\n      dup1\n      0x00\n      mstore\n      keccak256(0x00, 0x40)\n      0x00\n      swap2\n      pop\n      swap1\n      pop\n      dup1\n      0x00\n      add\n      sload\n      swap1\n      dup1\n      0x01\n      add\n      sload\n      swap1\n      dup1\n      0x02\n      add\n      sload\n      swap1\n      dup1\n      0x03\n      add\n      sload\n      swap1\n      dup1\n      0x04\n      add\n      sload\n      swap1\n      pop\n      dup6\n      jump\t// out\n        /* \"Retail Industry/Advanced Retail Industry Smart Contract.sol\":4271:4409  function addLoyaltyPointsToProduct(bytes32 name, uint256 points) external onlyOwner {... */\n    tag_32:\n        /* \"Retail Industry/Advanced Retail Industry Smart Contract.sol\":1746:1751  owner */\n      0x04\n      0x00\n      swap1\n      sload\n      swap1\n      0x0100\n      exp\n      swap1\n      div\n      0xffffffffffffffffffffffffffffffffffffffff\n      and\n        /* \"Retail Industry/Advanced Retail Industry Smart Contract.sol\":1732:1751  msg.sender == owner */\n      0xffffffffffffffffffffffffffffffffffffffff\n      and\n        /* \"Retail Industry/Advanced Retail Industry Smart Contract.sol\":1732:1742  msg.sender */\n      caller\n        /* \"Retail Industry/Advanced Retail Industry Smart Contract.sol\":1732:1751  msg.sender == owner */\n      0xffffffffffffffffffffffffffffffffffffffff\n      and\n      eq\n        /* \"Retail Industry/Advanced Retail Industry Smart Contract.sol\":1724:1794  require(msg.sender == owner, \"Only the owner can call this function.\") */\n      tag_95\n      jumpi\n      mload(0x40)\n      0x08c379a000000000000000000000000000000000000000000000000000000000\n      dup2\n      mstore\n      0x04\n      add\n      tag_96\n      swap1\n      tag_74\n      jump\t// in\n    tag_96:\n      mload(0x40)\n      dup1\n      swap2\n      sub\n      swap1\n      revert\n    tag_95:\n        /* \"Retail Industry/Advanced Retail Industry Smart Contract.sol\":4396:4402  points */\n      dup1\n        /* \"Retail Industry/Advanced Retail Industry Smart Contract.sol\":4365:4373  products */\n      0x00\n        /* \"Retail Industry/Advanced Retail Industry Smart Contract.sol\":4365:4379  products[name] */\n      dup1\n        /* \"Retail Industry/Advanced Retail Industry Smart Contract.sol\":4374:4378  name */\n      dup5\n        /* \"Retail Industry/Advanced Retail Industry Smart Contract.sol\":4365:4379  products[name] */\n      dup2\n      mstore\n      0x20\n      add\n      swap1\n      dup2\n      mstore\n      0x20\n      add\n      0x00\n      keccak256\n        /* \"Retail Industry/Advanced Retail Industry Smart Contract.sol\":4365:4393  products[name].loyaltyPoints */\n      0x03\n      add\n        /* \"Retail Industry/Advanced Retail Industry Smart Contract.sol\":4365:4402  products[name].loyaltyPoints = points */\n      dup2\n      swap1\n      sstore\n      pop\n        /* \"Retail Industry/Advanced Retail Industry Smart Contract.sol\":4271:4409  function addLoyaltyPointsToProduct(bytes32 name, uint256 points) external onlyOwner {... */\n      pop\n      pop\n      jump\t// out\n        /* \"Retail Industry/Advanced Retail Industry Smart Contract.sol\":1997:2266  function addProduct(bytes32 name, uint256 price, uint256 stock, bytes32 category) external onlyOwner {... */\n    tag_37:\n        /* \"Retail Industry/Advanced Retail Industry Smart Contract.sol\":1746:1751  owner */\n      0x04\n      0x00\n      swap1\n      sload\n      swap1\n      0x0100\n      exp\n      swap1\n      div\n      0xffffffffffffffffffffffffffffffffffffffff\n      and\n        /* \"Retail Industry/Advanced Retail Industry Smart Contract.sol\":1732:1751  msg.sender == owner */\n      0xffffffffffffffffffffffffffffffffffffffff\n      and\n        /* \"Retail Industry/Advanced Retail Industry Smart Contract.sol\":1732:1742  msg.sender */\n      caller\n        /* \"Retail Industry/Advanced Retail Industry Smart Contract.sol\":1732:1751  msg.sender == owner */\n      0xffffffffffffffffffffffffffffffffffffffff\n      and\n      eq\n        /* \"Retail Industry/Advanced Retail Industry Smart Contract.sol\":1724:1794  require(msg.sender == owner, \"Only the owner can call this function.\") */\n      tag_99\n      jumpi\n      mload(0x40)\n      0x08c379a000000000000000000000000000000000000000000000000000000000\n      dup2\n      mstore\n      0x04\n      add\n      tag_100\n      swap1\n      tag_74\n      jump\t// in\n    tag_100:\n      mload(0x40)\n      dup1\n      swap2\n      sub\n      swap1\n      revert\n    tag_99:\n        /* \"Retail Industry/Advanced Retail Industry Smart Contract.sol\":2125:2165  Product(name, price, stock, 0, category) */\n      mload(0x40)\n      dup1\n      0xa0\n      add\n      0x40\n      mstore\n      dup1\n        /* \"Retail Industry/Advanced Retail Industry Smart Contract.sol\":2133:2137  name */\n      dup6\n        /* \"Retail Industry/Advanced Retail Industry Smart Contract.sol\":2125:2165  Product(name, price, stock, 0, category) */\n      dup2\n      mstore\n      0x20\n      add\n        /* \"Retail Industry/Advanced Retail Industry Smart Contract.sol\":2139:2144  price */\n      dup5\n        /* \"Retail Industry/Advanced Retail Industry Smart Contract.sol\":2125:2165  Product(name, price, stock, 0, category) */\n      dup2\n      mstore\n      0x20\n      add\n        /* \"Retail Industry/Advanced Retail Industry Smart Contract.sol\":2146:2151  stock */\n      dup4\n        /* \"Retail Industry/Advanced Retail Industry Smart Contract.sol\":2125:2165  Product(name, price, stock, 0, category) */\n      dup2\n      mstore\n      0x20\n      add\n        /* \"Retail Industry/Advanced Retail Industry Smart Contract.sol\":2153:2154  0 */\n      0x00\n        /* \"Retail Industry/Advanced Retail Industry Smart Contract.sol\":2125:2165  Product(name, price, stock, 0, category) */\n      dup2\n      mstore\n      0x20\n      add\n        /* \"Retail Industry/Advanced Retail Industry Smart Contract.sol\":2156:2164  category */\n      dup3\n        /* \"Retail Industry/Advanced Retail Industry Smart Contract.sol\":2125:2165  Product(name, price, stock, 0, category) */\n      dup2\n      mstore\n      pop\n        /* \"Retail Industry/Advanced Retail Industry Smart Contract.sol\":2108:2116  products */\n      0x00\n        /* \"Retail Industry/Advanced Retail Industry Smart Contract.sol\":2108:2122  products[name] */\n      dup1\n        /* \"Retail Industry/Advanced Retail Industry Smart Contract.sol\":2117:2121  name */\n      dup7\n        /* \"Retail Industry/Advanced Retail Industry Smart Contract.sol\":2108:2122  products[name] */\n      dup2\n      mstore\n      0x20\n      add\n      swap1\n      dup2\n      mstore\n      0x20\n      add\n      0x00\n      keccak256\n        /* \"Retail Industry/Advanced Retail Industry Smart Contract.sol\":2108:2165  products[name] = Product(name, price, stock, 0, category) */\n      0x00\n      dup3\n      add\n      mload\n      dup2\n      0x00\n      add\n      sstore\n      0x20\n      dup3\n      add\n      mload\n      dup2\n      0x01\n      add\n      sstore\n      0x40\n      dup3\n      add\n      mload\n      dup2\n      0x02\n      add\n      sstore\n      0x60\n      dup3\n      add\n      mload\n      dup2\n      0x03\n      add\n      sstore\n      0x80\n      dup3\n      add\n      mload\n      dup2\n      0x04\n      add\n      sstore\n      swap1\n      pop\n      pop\n        /* \"Retail Industry/Advanced Retail Industry Smart Contract.sol\":2175:2191  categoryProducts */\n      0x03\n        /* \"Retail Industry/Advanced Retail Industry Smart Contract.sol\":2175:2201  categoryProducts[category] */\n      0x00\n        /* \"Retail Industry/Advanced Retail Industry Smart Contract.sol\":2192:2200  category */\n      dup3\n        /* \"Retail Industry/Advanced Retail Industry Smart Contract.sol\":2175:2201  categoryProducts[category] */\n      dup2\n      mstore\n      0x20\n      add\n      swap1\n      dup2\n      mstore\n      0x20\n      add\n      0x00\n      keccak256\n        /* \"Retail Industry/Advanced Retail Industry Smart Contract.sol\":2207:2211  name */\n      dup5\n        /* \"Retail Industry/Advanced Retail Industry Smart Contract.sol\":2175:2212  categoryProducts[category].push(name) */\n      swap1\n      dup1\n      0x01\n      dup2\n      sload\n      add\n      dup1\n      dup3\n      sstore\n      dup1\n      swap2\n      pop\n      pop\n      0x01\n      swap1\n      sub\n      swap1\n      0x00\n      mstore\n      keccak256(0x00, 0x20)\n      add\n      0x00\n      swap1\n      swap2\n      swap1\n      swap2\n      swap1\n      swap2\n      pop\n      sstore\n        /* \"Retail Industry/Advanced Retail Industry Smart Contract.sol\":2240:2244  name */\n      dup4\n        /* \"Retail Industry/Advanced Retail Industry Smart Contract.sol\":2227:2259  ProductAdded(name, price, stock) */\n      0x4ede9ae24fbaaf3395a740f088c97fc5be0b6bf81af4d733bf754eaf3ff6d64e\n        /* \"Retail Industry/Advanced Retail Industry Smart Contract.sol\":2246:2251  price */\n      dup5\n        /* \"Retail Industry/Advanced Retail Industry Smart Contract.sol\":2253:2258  stock */\n      dup5\n        /* \"Retail Industry/Advanced Retail Industry Smart Contract.sol\":2227:2259  ProductAdded(name, price, stock) */\n      mload(0x40)\n      tag_103\n      swap3\n      swap2\n      swap1\n      tag_52\n      jump\t// in\n    tag_103:\n      mload(0x40)\n      dup1\n      swap2\n      sub\n      swap1\n      log2\n        /* \"Retail Industry/Advanced Retail Industry Smart Contract.sol\":1997:2266  function addProduct(bytes32 name, uint256 price, uint256 stock, bytes32 category) external onlyOwner {... */\n      pop\n      pop\n      pop\n      pop\n      jump\t// out\n        /* \"Retail Industry/Advanced Retail Industry Smart Contract.sol\":2577:2747  function updateProductStock(bytes32 name, uint256 newStock) external onlyOwner {... */\n    tag_41:\n        /* \"Retail Industry/Advanced Retail Industry Smart Contract.sol\":1746:1751  owner */\n      0x04\n      0x00\n      swap1\n      sload\n      swap1\n      0x0100\n      exp\n      swap1\n      div\n      0xffffffffffffffffffffffffffffffffffffffff\n      and\n        /* \"Retail Industry/Advanced Retail Industry Smart Contract.sol\":1732:1751  msg.sender == owner */\n      0xffffffffffffffffffffffffffffffffffffffff\n      and\n        /* \"Retail Industry/Advanced Retail Industry Smart Contract.sol\":1732:1742  msg.sender */\n      caller\n        /* \"Retail Industry/Advanced Retail Industry Smart Contract.sol\":1732:1751  msg.sender == owner */\n      0xffffffffffffffffffffffffffffffffffffffff\n      and\n      eq\n        /* \"Retail Industry/Advanced Retail Industry Smart Contract.sol\":1724:1794  require(msg.sender == owner, \"Only the owner can call this function.\") */\n      tag_105\n      jumpi\n      mload(0x40)\n      0x08c379a000000000000000000000000000000000000000000000000000000000\n      dup2\n      mstore\n      0x04\n      add\n      tag_106\n      swap1\n      tag_74\n      jump\t// in\n    tag_106:\n      mload(0x40)\n      dup1\n      swap2\n      sub\n      swap1\n      revert\n    tag_105:\n        /* \"Retail Industry/Advanced Retail Industry Smart Contract.sol\":2689:2697  newStock */\n      dup1\n        /* \"Retail Industry/Advanced Retail Industry Smart Contract.sol\":2666:2674  products */\n      0x00\n        /* \"Retail Industry/Advanced Retail Industry Smart Contract.sol\":2666:2680  products[name] */\n      dup1\n        /* \"Retail Industry/Advanced Retail Industry Smart Contract.sol\":2675:2679  name */\n      dup5\n        /* \"Retail Industry/Advanced Retail Industry Smart Contract.sol\":2666:2680  products[name] */\n      dup2\n      mstore\n      0x20\n      add\n      swap1\n      dup2\n      mstore\n      0x20\n      add\n      0x00\n      keccak256\n        /* \"Retail Industry/Advanced Retail Industry Smart Contract.sol\":2666:2686  products[name].stock */\n      0x02\n      add\n        /* \"Retail Industry/Advanced Retail Industry Smart Contract.sol\":2666:2697  products[name].stock = newStock */\n      dup2\n      swap1\n      sstore\n      pop\n        /* \"Retail Industry/Advanced Retail Industry Smart Contract.sol\":2725:2729  name */\n      dup2\n        /* \"Retail Industry/Advanced Retail Industry Smart Contract.sol\":2712:2740  StockUpdated(name, newStock) */\n      0x1dc600a0de973fe7a0046fa7d61b75642a4f0aea5f07b7b8710f4723d0878f8a\n        /* \"Retail Industry/Advanced Retail Industry Smart Contract.sol\":2731:2739  newStock */\n      dup3\n        /* \"Retail Industry/Advanced Retail Industry Smart Contract.sol\":2712:2740  StockUpdated(name, newStock) */\n      mload(0x40)\n      tag_108\n      swap2\n      swap1\n      tag_58\n      jump\t// in\n    tag_108:\n      mload(0x40)\n      dup1\n      swap2\n      sub\n      swap1\n      log2\n        /* \"Retail Industry/Advanced Retail Industry Smart Contract.sol\":2577:2747  function updateProductStock(bytes32 name, uint256 newStock) external onlyOwner {... */\n      pop\n      pop\n      jump\t// out\n        /* \"Retail Industry/Advanced Retail Industry Smart Contract.sol\":2803:3052  function applyDiscount(bytes32 name, uint256 discountPercentage, uint256 duration) external onlyOwner {... */\n    tag_46:\n        /* \"Retail Industry/Advanced Retail Industry Smart Contract.sol\":1746:1751  owner */\n      0x04\n      0x00\n      swap1\n      sload\n      swap1\n      0x0100\n      exp\n      swap1\n      div\n      0xffffffffffffffffffffffffffffffffffffffff\n      and\n        /* \"Retail Industry/Advanced Retail Industry Smart Contract.sol\":1732:1751  msg.sender == owner */\n      0xffffffffffffffffffffffffffffffffffffffff\n      and\n        /* \"Retail Industry/Advanced Retail Industry Smart Contract.sol\":1732:1742  msg.sender */\n      caller\n        /* \"Retail Industry/Advanced Retail Industry Smart Contract.sol\":1732:1751  msg.sender == owner */\n      0xffffffffffffffffffffffffffffffffffffffff\n      and\n      eq\n        /* \"Retail Industry/Advanced Retail Industry Smart Contract.sol\":1724:1794  require(msg.sender == owner, \"Only the owner can call this function.\") */\n      tag_110\n      jumpi\n      mload(0x40)\n      0x08c379a000000000000000000000000000000000000000000000000000000000\n      dup2\n      mstore\n      0x04\n      add\n      tag_111\n      swap1\n      tag_74\n      jump\t// in\n    tag_111:\n      mload(0x40)\n      dup1\n      swap2\n      sub\n      swap1\n      revert\n    tag_110:\n        /* \"Retail Industry/Advanced Retail Industry Smart Contract.sol\":2933:2989  Discount(discountPercentage, block.timestamp + duration) */\n      mload(0x40)\n      dup1\n      0x40\n      add\n      0x40\n      mstore\n      dup1\n        /* \"Retail Industry/Advanced Retail Industry Smart Contract.sol\":2942:2960  discountPercentage */\n      dup4\n        /* \"Retail Industry/Advanced Retail Industry Smart Contract.sol\":2933:2989  Discount(discountPercentage, block.timestamp + duration) */\n      dup2\n      mstore\n      0x20\n      add\n        /* \"Retail Industry/Advanced Retail Industry Smart Contract.sol\":2980:2988  duration */\n      dup3\n        /* \"Retail Industry/Advanced Retail Industry Smart Contract.sol\":2962:2977  block.timestamp */\n      timestamp\n        /* \"Retail Industry/Advanced Retail Industry Smart Contract.sol\":2962:2988  block.timestamp + duration */\n      tag_113\n      swap2\n      swap1\n      tag_90\n      jump\t// in\n    tag_113:\n        /* \"Retail Industry/Advanced Retail Industry Smart Contract.sol\":2933:2989  Discount(discountPercentage, block.timestamp + duration) */\n      dup2\n      mstore\n      pop\n        /* \"Retail Industry/Advanced Retail Industry Smart Contract.sol\":2915:2924  discounts */\n      0x02\n        /* \"Retail Industry/Advanced Retail Industry Smart Contract.sol\":2915:2930  discounts[name] */\n      0x00\n        /* \"Retail Industry/Advanced Retail Industry Smart Contract.sol\":2925:2929  name */\n      dup6\n        /* \"Retail Industry/Advanced Retail Industry Smart Contract.sol\":2915:2930  discounts[name] */\n      dup2\n      mstore\n      0x20\n      add\n      swap1\n      dup2\n      mstore\n      0x20\n      add\n      0x00\n      keccak256\n        /* \"Retail Industry/Advanced Retail Industry Smart Contract.sol\":2915:2989  discounts[name] = Discount(discountPercentage, block.timestamp + duration) */\n      0x00\n      dup3\n      add\n      mload\n      dup2\n      0x00\n      add\n      sstore\n      0x20\n      dup3\n      add\n      mload\n      dup2\n      0x01\n      add\n      sstore\n      swap1\n      pop\n      pop\n        /* \"Retail Industry/Advanced Retail Industry Smart Contract.sol\":3020:3024  name */\n      dup3\n        /* \"Retail Industry/Advanced Retail Industry Smart Contract.sol\":3004:3045  DiscountApplied(name, discountPercentage) */\n      0x91c8d4a3c694e88685a2fedb6db9444cd0c838c05dc799a03022fda0afdf345e\n        /* \"Retail Industry/Advanced Retail Industry Smart Contract.sol\":3026:3044  discountPercentage */\n      dup4\n        /* \"Retail Industry/Advanced Retail Industry Smart Contract.sol\":3004:3045  DiscountApplied(name, discountPercentage) */\n      mload(0x40)\n      tag_114\n      swap2\n      swap1\n      tag_58\n      jump\t// in\n    tag_114:\n      mload(0x40)\n      dup1\n      swap2\n      sub\n      swap1\n      log2\n        /* \"Retail Industry/Advanced Retail Industry Smart Contract.sol\":2803:3052  function applyDiscount(bytes32 name, uint256 discountPercentage, uint256 duration) external onlyOwner {... */\n      pop\n      pop\n      pop\n      jump\t// out\n        /* \"Retail Industry/Advanced Retail Industry Smart Contract.sol\":891:936  mapping(bytes32 => Discount) public discounts */\n    tag_50:\n      mstore(0x20, 0x02)\n      dup1\n      0x00\n      mstore\n      keccak256(0x00, 0x40)\n      0x00\n      swap2\n      pop\n      swap1\n      pop\n      dup1\n      0x00\n      add\n      sload\n      swap1\n      dup1\n      0x01\n      add\n      sload\n      swap1\n      pop\n      dup3\n      jump\t// out\n        /* \"Retail Industry/Advanced Retail Industry Smart Contract.sol\":3811:4171  function calculatePrice(bytes32 name, uint256 basePrice, uint256 quantity) public view returns (uint256) {... */\n    tag_56:\n        /* \"Retail Industry/Advanced Retail Industry Smart Contract.sol\":3907:3914  uint256 */\n      0x00\n        /* \"Retail Industry/Advanced Retail Industry Smart Contract.sol\":3959:3974  block.timestamp */\n      timestamp\n        /* \"Retail Industry/Advanced Retail Industry Smart Contract.sol\":3930:3939  discounts */\n      0x02\n        /* \"Retail Industry/Advanced Retail Industry Smart Contract.sol\":3930:3945  discounts[name] */\n      0x00\n        /* \"Retail Industry/Advanced Retail Industry Smart Contract.sol\":3940:3944  name */\n      dup7\n        /* \"Retail Industry/Advanced Retail Industry Smart Contract.sol\":3930:3945  discounts[name] */\n      dup2\n      mstore\n      0x20\n      add\n      swap1\n      dup2\n      mstore\n      0x20\n      add\n      0x00\n      keccak256\n        /* \"Retail Industry/Advanced Retail Industry Smart Contract.sol\":3930:3956  discounts[name].validUntil */\n      0x01\n      add\n      sload\n        /* \"Retail Industry/Advanced Retail Industry Smart Contract.sol\":3930:3974  discounts[name].validUntil > block.timestamp */\n      gt\n        /* \"Retail Industry/Advanced Retail Industry Smart Contract.sol\":3926:4128  if (discounts[name].validUntil > block.timestamp) {... */\n      iszero\n      tag_116\n      jumpi\n        /* \"Retail Industry/Advanced Retail Industry Smart Contract.sol\":3990:4011  uint256 discountValue */\n      0x00\n        /* \"Retail Industry/Advanced Retail Industry Smart Contract.sol\":4055:4058  100 */\n      0x64\n        /* \"Retail Industry/Advanced Retail Industry Smart Contract.sol\":4026:4035  discounts */\n      0x02\n        /* \"Retail Industry/Advanced Retail Industry Smart Contract.sol\":4026:4041  discounts[name] */\n      0x00\n        /* \"Retail Industry/Advanced Retail Industry Smart Contract.sol\":4036:4040  name */\n      dup8\n        /* \"Retail Industry/Advanced Retail Industry Smart Contract.sol\":4026:4041  discounts[name] */\n      dup2\n      mstore\n      0x20\n      add\n      swap1\n      dup2\n      mstore\n      0x20\n      add\n      0x00\n      keccak256\n        /* \"Retail Industry/Advanced Retail Industry Smart Contract.sol\":4026:4052  discounts[name].percentage */\n      0x00\n      add\n      sload\n        /* \"Retail Industry/Advanced Retail Industry Smart Contract.sol\":4014:4023  basePrice */\n      dup6\n        /* \"Retail Industry/Advanced Retail Industry Smart Contract.sol\":4014:4052  basePrice * discounts[name].percentage */\n      tag_117\n      swap2\n      swap1\n      tag_88\n      jump\t// in\n    tag_117:\n        /* \"Retail Industry/Advanced Retail Industry Smart Contract.sol\":4014:4058  basePrice * discounts[name].percentage / 100 */\n      tag_118\n      swap2\n      swap1\n      tag_119\n      jump\t// in\n    tag_118:\n        /* \"Retail Industry/Advanced Retail Industry Smart Contract.sol\":3990:4058  uint256 discountValue = basePrice * discounts[name].percentage / 100 */\n      swap1\n      pop\n        /* \"Retail Industry/Advanced Retail Industry Smart Contract.sol\":4109:4117  quantity */\n      dup3\n        /* \"Retail Industry/Advanced Retail Industry Smart Contract.sol\":4092:4105  discountValue */\n      dup2\n        /* \"Retail Industry/Advanced Retail Industry Smart Contract.sol\":4080:4089  basePrice */\n      dup6\n        /* \"Retail Industry/Advanced Retail Industry Smart Contract.sol\":4080:4105  basePrice - discountValue */\n      tag_120\n      swap2\n      swap1\n      tag_86\n      jump\t// in\n    tag_120:\n        /* \"Retail Industry/Advanced Retail Industry Smart Contract.sol\":4079:4117  (basePrice - discountValue) * quantity */\n      tag_121\n      swap2\n      swap1\n      tag_88\n      jump\t// in\n    tag_121:\n        /* \"Retail Industry/Advanced Retail Industry Smart Contract.sol\":4072:4117  return (basePrice - discountValue) * quantity */\n      swap2\n      pop\n      pop\n      jump(tag_115)\n        /* \"Retail Industry/Advanced Retail Industry Smart Contract.sol\":3926:4128  if (discounts[name].validUntil > block.timestamp) {... */\n    tag_116:\n        /* \"Retail Industry/Advanced Retail Industry Smart Contract.sol\":4156:4164  quantity */\n      dup2\n        /* \"Retail Industry/Advanced Retail Industry Smart Contract.sol\":4144:4153  basePrice */\n      dup4\n        /* \"Retail Industry/Advanced Retail Industry Smart Contract.sol\":4144:4164  basePrice * quantity */\n      tag_122\n      swap2\n      swap1\n      tag_88\n      jump\t// in\n    tag_122:\n        /* \"Retail Industry/Advanced Retail Industry Smart Contract.sol\":4137:4164  return basePrice * quantity */\n      swap1\n      pop\n        /* \"Retail Industry/Advanced Retail Industry Smart Contract.sol\":3811:4171  function calculatePrice(bytes32 name, uint256 basePrice, uint256 quantity) public view returns (uint256) {... */\n    tag_115:\n      swap4\n      swap3\n      pop\n      pop\n      pop\n      jump\t// out\n        /* \"Retail Industry/Advanced Retail Industry Smart Contract.sol\":779:827  mapping(address => uint256) public loyaltyPoints */\n    tag_63:\n      mstore(0x20, 0x01)\n      dup1\n      0x00\n      mstore\n      keccak256(0x00, 0x40)\n      0x00\n      swap2\n      pop\n      swap1\n      pop\n      sload\n      dup2\n      jump\t// out\n        /* \"Retail Industry/Advanced Retail Industry Smart Contract.sol\":1002:1055  mapping(bytes32 => bytes32[]) public categoryProducts */\n    tag_68:\n      mstore(0x20, 0x03)\n      dup2\n      0x00\n      mstore\n      keccak256(0x00, 0x40)\n      dup2\n      dup2\n      sload\n      dup2\n      lt\n      tag_123\n      jumpi\n      0x00\n      dup1\n      revert\n    tag_123:\n      swap1\n      0x00\n      mstore\n      keccak256(0x00, 0x20)\n      add\n      0x00\n      swap2\n      pop\n      swap2\n      pop\n      pop\n      sload\n      dup2\n      jump\t// out\n        /* \"#utility.yul\":88:205   */\n    tag_126:\n        /* \"#utility.yul\":197:198   */\n      0x00\n        /* \"#utility.yul\":194:195   */\n      dup1\n        /* \"#utility.yul\":187:199   */\n      revert\n        /* \"#utility.yul\":334:411   */\n    tag_128:\n        /* \"#utility.yul\":371:378   */\n      0x00\n        /* \"#utility.yul\":400:405   */\n      dup2\n        /* \"#utility.yul\":389:405   */\n      swap1\n      pop\n        /* \"#utility.yul\":334:411   */\n      swap2\n      swap1\n      pop\n      jump\t// out\n        /* \"#utility.yul\":417:539   */\n    tag_129:\n        /* \"#utility.yul\":490:514   */\n      tag_155\n        /* \"#utility.yul\":508:513   */\n      dup2\n        /* \"#utility.yul\":490:514   */\n      tag_128\n      jump\t// in\n    tag_155:\n        /* \"#utility.yul\":483:488   */\n      dup2\n        /* \"#utility.yul\":480:515   */\n      eq\n        /* \"#utility.yul\":470:533   */\n      tag_156\n      jumpi\n        /* \"#utility.yul\":529:530   */\n      0x00\n        /* \"#utility.yul\":526:527   */\n      dup1\n        /* \"#utility.yul\":519:531   */\n      revert\n        /* \"#utility.yul\":470:533   */\n    tag_156:\n        /* \"#utility.yul\":417:539   */\n      pop\n      jump\t// out\n        /* \"#utility.yul\":545:684   */\n    tag_130:\n        /* \"#utility.yul\":591:596   */\n      0x00\n        /* \"#utility.yul\":629:635   */\n      dup2\n        /* \"#utility.yul\":616:636   */\n      calldataload\n        /* \"#utility.yul\":607:636   */\n      swap1\n      pop\n        /* \"#utility.yul\":645:678   */\n      tag_158\n        /* \"#utility.yul\":672:677   */\n      dup2\n        /* \"#utility.yul\":645:678   */\n      tag_129\n      jump\t// in\n    tag_158:\n        /* \"#utility.yul\":545:684   */\n      swap3\n      swap2\n      pop\n      pop\n      jump\t// out\n        /* \"#utility.yul\":690:767   */\n    tag_131:\n        /* \"#utility.yul\":727:734   */\n      0x00\n        /* \"#utility.yul\":756:761   */\n      dup2\n        /* \"#utility.yul\":745:761   */\n      swap1\n      pop\n        /* \"#utility.yul\":690:767   */\n      swap2\n      swap1\n      pop\n      jump\t// out\n        /* \"#utility.yul\":773:895   */\n    tag_132:\n        /* \"#utility.yul\":846:870   */\n      tag_161\n        /* \"#utility.yul\":864:869   */\n      dup2\n        /* \"#utility.yul\":846:870   */\n      tag_131\n      jump\t// in\n    tag_161:\n        /* \"#utility.yul\":839:844   */\n      dup2\n        /* \"#utility.yul\":836:871   */\n      eq\n        /* \"#utility.yul\":826:889   */\n      tag_162\n      jumpi\n        /* \"#utility.yul\":885:886   */\n      0x00\n        /* \"#utility.yul\":882:883   */\n      dup1\n        /* \"#utility.yul\":875:887   */\n      revert\n        /* \"#utility.yul\":826:889   */\n    tag_162:\n        /* \"#utility.yul\":773:895   */\n      pop\n      jump\t// out\n        /* \"#utility.yul\":901:1040   */\n    tag_133:\n        /* \"#utility.yul\":947:952   */\n      0x00\n        /* \"#utility.yul\":985:991   */\n      dup2\n        /* \"#utility.yul\":972:992   */\n      calldataload\n        /* \"#utility.yul\":963:992   */\n      swap1\n      pop\n        /* \"#utility.yul\":1001:1034   */\n      tag_164\n        /* \"#utility.yul\":1028:1033   */\n      dup2\n        /* \"#utility.yul\":1001:1034   */\n      tag_132\n      jump\t// in\n    tag_164:\n        /* \"#utility.yul\":901:1040   */\n      swap3\n      swap2\n      pop\n      pop\n      jump\t// out\n        /* \"#utility.yul\":1046:1520   */\n    tag_17:\n        /* \"#utility.yul\":1114:1120   */\n      0x00\n        /* \"#utility.yul\":1122:1128   */\n      dup1\n        /* \"#utility.yul\":1171:1173   */\n      0x40\n        /* \"#utility.yul\":1159:1168   */\n      dup4\n        /* \"#utility.yul\":1150:1157   */\n      dup6\n        /* \"#utility.yul\":1146:1169   */\n      sub\n        /* \"#utility.yul\":1142:1174   */\n      slt\n        /* \"#utility.yul\":1139:1258   */\n      iszero\n      tag_166\n      jumpi\n        /* \"#utility.yul\":1177:1256   */\n      tag_167\n      tag_126\n      jump\t// in\n    tag_167:\n        /* \"#utility.yul\":1139:1258   */\n    tag_166:\n        /* \"#utility.yul\":1297:1298   */\n      0x00\n        /* \"#utility.yul\":1322:1375   */\n      tag_168\n        /* \"#utility.yul\":1367:1374   */\n      dup6\n        /* \"#utility.yul\":1358:1364   */\n      dup3\n        /* \"#utility.yul\":1347:1356   */\n      dup7\n        /* \"#utility.yul\":1343:1365   */\n      add\n        /* \"#utility.yul\":1322:1375   */\n      tag_130\n      jump\t// in\n    tag_168:\n        /* \"#utility.yul\":1312:1375   */\n      swap3\n      pop\n        /* \"#utility.yul\":1268:1385   */\n      pop\n        /* \"#utility.yul\":1424:1426   */\n      0x20\n        /* \"#utility.yul\":1450:1503   */\n      tag_169\n        /* \"#utility.yul\":1495:1502   */\n      dup6\n        /* \"#utility.yul\":1486:1492   */\n      dup3\n        /* \"#utility.yul\":1475:1484   */\n      dup7\n        /* \"#utility.yul\":1471:1493   */\n      add\n        /* \"#utility.yul\":1450:1503   */\n      tag_133\n      jump\t// in\n    tag_169:\n        /* \"#utility.yul\":1440:1503   */\n      swap2\n      pop\n        /* \"#utility.yul\":1395:1513   */\n      pop\n        /* \"#utility.yul\":1046:1520   */\n      swap3\n      pop\n      swap3\n      swap1\n      pop\n      jump\t// out\n        /* \"#utility.yul\":1526:1855   */\n    tag_25:\n        /* \"#utility.yul\":1585:1591   */\n      0x00\n        /* \"#utility.yul\":1634:1636   */\n      0x20\n        /* \"#utility.yul\":1622:1631   */\n      dup3\n        /* \"#utility.yul\":1613:1620   */\n      dup5\n        /* \"#utility.yul\":1609:1632   */\n      sub\n        /* \"#utility.yul\":1605:1637   */\n      slt\n        /* \"#utility.yul\":1602:1721   */\n      iszero\n      tag_171\n      jumpi\n        /* \"#utility.yul\":1640:1719   */\n      tag_172\n      tag_126\n      jump\t// in\n    tag_172:\n        /* \"#utility.yul\":1602:1721   */\n    tag_171:\n        /* \"#utility.yul\":1760:1761   */\n      0x00\n        /* \"#utility.yul\":1785:1838   */\n      tag_173\n        /* \"#utility.yul\":1830:1837   */\n      dup5\n        /* \"#utility.yul\":1821:1827   */\n      dup3\n        /* \"#utility.yul\":1810:1819   */\n      dup6\n        /* \"#utility.yul\":1806:1828   */\n      add\n        /* \"#utility.yul\":1785:1838   */\n      tag_130\n      jump\t// in\n    tag_173:\n        /* \"#utility.yul\":1775:1838   */\n      swap2\n      pop\n        /* \"#utility.yul\":1731:1848   */\n      pop\n        /* \"#utility.yul\":1526:1855   */\n      swap3\n      swap2\n      pop\n      pop\n      jump\t// out\n        /* \"#utility.yul\":1861:1979   */\n    tag_134:\n        /* \"#utility.yul\":1948:1972   */\n      tag_175\n        /* \"#utility.yul\":1966:1971   */\n      dup2\n        /* \"#utility.yul\":1948:1972   */\n      tag_128\n      jump\t// in\n    tag_175:\n        /* \"#utility.yul\":1943:1946   */\n      dup3\n        /* \"#utility.yul\":1936:1973   */\n      mstore\n        /* \"#utility.yul\":1861:1979   */\n      pop\n      pop\n      jump\t// out\n        /* \"#utility.yul\":1985:2103   */\n    tag_135:\n        /* \"#utility.yul\":2072:2096   */\n      tag_177\n        /* \"#utility.yul\":2090:2095   */\n      dup2\n        /* \"#utility.yul\":2072:2096   */\n      tag_131\n      jump\t// in\n    tag_177:\n        /* \"#utility.yul\":2067:2070   */\n      dup3\n        /* \"#utility.yul\":2060:2097   */\n      mstore\n        /* \"#utility.yul\":1985:2103   */\n      pop\n      pop\n      jump\t// out\n        /* \"#utility.yul\":2109:2773   */\n    tag_28:\n        /* \"#utility.yul\":2314:2318   */\n      0x00\n        /* \"#utility.yul\":2352:2355   */\n      0xa0\n        /* \"#utility.yul\":2341:2350   */\n      dup3\n        /* \"#utility.yul\":2337:2356   */\n      add\n        /* \"#utility.yul\":2329:2356   */\n      swap1\n      pop\n        /* \"#utility.yul\":2366:2437   */\n      tag_179\n        /* \"#utility.yul\":2434:2435   */\n      0x00\n        /* \"#utility.yul\":2423:2432   */\n      dup4\n        /* \"#utility.yul\":2419:2436   */\n      add\n        /* \"#utility.yul\":2410:2416   */\n      dup9\n        /* \"#utility.yul\":2366:2437   */\n      tag_134\n      jump\t// in\n    tag_179:\n        /* \"#utility.yul\":2447:2519   */\n      tag_180\n        /* \"#utility.yul\":2515:2517   */\n      0x20\n        /* \"#utility.yul\":2504:2513   */\n      dup4\n        /* \"#utility.yul\":2500:2518   */\n      add\n        /* \"#utility.yul\":2491:2497   */\n      dup8\n        /* \"#utility.yul\":2447:2519   */\n      tag_135\n      jump\t// in\n    tag_180:\n        /* \"#utility.yul\":2529:2601   */\n      tag_181\n        /* \"#utility.yul\":2597:2599   */\n      0x40\n        /* \"#utility.yul\":2586:2595   */\n      dup4\n        /* \"#utility.yul\":2582:2600   */\n      add\n        /* \"#utility.yul\":2573:2579   */\n      dup7\n        /* \"#utility.yul\":2529:2601   */\n      tag_135\n      jump\t// in\n    tag_181:\n        /* \"#utility.yul\":2611:2683   */\n      tag_182\n        /* \"#utility.yul\":2679:2681   */\n      0x60\n        /* \"#utility.yul\":2668:2677   */\n      dup4\n        /* \"#utility.yul\":2664:2682   */\n      add\n        /* \"#utility.yul\":2655:2661   */\n      dup6\n        /* \"#utility.yul\":2611:2683   */\n      tag_135\n      jump\t// in\n    tag_182:\n        /* \"#utility.yul\":2693:2766   */\n      tag_183\n        /* \"#utility.yul\":2761:2764   */\n      0x80\n        /* \"#utility.yul\":2750:2759   */\n      dup4\n        /* \"#utility.yul\":2746:2765   */\n      add\n        /* \"#utility.yul\":2737:2743   */\n      dup5\n        /* \"#utility.yul\":2693:2766   */\n      tag_134\n      jump\t// in\n    tag_183:\n        /* \"#utility.yul\":2109:2773   */\n      swap7\n      swap6\n      pop\n      pop\n      pop\n      pop\n      pop\n      pop\n      jump\t// out\n        /* \"#utility.yul\":2779:3544   */\n    tag_36:\n        /* \"#utility.yul\":2865:2871   */\n      0x00\n        /* \"#utility.yul\":2873:2879   */\n      dup1\n        /* \"#utility.yul\":2881:2887   */\n      0x00\n        /* \"#utility.yul\":2889:2895   */\n      dup1\n        /* \"#utility.yul\":2938:2941   */\n      0x80\n        /* \"#utility.yul\":2926:2935   */\n      dup6\n        /* \"#utility.yul\":2917:2924   */\n      dup8\n        /* \"#utility.yul\":2913:2936   */\n      sub\n        /* \"#utility.yul\":2909:2942   */\n      slt\n        /* \"#utility.yul\":2906:3026   */\n      iszero\n      tag_185\n      jumpi\n        /* \"#utility.yul\":2945:3024   */\n      tag_186\n      tag_126\n      jump\t// in\n    tag_186:\n        /* \"#utility.yul\":2906:3026   */\n    tag_185:\n        /* \"#utility.yul\":3065:3066   */\n      0x00\n        /* \"#utility.yul\":3090:3143   */\n      tag_187\n        /* \"#utility.yul\":3135:3142   */\n      dup8\n        /* \"#utility.yul\":3126:3132   */\n      dup3\n        /* \"#utility.yul\":3115:3124   */\n      dup9\n        /* \"#utility.yul\":3111:3133   */\n      add\n        /* \"#utility.yul\":3090:3143   */\n      tag_130\n      jump\t// in\n    tag_187:\n        /* \"#utility.yul\":3080:3143   */\n      swap5\n      pop\n        /* \"#utility.yul\":3036:3153   */\n      pop\n        /* \"#utility.yul\":3192:3194   */\n      0x20\n        /* \"#utility.yul\":3218:3271   */\n      tag_188\n        /* \"#utility.yul\":3263:3270   */\n      dup8\n        /* \"#utility.yul\":3254:3260   */\n      dup3\n        /* \"#utility.yul\":3243:3252   */\n      dup9\n        /* \"#utility.yul\":3239:3261   */\n      add\n        /* \"#utility.yul\":3218:3271   */\n      tag_133\n      jump\t// in\n    tag_188:\n        /* \"#utility.yul\":3208:3271   */\n      swap4\n      pop\n        /* \"#utility.yul\":3163:3281   */\n      pop\n        /* \"#utility.yul\":3320:3322   */\n      0x40\n        /* \"#utility.yul\":3346:3399   */\n      tag_189\n        /* \"#utility.yul\":3391:3398   */\n      dup8\n        /* \"#utility.yul\":3382:3388   */\n      dup3\n        /* \"#utility.yul\":3371:3380   */\n      dup9\n        /* \"#utility.yul\":3367:3389   */\n      add\n        /* \"#utility.yul\":3346:3399   */\n      tag_133\n      jump\t// in\n    tag_189:\n        /* \"#utility.yul\":3336:3399   */\n      swap3\n      pop\n        /* \"#utility.yul\":3291:3409   */\n      pop\n        /* \"#utility.yul\":3448:3450   */\n      0x60\n        /* \"#utility.yul\":3474:3527   */\n      tag_190\n        /* \"#utility.yul\":3519:3526   */\n      dup8\n        /* \"#utility.yul\":3510:3516   */\n      dup3\n        /* \"#utility.yul\":3499:3508   */\n      dup9\n        /* \"#utility.yul\":3495:3517   */\n      add\n        /* \"#utility.yul\":3474:3527   */\n      tag_130\n      jump\t// in\n    tag_190:\n        /* \"#utility.yul\":3464:3527   */\n      swap2\n      pop\n        /* \"#utility.yul\":3419:3537   */\n      pop\n        /* \"#utility.yul\":2779:3544   */\n      swap3\n      swap6\n      swap2\n      swap5\n      pop\n      swap3\n      pop\n      jump\t// out\n        /* \"#utility.yul\":3550:4169   */\n    tag_45:\n        /* \"#utility.yul\":3627:3633   */\n      0x00\n        /* \"#utility.yul\":3635:3641   */\n      dup1\n        /* \"#utility.yul\":3643:3649   */\n      0x00\n        /* \"#utility.yul\":3692:3694   */\n      0x60\n        /* \"#utility.yul\":3680:3689   */\n      dup5\n        /* \"#utility.yul\":3671:3678   */\n      dup7\n        /* \"#utility.yul\":3667:3690   */\n      sub\n        /* \"#utility.yul\":3663:3695   */\n      slt\n        /* \"#utility.yul\":3660:3779   */\n      iszero\n      tag_192\n      jumpi\n        /* \"#utility.yul\":3698:3777   */\n      tag_193\n      tag_126\n      jump\t// in\n    tag_193:\n        /* \"#utility.yul\":3660:3779   */\n    tag_192:\n        /* \"#utility.yul\":3818:3819   */\n      0x00\n        /* \"#utility.yul\":3843:3896   */\n      tag_194\n        /* \"#utility.yul\":3888:3895   */\n      dup7\n        /* \"#utility.yul\":3879:3885   */\n      dup3\n        /* \"#utility.yul\":3868:3877   */\n      dup8\n        /* \"#utility.yul\":3864:3886   */\n      add\n        /* \"#utility.yul\":3843:3896   */\n      tag_130\n      jump\t// in\n    tag_194:\n        /* \"#utility.yul\":3833:3896   */\n      swap4\n      pop\n        /* \"#utility.yul\":3789:3906   */\n      pop\n        /* \"#utility.yul\":3945:3947   */\n      0x20\n        /* \"#utility.yul\":3971:4024   */\n      tag_195\n        /* \"#utility.yul\":4016:4023   */\n      dup7\n        /* \"#utility.yul\":4007:4013   */\n      dup3\n        /* \"#utility.yul\":3996:4005   */\n      dup8\n        /* \"#utility.yul\":3992:4014   */\n      add\n        /* \"#utility.yul\":3971:4024   */\n      tag_133\n      jump\t// in\n    tag_195:\n        /* \"#utility.yul\":3961:4024   */\n      swap3\n      pop\n        /* \"#utility.yul\":3916:4034   */\n      pop\n        /* \"#utility.yul\":4073:4075   */\n      0x40\n        /* \"#utility.yul\":4099:4152   */\n      tag_196\n        /* \"#utility.yul\":4144:4151   */\n      dup7\n        /* \"#utility.yul\":4135:4141   */\n      dup3\n        /* \"#utility.yul\":4124:4133   */\n      dup8\n        /* \"#utility.yul\":4120:4142   */\n      add\n        /* \"#utility.yul\":4099:4152   */\n      tag_133\n      jump\t// in\n    tag_196:\n        /* \"#utility.yul\":4089:4152   */\n      swap2\n      pop\n        /* \"#utility.yul\":4044:4162   */\n      pop\n        /* \"#utility.yul\":3550:4169   */\n      swap3\n      pop\n      swap3\n      pop\n      swap3\n      jump\t// out\n        /* \"#utility.yul\":4175:4507   */\n    tag_52:\n        /* \"#utility.yul\":4296:4300   */\n      0x00\n        /* \"#utility.yul\":4334:4336   */\n      0x40\n        /* \"#utility.yul\":4323:4332   */\n      dup3\n        /* \"#utility.yul\":4319:4337   */\n      add\n        /* \"#utility.yul\":4311:4337   */\n      swap1\n      pop\n        /* \"#utility.yul\":4347:4418   */\n      tag_198\n        /* \"#utility.yul\":4415:4416   */\n      0x00\n        /* \"#utility.yul\":4404:4413   */\n      dup4\n        /* \"#utility.yul\":4400:4417   */\n      add\n        /* \"#utility.yul\":4391:4397   */\n      dup6\n        /* \"#utility.yul\":4347:4418   */\n      tag_135\n      jump\t// in\n    tag_198:\n        /* \"#utility.yul\":4428:4500   */\n      tag_199\n        /* \"#utility.yul\":4496:4498   */\n      0x20\n        /* \"#utility.yul\":4485:4494   */\n      dup4\n        /* \"#utility.yul\":4481:4499   */\n      add\n        /* \"#utility.yul\":4472:4478   */\n      dup5\n        /* \"#utility.yul\":4428:4500   */\n      tag_135\n      jump\t// in\n    tag_199:\n        /* \"#utility.yul\":4175:4507   */\n      swap4\n      swap3\n      pop\n      pop\n      pop\n      jump\t// out\n        /* \"#utility.yul\":4513:4735   */\n    tag_58:\n        /* \"#utility.yul\":4606:4610   */\n      0x00\n        /* \"#utility.yul\":4644:4646   */\n      0x20\n        /* \"#utility.yul\":4633:4642   */\n      dup3\n        /* \"#utility.yul\":4629:4647   */\n      add\n        /* \"#utility.yul\":4621:4647   */\n      swap1\n      pop\n        /* \"#utility.yul\":4657:4728   */\n      tag_201\n        /* \"#utility.yul\":4725:4726   */\n      0x00\n        /* \"#utility.yul\":4714:4723   */\n      dup4\n        /* \"#utility.yul\":4710:4727   */\n      add\n        /* \"#utility.yul\":4701:4707   */\n      dup5\n        /* \"#utility.yul\":4657:4728   */\n      tag_135\n      jump\t// in\n    tag_201:\n        /* \"#utility.yul\":4513:4735   */\n      swap3\n      swap2\n      pop\n      pop\n      jump\t// out\n        /* \"#utility.yul\":4741:4867   */\n    tag_136:\n        /* \"#utility.yul\":4778:4785   */\n      0x00\n        /* \"#utility.yul\":4818:4860   */\n      0xffffffffffffffffffffffffffffffffffffffff\n        /* \"#utility.yul\":4811:4816   */\n      dup3\n        /* \"#utility.yul\":4807:4861   */\n      and\n        /* \"#utility.yul\":4796:4861   */\n      swap1\n      pop\n        /* \"#utility.yul\":4741:4867   */\n      swap2\n      swap1\n      pop\n      jump\t// out\n        /* \"#utility.yul\":4873:4969   */\n    tag_137:\n        /* \"#utility.yul\":4910:4917   */\n      0x00\n        /* \"#utility.yul\":4939:4963   */\n      tag_204\n        /* \"#utility.yul\":4957:4962   */\n      dup3\n        /* \"#utility.yul\":4939:4963   */\n      tag_136\n      jump\t// in\n    tag_204:\n        /* \"#utility.yul\":4928:4963   */\n      swap1\n      pop\n        /* \"#utility.yul\":4873:4969   */\n      swap2\n      swap1\n      pop\n      jump\t// out\n        /* \"#utility.yul\":4975:5097   */\n    tag_138:\n        /* \"#utility.yul\":5048:5072   */\n      tag_206\n        /* \"#utility.yul\":5066:5071   */\n      dup2\n        /* \"#utility.yul\":5048:5072   */\n      tag_137\n      jump\t// in\n    tag_206:\n        /* \"#utility.yul\":5041:5046   */\n      dup2\n        /* \"#utility.yul\":5038:5073   */\n      eq\n        /* \"#utility.yul\":5028:5091   */\n      tag_207\n      jumpi\n        /* \"#utility.yul\":5087:5088   */\n      0x00\n        /* \"#utility.yul\":5084:5085   */\n      dup1\n        /* \"#utility.yul\":5077:5089   */\n      revert\n        /* \"#utility.yul\":5028:5091   */\n    tag_207:\n        /* \"#utility.yul\":4975:5097   */\n      pop\n      jump\t// out\n        /* \"#utility.yul\":5103:5242   */\n    tag_139:\n        /* \"#utility.yul\":5149:5154   */\n      0x00\n        /* \"#utility.yul\":5187:5193   */\n      dup2\n        /* \"#utility.yul\":5174:5194   */\n      calldataload\n        /* \"#utility.yul\":5165:5194   */\n      swap1\n      pop\n        /* \"#utility.yul\":5203:5236   */\n      tag_209\n        /* \"#utility.yul\":5230:5235   */\n      dup2\n        /* \"#utility.yul\":5203:5236   */\n      tag_138\n      jump\t// in\n    tag_209:\n        /* \"#utility.yul\":5103:5242   */\n      swap3\n      swap2\n      pop\n      pop\n      jump\t// out\n        /* \"#utility.yul\":5248:5577   */\n    tag_62:\n        /* \"#utility.yul\":5307:5313   */\n      0x00\n        /* \"#utility.yul\":5356:5358   */\n      0x20\n        /* \"#utility.yul\":5344:5353   */\n      dup3\n        /* \"#utility.yul\":5335:5342   */\n      dup5\n        /* \"#utility.yul\":5331:5354   */\n      sub\n        /* \"#utility.yul\":5327:5359   */\n      slt\n        /* \"#utility.yul\":5324:5443   */\n      iszero\n      tag_211\n      jumpi\n        /* \"#utility.yul\":5362:5441   */\n      tag_212\n      tag_126\n      jump\t// in\n    tag_212:\n        /* \"#utility.yul\":5324:5443   */\n    tag_211:\n        /* \"#utility.yul\":5482:5483   */\n      0x00\n        /* \"#utility.yul\":5507:5560   */\n      tag_213\n        /* \"#utility.yul\":5552:5559   */\n      dup5\n        /* \"#utility.yul\":5543:5549   */\n      dup3\n        /* \"#utility.yul\":5532:5541   */\n      dup6\n        /* \"#utility.yul\":5528:5550   */\n      add\n        /* \"#utility.yul\":5507:5560   */\n      tag_139\n      jump\t// in\n    tag_213:\n        /* \"#utility.yul\":5497:5560   */\n      swap2\n      pop\n        /* \"#utility.yul\":5453:5570   */\n      pop\n        /* \"#utility.yul\":5248:5577   */\n      swap3\n      swap2\n      pop\n      pop\n      jump\t// out\n        /* \"#utility.yul\":5583:5805   */\n    tag_70:\n        /* \"#utility.yul\":5676:5680   */\n      0x00\n        /* \"#utility.yul\":5714:5716   */\n      0x20\n        /* \"#utility.yul\":5703:5712   */\n      dup3\n        /* \"#utility.yul\":5699:5717   */\n      add\n        /* \"#utility.yul\":5691:5717   */\n      swap1\n      pop\n        /* \"#utility.yul\":5727:5798   */\n      tag_215\n        /* \"#utility.yul\":5795:5796   */\n      0x00\n        /* \"#utility.yul\":5784:5793   */\n      dup4\n        /* \"#utility.yul\":5780:5797   */\n      add\n        /* \"#utility.yul\":5771:5777   */\n      dup5\n        /* \"#utility.yul\":5727:5798   */\n      tag_134\n      jump\t// in\n    tag_215:\n        /* \"#utility.yul\":5583:5805   */\n      swap3\n      swap2\n      pop\n      pop\n      jump\t// out\n        /* \"#utility.yul\":5811:5980   */\n    tag_140:\n        /* \"#utility.yul\":5895:5906   */\n      0x00\n        /* \"#utility.yul\":5929:5935   */\n      dup3\n        /* \"#utility.yul\":5924:5927   */\n      dup3\n        /* \"#utility.yul\":5917:5936   */\n      mstore\n        /* \"#utility.yul\":5969:5973   */\n      0x20\n        /* \"#utility.yul\":5964:5967   */\n      dup3\n        /* \"#utility.yul\":5960:5974   */\n      add\n        /* \"#utility.yul\":5945:5974   */\n      swap1\n      pop\n        /* \"#utility.yul\":5811:5980   */\n      swap3\n      swap2\n      pop\n      pop\n      jump\t// out\n        /* \"#utility.yul\":5986:6211   */\n    tag_141:\n        /* \"#utility.yul\":6126:6160   */\n      0x4f6e6c7920746865206f776e65722063616e2063616c6c20746869732066756e\n        /* \"#utility.yul\":6122:6123   */\n      0x00\n        /* \"#utility.yul\":6114:6120   */\n      dup3\n        /* \"#utility.yul\":6110:6124   */\n      add\n        /* \"#utility.yul\":6103:6161   */\n      mstore\n        /* \"#utility.yul\":6195:6203   */\n      0x6374696f6e2e0000000000000000000000000000000000000000000000000000\n        /* \"#utility.yul\":6190:6192   */\n      0x20\n        /* \"#utility.yul\":6182:6188   */\n      dup3\n        /* \"#utility.yul\":6178:6193   */\n      add\n        /* \"#utility.yul\":6171:6204   */\n      mstore\n        /* \"#utility.yul\":5986:6211   */\n      pop\n      jump\t// out\n        /* \"#utility.yul\":6217:6583   */\n    tag_142:\n        /* \"#utility.yul\":6359:6362   */\n      0x00\n        /* \"#utility.yul\":6380:6447   */\n      tag_219\n        /* \"#utility.yul\":6444:6446   */\n      0x26\n        /* \"#utility.yul\":6439:6442   */\n      dup4\n        /* \"#utility.yul\":6380:6447   */\n      tag_140\n      jump\t// in\n    tag_219:\n        /* \"#utility.yul\":6373:6447   */\n      swap2\n      pop\n        /* \"#utility.yul\":6456:6549   */\n      tag_220\n        /* \"#utility.yul\":6545:6548   */\n      dup3\n        /* \"#utility.yul\":6456:6549   */\n      tag_141\n      jump\t// in\n    tag_220:\n        /* \"#utility.yul\":6574:6576   */\n      0x40\n        /* \"#utility.yul\":6569:6572   */\n      dup3\n        /* \"#utility.yul\":6565:6577   */\n      add\n        /* \"#utility.yul\":6558:6577   */\n      swap1\n      pop\n        /* \"#utility.yul\":6217:6583   */\n      swap2\n      swap1\n      pop\n      jump\t// out\n        /* \"#utility.yul\":6589:7008   */\n    tag_74:\n        /* \"#utility.yul\":6755:6759   */\n      0x00\n        /* \"#utility.yul\":6793:6795   */\n      0x20\n        /* \"#utility.yul\":6782:6791   */\n      dup3\n        /* \"#utility.yul\":6778:6796   */\n      add\n        /* \"#utility.yul\":6770:6796   */\n      swap1\n      pop\n        /* \"#utility.yul\":6842:6851   */\n      dup2\n        /* \"#utility.yul\":6836:6840   */\n      dup2\n        /* \"#utility.yul\":6832:6852   */\n      sub\n        /* \"#utility.yul\":6828:6829   */\n      0x00\n        /* \"#utility.yul\":6817:6826   */\n      dup4\n        /* \"#utility.yul\":6813:6830   */\n      add\n        /* \"#utility.yul\":6806:6853   */\n      mstore\n        /* \"#utility.yul\":6870:7001   */\n      tag_222\n        /* \"#utility.yul\":6996:7000   */\n      dup2\n        /* \"#utility.yul\":6870:7001   */\n      tag_142\n      jump\t// in\n    tag_222:\n        /* \"#utility.yul\":6862:7001   */\n      swap1\n      pop\n        /* \"#utility.yul\":6589:7008   */\n      swap2\n      swap1\n      pop\n      jump\t// out\n        /* \"#utility.yul\":7014:7181   */\n    tag_143:\n        /* \"#utility.yul\":7154:7173   */\n      0x4e6f7420656e6f7567682073746f636b2e000000000000000000000000000000\n        /* \"#utility.yul\":7150:7151   */\n      0x00\n        /* \"#utility.yul\":7142:7148   */\n      dup3\n        /* \"#utility.yul\":7138:7152   */\n      add\n        /* \"#utility.yul\":7131:7174   */\n      mstore\n        /* \"#utility.yul\":7014:7181   */\n      pop\n      jump\t// out\n        /* \"#utility.yul\":7187:7553   */\n    tag_144:\n        /* \"#utility.yul\":7329:7332   */\n      0x00\n        /* \"#utility.yul\":7350:7417   */\n      tag_225\n        /* \"#utility.yul\":7414:7416   */\n      0x11\n        /* \"#utility.yul\":7409:7412   */\n      dup4\n        /* \"#utility.yul\":7350:7417   */\n      tag_140\n      jump\t// in\n    tag_225:\n        /* \"#utility.yul\":7343:7417   */\n      swap2\n      pop\n        /* \"#utility.yul\":7426:7519   */\n      tag_226\n        /* \"#utility.yul\":7515:7518   */\n      dup3\n        /* \"#utility.yul\":7426:7519   */\n      tag_143\n      jump\t// in\n    tag_226:\n        /* \"#utility.yul\":7544:7546   */\n      0x20\n        /* \"#utility.yul\":7539:7542   */\n      dup3\n        /* \"#utility.yul\":7535:7547   */\n      add\n        /* \"#utility.yul\":7528:7547   */\n      swap1\n      pop\n        /* \"#utility.yul\":7187:7553   */\n      swap2\n      swap1\n      pop\n      jump\t// out\n        /* \"#utility.yul\":7559:7978   */\n    tag_80:\n        /* \"#utility.yul\":7725:7729   */\n      0x00\n        /* \"#utility.yul\":7763:7765   */\n      0x20\n        /* \"#utility.yul\":7752:7761   */\n      dup3\n        /* \"#utility.yul\":7748:7766   */\n      add\n        /* \"#utility.yul\":7740:7766   */\n      swap1\n      pop\n        /* \"#utility.yul\":7812:7821   */\n      dup2\n        /* \"#utility.yul\":7806:7810   */\n      dup2\n        /* \"#utility.yul\":7802:7822   */\n      sub\n        /* \"#utility.yul\":7798:7799   */\n      0x00\n        /* \"#utility.yul\":7787:7796   */\n      dup4\n        /* \"#utility.yul\":7783:7800   */\n      add\n        /* \"#utility.yul\":7776:7823   */\n      mstore\n        /* \"#utility.yul\":7840:7971   */\n      tag_228\n        /* \"#utility.yul\":7966:7970   */\n      dup2\n        /* \"#utility.yul\":7840:7971   */\n      tag_144\n      jump\t// in\n    tag_228:\n        /* \"#utility.yul\":7832:7971   */\n      swap1\n      pop\n        /* \"#utility.yul\":7559:7978   */\n      swap2\n      swap1\n      pop\n      jump\t// out\n        /* \"#utility.yul\":7984:8153   */\n    tag_145:\n        /* \"#utility.yul\":8124:8145   */\n      0x496e73756666696369656e742066756e64732e00000000000000000000000000\n        /* \"#utility.yul\":8120:8121   */\n      0x00\n        /* \"#utility.yul\":8112:8118   */\n      dup3\n        /* \"#utility.yul\":8108:8122   */\n      add\n        /* \"#utility.yul\":8101:8146   */\n      mstore\n        /* \"#utility.yul\":7984:8153   */\n      pop\n      jump\t// out\n        /* \"#utility.yul\":8159:8525   */\n    tag_146:\n        /* \"#utility.yul\":8301:8304   */\n      0x00\n        /* \"#utility.yul\":8322:8389   */\n      tag_231\n        /* \"#utility.yul\":8386:8388   */\n      0x13\n        /* \"#utility.yul\":8381:8384   */\n      dup4\n        /* \"#utility.yul\":8322:8389   */\n      tag_140\n      jump\t// in\n    tag_231:\n        /* \"#utility.yul\":8315:8389   */\n      swap2\n      pop\n        /* \"#utility.yul\":8398:8491   */\n      tag_232\n        /* \"#utility.yul\":8487:8490   */\n      dup3\n        /* \"#utility.yul\":8398:8491   */\n      tag_145\n      jump\t// in\n    tag_232:\n        /* \"#utility.yul\":8516:8518   */\n      0x20\n        /* \"#utility.yul\":8511:8514   */\n      dup3\n        /* \"#utility.yul\":8507:8519   */\n      add\n        /* \"#utility.yul\":8500:8519   */\n      swap1\n      pop\n        /* \"#utility.yul\":8159:8525   */\n      swap2\n      swap1\n      pop\n      jump\t// out\n        /* \"#utility.yul\":8531:8950   */\n    tag_84:\n        /* \"#utility.yul\":8697:8701   */\n      0x00\n        /* \"#utility.yul\":8735:8737   */\n      0x20\n        /* \"#utility.yul\":8724:8733   */\n      dup3\n        /* \"#utility.yul\":8720:8738   */\n      add\n        /* \"#utility.yul\":8712:8738   */\n      swap1\n      pop\n        /* \"#utility.yul\":8784:8793   */\n      dup2\n        /* \"#utility.yul\":8778:8782   */\n      dup2\n        /* \"#utility.yul\":8774:8794   */\n      sub\n        /* \"#utility.yul\":8770:8771   */\n      0x00\n        /* \"#utility.yul\":8759:8768   */\n      dup4\n        /* \"#utility.yul\":8755:8772   */\n      add\n        /* \"#utility.yul\":8748:8795   */\n      mstore\n        /* \"#utility.yul\":8812:8943   */\n      tag_234\n        /* \"#utility.yul\":8938:8942   */\n      dup2\n        /* \"#utility.yul\":8812:8943   */\n      tag_146\n      jump\t// in\n    tag_234:\n        /* \"#utility.yul\":8804:8943   */\n      swap1\n      pop\n        /* \"#utility.yul\":8531:8950   */\n      swap2\n      swap1\n      pop\n      jump\t// out\n        /* \"#utility.yul\":8956:9136   */\n    tag_147:\n        /* \"#utility.yul\":9004:9081   */\n      0x4e487b7100000000000000000000000000000000000000000000000000000000\n        /* \"#utility.yul\":9001:9002   */\n      0x00\n        /* \"#utility.yul\":8994:9082   */\n      mstore\n        /* \"#utility.yul\":9101:9105   */\n      0x11\n        /* \"#utility.yul\":9098:9099   */\n      0x04\n        /* \"#utility.yul\":9091:9106   */\n      mstore\n        /* \"#utility.yul\":9125:9129   */\n      0x24\n        /* \"#utility.yul\":9122:9123   */\n      0x00\n        /* \"#utility.yul\":9115:9130   */\n      revert\n        /* \"#utility.yul\":9142:9336   */\n    tag_86:\n        /* \"#utility.yul\":9182:9186   */\n      0x00\n        /* \"#utility.yul\":9202:9222   */\n      tag_237\n        /* \"#utility.yul\":9220:9221   */\n      dup3\n        /* \"#utility.yul\":9202:9222   */\n      tag_131\n      jump\t// in\n    tag_237:\n        /* \"#utility.yul\":9197:9222   */\n      swap2\n      pop\n        /* \"#utility.yul\":9236:9256   */\n      tag_238\n        /* \"#utility.yul\":9254:9255   */\n      dup4\n        /* \"#utility.yul\":9236:9256   */\n      tag_131\n      jump\t// in\n    tag_238:\n        /* \"#utility.yul\":9231:9256   */\n      swap3\n      pop\n        /* \"#utility.yul\":9280:9281   */\n      dup3\n        /* \"#utility.yul\":9277:9278   */\n      dup3\n        /* \"#utility.yul\":9273:9282   */\n      sub\n        /* \"#utility.yul\":9265:9282   */\n      swap1\n      pop\n        /* \"#utility.yul\":9304:9305   */\n      dup2\n        /* \"#utility.yul\":9298:9302   */\n      dup2\n        /* \"#utility.yul\":9295:9306   */\n      gt\n        /* \"#utility.yul\":9292:9329   */\n      iszero\n      tag_239\n      jumpi\n        /* \"#utility.yul\":9309:9327   */\n      tag_240\n      tag_147\n      jump\t// in\n    tag_240:\n        /* \"#utility.yul\":9292:9329   */\n    tag_239:\n        /* \"#utility.yul\":9142:9336   */\n      swap3\n      swap2\n      pop\n      pop\n      jump\t// out\n        /* \"#utility.yul\":9342:9752   */\n    tag_88:\n        /* \"#utility.yul\":9382:9389   */\n      0x00\n        /* \"#utility.yul\":9405:9425   */\n      tag_242\n        /* \"#utility.yul\":9423:9424   */\n      dup3\n        /* \"#utility.yul\":9405:9425   */\n      tag_131\n      jump\t// in\n    tag_242:\n        /* \"#utility.yul\":9400:9425   */\n      swap2\n      pop\n        /* \"#utility.yul\":9439:9459   */\n      tag_243\n        /* \"#utility.yul\":9457:9458   */\n      dup4\n        /* \"#utility.yul\":9439:9459   */\n      tag_131\n      jump\t// in\n    tag_243:\n        /* \"#utility.yul\":9434:9459   */\n      swap3\n      pop\n        /* \"#utility.yul\":9494:9495   */\n      dup3\n        /* \"#utility.yul\":9491:9492   */\n      dup3\n        /* \"#utility.yul\":9487:9496   */\n      mul\n        /* \"#utility.yul\":9516:9546   */\n      tag_244\n        /* \"#utility.yul\":9534:9545   */\n      dup2\n        /* \"#utility.yul\":9516:9546   */\n      tag_131\n      jump\t// in\n    tag_244:\n        /* \"#utility.yul\":9505:9546   */\n      swap2\n      pop\n        /* \"#utility.yul\":9695:9696   */\n      dup3\n        /* \"#utility.yul\":9686:9693   */\n      dup3\n        /* \"#utility.yul\":9682:9697   */\n      div\n        /* \"#utility.yul\":9679:9680   */\n      dup5\n        /* \"#utility.yul\":9676:9698   */\n      eq\n        /* \"#utility.yul\":9656:9657   */\n      dup4\n        /* \"#utility.yul\":9649:9658   */\n      iszero\n        /* \"#utility.yul\":9629:9712   */\n      or\n        /* \"#utility.yul\":9606:9745   */\n      tag_245\n      jumpi\n        /* \"#utility.yul\":9725:9743   */\n      tag_246\n      tag_147\n      jump\t// in\n    tag_246:\n        /* \"#utility.yul\":9606:9745   */\n    tag_245:\n        /* \"#utility.yul\":9390:9752   */\n      pop\n        /* \"#utility.yul\":9342:9752   */\n      swap3\n      swap2\n      pop\n      pop\n      jump\t// out\n        /* \"#utility.yul\":9758:9949   */\n    tag_90:\n        /* \"#utility.yul\":9798:9801   */\n      0x00\n        /* \"#utility.yul\":9817:9837   */\n      tag_248\n        /* \"#utility.yul\":9835:9836   */\n      dup3\n        /* \"#utility.yul\":9817:9837   */\n      tag_131\n      jump\t// in\n    tag_248:\n        /* \"#utility.yul\":9812:9837   */\n      swap2\n      pop\n        /* \"#utility.yul\":9851:9871   */\n      tag_249\n        /* \"#utility.yul\":9869:9870   */\n      dup4\n        /* \"#utility.yul\":9851:9871   */\n      tag_131\n      jump\t// in\n    tag_249:\n        /* \"#utility.yul\":9846:9871   */\n      swap3\n      pop\n        /* \"#utility.yul\":9894:9895   */\n      dup3\n        /* \"#utility.yul\":9891:9892   */\n      dup3\n        /* \"#utility.yul\":9887:9896   */\n      add\n        /* \"#utility.yul\":9880:9896   */\n      swap1\n      pop\n        /* \"#utility.yul\":9915:9918   */\n      dup1\n        /* \"#utility.yul\":9912:9913   */\n      dup3\n        /* \"#utility.yul\":9909:9919   */\n      gt\n        /* \"#utility.yul\":9906:9942   */\n      iszero\n      tag_250\n      jumpi\n        /* \"#utility.yul\":9922:9940   */\n      tag_251\n      tag_147\n      jump\t// in\n    tag_251:\n        /* \"#utility.yul\":9906:9942   */\n    tag_250:\n        /* \"#utility.yul\":9758:9949   */\n      swap3\n      swap2\n      pop\n      pop\n      jump\t// out\n        /* \"#utility.yul\":9955:10135   */\n    tag_148:\n        /* \"#utility.yul\":10003:10080   */\n      0x4e487b7100000000000000000000000000000000000000000000000000000000\n        /* \"#utility.yul\":10000:10001   */\n      0x00\n        /* \"#utility.yul\":9993:10081   */\n      mstore\n        /* \"#utility.yul\":10100:10104   */\n      0x12\n        /* \"#utility.yul\":10097:10098   */\n      0x04\n        /* \"#utility.yul\":10090:10105   */\n      mstore\n        /* \"#utility.yul\":10124:10128   */\n      0x24\n        /* \"#utility.yul\":10121:10122   */\n      0x00\n        /* \"#utility.yul\":10114:10129   */\n      revert\n        /* \"#utility.yul\":10141:10326   */\n    tag_119:\n        /* \"#utility.yul\":10181:10182   */\n      0x00\n        /* \"#utility.yul\":10198:10218   */\n      tag_254\n        /* \"#utility.yul\":10216:10217   */\n      dup3\n        /* \"#utility.yul\":10198:10218   */\n      tag_131\n      jump\t// in\n    tag_254:\n        /* \"#utility.yul\":10193:10218   */\n      swap2\n      pop\n        /* \"#utility.yul\":10232:10252   */\n      tag_255\n        /* \"#utility.yul\":10250:10251   */\n      dup4\n        /* \"#utility.yul\":10232:10252   */\n      tag_131\n      jump\t// in\n    tag_255:\n        /* \"#utility.yul\":10227:10252   */\n      swap3\n      pop\n        /* \"#utility.yul\":10271:10272   */\n      dup3\n        /* \"#utility.yul\":10261:10296   */\n      tag_256\n      jumpi\n        /* \"#utility.yul\":10276:10294   */\n      tag_257\n      tag_148\n      jump\t// in\n    tag_257:\n        /* \"#utility.yul\":10261:10296   */\n    tag_256:\n        /* \"#utility.yul\":10318:10319   */\n      dup3\n        /* \"#utility.yul\":10315:10316   */\n      dup3\n        /* \"#utility.yul\":10311:10320   */\n      div\n        /* \"#utility.yul\":10306:10320   */\n      swap1\n      pop\n        /* \"#utility.yul\":10141:10326   */\n      swap3\n      swap2\n      pop\n      pop\n      jump\t// out\n\n    auxdata: 0xa264697066735822122038c0b929aa49757d8b9c8f1e55508e285f3af8b593c92b4d41ea9a10f6aa7b2564736f6c63430008160033\n}\n",
				"bytecode": {
					"linkReferences": {},
					"object": "608060405234801561000f575f80fd5b503360045f6101000a81548173ffffffffffffffffffffffffffffffffffffffff021916908373ffffffffffffffffffffffffffffffffffffffff16021790555061103c8061005d5f395ff3fe60806040526004361061009b575f3560e01c8063a30f30e611610063578063a30f30e614610173578063b0da29661461019b578063bb3cc56f146101c3578063d27001db14610200578063d45e42591461023c578063e1252b3c146102785761009b565b806377bb36531461009f578063788e72a5146100c757806379054391146100e35780639892146f14610123578063a05bc3bb1461014b575b5f80fd5b3480156100aa575f80fd5b506100c560048036038101906100c09190610afd565b6102b4565b005b6100e160048036038101906100dc9190610afd565b610397565b005b3480156100ee575f80fd5b5061010960048036038101906101049190610b3b565b610574565b60405161011a959493929190610b84565b60405180910390f35b34801561012e575f80fd5b5061014960048036038101906101449190610afd565b6105a5565b005b348015610156575f80fd5b50610171600480360381019061016c9190610bd5565b610650565b005b34801561017e575f80fd5b5061019960048036038101906101949190610afd565b6107be565b005b3480156101a6575f80fd5b506101c160048036038101906101bc9190610c39565b6108a1565b005b3480156101ce575f80fd5b506101e960048036038101906101e49190610b3b565b6109b3565b6040516101f7929190610c89565b60405180910390f35b34801561020b575f80fd5b5061022660048036038101906102219190610c39565b6109d3565b6040516102339190610cb0565b60405180910390f35b348015610247575f80fd5b50610262600480360381019061025d9190610d23565b610a53565b60405161026f9190610cb0565b60405180910390f35b348015610283575f80fd5b5061029e60048036038101906102999190610afd565b610a68565b6040516102ab9190610d4e565b60405180910390f35b60045f9054906101000a900473ffffffffffffffffffffffffffffffffffffffff1673ffffffffffffffffffffffffffffffffffffffff163373ffffffffffffffffffffffffffffffffffffffff1614610343576040517f08c379a000000000000000000000000000000000000000000000000000000000815260040161033a90610de7565b60405180910390fd5b805f808481526020019081526020015f2060010181905550817f46eec4e0eeeef5830de3472bb39db7e52b1c809286dc87c4b85b20e003cc70c38260405161038b9190610cb0565b60405180910390a25050565b5f805f8481526020019081526020015f20905080600201548211156103f1576040517f08c379a00000000000000000000000000000000000000000000000000000000081526004016103e890610e4f565b60405180910390fd5b5f610401848360010154856109d3565b905080341015610446576040517f08c379a000000000000000000000000000000000000000000000000000000000815260040161043d90610eb7565b60405180910390fd5b82826002015f8282546104599190610f02565b925050819055508160030154836104709190610f35565b60015f3373ffffffffffffffffffffffffffffffffffffffff1673ffffffffffffffffffffffffffffffffffffffff1681526020019081526020015f205f8282546104bb9190610f76565b92505081905550833373ffffffffffffffffffffffffffffffffffffffff167ffe742437e0748f9939796b8d688bde65e089227741ba43d30bea034761d5ab95856040516105099190610cb0565b60405180910390a33373ffffffffffffffffffffffffffffffffffffffff167f175753914ef8c601477ea9da8b478482e8f41ba7c52ad0d1ae19da5e207fa00b8360030154856105599190610f35565b6040516105669190610cb0565b60405180910390a250505050565b5f602052805f5260405f205f91509050805f0154908060010154908060020154908060030154908060040154905085565b60045f9054906101000a900473ffffffffffffffffffffffffffffffffffffffff1673ffffffffffffffffffffffffffffffffffffffff163373ffffffffffffffffffffffffffffffffffffffff1614610634576040517f08c379a000000000000000000000000000000000000000000000000000000000815260040161062b90610de7565b60405180910390fd5b805f808481526020019081526020015f20600301819055505050565b60045f9054906101000a900473ffffffffffffffffffffffffffffffffffffffff1673ffffffffffffffffffffffffffffffffffffffff163373ffffffffffffffffffffffffffffffffffffffff16146106df576040517f08c379a00000000000000000000000000000000000000000000000000000000081526004016106d690610de7565b60405180910390fd5b6040518060a001604052808581526020018481526020018381526020015f8152602001828152505f808681526020019081526020015f205f820151815f01556020820151816001015560408201518160020155606082015181600301556080820151816004015590505060035f8281526020019081526020015f2084908060018154018082558091505060019003905f5260205f20015f9091909190915055837f4ede9ae24fbaaf3395a740f088c97fc5be0b6bf81af4d733bf754eaf3ff6d64e84846040516107b0929190610c89565b60405180910390a250505050565b60045f9054906101000a900473ffffffffffffffffffffffffffffffffffffffff1673ffffffffffffffffffffffffffffffffffffffff163373ffffffffffffffffffffffffffffffffffffffff161461084d576040517f08c379a000000000000000000000000000000000000000000000000000000000815260040161084490610de7565b60405180910390fd5b805f808481526020019081526020015f2060020181905550817f1dc600a0de973fe7a0046fa7d61b75642a4f0aea5f07b7b8710f4723d0878f8a826040516108959190610cb0565b60405180910390a25050565b60045f9054906101000a900473ffffffffffffffffffffffffffffffffffffffff1673ffffffffffffffffffffffffffffffffffffffff163373ffffffffffffffffffffffffffffffffffffffff1614610930576040517f08c379a000000000000000000000000000000000000000000000000000000000815260040161092790610de7565b60405180910390fd5b6040518060400160405280838152602001824261094d9190610f76565b81525060025f8581526020019081526020015f205f820151815f015560208201518160010155905050827f91c8d4a3c694e88685a2fedb6db9444cd0c838c05dc799a03022fda0afdf345e836040516109a69190610cb0565b60405180910390a2505050565b6002602052805f5260405f205f91509050805f0154908060010154905082565b5f4260025f8681526020019081526020015f20600101541115610a3d575f606460025f8781526020019081526020015f205f015485610a129190610f35565b610a1c9190610fd6565b9050828185610a2b9190610f02565b610a359190610f35565b915050610a4c565b8183610a499190610f35565b90505b9392505050565b6001602052805f5260405f205f915090505481565b6003602052815f5260405f208181548110610a81575f80fd5b905f5260205f20015f91509150505481565b5f80fd5b5f819050919050565b610aa981610a97565b8114610ab3575f80fd5b50565b5f81359050610ac481610aa0565b92915050565b5f819050919050565b610adc81610aca565b8114610ae6575f80fd5b50565b5f81359050610af781610ad3565b92915050565b5f8060408385031215610b1357610b12610a93565b5b5f610b2085828601610ab6565b9250506020610b3185828601610ae9565b9150509250929050565b5f60208284031215610b5057610b4f610a93565b5b5f610b5d84828501610ab6565b91505092915050565b610b6f81610a97565b82525050565b610b7e81610aca565b82525050565b5f60a082019050610b975f830188610b66565b610ba46020830187610b75565b610bb16040830186610b75565b610bbe6060830185610b75565b610bcb6080830184610b66565b9695505050505050565b5f805f8060808587031215610bed57610bec610a93565b5b5f610bfa87828801610ab6565b9450506020610c0b87828801610ae9565b9350506040610c1c87828801610ae9565b9250506060610c2d87828801610ab6565b91505092959194509250565b5f805f60608486031215610c5057610c4f610a93565b5b5f610c5d86828701610ab6565b9350506020610c6e86828701610ae9565b9250506040610c7f86828701610ae9565b9150509250925092565b5f604082019050610c9c5f830185610b75565b610ca96020830184610b75565b9392505050565b5f602082019050610cc35f830184610b75565b92915050565b5f73ffffffffffffffffffffffffffffffffffffffff82169050919050565b5f610cf282610cc9565b9050919050565b610d0281610ce8565b8114610d0c575f80fd5b50565b5f81359050610d1d81610cf9565b92915050565b5f60208284031215610d3857610d37610a93565b5b5f610d4584828501610d0f565b91505092915050565b5f602082019050610d615f830184610b66565b92915050565b5f82825260208201905092915050565b7f4f6e6c7920746865206f776e65722063616e2063616c6c20746869732066756e5f8201527f6374696f6e2e0000000000000000000000000000000000000000000000000000602082015250565b5f610dd1602683610d67565b9150610ddc82610d77565b604082019050919050565b5f6020820190508181035f830152610dfe81610dc5565b9050919050565b7f4e6f7420656e6f7567682073746f636b2e0000000000000000000000000000005f82015250565b5f610e39601183610d67565b9150610e4482610e05565b602082019050919050565b5f6020820190508181035f830152610e6681610e2d565b9050919050565b7f496e73756666696369656e742066756e64732e000000000000000000000000005f82015250565b5f610ea1601383610d67565b9150610eac82610e6d565b602082019050919050565b5f6020820190508181035f830152610ece81610e95565b9050919050565b7f4e487b71000000000000000000000000000000000000000000000000000000005f52601160045260245ffd5b5f610f0c82610aca565b9150610f1783610aca565b9250828203905081811115610f2f57610f2e610ed5565b5b92915050565b5f610f3f82610aca565b9150610f4a83610aca565b9250828202610f5881610aca565b91508282048414831517610f6f57610f6e610ed5565b5b5092915050565b5f610f8082610aca565b9150610f8b83610aca565b9250828201905080821115610fa357610fa2610ed5565b5b92915050565b7f4e487b71000000000000000000000000000000000000000000000000000000005f52601260045260245ffd5b5f610fe082610aca565b9150610feb83610aca565b925082610ffb57610ffa610fa9565b5b82820490509291505056fea264697066735822122038c0b929aa49757d8b9c8f1e55508e285f3af8b593c92b4d41ea9a10f6aa7b2564736f6c63430008160033",
					"opcodes": "PUSH1 0x80 PUSH1 0x40 MSTORE CALLVALUE DUP1 ISZERO PUSH2 0xF JUMPI PUSH0 DUP1 REVERT JUMPDEST POP CALLER PUSH1 0x4 PUSH0 PUSH2 0x100 EXP DUP2 SLOAD DUP2 PUSH20 0xFFFFFFFFFFFFFFFFFFFFFFFFFFFFFFFFFFFFFFFF MUL NOT AND SWAP1 DUP4 PUSH20 0xFFFFFFFFFFFFFFFFFFFFFFFFFFFFFFFFFFFFFFFF AND MUL OR SWAP1 SSTORE POP PUSH2 0x103C DUP1 PUSH2 0x5D PUSH0 CODECOPY PUSH0 RETURN INVALID PUSH1 0x80 PUSH1 0x40 MSTORE PUSH1 0x4 CALLDATASIZE LT PUSH2 0x9B JUMPI PUSH0 CALLDATALOAD PUSH1 0xE0 SHR DUP1 PUSH4 0xA30F30E6 GT PUSH2 0x63 JUMPI DUP1 PUSH4 0xA30F30E6 EQ PUSH2 0x173 JUMPI DUP1 PUSH4 0xB0DA2966 EQ PUSH2 0x19B JUMPI DUP1 PUSH4 0xBB3CC56F EQ PUSH2 0x1C3 JUMPI DUP1 PUSH4 0xD27001DB EQ PUSH2 0x200 JUMPI DUP1 PUSH4 0xD45E4259 EQ PUSH2 0x23C JUMPI DUP1 PUSH4 0xE1252B3C EQ PUSH2 0x278 JUMPI PUSH2 0x9B JUMP JUMPDEST DUP1 PUSH4 0x77BB3653 EQ PUSH2 0x9F JUMPI DUP1 PUSH4 0x788E72A5 EQ PUSH2 0xC7 JUMPI DUP1 PUSH4 0x79054391 EQ PUSH2 0xE3 JUMPI DUP1 PUSH4 0x9892146F EQ PUSH2 0x123 JUMPI DUP1 PUSH4 0xA05BC3BB EQ PUSH2 0x14B JUMPI JUMPDEST PUSH0 DUP1 REVERT JUMPDEST CALLVALUE DUP1 ISZERO PUSH2 0xAA JUMPI PUSH0 DUP1 REVERT JUMPDEST POP PUSH2 0xC5 PUSH1 0x4 DUP1 CALLDATASIZE SUB DUP2 ADD SWAP1 PUSH2 0xC0 SWAP2 SWAP1 PUSH2 0xAFD JUMP JUMPDEST PUSH2 0x2B4 JUMP JUMPDEST STOP JUMPDEST PUSH2 0xE1 PUSH1 0x4 DUP1 CALLDATASIZE SUB DUP2 ADD SWAP1 PUSH2 0xDC SWAP2 SWAP1 PUSH2 0xAFD JUMP JUMPDEST PUSH2 0x397 JUMP JUMPDEST STOP JUMPDEST CALLVALUE DUP1 ISZERO PUSH2 0xEE JUMPI PUSH0 DUP1 REVERT JUMPDEST POP PUSH2 0x109 PUSH1 0x4 DUP1 CALLDATASIZE SUB DUP2 ADD SWAP1 PUSH2 0x104 SWAP2 SWAP1 PUSH2 0xB3B JUMP JUMPDEST PUSH2 0x574 JUMP JUMPDEST PUSH1 0x40 MLOAD PUSH2 0x11A SWAP6 SWAP5 SWAP4 SWAP3 SWAP2 SWAP1 PUSH2 0xB84 JUMP JUMPDEST PUSH1 0x40 MLOAD DUP1 SWAP2 SUB SWAP1 RETURN JUMPDEST CALLVALUE DUP1 ISZERO PUSH2 0x12E JUMPI PUSH0 DUP1 REVERT JUMPDEST POP PUSH2 0x149 PUSH1 0x4 DUP1 CALLDATASIZE SUB DUP2 ADD SWAP1 PUSH2 0x144 SWAP2 SWAP1 PUSH2 0xAFD JUMP JUMPDEST PUSH2 0x5A5 JUMP JUMPDEST STOP JUMPDEST CALLVALUE DUP1 ISZERO PUSH2 0x156 JUMPI PUSH0 DUP1 REVERT JUMPDEST POP PUSH2 0x171 PUSH1 0x4 DUP1 CALLDATASIZE SUB DUP2 ADD SWAP1 PUSH2 0x16C SWAP2 SWAP1 PUSH2 0xBD5 JUMP JUMPDEST PUSH2 0x650 JUMP JUMPDEST STOP JUMPDEST CALLVALUE DUP1 ISZERO PUSH2 0x17E JUMPI PUSH0 DUP1 REVERT JUMPDEST POP PUSH2 0x199 PUSH1 0x4 DUP1 CALLDATASIZE SUB DUP2 ADD SWAP1 PUSH2 0x194 SWAP2 SWAP1 PUSH2 0xAFD JUMP JUMPDEST PUSH2 0x7BE JUMP JUMPDEST STOP JUMPDEST CALLVALUE DUP1 ISZERO PUSH2 0x1A6 JUMPI PUSH0 DUP1 REVERT JUMPDEST POP PUSH2 0x1C1 PUSH1 0x4 DUP1 CALLDATASIZE SUB DUP2 ADD SWAP1 PUSH2 0x1BC SWAP2 SWAP1 PUSH2 0xC39 JUMP JUMPDEST PUSH2 0x8A1 JUMP JUMPDEST STOP JUMPDEST CALLVALUE DUP1 ISZERO PUSH2 0x1CE JUMPI PUSH0 DUP1 REVERT JUMPDEST POP PUSH2 0x1E9 PUSH1 0x4 DUP1 CALLDATASIZE SUB DUP2 ADD SWAP1 PUSH2 0x1E4 SWAP2 SWAP1 PUSH2 0xB3B JUMP JUMPDEST PUSH2 0x9B3 JUMP JUMPDEST PUSH1 0x40 MLOAD PUSH2 0x1F7 SWAP3 SWAP2 SWAP1 PUSH2 0xC89 JUMP JUMPDEST PUSH1 0x40 MLOAD DUP1 SWAP2 SUB SWAP1 RETURN JUMPDEST CALLVALUE DUP1 ISZERO PUSH2 0x20B JUMPI PUSH0 DUP1 REVERT JUMPDEST POP PUSH2 0x226 PUSH1 0x4 DUP1 CALLDATASIZE SUB DUP2 ADD SWAP1 PUSH2 0x221 SWAP2 SWAP1 PUSH2 0xC39 JUMP JUMPDEST PUSH2 0x9D3 JUMP JUMPDEST PUSH1 0x40 MLOAD PUSH2 0x233 SWAP2 SWAP1 PUSH2 0xCB0 JUMP JUMPDEST PUSH1 0x40 MLOAD DUP1 SWAP2 SUB SWAP1 RETURN JUMPDEST CALLVALUE DUP1 ISZERO PUSH2 0x247 JUMPI PUSH0 DUP1 REVERT JUMPDEST POP PUSH2 0x262 PUSH1 0x4 DUP1 CALLDATASIZE SUB DUP2 ADD SWAP1 PUSH2 0x25D SWAP2 SWAP1 PUSH2 0xD23 JUMP JUMPDEST PUSH2 0xA53 JUMP JUMPDEST PUSH1 0x40 MLOAD PUSH2 0x26F SWAP2 SWAP1 PUSH2 0xCB0 JUMP JUMPDEST PUSH1 0x40 MLOAD DUP1 SWAP2 SUB SWAP1 RETURN JUMPDEST CALLVALUE DUP1 ISZERO PUSH2 0x283 JUMPI PUSH0 DUP1 REVERT JUMPDEST POP PUSH2 0x29E PUSH1 0x4 DUP1 CALLDATASIZE SUB DUP2 ADD SWAP1 PUSH2 0x299 SWAP2 SWAP1 PUSH2 0xAFD JUMP JUMPDEST PUSH2 0xA68 JUMP JUMPDEST PUSH1 0x40 MLOAD PUSH2 0x2AB SWAP2 SWAP1 PUSH2 0xD4E JUMP JUMPDEST PUSH1 0x40 MLOAD DUP1 SWAP2 SUB SWAP1 RETURN JUMPDEST PUSH1 0x4 PUSH0 SWAP1 SLOAD SWAP1 PUSH2 0x100 EXP SWAP1 DIV PUSH20 0xFFFFFFFFFFFFFFFFFFFFFFFFFFFFFFFFFFFFFFFF AND PUSH20 0xFFFFFFFFFFFFFFFFFFFFFFFFFFFFFFFFFFFFFFFF AND CALLER PUSH20 0xFFFFFFFFFFFFFFFFFFFFFFFFFFFFFFFFFFFFFFFF AND EQ PUSH2 0x343 JUMPI PUSH1 0x40 MLOAD PUSH32 0x8C379A000000000000000000000000000000000000000000000000000000000 DUP2 MSTORE PUSH1 0x4 ADD PUSH2 0x33A SWAP1 PUSH2 0xDE7 JUMP JUMPDEST PUSH1 0x40 MLOAD DUP1 SWAP2 SUB SWAP1 REVERT JUMPDEST DUP1 PUSH0 DUP1 DUP5 DUP2 MSTORE PUSH1 0x20 ADD SWAP1 DUP2 MSTORE PUSH1 0x20 ADD PUSH0 KECCAK256 PUSH1 0x1 ADD DUP2 SWAP1 SSTORE POP DUP2 PUSH32 0x46EEC4E0EEEEF5830DE3472BB39DB7E52B1C809286DC87C4B85B20E003CC70C3 DUP3 PUSH1 0x40 MLOAD PUSH2 0x38B SWAP2 SWAP1 PUSH2 0xCB0 JUMP JUMPDEST PUSH1 0x40 MLOAD DUP1 SWAP2 SUB SWAP1 LOG2 POP POP JUMP JUMPDEST PUSH0 DUP1 PUSH0 DUP5 DUP2 MSTORE PUSH1 0x20 ADD SWAP1 DUP2 MSTORE PUSH1 0x20 ADD PUSH0 KECCAK256 SWAP1 POP DUP1 PUSH1 0x2 ADD SLOAD DUP3 GT ISZERO PUSH2 0x3F1 JUMPI PUSH1 0x40 MLOAD PUSH32 0x8C379A000000000000000000000000000000000000000000000000000000000 DUP2 MSTORE PUSH1 0x4 ADD PUSH2 0x3E8 SWAP1 PUSH2 0xE4F JUMP JUMPDEST PUSH1 0x40 MLOAD DUP1 SWAP2 SUB SWAP1 REVERT JUMPDEST PUSH0 PUSH2 0x401 DUP5 DUP4 PUSH1 0x1 ADD SLOAD DUP6 PUSH2 0x9D3 JUMP JUMPDEST SWAP1 POP DUP1 CALLVALUE LT ISZERO PUSH2 0x446 JUMPI PUSH1 0x40 MLOAD PUSH32 0x8C379A000000000000000000000000000000000000000000000000000000000 DUP2 MSTORE PUSH1 0x4 ADD PUSH2 0x43D SWAP1 PUSH2 0xEB7 JUMP JUMPDEST PUSH1 0x40 MLOAD DUP1 SWAP2 SUB SWAP1 REVERT JUMPDEST DUP3 DUP3 PUSH1 0x2 ADD PUSH0 DUP3 DUP3 SLOAD PUSH2 0x459 SWAP2 SWAP1 PUSH2 0xF02 JUMP JUMPDEST SWAP3 POP POP DUP2 SWAP1 SSTORE POP DUP2 PUSH1 0x3 ADD SLOAD DUP4 PUSH2 0x470 SWAP2 SWAP1 PUSH2 0xF35 JUMP JUMPDEST PUSH1 0x1 PUSH0 CALLER PUSH20 0xFFFFFFFFFFFFFFFFFFFFFFFFFFFFFFFFFFFFFFFF AND PUSH20 0xFFFFFFFFFFFFFFFFFFFFFFFFFFFFFFFFFFFFFFFF AND DUP2 MSTORE PUSH1 0x20 ADD SWAP1 DUP2 MSTORE PUSH1 0x20 ADD PUSH0 KECCAK256 PUSH0 DUP3 DUP3 SLOAD PUSH2 0x4BB SWAP2 SWAP1 PUSH2 0xF76 JUMP JUMPDEST SWAP3 POP POP DUP2 SWAP1 SSTORE POP DUP4 CALLER PUSH20 0xFFFFFFFFFFFFFFFFFFFFFFFFFFFFFFFFFFFFFFFF AND PUSH32 0xFE742437E0748F9939796B8D688BDE65E089227741BA43D30BEA034761D5AB95 DUP6 PUSH1 0x40 MLOAD PUSH2 0x509 SWAP2 SWAP1 PUSH2 0xCB0 JUMP JUMPDEST PUSH1 0x40 MLOAD DUP1 SWAP2 SUB SWAP1 LOG3 CALLER PUSH20 0xFFFFFFFFFFFFFFFFFFFFFFFFFFFFFFFFFFFFFFFF AND PUSH32 0x175753914EF8C601477EA9DA8B478482E8F41BA7C52AD0D1AE19DA5E207FA00B DUP4 PUSH1 0x3 ADD SLOAD DUP6 PUSH2 0x559 SWAP2 SWAP1 PUSH2 0xF35 JUMP JUMPDEST PUSH1 0x40 MLOAD PUSH2 0x566 SWAP2 SWAP1 PUSH2 0xCB0 JUMP JUMPDEST PUSH1 0x40 MLOAD DUP1 SWAP2 SUB SWAP1 LOG2 POP POP POP POP JUMP JUMPDEST PUSH0 PUSH1 0x20 MSTORE DUP1 PUSH0 MSTORE PUSH1 0x40 PUSH0 KECCAK256 PUSH0 SWAP2 POP SWAP1 POP DUP1 PUSH0 ADD SLOAD SWAP1 DUP1 PUSH1 0x1 ADD SLOAD SWAP1 DUP1 PUSH1 0x2 ADD SLOAD SWAP1 DUP1 PUSH1 0x3 ADD SLOAD SWAP1 DUP1 PUSH1 0x4 ADD SLOAD SWAP1 POP DUP6 JUMP JUMPDEST PUSH1 0x4 PUSH0 SWAP1 SLOAD SWAP1 PUSH2 0x100 EXP SWAP1 DIV PUSH20 0xFFFFFFFFFFFFFFFFFFFFFFFFFFFFFFFFFFFFFFFF AND PUSH20 0xFFFFFFFFFFFFFFFFFFFFFFFFFFFFFFFFFFFFFFFF AND CALLER PUSH20 0xFFFFFFFFFFFFFFFFFFFFFFFFFFFFFFFFFFFFFFFF AND EQ PUSH2 0x634 JUMPI PUSH1 0x40 MLOAD PUSH32 0x8C379A000000000000000000000000000000000000000000000000000000000 DUP2 MSTORE PUSH1 0x4 ADD PUSH2 0x62B SWAP1 PUSH2 0xDE7 JUMP JUMPDEST PUSH1 0x40 MLOAD DUP1 SWAP2 SUB SWAP1 REVERT JUMPDEST DUP1 PUSH0 DUP1 DUP5 DUP2 MSTORE PUSH1 0x20 ADD SWAP1 DUP2 MSTORE PUSH1 0x20 ADD PUSH0 KECCAK256 PUSH1 0x3 ADD DUP2 SWAP1 SSTORE POP POP POP JUMP JUMPDEST PUSH1 0x4 PUSH0 SWAP1 SLOAD SWAP1 PUSH2 0x100 EXP SWAP1 DIV PUSH20 0xFFFFFFFFFFFFFFFFFFFFFFFFFFFFFFFFFFFFFFFF AND PUSH20 0xFFFFFFFFFFFFFFFFFFFFFFFFFFFFFFFFFFFFFFFF AND CALLER PUSH20 0xFFFFFFFFFFFFFFFFFFFFFFFFFFFFFFFFFFFFFFFF AND EQ PUSH2 0x6DF JUMPI PUSH1 0x40 MLOAD PUSH32 0x8C379A000000000000000000000000000000000000000000000000000000000 DUP2 MSTORE PUSH1 0x4 ADD PUSH2 0x6D6 SWAP1 PUSH2 0xDE7 JUMP JUMPDEST PUSH1 0x40 MLOAD DUP1 SWAP2 SUB SWAP1 REVERT JUMPDEST PUSH1 0x40 MLOAD DUP1 PUSH1 0xA0 ADD PUSH1 0x40 MSTORE DUP1 DUP6 DUP2 MSTORE PUSH1 0x20 ADD DUP5 DUP2 MSTORE PUSH1 0x20 ADD DUP4 DUP2 MSTORE PUSH1 0x20 ADD PUSH0 DUP2 MSTORE PUSH1 0x20 ADD DUP3 DUP2 MSTORE POP PUSH0 DUP1 DUP7 DUP2 MSTORE PUSH1 0x20 ADD SWAP1 DUP2 MSTORE PUSH1 0x20 ADD PUSH0 KECCAK256 PUSH0 DUP3 ADD MLOAD DUP2 PUSH0 ADD SSTORE PUSH1 0x20 DUP3 ADD MLOAD DUP2 PUSH1 0x1 ADD SSTORE PUSH1 0x40 DUP3 ADD MLOAD DUP2 PUSH1 0x2 ADD SSTORE PUSH1 0x60 DUP3 ADD MLOAD DUP2 PUSH1 0x3 ADD SSTORE PUSH1 0x80 DUP3 ADD MLOAD DUP2 PUSH1 0x4 ADD SSTORE SWAP1 POP POP PUSH1 0x3 PUSH0 DUP3 DUP2 MSTORE PUSH1 0x20 ADD SWAP1 DUP2 MSTORE PUSH1 0x20 ADD PUSH0 KECCAK256 DUP5 SWAP1 DUP1 PUSH1 0x1 DUP2 SLOAD ADD DUP1 DUP3 SSTORE DUP1 SWAP2 POP POP PUSH1 0x1 SWAP1 SUB SWAP1 PUSH0 MSTORE PUSH1 0x20 PUSH0 KECCAK256 ADD PUSH0 SWAP1 SWAP2 SWAP1 SWAP2 SWAP1 SWAP2 POP SSTORE DUP4 PUSH32 0x4EDE9AE24FBAAF3395A740F088C97FC5BE0B6BF81AF4D733BF754EAF3FF6D64E DUP5 DUP5 PUSH1 0x40 MLOAD PUSH2 0x7B0 SWAP3 SWAP2 SWAP1 PUSH2 0xC89 JUMP JUMPDEST PUSH1 0x40 MLOAD DUP1 SWAP2 SUB SWAP1 LOG2 POP POP POP POP JUMP JUMPDEST PUSH1 0x4 PUSH0 SWAP1 SLOAD SWAP1 PUSH2 0x100 EXP SWAP1 DIV PUSH20 0xFFFFFFFFFFFFFFFFFFFFFFFFFFFFFFFFFFFFFFFF AND PUSH20 0xFFFFFFFFFFFFFFFFFFFFFFFFFFFFFFFFFFFFFFFF AND CALLER PUSH20 0xFFFFFFFFFFFFFFFFFFFFFFFFFFFFFFFFFFFFFFFF AND EQ PUSH2 0x84D JUMPI PUSH1 0x40 MLOAD PUSH32 0x8C379A000000000000000000000000000000000000000000000000000000000 DUP2 MSTORE PUSH1 0x4 ADD PUSH2 0x844 SWAP1 PUSH2 0xDE7 JUMP JUMPDEST PUSH1 0x40 MLOAD DUP1 SWAP2 SUB SWAP1 REVERT JUMPDEST DUP1 PUSH0 DUP1 DUP5 DUP2 MSTORE PUSH1 0x20 ADD SWAP1 DUP2 MSTORE PUSH1 0x20 ADD PUSH0 KECCAK256 PUSH1 0x2 ADD DUP2 SWAP1 SSTORE POP DUP2 PUSH32 0x1DC600A0DE973FE7A0046FA7D61B75642A4F0AEA5F07B7B8710F4723D0878F8A DUP3 PUSH1 0x40 MLOAD PUSH2 0x895 SWAP2 SWAP1 PUSH2 0xCB0 JUMP JUMPDEST PUSH1 0x40 MLOAD DUP1 SWAP2 SUB SWAP1 LOG2 POP POP JUMP JUMPDEST PUSH1 0x4 PUSH0 SWAP1 SLOAD SWAP1 PUSH2 0x100 EXP SWAP1 DIV PUSH20 0xFFFFFFFFFFFFFFFFFFFFFFFFFFFFFFFFFFFFFFFF AND PUSH20 0xFFFFFFFFFFFFFFFFFFFFFFFFFFFFFFFFFFFFFFFF AND CALLER PUSH20 0xFFFFFFFFFFFFFFFFFFFFFFFFFFFFFFFFFFFFFFFF AND EQ PUSH2 0x930 JUMPI PUSH1 0x40 MLOAD PUSH32 0x8C379A000000000000000000000000000000000000000000000000000000000 DUP2 MSTORE PUSH1 0x4 ADD PUSH2 0x927 SWAP1 PUSH2 0xDE7 JUMP JUMPDEST PUSH1 0x40 MLOAD DUP1 SWAP2 SUB SWAP1 REVERT JUMPDEST PUSH1 0x40 MLOAD DUP1 PUSH1 0x40 ADD PUSH1 0x40 MSTORE DUP1 DUP4 DUP2 MSTORE PUSH1 0x20 ADD DUP3 TIMESTAMP PUSH2 0x94D SWAP2 SWAP1 PUSH2 0xF76 JUMP JUMPDEST DUP2 MSTORE POP PUSH1 0x2 PUSH0 DUP6 DUP2 MSTORE PUSH1 0x20 ADD SWAP1 DUP2 MSTORE PUSH1 0x20 ADD PUSH0 KECCAK256 PUSH0 DUP3 ADD MLOAD DUP2 PUSH0 ADD SSTORE PUSH1 0x20 DUP3 ADD MLOAD DUP2 PUSH1 0x1 ADD SSTORE SWAP1 POP POP DUP3 PUSH32 0x91C8D4A3C694E88685A2FEDB6DB9444CD0C838C05DC799A03022FDA0AFDF345E DUP4 PUSH1 0x40 MLOAD PUSH2 0x9A6 SWAP2 SWAP1 PUSH2 0xCB0 JUMP JUMPDEST PUSH1 0x40 MLOAD DUP1 SWAP2 SUB SWAP1 LOG2 POP POP POP JUMP JUMPDEST PUSH1 0x2 PUSH1 0x20 MSTORE DUP1 PUSH0 MSTORE PUSH1 0x40 PUSH0 KECCAK256 PUSH0 SWAP2 POP SWAP1 POP DUP1 PUSH0 ADD SLOAD SWAP1 DUP1 PUSH1 0x1 ADD SLOAD SWAP1 POP DUP3 JUMP JUMPDEST PUSH0 TIMESTAMP PUSH1 0x2 PUSH0 DUP7 DUP2 MSTORE PUSH1 0x20 ADD SWAP1 DUP2 MSTORE PUSH1 0x20 ADD PUSH0 KECCAK256 PUSH1 0x1 ADD SLOAD GT ISZERO PUSH2 0xA3D JUMPI PUSH0 PUSH1 0x64 PUSH1 0x2 PUSH0 DUP8 DUP2 MSTORE PUSH1 0x20 ADD SWAP1 DUP2 MSTORE PUSH1 0x20 ADD PUSH0 KECCAK256 PUSH0 ADD SLOAD DUP6 PUSH2 0xA12 SWAP2 SWAP1 PUSH2 0xF35 JUMP JUMPDEST PUSH2 0xA1C SWAP2 SWAP1 PUSH2 0xFD6 JUMP JUMPDEST SWAP1 POP DUP3 DUP2 DUP6 PUSH2 0xA2B SWAP2 SWAP1 PUSH2 0xF02 JUMP JUMPDEST PUSH2 0xA35 SWAP2 SWAP1 PUSH2 0xF35 JUMP JUMPDEST SWAP2 POP POP PUSH2 0xA4C JUMP JUMPDEST DUP2 DUP4 PUSH2 0xA49 SWAP2 SWAP1 PUSH2 0xF35 JUMP JUMPDEST SWAP1 POP JUMPDEST SWAP4 SWAP3 POP POP POP JUMP JUMPDEST PUSH1 0x1 PUSH1 0x20 MSTORE DUP1 PUSH0 MSTORE PUSH1 0x40 PUSH0 KECCAK256 PUSH0 SWAP2 POP SWAP1 POP SLOAD DUP2 JUMP JUMPDEST PUSH1 0x3 PUSH1 0x20 MSTORE DUP2 PUSH0 MSTORE PUSH1 0x40 PUSH0 KECCAK256 DUP2 DUP2 SLOAD DUP2 LT PUSH2 0xA81 JUMPI PUSH0 DUP1 REVERT JUMPDEST SWAP1 PUSH0 MSTORE PUSH1 0x20 PUSH0 KECCAK256 ADD PUSH0 SWAP2 POP SWAP2 POP POP SLOAD DUP2 JUMP JUMPDEST PUSH0 DUP1 REVERT JUMPDEST PUSH0 DUP2 SWAP1 POP SWAP2 SWAP1 POP JUMP JUMPDEST PUSH2 0xAA9 DUP2 PUSH2 0xA97 JUMP JUMPDEST DUP2 EQ PUSH2 0xAB3 JUMPI PUSH0 DUP1 REVERT JUMPDEST POP JUMP JUMPDEST PUSH0 DUP2 CALLDATALOAD SWAP1 POP PUSH2 0xAC4 DUP2 PUSH2 0xAA0 JUMP JUMPDEST SWAP3 SWAP2 POP POP JUMP JUMPDEST PUSH0 DUP2 SWAP1 POP SWAP2 SWAP1 POP JUMP JUMPDEST PUSH2 0xADC DUP2 PUSH2 0xACA JUMP JUMPDEST DUP2 EQ PUSH2 0xAE6 JUMPI PUSH0 DUP1 REVERT JUMPDEST POP JUMP JUMPDEST PUSH0 DUP2 CALLDATALOAD SWAP1 POP PUSH2 0xAF7 DUP2 PUSH2 0xAD3 JUMP JUMPDEST SWAP3 SWAP2 POP POP JUMP JUMPDEST PUSH0 DUP1 PUSH1 0x40 DUP4 DUP6 SUB SLT ISZERO PUSH2 0xB13 JUMPI PUSH2 0xB12 PUSH2 0xA93 JUMP JUMPDEST JUMPDEST PUSH0 PUSH2 0xB20 DUP6 DUP3 DUP7 ADD PUSH2 0xAB6 JUMP JUMPDEST SWAP3 POP POP PUSH1 0x20 PUSH2 0xB31 DUP6 DUP3 DUP7 ADD PUSH2 0xAE9 JUMP JUMPDEST SWAP2 POP POP SWAP3 POP SWAP3 SWAP1 POP JUMP JUMPDEST PUSH0 PUSH1 0x20 DUP3 DUP5 SUB SLT ISZERO PUSH2 0xB50 JUMPI PUSH2 0xB4F PUSH2 0xA93 JUMP JUMPDEST JUMPDEST PUSH0 PUSH2 0xB5D DUP5 DUP3 DUP6 ADD PUSH2 0xAB6 JUMP JUMPDEST SWAP2 POP POP SWAP3 SWAP2 POP POP JUMP JUMPDEST PUSH2 0xB6F DUP2 PUSH2 0xA97 JUMP JUMPDEST DUP3 MSTORE POP POP JUMP JUMPDEST PUSH2 0xB7E DUP2 PUSH2 0xACA JUMP JUMPDEST DUP3 MSTORE POP POP JUMP JUMPDEST PUSH0 PUSH1 0xA0 DUP3 ADD SWAP1 POP PUSH2 0xB97 PUSH0 DUP4 ADD DUP9 PUSH2 0xB66 JUMP JUMPDEST PUSH2 0xBA4 PUSH1 0x20 DUP4 ADD DUP8 PUSH2 0xB75 JUMP JUMPDEST PUSH2 0xBB1 PUSH1 0x40 DUP4 ADD DUP7 PUSH2 0xB75 JUMP JUMPDEST PUSH2 0xBBE PUSH1 0x60 DUP4 ADD DUP6 PUSH2 0xB75 JUMP JUMPDEST PUSH2 0xBCB PUSH1 0x80 DUP4 ADD DUP5 PUSH2 0xB66 JUMP JUMPDEST SWAP7 SWAP6 POP POP POP POP POP POP JUMP JUMPDEST PUSH0 DUP1 PUSH0 DUP1 PUSH1 0x80 DUP6 DUP8 SUB SLT ISZERO PUSH2 0xBED JUMPI PUSH2 0xBEC PUSH2 0xA93 JUMP JUMPDEST JUMPDEST PUSH0 PUSH2 0xBFA DUP8 DUP3 DUP9 ADD PUSH2 0xAB6 JUMP JUMPDEST SWAP5 POP POP PUSH1 0x20 PUSH2 0xC0B DUP8 DUP3 DUP9 ADD PUSH2 0xAE9 JUMP JUMPDEST SWAP4 POP POP PUSH1 0x40 PUSH2 0xC1C DUP8 DUP3 DUP9 ADD PUSH2 0xAE9 JUMP JUMPDEST SWAP3 POP POP PUSH1 0x60 PUSH2 0xC2D DUP8 DUP3 DUP9 ADD PUSH2 0xAB6 JUMP JUMPDEST SWAP2 POP POP SWAP3 SWAP6 SWAP2 SWAP5 POP SWAP3 POP JUMP JUMPDEST PUSH0 DUP1 PUSH0 PUSH1 0x60 DUP5 DUP7 SUB SLT ISZERO PUSH2 0xC50 JUMPI PUSH2 0xC4F PUSH2 0xA93 JUMP JUMPDEST JUMPDEST PUSH0 PUSH2 0xC5D DUP7 DUP3 DUP8 ADD PUSH2 0xAB6 JUMP JUMPDEST SWAP4 POP POP PUSH1 0x20 PUSH2 0xC6E DUP7 DUP3 DUP8 ADD PUSH2 0xAE9 JUMP JUMPDEST SWAP3 POP POP PUSH1 0x40 PUSH2 0xC7F DUP7 DUP3 DUP8 ADD PUSH2 0xAE9 JUMP JUMPDEST SWAP2 POP POP SWAP3 POP SWAP3 POP SWAP3 JUMP JUMPDEST PUSH0 PUSH1 0x40 DUP3 ADD SWAP1 POP PUSH2 0xC9C PUSH0 DUP4 ADD DUP6 PUSH2 0xB75 JUMP JUMPDEST PUSH2 0xCA9 PUSH1 0x20 DUP4 ADD DUP5 PUSH2 0xB75 JUMP JUMPDEST SWAP4 SWAP3 POP POP POP JUMP JUMPDEST PUSH0 PUSH1 0x20 DUP3 ADD SWAP1 POP PUSH2 0xCC3 PUSH0 DUP4 ADD DUP5 PUSH2 0xB75 JUMP JUMPDEST SWAP3 SWAP2 POP POP JUMP JUMPDEST PUSH0 PUSH20 0xFFFFFFFFFFFFFFFFFFFFFFFFFFFFFFFFFFFFFFFF DUP3 AND SWAP1 POP SWAP2 SWAP1 POP JUMP JUMPDEST PUSH0 PUSH2 0xCF2 DUP3 PUSH2 0xCC9 JUMP JUMPDEST SWAP1 POP SWAP2 SWAP1 POP JUMP JUMPDEST PUSH2 0xD02 DUP2 PUSH2 0xCE8 JUMP JUMPDEST DUP2 EQ PUSH2 0xD0C JUMPI PUSH0 DUP1 REVERT JUMPDEST POP JUMP JUMPDEST PUSH0 DUP2 CALLDATALOAD SWAP1 POP PUSH2 0xD1D DUP2 PUSH2 0xCF9 JUMP JUMPDEST SWAP3 SWAP2 POP POP JUMP JUMPDEST PUSH0 PUSH1 0x20 DUP3 DUP5 SUB SLT ISZERO PUSH2 0xD38 JUMPI PUSH2 0xD37 PUSH2 0xA93 JUMP JUMPDEST JUMPDEST PUSH0 PUSH2 0xD45 DUP5 DUP3 DUP6 ADD PUSH2 0xD0F JUMP JUMPDEST SWAP2 POP POP SWAP3 SWAP2 POP POP JUMP JUMPDEST PUSH0 PUSH1 0x20 DUP3 ADD SWAP1 POP PUSH2 0xD61 PUSH0 DUP4 ADD DUP5 PUSH2 0xB66 JUMP JUMPDEST SWAP3 SWAP2 POP POP JUMP JUMPDEST PUSH0 DUP3 DUP3 MSTORE PUSH1 0x20 DUP3 ADD SWAP1 POP SWAP3 SWAP2 POP POP JUMP JUMPDEST PUSH32 0x4F6E6C7920746865206F776E65722063616E2063616C6C20746869732066756E PUSH0 DUP3 ADD MSTORE PUSH32 0x6374696F6E2E0000000000000000000000000000000000000000000000000000 PUSH1 0x20 DUP3 ADD MSTORE POP JUMP JUMPDEST PUSH0 PUSH2 0xDD1 PUSH1 0x26 DUP4 PUSH2 0xD67 JUMP JUMPDEST SWAP2 POP PUSH2 0xDDC DUP3 PUSH2 0xD77 JUMP JUMPDEST PUSH1 0x40 DUP3 ADD SWAP1 POP SWAP2 SWAP1 POP JUMP JUMPDEST PUSH0 PUSH1 0x20 DUP3 ADD SWAP1 POP DUP2 DUP2 SUB PUSH0 DUP4 ADD MSTORE PUSH2 0xDFE DUP2 PUSH2 0xDC5 JUMP JUMPDEST SWAP1 POP SWAP2 SWAP1 POP JUMP JUMPDEST PUSH32 0x4E6F7420656E6F7567682073746F636B2E000000000000000000000000000000 PUSH0 DUP3 ADD MSTORE POP JUMP JUMPDEST PUSH0 PUSH2 0xE39 PUSH1 0x11 DUP4 PUSH2 0xD67 JUMP JUMPDEST SWAP2 POP PUSH2 0xE44 DUP3 PUSH2 0xE05 JUMP JUMPDEST PUSH1 0x20 DUP3 ADD SWAP1 POP SWAP2 SWAP1 POP JUMP JUMPDEST PUSH0 PUSH1 0x20 DUP3 ADD SWAP1 POP DUP2 DUP2 SUB PUSH0 DUP4 ADD MSTORE PUSH2 0xE66 DUP2 PUSH2 0xE2D JUMP JUMPDEST SWAP1 POP SWAP2 SWAP1 POP JUMP JUMPDEST PUSH32 0x496E73756666696369656E742066756E64732E00000000000000000000000000 PUSH0 DUP3 ADD MSTORE POP JUMP JUMPDEST PUSH0 PUSH2 0xEA1 PUSH1 0x13 DUP4 PUSH2 0xD67 JUMP JUMPDEST SWAP2 POP PUSH2 0xEAC DUP3 PUSH2 0xE6D JUMP JUMPDEST PUSH1 0x20 DUP3 ADD SWAP1 POP SWAP2 SWAP1 POP JUMP JUMPDEST PUSH0 PUSH1 0x20 DUP3 ADD SWAP1 POP DUP2 DUP2 SUB PUSH0 DUP4 ADD MSTORE PUSH2 0xECE DUP2 PUSH2 0xE95 JUMP JUMPDEST SWAP1 POP SWAP2 SWAP1 POP JUMP JUMPDEST PUSH32 0x4E487B7100000000000000000000000000000000000000000000000000000000 PUSH0 MSTORE PUSH1 0x11 PUSH1 0x4 MSTORE PUSH1 0x24 PUSH0 REVERT JUMPDEST PUSH0 PUSH2 0xF0C DUP3 PUSH2 0xACA JUMP JUMPDEST SWAP2 POP PUSH2 0xF17 DUP4 PUSH2 0xACA JUMP JUMPDEST SWAP3 POP DUP3 DUP3 SUB SWAP1 POP DUP2 DUP2 GT ISZERO PUSH2 0xF2F JUMPI PUSH2 0xF2E PUSH2 0xED5 JUMP JUMPDEST JUMPDEST SWAP3 SWAP2 POP POP JUMP JUMPDEST PUSH0 PUSH2 0xF3F DUP3 PUSH2 0xACA JUMP JUMPDEST SWAP2 POP PUSH2 0xF4A DUP4 PUSH2 0xACA JUMP JUMPDEST SWAP3 POP DUP3 DUP3 MUL PUSH2 0xF58 DUP2 PUSH2 0xACA JUMP JUMPDEST SWAP2 POP DUP3 DUP3 DIV DUP5 EQ DUP4 ISZERO OR PUSH2 0xF6F JUMPI PUSH2 0xF6E PUSH2 0xED5 JUMP JUMPDEST JUMPDEST POP SWAP3 SWAP2 POP POP JUMP JUMPDEST PUSH0 PUSH2 0xF80 DUP3 PUSH2 0xACA JUMP JUMPDEST SWAP2 POP PUSH2 0xF8B DUP4 PUSH2 0xACA JUMP JUMPDEST SWAP3 POP DUP3 DUP3 ADD SWAP1 POP DUP1 DUP3 GT ISZERO PUSH2 0xFA3 JUMPI PUSH2 0xFA2 PUSH2 0xED5 JUMP JUMPDEST JUMPDEST SWAP3 SWAP2 POP POP JUMP JUMPDEST PUSH32 0x4E487B7100000000000000000000000000000000000000000000000000000000 PUSH0 MSTORE PUSH1 0x12 PUSH1 0x4 MSTORE PUSH1 0x24 PUSH0 REVERT JUMPDEST PUSH0 PUSH2 0xFE0 DUP3 PUSH2 0xACA JUMP JUMPDEST SWAP2 POP PUSH2 0xFEB DUP4 PUSH2 0xACA JUMP JUMPDEST SWAP3 POP DUP3 PUSH2 0xFFB JUMPI PUSH2 0xFFA PUSH2 0xFA9 JUMP JUMPDEST JUMPDEST DUP3 DUP3 DIV SWAP1 POP SWAP3 SWAP2 POP POP JUMP INVALID LOG2 PUSH5 0x6970667358 0x22 SLT KECCAK256 CODESIZE 0xC0 0xB9 0x29 0xAA 0x49 PUSH22 0x7D8B9C8F1E55508E285F3AF8B593C92B4D41EA9A10F6 0xAA PUSH28 0x2564736F6C6343000816003300000000000000000000000000000000 "
				},
				"gasEstimates": {
					"creation": {
						"codeDepositCost": "831200",
						"executionCost": "25127",
						"totalCost": "856327"
					},
					"external": {
						"addLoyaltyPointsToProduct(bytes32,uint256)": "25004",
						"addProduct(bytes32,uint256,uint256,bytes32)": "infinite",
						"applyDiscount(bytes32,uint256,uint256)": "infinite",
						"calculatePrice(bytes32,uint256,uint256)": "infinite",
						"categoryProducts(bytes32,uint256)": "infinite",
						"discounts(bytes32)": "infinite",
						"loyaltyPoints(address)": "2890",
						"products(bytes32)": "infinite",
						"purchaseProduct(bytes32,uint256)": "infinite",
						"updateProductPrice(bytes32,uint256)": "infinite",
						"updateProductStock(bytes32,uint256)": "infinite"
					}
				},
				"methodIdentifiers": {
					"addLoyaltyPointsToProduct(bytes32,uint256)": "9892146f",
					"addProduct(bytes32,uint256,uint256,bytes32)": "a05bc3bb",
					"applyDiscount(bytes32,uint256,uint256)": "b0da2966",
					"calculatePrice(bytes32,uint256,uint256)": "d27001db",
					"categoryProducts(bytes32,uint256)": "e1252b3c",
					"discounts(bytes32)": "bb3cc56f",
					"loyaltyPoints(address)": "d45e4259",
					"products(bytes32)": "79054391",
					"purchaseProduct(bytes32,uint256)": "788e72a5",
					"updateProductPrice(bytes32,uint256)": "77bb3653",
					"updateProductStock(bytes32,uint256)": "a30f30e6"
				}
			},
			"storageLayout": {
				"storage": [
					{
						"astId": 22,
						"contract": "Retail Industry/Advanced Retail Industry Smart Contract.sol:AdvancedRetail",
						"label": "products",
						"offset": 0,
						"slot": "0",
						"type": "t_mapping(t_bytes32,t_struct(Product)12_storage)"
					},
					{
						"astId": 26,
						"contract": "Retail Industry/Advanced Retail Industry Smart Contract.sol:AdvancedRetail",
						"label": "loyaltyPoints",
						"offset": 0,
						"slot": "1",
						"type": "t_mapping(t_address,t_uint256)"
					},
					{
						"astId": 31,
						"contract": "Retail Industry/Advanced Retail Industry Smart Contract.sol:AdvancedRetail",
						"label": "discounts",
						"offset": 0,
						"slot": "2",
						"type": "t_mapping(t_bytes32,t_struct(Discount)17_storage)"
					},
					{
						"astId": 36,
						"contract": "Retail Industry/Advanced Retail Industry Smart Contract.sol:AdvancedRetail",
						"label": "categoryProducts",
						"offset": 0,
						"slot": "3",
						"type": "t_mapping(t_bytes32,t_array(t_bytes32)dyn_storage)"
					},
					{
						"astId": 38,
						"contract": "Retail Industry/Advanced Retail Industry Smart Contract.sol:AdvancedRetail",
						"label": "owner",
						"offset": 0,
						"slot": "4",
						"type": "t_address_payable"
					}
				],
				"types": {
					"t_address": {
						"encoding": "inplace",
						"label": "address",
						"numberOfBytes": "20"
					},
					"t_address_payable": {
						"encoding": "inplace",
						"label": "address payable",
						"numberOfBytes": "20"
					},
					"t_array(t_bytes32)dyn_storage": {
						"base": "t_bytes32",
						"encoding": "dynamic_array",
						"label": "bytes32[]",
						"numberOfBytes": "32"
					},
					"t_bytes32": {
						"encoding": "inplace",
						"label": "bytes32",
						"numberOfBytes": "32"
					},
					"t_mapping(t_address,t_uint256)": {
						"encoding": "mapping",
						"key": "t_address",
						"label": "mapping(address => uint256)",
						"numberOfBytes": "32",
						"value": "t_uint256"
					},
					"t_mapping(t_bytes32,t_array(t_bytes32)dyn_storage)": {
						"encoding": "mapping",
						"key": "t_bytes32",
						"label": "mapping(bytes32 => bytes32[])",
						"numberOfBytes": "32",
						"value": "t_array(t_bytes32)dyn_storage"
					},
					"t_mapping(t_bytes32,t_struct(Discount)17_storage)": {
						"encoding": "mapping",
						"key": "t_bytes32",
						"label": "mapping(bytes32 => struct AdvancedRetail.Discount)",
						"numberOfBytes": "32",
						"value": "t_struct(Discount)17_storage"
					},
					"t_mapping(t_bytes32,t_struct(Product)12_storage)": {
						"encoding": "mapping",
						"key": "t_bytes32",
						"label": "mapping(bytes32 => struct AdvancedRetail.Product)",
						"numberOfBytes": "32",
						"value": "t_struct(Product)12_storage"
					},
					"t_struct(Discount)17_storage": {
						"encoding": "inplace",
						"label": "struct AdvancedRetail.Discount",
						"members": [
							{
								"astId": 14,
								"contract": "Retail Industry/Advanced Retail Industry Smart Contract.sol:AdvancedRetail",
								"label": "percentage",
								"offset": 0,
								"slot": "0",
								"type": "t_uint256"
							},
							{
								"astId": 16,
								"contract": "Retail Industry/Advanced Retail Industry Smart Contract.sol:AdvancedRetail",
								"label": "validUntil",
								"offset": 0,
								"slot": "1",
								"type": "t_uint256"
							}
						],
						"numberOfBytes": "64"
					},
					"t_struct(Product)12_storage": {
						"encoding": "inplace",
						"label": "struct AdvancedRetail.Product",
						"members": [
							{
								"astId": 3,
								"contract": "Retail Industry/Advanced Retail Industry Smart Contract.sol:AdvancedRetail",
								"label": "name",
								"offset": 0,
								"slot": "0",
								"type": "t_bytes32"
							},
							{
								"astId": 5,
								"contract": "Retail Industry/Advanced Retail Industry Smart Contract.sol:AdvancedRetail",
								"label": "price",
								"offset": 0,
								"slot": "1",
								"type": "t_uint256"
							},
							{
								"astId": 7,
								"contract": "Retail Industry/Advanced Retail Industry Smart Contract.sol:AdvancedRetail",
								"label": "stock",
								"offset": 0,
								"slot": "2",
								"type": "t_uint256"
							},
							{
								"astId": 9,
								"contract": "Retail Industry/Advanced Retail Industry Smart Contract.sol:AdvancedRetail",
								"label": "loyaltyPoints",
								"offset": 0,
								"slot": "3",
								"type": "t_uint256"
							},
							{
								"astId": 11,
								"contract": "Retail Industry/Advanced Retail Industry Smart Contract.sol:AdvancedRetail",
								"label": "category",
								"offset": 0,
								"slot": "4",
								"type": "t_bytes32"
							}
						],
						"numberOfBytes": "160"
					},
					"t_uint256": {
						"encoding": "inplace",
						"label": "uint256",
						"numberOfBytes": "32"
					}
				}
			},
			"userdoc": {
				"kind": "user",
				"methods": {},
				"version": 1
			}
		}
	}
}