{
	"data": {
		"bytecode": {
			"linkReferences": {},
			"object": "608060405234801561000f575f80fd5b503360035f6101000a81548173ffffffffffffffffffffffffffffffffffffffff021916908373ffffffffffffffffffffffffffffffffffffffff160217905550611fa78061005d5f395ff3fe60806040526004361061009b575f3560e01c8063a063416c11610063578063a063416c14610195578063ab7b1c89146101bd578063b0c11a70146101d9578063d0e30db014610218578063e0a09c6814610222578063f7f4f8ca1461024c5761009b565b806310c9e3861461009f5780632e1a7d4d146100c75780635e5c06e2146100ef5780638da5cb5b1461012c57806398c61c3714610156575b5f80fd5b3480156100aa575f80fd5b506100c560048036038101906100c09190610f9b565b610274565b005b3480156100d2575f80fd5b506100ed60048036038101906100e89190610feb565b61043a565b005b3480156100fa575f80fd5b5061011560048036038101906101109190611070565b610676565b6040516101239291906110aa565b60405180910390f35b348015610137575f80fd5b50610140610695565b60405161014d91906110e0565b60405180910390f35b348015610161575f80fd5b5061017c600480360381019061017791906110f9565b6106ba565b60405161018c9493929190611151565b60405180910390f35b3480156101a0575f80fd5b506101bb60048036038101906101b69190611394565b61070c565b005b6101d760048036038101906101d29190610feb565b610959565b005b3480156101e4575f80fd5b506101ff60048036038101906101fa919061144f565b610ae1565b60405161020f94939291906114f4565b60405180910390f35b610220610bbe565b005b34801561022d575f80fd5b50610236610ca4565b604051610243919061153e565b60405180910390f35b348015610257575f80fd5b50610272600480360381019061026d919061144f565b610ca9565b005b5f83116102b6576040517f08c379a00000000000000000000000000000000000000000000000000000000081526004016102ad906115c7565b60405180910390fd5b60015f3373ffffffffffffffffffffffffffffffffffffffff1673ffffffffffffffffffffffffffffffffffffffff1681526020019081526020015f20604051806080016040528085815260200184815260200183426103169190611612565b81526020015f1515815250908060018154018082558091505060019003905f5260205f2090600402015f909190919091505f820151815f015560208201518160010155604082015181600201556060820151816003015f6101000a81548160ff0219169083151502179055505050825f803373ffffffffffffffffffffffffffffffffffffffff1673ffffffffffffffffffffffffffffffffffffffff1681526020019081526020015f205f015f8282546103d19190611612565b925050819055503373ffffffffffffffffffffffffffffffffffffffff167f1daae93c0719c540c3891d8a11e5f3b79cbd03028f1fa7e520d31c1a878433358484844261041e9190611612565b60405161042d93929190611645565b60405180910390a2505050565b5f803373ffffffffffffffffffffffffffffffffffffffff1673ffffffffffffffffffffffffffffffffffffffff1681526020019081526020015f205f01548111156104bb576040517f08c379a00000000000000000000000000000000000000000000000000000000081526004016104b2906116c4565b60405180910390fd5b603c5f803373ffffffffffffffffffffffffffffffffffffffff1673ffffffffffffffffffffffffffffffffffffffff1681526020019081526020015f20600101546105079190611612565b421015610549576040517f08c379a00000000000000000000000000000000000000000000000000000000081526004016105409061172c565b60405180910390fd5b805f803373ffffffffffffffffffffffffffffffffffffffff1673ffffffffffffffffffffffffffffffffffffffff1681526020019081526020015f205f015f828254610596919061174a565b92505081905550425f803373ffffffffffffffffffffffffffffffffffffffff1673ffffffffffffffffffffffffffffffffffffffff1681526020019081526020015f20600101819055503373ffffffffffffffffffffffffffffffffffffffff166108fc8290811502906040515f60405180830381858888f19350505050158015610624573d5f803e3d5ffd5b503373ffffffffffffffffffffffffffffffffffffffff167fbc158bb64f05d6383aea69bbb0b20c1bbf4b7a18f63359c5649b7c39e29d38848260405161066b919061153e565b60405180910390a250565b5f602052805f5260405f205f91509050805f0154908060010154905082565b60035f9054906101000a900473ffffffffffffffffffffffffffffffffffffffff1681565b6001602052815f5260405f2081815481106106d3575f80fd5b905f5260205f2090600402015f9150915050805f015490806001015490806002015490806003015f9054906101000a900460ff16905084565b60035f9054906101000a900473ffffffffffffffffffffffffffffffffffffffff1673ffffffffffffffffffffffffffffffffffffffff163373ffffffffffffffffffffffffffffffffffffffff161461079b576040517f08c379a0000000000000000000000000000000000000000000000000000000008152600401610792906117ed565b60405180910390fd5b60018351116107df576040517f08c379a00000000000000000000000000000000000000000000000000000000081526004016107d690611855565b60405180910390fd5b5f423384846040516020016107f79493929190611912565b6040516020818303038152906040528051906020012090506040518060a001604052803373ffffffffffffffffffffffffffffffffffffffff1681526020018581526020018481526020018381526020015f151581525060025f8381526020019081526020015f205f820151815f015f6101000a81548173ffffffffffffffffffffffffffffffffffffffff021916908373ffffffffffffffffffffffffffffffffffffffff16021790555060208201518160010190805190602001906108bf929190610eb5565b506040820151816002015560608201518160030190816108df9190611b55565b506080820151816004015f6101000a81548160ff0219169083151502179055509050503373ffffffffffffffffffffffffffffffffffffffff16817ffd74b5f657a19eb96ae7d01d747a216747c1454bc1722bbbce4b7f92e653070b858560405161094b929190611c24565b60405180910390a350505050565b5f60015f3373ffffffffffffffffffffffffffffffffffffffff1673ffffffffffffffffffffffffffffffffffffffff1681526020019081526020015f2082815481106109a9576109a8611c52565b5b905f5260205f2090600402019050806003015f9054906101000a900460ff1615610a08576040517f08c379a00000000000000000000000000000000000000000000000000000000081526004016109ff90611cc9565b60405180910390fd5b5f610a1f825f015483600101548460020154610dbb565b825f0154610a2d9190611612565b905080341015610a72576040517f08c379a0000000000000000000000000000000000000000000000000000000008152600401610a6990611d57565b60405180910390fd5b6001826003015f6101000a81548160ff0219169083151502179055503373ffffffffffffffffffffffffffffffffffffffff167fc200a1f31dd659e356e0f112c82558e25f49f7b0f84438691cd96f5cb355882382604051610ad4919061153e565b60405180910390a2505050565b6002602052805f5260405f205f91509050805f015f9054906101000a900473ffffffffffffffffffffffffffffffffffffffff1690806002015490806003018054610b2b90611988565b80601f0160208091040260200160405190810160405280929190818152602001828054610b5790611988565b8015610ba25780601f10610b7957610100808354040283529160200191610ba2565b820191905f5260205f20905b815481529060010190602001808311610b8557829003601f168201915b505050505090806004015f9054906101000a900460ff16905084565b5f3411610c00576040517f08c379a0000000000000000000000000000000000000000000000000000000008152600401610bf790611de5565b60405180910390fd5b345f803373ffffffffffffffffffffffffffffffffffffffff1673ffffffffffffffffffffffffffffffffffffffff1681526020019081526020015f205f015f828254610c4d9190611612565b925050819055503373ffffffffffffffffffffffffffffffffffffffff167fd15c9547ea5c06670c0010ce19bc32d54682a4b3801ece7f3ab0c3f17106b4bb34604051610c9a919061153e565b60405180910390a2565b603c81565b5f60025f8381526020019081526020015f209050806004015f9054906101000a900460ff1615610d0e576040517f08c379a0000000000000000000000000000000000000000000000000000000008152600401610d0590611e4d565b60405180910390fd5b610d188133610e0e565b610d57576040517f08c379a0000000000000000000000000000000000000000000000000000000008152600401610d4e90611eb5565b60405180910390fd5b6001816004015f6101000a81548160ff0219169083151502179055503373ffffffffffffffffffffffffffffffffffffffff16827f7efc7e3e06efec0944252879d6ed13a80e06353f99e0ddcefdd6400391a8f5d860405160405180910390a35050565b5f80824211610dca575f610dd7565b8242610dd6919061174a565b5b90505f63bbf81e00828688610dec9190611ed3565b610df69190611ed3565b610e009190611f41565b905080925050509392505050565b5f805f90505b8360010180549050811015610eaa578273ffffffffffffffffffffffffffffffffffffffff16846001018281548110610e5057610e4f611c52565b5b905f5260205f20015f9054906101000a900473ffffffffffffffffffffffffffffffffffffffff1673ffffffffffffffffffffffffffffffffffffffff1603610e9d576001915050610eaf565b8080600101915050610e14565b505f90505b92915050565b828054828255905f5260205f20908101928215610f2b579160200282015b82811115610f2a578251825f6101000a81548173ffffffffffffffffffffffffffffffffffffffff021916908373ffffffffffffffffffffffffffffffffffffffff16021790555091602001919060010190610ed3565b5b509050610f389190610f3c565b5090565b5b80821115610f53575f815f905550600101610f3d565b5090565b5f604051905090565b5f80fd5b5f80fd5b5f819050919050565b610f7a81610f68565b8114610f84575f80fd5b50565b5f81359050610f9581610f71565b92915050565b5f805f60608486031215610fb257610fb1610f60565b5b5f610fbf86828701610f87565b9350506020610fd086828701610f87565b9250506040610fe186828701610f87565b9150509250925092565b5f6020828403121561100057610fff610f60565b5b5f61100d84828501610f87565b91505092915050565b5f73ffffffffffffffffffffffffffffffffffffffff82169050919050565b5f61103f82611016565b9050919050565b61104f81611035565b8114611059575f80fd5b50565b5f8135905061106a81611046565b92915050565b5f6020828403121561108557611084610f60565b5b5f6110928482850161105c565b91505092915050565b6110a481610f68565b82525050565b5f6040820190506110bd5f83018561109b565b6110ca602083018461109b565b9392505050565b6110da81611035565b82525050565b5f6020820190506110f35f8301846110d1565b92915050565b5f806040838503121561110f5761110e610f60565b5b5f61111c8582860161105c565b925050602061112d85828601610f87565b9150509250929050565b5f8115159050919050565b61114b81611137565b82525050565b5f6080820190506111645f83018761109b565b611171602083018661109b565b61117e604083018561109b565b61118b6060830184611142565b95945050505050565b5f80fd5b5f601f19601f8301169050919050565b7f4e487b71000000000000000000000000000000000000000000000000000000005f52604160045260245ffd5b6111de82611198565b810181811067ffffffffffffffff821117156111fd576111fc6111a8565b5b80604052505050565b5f61120f610f57565b905061121b82826111d5565b919050565b5f67ffffffffffffffff82111561123a576112396111a8565b5b602082029050602081019050919050565b5f80fd5b5f61126161125c84611220565b611206565b905080838252602082019050602084028301858111156112845761128361124b565b5b835b818110156112ad5780611299888261105c565b845260208401935050602081019050611286565b5050509392505050565b5f82601f8301126112cb576112ca611194565b5b81356112db84826020860161124f565b91505092915050565b5f80fd5b5f67ffffffffffffffff821115611302576113016111a8565b5b61130b82611198565b9050602081019050919050565b828183375f83830152505050565b5f611338611333846112e8565b611206565b905082815260208101848484011115611354576113536112e4565b5b61135f848285611318565b509392505050565b5f82601f83011261137b5761137a611194565b5b813561138b848260208601611326565b91505092915050565b5f805f606084860312156113ab576113aa610f60565b5b5f84013567ffffffffffffffff8111156113c8576113c7610f64565b5b6113d4868287016112b7565b93505060206113e586828701610f87565b925050604084013567ffffffffffffffff81111561140657611405610f64565b5b61141286828701611367565b9150509250925092565b5f819050919050565b61142e8161141c565b8114611438575f80fd5b50565b5f8135905061144981611425565b92915050565b5f6020828403121561146457611463610f60565b5b5f6114718482850161143b565b91505092915050565b5f81519050919050565b5f82825260208201905092915050565b5f5b838110156114b1578082015181840152602081019050611496565b5f8484015250505050565b5f6114c68261147a565b6114d08185611484565b93506114e0818560208601611494565b6114e981611198565b840191505092915050565b5f6080820190506115075f8301876110d1565b611514602083018661109b565b818103604083015261152681856114bc565b90506115356060830184611142565b95945050505050565b5f6020820190506115515f83018461109b565b92915050565b7f4c6f616e20616d6f756e74206d7573742062652067726561746572207468616e5f8201527f2030000000000000000000000000000000000000000000000000000000000000602082015250565b5f6115b1602283611484565b91506115bc82611557565b604082019050919050565b5f6020820190508181035f8301526115de816115a5565b9050919050565b7f4e487b71000000000000000000000000000000000000000000000000000000005f52601160045260245ffd5b5f61161c82610f68565b915061162783610f68565b925082820190508082111561163f5761163e6115e5565b5b92915050565b5f6060820190506116585f83018661109b565b611665602083018561109b565b611672604083018461109b565b949350505050565b7f496e73756666696369656e742062616c616e63650000000000000000000000005f82015250565b5f6116ae601483611484565b91506116b98261167a565b602082019050919050565b5f6020820190508181035f8301526116db816116a2565b9050919050565b7f5769746864726177616c206973206c6f636b65640000000000000000000000005f82015250565b5f611716601483611484565b9150611721826116e2565b602082019050919050565b5f6020820190508181035f8301526117438161170a565b9050919050565b5f61175482610f68565b915061175f83610f68565b9250828203905081811115611777576117766115e5565b5b92915050565b7f4f6e6c7920746865206f776e65722063616e20706572666f726d2074686973205f8201527f616374696f6e0000000000000000000000000000000000000000000000000000602082015250565b5f6117d7602683611484565b91506117e28261177d565b604082019050919050565b5f6020820190508181035f830152611804816117cb565b9050919050565b7f4174206c656173742074776f207369676e6572732072657175697265640000005f82015250565b5f61183f601d83611484565b915061184a8261180b565b602082019050919050565b5f6020820190508181035f83015261186c81611833565b9050919050565b5f819050919050565b61188d61188882610f68565b611873565b82525050565b5f8160601b9050919050565b5f6118a982611893565b9050919050565b5f6118ba8261189f565b9050919050565b6118d26118cd82611035565b6118b0565b82525050565b5f81905092915050565b5f6118ec8261147a565b6118f681856118d8565b9350611906818560208601611494565b80840191505092915050565b5f61191d828761187c565b60208201915061192d82866118c1565b60148201915061193d828561187c565b60208201915061194d82846118e2565b915081905095945050505050565b7f4e487b71000000000000000000000000000000000000000000000000000000005f52602260045260245ffd5b5f600282049050600182168061199f57607f821691505b6020821081036119b2576119b161195b565b5b50919050565b5f819050815f5260205f209050919050565b5f6020601f8301049050919050565b5f82821b905092915050565b5f60088302611a147fffffffffffffffffffffffffffffffffffffffffffffffffffffffffffffffff826119d9565b611a1e86836119d9565b95508019841693508086168417925050509392505050565b5f819050919050565b5f611a59611a54611a4f84610f68565b611a36565b610f68565b9050919050565b5f819050919050565b611a7283611a3f565b611a86611a7e82611a60565b8484546119e5565b825550505050565b5f90565b611a9a611a8e565b611aa5818484611a69565b505050565b5b81811015611ac857611abd5f82611a92565b600181019050611aab565b5050565b601f821115611b0d57611ade816119b8565b611ae7846119ca565b81016020851015611af6578190505b611b0a611b02856119ca565b830182611aaa565b50505b505050565b5f82821c905092915050565b5f611b2d5f1984600802611b12565b1980831691505092915050565b5f611b458383611b1e565b9150826002028217905092915050565b611b5e8261147a565b67ffffffffffffffff811115611b7757611b766111a8565b5b611b818254611988565b611b8c828285611acc565b5f60209050601f831160018114611bbd575f8415611bab578287015190505b611bb58582611b3a565b865550611c1c565b601f198416611bcb866119b8565b5f5b82811015611bf257848901518255600182019150602085019450602081019050611bcd565b86831015611c0f5784890151611c0b601f891682611b1e565b8355505b6001600288020188555050505b505050505050565b5f604082019050611c375f83018561109b565b8181036020830152611c4981846114bc565b90509392505050565b7f4e487b71000000000000000000000000000000000000000000000000000000005f52603260045260245ffd5b7f4c6f616e20697320616c726561647920726570616964000000000000000000005f82015250565b5f611cb3601683611484565b9150611cbe82611c7f565b602082019050919050565b5f6020820190508181035f830152611ce081611ca7565b9050919050565b7f496e73756666696369656e7420616d6f756e7420746f207265706179207468655f8201527f206c6f616e000000000000000000000000000000000000000000000000000000602082015250565b5f611d41602583611484565b9150611d4c82611ce7565b604082019050919050565b5f6020820190508181035f830152611d6e81611d35565b9050919050565b7f4465706f7369742076616c7565206d75737420626520677265617465722074685f8201527f616e203000000000000000000000000000000000000000000000000000000000602082015250565b5f611dcf602483611484565b9150611dda82611d75565b604082019050919050565b5f6020820190508181035f830152611dfc81611dc3565b9050919050565b7f5472616e73616374696f6e20616c7265616479206578656375746564000000005f82015250565b5f611e37601c83611484565b9150611e4282611e03565b602082019050919050565b5f6020820190508181035f830152611e6481611e2b565b9050919050565b7f43616c6c6572206973206e6f742061207369676e6572000000000000000000005f82015250565b5f611e9f601683611484565b9150611eaa82611e6b565b602082019050919050565b5f6020820190508181035f830152611ecc81611e93565b9050919050565b5f611edd82610f68565b9150611ee883610f68565b9250828202611ef681610f68565b91508282048414831517611f0d57611f0c6115e5565b5b5092915050565b7f4e487b71000000000000000000000000000000000000000000000000000000005f52601260045260245ffd5b5f611f4b82610f68565b9150611f5683610f68565b925082611f6657611f65611f14565b5b82820490509291505056fea2646970667358221220ea34e650b00d91071cf0f9544f1a4860366327e9964cbd66720ae8ac8147c1e964736f6c63430008160033",
			"opcodes": "PUSH1 0x80 PUSH1 0x40 MSTORE CALLVALUE DUP1 ISZERO PUSH2 0xF JUMPI PUSH0 DUP1 REVERT JUMPDEST POP CALLER PUSH1 0x3 PUSH0 PUSH2 0x100 EXP DUP2 SLOAD DUP2 PUSH20 0xFFFFFFFFFFFFFFFFFFFFFFFFFFFFFFFFFFFFFFFF MUL NOT AND SWAP1 DUP4 PUSH20 0xFFFFFFFFFFFFFFFFFFFFFFFFFFFFFFFFFFFFFFFF AND MUL OR SWAP1 SSTORE POP PUSH2 0x1FA7 DUP1 PUSH2 0x5D PUSH0 CODECOPY PUSH0 RETURN INVALID PUSH1 0x80 PUSH1 0x40 MSTORE PUSH1 0x4 CALLDATASIZE LT PUSH2 0x9B JUMPI PUSH0 CALLDATALOAD PUSH1 0xE0 SHR DUP1 PUSH4 0xA063416C GT PUSH2 0x63 JUMPI DUP1 PUSH4 0xA063416C EQ PUSH2 0x195 JUMPI DUP1 PUSH4 0xAB7B1C89 EQ PUSH2 0x1BD JUMPI DUP1 PUSH4 0xB0C11A70 EQ PUSH2 0x1D9 JUMPI DUP1 PUSH4 0xD0E30DB0 EQ PUSH2 0x218 JUMPI DUP1 PUSH4 0xE0A09C68 EQ PUSH2 0x222 JUMPI DUP1 PUSH4 0xF7F4F8CA EQ PUSH2 0x24C JUMPI PUSH2 0x9B JUMP JUMPDEST DUP1 PUSH4 0x10C9E386 EQ PUSH2 0x9F JUMPI DUP1 PUSH4 0x2E1A7D4D EQ PUSH2 0xC7 JUMPI DUP1 PUSH4 0x5E5C06E2 EQ PUSH2 0xEF JUMPI DUP1 PUSH4 0x8DA5CB5B EQ PUSH2 0x12C JUMPI DUP1 PUSH4 0x98C61C37 EQ PUSH2 0x156 JUMPI JUMPDEST PUSH0 DUP1 REVERT JUMPDEST CALLVALUE DUP1 ISZERO PUSH2 0xAA JUMPI PUSH0 DUP1 REVERT JUMPDEST POP PUSH2 0xC5 PUSH1 0x4 DUP1 CALLDATASIZE SUB DUP2 ADD SWAP1 PUSH2 0xC0 SWAP2 SWAP1 PUSH2 0xF9B JUMP JUMPDEST PUSH2 0x274 JUMP JUMPDEST STOP JUMPDEST CALLVALUE DUP1 ISZERO PUSH2 0xD2 JUMPI PUSH0 DUP1 REVERT JUMPDEST POP PUSH2 0xED PUSH1 0x4 DUP1 CALLDATASIZE SUB DUP2 ADD SWAP1 PUSH2 0xE8 SWAP2 SWAP1 PUSH2 0xFEB JUMP JUMPDEST PUSH2 0x43A JUMP JUMPDEST STOP JUMPDEST CALLVALUE DUP1 ISZERO PUSH2 0xFA JUMPI PUSH0 DUP1 REVERT JUMPDEST POP PUSH2 0x115 PUSH1 0x4 DUP1 CALLDATASIZE SUB DUP2 ADD SWAP1 PUSH2 0x110 SWAP2 SWAP1 PUSH2 0x1070 JUMP JUMPDEST PUSH2 0x676 JUMP JUMPDEST PUSH1 0x40 MLOAD PUSH2 0x123 SWAP3 SWAP2 SWAP1 PUSH2 0x10AA JUMP JUMPDEST PUSH1 0x40 MLOAD DUP1 SWAP2 SUB SWAP1 RETURN JUMPDEST CALLVALUE DUP1 ISZERO PUSH2 0x137 JUMPI PUSH0 DUP1 REVERT JUMPDEST POP PUSH2 0x140 PUSH2 0x695 JUMP JUMPDEST PUSH1 0x40 MLOAD PUSH2 0x14D SWAP2 SWAP1 PUSH2 0x10E0 JUMP JUMPDEST PUSH1 0x40 MLOAD DUP1 SWAP2 SUB SWAP1 RETURN JUMPDEST CALLVALUE DUP1 ISZERO PUSH2 0x161 JUMPI PUSH0 DUP1 REVERT JUMPDEST POP PUSH2 0x17C PUSH1 0x4 DUP1 CALLDATASIZE SUB DUP2 ADD SWAP1 PUSH2 0x177 SWAP2 SWAP1 PUSH2 0x10F9 JUMP JUMPDEST PUSH2 0x6BA JUMP JUMPDEST PUSH1 0x40 MLOAD PUSH2 0x18C SWAP5 SWAP4 SWAP3 SWAP2 SWAP1 PUSH2 0x1151 JUMP JUMPDEST PUSH1 0x40 MLOAD DUP1 SWAP2 SUB SWAP1 RETURN JUMPDEST CALLVALUE DUP1 ISZERO PUSH2 0x1A0 JUMPI PUSH0 DUP1 REVERT JUMPDEST POP PUSH2 0x1BB PUSH1 0x4 DUP1 CALLDATASIZE SUB DUP2 ADD SWAP1 PUSH2 0x1B6 SWAP2 SWAP1 PUSH2 0x1394 JUMP JUMPDEST PUSH2 0x70C JUMP JUMPDEST STOP JUMPDEST PUSH2 0x1D7 PUSH1 0x4 DUP1 CALLDATASIZE SUB DUP2 ADD SWAP1 PUSH2 0x1D2 SWAP2 SWAP1 PUSH2 0xFEB JUMP JUMPDEST PUSH2 0x959 JUMP JUMPDEST STOP JUMPDEST CALLVALUE DUP1 ISZERO PUSH2 0x1E4 JUMPI PUSH0 DUP1 REVERT JUMPDEST POP PUSH2 0x1FF PUSH1 0x4 DUP1 CALLDATASIZE SUB DUP2 ADD SWAP1 PUSH2 0x1FA SWAP2 SWAP1 PUSH2 0x144F JUMP JUMPDEST PUSH2 0xAE1 JUMP JUMPDEST PUSH1 0x40 MLOAD PUSH2 0x20F SWAP5 SWAP4 SWAP3 SWAP2 SWAP1 PUSH2 0x14F4 JUMP JUMPDEST PUSH1 0x40 MLOAD DUP1 SWAP2 SUB SWAP1 RETURN JUMPDEST PUSH2 0x220 PUSH2 0xBBE JUMP JUMPDEST STOP JUMPDEST CALLVALUE DUP1 ISZERO PUSH2 0x22D JUMPI PUSH0 DUP1 REVERT JUMPDEST POP PUSH2 0x236 PUSH2 0xCA4 JUMP JUMPDEST PUSH1 0x40 MLOAD PUSH2 0x243 SWAP2 SWAP1 PUSH2 0x153E JUMP JUMPDEST PUSH1 0x40 MLOAD DUP1 SWAP2 SUB SWAP1 RETURN JUMPDEST CALLVALUE DUP1 ISZERO PUSH2 0x257 JUMPI PUSH0 DUP1 REVERT JUMPDEST POP PUSH2 0x272 PUSH1 0x4 DUP1 CALLDATASIZE SUB DUP2 ADD SWAP1 PUSH2 0x26D SWAP2 SWAP1 PUSH2 0x144F JUMP JUMPDEST PUSH2 0xCA9 JUMP JUMPDEST STOP JUMPDEST PUSH0 DUP4 GT PUSH2 0x2B6 JUMPI PUSH1 0x40 MLOAD PUSH32 0x8C379A000000000000000000000000000000000000000000000000000000000 DUP2 MSTORE PUSH1 0x4 ADD PUSH2 0x2AD SWAP1 PUSH2 0x15C7 JUMP JUMPDEST PUSH1 0x40 MLOAD DUP1 SWAP2 SUB SWAP1 REVERT JUMPDEST PUSH1 0x1 PUSH0 CALLER PUSH20 0xFFFFFFFFFFFFFFFFFFFFFFFFFFFFFFFFFFFFFFFF AND PUSH20 0xFFFFFFFFFFFFFFFFFFFFFFFFFFFFFFFFFFFFFFFF AND DUP2 MSTORE PUSH1 0x20 ADD SWAP1 DUP2 MSTORE PUSH1 0x20 ADD PUSH0 KECCAK256 PUSH1 0x40 MLOAD DUP1 PUSH1 0x80 ADD PUSH1 0x40 MSTORE DUP1 DUP6 DUP2 MSTORE PUSH1 0x20 ADD DUP5 DUP2 MSTORE PUSH1 0x20 ADD DUP4 TIMESTAMP PUSH2 0x316 SWAP2 SWAP1 PUSH2 0x1612 JUMP JUMPDEST DUP2 MSTORE PUSH1 0x20 ADD PUSH0 ISZERO ISZERO DUP2 MSTORE POP SWAP1 DUP1 PUSH1 0x1 DUP2 SLOAD ADD DUP1 DUP3 SSTORE DUP1 SWAP2 POP POP PUSH1 0x1 SWAP1 SUB SWAP1 PUSH0 MSTORE PUSH1 0x20 PUSH0 KECCAK256 SWAP1 PUSH1 0x4 MUL ADD PUSH0 SWAP1 SWAP2 SWAP1 SWAP2 SWAP1 SWAP2 POP PUSH0 DUP3 ADD MLOAD DUP2 PUSH0 ADD SSTORE PUSH1 0x20 DUP3 ADD MLOAD DUP2 PUSH1 0x1 ADD SSTORE PUSH1 0x40 DUP3 ADD MLOAD DUP2 PUSH1 0x2 ADD SSTORE PUSH1 0x60 DUP3 ADD MLOAD DUP2 PUSH1 0x3 ADD PUSH0 PUSH2 0x100 EXP DUP2 SLOAD DUP2 PUSH1 0xFF MUL NOT AND SWAP1 DUP4 ISZERO ISZERO MUL OR SWAP1 SSTORE POP POP POP DUP3 PUSH0 DUP1 CALLER PUSH20 0xFFFFFFFFFFFFFFFFFFFFFFFFFFFFFFFFFFFFFFFF AND PUSH20 0xFFFFFFFFFFFFFFFFFFFFFFFFFFFFFFFFFFFFFFFF AND DUP2 MSTORE PUSH1 0x20 ADD SWAP1 DUP2 MSTORE PUSH1 0x20 ADD PUSH0 KECCAK256 PUSH0 ADD PUSH0 DUP3 DUP3 SLOAD PUSH2 0x3D1 SWAP2 SWAP1 PUSH2 0x1612 JUMP JUMPDEST SWAP3 POP POP DUP2 SWAP1 SSTORE POP CALLER PUSH20 0xFFFFFFFFFFFFFFFFFFFFFFFFFFFFFFFFFFFFFFFF AND PUSH32 0x1DAAE93C0719C540C3891D8A11E5F3B79CBD03028F1FA7E520D31C1A87843335 DUP5 DUP5 DUP5 TIMESTAMP PUSH2 0x41E SWAP2 SWAP1 PUSH2 0x1612 JUMP JUMPDEST PUSH1 0x40 MLOAD PUSH2 0x42D SWAP4 SWAP3 SWAP2 SWAP1 PUSH2 0x1645 JUMP JUMPDEST PUSH1 0x40 MLOAD DUP1 SWAP2 SUB SWAP1 LOG2 POP POP POP JUMP JUMPDEST PUSH0 DUP1 CALLER PUSH20 0xFFFFFFFFFFFFFFFFFFFFFFFFFFFFFFFFFFFFFFFF AND PUSH20 0xFFFFFFFFFFFFFFFFFFFFFFFFFFFFFFFFFFFFFFFF AND DUP2 MSTORE PUSH1 0x20 ADD SWAP1 DUP2 MSTORE PUSH1 0x20 ADD PUSH0 KECCAK256 PUSH0 ADD SLOAD DUP2 GT ISZERO PUSH2 0x4BB JUMPI PUSH1 0x40 MLOAD PUSH32 0x8C379A000000000000000000000000000000000000000000000000000000000 DUP2 MSTORE PUSH1 0x4 ADD PUSH2 0x4B2 SWAP1 PUSH2 0x16C4 JUMP JUMPDEST PUSH1 0x40 MLOAD DUP1 SWAP2 SUB SWAP1 REVERT JUMPDEST PUSH1 0x3C PUSH0 DUP1 CALLER PUSH20 0xFFFFFFFFFFFFFFFFFFFFFFFFFFFFFFFFFFFFFFFF AND PUSH20 0xFFFFFFFFFFFFFFFFFFFFFFFFFFFFFFFFFFFFFFFF AND DUP2 MSTORE PUSH1 0x20 ADD SWAP1 DUP2 MSTORE PUSH1 0x20 ADD PUSH0 KECCAK256 PUSH1 0x1 ADD SLOAD PUSH2 0x507 SWAP2 SWAP1 PUSH2 0x1612 JUMP JUMPDEST TIMESTAMP LT ISZERO PUSH2 0x549 JUMPI PUSH1 0x40 MLOAD PUSH32 0x8C379A000000000000000000000000000000000000000000000000000000000 DUP2 MSTORE PUSH1 0x4 ADD PUSH2 0x540 SWAP1 PUSH2 0x172C JUMP JUMPDEST PUSH1 0x40 MLOAD DUP1 SWAP2 SUB SWAP1 REVERT JUMPDEST DUP1 PUSH0 DUP1 CALLER PUSH20 0xFFFFFFFFFFFFFFFFFFFFFFFFFFFFFFFFFFFFFFFF AND PUSH20 0xFFFFFFFFFFFFFFFFFFFFFFFFFFFFFFFFFFFFFFFF AND DUP2 MSTORE PUSH1 0x20 ADD SWAP1 DUP2 MSTORE PUSH1 0x20 ADD PUSH0 KECCAK256 PUSH0 ADD PUSH0 DUP3 DUP3 SLOAD PUSH2 0x596 SWAP2 SWAP1 PUSH2 0x174A JUMP JUMPDEST SWAP3 POP POP DUP2 SWAP1 SSTORE POP TIMESTAMP PUSH0 DUP1 CALLER PUSH20 0xFFFFFFFFFFFFFFFFFFFFFFFFFFFFFFFFFFFFFFFF AND PUSH20 0xFFFFFFFFFFFFFFFFFFFFFFFFFFFFFFFFFFFFFFFF AND DUP2 MSTORE PUSH1 0x20 ADD SWAP1 DUP2 MSTORE PUSH1 0x20 ADD PUSH0 KECCAK256 PUSH1 0x1 ADD DUP2 SWAP1 SSTORE POP CALLER PUSH20 0xFFFFFFFFFFFFFFFFFFFFFFFFFFFFFFFFFFFFFFFF AND PUSH2 0x8FC DUP3 SWAP1 DUP2 ISZERO MUL SWAP1 PUSH1 0x40 MLOAD PUSH0 PUSH1 0x40 MLOAD DUP1 DUP4 SUB DUP2 DUP6 DUP9 DUP9 CALL SWAP4 POP POP POP POP ISZERO DUP1 ISZERO PUSH2 0x624 JUMPI RETURNDATASIZE PUSH0 DUP1 RETURNDATACOPY RETURNDATASIZE PUSH0 REVERT JUMPDEST POP CALLER PUSH20 0xFFFFFFFFFFFFFFFFFFFFFFFFFFFFFFFFFFFFFFFF AND PUSH32 0xBC158BB64F05D6383AEA69BBB0B20C1BBF4B7A18F63359C5649B7C39E29D3884 DUP3 PUSH1 0x40 MLOAD PUSH2 0x66B SWAP2 SWAP1 PUSH2 0x153E JUMP JUMPDEST PUSH1 0x40 MLOAD DUP1 SWAP2 SUB SWAP1 LOG2 POP JUMP JUMPDEST PUSH0 PUSH1 0x20 MSTORE DUP1 PUSH0 MSTORE PUSH1 0x40 PUSH0 KECCAK256 PUSH0 SWAP2 POP SWAP1 POP DUP1 PUSH0 ADD SLOAD SWAP1 DUP1 PUSH1 0x1 ADD SLOAD SWAP1 POP DUP3 JUMP JUMPDEST PUSH1 0x3 PUSH0 SWAP1 SLOAD SWAP1 PUSH2 0x100 EXP SWAP1 DIV PUSH20 0xFFFFFFFFFFFFFFFFFFFFFFFFFFFFFFFFFFFFFFFF AND DUP2 JUMP JUMPDEST PUSH1 0x1 PUSH1 0x20 MSTORE DUP2 PUSH0 MSTORE PUSH1 0x40 PUSH0 KECCAK256 DUP2 DUP2 SLOAD DUP2 LT PUSH2 0x6D3 JUMPI PUSH0 DUP1 REVERT JUMPDEST SWAP1 PUSH0 MSTORE PUSH1 0x20 PUSH0 KECCAK256 SWAP1 PUSH1 0x4 MUL ADD PUSH0 SWAP2 POP SWAP2 POP POP DUP1 PUSH0 ADD SLOAD SWAP1 DUP1 PUSH1 0x1 ADD SLOAD SWAP1 DUP1 PUSH1 0x2 ADD SLOAD SWAP1 DUP1 PUSH1 0x3 ADD PUSH0 SWAP1 SLOAD SWAP1 PUSH2 0x100 EXP SWAP1 DIV PUSH1 0xFF AND SWAP1 POP DUP5 JUMP JUMPDEST PUSH1 0x3 PUSH0 SWAP1 SLOAD SWAP1 PUSH2 0x100 EXP SWAP1 DIV PUSH20 0xFFFFFFFFFFFFFFFFFFFFFFFFFFFFFFFFFFFFFFFF AND PUSH20 0xFFFFFFFFFFFFFFFFFFFFFFFFFFFFFFFFFFFFFFFF AND CALLER PUSH20 0xFFFFFFFFFFFFFFFFFFFFFFFFFFFFFFFFFFFFFFFF AND EQ PUSH2 0x79B JUMPI PUSH1 0x40 MLOAD PUSH32 0x8C379A000000000000000000000000000000000000000000000000000000000 DUP2 MSTORE PUSH1 0x4 ADD PUSH2 0x792 SWAP1 PUSH2 0x17ED JUMP JUMPDEST PUSH1 0x40 MLOAD DUP1 SWAP2 SUB SWAP1 REVERT JUMPDEST PUSH1 0x1 DUP4 MLOAD GT PUSH2 0x7DF JUMPI PUSH1 0x40 MLOAD PUSH32 0x8C379A000000000000000000000000000000000000000000000000000000000 DUP2 MSTORE PUSH1 0x4 ADD PUSH2 0x7D6 SWAP1 PUSH2 0x1855 JUMP JUMPDEST PUSH1 0x40 MLOAD DUP1 SWAP2 SUB SWAP1 REVERT JUMPDEST PUSH0 TIMESTAMP CALLER DUP5 DUP5 PUSH1 0x40 MLOAD PUSH1 0x20 ADD PUSH2 0x7F7 SWAP5 SWAP4 SWAP3 SWAP2 SWAP1 PUSH2 0x1912 JUMP JUMPDEST PUSH1 0x40 MLOAD PUSH1 0x20 DUP2 DUP4 SUB SUB DUP2 MSTORE SWAP1 PUSH1 0x40 MSTORE DUP1 MLOAD SWAP1 PUSH1 0x20 ADD KECCAK256 SWAP1 POP PUSH1 0x40 MLOAD DUP1 PUSH1 0xA0 ADD PUSH1 0x40 MSTORE DUP1 CALLER PUSH20 0xFFFFFFFFFFFFFFFFFFFFFFFFFFFFFFFFFFFFFFFF AND DUP2 MSTORE PUSH1 0x20 ADD DUP6 DUP2 MSTORE PUSH1 0x20 ADD DUP5 DUP2 MSTORE PUSH1 0x20 ADD DUP4 DUP2 MSTORE PUSH1 0x20 ADD PUSH0 ISZERO ISZERO DUP2 MSTORE POP PUSH1 0x2 PUSH0 DUP4 DUP2 MSTORE PUSH1 0x20 ADD SWAP1 DUP2 MSTORE PUSH1 0x20 ADD PUSH0 KECCAK256 PUSH0 DUP3 ADD MLOAD DUP2 PUSH0 ADD PUSH0 PUSH2 0x100 EXP DUP2 SLOAD DUP2 PUSH20 0xFFFFFFFFFFFFFFFFFFFFFFFFFFFFFFFFFFFFFFFF MUL NOT AND SWAP1 DUP4 PUSH20 0xFFFFFFFFFFFFFFFFFFFFFFFFFFFFFFFFFFFFFFFF AND MUL OR SWAP1 SSTORE POP PUSH1 0x20 DUP3 ADD MLOAD DUP2 PUSH1 0x1 ADD SWAP1 DUP1 MLOAD SWAP1 PUSH1 0x20 ADD SWAP1 PUSH2 0x8BF SWAP3 SWAP2 SWAP1 PUSH2 0xEB5 JUMP JUMPDEST POP PUSH1 0x40 DUP3 ADD MLOAD DUP2 PUSH1 0x2 ADD SSTORE PUSH1 0x60 DUP3 ADD MLOAD DUP2 PUSH1 0x3 ADD SWAP1 DUP2 PUSH2 0x8DF SWAP2 SWAP1 PUSH2 0x1B55 JUMP JUMPDEST POP PUSH1 0x80 DUP3 ADD MLOAD DUP2 PUSH1 0x4 ADD PUSH0 PUSH2 0x100 EXP DUP2 SLOAD DUP2 PUSH1 0xFF MUL NOT AND SWAP1 DUP4 ISZERO ISZERO MUL OR SWAP1 SSTORE POP SWAP1 POP POP CALLER PUSH20 0xFFFFFFFFFFFFFFFFFFFFFFFFFFFFFFFFFFFFFFFF AND DUP2 PUSH32 0xFD74B5F657A19EB96AE7D01D747A216747C1454BC1722BBBCE4B7F92E653070B DUP6 DUP6 PUSH1 0x40 MLOAD PUSH2 0x94B SWAP3 SWAP2 SWAP1 PUSH2 0x1C24 JUMP JUMPDEST PUSH1 0x40 MLOAD DUP1 SWAP2 SUB SWAP1 LOG3 POP POP POP POP JUMP JUMPDEST PUSH0 PUSH1 0x1 PUSH0 CALLER PUSH20 0xFFFFFFFFFFFFFFFFFFFFFFFFFFFFFFFFFFFFFFFF AND PUSH20 0xFFFFFFFFFFFFFFFFFFFFFFFFFFFFFFFFFFFFFFFF AND DUP2 MSTORE PUSH1 0x20 ADD SWAP1 DUP2 MSTORE PUSH1 0x20 ADD PUSH0 KECCAK256 DUP3 DUP2 SLOAD DUP2 LT PUSH2 0x9A9 JUMPI PUSH2 0x9A8 PUSH2 0x1C52 JUMP JUMPDEST JUMPDEST SWAP1 PUSH0 MSTORE PUSH1 0x20 PUSH0 KECCAK256 SWAP1 PUSH1 0x4 MUL ADD SWAP1 POP DUP1 PUSH1 0x3 ADD PUSH0 SWAP1 SLOAD SWAP1 PUSH2 0x100 EXP SWAP1 DIV PUSH1 0xFF AND ISZERO PUSH2 0xA08 JUMPI PUSH1 0x40 MLOAD PUSH32 0x8C379A000000000000000000000000000000000000000000000000000000000 DUP2 MSTORE PUSH1 0x4 ADD PUSH2 0x9FF SWAP1 PUSH2 0x1CC9 JUMP JUMPDEST PUSH1 0x40 MLOAD DUP1 SWAP2 SUB SWAP1 REVERT JUMPDEST PUSH0 PUSH2 0xA1F DUP3 PUSH0 ADD SLOAD DUP4 PUSH1 0x1 ADD SLOAD DUP5 PUSH1 0x2 ADD SLOAD PUSH2 0xDBB JUMP JUMPDEST DUP3 PUSH0 ADD SLOAD PUSH2 0xA2D SWAP2 SWAP1 PUSH2 0x1612 JUMP JUMPDEST SWAP1 POP DUP1 CALLVALUE LT ISZERO PUSH2 0xA72 JUMPI PUSH1 0x40 MLOAD PUSH32 0x8C379A000000000000000000000000000000000000000000000000000000000 DUP2 MSTORE PUSH1 0x4 ADD PUSH2 0xA69 SWAP1 PUSH2 0x1D57 JUMP JUMPDEST PUSH1 0x40 MLOAD DUP1 SWAP2 SUB SWAP1 REVERT JUMPDEST PUSH1 0x1 DUP3 PUSH1 0x3 ADD PUSH0 PUSH2 0x100 EXP DUP2 SLOAD DUP2 PUSH1 0xFF MUL NOT AND SWAP1 DUP4 ISZERO ISZERO MUL OR SWAP1 SSTORE POP CALLER PUSH20 0xFFFFFFFFFFFFFFFFFFFFFFFFFFFFFFFFFFFFFFFF AND PUSH32 0xC200A1F31DD659E356E0F112C82558E25F49F7B0F84438691CD96F5CB3558823 DUP3 PUSH1 0x40 MLOAD PUSH2 0xAD4 SWAP2 SWAP1 PUSH2 0x153E JUMP JUMPDEST PUSH1 0x40 MLOAD DUP1 SWAP2 SUB SWAP1 LOG2 POP POP POP JUMP JUMPDEST PUSH1 0x2 PUSH1 0x20 MSTORE DUP1 PUSH0 MSTORE PUSH1 0x40 PUSH0 KECCAK256 PUSH0 SWAP2 POP SWAP1 POP DUP1 PUSH0 ADD PUSH0 SWAP1 SLOAD SWAP1 PUSH2 0x100 EXP SWAP1 DIV PUSH20 0xFFFFFFFFFFFFFFFFFFFFFFFFFFFFFFFFFFFFFFFF AND SWAP1 DUP1 PUSH1 0x2 ADD SLOAD SWAP1 DUP1 PUSH1 0x3 ADD DUP1 SLOAD PUSH2 0xB2B SWAP1 PUSH2 0x1988 JUMP JUMPDEST DUP1 PUSH1 0x1F ADD PUSH1 0x20 DUP1 SWAP2 DIV MUL PUSH1 0x20 ADD PUSH1 0x40 MLOAD SWAP1 DUP2 ADD PUSH1 0x40 MSTORE DUP1 SWAP3 SWAP2 SWAP1 DUP2 DUP2 MSTORE PUSH1 0x20 ADD DUP3 DUP1 SLOAD PUSH2 0xB57 SWAP1 PUSH2 0x1988 JUMP JUMPDEST DUP1 ISZERO PUSH2 0xBA2 JUMPI DUP1 PUSH1 0x1F LT PUSH2 0xB79 JUMPI PUSH2 0x100 DUP1 DUP4 SLOAD DIV MUL DUP4 MSTORE SWAP2 PUSH1 0x20 ADD SWAP2 PUSH2 0xBA2 JUMP JUMPDEST DUP3 ADD SWAP2 SWAP1 PUSH0 MSTORE PUSH1 0x20 PUSH0 KECCAK256 SWAP1 JUMPDEST DUP2 SLOAD DUP2 MSTORE SWAP1 PUSH1 0x1 ADD SWAP1 PUSH1 0x20 ADD DUP1 DUP4 GT PUSH2 0xB85 JUMPI DUP3 SWAP1 SUB PUSH1 0x1F AND DUP3 ADD SWAP2 JUMPDEST POP POP POP POP POP SWAP1 DUP1 PUSH1 0x4 ADD PUSH0 SWAP1 SLOAD SWAP1 PUSH2 0x100 EXP SWAP1 DIV PUSH1 0xFF AND SWAP1 POP DUP5 JUMP JUMPDEST PUSH0 CALLVALUE GT PUSH2 0xC00 JUMPI PUSH1 0x40 MLOAD PUSH32 0x8C379A000000000000000000000000000000000000000000000000000000000 DUP2 MSTORE PUSH1 0x4 ADD PUSH2 0xBF7 SWAP1 PUSH2 0x1DE5 JUMP JUMPDEST PUSH1 0x40 MLOAD DUP1 SWAP2 SUB SWAP1 REVERT JUMPDEST CALLVALUE PUSH0 DUP1 CALLER PUSH20 0xFFFFFFFFFFFFFFFFFFFFFFFFFFFFFFFFFFFFFFFF AND PUSH20 0xFFFFFFFFFFFFFFFFFFFFFFFFFFFFFFFFFFFFFFFF AND DUP2 MSTORE PUSH1 0x20 ADD SWAP1 DUP2 MSTORE PUSH1 0x20 ADD PUSH0 KECCAK256 PUSH0 ADD PUSH0 DUP3 DUP3 SLOAD PUSH2 0xC4D SWAP2 SWAP1 PUSH2 0x1612 JUMP JUMPDEST SWAP3 POP POP DUP2 SWAP1 SSTORE POP CALLER PUSH20 0xFFFFFFFFFFFFFFFFFFFFFFFFFFFFFFFFFFFFFFFF AND PUSH32 0xD15C9547EA5C06670C0010CE19BC32D54682A4B3801ECE7F3AB0C3F17106B4BB CALLVALUE PUSH1 0x40 MLOAD PUSH2 0xC9A SWAP2 SWAP1 PUSH2 0x153E JUMP JUMPDEST PUSH1 0x40 MLOAD DUP1 SWAP2 SUB SWAP1 LOG2 JUMP JUMPDEST PUSH1 0x3C DUP2 JUMP JUMPDEST PUSH0 PUSH1 0x2 PUSH0 DUP4 DUP2 MSTORE PUSH1 0x20 ADD SWAP1 DUP2 MSTORE PUSH1 0x20 ADD PUSH0 KECCAK256 SWAP1 POP DUP1 PUSH1 0x4 ADD PUSH0 SWAP1 SLOAD SWAP1 PUSH2 0x100 EXP SWAP1 DIV PUSH1 0xFF AND ISZERO PUSH2 0xD0E JUMPI PUSH1 0x40 MLOAD PUSH32 0x8C379A000000000000000000000000000000000000000000000000000000000 DUP2 MSTORE PUSH1 0x4 ADD PUSH2 0xD05 SWAP1 PUSH2 0x1E4D JUMP JUMPDEST PUSH1 0x40 MLOAD DUP1 SWAP2 SUB SWAP1 REVERT JUMPDEST PUSH2 0xD18 DUP2 CALLER PUSH2 0xE0E JUMP JUMPDEST PUSH2 0xD57 JUMPI PUSH1 0x40 MLOAD PUSH32 0x8C379A000000000000000000000000000000000000000000000000000000000 DUP2 MSTORE PUSH1 0x4 ADD PUSH2 0xD4E SWAP1 PUSH2 0x1EB5 JUMP JUMPDEST PUSH1 0x40 MLOAD DUP1 SWAP2 SUB SWAP1 REVERT JUMPDEST PUSH1 0x1 DUP2 PUSH1 0x4 ADD PUSH0 PUSH2 0x100 EXP DUP2 SLOAD DUP2 PUSH1 0xFF MUL NOT AND SWAP1 DUP4 ISZERO ISZERO MUL OR SWAP1 SSTORE POP CALLER PUSH20 0xFFFFFFFFFFFFFFFFFFFFFFFFFFFFFFFFFFFFFFFF AND DUP3 PUSH32 0x7EFC7E3E06EFEC0944252879D6ED13A80E06353F99E0DDCEFDD6400391A8F5D8 PUSH1 0x40 MLOAD PUSH1 0x40 MLOAD DUP1 SWAP2 SUB SWAP1 LOG3 POP POP JUMP JUMPDEST PUSH0 DUP1 DUP3 TIMESTAMP GT PUSH2 0xDCA JUMPI PUSH0 PUSH2 0xDD7 JUMP JUMPDEST DUP3 TIMESTAMP PUSH2 0xDD6 SWAP2 SWAP1 PUSH2 0x174A JUMP JUMPDEST JUMPDEST SWAP1 POP PUSH0 PUSH4 0xBBF81E00 DUP3 DUP7 DUP9 PUSH2 0xDEC SWAP2 SWAP1 PUSH2 0x1ED3 JUMP JUMPDEST PUSH2 0xDF6 SWAP2 SWAP1 PUSH2 0x1ED3 JUMP JUMPDEST PUSH2 0xE00 SWAP2 SWAP1 PUSH2 0x1F41 JUMP JUMPDEST SWAP1 POP DUP1 SWAP3 POP POP POP SWAP4 SWAP3 POP POP POP JUMP JUMPDEST PUSH0 DUP1 PUSH0 SWAP1 POP JUMPDEST DUP4 PUSH1 0x1 ADD DUP1 SLOAD SWAP1 POP DUP2 LT ISZERO PUSH2 0xEAA JUMPI DUP3 PUSH20 0xFFFFFFFFFFFFFFFFFFFFFFFFFFFFFFFFFFFFFFFF AND DUP5 PUSH1 0x1 ADD DUP3 DUP2 SLOAD DUP2 LT PUSH2 0xE50 JUMPI PUSH2 0xE4F PUSH2 0x1C52 JUMP JUMPDEST JUMPDEST SWAP1 PUSH0 MSTORE PUSH1 0x20 PUSH0 KECCAK256 ADD PUSH0 SWAP1 SLOAD SWAP1 PUSH2 0x100 EXP SWAP1 DIV PUSH20 0xFFFFFFFFFFFFFFFFFFFFFFFFFFFFFFFFFFFFFFFF AND PUSH20 0xFFFFFFFFFFFFFFFFFFFFFFFFFFFFFFFFFFFFFFFF AND SUB PUSH2 0xE9D JUMPI PUSH1 0x1 SWAP2 POP POP PUSH2 0xEAF JUMP JUMPDEST DUP1 DUP1 PUSH1 0x1 ADD SWAP2 POP POP PUSH2 0xE14 JUMP JUMPDEST POP PUSH0 SWAP1 POP JUMPDEST SWAP3 SWAP2 POP POP JUMP JUMPDEST DUP3 DUP1 SLOAD DUP3 DUP3 SSTORE SWAP1 PUSH0 MSTORE PUSH1 0x20 PUSH0 KECCAK256 SWAP1 DUP2 ADD SWAP3 DUP3 ISZERO PUSH2 0xF2B JUMPI SWAP2 PUSH1 0x20 MUL DUP3 ADD JUMPDEST DUP3 DUP2 GT ISZERO PUSH2 0xF2A JUMPI DUP3 MLOAD DUP3 PUSH0 PUSH2 0x100 EXP DUP2 SLOAD DUP2 PUSH20 0xFFFFFFFFFFFFFFFFFFFFFFFFFFFFFFFFFFFFFFFF MUL NOT AND SWAP1 DUP4 PUSH20 0xFFFFFFFFFFFFFFFFFFFFFFFFFFFFFFFFFFFFFFFF AND MUL OR SWAP1 SSTORE POP SWAP2 PUSH1 0x20 ADD SWAP2 SWAP1 PUSH1 0x1 ADD SWAP1 PUSH2 0xED3 JUMP JUMPDEST JUMPDEST POP SWAP1 POP PUSH2 0xF38 SWAP2 SWAP1 PUSH2 0xF3C JUMP JUMPDEST POP SWAP1 JUMP JUMPDEST JUMPDEST DUP1 DUP3 GT ISZERO PUSH2 0xF53 JUMPI PUSH0 DUP2 PUSH0 SWAP1 SSTORE POP PUSH1 0x1 ADD PUSH2 0xF3D JUMP JUMPDEST POP SWAP1 JUMP JUMPDEST PUSH0 PUSH1 0x40 MLOAD SWAP1 POP SWAP1 JUMP JUMPDEST PUSH0 DUP1 REVERT JUMPDEST PUSH0 DUP1 REVERT JUMPDEST PUSH0 DUP2 SWAP1 POP SWAP2 SWAP1 POP JUMP JUMPDEST PUSH2 0xF7A DUP2 PUSH2 0xF68 JUMP JUMPDEST DUP2 EQ PUSH2 0xF84 JUMPI PUSH0 DUP1 REVERT JUMPDEST POP JUMP JUMPDEST PUSH0 DUP2 CALLDATALOAD SWAP1 POP PUSH2 0xF95 DUP2 PUSH2 0xF71 JUMP JUMPDEST SWAP3 SWAP2 POP POP JUMP JUMPDEST PUSH0 DUP1 PUSH0 PUSH1 0x60 DUP5 DUP7 SUB SLT ISZERO PUSH2 0xFB2 JUMPI PUSH2 0xFB1 PUSH2 0xF60 JUMP JUMPDEST JUMPDEST PUSH0 PUSH2 0xFBF DUP7 DUP3 DUP8 ADD PUSH2 0xF87 JUMP JUMPDEST SWAP4 POP POP PUSH1 0x20 PUSH2 0xFD0 DUP7 DUP3 DUP8 ADD PUSH2 0xF87 JUMP JUMPDEST SWAP3 POP POP PUSH1 0x40 PUSH2 0xFE1 DUP7 DUP3 DUP8 ADD PUSH2 0xF87 JUMP JUMPDEST SWAP2 POP POP SWAP3 POP SWAP3 POP SWAP3 JUMP JUMPDEST PUSH0 PUSH1 0x20 DUP3 DUP5 SUB SLT ISZERO PUSH2 0x1000 JUMPI PUSH2 0xFFF PUSH2 0xF60 JUMP JUMPDEST JUMPDEST PUSH0 PUSH2 0x100D DUP5 DUP3 DUP6 ADD PUSH2 0xF87 JUMP JUMPDEST SWAP2 POP POP SWAP3 SWAP2 POP POP JUMP JUMPDEST PUSH0 PUSH20 0xFFFFFFFFFFFFFFFFFFFFFFFFFFFFFFFFFFFFFFFF DUP3 AND SWAP1 POP SWAP2 SWAP1 POP JUMP JUMPDEST PUSH0 PUSH2 0x103F DUP3 PUSH2 0x1016 JUMP JUMPDEST SWAP1 POP SWAP2 SWAP1 POP JUMP JUMPDEST PUSH2 0x104F DUP2 PUSH2 0x1035 JUMP JUMPDEST DUP2 EQ PUSH2 0x1059 JUMPI PUSH0 DUP1 REVERT JUMPDEST POP JUMP JUMPDEST PUSH0 DUP2 CALLDATALOAD SWAP1 POP PUSH2 0x106A DUP2 PUSH2 0x1046 JUMP JUMPDEST SWAP3 SWAP2 POP POP JUMP JUMPDEST PUSH0 PUSH1 0x20 DUP3 DUP5 SUB SLT ISZERO PUSH2 0x1085 JUMPI PUSH2 0x1084 PUSH2 0xF60 JUMP JUMPDEST JUMPDEST PUSH0 PUSH2 0x1092 DUP5 DUP3 DUP6 ADD PUSH2 0x105C JUMP JUMPDEST SWAP2 POP POP SWAP3 SWAP2 POP POP JUMP JUMPDEST PUSH2 0x10A4 DUP2 PUSH2 0xF68 JUMP JUMPDEST DUP3 MSTORE POP POP JUMP JUMPDEST PUSH0 PUSH1 0x40 DUP3 ADD SWAP1 POP PUSH2 0x10BD PUSH0 DUP4 ADD DUP6 PUSH2 0x109B JUMP JUMPDEST PUSH2 0x10CA PUSH1 0x20 DUP4 ADD DUP5 PUSH2 0x109B JUMP JUMPDEST SWAP4 SWAP3 POP POP POP JUMP JUMPDEST PUSH2 0x10DA DUP2 PUSH2 0x1035 JUMP JUMPDEST DUP3 MSTORE POP POP JUMP JUMPDEST PUSH0 PUSH1 0x20 DUP3 ADD SWAP1 POP PUSH2 0x10F3 PUSH0 DUP4 ADD DUP5 PUSH2 0x10D1 JUMP JUMPDEST SWAP3 SWAP2 POP POP JUMP JUMPDEST PUSH0 DUP1 PUSH1 0x40 DUP4 DUP6 SUB SLT ISZERO PUSH2 0x110F JUMPI PUSH2 0x110E PUSH2 0xF60 JUMP JUMPDEST JUMPDEST PUSH0 PUSH2 0x111C DUP6 DUP3 DUP7 ADD PUSH2 0x105C JUMP JUMPDEST SWAP3 POP POP PUSH1 0x20 PUSH2 0x112D DUP6 DUP3 DUP7 ADD PUSH2 0xF87 JUMP JUMPDEST SWAP2 POP POP SWAP3 POP SWAP3 SWAP1 POP JUMP JUMPDEST PUSH0 DUP2 ISZERO ISZERO SWAP1 POP SWAP2 SWAP1 POP JUMP JUMPDEST PUSH2 0x114B DUP2 PUSH2 0x1137 JUMP JUMPDEST DUP3 MSTORE POP POP JUMP JUMPDEST PUSH0 PUSH1 0x80 DUP3 ADD SWAP1 POP PUSH2 0x1164 PUSH0 DUP4 ADD DUP8 PUSH2 0x109B JUMP JUMPDEST PUSH2 0x1171 PUSH1 0x20 DUP4 ADD DUP7 PUSH2 0x109B JUMP JUMPDEST PUSH2 0x117E PUSH1 0x40 DUP4 ADD DUP6 PUSH2 0x109B JUMP JUMPDEST PUSH2 0x118B PUSH1 0x60 DUP4 ADD DUP5 PUSH2 0x1142 JUMP JUMPDEST SWAP6 SWAP5 POP POP POP POP POP JUMP JUMPDEST PUSH0 DUP1 REVERT JUMPDEST PUSH0 PUSH1 0x1F NOT PUSH1 0x1F DUP4 ADD AND SWAP1 POP SWAP2 SWAP1 POP JUMP JUMPDEST PUSH32 0x4E487B7100000000000000000000000000000000000000000000000000000000 PUSH0 MSTORE PUSH1 0x41 PUSH1 0x4 MSTORE PUSH1 0x24 PUSH0 REVERT JUMPDEST PUSH2 0x11DE DUP3 PUSH2 0x1198 JUMP JUMPDEST DUP2 ADD DUP2 DUP2 LT PUSH8 0xFFFFFFFFFFFFFFFF DUP3 GT OR ISZERO PUSH2 0x11FD JUMPI PUSH2 0x11FC PUSH2 0x11A8 JUMP JUMPDEST JUMPDEST DUP1 PUSH1 0x40 MSTORE POP POP POP JUMP JUMPDEST PUSH0 PUSH2 0x120F PUSH2 0xF57 JUMP JUMPDEST SWAP1 POP PUSH2 0x121B DUP3 DUP3 PUSH2 0x11D5 JUMP JUMPDEST SWAP2 SWAP1 POP JUMP JUMPDEST PUSH0 PUSH8 0xFFFFFFFFFFFFFFFF DUP3 GT ISZERO PUSH2 0x123A JUMPI PUSH2 0x1239 PUSH2 0x11A8 JUMP JUMPDEST JUMPDEST PUSH1 0x20 DUP3 MUL SWAP1 POP PUSH1 0x20 DUP2 ADD SWAP1 POP SWAP2 SWAP1 POP JUMP JUMPDEST PUSH0 DUP1 REVERT JUMPDEST PUSH0 PUSH2 0x1261 PUSH2 0x125C DUP5 PUSH2 0x1220 JUMP JUMPDEST PUSH2 0x1206 JUMP JUMPDEST SWAP1 POP DUP1 DUP4 DUP3 MSTORE PUSH1 0x20 DUP3 ADD SWAP1 POP PUSH1 0x20 DUP5 MUL DUP4 ADD DUP6 DUP2 GT ISZERO PUSH2 0x1284 JUMPI PUSH2 0x1283 PUSH2 0x124B JUMP JUMPDEST JUMPDEST DUP4 JUMPDEST DUP2 DUP2 LT ISZERO PUSH2 0x12AD JUMPI DUP1 PUSH2 0x1299 DUP9 DUP3 PUSH2 0x105C JUMP JUMPDEST DUP5 MSTORE PUSH1 0x20 DUP5 ADD SWAP4 POP POP PUSH1 0x20 DUP2 ADD SWAP1 POP PUSH2 0x1286 JUMP JUMPDEST POP POP POP SWAP4 SWAP3 POP POP POP JUMP JUMPDEST PUSH0 DUP3 PUSH1 0x1F DUP4 ADD SLT PUSH2 0x12CB JUMPI PUSH2 0x12CA PUSH2 0x1194 JUMP JUMPDEST JUMPDEST DUP2 CALLDATALOAD PUSH2 0x12DB DUP5 DUP3 PUSH1 0x20 DUP7 ADD PUSH2 0x124F JUMP JUMPDEST SWAP2 POP POP SWAP3 SWAP2 POP POP JUMP JUMPDEST PUSH0 DUP1 REVERT JUMPDEST PUSH0 PUSH8 0xFFFFFFFFFFFFFFFF DUP3 GT ISZERO PUSH2 0x1302 JUMPI PUSH2 0x1301 PUSH2 0x11A8 JUMP JUMPDEST JUMPDEST PUSH2 0x130B DUP3 PUSH2 0x1198 JUMP JUMPDEST SWAP1 POP PUSH1 0x20 DUP2 ADD SWAP1 POP SWAP2 SWAP1 POP JUMP JUMPDEST DUP3 DUP2 DUP4 CALLDATACOPY PUSH0 DUP4 DUP4 ADD MSTORE POP POP POP JUMP JUMPDEST PUSH0 PUSH2 0x1338 PUSH2 0x1333 DUP5 PUSH2 0x12E8 JUMP JUMPDEST PUSH2 0x1206 JUMP JUMPDEST SWAP1 POP DUP3 DUP2 MSTORE PUSH1 0x20 DUP2 ADD DUP5 DUP5 DUP5 ADD GT ISZERO PUSH2 0x1354 JUMPI PUSH2 0x1353 PUSH2 0x12E4 JUMP JUMPDEST JUMPDEST PUSH2 0x135F DUP5 DUP3 DUP6 PUSH2 0x1318 JUMP JUMPDEST POP SWAP4 SWAP3 POP POP POP JUMP JUMPDEST PUSH0 DUP3 PUSH1 0x1F DUP4 ADD SLT PUSH2 0x137B JUMPI PUSH2 0x137A PUSH2 0x1194 JUMP JUMPDEST JUMPDEST DUP2 CALLDATALOAD PUSH2 0x138B DUP5 DUP3 PUSH1 0x20 DUP7 ADD PUSH2 0x1326 JUMP JUMPDEST SWAP2 POP POP SWAP3 SWAP2 POP POP JUMP JUMPDEST PUSH0 DUP1 PUSH0 PUSH1 0x60 DUP5 DUP7 SUB SLT ISZERO PUSH2 0x13AB JUMPI PUSH2 0x13AA PUSH2 0xF60 JUMP JUMPDEST JUMPDEST PUSH0 DUP5 ADD CALLDATALOAD PUSH8 0xFFFFFFFFFFFFFFFF DUP2 GT ISZERO PUSH2 0x13C8 JUMPI PUSH2 0x13C7 PUSH2 0xF64 JUMP JUMPDEST JUMPDEST PUSH2 0x13D4 DUP7 DUP3 DUP8 ADD PUSH2 0x12B7 JUMP JUMPDEST SWAP4 POP POP PUSH1 0x20 PUSH2 0x13E5 DUP7 DUP3 DUP8 ADD PUSH2 0xF87 JUMP JUMPDEST SWAP3 POP POP PUSH1 0x40 DUP5 ADD CALLDATALOAD PUSH8 0xFFFFFFFFFFFFFFFF DUP2 GT ISZERO PUSH2 0x1406 JUMPI PUSH2 0x1405 PUSH2 0xF64 JUMP JUMPDEST JUMPDEST PUSH2 0x1412 DUP7 DUP3 DUP8 ADD PUSH2 0x1367 JUMP JUMPDEST SWAP2 POP POP SWAP3 POP SWAP3 POP SWAP3 JUMP JUMPDEST PUSH0 DUP2 SWAP1 POP SWAP2 SWAP1 POP JUMP JUMPDEST PUSH2 0x142E DUP2 PUSH2 0x141C JUMP JUMPDEST DUP2 EQ PUSH2 0x1438 JUMPI PUSH0 DUP1 REVERT JUMPDEST POP JUMP JUMPDEST PUSH0 DUP2 CALLDATALOAD SWAP1 POP PUSH2 0x1449 DUP2 PUSH2 0x1425 JUMP JUMPDEST SWAP3 SWAP2 POP POP JUMP JUMPDEST PUSH0 PUSH1 0x20 DUP3 DUP5 SUB SLT ISZERO PUSH2 0x1464 JUMPI PUSH2 0x1463 PUSH2 0xF60 JUMP JUMPDEST JUMPDEST PUSH0 PUSH2 0x1471 DUP5 DUP3 DUP6 ADD PUSH2 0x143B JUMP JUMPDEST SWAP2 POP POP SWAP3 SWAP2 POP POP JUMP JUMPDEST PUSH0 DUP2 MLOAD SWAP1 POP SWAP2 SWAP1 POP JUMP JUMPDEST PUSH0 DUP3 DUP3 MSTORE PUSH1 0x20 DUP3 ADD SWAP1 POP SWAP3 SWAP2 POP POP JUMP JUMPDEST PUSH0 JUMPDEST DUP4 DUP2 LT ISZERO PUSH2 0x14B1 JUMPI DUP1 DUP3 ADD MLOAD DUP2 DUP5 ADD MSTORE PUSH1 0x20 DUP2 ADD SWAP1 POP PUSH2 0x1496 JUMP JUMPDEST PUSH0 DUP5 DUP5 ADD MSTORE POP POP POP POP JUMP JUMPDEST PUSH0 PUSH2 0x14C6 DUP3 PUSH2 0x147A JUMP JUMPDEST PUSH2 0x14D0 DUP2 DUP6 PUSH2 0x1484 JUMP JUMPDEST SWAP4 POP PUSH2 0x14E0 DUP2 DUP6 PUSH1 0x20 DUP7 ADD PUSH2 0x1494 JUMP JUMPDEST PUSH2 0x14E9 DUP2 PUSH2 0x1198 JUMP JUMPDEST DUP5 ADD SWAP2 POP POP SWAP3 SWAP2 POP POP JUMP JUMPDEST PUSH0 PUSH1 0x80 DUP3 ADD SWAP1 POP PUSH2 0x1507 PUSH0 DUP4 ADD DUP8 PUSH2 0x10D1 JUMP JUMPDEST PUSH2 0x1514 PUSH1 0x20 DUP4 ADD DUP7 PUSH2 0x109B JUMP JUMPDEST DUP2 DUP2 SUB PUSH1 0x40 DUP4 ADD MSTORE PUSH2 0x1526 DUP2 DUP6 PUSH2 0x14BC JUMP JUMPDEST SWAP1 POP PUSH2 0x1535 PUSH1 0x60 DUP4 ADD DUP5 PUSH2 0x1142 JUMP JUMPDEST SWAP6 SWAP5 POP POP POP POP POP JUMP JUMPDEST PUSH0 PUSH1 0x20 DUP3 ADD SWAP1 POP PUSH2 0x1551 PUSH0 DUP4 ADD DUP5 PUSH2 0x109B JUMP JUMPDEST SWAP3 SWAP2 POP POP JUMP JUMPDEST PUSH32 0x4C6F616E20616D6F756E74206D7573742062652067726561746572207468616E PUSH0 DUP3 ADD MSTORE PUSH32 0x2030000000000000000000000000000000000000000000000000000000000000 PUSH1 0x20 DUP3 ADD MSTORE POP JUMP JUMPDEST PUSH0 PUSH2 0x15B1 PUSH1 0x22 DUP4 PUSH2 0x1484 JUMP JUMPDEST SWAP2 POP PUSH2 0x15BC DUP3 PUSH2 0x1557 JUMP JUMPDEST PUSH1 0x40 DUP3 ADD SWAP1 POP SWAP2 SWAP1 POP JUMP JUMPDEST PUSH0 PUSH1 0x20 DUP3 ADD SWAP1 POP DUP2 DUP2 SUB PUSH0 DUP4 ADD MSTORE PUSH2 0x15DE DUP2 PUSH2 0x15A5 JUMP JUMPDEST SWAP1 POP SWAP2 SWAP1 POP JUMP JUMPDEST PUSH32 0x4E487B7100000000000000000000000000000000000000000000000000000000 PUSH0 MSTORE PUSH1 0x11 PUSH1 0x4 MSTORE PUSH1 0x24 PUSH0 REVERT JUMPDEST PUSH0 PUSH2 0x161C DUP3 PUSH2 0xF68 JUMP JUMPDEST SWAP2 POP PUSH2 0x1627 DUP4 PUSH2 0xF68 JUMP JUMPDEST SWAP3 POP DUP3 DUP3 ADD SWAP1 POP DUP1 DUP3 GT ISZERO PUSH2 0x163F JUMPI PUSH2 0x163E PUSH2 0x15E5 JUMP JUMPDEST JUMPDEST SWAP3 SWAP2 POP POP JUMP JUMPDEST PUSH0 PUSH1 0x60 DUP3 ADD SWAP1 POP PUSH2 0x1658 PUSH0 DUP4 ADD DUP7 PUSH2 0x109B JUMP JUMPDEST PUSH2 0x1665 PUSH1 0x20 DUP4 ADD DUP6 PUSH2 0x109B JUMP JUMPDEST PUSH2 0x1672 PUSH1 0x40 DUP4 ADD DUP5 PUSH2 0x109B JUMP JUMPDEST SWAP5 SWAP4 POP POP POP POP JUMP JUMPDEST PUSH32 0x496E73756666696369656E742062616C616E6365000000000000000000000000 PUSH0 DUP3 ADD MSTORE POP JUMP JUMPDEST PUSH0 PUSH2 0x16AE PUSH1 0x14 DUP4 PUSH2 0x1484 JUMP JUMPDEST SWAP2 POP PUSH2 0x16B9 DUP3 PUSH2 0x167A JUMP JUMPDEST PUSH1 0x20 DUP3 ADD SWAP1 POP SWAP2 SWAP1 POP JUMP JUMPDEST PUSH0 PUSH1 0x20 DUP3 ADD SWAP1 POP DUP2 DUP2 SUB PUSH0 DUP4 ADD MSTORE PUSH2 0x16DB DUP2 PUSH2 0x16A2 JUMP JUMPDEST SWAP1 POP SWAP2 SWAP1 POP JUMP JUMPDEST PUSH32 0x5769746864726177616C206973206C6F636B6564000000000000000000000000 PUSH0 DUP3 ADD MSTORE POP JUMP JUMPDEST PUSH0 PUSH2 0x1716 PUSH1 0x14 DUP4 PUSH2 0x1484 JUMP JUMPDEST SWAP2 POP PUSH2 0x1721 DUP3 PUSH2 0x16E2 JUMP JUMPDEST PUSH1 0x20 DUP3 ADD SWAP1 POP SWAP2 SWAP1 POP JUMP JUMPDEST PUSH0 PUSH1 0x20 DUP3 ADD SWAP1 POP DUP2 DUP2 SUB PUSH0 DUP4 ADD MSTORE PUSH2 0x1743 DUP2 PUSH2 0x170A JUMP JUMPDEST SWAP1 POP SWAP2 SWAP1 POP JUMP JUMPDEST PUSH0 PUSH2 0x1754 DUP3 PUSH2 0xF68 JUMP JUMPDEST SWAP2 POP PUSH2 0x175F DUP4 PUSH2 0xF68 JUMP JUMPDEST SWAP3 POP DUP3 DUP3 SUB SWAP1 POP DUP2 DUP2 GT ISZERO PUSH2 0x1777 JUMPI PUSH2 0x1776 PUSH2 0x15E5 JUMP JUMPDEST JUMPDEST SWAP3 SWAP2 POP POP JUMP JUMPDEST PUSH32 0x4F6E6C7920746865206F776E65722063616E20706572666F726D207468697320 PUSH0 DUP3 ADD MSTORE PUSH32 0x616374696F6E0000000000000000000000000000000000000000000000000000 PUSH1 0x20 DUP3 ADD MSTORE POP JUMP JUMPDEST PUSH0 PUSH2 0x17D7 PUSH1 0x26 DUP4 PUSH2 0x1484 JUMP JUMPDEST SWAP2 POP PUSH2 0x17E2 DUP3 PUSH2 0x177D JUMP JUMPDEST PUSH1 0x40 DUP3 ADD SWAP1 POP SWAP2 SWAP1 POP JUMP JUMPDEST PUSH0 PUSH1 0x20 DUP3 ADD SWAP1 POP DUP2 DUP2 SUB PUSH0 DUP4 ADD MSTORE PUSH2 0x1804 DUP2 PUSH2 0x17CB JUMP JUMPDEST SWAP1 POP SWAP2 SWAP1 POP JUMP JUMPDEST PUSH32 0x4174206C656173742074776F207369676E657273207265717569726564000000 PUSH0 DUP3 ADD MSTORE POP JUMP JUMPDEST PUSH0 PUSH2 0x183F PUSH1 0x1D DUP4 PUSH2 0x1484 JUMP JUMPDEST SWAP2 POP PUSH2 0x184A DUP3 PUSH2 0x180B JUMP JUMPDEST PUSH1 0x20 DUP3 ADD SWAP1 POP SWAP2 SWAP1 POP JUMP JUMPDEST PUSH0 PUSH1 0x20 DUP3 ADD SWAP1 POP DUP2 DUP2 SUB PUSH0 DUP4 ADD MSTORE PUSH2 0x186C DUP2 PUSH2 0x1833 JUMP JUMPDEST SWAP1 POP SWAP2 SWAP1 POP JUMP JUMPDEST PUSH0 DUP2 SWAP1 POP SWAP2 SWAP1 POP JUMP JUMPDEST PUSH2 0x188D PUSH2 0x1888 DUP3 PUSH2 0xF68 JUMP JUMPDEST PUSH2 0x1873 JUMP JUMPDEST DUP3 MSTORE POP POP JUMP JUMPDEST PUSH0 DUP2 PUSH1 0x60 SHL SWAP1 POP SWAP2 SWAP1 POP JUMP JUMPDEST PUSH0 PUSH2 0x18A9 DUP3 PUSH2 0x1893 JUMP JUMPDEST SWAP1 POP SWAP2 SWAP1 POP JUMP JUMPDEST PUSH0 PUSH2 0x18BA DUP3 PUSH2 0x189F JUMP JUMPDEST SWAP1 POP SWAP2 SWAP1 POP JUMP JUMPDEST PUSH2 0x18D2 PUSH2 0x18CD DUP3 PUSH2 0x1035 JUMP JUMPDEST PUSH2 0x18B0 JUMP JUMPDEST DUP3 MSTORE POP POP JUMP JUMPDEST PUSH0 DUP2 SWAP1 POP SWAP3 SWAP2 POP POP JUMP JUMPDEST PUSH0 PUSH2 0x18EC DUP3 PUSH2 0x147A JUMP JUMPDEST PUSH2 0x18F6 DUP2 DUP6 PUSH2 0x18D8 JUMP JUMPDEST SWAP4 POP PUSH2 0x1906 DUP2 DUP6 PUSH1 0x20 DUP7 ADD PUSH2 0x1494 JUMP JUMPDEST DUP1 DUP5 ADD SWAP2 POP POP SWAP3 SWAP2 POP POP JUMP JUMPDEST PUSH0 PUSH2 0x191D DUP3 DUP8 PUSH2 0x187C JUMP JUMPDEST PUSH1 0x20 DUP3 ADD SWAP2 POP PUSH2 0x192D DUP3 DUP7 PUSH2 0x18C1 JUMP JUMPDEST PUSH1 0x14 DUP3 ADD SWAP2 POP PUSH2 0x193D DUP3 DUP6 PUSH2 0x187C JUMP JUMPDEST PUSH1 0x20 DUP3 ADD SWAP2 POP PUSH2 0x194D DUP3 DUP5 PUSH2 0x18E2 JUMP JUMPDEST SWAP2 POP DUP2 SWAP1 POP SWAP6 SWAP5 POP POP POP POP POP JUMP JUMPDEST PUSH32 0x4E487B7100000000000000000000000000000000000000000000000000000000 PUSH0 MSTORE PUSH1 0x22 PUSH1 0x4 MSTORE PUSH1 0x24 PUSH0 REVERT JUMPDEST PUSH0 PUSH1 0x2 DUP3 DIV SWAP1 POP PUSH1 0x1 DUP3 AND DUP1 PUSH2 0x199F JUMPI PUSH1 0x7F DUP3 AND SWAP2 POP JUMPDEST PUSH1 0x20 DUP3 LT DUP2 SUB PUSH2 0x19B2 JUMPI PUSH2 0x19B1 PUSH2 0x195B JUMP JUMPDEST JUMPDEST POP SWAP2 SWAP1 POP JUMP JUMPDEST PUSH0 DUP2 SWAP1 POP DUP2 PUSH0 MSTORE PUSH1 0x20 PUSH0 KECCAK256 SWAP1 POP SWAP2 SWAP1 POP JUMP JUMPDEST PUSH0 PUSH1 0x20 PUSH1 0x1F DUP4 ADD DIV SWAP1 POP SWAP2 SWAP1 POP JUMP JUMPDEST PUSH0 DUP3 DUP3 SHL SWAP1 POP SWAP3 SWAP2 POP POP JUMP JUMPDEST PUSH0 PUSH1 0x8 DUP4 MUL PUSH2 0x1A14 PUSH32 0xFFFFFFFFFFFFFFFFFFFFFFFFFFFFFFFFFFFFFFFFFFFFFFFFFFFFFFFFFFFFFFFF DUP3 PUSH2 0x19D9 JUMP JUMPDEST PUSH2 0x1A1E DUP7 DUP4 PUSH2 0x19D9 JUMP JUMPDEST SWAP6 POP DUP1 NOT DUP5 AND SWAP4 POP DUP1 DUP7 AND DUP5 OR SWAP3 POP POP POP SWAP4 SWAP3 POP POP POP JUMP JUMPDEST PUSH0 DUP2 SWAP1 POP SWAP2 SWAP1 POP JUMP JUMPDEST PUSH0 PUSH2 0x1A59 PUSH2 0x1A54 PUSH2 0x1A4F DUP5 PUSH2 0xF68 JUMP JUMPDEST PUSH2 0x1A36 JUMP JUMPDEST PUSH2 0xF68 JUMP JUMPDEST SWAP1 POP SWAP2 SWAP1 POP JUMP JUMPDEST PUSH0 DUP2 SWAP1 POP SWAP2 SWAP1 POP JUMP JUMPDEST PUSH2 0x1A72 DUP4 PUSH2 0x1A3F JUMP JUMPDEST PUSH2 0x1A86 PUSH2 0x1A7E DUP3 PUSH2 0x1A60 JUMP JUMPDEST DUP5 DUP5 SLOAD PUSH2 0x19E5 JUMP JUMPDEST DUP3 SSTORE POP POP POP POP JUMP JUMPDEST PUSH0 SWAP1 JUMP JUMPDEST PUSH2 0x1A9A PUSH2 0x1A8E JUMP JUMPDEST PUSH2 0x1AA5 DUP2 DUP5 DUP5 PUSH2 0x1A69 JUMP JUMPDEST POP POP POP JUMP JUMPDEST JUMPDEST DUP2 DUP2 LT ISZERO PUSH2 0x1AC8 JUMPI PUSH2 0x1ABD PUSH0 DUP3 PUSH2 0x1A92 JUMP JUMPDEST PUSH1 0x1 DUP2 ADD SWAP1 POP PUSH2 0x1AAB JUMP JUMPDEST POP POP JUMP JUMPDEST PUSH1 0x1F DUP3 GT ISZERO PUSH2 0x1B0D JUMPI PUSH2 0x1ADE DUP2 PUSH2 0x19B8 JUMP JUMPDEST PUSH2 0x1AE7 DUP5 PUSH2 0x19CA JUMP JUMPDEST DUP2 ADD PUSH1 0x20 DUP6 LT ISZERO PUSH2 0x1AF6 JUMPI DUP2 SWAP1 POP JUMPDEST PUSH2 0x1B0A PUSH2 0x1B02 DUP6 PUSH2 0x19CA JUMP JUMPDEST DUP4 ADD DUP3 PUSH2 0x1AAA JUMP JUMPDEST POP POP JUMPDEST POP POP POP JUMP JUMPDEST PUSH0 DUP3 DUP3 SHR SWAP1 POP SWAP3 SWAP2 POP POP JUMP JUMPDEST PUSH0 PUSH2 0x1B2D PUSH0 NOT DUP5 PUSH1 0x8 MUL PUSH2 0x1B12 JUMP JUMPDEST NOT DUP1 DUP4 AND SWAP2 POP POP SWAP3 SWAP2 POP POP JUMP JUMPDEST PUSH0 PUSH2 0x1B45 DUP4 DUP4 PUSH2 0x1B1E JUMP JUMPDEST SWAP2 POP DUP3 PUSH1 0x2 MUL DUP3 OR SWAP1 POP SWAP3 SWAP2 POP POP JUMP JUMPDEST PUSH2 0x1B5E DUP3 PUSH2 0x147A JUMP JUMPDEST PUSH8 0xFFFFFFFFFFFFFFFF DUP2 GT ISZERO PUSH2 0x1B77 JUMPI PUSH2 0x1B76 PUSH2 0x11A8 JUMP JUMPDEST JUMPDEST PUSH2 0x1B81 DUP3 SLOAD PUSH2 0x1988 JUMP JUMPDEST PUSH2 0x1B8C DUP3 DUP3 DUP6 PUSH2 0x1ACC JUMP JUMPDEST PUSH0 PUSH1 0x20 SWAP1 POP PUSH1 0x1F DUP4 GT PUSH1 0x1 DUP2 EQ PUSH2 0x1BBD JUMPI PUSH0 DUP5 ISZERO PUSH2 0x1BAB JUMPI DUP3 DUP8 ADD MLOAD SWAP1 POP JUMPDEST PUSH2 0x1BB5 DUP6 DUP3 PUSH2 0x1B3A JUMP JUMPDEST DUP7 SSTORE POP PUSH2 0x1C1C JUMP JUMPDEST PUSH1 0x1F NOT DUP5 AND PUSH2 0x1BCB DUP7 PUSH2 0x19B8 JUMP JUMPDEST PUSH0 JUMPDEST DUP3 DUP2 LT ISZERO PUSH2 0x1BF2 JUMPI DUP5 DUP10 ADD MLOAD DUP3 SSTORE PUSH1 0x1 DUP3 ADD SWAP2 POP PUSH1 0x20 DUP6 ADD SWAP5 POP PUSH1 0x20 DUP2 ADD SWAP1 POP PUSH2 0x1BCD JUMP JUMPDEST DUP7 DUP4 LT ISZERO PUSH2 0x1C0F JUMPI DUP5 DUP10 ADD MLOAD PUSH2 0x1C0B PUSH1 0x1F DUP10 AND DUP3 PUSH2 0x1B1E JUMP JUMPDEST DUP4 SSTORE POP JUMPDEST PUSH1 0x1 PUSH1 0x2 DUP9 MUL ADD DUP9 SSTORE POP POP POP JUMPDEST POP POP POP POP POP POP JUMP JUMPDEST PUSH0 PUSH1 0x40 DUP3 ADD SWAP1 POP PUSH2 0x1C37 PUSH0 DUP4 ADD DUP6 PUSH2 0x109B JUMP JUMPDEST DUP2 DUP2 SUB PUSH1 0x20 DUP4 ADD MSTORE PUSH2 0x1C49 DUP2 DUP5 PUSH2 0x14BC JUMP JUMPDEST SWAP1 POP SWAP4 SWAP3 POP POP POP JUMP JUMPDEST PUSH32 0x4E487B7100000000000000000000000000000000000000000000000000000000 PUSH0 MSTORE PUSH1 0x32 PUSH1 0x4 MSTORE PUSH1 0x24 PUSH0 REVERT JUMPDEST PUSH32 0x4C6F616E20697320616C72656164792072657061696400000000000000000000 PUSH0 DUP3 ADD MSTORE POP JUMP JUMPDEST PUSH0 PUSH2 0x1CB3 PUSH1 0x16 DUP4 PUSH2 0x1484 JUMP JUMPDEST SWAP2 POP PUSH2 0x1CBE DUP3 PUSH2 0x1C7F JUMP JUMPDEST PUSH1 0x20 DUP3 ADD SWAP1 POP SWAP2 SWAP1 POP JUMP JUMPDEST PUSH0 PUSH1 0x20 DUP3 ADD SWAP1 POP DUP2 DUP2 SUB PUSH0 DUP4 ADD MSTORE PUSH2 0x1CE0 DUP2 PUSH2 0x1CA7 JUMP JUMPDEST SWAP1 POP SWAP2 SWAP1 POP JUMP JUMPDEST PUSH32 0x496E73756666696369656E7420616D6F756E7420746F20726570617920746865 PUSH0 DUP3 ADD MSTORE PUSH32 0x206C6F616E000000000000000000000000000000000000000000000000000000 PUSH1 0x20 DUP3 ADD MSTORE POP JUMP JUMPDEST PUSH0 PUSH2 0x1D41 PUSH1 0x25 DUP4 PUSH2 0x1484 JUMP JUMPDEST SWAP2 POP PUSH2 0x1D4C DUP3 PUSH2 0x1CE7 JUMP JUMPDEST PUSH1 0x40 DUP3 ADD SWAP1 POP SWAP2 SWAP1 POP JUMP JUMPDEST PUSH0 PUSH1 0x20 DUP3 ADD SWAP1 POP DUP2 DUP2 SUB PUSH0 DUP4 ADD MSTORE PUSH2 0x1D6E DUP2 PUSH2 0x1D35 JUMP JUMPDEST SWAP1 POP SWAP2 SWAP1 POP JUMP JUMPDEST PUSH32 0x4465706F7369742076616C7565206D7573742062652067726561746572207468 PUSH0 DUP3 ADD MSTORE PUSH32 0x616E203000000000000000000000000000000000000000000000000000000000 PUSH1 0x20 DUP3 ADD MSTORE POP JUMP JUMPDEST PUSH0 PUSH2 0x1DCF PUSH1 0x24 DUP4 PUSH2 0x1484 JUMP JUMPDEST SWAP2 POP PUSH2 0x1DDA DUP3 PUSH2 0x1D75 JUMP JUMPDEST PUSH1 0x40 DUP3 ADD SWAP1 POP SWAP2 SWAP1 POP JUMP JUMPDEST PUSH0 PUSH1 0x20 DUP3 ADD SWAP1 POP DUP2 DUP2 SUB PUSH0 DUP4 ADD MSTORE PUSH2 0x1DFC DUP2 PUSH2 0x1DC3 JUMP JUMPDEST SWAP1 POP SWAP2 SWAP1 POP JUMP JUMPDEST PUSH32 0x5472616E73616374696F6E20616C726561647920657865637574656400000000 PUSH0 DUP3 ADD MSTORE POP JUMP JUMPDEST PUSH0 PUSH2 0x1E37 PUSH1 0x1C DUP4 PUSH2 0x1484 JUMP JUMPDEST SWAP2 POP PUSH2 0x1E42 DUP3 PUSH2 0x1E03 JUMP JUMPDEST PUSH1 0x20 DUP3 ADD SWAP1 POP SWAP2 SWAP1 POP JUMP JUMPDEST PUSH0 PUSH1 0x20 DUP3 ADD SWAP1 POP DUP2 DUP2 SUB PUSH0 DUP4 ADD MSTORE PUSH2 0x1E64 DUP2 PUSH2 0x1E2B JUMP JUMPDEST SWAP1 POP SWAP2 SWAP1 POP JUMP JUMPDEST PUSH32 0x43616C6C6572206973206E6F742061207369676E657200000000000000000000 PUSH0 DUP3 ADD MSTORE POP JUMP JUMPDEST PUSH0 PUSH2 0x1E9F PUSH1 0x16 DUP4 PUSH2 0x1484 JUMP JUMPDEST SWAP2 POP PUSH2 0x1EAA DUP3 PUSH2 0x1E6B JUMP JUMPDEST PUSH1 0x20 DUP3 ADD SWAP1 POP SWAP2 SWAP1 POP JUMP JUMPDEST PUSH0 PUSH1 0x20 DUP3 ADD SWAP1 POP DUP2 DUP2 SUB PUSH0 DUP4 ADD MSTORE PUSH2 0x1ECC DUP2 PUSH2 0x1E93 JUMP JUMPDEST SWAP1 POP SWAP2 SWAP1 POP JUMP JUMPDEST PUSH0 PUSH2 0x1EDD DUP3 PUSH2 0xF68 JUMP JUMPDEST SWAP2 POP PUSH2 0x1EE8 DUP4 PUSH2 0xF68 JUMP JUMPDEST SWAP3 POP DUP3 DUP3 MUL PUSH2 0x1EF6 DUP2 PUSH2 0xF68 JUMP JUMPDEST SWAP2 POP DUP3 DUP3 DIV DUP5 EQ DUP4 ISZERO OR PUSH2 0x1F0D JUMPI PUSH2 0x1F0C PUSH2 0x15E5 JUMP JUMPDEST JUMPDEST POP SWAP3 SWAP2 POP POP JUMP JUMPDEST PUSH32 0x4E487B7100000000000000000000000000000000000000000000000000000000 PUSH0 MSTORE PUSH1 0x12 PUSH1 0x4 MSTORE PUSH1 0x24 PUSH0 REVERT JUMPDEST PUSH0 PUSH2 0x1F4B DUP3 PUSH2 0xF68 JUMP JUMPDEST SWAP2 POP PUSH2 0x1F56 DUP4 PUSH2 0xF68 JUMP JUMPDEST SWAP3 POP DUP3 PUSH2 0x1F66 JUMPI PUSH2 0x1F65 PUSH2 0x1F14 JUMP JUMPDEST JUMPDEST DUP3 DUP3 DIV SWAP1 POP SWAP3 SWAP2 POP POP JUMP INVALID LOG2 PUSH5 0x6970667358 0x22 SLT KECCAK256 0xEA CALLVALUE 0xE6 POP 0xB0 0xD SWAP2 SMOD SHR CREATE 0xF9 SLOAD 0x4F BYTE BASEFEE PUSH1 0x36 PUSH4 0x27E9964C 0xBD PUSH7 0x720AE8AC8147C1 0xE9 PUSH5 0x736F6C6343 STOP ADDMOD AND STOP CALLER "
		},
		"gasEstimates": {
			"creation": {
				"codeDepositCost": "1620600",
				"executionCost": "25964",
				"totalCost": "1646564"
			},
			"external": {
				"TIME_LOCK()": "413",
				"accounts(address)": "infinite",
				"createMultiSigTransaction(address[],uint256,string)": "infinite",
				"deposit()": "infinite",
				"executeMultiSigTransaction(bytes32)": "infinite",
				"loans(address,uint256)": "infinite",
				"multiSigTransactions(bytes32)": "infinite",
				"owner()": "2575",
				"repayLoan(uint256)": "infinite",
				"takeLoan(uint256,uint256,uint256)": "infinite",
				"withdraw(uint256)": "infinite"
			},
			"internal": {
				"calculateInterest(uint256,uint256,uint256)": "infinite",
				"isSigner(struct AdvancedAccounting.MultiSigTransaction storage pointer,address)": "infinite"
			}
		},
		"methodIdentifiers": {
			"TIME_LOCK()": "e0a09c68",
			"accounts(address)": "5e5c06e2",
			"createMultiSigTransaction(address[],uint256,string)": "a063416c",
			"deposit()": "d0e30db0",
			"executeMultiSigTransaction(bytes32)": "f7f4f8ca",
			"loans(address,uint256)": "98c61c37",
			"multiSigTransactions(bytes32)": "b0c11a70",
			"owner()": "8da5cb5b",
			"repayLoan(uint256)": "ab7b1c89",
			"takeLoan(uint256,uint256,uint256)": "10c9e386",
			"withdraw(uint256)": "2e1a7d4d"
		}
	},
	"abi": [
		{
			"inputs": [],
			"stateMutability": "nonpayable",
			"type": "constructor"
		},
		{
			"anonymous": false,
			"inputs": [
				{
					"indexed": true,
					"internalType": "address",
					"name": "account",
					"type": "address"
				},
				{
					"indexed": false,
					"internalType": "uint256",
					"name": "amount",
					"type": "uint256"
				}
			],
			"name": "DepositMade",
			"type": "event"
		},
		{
			"anonymous": false,
			"inputs": [
				{
					"indexed": true,
					"internalType": "address",
					"name": "borrower",
					"type": "address"
				},
				{
					"indexed": false,
					"internalType": "uint256",
					"name": "amount",
					"type": "uint256"
				}
			],
			"name": "LoanRepaid",
			"type": "event"
		},
		{
			"anonymous": false,
			"inputs": [
				{
					"indexed": true,
					"internalType": "address",
					"name": "borrower",
					"type": "address"
				},
				{
					"indexed": false,
					"internalType": "uint256",
					"name": "amount",
					"type": "uint256"
				},
				{
					"indexed": false,
					"internalType": "uint256",
					"name": "interestRate",
					"type": "uint256"
				},
				{
					"indexed": false,
					"internalType": "uint256",
					"name": "dueDate",
					"type": "uint256"
				}
			],
			"name": "LoanTaken",
			"type": "event"
		},
		{
			"anonymous": false,
			"inputs": [
				{
					"indexed": true,
					"internalType": "bytes32",
					"name": "transactionId",
					"type": "bytes32"
				},
				{
					"indexed": true,
					"internalType": "address",
					"name": "creator",
					"type": "address"
				},
				{
					"indexed": false,
					"internalType": "uint256",
					"name": "value",
					"type": "uint256"
				},
				{
					"indexed": false,
					"internalType": "string",
					"name": "description",
					"type": "string"
				}
			],
			"name": "MultiSigTransactionCreated",
			"type": "event"
		},
		{
			"anonymous": false,
			"inputs": [
				{
					"indexed": true,
					"internalType": "bytes32",
					"name": "transactionId",
					"type": "bytes32"
				},
				{
					"indexed": true,
					"internalType": "address",
					"name": "executor",
					"type": "address"
				}
			],
			"name": "MultiSigTransactionExecuted",
			"type": "event"
		},
		{
			"anonymous": false,
			"inputs": [
				{
					"indexed": true,
					"internalType": "address",
					"name": "account",
					"type": "address"
				},
				{
					"indexed": false,
					"internalType": "uint256",
					"name": "amount",
					"type": "uint256"
				}
			],
			"name": "WithdrawalMade",
			"type": "event"
		},
		{
			"inputs": [],
			"name": "TIME_LOCK",
			"outputs": [
				{
					"internalType": "uint256",
					"name": "",
					"type": "uint256"
				}
			],
			"stateMutability": "view",
			"type": "function"
		},
		{
			"inputs": [
				{
					"internalType": "address",
					"name": "",
					"type": "address"
				}
			],
			"name": "accounts",
			"outputs": [
				{
					"internalType": "uint256",
					"name": "balance",
					"type": "uint256"
				},
				{
					"internalType": "uint256",
					"name": "lastWithdrawTime",
					"type": "uint256"
				}
			],
			"stateMutability": "view",
			"type": "function"
		},
		{
			"inputs": [
				{
					"internalType": "address[]",
					"name": "_signers",
					"type": "address[]"
				},
				{
					"internalType": "uint256",
					"name": "_value",
					"type": "uint256"
				},
				{
					"internalType": "string",
					"name": "_description",
					"type": "string"
				}
			],
			"name": "createMultiSigTransaction",
			"outputs": [],
			"stateMutability": "nonpayable",
			"type": "function"
		},
		{
			"inputs": [],
			"name": "deposit",
			"outputs": [],
			"stateMutability": "payable",
			"type": "function"
		},
		{
			"inputs": [
				{
					"internalType": "bytes32",
					"name": "_transactionId",
					"type": "bytes32"
				}
			],
			"name": "executeMultiSigTransaction",
			"outputs": [],
			"stateMutability": "nonpayable",
			"type": "function"
		},
		{
			"inputs": [
				{
					"internalType": "address",
					"name": "",
					"type": "address"
				},
				{
					"internalType": "uint256",
					"name": "",
					"type": "uint256"
				}
			],
			"name": "loans",
			"outputs": [
				{
					"internalType": "uint256",
					"name": "amount",
					"type": "uint256"
				},
				{
					"internalType": "uint256",
					"name": "interestRate",
					"type": "uint256"
				},
				{
					"internalType": "uint256",
					"name": "dueDate",
					"type": "uint256"
				},
				{
					"internalType": "bool",
					"name": "isRepaid",
					"type": "bool"
				}
			],
			"stateMutability": "view",
			"type": "function"
		},
		{
			"inputs": [
				{
					"internalType": "bytes32",
					"name": "",
					"type": "bytes32"
				}
			],
			"name": "multiSigTransactions",
			"outputs": [
				{
					"internalType": "address",
					"name": "initiator",
					"type": "address"
				},
				{
					"internalType": "uint256",
					"name": "value",
					"type": "uint256"
				},
				{
					"internalType": "string",
					"name": "description",
					"type": "string"
				},
				{
					"internalType": "bool",
					"name": "executed",
					"type": "bool"
				}
			],
			"stateMutability": "view",
			"type": "function"
		},
		{
			"inputs": [],
			"name": "owner",
			"outputs": [
				{
					"internalType": "address",
					"name": "",
					"type": "address"
				}
			],
			"stateMutability": "view",
			"type": "function"
		},
		{
			"inputs": [
				{
					"internalType": "uint256",
					"name": "_loanIndex",
					"type": "uint256"
				}
			],
			"name": "repayLoan",
			"outputs": [],
			"stateMutability": "payable",
			"type": "function"
		},
		{
			"inputs": [
				{
					"internalType": "uint256",
					"name": "_amount",
					"type": "uint256"
				},
				{
					"internalType": "uint256",
					"name": "_interestRate",
					"type": "uint256"
				},
				{
					"internalType": "uint256",
					"name": "_duration",
					"type": "uint256"
				}
			],
			"name": "takeLoan",
			"outputs": [],
			"stateMutability": "nonpayable",
			"type": "function"
		},
		{
			"inputs": [
				{
					"internalType": "uint256",
					"name": "_amount",
					"type": "uint256"
				}
			],
			"name": "withdraw",
			"outputs": [],
			"stateMutability": "nonpayable",
			"type": "function"
		}
	]
}