{
	"contracts/Automotive industry p 2.sol": {
		"VehicleMarketplace": {
			"abi": [
				{
					"anonymous": false,
					"inputs": [
						{
							"indexed": true,
							"internalType": "uint256",
							"name": "vehicleId",
							"type": "uint256"
						},
						{
							"indexed": false,
							"internalType": "string",
							"name": "make",
							"type": "string"
						},
						{
							"indexed": false,
							"internalType": "string",
							"name": "model",
							"type": "string"
						},
						{
							"indexed": false,
							"internalType": "uint256",
							"name": "price",
							"type": "uint256"
						},
						{
							"indexed": true,
							"internalType": "address",
							"name": "seller",
							"type": "address"
						}
					],
					"name": "VehicleListed",
					"type": "event"
				},
				{
					"anonymous": false,
					"inputs": [
						{
							"indexed": true,
							"internalType": "uint256",
							"name": "vehicleId",
							"type": "uint256"
						},
						{
							"indexed": true,
							"internalType": "address",
							"name": "seller",
							"type": "address"
						},
						{
							"indexed": true,
							"internalType": "address",
							"name": "buyer",
							"type": "address"
						},
						{
							"indexed": false,
							"internalType": "uint256",
							"name": "price",
							"type": "uint256"
						}
					],
					"name": "VehicleSold",
					"type": "event"
				},
				{
					"inputs": [
						{
							"internalType": "uint256",
							"name": "_vehicleId",
							"type": "uint256"
						}
					],
					"name": "buyVehicle",
					"outputs": [],
					"stateMutability": "payable",
					"type": "function"
				},
				{
					"inputs": [],
					"name": "getTotalVehicles",
					"outputs": [
						{
							"internalType": "uint256",
							"name": "",
							"type": "uint256"
						}
					],
					"stateMutability": "view",
					"type": "function"
				},
				{
					"inputs": [
						{
							"internalType": "uint256",
							"name": "_vehicleId",
							"type": "uint256"
						}
					],
					"name": "getVehicle",
					"outputs": [
						{
							"internalType": "string",
							"name": "",
							"type": "string"
						},
						{
							"internalType": "string",
							"name": "",
							"type": "string"
						},
						{
							"internalType": "uint256",
							"name": "",
							"type": "uint256"
						},
						{
							"internalType": "bool",
							"name": "",
							"type": "bool"
						},
						{
							"internalType": "address",
							"name": "",
							"type": "address"
						},
						{
							"internalType": "address",
							"name": "",
							"type": "address"
						}
					],
					"stateMutability": "view",
					"type": "function"
				},
				{
					"inputs": [
						{
							"internalType": "string",
							"name": "_make",
							"type": "string"
						},
						{
							"internalType": "string",
							"name": "_model",
							"type": "string"
						},
						{
							"internalType": "uint256",
							"name": "_price",
							"type": "uint256"
						},
						{
							"internalType": "uint256",
							"name": "_vehicleId",
							"type": "uint256"
						}
					],
					"name": "listVehicle",
					"outputs": [],
					"stateMutability": "nonpayable",
					"type": "function"
				},
				{
					"inputs": [
						{
							"internalType": "uint256",
							"name": "",
							"type": "uint256"
						}
					],
					"name": "vehicles",
					"outputs": [
						{
							"internalType": "string",
							"name": "make",
							"type": "string"
						},
						{
							"internalType": "string",
							"name": "model",
							"type": "string"
						},
						{
							"internalType": "uint256",
							"name": "price",
							"type": "uint256"
						},
						{
							"internalType": "uint256",
							"name": "vehicleId",
							"type": "uint256"
						},
						{
							"internalType": "bool",
							"name": "isSold",
							"type": "bool"
						},
						{
							"internalType": "address payable",
							"name": "seller",
							"type": "address"
						},
						{
							"internalType": "address",
							"name": "buyer",
							"type": "address"
						}
					],
					"stateMutability": "view",
					"type": "function"
				}
			],
			"devdoc": {
				"kind": "dev",
				"methods": {},
				"version": 1
			},
			"evm": {
				"assembly": "    /* \"contracts/Automotive industry p 2.sol\":204:2136  contract VehicleMarketplace {... */\n  mstore(0x40, 0x80)\n  callvalue\n  dup1\n  iszero\n  tag_1\n  jumpi\n  0x00\n  dup1\n  revert\ntag_1:\n  pop\n  dataSize(sub_0)\n  dup1\n  dataOffset(sub_0)\n  0x00\n  codecopy\n  0x00\n  return\nstop\n\nsub_0: assembly {\n        /* \"contracts/Automotive industry p 2.sol\":204:2136  contract VehicleMarketplace {... */\n      mstore(0x40, 0x80)\n      jumpi(tag_1, lt(calldatasize, 0x04))\n      shr(0xe0, calldataload(0x00))\n      dup1\n      0x36ce0920\n      eq\n      tag_2\n      jumpi\n      dup1\n      0x69056b27\n      eq\n      tag_3\n      jumpi\n      dup1\n      0xb8ba95fa\n      eq\n      tag_4\n      jumpi\n      dup1\n      0xd5b05f4f\n      eq\n      tag_5\n      jumpi\n      dup1\n      0xdf7ebb7b\n      eq\n      tag_6\n      jumpi\n    tag_1:\n      0x00\n      dup1\n      revert\n        /* \"contracts/Automotive industry p 2.sol\":1209:1647  function buyVehicle(uint256 _vehicleId) public payable {... */\n    tag_2:\n      tag_7\n      0x04\n      dup1\n      calldatasize\n      sub\n      dup2\n      add\n      swap1\n      tag_8\n      swap2\n      swap1\n      tag_9\n      jump\t// in\n    tag_8:\n      tag_10\n      jump\t// in\n    tag_7:\n      stop\n        /* \"contracts/Automotive industry p 2.sol\":2037:2134  function getTotalVehicles() public view returns (uint256) {... */\n    tag_3:\n      callvalue\n      dup1\n      iszero\n      tag_11\n      jumpi\n      0x00\n      dup1\n      revert\n    tag_11:\n      pop\n      tag_12\n      tag_13\n      jump\t// in\n    tag_12:\n      mload(0x40)\n      tag_14\n      swap2\n      swap1\n      tag_15\n      jump\t// in\n    tag_14:\n      mload(0x40)\n      dup1\n      swap2\n      sub\n      swap1\n      return\n        /* \"contracts/Automotive industry p 2.sol\":435:460  Vehicle[] public vehicles */\n    tag_4:\n      callvalue\n      dup1\n      iszero\n      tag_16\n      jumpi\n      0x00\n      dup1\n      revert\n    tag_16:\n      pop\n      tag_17\n      0x04\n      dup1\n      calldatasize\n      sub\n      dup2\n      add\n      swap1\n      tag_18\n      swap2\n      swap1\n      tag_9\n      jump\t// in\n    tag_18:\n      tag_19\n      jump\t// in\n    tag_17:\n      mload(0x40)\n      tag_20\n      swap8\n      swap7\n      swap6\n      swap5\n      swap4\n      swap3\n      swap2\n      swap1\n      tag_21\n      jump\t// in\n    tag_20:\n      mload(0x40)\n      dup1\n      swap2\n      sub\n      swap1\n      return\n        /* \"contracts/Automotive industry p 2.sol\":698:1203  function listVehicle(string memory _make, string memory _model, uint256 _price, uint256 _vehicleId) public {... */\n    tag_5:\n      callvalue\n      dup1\n      iszero\n      tag_22\n      jumpi\n      0x00\n      dup1\n      revert\n    tag_22:\n      pop\n      tag_23\n      0x04\n      dup1\n      calldatasize\n      sub\n      dup2\n      add\n      swap1\n      tag_24\n      swap2\n      swap1\n      tag_25\n      jump\t// in\n    tag_24:\n      tag_26\n      jump\t// in\n    tag_23:\n      stop\n        /* \"contracts/Automotive industry p 2.sol\":1653:2031  function getVehicle(uint256 _vehicleId) public view returns (string memory, string memory, uint256, bool, address, address) {... */\n    tag_6:\n      callvalue\n      dup1\n      iszero\n      tag_27\n      jumpi\n      0x00\n      dup1\n      revert\n    tag_27:\n      pop\n      tag_28\n      0x04\n      dup1\n      calldatasize\n      sub\n      dup2\n      add\n      swap1\n      tag_29\n      swap2\n      swap1\n      tag_9\n      jump\t// in\n    tag_29:\n      tag_30\n      jump\t// in\n    tag_28:\n      mload(0x40)\n      tag_31\n      swap7\n      swap6\n      swap5\n      swap4\n      swap3\n      swap2\n      swap1\n      tag_32\n      jump\t// in\n    tag_31:\n      mload(0x40)\n      dup1\n      swap2\n      sub\n      swap1\n      return\n        /* \"contracts/Automotive industry p 2.sol\":1209:1647  function buyVehicle(uint256 _vehicleId) public payable {... */\n    tag_10:\n        /* \"contracts/Automotive industry p 2.sol\":1274:1297  Vehicle storage vehicle */\n      0x00\n        /* \"contracts/Automotive industry p 2.sol\":1300:1308  vehicles */\n      dup1\n        /* \"contracts/Automotive industry p 2.sol\":1309:1319  _vehicleId */\n      dup3\n        /* \"contracts/Automotive industry p 2.sol\":1300:1320  vehicles[_vehicleId] */\n      dup2\n      sload\n      dup2\n      lt\n      tag_34\n      jumpi\n      tag_35\n      tag_36\n      jump\t// in\n    tag_35:\n    tag_34:\n      swap1\n      0x00\n      mstore\n      keccak256(0x00, 0x20)\n      swap1\n      0x06\n      mul\n      add\n        /* \"contracts/Automotive industry p 2.sol\":1274:1320  Vehicle storage vehicle = vehicles[_vehicleId] */\n      swap1\n      pop\n        /* \"contracts/Automotive industry p 2.sol\":1340:1347  vehicle */\n      dup1\n        /* \"contracts/Automotive industry p 2.sol\":1340:1354  vehicle.isSold */\n      0x04\n      add\n      0x00\n      swap1\n      sload\n      swap1\n      0x0100\n      exp\n      swap1\n      div\n      0xff\n      and\n        /* \"contracts/Automotive industry p 2.sol\":1339:1354  !vehicle.isSold */\n      iszero\n        /* \"contracts/Automotive industry p 2.sol\":1331:1379  require(!vehicle.isSold, \"Vehicle already sold\") */\n      tag_38\n      jumpi\n      mload(0x40)\n      0x08c379a000000000000000000000000000000000000000000000000000000000\n      dup2\n      mstore\n      0x04\n      add\n      tag_39\n      swap1\n      tag_40\n      jump\t// in\n    tag_39:\n      mload(0x40)\n      dup1\n      swap2\n      sub\n      swap1\n      revert\n    tag_38:\n        /* \"contracts/Automotive industry p 2.sol\":1410:1417  vehicle */\n      dup1\n        /* \"contracts/Automotive industry p 2.sol\":1410:1423  vehicle.price */\n      0x02\n      add\n      sload\n        /* \"contracts/Automotive industry p 2.sol\":1397:1406  msg.value */\n      callvalue\n        /* \"contracts/Automotive industry p 2.sol\":1397:1423  msg.value >= vehicle.price */\n      lt\n      iszero\n        /* \"contracts/Automotive industry p 2.sol\":1389:1446  require(msg.value >= vehicle.price, \"Insufficient funds\") */\n      tag_41\n      jumpi\n      mload(0x40)\n      0x08c379a000000000000000000000000000000000000000000000000000000000\n      dup2\n      mstore\n      0x04\n      add\n      tag_42\n      swap1\n      tag_43\n      jump\t// in\n    tag_42:\n      mload(0x40)\n      dup1\n      swap2\n      sub\n      swap1\n      revert\n    tag_41:\n        /* \"contracts/Automotive industry p 2.sol\":1474:1478  true */\n      0x01\n        /* \"contracts/Automotive industry p 2.sol\":1457:1464  vehicle */\n      dup2\n        /* \"contracts/Automotive industry p 2.sol\":1457:1471  vehicle.isSold */\n      0x04\n      add\n      0x00\n        /* \"contracts/Automotive industry p 2.sol\":1457:1478  vehicle.isSold = true */\n      0x0100\n      exp\n      dup2\n      sload\n      dup2\n      0xff\n      mul\n      not\n      and\n      swap1\n      dup4\n      iszero\n      iszero\n      mul\n      or\n      swap1\n      sstore\n      pop\n        /* \"contracts/Automotive industry p 2.sol\":1504:1514  msg.sender */\n      caller\n        /* \"contracts/Automotive industry p 2.sol\":1488:1495  vehicle */\n      dup2\n        /* \"contracts/Automotive industry p 2.sol\":1488:1501  vehicle.buyer */\n      0x05\n      add\n      0x00\n        /* \"contracts/Automotive industry p 2.sol\":1488:1514  vehicle.buyer = msg.sender */\n      0x0100\n      exp\n      dup2\n      sload\n      dup2\n      0xffffffffffffffffffffffffffffffffffffffff\n      mul\n      not\n      and\n      swap1\n      dup4\n      0xffffffffffffffffffffffffffffffffffffffff\n      and\n      mul\n      or\n      swap1\n      sstore\n      pop\n        /* \"contracts/Automotive industry p 2.sol\":1524:1531  vehicle */\n      dup1\n        /* \"contracts/Automotive industry p 2.sol\":1524:1538  vehicle.seller */\n      0x04\n      add\n      0x01\n      swap1\n      sload\n      swap1\n      0x0100\n      exp\n      swap1\n      div\n      0xffffffffffffffffffffffffffffffffffffffff\n      and\n        /* \"contracts/Automotive industry p 2.sol\":1524:1547  vehicle.seller.transfer */\n      0xffffffffffffffffffffffffffffffffffffffff\n      and\n        /* \"contracts/Automotive industry p 2.sol\":1524:1558  vehicle.seller.transfer(msg.value) */\n      0x08fc\n        /* \"contracts/Automotive industry p 2.sol\":1548:1557  msg.value */\n      callvalue\n        /* \"contracts/Automotive industry p 2.sol\":1524:1558  vehicle.seller.transfer(msg.value) */\n      swap1\n      dup2\n      iszero\n      mul\n      swap1\n      mload(0x40)\n      0x00\n      mload(0x40)\n      dup1\n      dup4\n      sub\n      dup2\n      dup6\n      dup9\n      dup9\n      call\n      swap4\n      pop\n      pop\n      pop\n      pop\n      iszero\n      dup1\n      iszero\n      tag_45\n      jumpi\n      returndatasize\n      0x00\n      dup1\n      returndatacopy\n      revert(0x00, returndatasize)\n    tag_45:\n      pop\n        /* \"contracts/Automotive industry p 2.sol\":1614:1624  msg.sender */\n      caller\n        /* \"contracts/Automotive industry p 2.sol\":1574:1640  VehicleSold(_vehicleId, vehicle.seller, msg.sender, vehicle.price) */\n      0xffffffffffffffffffffffffffffffffffffffff\n      and\n        /* \"contracts/Automotive industry p 2.sol\":1598:1605  vehicle */\n      dup2\n        /* \"contracts/Automotive industry p 2.sol\":1598:1612  vehicle.seller */\n      0x04\n      add\n      0x01\n      swap1\n      sload\n      swap1\n      0x0100\n      exp\n      swap1\n      div\n      0xffffffffffffffffffffffffffffffffffffffff\n      and\n        /* \"contracts/Automotive industry p 2.sol\":1574:1640  VehicleSold(_vehicleId, vehicle.seller, msg.sender, vehicle.price) */\n      0xffffffffffffffffffffffffffffffffffffffff\n      and\n        /* \"contracts/Automotive industry p 2.sol\":1586:1596  _vehicleId */\n      dup4\n        /* \"contracts/Automotive industry p 2.sol\":1574:1640  VehicleSold(_vehicleId, vehicle.seller, msg.sender, vehicle.price) */\n      0x76c43ed85d1912f49c926717e3268087ef9c58378eb76ba7dcd33af48249c3bb\n        /* \"contracts/Automotive industry p 2.sol\":1626:1633  vehicle */\n      dup5\n        /* \"contracts/Automotive industry p 2.sol\":1626:1639  vehicle.price */\n      0x02\n      add\n      sload\n        /* \"contracts/Automotive industry p 2.sol\":1574:1640  VehicleSold(_vehicleId, vehicle.seller, msg.sender, vehicle.price) */\n      mload(0x40)\n      tag_46\n      swap2\n      swap1\n      tag_15\n      jump\t// in\n    tag_46:\n      mload(0x40)\n      dup1\n      swap2\n      sub\n      swap1\n      log4\n        /* \"contracts/Automotive industry p 2.sol\":1264:1647  {... */\n      pop\n        /* \"contracts/Automotive industry p 2.sol\":1209:1647  function buyVehicle(uint256 _vehicleId) public payable {... */\n      pop\n      jump\t// out\n        /* \"contracts/Automotive industry p 2.sol\":2037:2134  function getTotalVehicles() public view returns (uint256) {... */\n    tag_13:\n        /* \"contracts/Automotive industry p 2.sol\":2086:2093  uint256 */\n      0x00\n        /* \"contracts/Automotive industry p 2.sol\":2112:2120  vehicles */\n      dup1\n        /* \"contracts/Automotive industry p 2.sol\":2112:2127  vehicles.length */\n      dup1\n      sload\n      swap1\n      pop\n        /* \"contracts/Automotive industry p 2.sol\":2105:2127  return vehicles.length */\n      swap1\n      pop\n        /* \"contracts/Automotive industry p 2.sol\":2037:2134  function getTotalVehicles() public view returns (uint256) {... */\n      swap1\n      jump\t// out\n        /* \"contracts/Automotive industry p 2.sol\":435:460  Vehicle[] public vehicles */\n    tag_19:\n      0x00\n      dup2\n      dup2\n      sload\n      dup2\n      lt\n      tag_48\n      jumpi\n      0x00\n      dup1\n      revert\n    tag_48:\n      swap1\n      0x00\n      mstore\n      keccak256(0x00, 0x20)\n      swap1\n      0x06\n      mul\n      add\n      0x00\n      swap2\n      pop\n      swap1\n      pop\n      dup1\n      0x00\n      add\n      dup1\n      sload\n      tag_50\n      swap1\n      tag_51\n      jump\t// in\n    tag_50:\n      dup1\n      0x1f\n      add\n      0x20\n      dup1\n      swap2\n      div\n      mul\n      0x20\n      add\n      mload(0x40)\n      swap1\n      dup2\n      add\n      0x40\n      mstore\n      dup1\n      swap3\n      swap2\n      swap1\n      dup2\n      dup2\n      mstore\n      0x20\n      add\n      dup3\n      dup1\n      sload\n      tag_52\n      swap1\n      tag_51\n      jump\t// in\n    tag_52:\n      dup1\n      iszero\n      tag_53\n      jumpi\n      dup1\n      0x1f\n      lt\n      tag_54\n      jumpi\n      0x0100\n      dup1\n      dup4\n      sload\n      div\n      mul\n      dup4\n      mstore\n      swap2\n      0x20\n      add\n      swap2\n      jump(tag_53)\n    tag_54:\n      dup3\n      add\n      swap2\n      swap1\n      0x00\n      mstore\n      keccak256(0x00, 0x20)\n      swap1\n    tag_55:\n      dup2\n      sload\n      dup2\n      mstore\n      swap1\n      0x01\n      add\n      swap1\n      0x20\n      add\n      dup1\n      dup4\n      gt\n      tag_55\n      jumpi\n      dup3\n      swap1\n      sub\n      0x1f\n      and\n      dup3\n      add\n      swap2\n    tag_53:\n      pop\n      pop\n      pop\n      pop\n      pop\n      swap1\n      dup1\n      0x01\n      add\n      dup1\n      sload\n      tag_56\n      swap1\n      tag_51\n      jump\t// in\n    tag_56:\n      dup1\n      0x1f\n      add\n      0x20\n      dup1\n      swap2\n      div\n      mul\n      0x20\n      add\n      mload(0x40)\n      swap1\n      dup2\n      add\n      0x40\n      mstore\n      dup1\n      swap3\n      swap2\n      swap1\n      dup2\n      dup2\n      mstore\n      0x20\n      add\n      dup3\n      dup1\n      sload\n      tag_57\n      swap1\n      tag_51\n      jump\t// in\n    tag_57:\n      dup1\n      iszero\n      tag_58\n      jumpi\n      dup1\n      0x1f\n      lt\n      tag_59\n      jumpi\n      0x0100\n      dup1\n      dup4\n      sload\n      div\n      mul\n      dup4\n      mstore\n      swap2\n      0x20\n      add\n      swap2\n      jump(tag_58)\n    tag_59:\n      dup3\n      add\n      swap2\n      swap1\n      0x00\n      mstore\n      keccak256(0x00, 0x20)\n      swap1\n    tag_60:\n      dup2\n      sload\n      dup2\n      mstore\n      swap1\n      0x01\n      add\n      swap1\n      0x20\n      add\n      dup1\n      dup4\n      gt\n      tag_60\n      jumpi\n      dup3\n      swap1\n      sub\n      0x1f\n      and\n      dup3\n      add\n      swap2\n    tag_58:\n      pop\n      pop\n      pop\n      pop\n      pop\n      swap1\n      dup1\n      0x02\n      add\n      sload\n      swap1\n      dup1\n      0x03\n      add\n      sload\n      swap1\n      dup1\n      0x04\n      add\n      0x00\n      swap1\n      sload\n      swap1\n      0x0100\n      exp\n      swap1\n      div\n      0xff\n      and\n      swap1\n      dup1\n      0x04\n      add\n      0x01\n      swap1\n      sload\n      swap1\n      0x0100\n      exp\n      swap1\n      div\n      0xffffffffffffffffffffffffffffffffffffffff\n      and\n      swap1\n      dup1\n      0x05\n      add\n      0x00\n      swap1\n      sload\n      swap1\n      0x0100\n      exp\n      swap1\n      div\n      0xffffffffffffffffffffffffffffffffffffffff\n      and\n      swap1\n      pop\n      dup8\n      jump\t// out\n        /* \"contracts/Automotive industry p 2.sol\":698:1203  function listVehicle(string memory _make, string memory _model, uint256 _price, uint256 _vehicleId) public {... */\n    tag_26:\n        /* \"contracts/Automotive industry p 2.sol\":815:840  Vehicle memory newVehicle */\n      0x00\n        /* \"contracts/Automotive industry p 2.sol\":843:1075  Vehicle({... */\n      mload(0x40)\n      dup1\n      0xe0\n      add\n      0x40\n      mstore\n      dup1\n        /* \"contracts/Automotive industry p 2.sol\":871:876  _make */\n      dup7\n        /* \"contracts/Automotive industry p 2.sol\":843:1075  Vehicle({... */\n      dup2\n      mstore\n      0x20\n      add\n        /* \"contracts/Automotive industry p 2.sol\":897:903  _model */\n      dup6\n        /* \"contracts/Automotive industry p 2.sol\":843:1075  Vehicle({... */\n      dup2\n      mstore\n      0x20\n      add\n        /* \"contracts/Automotive industry p 2.sol\":924:930  _price */\n      dup5\n        /* \"contracts/Automotive industry p 2.sol\":843:1075  Vehicle({... */\n      dup2\n      mstore\n      0x20\n      add\n        /* \"contracts/Automotive industry p 2.sol\":955:965  _vehicleId */\n      dup4\n        /* \"contracts/Automotive industry p 2.sol\":843:1075  Vehicle({... */\n      dup2\n      mstore\n      0x20\n      add\n        /* \"contracts/Automotive industry p 2.sol\":987:992  false */\n      0x00\n        /* \"contracts/Automotive industry p 2.sol\":843:1075  Vehicle({... */\n      iszero\n      iszero\n      dup2\n      mstore\n      0x20\n      add\n        /* \"contracts/Automotive industry p 2.sol\":1022:1032  msg.sender */\n      caller\n        /* \"contracts/Automotive industry p 2.sol\":843:1075  Vehicle({... */\n      0xffffffffffffffffffffffffffffffffffffffff\n      and\n      dup2\n      mstore\n      0x20\n      add\n        /* \"contracts/Automotive industry p 2.sol\":1062:1063  0 */\n      0x00\n        /* \"contracts/Automotive industry p 2.sol\":843:1075  Vehicle({... */\n      0xffffffffffffffffffffffffffffffffffffffff\n      and\n      dup2\n      mstore\n      pop\n        /* \"contracts/Automotive industry p 2.sol\":815:1075  Vehicle memory newVehicle = Vehicle({... */\n      swap1\n      pop\n        /* \"contracts/Automotive industry p 2.sol\":1086:1094  vehicles */\n      0x00\n        /* \"contracts/Automotive industry p 2.sol\":1100:1110  newVehicle */\n      dup2\n        /* \"contracts/Automotive industry p 2.sol\":1086:1111  vehicles.push(newVehicle) */\n      swap1\n      dup1\n      0x01\n      dup2\n      sload\n      add\n      dup1\n      dup3\n      sstore\n      dup1\n      swap2\n      pop\n      pop\n      0x01\n      swap1\n      sub\n      swap1\n      0x00\n      mstore\n      keccak256(0x00, 0x20)\n      swap1\n      0x06\n      mul\n      add\n      0x00\n      swap1\n      swap2\n      swap1\n      swap2\n      swap1\n      swap2\n      pop\n      0x00\n      dup3\n      add\n      mload\n      dup2\n      0x00\n      add\n      swap1\n      dup2\n      tag_63\n      swap2\n      swap1\n      tag_64\n      jump\t// in\n    tag_63:\n      pop\n      0x20\n      dup3\n      add\n      mload\n      dup2\n      0x01\n      add\n      swap1\n      dup2\n      tag_65\n      swap2\n      swap1\n      tag_64\n      jump\t// in\n    tag_65:\n      pop\n      0x40\n      dup3\n      add\n      mload\n      dup2\n      0x02\n      add\n      sstore\n      0x60\n      dup3\n      add\n      mload\n      dup2\n      0x03\n      add\n      sstore\n      0x80\n      dup3\n      add\n      mload\n      dup2\n      0x04\n      add\n      exp(0x0100, 0x00)\n      dup2\n      sload\n      dup2\n      0xff\n      mul\n      not\n      and\n      swap1\n      dup4\n      iszero\n      iszero\n      mul\n      or\n      swap1\n      sstore\n      pop\n      0xa0\n      dup3\n      add\n      mload\n      dup2\n      0x04\n      add\n      exp(0x0100, 0x01)\n      dup2\n      sload\n      dup2\n      0xffffffffffffffffffffffffffffffffffffffff\n      mul\n      not\n      and\n      swap1\n      dup4\n      0xffffffffffffffffffffffffffffffffffffffff\n      and\n      mul\n      or\n      swap1\n      sstore\n      pop\n      0xc0\n      dup3\n      add\n      mload\n      dup2\n      0x05\n      add\n      exp(0x0100, 0x00)\n      dup2\n      sload\n      dup2\n      0xffffffffffffffffffffffffffffffffffffffff\n      mul\n      not\n      and\n      swap1\n      dup4\n      0xffffffffffffffffffffffffffffffffffffffff\n      and\n      mul\n      or\n      swap1\n      sstore\n      pop\n      pop\n      pop\n        /* \"contracts/Automotive industry p 2.sol\":1185:1195  msg.sender */\n      caller\n        /* \"contracts/Automotive industry p 2.sol\":1127:1196  VehicleListed(vehicles.length - 1, _make, _model, _price, msg.sender) */\n      0xffffffffffffffffffffffffffffffffffffffff\n      and\n        /* \"contracts/Automotive industry p 2.sol\":1159:1160  1 */\n      0x01\n        /* \"contracts/Automotive industry p 2.sol\":1141:1149  vehicles */\n      0x00\n        /* \"contracts/Automotive industry p 2.sol\":1141:1156  vehicles.length */\n      dup1\n      sload\n      swap1\n      pop\n        /* \"contracts/Automotive industry p 2.sol\":1141:1160  vehicles.length - 1 */\n      tag_66\n      swap2\n      swap1\n      tag_67\n      jump\t// in\n    tag_66:\n        /* \"contracts/Automotive industry p 2.sol\":1127:1196  VehicleListed(vehicles.length - 1, _make, _model, _price, msg.sender) */\n      0x2d294dad4c96aa17db5bfd91b10a7b4746341581d3ab29dbc62d0da31b134824\n        /* \"contracts/Automotive industry p 2.sol\":1162:1167  _make */\n      dup8\n        /* \"contracts/Automotive industry p 2.sol\":1169:1175  _model */\n      dup8\n        /* \"contracts/Automotive industry p 2.sol\":1177:1183  _price */\n      dup8\n        /* \"contracts/Automotive industry p 2.sol\":1127:1196  VehicleListed(vehicles.length - 1, _make, _model, _price, msg.sender) */\n      mload(0x40)\n      tag_68\n      swap4\n      swap3\n      swap2\n      swap1\n      tag_69\n      jump\t// in\n    tag_68:\n      mload(0x40)\n      dup1\n      swap2\n      sub\n      swap1\n      log3\n        /* \"contracts/Automotive industry p 2.sol\":805:1203  {... */\n      pop\n        /* \"contracts/Automotive industry p 2.sol\":698:1203  function listVehicle(string memory _make, string memory _model, uint256 _price, uint256 _vehicleId) public {... */\n      pop\n      pop\n      pop\n      pop\n      jump\t// out\n        /* \"contracts/Automotive industry p 2.sol\":1653:2031  function getVehicle(uint256 _vehicleId) public view returns (string memory, string memory, uint256, bool, address, address) {... */\n    tag_30:\n        /* \"contracts/Automotive industry p 2.sol\":1714:1727  string memory */\n      0x60\n        /* \"contracts/Automotive industry p 2.sol\":1729:1742  string memory */\n      dup1\n        /* \"contracts/Automotive industry p 2.sol\":1744:1751  uint256 */\n      0x00\n        /* \"contracts/Automotive industry p 2.sol\":1753:1757  bool */\n      dup1\n        /* \"contracts/Automotive industry p 2.sol\":1759:1766  address */\n      0x00\n        /* \"contracts/Automotive industry p 2.sol\":1768:1775  address */\n      dup1\n        /* \"contracts/Automotive industry p 2.sol\":1787:1810  Vehicle storage vehicle */\n      0x00\n        /* \"contracts/Automotive industry p 2.sol\":1813:1821  vehicles */\n      dup1\n        /* \"contracts/Automotive industry p 2.sol\":1822:1832  _vehicleId */\n      dup9\n        /* \"contracts/Automotive industry p 2.sol\":1813:1833  vehicles[_vehicleId] */\n      dup2\n      sload\n      dup2\n      lt\n      tag_71\n      jumpi\n      tag_72\n      tag_36\n      jump\t// in\n    tag_72:\n    tag_71:\n      swap1\n      0x00\n      mstore\n      keccak256(0x00, 0x20)\n      swap1\n      0x06\n      mul\n      add\n        /* \"contracts/Automotive industry p 2.sol\":1787:1833  Vehicle storage vehicle = vehicles[_vehicleId] */\n      swap1\n      pop\n        /* \"contracts/Automotive industry p 2.sol\":1865:1872  vehicle */\n      dup1\n        /* \"contracts/Automotive industry p 2.sol\":1865:1877  vehicle.make */\n      0x00\n      add\n        /* \"contracts/Automotive industry p 2.sol\":1891:1898  vehicle */\n      dup2\n        /* \"contracts/Automotive industry p 2.sol\":1891:1904  vehicle.model */\n      0x01\n      add\n        /* \"contracts/Automotive industry p 2.sol\":1918:1925  vehicle */\n      dup3\n        /* \"contracts/Automotive industry p 2.sol\":1918:1931  vehicle.price */\n      0x02\n      add\n      sload\n        /* \"contracts/Automotive industry p 2.sol\":1945:1952  vehicle */\n      dup4\n        /* \"contracts/Automotive industry p 2.sol\":1945:1959  vehicle.isSold */\n      0x04\n      add\n      0x00\n      swap1\n      sload\n      swap1\n      0x0100\n      exp\n      swap1\n      div\n      0xff\n      and\n        /* \"contracts/Automotive industry p 2.sol\":1973:1980  vehicle */\n      dup5\n        /* \"contracts/Automotive industry p 2.sol\":1973:1987  vehicle.seller */\n      0x04\n      add\n      0x01\n      swap1\n      sload\n      swap1\n      0x0100\n      exp\n      swap1\n      div\n      0xffffffffffffffffffffffffffffffffffffffff\n      and\n        /* \"contracts/Automotive industry p 2.sol\":2001:2008  vehicle */\n      dup6\n        /* \"contracts/Automotive industry p 2.sol\":2001:2014  vehicle.buyer */\n      0x05\n      add\n      0x00\n      swap1\n      sload\n      swap1\n      0x0100\n      exp\n      swap1\n      div\n      0xffffffffffffffffffffffffffffffffffffffff\n      and\n        /* \"contracts/Automotive industry p 2.sol\":1844:2024  return (... */\n      dup6\n      dup1\n      sload\n      tag_74\n      swap1\n      tag_51\n      jump\t// in\n    tag_74:\n      dup1\n      0x1f\n      add\n      0x20\n      dup1\n      swap2\n      div\n      mul\n      0x20\n      add\n      mload(0x40)\n      swap1\n      dup2\n      add\n      0x40\n      mstore\n      dup1\n      swap3\n      swap2\n      swap1\n      dup2\n      dup2\n      mstore\n      0x20\n      add\n      dup3\n      dup1\n      sload\n      tag_75\n      swap1\n      tag_51\n      jump\t// in\n    tag_75:\n      dup1\n      iszero\n      tag_76\n      jumpi\n      dup1\n      0x1f\n      lt\n      tag_77\n      jumpi\n      0x0100\n      dup1\n      dup4\n      sload\n      div\n      mul\n      dup4\n      mstore\n      swap2\n      0x20\n      add\n      swap2\n      jump(tag_76)\n    tag_77:\n      dup3\n      add\n      swap2\n      swap1\n      0x00\n      mstore\n      keccak256(0x00, 0x20)\n      swap1\n    tag_78:\n      dup2\n      sload\n      dup2\n      mstore\n      swap1\n      0x01\n      add\n      swap1\n      0x20\n      add\n      dup1\n      dup4\n      gt\n      tag_78\n      jumpi\n      dup3\n      swap1\n      sub\n      0x1f\n      and\n      dup3\n      add\n      swap2\n    tag_76:\n      pop\n      pop\n      pop\n      pop\n      pop\n      swap6\n      pop\n      dup5\n      dup1\n      sload\n      tag_79\n      swap1\n      tag_51\n      jump\t// in\n    tag_79:\n      dup1\n      0x1f\n      add\n      0x20\n      dup1\n      swap2\n      div\n      mul\n      0x20\n      add\n      mload(0x40)\n      swap1\n      dup2\n      add\n      0x40\n      mstore\n      dup1\n      swap3\n      swap2\n      swap1\n      dup2\n      dup2\n      mstore\n      0x20\n      add\n      dup3\n      dup1\n      sload\n      tag_80\n      swap1\n      tag_51\n      jump\t// in\n    tag_80:\n      dup1\n      iszero\n      tag_81\n      jumpi\n      dup1\n      0x1f\n      lt\n      tag_82\n      jumpi\n      0x0100\n      dup1\n      dup4\n      sload\n      div\n      mul\n      dup4\n      mstore\n      swap2\n      0x20\n      add\n      swap2\n      jump(tag_81)\n    tag_82:\n      dup3\n      add\n      swap2\n      swap1\n      0x00\n      mstore\n      keccak256(0x00, 0x20)\n      swap1\n    tag_83:\n      dup2\n      sload\n      dup2\n      mstore\n      swap1\n      0x01\n      add\n      swap1\n      0x20\n      add\n      dup1\n      dup4\n      gt\n      tag_83\n      jumpi\n      dup3\n      swap1\n      sub\n      0x1f\n      and\n      dup3\n      add\n      swap2\n    tag_81:\n      pop\n      pop\n      pop\n      pop\n      pop\n      swap5\n      pop\n      swap7\n      pop\n      swap7\n      pop\n      swap7\n      pop\n      swap7\n      pop\n      swap7\n      pop\n      swap7\n      pop\n      pop\n        /* \"contracts/Automotive industry p 2.sol\":1653:2031  function getVehicle(uint256 _vehicleId) public view returns (string memory, string memory, uint256, bool, address, address) {... */\n      swap2\n      swap4\n      swap6\n      pop\n      swap2\n      swap4\n      swap6\n      jump\t// out\n        /* \"#utility.yul\":7:82   */\n    tag_84:\n        /* \"#utility.yul\":40:46   */\n      0x00\n        /* \"#utility.yul\":73:75   */\n      0x40\n        /* \"#utility.yul\":67:76   */\n      mload\n        /* \"#utility.yul\":57:76   */\n      swap1\n      pop\n        /* \"#utility.yul\":7:82   */\n      swap1\n      jump\t// out\n        /* \"#utility.yul\":88:205   */\n    tag_85:\n        /* \"#utility.yul\":197:198   */\n      0x00\n        /* \"#utility.yul\":194:195   */\n      dup1\n        /* \"#utility.yul\":187:199   */\n      revert\n        /* \"#utility.yul\":211:328   */\n    tag_86:\n        /* \"#utility.yul\":320:321   */\n      0x00\n        /* \"#utility.yul\":317:318   */\n      dup1\n        /* \"#utility.yul\":310:322   */\n      revert\n        /* \"#utility.yul\":334:411   */\n    tag_87:\n        /* \"#utility.yul\":371:378   */\n      0x00\n        /* \"#utility.yul\":400:405   */\n      dup2\n        /* \"#utility.yul\":389:405   */\n      swap1\n      pop\n        /* \"#utility.yul\":334:411   */\n      swap2\n      swap1\n      pop\n      jump\t// out\n        /* \"#utility.yul\":417:539   */\n    tag_88:\n        /* \"#utility.yul\":490:514   */\n      tag_139\n        /* \"#utility.yul\":508:513   */\n      dup2\n        /* \"#utility.yul\":490:514   */\n      tag_87\n      jump\t// in\n    tag_139:\n        /* \"#utility.yul\":483:488   */\n      dup2\n        /* \"#utility.yul\":480:515   */\n      eq\n        /* \"#utility.yul\":470:533   */\n      tag_140\n      jumpi\n        /* \"#utility.yul\":529:530   */\n      0x00\n        /* \"#utility.yul\":526:527   */\n      dup1\n        /* \"#utility.yul\":519:531   */\n      revert\n        /* \"#utility.yul\":470:533   */\n    tag_140:\n        /* \"#utility.yul\":417:539   */\n      pop\n      jump\t// out\n        /* \"#utility.yul\":545:684   */\n    tag_89:\n        /* \"#utility.yul\":591:596   */\n      0x00\n        /* \"#utility.yul\":629:635   */\n      dup2\n        /* \"#utility.yul\":616:636   */\n      calldataload\n        /* \"#utility.yul\":607:636   */\n      swap1\n      pop\n        /* \"#utility.yul\":645:678   */\n      tag_142\n        /* \"#utility.yul\":672:677   */\n      dup2\n        /* \"#utility.yul\":645:678   */\n      tag_88\n      jump\t// in\n    tag_142:\n        /* \"#utility.yul\":545:684   */\n      swap3\n      swap2\n      pop\n      pop\n      jump\t// out\n        /* \"#utility.yul\":690:1019   */\n    tag_9:\n        /* \"#utility.yul\":749:755   */\n      0x00\n        /* \"#utility.yul\":798:800   */\n      0x20\n        /* \"#utility.yul\":786:795   */\n      dup3\n        /* \"#utility.yul\":777:784   */\n      dup5\n        /* \"#utility.yul\":773:796   */\n      sub\n        /* \"#utility.yul\":769:801   */\n      slt\n        /* \"#utility.yul\":766:885   */\n      iszero\n      tag_144\n      jumpi\n        /* \"#utility.yul\":804:883   */\n      tag_145\n      tag_85\n      jump\t// in\n    tag_145:\n        /* \"#utility.yul\":766:885   */\n    tag_144:\n        /* \"#utility.yul\":924:925   */\n      0x00\n        /* \"#utility.yul\":949:1002   */\n      tag_146\n        /* \"#utility.yul\":994:1001   */\n      dup5\n        /* \"#utility.yul\":985:991   */\n      dup3\n        /* \"#utility.yul\":974:983   */\n      dup6\n        /* \"#utility.yul\":970:992   */\n      add\n        /* \"#utility.yul\":949:1002   */\n      tag_89\n      jump\t// in\n    tag_146:\n        /* \"#utility.yul\":939:1002   */\n      swap2\n      pop\n        /* \"#utility.yul\":895:1012   */\n      pop\n        /* \"#utility.yul\":690:1019   */\n      swap3\n      swap2\n      pop\n      pop\n      jump\t// out\n        /* \"#utility.yul\":1025:1143   */\n    tag_90:\n        /* \"#utility.yul\":1112:1136   */\n      tag_148\n        /* \"#utility.yul\":1130:1135   */\n      dup2\n        /* \"#utility.yul\":1112:1136   */\n      tag_87\n      jump\t// in\n    tag_148:\n        /* \"#utility.yul\":1107:1110   */\n      dup3\n        /* \"#utility.yul\":1100:1137   */\n      mstore\n        /* \"#utility.yul\":1025:1143   */\n      pop\n      pop\n      jump\t// out\n        /* \"#utility.yul\":1149:1371   */\n    tag_15:\n        /* \"#utility.yul\":1242:1246   */\n      0x00\n        /* \"#utility.yul\":1280:1282   */\n      0x20\n        /* \"#utility.yul\":1269:1278   */\n      dup3\n        /* \"#utility.yul\":1265:1283   */\n      add\n        /* \"#utility.yul\":1257:1283   */\n      swap1\n      pop\n        /* \"#utility.yul\":1293:1364   */\n      tag_150\n        /* \"#utility.yul\":1361:1362   */\n      0x00\n        /* \"#utility.yul\":1350:1359   */\n      dup4\n        /* \"#utility.yul\":1346:1363   */\n      add\n        /* \"#utility.yul\":1337:1343   */\n      dup5\n        /* \"#utility.yul\":1293:1364   */\n      tag_90\n      jump\t// in\n    tag_150:\n        /* \"#utility.yul\":1149:1371   */\n      swap3\n      swap2\n      pop\n      pop\n      jump\t// out\n        /* \"#utility.yul\":1377:1476   */\n    tag_91:\n        /* \"#utility.yul\":1429:1435   */\n      0x00\n        /* \"#utility.yul\":1463:1468   */\n      dup2\n        /* \"#utility.yul\":1457:1469   */\n      mload\n        /* \"#utility.yul\":1447:1469   */\n      swap1\n      pop\n        /* \"#utility.yul\":1377:1476   */\n      swap2\n      swap1\n      pop\n      jump\t// out\n        /* \"#utility.yul\":1482:1651   */\n    tag_92:\n        /* \"#utility.yul\":1566:1577   */\n      0x00\n        /* \"#utility.yul\":1600:1606   */\n      dup3\n        /* \"#utility.yul\":1595:1598   */\n      dup3\n        /* \"#utility.yul\":1588:1607   */\n      mstore\n        /* \"#utility.yul\":1640:1644   */\n      0x20\n        /* \"#utility.yul\":1635:1638   */\n      dup3\n        /* \"#utility.yul\":1631:1645   */\n      add\n        /* \"#utility.yul\":1616:1645   */\n      swap1\n      pop\n        /* \"#utility.yul\":1482:1651   */\n      swap3\n      swap2\n      pop\n      pop\n      jump\t// out\n        /* \"#utility.yul\":1657:1903   */\n    tag_93:\n        /* \"#utility.yul\":1738:1739   */\n      0x00\n        /* \"#utility.yul\":1748:1861   */\n    tag_154:\n        /* \"#utility.yul\":1762:1768   */\n      dup4\n        /* \"#utility.yul\":1759:1760   */\n      dup2\n        /* \"#utility.yul\":1756:1769   */\n      lt\n        /* \"#utility.yul\":1748:1861   */\n      iszero\n      tag_156\n      jumpi\n        /* \"#utility.yul\":1847:1848   */\n      dup1\n        /* \"#utility.yul\":1842:1845   */\n      dup3\n        /* \"#utility.yul\":1838:1849   */\n      add\n        /* \"#utility.yul\":1832:1850   */\n      mload\n        /* \"#utility.yul\":1828:1829   */\n      dup2\n        /* \"#utility.yul\":1823:1826   */\n      dup5\n        /* \"#utility.yul\":1819:1830   */\n      add\n        /* \"#utility.yul\":1812:1851   */\n      mstore\n        /* \"#utility.yul\":1784:1786   */\n      0x20\n        /* \"#utility.yul\":1781:1782   */\n      dup2\n        /* \"#utility.yul\":1777:1787   */\n      add\n        /* \"#utility.yul\":1772:1787   */\n      swap1\n      pop\n        /* \"#utility.yul\":1748:1861   */\n      jump(tag_154)\n    tag_156:\n        /* \"#utility.yul\":1895:1896   */\n      0x00\n        /* \"#utility.yul\":1886:1892   */\n      dup5\n        /* \"#utility.yul\":1881:1884   */\n      dup5\n        /* \"#utility.yul\":1877:1893   */\n      add\n        /* \"#utility.yul\":1870:1897   */\n      mstore\n        /* \"#utility.yul\":1719:1903   */\n      pop\n        /* \"#utility.yul\":1657:1903   */\n      pop\n      pop\n      pop\n      jump\t// out\n        /* \"#utility.yul\":1909:2011   */\n    tag_94:\n        /* \"#utility.yul\":1950:1956   */\n      0x00\n        /* \"#utility.yul\":2001:2003   */\n      0x1f\n        /* \"#utility.yul\":1997:2004   */\n      not\n        /* \"#utility.yul\":1992:1994   */\n      0x1f\n        /* \"#utility.yul\":1985:1990   */\n      dup4\n        /* \"#utility.yul\":1981:1995   */\n      add\n        /* \"#utility.yul\":1977:2005   */\n      and\n        /* \"#utility.yul\":1967:2005   */\n      swap1\n      pop\n        /* \"#utility.yul\":1909:2011   */\n      swap2\n      swap1\n      pop\n      jump\t// out\n        /* \"#utility.yul\":2017:2394   */\n    tag_95:\n        /* \"#utility.yul\":2105:2108   */\n      0x00\n        /* \"#utility.yul\":2133:2172   */\n      tag_159\n        /* \"#utility.yul\":2166:2171   */\n      dup3\n        /* \"#utility.yul\":2133:2172   */\n      tag_91\n      jump\t// in\n    tag_159:\n        /* \"#utility.yul\":2188:2259   */\n      tag_160\n        /* \"#utility.yul\":2252:2258   */\n      dup2\n        /* \"#utility.yul\":2247:2250   */\n      dup6\n        /* \"#utility.yul\":2188:2259   */\n      tag_92\n      jump\t// in\n    tag_160:\n        /* \"#utility.yul\":2181:2259   */\n      swap4\n      pop\n        /* \"#utility.yul\":2268:2333   */\n      tag_161\n        /* \"#utility.yul\":2326:2332   */\n      dup2\n        /* \"#utility.yul\":2321:2324   */\n      dup6\n        /* \"#utility.yul\":2314:2318   */\n      0x20\n        /* \"#utility.yul\":2307:2312   */\n      dup7\n        /* \"#utility.yul\":2303:2319   */\n      add\n        /* \"#utility.yul\":2268:2333   */\n      tag_93\n      jump\t// in\n    tag_161:\n        /* \"#utility.yul\":2358:2387   */\n      tag_162\n        /* \"#utility.yul\":2380:2386   */\n      dup2\n        /* \"#utility.yul\":2358:2387   */\n      tag_94\n      jump\t// in\n    tag_162:\n        /* \"#utility.yul\":2353:2356   */\n      dup5\n        /* \"#utility.yul\":2349:2388   */\n      add\n        /* \"#utility.yul\":2342:2388   */\n      swap2\n      pop\n        /* \"#utility.yul\":2109:2394   */\n      pop\n        /* \"#utility.yul\":2017:2394   */\n      swap3\n      swap2\n      pop\n      pop\n      jump\t// out\n        /* \"#utility.yul\":2400:2490   */\n    tag_96:\n        /* \"#utility.yul\":2434:2441   */\n      0x00\n        /* \"#utility.yul\":2477:2482   */\n      dup2\n        /* \"#utility.yul\":2470:2483   */\n      iszero\n        /* \"#utility.yul\":2463:2484   */\n      iszero\n        /* \"#utility.yul\":2452:2484   */\n      swap1\n      pop\n        /* \"#utility.yul\":2400:2490   */\n      swap2\n      swap1\n      pop\n      jump\t// out\n        /* \"#utility.yul\":2496:2605   */\n    tag_97:\n        /* \"#utility.yul\":2577:2598   */\n      tag_165\n        /* \"#utility.yul\":2592:2597   */\n      dup2\n        /* \"#utility.yul\":2577:2598   */\n      tag_96\n      jump\t// in\n    tag_165:\n        /* \"#utility.yul\":2572:2575   */\n      dup3\n        /* \"#utility.yul\":2565:2599   */\n      mstore\n        /* \"#utility.yul\":2496:2605   */\n      pop\n      pop\n      jump\t// out\n        /* \"#utility.yul\":2611:2737   */\n    tag_98:\n        /* \"#utility.yul\":2648:2655   */\n      0x00\n        /* \"#utility.yul\":2688:2730   */\n      0xffffffffffffffffffffffffffffffffffffffff\n        /* \"#utility.yul\":2681:2686   */\n      dup3\n        /* \"#utility.yul\":2677:2731   */\n      and\n        /* \"#utility.yul\":2666:2731   */\n      swap1\n      pop\n        /* \"#utility.yul\":2611:2737   */\n      swap2\n      swap1\n      pop\n      jump\t// out\n        /* \"#utility.yul\":2743:2847   */\n    tag_99:\n        /* \"#utility.yul\":2788:2795   */\n      0x00\n        /* \"#utility.yul\":2817:2841   */\n      tag_168\n        /* \"#utility.yul\":2835:2840   */\n      dup3\n        /* \"#utility.yul\":2817:2841   */\n      tag_98\n      jump\t// in\n    tag_168:\n        /* \"#utility.yul\":2806:2841   */\n      swap1\n      pop\n        /* \"#utility.yul\":2743:2847   */\n      swap2\n      swap1\n      pop\n      jump\t// out\n        /* \"#utility.yul\":2853:2995   */\n    tag_100:\n        /* \"#utility.yul\":2956:2988   */\n      tag_170\n        /* \"#utility.yul\":2982:2987   */\n      dup2\n        /* \"#utility.yul\":2956:2988   */\n      tag_99\n      jump\t// in\n    tag_170:\n        /* \"#utility.yul\":2951:2954   */\n      dup3\n        /* \"#utility.yul\":2944:2989   */\n      mstore\n        /* \"#utility.yul\":2853:2995   */\n      pop\n      pop\n      jump\t// out\n        /* \"#utility.yul\":3001:3097   */\n    tag_101:\n        /* \"#utility.yul\":3038:3045   */\n      0x00\n        /* \"#utility.yul\":3067:3091   */\n      tag_172\n        /* \"#utility.yul\":3085:3090   */\n      dup3\n        /* \"#utility.yul\":3067:3091   */\n      tag_98\n      jump\t// in\n    tag_172:\n        /* \"#utility.yul\":3056:3091   */\n      swap1\n      pop\n        /* \"#utility.yul\":3001:3097   */\n      swap2\n      swap1\n      pop\n      jump\t// out\n        /* \"#utility.yul\":3103:3221   */\n    tag_102:\n        /* \"#utility.yul\":3190:3214   */\n      tag_174\n        /* \"#utility.yul\":3208:3213   */\n      dup2\n        /* \"#utility.yul\":3190:3214   */\n      tag_101\n      jump\t// in\n    tag_174:\n        /* \"#utility.yul\":3185:3188   */\n      dup3\n        /* \"#utility.yul\":3178:3215   */\n      mstore\n        /* \"#utility.yul\":3103:3221   */\n      pop\n      pop\n      jump\t// out\n        /* \"#utility.yul\":3227:4315   */\n    tag_21:\n        /* \"#utility.yul\":3538:3542   */\n      0x00\n        /* \"#utility.yul\":3576:3579   */\n      0xe0\n        /* \"#utility.yul\":3565:3574   */\n      dup3\n        /* \"#utility.yul\":3561:3580   */\n      add\n        /* \"#utility.yul\":3553:3580   */\n      swap1\n      pop\n        /* \"#utility.yul\":3626:3635   */\n      dup2\n        /* \"#utility.yul\":3620:3624   */\n      dup2\n        /* \"#utility.yul\":3616:3636   */\n      sub\n        /* \"#utility.yul\":3612:3613   */\n      0x00\n        /* \"#utility.yul\":3601:3610   */\n      dup4\n        /* \"#utility.yul\":3597:3614   */\n      add\n        /* \"#utility.yul\":3590:3637   */\n      mstore\n        /* \"#utility.yul\":3654:3732   */\n      tag_176\n        /* \"#utility.yul\":3727:3731   */\n      dup2\n        /* \"#utility.yul\":3718:3724   */\n      dup11\n        /* \"#utility.yul\":3654:3732   */\n      tag_95\n      jump\t// in\n    tag_176:\n        /* \"#utility.yul\":3646:3732   */\n      swap1\n      pop\n        /* \"#utility.yul\":3779:3788   */\n      dup2\n        /* \"#utility.yul\":3773:3777   */\n      dup2\n        /* \"#utility.yul\":3769:3789   */\n      sub\n        /* \"#utility.yul\":3764:3766   */\n      0x20\n        /* \"#utility.yul\":3753:3762   */\n      dup4\n        /* \"#utility.yul\":3749:3767   */\n      add\n        /* \"#utility.yul\":3742:3790   */\n      mstore\n        /* \"#utility.yul\":3807:3885   */\n      tag_177\n        /* \"#utility.yul\":3880:3884   */\n      dup2\n        /* \"#utility.yul\":3871:3877   */\n      dup10\n        /* \"#utility.yul\":3807:3885   */\n      tag_95\n      jump\t// in\n    tag_177:\n        /* \"#utility.yul\":3799:3885   */\n      swap1\n      pop\n        /* \"#utility.yul\":3895:3967   */\n      tag_178\n        /* \"#utility.yul\":3963:3965   */\n      0x40\n        /* \"#utility.yul\":3952:3961   */\n      dup4\n        /* \"#utility.yul\":3948:3966   */\n      add\n        /* \"#utility.yul\":3939:3945   */\n      dup9\n        /* \"#utility.yul\":3895:3967   */\n      tag_90\n      jump\t// in\n    tag_178:\n        /* \"#utility.yul\":3977:4049   */\n      tag_179\n        /* \"#utility.yul\":4045:4047   */\n      0x60\n        /* \"#utility.yul\":4034:4043   */\n      dup4\n        /* \"#utility.yul\":4030:4048   */\n      add\n        /* \"#utility.yul\":4021:4027   */\n      dup8\n        /* \"#utility.yul\":3977:4049   */\n      tag_90\n      jump\t// in\n    tag_179:\n        /* \"#utility.yul\":4059:4126   */\n      tag_180\n        /* \"#utility.yul\":4121:4124   */\n      0x80\n        /* \"#utility.yul\":4110:4119   */\n      dup4\n        /* \"#utility.yul\":4106:4125   */\n      add\n        /* \"#utility.yul\":4097:4103   */\n      dup7\n        /* \"#utility.yul\":4059:4126   */\n      tag_97\n      jump\t// in\n    tag_180:\n        /* \"#utility.yul\":4136:4225   */\n      tag_181\n        /* \"#utility.yul\":4220:4223   */\n      0xa0\n        /* \"#utility.yul\":4209:4218   */\n      dup4\n        /* \"#utility.yul\":4205:4224   */\n      add\n        /* \"#utility.yul\":4196:4202   */\n      dup6\n        /* \"#utility.yul\":4136:4225   */\n      tag_100\n      jump\t// in\n    tag_181:\n        /* \"#utility.yul\":4235:4308   */\n      tag_182\n        /* \"#utility.yul\":4303:4306   */\n      0xc0\n        /* \"#utility.yul\":4292:4301   */\n      dup4\n        /* \"#utility.yul\":4288:4307   */\n      add\n        /* \"#utility.yul\":4279:4285   */\n      dup5\n        /* \"#utility.yul\":4235:4308   */\n      tag_102\n      jump\t// in\n    tag_182:\n        /* \"#utility.yul\":3227:4315   */\n      swap9\n      swap8\n      pop\n      pop\n      pop\n      pop\n      pop\n      pop\n      pop\n      pop\n      jump\t// out\n        /* \"#utility.yul\":4321:4438   */\n    tag_103:\n        /* \"#utility.yul\":4430:4431   */\n      0x00\n        /* \"#utility.yul\":4427:4428   */\n      dup1\n        /* \"#utility.yul\":4420:4432   */\n      revert\n        /* \"#utility.yul\":4444:4561   */\n    tag_104:\n        /* \"#utility.yul\":4553:4554   */\n      0x00\n        /* \"#utility.yul\":4550:4551   */\n      dup1\n        /* \"#utility.yul\":4543:4555   */\n      revert\n        /* \"#utility.yul\":4567:4747   */\n    tag_105:\n        /* \"#utility.yul\":4615:4692   */\n      0x4e487b7100000000000000000000000000000000000000000000000000000000\n        /* \"#utility.yul\":4612:4613   */\n      0x00\n        /* \"#utility.yul\":4605:4693   */\n      mstore\n        /* \"#utility.yul\":4712:4716   */\n      0x41\n        /* \"#utility.yul\":4709:4710   */\n      0x04\n        /* \"#utility.yul\":4702:4717   */\n      mstore\n        /* \"#utility.yul\":4736:4740   */\n      0x24\n        /* \"#utility.yul\":4733:4734   */\n      0x00\n        /* \"#utility.yul\":4726:4741   */\n      revert\n        /* \"#utility.yul\":4753:5034   */\n    tag_106:\n        /* \"#utility.yul\":4836:4863   */\n      tag_187\n        /* \"#utility.yul\":4858:4862   */\n      dup3\n        /* \"#utility.yul\":4836:4863   */\n      tag_94\n      jump\t// in\n    tag_187:\n        /* \"#utility.yul\":4828:4834   */\n      dup2\n        /* \"#utility.yul\":4824:4864   */\n      add\n        /* \"#utility.yul\":4966:4972   */\n      dup2\n        /* \"#utility.yul\":4954:4964   */\n      dup2\n        /* \"#utility.yul\":4951:4973   */\n      lt\n        /* \"#utility.yul\":4930:4948   */\n      0xffffffffffffffff\n        /* \"#utility.yul\":4918:4928   */\n      dup3\n        /* \"#utility.yul\":4915:4949   */\n      gt\n        /* \"#utility.yul\":4912:4974   */\n      or\n        /* \"#utility.yul\":4909:4997   */\n      iszero\n      tag_188\n      jumpi\n        /* \"#utility.yul\":4977:4995   */\n      tag_189\n      tag_105\n      jump\t// in\n    tag_189:\n        /* \"#utility.yul\":4909:4997   */\n    tag_188:\n        /* \"#utility.yul\":5017:5027   */\n      dup1\n        /* \"#utility.yul\":5013:5015   */\n      0x40\n        /* \"#utility.yul\":5006:5028   */\n      mstore\n        /* \"#utility.yul\":4796:5034   */\n      pop\n        /* \"#utility.yul\":4753:5034   */\n      pop\n      pop\n      jump\t// out\n        /* \"#utility.yul\":5040:5169   */\n    tag_107:\n        /* \"#utility.yul\":5074:5080   */\n      0x00\n        /* \"#utility.yul\":5101:5121   */\n      tag_191\n      tag_84\n      jump\t// in\n    tag_191:\n        /* \"#utility.yul\":5091:5121   */\n      swap1\n      pop\n        /* \"#utility.yul\":5130:5163   */\n      tag_192\n        /* \"#utility.yul\":5158:5162   */\n      dup3\n        /* \"#utility.yul\":5150:5156   */\n      dup3\n        /* \"#utility.yul\":5130:5163   */\n      tag_106\n      jump\t// in\n    tag_192:\n        /* \"#utility.yul\":5040:5169   */\n      swap2\n      swap1\n      pop\n      jump\t// out\n        /* \"#utility.yul\":5175:5483   */\n    tag_108:\n        /* \"#utility.yul\":5237:5241   */\n      0x00\n        /* \"#utility.yul\":5327:5345   */\n      0xffffffffffffffff\n        /* \"#utility.yul\":5319:5325   */\n      dup3\n        /* \"#utility.yul\":5316:5346   */\n      gt\n        /* \"#utility.yul\":5313:5369   */\n      iszero\n      tag_194\n      jumpi\n        /* \"#utility.yul\":5349:5367   */\n      tag_195\n      tag_105\n      jump\t// in\n    tag_195:\n        /* \"#utility.yul\":5313:5369   */\n    tag_194:\n        /* \"#utility.yul\":5387:5416   */\n      tag_196\n        /* \"#utility.yul\":5409:5415   */\n      dup3\n        /* \"#utility.yul\":5387:5416   */\n      tag_94\n      jump\t// in\n    tag_196:\n        /* \"#utility.yul\":5379:5416   */\n      swap1\n      pop\n        /* \"#utility.yul\":5471:5475   */\n      0x20\n        /* \"#utility.yul\":5465:5469   */\n      dup2\n        /* \"#utility.yul\":5461:5476   */\n      add\n        /* \"#utility.yul\":5453:5476   */\n      swap1\n      pop\n        /* \"#utility.yul\":5175:5483   */\n      swap2\n      swap1\n      pop\n      jump\t// out\n        /* \"#utility.yul\":5489:5635   */\n    tag_109:\n        /* \"#utility.yul\":5586:5592   */\n      dup3\n        /* \"#utility.yul\":5581:5584   */\n      dup2\n        /* \"#utility.yul\":5576:5579   */\n      dup4\n        /* \"#utility.yul\":5563:5593   */\n      calldatacopy\n        /* \"#utility.yul\":5627:5628   */\n      0x00\n        /* \"#utility.yul\":5618:5624   */\n      dup4\n        /* \"#utility.yul\":5613:5616   */\n      dup4\n        /* \"#utility.yul\":5609:5625   */\n      add\n        /* \"#utility.yul\":5602:5629   */\n      mstore\n        /* \"#utility.yul\":5489:5635   */\n      pop\n      pop\n      pop\n      jump\t// out\n        /* \"#utility.yul\":5641:6066   */\n    tag_110:\n        /* \"#utility.yul\":5719:5724   */\n      0x00\n        /* \"#utility.yul\":5744:5810   */\n      tag_199\n        /* \"#utility.yul\":5760:5809   */\n      tag_200\n        /* \"#utility.yul\":5802:5808   */\n      dup5\n        /* \"#utility.yul\":5760:5809   */\n      tag_108\n      jump\t// in\n    tag_200:\n        /* \"#utility.yul\":5744:5810   */\n      tag_107\n      jump\t// in\n    tag_199:\n        /* \"#utility.yul\":5735:5810   */\n      swap1\n      pop\n        /* \"#utility.yul\":5833:5839   */\n      dup3\n        /* \"#utility.yul\":5826:5831   */\n      dup2\n        /* \"#utility.yul\":5819:5840   */\n      mstore\n        /* \"#utility.yul\":5871:5875   */\n      0x20\n        /* \"#utility.yul\":5864:5869   */\n      dup2\n        /* \"#utility.yul\":5860:5876   */\n      add\n        /* \"#utility.yul\":5909:5912   */\n      dup5\n        /* \"#utility.yul\":5900:5906   */\n      dup5\n        /* \"#utility.yul\":5895:5898   */\n      dup5\n        /* \"#utility.yul\":5891:5907   */\n      add\n        /* \"#utility.yul\":5888:5913   */\n      gt\n        /* \"#utility.yul\":5885:5997   */\n      iszero\n      tag_201\n      jumpi\n        /* \"#utility.yul\":5916:5995   */\n      tag_202\n      tag_104\n      jump\t// in\n    tag_202:\n        /* \"#utility.yul\":5885:5997   */\n    tag_201:\n        /* \"#utility.yul\":6006:6060   */\n      tag_203\n        /* \"#utility.yul\":6053:6059   */\n      dup5\n        /* \"#utility.yul\":6048:6051   */\n      dup3\n        /* \"#utility.yul\":6043:6046   */\n      dup6\n        /* \"#utility.yul\":6006:6060   */\n      tag_109\n      jump\t// in\n    tag_203:\n        /* \"#utility.yul\":5725:6066   */\n      pop\n        /* \"#utility.yul\":5641:6066   */\n      swap4\n      swap3\n      pop\n      pop\n      pop\n      jump\t// out\n        /* \"#utility.yul\":6086:6426   */\n    tag_111:\n        /* \"#utility.yul\":6142:6147   */\n      0x00\n        /* \"#utility.yul\":6191:6194   */\n      dup3\n        /* \"#utility.yul\":6184:6188   */\n      0x1f\n        /* \"#utility.yul\":6176:6182   */\n      dup4\n        /* \"#utility.yul\":6172:6189   */\n      add\n        /* \"#utility.yul\":6168:6195   */\n      slt\n        /* \"#utility.yul\":6158:6280   */\n      tag_205\n      jumpi\n        /* \"#utility.yul\":6199:6278   */\n      tag_206\n      tag_103\n      jump\t// in\n    tag_206:\n        /* \"#utility.yul\":6158:6280   */\n    tag_205:\n        /* \"#utility.yul\":6316:6322   */\n      dup2\n        /* \"#utility.yul\":6303:6323   */\n      calldataload\n        /* \"#utility.yul\":6341:6420   */\n      tag_207\n        /* \"#utility.yul\":6416:6419   */\n      dup5\n        /* \"#utility.yul\":6408:6414   */\n      dup3\n        /* \"#utility.yul\":6401:6405   */\n      0x20\n        /* \"#utility.yul\":6393:6399   */\n      dup7\n        /* \"#utility.yul\":6389:6406   */\n      add\n        /* \"#utility.yul\":6341:6420   */\n      tag_110\n      jump\t// in\n    tag_207:\n        /* \"#utility.yul\":6332:6420   */\n      swap2\n      pop\n        /* \"#utility.yul\":6148:6426   */\n      pop\n        /* \"#utility.yul\":6086:6426   */\n      swap3\n      swap2\n      pop\n      pop\n      jump\t// out\n        /* \"#utility.yul\":6432:7557   */\n    tag_25:\n        /* \"#utility.yul\":6538:6544   */\n      0x00\n        /* \"#utility.yul\":6546:6552   */\n      dup1\n        /* \"#utility.yul\":6554:6560   */\n      0x00\n        /* \"#utility.yul\":6562:6568   */\n      dup1\n        /* \"#utility.yul\":6611:6614   */\n      0x80\n        /* \"#utility.yul\":6599:6608   */\n      dup6\n        /* \"#utility.yul\":6590:6597   */\n      dup8\n        /* \"#utility.yul\":6586:6609   */\n      sub\n        /* \"#utility.yul\":6582:6615   */\n      slt\n        /* \"#utility.yul\":6579:6699   */\n      iszero\n      tag_209\n      jumpi\n        /* \"#utility.yul\":6618:6697   */\n      tag_210\n      tag_85\n      jump\t// in\n    tag_210:\n        /* \"#utility.yul\":6579:6699   */\n    tag_209:\n        /* \"#utility.yul\":6766:6767   */\n      0x00\n        /* \"#utility.yul\":6755:6764   */\n      dup6\n        /* \"#utility.yul\":6751:6768   */\n      add\n        /* \"#utility.yul\":6738:6769   */\n      calldataload\n        /* \"#utility.yul\":6796:6814   */\n      0xffffffffffffffff\n        /* \"#utility.yul\":6788:6794   */\n      dup2\n        /* \"#utility.yul\":6785:6815   */\n      gt\n        /* \"#utility.yul\":6782:6899   */\n      iszero\n      tag_211\n      jumpi\n        /* \"#utility.yul\":6818:6897   */\n      tag_212\n      tag_86\n      jump\t// in\n    tag_212:\n        /* \"#utility.yul\":6782:6899   */\n    tag_211:\n        /* \"#utility.yul\":6923:6986   */\n      tag_213\n        /* \"#utility.yul\":6978:6985   */\n      dup8\n        /* \"#utility.yul\":6969:6975   */\n      dup3\n        /* \"#utility.yul\":6958:6967   */\n      dup9\n        /* \"#utility.yul\":6954:6976   */\n      add\n        /* \"#utility.yul\":6923:6986   */\n      tag_111\n      jump\t// in\n    tag_213:\n        /* \"#utility.yul\":6913:6986   */\n      swap5\n      pop\n        /* \"#utility.yul\":6709:6996   */\n      pop\n        /* \"#utility.yul\":7063:7065   */\n      0x20\n        /* \"#utility.yul\":7052:7061   */\n      dup6\n        /* \"#utility.yul\":7048:7066   */\n      add\n        /* \"#utility.yul\":7035:7067   */\n      calldataload\n        /* \"#utility.yul\":7094:7112   */\n      0xffffffffffffffff\n        /* \"#utility.yul\":7086:7092   */\n      dup2\n        /* \"#utility.yul\":7083:7113   */\n      gt\n        /* \"#utility.yul\":7080:7197   */\n      iszero\n      tag_214\n      jumpi\n        /* \"#utility.yul\":7116:7195   */\n      tag_215\n      tag_86\n      jump\t// in\n    tag_215:\n        /* \"#utility.yul\":7080:7197   */\n    tag_214:\n        /* \"#utility.yul\":7221:7284   */\n      tag_216\n        /* \"#utility.yul\":7276:7283   */\n      dup8\n        /* \"#utility.yul\":7267:7273   */\n      dup3\n        /* \"#utility.yul\":7256:7265   */\n      dup9\n        /* \"#utility.yul\":7252:7274   */\n      add\n        /* \"#utility.yul\":7221:7284   */\n      tag_111\n      jump\t// in\n    tag_216:\n        /* \"#utility.yul\":7211:7284   */\n      swap4\n      pop\n        /* \"#utility.yul\":7006:7294   */\n      pop\n        /* \"#utility.yul\":7333:7335   */\n      0x40\n        /* \"#utility.yul\":7359:7412   */\n      tag_217\n        /* \"#utility.yul\":7404:7411   */\n      dup8\n        /* \"#utility.yul\":7395:7401   */\n      dup3\n        /* \"#utility.yul\":7384:7393   */\n      dup9\n        /* \"#utility.yul\":7380:7402   */\n      add\n        /* \"#utility.yul\":7359:7412   */\n      tag_89\n      jump\t// in\n    tag_217:\n        /* \"#utility.yul\":7349:7412   */\n      swap3\n      pop\n        /* \"#utility.yul\":7304:7422   */\n      pop\n        /* \"#utility.yul\":7461:7463   */\n      0x60\n        /* \"#utility.yul\":7487:7540   */\n      tag_218\n        /* \"#utility.yul\":7532:7539   */\n      dup8\n        /* \"#utility.yul\":7523:7529   */\n      dup3\n        /* \"#utility.yul\":7512:7521   */\n      dup9\n        /* \"#utility.yul\":7508:7530   */\n      add\n        /* \"#utility.yul\":7487:7540   */\n      tag_89\n      jump\t// in\n    tag_218:\n        /* \"#utility.yul\":7477:7540   */\n      swap2\n      pop\n        /* \"#utility.yul\":7432:7550   */\n      pop\n        /* \"#utility.yul\":6432:7557   */\n      swap3\n      swap6\n      swap2\n      swap5\n      pop\n      swap3\n      pop\n      jump\t// out\n        /* \"#utility.yul\":7563:8508   */\n    tag_32:\n        /* \"#utility.yul\":7830:7834   */\n      0x00\n        /* \"#utility.yul\":7868:7871   */\n      0xc0\n        /* \"#utility.yul\":7857:7866   */\n      dup3\n        /* \"#utility.yul\":7853:7872   */\n      add\n        /* \"#utility.yul\":7845:7872   */\n      swap1\n      pop\n        /* \"#utility.yul\":7918:7927   */\n      dup2\n        /* \"#utility.yul\":7912:7916   */\n      dup2\n        /* \"#utility.yul\":7908:7928   */\n      sub\n        /* \"#utility.yul\":7904:7905   */\n      0x00\n        /* \"#utility.yul\":7893:7902   */\n      dup4\n        /* \"#utility.yul\":7889:7906   */\n      add\n        /* \"#utility.yul\":7882:7929   */\n      mstore\n        /* \"#utility.yul\":7946:8024   */\n      tag_220\n        /* \"#utility.yul\":8019:8023   */\n      dup2\n        /* \"#utility.yul\":8010:8016   */\n      dup10\n        /* \"#utility.yul\":7946:8024   */\n      tag_95\n      jump\t// in\n    tag_220:\n        /* \"#utility.yul\":7938:8024   */\n      swap1\n      pop\n        /* \"#utility.yul\":8071:8080   */\n      dup2\n        /* \"#utility.yul\":8065:8069   */\n      dup2\n        /* \"#utility.yul\":8061:8081   */\n      sub\n        /* \"#utility.yul\":8056:8058   */\n      0x20\n        /* \"#utility.yul\":8045:8054   */\n      dup4\n        /* \"#utility.yul\":8041:8059   */\n      add\n        /* \"#utility.yul\":8034:8082   */\n      mstore\n        /* \"#utility.yul\":8099:8177   */\n      tag_221\n        /* \"#utility.yul\":8172:8176   */\n      dup2\n        /* \"#utility.yul\":8163:8169   */\n      dup9\n        /* \"#utility.yul\":8099:8177   */\n      tag_95\n      jump\t// in\n    tag_221:\n        /* \"#utility.yul\":8091:8177   */\n      swap1\n      pop\n        /* \"#utility.yul\":8187:8259   */\n      tag_222\n        /* \"#utility.yul\":8255:8257   */\n      0x40\n        /* \"#utility.yul\":8244:8253   */\n      dup4\n        /* \"#utility.yul\":8240:8258   */\n      add\n        /* \"#utility.yul\":8231:8237   */\n      dup8\n        /* \"#utility.yul\":8187:8259   */\n      tag_90\n      jump\t// in\n    tag_222:\n        /* \"#utility.yul\":8269:8335   */\n      tag_223\n        /* \"#utility.yul\":8331:8333   */\n      0x60\n        /* \"#utility.yul\":8320:8329   */\n      dup4\n        /* \"#utility.yul\":8316:8334   */\n      add\n        /* \"#utility.yul\":8307:8313   */\n      dup7\n        /* \"#utility.yul\":8269:8335   */\n      tag_97\n      jump\t// in\n    tag_223:\n        /* \"#utility.yul\":8345:8418   */\n      tag_224\n        /* \"#utility.yul\":8413:8416   */\n      0x80\n        /* \"#utility.yul\":8402:8411   */\n      dup4\n        /* \"#utility.yul\":8398:8417   */\n      add\n        /* \"#utility.yul\":8389:8395   */\n      dup6\n        /* \"#utility.yul\":8345:8418   */\n      tag_102\n      jump\t// in\n    tag_224:\n        /* \"#utility.yul\":8428:8501   */\n      tag_225\n        /* \"#utility.yul\":8496:8499   */\n      0xa0\n        /* \"#utility.yul\":8485:8494   */\n      dup4\n        /* \"#utility.yul\":8481:8500   */\n      add\n        /* \"#utility.yul\":8472:8478   */\n      dup5\n        /* \"#utility.yul\":8428:8501   */\n      tag_102\n      jump\t// in\n    tag_225:\n        /* \"#utility.yul\":7563:8508   */\n      swap8\n      swap7\n      pop\n      pop\n      pop\n      pop\n      pop\n      pop\n      pop\n      jump\t// out\n        /* \"#utility.yul\":8514:8694   */\n    tag_36:\n        /* \"#utility.yul\":8562:8639   */\n      0x4e487b7100000000000000000000000000000000000000000000000000000000\n        /* \"#utility.yul\":8559:8560   */\n      0x00\n        /* \"#utility.yul\":8552:8640   */\n      mstore\n        /* \"#utility.yul\":8659:8663   */\n      0x32\n        /* \"#utility.yul\":8656:8657   */\n      0x04\n        /* \"#utility.yul\":8649:8664   */\n      mstore\n        /* \"#utility.yul\":8683:8687   */\n      0x24\n        /* \"#utility.yul\":8680:8681   */\n      0x00\n        /* \"#utility.yul\":8673:8688   */\n      revert\n        /* \"#utility.yul\":8700:8870   */\n    tag_112:\n        /* \"#utility.yul\":8840:8862   */\n      0x56656869636c6520616c726561647920736f6c64000000000000000000000000\n        /* \"#utility.yul\":8836:8837   */\n      0x00\n        /* \"#utility.yul\":8828:8834   */\n      dup3\n        /* \"#utility.yul\":8824:8838   */\n      add\n        /* \"#utility.yul\":8817:8863   */\n      mstore\n        /* \"#utility.yul\":8700:8870   */\n      pop\n      jump\t// out\n        /* \"#utility.yul\":8876:9242   */\n    tag_113:\n        /* \"#utility.yul\":9018:9021   */\n      0x00\n        /* \"#utility.yul\":9039:9106   */\n      tag_229\n        /* \"#utility.yul\":9103:9105   */\n      0x14\n        /* \"#utility.yul\":9098:9101   */\n      dup4\n        /* \"#utility.yul\":9039:9106   */\n      tag_92\n      jump\t// in\n    tag_229:\n        /* \"#utility.yul\":9032:9106   */\n      swap2\n      pop\n        /* \"#utility.yul\":9115:9208   */\n      tag_230\n        /* \"#utility.yul\":9204:9207   */\n      dup3\n        /* \"#utility.yul\":9115:9208   */\n      tag_112\n      jump\t// in\n    tag_230:\n        /* \"#utility.yul\":9233:9235   */\n      0x20\n        /* \"#utility.yul\":9228:9231   */\n      dup3\n        /* \"#utility.yul\":9224:9236   */\n      add\n        /* \"#utility.yul\":9217:9236   */\n      swap1\n      pop\n        /* \"#utility.yul\":8876:9242   */\n      swap2\n      swap1\n      pop\n      jump\t// out\n        /* \"#utility.yul\":9248:9667   */\n    tag_40:\n        /* \"#utility.yul\":9414:9418   */\n      0x00\n        /* \"#utility.yul\":9452:9454   */\n      0x20\n        /* \"#utility.yul\":9441:9450   */\n      dup3\n        /* \"#utility.yul\":9437:9455   */\n      add\n        /* \"#utility.yul\":9429:9455   */\n      swap1\n      pop\n        /* \"#utility.yul\":9501:9510   */\n      dup2\n        /* \"#utility.yul\":9495:9499   */\n      dup2\n        /* \"#utility.yul\":9491:9511   */\n      sub\n        /* \"#utility.yul\":9487:9488   */\n      0x00\n        /* \"#utility.yul\":9476:9485   */\n      dup4\n        /* \"#utility.yul\":9472:9489   */\n      add\n        /* \"#utility.yul\":9465:9512   */\n      mstore\n        /* \"#utility.yul\":9529:9660   */\n      tag_232\n        /* \"#utility.yul\":9655:9659   */\n      dup2\n        /* \"#utility.yul\":9529:9660   */\n      tag_113\n      jump\t// in\n    tag_232:\n        /* \"#utility.yul\":9521:9660   */\n      swap1\n      pop\n        /* \"#utility.yul\":9248:9667   */\n      swap2\n      swap1\n      pop\n      jump\t// out\n        /* \"#utility.yul\":9673:9841   */\n    tag_114:\n        /* \"#utility.yul\":9813:9833   */\n      0x496e73756666696369656e742066756e64730000000000000000000000000000\n        /* \"#utility.yul\":9809:9810   */\n      0x00\n        /* \"#utility.yul\":9801:9807   */\n      dup3\n        /* \"#utility.yul\":9797:9811   */\n      add\n        /* \"#utility.yul\":9790:9834   */\n      mstore\n        /* \"#utility.yul\":9673:9841   */\n      pop\n      jump\t// out\n        /* \"#utility.yul\":9847:10213   */\n    tag_115:\n        /* \"#utility.yul\":9989:9992   */\n      0x00\n        /* \"#utility.yul\":10010:10077   */\n      tag_235\n        /* \"#utility.yul\":10074:10076   */\n      0x12\n        /* \"#utility.yul\":10069:10072   */\n      dup4\n        /* \"#utility.yul\":10010:10077   */\n      tag_92\n      jump\t// in\n    tag_235:\n        /* \"#utility.yul\":10003:10077   */\n      swap2\n      pop\n        /* \"#utility.yul\":10086:10179   */\n      tag_236\n        /* \"#utility.yul\":10175:10178   */\n      dup3\n        /* \"#utility.yul\":10086:10179   */\n      tag_114\n      jump\t// in\n    tag_236:\n        /* \"#utility.yul\":10204:10206   */\n      0x20\n        /* \"#utility.yul\":10199:10202   */\n      dup3\n        /* \"#utility.yul\":10195:10207   */\n      add\n        /* \"#utility.yul\":10188:10207   */\n      swap1\n      pop\n        /* \"#utility.yul\":9847:10213   */\n      swap2\n      swap1\n      pop\n      jump\t// out\n        /* \"#utility.yul\":10219:10638   */\n    tag_43:\n        /* \"#utility.yul\":10385:10389   */\n      0x00\n        /* \"#utility.yul\":10423:10425   */\n      0x20\n        /* \"#utility.yul\":10412:10421   */\n      dup3\n        /* \"#utility.yul\":10408:10426   */\n      add\n        /* \"#utility.yul\":10400:10426   */\n      swap1\n      pop\n        /* \"#utility.yul\":10472:10481   */\n      dup2\n        /* \"#utility.yul\":10466:10470   */\n      dup2\n        /* \"#utility.yul\":10462:10482   */\n      sub\n        /* \"#utility.yul\":10458:10459   */\n      0x00\n        /* \"#utility.yul\":10447:10456   */\n      dup4\n        /* \"#utility.yul\":10443:10460   */\n      add\n        /* \"#utility.yul\":10436:10483   */\n      mstore\n        /* \"#utility.yul\":10500:10631   */\n      tag_238\n        /* \"#utility.yul\":10626:10630   */\n      dup2\n        /* \"#utility.yul\":10500:10631   */\n      tag_115\n      jump\t// in\n    tag_238:\n        /* \"#utility.yul\":10492:10631   */\n      swap1\n      pop\n        /* \"#utility.yul\":10219:10638   */\n      swap2\n      swap1\n      pop\n      jump\t// out\n        /* \"#utility.yul\":10644:10824   */\n    tag_116:\n        /* \"#utility.yul\":10692:10769   */\n      0x4e487b7100000000000000000000000000000000000000000000000000000000\n        /* \"#utility.yul\":10689:10690   */\n      0x00\n        /* \"#utility.yul\":10682:10770   */\n      mstore\n        /* \"#utility.yul\":10789:10793   */\n      0x22\n        /* \"#utility.yul\":10786:10787   */\n      0x04\n        /* \"#utility.yul\":10779:10794   */\n      mstore\n        /* \"#utility.yul\":10813:10817   */\n      0x24\n        /* \"#utility.yul\":10810:10811   */\n      0x00\n        /* \"#utility.yul\":10803:10818   */\n      revert\n        /* \"#utility.yul\":10830:11150   */\n    tag_51:\n        /* \"#utility.yul\":10874:10880   */\n      0x00\n        /* \"#utility.yul\":10911:10912   */\n      0x02\n        /* \"#utility.yul\":10905:10909   */\n      dup3\n        /* \"#utility.yul\":10901:10913   */\n      div\n        /* \"#utility.yul\":10891:10913   */\n      swap1\n      pop\n        /* \"#utility.yul\":10958:10959   */\n      0x01\n        /* \"#utility.yul\":10952:10956   */\n      dup3\n        /* \"#utility.yul\":10948:10960   */\n      and\n        /* \"#utility.yul\":10979:10997   */\n      dup1\n        /* \"#utility.yul\":10969:11050   */\n      tag_241\n      jumpi\n        /* \"#utility.yul\":11035:11039   */\n      0x7f\n        /* \"#utility.yul\":11027:11033   */\n      dup3\n        /* \"#utility.yul\":11023:11040   */\n      and\n        /* \"#utility.yul\":11013:11040   */\n      swap2\n      pop\n        /* \"#utility.yul\":10969:11050   */\n    tag_241:\n        /* \"#utility.yul\":11097:11099   */\n      0x20\n        /* \"#utility.yul\":11089:11095   */\n      dup3\n        /* \"#utility.yul\":11086:11100   */\n      lt\n        /* \"#utility.yul\":11066:11084   */\n      dup2\n        /* \"#utility.yul\":11063:11101   */\n      sub\n        /* \"#utility.yul\":11060:11144   */\n      tag_242\n      jumpi\n        /* \"#utility.yul\":11116:11134   */\n      tag_243\n      tag_116\n      jump\t// in\n    tag_243:\n        /* \"#utility.yul\":11060:11144   */\n    tag_242:\n        /* \"#utility.yul\":10881:11150   */\n      pop\n        /* \"#utility.yul\":10830:11150   */\n      swap2\n      swap1\n      pop\n      jump\t// out\n        /* \"#utility.yul\":11156:11297   */\n    tag_117:\n        /* \"#utility.yul\":11205:11209   */\n      0x00\n        /* \"#utility.yul\":11228:11231   */\n      dup2\n        /* \"#utility.yul\":11220:11231   */\n      swap1\n      pop\n        /* \"#utility.yul\":11251:11254   */\n      dup2\n        /* \"#utility.yul\":11248:11249   */\n      0x00\n        /* \"#utility.yul\":11241:11255   */\n      mstore\n        /* \"#utility.yul\":11285:11289   */\n      0x20\n        /* \"#utility.yul\":11282:11283   */\n      0x00\n        /* \"#utility.yul\":11272:11290   */\n      keccak256\n        /* \"#utility.yul\":11264:11290   */\n      swap1\n      pop\n        /* \"#utility.yul\":11156:11297   */\n      swap2\n      swap1\n      pop\n      jump\t// out\n        /* \"#utility.yul\":11303:11396   */\n    tag_118:\n        /* \"#utility.yul\":11340:11346   */\n      0x00\n        /* \"#utility.yul\":11387:11389   */\n      0x20\n        /* \"#utility.yul\":11382:11384   */\n      0x1f\n        /* \"#utility.yul\":11375:11380   */\n      dup4\n        /* \"#utility.yul\":11371:11385   */\n      add\n        /* \"#utility.yul\":11367:11390   */\n      div\n        /* \"#utility.yul\":11357:11390   */\n      swap1\n      pop\n        /* \"#utility.yul\":11303:11396   */\n      swap2\n      swap1\n      pop\n      jump\t// out\n        /* \"#utility.yul\":11402:11509   */\n    tag_119:\n        /* \"#utility.yul\":11446:11454   */\n      0x00\n        /* \"#utility.yul\":11496:11501   */\n      dup3\n        /* \"#utility.yul\":11490:11494   */\n      dup3\n        /* \"#utility.yul\":11486:11502   */\n      shl\n        /* \"#utility.yul\":11465:11502   */\n      swap1\n      pop\n        /* \"#utility.yul\":11402:11509   */\n      swap3\n      swap2\n      pop\n      pop\n      jump\t// out\n        /* \"#utility.yul\":11515:11908   */\n    tag_120:\n        /* \"#utility.yul\":11584:11590   */\n      0x00\n        /* \"#utility.yul\":11634:11635   */\n      0x08\n        /* \"#utility.yul\":11622:11632   */\n      dup4\n        /* \"#utility.yul\":11618:11636   */\n      mul\n        /* \"#utility.yul\":11657:11754   */\n      tag_248\n        /* \"#utility.yul\":11687:11753   */\n      0xffffffffffffffffffffffffffffffffffffffffffffffffffffffffffffffff\n        /* \"#utility.yul\":11676:11685   */\n      dup3\n        /* \"#utility.yul\":11657:11754   */\n      tag_119\n      jump\t// in\n    tag_248:\n        /* \"#utility.yul\":11775:11814   */\n      tag_249\n        /* \"#utility.yul\":11805:11813   */\n      dup7\n        /* \"#utility.yul\":11794:11803   */\n      dup4\n        /* \"#utility.yul\":11775:11814   */\n      tag_119\n      jump\t// in\n    tag_249:\n        /* \"#utility.yul\":11763:11814   */\n      swap6\n      pop\n        /* \"#utility.yul\":11847:11851   */\n      dup1\n        /* \"#utility.yul\":11843:11852   */\n      not\n        /* \"#utility.yul\":11836:11841   */\n      dup5\n        /* \"#utility.yul\":11832:11853   */\n      and\n        /* \"#utility.yul\":11823:11853   */\n      swap4\n      pop\n        /* \"#utility.yul\":11896:11900   */\n      dup1\n        /* \"#utility.yul\":11886:11894   */\n      dup7\n        /* \"#utility.yul\":11882:11901   */\n      and\n        /* \"#utility.yul\":11875:11880   */\n      dup5\n        /* \"#utility.yul\":11872:11902   */\n      or\n        /* \"#utility.yul\":11862:11902   */\n      swap3\n      pop\n        /* \"#utility.yul\":11591:11908   */\n      pop\n      pop\n        /* \"#utility.yul\":11515:11908   */\n      swap4\n      swap3\n      pop\n      pop\n      pop\n      jump\t// out\n        /* \"#utility.yul\":11914:11974   */\n    tag_121:\n        /* \"#utility.yul\":11942:11945   */\n      0x00\n        /* \"#utility.yul\":11963:11968   */\n      dup2\n        /* \"#utility.yul\":11956:11968   */\n      swap1\n      pop\n        /* \"#utility.yul\":11914:11974   */\n      swap2\n      swap1\n      pop\n      jump\t// out\n        /* \"#utility.yul\":11980:12122   */\n    tag_122:\n        /* \"#utility.yul\":12030:12039   */\n      0x00\n        /* \"#utility.yul\":12063:12116   */\n      tag_252\n        /* \"#utility.yul\":12081:12115   */\n      tag_253\n        /* \"#utility.yul\":12090:12114   */\n      tag_254\n        /* \"#utility.yul\":12108:12113   */\n      dup5\n        /* \"#utility.yul\":12090:12114   */\n      tag_87\n      jump\t// in\n    tag_254:\n        /* \"#utility.yul\":12081:12115   */\n      tag_121\n      jump\t// in\n    tag_253:\n        /* \"#utility.yul\":12063:12116   */\n      tag_87\n      jump\t// in\n    tag_252:\n        /* \"#utility.yul\":12050:12116   */\n      swap1\n      pop\n        /* \"#utility.yul\":11980:12122   */\n      swap2\n      swap1\n      pop\n      jump\t// out\n        /* \"#utility.yul\":12128:12203   */\n    tag_123:\n        /* \"#utility.yul\":12171:12174   */\n      0x00\n        /* \"#utility.yul\":12192:12197   */\n      dup2\n        /* \"#utility.yul\":12185:12197   */\n      swap1\n      pop\n        /* \"#utility.yul\":12128:12203   */\n      swap2\n      swap1\n      pop\n      jump\t// out\n        /* \"#utility.yul\":12209:12478   */\n    tag_124:\n        /* \"#utility.yul\":12319:12358   */\n      tag_257\n        /* \"#utility.yul\":12350:12357   */\n      dup4\n        /* \"#utility.yul\":12319:12358   */\n      tag_122\n      jump\t// in\n    tag_257:\n        /* \"#utility.yul\":12380:12471   */\n      tag_258\n        /* \"#utility.yul\":12429:12470   */\n      tag_259\n        /* \"#utility.yul\":12453:12469   */\n      dup3\n        /* \"#utility.yul\":12429:12470   */\n      tag_123\n      jump\t// in\n    tag_259:\n        /* \"#utility.yul\":12421:12427   */\n      dup5\n        /* \"#utility.yul\":12414:12418   */\n      dup5\n        /* \"#utility.yul\":12408:12419   */\n      sload\n        /* \"#utility.yul\":12380:12471   */\n      tag_120\n      jump\t// in\n    tag_258:\n        /* \"#utility.yul\":12374:12378   */\n      dup3\n        /* \"#utility.yul\":12367:12472   */\n      sstore\n        /* \"#utility.yul\":12285:12478   */\n      pop\n        /* \"#utility.yul\":12209:12478   */\n      pop\n      pop\n      pop\n      jump\t// out\n        /* \"#utility.yul\":12484:12557   */\n    tag_125:\n        /* \"#utility.yul\":12529:12532   */\n      0x00\n        /* \"#utility.yul\":12484:12557   */\n      swap1\n      jump\t// out\n        /* \"#utility.yul\":12563:12752   */\n    tag_126:\n        /* \"#utility.yul\":12640:12672   */\n      tag_262\n      tag_125\n      jump\t// in\n    tag_262:\n        /* \"#utility.yul\":12681:12746   */\n      tag_263\n        /* \"#utility.yul\":12739:12745   */\n      dup2\n        /* \"#utility.yul\":12731:12737   */\n      dup5\n        /* \"#utility.yul\":12725:12729   */\n      dup5\n        /* \"#utility.yul\":12681:12746   */\n      tag_124\n      jump\t// in\n    tag_263:\n        /* \"#utility.yul\":12616:12752   */\n      pop\n        /* \"#utility.yul\":12563:12752   */\n      pop\n      pop\n      jump\t// out\n        /* \"#utility.yul\":12758:12944   */\n    tag_127:\n        /* \"#utility.yul\":12818:12938   */\n    tag_265:\n        /* \"#utility.yul\":12835:12838   */\n      dup2\n        /* \"#utility.yul\":12828:12833   */\n      dup2\n        /* \"#utility.yul\":12825:12839   */\n      lt\n        /* \"#utility.yul\":12818:12938   */\n      iszero\n      tag_267\n      jumpi\n        /* \"#utility.yul\":12889:12928   */\n      tag_268\n        /* \"#utility.yul\":12926:12927   */\n      0x00\n        /* \"#utility.yul\":12919:12924   */\n      dup3\n        /* \"#utility.yul\":12889:12928   */\n      tag_126\n      jump\t// in\n    tag_268:\n        /* \"#utility.yul\":12862:12863   */\n      0x01\n        /* \"#utility.yul\":12855:12860   */\n      dup2\n        /* \"#utility.yul\":12851:12864   */\n      add\n        /* \"#utility.yul\":12842:12864   */\n      swap1\n      pop\n        /* \"#utility.yul\":12818:12938   */\n      jump(tag_265)\n    tag_267:\n        /* \"#utility.yul\":12758:12944   */\n      pop\n      pop\n      jump\t// out\n        /* \"#utility.yul\":12950:13493   */\n    tag_128:\n        /* \"#utility.yul\":13051:13053   */\n      0x1f\n        /* \"#utility.yul\":13046:13049   */\n      dup3\n        /* \"#utility.yul\":13043:13054   */\n      gt\n        /* \"#utility.yul\":13040:13486   */\n      iszero\n      tag_270\n      jumpi\n        /* \"#utility.yul\":13085:13123   */\n      tag_271\n        /* \"#utility.yul\":13117:13122   */\n      dup2\n        /* \"#utility.yul\":13085:13123   */\n      tag_117\n      jump\t// in\n    tag_271:\n        /* \"#utility.yul\":13169:13198   */\n      tag_272\n        /* \"#utility.yul\":13187:13197   */\n      dup5\n        /* \"#utility.yul\":13169:13198   */\n      tag_118\n      jump\t// in\n    tag_272:\n        /* \"#utility.yul\":13159:13167   */\n      dup2\n        /* \"#utility.yul\":13155:13199   */\n      add\n        /* \"#utility.yul\":13352:13354   */\n      0x20\n        /* \"#utility.yul\":13340:13350   */\n      dup6\n        /* \"#utility.yul\":13337:13355   */\n      lt\n        /* \"#utility.yul\":13334:13383   */\n      iszero\n      tag_273\n      jumpi\n        /* \"#utility.yul\":13373:13381   */\n      dup2\n        /* \"#utility.yul\":13358:13381   */\n      swap1\n      pop\n        /* \"#utility.yul\":13334:13383   */\n    tag_273:\n        /* \"#utility.yul\":13396:13476   */\n      tag_274\n        /* \"#utility.yul\":13452:13474   */\n      tag_275\n        /* \"#utility.yul\":13470:13473   */\n      dup6\n        /* \"#utility.yul\":13452:13474   */\n      tag_118\n      jump\t// in\n    tag_275:\n        /* \"#utility.yul\":13442:13450   */\n      dup4\n        /* \"#utility.yul\":13438:13475   */\n      add\n        /* \"#utility.yul\":13425:13436   */\n      dup3\n        /* \"#utility.yul\":13396:13476   */\n      tag_127\n      jump\t// in\n    tag_274:\n        /* \"#utility.yul\":13055:13486   */\n      pop\n      pop\n        /* \"#utility.yul\":13040:13486   */\n    tag_270:\n        /* \"#utility.yul\":12950:13493   */\n      pop\n      pop\n      pop\n      jump\t// out\n        /* \"#utility.yul\":13499:13616   */\n    tag_129:\n        /* \"#utility.yul\":13553:13561   */\n      0x00\n        /* \"#utility.yul\":13603:13608   */\n      dup3\n        /* \"#utility.yul\":13597:13601   */\n      dup3\n        /* \"#utility.yul\":13593:13609   */\n      shr\n        /* \"#utility.yul\":13572:13609   */\n      swap1\n      pop\n        /* \"#utility.yul\":13499:13616   */\n      swap3\n      swap2\n      pop\n      pop\n      jump\t// out\n        /* \"#utility.yul\":13622:13791   */\n    tag_130:\n        /* \"#utility.yul\":13666:13672   */\n      0x00\n        /* \"#utility.yul\":13699:13750   */\n      tag_278\n        /* \"#utility.yul\":13747:13748   */\n      0x00\n        /* \"#utility.yul\":13743:13749   */\n      not\n        /* \"#utility.yul\":13735:13740   */\n      dup5\n        /* \"#utility.yul\":13732:13733   */\n      0x08\n        /* \"#utility.yul\":13728:13741   */\n      mul\n        /* \"#utility.yul\":13699:13750   */\n      tag_129\n      jump\t// in\n    tag_278:\n        /* \"#utility.yul\":13695:13751   */\n      not\n        /* \"#utility.yul\":13780:13784   */\n      dup1\n        /* \"#utility.yul\":13774:13778   */\n      dup4\n        /* \"#utility.yul\":13770:13785   */\n      and\n        /* \"#utility.yul\":13760:13785   */\n      swap2\n      pop\n        /* \"#utility.yul\":13673:13791   */\n      pop\n        /* \"#utility.yul\":13622:13791   */\n      swap3\n      swap2\n      pop\n      pop\n      jump\t// out\n        /* \"#utility.yul\":13796:14091   */\n    tag_131:\n        /* \"#utility.yul\":13872:13876   */\n      0x00\n        /* \"#utility.yul\":14018:14047   */\n      tag_280\n        /* \"#utility.yul\":14043:14046   */\n      dup4\n        /* \"#utility.yul\":14037:14041   */\n      dup4\n        /* \"#utility.yul\":14018:14047   */\n      tag_130\n      jump\t// in\n    tag_280:\n        /* \"#utility.yul\":14010:14047   */\n      swap2\n      pop\n        /* \"#utility.yul\":14080:14083   */\n      dup3\n        /* \"#utility.yul\":14077:14078   */\n      0x02\n        /* \"#utility.yul\":14073:14084   */\n      mul\n        /* \"#utility.yul\":14067:14071   */\n      dup3\n        /* \"#utility.yul\":14064:14085   */\n      or\n        /* \"#utility.yul\":14056:14085   */\n      swap1\n      pop\n        /* \"#utility.yul\":13796:14091   */\n      swap3\n      swap2\n      pop\n      pop\n      jump\t// out\n        /* \"#utility.yul\":14096:15491   */\n    tag_64:\n        /* \"#utility.yul\":14213:14250   */\n      tag_282\n        /* \"#utility.yul\":14246:14249   */\n      dup3\n        /* \"#utility.yul\":14213:14250   */\n      tag_91\n      jump\t// in\n    tag_282:\n        /* \"#utility.yul\":14315:14333   */\n      0xffffffffffffffff\n        /* \"#utility.yul\":14307:14313   */\n      dup2\n        /* \"#utility.yul\":14304:14334   */\n      gt\n        /* \"#utility.yul\":14301:14357   */\n      iszero\n      tag_283\n      jumpi\n        /* \"#utility.yul\":14337:14355   */\n      tag_284\n      tag_105\n      jump\t// in\n    tag_284:\n        /* \"#utility.yul\":14301:14357   */\n    tag_283:\n        /* \"#utility.yul\":14381:14419   */\n      tag_285\n        /* \"#utility.yul\":14413:14417   */\n      dup3\n        /* \"#utility.yul\":14407:14418   */\n      sload\n        /* \"#utility.yul\":14381:14419   */\n      tag_51\n      jump\t// in\n    tag_285:\n        /* \"#utility.yul\":14466:14533   */\n      tag_286\n        /* \"#utility.yul\":14526:14532   */\n      dup3\n        /* \"#utility.yul\":14518:14524   */\n      dup3\n        /* \"#utility.yul\":14512:14516   */\n      dup6\n        /* \"#utility.yul\":14466:14533   */\n      tag_128\n      jump\t// in\n    tag_286:\n        /* \"#utility.yul\":14560:14561   */\n      0x00\n        /* \"#utility.yul\":14584:14588   */\n      0x20\n        /* \"#utility.yul\":14571:14588   */\n      swap1\n      pop\n        /* \"#utility.yul\":14616:14618   */\n      0x1f\n        /* \"#utility.yul\":14608:14614   */\n      dup4\n        /* \"#utility.yul\":14605:14619   */\n      gt\n        /* \"#utility.yul\":14633:14634   */\n      0x01\n        /* \"#utility.yul\":14628:15246   */\n      dup2\n      eq\n      tag_288\n      jumpi\n        /* \"#utility.yul\":15290:15291   */\n      0x00\n        /* \"#utility.yul\":15307:15313   */\n      dup5\n        /* \"#utility.yul\":15304:15381   */\n      iszero\n      tag_289\n      jumpi\n        /* \"#utility.yul\":15356:15365   */\n      dup3\n        /* \"#utility.yul\":15351:15354   */\n      dup8\n        /* \"#utility.yul\":15347:15366   */\n      add\n        /* \"#utility.yul\":15341:15367   */\n      mload\n        /* \"#utility.yul\":15332:15367   */\n      swap1\n      pop\n        /* \"#utility.yul\":15304:15381   */\n    tag_289:\n        /* \"#utility.yul\":15407:15474   */\n      tag_290\n        /* \"#utility.yul\":15467:15473   */\n      dup6\n        /* \"#utility.yul\":15460:15465   */\n      dup3\n        /* \"#utility.yul\":15407:15474   */\n      tag_131\n      jump\t// in\n    tag_290:\n        /* \"#utility.yul\":15401:15405   */\n      dup7\n        /* \"#utility.yul\":15394:15475   */\n      sstore\n        /* \"#utility.yul\":15263:15485   */\n      pop\n        /* \"#utility.yul\":14598:15485   */\n      jump(tag_287)\n        /* \"#utility.yul\":14628:15246   */\n    tag_288:\n        /* \"#utility.yul\":14680:14684   */\n      0x1f\n        /* \"#utility.yul\":14676:14685   */\n      not\n        /* \"#utility.yul\":14668:14674   */\n      dup5\n        /* \"#utility.yul\":14664:14686   */\n      and\n        /* \"#utility.yul\":14714:14751   */\n      tag_291\n        /* \"#utility.yul\":14746:14750   */\n      dup7\n        /* \"#utility.yul\":14714:14751   */\n      tag_117\n      jump\t// in\n    tag_291:\n        /* \"#utility.yul\":14773:14774   */\n      0x00\n        /* \"#utility.yul\":14787:14995   */\n    tag_292:\n        /* \"#utility.yul\":14801:14808   */\n      dup3\n        /* \"#utility.yul\":14798:14799   */\n      dup2\n        /* \"#utility.yul\":14795:14809   */\n      lt\n        /* \"#utility.yul\":14787:14995   */\n      iszero\n      tag_294\n      jumpi\n        /* \"#utility.yul\":14880:14889   */\n      dup5\n        /* \"#utility.yul\":14875:14878   */\n      dup10\n        /* \"#utility.yul\":14871:14890   */\n      add\n        /* \"#utility.yul\":14865:14891   */\n      mload\n        /* \"#utility.yul\":14857:14863   */\n      dup3\n        /* \"#utility.yul\":14850:14892   */\n      sstore\n        /* \"#utility.yul\":14931:14932   */\n      0x01\n        /* \"#utility.yul\":14923:14929   */\n      dup3\n        /* \"#utility.yul\":14919:14933   */\n      add\n        /* \"#utility.yul\":14909:14933   */\n      swap2\n      pop\n        /* \"#utility.yul\":14978:14980   */\n      0x20\n        /* \"#utility.yul\":14967:14976   */\n      dup6\n        /* \"#utility.yul\":14963:14981   */\n      add\n        /* \"#utility.yul\":14950:14981   */\n      swap5\n      pop\n        /* \"#utility.yul\":14824:14828   */\n      0x20\n        /* \"#utility.yul\":14821:14822   */\n      dup2\n        /* \"#utility.yul\":14817:14829   */\n      add\n        /* \"#utility.yul\":14812:14829   */\n      swap1\n      pop\n        /* \"#utility.yul\":14787:14995   */\n      jump(tag_292)\n    tag_294:\n        /* \"#utility.yul\":15023:15029   */\n      dup7\n        /* \"#utility.yul\":15014:15021   */\n      dup4\n        /* \"#utility.yul\":15011:15030   */\n      lt\n        /* \"#utility.yul\":15008:15187   */\n      iszero\n      tag_295\n      jumpi\n        /* \"#utility.yul\":15081:15090   */\n      dup5\n        /* \"#utility.yul\":15076:15079   */\n      dup10\n        /* \"#utility.yul\":15072:15091   */\n      add\n        /* \"#utility.yul\":15066:15092   */\n      mload\n        /* \"#utility.yul\":15124:15172   */\n      tag_296\n        /* \"#utility.yul\":15166:15170   */\n      0x1f\n        /* \"#utility.yul\":15158:15164   */\n      dup10\n        /* \"#utility.yul\":15154:15171   */\n      and\n        /* \"#utility.yul\":15143:15152   */\n      dup3\n        /* \"#utility.yul\":15124:15172   */\n      tag_130\n      jump\t// in\n    tag_296:\n        /* \"#utility.yul\":15116:15122   */\n      dup4\n        /* \"#utility.yul\":15109:15173   */\n      sstore\n        /* \"#utility.yul\":15031:15187   */\n      pop\n        /* \"#utility.yul\":15008:15187   */\n    tag_295:\n        /* \"#utility.yul\":15233:15234   */\n      0x01\n        /* \"#utility.yul\":15229:15230   */\n      0x02\n        /* \"#utility.yul\":15221:15227   */\n      dup9\n        /* \"#utility.yul\":15217:15231   */\n      mul\n        /* \"#utility.yul\":15213:15235   */\n      add\n        /* \"#utility.yul\":15207:15211   */\n      dup9\n        /* \"#utility.yul\":15200:15236   */\n      sstore\n        /* \"#utility.yul\":14635:15246   */\n      pop\n      pop\n      pop\n        /* \"#utility.yul\":14598:15485   */\n    tag_287:\n      pop\n        /* \"#utility.yul\":14188:15491   */\n      pop\n      pop\n      pop\n        /* \"#utility.yul\":14096:15491   */\n      pop\n      pop\n      jump\t// out\n        /* \"#utility.yul\":15497:15677   */\n    tag_132:\n        /* \"#utility.yul\":15545:15622   */\n      0x4e487b7100000000000000000000000000000000000000000000000000000000\n        /* \"#utility.yul\":15542:15543   */\n      0x00\n        /* \"#utility.yul\":15535:15623   */\n      mstore\n        /* \"#utility.yul\":15642:15646   */\n      0x11\n        /* \"#utility.yul\":15639:15640   */\n      0x04\n        /* \"#utility.yul\":15632:15647   */\n      mstore\n        /* \"#utility.yul\":15666:15670   */\n      0x24\n        /* \"#utility.yul\":15663:15664   */\n      0x00\n        /* \"#utility.yul\":15656:15671   */\n      revert\n        /* \"#utility.yul\":15683:15877   */\n    tag_67:\n        /* \"#utility.yul\":15723:15727   */\n      0x00\n        /* \"#utility.yul\":15743:15763   */\n      tag_299\n        /* \"#utility.yul\":15761:15762   */\n      dup3\n        /* \"#utility.yul\":15743:15763   */\n      tag_87\n      jump\t// in\n    tag_299:\n        /* \"#utility.yul\":15738:15763   */\n      swap2\n      pop\n        /* \"#utility.yul\":15777:15797   */\n      tag_300\n        /* \"#utility.yul\":15795:15796   */\n      dup4\n        /* \"#utility.yul\":15777:15797   */\n      tag_87\n      jump\t// in\n    tag_300:\n        /* \"#utility.yul\":15772:15797   */\n      swap3\n      pop\n        /* \"#utility.yul\":15821:15822   */\n      dup3\n        /* \"#utility.yul\":15818:15819   */\n      dup3\n        /* \"#utility.yul\":15814:15823   */\n      sub\n        /* \"#utility.yul\":15806:15823   */\n      swap1\n      pop\n        /* \"#utility.yul\":15845:15846   */\n      dup2\n        /* \"#utility.yul\":15839:15843   */\n      dup2\n        /* \"#utility.yul\":15836:15847   */\n      gt\n        /* \"#utility.yul\":15833:15870   */\n      iszero\n      tag_301\n      jumpi\n        /* \"#utility.yul\":15850:15868   */\n      tag_302\n      tag_132\n      jump\t// in\n    tag_302:\n        /* \"#utility.yul\":15833:15870   */\n    tag_301:\n        /* \"#utility.yul\":15683:15877   */\n      swap3\n      swap2\n      pop\n      pop\n      jump\t// out\n        /* \"#utility.yul\":15883:16507   */\n    tag_69:\n        /* \"#utility.yul\":16072:16076   */\n      0x00\n        /* \"#utility.yul\":16110:16112   */\n      0x60\n        /* \"#utility.yul\":16099:16108   */\n      dup3\n        /* \"#utility.yul\":16095:16113   */\n      add\n        /* \"#utility.yul\":16087:16113   */\n      swap1\n      pop\n        /* \"#utility.yul\":16159:16168   */\n      dup2\n        /* \"#utility.yul\":16153:16157   */\n      dup2\n        /* \"#utility.yul\":16149:16169   */\n      sub\n        /* \"#utility.yul\":16145:16146   */\n      0x00\n        /* \"#utility.yul\":16134:16143   */\n      dup4\n        /* \"#utility.yul\":16130:16147   */\n      add\n        /* \"#utility.yul\":16123:16170   */\n      mstore\n        /* \"#utility.yul\":16187:16265   */\n      tag_304\n        /* \"#utility.yul\":16260:16264   */\n      dup2\n        /* \"#utility.yul\":16251:16257   */\n      dup7\n        /* \"#utility.yul\":16187:16265   */\n      tag_95\n      jump\t// in\n    tag_304:\n        /* \"#utility.yul\":16179:16265   */\n      swap1\n      pop\n        /* \"#utility.yul\":16312:16321   */\n      dup2\n        /* \"#utility.yul\":16306:16310   */\n      dup2\n        /* \"#utility.yul\":16302:16322   */\n      sub\n        /* \"#utility.yul\":16297:16299   */\n      0x20\n        /* \"#utility.yul\":16286:16295   */\n      dup4\n        /* \"#utility.yul\":16282:16300   */\n      add\n        /* \"#utility.yul\":16275:16323   */\n      mstore\n        /* \"#utility.yul\":16340:16418   */\n      tag_305\n        /* \"#utility.yul\":16413:16417   */\n      dup2\n        /* \"#utility.yul\":16404:16410   */\n      dup6\n        /* \"#utility.yul\":16340:16418   */\n      tag_95\n      jump\t// in\n    tag_305:\n        /* \"#utility.yul\":16332:16418   */\n      swap1\n      pop\n        /* \"#utility.yul\":16428:16500   */\n      tag_306\n        /* \"#utility.yul\":16496:16498   */\n      0x40\n        /* \"#utility.yul\":16485:16494   */\n      dup4\n        /* \"#utility.yul\":16481:16499   */\n      add\n        /* \"#utility.yul\":16472:16478   */\n      dup5\n        /* \"#utility.yul\":16428:16500   */\n      tag_90\n      jump\t// in\n    tag_306:\n        /* \"#utility.yul\":15883:16507   */\n      swap5\n      swap4\n      pop\n      pop\n      pop\n      pop\n      jump\t// out\n\n    auxdata: 0xa2646970667358221220b413188fd7f8133e3304e019cb532ebd1f235bee4d8738047377e25c6f0ae77464736f6c63430008160033\n}\n",
				"bytecode": {
					"linkReferences": {},
					"object": "608060405234801561000f575f80fd5b506111828061001d5f395ff3fe608060405260043610610049575f3560e01c806336ce09201461004d57806369056b2714610069578063b8ba95fa14610093578063d5b05f4f146100d5578063df7ebb7b146100fd575b5f80fd5b610067600480360381019061006291906108dd565b61013e565b005b348015610074575f80fd5b5061007d610350565b60405161008a9190610917565b60405180910390f35b34801561009e575f80fd5b506100b960048036038101906100b491906108dd565b61035b565b6040516100cc9796959493929190610a33565b60405180910390f35b3480156100e0575f80fd5b506100fb60048036038101906100f69190610bda565b6104fe565b005b348015610108575f80fd5b50610123600480360381019061011e91906108dd565b6106e0565b60405161013596959493929190610c76565b60405180910390f35b5f80828154811061015257610151610ce3565b5b905f5260205f2090600602019050806004015f9054906101000a900460ff16156101b1576040517f08c379a00000000000000000000000000000000000000000000000000000000081526004016101a890610d5a565b60405180910390fd5b80600201543410156101f8576040517f08c379a00000000000000000000000000000000000000000000000000000000081526004016101ef90610dc2565b60405180910390fd5b6001816004015f6101000a81548160ff02191690831515021790555033816005015f6101000a81548173ffffffffffffffffffffffffffffffffffffffff021916908373ffffffffffffffffffffffffffffffffffffffff1602179055508060040160019054906101000a900473ffffffffffffffffffffffffffffffffffffffff1673ffffffffffffffffffffffffffffffffffffffff166108fc3490811502906040515f60405180830381858888f193505050501580156102bd573d5f803e3d5ffd5b503373ffffffffffffffffffffffffffffffffffffffff168160040160019054906101000a900473ffffffffffffffffffffffffffffffffffffffff1673ffffffffffffffffffffffffffffffffffffffff16837f76c43ed85d1912f49c926717e3268087ef9c58378eb76ba7dcd33af48249c3bb84600201546040516103449190610917565b60405180910390a45050565b5f8080549050905090565b5f8181548110610369575f80fd5b905f5260205f2090600602015f91509050805f01805461038890610e0d565b80601f01602080910402602001604051908101604052809291908181526020018280546103b490610e0d565b80156103ff5780601f106103d6576101008083540402835291602001916103ff565b820191905f5260205f20905b8154815290600101906020018083116103e257829003601f168201915b50505050509080600101805461041490610e0d565b80601f016020809104026020016040519081016040528092919081815260200182805461044090610e0d565b801561048b5780601f106104625761010080835404028352916020019161048b565b820191905f5260205f20905b81548152906001019060200180831161046e57829003601f168201915b505050505090806002015490806003015490806004015f9054906101000a900460ff16908060040160019054906101000a900473ffffffffffffffffffffffffffffffffffffffff1690806005015f9054906101000a900473ffffffffffffffffffffffffffffffffffffffff16905087565b5f6040518060e001604052808681526020018581526020018481526020018381526020015f151581526020013373ffffffffffffffffffffffffffffffffffffffff1681526020015f73ffffffffffffffffffffffffffffffffffffffff1681525090505f81908060018154018082558091505060019003905f5260205f2090600602015f909190919091505f820151815f01908161059d9190610fda565b5060208201518160010190816105b39190610fda565b5060408201518160020155606082015181600301556080820151816004015f6101000a81548160ff02191690831515021790555060a08201518160040160016101000a81548173ffffffffffffffffffffffffffffffffffffffff021916908373ffffffffffffffffffffffffffffffffffffffff16021790555060c0820151816005015f6101000a81548173ffffffffffffffffffffffffffffffffffffffff021916908373ffffffffffffffffffffffffffffffffffffffff16021790555050503373ffffffffffffffffffffffffffffffffffffffff1660015f8054905061069e91906110d6565b7f2d294dad4c96aa17db5bfd91b10a7b4746341581d3ab29dbc62d0da31b1348248787876040516106d193929190611109565b60405180910390a35050505050565b6060805f805f805f8088815481106106fb576106fa610ce3565b5b905f5260205f2090600602019050805f01816001018260020154836004015f9054906101000a900460ff168460040160019054906101000a900473ffffffffffffffffffffffffffffffffffffffff16856005015f9054906101000a900473ffffffffffffffffffffffffffffffffffffffff1685805461077b90610e0d565b80601f01602080910402602001604051908101604052809291908181526020018280546107a790610e0d565b80156107f25780601f106107c9576101008083540402835291602001916107f2565b820191905f5260205f20905b8154815290600101906020018083116107d557829003601f168201915b5050505050955084805461080590610e0d565b80601f016020809104026020016040519081016040528092919081815260200182805461083190610e0d565b801561087c5780601f106108535761010080835404028352916020019161087c565b820191905f5260205f20905b81548152906001019060200180831161085f57829003601f168201915b505050505094509650965096509650965096505091939550919395565b5f604051905090565b5f80fd5b5f80fd5b5f819050919050565b6108bc816108aa565b81146108c6575f80fd5b50565b5f813590506108d7816108b3565b92915050565b5f602082840312156108f2576108f16108a2565b5b5f6108ff848285016108c9565b91505092915050565b610911816108aa565b82525050565b5f60208201905061092a5f830184610908565b92915050565b5f81519050919050565b5f82825260208201905092915050565b5f5b8381101561096757808201518184015260208101905061094c565b5f8484015250505050565b5f601f19601f8301169050919050565b5f61098c82610930565b610996818561093a565b93506109a681856020860161094a565b6109af81610972565b840191505092915050565b5f8115159050919050565b6109ce816109ba565b82525050565b5f73ffffffffffffffffffffffffffffffffffffffff82169050919050565b5f6109fd826109d4565b9050919050565b610a0d816109f3565b82525050565b5f610a1d826109d4565b9050919050565b610a2d81610a13565b82525050565b5f60e0820190508181035f830152610a4b818a610982565b90508181036020830152610a5f8189610982565b9050610a6e6040830188610908565b610a7b6060830187610908565b610a8860808301866109c5565b610a9560a0830185610a04565b610aa260c0830184610a24565b98975050505050505050565b5f80fd5b5f80fd5b7f4e487b71000000000000000000000000000000000000000000000000000000005f52604160045260245ffd5b610aec82610972565b810181811067ffffffffffffffff82111715610b0b57610b0a610ab6565b5b80604052505050565b5f610b1d610899565b9050610b298282610ae3565b919050565b5f67ffffffffffffffff821115610b4857610b47610ab6565b5b610b5182610972565b9050602081019050919050565b828183375f83830152505050565b5f610b7e610b7984610b2e565b610b14565b905082815260208101848484011115610b9a57610b99610ab2565b5b610ba5848285610b5e565b509392505050565b5f82601f830112610bc157610bc0610aae565b5b8135610bd1848260208601610b6c565b91505092915050565b5f805f8060808587031215610bf257610bf16108a2565b5b5f85013567ffffffffffffffff811115610c0f57610c0e6108a6565b5b610c1b87828801610bad565b945050602085013567ffffffffffffffff811115610c3c57610c3b6108a6565b5b610c4887828801610bad565b9350506040610c59878288016108c9565b9250506060610c6a878288016108c9565b91505092959194509250565b5f60c0820190508181035f830152610c8e8189610982565b90508181036020830152610ca28188610982565b9050610cb16040830187610908565b610cbe60608301866109c5565b610ccb6080830185610a24565b610cd860a0830184610a24565b979650505050505050565b7f4e487b71000000000000000000000000000000000000000000000000000000005f52603260045260245ffd5b7f56656869636c6520616c726561647920736f6c640000000000000000000000005f82015250565b5f610d4460148361093a565b9150610d4f82610d10565b602082019050919050565b5f6020820190508181035f830152610d7181610d38565b9050919050565b7f496e73756666696369656e742066756e647300000000000000000000000000005f82015250565b5f610dac60128361093a565b9150610db782610d78565b602082019050919050565b5f6020820190508181035f830152610dd981610da0565b9050919050565b7f4e487b71000000000000000000000000000000000000000000000000000000005f52602260045260245ffd5b5f6002820490506001821680610e2457607f821691505b602082108103610e3757610e36610de0565b5b50919050565b5f819050815f5260205f209050919050565b5f6020601f8301049050919050565b5f82821b905092915050565b5f60088302610e997fffffffffffffffffffffffffffffffffffffffffffffffffffffffffffffffff82610e5e565b610ea38683610e5e565b95508019841693508086168417925050509392505050565b5f819050919050565b5f610ede610ed9610ed4846108aa565b610ebb565b6108aa565b9050919050565b5f819050919050565b610ef783610ec4565b610f0b610f0382610ee5565b848454610e6a565b825550505050565b5f90565b610f1f610f13565b610f2a818484610eee565b505050565b5b81811015610f4d57610f425f82610f17565b600181019050610f30565b5050565b601f821115610f9257610f6381610e3d565b610f6c84610e4f565b81016020851015610f7b578190505b610f8f610f8785610e4f565b830182610f2f565b50505b505050565b5f82821c905092915050565b5f610fb25f1984600802610f97565b1980831691505092915050565b5f610fca8383610fa3565b9150826002028217905092915050565b610fe382610930565b67ffffffffffffffff811115610ffc57610ffb610ab6565b5b6110068254610e0d565b611011828285610f51565b5f60209050601f831160018114611042575f8415611030578287015190505b61103a8582610fbf565b8655506110a1565b601f19841661105086610e3d565b5f5b8281101561107757848901518255600182019150602085019450602081019050611052565b868310156110945784890151611090601f891682610fa3565b8355505b6001600288020188555050505b505050505050565b7f4e487b71000000000000000000000000000000000000000000000000000000005f52601160045260245ffd5b5f6110e0826108aa565b91506110eb836108aa565b9250828203905081811115611103576111026110a9565b5b92915050565b5f6060820190508181035f8301526111218186610982565b905081810360208301526111358185610982565b90506111446040830184610908565b94935050505056fea2646970667358221220b413188fd7f8133e3304e019cb532ebd1f235bee4d8738047377e25c6f0ae77464736f6c63430008160033",
					"opcodes": "PUSH1 0x80 PUSH1 0x40 MSTORE CALLVALUE DUP1 ISZERO PUSH2 0xF JUMPI PUSH0 DUP1 REVERT JUMPDEST POP PUSH2 0x1182 DUP1 PUSH2 0x1D PUSH0 CODECOPY PUSH0 RETURN INVALID PUSH1 0x80 PUSH1 0x40 MSTORE PUSH1 0x4 CALLDATASIZE LT PUSH2 0x49 JUMPI PUSH0 CALLDATALOAD PUSH1 0xE0 SHR DUP1 PUSH4 0x36CE0920 EQ PUSH2 0x4D JUMPI DUP1 PUSH4 0x69056B27 EQ PUSH2 0x69 JUMPI DUP1 PUSH4 0xB8BA95FA EQ PUSH2 0x93 JUMPI DUP1 PUSH4 0xD5B05F4F EQ PUSH2 0xD5 JUMPI DUP1 PUSH4 0xDF7EBB7B EQ PUSH2 0xFD JUMPI JUMPDEST PUSH0 DUP1 REVERT JUMPDEST PUSH2 0x67 PUSH1 0x4 DUP1 CALLDATASIZE SUB DUP2 ADD SWAP1 PUSH2 0x62 SWAP2 SWAP1 PUSH2 0x8DD JUMP JUMPDEST PUSH2 0x13E JUMP JUMPDEST STOP JUMPDEST CALLVALUE DUP1 ISZERO PUSH2 0x74 JUMPI PUSH0 DUP1 REVERT JUMPDEST POP PUSH2 0x7D PUSH2 0x350 JUMP JUMPDEST PUSH1 0x40 MLOAD PUSH2 0x8A SWAP2 SWAP1 PUSH2 0x917 JUMP JUMPDEST PUSH1 0x40 MLOAD DUP1 SWAP2 SUB SWAP1 RETURN JUMPDEST CALLVALUE DUP1 ISZERO PUSH2 0x9E JUMPI PUSH0 DUP1 REVERT JUMPDEST POP PUSH2 0xB9 PUSH1 0x4 DUP1 CALLDATASIZE SUB DUP2 ADD SWAP1 PUSH2 0xB4 SWAP2 SWAP1 PUSH2 0x8DD JUMP JUMPDEST PUSH2 0x35B JUMP JUMPDEST PUSH1 0x40 MLOAD PUSH2 0xCC SWAP8 SWAP7 SWAP6 SWAP5 SWAP4 SWAP3 SWAP2 SWAP1 PUSH2 0xA33 JUMP JUMPDEST PUSH1 0x40 MLOAD DUP1 SWAP2 SUB SWAP1 RETURN JUMPDEST CALLVALUE DUP1 ISZERO PUSH2 0xE0 JUMPI PUSH0 DUP1 REVERT JUMPDEST POP PUSH2 0xFB PUSH1 0x4 DUP1 CALLDATASIZE SUB DUP2 ADD SWAP1 PUSH2 0xF6 SWAP2 SWAP1 PUSH2 0xBDA JUMP JUMPDEST PUSH2 0x4FE JUMP JUMPDEST STOP JUMPDEST CALLVALUE DUP1 ISZERO PUSH2 0x108 JUMPI PUSH0 DUP1 REVERT JUMPDEST POP PUSH2 0x123 PUSH1 0x4 DUP1 CALLDATASIZE SUB DUP2 ADD SWAP1 PUSH2 0x11E SWAP2 SWAP1 PUSH2 0x8DD JUMP JUMPDEST PUSH2 0x6E0 JUMP JUMPDEST PUSH1 0x40 MLOAD PUSH2 0x135 SWAP7 SWAP6 SWAP5 SWAP4 SWAP3 SWAP2 SWAP1 PUSH2 0xC76 JUMP JUMPDEST PUSH1 0x40 MLOAD DUP1 SWAP2 SUB SWAP1 RETURN JUMPDEST PUSH0 DUP1 DUP3 DUP2 SLOAD DUP2 LT PUSH2 0x152 JUMPI PUSH2 0x151 PUSH2 0xCE3 JUMP JUMPDEST JUMPDEST SWAP1 PUSH0 MSTORE PUSH1 0x20 PUSH0 KECCAK256 SWAP1 PUSH1 0x6 MUL ADD SWAP1 POP DUP1 PUSH1 0x4 ADD PUSH0 SWAP1 SLOAD SWAP1 PUSH2 0x100 EXP SWAP1 DIV PUSH1 0xFF AND ISZERO PUSH2 0x1B1 JUMPI PUSH1 0x40 MLOAD PUSH32 0x8C379A000000000000000000000000000000000000000000000000000000000 DUP2 MSTORE PUSH1 0x4 ADD PUSH2 0x1A8 SWAP1 PUSH2 0xD5A JUMP JUMPDEST PUSH1 0x40 MLOAD DUP1 SWAP2 SUB SWAP1 REVERT JUMPDEST DUP1 PUSH1 0x2 ADD SLOAD CALLVALUE LT ISZERO PUSH2 0x1F8 JUMPI PUSH1 0x40 MLOAD PUSH32 0x8C379A000000000000000000000000000000000000000000000000000000000 DUP2 MSTORE PUSH1 0x4 ADD PUSH2 0x1EF SWAP1 PUSH2 0xDC2 JUMP JUMPDEST PUSH1 0x40 MLOAD DUP1 SWAP2 SUB SWAP1 REVERT JUMPDEST PUSH1 0x1 DUP2 PUSH1 0x4 ADD PUSH0 PUSH2 0x100 EXP DUP2 SLOAD DUP2 PUSH1 0xFF MUL NOT AND SWAP1 DUP4 ISZERO ISZERO MUL OR SWAP1 SSTORE POP CALLER DUP2 PUSH1 0x5 ADD PUSH0 PUSH2 0x100 EXP DUP2 SLOAD DUP2 PUSH20 0xFFFFFFFFFFFFFFFFFFFFFFFFFFFFFFFFFFFFFFFF MUL NOT AND SWAP1 DUP4 PUSH20 0xFFFFFFFFFFFFFFFFFFFFFFFFFFFFFFFFFFFFFFFF AND MUL OR SWAP1 SSTORE POP DUP1 PUSH1 0x4 ADD PUSH1 0x1 SWAP1 SLOAD SWAP1 PUSH2 0x100 EXP SWAP1 DIV PUSH20 0xFFFFFFFFFFFFFFFFFFFFFFFFFFFFFFFFFFFFFFFF AND PUSH20 0xFFFFFFFFFFFFFFFFFFFFFFFFFFFFFFFFFFFFFFFF AND PUSH2 0x8FC CALLVALUE SWAP1 DUP2 ISZERO MUL SWAP1 PUSH1 0x40 MLOAD PUSH0 PUSH1 0x40 MLOAD DUP1 DUP4 SUB DUP2 DUP6 DUP9 DUP9 CALL SWAP4 POP POP POP POP ISZERO DUP1 ISZERO PUSH2 0x2BD JUMPI RETURNDATASIZE PUSH0 DUP1 RETURNDATACOPY RETURNDATASIZE PUSH0 REVERT JUMPDEST POP CALLER PUSH20 0xFFFFFFFFFFFFFFFFFFFFFFFFFFFFFFFFFFFFFFFF AND DUP2 PUSH1 0x4 ADD PUSH1 0x1 SWAP1 SLOAD SWAP1 PUSH2 0x100 EXP SWAP1 DIV PUSH20 0xFFFFFFFFFFFFFFFFFFFFFFFFFFFFFFFFFFFFFFFF AND PUSH20 0xFFFFFFFFFFFFFFFFFFFFFFFFFFFFFFFFFFFFFFFF AND DUP4 PUSH32 0x76C43ED85D1912F49C926717E3268087EF9C58378EB76BA7DCD33AF48249C3BB DUP5 PUSH1 0x2 ADD SLOAD PUSH1 0x40 MLOAD PUSH2 0x344 SWAP2 SWAP1 PUSH2 0x917 JUMP JUMPDEST PUSH1 0x40 MLOAD DUP1 SWAP2 SUB SWAP1 LOG4 POP POP JUMP JUMPDEST PUSH0 DUP1 DUP1 SLOAD SWAP1 POP SWAP1 POP SWAP1 JUMP JUMPDEST PUSH0 DUP2 DUP2 SLOAD DUP2 LT PUSH2 0x369 JUMPI PUSH0 DUP1 REVERT JUMPDEST SWAP1 PUSH0 MSTORE PUSH1 0x20 PUSH0 KECCAK256 SWAP1 PUSH1 0x6 MUL ADD PUSH0 SWAP2 POP SWAP1 POP DUP1 PUSH0 ADD DUP1 SLOAD PUSH2 0x388 SWAP1 PUSH2 0xE0D JUMP JUMPDEST DUP1 PUSH1 0x1F ADD PUSH1 0x20 DUP1 SWAP2 DIV MUL PUSH1 0x20 ADD PUSH1 0x40 MLOAD SWAP1 DUP2 ADD PUSH1 0x40 MSTORE DUP1 SWAP3 SWAP2 SWAP1 DUP2 DUP2 MSTORE PUSH1 0x20 ADD DUP3 DUP1 SLOAD PUSH2 0x3B4 SWAP1 PUSH2 0xE0D JUMP JUMPDEST DUP1 ISZERO PUSH2 0x3FF JUMPI DUP1 PUSH1 0x1F LT PUSH2 0x3D6 JUMPI PUSH2 0x100 DUP1 DUP4 SLOAD DIV MUL DUP4 MSTORE SWAP2 PUSH1 0x20 ADD SWAP2 PUSH2 0x3FF JUMP JUMPDEST DUP3 ADD SWAP2 SWAP1 PUSH0 MSTORE PUSH1 0x20 PUSH0 KECCAK256 SWAP1 JUMPDEST DUP2 SLOAD DUP2 MSTORE SWAP1 PUSH1 0x1 ADD SWAP1 PUSH1 0x20 ADD DUP1 DUP4 GT PUSH2 0x3E2 JUMPI DUP3 SWAP1 SUB PUSH1 0x1F AND DUP3 ADD SWAP2 JUMPDEST POP POP POP POP POP SWAP1 DUP1 PUSH1 0x1 ADD DUP1 SLOAD PUSH2 0x414 SWAP1 PUSH2 0xE0D JUMP JUMPDEST DUP1 PUSH1 0x1F ADD PUSH1 0x20 DUP1 SWAP2 DIV MUL PUSH1 0x20 ADD PUSH1 0x40 MLOAD SWAP1 DUP2 ADD PUSH1 0x40 MSTORE DUP1 SWAP3 SWAP2 SWAP1 DUP2 DUP2 MSTORE PUSH1 0x20 ADD DUP3 DUP1 SLOAD PUSH2 0x440 SWAP1 PUSH2 0xE0D JUMP JUMPDEST DUP1 ISZERO PUSH2 0x48B JUMPI DUP1 PUSH1 0x1F LT PUSH2 0x462 JUMPI PUSH2 0x100 DUP1 DUP4 SLOAD DIV MUL DUP4 MSTORE SWAP2 PUSH1 0x20 ADD SWAP2 PUSH2 0x48B JUMP JUMPDEST DUP3 ADD SWAP2 SWAP1 PUSH0 MSTORE PUSH1 0x20 PUSH0 KECCAK256 SWAP1 JUMPDEST DUP2 SLOAD DUP2 MSTORE SWAP1 PUSH1 0x1 ADD SWAP1 PUSH1 0x20 ADD DUP1 DUP4 GT PUSH2 0x46E JUMPI DUP3 SWAP1 SUB PUSH1 0x1F AND DUP3 ADD SWAP2 JUMPDEST POP POP POP POP POP SWAP1 DUP1 PUSH1 0x2 ADD SLOAD SWAP1 DUP1 PUSH1 0x3 ADD SLOAD SWAP1 DUP1 PUSH1 0x4 ADD PUSH0 SWAP1 SLOAD SWAP1 PUSH2 0x100 EXP SWAP1 DIV PUSH1 0xFF AND SWAP1 DUP1 PUSH1 0x4 ADD PUSH1 0x1 SWAP1 SLOAD SWAP1 PUSH2 0x100 EXP SWAP1 DIV PUSH20 0xFFFFFFFFFFFFFFFFFFFFFFFFFFFFFFFFFFFFFFFF AND SWAP1 DUP1 PUSH1 0x5 ADD PUSH0 SWAP1 SLOAD SWAP1 PUSH2 0x100 EXP SWAP1 DIV PUSH20 0xFFFFFFFFFFFFFFFFFFFFFFFFFFFFFFFFFFFFFFFF AND SWAP1 POP DUP8 JUMP JUMPDEST PUSH0 PUSH1 0x40 MLOAD DUP1 PUSH1 0xE0 ADD PUSH1 0x40 MSTORE DUP1 DUP7 DUP2 MSTORE PUSH1 0x20 ADD DUP6 DUP2 MSTORE PUSH1 0x20 ADD DUP5 DUP2 MSTORE PUSH1 0x20 ADD DUP4 DUP2 MSTORE PUSH1 0x20 ADD PUSH0 ISZERO ISZERO DUP2 MSTORE PUSH1 0x20 ADD CALLER PUSH20 0xFFFFFFFFFFFFFFFFFFFFFFFFFFFFFFFFFFFFFFFF AND DUP2 MSTORE PUSH1 0x20 ADD PUSH0 PUSH20 0xFFFFFFFFFFFFFFFFFFFFFFFFFFFFFFFFFFFFFFFF AND DUP2 MSTORE POP SWAP1 POP PUSH0 DUP2 SWAP1 DUP1 PUSH1 0x1 DUP2 SLOAD ADD DUP1 DUP3 SSTORE DUP1 SWAP2 POP POP PUSH1 0x1 SWAP1 SUB SWAP1 PUSH0 MSTORE PUSH1 0x20 PUSH0 KECCAK256 SWAP1 PUSH1 0x6 MUL ADD PUSH0 SWAP1 SWAP2 SWAP1 SWAP2 SWAP1 SWAP2 POP PUSH0 DUP3 ADD MLOAD DUP2 PUSH0 ADD SWAP1 DUP2 PUSH2 0x59D SWAP2 SWAP1 PUSH2 0xFDA JUMP JUMPDEST POP PUSH1 0x20 DUP3 ADD MLOAD DUP2 PUSH1 0x1 ADD SWAP1 DUP2 PUSH2 0x5B3 SWAP2 SWAP1 PUSH2 0xFDA JUMP JUMPDEST POP PUSH1 0x40 DUP3 ADD MLOAD DUP2 PUSH1 0x2 ADD SSTORE PUSH1 0x60 DUP3 ADD MLOAD DUP2 PUSH1 0x3 ADD SSTORE PUSH1 0x80 DUP3 ADD MLOAD DUP2 PUSH1 0x4 ADD PUSH0 PUSH2 0x100 EXP DUP2 SLOAD DUP2 PUSH1 0xFF MUL NOT AND SWAP1 DUP4 ISZERO ISZERO MUL OR SWAP1 SSTORE POP PUSH1 0xA0 DUP3 ADD MLOAD DUP2 PUSH1 0x4 ADD PUSH1 0x1 PUSH2 0x100 EXP DUP2 SLOAD DUP2 PUSH20 0xFFFFFFFFFFFFFFFFFFFFFFFFFFFFFFFFFFFFFFFF MUL NOT AND SWAP1 DUP4 PUSH20 0xFFFFFFFFFFFFFFFFFFFFFFFFFFFFFFFFFFFFFFFF AND MUL OR SWAP1 SSTORE POP PUSH1 0xC0 DUP3 ADD MLOAD DUP2 PUSH1 0x5 ADD PUSH0 PUSH2 0x100 EXP DUP2 SLOAD DUP2 PUSH20 0xFFFFFFFFFFFFFFFFFFFFFFFFFFFFFFFFFFFFFFFF MUL NOT AND SWAP1 DUP4 PUSH20 0xFFFFFFFFFFFFFFFFFFFFFFFFFFFFFFFFFFFFFFFF AND MUL OR SWAP1 SSTORE POP POP POP CALLER PUSH20 0xFFFFFFFFFFFFFFFFFFFFFFFFFFFFFFFFFFFFFFFF AND PUSH1 0x1 PUSH0 DUP1 SLOAD SWAP1 POP PUSH2 0x69E SWAP2 SWAP1 PUSH2 0x10D6 JUMP JUMPDEST PUSH32 0x2D294DAD4C96AA17DB5BFD91B10A7B4746341581D3AB29DBC62D0DA31B134824 DUP8 DUP8 DUP8 PUSH1 0x40 MLOAD PUSH2 0x6D1 SWAP4 SWAP3 SWAP2 SWAP1 PUSH2 0x1109 JUMP JUMPDEST PUSH1 0x40 MLOAD DUP1 SWAP2 SUB SWAP1 LOG3 POP POP POP POP POP JUMP JUMPDEST PUSH1 0x60 DUP1 PUSH0 DUP1 PUSH0 DUP1 PUSH0 DUP1 DUP9 DUP2 SLOAD DUP2 LT PUSH2 0x6FB JUMPI PUSH2 0x6FA PUSH2 0xCE3 JUMP JUMPDEST JUMPDEST SWAP1 PUSH0 MSTORE PUSH1 0x20 PUSH0 KECCAK256 SWAP1 PUSH1 0x6 MUL ADD SWAP1 POP DUP1 PUSH0 ADD DUP2 PUSH1 0x1 ADD DUP3 PUSH1 0x2 ADD SLOAD DUP4 PUSH1 0x4 ADD PUSH0 SWAP1 SLOAD SWAP1 PUSH2 0x100 EXP SWAP1 DIV PUSH1 0xFF AND DUP5 PUSH1 0x4 ADD PUSH1 0x1 SWAP1 SLOAD SWAP1 PUSH2 0x100 EXP SWAP1 DIV PUSH20 0xFFFFFFFFFFFFFFFFFFFFFFFFFFFFFFFFFFFFFFFF AND DUP6 PUSH1 0x5 ADD PUSH0 SWAP1 SLOAD SWAP1 PUSH2 0x100 EXP SWAP1 DIV PUSH20 0xFFFFFFFFFFFFFFFFFFFFFFFFFFFFFFFFFFFFFFFF AND DUP6 DUP1 SLOAD PUSH2 0x77B SWAP1 PUSH2 0xE0D JUMP JUMPDEST DUP1 PUSH1 0x1F ADD PUSH1 0x20 DUP1 SWAP2 DIV MUL PUSH1 0x20 ADD PUSH1 0x40 MLOAD SWAP1 DUP2 ADD PUSH1 0x40 MSTORE DUP1 SWAP3 SWAP2 SWAP1 DUP2 DUP2 MSTORE PUSH1 0x20 ADD DUP3 DUP1 SLOAD PUSH2 0x7A7 SWAP1 PUSH2 0xE0D JUMP JUMPDEST DUP1 ISZERO PUSH2 0x7F2 JUMPI DUP1 PUSH1 0x1F LT PUSH2 0x7C9 JUMPI PUSH2 0x100 DUP1 DUP4 SLOAD DIV MUL DUP4 MSTORE SWAP2 PUSH1 0x20 ADD SWAP2 PUSH2 0x7F2 JUMP JUMPDEST DUP3 ADD SWAP2 SWAP1 PUSH0 MSTORE PUSH1 0x20 PUSH0 KECCAK256 SWAP1 JUMPDEST DUP2 SLOAD DUP2 MSTORE SWAP1 PUSH1 0x1 ADD SWAP1 PUSH1 0x20 ADD DUP1 DUP4 GT PUSH2 0x7D5 JUMPI DUP3 SWAP1 SUB PUSH1 0x1F AND DUP3 ADD SWAP2 JUMPDEST POP POP POP POP POP SWAP6 POP DUP5 DUP1 SLOAD PUSH2 0x805 SWAP1 PUSH2 0xE0D JUMP JUMPDEST DUP1 PUSH1 0x1F ADD PUSH1 0x20 DUP1 SWAP2 DIV MUL PUSH1 0x20 ADD PUSH1 0x40 MLOAD SWAP1 DUP2 ADD PUSH1 0x40 MSTORE DUP1 SWAP3 SWAP2 SWAP1 DUP2 DUP2 MSTORE PUSH1 0x20 ADD DUP3 DUP1 SLOAD PUSH2 0x831 SWAP1 PUSH2 0xE0D JUMP JUMPDEST DUP1 ISZERO PUSH2 0x87C JUMPI DUP1 PUSH1 0x1F LT PUSH2 0x853 JUMPI PUSH2 0x100 DUP1 DUP4 SLOAD DIV MUL DUP4 MSTORE SWAP2 PUSH1 0x20 ADD SWAP2 PUSH2 0x87C JUMP JUMPDEST DUP3 ADD SWAP2 SWAP1 PUSH0 MSTORE PUSH1 0x20 PUSH0 KECCAK256 SWAP1 JUMPDEST DUP2 SLOAD DUP2 MSTORE SWAP1 PUSH1 0x1 ADD SWAP1 PUSH1 0x20 ADD DUP1 DUP4 GT PUSH2 0x85F JUMPI DUP3 SWAP1 SUB PUSH1 0x1F AND DUP3 ADD SWAP2 JUMPDEST POP POP POP POP POP SWAP5 POP SWAP7 POP SWAP7 POP SWAP7 POP SWAP7 POP SWAP7 POP SWAP7 POP POP SWAP2 SWAP4 SWAP6 POP SWAP2 SWAP4 SWAP6 JUMP JUMPDEST PUSH0 PUSH1 0x40 MLOAD SWAP1 POP SWAP1 JUMP JUMPDEST PUSH0 DUP1 REVERT JUMPDEST PUSH0 DUP1 REVERT JUMPDEST PUSH0 DUP2 SWAP1 POP SWAP2 SWAP1 POP JUMP JUMPDEST PUSH2 0x8BC DUP2 PUSH2 0x8AA JUMP JUMPDEST DUP2 EQ PUSH2 0x8C6 JUMPI PUSH0 DUP1 REVERT JUMPDEST POP JUMP JUMPDEST PUSH0 DUP2 CALLDATALOAD SWAP1 POP PUSH2 0x8D7 DUP2 PUSH2 0x8B3 JUMP JUMPDEST SWAP3 SWAP2 POP POP JUMP JUMPDEST PUSH0 PUSH1 0x20 DUP3 DUP5 SUB SLT ISZERO PUSH2 0x8F2 JUMPI PUSH2 0x8F1 PUSH2 0x8A2 JUMP JUMPDEST JUMPDEST PUSH0 PUSH2 0x8FF DUP5 DUP3 DUP6 ADD PUSH2 0x8C9 JUMP JUMPDEST SWAP2 POP POP SWAP3 SWAP2 POP POP JUMP JUMPDEST PUSH2 0x911 DUP2 PUSH2 0x8AA JUMP JUMPDEST DUP3 MSTORE POP POP JUMP JUMPDEST PUSH0 PUSH1 0x20 DUP3 ADD SWAP1 POP PUSH2 0x92A PUSH0 DUP4 ADD DUP5 PUSH2 0x908 JUMP JUMPDEST SWAP3 SWAP2 POP POP JUMP JUMPDEST PUSH0 DUP2 MLOAD SWAP1 POP SWAP2 SWAP1 POP JUMP JUMPDEST PUSH0 DUP3 DUP3 MSTORE PUSH1 0x20 DUP3 ADD SWAP1 POP SWAP3 SWAP2 POP POP JUMP JUMPDEST PUSH0 JUMPDEST DUP4 DUP2 LT ISZERO PUSH2 0x967 JUMPI DUP1 DUP3 ADD MLOAD DUP2 DUP5 ADD MSTORE PUSH1 0x20 DUP2 ADD SWAP1 POP PUSH2 0x94C JUMP JUMPDEST PUSH0 DUP5 DUP5 ADD MSTORE POP POP POP POP JUMP JUMPDEST PUSH0 PUSH1 0x1F NOT PUSH1 0x1F DUP4 ADD AND SWAP1 POP SWAP2 SWAP1 POP JUMP JUMPDEST PUSH0 PUSH2 0x98C DUP3 PUSH2 0x930 JUMP JUMPDEST PUSH2 0x996 DUP2 DUP6 PUSH2 0x93A JUMP JUMPDEST SWAP4 POP PUSH2 0x9A6 DUP2 DUP6 PUSH1 0x20 DUP7 ADD PUSH2 0x94A JUMP JUMPDEST PUSH2 0x9AF DUP2 PUSH2 0x972 JUMP JUMPDEST DUP5 ADD SWAP2 POP POP SWAP3 SWAP2 POP POP JUMP JUMPDEST PUSH0 DUP2 ISZERO ISZERO SWAP1 POP SWAP2 SWAP1 POP JUMP JUMPDEST PUSH2 0x9CE DUP2 PUSH2 0x9BA JUMP JUMPDEST DUP3 MSTORE POP POP JUMP JUMPDEST PUSH0 PUSH20 0xFFFFFFFFFFFFFFFFFFFFFFFFFFFFFFFFFFFFFFFF DUP3 AND SWAP1 POP SWAP2 SWAP1 POP JUMP JUMPDEST PUSH0 PUSH2 0x9FD DUP3 PUSH2 0x9D4 JUMP JUMPDEST SWAP1 POP SWAP2 SWAP1 POP JUMP JUMPDEST PUSH2 0xA0D DUP2 PUSH2 0x9F3 JUMP JUMPDEST DUP3 MSTORE POP POP JUMP JUMPDEST PUSH0 PUSH2 0xA1D DUP3 PUSH2 0x9D4 JUMP JUMPDEST SWAP1 POP SWAP2 SWAP1 POP JUMP JUMPDEST PUSH2 0xA2D DUP2 PUSH2 0xA13 JUMP JUMPDEST DUP3 MSTORE POP POP JUMP JUMPDEST PUSH0 PUSH1 0xE0 DUP3 ADD SWAP1 POP DUP2 DUP2 SUB PUSH0 DUP4 ADD MSTORE PUSH2 0xA4B DUP2 DUP11 PUSH2 0x982 JUMP JUMPDEST SWAP1 POP DUP2 DUP2 SUB PUSH1 0x20 DUP4 ADD MSTORE PUSH2 0xA5F DUP2 DUP10 PUSH2 0x982 JUMP JUMPDEST SWAP1 POP PUSH2 0xA6E PUSH1 0x40 DUP4 ADD DUP9 PUSH2 0x908 JUMP JUMPDEST PUSH2 0xA7B PUSH1 0x60 DUP4 ADD DUP8 PUSH2 0x908 JUMP JUMPDEST PUSH2 0xA88 PUSH1 0x80 DUP4 ADD DUP7 PUSH2 0x9C5 JUMP JUMPDEST PUSH2 0xA95 PUSH1 0xA0 DUP4 ADD DUP6 PUSH2 0xA04 JUMP JUMPDEST PUSH2 0xAA2 PUSH1 0xC0 DUP4 ADD DUP5 PUSH2 0xA24 JUMP JUMPDEST SWAP9 SWAP8 POP POP POP POP POP POP POP POP JUMP JUMPDEST PUSH0 DUP1 REVERT JUMPDEST PUSH0 DUP1 REVERT JUMPDEST PUSH32 0x4E487B7100000000000000000000000000000000000000000000000000000000 PUSH0 MSTORE PUSH1 0x41 PUSH1 0x4 MSTORE PUSH1 0x24 PUSH0 REVERT JUMPDEST PUSH2 0xAEC DUP3 PUSH2 0x972 JUMP JUMPDEST DUP2 ADD DUP2 DUP2 LT PUSH8 0xFFFFFFFFFFFFFFFF DUP3 GT OR ISZERO PUSH2 0xB0B JUMPI PUSH2 0xB0A PUSH2 0xAB6 JUMP JUMPDEST JUMPDEST DUP1 PUSH1 0x40 MSTORE POP POP POP JUMP JUMPDEST PUSH0 PUSH2 0xB1D PUSH2 0x899 JUMP JUMPDEST SWAP1 POP PUSH2 0xB29 DUP3 DUP3 PUSH2 0xAE3 JUMP JUMPDEST SWAP2 SWAP1 POP JUMP JUMPDEST PUSH0 PUSH8 0xFFFFFFFFFFFFFFFF DUP3 GT ISZERO PUSH2 0xB48 JUMPI PUSH2 0xB47 PUSH2 0xAB6 JUMP JUMPDEST JUMPDEST PUSH2 0xB51 DUP3 PUSH2 0x972 JUMP JUMPDEST SWAP1 POP PUSH1 0x20 DUP2 ADD SWAP1 POP SWAP2 SWAP1 POP JUMP JUMPDEST DUP3 DUP2 DUP4 CALLDATACOPY PUSH0 DUP4 DUP4 ADD MSTORE POP POP POP JUMP JUMPDEST PUSH0 PUSH2 0xB7E PUSH2 0xB79 DUP5 PUSH2 0xB2E JUMP JUMPDEST PUSH2 0xB14 JUMP JUMPDEST SWAP1 POP DUP3 DUP2 MSTORE PUSH1 0x20 DUP2 ADD DUP5 DUP5 DUP5 ADD GT ISZERO PUSH2 0xB9A JUMPI PUSH2 0xB99 PUSH2 0xAB2 JUMP JUMPDEST JUMPDEST PUSH2 0xBA5 DUP5 DUP3 DUP6 PUSH2 0xB5E JUMP JUMPDEST POP SWAP4 SWAP3 POP POP POP JUMP JUMPDEST PUSH0 DUP3 PUSH1 0x1F DUP4 ADD SLT PUSH2 0xBC1 JUMPI PUSH2 0xBC0 PUSH2 0xAAE JUMP JUMPDEST JUMPDEST DUP2 CALLDATALOAD PUSH2 0xBD1 DUP5 DUP3 PUSH1 0x20 DUP7 ADD PUSH2 0xB6C JUMP JUMPDEST SWAP2 POP POP SWAP3 SWAP2 POP POP JUMP JUMPDEST PUSH0 DUP1 PUSH0 DUP1 PUSH1 0x80 DUP6 DUP8 SUB SLT ISZERO PUSH2 0xBF2 JUMPI PUSH2 0xBF1 PUSH2 0x8A2 JUMP JUMPDEST JUMPDEST PUSH0 DUP6 ADD CALLDATALOAD PUSH8 0xFFFFFFFFFFFFFFFF DUP2 GT ISZERO PUSH2 0xC0F JUMPI PUSH2 0xC0E PUSH2 0x8A6 JUMP JUMPDEST JUMPDEST PUSH2 0xC1B DUP8 DUP3 DUP9 ADD PUSH2 0xBAD JUMP JUMPDEST SWAP5 POP POP PUSH1 0x20 DUP6 ADD CALLDATALOAD PUSH8 0xFFFFFFFFFFFFFFFF DUP2 GT ISZERO PUSH2 0xC3C JUMPI PUSH2 0xC3B PUSH2 0x8A6 JUMP JUMPDEST JUMPDEST PUSH2 0xC48 DUP8 DUP3 DUP9 ADD PUSH2 0xBAD JUMP JUMPDEST SWAP4 POP POP PUSH1 0x40 PUSH2 0xC59 DUP8 DUP3 DUP9 ADD PUSH2 0x8C9 JUMP JUMPDEST SWAP3 POP POP PUSH1 0x60 PUSH2 0xC6A DUP8 DUP3 DUP9 ADD PUSH2 0x8C9 JUMP JUMPDEST SWAP2 POP POP SWAP3 SWAP6 SWAP2 SWAP5 POP SWAP3 POP JUMP JUMPDEST PUSH0 PUSH1 0xC0 DUP3 ADD SWAP1 POP DUP2 DUP2 SUB PUSH0 DUP4 ADD MSTORE PUSH2 0xC8E DUP2 DUP10 PUSH2 0x982 JUMP JUMPDEST SWAP1 POP DUP2 DUP2 SUB PUSH1 0x20 DUP4 ADD MSTORE PUSH2 0xCA2 DUP2 DUP9 PUSH2 0x982 JUMP JUMPDEST SWAP1 POP PUSH2 0xCB1 PUSH1 0x40 DUP4 ADD DUP8 PUSH2 0x908 JUMP JUMPDEST PUSH2 0xCBE PUSH1 0x60 DUP4 ADD DUP7 PUSH2 0x9C5 JUMP JUMPDEST PUSH2 0xCCB PUSH1 0x80 DUP4 ADD DUP6 PUSH2 0xA24 JUMP JUMPDEST PUSH2 0xCD8 PUSH1 0xA0 DUP4 ADD DUP5 PUSH2 0xA24 JUMP JUMPDEST SWAP8 SWAP7 POP POP POP POP POP POP POP JUMP JUMPDEST PUSH32 0x4E487B7100000000000000000000000000000000000000000000000000000000 PUSH0 MSTORE PUSH1 0x32 PUSH1 0x4 MSTORE PUSH1 0x24 PUSH0 REVERT JUMPDEST PUSH32 0x56656869636C6520616C726561647920736F6C64000000000000000000000000 PUSH0 DUP3 ADD MSTORE POP JUMP JUMPDEST PUSH0 PUSH2 0xD44 PUSH1 0x14 DUP4 PUSH2 0x93A JUMP JUMPDEST SWAP2 POP PUSH2 0xD4F DUP3 PUSH2 0xD10 JUMP JUMPDEST PUSH1 0x20 DUP3 ADD SWAP1 POP SWAP2 SWAP1 POP JUMP JUMPDEST PUSH0 PUSH1 0x20 DUP3 ADD SWAP1 POP DUP2 DUP2 SUB PUSH0 DUP4 ADD MSTORE PUSH2 0xD71 DUP2 PUSH2 0xD38 JUMP JUMPDEST SWAP1 POP SWAP2 SWAP1 POP JUMP JUMPDEST PUSH32 0x496E73756666696369656E742066756E64730000000000000000000000000000 PUSH0 DUP3 ADD MSTORE POP JUMP JUMPDEST PUSH0 PUSH2 0xDAC PUSH1 0x12 DUP4 PUSH2 0x93A JUMP JUMPDEST SWAP2 POP PUSH2 0xDB7 DUP3 PUSH2 0xD78 JUMP JUMPDEST PUSH1 0x20 DUP3 ADD SWAP1 POP SWAP2 SWAP1 POP JUMP JUMPDEST PUSH0 PUSH1 0x20 DUP3 ADD SWAP1 POP DUP2 DUP2 SUB PUSH0 DUP4 ADD MSTORE PUSH2 0xDD9 DUP2 PUSH2 0xDA0 JUMP JUMPDEST SWAP1 POP SWAP2 SWAP1 POP JUMP JUMPDEST PUSH32 0x4E487B7100000000000000000000000000000000000000000000000000000000 PUSH0 MSTORE PUSH1 0x22 PUSH1 0x4 MSTORE PUSH1 0x24 PUSH0 REVERT JUMPDEST PUSH0 PUSH1 0x2 DUP3 DIV SWAP1 POP PUSH1 0x1 DUP3 AND DUP1 PUSH2 0xE24 JUMPI PUSH1 0x7F DUP3 AND SWAP2 POP JUMPDEST PUSH1 0x20 DUP3 LT DUP2 SUB PUSH2 0xE37 JUMPI PUSH2 0xE36 PUSH2 0xDE0 JUMP JUMPDEST JUMPDEST POP SWAP2 SWAP1 POP JUMP JUMPDEST PUSH0 DUP2 SWAP1 POP DUP2 PUSH0 MSTORE PUSH1 0x20 PUSH0 KECCAK256 SWAP1 POP SWAP2 SWAP1 POP JUMP JUMPDEST PUSH0 PUSH1 0x20 PUSH1 0x1F DUP4 ADD DIV SWAP1 POP SWAP2 SWAP1 POP JUMP JUMPDEST PUSH0 DUP3 DUP3 SHL SWAP1 POP SWAP3 SWAP2 POP POP JUMP JUMPDEST PUSH0 PUSH1 0x8 DUP4 MUL PUSH2 0xE99 PUSH32 0xFFFFFFFFFFFFFFFFFFFFFFFFFFFFFFFFFFFFFFFFFFFFFFFFFFFFFFFFFFFFFFFF DUP3 PUSH2 0xE5E JUMP JUMPDEST PUSH2 0xEA3 DUP7 DUP4 PUSH2 0xE5E JUMP JUMPDEST SWAP6 POP DUP1 NOT DUP5 AND SWAP4 POP DUP1 DUP7 AND DUP5 OR SWAP3 POP POP POP SWAP4 SWAP3 POP POP POP JUMP JUMPDEST PUSH0 DUP2 SWAP1 POP SWAP2 SWAP1 POP JUMP JUMPDEST PUSH0 PUSH2 0xEDE PUSH2 0xED9 PUSH2 0xED4 DUP5 PUSH2 0x8AA JUMP JUMPDEST PUSH2 0xEBB JUMP JUMPDEST PUSH2 0x8AA JUMP JUMPDEST SWAP1 POP SWAP2 SWAP1 POP JUMP JUMPDEST PUSH0 DUP2 SWAP1 POP SWAP2 SWAP1 POP JUMP JUMPDEST PUSH2 0xEF7 DUP4 PUSH2 0xEC4 JUMP JUMPDEST PUSH2 0xF0B PUSH2 0xF03 DUP3 PUSH2 0xEE5 JUMP JUMPDEST DUP5 DUP5 SLOAD PUSH2 0xE6A JUMP JUMPDEST DUP3 SSTORE POP POP POP POP JUMP JUMPDEST PUSH0 SWAP1 JUMP JUMPDEST PUSH2 0xF1F PUSH2 0xF13 JUMP JUMPDEST PUSH2 0xF2A DUP2 DUP5 DUP5 PUSH2 0xEEE JUMP JUMPDEST POP POP POP JUMP JUMPDEST JUMPDEST DUP2 DUP2 LT ISZERO PUSH2 0xF4D JUMPI PUSH2 0xF42 PUSH0 DUP3 PUSH2 0xF17 JUMP JUMPDEST PUSH1 0x1 DUP2 ADD SWAP1 POP PUSH2 0xF30 JUMP JUMPDEST POP POP JUMP JUMPDEST PUSH1 0x1F DUP3 GT ISZERO PUSH2 0xF92 JUMPI PUSH2 0xF63 DUP2 PUSH2 0xE3D JUMP JUMPDEST PUSH2 0xF6C DUP5 PUSH2 0xE4F JUMP JUMPDEST DUP2 ADD PUSH1 0x20 DUP6 LT ISZERO PUSH2 0xF7B JUMPI DUP2 SWAP1 POP JUMPDEST PUSH2 0xF8F PUSH2 0xF87 DUP6 PUSH2 0xE4F JUMP JUMPDEST DUP4 ADD DUP3 PUSH2 0xF2F JUMP JUMPDEST POP POP JUMPDEST POP POP POP JUMP JUMPDEST PUSH0 DUP3 DUP3 SHR SWAP1 POP SWAP3 SWAP2 POP POP JUMP JUMPDEST PUSH0 PUSH2 0xFB2 PUSH0 NOT DUP5 PUSH1 0x8 MUL PUSH2 0xF97 JUMP JUMPDEST NOT DUP1 DUP4 AND SWAP2 POP POP SWAP3 SWAP2 POP POP JUMP JUMPDEST PUSH0 PUSH2 0xFCA DUP4 DUP4 PUSH2 0xFA3 JUMP JUMPDEST SWAP2 POP DUP3 PUSH1 0x2 MUL DUP3 OR SWAP1 POP SWAP3 SWAP2 POP POP JUMP JUMPDEST PUSH2 0xFE3 DUP3 PUSH2 0x930 JUMP JUMPDEST PUSH8 0xFFFFFFFFFFFFFFFF DUP2 GT ISZERO PUSH2 0xFFC JUMPI PUSH2 0xFFB PUSH2 0xAB6 JUMP JUMPDEST JUMPDEST PUSH2 0x1006 DUP3 SLOAD PUSH2 0xE0D JUMP JUMPDEST PUSH2 0x1011 DUP3 DUP3 DUP6 PUSH2 0xF51 JUMP JUMPDEST PUSH0 PUSH1 0x20 SWAP1 POP PUSH1 0x1F DUP4 GT PUSH1 0x1 DUP2 EQ PUSH2 0x1042 JUMPI PUSH0 DUP5 ISZERO PUSH2 0x1030 JUMPI DUP3 DUP8 ADD MLOAD SWAP1 POP JUMPDEST PUSH2 0x103A DUP6 DUP3 PUSH2 0xFBF JUMP JUMPDEST DUP7 SSTORE POP PUSH2 0x10A1 JUMP JUMPDEST PUSH1 0x1F NOT DUP5 AND PUSH2 0x1050 DUP7 PUSH2 0xE3D JUMP JUMPDEST PUSH0 JUMPDEST DUP3 DUP2 LT ISZERO PUSH2 0x1077 JUMPI DUP5 DUP10 ADD MLOAD DUP3 SSTORE PUSH1 0x1 DUP3 ADD SWAP2 POP PUSH1 0x20 DUP6 ADD SWAP5 POP PUSH1 0x20 DUP2 ADD SWAP1 POP PUSH2 0x1052 JUMP JUMPDEST DUP7 DUP4 LT ISZERO PUSH2 0x1094 JUMPI DUP5 DUP10 ADD MLOAD PUSH2 0x1090 PUSH1 0x1F DUP10 AND DUP3 PUSH2 0xFA3 JUMP JUMPDEST DUP4 SSTORE POP JUMPDEST PUSH1 0x1 PUSH1 0x2 DUP9 MUL ADD DUP9 SSTORE POP POP POP JUMPDEST POP POP POP POP POP POP JUMP JUMPDEST PUSH32 0x4E487B7100000000000000000000000000000000000000000000000000000000 PUSH0 MSTORE PUSH1 0x11 PUSH1 0x4 MSTORE PUSH1 0x24 PUSH0 REVERT JUMPDEST PUSH0 PUSH2 0x10E0 DUP3 PUSH2 0x8AA JUMP JUMPDEST SWAP2 POP PUSH2 0x10EB DUP4 PUSH2 0x8AA JUMP JUMPDEST SWAP3 POP DUP3 DUP3 SUB SWAP1 POP DUP2 DUP2 GT ISZERO PUSH2 0x1103 JUMPI PUSH2 0x1102 PUSH2 0x10A9 JUMP JUMPDEST JUMPDEST SWAP3 SWAP2 POP POP JUMP JUMPDEST PUSH0 PUSH1 0x60 DUP3 ADD SWAP1 POP DUP2 DUP2 SUB PUSH0 DUP4 ADD MSTORE PUSH2 0x1121 DUP2 DUP7 PUSH2 0x982 JUMP JUMPDEST SWAP1 POP DUP2 DUP2 SUB PUSH1 0x20 DUP4 ADD MSTORE PUSH2 0x1135 DUP2 DUP6 PUSH2 0x982 JUMP JUMPDEST SWAP1 POP PUSH2 0x1144 PUSH1 0x40 DUP4 ADD DUP5 PUSH2 0x908 JUMP JUMPDEST SWAP5 SWAP4 POP POP POP POP JUMP INVALID LOG2 PUSH5 0x6970667358 0x22 SLT KECCAK256 0xB4 SGT XOR DUP16 0xD7 0xF8 SGT RETURNDATACOPY CALLER DIV 0xE0 NOT 0xCB MSTORE8 0x2E 0xBD 0x1F 0x23 JUMPDEST 0xEE 0x4D DUP8 CODESIZE DIV PUSH20 0x77E25C6F0AE77464736F6C634300081600330000 "
				},
				"gasEstimates": {
					"creation": {
						"codeDepositCost": "896400",
						"executionCost": "933",
						"totalCost": "897333"
					},
					"external": {
						"buyVehicle(uint256)": "infinite",
						"getTotalVehicles()": "2440",
						"getVehicle(uint256)": "infinite",
						"listVehicle(string,string,uint256,uint256)": "infinite",
						"vehicles(uint256)": "infinite"
					}
				},
				"methodIdentifiers": {
					"buyVehicle(uint256)": "36ce0920",
					"getTotalVehicles()": "69056b27",
					"getVehicle(uint256)": "df7ebb7b",
					"listVehicle(string,string,uint256,uint256)": "d5b05f4f",
					"vehicles(uint256)": "b8ba95fa"
				}
			},
			"storageLayout": {
				"storage": [
					{
						"astId": 20,
						"contract": "contracts/Automotive industry p 2.sol:VehicleMarketplace",
						"label": "vehicles",
						"offset": 0,
						"slot": "0",
						"type": "t_array(t_struct(Vehicle)16_storage)dyn_storage"
					}
				],
				"types": {
					"t_address": {
						"encoding": "inplace",
						"label": "address",
						"numberOfBytes": "20"
					},
					"t_address_payable": {
						"encoding": "inplace",
						"label": "address payable",
						"numberOfBytes": "20"
					},
					"t_array(t_struct(Vehicle)16_storage)dyn_storage": {
						"base": "t_struct(Vehicle)16_storage",
						"encoding": "dynamic_array",
						"label": "struct VehicleMarketplace.Vehicle[]",
						"numberOfBytes": "32"
					},
					"t_bool": {
						"encoding": "inplace",
						"label": "bool",
						"numberOfBytes": "1"
					},
					"t_string_storage": {
						"encoding": "bytes",
						"label": "string",
						"numberOfBytes": "32"
					},
					"t_struct(Vehicle)16_storage": {
						"encoding": "inplace",
						"label": "struct VehicleMarketplace.Vehicle",
						"members": [
							{
								"astId": 3,
								"contract": "contracts/Automotive industry p 2.sol:VehicleMarketplace",
								"label": "make",
								"offset": 0,
								"slot": "0",
								"type": "t_string_storage"
							},
							{
								"astId": 5,
								"contract": "contracts/Automotive industry p 2.sol:VehicleMarketplace",
								"label": "model",
								"offset": 0,
								"slot": "1",
								"type": "t_string_storage"
							},
							{
								"astId": 7,
								"contract": "contracts/Automotive industry p 2.sol:VehicleMarketplace",
								"label": "price",
								"offset": 0,
								"slot": "2",
								"type": "t_uint256"
							},
							{
								"astId": 9,
								"contract": "contracts/Automotive industry p 2.sol:VehicleMarketplace",
								"label": "vehicleId",
								"offset": 0,
								"slot": "3",
								"type": "t_uint256"
							},
							{
								"astId": 11,
								"contract": "contracts/Automotive industry p 2.sol:VehicleMarketplace",
								"label": "isSold",
								"offset": 0,
								"slot": "4",
								"type": "t_bool"
							},
							{
								"astId": 13,
								"contract": "contracts/Automotive industry p 2.sol:VehicleMarketplace",
								"label": "seller",
								"offset": 1,
								"slot": "4",
								"type": "t_address_payable"
							},
							{
								"astId": 15,
								"contract": "contracts/Automotive industry p 2.sol:VehicleMarketplace",
								"label": "buyer",
								"offset": 0,
								"slot": "5",
								"type": "t_address"
							}
						],
						"numberOfBytes": "192"
					},
					"t_uint256": {
						"encoding": "inplace",
						"label": "uint256",
						"numberOfBytes": "32"
					}
				}
			},
			"userdoc": {
				"kind": "user",
				"methods": {},
				"version": 1
			}
		}
	}
}