{
	"Banking industry/Banking industry smart contract.sol": {
		"Banking": {
			"abi": [
				{
					"inputs": [],
					"stateMutability": "nonpayable",
					"type": "constructor"
				},
				{
					"inputs": [
						{
							"internalType": "address",
							"name": "",
							"type": "address"
						}
					],
					"name": "balances",
					"outputs": [
						{
							"internalType": "uint256",
							"name": "",
							"type": "uint256"
						}
					],
					"stateMutability": "view",
					"type": "function"
				},
				{
					"inputs": [],
					"name": "deposit",
					"outputs": [],
					"stateMutability": "payable",
					"type": "function"
				},
				{
					"inputs": [],
					"name": "destroy",
					"outputs": [],
					"stateMutability": "nonpayable",
					"type": "function"
				},
				{
					"inputs": [
						{
							"internalType": "address payable",
							"name": "user",
							"type": "address"
						}
					],
					"name": "getBalance",
					"outputs": [
						{
							"internalType": "uint256",
							"name": "",
							"type": "uint256"
						}
					],
					"stateMutability": "view",
					"type": "function"
				},
				{
					"inputs": [
						{
							"internalType": "address payable",
							"name": "user",
							"type": "address"
						}
					],
					"name": "grantAccess",
					"outputs": [],
					"stateMutability": "nonpayable",
					"type": "function"
				},
				{
					"inputs": [
						{
							"internalType": "address payable",
							"name": "user",
							"type": "address"
						}
					],
					"name": "revokeAccess",
					"outputs": [],
					"stateMutability": "nonpayable",
					"type": "function"
				},
				{
					"inputs": [
						{
							"internalType": "address payable",
							"name": "recipent",
							"type": "address"
						},
						{
							"internalType": "uint256",
							"name": "amount",
							"type": "uint256"
						}
					],
					"name": "transfer",
					"outputs": [],
					"stateMutability": "nonpayable",
					"type": "function"
				},
				{
					"inputs": [
						{
							"internalType": "uint256",
							"name": "amount",
							"type": "uint256"
						}
					],
					"name": "withdraw",
					"outputs": [],
					"stateMutability": "payable",
					"type": "function"
				}
			],
			"devdoc": {
				"kind": "dev",
				"methods": {},
				"version": 1
			},
			"evm": {
				"assembly": "    /* \"Banking industry/Banking industry smart contract.sol\":57:2053  contract Banking {... */\n  mstore(0x40, 0x80)\n    /* \"Banking industry/Banking industry smart contract.sol\":199:258  constructor() {... */\n  callvalue\n  dup1\n  iszero\n  tag_1\n  jumpi\n  0x00\n  dup1\n  revert\ntag_1:\n  pop\n    /* \"Banking industry/Banking industry smart contract.sol\":240:250  msg.sender */\n  caller\n    /* \"Banking industry/Banking industry smart contract.sol\":223:228  owner */\n  0x01\n  0x00\n    /* \"Banking industry/Banking industry smart contract.sol\":223:251  owner = payable (msg.sender) */\n  0x0100\n  exp\n  dup2\n  sload\n  dup2\n  0xffffffffffffffffffffffffffffffffffffffff\n  mul\n  not\n  and\n  swap1\n  dup4\n  0xffffffffffffffffffffffffffffffffffffffff\n  and\n  mul\n  or\n  swap1\n  sstore\n  pop\n    /* \"Banking industry/Banking industry smart contract.sol\":57:2053  contract Banking {... */\n  dataSize(sub_0)\n  dup1\n  dataOffset(sub_0)\n  0x00\n  codecopy\n  0x00\n  return\nstop\n\nsub_0: assembly {\n        /* \"Banking industry/Banking industry smart contract.sol\":57:2053  contract Banking {... */\n      mstore(0x40, 0x80)\n      jumpi(tag_1, lt(calldatasize, 0x04))\n      shr(0xe0, calldataload(0x00))\n      dup1\n      0x85e68531\n      gt\n      tag_10\n      jumpi\n      dup1\n      0x85e68531\n      eq\n      tag_6\n      jumpi\n      dup1\n      0xa9059cbb\n      eq\n      tag_7\n      jumpi\n      dup1\n      0xd0e30db0\n      eq\n      tag_8\n      jumpi\n      dup1\n      0xf8b2cb4f\n      eq\n      tag_9\n      jumpi\n      jump(tag_1)\n    tag_10:\n      dup1\n      0x0ae5e739\n      eq\n      tag_2\n      jumpi\n      dup1\n      0x27e235e3\n      eq\n      tag_3\n      jumpi\n      dup1\n      0x2e1a7d4d\n      eq\n      tag_4\n      jumpi\n      dup1\n      0x83197ef0\n      eq\n      tag_5\n      jumpi\n    tag_1:\n      0x00\n      dup1\n      revert\n        /* \"Banking industry/Banking industry smart contract.sol\":1366:1519  function grantAccess(address payable user) public {... */\n    tag_2:\n      callvalue\n      dup1\n      iszero\n      tag_11\n      jumpi\n      0x00\n      dup1\n      revert\n    tag_11:\n      pop\n      tag_12\n      0x04\n      dup1\n      calldatasize\n      sub\n      dup2\n      add\n      swap1\n      tag_13\n      swap2\n      swap1\n      tag_14\n      jump\t// in\n    tag_13:\n      tag_15\n      jump\t// in\n    tag_12:\n      stop\n        /* \"Banking industry/Banking industry smart contract.sol\":102:146  mapping (address => uint256) public balances */\n    tag_3:\n      callvalue\n      dup1\n      iszero\n      tag_16\n      jumpi\n      0x00\n      dup1\n      revert\n    tag_16:\n      pop\n      tag_17\n      0x04\n      dup1\n      calldatasize\n      sub\n      dup2\n      add\n      swap1\n      tag_18\n      swap2\n      swap1\n      tag_19\n      jump\t// in\n    tag_18:\n      tag_20\n      jump\t// in\n    tag_17:\n      mload(0x40)\n      tag_21\n      swap2\n      swap1\n      tag_22\n      jump\t// in\n    tag_21:\n      mload(0x40)\n      dup1\n      swap2\n      sub\n      swap1\n      return\n        /* \"Banking industry/Banking industry smart contract.sol\":497:855  function withdraw(uint256 amount) public payable {... */\n    tag_4:\n      tag_23\n      0x04\n      dup1\n      calldatasize\n      sub\n      dup2\n      add\n      swap1\n      tag_24\n      swap2\n      swap1\n      tag_25\n      jump\t// in\n    tag_24:\n      tag_26\n      jump\t// in\n    tag_23:\n      stop\n        /* \"Banking industry/Banking industry smart contract.sol\":1860:2051  function destroy () public {... */\n    tag_5:\n      callvalue\n      dup1\n      iszero\n      tag_27\n      jumpi\n      0x00\n      dup1\n      revert\n    tag_27:\n      pop\n      tag_28\n      tag_29\n      jump\t// in\n    tag_28:\n      stop\n        /* \"Banking industry/Banking industry smart contract.sol\":1558:1811  function revokeAccess(address payable user) public {... */\n    tag_6:\n      callvalue\n      dup1\n      iszero\n      tag_30\n      jumpi\n      0x00\n      dup1\n      revert\n    tag_30:\n      pop\n      tag_31\n      0x04\n      dup1\n      calldatasize\n      sub\n      dup2\n      add\n      swap1\n      tag_32\n      swap2\n      swap1\n      tag_14\n      jump\t// in\n    tag_32:\n      tag_33\n      jump\t// in\n    tag_31:\n      stop\n        /* \"Banking industry/Banking industry smart contract.sol\":896:1181  function transfer(address payable recipent, uint256 amount) public {... */\n    tag_7:\n      callvalue\n      dup1\n      iszero\n      tag_34\n      jumpi\n      0x00\n      dup1\n      revert\n    tag_34:\n      pop\n      tag_35\n      0x04\n      dup1\n      calldatasize\n      sub\n      dup2\n      add\n      swap1\n      tag_36\n      swap2\n      swap1\n      tag_37\n      jump\t// in\n    tag_36:\n      tag_38\n      jump\t// in\n    tag_35:\n      stop\n        /* \"Banking industry/Banking industry smart contract.sol\":298:456  function deposit() public payable {... */\n    tag_8:\n      tag_39\n      tag_40\n      jump\t// in\n    tag_39:\n      stop\n        /* \"Banking industry/Banking industry smart contract.sol\":1218:1328  function getBalance(address payable user) public view returns (uint256) {... */\n    tag_9:\n      callvalue\n      dup1\n      iszero\n      tag_41\n      jumpi\n      0x00\n      dup1\n      revert\n    tag_41:\n      pop\n      tag_42\n      0x04\n      dup1\n      calldatasize\n      sub\n      dup2\n      add\n      swap1\n      tag_43\n      swap2\n      swap1\n      tag_14\n      jump\t// in\n    tag_43:\n      tag_44\n      jump\t// in\n    tag_42:\n      mload(0x40)\n      tag_45\n      swap2\n      swap1\n      tag_22\n      jump\t// in\n    tag_45:\n      mload(0x40)\n      dup1\n      swap2\n      sub\n      swap1\n      return\n        /* \"Banking industry/Banking industry smart contract.sol\":1366:1519  function grantAccess(address payable user) public {... */\n    tag_15:\n        /* \"Banking industry/Banking industry smart contract.sol\":1448:1453  owner */\n      0x01\n      0x00\n      swap1\n      sload\n      swap1\n      0x0100\n      exp\n      swap1\n      div\n      0xffffffffffffffffffffffffffffffffffffffff\n      and\n        /* \"Banking industry/Banking industry smart contract.sol\":1434:1453  msg.sender == owner */\n      0xffffffffffffffffffffffffffffffffffffffff\n      and\n        /* \"Banking industry/Banking industry smart contract.sol\":1434:1444  msg.sender */\n      caller\n        /* \"Banking industry/Banking industry smart contract.sol\":1434:1453  msg.sender == owner */\n      0xffffffffffffffffffffffffffffffffffffffff\n      and\n      eq\n        /* \"Banking industry/Banking industry smart contract.sol\":1426:1490  require(msg.sender == owner, \"Only the owner can grant access!\") */\n      tag_47\n      jumpi\n      mload(0x40)\n      0x08c379a000000000000000000000000000000000000000000000000000000000\n      dup2\n      mstore\n      0x04\n      add\n      tag_48\n      swap1\n      tag_49\n      jump\t// in\n    tag_48:\n      mload(0x40)\n      dup1\n      swap2\n      sub\n      swap1\n      revert\n    tag_47:\n        /* \"Banking industry/Banking industry smart contract.sol\":1508:1512  user */\n      dup1\n        /* \"Banking industry/Banking industry smart contract.sol\":1500:1505  owner */\n      0x01\n      0x00\n        /* \"Banking industry/Banking industry smart contract.sol\":1500:1512  owner = user */\n      0x0100\n      exp\n      dup2\n      sload\n      dup2\n      0xffffffffffffffffffffffffffffffffffffffff\n      mul\n      not\n      and\n      swap1\n      dup4\n      0xffffffffffffffffffffffffffffffffffffffff\n      and\n      mul\n      or\n      swap1\n      sstore\n      pop\n        /* \"Banking industry/Banking industry smart contract.sol\":1366:1519  function grantAccess(address payable user) public {... */\n      pop\n      jump\t// out\n        /* \"Banking industry/Banking industry smart contract.sol\":102:146  mapping (address => uint256) public balances */\n    tag_20:\n      mstore(0x20, 0x00)\n      dup1\n      0x00\n      mstore\n      keccak256(0x00, 0x40)\n      0x00\n      swap2\n      pop\n      swap1\n      pop\n      sload\n      dup2\n      jump\t// out\n        /* \"Banking industry/Banking industry smart contract.sol\":497:855  function withdraw(uint256 amount) public payable {... */\n    tag_26:\n        /* \"Banking industry/Banking industry smart contract.sol\":578:583  owner */\n      0x01\n      0x00\n      swap1\n      sload\n      swap1\n      0x0100\n      exp\n      swap1\n      div\n      0xffffffffffffffffffffffffffffffffffffffff\n      and\n        /* \"Banking industry/Banking industry smart contract.sol\":564:583  msg.sender == owner */\n      0xffffffffffffffffffffffffffffffffffffffff\n      and\n        /* \"Banking industry/Banking industry smart contract.sol\":564:574  msg.sender */\n      caller\n        /* \"Banking industry/Banking industry smart contract.sol\":564:583  msg.sender == owner */\n      0xffffffffffffffffffffffffffffffffffffffff\n      and\n      eq\n        /* \"Banking industry/Banking industry smart contract.sol\":556:616  require(msg.sender == owner, \"Only the owner can withdraw!\") */\n      tag_51\n      jumpi\n      mload(0x40)\n      0x08c379a000000000000000000000000000000000000000000000000000000000\n      dup2\n      mstore\n      0x04\n      add\n      tag_52\n      swap1\n      tag_53\n      jump\t// in\n    tag_52:\n      mload(0x40)\n      dup1\n      swap2\n      sub\n      swap1\n      revert\n    tag_51:\n        /* \"Banking industry/Banking industry smart contract.sol\":644:652  balances */\n      0x00\n        /* \"Banking industry/Banking industry smart contract.sol\":644:664  balances[msg.sender] */\n      dup1\n        /* \"Banking industry/Banking industry smart contract.sol\":653:663  msg.sender */\n      caller\n        /* \"Banking industry/Banking industry smart contract.sol\":644:664  balances[msg.sender] */\n      0xffffffffffffffffffffffffffffffffffffffff\n      and\n      0xffffffffffffffffffffffffffffffffffffffff\n      and\n      dup2\n      mstore\n      0x20\n      add\n      swap1\n      dup2\n      mstore\n      0x20\n      add\n      0x00\n      keccak256\n      sload\n        /* \"Banking industry/Banking industry smart contract.sol\":634:640  amount */\n      dup2\n        /* \"Banking industry/Banking industry smart contract.sol\":634:664  amount <= balances[msg.sender] */\n      gt\n      iszero\n        /* \"Banking industry/Banking industry smart contract.sol\":626:687  require(amount <= balances[msg.sender], \"Insufficent funds!\") */\n      tag_54\n      jumpi\n      mload(0x40)\n      0x08c379a000000000000000000000000000000000000000000000000000000000\n      dup2\n      mstore\n      0x04\n      add\n      tag_55\n      swap1\n      tag_56\n      jump\t// in\n    tag_55:\n      mload(0x40)\n      dup1\n      swap2\n      sub\n      swap1\n      revert\n    tag_54:\n        /* \"Banking industry/Banking industry smart contract.sol\":714:715  0 */\n      0x00\n        /* \"Banking industry/Banking industry smart contract.sol\":705:711  amount */\n      dup2\n        /* \"Banking industry/Banking industry smart contract.sol\":705:715  amount > 0 */\n      gt\n        /* \"Banking industry/Banking industry smart contract.sol\":697:761  require(amount > 0, \"Withdrawal amount must be greater than 0!\") */\n      tag_57\n      jumpi\n      mload(0x40)\n      0x08c379a000000000000000000000000000000000000000000000000000000000\n      dup2\n      mstore\n      0x04\n      add\n      tag_58\n      swap1\n      tag_59\n      jump\t// in\n    tag_58:\n      mload(0x40)\n      dup1\n      swap2\n      sub\n      swap1\n      revert\n    tag_57:\n        /* \"Banking industry/Banking industry smart contract.sol\":780:790  msg.sender */\n      caller\n        /* \"Banking industry/Banking industry smart contract.sol\":771:800  payable (msg.sender).transfer */\n      0xffffffffffffffffffffffffffffffffffffffff\n      and\n        /* \"Banking industry/Banking industry smart contract.sol\":771:808  payable (msg.sender).transfer(amount) */\n      0x08fc\n        /* \"Banking industry/Banking industry smart contract.sol\":801:807  amount */\n      dup3\n        /* \"Banking industry/Banking industry smart contract.sol\":771:808  payable (msg.sender).transfer(amount) */\n      swap1\n      dup2\n      iszero\n      mul\n      swap1\n      mload(0x40)\n      0x00\n      mload(0x40)\n      dup1\n      dup4\n      sub\n      dup2\n      dup6\n      dup9\n      dup9\n      call\n      swap4\n      pop\n      pop\n      pop\n      pop\n      iszero\n      dup1\n      iszero\n      tag_61\n      jumpi\n      returndatasize\n      0x00\n      dup1\n      returndatacopy\n      revert(0x00, returndatasize)\n    tag_61:\n      pop\n        /* \"Banking industry/Banking industry smart contract.sol\":842:848  amount */\n      dup1\n        /* \"Banking industry/Banking industry smart contract.sol\":818:826  balances */\n      0x00\n        /* \"Banking industry/Banking industry smart contract.sol\":818:838  balances[msg.sender] */\n      dup1\n        /* \"Banking industry/Banking industry smart contract.sol\":827:837  msg.sender */\n      caller\n        /* \"Banking industry/Banking industry smart contract.sol\":818:838  balances[msg.sender] */\n      0xffffffffffffffffffffffffffffffffffffffff\n      and\n      0xffffffffffffffffffffffffffffffffffffffff\n      and\n      dup2\n      mstore\n      0x20\n      add\n      swap1\n      dup2\n      mstore\n      0x20\n      add\n      0x00\n      keccak256\n      0x00\n        /* \"Banking industry/Banking industry smart contract.sol\":818:848  balances[msg.sender] -= amount */\n      dup3\n      dup3\n      sload\n      tag_62\n      swap2\n      swap1\n      tag_63\n      jump\t// in\n    tag_62:\n      swap3\n      pop\n      pop\n      dup2\n      swap1\n      sstore\n      pop\n        /* \"Banking industry/Banking industry smart contract.sol\":497:855  function withdraw(uint256 amount) public payable {... */\n      pop\n      jump\t// out\n        /* \"Banking industry/Banking industry smart contract.sol\":1860:2051  function destroy () public {... */\n    tag_29:\n        /* \"Banking industry/Banking industry smart contract.sol\":1916:1921  owner */\n      0x01\n      0x00\n      swap1\n      sload\n      swap1\n      0x0100\n      exp\n      swap1\n      div\n      0xffffffffffffffffffffffffffffffffffffffff\n      and\n        /* \"Banking industry/Banking industry smart contract.sol\":1902:1921  msg.sender == owner */\n      0xffffffffffffffffffffffffffffffffffffffff\n      and\n        /* \"Banking industry/Banking industry smart contract.sol\":1902:1912  msg.sender */\n      caller\n        /* \"Banking industry/Banking industry smart contract.sol\":1902:1921  msg.sender == owner */\n      0xffffffffffffffffffffffffffffffffffffffff\n      and\n      eq\n        /* \"Banking industry/Banking industry smart contract.sol\":1894:1967  require(msg.sender == owner, \"Only the owner can destroy this contract!\") */\n      tag_65\n      jumpi\n      mload(0x40)\n      0x08c379a000000000000000000000000000000000000000000000000000000000\n      dup2\n      mstore\n      0x04\n      add\n      tag_66\n      swap1\n      tag_67\n      jump\t// in\n    tag_66:\n      mload(0x40)\n      dup1\n      swap2\n      sub\n      swap1\n      revert\n    tag_65:\n        /* \"Banking industry/Banking industry smart contract.sol\":2037:2042  owner */\n      0x01\n      0x00\n      swap1\n      sload\n      swap1\n      0x0100\n      exp\n      swap1\n      div\n      0xffffffffffffffffffffffffffffffffffffffff\n      and\n        /* \"Banking industry/Banking industry smart contract.sol\":2024:2043  selfdestruct(owner) */\n      0xffffffffffffffffffffffffffffffffffffffff\n      and\n      selfdestruct\n        /* \"Banking industry/Banking industry smart contract.sol\":1558:1811  function revokeAccess(address payable user) public {... */\n    tag_33:\n        /* \"Banking industry/Banking industry smart contract.sol\":1641:1646  owner */\n      0x01\n      0x00\n      swap1\n      sload\n      swap1\n      0x0100\n      exp\n      swap1\n      div\n      0xffffffffffffffffffffffffffffffffffffffff\n      and\n        /* \"Banking industry/Banking industry smart contract.sol\":1627:1646  msg.sender == owner */\n      0xffffffffffffffffffffffffffffffffffffffff\n      and\n        /* \"Banking industry/Banking industry smart contract.sol\":1627:1637  msg.sender */\n      caller\n        /* \"Banking industry/Banking industry smart contract.sol\":1627:1646  msg.sender == owner */\n      0xffffffffffffffffffffffffffffffffffffffff\n      and\n      eq\n        /* \"Banking industry/Banking industry smart contract.sol\":1619:1688  require(msg.sender == owner, \"Only the owner can revoke the access!\") */\n      tag_69\n      jumpi\n      mload(0x40)\n      0x08c379a000000000000000000000000000000000000000000000000000000000\n      dup2\n      mstore\n      0x04\n      add\n      tag_70\n      swap1\n      tag_71\n      jump\t// in\n    tag_70:\n      mload(0x40)\n      dup1\n      swap2\n      sub\n      swap1\n      revert\n    tag_69:\n        /* \"Banking industry/Banking industry smart contract.sol\":1714:1719  owner */\n      0x01\n      0x00\n      swap1\n      sload\n      swap1\n      0x0100\n      exp\n      swap1\n      div\n      0xffffffffffffffffffffffffffffffffffffffff\n      and\n        /* \"Banking industry/Banking industry smart contract.sol\":1706:1719  user != owner */\n      0xffffffffffffffffffffffffffffffffffffffff\n      and\n        /* \"Banking industry/Banking industry smart contract.sol\":1706:1710  user */\n      dup2\n        /* \"Banking industry/Banking industry smart contract.sol\":1706:1719  user != owner */\n      0xffffffffffffffffffffffffffffffffffffffff\n      and\n      sub\n        /* \"Banking industry/Banking industry smart contract.sol\":1698:1766  require(user != owner, \"Cannot revoke access for the current user!\") */\n      tag_72\n      jumpi\n      mload(0x40)\n      0x08c379a000000000000000000000000000000000000000000000000000000000\n      dup2\n      mstore\n      0x04\n      add\n      tag_73\n      swap1\n      tag_74\n      jump\t// in\n    tag_73:\n      mload(0x40)\n      dup1\n      swap2\n      sub\n      swap1\n      revert\n    tag_72:\n        /* \"Banking industry/Banking industry smart contract.sol\":1793:1803  msg.sender */\n      caller\n        /* \"Banking industry/Banking industry smart contract.sol\":1776:1781  owner */\n      0x01\n      0x00\n        /* \"Banking industry/Banking industry smart contract.sol\":1776:1804  owner = payable (msg.sender) */\n      0x0100\n      exp\n      dup2\n      sload\n      dup2\n      0xffffffffffffffffffffffffffffffffffffffff\n      mul\n      not\n      and\n      swap1\n      dup4\n      0xffffffffffffffffffffffffffffffffffffffff\n      and\n      mul\n      or\n      swap1\n      sstore\n      pop\n        /* \"Banking industry/Banking industry smart contract.sol\":1558:1811  function revokeAccess(address payable user) public {... */\n      pop\n      jump\t// out\n        /* \"Banking industry/Banking industry smart contract.sol\":896:1181  function transfer(address payable recipent, uint256 amount) public {... */\n    tag_38:\n        /* \"Banking industry/Banking industry smart contract.sol\":991:999  balances */\n      0x00\n        /* \"Banking industry/Banking industry smart contract.sol\":991:1011  balances[msg.sender] */\n      dup1\n        /* \"Banking industry/Banking industry smart contract.sol\":1000:1010  msg.sender */\n      caller\n        /* \"Banking industry/Banking industry smart contract.sol\":991:1011  balances[msg.sender] */\n      0xffffffffffffffffffffffffffffffffffffffff\n      and\n      0xffffffffffffffffffffffffffffffffffffffff\n      and\n      dup2\n      mstore\n      0x20\n      add\n      swap1\n      dup2\n      mstore\n      0x20\n      add\n      0x00\n      keccak256\n      sload\n        /* \"Banking industry/Banking industry smart contract.sol\":981:987  amount */\n      dup2\n        /* \"Banking industry/Banking industry smart contract.sol\":981:1011  amount >= balances[msg.sender] */\n      lt\n      iszero\n        /* \"Banking industry/Banking industry smart contract.sol\":973:1033  require(amount >= balances[msg.sender], \"Insufficent fund!\") */\n      tag_76\n      jumpi\n      mload(0x40)\n      0x08c379a000000000000000000000000000000000000000000000000000000000\n      dup2\n      mstore\n      0x04\n      add\n      tag_77\n      swap1\n      tag_78\n      jump\t// in\n    tag_77:\n      mload(0x40)\n      dup1\n      swap2\n      sub\n      swap1\n      revert\n    tag_76:\n        /* \"Banking industry/Banking industry smart contract.sol\":1060:1061  0 */\n      0x00\n        /* \"Banking industry/Banking industry smart contract.sol\":1051:1057  amount */\n      dup2\n        /* \"Banking industry/Banking industry smart contract.sol\":1051:1061  amount > 0 */\n      gt\n        /* \"Banking industry/Banking industry smart contract.sol\":1043:1096  require(amount > 0, \"Amount must be greater than 0!\") */\n      tag_79\n      jumpi\n      mload(0x40)\n      0x08c379a000000000000000000000000000000000000000000000000000000000\n      dup2\n      mstore\n      0x04\n      add\n      tag_80\n      swap1\n      tag_81\n      jump\t// in\n    tag_80:\n      mload(0x40)\n      dup1\n      swap2\n      sub\n      swap1\n      revert\n    tag_79:\n        /* \"Banking industry/Banking industry smart contract.sol\":1130:1136  amount */\n      dup1\n        /* \"Banking industry/Banking industry smart contract.sol\":1106:1114  balances */\n      0x00\n        /* \"Banking industry/Banking industry smart contract.sol\":1106:1126  balances[msg.sender] */\n      dup1\n        /* \"Banking industry/Banking industry smart contract.sol\":1115:1125  msg.sender */\n      caller\n        /* \"Banking industry/Banking industry smart contract.sol\":1106:1126  balances[msg.sender] */\n      0xffffffffffffffffffffffffffffffffffffffff\n      and\n      0xffffffffffffffffffffffffffffffffffffffff\n      and\n      dup2\n      mstore\n      0x20\n      add\n      swap1\n      dup2\n      mstore\n      0x20\n      add\n      0x00\n      keccak256\n      0x00\n        /* \"Banking industry/Banking industry smart contract.sol\":1106:1136  balances[msg.sender] -= amount */\n      dup3\n      dup3\n      sload\n      tag_82\n      swap2\n      swap1\n      tag_63\n      jump\t// in\n    tag_82:\n      swap3\n      pop\n      pop\n      dup2\n      swap1\n      sstore\n      pop\n        /* \"Banking industry/Banking industry smart contract.sol\":1168:1174  amount */\n      dup1\n        /* \"Banking industry/Banking industry smart contract.sol\":1146:1154  balances */\n      0x00\n        /* \"Banking industry/Banking industry smart contract.sol\":1146:1164  balances[recipent] */\n      dup1\n        /* \"Banking industry/Banking industry smart contract.sol\":1155:1163  recipent */\n      dup5\n        /* \"Banking industry/Banking industry smart contract.sol\":1146:1164  balances[recipent] */\n      0xffffffffffffffffffffffffffffffffffffffff\n      and\n      0xffffffffffffffffffffffffffffffffffffffff\n      and\n      dup2\n      mstore\n      0x20\n      add\n      swap1\n      dup2\n      mstore\n      0x20\n      add\n      0x00\n      keccak256\n      0x00\n        /* \"Banking industry/Banking industry smart contract.sol\":1146:1174  balances[recipent] += amount */\n      dup3\n      dup3\n      sload\n      tag_83\n      swap2\n      swap1\n      tag_84\n      jump\t// in\n    tag_83:\n      swap3\n      pop\n      pop\n      dup2\n      swap1\n      sstore\n      pop\n        /* \"Banking industry/Banking industry smart contract.sol\":896:1181  function transfer(address payable recipent, uint256 amount) public {... */\n      pop\n      pop\n      jump\t// out\n        /* \"Banking industry/Banking industry smart contract.sol\":298:456  function deposit() public payable {... */\n    tag_40:\n        /* \"Banking industry/Banking industry smart contract.sol\":362:363  0 */\n      0x00\n        /* \"Banking industry/Banking industry smart contract.sol\":350:359  msg.value */\n      callvalue\n        /* \"Banking industry/Banking industry smart contract.sol\":350:363  msg.value > 0 */\n      gt\n        /* \"Banking industry/Banking industry smart contract.sol\":342:406  require(msg.value > 0, \"Depoist amount must be greater than 0.\") */\n      tag_86\n      jumpi\n      mload(0x40)\n      0x08c379a000000000000000000000000000000000000000000000000000000000\n      dup2\n      mstore\n      0x04\n      add\n      tag_87\n      swap1\n      tag_88\n      jump\t// in\n    tag_87:\n      mload(0x40)\n      dup1\n      swap2\n      sub\n      swap1\n      revert\n    tag_86:\n        /* \"Banking industry/Banking industry smart contract.sol\":440:449  msg.value */\n      callvalue\n        /* \"Banking industry/Banking industry smart contract.sol\":416:424  balances */\n      0x00\n        /* \"Banking industry/Banking industry smart contract.sol\":416:436  balances[msg.sender] */\n      dup1\n        /* \"Banking industry/Banking industry smart contract.sol\":425:435  msg.sender */\n      caller\n        /* \"Banking industry/Banking industry smart contract.sol\":416:436  balances[msg.sender] */\n      0xffffffffffffffffffffffffffffffffffffffff\n      and\n      0xffffffffffffffffffffffffffffffffffffffff\n      and\n      dup2\n      mstore\n      0x20\n      add\n      swap1\n      dup2\n      mstore\n      0x20\n      add\n      0x00\n      keccak256\n      0x00\n        /* \"Banking industry/Banking industry smart contract.sol\":416:449  balances[msg.sender] += msg.value */\n      dup3\n      dup3\n      sload\n      tag_89\n      swap2\n      swap1\n      tag_84\n      jump\t// in\n    tag_89:\n      swap3\n      pop\n      pop\n      dup2\n      swap1\n      sstore\n      pop\n        /* \"Banking industry/Banking industry smart contract.sol\":298:456  function deposit() public payable {... */\n      jump\t// out\n        /* \"Banking industry/Banking industry smart contract.sol\":1218:1328  function getBalance(address payable user) public view returns (uint256) {... */\n    tag_44:\n        /* \"Banking industry/Banking industry smart contract.sol\":1281:1288  uint256 */\n      0x00\n        /* \"Banking industry/Banking industry smart contract.sol\":1307:1315  balances */\n      dup1\n        /* \"Banking industry/Banking industry smart contract.sol\":1307:1321  balances[user] */\n      0x00\n        /* \"Banking industry/Banking industry smart contract.sol\":1316:1320  user */\n      dup4\n        /* \"Banking industry/Banking industry smart contract.sol\":1307:1321  balances[user] */\n      0xffffffffffffffffffffffffffffffffffffffff\n      and\n      0xffffffffffffffffffffffffffffffffffffffff\n      and\n      dup2\n      mstore\n      0x20\n      add\n      swap1\n      dup2\n      mstore\n      0x20\n      add\n      0x00\n      keccak256\n      sload\n        /* \"Banking industry/Banking industry smart contract.sol\":1300:1321  return balances[user] */\n      swap1\n      pop\n        /* \"Banking industry/Banking industry smart contract.sol\":1218:1328  function getBalance(address payable user) public view returns (uint256) {... */\n      swap2\n      swap1\n      pop\n      jump\t// out\n        /* \"#utility.yul\":88:205   */\n    tag_92:\n        /* \"#utility.yul\":197:198   */\n      0x00\n        /* \"#utility.yul\":194:195   */\n      dup1\n        /* \"#utility.yul\":187:199   */\n      revert\n        /* \"#utility.yul\":334:460   */\n    tag_94:\n        /* \"#utility.yul\":371:378   */\n      0x00\n        /* \"#utility.yul\":411:453   */\n      0xffffffffffffffffffffffffffffffffffffffff\n        /* \"#utility.yul\":404:409   */\n      dup3\n        /* \"#utility.yul\":400:454   */\n      and\n        /* \"#utility.yul\":389:454   */\n      swap1\n      pop\n        /* \"#utility.yul\":334:460   */\n      swap2\n      swap1\n      pop\n      jump\t// out\n        /* \"#utility.yul\":466:570   */\n    tag_95:\n        /* \"#utility.yul\":511:518   */\n      0x00\n        /* \"#utility.yul\":540:564   */\n      tag_133\n        /* \"#utility.yul\":558:563   */\n      dup3\n        /* \"#utility.yul\":540:564   */\n      tag_94\n      jump\t// in\n    tag_133:\n        /* \"#utility.yul\":529:564   */\n      swap1\n      pop\n        /* \"#utility.yul\":466:570   */\n      swap2\n      swap1\n      pop\n      jump\t// out\n        /* \"#utility.yul\":576:714   */\n    tag_96:\n        /* \"#utility.yul\":657:689   */\n      tag_135\n        /* \"#utility.yul\":683:688   */\n      dup2\n        /* \"#utility.yul\":657:689   */\n      tag_95\n      jump\t// in\n    tag_135:\n        /* \"#utility.yul\":650:655   */\n      dup2\n        /* \"#utility.yul\":647:690   */\n      eq\n        /* \"#utility.yul\":637:708   */\n      tag_136\n      jumpi\n        /* \"#utility.yul\":704:705   */\n      0x00\n        /* \"#utility.yul\":701:702   */\n      dup1\n        /* \"#utility.yul\":694:706   */\n      revert\n        /* \"#utility.yul\":637:708   */\n    tag_136:\n        /* \"#utility.yul\":576:714   */\n      pop\n      jump\t// out\n        /* \"#utility.yul\":720:875   */\n    tag_97:\n        /* \"#utility.yul\":774:779   */\n      0x00\n        /* \"#utility.yul\":812:818   */\n      dup2\n        /* \"#utility.yul\":799:819   */\n      calldataload\n        /* \"#utility.yul\":790:819   */\n      swap1\n      pop\n        /* \"#utility.yul\":828:869   */\n      tag_138\n        /* \"#utility.yul\":863:868   */\n      dup2\n        /* \"#utility.yul\":828:869   */\n      tag_96\n      jump\t// in\n    tag_138:\n        /* \"#utility.yul\":720:875   */\n      swap3\n      swap2\n      pop\n      pop\n      jump\t// out\n        /* \"#utility.yul\":881:1226   */\n    tag_14:\n        /* \"#utility.yul\":948:954   */\n      0x00\n        /* \"#utility.yul\":997:999   */\n      0x20\n        /* \"#utility.yul\":985:994   */\n      dup3\n        /* \"#utility.yul\":976:983   */\n      dup5\n        /* \"#utility.yul\":972:995   */\n      sub\n        /* \"#utility.yul\":968:1000   */\n      slt\n        /* \"#utility.yul\":965:1084   */\n      iszero\n      tag_140\n      jumpi\n        /* \"#utility.yul\":1003:1082   */\n      tag_141\n      tag_92\n      jump\t// in\n    tag_141:\n        /* \"#utility.yul\":965:1084   */\n    tag_140:\n        /* \"#utility.yul\":1123:1124   */\n      0x00\n        /* \"#utility.yul\":1148:1209   */\n      tag_142\n        /* \"#utility.yul\":1201:1208   */\n      dup5\n        /* \"#utility.yul\":1192:1198   */\n      dup3\n        /* \"#utility.yul\":1181:1190   */\n      dup6\n        /* \"#utility.yul\":1177:1199   */\n      add\n        /* \"#utility.yul\":1148:1209   */\n      tag_97\n      jump\t// in\n    tag_142:\n        /* \"#utility.yul\":1138:1209   */\n      swap2\n      pop\n        /* \"#utility.yul\":1094:1219   */\n      pop\n        /* \"#utility.yul\":881:1226   */\n      swap3\n      swap2\n      pop\n      pop\n      jump\t// out\n        /* \"#utility.yul\":1232:1328   */\n    tag_98:\n        /* \"#utility.yul\":1269:1276   */\n      0x00\n        /* \"#utility.yul\":1298:1322   */\n      tag_144\n        /* \"#utility.yul\":1316:1321   */\n      dup3\n        /* \"#utility.yul\":1298:1322   */\n      tag_94\n      jump\t// in\n    tag_144:\n        /* \"#utility.yul\":1287:1322   */\n      swap1\n      pop\n        /* \"#utility.yul\":1232:1328   */\n      swap2\n      swap1\n      pop\n      jump\t// out\n        /* \"#utility.yul\":1334:1456   */\n    tag_99:\n        /* \"#utility.yul\":1407:1431   */\n      tag_146\n        /* \"#utility.yul\":1425:1430   */\n      dup2\n        /* \"#utility.yul\":1407:1431   */\n      tag_98\n      jump\t// in\n    tag_146:\n        /* \"#utility.yul\":1400:1405   */\n      dup2\n        /* \"#utility.yul\":1397:1432   */\n      eq\n        /* \"#utility.yul\":1387:1450   */\n      tag_147\n      jumpi\n        /* \"#utility.yul\":1446:1447   */\n      0x00\n        /* \"#utility.yul\":1443:1444   */\n      dup1\n        /* \"#utility.yul\":1436:1448   */\n      revert\n        /* \"#utility.yul\":1387:1450   */\n    tag_147:\n        /* \"#utility.yul\":1334:1456   */\n      pop\n      jump\t// out\n        /* \"#utility.yul\":1462:1601   */\n    tag_100:\n        /* \"#utility.yul\":1508:1513   */\n      0x00\n        /* \"#utility.yul\":1546:1552   */\n      dup2\n        /* \"#utility.yul\":1533:1553   */\n      calldataload\n        /* \"#utility.yul\":1524:1553   */\n      swap1\n      pop\n        /* \"#utility.yul\":1562:1595   */\n      tag_149\n        /* \"#utility.yul\":1589:1594   */\n      dup2\n        /* \"#utility.yul\":1562:1595   */\n      tag_99\n      jump\t// in\n    tag_149:\n        /* \"#utility.yul\":1462:1601   */\n      swap3\n      swap2\n      pop\n      pop\n      jump\t// out\n        /* \"#utility.yul\":1607:1936   */\n    tag_19:\n        /* \"#utility.yul\":1666:1672   */\n      0x00\n        /* \"#utility.yul\":1715:1717   */\n      0x20\n        /* \"#utility.yul\":1703:1712   */\n      dup3\n        /* \"#utility.yul\":1694:1701   */\n      dup5\n        /* \"#utility.yul\":1690:1713   */\n      sub\n        /* \"#utility.yul\":1686:1718   */\n      slt\n        /* \"#utility.yul\":1683:1802   */\n      iszero\n      tag_151\n      jumpi\n        /* \"#utility.yul\":1721:1800   */\n      tag_152\n      tag_92\n      jump\t// in\n    tag_152:\n        /* \"#utility.yul\":1683:1802   */\n    tag_151:\n        /* \"#utility.yul\":1841:1842   */\n      0x00\n        /* \"#utility.yul\":1866:1919   */\n      tag_153\n        /* \"#utility.yul\":1911:1918   */\n      dup5\n        /* \"#utility.yul\":1902:1908   */\n      dup3\n        /* \"#utility.yul\":1891:1900   */\n      dup6\n        /* \"#utility.yul\":1887:1909   */\n      add\n        /* \"#utility.yul\":1866:1919   */\n      tag_100\n      jump\t// in\n    tag_153:\n        /* \"#utility.yul\":1856:1919   */\n      swap2\n      pop\n        /* \"#utility.yul\":1812:1929   */\n      pop\n        /* \"#utility.yul\":1607:1936   */\n      swap3\n      swap2\n      pop\n      pop\n      jump\t// out\n        /* \"#utility.yul\":1942:2019   */\n    tag_101:\n        /* \"#utility.yul\":1979:1986   */\n      0x00\n        /* \"#utility.yul\":2008:2013   */\n      dup2\n        /* \"#utility.yul\":1997:2013   */\n      swap1\n      pop\n        /* \"#utility.yul\":1942:2019   */\n      swap2\n      swap1\n      pop\n      jump\t// out\n        /* \"#utility.yul\":2025:2143   */\n    tag_102:\n        /* \"#utility.yul\":2112:2136   */\n      tag_156\n        /* \"#utility.yul\":2130:2135   */\n      dup2\n        /* \"#utility.yul\":2112:2136   */\n      tag_101\n      jump\t// in\n    tag_156:\n        /* \"#utility.yul\":2107:2110   */\n      dup3\n        /* \"#utility.yul\":2100:2137   */\n      mstore\n        /* \"#utility.yul\":2025:2143   */\n      pop\n      pop\n      jump\t// out\n        /* \"#utility.yul\":2149:2371   */\n    tag_22:\n        /* \"#utility.yul\":2242:2246   */\n      0x00\n        /* \"#utility.yul\":2280:2282   */\n      0x20\n        /* \"#utility.yul\":2269:2278   */\n      dup3\n        /* \"#utility.yul\":2265:2283   */\n      add\n        /* \"#utility.yul\":2257:2283   */\n      swap1\n      pop\n        /* \"#utility.yul\":2293:2364   */\n      tag_158\n        /* \"#utility.yul\":2361:2362   */\n      0x00\n        /* \"#utility.yul\":2350:2359   */\n      dup4\n        /* \"#utility.yul\":2346:2363   */\n      add\n        /* \"#utility.yul\":2337:2343   */\n      dup5\n        /* \"#utility.yul\":2293:2364   */\n      tag_102\n      jump\t// in\n    tag_158:\n        /* \"#utility.yul\":2149:2371   */\n      swap3\n      swap2\n      pop\n      pop\n      jump\t// out\n        /* \"#utility.yul\":2377:2499   */\n    tag_103:\n        /* \"#utility.yul\":2450:2474   */\n      tag_160\n        /* \"#utility.yul\":2468:2473   */\n      dup2\n        /* \"#utility.yul\":2450:2474   */\n      tag_101\n      jump\t// in\n    tag_160:\n        /* \"#utility.yul\":2443:2448   */\n      dup2\n        /* \"#utility.yul\":2440:2475   */\n      eq\n        /* \"#utility.yul\":2430:2493   */\n      tag_161\n      jumpi\n        /* \"#utility.yul\":2489:2490   */\n      0x00\n        /* \"#utility.yul\":2486:2487   */\n      dup1\n        /* \"#utility.yul\":2479:2491   */\n      revert\n        /* \"#utility.yul\":2430:2493   */\n    tag_161:\n        /* \"#utility.yul\":2377:2499   */\n      pop\n      jump\t// out\n        /* \"#utility.yul\":2505:2644   */\n    tag_104:\n        /* \"#utility.yul\":2551:2556   */\n      0x00\n        /* \"#utility.yul\":2589:2595   */\n      dup2\n        /* \"#utility.yul\":2576:2596   */\n      calldataload\n        /* \"#utility.yul\":2567:2596   */\n      swap1\n      pop\n        /* \"#utility.yul\":2605:2638   */\n      tag_163\n        /* \"#utility.yul\":2632:2637   */\n      dup2\n        /* \"#utility.yul\":2605:2638   */\n      tag_103\n      jump\t// in\n    tag_163:\n        /* \"#utility.yul\":2505:2644   */\n      swap3\n      swap2\n      pop\n      pop\n      jump\t// out\n        /* \"#utility.yul\":2650:2979   */\n    tag_25:\n        /* \"#utility.yul\":2709:2715   */\n      0x00\n        /* \"#utility.yul\":2758:2760   */\n      0x20\n        /* \"#utility.yul\":2746:2755   */\n      dup3\n        /* \"#utility.yul\":2737:2744   */\n      dup5\n        /* \"#utility.yul\":2733:2756   */\n      sub\n        /* \"#utility.yul\":2729:2761   */\n      slt\n        /* \"#utility.yul\":2726:2845   */\n      iszero\n      tag_165\n      jumpi\n        /* \"#utility.yul\":2764:2843   */\n      tag_166\n      tag_92\n      jump\t// in\n    tag_166:\n        /* \"#utility.yul\":2726:2845   */\n    tag_165:\n        /* \"#utility.yul\":2884:2885   */\n      0x00\n        /* \"#utility.yul\":2909:2962   */\n      tag_167\n        /* \"#utility.yul\":2954:2961   */\n      dup5\n        /* \"#utility.yul\":2945:2951   */\n      dup3\n        /* \"#utility.yul\":2934:2943   */\n      dup6\n        /* \"#utility.yul\":2930:2952   */\n      add\n        /* \"#utility.yul\":2909:2962   */\n      tag_104\n      jump\t// in\n    tag_167:\n        /* \"#utility.yul\":2899:2962   */\n      swap2\n      pop\n        /* \"#utility.yul\":2855:2972   */\n      pop\n        /* \"#utility.yul\":2650:2979   */\n      swap3\n      swap2\n      pop\n      pop\n      jump\t// out\n        /* \"#utility.yul\":2985:3475   */\n    tag_37:\n        /* \"#utility.yul\":3061:3067   */\n      0x00\n        /* \"#utility.yul\":3069:3075   */\n      dup1\n        /* \"#utility.yul\":3118:3120   */\n      0x40\n        /* \"#utility.yul\":3106:3115   */\n      dup4\n        /* \"#utility.yul\":3097:3104   */\n      dup6\n        /* \"#utility.yul\":3093:3116   */\n      sub\n        /* \"#utility.yul\":3089:3121   */\n      slt\n        /* \"#utility.yul\":3086:3205   */\n      iszero\n      tag_169\n      jumpi\n        /* \"#utility.yul\":3124:3203   */\n      tag_170\n      tag_92\n      jump\t// in\n    tag_170:\n        /* \"#utility.yul\":3086:3205   */\n    tag_169:\n        /* \"#utility.yul\":3244:3245   */\n      0x00\n        /* \"#utility.yul\":3269:3330   */\n      tag_171\n        /* \"#utility.yul\":3322:3329   */\n      dup6\n        /* \"#utility.yul\":3313:3319   */\n      dup3\n        /* \"#utility.yul\":3302:3311   */\n      dup7\n        /* \"#utility.yul\":3298:3320   */\n      add\n        /* \"#utility.yul\":3269:3330   */\n      tag_97\n      jump\t// in\n    tag_171:\n        /* \"#utility.yul\":3259:3330   */\n      swap3\n      pop\n        /* \"#utility.yul\":3215:3340   */\n      pop\n        /* \"#utility.yul\":3379:3381   */\n      0x20\n        /* \"#utility.yul\":3405:3458   */\n      tag_172\n        /* \"#utility.yul\":3450:3457   */\n      dup6\n        /* \"#utility.yul\":3441:3447   */\n      dup3\n        /* \"#utility.yul\":3430:3439   */\n      dup7\n        /* \"#utility.yul\":3426:3448   */\n      add\n        /* \"#utility.yul\":3405:3458   */\n      tag_104\n      jump\t// in\n    tag_172:\n        /* \"#utility.yul\":3395:3458   */\n      swap2\n      pop\n        /* \"#utility.yul\":3350:3468   */\n      pop\n        /* \"#utility.yul\":2985:3475   */\n      swap3\n      pop\n      swap3\n      swap1\n      pop\n      jump\t// out\n        /* \"#utility.yul\":3481:3650   */\n    tag_105:\n        /* \"#utility.yul\":3565:3576   */\n      0x00\n        /* \"#utility.yul\":3599:3605   */\n      dup3\n        /* \"#utility.yul\":3594:3597   */\n      dup3\n        /* \"#utility.yul\":3587:3606   */\n      mstore\n        /* \"#utility.yul\":3639:3643   */\n      0x20\n        /* \"#utility.yul\":3634:3637   */\n      dup3\n        /* \"#utility.yul\":3630:3644   */\n      add\n        /* \"#utility.yul\":3615:3644   */\n      swap1\n      pop\n        /* \"#utility.yul\":3481:3650   */\n      swap3\n      swap2\n      pop\n      pop\n      jump\t// out\n        /* \"#utility.yul\":3656:3838   */\n    tag_106:\n        /* \"#utility.yul\":3796:3830   */\n      0x4f6e6c7920746865206f776e65722063616e206772616e742061636365737321\n        /* \"#utility.yul\":3792:3793   */\n      0x00\n        /* \"#utility.yul\":3784:3790   */\n      dup3\n        /* \"#utility.yul\":3780:3794   */\n      add\n        /* \"#utility.yul\":3773:3831   */\n      mstore\n        /* \"#utility.yul\":3656:3838   */\n      pop\n      jump\t// out\n        /* \"#utility.yul\":3844:4210   */\n    tag_107:\n        /* \"#utility.yul\":3986:3989   */\n      0x00\n        /* \"#utility.yul\":4007:4074   */\n      tag_176\n        /* \"#utility.yul\":4071:4073   */\n      0x20\n        /* \"#utility.yul\":4066:4069   */\n      dup4\n        /* \"#utility.yul\":4007:4074   */\n      tag_105\n      jump\t// in\n    tag_176:\n        /* \"#utility.yul\":4000:4074   */\n      swap2\n      pop\n        /* \"#utility.yul\":4083:4176   */\n      tag_177\n        /* \"#utility.yul\":4172:4175   */\n      dup3\n        /* \"#utility.yul\":4083:4176   */\n      tag_106\n      jump\t// in\n    tag_177:\n        /* \"#utility.yul\":4201:4203   */\n      0x20\n        /* \"#utility.yul\":4196:4199   */\n      dup3\n        /* \"#utility.yul\":4192:4204   */\n      add\n        /* \"#utility.yul\":4185:4204   */\n      swap1\n      pop\n        /* \"#utility.yul\":3844:4210   */\n      swap2\n      swap1\n      pop\n      jump\t// out\n        /* \"#utility.yul\":4216:4635   */\n    tag_49:\n        /* \"#utility.yul\":4382:4386   */\n      0x00\n        /* \"#utility.yul\":4420:4422   */\n      0x20\n        /* \"#utility.yul\":4409:4418   */\n      dup3\n        /* \"#utility.yul\":4405:4423   */\n      add\n        /* \"#utility.yul\":4397:4423   */\n      swap1\n      pop\n        /* \"#utility.yul\":4469:4478   */\n      dup2\n        /* \"#utility.yul\":4463:4467   */\n      dup2\n        /* \"#utility.yul\":4459:4479   */\n      sub\n        /* \"#utility.yul\":4455:4456   */\n      0x00\n        /* \"#utility.yul\":4444:4453   */\n      dup4\n        /* \"#utility.yul\":4440:4457   */\n      add\n        /* \"#utility.yul\":4433:4480   */\n      mstore\n        /* \"#utility.yul\":4497:4628   */\n      tag_179\n        /* \"#utility.yul\":4623:4627   */\n      dup2\n        /* \"#utility.yul\":4497:4628   */\n      tag_107\n      jump\t// in\n    tag_179:\n        /* \"#utility.yul\":4489:4628   */\n      swap1\n      pop\n        /* \"#utility.yul\":4216:4635   */\n      swap2\n      swap1\n      pop\n      jump\t// out\n        /* \"#utility.yul\":4641:4819   */\n    tag_108:\n        /* \"#utility.yul\":4781:4811   */\n      0x4f6e6c7920746865206f776e65722063616e2077697468647261772100000000\n        /* \"#utility.yul\":4777:4778   */\n      0x00\n        /* \"#utility.yul\":4769:4775   */\n      dup3\n        /* \"#utility.yul\":4765:4779   */\n      add\n        /* \"#utility.yul\":4758:4812   */\n      mstore\n        /* \"#utility.yul\":4641:4819   */\n      pop\n      jump\t// out\n        /* \"#utility.yul\":4825:5191   */\n    tag_109:\n        /* \"#utility.yul\":4967:4970   */\n      0x00\n        /* \"#utility.yul\":4988:5055   */\n      tag_182\n        /* \"#utility.yul\":5052:5054   */\n      0x1c\n        /* \"#utility.yul\":5047:5050   */\n      dup4\n        /* \"#utility.yul\":4988:5055   */\n      tag_105\n      jump\t// in\n    tag_182:\n        /* \"#utility.yul\":4981:5055   */\n      swap2\n      pop\n        /* \"#utility.yul\":5064:5157   */\n      tag_183\n        /* \"#utility.yul\":5153:5156   */\n      dup3\n        /* \"#utility.yul\":5064:5157   */\n      tag_108\n      jump\t// in\n    tag_183:\n        /* \"#utility.yul\":5182:5184   */\n      0x20\n        /* \"#utility.yul\":5177:5180   */\n      dup3\n        /* \"#utility.yul\":5173:5185   */\n      add\n        /* \"#utility.yul\":5166:5185   */\n      swap1\n      pop\n        /* \"#utility.yul\":4825:5191   */\n      swap2\n      swap1\n      pop\n      jump\t// out\n        /* \"#utility.yul\":5197:5616   */\n    tag_53:\n        /* \"#utility.yul\":5363:5367   */\n      0x00\n        /* \"#utility.yul\":5401:5403   */\n      0x20\n        /* \"#utility.yul\":5390:5399   */\n      dup3\n        /* \"#utility.yul\":5386:5404   */\n      add\n        /* \"#utility.yul\":5378:5404   */\n      swap1\n      pop\n        /* \"#utility.yul\":5450:5459   */\n      dup2\n        /* \"#utility.yul\":5444:5448   */\n      dup2\n        /* \"#utility.yul\":5440:5460   */\n      sub\n        /* \"#utility.yul\":5436:5437   */\n      0x00\n        /* \"#utility.yul\":5425:5434   */\n      dup4\n        /* \"#utility.yul\":5421:5438   */\n      add\n        /* \"#utility.yul\":5414:5461   */\n      mstore\n        /* \"#utility.yul\":5478:5609   */\n      tag_185\n        /* \"#utility.yul\":5604:5608   */\n      dup2\n        /* \"#utility.yul\":5478:5609   */\n      tag_109\n      jump\t// in\n    tag_185:\n        /* \"#utility.yul\":5470:5609   */\n      swap1\n      pop\n        /* \"#utility.yul\":5197:5616   */\n      swap2\n      swap1\n      pop\n      jump\t// out\n        /* \"#utility.yul\":5622:5790   */\n    tag_110:\n        /* \"#utility.yul\":5762:5782   */\n      0x496e737566666963656e742066756e6473210000000000000000000000000000\n        /* \"#utility.yul\":5758:5759   */\n      0x00\n        /* \"#utility.yul\":5750:5756   */\n      dup3\n        /* \"#utility.yul\":5746:5760   */\n      add\n        /* \"#utility.yul\":5739:5783   */\n      mstore\n        /* \"#utility.yul\":5622:5790   */\n      pop\n      jump\t// out\n        /* \"#utility.yul\":5796:6162   */\n    tag_111:\n        /* \"#utility.yul\":5938:5941   */\n      0x00\n        /* \"#utility.yul\":5959:6026   */\n      tag_188\n        /* \"#utility.yul\":6023:6025   */\n      0x12\n        /* \"#utility.yul\":6018:6021   */\n      dup4\n        /* \"#utility.yul\":5959:6026   */\n      tag_105\n      jump\t// in\n    tag_188:\n        /* \"#utility.yul\":5952:6026   */\n      swap2\n      pop\n        /* \"#utility.yul\":6035:6128   */\n      tag_189\n        /* \"#utility.yul\":6124:6127   */\n      dup3\n        /* \"#utility.yul\":6035:6128   */\n      tag_110\n      jump\t// in\n    tag_189:\n        /* \"#utility.yul\":6153:6155   */\n      0x20\n        /* \"#utility.yul\":6148:6151   */\n      dup3\n        /* \"#utility.yul\":6144:6156   */\n      add\n        /* \"#utility.yul\":6137:6156   */\n      swap1\n      pop\n        /* \"#utility.yul\":5796:6162   */\n      swap2\n      swap1\n      pop\n      jump\t// out\n        /* \"#utility.yul\":6168:6587   */\n    tag_56:\n        /* \"#utility.yul\":6334:6338   */\n      0x00\n        /* \"#utility.yul\":6372:6374   */\n      0x20\n        /* \"#utility.yul\":6361:6370   */\n      dup3\n        /* \"#utility.yul\":6357:6375   */\n      add\n        /* \"#utility.yul\":6349:6375   */\n      swap1\n      pop\n        /* \"#utility.yul\":6421:6430   */\n      dup2\n        /* \"#utility.yul\":6415:6419   */\n      dup2\n        /* \"#utility.yul\":6411:6431   */\n      sub\n        /* \"#utility.yul\":6407:6408   */\n      0x00\n        /* \"#utility.yul\":6396:6405   */\n      dup4\n        /* \"#utility.yul\":6392:6409   */\n      add\n        /* \"#utility.yul\":6385:6432   */\n      mstore\n        /* \"#utility.yul\":6449:6580   */\n      tag_191\n        /* \"#utility.yul\":6575:6579   */\n      dup2\n        /* \"#utility.yul\":6449:6580   */\n      tag_111\n      jump\t// in\n    tag_191:\n        /* \"#utility.yul\":6441:6580   */\n      swap1\n      pop\n        /* \"#utility.yul\":6168:6587   */\n      swap2\n      swap1\n      pop\n      jump\t// out\n        /* \"#utility.yul\":6593:6821   */\n    tag_112:\n        /* \"#utility.yul\":6733:6767   */\n      0x5769746864726177616c20616d6f756e74206d75737420626520677265617465\n        /* \"#utility.yul\":6729:6730   */\n      0x00\n        /* \"#utility.yul\":6721:6727   */\n      dup3\n        /* \"#utility.yul\":6717:6731   */\n      add\n        /* \"#utility.yul\":6710:6768   */\n      mstore\n        /* \"#utility.yul\":6802:6813   */\n      0x72207468616e2030210000000000000000000000000000000000000000000000\n        /* \"#utility.yul\":6797:6799   */\n      0x20\n        /* \"#utility.yul\":6789:6795   */\n      dup3\n        /* \"#utility.yul\":6785:6800   */\n      add\n        /* \"#utility.yul\":6778:6814   */\n      mstore\n        /* \"#utility.yul\":6593:6821   */\n      pop\n      jump\t// out\n        /* \"#utility.yul\":6827:7193   */\n    tag_113:\n        /* \"#utility.yul\":6969:6972   */\n      0x00\n        /* \"#utility.yul\":6990:7057   */\n      tag_194\n        /* \"#utility.yul\":7054:7056   */\n      0x29\n        /* \"#utility.yul\":7049:7052   */\n      dup4\n        /* \"#utility.yul\":6990:7057   */\n      tag_105\n      jump\t// in\n    tag_194:\n        /* \"#utility.yul\":6983:7057   */\n      swap2\n      pop\n        /* \"#utility.yul\":7066:7159   */\n      tag_195\n        /* \"#utility.yul\":7155:7158   */\n      dup3\n        /* \"#utility.yul\":7066:7159   */\n      tag_112\n      jump\t// in\n    tag_195:\n        /* \"#utility.yul\":7184:7186   */\n      0x40\n        /* \"#utility.yul\":7179:7182   */\n      dup3\n        /* \"#utility.yul\":7175:7187   */\n      add\n        /* \"#utility.yul\":7168:7187   */\n      swap1\n      pop\n        /* \"#utility.yul\":6827:7193   */\n      swap2\n      swap1\n      pop\n      jump\t// out\n        /* \"#utility.yul\":7199:7618   */\n    tag_59:\n        /* \"#utility.yul\":7365:7369   */\n      0x00\n        /* \"#utility.yul\":7403:7405   */\n      0x20\n        /* \"#utility.yul\":7392:7401   */\n      dup3\n        /* \"#utility.yul\":7388:7406   */\n      add\n        /* \"#utility.yul\":7380:7406   */\n      swap1\n      pop\n        /* \"#utility.yul\":7452:7461   */\n      dup2\n        /* \"#utility.yul\":7446:7450   */\n      dup2\n        /* \"#utility.yul\":7442:7462   */\n      sub\n        /* \"#utility.yul\":7438:7439   */\n      0x00\n        /* \"#utility.yul\":7427:7436   */\n      dup4\n        /* \"#utility.yul\":7423:7440   */\n      add\n        /* \"#utility.yul\":7416:7463   */\n      mstore\n        /* \"#utility.yul\":7480:7611   */\n      tag_197\n        /* \"#utility.yul\":7606:7610   */\n      dup2\n        /* \"#utility.yul\":7480:7611   */\n      tag_113\n      jump\t// in\n    tag_197:\n        /* \"#utility.yul\":7472:7611   */\n      swap1\n      pop\n        /* \"#utility.yul\":7199:7618   */\n      swap2\n      swap1\n      pop\n      jump\t// out\n        /* \"#utility.yul\":7624:7804   */\n    tag_114:\n        /* \"#utility.yul\":7672:7749   */\n      0x4e487b7100000000000000000000000000000000000000000000000000000000\n        /* \"#utility.yul\":7669:7670   */\n      0x00\n        /* \"#utility.yul\":7662:7750   */\n      mstore\n        /* \"#utility.yul\":7769:7773   */\n      0x11\n        /* \"#utility.yul\":7766:7767   */\n      0x04\n        /* \"#utility.yul\":7759:7774   */\n      mstore\n        /* \"#utility.yul\":7793:7797   */\n      0x24\n        /* \"#utility.yul\":7790:7791   */\n      0x00\n        /* \"#utility.yul\":7783:7798   */\n      revert\n        /* \"#utility.yul\":7810:8004   */\n    tag_63:\n        /* \"#utility.yul\":7850:7854   */\n      0x00\n        /* \"#utility.yul\":7870:7890   */\n      tag_200\n        /* \"#utility.yul\":7888:7889   */\n      dup3\n        /* \"#utility.yul\":7870:7890   */\n      tag_101\n      jump\t// in\n    tag_200:\n        /* \"#utility.yul\":7865:7890   */\n      swap2\n      pop\n        /* \"#utility.yul\":7904:7924   */\n      tag_201\n        /* \"#utility.yul\":7922:7923   */\n      dup4\n        /* \"#utility.yul\":7904:7924   */\n      tag_101\n      jump\t// in\n    tag_201:\n        /* \"#utility.yul\":7899:7924   */\n      swap3\n      pop\n        /* \"#utility.yul\":7948:7949   */\n      dup3\n        /* \"#utility.yul\":7945:7946   */\n      dup3\n        /* \"#utility.yul\":7941:7950   */\n      sub\n        /* \"#utility.yul\":7933:7950   */\n      swap1\n      pop\n        /* \"#utility.yul\":7972:7973   */\n      dup2\n        /* \"#utility.yul\":7966:7970   */\n      dup2\n        /* \"#utility.yul\":7963:7974   */\n      gt\n        /* \"#utility.yul\":7960:7997   */\n      iszero\n      tag_202\n      jumpi\n        /* \"#utility.yul\":7977:7995   */\n      tag_203\n      tag_114\n      jump\t// in\n    tag_203:\n        /* \"#utility.yul\":7960:7997   */\n    tag_202:\n        /* \"#utility.yul\":7810:8004   */\n      swap3\n      swap2\n      pop\n      pop\n      jump\t// out\n        /* \"#utility.yul\":8010:8238   */\n    tag_115:\n        /* \"#utility.yul\":8150:8184   */\n      0x4f6e6c7920746865206f776e65722063616e2064657374726f79207468697320\n        /* \"#utility.yul\":8146:8147   */\n      0x00\n        /* \"#utility.yul\":8138:8144   */\n      dup3\n        /* \"#utility.yul\":8134:8148   */\n      add\n        /* \"#utility.yul\":8127:8185   */\n      mstore\n        /* \"#utility.yul\":8219:8230   */\n      0x636f6e7472616374210000000000000000000000000000000000000000000000\n        /* \"#utility.yul\":8214:8216   */\n      0x20\n        /* \"#utility.yul\":8206:8212   */\n      dup3\n        /* \"#utility.yul\":8202:8217   */\n      add\n        /* \"#utility.yul\":8195:8231   */\n      mstore\n        /* \"#utility.yul\":8010:8238   */\n      pop\n      jump\t// out\n        /* \"#utility.yul\":8244:8610   */\n    tag_116:\n        /* \"#utility.yul\":8386:8389   */\n      0x00\n        /* \"#utility.yul\":8407:8474   */\n      tag_206\n        /* \"#utility.yul\":8471:8473   */\n      0x29\n        /* \"#utility.yul\":8466:8469   */\n      dup4\n        /* \"#utility.yul\":8407:8474   */\n      tag_105\n      jump\t// in\n    tag_206:\n        /* \"#utility.yul\":8400:8474   */\n      swap2\n      pop\n        /* \"#utility.yul\":8483:8576   */\n      tag_207\n        /* \"#utility.yul\":8572:8575   */\n      dup3\n        /* \"#utility.yul\":8483:8576   */\n      tag_115\n      jump\t// in\n    tag_207:\n        /* \"#utility.yul\":8601:8603   */\n      0x40\n        /* \"#utility.yul\":8596:8599   */\n      dup3\n        /* \"#utility.yul\":8592:8604   */\n      add\n        /* \"#utility.yul\":8585:8604   */\n      swap1\n      pop\n        /* \"#utility.yul\":8244:8610   */\n      swap2\n      swap1\n      pop\n      jump\t// out\n        /* \"#utility.yul\":8616:9035   */\n    tag_67:\n        /* \"#utility.yul\":8782:8786   */\n      0x00\n        /* \"#utility.yul\":8820:8822   */\n      0x20\n        /* \"#utility.yul\":8809:8818   */\n      dup3\n        /* \"#utility.yul\":8805:8823   */\n      add\n        /* \"#utility.yul\":8797:8823   */\n      swap1\n      pop\n        /* \"#utility.yul\":8869:8878   */\n      dup2\n        /* \"#utility.yul\":8863:8867   */\n      dup2\n        /* \"#utility.yul\":8859:8879   */\n      sub\n        /* \"#utility.yul\":8855:8856   */\n      0x00\n        /* \"#utility.yul\":8844:8853   */\n      dup4\n        /* \"#utility.yul\":8840:8857   */\n      add\n        /* \"#utility.yul\":8833:8880   */\n      mstore\n        /* \"#utility.yul\":8897:9028   */\n      tag_209\n        /* \"#utility.yul\":9023:9027   */\n      dup2\n        /* \"#utility.yul\":8897:9028   */\n      tag_116\n      jump\t// in\n    tag_209:\n        /* \"#utility.yul\":8889:9028   */\n      swap1\n      pop\n        /* \"#utility.yul\":8616:9035   */\n      swap2\n      swap1\n      pop\n      jump\t// out\n        /* \"#utility.yul\":9041:9265   */\n    tag_117:\n        /* \"#utility.yul\":9181:9215   */\n      0x4f6e6c7920746865206f776e65722063616e207265766f6b6520746865206163\n        /* \"#utility.yul\":9177:9178   */\n      0x00\n        /* \"#utility.yul\":9169:9175   */\n      dup3\n        /* \"#utility.yul\":9165:9179   */\n      add\n        /* \"#utility.yul\":9158:9216   */\n      mstore\n        /* \"#utility.yul\":9250:9257   */\n      0x6365737321000000000000000000000000000000000000000000000000000000\n        /* \"#utility.yul\":9245:9247   */\n      0x20\n        /* \"#utility.yul\":9237:9243   */\n      dup3\n        /* \"#utility.yul\":9233:9248   */\n      add\n        /* \"#utility.yul\":9226:9258   */\n      mstore\n        /* \"#utility.yul\":9041:9265   */\n      pop\n      jump\t// out\n        /* \"#utility.yul\":9271:9637   */\n    tag_118:\n        /* \"#utility.yul\":9413:9416   */\n      0x00\n        /* \"#utility.yul\":9434:9501   */\n      tag_212\n        /* \"#utility.yul\":9498:9500   */\n      0x25\n        /* \"#utility.yul\":9493:9496   */\n      dup4\n        /* \"#utility.yul\":9434:9501   */\n      tag_105\n      jump\t// in\n    tag_212:\n        /* \"#utility.yul\":9427:9501   */\n      swap2\n      pop\n        /* \"#utility.yul\":9510:9603   */\n      tag_213\n        /* \"#utility.yul\":9599:9602   */\n      dup3\n        /* \"#utility.yul\":9510:9603   */\n      tag_117\n      jump\t// in\n    tag_213:\n        /* \"#utility.yul\":9628:9630   */\n      0x40\n        /* \"#utility.yul\":9623:9626   */\n      dup3\n        /* \"#utility.yul\":9619:9631   */\n      add\n        /* \"#utility.yul\":9612:9631   */\n      swap1\n      pop\n        /* \"#utility.yul\":9271:9637   */\n      swap2\n      swap1\n      pop\n      jump\t// out\n        /* \"#utility.yul\":9643:10062   */\n    tag_71:\n        /* \"#utility.yul\":9809:9813   */\n      0x00\n        /* \"#utility.yul\":9847:9849   */\n      0x20\n        /* \"#utility.yul\":9836:9845   */\n      dup3\n        /* \"#utility.yul\":9832:9850   */\n      add\n        /* \"#utility.yul\":9824:9850   */\n      swap1\n      pop\n        /* \"#utility.yul\":9896:9905   */\n      dup2\n        /* \"#utility.yul\":9890:9894   */\n      dup2\n        /* \"#utility.yul\":9886:9906   */\n      sub\n        /* \"#utility.yul\":9882:9883   */\n      0x00\n        /* \"#utility.yul\":9871:9880   */\n      dup4\n        /* \"#utility.yul\":9867:9884   */\n      add\n        /* \"#utility.yul\":9860:9907   */\n      mstore\n        /* \"#utility.yul\":9924:10055   */\n      tag_215\n        /* \"#utility.yul\":10050:10054   */\n      dup2\n        /* \"#utility.yul\":9924:10055   */\n      tag_118\n      jump\t// in\n    tag_215:\n        /* \"#utility.yul\":9916:10055   */\n      swap1\n      pop\n        /* \"#utility.yul\":9643:10062   */\n      swap2\n      swap1\n      pop\n      jump\t// out\n        /* \"#utility.yul\":10068:10297   */\n    tag_119:\n        /* \"#utility.yul\":10208:10242   */\n      0x43616e6e6f74207265766f6b652061636365737320666f722074686520637572\n        /* \"#utility.yul\":10204:10205   */\n      0x00\n        /* \"#utility.yul\":10196:10202   */\n      dup3\n        /* \"#utility.yul\":10192:10206   */\n      add\n        /* \"#utility.yul\":10185:10243   */\n      mstore\n        /* \"#utility.yul\":10277:10289   */\n      0x72656e7420757365722100000000000000000000000000000000000000000000\n        /* \"#utility.yul\":10272:10274   */\n      0x20\n        /* \"#utility.yul\":10264:10270   */\n      dup3\n        /* \"#utility.yul\":10260:10275   */\n      add\n        /* \"#utility.yul\":10253:10290   */\n      mstore\n        /* \"#utility.yul\":10068:10297   */\n      pop\n      jump\t// out\n        /* \"#utility.yul\":10303:10669   */\n    tag_120:\n        /* \"#utility.yul\":10445:10448   */\n      0x00\n        /* \"#utility.yul\":10466:10533   */\n      tag_218\n        /* \"#utility.yul\":10530:10532   */\n      0x2a\n        /* \"#utility.yul\":10525:10528   */\n      dup4\n        /* \"#utility.yul\":10466:10533   */\n      tag_105\n      jump\t// in\n    tag_218:\n        /* \"#utility.yul\":10459:10533   */\n      swap2\n      pop\n        /* \"#utility.yul\":10542:10635   */\n      tag_219\n        /* \"#utility.yul\":10631:10634   */\n      dup3\n        /* \"#utility.yul\":10542:10635   */\n      tag_119\n      jump\t// in\n    tag_219:\n        /* \"#utility.yul\":10660:10662   */\n      0x40\n        /* \"#utility.yul\":10655:10658   */\n      dup3\n        /* \"#utility.yul\":10651:10663   */\n      add\n        /* \"#utility.yul\":10644:10663   */\n      swap1\n      pop\n        /* \"#utility.yul\":10303:10669   */\n      swap2\n      swap1\n      pop\n      jump\t// out\n        /* \"#utility.yul\":10675:11094   */\n    tag_74:\n        /* \"#utility.yul\":10841:10845   */\n      0x00\n        /* \"#utility.yul\":10879:10881   */\n      0x20\n        /* \"#utility.yul\":10868:10877   */\n      dup3\n        /* \"#utility.yul\":10864:10882   */\n      add\n        /* \"#utility.yul\":10856:10882   */\n      swap1\n      pop\n        /* \"#utility.yul\":10928:10937   */\n      dup2\n        /* \"#utility.yul\":10922:10926   */\n      dup2\n        /* \"#utility.yul\":10918:10938   */\n      sub\n        /* \"#utility.yul\":10914:10915   */\n      0x00\n        /* \"#utility.yul\":10903:10912   */\n      dup4\n        /* \"#utility.yul\":10899:10916   */\n      add\n        /* \"#utility.yul\":10892:10939   */\n      mstore\n        /* \"#utility.yul\":10956:11087   */\n      tag_221\n        /* \"#utility.yul\":11082:11086   */\n      dup2\n        /* \"#utility.yul\":10956:11087   */\n      tag_120\n      jump\t// in\n    tag_221:\n        /* \"#utility.yul\":10948:11087   */\n      swap1\n      pop\n        /* \"#utility.yul\":10675:11094   */\n      swap2\n      swap1\n      pop\n      jump\t// out\n        /* \"#utility.yul\":11100:11267   */\n    tag_121:\n        /* \"#utility.yul\":11240:11259   */\n      0x496e737566666963656e742066756e6421000000000000000000000000000000\n        /* \"#utility.yul\":11236:11237   */\n      0x00\n        /* \"#utility.yul\":11228:11234   */\n      dup3\n        /* \"#utility.yul\":11224:11238   */\n      add\n        /* \"#utility.yul\":11217:11260   */\n      mstore\n        /* \"#utility.yul\":11100:11267   */\n      pop\n      jump\t// out\n        /* \"#utility.yul\":11273:11639   */\n    tag_122:\n        /* \"#utility.yul\":11415:11418   */\n      0x00\n        /* \"#utility.yul\":11436:11503   */\n      tag_224\n        /* \"#utility.yul\":11500:11502   */\n      0x11\n        /* \"#utility.yul\":11495:11498   */\n      dup4\n        /* \"#utility.yul\":11436:11503   */\n      tag_105\n      jump\t// in\n    tag_224:\n        /* \"#utility.yul\":11429:11503   */\n      swap2\n      pop\n        /* \"#utility.yul\":11512:11605   */\n      tag_225\n        /* \"#utility.yul\":11601:11604   */\n      dup3\n        /* \"#utility.yul\":11512:11605   */\n      tag_121\n      jump\t// in\n    tag_225:\n        /* \"#utility.yul\":11630:11632   */\n      0x20\n        /* \"#utility.yul\":11625:11628   */\n      dup3\n        /* \"#utility.yul\":11621:11633   */\n      add\n        /* \"#utility.yul\":11614:11633   */\n      swap1\n      pop\n        /* \"#utility.yul\":11273:11639   */\n      swap2\n      swap1\n      pop\n      jump\t// out\n        /* \"#utility.yul\":11645:12064   */\n    tag_78:\n        /* \"#utility.yul\":11811:11815   */\n      0x00\n        /* \"#utility.yul\":11849:11851   */\n      0x20\n        /* \"#utility.yul\":11838:11847   */\n      dup3\n        /* \"#utility.yul\":11834:11852   */\n      add\n        /* \"#utility.yul\":11826:11852   */\n      swap1\n      pop\n        /* \"#utility.yul\":11898:11907   */\n      dup2\n        /* \"#utility.yul\":11892:11896   */\n      dup2\n        /* \"#utility.yul\":11888:11908   */\n      sub\n        /* \"#utility.yul\":11884:11885   */\n      0x00\n        /* \"#utility.yul\":11873:11882   */\n      dup4\n        /* \"#utility.yul\":11869:11886   */\n      add\n        /* \"#utility.yul\":11862:11909   */\n      mstore\n        /* \"#utility.yul\":11926:12057   */\n      tag_227\n        /* \"#utility.yul\":12052:12056   */\n      dup2\n        /* \"#utility.yul\":11926:12057   */\n      tag_122\n      jump\t// in\n    tag_227:\n        /* \"#utility.yul\":11918:12057   */\n      swap1\n      pop\n        /* \"#utility.yul\":11645:12064   */\n      swap2\n      swap1\n      pop\n      jump\t// out\n        /* \"#utility.yul\":12070:12250   */\n    tag_123:\n        /* \"#utility.yul\":12210:12242   */\n      0x416d6f756e74206d7573742062652067726561746572207468616e2030210000\n        /* \"#utility.yul\":12206:12207   */\n      0x00\n        /* \"#utility.yul\":12198:12204   */\n      dup3\n        /* \"#utility.yul\":12194:12208   */\n      add\n        /* \"#utility.yul\":12187:12243   */\n      mstore\n        /* \"#utility.yul\":12070:12250   */\n      pop\n      jump\t// out\n        /* \"#utility.yul\":12256:12622   */\n    tag_124:\n        /* \"#utility.yul\":12398:12401   */\n      0x00\n        /* \"#utility.yul\":12419:12486   */\n      tag_230\n        /* \"#utility.yul\":12483:12485   */\n      0x1e\n        /* \"#utility.yul\":12478:12481   */\n      dup4\n        /* \"#utility.yul\":12419:12486   */\n      tag_105\n      jump\t// in\n    tag_230:\n        /* \"#utility.yul\":12412:12486   */\n      swap2\n      pop\n        /* \"#utility.yul\":12495:12588   */\n      tag_231\n        /* \"#utility.yul\":12584:12587   */\n      dup3\n        /* \"#utility.yul\":12495:12588   */\n      tag_123\n      jump\t// in\n    tag_231:\n        /* \"#utility.yul\":12613:12615   */\n      0x20\n        /* \"#utility.yul\":12608:12611   */\n      dup3\n        /* \"#utility.yul\":12604:12616   */\n      add\n        /* \"#utility.yul\":12597:12616   */\n      swap1\n      pop\n        /* \"#utility.yul\":12256:12622   */\n      swap2\n      swap1\n      pop\n      jump\t// out\n        /* \"#utility.yul\":12628:13047   */\n    tag_81:\n        /* \"#utility.yul\":12794:12798   */\n      0x00\n        /* \"#utility.yul\":12832:12834   */\n      0x20\n        /* \"#utility.yul\":12821:12830   */\n      dup3\n        /* \"#utility.yul\":12817:12835   */\n      add\n        /* \"#utility.yul\":12809:12835   */\n      swap1\n      pop\n        /* \"#utility.yul\":12881:12890   */\n      dup2\n        /* \"#utility.yul\":12875:12879   */\n      dup2\n        /* \"#utility.yul\":12871:12891   */\n      sub\n        /* \"#utility.yul\":12867:12868   */\n      0x00\n        /* \"#utility.yul\":12856:12865   */\n      dup4\n        /* \"#utility.yul\":12852:12869   */\n      add\n        /* \"#utility.yul\":12845:12892   */\n      mstore\n        /* \"#utility.yul\":12909:13040   */\n      tag_233\n        /* \"#utility.yul\":13035:13039   */\n      dup2\n        /* \"#utility.yul\":12909:13040   */\n      tag_124\n      jump\t// in\n    tag_233:\n        /* \"#utility.yul\":12901:13040   */\n      swap1\n      pop\n        /* \"#utility.yul\":12628:13047   */\n      swap2\n      swap1\n      pop\n      jump\t// out\n        /* \"#utility.yul\":13053:13244   */\n    tag_84:\n        /* \"#utility.yul\":13093:13096   */\n      0x00\n        /* \"#utility.yul\":13112:13132   */\n      tag_235\n        /* \"#utility.yul\":13130:13131   */\n      dup3\n        /* \"#utility.yul\":13112:13132   */\n      tag_101\n      jump\t// in\n    tag_235:\n        /* \"#utility.yul\":13107:13132   */\n      swap2\n      pop\n        /* \"#utility.yul\":13146:13166   */\n      tag_236\n        /* \"#utility.yul\":13164:13165   */\n      dup4\n        /* \"#utility.yul\":13146:13166   */\n      tag_101\n      jump\t// in\n    tag_236:\n        /* \"#utility.yul\":13141:13166   */\n      swap3\n      pop\n        /* \"#utility.yul\":13189:13190   */\n      dup3\n        /* \"#utility.yul\":13186:13187   */\n      dup3\n        /* \"#utility.yul\":13182:13191   */\n      add\n        /* \"#utility.yul\":13175:13191   */\n      swap1\n      pop\n        /* \"#utility.yul\":13210:13213   */\n      dup1\n        /* \"#utility.yul\":13207:13208   */\n      dup3\n        /* \"#utility.yul\":13204:13214   */\n      gt\n        /* \"#utility.yul\":13201:13237   */\n      iszero\n      tag_237\n      jumpi\n        /* \"#utility.yul\":13217:13235   */\n      tag_238\n      tag_114\n      jump\t// in\n    tag_238:\n        /* \"#utility.yul\":13201:13237   */\n    tag_237:\n        /* \"#utility.yul\":13053:13244   */\n      swap3\n      swap2\n      pop\n      pop\n      jump\t// out\n        /* \"#utility.yul\":13250:13475   */\n    tag_125:\n        /* \"#utility.yul\":13390:13424   */\n      0x4465706f69737420616d6f756e74206d75737420626520677265617465722074\n        /* \"#utility.yul\":13386:13387   */\n      0x00\n        /* \"#utility.yul\":13378:13384   */\n      dup3\n        /* \"#utility.yul\":13374:13388   */\n      add\n        /* \"#utility.yul\":13367:13425   */\n      mstore\n        /* \"#utility.yul\":13459:13467   */\n      0x68616e20302e0000000000000000000000000000000000000000000000000000\n        /* \"#utility.yul\":13454:13456   */\n      0x20\n        /* \"#utility.yul\":13446:13452   */\n      dup3\n        /* \"#utility.yul\":13442:13457   */\n      add\n        /* \"#utility.yul\":13435:13468   */\n      mstore\n        /* \"#utility.yul\":13250:13475   */\n      pop\n      jump\t// out\n        /* \"#utility.yul\":13481:13847   */\n    tag_126:\n        /* \"#utility.yul\":13623:13626   */\n      0x00\n        /* \"#utility.yul\":13644:13711   */\n      tag_241\n        /* \"#utility.yul\":13708:13710   */\n      0x26\n        /* \"#utility.yul\":13703:13706   */\n      dup4\n        /* \"#utility.yul\":13644:13711   */\n      tag_105\n      jump\t// in\n    tag_241:\n        /* \"#utility.yul\":13637:13711   */\n      swap2\n      pop\n        /* \"#utility.yul\":13720:13813   */\n      tag_242\n        /* \"#utility.yul\":13809:13812   */\n      dup3\n        /* \"#utility.yul\":13720:13813   */\n      tag_125\n      jump\t// in\n    tag_242:\n        /* \"#utility.yul\":13838:13840   */\n      0x40\n        /* \"#utility.yul\":13833:13836   */\n      dup3\n        /* \"#utility.yul\":13829:13841   */\n      add\n        /* \"#utility.yul\":13822:13841   */\n      swap1\n      pop\n        /* \"#utility.yul\":13481:13847   */\n      swap2\n      swap1\n      pop\n      jump\t// out\n        /* \"#utility.yul\":13853:14272   */\n    tag_88:\n        /* \"#utility.yul\":14019:14023   */\n      0x00\n        /* \"#utility.yul\":14057:14059   */\n      0x20\n        /* \"#utility.yul\":14046:14055   */\n      dup3\n        /* \"#utility.yul\":14042:14060   */\n      add\n        /* \"#utility.yul\":14034:14060   */\n      swap1\n      pop\n        /* \"#utility.yul\":14106:14115   */\n      dup2\n        /* \"#utility.yul\":14100:14104   */\n      dup2\n        /* \"#utility.yul\":14096:14116   */\n      sub\n        /* \"#utility.yul\":14092:14093   */\n      0x00\n        /* \"#utility.yul\":14081:14090   */\n      dup4\n        /* \"#utility.yul\":14077:14094   */\n      add\n        /* \"#utility.yul\":14070:14117   */\n      mstore\n        /* \"#utility.yul\":14134:14265   */\n      tag_244\n        /* \"#utility.yul\":14260:14264   */\n      dup2\n        /* \"#utility.yul\":14134:14265   */\n      tag_126\n      jump\t// in\n    tag_244:\n        /* \"#utility.yul\":14126:14265   */\n      swap1\n      pop\n        /* \"#utility.yul\":13853:14272   */\n      swap2\n      swap1\n      pop\n      jump\t// out\n\n    auxdata: 0xa2646970667358221220541355f46bde7f9fdc2af4d50626eb13fbc316eeddba8f8bbc4c75d0b6a85b6064736f6c63430008160033\n}\n",
				"bytecode": {
					"linkReferences": {},
					"object": "608060405234801561000f575f80fd5b503360015f6101000a81548173ffffffffffffffffffffffffffffffffffffffff021916908373ffffffffffffffffffffffffffffffffffffffff1602179055506110418061005d5f395ff3fe60806040526004361061007a575f3560e01c806385e685311161004d57806385e6853114610114578063a9059cbb1461013c578063d0e30db014610164578063f8b2cb4f1461016e5761007a565b80630ae5e7391461007e57806327e235e3146100a65780632e1a7d4d146100e257806383197ef0146100fe575b5f80fd5b348015610089575f80fd5b506100a4600480360381019061009f9190610945565b6101aa565b005b3480156100b1575f80fd5b506100cc60048036038101906100c791906109ab565b61027c565b6040516100d991906109ee565b60405180910390f35b6100fc60048036038101906100f79190610a31565b610290565b005b348015610109575f80fd5b50610112610479565b005b34801561011f575f80fd5b5061013a60048036038101906101359190610945565b610542565b005b348015610147575f80fd5b50610162600480360381019061015d9190610a5c565b6106a3565b005b61016c61080c565b005b348015610179575f80fd5b50610194600480360381019061018f9190610945565b6108a2565b6040516101a191906109ee565b60405180910390f35b60015f9054906101000a900473ffffffffffffffffffffffffffffffffffffffff1673ffffffffffffffffffffffffffffffffffffffff163373ffffffffffffffffffffffffffffffffffffffff1614610239576040517f08c379a000000000000000000000000000000000000000000000000000000000815260040161023090610af4565b60405180910390fd5b8060015f6101000a81548173ffffffffffffffffffffffffffffffffffffffff021916908373ffffffffffffffffffffffffffffffffffffffff16021790555050565b5f602052805f5260405f205f915090505481565b60015f9054906101000a900473ffffffffffffffffffffffffffffffffffffffff1673ffffffffffffffffffffffffffffffffffffffff163373ffffffffffffffffffffffffffffffffffffffff161461031f576040517f08c379a000000000000000000000000000000000000000000000000000000000815260040161031690610b5c565b60405180910390fd5b5f803373ffffffffffffffffffffffffffffffffffffffff1673ffffffffffffffffffffffffffffffffffffffff1681526020019081526020015f205481111561039e576040517f08c379a000000000000000000000000000000000000000000000000000000000815260040161039590610bc4565b60405180910390fd5b5f81116103e0576040517f08c379a00000000000000000000000000000000000000000000000000000000081526004016103d790610c52565b60405180910390fd5b3373ffffffffffffffffffffffffffffffffffffffff166108fc8290811502906040515f60405180830381858888f19350505050158015610423573d5f803e3d5ffd5b50805f803373ffffffffffffffffffffffffffffffffffffffff1673ffffffffffffffffffffffffffffffffffffffff1681526020019081526020015f205f82825461046f9190610c9d565b9250508190555050565b60015f9054906101000a900473ffffffffffffffffffffffffffffffffffffffff1673ffffffffffffffffffffffffffffffffffffffff163373ffffffffffffffffffffffffffffffffffffffff1614610508576040517f08c379a00000000000000000000000000000000000000000000000000000000081526004016104ff90610d40565b60405180910390fd5b60015f9054906101000a900473ffffffffffffffffffffffffffffffffffffffff1673ffffffffffffffffffffffffffffffffffffffff16ff5b60015f9054906101000a900473ffffffffffffffffffffffffffffffffffffffff1673ffffffffffffffffffffffffffffffffffffffff163373ffffffffffffffffffffffffffffffffffffffff16146105d1576040517f08c379a00000000000000000000000000000000000000000000000000000000081526004016105c890610dce565b60405180910390fd5b60015f9054906101000a900473ffffffffffffffffffffffffffffffffffffffff1673ffffffffffffffffffffffffffffffffffffffff168173ffffffffffffffffffffffffffffffffffffffff1603610660576040517f08c379a000000000000000000000000000000000000000000000000000000000815260040161065790610e5c565b60405180910390fd5b3360015f6101000a81548173ffffffffffffffffffffffffffffffffffffffff021916908373ffffffffffffffffffffffffffffffffffffffff16021790555050565b5f803373ffffffffffffffffffffffffffffffffffffffff1673ffffffffffffffffffffffffffffffffffffffff1681526020019081526020015f2054811015610722576040517f08c379a000000000000000000000000000000000000000000000000000000000815260040161071990610ec4565b60405180910390fd5b5f8111610764576040517f08c379a000000000000000000000000000000000000000000000000000000000815260040161075b90610f2c565b60405180910390fd5b805f803373ffffffffffffffffffffffffffffffffffffffff1673ffffffffffffffffffffffffffffffffffffffff1681526020019081526020015f205f8282546107af9190610c9d565b92505081905550805f808473ffffffffffffffffffffffffffffffffffffffff1673ffffffffffffffffffffffffffffffffffffffff1681526020019081526020015f205f8282546108019190610f4a565b925050819055505050565b5f341161084e576040517f08c379a000000000000000000000000000000000000000000000000000000000815260040161084590610fed565b60405180910390fd5b345f803373ffffffffffffffffffffffffffffffffffffffff1673ffffffffffffffffffffffffffffffffffffffff1681526020019081526020015f205f8282546108999190610f4a565b92505081905550565b5f805f8373ffffffffffffffffffffffffffffffffffffffff1673ffffffffffffffffffffffffffffffffffffffff1681526020019081526020015f20549050919050565b5f80fd5b5f73ffffffffffffffffffffffffffffffffffffffff82169050919050565b5f610914826108eb565b9050919050565b6109248161090a565b811461092e575f80fd5b50565b5f8135905061093f8161091b565b92915050565b5f6020828403121561095a576109596108e7565b5b5f61096784828501610931565b91505092915050565b5f61097a826108eb565b9050919050565b61098a81610970565b8114610994575f80fd5b50565b5f813590506109a581610981565b92915050565b5f602082840312156109c0576109bf6108e7565b5b5f6109cd84828501610997565b91505092915050565b5f819050919050565b6109e8816109d6565b82525050565b5f602082019050610a015f8301846109df565b92915050565b610a10816109d6565b8114610a1a575f80fd5b50565b5f81359050610a2b81610a07565b92915050565b5f60208284031215610a4657610a456108e7565b5b5f610a5384828501610a1d565b91505092915050565b5f8060408385031215610a7257610a716108e7565b5b5f610a7f85828601610931565b9250506020610a9085828601610a1d565b9150509250929050565b5f82825260208201905092915050565b7f4f6e6c7920746865206f776e65722063616e206772616e7420616363657373215f82015250565b5f610ade602083610a9a565b9150610ae982610aaa565b602082019050919050565b5f6020820190508181035f830152610b0b81610ad2565b9050919050565b7f4f6e6c7920746865206f776e65722063616e20776974686472617721000000005f82015250565b5f610b46601c83610a9a565b9150610b5182610b12565b602082019050919050565b5f6020820190508181035f830152610b7381610b3a565b9050919050565b7f496e737566666963656e742066756e64732100000000000000000000000000005f82015250565b5f610bae601283610a9a565b9150610bb982610b7a565b602082019050919050565b5f6020820190508181035f830152610bdb81610ba2565b9050919050565b7f5769746864726177616c20616d6f756e74206d757374206265206772656174655f8201527f72207468616e2030210000000000000000000000000000000000000000000000602082015250565b5f610c3c602983610a9a565b9150610c4782610be2565b604082019050919050565b5f6020820190508181035f830152610c6981610c30565b9050919050565b7f4e487b71000000000000000000000000000000000000000000000000000000005f52601160045260245ffd5b5f610ca7826109d6565b9150610cb2836109d6565b9250828203905081811115610cca57610cc9610c70565b5b92915050565b7f4f6e6c7920746865206f776e65722063616e2064657374726f792074686973205f8201527f636f6e7472616374210000000000000000000000000000000000000000000000602082015250565b5f610d2a602983610a9a565b9150610d3582610cd0565b604082019050919050565b5f6020820190508181035f830152610d5781610d1e565b9050919050565b7f4f6e6c7920746865206f776e65722063616e207265766f6b65207468652061635f8201527f6365737321000000000000000000000000000000000000000000000000000000602082015250565b5f610db8602583610a9a565b9150610dc382610d5e565b604082019050919050565b5f6020820190508181035f830152610de581610dac565b9050919050565b7f43616e6e6f74207265766f6b652061636365737320666f7220746865206375725f8201527f72656e7420757365722100000000000000000000000000000000000000000000602082015250565b5f610e46602a83610a9a565b9150610e5182610dec565b604082019050919050565b5f6020820190508181035f830152610e7381610e3a565b9050919050565b7f496e737566666963656e742066756e64210000000000000000000000000000005f82015250565b5f610eae601183610a9a565b9150610eb982610e7a565b602082019050919050565b5f6020820190508181035f830152610edb81610ea2565b9050919050565b7f416d6f756e74206d7573742062652067726561746572207468616e20302100005f82015250565b5f610f16601e83610a9a565b9150610f2182610ee2565b602082019050919050565b5f6020820190508181035f830152610f4381610f0a565b9050919050565b5f610f54826109d6565b9150610f5f836109d6565b9250828201905080821115610f7757610f76610c70565b5b92915050565b7f4465706f69737420616d6f756e74206d757374206265206772656174657220745f8201527f68616e20302e0000000000000000000000000000000000000000000000000000602082015250565b5f610fd7602683610a9a565b9150610fe282610f7d565b604082019050919050565b5f6020820190508181035f83015261100481610fcb565b905091905056fea2646970667358221220541355f46bde7f9fdc2af4d50626eb13fbc316eeddba8f8bbc4c75d0b6a85b6064736f6c63430008160033",
					"opcodes": "PUSH1 0x80 PUSH1 0x40 MSTORE CALLVALUE DUP1 ISZERO PUSH2 0xF JUMPI PUSH0 DUP1 REVERT JUMPDEST POP CALLER PUSH1 0x1 PUSH0 PUSH2 0x100 EXP DUP2 SLOAD DUP2 PUSH20 0xFFFFFFFFFFFFFFFFFFFFFFFFFFFFFFFFFFFFFFFF MUL NOT AND SWAP1 DUP4 PUSH20 0xFFFFFFFFFFFFFFFFFFFFFFFFFFFFFFFFFFFFFFFF AND MUL OR SWAP1 SSTORE POP PUSH2 0x1041 DUP1 PUSH2 0x5D PUSH0 CODECOPY PUSH0 RETURN INVALID PUSH1 0x80 PUSH1 0x40 MSTORE PUSH1 0x4 CALLDATASIZE LT PUSH2 0x7A JUMPI PUSH0 CALLDATALOAD PUSH1 0xE0 SHR DUP1 PUSH4 0x85E68531 GT PUSH2 0x4D JUMPI DUP1 PUSH4 0x85E68531 EQ PUSH2 0x114 JUMPI DUP1 PUSH4 0xA9059CBB EQ PUSH2 0x13C JUMPI DUP1 PUSH4 0xD0E30DB0 EQ PUSH2 0x164 JUMPI DUP1 PUSH4 0xF8B2CB4F EQ PUSH2 0x16E JUMPI PUSH2 0x7A JUMP JUMPDEST DUP1 PUSH4 0xAE5E739 EQ PUSH2 0x7E JUMPI DUP1 PUSH4 0x27E235E3 EQ PUSH2 0xA6 JUMPI DUP1 PUSH4 0x2E1A7D4D EQ PUSH2 0xE2 JUMPI DUP1 PUSH4 0x83197EF0 EQ PUSH2 0xFE JUMPI JUMPDEST PUSH0 DUP1 REVERT JUMPDEST CALLVALUE DUP1 ISZERO PUSH2 0x89 JUMPI PUSH0 DUP1 REVERT JUMPDEST POP PUSH2 0xA4 PUSH1 0x4 DUP1 CALLDATASIZE SUB DUP2 ADD SWAP1 PUSH2 0x9F SWAP2 SWAP1 PUSH2 0x945 JUMP JUMPDEST PUSH2 0x1AA JUMP JUMPDEST STOP JUMPDEST CALLVALUE DUP1 ISZERO PUSH2 0xB1 JUMPI PUSH0 DUP1 REVERT JUMPDEST POP PUSH2 0xCC PUSH1 0x4 DUP1 CALLDATASIZE SUB DUP2 ADD SWAP1 PUSH2 0xC7 SWAP2 SWAP1 PUSH2 0x9AB JUMP JUMPDEST PUSH2 0x27C JUMP JUMPDEST PUSH1 0x40 MLOAD PUSH2 0xD9 SWAP2 SWAP1 PUSH2 0x9EE JUMP JUMPDEST PUSH1 0x40 MLOAD DUP1 SWAP2 SUB SWAP1 RETURN JUMPDEST PUSH2 0xFC PUSH1 0x4 DUP1 CALLDATASIZE SUB DUP2 ADD SWAP1 PUSH2 0xF7 SWAP2 SWAP1 PUSH2 0xA31 JUMP JUMPDEST PUSH2 0x290 JUMP JUMPDEST STOP JUMPDEST CALLVALUE DUP1 ISZERO PUSH2 0x109 JUMPI PUSH0 DUP1 REVERT JUMPDEST POP PUSH2 0x112 PUSH2 0x479 JUMP JUMPDEST STOP JUMPDEST CALLVALUE DUP1 ISZERO PUSH2 0x11F JUMPI PUSH0 DUP1 REVERT JUMPDEST POP PUSH2 0x13A PUSH1 0x4 DUP1 CALLDATASIZE SUB DUP2 ADD SWAP1 PUSH2 0x135 SWAP2 SWAP1 PUSH2 0x945 JUMP JUMPDEST PUSH2 0x542 JUMP JUMPDEST STOP JUMPDEST CALLVALUE DUP1 ISZERO PUSH2 0x147 JUMPI PUSH0 DUP1 REVERT JUMPDEST POP PUSH2 0x162 PUSH1 0x4 DUP1 CALLDATASIZE SUB DUP2 ADD SWAP1 PUSH2 0x15D SWAP2 SWAP1 PUSH2 0xA5C JUMP JUMPDEST PUSH2 0x6A3 JUMP JUMPDEST STOP JUMPDEST PUSH2 0x16C PUSH2 0x80C JUMP JUMPDEST STOP JUMPDEST CALLVALUE DUP1 ISZERO PUSH2 0x179 JUMPI PUSH0 DUP1 REVERT JUMPDEST POP PUSH2 0x194 PUSH1 0x4 DUP1 CALLDATASIZE SUB DUP2 ADD SWAP1 PUSH2 0x18F SWAP2 SWAP1 PUSH2 0x945 JUMP JUMPDEST PUSH2 0x8A2 JUMP JUMPDEST PUSH1 0x40 MLOAD PUSH2 0x1A1 SWAP2 SWAP1 PUSH2 0x9EE JUMP JUMPDEST PUSH1 0x40 MLOAD DUP1 SWAP2 SUB SWAP1 RETURN JUMPDEST PUSH1 0x1 PUSH0 SWAP1 SLOAD SWAP1 PUSH2 0x100 EXP SWAP1 DIV PUSH20 0xFFFFFFFFFFFFFFFFFFFFFFFFFFFFFFFFFFFFFFFF AND PUSH20 0xFFFFFFFFFFFFFFFFFFFFFFFFFFFFFFFFFFFFFFFF AND CALLER PUSH20 0xFFFFFFFFFFFFFFFFFFFFFFFFFFFFFFFFFFFFFFFF AND EQ PUSH2 0x239 JUMPI PUSH1 0x40 MLOAD PUSH32 0x8C379A000000000000000000000000000000000000000000000000000000000 DUP2 MSTORE PUSH1 0x4 ADD PUSH2 0x230 SWAP1 PUSH2 0xAF4 JUMP JUMPDEST PUSH1 0x40 MLOAD DUP1 SWAP2 SUB SWAP1 REVERT JUMPDEST DUP1 PUSH1 0x1 PUSH0 PUSH2 0x100 EXP DUP2 SLOAD DUP2 PUSH20 0xFFFFFFFFFFFFFFFFFFFFFFFFFFFFFFFFFFFFFFFF MUL NOT AND SWAP1 DUP4 PUSH20 0xFFFFFFFFFFFFFFFFFFFFFFFFFFFFFFFFFFFFFFFF AND MUL OR SWAP1 SSTORE POP POP JUMP JUMPDEST PUSH0 PUSH1 0x20 MSTORE DUP1 PUSH0 MSTORE PUSH1 0x40 PUSH0 KECCAK256 PUSH0 SWAP2 POP SWAP1 POP SLOAD DUP2 JUMP JUMPDEST PUSH1 0x1 PUSH0 SWAP1 SLOAD SWAP1 PUSH2 0x100 EXP SWAP1 DIV PUSH20 0xFFFFFFFFFFFFFFFFFFFFFFFFFFFFFFFFFFFFFFFF AND PUSH20 0xFFFFFFFFFFFFFFFFFFFFFFFFFFFFFFFFFFFFFFFF AND CALLER PUSH20 0xFFFFFFFFFFFFFFFFFFFFFFFFFFFFFFFFFFFFFFFF AND EQ PUSH2 0x31F JUMPI PUSH1 0x40 MLOAD PUSH32 0x8C379A000000000000000000000000000000000000000000000000000000000 DUP2 MSTORE PUSH1 0x4 ADD PUSH2 0x316 SWAP1 PUSH2 0xB5C JUMP JUMPDEST PUSH1 0x40 MLOAD DUP1 SWAP2 SUB SWAP1 REVERT JUMPDEST PUSH0 DUP1 CALLER PUSH20 0xFFFFFFFFFFFFFFFFFFFFFFFFFFFFFFFFFFFFFFFF AND PUSH20 0xFFFFFFFFFFFFFFFFFFFFFFFFFFFFFFFFFFFFFFFF AND DUP2 MSTORE PUSH1 0x20 ADD SWAP1 DUP2 MSTORE PUSH1 0x20 ADD PUSH0 KECCAK256 SLOAD DUP2 GT ISZERO PUSH2 0x39E JUMPI PUSH1 0x40 MLOAD PUSH32 0x8C379A000000000000000000000000000000000000000000000000000000000 DUP2 MSTORE PUSH1 0x4 ADD PUSH2 0x395 SWAP1 PUSH2 0xBC4 JUMP JUMPDEST PUSH1 0x40 MLOAD DUP1 SWAP2 SUB SWAP1 REVERT JUMPDEST PUSH0 DUP2 GT PUSH2 0x3E0 JUMPI PUSH1 0x40 MLOAD PUSH32 0x8C379A000000000000000000000000000000000000000000000000000000000 DUP2 MSTORE PUSH1 0x4 ADD PUSH2 0x3D7 SWAP1 PUSH2 0xC52 JUMP JUMPDEST PUSH1 0x40 MLOAD DUP1 SWAP2 SUB SWAP1 REVERT JUMPDEST CALLER PUSH20 0xFFFFFFFFFFFFFFFFFFFFFFFFFFFFFFFFFFFFFFFF AND PUSH2 0x8FC DUP3 SWAP1 DUP2 ISZERO MUL SWAP1 PUSH1 0x40 MLOAD PUSH0 PUSH1 0x40 MLOAD DUP1 DUP4 SUB DUP2 DUP6 DUP9 DUP9 CALL SWAP4 POP POP POP POP ISZERO DUP1 ISZERO PUSH2 0x423 JUMPI RETURNDATASIZE PUSH0 DUP1 RETURNDATACOPY RETURNDATASIZE PUSH0 REVERT JUMPDEST POP DUP1 PUSH0 DUP1 CALLER PUSH20 0xFFFFFFFFFFFFFFFFFFFFFFFFFFFFFFFFFFFFFFFF AND PUSH20 0xFFFFFFFFFFFFFFFFFFFFFFFFFFFFFFFFFFFFFFFF AND DUP2 MSTORE PUSH1 0x20 ADD SWAP1 DUP2 MSTORE PUSH1 0x20 ADD PUSH0 KECCAK256 PUSH0 DUP3 DUP3 SLOAD PUSH2 0x46F SWAP2 SWAP1 PUSH2 0xC9D JUMP JUMPDEST SWAP3 POP POP DUP2 SWAP1 SSTORE POP POP JUMP JUMPDEST PUSH1 0x1 PUSH0 SWAP1 SLOAD SWAP1 PUSH2 0x100 EXP SWAP1 DIV PUSH20 0xFFFFFFFFFFFFFFFFFFFFFFFFFFFFFFFFFFFFFFFF AND PUSH20 0xFFFFFFFFFFFFFFFFFFFFFFFFFFFFFFFFFFFFFFFF AND CALLER PUSH20 0xFFFFFFFFFFFFFFFFFFFFFFFFFFFFFFFFFFFFFFFF AND EQ PUSH2 0x508 JUMPI PUSH1 0x40 MLOAD PUSH32 0x8C379A000000000000000000000000000000000000000000000000000000000 DUP2 MSTORE PUSH1 0x4 ADD PUSH2 0x4FF SWAP1 PUSH2 0xD40 JUMP JUMPDEST PUSH1 0x40 MLOAD DUP1 SWAP2 SUB SWAP1 REVERT JUMPDEST PUSH1 0x1 PUSH0 SWAP1 SLOAD SWAP1 PUSH2 0x100 EXP SWAP1 DIV PUSH20 0xFFFFFFFFFFFFFFFFFFFFFFFFFFFFFFFFFFFFFFFF AND PUSH20 0xFFFFFFFFFFFFFFFFFFFFFFFFFFFFFFFFFFFFFFFF AND SELFDESTRUCT JUMPDEST PUSH1 0x1 PUSH0 SWAP1 SLOAD SWAP1 PUSH2 0x100 EXP SWAP1 DIV PUSH20 0xFFFFFFFFFFFFFFFFFFFFFFFFFFFFFFFFFFFFFFFF AND PUSH20 0xFFFFFFFFFFFFFFFFFFFFFFFFFFFFFFFFFFFFFFFF AND CALLER PUSH20 0xFFFFFFFFFFFFFFFFFFFFFFFFFFFFFFFFFFFFFFFF AND EQ PUSH2 0x5D1 JUMPI PUSH1 0x40 MLOAD PUSH32 0x8C379A000000000000000000000000000000000000000000000000000000000 DUP2 MSTORE PUSH1 0x4 ADD PUSH2 0x5C8 SWAP1 PUSH2 0xDCE JUMP JUMPDEST PUSH1 0x40 MLOAD DUP1 SWAP2 SUB SWAP1 REVERT JUMPDEST PUSH1 0x1 PUSH0 SWAP1 SLOAD SWAP1 PUSH2 0x100 EXP SWAP1 DIV PUSH20 0xFFFFFFFFFFFFFFFFFFFFFFFFFFFFFFFFFFFFFFFF AND PUSH20 0xFFFFFFFFFFFFFFFFFFFFFFFFFFFFFFFFFFFFFFFF AND DUP2 PUSH20 0xFFFFFFFFFFFFFFFFFFFFFFFFFFFFFFFFFFFFFFFF AND SUB PUSH2 0x660 JUMPI PUSH1 0x40 MLOAD PUSH32 0x8C379A000000000000000000000000000000000000000000000000000000000 DUP2 MSTORE PUSH1 0x4 ADD PUSH2 0x657 SWAP1 PUSH2 0xE5C JUMP JUMPDEST PUSH1 0x40 MLOAD DUP1 SWAP2 SUB SWAP1 REVERT JUMPDEST CALLER PUSH1 0x1 PUSH0 PUSH2 0x100 EXP DUP2 SLOAD DUP2 PUSH20 0xFFFFFFFFFFFFFFFFFFFFFFFFFFFFFFFFFFFFFFFF MUL NOT AND SWAP1 DUP4 PUSH20 0xFFFFFFFFFFFFFFFFFFFFFFFFFFFFFFFFFFFFFFFF AND MUL OR SWAP1 SSTORE POP POP JUMP JUMPDEST PUSH0 DUP1 CALLER PUSH20 0xFFFFFFFFFFFFFFFFFFFFFFFFFFFFFFFFFFFFFFFF AND PUSH20 0xFFFFFFFFFFFFFFFFFFFFFFFFFFFFFFFFFFFFFFFF AND DUP2 MSTORE PUSH1 0x20 ADD SWAP1 DUP2 MSTORE PUSH1 0x20 ADD PUSH0 KECCAK256 SLOAD DUP2 LT ISZERO PUSH2 0x722 JUMPI PUSH1 0x40 MLOAD PUSH32 0x8C379A000000000000000000000000000000000000000000000000000000000 DUP2 MSTORE PUSH1 0x4 ADD PUSH2 0x719 SWAP1 PUSH2 0xEC4 JUMP JUMPDEST PUSH1 0x40 MLOAD DUP1 SWAP2 SUB SWAP1 REVERT JUMPDEST PUSH0 DUP2 GT PUSH2 0x764 JUMPI PUSH1 0x40 MLOAD PUSH32 0x8C379A000000000000000000000000000000000000000000000000000000000 DUP2 MSTORE PUSH1 0x4 ADD PUSH2 0x75B SWAP1 PUSH2 0xF2C JUMP JUMPDEST PUSH1 0x40 MLOAD DUP1 SWAP2 SUB SWAP1 REVERT JUMPDEST DUP1 PUSH0 DUP1 CALLER PUSH20 0xFFFFFFFFFFFFFFFFFFFFFFFFFFFFFFFFFFFFFFFF AND PUSH20 0xFFFFFFFFFFFFFFFFFFFFFFFFFFFFFFFFFFFFFFFF AND DUP2 MSTORE PUSH1 0x20 ADD SWAP1 DUP2 MSTORE PUSH1 0x20 ADD PUSH0 KECCAK256 PUSH0 DUP3 DUP3 SLOAD PUSH2 0x7AF SWAP2 SWAP1 PUSH2 0xC9D JUMP JUMPDEST SWAP3 POP POP DUP2 SWAP1 SSTORE POP DUP1 PUSH0 DUP1 DUP5 PUSH20 0xFFFFFFFFFFFFFFFFFFFFFFFFFFFFFFFFFFFFFFFF AND PUSH20 0xFFFFFFFFFFFFFFFFFFFFFFFFFFFFFFFFFFFFFFFF AND DUP2 MSTORE PUSH1 0x20 ADD SWAP1 DUP2 MSTORE PUSH1 0x20 ADD PUSH0 KECCAK256 PUSH0 DUP3 DUP3 SLOAD PUSH2 0x801 SWAP2 SWAP1 PUSH2 0xF4A JUMP JUMPDEST SWAP3 POP POP DUP2 SWAP1 SSTORE POP POP POP JUMP JUMPDEST PUSH0 CALLVALUE GT PUSH2 0x84E JUMPI PUSH1 0x40 MLOAD PUSH32 0x8C379A000000000000000000000000000000000000000000000000000000000 DUP2 MSTORE PUSH1 0x4 ADD PUSH2 0x845 SWAP1 PUSH2 0xFED JUMP JUMPDEST PUSH1 0x40 MLOAD DUP1 SWAP2 SUB SWAP1 REVERT JUMPDEST CALLVALUE PUSH0 DUP1 CALLER PUSH20 0xFFFFFFFFFFFFFFFFFFFFFFFFFFFFFFFFFFFFFFFF AND PUSH20 0xFFFFFFFFFFFFFFFFFFFFFFFFFFFFFFFFFFFFFFFF AND DUP2 MSTORE PUSH1 0x20 ADD SWAP1 DUP2 MSTORE PUSH1 0x20 ADD PUSH0 KECCAK256 PUSH0 DUP3 DUP3 SLOAD PUSH2 0x899 SWAP2 SWAP1 PUSH2 0xF4A JUMP JUMPDEST SWAP3 POP POP DUP2 SWAP1 SSTORE POP JUMP JUMPDEST PUSH0 DUP1 PUSH0 DUP4 PUSH20 0xFFFFFFFFFFFFFFFFFFFFFFFFFFFFFFFFFFFFFFFF AND PUSH20 0xFFFFFFFFFFFFFFFFFFFFFFFFFFFFFFFFFFFFFFFF AND DUP2 MSTORE PUSH1 0x20 ADD SWAP1 DUP2 MSTORE PUSH1 0x20 ADD PUSH0 KECCAK256 SLOAD SWAP1 POP SWAP2 SWAP1 POP JUMP JUMPDEST PUSH0 DUP1 REVERT JUMPDEST PUSH0 PUSH20 0xFFFFFFFFFFFFFFFFFFFFFFFFFFFFFFFFFFFFFFFF DUP3 AND SWAP1 POP SWAP2 SWAP1 POP JUMP JUMPDEST PUSH0 PUSH2 0x914 DUP3 PUSH2 0x8EB JUMP JUMPDEST SWAP1 POP SWAP2 SWAP1 POP JUMP JUMPDEST PUSH2 0x924 DUP2 PUSH2 0x90A JUMP JUMPDEST DUP2 EQ PUSH2 0x92E JUMPI PUSH0 DUP1 REVERT JUMPDEST POP JUMP JUMPDEST PUSH0 DUP2 CALLDATALOAD SWAP1 POP PUSH2 0x93F DUP2 PUSH2 0x91B JUMP JUMPDEST SWAP3 SWAP2 POP POP JUMP JUMPDEST PUSH0 PUSH1 0x20 DUP3 DUP5 SUB SLT ISZERO PUSH2 0x95A JUMPI PUSH2 0x959 PUSH2 0x8E7 JUMP JUMPDEST JUMPDEST PUSH0 PUSH2 0x967 DUP5 DUP3 DUP6 ADD PUSH2 0x931 JUMP JUMPDEST SWAP2 POP POP SWAP3 SWAP2 POP POP JUMP JUMPDEST PUSH0 PUSH2 0x97A DUP3 PUSH2 0x8EB JUMP JUMPDEST SWAP1 POP SWAP2 SWAP1 POP JUMP JUMPDEST PUSH2 0x98A DUP2 PUSH2 0x970 JUMP JUMPDEST DUP2 EQ PUSH2 0x994 JUMPI PUSH0 DUP1 REVERT JUMPDEST POP JUMP JUMPDEST PUSH0 DUP2 CALLDATALOAD SWAP1 POP PUSH2 0x9A5 DUP2 PUSH2 0x981 JUMP JUMPDEST SWAP3 SWAP2 POP POP JUMP JUMPDEST PUSH0 PUSH1 0x20 DUP3 DUP5 SUB SLT ISZERO PUSH2 0x9C0 JUMPI PUSH2 0x9BF PUSH2 0x8E7 JUMP JUMPDEST JUMPDEST PUSH0 PUSH2 0x9CD DUP5 DUP3 DUP6 ADD PUSH2 0x997 JUMP JUMPDEST SWAP2 POP POP SWAP3 SWAP2 POP POP JUMP JUMPDEST PUSH0 DUP2 SWAP1 POP SWAP2 SWAP1 POP JUMP JUMPDEST PUSH2 0x9E8 DUP2 PUSH2 0x9D6 JUMP JUMPDEST DUP3 MSTORE POP POP JUMP JUMPDEST PUSH0 PUSH1 0x20 DUP3 ADD SWAP1 POP PUSH2 0xA01 PUSH0 DUP4 ADD DUP5 PUSH2 0x9DF JUMP JUMPDEST SWAP3 SWAP2 POP POP JUMP JUMPDEST PUSH2 0xA10 DUP2 PUSH2 0x9D6 JUMP JUMPDEST DUP2 EQ PUSH2 0xA1A JUMPI PUSH0 DUP1 REVERT JUMPDEST POP JUMP JUMPDEST PUSH0 DUP2 CALLDATALOAD SWAP1 POP PUSH2 0xA2B DUP2 PUSH2 0xA07 JUMP JUMPDEST SWAP3 SWAP2 POP POP JUMP JUMPDEST PUSH0 PUSH1 0x20 DUP3 DUP5 SUB SLT ISZERO PUSH2 0xA46 JUMPI PUSH2 0xA45 PUSH2 0x8E7 JUMP JUMPDEST JUMPDEST PUSH0 PUSH2 0xA53 DUP5 DUP3 DUP6 ADD PUSH2 0xA1D JUMP JUMPDEST SWAP2 POP POP SWAP3 SWAP2 POP POP JUMP JUMPDEST PUSH0 DUP1 PUSH1 0x40 DUP4 DUP6 SUB SLT ISZERO PUSH2 0xA72 JUMPI PUSH2 0xA71 PUSH2 0x8E7 JUMP JUMPDEST JUMPDEST PUSH0 PUSH2 0xA7F DUP6 DUP3 DUP7 ADD PUSH2 0x931 JUMP JUMPDEST SWAP3 POP POP PUSH1 0x20 PUSH2 0xA90 DUP6 DUP3 DUP7 ADD PUSH2 0xA1D JUMP JUMPDEST SWAP2 POP POP SWAP3 POP SWAP3 SWAP1 POP JUMP JUMPDEST PUSH0 DUP3 DUP3 MSTORE PUSH1 0x20 DUP3 ADD SWAP1 POP SWAP3 SWAP2 POP POP JUMP JUMPDEST PUSH32 0x4F6E6C7920746865206F776E65722063616E206772616E742061636365737321 PUSH0 DUP3 ADD MSTORE POP JUMP JUMPDEST PUSH0 PUSH2 0xADE PUSH1 0x20 DUP4 PUSH2 0xA9A JUMP JUMPDEST SWAP2 POP PUSH2 0xAE9 DUP3 PUSH2 0xAAA JUMP JUMPDEST PUSH1 0x20 DUP3 ADD SWAP1 POP SWAP2 SWAP1 POP JUMP JUMPDEST PUSH0 PUSH1 0x20 DUP3 ADD SWAP1 POP DUP2 DUP2 SUB PUSH0 DUP4 ADD MSTORE PUSH2 0xB0B DUP2 PUSH2 0xAD2 JUMP JUMPDEST SWAP1 POP SWAP2 SWAP1 POP JUMP JUMPDEST PUSH32 0x4F6E6C7920746865206F776E65722063616E2077697468647261772100000000 PUSH0 DUP3 ADD MSTORE POP JUMP JUMPDEST PUSH0 PUSH2 0xB46 PUSH1 0x1C DUP4 PUSH2 0xA9A JUMP JUMPDEST SWAP2 POP PUSH2 0xB51 DUP3 PUSH2 0xB12 JUMP JUMPDEST PUSH1 0x20 DUP3 ADD SWAP1 POP SWAP2 SWAP1 POP JUMP JUMPDEST PUSH0 PUSH1 0x20 DUP3 ADD SWAP1 POP DUP2 DUP2 SUB PUSH0 DUP4 ADD MSTORE PUSH2 0xB73 DUP2 PUSH2 0xB3A JUMP JUMPDEST SWAP1 POP SWAP2 SWAP1 POP JUMP JUMPDEST PUSH32 0x496E737566666963656E742066756E6473210000000000000000000000000000 PUSH0 DUP3 ADD MSTORE POP JUMP JUMPDEST PUSH0 PUSH2 0xBAE PUSH1 0x12 DUP4 PUSH2 0xA9A JUMP JUMPDEST SWAP2 POP PUSH2 0xBB9 DUP3 PUSH2 0xB7A JUMP JUMPDEST PUSH1 0x20 DUP3 ADD SWAP1 POP SWAP2 SWAP1 POP JUMP JUMPDEST PUSH0 PUSH1 0x20 DUP3 ADD SWAP1 POP DUP2 DUP2 SUB PUSH0 DUP4 ADD MSTORE PUSH2 0xBDB DUP2 PUSH2 0xBA2 JUMP JUMPDEST SWAP1 POP SWAP2 SWAP1 POP JUMP JUMPDEST PUSH32 0x5769746864726177616C20616D6F756E74206D75737420626520677265617465 PUSH0 DUP3 ADD MSTORE PUSH32 0x72207468616E2030210000000000000000000000000000000000000000000000 PUSH1 0x20 DUP3 ADD MSTORE POP JUMP JUMPDEST PUSH0 PUSH2 0xC3C PUSH1 0x29 DUP4 PUSH2 0xA9A JUMP JUMPDEST SWAP2 POP PUSH2 0xC47 DUP3 PUSH2 0xBE2 JUMP JUMPDEST PUSH1 0x40 DUP3 ADD SWAP1 POP SWAP2 SWAP1 POP JUMP JUMPDEST PUSH0 PUSH1 0x20 DUP3 ADD SWAP1 POP DUP2 DUP2 SUB PUSH0 DUP4 ADD MSTORE PUSH2 0xC69 DUP2 PUSH2 0xC30 JUMP JUMPDEST SWAP1 POP SWAP2 SWAP1 POP JUMP JUMPDEST PUSH32 0x4E487B7100000000000000000000000000000000000000000000000000000000 PUSH0 MSTORE PUSH1 0x11 PUSH1 0x4 MSTORE PUSH1 0x24 PUSH0 REVERT JUMPDEST PUSH0 PUSH2 0xCA7 DUP3 PUSH2 0x9D6 JUMP JUMPDEST SWAP2 POP PUSH2 0xCB2 DUP4 PUSH2 0x9D6 JUMP JUMPDEST SWAP3 POP DUP3 DUP3 SUB SWAP1 POP DUP2 DUP2 GT ISZERO PUSH2 0xCCA JUMPI PUSH2 0xCC9 PUSH2 0xC70 JUMP JUMPDEST JUMPDEST SWAP3 SWAP2 POP POP JUMP JUMPDEST PUSH32 0x4F6E6C7920746865206F776E65722063616E2064657374726F79207468697320 PUSH0 DUP3 ADD MSTORE PUSH32 0x636F6E7472616374210000000000000000000000000000000000000000000000 PUSH1 0x20 DUP3 ADD MSTORE POP JUMP JUMPDEST PUSH0 PUSH2 0xD2A PUSH1 0x29 DUP4 PUSH2 0xA9A JUMP JUMPDEST SWAP2 POP PUSH2 0xD35 DUP3 PUSH2 0xCD0 JUMP JUMPDEST PUSH1 0x40 DUP3 ADD SWAP1 POP SWAP2 SWAP1 POP JUMP JUMPDEST PUSH0 PUSH1 0x20 DUP3 ADD SWAP1 POP DUP2 DUP2 SUB PUSH0 DUP4 ADD MSTORE PUSH2 0xD57 DUP2 PUSH2 0xD1E JUMP JUMPDEST SWAP1 POP SWAP2 SWAP1 POP JUMP JUMPDEST PUSH32 0x4F6E6C7920746865206F776E65722063616E207265766F6B6520746865206163 PUSH0 DUP3 ADD MSTORE PUSH32 0x6365737321000000000000000000000000000000000000000000000000000000 PUSH1 0x20 DUP3 ADD MSTORE POP JUMP JUMPDEST PUSH0 PUSH2 0xDB8 PUSH1 0x25 DUP4 PUSH2 0xA9A JUMP JUMPDEST SWAP2 POP PUSH2 0xDC3 DUP3 PUSH2 0xD5E JUMP JUMPDEST PUSH1 0x40 DUP3 ADD SWAP1 POP SWAP2 SWAP1 POP JUMP JUMPDEST PUSH0 PUSH1 0x20 DUP3 ADD SWAP1 POP DUP2 DUP2 SUB PUSH0 DUP4 ADD MSTORE PUSH2 0xDE5 DUP2 PUSH2 0xDAC JUMP JUMPDEST SWAP1 POP SWAP2 SWAP1 POP JUMP JUMPDEST PUSH32 0x43616E6E6F74207265766F6B652061636365737320666F722074686520637572 PUSH0 DUP3 ADD MSTORE PUSH32 0x72656E7420757365722100000000000000000000000000000000000000000000 PUSH1 0x20 DUP3 ADD MSTORE POP JUMP JUMPDEST PUSH0 PUSH2 0xE46 PUSH1 0x2A DUP4 PUSH2 0xA9A JUMP JUMPDEST SWAP2 POP PUSH2 0xE51 DUP3 PUSH2 0xDEC JUMP JUMPDEST PUSH1 0x40 DUP3 ADD SWAP1 POP SWAP2 SWAP1 POP JUMP JUMPDEST PUSH0 PUSH1 0x20 DUP3 ADD SWAP1 POP DUP2 DUP2 SUB PUSH0 DUP4 ADD MSTORE PUSH2 0xE73 DUP2 PUSH2 0xE3A JUMP JUMPDEST SWAP1 POP SWAP2 SWAP1 POP JUMP JUMPDEST PUSH32 0x496E737566666963656E742066756E6421000000000000000000000000000000 PUSH0 DUP3 ADD MSTORE POP JUMP JUMPDEST PUSH0 PUSH2 0xEAE PUSH1 0x11 DUP4 PUSH2 0xA9A JUMP JUMPDEST SWAP2 POP PUSH2 0xEB9 DUP3 PUSH2 0xE7A JUMP JUMPDEST PUSH1 0x20 DUP3 ADD SWAP1 POP SWAP2 SWAP1 POP JUMP JUMPDEST PUSH0 PUSH1 0x20 DUP3 ADD SWAP1 POP DUP2 DUP2 SUB PUSH0 DUP4 ADD MSTORE PUSH2 0xEDB DUP2 PUSH2 0xEA2 JUMP JUMPDEST SWAP1 POP SWAP2 SWAP1 POP JUMP JUMPDEST PUSH32 0x416D6F756E74206D7573742062652067726561746572207468616E2030210000 PUSH0 DUP3 ADD MSTORE POP JUMP JUMPDEST PUSH0 PUSH2 0xF16 PUSH1 0x1E DUP4 PUSH2 0xA9A JUMP JUMPDEST SWAP2 POP PUSH2 0xF21 DUP3 PUSH2 0xEE2 JUMP JUMPDEST PUSH1 0x20 DUP3 ADD SWAP1 POP SWAP2 SWAP1 POP JUMP JUMPDEST PUSH0 PUSH1 0x20 DUP3 ADD SWAP1 POP DUP2 DUP2 SUB PUSH0 DUP4 ADD MSTORE PUSH2 0xF43 DUP2 PUSH2 0xF0A JUMP JUMPDEST SWAP1 POP SWAP2 SWAP1 POP JUMP JUMPDEST PUSH0 PUSH2 0xF54 DUP3 PUSH2 0x9D6 JUMP JUMPDEST SWAP2 POP PUSH2 0xF5F DUP4 PUSH2 0x9D6 JUMP JUMPDEST SWAP3 POP DUP3 DUP3 ADD SWAP1 POP DUP1 DUP3 GT ISZERO PUSH2 0xF77 JUMPI PUSH2 0xF76 PUSH2 0xC70 JUMP JUMPDEST JUMPDEST SWAP3 SWAP2 POP POP JUMP JUMPDEST PUSH32 0x4465706F69737420616D6F756E74206D75737420626520677265617465722074 PUSH0 DUP3 ADD MSTORE PUSH32 0x68616E20302E0000000000000000000000000000000000000000000000000000 PUSH1 0x20 DUP3 ADD MSTORE POP JUMP JUMPDEST PUSH0 PUSH2 0xFD7 PUSH1 0x26 DUP4 PUSH2 0xA9A JUMP JUMPDEST SWAP2 POP PUSH2 0xFE2 DUP3 PUSH2 0xF7D JUMP JUMPDEST PUSH1 0x40 DUP3 ADD SWAP1 POP SWAP2 SWAP1 POP JUMP JUMPDEST PUSH0 PUSH1 0x20 DUP3 ADD SWAP1 POP DUP2 DUP2 SUB PUSH0 DUP4 ADD MSTORE PUSH2 0x1004 DUP2 PUSH2 0xFCB JUMP JUMPDEST SWAP1 POP SWAP2 SWAP1 POP JUMP INVALID LOG2 PUSH5 0x6970667358 0x22 SLT KECCAK256 SLOAD SGT SSTORE DELEGATECALL PUSH12 0xDE7F9FDC2AF4D50626EB13FB 0xC3 AND 0xEE 0xDD 0xBA DUP16 DUP12 0xBC 0x4C PUSH22 0xD0B6A85B6064736F6C63430008160033000000000000 "
				},
				"gasEstimates": {
					"creation": {
						"codeDepositCost": "832200",
						"executionCost": "25133",
						"totalCost": "857333"
					},
					"external": {
						"balances(address)": "2824",
						"deposit()": "infinite",
						"destroy()": "32114",
						"getBalance(address)": "2895",
						"grantAccess(address)": "26885",
						"revokeAccess(address)": "29053",
						"transfer(address,uint256)": "infinite",
						"withdraw(uint256)": "infinite"
					}
				},
				"methodIdentifiers": {
					"balances(address)": "27e235e3",
					"deposit()": "d0e30db0",
					"destroy()": "83197ef0",
					"getBalance(address)": "f8b2cb4f",
					"grantAccess(address)": "0ae5e739",
					"revokeAccess(address)": "85e68531",
					"transfer(address,uint256)": "a9059cbb",
					"withdraw(uint256)": "2e1a7d4d"
				}
			},
			"storageLayout": {
				"storage": [
					{
						"astId": 5,
						"contract": "Banking industry/Banking industry smart contract.sol:Banking",
						"label": "balances",
						"offset": 0,
						"slot": "0",
						"type": "t_mapping(t_address,t_uint256)"
					},
					{
						"astId": 7,
						"contract": "Banking industry/Banking industry smart contract.sol:Banking",
						"label": "owner",
						"offset": 0,
						"slot": "1",
						"type": "t_address_payable"
					}
				],
				"types": {
					"t_address": {
						"encoding": "inplace",
						"label": "address",
						"numberOfBytes": "20"
					},
					"t_address_payable": {
						"encoding": "inplace",
						"label": "address payable",
						"numberOfBytes": "20"
					},
					"t_mapping(t_address,t_uint256)": {
						"encoding": "mapping",
						"key": "t_address",
						"label": "mapping(address => uint256)",
						"numberOfBytes": "32",
						"value": "t_uint256"
					},
					"t_uint256": {
						"encoding": "inplace",
						"label": "uint256",
						"numberOfBytes": "32"
					}
				}
			},
			"userdoc": {
				"kind": "user",
				"methods": {},
				"version": 1
			}
		}
	}
}