{
	"Lock Fund smart contract/Lock Fund Smart Contract.sol": {
		"LockFund": {
			"abi": [
				{
					"inputs": [],
					"stateMutability": "nonpayable",
					"type": "constructor"
				},
				{
					"inputs": [],
					"name": "lockDuration",
					"outputs": [
						{
							"internalType": "uint256",
							"name": "",
							"type": "uint256"
						}
					],
					"stateMutability": "view",
					"type": "function"
				},
				{
					"inputs": [
						{
							"internalType": "uint256",
							"name": "_value",
							"type": "uint256"
						}
					],
					"name": "lockFund",
					"outputs": [],
					"stateMutability": "payable",
					"type": "function"
				},
				{
					"inputs": [
						{
							"internalType": "address",
							"name": "",
							"type": "address"
						}
					],
					"name": "lockedFunds",
					"outputs": [
						{
							"internalType": "uint256",
							"name": "",
							"type": "uint256"
						}
					],
					"stateMutability": "view",
					"type": "function"
				},
				{
					"inputs": [
						{
							"internalType": "address",
							"name": "",
							"type": "address"
						}
					],
					"name": "lockedTimestamps",
					"outputs": [
						{
							"internalType": "uint256",
							"name": "",
							"type": "uint256"
						}
					],
					"stateMutability": "view",
					"type": "function"
				},
				{
					"inputs": [],
					"name": "owner",
					"outputs": [
						{
							"internalType": "address payable",
							"name": "",
							"type": "address"
						}
					],
					"stateMutability": "view",
					"type": "function"
				},
				{
					"inputs": [],
					"name": "releaseFund",
					"outputs": [],
					"stateMutability": "nonpayable",
					"type": "function"
				},
				{
					"inputs": [],
					"name": "withdraw",
					"outputs": [],
					"stateMutability": "nonpayable",
					"type": "function"
				}
			],
			"devdoc": {
				"kind": "dev",
				"methods": {},
				"version": 1
			},
			"evm": {
				"assembly": "    /* \"Lock Fund smart contract/Lock Fund Smart Contract.sol\":57:1086  contract LockFund {... */\n  mstore(0x40, 0x80)\n    /* \"Lock Fund smart contract/Lock Fund Smart Contract.sol\":250:256  2 days */\n  0x02a300\n    /* \"Lock Fund smart contract/Lock Fund Smart Contract.sol\":220:256  uint256 public lockDuration = 2 days */\n  0x03\n  sstore\n    /* \"Lock Fund smart contract/Lock Fund Smart Contract.sol\":263:323  constructor () {... */\n  callvalue\n  dup1\n  iszero\n  tag_1\n  jumpi\n  0x00\n  dup1\n  revert\ntag_1:\n  pop\n    /* \"Lock Fund smart contract/Lock Fund Smart Contract.sol\":305:315  msg.sender */\n  caller\n    /* \"Lock Fund smart contract/Lock Fund Smart Contract.sol\":288:293  owner */\n  0x00\n  dup1\n    /* \"Lock Fund smart contract/Lock Fund Smart Contract.sol\":288:316  owner = payable (msg.sender) */\n  0x0100\n  exp\n  dup2\n  sload\n  dup2\n  0xffffffffffffffffffffffffffffffffffffffff\n  mul\n  not\n  and\n  swap1\n  dup4\n  0xffffffffffffffffffffffffffffffffffffffff\n  and\n  mul\n  or\n  swap1\n  sstore\n  pop\n    /* \"Lock Fund smart contract/Lock Fund Smart Contract.sol\":57:1086  contract LockFund {... */\n  dataSize(sub_0)\n  dup1\n  dataOffset(sub_0)\n  0x00\n  codecopy\n  0x00\n  return\nstop\n\nsub_0: assembly {\n        /* \"Lock Fund smart contract/Lock Fund Smart Contract.sol\":57:1086  contract LockFund {... */\n      mstore(0x40, 0x80)\n      jumpi(tag_1, lt(calldatasize, 0x04))\n      shr(0xe0, calldataload(0x00))\n      dup1\n      0x8da5cb5b\n      gt\n      tag_9\n      jumpi\n      dup1\n      0x8da5cb5b\n      eq\n      tag_5\n      jumpi\n      dup1\n      0xa2ff5539\n      eq\n      tag_6\n      jumpi\n      dup1\n      0xb86247d7\n      eq\n      tag_7\n      jumpi\n      dup1\n      0xfff0af17\n      eq\n      tag_8\n      jumpi\n      jump(tag_1)\n    tag_9:\n      dup1\n      0x04554443\n      eq\n      tag_2\n      jumpi\n      dup1\n      0x3ba2a67e\n      eq\n      tag_3\n      jumpi\n      dup1\n      0x3ccfd60b\n      eq\n      tag_4\n      jumpi\n    tag_1:\n      0x00\n      dup1\n      revert\n        /* \"Lock Fund smart contract/Lock Fund Smart Contract.sol\":220:256  uint256 public lockDuration = 2 days */\n    tag_2:\n      callvalue\n      dup1\n      iszero\n      tag_10\n      jumpi\n      0x00\n      dup1\n      revert\n    tag_10:\n      pop\n      tag_11\n      tag_12\n      jump\t// in\n    tag_11:\n      mload(0x40)\n      tag_13\n      swap2\n      swap1\n      tag_14\n      jump\t// in\n    tag_13:\n      mload(0x40)\n      dup1\n      swap2\n      sub\n      swap1\n      return\n        /* \"Lock Fund smart contract/Lock Fund Smart Contract.sol\":329:519  function lockFund (uint _value) public payable {... */\n    tag_3:\n      tag_15\n      0x04\n      dup1\n      calldatasize\n      sub\n      dup2\n      add\n      swap1\n      tag_16\n      swap2\n      swap1\n      tag_17\n      jump\t// in\n    tag_16:\n      tag_18\n      jump\t// in\n    tag_15:\n      stop\n        /* \"Lock Fund smart contract/Lock Fund Smart Contract.sol\":838:1083  function withdraw () public {... */\n    tag_4:\n      callvalue\n      dup1\n      iszero\n      tag_19\n      jumpi\n      0x00\n      dup1\n      revert\n    tag_19:\n      pop\n      tag_20\n      tag_21\n      jump\t// in\n    tag_20:\n      stop\n        /* \"Lock Fund smart contract/Lock Fund Smart Contract.sol\":81:109  address payable public owner */\n    tag_5:\n      callvalue\n      dup1\n      iszero\n      tag_22\n      jumpi\n      0x00\n      dup1\n      revert\n    tag_22:\n      pop\n      tag_23\n      tag_24\n      jump\t// in\n    tag_23:\n      mload(0x40)\n      tag_25\n      swap2\n      swap1\n      tag_26\n      jump\t// in\n    tag_25:\n      mload(0x40)\n      dup1\n      swap2\n      sub\n      swap1\n      return\n        /* \"Lock Fund smart contract/Lock Fund Smart Contract.sol\":525:832  function releaseFund () public {... */\n    tag_6:\n      callvalue\n      dup1\n      iszero\n      tag_27\n      jumpi\n      0x00\n      dup1\n      revert\n    tag_27:\n      pop\n      tag_28\n      tag_29\n      jump\t// in\n    tag_28:\n      stop\n        /* \"Lock Fund smart contract/Lock Fund Smart Contract.sol\":115:159  mapping (address => uint) public lockedFunds */\n    tag_7:\n      callvalue\n      dup1\n      iszero\n      tag_30\n      jumpi\n      0x00\n      dup1\n      revert\n    tag_30:\n      pop\n      tag_31\n      0x04\n      dup1\n      calldatasize\n      sub\n      dup2\n      add\n      swap1\n      tag_32\n      swap2\n      swap1\n      tag_33\n      jump\t// in\n    tag_32:\n      tag_34\n      jump\t// in\n    tag_31:\n      mload(0x40)\n      tag_35\n      swap2\n      swap1\n      tag_14\n      jump\t// in\n    tag_35:\n      mload(0x40)\n      dup1\n      swap2\n      sub\n      swap1\n      return\n        /* \"Lock Fund smart contract/Lock Fund Smart Contract.sol\":165:214  mapping (address => uint) public lockedTimestamps */\n    tag_8:\n      callvalue\n      dup1\n      iszero\n      tag_36\n      jumpi\n      0x00\n      dup1\n      revert\n    tag_36:\n      pop\n      tag_37\n      0x04\n      dup1\n      calldatasize\n      sub\n      dup2\n      add\n      swap1\n      tag_38\n      swap2\n      swap1\n      tag_33\n      jump\t// in\n    tag_38:\n      tag_39\n      jump\t// in\n    tag_37:\n      mload(0x40)\n      tag_40\n      swap2\n      swap1\n      tag_14\n      jump\t// in\n    tag_40:\n      mload(0x40)\n      dup1\n      swap2\n      sub\n      swap1\n      return\n        /* \"Lock Fund smart contract/Lock Fund Smart Contract.sol\":220:256  uint256 public lockDuration = 2 days */\n    tag_12:\n      sload(0x03)\n      dup2\n      jump\t// out\n        /* \"Lock Fund smart contract/Lock Fund Smart Contract.sol\":329:519  function lockFund (uint _value) public payable {... */\n    tag_18:\n        /* \"Lock Fund smart contract/Lock Fund Smart Contract.sol\":407:413  _value */\n      dup1\n        /* \"Lock Fund smart contract/Lock Fund Smart Contract.sol\":394:403  msg.value */\n      callvalue\n        /* \"Lock Fund smart contract/Lock Fund Smart Contract.sol\":394:413  msg.value >= _value */\n      lt\n      iszero\n        /* \"Lock Fund smart contract/Lock Fund Smart Contract.sol\":386:414  require(msg.value >= _value) */\n      tag_42\n      jumpi\n      0x00\n      dup1\n      revert\n    tag_42:\n        /* \"Lock Fund smart contract/Lock Fund Smart Contract.sol\":450:456  _value */\n      dup1\n        /* \"Lock Fund smart contract/Lock Fund Smart Contract.sol\":424:435  lockedFunds */\n      0x01\n        /* \"Lock Fund smart contract/Lock Fund Smart Contract.sol\":424:447  lockedFunds[msg.sender] */\n      0x00\n        /* \"Lock Fund smart contract/Lock Fund Smart Contract.sol\":436:446  msg.sender */\n      caller\n        /* \"Lock Fund smart contract/Lock Fund Smart Contract.sol\":424:447  lockedFunds[msg.sender] */\n      0xffffffffffffffffffffffffffffffffffffffff\n      and\n      0xffffffffffffffffffffffffffffffffffffffff\n      and\n      dup2\n      mstore\n      0x20\n      add\n      swap1\n      dup2\n      mstore\n      0x20\n      add\n      0x00\n      keccak256\n        /* \"Lock Fund smart contract/Lock Fund Smart Contract.sol\":424:456  lockedFunds[msg.sender] = _value */\n      dup2\n      swap1\n      sstore\n      pop\n        /* \"Lock Fund smart contract/Lock Fund Smart Contract.sol\":497:512  block.timestamp */\n      timestamp\n        /* \"Lock Fund smart contract/Lock Fund Smart Contract.sol\":466:482  lockedTimestamps */\n      0x02\n        /* \"Lock Fund smart contract/Lock Fund Smart Contract.sol\":466:494  lockedTimestamps[msg.sender] */\n      0x00\n        /* \"Lock Fund smart contract/Lock Fund Smart Contract.sol\":483:493  msg.sender */\n      caller\n        /* \"Lock Fund smart contract/Lock Fund Smart Contract.sol\":466:494  lockedTimestamps[msg.sender] */\n      0xffffffffffffffffffffffffffffffffffffffff\n      and\n      0xffffffffffffffffffffffffffffffffffffffff\n      and\n      dup2\n      mstore\n      0x20\n      add\n      swap1\n      dup2\n      mstore\n      0x20\n      add\n      0x00\n      keccak256\n        /* \"Lock Fund smart contract/Lock Fund Smart Contract.sol\":466:512  lockedTimestamps[msg.sender] = block.timestamp */\n      dup2\n      swap1\n      sstore\n      pop\n        /* \"Lock Fund smart contract/Lock Fund Smart Contract.sol\":329:519  function lockFund (uint _value) public payable {... */\n      pop\n      jump\t// out\n        /* \"Lock Fund smart contract/Lock Fund Smart Contract.sol\":838:1083  function withdraw () public {... */\n    tag_21:\n        /* \"Lock Fund smart contract/Lock Fund Smart Contract.sol\":898:903  owner */\n      0x00\n      dup1\n      sload\n      swap1\n      0x0100\n      exp\n      swap1\n      div\n      0xffffffffffffffffffffffffffffffffffffffff\n      and\n        /* \"Lock Fund smart contract/Lock Fund Smart Contract.sol\":884:903  msg.sender == owner */\n      0xffffffffffffffffffffffffffffffffffffffff\n      and\n        /* \"Lock Fund smart contract/Lock Fund Smart Contract.sol\":884:894  msg.sender */\n      caller\n        /* \"Lock Fund smart contract/Lock Fund Smart Contract.sol\":884:903  msg.sender == owner */\n      0xffffffffffffffffffffffffffffffffffffffff\n      and\n      eq\n        /* \"Lock Fund smart contract/Lock Fund Smart Contract.sol\":876:941  require(msg.sender == owner, \"Only owner can withdarw the funds\") */\n      tag_44\n      jumpi\n      mload(0x40)\n      0x08c379a000000000000000000000000000000000000000000000000000000000\n      dup2\n      mstore\n      0x04\n      add\n      tag_45\n      swap1\n      tag_46\n      jump\t// in\n    tag_45:\n      mload(0x40)\n      dup1\n      swap2\n      sub\n      swap1\n      revert\n    tag_44:\n        /* \"Lock Fund smart contract/Lock Fund Smart Contract.sol\":983:984  0 */\n      0x00\n        /* \"Lock Fund smart contract/Lock Fund Smart Contract.sol\":959:980  address(this).balance */\n      selfbalance\n        /* \"Lock Fund smart contract/Lock Fund Smart Contract.sol\":959:984  address(this).balance > 0 */\n      gt\n        /* \"Lock Fund smart contract/Lock Fund Smart Contract.sol\":951:1019  require(address(this).balance > 0, \"No fund availabel to withdraw.\") */\n      tag_47\n      jumpi\n      mload(0x40)\n      0x08c379a000000000000000000000000000000000000000000000000000000000\n      dup2\n      mstore\n      0x04\n      add\n      tag_48\n      swap1\n      tag_49\n      jump\t// in\n    tag_48:\n      mload(0x40)\n      dup1\n      swap2\n      sub\n      swap1\n      revert\n    tag_47:\n        /* \"Lock Fund smart contract/Lock Fund Smart Contract.sol\":1038:1043  owner */\n      0x00\n      dup1\n      sload\n      swap1\n      0x0100\n      exp\n      swap1\n      div\n      0xffffffffffffffffffffffffffffffffffffffff\n      and\n        /* \"Lock Fund smart contract/Lock Fund Smart Contract.sol\":1029:1053  payable (owner).transfer */\n      0xffffffffffffffffffffffffffffffffffffffff\n      and\n        /* \"Lock Fund smart contract/Lock Fund Smart Contract.sol\":1029:1076  payable (owner).transfer(address(this).balance) */\n      0x08fc\n        /* \"Lock Fund smart contract/Lock Fund Smart Contract.sol\":1054:1075  address(this).balance */\n      selfbalance\n        /* \"Lock Fund smart contract/Lock Fund Smart Contract.sol\":1029:1076  payable (owner).transfer(address(this).balance) */\n      swap1\n      dup2\n      iszero\n      mul\n      swap1\n      mload(0x40)\n      0x00\n      mload(0x40)\n      dup1\n      dup4\n      sub\n      dup2\n      dup6\n      dup9\n      dup9\n      call\n      swap4\n      pop\n      pop\n      pop\n      pop\n      iszero\n      dup1\n      iszero\n      tag_51\n      jumpi\n      returndatasize\n      0x00\n      dup1\n      returndatacopy\n      revert(0x00, returndatasize)\n    tag_51:\n      pop\n        /* \"Lock Fund smart contract/Lock Fund Smart Contract.sol\":838:1083  function withdraw () public {... */\n      jump\t// out\n        /* \"Lock Fund smart contract/Lock Fund Smart Contract.sol\":81:109  address payable public owner */\n    tag_24:\n      0x00\n      dup1\n      sload\n      swap1\n      0x0100\n      exp\n      swap1\n      div\n      0xffffffffffffffffffffffffffffffffffffffff\n      and\n      dup2\n      jump\t// out\n        /* \"Lock Fund smart contract/Lock Fund Smart Contract.sol\":525:832  function releaseFund () public {... */\n    tag_29:\n        /* \"Lock Fund smart contract/Lock Fund Smart Contract.sol\":624:636  lockDuration */\n      sload(0x03)\n        /* \"Lock Fund smart contract/Lock Fund Smart Contract.sol\":593:609  lockedTimestamps */\n      0x02\n        /* \"Lock Fund smart contract/Lock Fund Smart Contract.sol\":593:621  lockedTimestamps[msg.sender] */\n      0x00\n        /* \"Lock Fund smart contract/Lock Fund Smart Contract.sol\":610:620  msg.sender */\n      caller\n        /* \"Lock Fund smart contract/Lock Fund Smart Contract.sol\":593:621  lockedTimestamps[msg.sender] */\n      0xffffffffffffffffffffffffffffffffffffffff\n      and\n      0xffffffffffffffffffffffffffffffffffffffff\n      and\n      dup2\n      mstore\n      0x20\n      add\n      swap1\n      dup2\n      mstore\n      0x20\n      add\n      0x00\n      keccak256\n      sload\n        /* \"Lock Fund smart contract/Lock Fund Smart Contract.sol\":593:636  lockedTimestamps[msg.sender] + lockDuration */\n      tag_53\n      swap2\n      swap1\n      tag_54\n      jump\t// in\n    tag_53:\n        /* \"Lock Fund smart contract/Lock Fund Smart Contract.sol\":574:589  block.timestamp */\n      timestamp\n        /* \"Lock Fund smart contract/Lock Fund Smart Contract.sol\":574:636  block.timestamp >= lockedTimestamps[msg.sender] + lockDuration */\n      lt\n      iszero\n        /* \"Lock Fund smart contract/Lock Fund Smart Contract.sol\":566:681  require(block.timestamp >= lockedTimestamps[msg.sender] + lockDuration, \"Please wait till the time lock get ends.\") */\n      tag_55\n      jumpi\n      mload(0x40)\n      0x08c379a000000000000000000000000000000000000000000000000000000000\n      dup2\n      mstore\n      0x04\n      add\n      tag_56\n      swap1\n      tag_57\n      jump\t// in\n    tag_56:\n      mload(0x40)\n      dup1\n      swap2\n      sub\n      swap1\n      revert\n    tag_55:\n        /* \"Lock Fund smart contract/Lock Fund Smart Contract.sol\":700:705  owner */\n      0x00\n      dup1\n      sload\n      swap1\n      0x0100\n      exp\n      swap1\n      div\n      0xffffffffffffffffffffffffffffffffffffffff\n      and\n        /* \"Lock Fund smart contract/Lock Fund Smart Contract.sol\":691:715  payable (owner).transfer */\n      0xffffffffffffffffffffffffffffffffffffffff\n      and\n        /* \"Lock Fund smart contract/Lock Fund Smart Contract.sol\":691:740  payable (owner).transfer(lockedFunds[msg.sender]) */\n      0x08fc\n        /* \"Lock Fund smart contract/Lock Fund Smart Contract.sol\":716:727  lockedFunds */\n      0x01\n        /* \"Lock Fund smart contract/Lock Fund Smart Contract.sol\":716:739  lockedFunds[msg.sender] */\n      0x00\n        /* \"Lock Fund smart contract/Lock Fund Smart Contract.sol\":728:738  msg.sender */\n      caller\n        /* \"Lock Fund smart contract/Lock Fund Smart Contract.sol\":716:739  lockedFunds[msg.sender] */\n      0xffffffffffffffffffffffffffffffffffffffff\n      and\n      0xffffffffffffffffffffffffffffffffffffffff\n      and\n      dup2\n      mstore\n      0x20\n      add\n      swap1\n      dup2\n      mstore\n      0x20\n      add\n      0x00\n      keccak256\n      sload\n        /* \"Lock Fund smart contract/Lock Fund Smart Contract.sol\":691:740  payable (owner).transfer(lockedFunds[msg.sender]) */\n      swap1\n      dup2\n      iszero\n      mul\n      swap1\n      mload(0x40)\n      0x00\n      mload(0x40)\n      dup1\n      dup4\n      sub\n      dup2\n      dup6\n      dup9\n      dup9\n      call\n      swap4\n      pop\n      pop\n      pop\n      pop\n      iszero\n      dup1\n      iszero\n      tag_59\n      jumpi\n      returndatasize\n      0x00\n      dup1\n      returndatacopy\n      revert(0x00, returndatasize)\n    tag_59:\n      pop\n        /* \"Lock Fund smart contract/Lock Fund Smart Contract.sol\":757:768  lockedFunds */\n      0x01\n        /* \"Lock Fund smart contract/Lock Fund Smart Contract.sol\":757:780  lockedFunds[msg.sender] */\n      0x00\n        /* \"Lock Fund smart contract/Lock Fund Smart Contract.sol\":769:779  msg.sender */\n      caller\n        /* \"Lock Fund smart contract/Lock Fund Smart Contract.sol\":757:780  lockedFunds[msg.sender] */\n      0xffffffffffffffffffffffffffffffffffffffff\n      and\n      0xffffffffffffffffffffffffffffffffffffffff\n      and\n      dup2\n      mstore\n      0x20\n      add\n      swap1\n      dup2\n      mstore\n      0x20\n      add\n      0x00\n      keccak256\n        /* \"Lock Fund smart contract/Lock Fund Smart Contract.sol\":750:780  delete lockedFunds[msg.sender] */\n      0x00\n      swap1\n      sstore\n        /* \"Lock Fund smart contract/Lock Fund Smart Contract.sol\":797:813  lockedTimestamps */\n      0x02\n        /* \"Lock Fund smart contract/Lock Fund Smart Contract.sol\":797:825  lockedTimestamps[msg.sender] */\n      0x00\n        /* \"Lock Fund smart contract/Lock Fund Smart Contract.sol\":814:824  msg.sender */\n      caller\n        /* \"Lock Fund smart contract/Lock Fund Smart Contract.sol\":797:825  lockedTimestamps[msg.sender] */\n      0xffffffffffffffffffffffffffffffffffffffff\n      and\n      0xffffffffffffffffffffffffffffffffffffffff\n      and\n      dup2\n      mstore\n      0x20\n      add\n      swap1\n      dup2\n      mstore\n      0x20\n      add\n      0x00\n      keccak256\n        /* \"Lock Fund smart contract/Lock Fund Smart Contract.sol\":790:825  delete lockedTimestamps[msg.sender] */\n      0x00\n      swap1\n      sstore\n        /* \"Lock Fund smart contract/Lock Fund Smart Contract.sol\":525:832  function releaseFund () public {... */\n      jump\t// out\n        /* \"Lock Fund smart contract/Lock Fund Smart Contract.sol\":115:159  mapping (address => uint) public lockedFunds */\n    tag_34:\n      mstore(0x20, 0x01)\n      dup1\n      0x00\n      mstore\n      keccak256(0x00, 0x40)\n      0x00\n      swap2\n      pop\n      swap1\n      pop\n      sload\n      dup2\n      jump\t// out\n        /* \"Lock Fund smart contract/Lock Fund Smart Contract.sol\":165:214  mapping (address => uint) public lockedTimestamps */\n    tag_39:\n      mstore(0x20, 0x02)\n      dup1\n      0x00\n      mstore\n      keccak256(0x00, 0x40)\n      0x00\n      swap2\n      pop\n      swap1\n      pop\n      sload\n      dup2\n      jump\t// out\n        /* \"#utility.yul\":7:84   */\n    tag_60:\n        /* \"#utility.yul\":44:51   */\n      0x00\n        /* \"#utility.yul\":73:78   */\n      dup2\n        /* \"#utility.yul\":62:78   */\n      swap1\n      pop\n        /* \"#utility.yul\":7:84   */\n      swap2\n      swap1\n      pop\n      jump\t// out\n        /* \"#utility.yul\":90:208   */\n    tag_61:\n        /* \"#utility.yul\":177:201   */\n      tag_84\n        /* \"#utility.yul\":195:200   */\n      dup2\n        /* \"#utility.yul\":177:201   */\n      tag_60\n      jump\t// in\n    tag_84:\n        /* \"#utility.yul\":172:175   */\n      dup3\n        /* \"#utility.yul\":165:202   */\n      mstore\n        /* \"#utility.yul\":90:208   */\n      pop\n      pop\n      jump\t// out\n        /* \"#utility.yul\":214:436   */\n    tag_14:\n        /* \"#utility.yul\":307:311   */\n      0x00\n        /* \"#utility.yul\":345:347   */\n      0x20\n        /* \"#utility.yul\":334:343   */\n      dup3\n        /* \"#utility.yul\":330:348   */\n      add\n        /* \"#utility.yul\":322:348   */\n      swap1\n      pop\n        /* \"#utility.yul\":358:429   */\n      tag_86\n        /* \"#utility.yul\":426:427   */\n      0x00\n        /* \"#utility.yul\":415:424   */\n      dup4\n        /* \"#utility.yul\":411:428   */\n      add\n        /* \"#utility.yul\":402:408   */\n      dup5\n        /* \"#utility.yul\":358:429   */\n      tag_61\n      jump\t// in\n    tag_86:\n        /* \"#utility.yul\":214:436   */\n      swap3\n      swap2\n      pop\n      pop\n      jump\t// out\n        /* \"#utility.yul\":523:640   */\n    tag_63:\n        /* \"#utility.yul\":632:633   */\n      0x00\n        /* \"#utility.yul\":629:630   */\n      dup1\n        /* \"#utility.yul\":622:634   */\n      revert\n        /* \"#utility.yul\":769:891   */\n    tag_65:\n        /* \"#utility.yul\":842:866   */\n      tag_91\n        /* \"#utility.yul\":860:865   */\n      dup2\n        /* \"#utility.yul\":842:866   */\n      tag_60\n      jump\t// in\n    tag_91:\n        /* \"#utility.yul\":835:840   */\n      dup2\n        /* \"#utility.yul\":832:867   */\n      eq\n        /* \"#utility.yul\":822:885   */\n      tag_92\n      jumpi\n        /* \"#utility.yul\":881:882   */\n      0x00\n        /* \"#utility.yul\":878:879   */\n      dup1\n        /* \"#utility.yul\":871:883   */\n      revert\n        /* \"#utility.yul\":822:885   */\n    tag_92:\n        /* \"#utility.yul\":769:891   */\n      pop\n      jump\t// out\n        /* \"#utility.yul\":897:1036   */\n    tag_66:\n        /* \"#utility.yul\":943:948   */\n      0x00\n        /* \"#utility.yul\":981:987   */\n      dup2\n        /* \"#utility.yul\":968:988   */\n      calldataload\n        /* \"#utility.yul\":959:988   */\n      swap1\n      pop\n        /* \"#utility.yul\":997:1030   */\n      tag_94\n        /* \"#utility.yul\":1024:1029   */\n      dup2\n        /* \"#utility.yul\":997:1030   */\n      tag_65\n      jump\t// in\n    tag_94:\n        /* \"#utility.yul\":897:1036   */\n      swap3\n      swap2\n      pop\n      pop\n      jump\t// out\n        /* \"#utility.yul\":1042:1371   */\n    tag_17:\n        /* \"#utility.yul\":1101:1107   */\n      0x00\n        /* \"#utility.yul\":1150:1152   */\n      0x20\n        /* \"#utility.yul\":1138:1147   */\n      dup3\n        /* \"#utility.yul\":1129:1136   */\n      dup5\n        /* \"#utility.yul\":1125:1148   */\n      sub\n        /* \"#utility.yul\":1121:1153   */\n      slt\n        /* \"#utility.yul\":1118:1237   */\n      iszero\n      tag_96\n      jumpi\n        /* \"#utility.yul\":1156:1235   */\n      tag_97\n      tag_63\n      jump\t// in\n    tag_97:\n        /* \"#utility.yul\":1118:1237   */\n    tag_96:\n        /* \"#utility.yul\":1276:1277   */\n      0x00\n        /* \"#utility.yul\":1301:1354   */\n      tag_98\n        /* \"#utility.yul\":1346:1353   */\n      dup5\n        /* \"#utility.yul\":1337:1343   */\n      dup3\n        /* \"#utility.yul\":1326:1335   */\n      dup6\n        /* \"#utility.yul\":1322:1344   */\n      add\n        /* \"#utility.yul\":1301:1354   */\n      tag_66\n      jump\t// in\n    tag_98:\n        /* \"#utility.yul\":1291:1354   */\n      swap2\n      pop\n        /* \"#utility.yul\":1247:1364   */\n      pop\n        /* \"#utility.yul\":1042:1371   */\n      swap3\n      swap2\n      pop\n      pop\n      jump\t// out\n        /* \"#utility.yul\":1377:1503   */\n    tag_67:\n        /* \"#utility.yul\":1414:1421   */\n      0x00\n        /* \"#utility.yul\":1454:1496   */\n      0xffffffffffffffffffffffffffffffffffffffff\n        /* \"#utility.yul\":1447:1452   */\n      dup3\n        /* \"#utility.yul\":1443:1497   */\n      and\n        /* \"#utility.yul\":1432:1497   */\n      swap1\n      pop\n        /* \"#utility.yul\":1377:1503   */\n      swap2\n      swap1\n      pop\n      jump\t// out\n        /* \"#utility.yul\":1509:1613   */\n    tag_68:\n        /* \"#utility.yul\":1554:1561   */\n      0x00\n        /* \"#utility.yul\":1583:1607   */\n      tag_101\n        /* \"#utility.yul\":1601:1606   */\n      dup3\n        /* \"#utility.yul\":1583:1607   */\n      tag_67\n      jump\t// in\n    tag_101:\n        /* \"#utility.yul\":1572:1607   */\n      swap1\n      pop\n        /* \"#utility.yul\":1509:1613   */\n      swap2\n      swap1\n      pop\n      jump\t// out\n        /* \"#utility.yul\":1619:1761   */\n    tag_69:\n        /* \"#utility.yul\":1722:1754   */\n      tag_103\n        /* \"#utility.yul\":1748:1753   */\n      dup2\n        /* \"#utility.yul\":1722:1754   */\n      tag_68\n      jump\t// in\n    tag_103:\n        /* \"#utility.yul\":1717:1720   */\n      dup3\n        /* \"#utility.yul\":1710:1755   */\n      mstore\n        /* \"#utility.yul\":1619:1761   */\n      pop\n      pop\n      jump\t// out\n        /* \"#utility.yul\":1767:2021   */\n    tag_26:\n        /* \"#utility.yul\":1876:1880   */\n      0x00\n        /* \"#utility.yul\":1914:1916   */\n      0x20\n        /* \"#utility.yul\":1903:1912   */\n      dup3\n        /* \"#utility.yul\":1899:1917   */\n      add\n        /* \"#utility.yul\":1891:1917   */\n      swap1\n      pop\n        /* \"#utility.yul\":1927:2014   */\n      tag_105\n        /* \"#utility.yul\":2011:2012   */\n      0x00\n        /* \"#utility.yul\":2000:2009   */\n      dup4\n        /* \"#utility.yul\":1996:2013   */\n      add\n        /* \"#utility.yul\":1987:1993   */\n      dup5\n        /* \"#utility.yul\":1927:2014   */\n      tag_69\n      jump\t// in\n    tag_105:\n        /* \"#utility.yul\":1767:2021   */\n      swap3\n      swap2\n      pop\n      pop\n      jump\t// out\n        /* \"#utility.yul\":2027:2123   */\n    tag_70:\n        /* \"#utility.yul\":2064:2071   */\n      0x00\n        /* \"#utility.yul\":2093:2117   */\n      tag_107\n        /* \"#utility.yul\":2111:2116   */\n      dup3\n        /* \"#utility.yul\":2093:2117   */\n      tag_67\n      jump\t// in\n    tag_107:\n        /* \"#utility.yul\":2082:2117   */\n      swap1\n      pop\n        /* \"#utility.yul\":2027:2123   */\n      swap2\n      swap1\n      pop\n      jump\t// out\n        /* \"#utility.yul\":2129:2251   */\n    tag_71:\n        /* \"#utility.yul\":2202:2226   */\n      tag_109\n        /* \"#utility.yul\":2220:2225   */\n      dup2\n        /* \"#utility.yul\":2202:2226   */\n      tag_70\n      jump\t// in\n    tag_109:\n        /* \"#utility.yul\":2195:2200   */\n      dup2\n        /* \"#utility.yul\":2192:2227   */\n      eq\n        /* \"#utility.yul\":2182:2245   */\n      tag_110\n      jumpi\n        /* \"#utility.yul\":2241:2242   */\n      0x00\n        /* \"#utility.yul\":2238:2239   */\n      dup1\n        /* \"#utility.yul\":2231:2243   */\n      revert\n        /* \"#utility.yul\":2182:2245   */\n    tag_110:\n        /* \"#utility.yul\":2129:2251   */\n      pop\n      jump\t// out\n        /* \"#utility.yul\":2257:2396   */\n    tag_72:\n        /* \"#utility.yul\":2303:2308   */\n      0x00\n        /* \"#utility.yul\":2341:2347   */\n      dup2\n        /* \"#utility.yul\":2328:2348   */\n      calldataload\n        /* \"#utility.yul\":2319:2348   */\n      swap1\n      pop\n        /* \"#utility.yul\":2357:2390   */\n      tag_112\n        /* \"#utility.yul\":2384:2389   */\n      dup2\n        /* \"#utility.yul\":2357:2390   */\n      tag_71\n      jump\t// in\n    tag_112:\n        /* \"#utility.yul\":2257:2396   */\n      swap3\n      swap2\n      pop\n      pop\n      jump\t// out\n        /* \"#utility.yul\":2402:2731   */\n    tag_33:\n        /* \"#utility.yul\":2461:2467   */\n      0x00\n        /* \"#utility.yul\":2510:2512   */\n      0x20\n        /* \"#utility.yul\":2498:2507   */\n      dup3\n        /* \"#utility.yul\":2489:2496   */\n      dup5\n        /* \"#utility.yul\":2485:2508   */\n      sub\n        /* \"#utility.yul\":2481:2513   */\n      slt\n        /* \"#utility.yul\":2478:2597   */\n      iszero\n      tag_114\n      jumpi\n        /* \"#utility.yul\":2516:2595   */\n      tag_115\n      tag_63\n      jump\t// in\n    tag_115:\n        /* \"#utility.yul\":2478:2597   */\n    tag_114:\n        /* \"#utility.yul\":2636:2637   */\n      0x00\n        /* \"#utility.yul\":2661:2714   */\n      tag_116\n        /* \"#utility.yul\":2706:2713   */\n      dup5\n        /* \"#utility.yul\":2697:2703   */\n      dup3\n        /* \"#utility.yul\":2686:2695   */\n      dup6\n        /* \"#utility.yul\":2682:2704   */\n      add\n        /* \"#utility.yul\":2661:2714   */\n      tag_72\n      jump\t// in\n    tag_116:\n        /* \"#utility.yul\":2651:2714   */\n      swap2\n      pop\n        /* \"#utility.yul\":2607:2724   */\n      pop\n        /* \"#utility.yul\":2402:2731   */\n      swap3\n      swap2\n      pop\n      pop\n      jump\t// out\n        /* \"#utility.yul\":2737:2906   */\n    tag_73:\n        /* \"#utility.yul\":2821:2832   */\n      0x00\n        /* \"#utility.yul\":2855:2861   */\n      dup3\n        /* \"#utility.yul\":2850:2853   */\n      dup3\n        /* \"#utility.yul\":2843:2862   */\n      mstore\n        /* \"#utility.yul\":2895:2899   */\n      0x20\n        /* \"#utility.yul\":2890:2893   */\n      dup3\n        /* \"#utility.yul\":2886:2900   */\n      add\n        /* \"#utility.yul\":2871:2900   */\n      swap1\n      pop\n        /* \"#utility.yul\":2737:2906   */\n      swap3\n      swap2\n      pop\n      pop\n      jump\t// out\n        /* \"#utility.yul\":2912:3132   */\n    tag_74:\n        /* \"#utility.yul\":3052:3086   */\n      0x4f6e6c79206f776e65722063616e207769746864617277207468652066756e64\n        /* \"#utility.yul\":3048:3049   */\n      0x00\n        /* \"#utility.yul\":3040:3046   */\n      dup3\n        /* \"#utility.yul\":3036:3050   */\n      add\n        /* \"#utility.yul\":3029:3087   */\n      mstore\n        /* \"#utility.yul\":3121:3124   */\n      0x7300000000000000000000000000000000000000000000000000000000000000\n        /* \"#utility.yul\":3116:3118   */\n      0x20\n        /* \"#utility.yul\":3108:3114   */\n      dup3\n        /* \"#utility.yul\":3104:3119   */\n      add\n        /* \"#utility.yul\":3097:3125   */\n      mstore\n        /* \"#utility.yul\":2912:3132   */\n      pop\n      jump\t// out\n        /* \"#utility.yul\":3138:3504   */\n    tag_75:\n        /* \"#utility.yul\":3280:3283   */\n      0x00\n        /* \"#utility.yul\":3301:3368   */\n      tag_120\n        /* \"#utility.yul\":3365:3367   */\n      0x21\n        /* \"#utility.yul\":3360:3363   */\n      dup4\n        /* \"#utility.yul\":3301:3368   */\n      tag_73\n      jump\t// in\n    tag_120:\n        /* \"#utility.yul\":3294:3368   */\n      swap2\n      pop\n        /* \"#utility.yul\":3377:3470   */\n      tag_121\n        /* \"#utility.yul\":3466:3469   */\n      dup3\n        /* \"#utility.yul\":3377:3470   */\n      tag_74\n      jump\t// in\n    tag_121:\n        /* \"#utility.yul\":3495:3497   */\n      0x40\n        /* \"#utility.yul\":3490:3493   */\n      dup3\n        /* \"#utility.yul\":3486:3498   */\n      add\n        /* \"#utility.yul\":3479:3498   */\n      swap1\n      pop\n        /* \"#utility.yul\":3138:3504   */\n      swap2\n      swap1\n      pop\n      jump\t// out\n        /* \"#utility.yul\":3510:3929   */\n    tag_46:\n        /* \"#utility.yul\":3676:3680   */\n      0x00\n        /* \"#utility.yul\":3714:3716   */\n      0x20\n        /* \"#utility.yul\":3703:3712   */\n      dup3\n        /* \"#utility.yul\":3699:3717   */\n      add\n        /* \"#utility.yul\":3691:3717   */\n      swap1\n      pop\n        /* \"#utility.yul\":3763:3772   */\n      dup2\n        /* \"#utility.yul\":3757:3761   */\n      dup2\n        /* \"#utility.yul\":3753:3773   */\n      sub\n        /* \"#utility.yul\":3749:3750   */\n      0x00\n        /* \"#utility.yul\":3738:3747   */\n      dup4\n        /* \"#utility.yul\":3734:3751   */\n      add\n        /* \"#utility.yul\":3727:3774   */\n      mstore\n        /* \"#utility.yul\":3791:3922   */\n      tag_123\n        /* \"#utility.yul\":3917:3921   */\n      dup2\n        /* \"#utility.yul\":3791:3922   */\n      tag_75\n      jump\t// in\n    tag_123:\n        /* \"#utility.yul\":3783:3922   */\n      swap1\n      pop\n        /* \"#utility.yul\":3510:3929   */\n      swap2\n      swap1\n      pop\n      jump\t// out\n        /* \"#utility.yul\":3935:4115   */\n    tag_76:\n        /* \"#utility.yul\":4075:4107   */\n      0x4e6f2066756e6420617661696c6162656c20746f2077697468647261772e0000\n        /* \"#utility.yul\":4071:4072   */\n      0x00\n        /* \"#utility.yul\":4063:4069   */\n      dup3\n        /* \"#utility.yul\":4059:4073   */\n      add\n        /* \"#utility.yul\":4052:4108   */\n      mstore\n        /* \"#utility.yul\":3935:4115   */\n      pop\n      jump\t// out\n        /* \"#utility.yul\":4121:4487   */\n    tag_77:\n        /* \"#utility.yul\":4263:4266   */\n      0x00\n        /* \"#utility.yul\":4284:4351   */\n      tag_126\n        /* \"#utility.yul\":4348:4350   */\n      0x1e\n        /* \"#utility.yul\":4343:4346   */\n      dup4\n        /* \"#utility.yul\":4284:4351   */\n      tag_73\n      jump\t// in\n    tag_126:\n        /* \"#utility.yul\":4277:4351   */\n      swap2\n      pop\n        /* \"#utility.yul\":4360:4453   */\n      tag_127\n        /* \"#utility.yul\":4449:4452   */\n      dup3\n        /* \"#utility.yul\":4360:4453   */\n      tag_76\n      jump\t// in\n    tag_127:\n        /* \"#utility.yul\":4478:4480   */\n      0x20\n        /* \"#utility.yul\":4473:4476   */\n      dup3\n        /* \"#utility.yul\":4469:4481   */\n      add\n        /* \"#utility.yul\":4462:4481   */\n      swap1\n      pop\n        /* \"#utility.yul\":4121:4487   */\n      swap2\n      swap1\n      pop\n      jump\t// out\n        /* \"#utility.yul\":4493:4912   */\n    tag_49:\n        /* \"#utility.yul\":4659:4663   */\n      0x00\n        /* \"#utility.yul\":4697:4699   */\n      0x20\n        /* \"#utility.yul\":4686:4695   */\n      dup3\n        /* \"#utility.yul\":4682:4700   */\n      add\n        /* \"#utility.yul\":4674:4700   */\n      swap1\n      pop\n        /* \"#utility.yul\":4746:4755   */\n      dup2\n        /* \"#utility.yul\":4740:4744   */\n      dup2\n        /* \"#utility.yul\":4736:4756   */\n      sub\n        /* \"#utility.yul\":4732:4733   */\n      0x00\n        /* \"#utility.yul\":4721:4730   */\n      dup4\n        /* \"#utility.yul\":4717:4734   */\n      add\n        /* \"#utility.yul\":4710:4757   */\n      mstore\n        /* \"#utility.yul\":4774:4905   */\n      tag_129\n        /* \"#utility.yul\":4900:4904   */\n      dup2\n        /* \"#utility.yul\":4774:4905   */\n      tag_77\n      jump\t// in\n    tag_129:\n        /* \"#utility.yul\":4766:4905   */\n      swap1\n      pop\n        /* \"#utility.yul\":4493:4912   */\n      swap2\n      swap1\n      pop\n      jump\t// out\n        /* \"#utility.yul\":4918:5098   */\n    tag_78:\n        /* \"#utility.yul\":4966:5043   */\n      0x4e487b7100000000000000000000000000000000000000000000000000000000\n        /* \"#utility.yul\":4963:4964   */\n      0x00\n        /* \"#utility.yul\":4956:5044   */\n      mstore\n        /* \"#utility.yul\":5063:5067   */\n      0x11\n        /* \"#utility.yul\":5060:5061   */\n      0x04\n        /* \"#utility.yul\":5053:5068   */\n      mstore\n        /* \"#utility.yul\":5087:5091   */\n      0x24\n        /* \"#utility.yul\":5084:5085   */\n      0x00\n        /* \"#utility.yul\":5077:5092   */\n      revert\n        /* \"#utility.yul\":5104:5295   */\n    tag_54:\n        /* \"#utility.yul\":5144:5147   */\n      0x00\n        /* \"#utility.yul\":5163:5183   */\n      tag_132\n        /* \"#utility.yul\":5181:5182   */\n      dup3\n        /* \"#utility.yul\":5163:5183   */\n      tag_60\n      jump\t// in\n    tag_132:\n        /* \"#utility.yul\":5158:5183   */\n      swap2\n      pop\n        /* \"#utility.yul\":5197:5217   */\n      tag_133\n        /* \"#utility.yul\":5215:5216   */\n      dup4\n        /* \"#utility.yul\":5197:5217   */\n      tag_60\n      jump\t// in\n    tag_133:\n        /* \"#utility.yul\":5192:5217   */\n      swap3\n      pop\n        /* \"#utility.yul\":5240:5241   */\n      dup3\n        /* \"#utility.yul\":5237:5238   */\n      dup3\n        /* \"#utility.yul\":5233:5242   */\n      add\n        /* \"#utility.yul\":5226:5242   */\n      swap1\n      pop\n        /* \"#utility.yul\":5261:5264   */\n      dup1\n        /* \"#utility.yul\":5258:5259   */\n      dup3\n        /* \"#utility.yul\":5255:5265   */\n      gt\n        /* \"#utility.yul\":5252:5288   */\n      iszero\n      tag_134\n      jumpi\n        /* \"#utility.yul\":5268:5286   */\n      tag_135\n      tag_78\n      jump\t// in\n    tag_135:\n        /* \"#utility.yul\":5252:5288   */\n    tag_134:\n        /* \"#utility.yul\":5104:5295   */\n      swap3\n      swap2\n      pop\n      pop\n      jump\t// out\n        /* \"#utility.yul\":5301:5528   */\n    tag_79:\n        /* \"#utility.yul\":5441:5475   */\n      0x506c6561736520776169742074696c6c207468652074696d65206c6f636b2067\n        /* \"#utility.yul\":5437:5438   */\n      0x00\n        /* \"#utility.yul\":5429:5435   */\n      dup3\n        /* \"#utility.yul\":5425:5439   */\n      add\n        /* \"#utility.yul\":5418:5476   */\n      mstore\n        /* \"#utility.yul\":5510:5520   */\n      0x657420656e64732e000000000000000000000000000000000000000000000000\n        /* \"#utility.yul\":5505:5507   */\n      0x20\n        /* \"#utility.yul\":5497:5503   */\n      dup3\n        /* \"#utility.yul\":5493:5508   */\n      add\n        /* \"#utility.yul\":5486:5521   */\n      mstore\n        /* \"#utility.yul\":5301:5528   */\n      pop\n      jump\t// out\n        /* \"#utility.yul\":5534:5900   */\n    tag_80:\n        /* \"#utility.yul\":5676:5679   */\n      0x00\n        /* \"#utility.yul\":5697:5764   */\n      tag_138\n        /* \"#utility.yul\":5761:5763   */\n      0x28\n        /* \"#utility.yul\":5756:5759   */\n      dup4\n        /* \"#utility.yul\":5697:5764   */\n      tag_73\n      jump\t// in\n    tag_138:\n        /* \"#utility.yul\":5690:5764   */\n      swap2\n      pop\n        /* \"#utility.yul\":5773:5866   */\n      tag_139\n        /* \"#utility.yul\":5862:5865   */\n      dup3\n        /* \"#utility.yul\":5773:5866   */\n      tag_79\n      jump\t// in\n    tag_139:\n        /* \"#utility.yul\":5891:5893   */\n      0x40\n        /* \"#utility.yul\":5886:5889   */\n      dup3\n        /* \"#utility.yul\":5882:5894   */\n      add\n        /* \"#utility.yul\":5875:5894   */\n      swap1\n      pop\n        /* \"#utility.yul\":5534:5900   */\n      swap2\n      swap1\n      pop\n      jump\t// out\n        /* \"#utility.yul\":5906:6325   */\n    tag_57:\n        /* \"#utility.yul\":6072:6076   */\n      0x00\n        /* \"#utility.yul\":6110:6112   */\n      0x20\n        /* \"#utility.yul\":6099:6108   */\n      dup3\n        /* \"#utility.yul\":6095:6113   */\n      add\n        /* \"#utility.yul\":6087:6113   */\n      swap1\n      pop\n        /* \"#utility.yul\":6159:6168   */\n      dup2\n        /* \"#utility.yul\":6153:6157   */\n      dup2\n        /* \"#utility.yul\":6149:6169   */\n      sub\n        /* \"#utility.yul\":6145:6146   */\n      0x00\n        /* \"#utility.yul\":6134:6143   */\n      dup4\n        /* \"#utility.yul\":6130:6147   */\n      add\n        /* \"#utility.yul\":6123:6170   */\n      mstore\n        /* \"#utility.yul\":6187:6318   */\n      tag_141\n        /* \"#utility.yul\":6313:6317   */\n      dup2\n        /* \"#utility.yul\":6187:6318   */\n      tag_80\n      jump\t// in\n    tag_141:\n        /* \"#utility.yul\":6179:6318   */\n      swap1\n      pop\n        /* \"#utility.yul\":5906:6325   */\n      swap2\n      swap1\n      pop\n      jump\t// out\n\n    auxdata: 0xa26469706673582212201554722acc3e8cd6010ca49dee990e6fe438bddb2dbbec6cb5fdb82302a5fb4f64736f6c63430008160033\n}\n",
				"bytecode": {
					"linkReferences": {},
					"object": "60806040526202a300600355348015610016575f80fd5b50335f806101000a81548173ffffffffffffffffffffffffffffffffffffffff021916908373ffffffffffffffffffffffffffffffffffffffff1602179055506108c2806100635f395ff3fe60806040526004361061006f575f3560e01c80638da5cb5b1161004d5780638da5cb5b146100cf578063a2ff5539146100f9578063b86247d71461010f578063fff0af171461014b5761006f565b806304554443146100735780633ba2a67e1461009d5780633ccfd60b146100b9575b5f80fd5b34801561007e575f80fd5b50610087610187565b6040516100949190610568565b60405180910390f35b6100b760048036038101906100b291906105af565b61018d565b005b3480156100c4575f80fd5b506100cd610220565b005b3480156100da575f80fd5b506100e3610354565b6040516100f09190610619565b60405180910390f35b348015610104575f80fd5b5061010d610377565b005b34801561011a575f80fd5b506101356004803603810190610130919061066d565b610526565b6040516101429190610568565b60405180910390f35b348015610156575f80fd5b50610171600480360381019061016c919061066d565b61053b565b60405161017e9190610568565b60405180910390f35b60035481565b80341015610199575f80fd5b8060015f3373ffffffffffffffffffffffffffffffffffffffff1673ffffffffffffffffffffffffffffffffffffffff1681526020019081526020015f20819055504260025f3373ffffffffffffffffffffffffffffffffffffffff1673ffffffffffffffffffffffffffffffffffffffff1681526020019081526020015f208190555050565b5f8054906101000a900473ffffffffffffffffffffffffffffffffffffffff1673ffffffffffffffffffffffffffffffffffffffff163373ffffffffffffffffffffffffffffffffffffffff16146102ad576040517f08c379a00000000000000000000000000000000000000000000000000000000081526004016102a490610718565b60405180910390fd5b5f47116102ef576040517f08c379a00000000000000000000000000000000000000000000000000000000081526004016102e690610780565b60405180910390fd5b5f8054906101000a900473ffffffffffffffffffffffffffffffffffffffff1673ffffffffffffffffffffffffffffffffffffffff166108fc4790811502906040515f60405180830381858888f19350505050158015610351573d5f803e3d5ffd5b50565b5f8054906101000a900473ffffffffffffffffffffffffffffffffffffffff1681565b60035460025f3373ffffffffffffffffffffffffffffffffffffffff1673ffffffffffffffffffffffffffffffffffffffff1681526020019081526020015f20546103c291906107cb565b421015610404576040517f08c379a00000000000000000000000000000000000000000000000000000000081526004016103fb9061086e565b60405180910390fd5b5f8054906101000a900473ffffffffffffffffffffffffffffffffffffffff1673ffffffffffffffffffffffffffffffffffffffff166108fc60015f3373ffffffffffffffffffffffffffffffffffffffff1673ffffffffffffffffffffffffffffffffffffffff1681526020019081526020015f205490811502906040515f60405180830381858888f193505050501580156104a3573d5f803e3d5ffd5b5060015f3373ffffffffffffffffffffffffffffffffffffffff1673ffffffffffffffffffffffffffffffffffffffff1681526020019081526020015f205f905560025f3373ffffffffffffffffffffffffffffffffffffffff1673ffffffffffffffffffffffffffffffffffffffff1681526020019081526020015f205f9055565b6001602052805f5260405f205f915090505481565b6002602052805f5260405f205f915090505481565b5f819050919050565b61056281610550565b82525050565b5f60208201905061057b5f830184610559565b92915050565b5f80fd5b61058e81610550565b8114610598575f80fd5b50565b5f813590506105a981610585565b92915050565b5f602082840312156105c4576105c3610581565b5b5f6105d18482850161059b565b91505092915050565b5f73ffffffffffffffffffffffffffffffffffffffff82169050919050565b5f610603826105da565b9050919050565b610613816105f9565b82525050565b5f60208201905061062c5f83018461060a565b92915050565b5f61063c826105da565b9050919050565b61064c81610632565b8114610656575f80fd5b50565b5f8135905061066781610643565b92915050565b5f6020828403121561068257610681610581565b5b5f61068f84828501610659565b91505092915050565b5f82825260208201905092915050565b7f4f6e6c79206f776e65722063616e207769746864617277207468652066756e645f8201527f7300000000000000000000000000000000000000000000000000000000000000602082015250565b5f610702602183610698565b915061070d826106a8565b604082019050919050565b5f6020820190508181035f83015261072f816106f6565b9050919050565b7f4e6f2066756e6420617661696c6162656c20746f2077697468647261772e00005f82015250565b5f61076a601e83610698565b915061077582610736565b602082019050919050565b5f6020820190508181035f8301526107978161075e565b9050919050565b7f4e487b71000000000000000000000000000000000000000000000000000000005f52601160045260245ffd5b5f6107d582610550565b91506107e083610550565b92508282019050808211156107f8576107f761079e565b5b92915050565b7f506c6561736520776169742074696c6c207468652074696d65206c6f636b20675f8201527f657420656e64732e000000000000000000000000000000000000000000000000602082015250565b5f610858602883610698565b9150610863826107fe565b604082019050919050565b5f6020820190508181035f8301526108858161084c565b905091905056fea26469706673582212201554722acc3e8cd6010ca49dee990e6fe438bddb2dbbec6cb5fdb82302a5fb4f64736f6c63430008160033",
					"opcodes": "PUSH1 0x80 PUSH1 0x40 MSTORE PUSH3 0x2A300 PUSH1 0x3 SSTORE CALLVALUE DUP1 ISZERO PUSH2 0x16 JUMPI PUSH0 DUP1 REVERT JUMPDEST POP CALLER PUSH0 DUP1 PUSH2 0x100 EXP DUP2 SLOAD DUP2 PUSH20 0xFFFFFFFFFFFFFFFFFFFFFFFFFFFFFFFFFFFFFFFF MUL NOT AND SWAP1 DUP4 PUSH20 0xFFFFFFFFFFFFFFFFFFFFFFFFFFFFFFFFFFFFFFFF AND MUL OR SWAP1 SSTORE POP PUSH2 0x8C2 DUP1 PUSH2 0x63 PUSH0 CODECOPY PUSH0 RETURN INVALID PUSH1 0x80 PUSH1 0x40 MSTORE PUSH1 0x4 CALLDATASIZE LT PUSH2 0x6F JUMPI PUSH0 CALLDATALOAD PUSH1 0xE0 SHR DUP1 PUSH4 0x8DA5CB5B GT PUSH2 0x4D JUMPI DUP1 PUSH4 0x8DA5CB5B EQ PUSH2 0xCF JUMPI DUP1 PUSH4 0xA2FF5539 EQ PUSH2 0xF9 JUMPI DUP1 PUSH4 0xB86247D7 EQ PUSH2 0x10F JUMPI DUP1 PUSH4 0xFFF0AF17 EQ PUSH2 0x14B JUMPI PUSH2 0x6F JUMP JUMPDEST DUP1 PUSH4 0x4554443 EQ PUSH2 0x73 JUMPI DUP1 PUSH4 0x3BA2A67E EQ PUSH2 0x9D JUMPI DUP1 PUSH4 0x3CCFD60B EQ PUSH2 0xB9 JUMPI JUMPDEST PUSH0 DUP1 REVERT JUMPDEST CALLVALUE DUP1 ISZERO PUSH2 0x7E JUMPI PUSH0 DUP1 REVERT JUMPDEST POP PUSH2 0x87 PUSH2 0x187 JUMP JUMPDEST PUSH1 0x40 MLOAD PUSH2 0x94 SWAP2 SWAP1 PUSH2 0x568 JUMP JUMPDEST PUSH1 0x40 MLOAD DUP1 SWAP2 SUB SWAP1 RETURN JUMPDEST PUSH2 0xB7 PUSH1 0x4 DUP1 CALLDATASIZE SUB DUP2 ADD SWAP1 PUSH2 0xB2 SWAP2 SWAP1 PUSH2 0x5AF JUMP JUMPDEST PUSH2 0x18D JUMP JUMPDEST STOP JUMPDEST CALLVALUE DUP1 ISZERO PUSH2 0xC4 JUMPI PUSH0 DUP1 REVERT JUMPDEST POP PUSH2 0xCD PUSH2 0x220 JUMP JUMPDEST STOP JUMPDEST CALLVALUE DUP1 ISZERO PUSH2 0xDA JUMPI PUSH0 DUP1 REVERT JUMPDEST POP PUSH2 0xE3 PUSH2 0x354 JUMP JUMPDEST PUSH1 0x40 MLOAD PUSH2 0xF0 SWAP2 SWAP1 PUSH2 0x619 JUMP JUMPDEST PUSH1 0x40 MLOAD DUP1 SWAP2 SUB SWAP1 RETURN JUMPDEST CALLVALUE DUP1 ISZERO PUSH2 0x104 JUMPI PUSH0 DUP1 REVERT JUMPDEST POP PUSH2 0x10D PUSH2 0x377 JUMP JUMPDEST STOP JUMPDEST CALLVALUE DUP1 ISZERO PUSH2 0x11A JUMPI PUSH0 DUP1 REVERT JUMPDEST POP PUSH2 0x135 PUSH1 0x4 DUP1 CALLDATASIZE SUB DUP2 ADD SWAP1 PUSH2 0x130 SWAP2 SWAP1 PUSH2 0x66D JUMP JUMPDEST PUSH2 0x526 JUMP JUMPDEST PUSH1 0x40 MLOAD PUSH2 0x142 SWAP2 SWAP1 PUSH2 0x568 JUMP JUMPDEST PUSH1 0x40 MLOAD DUP1 SWAP2 SUB SWAP1 RETURN JUMPDEST CALLVALUE DUP1 ISZERO PUSH2 0x156 JUMPI PUSH0 DUP1 REVERT JUMPDEST POP PUSH2 0x171 PUSH1 0x4 DUP1 CALLDATASIZE SUB DUP2 ADD SWAP1 PUSH2 0x16C SWAP2 SWAP1 PUSH2 0x66D JUMP JUMPDEST PUSH2 0x53B JUMP JUMPDEST PUSH1 0x40 MLOAD PUSH2 0x17E SWAP2 SWAP1 PUSH2 0x568 JUMP JUMPDEST PUSH1 0x40 MLOAD DUP1 SWAP2 SUB SWAP1 RETURN JUMPDEST PUSH1 0x3 SLOAD DUP2 JUMP JUMPDEST DUP1 CALLVALUE LT ISZERO PUSH2 0x199 JUMPI PUSH0 DUP1 REVERT JUMPDEST DUP1 PUSH1 0x1 PUSH0 CALLER PUSH20 0xFFFFFFFFFFFFFFFFFFFFFFFFFFFFFFFFFFFFFFFF AND PUSH20 0xFFFFFFFFFFFFFFFFFFFFFFFFFFFFFFFFFFFFFFFF AND DUP2 MSTORE PUSH1 0x20 ADD SWAP1 DUP2 MSTORE PUSH1 0x20 ADD PUSH0 KECCAK256 DUP2 SWAP1 SSTORE POP TIMESTAMP PUSH1 0x2 PUSH0 CALLER PUSH20 0xFFFFFFFFFFFFFFFFFFFFFFFFFFFFFFFFFFFFFFFF AND PUSH20 0xFFFFFFFFFFFFFFFFFFFFFFFFFFFFFFFFFFFFFFFF AND DUP2 MSTORE PUSH1 0x20 ADD SWAP1 DUP2 MSTORE PUSH1 0x20 ADD PUSH0 KECCAK256 DUP2 SWAP1 SSTORE POP POP JUMP JUMPDEST PUSH0 DUP1 SLOAD SWAP1 PUSH2 0x100 EXP SWAP1 DIV PUSH20 0xFFFFFFFFFFFFFFFFFFFFFFFFFFFFFFFFFFFFFFFF AND PUSH20 0xFFFFFFFFFFFFFFFFFFFFFFFFFFFFFFFFFFFFFFFF AND CALLER PUSH20 0xFFFFFFFFFFFFFFFFFFFFFFFFFFFFFFFFFFFFFFFF AND EQ PUSH2 0x2AD JUMPI PUSH1 0x40 MLOAD PUSH32 0x8C379A000000000000000000000000000000000000000000000000000000000 DUP2 MSTORE PUSH1 0x4 ADD PUSH2 0x2A4 SWAP1 PUSH2 0x718 JUMP JUMPDEST PUSH1 0x40 MLOAD DUP1 SWAP2 SUB SWAP1 REVERT JUMPDEST PUSH0 SELFBALANCE GT PUSH2 0x2EF JUMPI PUSH1 0x40 MLOAD PUSH32 0x8C379A000000000000000000000000000000000000000000000000000000000 DUP2 MSTORE PUSH1 0x4 ADD PUSH2 0x2E6 SWAP1 PUSH2 0x780 JUMP JUMPDEST PUSH1 0x40 MLOAD DUP1 SWAP2 SUB SWAP1 REVERT JUMPDEST PUSH0 DUP1 SLOAD SWAP1 PUSH2 0x100 EXP SWAP1 DIV PUSH20 0xFFFFFFFFFFFFFFFFFFFFFFFFFFFFFFFFFFFFFFFF AND PUSH20 0xFFFFFFFFFFFFFFFFFFFFFFFFFFFFFFFFFFFFFFFF AND PUSH2 0x8FC SELFBALANCE SWAP1 DUP2 ISZERO MUL SWAP1 PUSH1 0x40 MLOAD PUSH0 PUSH1 0x40 MLOAD DUP1 DUP4 SUB DUP2 DUP6 DUP9 DUP9 CALL SWAP4 POP POP POP POP ISZERO DUP1 ISZERO PUSH2 0x351 JUMPI RETURNDATASIZE PUSH0 DUP1 RETURNDATACOPY RETURNDATASIZE PUSH0 REVERT JUMPDEST POP JUMP JUMPDEST PUSH0 DUP1 SLOAD SWAP1 PUSH2 0x100 EXP SWAP1 DIV PUSH20 0xFFFFFFFFFFFFFFFFFFFFFFFFFFFFFFFFFFFFFFFF AND DUP2 JUMP JUMPDEST PUSH1 0x3 SLOAD PUSH1 0x2 PUSH0 CALLER PUSH20 0xFFFFFFFFFFFFFFFFFFFFFFFFFFFFFFFFFFFFFFFF AND PUSH20 0xFFFFFFFFFFFFFFFFFFFFFFFFFFFFFFFFFFFFFFFF AND DUP2 MSTORE PUSH1 0x20 ADD SWAP1 DUP2 MSTORE PUSH1 0x20 ADD PUSH0 KECCAK256 SLOAD PUSH2 0x3C2 SWAP2 SWAP1 PUSH2 0x7CB JUMP JUMPDEST TIMESTAMP LT ISZERO PUSH2 0x404 JUMPI PUSH1 0x40 MLOAD PUSH32 0x8C379A000000000000000000000000000000000000000000000000000000000 DUP2 MSTORE PUSH1 0x4 ADD PUSH2 0x3FB SWAP1 PUSH2 0x86E JUMP JUMPDEST PUSH1 0x40 MLOAD DUP1 SWAP2 SUB SWAP1 REVERT JUMPDEST PUSH0 DUP1 SLOAD SWAP1 PUSH2 0x100 EXP SWAP1 DIV PUSH20 0xFFFFFFFFFFFFFFFFFFFFFFFFFFFFFFFFFFFFFFFF AND PUSH20 0xFFFFFFFFFFFFFFFFFFFFFFFFFFFFFFFFFFFFFFFF AND PUSH2 0x8FC PUSH1 0x1 PUSH0 CALLER PUSH20 0xFFFFFFFFFFFFFFFFFFFFFFFFFFFFFFFFFFFFFFFF AND PUSH20 0xFFFFFFFFFFFFFFFFFFFFFFFFFFFFFFFFFFFFFFFF AND DUP2 MSTORE PUSH1 0x20 ADD SWAP1 DUP2 MSTORE PUSH1 0x20 ADD PUSH0 KECCAK256 SLOAD SWAP1 DUP2 ISZERO MUL SWAP1 PUSH1 0x40 MLOAD PUSH0 PUSH1 0x40 MLOAD DUP1 DUP4 SUB DUP2 DUP6 DUP9 DUP9 CALL SWAP4 POP POP POP POP ISZERO DUP1 ISZERO PUSH2 0x4A3 JUMPI RETURNDATASIZE PUSH0 DUP1 RETURNDATACOPY RETURNDATASIZE PUSH0 REVERT JUMPDEST POP PUSH1 0x1 PUSH0 CALLER PUSH20 0xFFFFFFFFFFFFFFFFFFFFFFFFFFFFFFFFFFFFFFFF AND PUSH20 0xFFFFFFFFFFFFFFFFFFFFFFFFFFFFFFFFFFFFFFFF AND DUP2 MSTORE PUSH1 0x20 ADD SWAP1 DUP2 MSTORE PUSH1 0x20 ADD PUSH0 KECCAK256 PUSH0 SWAP1 SSTORE PUSH1 0x2 PUSH0 CALLER PUSH20 0xFFFFFFFFFFFFFFFFFFFFFFFFFFFFFFFFFFFFFFFF AND PUSH20 0xFFFFFFFFFFFFFFFFFFFFFFFFFFFFFFFFFFFFFFFF AND DUP2 MSTORE PUSH1 0x20 ADD SWAP1 DUP2 MSTORE PUSH1 0x20 ADD PUSH0 KECCAK256 PUSH0 SWAP1 SSTORE JUMP JUMPDEST PUSH1 0x1 PUSH1 0x20 MSTORE DUP1 PUSH0 MSTORE PUSH1 0x40 PUSH0 KECCAK256 PUSH0 SWAP2 POP SWAP1 POP SLOAD DUP2 JUMP JUMPDEST PUSH1 0x2 PUSH1 0x20 MSTORE DUP1 PUSH0 MSTORE PUSH1 0x40 PUSH0 KECCAK256 PUSH0 SWAP2 POP SWAP1 POP SLOAD DUP2 JUMP JUMPDEST PUSH0 DUP2 SWAP1 POP SWAP2 SWAP1 POP JUMP JUMPDEST PUSH2 0x562 DUP2 PUSH2 0x550 JUMP JUMPDEST DUP3 MSTORE POP POP JUMP JUMPDEST PUSH0 PUSH1 0x20 DUP3 ADD SWAP1 POP PUSH2 0x57B PUSH0 DUP4 ADD DUP5 PUSH2 0x559 JUMP JUMPDEST SWAP3 SWAP2 POP POP JUMP JUMPDEST PUSH0 DUP1 REVERT JUMPDEST PUSH2 0x58E DUP2 PUSH2 0x550 JUMP JUMPDEST DUP2 EQ PUSH2 0x598 JUMPI PUSH0 DUP1 REVERT JUMPDEST POP JUMP JUMPDEST PUSH0 DUP2 CALLDATALOAD SWAP1 POP PUSH2 0x5A9 DUP2 PUSH2 0x585 JUMP JUMPDEST SWAP3 SWAP2 POP POP JUMP JUMPDEST PUSH0 PUSH1 0x20 DUP3 DUP5 SUB SLT ISZERO PUSH2 0x5C4 JUMPI PUSH2 0x5C3 PUSH2 0x581 JUMP JUMPDEST JUMPDEST PUSH0 PUSH2 0x5D1 DUP5 DUP3 DUP6 ADD PUSH2 0x59B JUMP JUMPDEST SWAP2 POP POP SWAP3 SWAP2 POP POP JUMP JUMPDEST PUSH0 PUSH20 0xFFFFFFFFFFFFFFFFFFFFFFFFFFFFFFFFFFFFFFFF DUP3 AND SWAP1 POP SWAP2 SWAP1 POP JUMP JUMPDEST PUSH0 PUSH2 0x603 DUP3 PUSH2 0x5DA JUMP JUMPDEST SWAP1 POP SWAP2 SWAP1 POP JUMP JUMPDEST PUSH2 0x613 DUP2 PUSH2 0x5F9 JUMP JUMPDEST DUP3 MSTORE POP POP JUMP JUMPDEST PUSH0 PUSH1 0x20 DUP3 ADD SWAP1 POP PUSH2 0x62C PUSH0 DUP4 ADD DUP5 PUSH2 0x60A JUMP JUMPDEST SWAP3 SWAP2 POP POP JUMP JUMPDEST PUSH0 PUSH2 0x63C DUP3 PUSH2 0x5DA JUMP JUMPDEST SWAP1 POP SWAP2 SWAP1 POP JUMP JUMPDEST PUSH2 0x64C DUP2 PUSH2 0x632 JUMP JUMPDEST DUP2 EQ PUSH2 0x656 JUMPI PUSH0 DUP1 REVERT JUMPDEST POP JUMP JUMPDEST PUSH0 DUP2 CALLDATALOAD SWAP1 POP PUSH2 0x667 DUP2 PUSH2 0x643 JUMP JUMPDEST SWAP3 SWAP2 POP POP JUMP JUMPDEST PUSH0 PUSH1 0x20 DUP3 DUP5 SUB SLT ISZERO PUSH2 0x682 JUMPI PUSH2 0x681 PUSH2 0x581 JUMP JUMPDEST JUMPDEST PUSH0 PUSH2 0x68F DUP5 DUP3 DUP6 ADD PUSH2 0x659 JUMP JUMPDEST SWAP2 POP POP SWAP3 SWAP2 POP POP JUMP JUMPDEST PUSH0 DUP3 DUP3 MSTORE PUSH1 0x20 DUP3 ADD SWAP1 POP SWAP3 SWAP2 POP POP JUMP JUMPDEST PUSH32 0x4F6E6C79206F776E65722063616E207769746864617277207468652066756E64 PUSH0 DUP3 ADD MSTORE PUSH32 0x7300000000000000000000000000000000000000000000000000000000000000 PUSH1 0x20 DUP3 ADD MSTORE POP JUMP JUMPDEST PUSH0 PUSH2 0x702 PUSH1 0x21 DUP4 PUSH2 0x698 JUMP JUMPDEST SWAP2 POP PUSH2 0x70D DUP3 PUSH2 0x6A8 JUMP JUMPDEST PUSH1 0x40 DUP3 ADD SWAP1 POP SWAP2 SWAP1 POP JUMP JUMPDEST PUSH0 PUSH1 0x20 DUP3 ADD SWAP1 POP DUP2 DUP2 SUB PUSH0 DUP4 ADD MSTORE PUSH2 0x72F DUP2 PUSH2 0x6F6 JUMP JUMPDEST SWAP1 POP SWAP2 SWAP1 POP JUMP JUMPDEST PUSH32 0x4E6F2066756E6420617661696C6162656C20746F2077697468647261772E0000 PUSH0 DUP3 ADD MSTORE POP JUMP JUMPDEST PUSH0 PUSH2 0x76A PUSH1 0x1E DUP4 PUSH2 0x698 JUMP JUMPDEST SWAP2 POP PUSH2 0x775 DUP3 PUSH2 0x736 JUMP JUMPDEST PUSH1 0x20 DUP3 ADD SWAP1 POP SWAP2 SWAP1 POP JUMP JUMPDEST PUSH0 PUSH1 0x20 DUP3 ADD SWAP1 POP DUP2 DUP2 SUB PUSH0 DUP4 ADD MSTORE PUSH2 0x797 DUP2 PUSH2 0x75E JUMP JUMPDEST SWAP1 POP SWAP2 SWAP1 POP JUMP JUMPDEST PUSH32 0x4E487B7100000000000000000000000000000000000000000000000000000000 PUSH0 MSTORE PUSH1 0x11 PUSH1 0x4 MSTORE PUSH1 0x24 PUSH0 REVERT JUMPDEST PUSH0 PUSH2 0x7D5 DUP3 PUSH2 0x550 JUMP JUMPDEST SWAP2 POP PUSH2 0x7E0 DUP4 PUSH2 0x550 JUMP JUMPDEST SWAP3 POP DUP3 DUP3 ADD SWAP1 POP DUP1 DUP3 GT ISZERO PUSH2 0x7F8 JUMPI PUSH2 0x7F7 PUSH2 0x79E JUMP JUMPDEST JUMPDEST SWAP3 SWAP2 POP POP JUMP JUMPDEST PUSH32 0x506C6561736520776169742074696C6C207468652074696D65206C6F636B2067 PUSH0 DUP3 ADD MSTORE PUSH32 0x657420656E64732E000000000000000000000000000000000000000000000000 PUSH1 0x20 DUP3 ADD MSTORE POP JUMP JUMPDEST PUSH0 PUSH2 0x858 PUSH1 0x28 DUP4 PUSH2 0x698 JUMP JUMPDEST SWAP2 POP PUSH2 0x863 DUP3 PUSH2 0x7FE JUMP JUMPDEST PUSH1 0x40 DUP3 ADD SWAP1 POP SWAP2 SWAP1 POP JUMP JUMPDEST PUSH0 PUSH1 0x20 DUP3 ADD SWAP1 POP DUP2 DUP2 SUB PUSH0 DUP4 ADD MSTORE PUSH2 0x885 DUP2 PUSH2 0x84C JUMP JUMPDEST SWAP1 POP SWAP2 SWAP1 POP JUMP INVALID LOG2 PUSH5 0x6970667358 0x22 SLT KECCAK256 ISZERO SLOAD PUSH19 0x2ACC3E8CD6010CA49DEE990E6FE438BDDB2DBB 0xEC PUSH13 0xB5FDB82302A5FB4F64736F6C63 NUMBER STOP ADDMOD AND STOP CALLER "
				},
				"gasEstimates": {
					"creation": {
						"codeDepositCost": "448400",
						"executionCost": "46855",
						"totalCost": "495255"
					},
					"external": {
						"lockDuration()": "2426",
						"lockFund(uint256)": "44826",
						"lockedFunds(address)": "2846",
						"lockedTimestamps(address)": "2868",
						"owner()": "2505",
						"releaseFund()": "infinite",
						"withdraw()": "infinite"
					}
				},
				"methodIdentifiers": {
					"lockDuration()": "04554443",
					"lockFund(uint256)": "3ba2a67e",
					"lockedFunds(address)": "b86247d7",
					"lockedTimestamps(address)": "fff0af17",
					"owner()": "8da5cb5b",
					"releaseFund()": "a2ff5539",
					"withdraw()": "3ccfd60b"
				}
			},
			"storageLayout": {
				"storage": [
					{
						"astId": 3,
						"contract": "Lock Fund smart contract/Lock Fund Smart Contract.sol:LockFund",
						"label": "owner",
						"offset": 0,
						"slot": "0",
						"type": "t_address_payable"
					},
					{
						"astId": 7,
						"contract": "Lock Fund smart contract/Lock Fund Smart Contract.sol:LockFund",
						"label": "lockedFunds",
						"offset": 0,
						"slot": "1",
						"type": "t_mapping(t_address,t_uint256)"
					},
					{
						"astId": 11,
						"contract": "Lock Fund smart contract/Lock Fund Smart Contract.sol:LockFund",
						"label": "lockedTimestamps",
						"offset": 0,
						"slot": "2",
						"type": "t_mapping(t_address,t_uint256)"
					},
					{
						"astId": 14,
						"contract": "Lock Fund smart contract/Lock Fund Smart Contract.sol:LockFund",
						"label": "lockDuration",
						"offset": 0,
						"slot": "3",
						"type": "t_uint256"
					}
				],
				"types": {
					"t_address": {
						"encoding": "inplace",
						"label": "address",
						"numberOfBytes": "20"
					},
					"t_address_payable": {
						"encoding": "inplace",
						"label": "address payable",
						"numberOfBytes": "20"
					},
					"t_mapping(t_address,t_uint256)": {
						"encoding": "mapping",
						"key": "t_address",
						"label": "mapping(address => uint256)",
						"numberOfBytes": "32",
						"value": "t_uint256"
					},
					"t_uint256": {
						"encoding": "inplace",
						"label": "uint256",
						"numberOfBytes": "32"
					}
				}
			},
			"userdoc": {
				"kind": "user",
				"methods": {},
				"version": 1
			}
		}
	}
}