{
	"Real Estate Industry/Advanced Real Estate Smart Contract.sol": {
		"AdvancedRealEstate": {
			"abi": [
				{
					"inputs": [],
					"stateMutability": "nonpayable",
					"type": "constructor"
				},
				{
					"anonymous": false,
					"inputs": [
						{
							"indexed": true,
							"internalType": "address",
							"name": "previousOwner",
							"type": "address"
						},
						{
							"indexed": true,
							"internalType": "address",
							"name": "newOwner",
							"type": "address"
						}
					],
					"name": "OwnershipTransferred",
					"type": "event"
				},
				{
					"anonymous": false,
					"inputs": [
						{
							"indexed": false,
							"internalType": "uint256",
							"name": "propertyId",
							"type": "uint256"
						},
						{
							"indexed": false,
							"internalType": "uint256",
							"name": "price",
							"type": "uint256"
						},
						{
							"indexed": false,
							"internalType": "string",
							"name": "name",
							"type": "string"
						},
						{
							"indexed": false,
							"internalType": "string",
							"name": "location",
							"type": "string"
						}
					],
					"name": "PropertyListed",
					"type": "event"
				},
				{
					"anonymous": false,
					"inputs": [
						{
							"indexed": false,
							"internalType": "uint256",
							"name": "propertyId",
							"type": "uint256"
						},
						{
							"indexed": false,
							"internalType": "address",
							"name": "buyer",
							"type": "address"
						},
						{
							"indexed": false,
							"internalType": "uint256",
							"name": "price",
							"type": "uint256"
						}
					],
					"name": "PropertySold",
					"type": "event"
				},
				{
					"inputs": [
						{
							"internalType": "uint256",
							"name": "propertyId",
							"type": "uint256"
						}
					],
					"name": "buyProperty",
					"outputs": [],
					"stateMutability": "payable",
					"type": "function"
				},
				{
					"inputs": [
						{
							"internalType": "uint256",
							"name": "propertyId",
							"type": "uint256"
						},
						{
							"internalType": "uint256",
							"name": "price",
							"type": "uint256"
						},
						{
							"internalType": "string",
							"name": "name",
							"type": "string"
						},
						{
							"internalType": "string",
							"name": "location",
							"type": "string"
						},
						{
							"internalType": "string",
							"name": "description",
							"type": "string"
						}
					],
					"name": "listPropertyForSale",
					"outputs": [],
					"stateMutability": "nonpayable",
					"type": "function"
				},
				{
					"inputs": [],
					"name": "owner",
					"outputs": [
						{
							"internalType": "address",
							"name": "",
							"type": "address"
						}
					],
					"stateMutability": "view",
					"type": "function"
				},
				{
					"inputs": [
						{
							"internalType": "uint256",
							"name": "",
							"type": "uint256"
						}
					],
					"name": "properties",
					"outputs": [
						{
							"internalType": "uint256",
							"name": "price",
							"type": "uint256"
						},
						{
							"internalType": "address",
							"name": "owner",
							"type": "address"
						},
						{
							"internalType": "bool",
							"name": "forSale",
							"type": "bool"
						},
						{
							"internalType": "string",
							"name": "name",
							"type": "string"
						},
						{
							"internalType": "string",
							"name": "location",
							"type": "string"
						},
						{
							"internalType": "string",
							"name": "description",
							"type": "string"
						}
					],
					"stateMutability": "view",
					"type": "function"
				},
				{
					"inputs": [
						{
							"internalType": "uint256",
							"name": "",
							"type": "uint256"
						}
					],
					"name": "propertyIds",
					"outputs": [
						{
							"internalType": "uint256",
							"name": "",
							"type": "uint256"
						}
					],
					"stateMutability": "view",
					"type": "function"
				},
				{
					"inputs": [
						{
							"internalType": "address",
							"name": "newOwner",
							"type": "address"
						}
					],
					"name": "transferOwnership",
					"outputs": [],
					"stateMutability": "nonpayable",
					"type": "function"
				}
			],
			"devdoc": {
				"kind": "dev",
				"methods": {},
				"version": 1
			},
			"evm": {
				"assembly": "    /* \"Real Estate Industry/Advanced Real Estate Smart Contract.sol\":116:2351  contract AdvancedRealEstate {... */\n  mstore(0x40, 0x80)\n    /* \"Real Estate Industry/Advanced Real Estate Smart Contract.sol\":835:940  constructor() {... */\n  callvalue\n  dup1\n  iszero\n  tag_1\n  jumpi\n  0x00\n  dup1\n  revert\ntag_1:\n  pop\n    /* \"Real Estate Industry/Advanced Real Estate Smart Contract.sol\":868:878  msg.sender */\n  caller\n    /* \"Real Estate Industry/Advanced Real Estate Smart Contract.sol\":859:865  _owner */\n  0x00\n  dup1\n    /* \"Real Estate Industry/Advanced Real Estate Smart Contract.sol\":859:878  _owner = msg.sender */\n  0x0100\n  exp\n  dup2\n  sload\n  dup2\n  0xffffffffffffffffffffffffffffffffffffffff\n  mul\n  not\n  and\n  swap1\n  dup4\n  0xffffffffffffffffffffffffffffffffffffffff\n  and\n  mul\n  or\n  swap1\n  sstore\n  pop\n    /* \"Real Estate Industry/Advanced Real Estate Smart Contract.sol\":926:932  _owner */\n  0x00\n  dup1\n  sload\n  swap1\n  0x0100\n  exp\n  swap1\n  div\n  0xffffffffffffffffffffffffffffffffffffffff\n  and\n    /* \"Real Estate Industry/Advanced Real Estate Smart Contract.sol\":893:933  OwnershipTransferred(address(0), _owner) */\n  0xffffffffffffffffffffffffffffffffffffffff\n  and\n    /* \"Real Estate Industry/Advanced Real Estate Smart Contract.sol\":922:923  0 */\n  0x00\n    /* \"Real Estate Industry/Advanced Real Estate Smart Contract.sol\":893:933  OwnershipTransferred(address(0), _owner) */\n  0xffffffffffffffffffffffffffffffffffffffff\n  and\n  0x8be0079c531659141344cd1fd0a4f28419497f9722a3daafe3b4186f6b6457e0\n  mload(0x40)\n  mload(0x40)\n  dup1\n  swap2\n  sub\n  swap1\n  log3\n    /* \"Real Estate Industry/Advanced Real Estate Smart Contract.sol\":116:2351  contract AdvancedRealEstate {... */\n  dataSize(sub_0)\n  dup1\n  dataOffset(sub_0)\n  0x00\n  codecopy\n  0x00\n  return\nstop\n\nsub_0: assembly {\n        /* \"Real Estate Industry/Advanced Real Estate Smart Contract.sol\":116:2351  contract AdvancedRealEstate {... */\n      mstore(0x40, 0x80)\n      jumpi(tag_1, lt(calldatasize, 0x04))\n      shr(0xe0, calldataload(0x00))\n      dup1\n      0x611cf614\n      eq\n      tag_2\n      jumpi\n      dup1\n      0x6fa830a6\n      eq\n      tag_3\n      jumpi\n      dup1\n      0x8da5cb5b\n      eq\n      tag_4\n      jumpi\n      dup1\n      0xd03b47f4\n      eq\n      tag_5\n      jumpi\n      dup1\n      0xf2fde38b\n      eq\n      tag_6\n      jumpi\n      dup1\n      0xf7b10808\n      eq\n      tag_7\n      jumpi\n    tag_1:\n      0x00\n      dup1\n      revert\n        /* \"Real Estate Industry/Advanced Real Estate Smart Contract.sol\":1175:1768  function listPropertyForSale(... */\n    tag_2:\n      callvalue\n      dup1\n      iszero\n      tag_8\n      jumpi\n      0x00\n      dup1\n      revert\n    tag_8:\n      pop\n      tag_9\n      0x04\n      dup1\n      calldatasize\n      sub\n      dup2\n      add\n      swap1\n      tag_10\n      swap2\n      swap1\n      tag_11\n      jump\t// in\n    tag_10:\n      tag_12\n      jump\t// in\n    tag_9:\n      stop\n        /* \"Real Estate Industry/Advanced Real Estate Smart Contract.sol\":1774:2266  function buyProperty(uint256 propertyId) public payable {... */\n    tag_3:\n      tag_13\n      0x04\n      dup1\n      calldatasize\n      sub\n      dup2\n      add\n      swap1\n      tag_14\n      swap2\n      swap1\n      tag_15\n      jump\t// in\n    tag_14:\n      tag_16\n      jump\t// in\n    tag_13:\n      stop\n        /* \"Real Estate Industry/Advanced Real Estate Smart Contract.sol\":2272:2349  function owner() public view returns (address) {... */\n    tag_4:\n      callvalue\n      dup1\n      iszero\n      tag_17\n      jumpi\n      0x00\n      dup1\n      revert\n    tag_17:\n      pop\n      tag_18\n      tag_19\n      jump\t// in\n    tag_18:\n      mload(0x40)\n      tag_20\n      swap2\n      swap1\n      tag_21\n      jump\t// in\n    tag_20:\n      mload(0x40)\n      dup1\n      swap2\n      sub\n      swap1\n      return\n        /* \"Real Estate Industry/Advanced Real Estate Smart Contract.sol\":263:291  uint256[] public propertyIds */\n    tag_5:\n      callvalue\n      dup1\n      iszero\n      tag_22\n      jumpi\n      0x00\n      dup1\n      revert\n    tag_22:\n      pop\n      tag_23\n      0x04\n      dup1\n      calldatasize\n      sub\n      dup2\n      add\n      swap1\n      tag_24\n      swap2\n      swap1\n      tag_15\n      jump\t// in\n    tag_24:\n      tag_25\n      jump\t// in\n    tag_23:\n      mload(0x40)\n      tag_26\n      swap2\n      swap1\n      tag_27\n      jump\t// in\n    tag_26:\n      mload(0x40)\n      dup1\n      swap2\n      sub\n      swap1\n      return\n        /* \"Real Estate Industry/Advanced Real Estate Smart Contract.sol\":946:1169  function transferOwnership(address newOwner) public onlyOwner {... */\n    tag_6:\n      callvalue\n      dup1\n      iszero\n      tag_28\n      jumpi\n      0x00\n      dup1\n      revert\n    tag_28:\n      pop\n      tag_29\n      0x04\n      dup1\n      calldatasize\n      sub\n      dup2\n      add\n      swap1\n      tag_30\n      swap2\n      swap1\n      tag_31\n      jump\t// in\n    tag_30:\n      tag_32\n      jump\t// in\n    tag_29:\n      stop\n        /* \"Real Estate Industry/Advanced Real Estate Smart Contract.sol\":211:257  mapping(uint256 => Property) public properties */\n    tag_7:\n      callvalue\n      dup1\n      iszero\n      tag_33\n      jumpi\n      0x00\n      dup1\n      revert\n    tag_33:\n      pop\n      tag_34\n      0x04\n      dup1\n      calldatasize\n      sub\n      dup2\n      add\n      swap1\n      tag_35\n      swap2\n      swap1\n      tag_15\n      jump\t// in\n    tag_35:\n      tag_36\n      jump\t// in\n    tag_34:\n      mload(0x40)\n      tag_37\n      swap7\n      swap6\n      swap5\n      swap4\n      swap3\n      swap2\n      swap1\n      tag_38\n      jump\t// in\n    tag_37:\n      mload(0x40)\n      dup1\n      swap2\n      sub\n      swap1\n      return\n        /* \"Real Estate Industry/Advanced Real Estate Smart Contract.sol\":1175:1768  function listPropertyForSale(... */\n    tag_12:\n        /* \"Real Estate Industry/Advanced Real Estate Smart Contract.sol\":777:783  _owner */\n      0x00\n      dup1\n      sload\n      swap1\n      0x0100\n      exp\n      swap1\n      div\n      0xffffffffffffffffffffffffffffffffffffffff\n      and\n        /* \"Real Estate Industry/Advanced Real Estate Smart Contract.sol\":763:783  msg.sender == _owner */\n      0xffffffffffffffffffffffffffffffffffffffff\n      and\n        /* \"Real Estate Industry/Advanced Real Estate Smart Contract.sol\":763:773  msg.sender */\n      caller\n        /* \"Real Estate Industry/Advanced Real Estate Smart Contract.sol\":763:783  msg.sender == _owner */\n      0xffffffffffffffffffffffffffffffffffffffff\n      and\n      eq\n        /* \"Real Estate Industry/Advanced Real Estate Smart Contract.sol\":755:811  require(msg.sender == _owner, \"Caller is not the owner\") */\n      tag_40\n      jumpi\n      mload(0x40)\n      0x08c379a000000000000000000000000000000000000000000000000000000000\n      dup2\n      mstore\n      0x04\n      add\n      tag_41\n      swap1\n      tag_42\n      jump\t// in\n    tag_41:\n      mload(0x40)\n      dup1\n      swap2\n      sub\n      swap1\n      revert\n    tag_40:\n        /* \"Real Estate Industry/Advanced Real Estate Smart Contract.sol\":1383:1410  Property memory newProperty */\n      0x00\n        /* \"Real Estate Industry/Advanced Real Estate Smart Contract.sol\":1413:1611  Property({... */\n      mload(0x40)\n      dup1\n      0xc0\n      add\n      0x40\n      mstore\n      dup1\n        /* \"Real Estate Industry/Advanced Real Estate Smart Contract.sol\":1443:1448  price */\n      dup7\n        /* \"Real Estate Industry/Advanced Real Estate Smart Contract.sol\":1413:1611  Property({... */\n      dup2\n      mstore\n      0x20\n      add\n        /* \"Real Estate Industry/Advanced Real Estate Smart Contract.sol\":1469:1479  msg.sender */\n      caller\n        /* \"Real Estate Industry/Advanced Real Estate Smart Contract.sol\":1413:1611  Property({... */\n      0xffffffffffffffffffffffffffffffffffffffff\n      and\n      dup2\n      mstore\n      0x20\n      add\n        /* \"Real Estate Industry/Advanced Real Estate Smart Contract.sol\":1502:1506  true */\n      0x01\n        /* \"Real Estate Industry/Advanced Real Estate Smart Contract.sol\":1413:1611  Property({... */\n      iszero\n      iszero\n      dup2\n      mstore\n      0x20\n      add\n        /* \"Real Estate Industry/Advanced Real Estate Smart Contract.sol\":1526:1530  name */\n      dup6\n        /* \"Real Estate Industry/Advanced Real Estate Smart Contract.sol\":1413:1611  Property({... */\n      dup2\n      mstore\n      0x20\n      add\n        /* \"Real Estate Industry/Advanced Real Estate Smart Contract.sol\":1554:1562  location */\n      dup5\n        /* \"Real Estate Industry/Advanced Real Estate Smart Contract.sol\":1413:1611  Property({... */\n      dup2\n      mstore\n      0x20\n      add\n        /* \"Real Estate Industry/Advanced Real Estate Smart Contract.sol\":1589:1600  description */\n      dup4\n        /* \"Real Estate Industry/Advanced Real Estate Smart Contract.sol\":1413:1611  Property({... */\n      dup2\n      mstore\n      pop\n        /* \"Real Estate Industry/Advanced Real Estate Smart Contract.sol\":1383:1611  Property memory newProperty = Property({... */\n      swap1\n      pop\n        /* \"Real Estate Industry/Advanced Real Estate Smart Contract.sol\":1647:1658  newProperty */\n      dup1\n        /* \"Real Estate Industry/Advanced Real Estate Smart Contract.sol\":1622:1632  properties */\n      0x01\n        /* \"Real Estate Industry/Advanced Real Estate Smart Contract.sol\":1622:1644  properties[propertyId] */\n      0x00\n        /* \"Real Estate Industry/Advanced Real Estate Smart Contract.sol\":1633:1643  propertyId */\n      dup9\n        /* \"Real Estate Industry/Advanced Real Estate Smart Contract.sol\":1622:1644  properties[propertyId] */\n      dup2\n      mstore\n      0x20\n      add\n      swap1\n      dup2\n      mstore\n      0x20\n      add\n      0x00\n      keccak256\n        /* \"Real Estate Industry/Advanced Real Estate Smart Contract.sol\":1622:1658  properties[propertyId] = newProperty */\n      0x00\n      dup3\n      add\n      mload\n      dup2\n      0x00\n      add\n      sstore\n      0x20\n      dup3\n      add\n      mload\n      dup2\n      0x01\n      add\n      exp(0x0100, 0x00)\n      dup2\n      sload\n      dup2\n      0xffffffffffffffffffffffffffffffffffffffff\n      mul\n      not\n      and\n      swap1\n      dup4\n      0xffffffffffffffffffffffffffffffffffffffff\n      and\n      mul\n      or\n      swap1\n      sstore\n      pop\n      0x40\n      dup3\n      add\n      mload\n      dup2\n      0x01\n      add\n      exp(0x0100, 0x14)\n      dup2\n      sload\n      dup2\n      0xff\n      mul\n      not\n      and\n      swap1\n      dup4\n      iszero\n      iszero\n      mul\n      or\n      swap1\n      sstore\n      pop\n      0x60\n      dup3\n      add\n      mload\n      dup2\n      0x02\n      add\n      swap1\n      dup2\n      tag_44\n      swap2\n      swap1\n      tag_45\n      jump\t// in\n    tag_44:\n      pop\n      0x80\n      dup3\n      add\n      mload\n      dup2\n      0x03\n      add\n      swap1\n      dup2\n      tag_46\n      swap2\n      swap1\n      tag_45\n      jump\t// in\n    tag_46:\n      pop\n      0xa0\n      dup3\n      add\n      mload\n      dup2\n      0x04\n      add\n      swap1\n      dup2\n      tag_47\n      swap2\n      swap1\n      tag_45\n      jump\t// in\n    tag_47:\n      pop\n      swap1\n      pop\n      pop\n        /* \"Real Estate Industry/Advanced Real Estate Smart Contract.sol\":1668:1679  propertyIds */\n      0x02\n        /* \"Real Estate Industry/Advanced Real Estate Smart Contract.sol\":1685:1695  propertyId */\n      dup7\n        /* \"Real Estate Industry/Advanced Real Estate Smart Contract.sol\":1668:1696  propertyIds.push(propertyId) */\n      swap1\n      dup1\n      0x01\n      dup2\n      sload\n      add\n      dup1\n      dup3\n      sstore\n      dup1\n      swap2\n      pop\n      pop\n      0x01\n      swap1\n      sub\n      swap1\n      0x00\n      mstore\n      keccak256(0x00, 0x20)\n      add\n      0x00\n      swap1\n      swap2\n      swap1\n      swap2\n      swap1\n      swap2\n      pop\n      sstore\n        /* \"Real Estate Industry/Advanced Real Estate Smart Contract.sol\":1712:1761  PropertyListed(propertyId, price, name, location) */\n      0x8b36ffc128c3b728d82e3efd313e19f88c942b0bfac2586c0f5882f444247924\n        /* \"Real Estate Industry/Advanced Real Estate Smart Contract.sol\":1727:1737  propertyId */\n      dup7\n        /* \"Real Estate Industry/Advanced Real Estate Smart Contract.sol\":1739:1744  price */\n      dup7\n        /* \"Real Estate Industry/Advanced Real Estate Smart Contract.sol\":1746:1750  name */\n      dup7\n        /* \"Real Estate Industry/Advanced Real Estate Smart Contract.sol\":1752:1760  location */\n      dup7\n        /* \"Real Estate Industry/Advanced Real Estate Smart Contract.sol\":1712:1761  PropertyListed(propertyId, price, name, location) */\n      mload(0x40)\n      tag_49\n      swap5\n      swap4\n      swap3\n      swap2\n      swap1\n      tag_50\n      jump\t// in\n    tag_49:\n      mload(0x40)\n      dup1\n      swap2\n      sub\n      swap1\n      log1\n        /* \"Real Estate Industry/Advanced Real Estate Smart Contract.sol\":1373:1768  {... */\n      pop\n        /* \"Real Estate Industry/Advanced Real Estate Smart Contract.sol\":1175:1768  function listPropertyForSale(... */\n      pop\n      pop\n      pop\n      pop\n      pop\n      jump\t// out\n        /* \"Real Estate Industry/Advanced Real Estate Smart Contract.sol\":1774:2266  function buyProperty(uint256 propertyId) public payable {... */\n    tag_16:\n        /* \"Real Estate Industry/Advanced Real Estate Smart Contract.sol\":1840:1865  Property storage property */\n      0x00\n        /* \"Real Estate Industry/Advanced Real Estate Smart Contract.sol\":1868:1878  properties */\n      0x01\n        /* \"Real Estate Industry/Advanced Real Estate Smart Contract.sol\":1868:1890  properties[propertyId] */\n      0x00\n        /* \"Real Estate Industry/Advanced Real Estate Smart Contract.sol\":1879:1889  propertyId */\n      dup4\n        /* \"Real Estate Industry/Advanced Real Estate Smart Contract.sol\":1868:1890  properties[propertyId] */\n      dup2\n      mstore\n      0x20\n      add\n      swap1\n      dup2\n      mstore\n      0x20\n      add\n      0x00\n      keccak256\n        /* \"Real Estate Industry/Advanced Real Estate Smart Contract.sol\":1840:1890  Property storage property = properties[propertyId] */\n      swap1\n      pop\n        /* \"Real Estate Industry/Advanced Real Estate Smart Contract.sol\":1909:1917  property */\n      dup1\n        /* \"Real Estate Industry/Advanced Real Estate Smart Contract.sol\":1909:1925  property.forSale */\n      0x01\n      add\n      0x14\n      swap1\n      sload\n      swap1\n      0x0100\n      exp\n      swap1\n      div\n      0xff\n      and\n        /* \"Real Estate Industry/Advanced Real Estate Smart Contract.sol\":1901:1955  require(property.forSale, \"Property is not for sale.\") */\n      tag_52\n      jumpi\n      mload(0x40)\n      0x08c379a000000000000000000000000000000000000000000000000000000000\n      dup2\n      mstore\n      0x04\n      add\n      tag_53\n      swap1\n      tag_54\n      jump\t// in\n    tag_53:\n      mload(0x40)\n      dup1\n      swap2\n      sub\n      swap1\n      revert\n    tag_52:\n        /* \"Real Estate Industry/Advanced Real Estate Smart Contract.sol\":1991:2000  msg.value */\n      callvalue\n        /* \"Real Estate Industry/Advanced Real Estate Smart Contract.sol\":1973:1981  property */\n      dup2\n        /* \"Real Estate Industry/Advanced Real Estate Smart Contract.sol\":1973:1987  property.price */\n      0x00\n      add\n      sload\n        /* \"Real Estate Industry/Advanced Real Estate Smart Contract.sol\":1973:2000  property.price <= msg.value */\n      gt\n      iszero\n        /* \"Real Estate Industry/Advanced Real Estate Smart Contract.sol\":1965:2023  require(property.price <= msg.value, \"Insufficient funds\") */\n      tag_55\n      jumpi\n      mload(0x40)\n      0x08c379a000000000000000000000000000000000000000000000000000000000\n      dup2\n      mstore\n      0x04\n      add\n      tag_56\n      swap1\n      tag_57\n      jump\t// in\n    tag_56:\n      mload(0x40)\n      dup1\n      swap2\n      sub\n      swap1\n      revert\n    tag_55:\n        /* \"Real Estate Industry/Advanced Real Estate Smart Contract.sol\":2034:2055  address previousOwner */\n      0x00\n        /* \"Real Estate Industry/Advanced Real Estate Smart Contract.sol\":2058:2066  property */\n      dup2\n        /* \"Real Estate Industry/Advanced Real Estate Smart Contract.sol\":2058:2072  property.owner */\n      0x01\n      add\n      0x00\n      swap1\n      sload\n      swap1\n      0x0100\n      exp\n      swap1\n      div\n      0xffffffffffffffffffffffffffffffffffffffff\n      and\n        /* \"Real Estate Industry/Advanced Real Estate Smart Contract.sol\":2034:2072  address previousOwner = property.owner */\n      swap1\n      pop\n        /* \"Real Estate Industry/Advanced Real Estate Smart Contract.sol\":2099:2109  msg.sender */\n      caller\n        /* \"Real Estate Industry/Advanced Real Estate Smart Contract.sol\":2082:2090  property */\n      dup3\n        /* \"Real Estate Industry/Advanced Real Estate Smart Contract.sol\":2082:2096  property.owner */\n      0x01\n      add\n      0x00\n        /* \"Real Estate Industry/Advanced Real Estate Smart Contract.sol\":2082:2109  property.owner = msg.sender */\n      0x0100\n      exp\n      dup2\n      sload\n      dup2\n      0xffffffffffffffffffffffffffffffffffffffff\n      mul\n      not\n      and\n      swap1\n      dup4\n      0xffffffffffffffffffffffffffffffffffffffff\n      and\n      mul\n      or\n      swap1\n      sstore\n      pop\n        /* \"Real Estate Industry/Advanced Real Estate Smart Contract.sol\":2138:2143  false */\n      0x00\n        /* \"Real Estate Industry/Advanced Real Estate Smart Contract.sol\":2119:2127  property */\n      dup3\n        /* \"Real Estate Industry/Advanced Real Estate Smart Contract.sol\":2119:2135  property.forSale */\n      0x01\n      add\n      0x14\n        /* \"Real Estate Industry/Advanced Real Estate Smart Contract.sol\":2119:2143  property.forSale = false */\n      0x0100\n      exp\n      dup2\n      sload\n      dup2\n      0xff\n      mul\n      not\n      and\n      swap1\n      dup4\n      iszero\n      iszero\n      mul\n      or\n      swap1\n      sstore\n      pop\n        /* \"Real Estate Industry/Advanced Real Estate Smart Contract.sol\":2162:2175  previousOwner */\n      dup1\n        /* \"Real Estate Industry/Advanced Real Estate Smart Contract.sol\":2154:2185  payable(previousOwner).transfer */\n      0xffffffffffffffffffffffffffffffffffffffff\n      and\n        /* \"Real Estate Industry/Advanced Real Estate Smart Contract.sol\":2154:2196  payable(previousOwner).transfer(msg.value) */\n      0x08fc\n        /* \"Real Estate Industry/Advanced Real Estate Smart Contract.sol\":2186:2195  msg.value */\n      callvalue\n        /* \"Real Estate Industry/Advanced Real Estate Smart Contract.sol\":2154:2196  payable(previousOwner).transfer(msg.value) */\n      swap1\n      dup2\n      iszero\n      mul\n      swap1\n      mload(0x40)\n      0x00\n      mload(0x40)\n      dup1\n      dup4\n      sub\n      dup2\n      dup6\n      dup9\n      dup9\n      call\n      swap4\n      pop\n      pop\n      pop\n      pop\n      iszero\n      dup1\n      iszero\n      tag_59\n      jumpi\n      returndatasize\n      0x00\n      dup1\n      returndatacopy\n      revert(0x00, returndatasize)\n    tag_59:\n      pop\n        /* \"Real Estate Industry/Advanced Real Estate Smart Contract.sol\":2212:2259  PropertySold(propertyId, msg.sender, msg.value) */\n      0xf17a6666765db393a6218bb324c4de5cc60c9ee3b981bd102ba416effc13b895\n        /* \"Real Estate Industry/Advanced Real Estate Smart Contract.sol\":2225:2235  propertyId */\n      dup4\n        /* \"Real Estate Industry/Advanced Real Estate Smart Contract.sol\":2237:2247  msg.sender */\n      caller\n        /* \"Real Estate Industry/Advanced Real Estate Smart Contract.sol\":2249:2258  msg.value */\n      callvalue\n        /* \"Real Estate Industry/Advanced Real Estate Smart Contract.sol\":2212:2259  PropertySold(propertyId, msg.sender, msg.value) */\n      mload(0x40)\n      tag_60\n      swap4\n      swap3\n      swap2\n      swap1\n      tag_61\n      jump\t// in\n    tag_60:\n      mload(0x40)\n      dup1\n      swap2\n      sub\n      swap1\n      log1\n        /* \"Real Estate Industry/Advanced Real Estate Smart Contract.sol\":1830:2266  {... */\n      pop\n      pop\n        /* \"Real Estate Industry/Advanced Real Estate Smart Contract.sol\":1774:2266  function buyProperty(uint256 propertyId) public payable {... */\n      pop\n      jump\t// out\n        /* \"Real Estate Industry/Advanced Real Estate Smart Contract.sol\":2272:2349  function owner() public view returns (address) {... */\n    tag_19:\n        /* \"Real Estate Industry/Advanced Real Estate Smart Contract.sol\":2310:2317  address */\n      0x00\n        /* \"Real Estate Industry/Advanced Real Estate Smart Contract.sol\":2336:2342  _owner */\n      dup1\n      0x00\n      swap1\n      sload\n      swap1\n      0x0100\n      exp\n      swap1\n      div\n      0xffffffffffffffffffffffffffffffffffffffff\n      and\n        /* \"Real Estate Industry/Advanced Real Estate Smart Contract.sol\":2329:2342  return _owner */\n      swap1\n      pop\n        /* \"Real Estate Industry/Advanced Real Estate Smart Contract.sol\":2272:2349  function owner() public view returns (address) {... */\n      swap1\n      jump\t// out\n        /* \"Real Estate Industry/Advanced Real Estate Smart Contract.sol\":263:291  uint256[] public propertyIds */\n    tag_25:\n      0x02\n      dup2\n      dup2\n      sload\n      dup2\n      lt\n      tag_63\n      jumpi\n      0x00\n      dup1\n      revert\n    tag_63:\n      swap1\n      0x00\n      mstore\n      keccak256(0x00, 0x20)\n      add\n      0x00\n      swap2\n      pop\n      swap1\n      pop\n      sload\n      dup2\n      jump\t// out\n        /* \"Real Estate Industry/Advanced Real Estate Smart Contract.sol\":946:1169  function transferOwnership(address newOwner) public onlyOwner {... */\n    tag_32:\n        /* \"Real Estate Industry/Advanced Real Estate Smart Contract.sol\":777:783  _owner */\n      0x00\n      dup1\n      sload\n      swap1\n      0x0100\n      exp\n      swap1\n      div\n      0xffffffffffffffffffffffffffffffffffffffff\n      and\n        /* \"Real Estate Industry/Advanced Real Estate Smart Contract.sol\":763:783  msg.sender == _owner */\n      0xffffffffffffffffffffffffffffffffffffffff\n      and\n        /* \"Real Estate Industry/Advanced Real Estate Smart Contract.sol\":763:773  msg.sender */\n      caller\n        /* \"Real Estate Industry/Advanced Real Estate Smart Contract.sol\":763:783  msg.sender == _owner */\n      0xffffffffffffffffffffffffffffffffffffffff\n      and\n      eq\n        /* \"Real Estate Industry/Advanced Real Estate Smart Contract.sol\":755:811  require(msg.sender == _owner, \"Caller is not the owner\") */\n      tag_66\n      jumpi\n      mload(0x40)\n      0x08c379a000000000000000000000000000000000000000000000000000000000\n      dup2\n      mstore\n      0x04\n      add\n      tag_67\n      swap1\n      tag_42\n      jump\t// in\n    tag_67:\n      mload(0x40)\n      dup1\n      swap2\n      sub\n      swap1\n      revert\n    tag_66:\n        /* \"Real Estate Industry/Advanced Real Estate Smart Contract.sol\":1046:1047  0 */\n      0x00\n        /* \"Real Estate Industry/Advanced Real Estate Smart Contract.sol\":1026:1048  newOwner != address(0) */\n      0xffffffffffffffffffffffffffffffffffffffff\n      and\n        /* \"Real Estate Industry/Advanced Real Estate Smart Contract.sol\":1026:1034  newOwner */\n      dup2\n        /* \"Real Estate Industry/Advanced Real Estate Smart Contract.sol\":1026:1048  newOwner != address(0) */\n      0xffffffffffffffffffffffffffffffffffffffff\n      and\n      sub\n        /* \"Real Estate Industry/Advanced Real Estate Smart Contract.sol\":1018:1082  require(newOwner != address(0), \"New owner is the zero address\") */\n      tag_69\n      jumpi\n      mload(0x40)\n      0x08c379a000000000000000000000000000000000000000000000000000000000\n      dup2\n      mstore\n      0x04\n      add\n      tag_70\n      swap1\n      tag_71\n      jump\t// in\n    tag_70:\n      mload(0x40)\n      dup1\n      swap2\n      sub\n      swap1\n      revert\n    tag_69:\n        /* \"Real Estate Industry/Advanced Real Estate Smart Contract.sol\":1126:1134  newOwner */\n      dup1\n        /* \"Real Estate Industry/Advanced Real Estate Smart Contract.sol\":1097:1135  OwnershipTransferred(_owner, newOwner) */\n      0xffffffffffffffffffffffffffffffffffffffff\n      and\n        /* \"Real Estate Industry/Advanced Real Estate Smart Contract.sol\":1118:1124  _owner */\n      0x00\n      dup1\n      sload\n      swap1\n      0x0100\n      exp\n      swap1\n      div\n      0xffffffffffffffffffffffffffffffffffffffff\n      and\n        /* \"Real Estate Industry/Advanced Real Estate Smart Contract.sol\":1097:1135  OwnershipTransferred(_owner, newOwner) */\n      0xffffffffffffffffffffffffffffffffffffffff\n      and\n      0x8be0079c531659141344cd1fd0a4f28419497f9722a3daafe3b4186f6b6457e0\n      mload(0x40)\n      mload(0x40)\n      dup1\n      swap2\n      sub\n      swap1\n      log3\n        /* \"Real Estate Industry/Advanced Real Estate Smart Contract.sol\":1154:1162  newOwner */\n      dup1\n        /* \"Real Estate Industry/Advanced Real Estate Smart Contract.sol\":1145:1151  _owner */\n      0x00\n      dup1\n        /* \"Real Estate Industry/Advanced Real Estate Smart Contract.sol\":1145:1162  _owner = newOwner */\n      0x0100\n      exp\n      dup2\n      sload\n      dup2\n      0xffffffffffffffffffffffffffffffffffffffff\n      mul\n      not\n      and\n      swap1\n      dup4\n      0xffffffffffffffffffffffffffffffffffffffff\n      and\n      mul\n      or\n      swap1\n      sstore\n      pop\n        /* \"Real Estate Industry/Advanced Real Estate Smart Contract.sol\":946:1169  function transferOwnership(address newOwner) public onlyOwner {... */\n      pop\n      jump\t// out\n        /* \"Real Estate Industry/Advanced Real Estate Smart Contract.sol\":211:257  mapping(uint256 => Property) public properties */\n    tag_36:\n      mstore(0x20, 0x01)\n      dup1\n      0x00\n      mstore\n      keccak256(0x00, 0x40)\n      0x00\n      swap2\n      pop\n      swap1\n      pop\n      dup1\n      0x00\n      add\n      sload\n      swap1\n      dup1\n      0x01\n      add\n      0x00\n      swap1\n      sload\n      swap1\n      0x0100\n      exp\n      swap1\n      div\n      0xffffffffffffffffffffffffffffffffffffffff\n      and\n      swap1\n      dup1\n      0x01\n      add\n      0x14\n      swap1\n      sload\n      swap1\n      0x0100\n      exp\n      swap1\n      div\n      0xff\n      and\n      swap1\n      dup1\n      0x02\n      add\n      dup1\n      sload\n      tag_72\n      swap1\n      tag_73\n      jump\t// in\n    tag_72:\n      dup1\n      0x1f\n      add\n      0x20\n      dup1\n      swap2\n      div\n      mul\n      0x20\n      add\n      mload(0x40)\n      swap1\n      dup2\n      add\n      0x40\n      mstore\n      dup1\n      swap3\n      swap2\n      swap1\n      dup2\n      dup2\n      mstore\n      0x20\n      add\n      dup3\n      dup1\n      sload\n      tag_74\n      swap1\n      tag_73\n      jump\t// in\n    tag_74:\n      dup1\n      iszero\n      tag_75\n      jumpi\n      dup1\n      0x1f\n      lt\n      tag_76\n      jumpi\n      0x0100\n      dup1\n      dup4\n      sload\n      div\n      mul\n      dup4\n      mstore\n      swap2\n      0x20\n      add\n      swap2\n      jump(tag_75)\n    tag_76:\n      dup3\n      add\n      swap2\n      swap1\n      0x00\n      mstore\n      keccak256(0x00, 0x20)\n      swap1\n    tag_77:\n      dup2\n      sload\n      dup2\n      mstore\n      swap1\n      0x01\n      add\n      swap1\n      0x20\n      add\n      dup1\n      dup4\n      gt\n      tag_77\n      jumpi\n      dup3\n      swap1\n      sub\n      0x1f\n      and\n      dup3\n      add\n      swap2\n    tag_75:\n      pop\n      pop\n      pop\n      pop\n      pop\n      swap1\n      dup1\n      0x03\n      add\n      dup1\n      sload\n      tag_78\n      swap1\n      tag_73\n      jump\t// in\n    tag_78:\n      dup1\n      0x1f\n      add\n      0x20\n      dup1\n      swap2\n      div\n      mul\n      0x20\n      add\n      mload(0x40)\n      swap1\n      dup2\n      add\n      0x40\n      mstore\n      dup1\n      swap3\n      swap2\n      swap1\n      dup2\n      dup2\n      mstore\n      0x20\n      add\n      dup3\n      dup1\n      sload\n      tag_79\n      swap1\n      tag_73\n      jump\t// in\n    tag_79:\n      dup1\n      iszero\n      tag_80\n      jumpi\n      dup1\n      0x1f\n      lt\n      tag_81\n      jumpi\n      0x0100\n      dup1\n      dup4\n      sload\n      div\n      mul\n      dup4\n      mstore\n      swap2\n      0x20\n      add\n      swap2\n      jump(tag_80)\n    tag_81:\n      dup3\n      add\n      swap2\n      swap1\n      0x00\n      mstore\n      keccak256(0x00, 0x20)\n      swap1\n    tag_82:\n      dup2\n      sload\n      dup2\n      mstore\n      swap1\n      0x01\n      add\n      swap1\n      0x20\n      add\n      dup1\n      dup4\n      gt\n      tag_82\n      jumpi\n      dup3\n      swap1\n      sub\n      0x1f\n      and\n      dup3\n      add\n      swap2\n    tag_80:\n      pop\n      pop\n      pop\n      pop\n      pop\n      swap1\n      dup1\n      0x04\n      add\n      dup1\n      sload\n      tag_83\n      swap1\n      tag_73\n      jump\t// in\n    tag_83:\n      dup1\n      0x1f\n      add\n      0x20\n      dup1\n      swap2\n      div\n      mul\n      0x20\n      add\n      mload(0x40)\n      swap1\n      dup2\n      add\n      0x40\n      mstore\n      dup1\n      swap3\n      swap2\n      swap1\n      dup2\n      dup2\n      mstore\n      0x20\n      add\n      dup3\n      dup1\n      sload\n      tag_84\n      swap1\n      tag_73\n      jump\t// in\n    tag_84:\n      dup1\n      iszero\n      tag_85\n      jumpi\n      dup1\n      0x1f\n      lt\n      tag_86\n      jumpi\n      0x0100\n      dup1\n      dup4\n      sload\n      div\n      mul\n      dup4\n      mstore\n      swap2\n      0x20\n      add\n      swap2\n      jump(tag_85)\n    tag_86:\n      dup3\n      add\n      swap2\n      swap1\n      0x00\n      mstore\n      keccak256(0x00, 0x20)\n      swap1\n    tag_87:\n      dup2\n      sload\n      dup2\n      mstore\n      swap1\n      0x01\n      add\n      swap1\n      0x20\n      add\n      dup1\n      dup4\n      gt\n      tag_87\n      jumpi\n      dup3\n      swap1\n      sub\n      0x1f\n      and\n      dup3\n      add\n      swap2\n    tag_85:\n      pop\n      pop\n      pop\n      pop\n      pop\n      swap1\n      pop\n      dup7\n      jump\t// out\n        /* \"#utility.yul\":7:82   */\n    tag_88:\n        /* \"#utility.yul\":40:46   */\n      0x00\n        /* \"#utility.yul\":73:75   */\n      0x40\n        /* \"#utility.yul\":67:76   */\n      mload\n        /* \"#utility.yul\":57:76   */\n      swap1\n      pop\n        /* \"#utility.yul\":7:82   */\n      swap1\n      jump\t// out\n        /* \"#utility.yul\":88:205   */\n    tag_89:\n        /* \"#utility.yul\":197:198   */\n      0x00\n        /* \"#utility.yul\":194:195   */\n      dup1\n        /* \"#utility.yul\":187:199   */\n      revert\n        /* \"#utility.yul\":211:328   */\n    tag_90:\n        /* \"#utility.yul\":320:321   */\n      0x00\n        /* \"#utility.yul\":317:318   */\n      dup1\n        /* \"#utility.yul\":310:322   */\n      revert\n        /* \"#utility.yul\":334:411   */\n    tag_91:\n        /* \"#utility.yul\":371:378   */\n      0x00\n        /* \"#utility.yul\":400:405   */\n      dup2\n        /* \"#utility.yul\":389:405   */\n      swap1\n      pop\n        /* \"#utility.yul\":334:411   */\n      swap2\n      swap1\n      pop\n      jump\t// out\n        /* \"#utility.yul\":417:539   */\n    tag_92:\n        /* \"#utility.yul\":490:514   */\n      tag_146\n        /* \"#utility.yul\":508:513   */\n      dup2\n        /* \"#utility.yul\":490:514   */\n      tag_91\n      jump\t// in\n    tag_146:\n        /* \"#utility.yul\":483:488   */\n      dup2\n        /* \"#utility.yul\":480:515   */\n      eq\n        /* \"#utility.yul\":470:533   */\n      tag_147\n      jumpi\n        /* \"#utility.yul\":529:530   */\n      0x00\n        /* \"#utility.yul\":526:527   */\n      dup1\n        /* \"#utility.yul\":519:531   */\n      revert\n        /* \"#utility.yul\":470:533   */\n    tag_147:\n        /* \"#utility.yul\":417:539   */\n      pop\n      jump\t// out\n        /* \"#utility.yul\":545:684   */\n    tag_93:\n        /* \"#utility.yul\":591:596   */\n      0x00\n        /* \"#utility.yul\":629:635   */\n      dup2\n        /* \"#utility.yul\":616:636   */\n      calldataload\n        /* \"#utility.yul\":607:636   */\n      swap1\n      pop\n        /* \"#utility.yul\":645:678   */\n      tag_149\n        /* \"#utility.yul\":672:677   */\n      dup2\n        /* \"#utility.yul\":645:678   */\n      tag_92\n      jump\t// in\n    tag_149:\n        /* \"#utility.yul\":545:684   */\n      swap3\n      swap2\n      pop\n      pop\n      jump\t// out\n        /* \"#utility.yul\":690:807   */\n    tag_94:\n        /* \"#utility.yul\":799:800   */\n      0x00\n        /* \"#utility.yul\":796:797   */\n      dup1\n        /* \"#utility.yul\":789:801   */\n      revert\n        /* \"#utility.yul\":813:930   */\n    tag_95:\n        /* \"#utility.yul\":922:923   */\n      0x00\n        /* \"#utility.yul\":919:920   */\n      dup1\n        /* \"#utility.yul\":912:924   */\n      revert\n        /* \"#utility.yul\":936:1038   */\n    tag_96:\n        /* \"#utility.yul\":977:983   */\n      0x00\n        /* \"#utility.yul\":1028:1030   */\n      0x1f\n        /* \"#utility.yul\":1024:1031   */\n      not\n        /* \"#utility.yul\":1019:1021   */\n      0x1f\n        /* \"#utility.yul\":1012:1017   */\n      dup4\n        /* \"#utility.yul\":1008:1022   */\n      add\n        /* \"#utility.yul\":1004:1032   */\n      and\n        /* \"#utility.yul\":994:1032   */\n      swap1\n      pop\n        /* \"#utility.yul\":936:1038   */\n      swap2\n      swap1\n      pop\n      jump\t// out\n        /* \"#utility.yul\":1044:1224   */\n    tag_97:\n        /* \"#utility.yul\":1092:1169   */\n      0x4e487b7100000000000000000000000000000000000000000000000000000000\n        /* \"#utility.yul\":1089:1090   */\n      0x00\n        /* \"#utility.yul\":1082:1170   */\n      mstore\n        /* \"#utility.yul\":1189:1193   */\n      0x41\n        /* \"#utility.yul\":1186:1187   */\n      0x04\n        /* \"#utility.yul\":1179:1194   */\n      mstore\n        /* \"#utility.yul\":1213:1217   */\n      0x24\n        /* \"#utility.yul\":1210:1211   */\n      0x00\n        /* \"#utility.yul\":1203:1218   */\n      revert\n        /* \"#utility.yul\":1230:1511   */\n    tag_98:\n        /* \"#utility.yul\":1313:1340   */\n      tag_155\n        /* \"#utility.yul\":1335:1339   */\n      dup3\n        /* \"#utility.yul\":1313:1340   */\n      tag_96\n      jump\t// in\n    tag_155:\n        /* \"#utility.yul\":1305:1311   */\n      dup2\n        /* \"#utility.yul\":1301:1341   */\n      add\n        /* \"#utility.yul\":1443:1449   */\n      dup2\n        /* \"#utility.yul\":1431:1441   */\n      dup2\n        /* \"#utility.yul\":1428:1450   */\n      lt\n        /* \"#utility.yul\":1407:1425   */\n      0xffffffffffffffff\n        /* \"#utility.yul\":1395:1405   */\n      dup3\n        /* \"#utility.yul\":1392:1426   */\n      gt\n        /* \"#utility.yul\":1389:1451   */\n      or\n        /* \"#utility.yul\":1386:1474   */\n      iszero\n      tag_156\n      jumpi\n        /* \"#utility.yul\":1454:1472   */\n      tag_157\n      tag_97\n      jump\t// in\n    tag_157:\n        /* \"#utility.yul\":1386:1474   */\n    tag_156:\n        /* \"#utility.yul\":1494:1504   */\n      dup1\n        /* \"#utility.yul\":1490:1492   */\n      0x40\n        /* \"#utility.yul\":1483:1505   */\n      mstore\n        /* \"#utility.yul\":1273:1511   */\n      pop\n        /* \"#utility.yul\":1230:1511   */\n      pop\n      pop\n      jump\t// out\n        /* \"#utility.yul\":1517:1646   */\n    tag_99:\n        /* \"#utility.yul\":1551:1557   */\n      0x00\n        /* \"#utility.yul\":1578:1598   */\n      tag_159\n      tag_88\n      jump\t// in\n    tag_159:\n        /* \"#utility.yul\":1568:1598   */\n      swap1\n      pop\n        /* \"#utility.yul\":1607:1640   */\n      tag_160\n        /* \"#utility.yul\":1635:1639   */\n      dup3\n        /* \"#utility.yul\":1627:1633   */\n      dup3\n        /* \"#utility.yul\":1607:1640   */\n      tag_98\n      jump\t// in\n    tag_160:\n        /* \"#utility.yul\":1517:1646   */\n      swap2\n      swap1\n      pop\n      jump\t// out\n        /* \"#utility.yul\":1652:1960   */\n    tag_100:\n        /* \"#utility.yul\":1714:1718   */\n      0x00\n        /* \"#utility.yul\":1804:1822   */\n      0xffffffffffffffff\n        /* \"#utility.yul\":1796:1802   */\n      dup3\n        /* \"#utility.yul\":1793:1823   */\n      gt\n        /* \"#utility.yul\":1790:1846   */\n      iszero\n      tag_162\n      jumpi\n        /* \"#utility.yul\":1826:1844   */\n      tag_163\n      tag_97\n      jump\t// in\n    tag_163:\n        /* \"#utility.yul\":1790:1846   */\n    tag_162:\n        /* \"#utility.yul\":1864:1893   */\n      tag_164\n        /* \"#utility.yul\":1886:1892   */\n      dup3\n        /* \"#utility.yul\":1864:1893   */\n      tag_96\n      jump\t// in\n    tag_164:\n        /* \"#utility.yul\":1856:1893   */\n      swap1\n      pop\n        /* \"#utility.yul\":1948:1952   */\n      0x20\n        /* \"#utility.yul\":1942:1946   */\n      dup2\n        /* \"#utility.yul\":1938:1953   */\n      add\n        /* \"#utility.yul\":1930:1953   */\n      swap1\n      pop\n        /* \"#utility.yul\":1652:1960   */\n      swap2\n      swap1\n      pop\n      jump\t// out\n        /* \"#utility.yul\":1966:2112   */\n    tag_101:\n        /* \"#utility.yul\":2063:2069   */\n      dup3\n        /* \"#utility.yul\":2058:2061   */\n      dup2\n        /* \"#utility.yul\":2053:2056   */\n      dup4\n        /* \"#utility.yul\":2040:2070   */\n      calldatacopy\n        /* \"#utility.yul\":2104:2105   */\n      0x00\n        /* \"#utility.yul\":2095:2101   */\n      dup4\n        /* \"#utility.yul\":2090:2093   */\n      dup4\n        /* \"#utility.yul\":2086:2102   */\n      add\n        /* \"#utility.yul\":2079:2106   */\n      mstore\n        /* \"#utility.yul\":1966:2112   */\n      pop\n      pop\n      pop\n      jump\t// out\n        /* \"#utility.yul\":2118:2543   */\n    tag_102:\n        /* \"#utility.yul\":2196:2201   */\n      0x00\n        /* \"#utility.yul\":2221:2287   */\n      tag_167\n        /* \"#utility.yul\":2237:2286   */\n      tag_168\n        /* \"#utility.yul\":2279:2285   */\n      dup5\n        /* \"#utility.yul\":2237:2286   */\n      tag_100\n      jump\t// in\n    tag_168:\n        /* \"#utility.yul\":2221:2287   */\n      tag_99\n      jump\t// in\n    tag_167:\n        /* \"#utility.yul\":2212:2287   */\n      swap1\n      pop\n        /* \"#utility.yul\":2310:2316   */\n      dup3\n        /* \"#utility.yul\":2303:2308   */\n      dup2\n        /* \"#utility.yul\":2296:2317   */\n      mstore\n        /* \"#utility.yul\":2348:2352   */\n      0x20\n        /* \"#utility.yul\":2341:2346   */\n      dup2\n        /* \"#utility.yul\":2337:2353   */\n      add\n        /* \"#utility.yul\":2386:2389   */\n      dup5\n        /* \"#utility.yul\":2377:2383   */\n      dup5\n        /* \"#utility.yul\":2372:2375   */\n      dup5\n        /* \"#utility.yul\":2368:2384   */\n      add\n        /* \"#utility.yul\":2365:2390   */\n      gt\n        /* \"#utility.yul\":2362:2474   */\n      iszero\n      tag_169\n      jumpi\n        /* \"#utility.yul\":2393:2472   */\n      tag_170\n      tag_95\n      jump\t// in\n    tag_170:\n        /* \"#utility.yul\":2362:2474   */\n    tag_169:\n        /* \"#utility.yul\":2483:2537   */\n      tag_171\n        /* \"#utility.yul\":2530:2536   */\n      dup5\n        /* \"#utility.yul\":2525:2528   */\n      dup3\n        /* \"#utility.yul\":2520:2523   */\n      dup6\n        /* \"#utility.yul\":2483:2537   */\n      tag_101\n      jump\t// in\n    tag_171:\n        /* \"#utility.yul\":2202:2543   */\n      pop\n        /* \"#utility.yul\":2118:2543   */\n      swap4\n      swap3\n      pop\n      pop\n      pop\n      jump\t// out\n        /* \"#utility.yul\":2563:2903   */\n    tag_103:\n        /* \"#utility.yul\":2619:2624   */\n      0x00\n        /* \"#utility.yul\":2668:2671   */\n      dup3\n        /* \"#utility.yul\":2661:2665   */\n      0x1f\n        /* \"#utility.yul\":2653:2659   */\n      dup4\n        /* \"#utility.yul\":2649:2666   */\n      add\n        /* \"#utility.yul\":2645:2672   */\n      slt\n        /* \"#utility.yul\":2635:2757   */\n      tag_173\n      jumpi\n        /* \"#utility.yul\":2676:2755   */\n      tag_174\n      tag_94\n      jump\t// in\n    tag_174:\n        /* \"#utility.yul\":2635:2757   */\n    tag_173:\n        /* \"#utility.yul\":2793:2799   */\n      dup2\n        /* \"#utility.yul\":2780:2800   */\n      calldataload\n        /* \"#utility.yul\":2818:2897   */\n      tag_175\n        /* \"#utility.yul\":2893:2896   */\n      dup5\n        /* \"#utility.yul\":2885:2891   */\n      dup3\n        /* \"#utility.yul\":2878:2882   */\n      0x20\n        /* \"#utility.yul\":2870:2876   */\n      dup7\n        /* \"#utility.yul\":2866:2883   */\n      add\n        /* \"#utility.yul\":2818:2897   */\n      tag_102\n      jump\t// in\n    tag_175:\n        /* \"#utility.yul\":2809:2897   */\n      swap2\n      pop\n        /* \"#utility.yul\":2625:2903   */\n      pop\n        /* \"#utility.yul\":2563:2903   */\n      swap3\n      swap2\n      pop\n      pop\n      jump\t// out\n        /* \"#utility.yul\":2909:4360   */\n    tag_11:\n        /* \"#utility.yul\":3034:3040   */\n      0x00\n        /* \"#utility.yul\":3042:3048   */\n      dup1\n        /* \"#utility.yul\":3050:3056   */\n      0x00\n        /* \"#utility.yul\":3058:3064   */\n      dup1\n        /* \"#utility.yul\":3066:3072   */\n      0x00\n        /* \"#utility.yul\":3115:3118   */\n      0xa0\n        /* \"#utility.yul\":3103:3112   */\n      dup7\n        /* \"#utility.yul\":3094:3101   */\n      dup9\n        /* \"#utility.yul\":3090:3113   */\n      sub\n        /* \"#utility.yul\":3086:3119   */\n      slt\n        /* \"#utility.yul\":3083:3203   */\n      iszero\n      tag_177\n      jumpi\n        /* \"#utility.yul\":3122:3201   */\n      tag_178\n      tag_89\n      jump\t// in\n    tag_178:\n        /* \"#utility.yul\":3083:3203   */\n    tag_177:\n        /* \"#utility.yul\":3242:3243   */\n      0x00\n        /* \"#utility.yul\":3267:3320   */\n      tag_179\n        /* \"#utility.yul\":3312:3319   */\n      dup9\n        /* \"#utility.yul\":3303:3309   */\n      dup3\n        /* \"#utility.yul\":3292:3301   */\n      dup10\n        /* \"#utility.yul\":3288:3310   */\n      add\n        /* \"#utility.yul\":3267:3320   */\n      tag_93\n      jump\t// in\n    tag_179:\n        /* \"#utility.yul\":3257:3320   */\n      swap6\n      pop\n        /* \"#utility.yul\":3213:3330   */\n      pop\n        /* \"#utility.yul\":3369:3371   */\n      0x20\n        /* \"#utility.yul\":3395:3448   */\n      tag_180\n        /* \"#utility.yul\":3440:3447   */\n      dup9\n        /* \"#utility.yul\":3431:3437   */\n      dup3\n        /* \"#utility.yul\":3420:3429   */\n      dup10\n        /* \"#utility.yul\":3416:3438   */\n      add\n        /* \"#utility.yul\":3395:3448   */\n      tag_93\n      jump\t// in\n    tag_180:\n        /* \"#utility.yul\":3385:3448   */\n      swap5\n      pop\n        /* \"#utility.yul\":3340:3458   */\n      pop\n        /* \"#utility.yul\":3525:3527   */\n      0x40\n        /* \"#utility.yul\":3514:3523   */\n      dup7\n        /* \"#utility.yul\":3510:3528   */\n      add\n        /* \"#utility.yul\":3497:3529   */\n      calldataload\n        /* \"#utility.yul\":3556:3574   */\n      0xffffffffffffffff\n        /* \"#utility.yul\":3548:3554   */\n      dup2\n        /* \"#utility.yul\":3545:3575   */\n      gt\n        /* \"#utility.yul\":3542:3659   */\n      iszero\n      tag_181\n      jumpi\n        /* \"#utility.yul\":3578:3657   */\n      tag_182\n      tag_90\n      jump\t// in\n    tag_182:\n        /* \"#utility.yul\":3542:3659   */\n    tag_181:\n        /* \"#utility.yul\":3683:3746   */\n      tag_183\n        /* \"#utility.yul\":3738:3745   */\n      dup9\n        /* \"#utility.yul\":3729:3735   */\n      dup3\n        /* \"#utility.yul\":3718:3727   */\n      dup10\n        /* \"#utility.yul\":3714:3736   */\n      add\n        /* \"#utility.yul\":3683:3746   */\n      tag_103\n      jump\t// in\n    tag_183:\n        /* \"#utility.yul\":3673:3746   */\n      swap4\n      pop\n        /* \"#utility.yul\":3468:3756   */\n      pop\n        /* \"#utility.yul\":3823:3825   */\n      0x60\n        /* \"#utility.yul\":3812:3821   */\n      dup7\n        /* \"#utility.yul\":3808:3826   */\n      add\n        /* \"#utility.yul\":3795:3827   */\n      calldataload\n        /* \"#utility.yul\":3854:3872   */\n      0xffffffffffffffff\n        /* \"#utility.yul\":3846:3852   */\n      dup2\n        /* \"#utility.yul\":3843:3873   */\n      gt\n        /* \"#utility.yul\":3840:3957   */\n      iszero\n      tag_184\n      jumpi\n        /* \"#utility.yul\":3876:3955   */\n      tag_185\n      tag_90\n      jump\t// in\n    tag_185:\n        /* \"#utility.yul\":3840:3957   */\n    tag_184:\n        /* \"#utility.yul\":3981:4044   */\n      tag_186\n        /* \"#utility.yul\":4036:4043   */\n      dup9\n        /* \"#utility.yul\":4027:4033   */\n      dup3\n        /* \"#utility.yul\":4016:4025   */\n      dup10\n        /* \"#utility.yul\":4012:4034   */\n      add\n        /* \"#utility.yul\":3981:4044   */\n      tag_103\n      jump\t// in\n    tag_186:\n        /* \"#utility.yul\":3971:4044   */\n      swap3\n      pop\n        /* \"#utility.yul\":3766:4054   */\n      pop\n        /* \"#utility.yul\":4121:4124   */\n      0x80\n        /* \"#utility.yul\":4110:4119   */\n      dup7\n        /* \"#utility.yul\":4106:4125   */\n      add\n        /* \"#utility.yul\":4093:4126   */\n      calldataload\n        /* \"#utility.yul\":4153:4171   */\n      0xffffffffffffffff\n        /* \"#utility.yul\":4145:4151   */\n      dup2\n        /* \"#utility.yul\":4142:4172   */\n      gt\n        /* \"#utility.yul\":4139:4256   */\n      iszero\n      tag_187\n      jumpi\n        /* \"#utility.yul\":4175:4254   */\n      tag_188\n      tag_90\n      jump\t// in\n    tag_188:\n        /* \"#utility.yul\":4139:4256   */\n    tag_187:\n        /* \"#utility.yul\":4280:4343   */\n      tag_189\n        /* \"#utility.yul\":4335:4342   */\n      dup9\n        /* \"#utility.yul\":4326:4332   */\n      dup3\n        /* \"#utility.yul\":4315:4324   */\n      dup10\n        /* \"#utility.yul\":4311:4333   */\n      add\n        /* \"#utility.yul\":4280:4343   */\n      tag_103\n      jump\t// in\n    tag_189:\n        /* \"#utility.yul\":4270:4343   */\n      swap2\n      pop\n        /* \"#utility.yul\":4064:4353   */\n      pop\n        /* \"#utility.yul\":2909:4360   */\n      swap3\n      swap6\n      pop\n      swap3\n      swap6\n      swap1\n      swap4\n      pop\n      jump\t// out\n        /* \"#utility.yul\":4366:4695   */\n    tag_15:\n        /* \"#utility.yul\":4425:4431   */\n      0x00\n        /* \"#utility.yul\":4474:4476   */\n      0x20\n        /* \"#utility.yul\":4462:4471   */\n      dup3\n        /* \"#utility.yul\":4453:4460   */\n      dup5\n        /* \"#utility.yul\":4449:4472   */\n      sub\n        /* \"#utility.yul\":4445:4477   */\n      slt\n        /* \"#utility.yul\":4442:4561   */\n      iszero\n      tag_191\n      jumpi\n        /* \"#utility.yul\":4480:4559   */\n      tag_192\n      tag_89\n      jump\t// in\n    tag_192:\n        /* \"#utility.yul\":4442:4561   */\n    tag_191:\n        /* \"#utility.yul\":4600:4601   */\n      0x00\n        /* \"#utility.yul\":4625:4678   */\n      tag_193\n        /* \"#utility.yul\":4670:4677   */\n      dup5\n        /* \"#utility.yul\":4661:4667   */\n      dup3\n        /* \"#utility.yul\":4650:4659   */\n      dup6\n        /* \"#utility.yul\":4646:4668   */\n      add\n        /* \"#utility.yul\":4625:4678   */\n      tag_93\n      jump\t// in\n    tag_193:\n        /* \"#utility.yul\":4615:4678   */\n      swap2\n      pop\n        /* \"#utility.yul\":4571:4688   */\n      pop\n        /* \"#utility.yul\":4366:4695   */\n      swap3\n      swap2\n      pop\n      pop\n      jump\t// out\n        /* \"#utility.yul\":4701:4827   */\n    tag_104:\n        /* \"#utility.yul\":4738:4745   */\n      0x00\n        /* \"#utility.yul\":4778:4820   */\n      0xffffffffffffffffffffffffffffffffffffffff\n        /* \"#utility.yul\":4771:4776   */\n      dup3\n        /* \"#utility.yul\":4767:4821   */\n      and\n        /* \"#utility.yul\":4756:4821   */\n      swap1\n      pop\n        /* \"#utility.yul\":4701:4827   */\n      swap2\n      swap1\n      pop\n      jump\t// out\n        /* \"#utility.yul\":4833:4929   */\n    tag_105:\n        /* \"#utility.yul\":4870:4877   */\n      0x00\n        /* \"#utility.yul\":4899:4923   */\n      tag_196\n        /* \"#utility.yul\":4917:4922   */\n      dup3\n        /* \"#utility.yul\":4899:4923   */\n      tag_104\n      jump\t// in\n    tag_196:\n        /* \"#utility.yul\":4888:4923   */\n      swap1\n      pop\n        /* \"#utility.yul\":4833:4929   */\n      swap2\n      swap1\n      pop\n      jump\t// out\n        /* \"#utility.yul\":4935:5053   */\n    tag_106:\n        /* \"#utility.yul\":5022:5046   */\n      tag_198\n        /* \"#utility.yul\":5040:5045   */\n      dup2\n        /* \"#utility.yul\":5022:5046   */\n      tag_105\n      jump\t// in\n    tag_198:\n        /* \"#utility.yul\":5017:5020   */\n      dup3\n        /* \"#utility.yul\":5010:5047   */\n      mstore\n        /* \"#utility.yul\":4935:5053   */\n      pop\n      pop\n      jump\t// out\n        /* \"#utility.yul\":5059:5281   */\n    tag_21:\n        /* \"#utility.yul\":5152:5156   */\n      0x00\n        /* \"#utility.yul\":5190:5192   */\n      0x20\n        /* \"#utility.yul\":5179:5188   */\n      dup3\n        /* \"#utility.yul\":5175:5193   */\n      add\n        /* \"#utility.yul\":5167:5193   */\n      swap1\n      pop\n        /* \"#utility.yul\":5203:5274   */\n      tag_200\n        /* \"#utility.yul\":5271:5272   */\n      0x00\n        /* \"#utility.yul\":5260:5269   */\n      dup4\n        /* \"#utility.yul\":5256:5273   */\n      add\n        /* \"#utility.yul\":5247:5253   */\n      dup5\n        /* \"#utility.yul\":5203:5274   */\n      tag_106\n      jump\t// in\n    tag_200:\n        /* \"#utility.yul\":5059:5281   */\n      swap3\n      swap2\n      pop\n      pop\n      jump\t// out\n        /* \"#utility.yul\":5287:5405   */\n    tag_107:\n        /* \"#utility.yul\":5374:5398   */\n      tag_202\n        /* \"#utility.yul\":5392:5397   */\n      dup2\n        /* \"#utility.yul\":5374:5398   */\n      tag_91\n      jump\t// in\n    tag_202:\n        /* \"#utility.yul\":5369:5372   */\n      dup3\n        /* \"#utility.yul\":5362:5399   */\n      mstore\n        /* \"#utility.yul\":5287:5405   */\n      pop\n      pop\n      jump\t// out\n        /* \"#utility.yul\":5411:5633   */\n    tag_27:\n        /* \"#utility.yul\":5504:5508   */\n      0x00\n        /* \"#utility.yul\":5542:5544   */\n      0x20\n        /* \"#utility.yul\":5531:5540   */\n      dup3\n        /* \"#utility.yul\":5527:5545   */\n      add\n        /* \"#utility.yul\":5519:5545   */\n      swap1\n      pop\n        /* \"#utility.yul\":5555:5626   */\n      tag_204\n        /* \"#utility.yul\":5623:5624   */\n      0x00\n        /* \"#utility.yul\":5612:5621   */\n      dup4\n        /* \"#utility.yul\":5608:5625   */\n      add\n        /* \"#utility.yul\":5599:5605   */\n      dup5\n        /* \"#utility.yul\":5555:5626   */\n      tag_107\n      jump\t// in\n    tag_204:\n        /* \"#utility.yul\":5411:5633   */\n      swap3\n      swap2\n      pop\n      pop\n      jump\t// out\n        /* \"#utility.yul\":5639:5761   */\n    tag_108:\n        /* \"#utility.yul\":5712:5736   */\n      tag_206\n        /* \"#utility.yul\":5730:5735   */\n      dup2\n        /* \"#utility.yul\":5712:5736   */\n      tag_105\n      jump\t// in\n    tag_206:\n        /* \"#utility.yul\":5705:5710   */\n      dup2\n        /* \"#utility.yul\":5702:5737   */\n      eq\n        /* \"#utility.yul\":5692:5755   */\n      tag_207\n      jumpi\n        /* \"#utility.yul\":5751:5752   */\n      0x00\n        /* \"#utility.yul\":5748:5749   */\n      dup1\n        /* \"#utility.yul\":5741:5753   */\n      revert\n        /* \"#utility.yul\":5692:5755   */\n    tag_207:\n        /* \"#utility.yul\":5639:5761   */\n      pop\n      jump\t// out\n        /* \"#utility.yul\":5767:5906   */\n    tag_109:\n        /* \"#utility.yul\":5813:5818   */\n      0x00\n        /* \"#utility.yul\":5851:5857   */\n      dup2\n        /* \"#utility.yul\":5838:5858   */\n      calldataload\n        /* \"#utility.yul\":5829:5858   */\n      swap1\n      pop\n        /* \"#utility.yul\":5867:5900   */\n      tag_209\n        /* \"#utility.yul\":5894:5899   */\n      dup2\n        /* \"#utility.yul\":5867:5900   */\n      tag_108\n      jump\t// in\n    tag_209:\n        /* \"#utility.yul\":5767:5906   */\n      swap3\n      swap2\n      pop\n      pop\n      jump\t// out\n        /* \"#utility.yul\":5912:6241   */\n    tag_31:\n        /* \"#utility.yul\":5971:5977   */\n      0x00\n        /* \"#utility.yul\":6020:6022   */\n      0x20\n        /* \"#utility.yul\":6008:6017   */\n      dup3\n        /* \"#utility.yul\":5999:6006   */\n      dup5\n        /* \"#utility.yul\":5995:6018   */\n      sub\n        /* \"#utility.yul\":5991:6023   */\n      slt\n        /* \"#utility.yul\":5988:6107   */\n      iszero\n      tag_211\n      jumpi\n        /* \"#utility.yul\":6026:6105   */\n      tag_212\n      tag_89\n      jump\t// in\n    tag_212:\n        /* \"#utility.yul\":5988:6107   */\n    tag_211:\n        /* \"#utility.yul\":6146:6147   */\n      0x00\n        /* \"#utility.yul\":6171:6224   */\n      tag_213\n        /* \"#utility.yul\":6216:6223   */\n      dup5\n        /* \"#utility.yul\":6207:6213   */\n      dup3\n        /* \"#utility.yul\":6196:6205   */\n      dup6\n        /* \"#utility.yul\":6192:6214   */\n      add\n        /* \"#utility.yul\":6171:6224   */\n      tag_109\n      jump\t// in\n    tag_213:\n        /* \"#utility.yul\":6161:6224   */\n      swap2\n      pop\n        /* \"#utility.yul\":6117:6234   */\n      pop\n        /* \"#utility.yul\":5912:6241   */\n      swap3\n      swap2\n      pop\n      pop\n      jump\t// out\n        /* \"#utility.yul\":6247:6337   */\n    tag_110:\n        /* \"#utility.yul\":6281:6288   */\n      0x00\n        /* \"#utility.yul\":6324:6329   */\n      dup2\n        /* \"#utility.yul\":6317:6330   */\n      iszero\n        /* \"#utility.yul\":6310:6331   */\n      iszero\n        /* \"#utility.yul\":6299:6331   */\n      swap1\n      pop\n        /* \"#utility.yul\":6247:6337   */\n      swap2\n      swap1\n      pop\n      jump\t// out\n        /* \"#utility.yul\":6343:6452   */\n    tag_111:\n        /* \"#utility.yul\":6424:6445   */\n      tag_216\n        /* \"#utility.yul\":6439:6444   */\n      dup2\n        /* \"#utility.yul\":6424:6445   */\n      tag_110\n      jump\t// in\n    tag_216:\n        /* \"#utility.yul\":6419:6422   */\n      dup3\n        /* \"#utility.yul\":6412:6446   */\n      mstore\n        /* \"#utility.yul\":6343:6452   */\n      pop\n      pop\n      jump\t// out\n        /* \"#utility.yul\":6458:6557   */\n    tag_112:\n        /* \"#utility.yul\":6510:6516   */\n      0x00\n        /* \"#utility.yul\":6544:6549   */\n      dup2\n        /* \"#utility.yul\":6538:6550   */\n      mload\n        /* \"#utility.yul\":6528:6550   */\n      swap1\n      pop\n        /* \"#utility.yul\":6458:6557   */\n      swap2\n      swap1\n      pop\n      jump\t// out\n        /* \"#utility.yul\":6563:6732   */\n    tag_113:\n        /* \"#utility.yul\":6647:6658   */\n      0x00\n        /* \"#utility.yul\":6681:6687   */\n      dup3\n        /* \"#utility.yul\":6676:6679   */\n      dup3\n        /* \"#utility.yul\":6669:6688   */\n      mstore\n        /* \"#utility.yul\":6721:6725   */\n      0x20\n        /* \"#utility.yul\":6716:6719   */\n      dup3\n        /* \"#utility.yul\":6712:6726   */\n      add\n        /* \"#utility.yul\":6697:6726   */\n      swap1\n      pop\n        /* \"#utility.yul\":6563:6732   */\n      swap3\n      swap2\n      pop\n      pop\n      jump\t// out\n        /* \"#utility.yul\":6738:6984   */\n    tag_114:\n        /* \"#utility.yul\":6819:6820   */\n      0x00\n        /* \"#utility.yul\":6829:6942   */\n    tag_220:\n        /* \"#utility.yul\":6843:6849   */\n      dup4\n        /* \"#utility.yul\":6840:6841   */\n      dup2\n        /* \"#utility.yul\":6837:6850   */\n      lt\n        /* \"#utility.yul\":6829:6942   */\n      iszero\n      tag_222\n      jumpi\n        /* \"#utility.yul\":6928:6929   */\n      dup1\n        /* \"#utility.yul\":6923:6926   */\n      dup3\n        /* \"#utility.yul\":6919:6930   */\n      add\n        /* \"#utility.yul\":6913:6931   */\n      mload\n        /* \"#utility.yul\":6909:6910   */\n      dup2\n        /* \"#utility.yul\":6904:6907   */\n      dup5\n        /* \"#utility.yul\":6900:6911   */\n      add\n        /* \"#utility.yul\":6893:6932   */\n      mstore\n        /* \"#utility.yul\":6865:6867   */\n      0x20\n        /* \"#utility.yul\":6862:6863   */\n      dup2\n        /* \"#utility.yul\":6858:6868   */\n      add\n        /* \"#utility.yul\":6853:6868   */\n      swap1\n      pop\n        /* \"#utility.yul\":6829:6942   */\n      jump(tag_220)\n    tag_222:\n        /* \"#utility.yul\":6976:6977   */\n      0x00\n        /* \"#utility.yul\":6967:6973   */\n      dup5\n        /* \"#utility.yul\":6962:6965   */\n      dup5\n        /* \"#utility.yul\":6958:6974   */\n      add\n        /* \"#utility.yul\":6951:6978   */\n      mstore\n        /* \"#utility.yul\":6800:6984   */\n      pop\n        /* \"#utility.yul\":6738:6984   */\n      pop\n      pop\n      pop\n      jump\t// out\n        /* \"#utility.yul\":6990:7367   */\n    tag_115:\n        /* \"#utility.yul\":7078:7081   */\n      0x00\n        /* \"#utility.yul\":7106:7145   */\n      tag_224\n        /* \"#utility.yul\":7139:7144   */\n      dup3\n        /* \"#utility.yul\":7106:7145   */\n      tag_112\n      jump\t// in\n    tag_224:\n        /* \"#utility.yul\":7161:7232   */\n      tag_225\n        /* \"#utility.yul\":7225:7231   */\n      dup2\n        /* \"#utility.yul\":7220:7223   */\n      dup6\n        /* \"#utility.yul\":7161:7232   */\n      tag_113\n      jump\t// in\n    tag_225:\n        /* \"#utility.yul\":7154:7232   */\n      swap4\n      pop\n        /* \"#utility.yul\":7241:7306   */\n      tag_226\n        /* \"#utility.yul\":7299:7305   */\n      dup2\n        /* \"#utility.yul\":7294:7297   */\n      dup6\n        /* \"#utility.yul\":7287:7291   */\n      0x20\n        /* \"#utility.yul\":7280:7285   */\n      dup7\n        /* \"#utility.yul\":7276:7292   */\n      add\n        /* \"#utility.yul\":7241:7306   */\n      tag_114\n      jump\t// in\n    tag_226:\n        /* \"#utility.yul\":7331:7360   */\n      tag_227\n        /* \"#utility.yul\":7353:7359   */\n      dup2\n        /* \"#utility.yul\":7331:7360   */\n      tag_96\n      jump\t// in\n    tag_227:\n        /* \"#utility.yul\":7326:7329   */\n      dup5\n        /* \"#utility.yul\":7322:7361   */\n      add\n        /* \"#utility.yul\":7315:7361   */\n      swap2\n      pop\n        /* \"#utility.yul\":7082:7367   */\n      pop\n        /* \"#utility.yul\":6990:7367   */\n      swap3\n      swap2\n      pop\n      pop\n      jump\t// out\n        /* \"#utility.yul\":7373:8409   */\n    tag_38:\n        /* \"#utility.yul\":7660:7664   */\n      0x00\n        /* \"#utility.yul\":7698:7701   */\n      0xc0\n        /* \"#utility.yul\":7687:7696   */\n      dup3\n        /* \"#utility.yul\":7683:7702   */\n      add\n        /* \"#utility.yul\":7675:7702   */\n      swap1\n      pop\n        /* \"#utility.yul\":7712:7783   */\n      tag_229\n        /* \"#utility.yul\":7780:7781   */\n      0x00\n        /* \"#utility.yul\":7769:7778   */\n      dup4\n        /* \"#utility.yul\":7765:7782   */\n      add\n        /* \"#utility.yul\":7756:7762   */\n      dup10\n        /* \"#utility.yul\":7712:7783   */\n      tag_107\n      jump\t// in\n    tag_229:\n        /* \"#utility.yul\":7793:7865   */\n      tag_230\n        /* \"#utility.yul\":7861:7863   */\n      0x20\n        /* \"#utility.yul\":7850:7859   */\n      dup4\n        /* \"#utility.yul\":7846:7864   */\n      add\n        /* \"#utility.yul\":7837:7843   */\n      dup9\n        /* \"#utility.yul\":7793:7865   */\n      tag_106\n      jump\t// in\n    tag_230:\n        /* \"#utility.yul\":7875:7941   */\n      tag_231\n        /* \"#utility.yul\":7937:7939   */\n      0x40\n        /* \"#utility.yul\":7926:7935   */\n      dup4\n        /* \"#utility.yul\":7922:7940   */\n      add\n        /* \"#utility.yul\":7913:7919   */\n      dup8\n        /* \"#utility.yul\":7875:7941   */\n      tag_111\n      jump\t// in\n    tag_231:\n        /* \"#utility.yul\":7988:7997   */\n      dup2\n        /* \"#utility.yul\":7982:7986   */\n      dup2\n        /* \"#utility.yul\":7978:7998   */\n      sub\n        /* \"#utility.yul\":7973:7975   */\n      0x60\n        /* \"#utility.yul\":7962:7971   */\n      dup4\n        /* \"#utility.yul\":7958:7976   */\n      add\n        /* \"#utility.yul\":7951:7999   */\n      mstore\n        /* \"#utility.yul\":8016:8094   */\n      tag_232\n        /* \"#utility.yul\":8089:8093   */\n      dup2\n        /* \"#utility.yul\":8080:8086   */\n      dup7\n        /* \"#utility.yul\":8016:8094   */\n      tag_115\n      jump\t// in\n    tag_232:\n        /* \"#utility.yul\":8008:8094   */\n      swap1\n      pop\n        /* \"#utility.yul\":8142:8151   */\n      dup2\n        /* \"#utility.yul\":8136:8140   */\n      dup2\n        /* \"#utility.yul\":8132:8152   */\n      sub\n        /* \"#utility.yul\":8126:8129   */\n      0x80\n        /* \"#utility.yul\":8115:8124   */\n      dup4\n        /* \"#utility.yul\":8111:8130   */\n      add\n        /* \"#utility.yul\":8104:8153   */\n      mstore\n        /* \"#utility.yul\":8170:8248   */\n      tag_233\n        /* \"#utility.yul\":8243:8247   */\n      dup2\n        /* \"#utility.yul\":8234:8240   */\n      dup6\n        /* \"#utility.yul\":8170:8248   */\n      tag_115\n      jump\t// in\n    tag_233:\n        /* \"#utility.yul\":8162:8248   */\n      swap1\n      pop\n        /* \"#utility.yul\":8296:8305   */\n      dup2\n        /* \"#utility.yul\":8290:8294   */\n      dup2\n        /* \"#utility.yul\":8286:8306   */\n      sub\n        /* \"#utility.yul\":8280:8283   */\n      0xa0\n        /* \"#utility.yul\":8269:8278   */\n      dup4\n        /* \"#utility.yul\":8265:8284   */\n      add\n        /* \"#utility.yul\":8258:8307   */\n      mstore\n        /* \"#utility.yul\":8324:8402   */\n      tag_234\n        /* \"#utility.yul\":8397:8401   */\n      dup2\n        /* \"#utility.yul\":8388:8394   */\n      dup5\n        /* \"#utility.yul\":8324:8402   */\n      tag_115\n      jump\t// in\n    tag_234:\n        /* \"#utility.yul\":8316:8402   */\n      swap1\n      pop\n        /* \"#utility.yul\":7373:8409   */\n      swap8\n      swap7\n      pop\n      pop\n      pop\n      pop\n      pop\n      pop\n      pop\n      jump\t// out\n        /* \"#utility.yul\":8415:8588   */\n    tag_116:\n        /* \"#utility.yul\":8555:8580   */\n      0x43616c6c6572206973206e6f7420746865206f776e6572000000000000000000\n        /* \"#utility.yul\":8551:8552   */\n      0x00\n        /* \"#utility.yul\":8543:8549   */\n      dup3\n        /* \"#utility.yul\":8539:8553   */\n      add\n        /* \"#utility.yul\":8532:8581   */\n      mstore\n        /* \"#utility.yul\":8415:8588   */\n      pop\n      jump\t// out\n        /* \"#utility.yul\":8594:8960   */\n    tag_117:\n        /* \"#utility.yul\":8736:8739   */\n      0x00\n        /* \"#utility.yul\":8757:8824   */\n      tag_237\n        /* \"#utility.yul\":8821:8823   */\n      0x17\n        /* \"#utility.yul\":8816:8819   */\n      dup4\n        /* \"#utility.yul\":8757:8824   */\n      tag_113\n      jump\t// in\n    tag_237:\n        /* \"#utility.yul\":8750:8824   */\n      swap2\n      pop\n        /* \"#utility.yul\":8833:8926   */\n      tag_238\n        /* \"#utility.yul\":8922:8925   */\n      dup3\n        /* \"#utility.yul\":8833:8926   */\n      tag_116\n      jump\t// in\n    tag_238:\n        /* \"#utility.yul\":8951:8953   */\n      0x20\n        /* \"#utility.yul\":8946:8949   */\n      dup3\n        /* \"#utility.yul\":8942:8954   */\n      add\n        /* \"#utility.yul\":8935:8954   */\n      swap1\n      pop\n        /* \"#utility.yul\":8594:8960   */\n      swap2\n      swap1\n      pop\n      jump\t// out\n        /* \"#utility.yul\":8966:9385   */\n    tag_42:\n        /* \"#utility.yul\":9132:9136   */\n      0x00\n        /* \"#utility.yul\":9170:9172   */\n      0x20\n        /* \"#utility.yul\":9159:9168   */\n      dup3\n        /* \"#utility.yul\":9155:9173   */\n      add\n        /* \"#utility.yul\":9147:9173   */\n      swap1\n      pop\n        /* \"#utility.yul\":9219:9228   */\n      dup2\n        /* \"#utility.yul\":9213:9217   */\n      dup2\n        /* \"#utility.yul\":9209:9229   */\n      sub\n        /* \"#utility.yul\":9205:9206   */\n      0x00\n        /* \"#utility.yul\":9194:9203   */\n      dup4\n        /* \"#utility.yul\":9190:9207   */\n      add\n        /* \"#utility.yul\":9183:9230   */\n      mstore\n        /* \"#utility.yul\":9247:9378   */\n      tag_240\n        /* \"#utility.yul\":9373:9377   */\n      dup2\n        /* \"#utility.yul\":9247:9378   */\n      tag_117\n      jump\t// in\n    tag_240:\n        /* \"#utility.yul\":9239:9378   */\n      swap1\n      pop\n        /* \"#utility.yul\":8966:9385   */\n      swap2\n      swap1\n      pop\n      jump\t// out\n        /* \"#utility.yul\":9391:9571   */\n    tag_118:\n        /* \"#utility.yul\":9439:9516   */\n      0x4e487b7100000000000000000000000000000000000000000000000000000000\n        /* \"#utility.yul\":9436:9437   */\n      0x00\n        /* \"#utility.yul\":9429:9517   */\n      mstore\n        /* \"#utility.yul\":9536:9540   */\n      0x22\n        /* \"#utility.yul\":9533:9534   */\n      0x04\n        /* \"#utility.yul\":9526:9541   */\n      mstore\n        /* \"#utility.yul\":9560:9564   */\n      0x24\n        /* \"#utility.yul\":9557:9558   */\n      0x00\n        /* \"#utility.yul\":9550:9565   */\n      revert\n        /* \"#utility.yul\":9577:9897   */\n    tag_73:\n        /* \"#utility.yul\":9621:9627   */\n      0x00\n        /* \"#utility.yul\":9658:9659   */\n      0x02\n        /* \"#utility.yul\":9652:9656   */\n      dup3\n        /* \"#utility.yul\":9648:9660   */\n      div\n        /* \"#utility.yul\":9638:9660   */\n      swap1\n      pop\n        /* \"#utility.yul\":9705:9706   */\n      0x01\n        /* \"#utility.yul\":9699:9703   */\n      dup3\n        /* \"#utility.yul\":9695:9707   */\n      and\n        /* \"#utility.yul\":9726:9744   */\n      dup1\n        /* \"#utility.yul\":9716:9797   */\n      tag_243\n      jumpi\n        /* \"#utility.yul\":9782:9786   */\n      0x7f\n        /* \"#utility.yul\":9774:9780   */\n      dup3\n        /* \"#utility.yul\":9770:9787   */\n      and\n        /* \"#utility.yul\":9760:9787   */\n      swap2\n      pop\n        /* \"#utility.yul\":9716:9797   */\n    tag_243:\n        /* \"#utility.yul\":9844:9846   */\n      0x20\n        /* \"#utility.yul\":9836:9842   */\n      dup3\n        /* \"#utility.yul\":9833:9847   */\n      lt\n        /* \"#utility.yul\":9813:9831   */\n      dup2\n        /* \"#utility.yul\":9810:9848   */\n      sub\n        /* \"#utility.yul\":9807:9891   */\n      tag_244\n      jumpi\n        /* \"#utility.yul\":9863:9881   */\n      tag_245\n      tag_118\n      jump\t// in\n    tag_245:\n        /* \"#utility.yul\":9807:9891   */\n    tag_244:\n        /* \"#utility.yul\":9628:9897   */\n      pop\n        /* \"#utility.yul\":9577:9897   */\n      swap2\n      swap1\n      pop\n      jump\t// out\n        /* \"#utility.yul\":9903:10044   */\n    tag_119:\n        /* \"#utility.yul\":9952:9956   */\n      0x00\n        /* \"#utility.yul\":9975:9978   */\n      dup2\n        /* \"#utility.yul\":9967:9978   */\n      swap1\n      pop\n        /* \"#utility.yul\":9998:10001   */\n      dup2\n        /* \"#utility.yul\":9995:9996   */\n      0x00\n        /* \"#utility.yul\":9988:10002   */\n      mstore\n        /* \"#utility.yul\":10032:10036   */\n      0x20\n        /* \"#utility.yul\":10029:10030   */\n      0x00\n        /* \"#utility.yul\":10019:10037   */\n      keccak256\n        /* \"#utility.yul\":10011:10037   */\n      swap1\n      pop\n        /* \"#utility.yul\":9903:10044   */\n      swap2\n      swap1\n      pop\n      jump\t// out\n        /* \"#utility.yul\":10050:10143   */\n    tag_120:\n        /* \"#utility.yul\":10087:10093   */\n      0x00\n        /* \"#utility.yul\":10134:10136   */\n      0x20\n        /* \"#utility.yul\":10129:10131   */\n      0x1f\n        /* \"#utility.yul\":10122:10127   */\n      dup4\n        /* \"#utility.yul\":10118:10132   */\n      add\n        /* \"#utility.yul\":10114:10137   */\n      div\n        /* \"#utility.yul\":10104:10137   */\n      swap1\n      pop\n        /* \"#utility.yul\":10050:10143   */\n      swap2\n      swap1\n      pop\n      jump\t// out\n        /* \"#utility.yul\":10149:10256   */\n    tag_121:\n        /* \"#utility.yul\":10193:10201   */\n      0x00\n        /* \"#utility.yul\":10243:10248   */\n      dup3\n        /* \"#utility.yul\":10237:10241   */\n      dup3\n        /* \"#utility.yul\":10233:10249   */\n      shl\n        /* \"#utility.yul\":10212:10249   */\n      swap1\n      pop\n        /* \"#utility.yul\":10149:10256   */\n      swap3\n      swap2\n      pop\n      pop\n      jump\t// out\n        /* \"#utility.yul\":10262:10655   */\n    tag_122:\n        /* \"#utility.yul\":10331:10337   */\n      0x00\n        /* \"#utility.yul\":10381:10382   */\n      0x08\n        /* \"#utility.yul\":10369:10379   */\n      dup4\n        /* \"#utility.yul\":10365:10383   */\n      mul\n        /* \"#utility.yul\":10404:10501   */\n      tag_250\n        /* \"#utility.yul\":10434:10500   */\n      0xffffffffffffffffffffffffffffffffffffffffffffffffffffffffffffffff\n        /* \"#utility.yul\":10423:10432   */\n      dup3\n        /* \"#utility.yul\":10404:10501   */\n      tag_121\n      jump\t// in\n    tag_250:\n        /* \"#utility.yul\":10522:10561   */\n      tag_251\n        /* \"#utility.yul\":10552:10560   */\n      dup7\n        /* \"#utility.yul\":10541:10550   */\n      dup4\n        /* \"#utility.yul\":10522:10561   */\n      tag_121\n      jump\t// in\n    tag_251:\n        /* \"#utility.yul\":10510:10561   */\n      swap6\n      pop\n        /* \"#utility.yul\":10594:10598   */\n      dup1\n        /* \"#utility.yul\":10590:10599   */\n      not\n        /* \"#utility.yul\":10583:10588   */\n      dup5\n        /* \"#utility.yul\":10579:10600   */\n      and\n        /* \"#utility.yul\":10570:10600   */\n      swap4\n      pop\n        /* \"#utility.yul\":10643:10647   */\n      dup1\n        /* \"#utility.yul\":10633:10641   */\n      dup7\n        /* \"#utility.yul\":10629:10648   */\n      and\n        /* \"#utility.yul\":10622:10627   */\n      dup5\n        /* \"#utility.yul\":10619:10649   */\n      or\n        /* \"#utility.yul\":10609:10649   */\n      swap3\n      pop\n        /* \"#utility.yul\":10338:10655   */\n      pop\n      pop\n        /* \"#utility.yul\":10262:10655   */\n      swap4\n      swap3\n      pop\n      pop\n      pop\n      jump\t// out\n        /* \"#utility.yul\":10661:10721   */\n    tag_123:\n        /* \"#utility.yul\":10689:10692   */\n      0x00\n        /* \"#utility.yul\":10710:10715   */\n      dup2\n        /* \"#utility.yul\":10703:10715   */\n      swap1\n      pop\n        /* \"#utility.yul\":10661:10721   */\n      swap2\n      swap1\n      pop\n      jump\t// out\n        /* \"#utility.yul\":10727:10869   */\n    tag_124:\n        /* \"#utility.yul\":10777:10786   */\n      0x00\n        /* \"#utility.yul\":10810:10863   */\n      tag_254\n        /* \"#utility.yul\":10828:10862   */\n      tag_255\n        /* \"#utility.yul\":10837:10861   */\n      tag_256\n        /* \"#utility.yul\":10855:10860   */\n      dup5\n        /* \"#utility.yul\":10837:10861   */\n      tag_91\n      jump\t// in\n    tag_256:\n        /* \"#utility.yul\":10828:10862   */\n      tag_123\n      jump\t// in\n    tag_255:\n        /* \"#utility.yul\":10810:10863   */\n      tag_91\n      jump\t// in\n    tag_254:\n        /* \"#utility.yul\":10797:10863   */\n      swap1\n      pop\n        /* \"#utility.yul\":10727:10869   */\n      swap2\n      swap1\n      pop\n      jump\t// out\n        /* \"#utility.yul\":10875:10950   */\n    tag_125:\n        /* \"#utility.yul\":10918:10921   */\n      0x00\n        /* \"#utility.yul\":10939:10944   */\n      dup2\n        /* \"#utility.yul\":10932:10944   */\n      swap1\n      pop\n        /* \"#utility.yul\":10875:10950   */\n      swap2\n      swap1\n      pop\n      jump\t// out\n        /* \"#utility.yul\":10956:11225   */\n    tag_126:\n        /* \"#utility.yul\":11066:11105   */\n      tag_259\n        /* \"#utility.yul\":11097:11104   */\n      dup4\n        /* \"#utility.yul\":11066:11105   */\n      tag_124\n      jump\t// in\n    tag_259:\n        /* \"#utility.yul\":11127:11218   */\n      tag_260\n        /* \"#utility.yul\":11176:11217   */\n      tag_261\n        /* \"#utility.yul\":11200:11216   */\n      dup3\n        /* \"#utility.yul\":11176:11217   */\n      tag_125\n      jump\t// in\n    tag_261:\n        /* \"#utility.yul\":11168:11174   */\n      dup5\n        /* \"#utility.yul\":11161:11165   */\n      dup5\n        /* \"#utility.yul\":11155:11166   */\n      sload\n        /* \"#utility.yul\":11127:11218   */\n      tag_122\n      jump\t// in\n    tag_260:\n        /* \"#utility.yul\":11121:11125   */\n      dup3\n        /* \"#utility.yul\":11114:11219   */\n      sstore\n        /* \"#utility.yul\":11032:11225   */\n      pop\n        /* \"#utility.yul\":10956:11225   */\n      pop\n      pop\n      pop\n      jump\t// out\n        /* \"#utility.yul\":11231:11304   */\n    tag_127:\n        /* \"#utility.yul\":11276:11279   */\n      0x00\n        /* \"#utility.yul\":11231:11304   */\n      swap1\n      jump\t// out\n        /* \"#utility.yul\":11310:11499   */\n    tag_128:\n        /* \"#utility.yul\":11387:11419   */\n      tag_264\n      tag_127\n      jump\t// in\n    tag_264:\n        /* \"#utility.yul\":11428:11493   */\n      tag_265\n        /* \"#utility.yul\":11486:11492   */\n      dup2\n        /* \"#utility.yul\":11478:11484   */\n      dup5\n        /* \"#utility.yul\":11472:11476   */\n      dup5\n        /* \"#utility.yul\":11428:11493   */\n      tag_126\n      jump\t// in\n    tag_265:\n        /* \"#utility.yul\":11363:11499   */\n      pop\n        /* \"#utility.yul\":11310:11499   */\n      pop\n      pop\n      jump\t// out\n        /* \"#utility.yul\":11505:11691   */\n    tag_129:\n        /* \"#utility.yul\":11565:11685   */\n    tag_267:\n        /* \"#utility.yul\":11582:11585   */\n      dup2\n        /* \"#utility.yul\":11575:11580   */\n      dup2\n        /* \"#utility.yul\":11572:11586   */\n      lt\n        /* \"#utility.yul\":11565:11685   */\n      iszero\n      tag_269\n      jumpi\n        /* \"#utility.yul\":11636:11675   */\n      tag_270\n        /* \"#utility.yul\":11673:11674   */\n      0x00\n        /* \"#utility.yul\":11666:11671   */\n      dup3\n        /* \"#utility.yul\":11636:11675   */\n      tag_128\n      jump\t// in\n    tag_270:\n        /* \"#utility.yul\":11609:11610   */\n      0x01\n        /* \"#utility.yul\":11602:11607   */\n      dup2\n        /* \"#utility.yul\":11598:11611   */\n      add\n        /* \"#utility.yul\":11589:11611   */\n      swap1\n      pop\n        /* \"#utility.yul\":11565:11685   */\n      jump(tag_267)\n    tag_269:\n        /* \"#utility.yul\":11505:11691   */\n      pop\n      pop\n      jump\t// out\n        /* \"#utility.yul\":11697:12240   */\n    tag_130:\n        /* \"#utility.yul\":11798:11800   */\n      0x1f\n        /* \"#utility.yul\":11793:11796   */\n      dup3\n        /* \"#utility.yul\":11790:11801   */\n      gt\n        /* \"#utility.yul\":11787:12233   */\n      iszero\n      tag_272\n      jumpi\n        /* \"#utility.yul\":11832:11870   */\n      tag_273\n        /* \"#utility.yul\":11864:11869   */\n      dup2\n        /* \"#utility.yul\":11832:11870   */\n      tag_119\n      jump\t// in\n    tag_273:\n        /* \"#utility.yul\":11916:11945   */\n      tag_274\n        /* \"#utility.yul\":11934:11944   */\n      dup5\n        /* \"#utility.yul\":11916:11945   */\n      tag_120\n      jump\t// in\n    tag_274:\n        /* \"#utility.yul\":11906:11914   */\n      dup2\n        /* \"#utility.yul\":11902:11946   */\n      add\n        /* \"#utility.yul\":12099:12101   */\n      0x20\n        /* \"#utility.yul\":12087:12097   */\n      dup6\n        /* \"#utility.yul\":12084:12102   */\n      lt\n        /* \"#utility.yul\":12081:12130   */\n      iszero\n      tag_275\n      jumpi\n        /* \"#utility.yul\":12120:12128   */\n      dup2\n        /* \"#utility.yul\":12105:12128   */\n      swap1\n      pop\n        /* \"#utility.yul\":12081:12130   */\n    tag_275:\n        /* \"#utility.yul\":12143:12223   */\n      tag_276\n        /* \"#utility.yul\":12199:12221   */\n      tag_277\n        /* \"#utility.yul\":12217:12220   */\n      dup6\n        /* \"#utility.yul\":12199:12221   */\n      tag_120\n      jump\t// in\n    tag_277:\n        /* \"#utility.yul\":12189:12197   */\n      dup4\n        /* \"#utility.yul\":12185:12222   */\n      add\n        /* \"#utility.yul\":12172:12183   */\n      dup3\n        /* \"#utility.yul\":12143:12223   */\n      tag_129\n      jump\t// in\n    tag_276:\n        /* \"#utility.yul\":11802:12233   */\n      pop\n      pop\n        /* \"#utility.yul\":11787:12233   */\n    tag_272:\n        /* \"#utility.yul\":11697:12240   */\n      pop\n      pop\n      pop\n      jump\t// out\n        /* \"#utility.yul\":12246:12363   */\n    tag_131:\n        /* \"#utility.yul\":12300:12308   */\n      0x00\n        /* \"#utility.yul\":12350:12355   */\n      dup3\n        /* \"#utility.yul\":12344:12348   */\n      dup3\n        /* \"#utility.yul\":12340:12356   */\n      shr\n        /* \"#utility.yul\":12319:12356   */\n      swap1\n      pop\n        /* \"#utility.yul\":12246:12363   */\n      swap3\n      swap2\n      pop\n      pop\n      jump\t// out\n        /* \"#utility.yul\":12369:12538   */\n    tag_132:\n        /* \"#utility.yul\":12413:12419   */\n      0x00\n        /* \"#utility.yul\":12446:12497   */\n      tag_280\n        /* \"#utility.yul\":12494:12495   */\n      0x00\n        /* \"#utility.yul\":12490:12496   */\n      not\n        /* \"#utility.yul\":12482:12487   */\n      dup5\n        /* \"#utility.yul\":12479:12480   */\n      0x08\n        /* \"#utility.yul\":12475:12488   */\n      mul\n        /* \"#utility.yul\":12446:12497   */\n      tag_131\n      jump\t// in\n    tag_280:\n        /* \"#utility.yul\":12442:12498   */\n      not\n        /* \"#utility.yul\":12527:12531   */\n      dup1\n        /* \"#utility.yul\":12521:12525   */\n      dup4\n        /* \"#utility.yul\":12517:12532   */\n      and\n        /* \"#utility.yul\":12507:12532   */\n      swap2\n      pop\n        /* \"#utility.yul\":12420:12538   */\n      pop\n        /* \"#utility.yul\":12369:12538   */\n      swap3\n      swap2\n      pop\n      pop\n      jump\t// out\n        /* \"#utility.yul\":12543:12838   */\n    tag_133:\n        /* \"#utility.yul\":12619:12623   */\n      0x00\n        /* \"#utility.yul\":12765:12794   */\n      tag_282\n        /* \"#utility.yul\":12790:12793   */\n      dup4\n        /* \"#utility.yul\":12784:12788   */\n      dup4\n        /* \"#utility.yul\":12765:12794   */\n      tag_132\n      jump\t// in\n    tag_282:\n        /* \"#utility.yul\":12757:12794   */\n      swap2\n      pop\n        /* \"#utility.yul\":12827:12830   */\n      dup3\n        /* \"#utility.yul\":12824:12825   */\n      0x02\n        /* \"#utility.yul\":12820:12831   */\n      mul\n        /* \"#utility.yul\":12814:12818   */\n      dup3\n        /* \"#utility.yul\":12811:12832   */\n      or\n        /* \"#utility.yul\":12803:12832   */\n      swap1\n      pop\n        /* \"#utility.yul\":12543:12838   */\n      swap3\n      swap2\n      pop\n      pop\n      jump\t// out\n        /* \"#utility.yul\":12843:14238   */\n    tag_45:\n        /* \"#utility.yul\":12960:12997   */\n      tag_284\n        /* \"#utility.yul\":12993:12996   */\n      dup3\n        /* \"#utility.yul\":12960:12997   */\n      tag_112\n      jump\t// in\n    tag_284:\n        /* \"#utility.yul\":13062:13080   */\n      0xffffffffffffffff\n        /* \"#utility.yul\":13054:13060   */\n      dup2\n        /* \"#utility.yul\":13051:13081   */\n      gt\n        /* \"#utility.yul\":13048:13104   */\n      iszero\n      tag_285\n      jumpi\n        /* \"#utility.yul\":13084:13102   */\n      tag_286\n      tag_97\n      jump\t// in\n    tag_286:\n        /* \"#utility.yul\":13048:13104   */\n    tag_285:\n        /* \"#utility.yul\":13128:13166   */\n      tag_287\n        /* \"#utility.yul\":13160:13164   */\n      dup3\n        /* \"#utility.yul\":13154:13165   */\n      sload\n        /* \"#utility.yul\":13128:13166   */\n      tag_73\n      jump\t// in\n    tag_287:\n        /* \"#utility.yul\":13213:13280   */\n      tag_288\n        /* \"#utility.yul\":13273:13279   */\n      dup3\n        /* \"#utility.yul\":13265:13271   */\n      dup3\n        /* \"#utility.yul\":13259:13263   */\n      dup6\n        /* \"#utility.yul\":13213:13280   */\n      tag_130\n      jump\t// in\n    tag_288:\n        /* \"#utility.yul\":13307:13308   */\n      0x00\n        /* \"#utility.yul\":13331:13335   */\n      0x20\n        /* \"#utility.yul\":13318:13335   */\n      swap1\n      pop\n        /* \"#utility.yul\":13363:13365   */\n      0x1f\n        /* \"#utility.yul\":13355:13361   */\n      dup4\n        /* \"#utility.yul\":13352:13366   */\n      gt\n        /* \"#utility.yul\":13380:13381   */\n      0x01\n        /* \"#utility.yul\":13375:13993   */\n      dup2\n      eq\n      tag_290\n      jumpi\n        /* \"#utility.yul\":14037:14038   */\n      0x00\n        /* \"#utility.yul\":14054:14060   */\n      dup5\n        /* \"#utility.yul\":14051:14128   */\n      iszero\n      tag_291\n      jumpi\n        /* \"#utility.yul\":14103:14112   */\n      dup3\n        /* \"#utility.yul\":14098:14101   */\n      dup8\n        /* \"#utility.yul\":14094:14113   */\n      add\n        /* \"#utility.yul\":14088:14114   */\n      mload\n        /* \"#utility.yul\":14079:14114   */\n      swap1\n      pop\n        /* \"#utility.yul\":14051:14128   */\n    tag_291:\n        /* \"#utility.yul\":14154:14221   */\n      tag_292\n        /* \"#utility.yul\":14214:14220   */\n      dup6\n        /* \"#utility.yul\":14207:14212   */\n      dup3\n        /* \"#utility.yul\":14154:14221   */\n      tag_133\n      jump\t// in\n    tag_292:\n        /* \"#utility.yul\":14148:14152   */\n      dup7\n        /* \"#utility.yul\":14141:14222   */\n      sstore\n        /* \"#utility.yul\":14010:14232   */\n      pop\n        /* \"#utility.yul\":13345:14232   */\n      jump(tag_289)\n        /* \"#utility.yul\":13375:13993   */\n    tag_290:\n        /* \"#utility.yul\":13427:13431   */\n      0x1f\n        /* \"#utility.yul\":13423:13432   */\n      not\n        /* \"#utility.yul\":13415:13421   */\n      dup5\n        /* \"#utility.yul\":13411:13433   */\n      and\n        /* \"#utility.yul\":13461:13498   */\n      tag_293\n        /* \"#utility.yul\":13493:13497   */\n      dup7\n        /* \"#utility.yul\":13461:13498   */\n      tag_119\n      jump\t// in\n    tag_293:\n        /* \"#utility.yul\":13520:13521   */\n      0x00\n        /* \"#utility.yul\":13534:13742   */\n    tag_294:\n        /* \"#utility.yul\":13548:13555   */\n      dup3\n        /* \"#utility.yul\":13545:13546   */\n      dup2\n        /* \"#utility.yul\":13542:13556   */\n      lt\n        /* \"#utility.yul\":13534:13742   */\n      iszero\n      tag_296\n      jumpi\n        /* \"#utility.yul\":13627:13636   */\n      dup5\n        /* \"#utility.yul\":13622:13625   */\n      dup10\n        /* \"#utility.yul\":13618:13637   */\n      add\n        /* \"#utility.yul\":13612:13638   */\n      mload\n        /* \"#utility.yul\":13604:13610   */\n      dup3\n        /* \"#utility.yul\":13597:13639   */\n      sstore\n        /* \"#utility.yul\":13678:13679   */\n      0x01\n        /* \"#utility.yul\":13670:13676   */\n      dup3\n        /* \"#utility.yul\":13666:13680   */\n      add\n        /* \"#utility.yul\":13656:13680   */\n      swap2\n      pop\n        /* \"#utility.yul\":13725:13727   */\n      0x20\n        /* \"#utility.yul\":13714:13723   */\n      dup6\n        /* \"#utility.yul\":13710:13728   */\n      add\n        /* \"#utility.yul\":13697:13728   */\n      swap5\n      pop\n        /* \"#utility.yul\":13571:13575   */\n      0x20\n        /* \"#utility.yul\":13568:13569   */\n      dup2\n        /* \"#utility.yul\":13564:13576   */\n      add\n        /* \"#utility.yul\":13559:13576   */\n      swap1\n      pop\n        /* \"#utility.yul\":13534:13742   */\n      jump(tag_294)\n    tag_296:\n        /* \"#utility.yul\":13770:13776   */\n      dup7\n        /* \"#utility.yul\":13761:13768   */\n      dup4\n        /* \"#utility.yul\":13758:13777   */\n      lt\n        /* \"#utility.yul\":13755:13934   */\n      iszero\n      tag_297\n      jumpi\n        /* \"#utility.yul\":13828:13837   */\n      dup5\n        /* \"#utility.yul\":13823:13826   */\n      dup10\n        /* \"#utility.yul\":13819:13838   */\n      add\n        /* \"#utility.yul\":13813:13839   */\n      mload\n        /* \"#utility.yul\":13871:13919   */\n      tag_298\n        /* \"#utility.yul\":13913:13917   */\n      0x1f\n        /* \"#utility.yul\":13905:13911   */\n      dup10\n        /* \"#utility.yul\":13901:13918   */\n      and\n        /* \"#utility.yul\":13890:13899   */\n      dup3\n        /* \"#utility.yul\":13871:13919   */\n      tag_132\n      jump\t// in\n    tag_298:\n        /* \"#utility.yul\":13863:13869   */\n      dup4\n        /* \"#utility.yul\":13856:13920   */\n      sstore\n        /* \"#utility.yul\":13778:13934   */\n      pop\n        /* \"#utility.yul\":13755:13934   */\n    tag_297:\n        /* \"#utility.yul\":13980:13981   */\n      0x01\n        /* \"#utility.yul\":13976:13977   */\n      0x02\n        /* \"#utility.yul\":13968:13974   */\n      dup9\n        /* \"#utility.yul\":13964:13978   */\n      mul\n        /* \"#utility.yul\":13960:13982   */\n      add\n        /* \"#utility.yul\":13954:13958   */\n      dup9\n        /* \"#utility.yul\":13947:13983   */\n      sstore\n        /* \"#utility.yul\":13382:13993   */\n      pop\n      pop\n      pop\n        /* \"#utility.yul\":13345:14232   */\n    tag_289:\n      pop\n        /* \"#utility.yul\":12935:14238   */\n      pop\n      pop\n      pop\n        /* \"#utility.yul\":12843:14238   */\n      pop\n      pop\n      jump\t// out\n        /* \"#utility.yul\":14244:14979   */\n    tag_50:\n        /* \"#utility.yul\":14461:14465   */\n      0x00\n        /* \"#utility.yul\":14499:14502   */\n      0x80\n        /* \"#utility.yul\":14488:14497   */\n      dup3\n        /* \"#utility.yul\":14484:14503   */\n      add\n        /* \"#utility.yul\":14476:14503   */\n      swap1\n      pop\n        /* \"#utility.yul\":14513:14584   */\n      tag_300\n        /* \"#utility.yul\":14581:14582   */\n      0x00\n        /* \"#utility.yul\":14570:14579   */\n      dup4\n        /* \"#utility.yul\":14566:14583   */\n      add\n        /* \"#utility.yul\":14557:14563   */\n      dup8\n        /* \"#utility.yul\":14513:14584   */\n      tag_107\n      jump\t// in\n    tag_300:\n        /* \"#utility.yul\":14594:14666   */\n      tag_301\n        /* \"#utility.yul\":14662:14664   */\n      0x20\n        /* \"#utility.yul\":14651:14660   */\n      dup4\n        /* \"#utility.yul\":14647:14665   */\n      add\n        /* \"#utility.yul\":14638:14644   */\n      dup7\n        /* \"#utility.yul\":14594:14666   */\n      tag_107\n      jump\t// in\n    tag_301:\n        /* \"#utility.yul\":14713:14722   */\n      dup2\n        /* \"#utility.yul\":14707:14711   */\n      dup2\n        /* \"#utility.yul\":14703:14723   */\n      sub\n        /* \"#utility.yul\":14698:14700   */\n      0x40\n        /* \"#utility.yul\":14687:14696   */\n      dup4\n        /* \"#utility.yul\":14683:14701   */\n      add\n        /* \"#utility.yul\":14676:14724   */\n      mstore\n        /* \"#utility.yul\":14741:14819   */\n      tag_302\n        /* \"#utility.yul\":14814:14818   */\n      dup2\n        /* \"#utility.yul\":14805:14811   */\n      dup6\n        /* \"#utility.yul\":14741:14819   */\n      tag_115\n      jump\t// in\n    tag_302:\n        /* \"#utility.yul\":14733:14819   */\n      swap1\n      pop\n        /* \"#utility.yul\":14866:14875   */\n      dup2\n        /* \"#utility.yul\":14860:14864   */\n      dup2\n        /* \"#utility.yul\":14856:14876   */\n      sub\n        /* \"#utility.yul\":14851:14853   */\n      0x60\n        /* \"#utility.yul\":14840:14849   */\n      dup4\n        /* \"#utility.yul\":14836:14854   */\n      add\n        /* \"#utility.yul\":14829:14877   */\n      mstore\n        /* \"#utility.yul\":14894:14972   */\n      tag_303\n        /* \"#utility.yul\":14967:14971   */\n      dup2\n        /* \"#utility.yul\":14958:14964   */\n      dup5\n        /* \"#utility.yul\":14894:14972   */\n      tag_115\n      jump\t// in\n    tag_303:\n        /* \"#utility.yul\":14886:14972   */\n      swap1\n      pop\n        /* \"#utility.yul\":14244:14979   */\n      swap6\n      swap5\n      pop\n      pop\n      pop\n      pop\n      pop\n      jump\t// out\n        /* \"#utility.yul\":14985:15160   */\n    tag_134:\n        /* \"#utility.yul\":15125:15152   */\n      0x50726f7065727479206973206e6f7420666f722073616c652e00000000000000\n        /* \"#utility.yul\":15121:15122   */\n      0x00\n        /* \"#utility.yul\":15113:15119   */\n      dup3\n        /* \"#utility.yul\":15109:15123   */\n      add\n        /* \"#utility.yul\":15102:15153   */\n      mstore\n        /* \"#utility.yul\":14985:15160   */\n      pop\n      jump\t// out\n        /* \"#utility.yul\":15166:15532   */\n    tag_135:\n        /* \"#utility.yul\":15308:15311   */\n      0x00\n        /* \"#utility.yul\":15329:15396   */\n      tag_306\n        /* \"#utility.yul\":15393:15395   */\n      0x19\n        /* \"#utility.yul\":15388:15391   */\n      dup4\n        /* \"#utility.yul\":15329:15396   */\n      tag_113\n      jump\t// in\n    tag_306:\n        /* \"#utility.yul\":15322:15396   */\n      swap2\n      pop\n        /* \"#utility.yul\":15405:15498   */\n      tag_307\n        /* \"#utility.yul\":15494:15497   */\n      dup3\n        /* \"#utility.yul\":15405:15498   */\n      tag_134\n      jump\t// in\n    tag_307:\n        /* \"#utility.yul\":15523:15525   */\n      0x20\n        /* \"#utility.yul\":15518:15521   */\n      dup3\n        /* \"#utility.yul\":15514:15526   */\n      add\n        /* \"#utility.yul\":15507:15526   */\n      swap1\n      pop\n        /* \"#utility.yul\":15166:15532   */\n      swap2\n      swap1\n      pop\n      jump\t// out\n        /* \"#utility.yul\":15538:15957   */\n    tag_54:\n        /* \"#utility.yul\":15704:15708   */\n      0x00\n        /* \"#utility.yul\":15742:15744   */\n      0x20\n        /* \"#utility.yul\":15731:15740   */\n      dup3\n        /* \"#utility.yul\":15727:15745   */\n      add\n        /* \"#utility.yul\":15719:15745   */\n      swap1\n      pop\n        /* \"#utility.yul\":15791:15800   */\n      dup2\n        /* \"#utility.yul\":15785:15789   */\n      dup2\n        /* \"#utility.yul\":15781:15801   */\n      sub\n        /* \"#utility.yul\":15777:15778   */\n      0x00\n        /* \"#utility.yul\":15766:15775   */\n      dup4\n        /* \"#utility.yul\":15762:15779   */\n      add\n        /* \"#utility.yul\":15755:15802   */\n      mstore\n        /* \"#utility.yul\":15819:15950   */\n      tag_309\n        /* \"#utility.yul\":15945:15949   */\n      dup2\n        /* \"#utility.yul\":15819:15950   */\n      tag_135\n      jump\t// in\n    tag_309:\n        /* \"#utility.yul\":15811:15950   */\n      swap1\n      pop\n        /* \"#utility.yul\":15538:15957   */\n      swap2\n      swap1\n      pop\n      jump\t// out\n        /* \"#utility.yul\":15963:16131   */\n    tag_136:\n        /* \"#utility.yul\":16103:16123   */\n      0x496e73756666696369656e742066756e64730000000000000000000000000000\n        /* \"#utility.yul\":16099:16100   */\n      0x00\n        /* \"#utility.yul\":16091:16097   */\n      dup3\n        /* \"#utility.yul\":16087:16101   */\n      add\n        /* \"#utility.yul\":16080:16124   */\n      mstore\n        /* \"#utility.yul\":15963:16131   */\n      pop\n      jump\t// out\n        /* \"#utility.yul\":16137:16503   */\n    tag_137:\n        /* \"#utility.yul\":16279:16282   */\n      0x00\n        /* \"#utility.yul\":16300:16367   */\n      tag_312\n        /* \"#utility.yul\":16364:16366   */\n      0x12\n        /* \"#utility.yul\":16359:16362   */\n      dup4\n        /* \"#utility.yul\":16300:16367   */\n      tag_113\n      jump\t// in\n    tag_312:\n        /* \"#utility.yul\":16293:16367   */\n      swap2\n      pop\n        /* \"#utility.yul\":16376:16469   */\n      tag_313\n        /* \"#utility.yul\":16465:16468   */\n      dup3\n        /* \"#utility.yul\":16376:16469   */\n      tag_136\n      jump\t// in\n    tag_313:\n        /* \"#utility.yul\":16494:16496   */\n      0x20\n        /* \"#utility.yul\":16489:16492   */\n      dup3\n        /* \"#utility.yul\":16485:16497   */\n      add\n        /* \"#utility.yul\":16478:16497   */\n      swap1\n      pop\n        /* \"#utility.yul\":16137:16503   */\n      swap2\n      swap1\n      pop\n      jump\t// out\n        /* \"#utility.yul\":16509:16928   */\n    tag_57:\n        /* \"#utility.yul\":16675:16679   */\n      0x00\n        /* \"#utility.yul\":16713:16715   */\n      0x20\n        /* \"#utility.yul\":16702:16711   */\n      dup3\n        /* \"#utility.yul\":16698:16716   */\n      add\n        /* \"#utility.yul\":16690:16716   */\n      swap1\n      pop\n        /* \"#utility.yul\":16762:16771   */\n      dup2\n        /* \"#utility.yul\":16756:16760   */\n      dup2\n        /* \"#utility.yul\":16752:16772   */\n      sub\n        /* \"#utility.yul\":16748:16749   */\n      0x00\n        /* \"#utility.yul\":16737:16746   */\n      dup4\n        /* \"#utility.yul\":16733:16750   */\n      add\n        /* \"#utility.yul\":16726:16773   */\n      mstore\n        /* \"#utility.yul\":16790:16921   */\n      tag_315\n        /* \"#utility.yul\":16916:16920   */\n      dup2\n        /* \"#utility.yul\":16790:16921   */\n      tag_137\n      jump\t// in\n    tag_315:\n        /* \"#utility.yul\":16782:16921   */\n      swap1\n      pop\n        /* \"#utility.yul\":16509:16928   */\n      swap2\n      swap1\n      pop\n      jump\t// out\n        /* \"#utility.yul\":16934:17376   */\n    tag_61:\n        /* \"#utility.yul\":17083:17087   */\n      0x00\n        /* \"#utility.yul\":17121:17123   */\n      0x60\n        /* \"#utility.yul\":17110:17119   */\n      dup3\n        /* \"#utility.yul\":17106:17124   */\n      add\n        /* \"#utility.yul\":17098:17124   */\n      swap1\n      pop\n        /* \"#utility.yul\":17134:17205   */\n      tag_317\n        /* \"#utility.yul\":17202:17203   */\n      0x00\n        /* \"#utility.yul\":17191:17200   */\n      dup4\n        /* \"#utility.yul\":17187:17204   */\n      add\n        /* \"#utility.yul\":17178:17184   */\n      dup7\n        /* \"#utility.yul\":17134:17205   */\n      tag_107\n      jump\t// in\n    tag_317:\n        /* \"#utility.yul\":17215:17287   */\n      tag_318\n        /* \"#utility.yul\":17283:17285   */\n      0x20\n        /* \"#utility.yul\":17272:17281   */\n      dup4\n        /* \"#utility.yul\":17268:17286   */\n      add\n        /* \"#utility.yul\":17259:17265   */\n      dup6\n        /* \"#utility.yul\":17215:17287   */\n      tag_106\n      jump\t// in\n    tag_318:\n        /* \"#utility.yul\":17297:17369   */\n      tag_319\n        /* \"#utility.yul\":17365:17367   */\n      0x40\n        /* \"#utility.yul\":17354:17363   */\n      dup4\n        /* \"#utility.yul\":17350:17368   */\n      add\n        /* \"#utility.yul\":17341:17347   */\n      dup5\n        /* \"#utility.yul\":17297:17369   */\n      tag_107\n      jump\t// in\n    tag_319:\n        /* \"#utility.yul\":16934:17376   */\n      swap5\n      swap4\n      pop\n      pop\n      pop\n      pop\n      jump\t// out\n        /* \"#utility.yul\":17382:17561   */\n    tag_138:\n        /* \"#utility.yul\":17522:17553   */\n      0x4e6577206f776e657220697320746865207a65726f2061646472657373000000\n        /* \"#utility.yul\":17518:17519   */\n      0x00\n        /* \"#utility.yul\":17510:17516   */\n      dup3\n        /* \"#utility.yul\":17506:17520   */\n      add\n        /* \"#utility.yul\":17499:17554   */\n      mstore\n        /* \"#utility.yul\":17382:17561   */\n      pop\n      jump\t// out\n        /* \"#utility.yul\":17567:17933   */\n    tag_139:\n        /* \"#utility.yul\":17709:17712   */\n      0x00\n        /* \"#utility.yul\":17730:17797   */\n      tag_322\n        /* \"#utility.yul\":17794:17796   */\n      0x1d\n        /* \"#utility.yul\":17789:17792   */\n      dup4\n        /* \"#utility.yul\":17730:17797   */\n      tag_113\n      jump\t// in\n    tag_322:\n        /* \"#utility.yul\":17723:17797   */\n      swap2\n      pop\n        /* \"#utility.yul\":17806:17899   */\n      tag_323\n        /* \"#utility.yul\":17895:17898   */\n      dup3\n        /* \"#utility.yul\":17806:17899   */\n      tag_138\n      jump\t// in\n    tag_323:\n        /* \"#utility.yul\":17924:17926   */\n      0x20\n        /* \"#utility.yul\":17919:17922   */\n      dup3\n        /* \"#utility.yul\":17915:17927   */\n      add\n        /* \"#utility.yul\":17908:17927   */\n      swap1\n      pop\n        /* \"#utility.yul\":17567:17933   */\n      swap2\n      swap1\n      pop\n      jump\t// out\n        /* \"#utility.yul\":17939:18358   */\n    tag_71:\n        /* \"#utility.yul\":18105:18109   */\n      0x00\n        /* \"#utility.yul\":18143:18145   */\n      0x20\n        /* \"#utility.yul\":18132:18141   */\n      dup3\n        /* \"#utility.yul\":18128:18146   */\n      add\n        /* \"#utility.yul\":18120:18146   */\n      swap1\n      pop\n        /* \"#utility.yul\":18192:18201   */\n      dup2\n        /* \"#utility.yul\":18186:18190   */\n      dup2\n        /* \"#utility.yul\":18182:18202   */\n      sub\n        /* \"#utility.yul\":18178:18179   */\n      0x00\n        /* \"#utility.yul\":18167:18176   */\n      dup4\n        /* \"#utility.yul\":18163:18180   */\n      add\n        /* \"#utility.yul\":18156:18203   */\n      mstore\n        /* \"#utility.yul\":18220:18351   */\n      tag_325\n        /* \"#utility.yul\":18346:18350   */\n      dup2\n        /* \"#utility.yul\":18220:18351   */\n      tag_139\n      jump\t// in\n    tag_325:\n        /* \"#utility.yul\":18212:18351   */\n      swap1\n      pop\n        /* \"#utility.yul\":17939:18358   */\n      swap2\n      swap1\n      pop\n      jump\t// out\n\n    auxdata: 0xa2646970667358221220b293f29f523a8a3dc0a443a5675d49181f9f57dbff030eb21dd16594a1b02b8c64736f6c63430008160033\n}\n",
				"bytecode": {
					"linkReferences": {},
					"object": "608060405234801561000f575f80fd5b50335f806101000a81548173ffffffffffffffffffffffffffffffffffffffff021916908373ffffffffffffffffffffffffffffffffffffffff1602179055505f8054906101000a900473ffffffffffffffffffffffffffffffffffffffff1673ffffffffffffffffffffffffffffffffffffffff165f73ffffffffffffffffffffffffffffffffffffffff167f8be0079c531659141344cd1fd0a4f28419497f9722a3daafe3b4186f6b6457e060405160405180910390a3611290806100d55f395ff3fe608060405260043610610054575f3560e01c8063611cf614146100585780636fa830a6146100805780638da5cb5b1461009c578063d03b47f4146100c6578063f2fde38b14610102578063f7b108081461012a575b5f80fd5b348015610063575f80fd5b5061007e60048036038101906100799190610a98565b61016b565b005b61009a60048036038101906100959190610b63565b610371565b005b3480156100a7575f80fd5b506100b0610525565b6040516100bd9190610bcd565b60405180910390f35b3480156100d1575f80fd5b506100ec60048036038101906100e79190610b63565b61054c565b6040516100f99190610bf5565b60405180910390f35b34801561010d575f80fd5b5061012860048036038101906101239190610c38565b61056c565b005b348015610135575f80fd5b50610150600480360381019061014b9190610b63565b610722565b60405161016296959493929190610cf7565b60405180910390f35b5f8054906101000a900473ffffffffffffffffffffffffffffffffffffffff1673ffffffffffffffffffffffffffffffffffffffff163373ffffffffffffffffffffffffffffffffffffffff16146101f8576040517f08c379a00000000000000000000000000000000000000000000000000000000081526004016101ef90610db5565b60405180910390fd5b5f6040518060c001604052808681526020013373ffffffffffffffffffffffffffffffffffffffff1681526020016001151581526020018581526020018481526020018381525090508060015f8881526020019081526020015f205f820151815f01556020820151816001015f6101000a81548173ffffffffffffffffffffffffffffffffffffffff021916908373ffffffffffffffffffffffffffffffffffffffff16021790555060408201518160010160146101000a81548160ff02191690831515021790555060608201518160020190816102d69190610fcd565b5060808201518160030190816102ec9190610fcd565b5060a08201518160040190816103029190610fcd565b50905050600286908060018154018082558091505060019003905f5260205f20015f90919091909150557f8b36ffc128c3b728d82e3efd313e19f88c942b0bfac2586c0f5882f44424792486868686604051610361949392919061109c565b60405180910390a1505050505050565b5f60015f8381526020019081526020015f2090508060010160149054906101000a900460ff166103d6576040517f08c379a00000000000000000000000000000000000000000000000000000000081526004016103cd90611137565b60405180910390fd5b34815f0154111561041c576040517f08c379a00000000000000000000000000000000000000000000000000000000081526004016104139061119f565b60405180910390fd5b5f816001015f9054906101000a900473ffffffffffffffffffffffffffffffffffffffff16905033826001015f6101000a81548173ffffffffffffffffffffffffffffffffffffffff021916908373ffffffffffffffffffffffffffffffffffffffff1602179055505f8260010160146101000a81548160ff0219169083151502179055508073ffffffffffffffffffffffffffffffffffffffff166108fc3490811502906040515f60405180830381858888f193505050501580156104e4573d5f803e3d5ffd5b507ff17a6666765db393a6218bb324c4de5cc60c9ee3b981bd102ba416effc13b895833334604051610518939291906111bd565b60405180910390a1505050565b5f805f9054906101000a900473ffffffffffffffffffffffffffffffffffffffff16905090565b6002818154811061055b575f80fd5b905f5260205f20015f915090505481565b5f8054906101000a900473ffffffffffffffffffffffffffffffffffffffff1673ffffffffffffffffffffffffffffffffffffffff163373ffffffffffffffffffffffffffffffffffffffff16146105f9576040517f08c379a00000000000000000000000000000000000000000000000000000000081526004016105f090610db5565b60405180910390fd5b5f73ffffffffffffffffffffffffffffffffffffffff168173ffffffffffffffffffffffffffffffffffffffff1603610667576040517f08c379a000000000000000000000000000000000000000000000000000000000815260040161065e9061123c565b60405180910390fd5b8073ffffffffffffffffffffffffffffffffffffffff165f8054906101000a900473ffffffffffffffffffffffffffffffffffffffff1673ffffffffffffffffffffffffffffffffffffffff167f8be0079c531659141344cd1fd0a4f28419497f9722a3daafe3b4186f6b6457e060405160405180910390a3805f806101000a81548173ffffffffffffffffffffffffffffffffffffffff021916908373ffffffffffffffffffffffffffffffffffffffff16021790555050565b6001602052805f5260405f205f91509050805f015490806001015f9054906101000a900473ffffffffffffffffffffffffffffffffffffffff16908060010160149054906101000a900460ff169080600201805461077f90610e00565b80601f01602080910402602001604051908101604052809291908181526020018280546107ab90610e00565b80156107f65780601f106107cd576101008083540402835291602001916107f6565b820191905f5260205f20905b8154815290600101906020018083116107d957829003601f168201915b50505050509080600301805461080b90610e00565b80601f016020809104026020016040519081016040528092919081815260200182805461083790610e00565b80156108825780601f1061085957610100808354040283529160200191610882565b820191905f5260205f20905b81548152906001019060200180831161086557829003601f168201915b50505050509080600401805461089790610e00565b80601f01602080910402602001604051908101604052809291908181526020018280546108c390610e00565b801561090e5780601f106108e55761010080835404028352916020019161090e565b820191905f5260205f20905b8154815290600101906020018083116108f157829003601f168201915b5050505050905086565b5f604051905090565b5f80fd5b5f80fd5b5f819050919050565b61093b81610929565b8114610945575f80fd5b50565b5f8135905061095681610932565b92915050565b5f80fd5b5f80fd5b5f601f19601f8301169050919050565b7f4e487b71000000000000000000000000000000000000000000000000000000005f52604160045260245ffd5b6109aa82610964565b810181811067ffffffffffffffff821117156109c9576109c8610974565b5b80604052505050565b5f6109db610918565b90506109e782826109a1565b919050565b5f67ffffffffffffffff821115610a0657610a05610974565b5b610a0f82610964565b9050602081019050919050565b828183375f83830152505050565b5f610a3c610a37846109ec565b6109d2565b905082815260208101848484011115610a5857610a57610960565b5b610a63848285610a1c565b509392505050565b5f82601f830112610a7f57610a7e61095c565b5b8135610a8f848260208601610a2a565b91505092915050565b5f805f805f60a08688031215610ab157610ab0610921565b5b5f610abe88828901610948565b9550506020610acf88828901610948565b945050604086013567ffffffffffffffff811115610af057610aef610925565b5b610afc88828901610a6b565b935050606086013567ffffffffffffffff811115610b1d57610b1c610925565b5b610b2988828901610a6b565b925050608086013567ffffffffffffffff811115610b4a57610b49610925565b5b610b5688828901610a6b565b9150509295509295909350565b5f60208284031215610b7857610b77610921565b5b5f610b8584828501610948565b91505092915050565b5f73ffffffffffffffffffffffffffffffffffffffff82169050919050565b5f610bb782610b8e565b9050919050565b610bc781610bad565b82525050565b5f602082019050610be05f830184610bbe565b92915050565b610bef81610929565b82525050565b5f602082019050610c085f830184610be6565b92915050565b610c1781610bad565b8114610c21575f80fd5b50565b5f81359050610c3281610c0e565b92915050565b5f60208284031215610c4d57610c4c610921565b5b5f610c5a84828501610c24565b91505092915050565b5f8115159050919050565b610c7781610c63565b82525050565b5f81519050919050565b5f82825260208201905092915050565b5f5b83811015610cb4578082015181840152602081019050610c99565b5f8484015250505050565b5f610cc982610c7d565b610cd38185610c87565b9350610ce3818560208601610c97565b610cec81610964565b840191505092915050565b5f60c082019050610d0a5f830189610be6565b610d176020830188610bbe565b610d246040830187610c6e565b8181036060830152610d368186610cbf565b90508181036080830152610d4a8185610cbf565b905081810360a0830152610d5e8184610cbf565b9050979650505050505050565b7f43616c6c6572206973206e6f7420746865206f776e65720000000000000000005f82015250565b5f610d9f601783610c87565b9150610daa82610d6b565b602082019050919050565b5f6020820190508181035f830152610dcc81610d93565b9050919050565b7f4e487b71000000000000000000000000000000000000000000000000000000005f52602260045260245ffd5b5f6002820490506001821680610e1757607f821691505b602082108103610e2a57610e29610dd3565b5b50919050565b5f819050815f5260205f209050919050565b5f6020601f8301049050919050565b5f82821b905092915050565b5f60088302610e8c7fffffffffffffffffffffffffffffffffffffffffffffffffffffffffffffffff82610e51565b610e968683610e51565b95508019841693508086168417925050509392505050565b5f819050919050565b5f610ed1610ecc610ec784610929565b610eae565b610929565b9050919050565b5f819050919050565b610eea83610eb7565b610efe610ef682610ed8565b848454610e5d565b825550505050565b5f90565b610f12610f06565b610f1d818484610ee1565b505050565b5b81811015610f4057610f355f82610f0a565b600181019050610f23565b5050565b601f821115610f8557610f5681610e30565b610f5f84610e42565b81016020851015610f6e578190505b610f82610f7a85610e42565b830182610f22565b50505b505050565b5f82821c905092915050565b5f610fa55f1984600802610f8a565b1980831691505092915050565b5f610fbd8383610f96565b9150826002028217905092915050565b610fd682610c7d565b67ffffffffffffffff811115610fef57610fee610974565b5b610ff98254610e00565b611004828285610f44565b5f60209050601f831160018114611035575f8415611023578287015190505b61102d8582610fb2565b865550611094565b601f19841661104386610e30565b5f5b8281101561106a57848901518255600182019150602085019450602081019050611045565b868310156110875784890151611083601f891682610f96565b8355505b6001600288020188555050505b505050505050565b5f6080820190506110af5f830187610be6565b6110bc6020830186610be6565b81810360408301526110ce8185610cbf565b905081810360608301526110e28184610cbf565b905095945050505050565b7f50726f7065727479206973206e6f7420666f722073616c652e000000000000005f82015250565b5f611121601983610c87565b915061112c826110ed565b602082019050919050565b5f6020820190508181035f83015261114e81611115565b9050919050565b7f496e73756666696369656e742066756e647300000000000000000000000000005f82015250565b5f611189601283610c87565b915061119482611155565b602082019050919050565b5f6020820190508181035f8301526111b68161117d565b9050919050565b5f6060820190506111d05f830186610be6565b6111dd6020830185610bbe565b6111ea6040830184610be6565b949350505050565b7f4e6577206f776e657220697320746865207a65726f20616464726573730000005f82015250565b5f611226601d83610c87565b9150611231826111f2565b602082019050919050565b5f6020820190508181035f8301526112538161121a565b905091905056fea2646970667358221220b293f29f523a8a3dc0a443a5675d49181f9f57dbff030eb21dd16594a1b02b8c64736f6c63430008160033",
					"opcodes": "PUSH1 0x80 PUSH1 0x40 MSTORE CALLVALUE DUP1 ISZERO PUSH2 0xF JUMPI PUSH0 DUP1 REVERT JUMPDEST POP CALLER PUSH0 DUP1 PUSH2 0x100 EXP DUP2 SLOAD DUP2 PUSH20 0xFFFFFFFFFFFFFFFFFFFFFFFFFFFFFFFFFFFFFFFF MUL NOT AND SWAP1 DUP4 PUSH20 0xFFFFFFFFFFFFFFFFFFFFFFFFFFFFFFFFFFFFFFFF AND MUL OR SWAP1 SSTORE POP PUSH0 DUP1 SLOAD SWAP1 PUSH2 0x100 EXP SWAP1 DIV PUSH20 0xFFFFFFFFFFFFFFFFFFFFFFFFFFFFFFFFFFFFFFFF AND PUSH20 0xFFFFFFFFFFFFFFFFFFFFFFFFFFFFFFFFFFFFFFFF AND PUSH0 PUSH20 0xFFFFFFFFFFFFFFFFFFFFFFFFFFFFFFFFFFFFFFFF AND PUSH32 0x8BE0079C531659141344CD1FD0A4F28419497F9722A3DAAFE3B4186F6B6457E0 PUSH1 0x40 MLOAD PUSH1 0x40 MLOAD DUP1 SWAP2 SUB SWAP1 LOG3 PUSH2 0x1290 DUP1 PUSH2 0xD5 PUSH0 CODECOPY PUSH0 RETURN INVALID PUSH1 0x80 PUSH1 0x40 MSTORE PUSH1 0x4 CALLDATASIZE LT PUSH2 0x54 JUMPI PUSH0 CALLDATALOAD PUSH1 0xE0 SHR DUP1 PUSH4 0x611CF614 EQ PUSH2 0x58 JUMPI DUP1 PUSH4 0x6FA830A6 EQ PUSH2 0x80 JUMPI DUP1 PUSH4 0x8DA5CB5B EQ PUSH2 0x9C JUMPI DUP1 PUSH4 0xD03B47F4 EQ PUSH2 0xC6 JUMPI DUP1 PUSH4 0xF2FDE38B EQ PUSH2 0x102 JUMPI DUP1 PUSH4 0xF7B10808 EQ PUSH2 0x12A JUMPI JUMPDEST PUSH0 DUP1 REVERT JUMPDEST CALLVALUE DUP1 ISZERO PUSH2 0x63 JUMPI PUSH0 DUP1 REVERT JUMPDEST POP PUSH2 0x7E PUSH1 0x4 DUP1 CALLDATASIZE SUB DUP2 ADD SWAP1 PUSH2 0x79 SWAP2 SWAP1 PUSH2 0xA98 JUMP JUMPDEST PUSH2 0x16B JUMP JUMPDEST STOP JUMPDEST PUSH2 0x9A PUSH1 0x4 DUP1 CALLDATASIZE SUB DUP2 ADD SWAP1 PUSH2 0x95 SWAP2 SWAP1 PUSH2 0xB63 JUMP JUMPDEST PUSH2 0x371 JUMP JUMPDEST STOP JUMPDEST CALLVALUE DUP1 ISZERO PUSH2 0xA7 JUMPI PUSH0 DUP1 REVERT JUMPDEST POP PUSH2 0xB0 PUSH2 0x525 JUMP JUMPDEST PUSH1 0x40 MLOAD PUSH2 0xBD SWAP2 SWAP1 PUSH2 0xBCD JUMP JUMPDEST PUSH1 0x40 MLOAD DUP1 SWAP2 SUB SWAP1 RETURN JUMPDEST CALLVALUE DUP1 ISZERO PUSH2 0xD1 JUMPI PUSH0 DUP1 REVERT JUMPDEST POP PUSH2 0xEC PUSH1 0x4 DUP1 CALLDATASIZE SUB DUP2 ADD SWAP1 PUSH2 0xE7 SWAP2 SWAP1 PUSH2 0xB63 JUMP JUMPDEST PUSH2 0x54C JUMP JUMPDEST PUSH1 0x40 MLOAD PUSH2 0xF9 SWAP2 SWAP1 PUSH2 0xBF5 JUMP JUMPDEST PUSH1 0x40 MLOAD DUP1 SWAP2 SUB SWAP1 RETURN JUMPDEST CALLVALUE DUP1 ISZERO PUSH2 0x10D JUMPI PUSH0 DUP1 REVERT JUMPDEST POP PUSH2 0x128 PUSH1 0x4 DUP1 CALLDATASIZE SUB DUP2 ADD SWAP1 PUSH2 0x123 SWAP2 SWAP1 PUSH2 0xC38 JUMP JUMPDEST PUSH2 0x56C JUMP JUMPDEST STOP JUMPDEST CALLVALUE DUP1 ISZERO PUSH2 0x135 JUMPI PUSH0 DUP1 REVERT JUMPDEST POP PUSH2 0x150 PUSH1 0x4 DUP1 CALLDATASIZE SUB DUP2 ADD SWAP1 PUSH2 0x14B SWAP2 SWAP1 PUSH2 0xB63 JUMP JUMPDEST PUSH2 0x722 JUMP JUMPDEST PUSH1 0x40 MLOAD PUSH2 0x162 SWAP7 SWAP6 SWAP5 SWAP4 SWAP3 SWAP2 SWAP1 PUSH2 0xCF7 JUMP JUMPDEST PUSH1 0x40 MLOAD DUP1 SWAP2 SUB SWAP1 RETURN JUMPDEST PUSH0 DUP1 SLOAD SWAP1 PUSH2 0x100 EXP SWAP1 DIV PUSH20 0xFFFFFFFFFFFFFFFFFFFFFFFFFFFFFFFFFFFFFFFF AND PUSH20 0xFFFFFFFFFFFFFFFFFFFFFFFFFFFFFFFFFFFFFFFF AND CALLER PUSH20 0xFFFFFFFFFFFFFFFFFFFFFFFFFFFFFFFFFFFFFFFF AND EQ PUSH2 0x1F8 JUMPI PUSH1 0x40 MLOAD PUSH32 0x8C379A000000000000000000000000000000000000000000000000000000000 DUP2 MSTORE PUSH1 0x4 ADD PUSH2 0x1EF SWAP1 PUSH2 0xDB5 JUMP JUMPDEST PUSH1 0x40 MLOAD DUP1 SWAP2 SUB SWAP1 REVERT JUMPDEST PUSH0 PUSH1 0x40 MLOAD DUP1 PUSH1 0xC0 ADD PUSH1 0x40 MSTORE DUP1 DUP7 DUP2 MSTORE PUSH1 0x20 ADD CALLER PUSH20 0xFFFFFFFFFFFFFFFFFFFFFFFFFFFFFFFFFFFFFFFF AND DUP2 MSTORE PUSH1 0x20 ADD PUSH1 0x1 ISZERO ISZERO DUP2 MSTORE PUSH1 0x20 ADD DUP6 DUP2 MSTORE PUSH1 0x20 ADD DUP5 DUP2 MSTORE PUSH1 0x20 ADD DUP4 DUP2 MSTORE POP SWAP1 POP DUP1 PUSH1 0x1 PUSH0 DUP9 DUP2 MSTORE PUSH1 0x20 ADD SWAP1 DUP2 MSTORE PUSH1 0x20 ADD PUSH0 KECCAK256 PUSH0 DUP3 ADD MLOAD DUP2 PUSH0 ADD SSTORE PUSH1 0x20 DUP3 ADD MLOAD DUP2 PUSH1 0x1 ADD PUSH0 PUSH2 0x100 EXP DUP2 SLOAD DUP2 PUSH20 0xFFFFFFFFFFFFFFFFFFFFFFFFFFFFFFFFFFFFFFFF MUL NOT AND SWAP1 DUP4 PUSH20 0xFFFFFFFFFFFFFFFFFFFFFFFFFFFFFFFFFFFFFFFF AND MUL OR SWAP1 SSTORE POP PUSH1 0x40 DUP3 ADD MLOAD DUP2 PUSH1 0x1 ADD PUSH1 0x14 PUSH2 0x100 EXP DUP2 SLOAD DUP2 PUSH1 0xFF MUL NOT AND SWAP1 DUP4 ISZERO ISZERO MUL OR SWAP1 SSTORE POP PUSH1 0x60 DUP3 ADD MLOAD DUP2 PUSH1 0x2 ADD SWAP1 DUP2 PUSH2 0x2D6 SWAP2 SWAP1 PUSH2 0xFCD JUMP JUMPDEST POP PUSH1 0x80 DUP3 ADD MLOAD DUP2 PUSH1 0x3 ADD SWAP1 DUP2 PUSH2 0x2EC SWAP2 SWAP1 PUSH2 0xFCD JUMP JUMPDEST POP PUSH1 0xA0 DUP3 ADD MLOAD DUP2 PUSH1 0x4 ADD SWAP1 DUP2 PUSH2 0x302 SWAP2 SWAP1 PUSH2 0xFCD JUMP JUMPDEST POP SWAP1 POP POP PUSH1 0x2 DUP7 SWAP1 DUP1 PUSH1 0x1 DUP2 SLOAD ADD DUP1 DUP3 SSTORE DUP1 SWAP2 POP POP PUSH1 0x1 SWAP1 SUB SWAP1 PUSH0 MSTORE PUSH1 0x20 PUSH0 KECCAK256 ADD PUSH0 SWAP1 SWAP2 SWAP1 SWAP2 SWAP1 SWAP2 POP SSTORE PUSH32 0x8B36FFC128C3B728D82E3EFD313E19F88C942B0BFAC2586C0F5882F444247924 DUP7 DUP7 DUP7 DUP7 PUSH1 0x40 MLOAD PUSH2 0x361 SWAP5 SWAP4 SWAP3 SWAP2 SWAP1 PUSH2 0x109C JUMP JUMPDEST PUSH1 0x40 MLOAD DUP1 SWAP2 SUB SWAP1 LOG1 POP POP POP POP POP POP JUMP JUMPDEST PUSH0 PUSH1 0x1 PUSH0 DUP4 DUP2 MSTORE PUSH1 0x20 ADD SWAP1 DUP2 MSTORE PUSH1 0x20 ADD PUSH0 KECCAK256 SWAP1 POP DUP1 PUSH1 0x1 ADD PUSH1 0x14 SWAP1 SLOAD SWAP1 PUSH2 0x100 EXP SWAP1 DIV PUSH1 0xFF AND PUSH2 0x3D6 JUMPI PUSH1 0x40 MLOAD PUSH32 0x8C379A000000000000000000000000000000000000000000000000000000000 DUP2 MSTORE PUSH1 0x4 ADD PUSH2 0x3CD SWAP1 PUSH2 0x1137 JUMP JUMPDEST PUSH1 0x40 MLOAD DUP1 SWAP2 SUB SWAP1 REVERT JUMPDEST CALLVALUE DUP2 PUSH0 ADD SLOAD GT ISZERO PUSH2 0x41C JUMPI PUSH1 0x40 MLOAD PUSH32 0x8C379A000000000000000000000000000000000000000000000000000000000 DUP2 MSTORE PUSH1 0x4 ADD PUSH2 0x413 SWAP1 PUSH2 0x119F JUMP JUMPDEST PUSH1 0x40 MLOAD DUP1 SWAP2 SUB SWAP1 REVERT JUMPDEST PUSH0 DUP2 PUSH1 0x1 ADD PUSH0 SWAP1 SLOAD SWAP1 PUSH2 0x100 EXP SWAP1 DIV PUSH20 0xFFFFFFFFFFFFFFFFFFFFFFFFFFFFFFFFFFFFFFFF AND SWAP1 POP CALLER DUP3 PUSH1 0x1 ADD PUSH0 PUSH2 0x100 EXP DUP2 SLOAD DUP2 PUSH20 0xFFFFFFFFFFFFFFFFFFFFFFFFFFFFFFFFFFFFFFFF MUL NOT AND SWAP1 DUP4 PUSH20 0xFFFFFFFFFFFFFFFFFFFFFFFFFFFFFFFFFFFFFFFF AND MUL OR SWAP1 SSTORE POP PUSH0 DUP3 PUSH1 0x1 ADD PUSH1 0x14 PUSH2 0x100 EXP DUP2 SLOAD DUP2 PUSH1 0xFF MUL NOT AND SWAP1 DUP4 ISZERO ISZERO MUL OR SWAP1 SSTORE POP DUP1 PUSH20 0xFFFFFFFFFFFFFFFFFFFFFFFFFFFFFFFFFFFFFFFF AND PUSH2 0x8FC CALLVALUE SWAP1 DUP2 ISZERO MUL SWAP1 PUSH1 0x40 MLOAD PUSH0 PUSH1 0x40 MLOAD DUP1 DUP4 SUB DUP2 DUP6 DUP9 DUP9 CALL SWAP4 POP POP POP POP ISZERO DUP1 ISZERO PUSH2 0x4E4 JUMPI RETURNDATASIZE PUSH0 DUP1 RETURNDATACOPY RETURNDATASIZE PUSH0 REVERT JUMPDEST POP PUSH32 0xF17A6666765DB393A6218BB324C4DE5CC60C9EE3B981BD102BA416EFFC13B895 DUP4 CALLER CALLVALUE PUSH1 0x40 MLOAD PUSH2 0x518 SWAP4 SWAP3 SWAP2 SWAP1 PUSH2 0x11BD JUMP JUMPDEST PUSH1 0x40 MLOAD DUP1 SWAP2 SUB SWAP1 LOG1 POP POP POP JUMP JUMPDEST PUSH0 DUP1 PUSH0 SWAP1 SLOAD SWAP1 PUSH2 0x100 EXP SWAP1 DIV PUSH20 0xFFFFFFFFFFFFFFFFFFFFFFFFFFFFFFFFFFFFFFFF AND SWAP1 POP SWAP1 JUMP JUMPDEST PUSH1 0x2 DUP2 DUP2 SLOAD DUP2 LT PUSH2 0x55B JUMPI PUSH0 DUP1 REVERT JUMPDEST SWAP1 PUSH0 MSTORE PUSH1 0x20 PUSH0 KECCAK256 ADD PUSH0 SWAP2 POP SWAP1 POP SLOAD DUP2 JUMP JUMPDEST PUSH0 DUP1 SLOAD SWAP1 PUSH2 0x100 EXP SWAP1 DIV PUSH20 0xFFFFFFFFFFFFFFFFFFFFFFFFFFFFFFFFFFFFFFFF AND PUSH20 0xFFFFFFFFFFFFFFFFFFFFFFFFFFFFFFFFFFFFFFFF AND CALLER PUSH20 0xFFFFFFFFFFFFFFFFFFFFFFFFFFFFFFFFFFFFFFFF AND EQ PUSH2 0x5F9 JUMPI PUSH1 0x40 MLOAD PUSH32 0x8C379A000000000000000000000000000000000000000000000000000000000 DUP2 MSTORE PUSH1 0x4 ADD PUSH2 0x5F0 SWAP1 PUSH2 0xDB5 JUMP JUMPDEST PUSH1 0x40 MLOAD DUP1 SWAP2 SUB SWAP1 REVERT JUMPDEST PUSH0 PUSH20 0xFFFFFFFFFFFFFFFFFFFFFFFFFFFFFFFFFFFFFFFF AND DUP2 PUSH20 0xFFFFFFFFFFFFFFFFFFFFFFFFFFFFFFFFFFFFFFFF AND SUB PUSH2 0x667 JUMPI PUSH1 0x40 MLOAD PUSH32 0x8C379A000000000000000000000000000000000000000000000000000000000 DUP2 MSTORE PUSH1 0x4 ADD PUSH2 0x65E SWAP1 PUSH2 0x123C JUMP JUMPDEST PUSH1 0x40 MLOAD DUP1 SWAP2 SUB SWAP1 REVERT JUMPDEST DUP1 PUSH20 0xFFFFFFFFFFFFFFFFFFFFFFFFFFFFFFFFFFFFFFFF AND PUSH0 DUP1 SLOAD SWAP1 PUSH2 0x100 EXP SWAP1 DIV PUSH20 0xFFFFFFFFFFFFFFFFFFFFFFFFFFFFFFFFFFFFFFFF AND PUSH20 0xFFFFFFFFFFFFFFFFFFFFFFFFFFFFFFFFFFFFFFFF AND PUSH32 0x8BE0079C531659141344CD1FD0A4F28419497F9722A3DAAFE3B4186F6B6457E0 PUSH1 0x40 MLOAD PUSH1 0x40 MLOAD DUP1 SWAP2 SUB SWAP1 LOG3 DUP1 PUSH0 DUP1 PUSH2 0x100 EXP DUP2 SLOAD DUP2 PUSH20 0xFFFFFFFFFFFFFFFFFFFFFFFFFFFFFFFFFFFFFFFF MUL NOT AND SWAP1 DUP4 PUSH20 0xFFFFFFFFFFFFFFFFFFFFFFFFFFFFFFFFFFFFFFFF AND MUL OR SWAP1 SSTORE POP POP JUMP JUMPDEST PUSH1 0x1 PUSH1 0x20 MSTORE DUP1 PUSH0 MSTORE PUSH1 0x40 PUSH0 KECCAK256 PUSH0 SWAP2 POP SWAP1 POP DUP1 PUSH0 ADD SLOAD SWAP1 DUP1 PUSH1 0x1 ADD PUSH0 SWAP1 SLOAD SWAP1 PUSH2 0x100 EXP SWAP1 DIV PUSH20 0xFFFFFFFFFFFFFFFFFFFFFFFFFFFFFFFFFFFFFFFF AND SWAP1 DUP1 PUSH1 0x1 ADD PUSH1 0x14 SWAP1 SLOAD SWAP1 PUSH2 0x100 EXP SWAP1 DIV PUSH1 0xFF AND SWAP1 DUP1 PUSH1 0x2 ADD DUP1 SLOAD PUSH2 0x77F SWAP1 PUSH2 0xE00 JUMP JUMPDEST DUP1 PUSH1 0x1F ADD PUSH1 0x20 DUP1 SWAP2 DIV MUL PUSH1 0x20 ADD PUSH1 0x40 MLOAD SWAP1 DUP2 ADD PUSH1 0x40 MSTORE DUP1 SWAP3 SWAP2 SWAP1 DUP2 DUP2 MSTORE PUSH1 0x20 ADD DUP3 DUP1 SLOAD PUSH2 0x7AB SWAP1 PUSH2 0xE00 JUMP JUMPDEST DUP1 ISZERO PUSH2 0x7F6 JUMPI DUP1 PUSH1 0x1F LT PUSH2 0x7CD JUMPI PUSH2 0x100 DUP1 DUP4 SLOAD DIV MUL DUP4 MSTORE SWAP2 PUSH1 0x20 ADD SWAP2 PUSH2 0x7F6 JUMP JUMPDEST DUP3 ADD SWAP2 SWAP1 PUSH0 MSTORE PUSH1 0x20 PUSH0 KECCAK256 SWAP1 JUMPDEST DUP2 SLOAD DUP2 MSTORE SWAP1 PUSH1 0x1 ADD SWAP1 PUSH1 0x20 ADD DUP1 DUP4 GT PUSH2 0x7D9 JUMPI DUP3 SWAP1 SUB PUSH1 0x1F AND DUP3 ADD SWAP2 JUMPDEST POP POP POP POP POP SWAP1 DUP1 PUSH1 0x3 ADD DUP1 SLOAD PUSH2 0x80B SWAP1 PUSH2 0xE00 JUMP JUMPDEST DUP1 PUSH1 0x1F ADD PUSH1 0x20 DUP1 SWAP2 DIV MUL PUSH1 0x20 ADD PUSH1 0x40 MLOAD SWAP1 DUP2 ADD PUSH1 0x40 MSTORE DUP1 SWAP3 SWAP2 SWAP1 DUP2 DUP2 MSTORE PUSH1 0x20 ADD DUP3 DUP1 SLOAD PUSH2 0x837 SWAP1 PUSH2 0xE00 JUMP JUMPDEST DUP1 ISZERO PUSH2 0x882 JUMPI DUP1 PUSH1 0x1F LT PUSH2 0x859 JUMPI PUSH2 0x100 DUP1 DUP4 SLOAD DIV MUL DUP4 MSTORE SWAP2 PUSH1 0x20 ADD SWAP2 PUSH2 0x882 JUMP JUMPDEST DUP3 ADD SWAP2 SWAP1 PUSH0 MSTORE PUSH1 0x20 PUSH0 KECCAK256 SWAP1 JUMPDEST DUP2 SLOAD DUP2 MSTORE SWAP1 PUSH1 0x1 ADD SWAP1 PUSH1 0x20 ADD DUP1 DUP4 GT PUSH2 0x865 JUMPI DUP3 SWAP1 SUB PUSH1 0x1F AND DUP3 ADD SWAP2 JUMPDEST POP POP POP POP POP SWAP1 DUP1 PUSH1 0x4 ADD DUP1 SLOAD PUSH2 0x897 SWAP1 PUSH2 0xE00 JUMP JUMPDEST DUP1 PUSH1 0x1F ADD PUSH1 0x20 DUP1 SWAP2 DIV MUL PUSH1 0x20 ADD PUSH1 0x40 MLOAD SWAP1 DUP2 ADD PUSH1 0x40 MSTORE DUP1 SWAP3 SWAP2 SWAP1 DUP2 DUP2 MSTORE PUSH1 0x20 ADD DUP3 DUP1 SLOAD PUSH2 0x8C3 SWAP1 PUSH2 0xE00 JUMP JUMPDEST DUP1 ISZERO PUSH2 0x90E JUMPI DUP1 PUSH1 0x1F LT PUSH2 0x8E5 JUMPI PUSH2 0x100 DUP1 DUP4 SLOAD DIV MUL DUP4 MSTORE SWAP2 PUSH1 0x20 ADD SWAP2 PUSH2 0x90E JUMP JUMPDEST DUP3 ADD SWAP2 SWAP1 PUSH0 MSTORE PUSH1 0x20 PUSH0 KECCAK256 SWAP1 JUMPDEST DUP2 SLOAD DUP2 MSTORE SWAP1 PUSH1 0x1 ADD SWAP1 PUSH1 0x20 ADD DUP1 DUP4 GT PUSH2 0x8F1 JUMPI DUP3 SWAP1 SUB PUSH1 0x1F AND DUP3 ADD SWAP2 JUMPDEST POP POP POP POP POP SWAP1 POP DUP7 JUMP JUMPDEST PUSH0 PUSH1 0x40 MLOAD SWAP1 POP SWAP1 JUMP JUMPDEST PUSH0 DUP1 REVERT JUMPDEST PUSH0 DUP1 REVERT JUMPDEST PUSH0 DUP2 SWAP1 POP SWAP2 SWAP1 POP JUMP JUMPDEST PUSH2 0x93B DUP2 PUSH2 0x929 JUMP JUMPDEST DUP2 EQ PUSH2 0x945 JUMPI PUSH0 DUP1 REVERT JUMPDEST POP JUMP JUMPDEST PUSH0 DUP2 CALLDATALOAD SWAP1 POP PUSH2 0x956 DUP2 PUSH2 0x932 JUMP JUMPDEST SWAP3 SWAP2 POP POP JUMP JUMPDEST PUSH0 DUP1 REVERT JUMPDEST PUSH0 DUP1 REVERT JUMPDEST PUSH0 PUSH1 0x1F NOT PUSH1 0x1F DUP4 ADD AND SWAP1 POP SWAP2 SWAP1 POP JUMP JUMPDEST PUSH32 0x4E487B7100000000000000000000000000000000000000000000000000000000 PUSH0 MSTORE PUSH1 0x41 PUSH1 0x4 MSTORE PUSH1 0x24 PUSH0 REVERT JUMPDEST PUSH2 0x9AA DUP3 PUSH2 0x964 JUMP JUMPDEST DUP2 ADD DUP2 DUP2 LT PUSH8 0xFFFFFFFFFFFFFFFF DUP3 GT OR ISZERO PUSH2 0x9C9 JUMPI PUSH2 0x9C8 PUSH2 0x974 JUMP JUMPDEST JUMPDEST DUP1 PUSH1 0x40 MSTORE POP POP POP JUMP JUMPDEST PUSH0 PUSH2 0x9DB PUSH2 0x918 JUMP JUMPDEST SWAP1 POP PUSH2 0x9E7 DUP3 DUP3 PUSH2 0x9A1 JUMP JUMPDEST SWAP2 SWAP1 POP JUMP JUMPDEST PUSH0 PUSH8 0xFFFFFFFFFFFFFFFF DUP3 GT ISZERO PUSH2 0xA06 JUMPI PUSH2 0xA05 PUSH2 0x974 JUMP JUMPDEST JUMPDEST PUSH2 0xA0F DUP3 PUSH2 0x964 JUMP JUMPDEST SWAP1 POP PUSH1 0x20 DUP2 ADD SWAP1 POP SWAP2 SWAP1 POP JUMP JUMPDEST DUP3 DUP2 DUP4 CALLDATACOPY PUSH0 DUP4 DUP4 ADD MSTORE POP POP POP JUMP JUMPDEST PUSH0 PUSH2 0xA3C PUSH2 0xA37 DUP5 PUSH2 0x9EC JUMP JUMPDEST PUSH2 0x9D2 JUMP JUMPDEST SWAP1 POP DUP3 DUP2 MSTORE PUSH1 0x20 DUP2 ADD DUP5 DUP5 DUP5 ADD GT ISZERO PUSH2 0xA58 JUMPI PUSH2 0xA57 PUSH2 0x960 JUMP JUMPDEST JUMPDEST PUSH2 0xA63 DUP5 DUP3 DUP6 PUSH2 0xA1C JUMP JUMPDEST POP SWAP4 SWAP3 POP POP POP JUMP JUMPDEST PUSH0 DUP3 PUSH1 0x1F DUP4 ADD SLT PUSH2 0xA7F JUMPI PUSH2 0xA7E PUSH2 0x95C JUMP JUMPDEST JUMPDEST DUP2 CALLDATALOAD PUSH2 0xA8F DUP5 DUP3 PUSH1 0x20 DUP7 ADD PUSH2 0xA2A JUMP JUMPDEST SWAP2 POP POP SWAP3 SWAP2 POP POP JUMP JUMPDEST PUSH0 DUP1 PUSH0 DUP1 PUSH0 PUSH1 0xA0 DUP7 DUP9 SUB SLT ISZERO PUSH2 0xAB1 JUMPI PUSH2 0xAB0 PUSH2 0x921 JUMP JUMPDEST JUMPDEST PUSH0 PUSH2 0xABE DUP9 DUP3 DUP10 ADD PUSH2 0x948 JUMP JUMPDEST SWAP6 POP POP PUSH1 0x20 PUSH2 0xACF DUP9 DUP3 DUP10 ADD PUSH2 0x948 JUMP JUMPDEST SWAP5 POP POP PUSH1 0x40 DUP7 ADD CALLDATALOAD PUSH8 0xFFFFFFFFFFFFFFFF DUP2 GT ISZERO PUSH2 0xAF0 JUMPI PUSH2 0xAEF PUSH2 0x925 JUMP JUMPDEST JUMPDEST PUSH2 0xAFC DUP9 DUP3 DUP10 ADD PUSH2 0xA6B JUMP JUMPDEST SWAP4 POP POP PUSH1 0x60 DUP7 ADD CALLDATALOAD PUSH8 0xFFFFFFFFFFFFFFFF DUP2 GT ISZERO PUSH2 0xB1D JUMPI PUSH2 0xB1C PUSH2 0x925 JUMP JUMPDEST JUMPDEST PUSH2 0xB29 DUP9 DUP3 DUP10 ADD PUSH2 0xA6B JUMP JUMPDEST SWAP3 POP POP PUSH1 0x80 DUP7 ADD CALLDATALOAD PUSH8 0xFFFFFFFFFFFFFFFF DUP2 GT ISZERO PUSH2 0xB4A JUMPI PUSH2 0xB49 PUSH2 0x925 JUMP JUMPDEST JUMPDEST PUSH2 0xB56 DUP9 DUP3 DUP10 ADD PUSH2 0xA6B JUMP JUMPDEST SWAP2 POP POP SWAP3 SWAP6 POP SWAP3 SWAP6 SWAP1 SWAP4 POP JUMP JUMPDEST PUSH0 PUSH1 0x20 DUP3 DUP5 SUB SLT ISZERO PUSH2 0xB78 JUMPI PUSH2 0xB77 PUSH2 0x921 JUMP JUMPDEST JUMPDEST PUSH0 PUSH2 0xB85 DUP5 DUP3 DUP6 ADD PUSH2 0x948 JUMP JUMPDEST SWAP2 POP POP SWAP3 SWAP2 POP POP JUMP JUMPDEST PUSH0 PUSH20 0xFFFFFFFFFFFFFFFFFFFFFFFFFFFFFFFFFFFFFFFF DUP3 AND SWAP1 POP SWAP2 SWAP1 POP JUMP JUMPDEST PUSH0 PUSH2 0xBB7 DUP3 PUSH2 0xB8E JUMP JUMPDEST SWAP1 POP SWAP2 SWAP1 POP JUMP JUMPDEST PUSH2 0xBC7 DUP2 PUSH2 0xBAD JUMP JUMPDEST DUP3 MSTORE POP POP JUMP JUMPDEST PUSH0 PUSH1 0x20 DUP3 ADD SWAP1 POP PUSH2 0xBE0 PUSH0 DUP4 ADD DUP5 PUSH2 0xBBE JUMP JUMPDEST SWAP3 SWAP2 POP POP JUMP JUMPDEST PUSH2 0xBEF DUP2 PUSH2 0x929 JUMP JUMPDEST DUP3 MSTORE POP POP JUMP JUMPDEST PUSH0 PUSH1 0x20 DUP3 ADD SWAP1 POP PUSH2 0xC08 PUSH0 DUP4 ADD DUP5 PUSH2 0xBE6 JUMP JUMPDEST SWAP3 SWAP2 POP POP JUMP JUMPDEST PUSH2 0xC17 DUP2 PUSH2 0xBAD JUMP JUMPDEST DUP2 EQ PUSH2 0xC21 JUMPI PUSH0 DUP1 REVERT JUMPDEST POP JUMP JUMPDEST PUSH0 DUP2 CALLDATALOAD SWAP1 POP PUSH2 0xC32 DUP2 PUSH2 0xC0E JUMP JUMPDEST SWAP3 SWAP2 POP POP JUMP JUMPDEST PUSH0 PUSH1 0x20 DUP3 DUP5 SUB SLT ISZERO PUSH2 0xC4D JUMPI PUSH2 0xC4C PUSH2 0x921 JUMP JUMPDEST JUMPDEST PUSH0 PUSH2 0xC5A DUP5 DUP3 DUP6 ADD PUSH2 0xC24 JUMP JUMPDEST SWAP2 POP POP SWAP3 SWAP2 POP POP JUMP JUMPDEST PUSH0 DUP2 ISZERO ISZERO SWAP1 POP SWAP2 SWAP1 POP JUMP JUMPDEST PUSH2 0xC77 DUP2 PUSH2 0xC63 JUMP JUMPDEST DUP3 MSTORE POP POP JUMP JUMPDEST PUSH0 DUP2 MLOAD SWAP1 POP SWAP2 SWAP1 POP JUMP JUMPDEST PUSH0 DUP3 DUP3 MSTORE PUSH1 0x20 DUP3 ADD SWAP1 POP SWAP3 SWAP2 POP POP JUMP JUMPDEST PUSH0 JUMPDEST DUP4 DUP2 LT ISZERO PUSH2 0xCB4 JUMPI DUP1 DUP3 ADD MLOAD DUP2 DUP5 ADD MSTORE PUSH1 0x20 DUP2 ADD SWAP1 POP PUSH2 0xC99 JUMP JUMPDEST PUSH0 DUP5 DUP5 ADD MSTORE POP POP POP POP JUMP JUMPDEST PUSH0 PUSH2 0xCC9 DUP3 PUSH2 0xC7D JUMP JUMPDEST PUSH2 0xCD3 DUP2 DUP6 PUSH2 0xC87 JUMP JUMPDEST SWAP4 POP PUSH2 0xCE3 DUP2 DUP6 PUSH1 0x20 DUP7 ADD PUSH2 0xC97 JUMP JUMPDEST PUSH2 0xCEC DUP2 PUSH2 0x964 JUMP JUMPDEST DUP5 ADD SWAP2 POP POP SWAP3 SWAP2 POP POP JUMP JUMPDEST PUSH0 PUSH1 0xC0 DUP3 ADD SWAP1 POP PUSH2 0xD0A PUSH0 DUP4 ADD DUP10 PUSH2 0xBE6 JUMP JUMPDEST PUSH2 0xD17 PUSH1 0x20 DUP4 ADD DUP9 PUSH2 0xBBE JUMP JUMPDEST PUSH2 0xD24 PUSH1 0x40 DUP4 ADD DUP8 PUSH2 0xC6E JUMP JUMPDEST DUP2 DUP2 SUB PUSH1 0x60 DUP4 ADD MSTORE PUSH2 0xD36 DUP2 DUP7 PUSH2 0xCBF JUMP JUMPDEST SWAP1 POP DUP2 DUP2 SUB PUSH1 0x80 DUP4 ADD MSTORE PUSH2 0xD4A DUP2 DUP6 PUSH2 0xCBF JUMP JUMPDEST SWAP1 POP DUP2 DUP2 SUB PUSH1 0xA0 DUP4 ADD MSTORE PUSH2 0xD5E DUP2 DUP5 PUSH2 0xCBF JUMP JUMPDEST SWAP1 POP SWAP8 SWAP7 POP POP POP POP POP POP POP JUMP JUMPDEST PUSH32 0x43616C6C6572206973206E6F7420746865206F776E6572000000000000000000 PUSH0 DUP3 ADD MSTORE POP JUMP JUMPDEST PUSH0 PUSH2 0xD9F PUSH1 0x17 DUP4 PUSH2 0xC87 JUMP JUMPDEST SWAP2 POP PUSH2 0xDAA DUP3 PUSH2 0xD6B JUMP JUMPDEST PUSH1 0x20 DUP3 ADD SWAP1 POP SWAP2 SWAP1 POP JUMP JUMPDEST PUSH0 PUSH1 0x20 DUP3 ADD SWAP1 POP DUP2 DUP2 SUB PUSH0 DUP4 ADD MSTORE PUSH2 0xDCC DUP2 PUSH2 0xD93 JUMP JUMPDEST SWAP1 POP SWAP2 SWAP1 POP JUMP JUMPDEST PUSH32 0x4E487B7100000000000000000000000000000000000000000000000000000000 PUSH0 MSTORE PUSH1 0x22 PUSH1 0x4 MSTORE PUSH1 0x24 PUSH0 REVERT JUMPDEST PUSH0 PUSH1 0x2 DUP3 DIV SWAP1 POP PUSH1 0x1 DUP3 AND DUP1 PUSH2 0xE17 JUMPI PUSH1 0x7F DUP3 AND SWAP2 POP JUMPDEST PUSH1 0x20 DUP3 LT DUP2 SUB PUSH2 0xE2A JUMPI PUSH2 0xE29 PUSH2 0xDD3 JUMP JUMPDEST JUMPDEST POP SWAP2 SWAP1 POP JUMP JUMPDEST PUSH0 DUP2 SWAP1 POP DUP2 PUSH0 MSTORE PUSH1 0x20 PUSH0 KECCAK256 SWAP1 POP SWAP2 SWAP1 POP JUMP JUMPDEST PUSH0 PUSH1 0x20 PUSH1 0x1F DUP4 ADD DIV SWAP1 POP SWAP2 SWAP1 POP JUMP JUMPDEST PUSH0 DUP3 DUP3 SHL SWAP1 POP SWAP3 SWAP2 POP POP JUMP JUMPDEST PUSH0 PUSH1 0x8 DUP4 MUL PUSH2 0xE8C PUSH32 0xFFFFFFFFFFFFFFFFFFFFFFFFFFFFFFFFFFFFFFFFFFFFFFFFFFFFFFFFFFFFFFFF DUP3 PUSH2 0xE51 JUMP JUMPDEST PUSH2 0xE96 DUP7 DUP4 PUSH2 0xE51 JUMP JUMPDEST SWAP6 POP DUP1 NOT DUP5 AND SWAP4 POP DUP1 DUP7 AND DUP5 OR SWAP3 POP POP POP SWAP4 SWAP3 POP POP POP JUMP JUMPDEST PUSH0 DUP2 SWAP1 POP SWAP2 SWAP1 POP JUMP JUMPDEST PUSH0 PUSH2 0xED1 PUSH2 0xECC PUSH2 0xEC7 DUP5 PUSH2 0x929 JUMP JUMPDEST PUSH2 0xEAE JUMP JUMPDEST PUSH2 0x929 JUMP JUMPDEST SWAP1 POP SWAP2 SWAP1 POP JUMP JUMPDEST PUSH0 DUP2 SWAP1 POP SWAP2 SWAP1 POP JUMP JUMPDEST PUSH2 0xEEA DUP4 PUSH2 0xEB7 JUMP JUMPDEST PUSH2 0xEFE PUSH2 0xEF6 DUP3 PUSH2 0xED8 JUMP JUMPDEST DUP5 DUP5 SLOAD PUSH2 0xE5D JUMP JUMPDEST DUP3 SSTORE POP POP POP POP JUMP JUMPDEST PUSH0 SWAP1 JUMP JUMPDEST PUSH2 0xF12 PUSH2 0xF06 JUMP JUMPDEST PUSH2 0xF1D DUP2 DUP5 DUP5 PUSH2 0xEE1 JUMP JUMPDEST POP POP POP JUMP JUMPDEST JUMPDEST DUP2 DUP2 LT ISZERO PUSH2 0xF40 JUMPI PUSH2 0xF35 PUSH0 DUP3 PUSH2 0xF0A JUMP JUMPDEST PUSH1 0x1 DUP2 ADD SWAP1 POP PUSH2 0xF23 JUMP JUMPDEST POP POP JUMP JUMPDEST PUSH1 0x1F DUP3 GT ISZERO PUSH2 0xF85 JUMPI PUSH2 0xF56 DUP2 PUSH2 0xE30 JUMP JUMPDEST PUSH2 0xF5F DUP5 PUSH2 0xE42 JUMP JUMPDEST DUP2 ADD PUSH1 0x20 DUP6 LT ISZERO PUSH2 0xF6E JUMPI DUP2 SWAP1 POP JUMPDEST PUSH2 0xF82 PUSH2 0xF7A DUP6 PUSH2 0xE42 JUMP JUMPDEST DUP4 ADD DUP3 PUSH2 0xF22 JUMP JUMPDEST POP POP JUMPDEST POP POP POP JUMP JUMPDEST PUSH0 DUP3 DUP3 SHR SWAP1 POP SWAP3 SWAP2 POP POP JUMP JUMPDEST PUSH0 PUSH2 0xFA5 PUSH0 NOT DUP5 PUSH1 0x8 MUL PUSH2 0xF8A JUMP JUMPDEST NOT DUP1 DUP4 AND SWAP2 POP POP SWAP3 SWAP2 POP POP JUMP JUMPDEST PUSH0 PUSH2 0xFBD DUP4 DUP4 PUSH2 0xF96 JUMP JUMPDEST SWAP2 POP DUP3 PUSH1 0x2 MUL DUP3 OR SWAP1 POP SWAP3 SWAP2 POP POP JUMP JUMPDEST PUSH2 0xFD6 DUP3 PUSH2 0xC7D JUMP JUMPDEST PUSH8 0xFFFFFFFFFFFFFFFF DUP2 GT ISZERO PUSH2 0xFEF JUMPI PUSH2 0xFEE PUSH2 0x974 JUMP JUMPDEST JUMPDEST PUSH2 0xFF9 DUP3 SLOAD PUSH2 0xE00 JUMP JUMPDEST PUSH2 0x1004 DUP3 DUP3 DUP6 PUSH2 0xF44 JUMP JUMPDEST PUSH0 PUSH1 0x20 SWAP1 POP PUSH1 0x1F DUP4 GT PUSH1 0x1 DUP2 EQ PUSH2 0x1035 JUMPI PUSH0 DUP5 ISZERO PUSH2 0x1023 JUMPI DUP3 DUP8 ADD MLOAD SWAP1 POP JUMPDEST PUSH2 0x102D DUP6 DUP3 PUSH2 0xFB2 JUMP JUMPDEST DUP7 SSTORE POP PUSH2 0x1094 JUMP JUMPDEST PUSH1 0x1F NOT DUP5 AND PUSH2 0x1043 DUP7 PUSH2 0xE30 JUMP JUMPDEST PUSH0 JUMPDEST DUP3 DUP2 LT ISZERO PUSH2 0x106A JUMPI DUP5 DUP10 ADD MLOAD DUP3 SSTORE PUSH1 0x1 DUP3 ADD SWAP2 POP PUSH1 0x20 DUP6 ADD SWAP5 POP PUSH1 0x20 DUP2 ADD SWAP1 POP PUSH2 0x1045 JUMP JUMPDEST DUP7 DUP4 LT ISZERO PUSH2 0x1087 JUMPI DUP5 DUP10 ADD MLOAD PUSH2 0x1083 PUSH1 0x1F DUP10 AND DUP3 PUSH2 0xF96 JUMP JUMPDEST DUP4 SSTORE POP JUMPDEST PUSH1 0x1 PUSH1 0x2 DUP9 MUL ADD DUP9 SSTORE POP POP POP JUMPDEST POP POP POP POP POP POP JUMP JUMPDEST PUSH0 PUSH1 0x80 DUP3 ADD SWAP1 POP PUSH2 0x10AF PUSH0 DUP4 ADD DUP8 PUSH2 0xBE6 JUMP JUMPDEST PUSH2 0x10BC PUSH1 0x20 DUP4 ADD DUP7 PUSH2 0xBE6 JUMP JUMPDEST DUP2 DUP2 SUB PUSH1 0x40 DUP4 ADD MSTORE PUSH2 0x10CE DUP2 DUP6 PUSH2 0xCBF JUMP JUMPDEST SWAP1 POP DUP2 DUP2 SUB PUSH1 0x60 DUP4 ADD MSTORE PUSH2 0x10E2 DUP2 DUP5 PUSH2 0xCBF JUMP JUMPDEST SWAP1 POP SWAP6 SWAP5 POP POP POP POP POP JUMP JUMPDEST PUSH32 0x50726F7065727479206973206E6F7420666F722073616C652E00000000000000 PUSH0 DUP3 ADD MSTORE POP JUMP JUMPDEST PUSH0 PUSH2 0x1121 PUSH1 0x19 DUP4 PUSH2 0xC87 JUMP JUMPDEST SWAP2 POP PUSH2 0x112C DUP3 PUSH2 0x10ED JUMP JUMPDEST PUSH1 0x20 DUP3 ADD SWAP1 POP SWAP2 SWAP1 POP JUMP JUMPDEST PUSH0 PUSH1 0x20 DUP3 ADD SWAP1 POP DUP2 DUP2 SUB PUSH0 DUP4 ADD MSTORE PUSH2 0x114E DUP2 PUSH2 0x1115 JUMP JUMPDEST SWAP1 POP SWAP2 SWAP1 POP JUMP JUMPDEST PUSH32 0x496E73756666696369656E742066756E64730000000000000000000000000000 PUSH0 DUP3 ADD MSTORE POP JUMP JUMPDEST PUSH0 PUSH2 0x1189 PUSH1 0x12 DUP4 PUSH2 0xC87 JUMP JUMPDEST SWAP2 POP PUSH2 0x1194 DUP3 PUSH2 0x1155 JUMP JUMPDEST PUSH1 0x20 DUP3 ADD SWAP1 POP SWAP2 SWAP1 POP JUMP JUMPDEST PUSH0 PUSH1 0x20 DUP3 ADD SWAP1 POP DUP2 DUP2 SUB PUSH0 DUP4 ADD MSTORE PUSH2 0x11B6 DUP2 PUSH2 0x117D JUMP JUMPDEST SWAP1 POP SWAP2 SWAP1 POP JUMP JUMPDEST PUSH0 PUSH1 0x60 DUP3 ADD SWAP1 POP PUSH2 0x11D0 PUSH0 DUP4 ADD DUP7 PUSH2 0xBE6 JUMP JUMPDEST PUSH2 0x11DD PUSH1 0x20 DUP4 ADD DUP6 PUSH2 0xBBE JUMP JUMPDEST PUSH2 0x11EA PUSH1 0x40 DUP4 ADD DUP5 PUSH2 0xBE6 JUMP JUMPDEST SWAP5 SWAP4 POP POP POP POP JUMP JUMPDEST PUSH32 0x4E6577206F776E657220697320746865207A65726F2061646472657373000000 PUSH0 DUP3 ADD MSTORE POP JUMP JUMPDEST PUSH0 PUSH2 0x1226 PUSH1 0x1D DUP4 PUSH2 0xC87 JUMP JUMPDEST SWAP2 POP PUSH2 0x1231 DUP3 PUSH2 0x11F2 JUMP JUMPDEST PUSH1 0x20 DUP3 ADD SWAP1 POP SWAP2 SWAP1 POP JUMP JUMPDEST PUSH0 PUSH1 0x20 DUP3 ADD SWAP1 POP DUP2 DUP2 SUB PUSH0 DUP4 ADD MSTORE PUSH2 0x1253 DUP2 PUSH2 0x121A JUMP JUMPDEST SWAP1 POP SWAP2 SWAP1 POP JUMP INVALID LOG2 PUSH5 0x6970667358 0x22 SLT KECCAK256 0xB2 SWAP4 CALLCODE SWAP16 MSTORE GASPRICE DUP11 RETURNDATASIZE 0xC0 LOG4 NUMBER 0xA5 PUSH8 0x5D49181F9F57DBFF SUB 0xE 0xB2 SAR 0xD1 PUSH6 0x94A1B02B8C64 PUSH20 0x6F6C634300081600330000000000000000000000 "
				},
				"gasEstimates": {
					"creation": {
						"codeDepositCost": "950400",
						"executionCost": "28927",
						"totalCost": "979327"
					},
					"external": {
						"buyProperty(uint256)": "infinite",
						"listPropertyForSale(uint256,uint256,string,string,string)": "infinite",
						"owner()": "2537",
						"properties(uint256)": "infinite",
						"propertyIds(uint256)": "infinite",
						"transferOwnership(address)": "30658"
					}
				},
				"methodIdentifiers": {
					"buyProperty(uint256)": "6fa830a6",
					"listPropertyForSale(uint256,uint256,string,string,string)": "611cf614",
					"owner()": "8da5cb5b",
					"properties(uint256)": "f7b10808",
					"propertyIds(uint256)": "d03b47f4",
					"transferOwnership(address)": "f2fde38b"
				}
			},
			"storageLayout": {
				"storage": [
					{
						"astId": 319,
						"contract": "Real Estate Industry/Advanced Real Estate Smart Contract.sol:AdvancedRealEstate",
						"label": "_owner",
						"offset": 0,
						"slot": "0",
						"type": "t_address"
					},
					{
						"astId": 324,
						"contract": "Real Estate Industry/Advanced Real Estate Smart Contract.sol:AdvancedRealEstate",
						"label": "properties",
						"offset": 0,
						"slot": "1",
						"type": "t_mapping(t_uint256,t_struct(Property)340_storage)"
					},
					{
						"astId": 327,
						"contract": "Real Estate Industry/Advanced Real Estate Smart Contract.sol:AdvancedRealEstate",
						"label": "propertyIds",
						"offset": 0,
						"slot": "2",
						"type": "t_array(t_uint256)dyn_storage"
					}
				],
				"types": {
					"t_address": {
						"encoding": "inplace",
						"label": "address",
						"numberOfBytes": "20"
					},
					"t_array(t_uint256)dyn_storage": {
						"base": "t_uint256",
						"encoding": "dynamic_array",
						"label": "uint256[]",
						"numberOfBytes": "32"
					},
					"t_bool": {
						"encoding": "inplace",
						"label": "bool",
						"numberOfBytes": "1"
					},
					"t_mapping(t_uint256,t_struct(Property)340_storage)": {
						"encoding": "mapping",
						"key": "t_uint256",
						"label": "mapping(uint256 => struct AdvancedRealEstate.Property)",
						"numberOfBytes": "32",
						"value": "t_struct(Property)340_storage"
					},
					"t_string_storage": {
						"encoding": "bytes",
						"label": "string",
						"numberOfBytes": "32"
					},
					"t_struct(Property)340_storage": {
						"encoding": "inplace",
						"label": "struct AdvancedRealEstate.Property",
						"members": [
							{
								"astId": 329,
								"contract": "Real Estate Industry/Advanced Real Estate Smart Contract.sol:AdvancedRealEstate",
								"label": "price",
								"offset": 0,
								"slot": "0",
								"type": "t_uint256"
							},
							{
								"astId": 331,
								"contract": "Real Estate Industry/Advanced Real Estate Smart Contract.sol:AdvancedRealEstate",
								"label": "owner",
								"offset": 0,
								"slot": "1",
								"type": "t_address"
							},
							{
								"astId": 333,
								"contract": "Real Estate Industry/Advanced Real Estate Smart Contract.sol:AdvancedRealEstate",
								"label": "forSale",
								"offset": 20,
								"slot": "1",
								"type": "t_bool"
							},
							{
								"astId": 335,
								"contract": "Real Estate Industry/Advanced Real Estate Smart Contract.sol:AdvancedRealEstate",
								"label": "name",
								"offset": 0,
								"slot": "2",
								"type": "t_string_storage"
							},
							{
								"astId": 337,
								"contract": "Real Estate Industry/Advanced Real Estate Smart Contract.sol:AdvancedRealEstate",
								"label": "location",
								"offset": 0,
								"slot": "3",
								"type": "t_string_storage"
							},
							{
								"astId": 339,
								"contract": "Real Estate Industry/Advanced Real Estate Smart Contract.sol:AdvancedRealEstate",
								"label": "description",
								"offset": 0,
								"slot": "4",
								"type": "t_string_storage"
							}
						],
						"numberOfBytes": "160"
					},
					"t_uint256": {
						"encoding": "inplace",
						"label": "uint256",
						"numberOfBytes": "32"
					}
				}
			},
			"userdoc": {
				"kind": "user",
				"methods": {},
				"version": 1
			}
		}
	}
}