{
	"Real Estate Industry/Real Estate Smart Contract.sol": {
		"RealEstate": {
			"abi": [
				{
					"anonymous": false,
					"inputs": [
						{
							"indexed": false,
							"internalType": "uint256",
							"name": "propertyId",
							"type": "uint256"
						}
					],
					"name": "PropertySold",
					"type": "event"
				},
				{
					"inputs": [
						{
							"internalType": "uint256",
							"name": "",
							"type": "uint256"
						}
					],
					"name": "PropertyIds",
					"outputs": [
						{
							"internalType": "uint256",
							"name": "",
							"type": "uint256"
						}
					],
					"stateMutability": "view",
					"type": "function"
				},
				{
					"inputs": [
						{
							"internalType": "uint256",
							"name": "_propertyId",
							"type": "uint256"
						}
					],
					"name": "buyProperty",
					"outputs": [],
					"stateMutability": "payable",
					"type": "function"
				},
				{
					"inputs": [
						{
							"internalType": "uint256",
							"name": "_propertyId",
							"type": "uint256"
						},
						{
							"internalType": "uint256",
							"name": "_price",
							"type": "uint256"
						},
						{
							"internalType": "string",
							"name": "_name",
							"type": "string"
						},
						{
							"internalType": "string",
							"name": "_location",
							"type": "string"
						},
						{
							"internalType": "string",
							"name": "_description",
							"type": "string"
						}
					],
					"name": "listPropertyForSale",
					"outputs": [],
					"stateMutability": "nonpayable",
					"type": "function"
				},
				{
					"inputs": [
						{
							"internalType": "uint256",
							"name": "",
							"type": "uint256"
						}
					],
					"name": "properties",
					"outputs": [
						{
							"internalType": "uint256",
							"name": "price",
							"type": "uint256"
						},
						{
							"internalType": "address",
							"name": "owner",
							"type": "address"
						},
						{
							"internalType": "bool",
							"name": "forSale",
							"type": "bool"
						},
						{
							"internalType": "string",
							"name": "name",
							"type": "string"
						},
						{
							"internalType": "string",
							"name": "location",
							"type": "string"
						},
						{
							"internalType": "string",
							"name": "description",
							"type": "string"
						}
					],
					"stateMutability": "view",
					"type": "function"
				}
			],
			"devdoc": {
				"kind": "dev",
				"methods": {},
				"version": 1
			},
			"evm": {
				"assembly": "    /* \"Real Estate Industry/Real Estate Smart Contract.sol\":226:2496  contract RealEstate {... */\n  mstore(0x40, 0x80)\n  callvalue\n  dup1\n  iszero\n  tag_1\n  jumpi\n  0x00\n  dup1\n  revert\ntag_1:\n  pop\n  dataSize(sub_0)\n  dup1\n  dataOffset(sub_0)\n  0x00\n  codecopy\n  0x00\n  return\nstop\n\nsub_0: assembly {\n        /* \"Real Estate Industry/Real Estate Smart Contract.sol\":226:2496  contract RealEstate {... */\n      mstore(0x40, 0x80)\n      jumpi(tag_1, lt(calldatasize, 0x04))\n      shr(0xe0, calldataload(0x00))\n      dup1\n      0x611cf614\n      eq\n      tag_2\n      jumpi\n      dup1\n      0x6fa830a6\n      eq\n      tag_3\n      jumpi\n      dup1\n      0xeae6cd4b\n      eq\n      tag_4\n      jumpi\n      dup1\n      0xf7b10808\n      eq\n      tag_5\n      jumpi\n    tag_1:\n      0x00\n      dup1\n      revert\n        /* \"Real Estate Industry/Real Estate Smart Contract.sol\":1058:1743  function listPropertyForSale (... */\n    tag_2:\n      callvalue\n      dup1\n      iszero\n      tag_6\n      jumpi\n      0x00\n      dup1\n      revert\n    tag_6:\n      pop\n      tag_7\n      0x04\n      dup1\n      calldatasize\n      sub\n      dup2\n      add\n      swap1\n      tag_8\n      swap2\n      swap1\n      tag_9\n      jump\t// in\n    tag_8:\n      tag_10\n      jump\t// in\n    tag_7:\n      stop\n        /* \"Real Estate Industry/Real Estate Smart Contract.sol\":1783:2494  function buyProperty (uint256 _propertyId) external payable {... */\n    tag_3:\n      tag_11\n      0x04\n      dup1\n      calldatasize\n      sub\n      dup2\n      add\n      swap1\n      tag_12\n      swap2\n      swap1\n      tag_13\n      jump\t// in\n    tag_12:\n      tag_14\n      jump\t// in\n    tag_11:\n      stop\n        /* \"Real Estate Industry/Real Estate Smart Contract.sol\":883:911  uint256[] public PropertyIds */\n    tag_4:\n      callvalue\n      dup1\n      iszero\n      tag_15\n      jumpi\n      0x00\n      dup1\n      revert\n    tag_15:\n      pop\n      tag_16\n      0x04\n      dup1\n      calldatasize\n      sub\n      dup2\n      add\n      swap1\n      tag_17\n      swap2\n      swap1\n      tag_13\n      jump\t// in\n    tag_17:\n      tag_18\n      jump\t// in\n    tag_16:\n      mload(0x40)\n      tag_19\n      swap2\n      swap1\n      tag_20\n      jump\t// in\n    tag_19:\n      mload(0x40)\n      dup1\n      swap2\n      sub\n      swap1\n      return\n        /* \"Real Estate Industry/Real Estate Smart Contract.sol\":791:838  mapping (uint256 => Property) public properties */\n    tag_5:\n      callvalue\n      dup1\n      iszero\n      tag_21\n      jumpi\n      0x00\n      dup1\n      revert\n    tag_21:\n      pop\n      tag_22\n      0x04\n      dup1\n      calldatasize\n      sub\n      dup2\n      add\n      swap1\n      tag_23\n      swap2\n      swap1\n      tag_13\n      jump\t// in\n    tag_23:\n      tag_24\n      jump\t// in\n    tag_22:\n      mload(0x40)\n      tag_25\n      swap7\n      swap6\n      swap5\n      swap4\n      swap3\n      swap2\n      swap1\n      tag_26\n      jump\t// in\n    tag_25:\n      mload(0x40)\n      dup1\n      swap2\n      sub\n      swap1\n      return\n        /* \"Real Estate Industry/Real Estate Smart Contract.sol\":1058:1743  function listPropertyForSale (... */\n    tag_10:\n        /* \"Real Estate Industry/Real Estate Smart Contract.sol\":1344:1371  Property memory newProperty */\n      0x00\n        /* \"Real Estate Industry/Real Estate Smart Contract.sol\":1374:1605  Property ({... */\n      mload(0x40)\n      dup1\n      0xc0\n      add\n      0x40\n      mstore\n      dup1\n        /* \"Real Estate Industry/Real Estate Smart Contract.sol\":1409:1415  _price */\n      dup7\n        /* \"Real Estate Industry/Real Estate Smart Contract.sol\":1374:1605  Property ({... */\n      dup2\n      mstore\n      0x20\n      add\n        /* \"Real Estate Industry/Real Estate Smart Contract.sol\":1440:1450  msg.sender */\n      caller\n        /* \"Real Estate Industry/Real Estate Smart Contract.sol\":1374:1605  Property ({... */\n      0xffffffffffffffffffffffffffffffffffffffff\n      and\n      dup2\n      mstore\n      0x20\n      add\n        /* \"Real Estate Industry/Real Estate Smart Contract.sol\":1477:1481  true */\n      0x01\n        /* \"Real Estate Industry/Real Estate Smart Contract.sol\":1374:1605  Property ({... */\n      iszero\n      iszero\n      dup2\n      mstore\n      0x20\n      add\n        /* \"Real Estate Industry/Real Estate Smart Contract.sol\":1505:1510  _name */\n      dup6\n        /* \"Real Estate Industry/Real Estate Smart Contract.sol\":1374:1605  Property ({... */\n      dup2\n      mstore\n      0x20\n      add\n        /* \"Real Estate Industry/Real Estate Smart Contract.sol\":1538:1547  _location */\n      dup5\n        /* \"Real Estate Industry/Real Estate Smart Contract.sol\":1374:1605  Property ({... */\n      dup2\n      mstore\n      0x20\n      add\n        /* \"Real Estate Industry/Real Estate Smart Contract.sol\":1578:1590  _description */\n      dup4\n        /* \"Real Estate Industry/Real Estate Smart Contract.sol\":1374:1605  Property ({... */\n      dup2\n      mstore\n      pop\n        /* \"Real Estate Industry/Real Estate Smart Contract.sol\":1344:1605  Property memory newProperty = Property ({... */\n      swap1\n      pop\n        /* \"Real Estate Industry/Real Estate Smart Contract.sol\":1646:1657  newProperty */\n      dup1\n        /* \"Real Estate Industry/Real Estate Smart Contract.sol\":1620:1630  properties */\n      0x00\n        /* \"Real Estate Industry/Real Estate Smart Contract.sol\":1620:1643  properties[_propertyId] */\n      dup1\n        /* \"Real Estate Industry/Real Estate Smart Contract.sol\":1631:1642  _propertyId */\n      dup9\n        /* \"Real Estate Industry/Real Estate Smart Contract.sol\":1620:1643  properties[_propertyId] */\n      dup2\n      mstore\n      0x20\n      add\n      swap1\n      dup2\n      mstore\n      0x20\n      add\n      0x00\n      keccak256\n        /* \"Real Estate Industry/Real Estate Smart Contract.sol\":1620:1657  properties[_propertyId] = newProperty */\n      0x00\n      dup3\n      add\n      mload\n      dup2\n      0x00\n      add\n      sstore\n      0x20\n      dup3\n      add\n      mload\n      dup2\n      0x01\n      add\n      exp(0x0100, 0x00)\n      dup2\n      sload\n      dup2\n      0xffffffffffffffffffffffffffffffffffffffff\n      mul\n      not\n      and\n      swap1\n      dup4\n      0xffffffffffffffffffffffffffffffffffffffff\n      and\n      mul\n      or\n      swap1\n      sstore\n      pop\n      0x40\n      dup3\n      add\n      mload\n      dup2\n      0x01\n      add\n      exp(0x0100, 0x14)\n      dup2\n      sload\n      dup2\n      0xff\n      mul\n      not\n      and\n      swap1\n      dup4\n      iszero\n      iszero\n      mul\n      or\n      swap1\n      sstore\n      pop\n      0x60\n      dup3\n      add\n      mload\n      dup2\n      0x02\n      add\n      swap1\n      dup2\n      tag_28\n      swap2\n      swap1\n      tag_29\n      jump\t// in\n    tag_28:\n      pop\n      0x80\n      dup3\n      add\n      mload\n      dup2\n      0x03\n      add\n      swap1\n      dup2\n      tag_30\n      swap2\n      swap1\n      tag_29\n      jump\t// in\n    tag_30:\n      pop\n      0xa0\n      dup3\n      add\n      mload\n      dup2\n      0x04\n      add\n      swap1\n      dup2\n      tag_31\n      swap2\n      swap1\n      tag_29\n      jump\t// in\n    tag_31:\n      pop\n      swap1\n      pop\n      pop\n        /* \"Real Estate Industry/Real Estate Smart Contract.sol\":1671:1682  PropertyIds */\n      0x01\n        /* \"Real Estate Industry/Real Estate Smart Contract.sol\":1688:1699  _propertyId */\n      dup7\n        /* \"Real Estate Industry/Real Estate Smart Contract.sol\":1671:1700  PropertyIds.push(_propertyId) */\n      swap1\n      dup1\n      0x01\n      dup2\n      sload\n      add\n      dup1\n      dup3\n      sstore\n      dup1\n      swap2\n      pop\n      pop\n      0x01\n      swap1\n      sub\n      swap1\n      0x00\n      mstore\n      keccak256(0x00, 0x20)\n      add\n      0x00\n      swap1\n      swap2\n      swap1\n      swap2\n      swap1\n      swap2\n      pop\n      sstore\n        /* \"Real Estate Industry/Real Estate Smart Contract.sol\":1260:1743  {... */\n      pop\n        /* \"Real Estate Industry/Real Estate Smart Contract.sol\":1058:1743  function listPropertyForSale (... */\n      pop\n      pop\n      pop\n      pop\n      pop\n      jump\t// out\n        /* \"Real Estate Industry/Real Estate Smart Contract.sol\":1783:2494  function buyProperty (uint256 _propertyId) external payable {... */\n    tag_14:\n        /* \"Real Estate Industry/Real Estate Smart Contract.sol\":1904:1929  Property storage property */\n      0x00\n        /* \"Real Estate Industry/Real Estate Smart Contract.sol\":1932:1942  properties */\n      dup1\n        /* \"Real Estate Industry/Real Estate Smart Contract.sol\":1932:1955  properties[_propertyId] */\n      0x00\n        /* \"Real Estate Industry/Real Estate Smart Contract.sol\":1943:1954  _propertyId */\n      dup4\n        /* \"Real Estate Industry/Real Estate Smart Contract.sol\":1932:1955  properties[_propertyId] */\n      dup2\n      mstore\n      0x20\n      add\n      swap1\n      dup2\n      mstore\n      0x20\n      add\n      0x00\n      keccak256\n        /* \"Real Estate Industry/Real Estate Smart Contract.sol\":1904:1955  Property storage property = properties[_propertyId] */\n      swap1\n      pop\n        /* \"Real Estate Industry/Real Estate Smart Contract.sol\":2059:2067  property */\n      dup1\n        /* \"Real Estate Industry/Real Estate Smart Contract.sol\":2059:2075  property.forSale */\n      0x01\n      add\n      0x14\n      swap1\n      sload\n      swap1\n      0x0100\n      exp\n      swap1\n      div\n      0xff\n      and\n        /* \"Real Estate Industry/Real Estate Smart Contract.sol\":2051:2105  require(property.forSale, \"Property is not for sale.\") */\n      tag_34\n      jumpi\n      mload(0x40)\n      0x08c379a000000000000000000000000000000000000000000000000000000000\n      dup2\n      mstore\n      0x04\n      add\n      tag_35\n      swap1\n      tag_36\n      jump\t// in\n    tag_35:\n      mload(0x40)\n      dup1\n      swap2\n      sub\n      swap1\n      revert\n    tag_34:\n        /* \"Real Estate Industry/Real Estate Smart Contract.sol\":2141:2150  msg.value */\n      callvalue\n        /* \"Real Estate Industry/Real Estate Smart Contract.sol\":2123:2131  property */\n      dup2\n        /* \"Real Estate Industry/Real Estate Smart Contract.sol\":2123:2137  property.price */\n      0x00\n      add\n      sload\n        /* \"Real Estate Industry/Real Estate Smart Contract.sol\":2123:2150  property.price <= msg.value */\n      gt\n      iszero\n        /* \"Real Estate Industry/Real Estate Smart Contract.sol\":2115:2173  require(property.price <= msg.value, \"Insufficient funds\") */\n      tag_37\n      jumpi\n      mload(0x40)\n      0x08c379a000000000000000000000000000000000000000000000000000000000\n      dup2\n      mstore\n      0x04\n      add\n      tag_38\n      swap1\n      tag_39\n      jump\t// in\n    tag_38:\n      mload(0x40)\n      dup1\n      swap2\n      sub\n      swap1\n      revert\n    tag_37:\n        /* \"Real Estate Industry/Real Estate Smart Contract.sol\":2251:2261  msg.sender */\n      caller\n        /* \"Real Estate Industry/Real Estate Smart Contract.sol\":2234:2242  property */\n      dup2\n        /* \"Real Estate Industry/Real Estate Smart Contract.sol\":2234:2248  property.owner */\n      0x01\n      add\n      0x00\n        /* \"Real Estate Industry/Real Estate Smart Contract.sol\":2234:2261  property.owner = msg.sender */\n      0x0100\n      exp\n      dup2\n      sload\n      dup2\n      0xffffffffffffffffffffffffffffffffffffffff\n      mul\n      not\n      and\n      swap1\n      dup4\n      0xffffffffffffffffffffffffffffffffffffffff\n      and\n      mul\n      or\n      swap1\n      sstore\n      pop\n        /* \"Real Estate Industry/Real Estate Smart Contract.sol\":2290:2295  false */\n      0x00\n        /* \"Real Estate Industry/Real Estate Smart Contract.sol\":2271:2279  property */\n      dup2\n        /* \"Real Estate Industry/Real Estate Smart Contract.sol\":2271:2287  property.forSale */\n      0x01\n      add\n      0x14\n        /* \"Real Estate Industry/Real Estate Smart Contract.sol\":2271:2295  property.forSale = false */\n      0x0100\n      exp\n      dup2\n      sload\n      dup2\n      0xff\n      mul\n      not\n      and\n      swap1\n      dup4\n      iszero\n      iszero\n      mul\n      or\n      swap1\n      sstore\n      pop\n        /* \"Real Estate Industry/Real Estate Smart Contract.sol\":2367:2375  property */\n      dup1\n        /* \"Real Estate Industry/Real Estate Smart Contract.sol\":2367:2381  property.owner */\n      0x01\n      add\n      0x00\n      swap1\n      sload\n      swap1\n      0x0100\n      exp\n      swap1\n      div\n      0xffffffffffffffffffffffffffffffffffffffff\n      and\n        /* \"Real Estate Industry/Real Estate Smart Contract.sol\":2358:2391  payable (property.owner).transfer */\n      0xffffffffffffffffffffffffffffffffffffffff\n      and\n        /* \"Real Estate Industry/Real Estate Smart Contract.sol\":2358:2407  payable (property.owner).transfer(property.price) */\n      0x08fc\n        /* \"Real Estate Industry/Real Estate Smart Contract.sol\":2392:2400  property */\n      dup3\n        /* \"Real Estate Industry/Real Estate Smart Contract.sol\":2392:2406  property.price */\n      0x00\n      add\n      sload\n        /* \"Real Estate Industry/Real Estate Smart Contract.sol\":2358:2407  payable (property.owner).transfer(property.price) */\n      swap1\n      dup2\n      iszero\n      mul\n      swap1\n      mload(0x40)\n      0x00\n      mload(0x40)\n      dup1\n      dup4\n      sub\n      dup2\n      dup6\n      dup9\n      dup9\n      call\n      swap4\n      pop\n      pop\n      pop\n      pop\n      iszero\n      dup1\n      iszero\n      tag_41\n      jumpi\n      returndatasize\n      0x00\n      dup1\n      returndatacopy\n      revert(0x00, returndatasize)\n    tag_41:\n      pop\n        /* \"Real Estate Industry/Real Estate Smart Contract.sol\":2462:2487  PropertySold(_propertyId) */\n      0xca00b0637134f6563551ffb097ffc572f30140029b94a4a1e7ef423b475a894f\n        /* \"Real Estate Industry/Real Estate Smart Contract.sol\":2475:2486  _propertyId */\n      dup3\n        /* \"Real Estate Industry/Real Estate Smart Contract.sol\":2462:2487  PropertySold(_propertyId) */\n      mload(0x40)\n      tag_42\n      swap2\n      swap1\n      tag_20\n      jump\t// in\n    tag_42:\n      mload(0x40)\n      dup1\n      swap2\n      sub\n      swap1\n      log1\n        /* \"Real Estate Industry/Real Estate Smart Contract.sol\":1843:2494  {... */\n      pop\n        /* \"Real Estate Industry/Real Estate Smart Contract.sol\":1783:2494  function buyProperty (uint256 _propertyId) external payable {... */\n      pop\n      jump\t// out\n        /* \"Real Estate Industry/Real Estate Smart Contract.sol\":883:911  uint256[] public PropertyIds */\n    tag_18:\n      0x01\n      dup2\n      dup2\n      sload\n      dup2\n      lt\n      tag_43\n      jumpi\n      0x00\n      dup1\n      revert\n    tag_43:\n      swap1\n      0x00\n      mstore\n      keccak256(0x00, 0x20)\n      add\n      0x00\n      swap2\n      pop\n      swap1\n      pop\n      sload\n      dup2\n      jump\t// out\n        /* \"Real Estate Industry/Real Estate Smart Contract.sol\":791:838  mapping (uint256 => Property) public properties */\n    tag_24:\n      mstore(0x20, 0x00)\n      dup1\n      0x00\n      mstore\n      keccak256(0x00, 0x40)\n      0x00\n      swap2\n      pop\n      swap1\n      pop\n      dup1\n      0x00\n      add\n      sload\n      swap1\n      dup1\n      0x01\n      add\n      0x00\n      swap1\n      sload\n      swap1\n      0x0100\n      exp\n      swap1\n      div\n      0xffffffffffffffffffffffffffffffffffffffff\n      and\n      swap1\n      dup1\n      0x01\n      add\n      0x14\n      swap1\n      sload\n      swap1\n      0x0100\n      exp\n      swap1\n      div\n      0xff\n      and\n      swap1\n      dup1\n      0x02\n      add\n      dup1\n      sload\n      tag_45\n      swap1\n      tag_46\n      jump\t// in\n    tag_45:\n      dup1\n      0x1f\n      add\n      0x20\n      dup1\n      swap2\n      div\n      mul\n      0x20\n      add\n      mload(0x40)\n      swap1\n      dup2\n      add\n      0x40\n      mstore\n      dup1\n      swap3\n      swap2\n      swap1\n      dup2\n      dup2\n      mstore\n      0x20\n      add\n      dup3\n      dup1\n      sload\n      tag_47\n      swap1\n      tag_46\n      jump\t// in\n    tag_47:\n      dup1\n      iszero\n      tag_48\n      jumpi\n      dup1\n      0x1f\n      lt\n      tag_49\n      jumpi\n      0x0100\n      dup1\n      dup4\n      sload\n      div\n      mul\n      dup4\n      mstore\n      swap2\n      0x20\n      add\n      swap2\n      jump(tag_48)\n    tag_49:\n      dup3\n      add\n      swap2\n      swap1\n      0x00\n      mstore\n      keccak256(0x00, 0x20)\n      swap1\n    tag_50:\n      dup2\n      sload\n      dup2\n      mstore\n      swap1\n      0x01\n      add\n      swap1\n      0x20\n      add\n      dup1\n      dup4\n      gt\n      tag_50\n      jumpi\n      dup3\n      swap1\n      sub\n      0x1f\n      and\n      dup3\n      add\n      swap2\n    tag_48:\n      pop\n      pop\n      pop\n      pop\n      pop\n      swap1\n      dup1\n      0x03\n      add\n      dup1\n      sload\n      tag_51\n      swap1\n      tag_46\n      jump\t// in\n    tag_51:\n      dup1\n      0x1f\n      add\n      0x20\n      dup1\n      swap2\n      div\n      mul\n      0x20\n      add\n      mload(0x40)\n      swap1\n      dup2\n      add\n      0x40\n      mstore\n      dup1\n      swap3\n      swap2\n      swap1\n      dup2\n      dup2\n      mstore\n      0x20\n      add\n      dup3\n      dup1\n      sload\n      tag_52\n      swap1\n      tag_46\n      jump\t// in\n    tag_52:\n      dup1\n      iszero\n      tag_53\n      jumpi\n      dup1\n      0x1f\n      lt\n      tag_54\n      jumpi\n      0x0100\n      dup1\n      dup4\n      sload\n      div\n      mul\n      dup4\n      mstore\n      swap2\n      0x20\n      add\n      swap2\n      jump(tag_53)\n    tag_54:\n      dup3\n      add\n      swap2\n      swap1\n      0x00\n      mstore\n      keccak256(0x00, 0x20)\n      swap1\n    tag_55:\n      dup2\n      sload\n      dup2\n      mstore\n      swap1\n      0x01\n      add\n      swap1\n      0x20\n      add\n      dup1\n      dup4\n      gt\n      tag_55\n      jumpi\n      dup3\n      swap1\n      sub\n      0x1f\n      and\n      dup3\n      add\n      swap2\n    tag_53:\n      pop\n      pop\n      pop\n      pop\n      pop\n      swap1\n      dup1\n      0x04\n      add\n      dup1\n      sload\n      tag_56\n      swap1\n      tag_46\n      jump\t// in\n    tag_56:\n      dup1\n      0x1f\n      add\n      0x20\n      dup1\n      swap2\n      div\n      mul\n      0x20\n      add\n      mload(0x40)\n      swap1\n      dup2\n      add\n      0x40\n      mstore\n      dup1\n      swap3\n      swap2\n      swap1\n      dup2\n      dup2\n      mstore\n      0x20\n      add\n      dup3\n      dup1\n      sload\n      tag_57\n      swap1\n      tag_46\n      jump\t// in\n    tag_57:\n      dup1\n      iszero\n      tag_58\n      jumpi\n      dup1\n      0x1f\n      lt\n      tag_59\n      jumpi\n      0x0100\n      dup1\n      dup4\n      sload\n      div\n      mul\n      dup4\n      mstore\n      swap2\n      0x20\n      add\n      swap2\n      jump(tag_58)\n    tag_59:\n      dup3\n      add\n      swap2\n      swap1\n      0x00\n      mstore\n      keccak256(0x00, 0x20)\n      swap1\n    tag_60:\n      dup2\n      sload\n      dup2\n      mstore\n      swap1\n      0x01\n      add\n      swap1\n      0x20\n      add\n      dup1\n      dup4\n      gt\n      tag_60\n      jumpi\n      dup3\n      swap1\n      sub\n      0x1f\n      and\n      dup3\n      add\n      swap2\n    tag_58:\n      pop\n      pop\n      pop\n      pop\n      pop\n      swap1\n      pop\n      dup7\n      jump\t// out\n        /* \"#utility.yul\":7:82   */\n    tag_61:\n        /* \"#utility.yul\":40:46   */\n      0x00\n        /* \"#utility.yul\":73:75   */\n      0x40\n        /* \"#utility.yul\":67:76   */\n      mload\n        /* \"#utility.yul\":57:76   */\n      swap1\n      pop\n        /* \"#utility.yul\":7:82   */\n      swap1\n      jump\t// out\n        /* \"#utility.yul\":88:205   */\n    tag_62:\n        /* \"#utility.yul\":197:198   */\n      0x00\n        /* \"#utility.yul\":194:195   */\n      dup1\n        /* \"#utility.yul\":187:199   */\n      revert\n        /* \"#utility.yul\":211:328   */\n    tag_63:\n        /* \"#utility.yul\":320:321   */\n      0x00\n        /* \"#utility.yul\":317:318   */\n      dup1\n        /* \"#utility.yul\":310:322   */\n      revert\n        /* \"#utility.yul\":334:411   */\n    tag_64:\n        /* \"#utility.yul\":371:378   */\n      0x00\n        /* \"#utility.yul\":400:405   */\n      dup2\n        /* \"#utility.yul\":389:405   */\n      swap1\n      pop\n        /* \"#utility.yul\":334:411   */\n      swap2\n      swap1\n      pop\n      jump\t// out\n        /* \"#utility.yul\":417:539   */\n    tag_65:\n        /* \"#utility.yul\":490:514   */\n      tag_113\n        /* \"#utility.yul\":508:513   */\n      dup2\n        /* \"#utility.yul\":490:514   */\n      tag_64\n      jump\t// in\n    tag_113:\n        /* \"#utility.yul\":483:488   */\n      dup2\n        /* \"#utility.yul\":480:515   */\n      eq\n        /* \"#utility.yul\":470:533   */\n      tag_114\n      jumpi\n        /* \"#utility.yul\":529:530   */\n      0x00\n        /* \"#utility.yul\":526:527   */\n      dup1\n        /* \"#utility.yul\":519:531   */\n      revert\n        /* \"#utility.yul\":470:533   */\n    tag_114:\n        /* \"#utility.yul\":417:539   */\n      pop\n      jump\t// out\n        /* \"#utility.yul\":545:684   */\n    tag_66:\n        /* \"#utility.yul\":591:596   */\n      0x00\n        /* \"#utility.yul\":629:635   */\n      dup2\n        /* \"#utility.yul\":616:636   */\n      calldataload\n        /* \"#utility.yul\":607:636   */\n      swap1\n      pop\n        /* \"#utility.yul\":645:678   */\n      tag_116\n        /* \"#utility.yul\":672:677   */\n      dup2\n        /* \"#utility.yul\":645:678   */\n      tag_65\n      jump\t// in\n    tag_116:\n        /* \"#utility.yul\":545:684   */\n      swap3\n      swap2\n      pop\n      pop\n      jump\t// out\n        /* \"#utility.yul\":690:807   */\n    tag_67:\n        /* \"#utility.yul\":799:800   */\n      0x00\n        /* \"#utility.yul\":796:797   */\n      dup1\n        /* \"#utility.yul\":789:801   */\n      revert\n        /* \"#utility.yul\":813:930   */\n    tag_68:\n        /* \"#utility.yul\":922:923   */\n      0x00\n        /* \"#utility.yul\":919:920   */\n      dup1\n        /* \"#utility.yul\":912:924   */\n      revert\n        /* \"#utility.yul\":936:1038   */\n    tag_69:\n        /* \"#utility.yul\":977:983   */\n      0x00\n        /* \"#utility.yul\":1028:1030   */\n      0x1f\n        /* \"#utility.yul\":1024:1031   */\n      not\n        /* \"#utility.yul\":1019:1021   */\n      0x1f\n        /* \"#utility.yul\":1012:1017   */\n      dup4\n        /* \"#utility.yul\":1008:1022   */\n      add\n        /* \"#utility.yul\":1004:1032   */\n      and\n        /* \"#utility.yul\":994:1032   */\n      swap1\n      pop\n        /* \"#utility.yul\":936:1038   */\n      swap2\n      swap1\n      pop\n      jump\t// out\n        /* \"#utility.yul\":1044:1224   */\n    tag_70:\n        /* \"#utility.yul\":1092:1169   */\n      0x4e487b7100000000000000000000000000000000000000000000000000000000\n        /* \"#utility.yul\":1089:1090   */\n      0x00\n        /* \"#utility.yul\":1082:1170   */\n      mstore\n        /* \"#utility.yul\":1189:1193   */\n      0x41\n        /* \"#utility.yul\":1186:1187   */\n      0x04\n        /* \"#utility.yul\":1179:1194   */\n      mstore\n        /* \"#utility.yul\":1213:1217   */\n      0x24\n        /* \"#utility.yul\":1210:1211   */\n      0x00\n        /* \"#utility.yul\":1203:1218   */\n      revert\n        /* \"#utility.yul\":1230:1511   */\n    tag_71:\n        /* \"#utility.yul\":1313:1340   */\n      tag_122\n        /* \"#utility.yul\":1335:1339   */\n      dup3\n        /* \"#utility.yul\":1313:1340   */\n      tag_69\n      jump\t// in\n    tag_122:\n        /* \"#utility.yul\":1305:1311   */\n      dup2\n        /* \"#utility.yul\":1301:1341   */\n      add\n        /* \"#utility.yul\":1443:1449   */\n      dup2\n        /* \"#utility.yul\":1431:1441   */\n      dup2\n        /* \"#utility.yul\":1428:1450   */\n      lt\n        /* \"#utility.yul\":1407:1425   */\n      0xffffffffffffffff\n        /* \"#utility.yul\":1395:1405   */\n      dup3\n        /* \"#utility.yul\":1392:1426   */\n      gt\n        /* \"#utility.yul\":1389:1451   */\n      or\n        /* \"#utility.yul\":1386:1474   */\n      iszero\n      tag_123\n      jumpi\n        /* \"#utility.yul\":1454:1472   */\n      tag_124\n      tag_70\n      jump\t// in\n    tag_124:\n        /* \"#utility.yul\":1386:1474   */\n    tag_123:\n        /* \"#utility.yul\":1494:1504   */\n      dup1\n        /* \"#utility.yul\":1490:1492   */\n      0x40\n        /* \"#utility.yul\":1483:1505   */\n      mstore\n        /* \"#utility.yul\":1273:1511   */\n      pop\n        /* \"#utility.yul\":1230:1511   */\n      pop\n      pop\n      jump\t// out\n        /* \"#utility.yul\":1517:1646   */\n    tag_72:\n        /* \"#utility.yul\":1551:1557   */\n      0x00\n        /* \"#utility.yul\":1578:1598   */\n      tag_126\n      tag_61\n      jump\t// in\n    tag_126:\n        /* \"#utility.yul\":1568:1598   */\n      swap1\n      pop\n        /* \"#utility.yul\":1607:1640   */\n      tag_127\n        /* \"#utility.yul\":1635:1639   */\n      dup3\n        /* \"#utility.yul\":1627:1633   */\n      dup3\n        /* \"#utility.yul\":1607:1640   */\n      tag_71\n      jump\t// in\n    tag_127:\n        /* \"#utility.yul\":1517:1646   */\n      swap2\n      swap1\n      pop\n      jump\t// out\n        /* \"#utility.yul\":1652:1960   */\n    tag_73:\n        /* \"#utility.yul\":1714:1718   */\n      0x00\n        /* \"#utility.yul\":1804:1822   */\n      0xffffffffffffffff\n        /* \"#utility.yul\":1796:1802   */\n      dup3\n        /* \"#utility.yul\":1793:1823   */\n      gt\n        /* \"#utility.yul\":1790:1846   */\n      iszero\n      tag_129\n      jumpi\n        /* \"#utility.yul\":1826:1844   */\n      tag_130\n      tag_70\n      jump\t// in\n    tag_130:\n        /* \"#utility.yul\":1790:1846   */\n    tag_129:\n        /* \"#utility.yul\":1864:1893   */\n      tag_131\n        /* \"#utility.yul\":1886:1892   */\n      dup3\n        /* \"#utility.yul\":1864:1893   */\n      tag_69\n      jump\t// in\n    tag_131:\n        /* \"#utility.yul\":1856:1893   */\n      swap1\n      pop\n        /* \"#utility.yul\":1948:1952   */\n      0x20\n        /* \"#utility.yul\":1942:1946   */\n      dup2\n        /* \"#utility.yul\":1938:1953   */\n      add\n        /* \"#utility.yul\":1930:1953   */\n      swap1\n      pop\n        /* \"#utility.yul\":1652:1960   */\n      swap2\n      swap1\n      pop\n      jump\t// out\n        /* \"#utility.yul\":1966:2112   */\n    tag_74:\n        /* \"#utility.yul\":2063:2069   */\n      dup3\n        /* \"#utility.yul\":2058:2061   */\n      dup2\n        /* \"#utility.yul\":2053:2056   */\n      dup4\n        /* \"#utility.yul\":2040:2070   */\n      calldatacopy\n        /* \"#utility.yul\":2104:2105   */\n      0x00\n        /* \"#utility.yul\":2095:2101   */\n      dup4\n        /* \"#utility.yul\":2090:2093   */\n      dup4\n        /* \"#utility.yul\":2086:2102   */\n      add\n        /* \"#utility.yul\":2079:2106   */\n      mstore\n        /* \"#utility.yul\":1966:2112   */\n      pop\n      pop\n      pop\n      jump\t// out\n        /* \"#utility.yul\":2118:2543   */\n    tag_75:\n        /* \"#utility.yul\":2196:2201   */\n      0x00\n        /* \"#utility.yul\":2221:2287   */\n      tag_134\n        /* \"#utility.yul\":2237:2286   */\n      tag_135\n        /* \"#utility.yul\":2279:2285   */\n      dup5\n        /* \"#utility.yul\":2237:2286   */\n      tag_73\n      jump\t// in\n    tag_135:\n        /* \"#utility.yul\":2221:2287   */\n      tag_72\n      jump\t// in\n    tag_134:\n        /* \"#utility.yul\":2212:2287   */\n      swap1\n      pop\n        /* \"#utility.yul\":2310:2316   */\n      dup3\n        /* \"#utility.yul\":2303:2308   */\n      dup2\n        /* \"#utility.yul\":2296:2317   */\n      mstore\n        /* \"#utility.yul\":2348:2352   */\n      0x20\n        /* \"#utility.yul\":2341:2346   */\n      dup2\n        /* \"#utility.yul\":2337:2353   */\n      add\n        /* \"#utility.yul\":2386:2389   */\n      dup5\n        /* \"#utility.yul\":2377:2383   */\n      dup5\n        /* \"#utility.yul\":2372:2375   */\n      dup5\n        /* \"#utility.yul\":2368:2384   */\n      add\n        /* \"#utility.yul\":2365:2390   */\n      gt\n        /* \"#utility.yul\":2362:2474   */\n      iszero\n      tag_136\n      jumpi\n        /* \"#utility.yul\":2393:2472   */\n      tag_137\n      tag_68\n      jump\t// in\n    tag_137:\n        /* \"#utility.yul\":2362:2474   */\n    tag_136:\n        /* \"#utility.yul\":2483:2537   */\n      tag_138\n        /* \"#utility.yul\":2530:2536   */\n      dup5\n        /* \"#utility.yul\":2525:2528   */\n      dup3\n        /* \"#utility.yul\":2520:2523   */\n      dup6\n        /* \"#utility.yul\":2483:2537   */\n      tag_74\n      jump\t// in\n    tag_138:\n        /* \"#utility.yul\":2202:2543   */\n      pop\n        /* \"#utility.yul\":2118:2543   */\n      swap4\n      swap3\n      pop\n      pop\n      pop\n      jump\t// out\n        /* \"#utility.yul\":2563:2903   */\n    tag_76:\n        /* \"#utility.yul\":2619:2624   */\n      0x00\n        /* \"#utility.yul\":2668:2671   */\n      dup3\n        /* \"#utility.yul\":2661:2665   */\n      0x1f\n        /* \"#utility.yul\":2653:2659   */\n      dup4\n        /* \"#utility.yul\":2649:2666   */\n      add\n        /* \"#utility.yul\":2645:2672   */\n      slt\n        /* \"#utility.yul\":2635:2757   */\n      tag_140\n      jumpi\n        /* \"#utility.yul\":2676:2755   */\n      tag_141\n      tag_67\n      jump\t// in\n    tag_141:\n        /* \"#utility.yul\":2635:2757   */\n    tag_140:\n        /* \"#utility.yul\":2793:2799   */\n      dup2\n        /* \"#utility.yul\":2780:2800   */\n      calldataload\n        /* \"#utility.yul\":2818:2897   */\n      tag_142\n        /* \"#utility.yul\":2893:2896   */\n      dup5\n        /* \"#utility.yul\":2885:2891   */\n      dup3\n        /* \"#utility.yul\":2878:2882   */\n      0x20\n        /* \"#utility.yul\":2870:2876   */\n      dup7\n        /* \"#utility.yul\":2866:2883   */\n      add\n        /* \"#utility.yul\":2818:2897   */\n      tag_75\n      jump\t// in\n    tag_142:\n        /* \"#utility.yul\":2809:2897   */\n      swap2\n      pop\n        /* \"#utility.yul\":2625:2903   */\n      pop\n        /* \"#utility.yul\":2563:2903   */\n      swap3\n      swap2\n      pop\n      pop\n      jump\t// out\n        /* \"#utility.yul\":2909:4360   */\n    tag_9:\n        /* \"#utility.yul\":3034:3040   */\n      0x00\n        /* \"#utility.yul\":3042:3048   */\n      dup1\n        /* \"#utility.yul\":3050:3056   */\n      0x00\n        /* \"#utility.yul\":3058:3064   */\n      dup1\n        /* \"#utility.yul\":3066:3072   */\n      0x00\n        /* \"#utility.yul\":3115:3118   */\n      0xa0\n        /* \"#utility.yul\":3103:3112   */\n      dup7\n        /* \"#utility.yul\":3094:3101   */\n      dup9\n        /* \"#utility.yul\":3090:3113   */\n      sub\n        /* \"#utility.yul\":3086:3119   */\n      slt\n        /* \"#utility.yul\":3083:3203   */\n      iszero\n      tag_144\n      jumpi\n        /* \"#utility.yul\":3122:3201   */\n      tag_145\n      tag_62\n      jump\t// in\n    tag_145:\n        /* \"#utility.yul\":3083:3203   */\n    tag_144:\n        /* \"#utility.yul\":3242:3243   */\n      0x00\n        /* \"#utility.yul\":3267:3320   */\n      tag_146\n        /* \"#utility.yul\":3312:3319   */\n      dup9\n        /* \"#utility.yul\":3303:3309   */\n      dup3\n        /* \"#utility.yul\":3292:3301   */\n      dup10\n        /* \"#utility.yul\":3288:3310   */\n      add\n        /* \"#utility.yul\":3267:3320   */\n      tag_66\n      jump\t// in\n    tag_146:\n        /* \"#utility.yul\":3257:3320   */\n      swap6\n      pop\n        /* \"#utility.yul\":3213:3330   */\n      pop\n        /* \"#utility.yul\":3369:3371   */\n      0x20\n        /* \"#utility.yul\":3395:3448   */\n      tag_147\n        /* \"#utility.yul\":3440:3447   */\n      dup9\n        /* \"#utility.yul\":3431:3437   */\n      dup3\n        /* \"#utility.yul\":3420:3429   */\n      dup10\n        /* \"#utility.yul\":3416:3438   */\n      add\n        /* \"#utility.yul\":3395:3448   */\n      tag_66\n      jump\t// in\n    tag_147:\n        /* \"#utility.yul\":3385:3448   */\n      swap5\n      pop\n        /* \"#utility.yul\":3340:3458   */\n      pop\n        /* \"#utility.yul\":3525:3527   */\n      0x40\n        /* \"#utility.yul\":3514:3523   */\n      dup7\n        /* \"#utility.yul\":3510:3528   */\n      add\n        /* \"#utility.yul\":3497:3529   */\n      calldataload\n        /* \"#utility.yul\":3556:3574   */\n      0xffffffffffffffff\n        /* \"#utility.yul\":3548:3554   */\n      dup2\n        /* \"#utility.yul\":3545:3575   */\n      gt\n        /* \"#utility.yul\":3542:3659   */\n      iszero\n      tag_148\n      jumpi\n        /* \"#utility.yul\":3578:3657   */\n      tag_149\n      tag_63\n      jump\t// in\n    tag_149:\n        /* \"#utility.yul\":3542:3659   */\n    tag_148:\n        /* \"#utility.yul\":3683:3746   */\n      tag_150\n        /* \"#utility.yul\":3738:3745   */\n      dup9\n        /* \"#utility.yul\":3729:3735   */\n      dup3\n        /* \"#utility.yul\":3718:3727   */\n      dup10\n        /* \"#utility.yul\":3714:3736   */\n      add\n        /* \"#utility.yul\":3683:3746   */\n      tag_76\n      jump\t// in\n    tag_150:\n        /* \"#utility.yul\":3673:3746   */\n      swap4\n      pop\n        /* \"#utility.yul\":3468:3756   */\n      pop\n        /* \"#utility.yul\":3823:3825   */\n      0x60\n        /* \"#utility.yul\":3812:3821   */\n      dup7\n        /* \"#utility.yul\":3808:3826   */\n      add\n        /* \"#utility.yul\":3795:3827   */\n      calldataload\n        /* \"#utility.yul\":3854:3872   */\n      0xffffffffffffffff\n        /* \"#utility.yul\":3846:3852   */\n      dup2\n        /* \"#utility.yul\":3843:3873   */\n      gt\n        /* \"#utility.yul\":3840:3957   */\n      iszero\n      tag_151\n      jumpi\n        /* \"#utility.yul\":3876:3955   */\n      tag_152\n      tag_63\n      jump\t// in\n    tag_152:\n        /* \"#utility.yul\":3840:3957   */\n    tag_151:\n        /* \"#utility.yul\":3981:4044   */\n      tag_153\n        /* \"#utility.yul\":4036:4043   */\n      dup9\n        /* \"#utility.yul\":4027:4033   */\n      dup3\n        /* \"#utility.yul\":4016:4025   */\n      dup10\n        /* \"#utility.yul\":4012:4034   */\n      add\n        /* \"#utility.yul\":3981:4044   */\n      tag_76\n      jump\t// in\n    tag_153:\n        /* \"#utility.yul\":3971:4044   */\n      swap3\n      pop\n        /* \"#utility.yul\":3766:4054   */\n      pop\n        /* \"#utility.yul\":4121:4124   */\n      0x80\n        /* \"#utility.yul\":4110:4119   */\n      dup7\n        /* \"#utility.yul\":4106:4125   */\n      add\n        /* \"#utility.yul\":4093:4126   */\n      calldataload\n        /* \"#utility.yul\":4153:4171   */\n      0xffffffffffffffff\n        /* \"#utility.yul\":4145:4151   */\n      dup2\n        /* \"#utility.yul\":4142:4172   */\n      gt\n        /* \"#utility.yul\":4139:4256   */\n      iszero\n      tag_154\n      jumpi\n        /* \"#utility.yul\":4175:4254   */\n      tag_155\n      tag_63\n      jump\t// in\n    tag_155:\n        /* \"#utility.yul\":4139:4256   */\n    tag_154:\n        /* \"#utility.yul\":4280:4343   */\n      tag_156\n        /* \"#utility.yul\":4335:4342   */\n      dup9\n        /* \"#utility.yul\":4326:4332   */\n      dup3\n        /* \"#utility.yul\":4315:4324   */\n      dup10\n        /* \"#utility.yul\":4311:4333   */\n      add\n        /* \"#utility.yul\":4280:4343   */\n      tag_76\n      jump\t// in\n    tag_156:\n        /* \"#utility.yul\":4270:4343   */\n      swap2\n      pop\n        /* \"#utility.yul\":4064:4353   */\n      pop\n        /* \"#utility.yul\":2909:4360   */\n      swap3\n      swap6\n      pop\n      swap3\n      swap6\n      swap1\n      swap4\n      pop\n      jump\t// out\n        /* \"#utility.yul\":4366:4695   */\n    tag_13:\n        /* \"#utility.yul\":4425:4431   */\n      0x00\n        /* \"#utility.yul\":4474:4476   */\n      0x20\n        /* \"#utility.yul\":4462:4471   */\n      dup3\n        /* \"#utility.yul\":4453:4460   */\n      dup5\n        /* \"#utility.yul\":4449:4472   */\n      sub\n        /* \"#utility.yul\":4445:4477   */\n      slt\n        /* \"#utility.yul\":4442:4561   */\n      iszero\n      tag_158\n      jumpi\n        /* \"#utility.yul\":4480:4559   */\n      tag_159\n      tag_62\n      jump\t// in\n    tag_159:\n        /* \"#utility.yul\":4442:4561   */\n    tag_158:\n        /* \"#utility.yul\":4600:4601   */\n      0x00\n        /* \"#utility.yul\":4625:4678   */\n      tag_160\n        /* \"#utility.yul\":4670:4677   */\n      dup5\n        /* \"#utility.yul\":4661:4667   */\n      dup3\n        /* \"#utility.yul\":4650:4659   */\n      dup6\n        /* \"#utility.yul\":4646:4668   */\n      add\n        /* \"#utility.yul\":4625:4678   */\n      tag_66\n      jump\t// in\n    tag_160:\n        /* \"#utility.yul\":4615:4678   */\n      swap2\n      pop\n        /* \"#utility.yul\":4571:4688   */\n      pop\n        /* \"#utility.yul\":4366:4695   */\n      swap3\n      swap2\n      pop\n      pop\n      jump\t// out\n        /* \"#utility.yul\":4701:4819   */\n    tag_77:\n        /* \"#utility.yul\":4788:4812   */\n      tag_162\n        /* \"#utility.yul\":4806:4811   */\n      dup2\n        /* \"#utility.yul\":4788:4812   */\n      tag_64\n      jump\t// in\n    tag_162:\n        /* \"#utility.yul\":4783:4786   */\n      dup3\n        /* \"#utility.yul\":4776:4813   */\n      mstore\n        /* \"#utility.yul\":4701:4819   */\n      pop\n      pop\n      jump\t// out\n        /* \"#utility.yul\":4825:5047   */\n    tag_20:\n        /* \"#utility.yul\":4918:4922   */\n      0x00\n        /* \"#utility.yul\":4956:4958   */\n      0x20\n        /* \"#utility.yul\":4945:4954   */\n      dup3\n        /* \"#utility.yul\":4941:4959   */\n      add\n        /* \"#utility.yul\":4933:4959   */\n      swap1\n      pop\n        /* \"#utility.yul\":4969:5040   */\n      tag_164\n        /* \"#utility.yul\":5037:5038   */\n      0x00\n        /* \"#utility.yul\":5026:5035   */\n      dup4\n        /* \"#utility.yul\":5022:5039   */\n      add\n        /* \"#utility.yul\":5013:5019   */\n      dup5\n        /* \"#utility.yul\":4969:5040   */\n      tag_77\n      jump\t// in\n    tag_164:\n        /* \"#utility.yul\":4825:5047   */\n      swap3\n      swap2\n      pop\n      pop\n      jump\t// out\n        /* \"#utility.yul\":5053:5179   */\n    tag_78:\n        /* \"#utility.yul\":5090:5097   */\n      0x00\n        /* \"#utility.yul\":5130:5172   */\n      0xffffffffffffffffffffffffffffffffffffffff\n        /* \"#utility.yul\":5123:5128   */\n      dup3\n        /* \"#utility.yul\":5119:5173   */\n      and\n        /* \"#utility.yul\":5108:5173   */\n      swap1\n      pop\n        /* \"#utility.yul\":5053:5179   */\n      swap2\n      swap1\n      pop\n      jump\t// out\n        /* \"#utility.yul\":5185:5281   */\n    tag_79:\n        /* \"#utility.yul\":5222:5229   */\n      0x00\n        /* \"#utility.yul\":5251:5275   */\n      tag_167\n        /* \"#utility.yul\":5269:5274   */\n      dup3\n        /* \"#utility.yul\":5251:5275   */\n      tag_78\n      jump\t// in\n    tag_167:\n        /* \"#utility.yul\":5240:5275   */\n      swap1\n      pop\n        /* \"#utility.yul\":5185:5281   */\n      swap2\n      swap1\n      pop\n      jump\t// out\n        /* \"#utility.yul\":5287:5405   */\n    tag_80:\n        /* \"#utility.yul\":5374:5398   */\n      tag_169\n        /* \"#utility.yul\":5392:5397   */\n      dup2\n        /* \"#utility.yul\":5374:5398   */\n      tag_79\n      jump\t// in\n    tag_169:\n        /* \"#utility.yul\":5369:5372   */\n      dup3\n        /* \"#utility.yul\":5362:5399   */\n      mstore\n        /* \"#utility.yul\":5287:5405   */\n      pop\n      pop\n      jump\t// out\n        /* \"#utility.yul\":5411:5501   */\n    tag_81:\n        /* \"#utility.yul\":5445:5452   */\n      0x00\n        /* \"#utility.yul\":5488:5493   */\n      dup2\n        /* \"#utility.yul\":5481:5494   */\n      iszero\n        /* \"#utility.yul\":5474:5495   */\n      iszero\n        /* \"#utility.yul\":5463:5495   */\n      swap1\n      pop\n        /* \"#utility.yul\":5411:5501   */\n      swap2\n      swap1\n      pop\n      jump\t// out\n        /* \"#utility.yul\":5507:5616   */\n    tag_82:\n        /* \"#utility.yul\":5588:5609   */\n      tag_172\n        /* \"#utility.yul\":5603:5608   */\n      dup2\n        /* \"#utility.yul\":5588:5609   */\n      tag_81\n      jump\t// in\n    tag_172:\n        /* \"#utility.yul\":5583:5586   */\n      dup3\n        /* \"#utility.yul\":5576:5610   */\n      mstore\n        /* \"#utility.yul\":5507:5616   */\n      pop\n      pop\n      jump\t// out\n        /* \"#utility.yul\":5622:5721   */\n    tag_83:\n        /* \"#utility.yul\":5674:5680   */\n      0x00\n        /* \"#utility.yul\":5708:5713   */\n      dup2\n        /* \"#utility.yul\":5702:5714   */\n      mload\n        /* \"#utility.yul\":5692:5714   */\n      swap1\n      pop\n        /* \"#utility.yul\":5622:5721   */\n      swap2\n      swap1\n      pop\n      jump\t// out\n        /* \"#utility.yul\":5727:5896   */\n    tag_84:\n        /* \"#utility.yul\":5811:5822   */\n      0x00\n        /* \"#utility.yul\":5845:5851   */\n      dup3\n        /* \"#utility.yul\":5840:5843   */\n      dup3\n        /* \"#utility.yul\":5833:5852   */\n      mstore\n        /* \"#utility.yul\":5885:5889   */\n      0x20\n        /* \"#utility.yul\":5880:5883   */\n      dup3\n        /* \"#utility.yul\":5876:5890   */\n      add\n        /* \"#utility.yul\":5861:5890   */\n      swap1\n      pop\n        /* \"#utility.yul\":5727:5896   */\n      swap3\n      swap2\n      pop\n      pop\n      jump\t// out\n        /* \"#utility.yul\":5902:6148   */\n    tag_85:\n        /* \"#utility.yul\":5983:5984   */\n      0x00\n        /* \"#utility.yul\":5993:6106   */\n    tag_176:\n        /* \"#utility.yul\":6007:6013   */\n      dup4\n        /* \"#utility.yul\":6004:6005   */\n      dup2\n        /* \"#utility.yul\":6001:6014   */\n      lt\n        /* \"#utility.yul\":5993:6106   */\n      iszero\n      tag_178\n      jumpi\n        /* \"#utility.yul\":6092:6093   */\n      dup1\n        /* \"#utility.yul\":6087:6090   */\n      dup3\n        /* \"#utility.yul\":6083:6094   */\n      add\n        /* \"#utility.yul\":6077:6095   */\n      mload\n        /* \"#utility.yul\":6073:6074   */\n      dup2\n        /* \"#utility.yul\":6068:6071   */\n      dup5\n        /* \"#utility.yul\":6064:6075   */\n      add\n        /* \"#utility.yul\":6057:6096   */\n      mstore\n        /* \"#utility.yul\":6029:6031   */\n      0x20\n        /* \"#utility.yul\":6026:6027   */\n      dup2\n        /* \"#utility.yul\":6022:6032   */\n      add\n        /* \"#utility.yul\":6017:6032   */\n      swap1\n      pop\n        /* \"#utility.yul\":5993:6106   */\n      jump(tag_176)\n    tag_178:\n        /* \"#utility.yul\":6140:6141   */\n      0x00\n        /* \"#utility.yul\":6131:6137   */\n      dup5\n        /* \"#utility.yul\":6126:6129   */\n      dup5\n        /* \"#utility.yul\":6122:6138   */\n      add\n        /* \"#utility.yul\":6115:6142   */\n      mstore\n        /* \"#utility.yul\":5964:6148   */\n      pop\n        /* \"#utility.yul\":5902:6148   */\n      pop\n      pop\n      pop\n      jump\t// out\n        /* \"#utility.yul\":6154:6531   */\n    tag_86:\n        /* \"#utility.yul\":6242:6245   */\n      0x00\n        /* \"#utility.yul\":6270:6309   */\n      tag_180\n        /* \"#utility.yul\":6303:6308   */\n      dup3\n        /* \"#utility.yul\":6270:6309   */\n      tag_83\n      jump\t// in\n    tag_180:\n        /* \"#utility.yul\":6325:6396   */\n      tag_181\n        /* \"#utility.yul\":6389:6395   */\n      dup2\n        /* \"#utility.yul\":6384:6387   */\n      dup6\n        /* \"#utility.yul\":6325:6396   */\n      tag_84\n      jump\t// in\n    tag_181:\n        /* \"#utility.yul\":6318:6396   */\n      swap4\n      pop\n        /* \"#utility.yul\":6405:6470   */\n      tag_182\n        /* \"#utility.yul\":6463:6469   */\n      dup2\n        /* \"#utility.yul\":6458:6461   */\n      dup6\n        /* \"#utility.yul\":6451:6455   */\n      0x20\n        /* \"#utility.yul\":6444:6449   */\n      dup7\n        /* \"#utility.yul\":6440:6456   */\n      add\n        /* \"#utility.yul\":6405:6470   */\n      tag_85\n      jump\t// in\n    tag_182:\n        /* \"#utility.yul\":6495:6524   */\n      tag_183\n        /* \"#utility.yul\":6517:6523   */\n      dup2\n        /* \"#utility.yul\":6495:6524   */\n      tag_69\n      jump\t// in\n    tag_183:\n        /* \"#utility.yul\":6490:6493   */\n      dup5\n        /* \"#utility.yul\":6486:6525   */\n      add\n        /* \"#utility.yul\":6479:6525   */\n      swap2\n      pop\n        /* \"#utility.yul\":6246:6531   */\n      pop\n        /* \"#utility.yul\":6154:6531   */\n      swap3\n      swap2\n      pop\n      pop\n      jump\t// out\n        /* \"#utility.yul\":6537:7573   */\n    tag_26:\n        /* \"#utility.yul\":6824:6828   */\n      0x00\n        /* \"#utility.yul\":6862:6865   */\n      0xc0\n        /* \"#utility.yul\":6851:6860   */\n      dup3\n        /* \"#utility.yul\":6847:6866   */\n      add\n        /* \"#utility.yul\":6839:6866   */\n      swap1\n      pop\n        /* \"#utility.yul\":6876:6947   */\n      tag_185\n        /* \"#utility.yul\":6944:6945   */\n      0x00\n        /* \"#utility.yul\":6933:6942   */\n      dup4\n        /* \"#utility.yul\":6929:6946   */\n      add\n        /* \"#utility.yul\":6920:6926   */\n      dup10\n        /* \"#utility.yul\":6876:6947   */\n      tag_77\n      jump\t// in\n    tag_185:\n        /* \"#utility.yul\":6957:7029   */\n      tag_186\n        /* \"#utility.yul\":7025:7027   */\n      0x20\n        /* \"#utility.yul\":7014:7023   */\n      dup4\n        /* \"#utility.yul\":7010:7028   */\n      add\n        /* \"#utility.yul\":7001:7007   */\n      dup9\n        /* \"#utility.yul\":6957:7029   */\n      tag_80\n      jump\t// in\n    tag_186:\n        /* \"#utility.yul\":7039:7105   */\n      tag_187\n        /* \"#utility.yul\":7101:7103   */\n      0x40\n        /* \"#utility.yul\":7090:7099   */\n      dup4\n        /* \"#utility.yul\":7086:7104   */\n      add\n        /* \"#utility.yul\":7077:7083   */\n      dup8\n        /* \"#utility.yul\":7039:7105   */\n      tag_82\n      jump\t// in\n    tag_187:\n        /* \"#utility.yul\":7152:7161   */\n      dup2\n        /* \"#utility.yul\":7146:7150   */\n      dup2\n        /* \"#utility.yul\":7142:7162   */\n      sub\n        /* \"#utility.yul\":7137:7139   */\n      0x60\n        /* \"#utility.yul\":7126:7135   */\n      dup4\n        /* \"#utility.yul\":7122:7140   */\n      add\n        /* \"#utility.yul\":7115:7163   */\n      mstore\n        /* \"#utility.yul\":7180:7258   */\n      tag_188\n        /* \"#utility.yul\":7253:7257   */\n      dup2\n        /* \"#utility.yul\":7244:7250   */\n      dup7\n        /* \"#utility.yul\":7180:7258   */\n      tag_86\n      jump\t// in\n    tag_188:\n        /* \"#utility.yul\":7172:7258   */\n      swap1\n      pop\n        /* \"#utility.yul\":7306:7315   */\n      dup2\n        /* \"#utility.yul\":7300:7304   */\n      dup2\n        /* \"#utility.yul\":7296:7316   */\n      sub\n        /* \"#utility.yul\":7290:7293   */\n      0x80\n        /* \"#utility.yul\":7279:7288   */\n      dup4\n        /* \"#utility.yul\":7275:7294   */\n      add\n        /* \"#utility.yul\":7268:7317   */\n      mstore\n        /* \"#utility.yul\":7334:7412   */\n      tag_189\n        /* \"#utility.yul\":7407:7411   */\n      dup2\n        /* \"#utility.yul\":7398:7404   */\n      dup6\n        /* \"#utility.yul\":7334:7412   */\n      tag_86\n      jump\t// in\n    tag_189:\n        /* \"#utility.yul\":7326:7412   */\n      swap1\n      pop\n        /* \"#utility.yul\":7460:7469   */\n      dup2\n        /* \"#utility.yul\":7454:7458   */\n      dup2\n        /* \"#utility.yul\":7450:7470   */\n      sub\n        /* \"#utility.yul\":7444:7447   */\n      0xa0\n        /* \"#utility.yul\":7433:7442   */\n      dup4\n        /* \"#utility.yul\":7429:7448   */\n      add\n        /* \"#utility.yul\":7422:7471   */\n      mstore\n        /* \"#utility.yul\":7488:7566   */\n      tag_190\n        /* \"#utility.yul\":7561:7565   */\n      dup2\n        /* \"#utility.yul\":7552:7558   */\n      dup5\n        /* \"#utility.yul\":7488:7566   */\n      tag_86\n      jump\t// in\n    tag_190:\n        /* \"#utility.yul\":7480:7566   */\n      swap1\n      pop\n        /* \"#utility.yul\":6537:7573   */\n      swap8\n      swap7\n      pop\n      pop\n      pop\n      pop\n      pop\n      pop\n      pop\n      jump\t// out\n        /* \"#utility.yul\":7579:7759   */\n    tag_87:\n        /* \"#utility.yul\":7627:7704   */\n      0x4e487b7100000000000000000000000000000000000000000000000000000000\n        /* \"#utility.yul\":7624:7625   */\n      0x00\n        /* \"#utility.yul\":7617:7705   */\n      mstore\n        /* \"#utility.yul\":7724:7728   */\n      0x22\n        /* \"#utility.yul\":7721:7722   */\n      0x04\n        /* \"#utility.yul\":7714:7729   */\n      mstore\n        /* \"#utility.yul\":7748:7752   */\n      0x24\n        /* \"#utility.yul\":7745:7746   */\n      0x00\n        /* \"#utility.yul\":7738:7753   */\n      revert\n        /* \"#utility.yul\":7765:8085   */\n    tag_46:\n        /* \"#utility.yul\":7809:7815   */\n      0x00\n        /* \"#utility.yul\":7846:7847   */\n      0x02\n        /* \"#utility.yul\":7840:7844   */\n      dup3\n        /* \"#utility.yul\":7836:7848   */\n      div\n        /* \"#utility.yul\":7826:7848   */\n      swap1\n      pop\n        /* \"#utility.yul\":7893:7894   */\n      0x01\n        /* \"#utility.yul\":7887:7891   */\n      dup3\n        /* \"#utility.yul\":7883:7895   */\n      and\n        /* \"#utility.yul\":7914:7932   */\n      dup1\n        /* \"#utility.yul\":7904:7985   */\n      tag_193\n      jumpi\n        /* \"#utility.yul\":7970:7974   */\n      0x7f\n        /* \"#utility.yul\":7962:7968   */\n      dup3\n        /* \"#utility.yul\":7958:7975   */\n      and\n        /* \"#utility.yul\":7948:7975   */\n      swap2\n      pop\n        /* \"#utility.yul\":7904:7985   */\n    tag_193:\n        /* \"#utility.yul\":8032:8034   */\n      0x20\n        /* \"#utility.yul\":8024:8030   */\n      dup3\n        /* \"#utility.yul\":8021:8035   */\n      lt\n        /* \"#utility.yul\":8001:8019   */\n      dup2\n        /* \"#utility.yul\":7998:8036   */\n      sub\n        /* \"#utility.yul\":7995:8079   */\n      tag_194\n      jumpi\n        /* \"#utility.yul\":8051:8069   */\n      tag_195\n      tag_87\n      jump\t// in\n    tag_195:\n        /* \"#utility.yul\":7995:8079   */\n    tag_194:\n        /* \"#utility.yul\":7816:8085   */\n      pop\n        /* \"#utility.yul\":7765:8085   */\n      swap2\n      swap1\n      pop\n      jump\t// out\n        /* \"#utility.yul\":8091:8232   */\n    tag_88:\n        /* \"#utility.yul\":8140:8144   */\n      0x00\n        /* \"#utility.yul\":8163:8166   */\n      dup2\n        /* \"#utility.yul\":8155:8166   */\n      swap1\n      pop\n        /* \"#utility.yul\":8186:8189   */\n      dup2\n        /* \"#utility.yul\":8183:8184   */\n      0x00\n        /* \"#utility.yul\":8176:8190   */\n      mstore\n        /* \"#utility.yul\":8220:8224   */\n      0x20\n        /* \"#utility.yul\":8217:8218   */\n      0x00\n        /* \"#utility.yul\":8207:8225   */\n      keccak256\n        /* \"#utility.yul\":8199:8225   */\n      swap1\n      pop\n        /* \"#utility.yul\":8091:8232   */\n      swap2\n      swap1\n      pop\n      jump\t// out\n        /* \"#utility.yul\":8238:8331   */\n    tag_89:\n        /* \"#utility.yul\":8275:8281   */\n      0x00\n        /* \"#utility.yul\":8322:8324   */\n      0x20\n        /* \"#utility.yul\":8317:8319   */\n      0x1f\n        /* \"#utility.yul\":8310:8315   */\n      dup4\n        /* \"#utility.yul\":8306:8320   */\n      add\n        /* \"#utility.yul\":8302:8325   */\n      div\n        /* \"#utility.yul\":8292:8325   */\n      swap1\n      pop\n        /* \"#utility.yul\":8238:8331   */\n      swap2\n      swap1\n      pop\n      jump\t// out\n        /* \"#utility.yul\":8337:8444   */\n    tag_90:\n        /* \"#utility.yul\":8381:8389   */\n      0x00\n        /* \"#utility.yul\":8431:8436   */\n      dup3\n        /* \"#utility.yul\":8425:8429   */\n      dup3\n        /* \"#utility.yul\":8421:8437   */\n      shl\n        /* \"#utility.yul\":8400:8437   */\n      swap1\n      pop\n        /* \"#utility.yul\":8337:8444   */\n      swap3\n      swap2\n      pop\n      pop\n      jump\t// out\n        /* \"#utility.yul\":8450:8843   */\n    tag_91:\n        /* \"#utility.yul\":8519:8525   */\n      0x00\n        /* \"#utility.yul\":8569:8570   */\n      0x08\n        /* \"#utility.yul\":8557:8567   */\n      dup4\n        /* \"#utility.yul\":8553:8571   */\n      mul\n        /* \"#utility.yul\":8592:8689   */\n      tag_200\n        /* \"#utility.yul\":8622:8688   */\n      0xffffffffffffffffffffffffffffffffffffffffffffffffffffffffffffffff\n        /* \"#utility.yul\":8611:8620   */\n      dup3\n        /* \"#utility.yul\":8592:8689   */\n      tag_90\n      jump\t// in\n    tag_200:\n        /* \"#utility.yul\":8710:8749   */\n      tag_201\n        /* \"#utility.yul\":8740:8748   */\n      dup7\n        /* \"#utility.yul\":8729:8738   */\n      dup4\n        /* \"#utility.yul\":8710:8749   */\n      tag_90\n      jump\t// in\n    tag_201:\n        /* \"#utility.yul\":8698:8749   */\n      swap6\n      pop\n        /* \"#utility.yul\":8782:8786   */\n      dup1\n        /* \"#utility.yul\":8778:8787   */\n      not\n        /* \"#utility.yul\":8771:8776   */\n      dup5\n        /* \"#utility.yul\":8767:8788   */\n      and\n        /* \"#utility.yul\":8758:8788   */\n      swap4\n      pop\n        /* \"#utility.yul\":8831:8835   */\n      dup1\n        /* \"#utility.yul\":8821:8829   */\n      dup7\n        /* \"#utility.yul\":8817:8836   */\n      and\n        /* \"#utility.yul\":8810:8815   */\n      dup5\n        /* \"#utility.yul\":8807:8837   */\n      or\n        /* \"#utility.yul\":8797:8837   */\n      swap3\n      pop\n        /* \"#utility.yul\":8526:8843   */\n      pop\n      pop\n        /* \"#utility.yul\":8450:8843   */\n      swap4\n      swap3\n      pop\n      pop\n      pop\n      jump\t// out\n        /* \"#utility.yul\":8849:8909   */\n    tag_92:\n        /* \"#utility.yul\":8877:8880   */\n      0x00\n        /* \"#utility.yul\":8898:8903   */\n      dup2\n        /* \"#utility.yul\":8891:8903   */\n      swap1\n      pop\n        /* \"#utility.yul\":8849:8909   */\n      swap2\n      swap1\n      pop\n      jump\t// out\n        /* \"#utility.yul\":8915:9057   */\n    tag_93:\n        /* \"#utility.yul\":8965:8974   */\n      0x00\n        /* \"#utility.yul\":8998:9051   */\n      tag_204\n        /* \"#utility.yul\":9016:9050   */\n      tag_205\n        /* \"#utility.yul\":9025:9049   */\n      tag_206\n        /* \"#utility.yul\":9043:9048   */\n      dup5\n        /* \"#utility.yul\":9025:9049   */\n      tag_64\n      jump\t// in\n    tag_206:\n        /* \"#utility.yul\":9016:9050   */\n      tag_92\n      jump\t// in\n    tag_205:\n        /* \"#utility.yul\":8998:9051   */\n      tag_64\n      jump\t// in\n    tag_204:\n        /* \"#utility.yul\":8985:9051   */\n      swap1\n      pop\n        /* \"#utility.yul\":8915:9057   */\n      swap2\n      swap1\n      pop\n      jump\t// out\n        /* \"#utility.yul\":9063:9138   */\n    tag_94:\n        /* \"#utility.yul\":9106:9109   */\n      0x00\n        /* \"#utility.yul\":9127:9132   */\n      dup2\n        /* \"#utility.yul\":9120:9132   */\n      swap1\n      pop\n        /* \"#utility.yul\":9063:9138   */\n      swap2\n      swap1\n      pop\n      jump\t// out\n        /* \"#utility.yul\":9144:9413   */\n    tag_95:\n        /* \"#utility.yul\":9254:9293   */\n      tag_209\n        /* \"#utility.yul\":9285:9292   */\n      dup4\n        /* \"#utility.yul\":9254:9293   */\n      tag_93\n      jump\t// in\n    tag_209:\n        /* \"#utility.yul\":9315:9406   */\n      tag_210\n        /* \"#utility.yul\":9364:9405   */\n      tag_211\n        /* \"#utility.yul\":9388:9404   */\n      dup3\n        /* \"#utility.yul\":9364:9405   */\n      tag_94\n      jump\t// in\n    tag_211:\n        /* \"#utility.yul\":9356:9362   */\n      dup5\n        /* \"#utility.yul\":9349:9353   */\n      dup5\n        /* \"#utility.yul\":9343:9354   */\n      sload\n        /* \"#utility.yul\":9315:9406   */\n      tag_91\n      jump\t// in\n    tag_210:\n        /* \"#utility.yul\":9309:9313   */\n      dup3\n        /* \"#utility.yul\":9302:9407   */\n      sstore\n        /* \"#utility.yul\":9220:9413   */\n      pop\n        /* \"#utility.yul\":9144:9413   */\n      pop\n      pop\n      pop\n      jump\t// out\n        /* \"#utility.yul\":9419:9492   */\n    tag_96:\n        /* \"#utility.yul\":9464:9467   */\n      0x00\n        /* \"#utility.yul\":9419:9492   */\n      swap1\n      jump\t// out\n        /* \"#utility.yul\":9498:9687   */\n    tag_97:\n        /* \"#utility.yul\":9575:9607   */\n      tag_214\n      tag_96\n      jump\t// in\n    tag_214:\n        /* \"#utility.yul\":9616:9681   */\n      tag_215\n        /* \"#utility.yul\":9674:9680   */\n      dup2\n        /* \"#utility.yul\":9666:9672   */\n      dup5\n        /* \"#utility.yul\":9660:9664   */\n      dup5\n        /* \"#utility.yul\":9616:9681   */\n      tag_95\n      jump\t// in\n    tag_215:\n        /* \"#utility.yul\":9551:9687   */\n      pop\n        /* \"#utility.yul\":9498:9687   */\n      pop\n      pop\n      jump\t// out\n        /* \"#utility.yul\":9693:9879   */\n    tag_98:\n        /* \"#utility.yul\":9753:9873   */\n    tag_217:\n        /* \"#utility.yul\":9770:9773   */\n      dup2\n        /* \"#utility.yul\":9763:9768   */\n      dup2\n        /* \"#utility.yul\":9760:9774   */\n      lt\n        /* \"#utility.yul\":9753:9873   */\n      iszero\n      tag_219\n      jumpi\n        /* \"#utility.yul\":9824:9863   */\n      tag_220\n        /* \"#utility.yul\":9861:9862   */\n      0x00\n        /* \"#utility.yul\":9854:9859   */\n      dup3\n        /* \"#utility.yul\":9824:9863   */\n      tag_97\n      jump\t// in\n    tag_220:\n        /* \"#utility.yul\":9797:9798   */\n      0x01\n        /* \"#utility.yul\":9790:9795   */\n      dup2\n        /* \"#utility.yul\":9786:9799   */\n      add\n        /* \"#utility.yul\":9777:9799   */\n      swap1\n      pop\n        /* \"#utility.yul\":9753:9873   */\n      jump(tag_217)\n    tag_219:\n        /* \"#utility.yul\":9693:9879   */\n      pop\n      pop\n      jump\t// out\n        /* \"#utility.yul\":9885:10428   */\n    tag_99:\n        /* \"#utility.yul\":9986:9988   */\n      0x1f\n        /* \"#utility.yul\":9981:9984   */\n      dup3\n        /* \"#utility.yul\":9978:9989   */\n      gt\n        /* \"#utility.yul\":9975:10421   */\n      iszero\n      tag_222\n      jumpi\n        /* \"#utility.yul\":10020:10058   */\n      tag_223\n        /* \"#utility.yul\":10052:10057   */\n      dup2\n        /* \"#utility.yul\":10020:10058   */\n      tag_88\n      jump\t// in\n    tag_223:\n        /* \"#utility.yul\":10104:10133   */\n      tag_224\n        /* \"#utility.yul\":10122:10132   */\n      dup5\n        /* \"#utility.yul\":10104:10133   */\n      tag_89\n      jump\t// in\n    tag_224:\n        /* \"#utility.yul\":10094:10102   */\n      dup2\n        /* \"#utility.yul\":10090:10134   */\n      add\n        /* \"#utility.yul\":10287:10289   */\n      0x20\n        /* \"#utility.yul\":10275:10285   */\n      dup6\n        /* \"#utility.yul\":10272:10290   */\n      lt\n        /* \"#utility.yul\":10269:10318   */\n      iszero\n      tag_225\n      jumpi\n        /* \"#utility.yul\":10308:10316   */\n      dup2\n        /* \"#utility.yul\":10293:10316   */\n      swap1\n      pop\n        /* \"#utility.yul\":10269:10318   */\n    tag_225:\n        /* \"#utility.yul\":10331:10411   */\n      tag_226\n        /* \"#utility.yul\":10387:10409   */\n      tag_227\n        /* \"#utility.yul\":10405:10408   */\n      dup6\n        /* \"#utility.yul\":10387:10409   */\n      tag_89\n      jump\t// in\n    tag_227:\n        /* \"#utility.yul\":10377:10385   */\n      dup4\n        /* \"#utility.yul\":10373:10410   */\n      add\n        /* \"#utility.yul\":10360:10371   */\n      dup3\n        /* \"#utility.yul\":10331:10411   */\n      tag_98\n      jump\t// in\n    tag_226:\n        /* \"#utility.yul\":9990:10421   */\n      pop\n      pop\n        /* \"#utility.yul\":9975:10421   */\n    tag_222:\n        /* \"#utility.yul\":9885:10428   */\n      pop\n      pop\n      pop\n      jump\t// out\n        /* \"#utility.yul\":10434:10551   */\n    tag_100:\n        /* \"#utility.yul\":10488:10496   */\n      0x00\n        /* \"#utility.yul\":10538:10543   */\n      dup3\n        /* \"#utility.yul\":10532:10536   */\n      dup3\n        /* \"#utility.yul\":10528:10544   */\n      shr\n        /* \"#utility.yul\":10507:10544   */\n      swap1\n      pop\n        /* \"#utility.yul\":10434:10551   */\n      swap3\n      swap2\n      pop\n      pop\n      jump\t// out\n        /* \"#utility.yul\":10557:10726   */\n    tag_101:\n        /* \"#utility.yul\":10601:10607   */\n      0x00\n        /* \"#utility.yul\":10634:10685   */\n      tag_230\n        /* \"#utility.yul\":10682:10683   */\n      0x00\n        /* \"#utility.yul\":10678:10684   */\n      not\n        /* \"#utility.yul\":10670:10675   */\n      dup5\n        /* \"#utility.yul\":10667:10668   */\n      0x08\n        /* \"#utility.yul\":10663:10676   */\n      mul\n        /* \"#utility.yul\":10634:10685   */\n      tag_100\n      jump\t// in\n    tag_230:\n        /* \"#utility.yul\":10630:10686   */\n      not\n        /* \"#utility.yul\":10715:10719   */\n      dup1\n        /* \"#utility.yul\":10709:10713   */\n      dup4\n        /* \"#utility.yul\":10705:10720   */\n      and\n        /* \"#utility.yul\":10695:10720   */\n      swap2\n      pop\n        /* \"#utility.yul\":10608:10726   */\n      pop\n        /* \"#utility.yul\":10557:10726   */\n      swap3\n      swap2\n      pop\n      pop\n      jump\t// out\n        /* \"#utility.yul\":10731:11026   */\n    tag_102:\n        /* \"#utility.yul\":10807:10811   */\n      0x00\n        /* \"#utility.yul\":10953:10982   */\n      tag_232\n        /* \"#utility.yul\":10978:10981   */\n      dup4\n        /* \"#utility.yul\":10972:10976   */\n      dup4\n        /* \"#utility.yul\":10953:10982   */\n      tag_101\n      jump\t// in\n    tag_232:\n        /* \"#utility.yul\":10945:10982   */\n      swap2\n      pop\n        /* \"#utility.yul\":11015:11018   */\n      dup3\n        /* \"#utility.yul\":11012:11013   */\n      0x02\n        /* \"#utility.yul\":11008:11019   */\n      mul\n        /* \"#utility.yul\":11002:11006   */\n      dup3\n        /* \"#utility.yul\":10999:11020   */\n      or\n        /* \"#utility.yul\":10991:11020   */\n      swap1\n      pop\n        /* \"#utility.yul\":10731:11026   */\n      swap3\n      swap2\n      pop\n      pop\n      jump\t// out\n        /* \"#utility.yul\":11031:12426   */\n    tag_29:\n        /* \"#utility.yul\":11148:11185   */\n      tag_234\n        /* \"#utility.yul\":11181:11184   */\n      dup3\n        /* \"#utility.yul\":11148:11185   */\n      tag_83\n      jump\t// in\n    tag_234:\n        /* \"#utility.yul\":11250:11268   */\n      0xffffffffffffffff\n        /* \"#utility.yul\":11242:11248   */\n      dup2\n        /* \"#utility.yul\":11239:11269   */\n      gt\n        /* \"#utility.yul\":11236:11292   */\n      iszero\n      tag_235\n      jumpi\n        /* \"#utility.yul\":11272:11290   */\n      tag_236\n      tag_70\n      jump\t// in\n    tag_236:\n        /* \"#utility.yul\":11236:11292   */\n    tag_235:\n        /* \"#utility.yul\":11316:11354   */\n      tag_237\n        /* \"#utility.yul\":11348:11352   */\n      dup3\n        /* \"#utility.yul\":11342:11353   */\n      sload\n        /* \"#utility.yul\":11316:11354   */\n      tag_46\n      jump\t// in\n    tag_237:\n        /* \"#utility.yul\":11401:11468   */\n      tag_238\n        /* \"#utility.yul\":11461:11467   */\n      dup3\n        /* \"#utility.yul\":11453:11459   */\n      dup3\n        /* \"#utility.yul\":11447:11451   */\n      dup6\n        /* \"#utility.yul\":11401:11468   */\n      tag_99\n      jump\t// in\n    tag_238:\n        /* \"#utility.yul\":11495:11496   */\n      0x00\n        /* \"#utility.yul\":11519:11523   */\n      0x20\n        /* \"#utility.yul\":11506:11523   */\n      swap1\n      pop\n        /* \"#utility.yul\":11551:11553   */\n      0x1f\n        /* \"#utility.yul\":11543:11549   */\n      dup4\n        /* \"#utility.yul\":11540:11554   */\n      gt\n        /* \"#utility.yul\":11568:11569   */\n      0x01\n        /* \"#utility.yul\":11563:12181   */\n      dup2\n      eq\n      tag_240\n      jumpi\n        /* \"#utility.yul\":12225:12226   */\n      0x00\n        /* \"#utility.yul\":12242:12248   */\n      dup5\n        /* \"#utility.yul\":12239:12316   */\n      iszero\n      tag_241\n      jumpi\n        /* \"#utility.yul\":12291:12300   */\n      dup3\n        /* \"#utility.yul\":12286:12289   */\n      dup8\n        /* \"#utility.yul\":12282:12301   */\n      add\n        /* \"#utility.yul\":12276:12302   */\n      mload\n        /* \"#utility.yul\":12267:12302   */\n      swap1\n      pop\n        /* \"#utility.yul\":12239:12316   */\n    tag_241:\n        /* \"#utility.yul\":12342:12409   */\n      tag_242\n        /* \"#utility.yul\":12402:12408   */\n      dup6\n        /* \"#utility.yul\":12395:12400   */\n      dup3\n        /* \"#utility.yul\":12342:12409   */\n      tag_102\n      jump\t// in\n    tag_242:\n        /* \"#utility.yul\":12336:12340   */\n      dup7\n        /* \"#utility.yul\":12329:12410   */\n      sstore\n        /* \"#utility.yul\":12198:12420   */\n      pop\n        /* \"#utility.yul\":11533:12420   */\n      jump(tag_239)\n        /* \"#utility.yul\":11563:12181   */\n    tag_240:\n        /* \"#utility.yul\":11615:11619   */\n      0x1f\n        /* \"#utility.yul\":11611:11620   */\n      not\n        /* \"#utility.yul\":11603:11609   */\n      dup5\n        /* \"#utility.yul\":11599:11621   */\n      and\n        /* \"#utility.yul\":11649:11686   */\n      tag_243\n        /* \"#utility.yul\":11681:11685   */\n      dup7\n        /* \"#utility.yul\":11649:11686   */\n      tag_88\n      jump\t// in\n    tag_243:\n        /* \"#utility.yul\":11708:11709   */\n      0x00\n        /* \"#utility.yul\":11722:11930   */\n    tag_244:\n        /* \"#utility.yul\":11736:11743   */\n      dup3\n        /* \"#utility.yul\":11733:11734   */\n      dup2\n        /* \"#utility.yul\":11730:11744   */\n      lt\n        /* \"#utility.yul\":11722:11930   */\n      iszero\n      tag_246\n      jumpi\n        /* \"#utility.yul\":11815:11824   */\n      dup5\n        /* \"#utility.yul\":11810:11813   */\n      dup10\n        /* \"#utility.yul\":11806:11825   */\n      add\n        /* \"#utility.yul\":11800:11826   */\n      mload\n        /* \"#utility.yul\":11792:11798   */\n      dup3\n        /* \"#utility.yul\":11785:11827   */\n      sstore\n        /* \"#utility.yul\":11866:11867   */\n      0x01\n        /* \"#utility.yul\":11858:11864   */\n      dup3\n        /* \"#utility.yul\":11854:11868   */\n      add\n        /* \"#utility.yul\":11844:11868   */\n      swap2\n      pop\n        /* \"#utility.yul\":11913:11915   */\n      0x20\n        /* \"#utility.yul\":11902:11911   */\n      dup6\n        /* \"#utility.yul\":11898:11916   */\n      add\n        /* \"#utility.yul\":11885:11916   */\n      swap5\n      pop\n        /* \"#utility.yul\":11759:11763   */\n      0x20\n        /* \"#utility.yul\":11756:11757   */\n      dup2\n        /* \"#utility.yul\":11752:11764   */\n      add\n        /* \"#utility.yul\":11747:11764   */\n      swap1\n      pop\n        /* \"#utility.yul\":11722:11930   */\n      jump(tag_244)\n    tag_246:\n        /* \"#utility.yul\":11958:11964   */\n      dup7\n        /* \"#utility.yul\":11949:11956   */\n      dup4\n        /* \"#utility.yul\":11946:11965   */\n      lt\n        /* \"#utility.yul\":11943:12122   */\n      iszero\n      tag_247\n      jumpi\n        /* \"#utility.yul\":12016:12025   */\n      dup5\n        /* \"#utility.yul\":12011:12014   */\n      dup10\n        /* \"#utility.yul\":12007:12026   */\n      add\n        /* \"#utility.yul\":12001:12027   */\n      mload\n        /* \"#utility.yul\":12059:12107   */\n      tag_248\n        /* \"#utility.yul\":12101:12105   */\n      0x1f\n        /* \"#utility.yul\":12093:12099   */\n      dup10\n        /* \"#utility.yul\":12089:12106   */\n      and\n        /* \"#utility.yul\":12078:12087   */\n      dup3\n        /* \"#utility.yul\":12059:12107   */\n      tag_101\n      jump\t// in\n    tag_248:\n        /* \"#utility.yul\":12051:12057   */\n      dup4\n        /* \"#utility.yul\":12044:12108   */\n      sstore\n        /* \"#utility.yul\":11966:12122   */\n      pop\n        /* \"#utility.yul\":11943:12122   */\n    tag_247:\n        /* \"#utility.yul\":12168:12169   */\n      0x01\n        /* \"#utility.yul\":12164:12165   */\n      0x02\n        /* \"#utility.yul\":12156:12162   */\n      dup9\n        /* \"#utility.yul\":12152:12166   */\n      mul\n        /* \"#utility.yul\":12148:12170   */\n      add\n        /* \"#utility.yul\":12142:12146   */\n      dup9\n        /* \"#utility.yul\":12135:12171   */\n      sstore\n        /* \"#utility.yul\":11570:12181   */\n      pop\n      pop\n      pop\n        /* \"#utility.yul\":11533:12420   */\n    tag_239:\n      pop\n        /* \"#utility.yul\":11123:12426   */\n      pop\n      pop\n      pop\n        /* \"#utility.yul\":11031:12426   */\n      pop\n      pop\n      jump\t// out\n        /* \"#utility.yul\":12432:12607   */\n    tag_103:\n        /* \"#utility.yul\":12572:12599   */\n      0x50726f7065727479206973206e6f7420666f722073616c652e00000000000000\n        /* \"#utility.yul\":12568:12569   */\n      0x00\n        /* \"#utility.yul\":12560:12566   */\n      dup3\n        /* \"#utility.yul\":12556:12570   */\n      add\n        /* \"#utility.yul\":12549:12600   */\n      mstore\n        /* \"#utility.yul\":12432:12607   */\n      pop\n      jump\t// out\n        /* \"#utility.yul\":12613:12979   */\n    tag_104:\n        /* \"#utility.yul\":12755:12758   */\n      0x00\n        /* \"#utility.yul\":12776:12843   */\n      tag_251\n        /* \"#utility.yul\":12840:12842   */\n      0x19\n        /* \"#utility.yul\":12835:12838   */\n      dup4\n        /* \"#utility.yul\":12776:12843   */\n      tag_84\n      jump\t// in\n    tag_251:\n        /* \"#utility.yul\":12769:12843   */\n      swap2\n      pop\n        /* \"#utility.yul\":12852:12945   */\n      tag_252\n        /* \"#utility.yul\":12941:12944   */\n      dup3\n        /* \"#utility.yul\":12852:12945   */\n      tag_103\n      jump\t// in\n    tag_252:\n        /* \"#utility.yul\":12970:12972   */\n      0x20\n        /* \"#utility.yul\":12965:12968   */\n      dup3\n        /* \"#utility.yul\":12961:12973   */\n      add\n        /* \"#utility.yul\":12954:12973   */\n      swap1\n      pop\n        /* \"#utility.yul\":12613:12979   */\n      swap2\n      swap1\n      pop\n      jump\t// out\n        /* \"#utility.yul\":12985:13404   */\n    tag_36:\n        /* \"#utility.yul\":13151:13155   */\n      0x00\n        /* \"#utility.yul\":13189:13191   */\n      0x20\n        /* \"#utility.yul\":13178:13187   */\n      dup3\n        /* \"#utility.yul\":13174:13192   */\n      add\n        /* \"#utility.yul\":13166:13192   */\n      swap1\n      pop\n        /* \"#utility.yul\":13238:13247   */\n      dup2\n        /* \"#utility.yul\":13232:13236   */\n      dup2\n        /* \"#utility.yul\":13228:13248   */\n      sub\n        /* \"#utility.yul\":13224:13225   */\n      0x00\n        /* \"#utility.yul\":13213:13222   */\n      dup4\n        /* \"#utility.yul\":13209:13226   */\n      add\n        /* \"#utility.yul\":13202:13249   */\n      mstore\n        /* \"#utility.yul\":13266:13397   */\n      tag_254\n        /* \"#utility.yul\":13392:13396   */\n      dup2\n        /* \"#utility.yul\":13266:13397   */\n      tag_104\n      jump\t// in\n    tag_254:\n        /* \"#utility.yul\":13258:13397   */\n      swap1\n      pop\n        /* \"#utility.yul\":12985:13404   */\n      swap2\n      swap1\n      pop\n      jump\t// out\n        /* \"#utility.yul\":13410:13578   */\n    tag_105:\n        /* \"#utility.yul\":13550:13570   */\n      0x496e73756666696369656e742066756e64730000000000000000000000000000\n        /* \"#utility.yul\":13546:13547   */\n      0x00\n        /* \"#utility.yul\":13538:13544   */\n      dup3\n        /* \"#utility.yul\":13534:13548   */\n      add\n        /* \"#utility.yul\":13527:13571   */\n      mstore\n        /* \"#utility.yul\":13410:13578   */\n      pop\n      jump\t// out\n        /* \"#utility.yul\":13584:13950   */\n    tag_106:\n        /* \"#utility.yul\":13726:13729   */\n      0x00\n        /* \"#utility.yul\":13747:13814   */\n      tag_257\n        /* \"#utility.yul\":13811:13813   */\n      0x12\n        /* \"#utility.yul\":13806:13809   */\n      dup4\n        /* \"#utility.yul\":13747:13814   */\n      tag_84\n      jump\t// in\n    tag_257:\n        /* \"#utility.yul\":13740:13814   */\n      swap2\n      pop\n        /* \"#utility.yul\":13823:13916   */\n      tag_258\n        /* \"#utility.yul\":13912:13915   */\n      dup3\n        /* \"#utility.yul\":13823:13916   */\n      tag_105\n      jump\t// in\n    tag_258:\n        /* \"#utility.yul\":13941:13943   */\n      0x20\n        /* \"#utility.yul\":13936:13939   */\n      dup3\n        /* \"#utility.yul\":13932:13944   */\n      add\n        /* \"#utility.yul\":13925:13944   */\n      swap1\n      pop\n        /* \"#utility.yul\":13584:13950   */\n      swap2\n      swap1\n      pop\n      jump\t// out\n        /* \"#utility.yul\":13956:14375   */\n    tag_39:\n        /* \"#utility.yul\":14122:14126   */\n      0x00\n        /* \"#utility.yul\":14160:14162   */\n      0x20\n        /* \"#utility.yul\":14149:14158   */\n      dup3\n        /* \"#utility.yul\":14145:14163   */\n      add\n        /* \"#utility.yul\":14137:14163   */\n      swap1\n      pop\n        /* \"#utility.yul\":14209:14218   */\n      dup2\n        /* \"#utility.yul\":14203:14207   */\n      dup2\n        /* \"#utility.yul\":14199:14219   */\n      sub\n        /* \"#utility.yul\":14195:14196   */\n      0x00\n        /* \"#utility.yul\":14184:14193   */\n      dup4\n        /* \"#utility.yul\":14180:14197   */\n      add\n        /* \"#utility.yul\":14173:14220   */\n      mstore\n        /* \"#utility.yul\":14237:14368   */\n      tag_260\n        /* \"#utility.yul\":14363:14367   */\n      dup2\n        /* \"#utility.yul\":14237:14368   */\n      tag_106\n      jump\t// in\n    tag_260:\n        /* \"#utility.yul\":14229:14368   */\n      swap1\n      pop\n        /* \"#utility.yul\":13956:14375   */\n      swap2\n      swap1\n      pop\n      jump\t// out\n\n    auxdata: 0xa2646970667358221220fb37845f73aea2f8442a27bbbb1de046d8e29f2b24b265026e315837b678846b64736f6c63430008160033\n}\n",
				"bytecode": {
					"linkReferences": {},
					"object": "608060405234801561000f575f80fd5b50610db48061001d5f395ff3fe60806040526004361061003e575f3560e01c8063611cf614146100425780636fa830a61461006a578063eae6cd4b14610086578063f7b10808146100c2575b5f80fd5b34801561004d575f80fd5b5061006860048036038101906100639190610780565b610103565b005b610084600480360381019061007f919061084b565b61023e565b005b348015610091575f80fd5b506100ac60048036038101906100a7919061084b565b6103eb565b6040516100b99190610885565b60405180910390f35b3480156100cd575f80fd5b506100e860048036038101906100e3919061084b565b61040b565b6040516100fa96959493929190610971565b60405180910390f35b5f6040518060c001604052808681526020013373ffffffffffffffffffffffffffffffffffffffff168152602001600115158152602001858152602001848152602001838152509050805f808881526020019081526020015f205f820151815f01556020820151816001015f6101000a81548173ffffffffffffffffffffffffffffffffffffffff021916908373ffffffffffffffffffffffffffffffffffffffff16021790555060408201518160010160146101000a81548160ff02191690831515021790555060608201518160020190816101e09190610bdf565b5060808201518160030190816101f69190610bdf565b5060a082015181600401908161020c9190610bdf565b50905050600186908060018154018082558091505060019003905f5260205f20015f9091909190915055505050505050565b5f805f8381526020019081526020015f2090508060010160149054906101000a900460ff166102a2576040517f08c379a000000000000000000000000000000000000000000000000000000000815260040161029990610cf8565b60405180910390fd5b34815f015411156102e8576040517f08c379a00000000000000000000000000000000000000000000000000000000081526004016102df90610d60565b60405180910390fd5b33816001015f6101000a81548173ffffffffffffffffffffffffffffffffffffffff021916908373ffffffffffffffffffffffffffffffffffffffff1602179055505f8160010160146101000a81548160ff021916908315150217905550806001015f9054906101000a900473ffffffffffffffffffffffffffffffffffffffff1673ffffffffffffffffffffffffffffffffffffffff166108fc825f015490811502906040515f60405180830381858888f193505050501580156103af573d5f803e3d5ffd5b507fca00b0637134f6563551ffb097ffc572f30140029b94a4a1e7ef423b475a894f826040516103df9190610885565b60405180910390a15050565b600181815481106103fa575f80fd5b905f5260205f20015f915090505481565b5f602052805f5260405f205f91509050805f015490806001015f9054906101000a900473ffffffffffffffffffffffffffffffffffffffff16908060010160149054906101000a900460ff169080600201805461046790610a12565b80601f016020809104026020016040519081016040528092919081815260200182805461049390610a12565b80156104de5780601f106104b5576101008083540402835291602001916104de565b820191905f5260205f20905b8154815290600101906020018083116104c157829003601f168201915b5050505050908060030180546104f390610a12565b80601f016020809104026020016040519081016040528092919081815260200182805461051f90610a12565b801561056a5780601f106105415761010080835404028352916020019161056a565b820191905f5260205f20905b81548152906001019060200180831161054d57829003601f168201915b50505050509080600401805461057f90610a12565b80601f01602080910402602001604051908101604052809291908181526020018280546105ab90610a12565b80156105f65780601f106105cd576101008083540402835291602001916105f6565b820191905f5260205f20905b8154815290600101906020018083116105d957829003601f168201915b5050505050905086565b5f604051905090565b5f80fd5b5f80fd5b5f819050919050565b61062381610611565b811461062d575f80fd5b50565b5f8135905061063e8161061a565b92915050565b5f80fd5b5f80fd5b5f601f19601f8301169050919050565b7f4e487b71000000000000000000000000000000000000000000000000000000005f52604160045260245ffd5b6106928261064c565b810181811067ffffffffffffffff821117156106b1576106b061065c565b5b80604052505050565b5f6106c3610600565b90506106cf8282610689565b919050565b5f67ffffffffffffffff8211156106ee576106ed61065c565b5b6106f78261064c565b9050602081019050919050565b828183375f83830152505050565b5f61072461071f846106d4565b6106ba565b9050828152602081018484840111156107405761073f610648565b5b61074b848285610704565b509392505050565b5f82601f83011261076757610766610644565b5b8135610777848260208601610712565b91505092915050565b5f805f805f60a0868803121561079957610798610609565b5b5f6107a688828901610630565b95505060206107b788828901610630565b945050604086013567ffffffffffffffff8111156107d8576107d761060d565b5b6107e488828901610753565b935050606086013567ffffffffffffffff8111156108055761080461060d565b5b61081188828901610753565b925050608086013567ffffffffffffffff8111156108325761083161060d565b5b61083e88828901610753565b9150509295509295909350565b5f602082840312156108605761085f610609565b5b5f61086d84828501610630565b91505092915050565b61087f81610611565b82525050565b5f6020820190506108985f830184610876565b92915050565b5f73ffffffffffffffffffffffffffffffffffffffff82169050919050565b5f6108c78261089e565b9050919050565b6108d7816108bd565b82525050565b5f8115159050919050565b6108f1816108dd565b82525050565b5f81519050919050565b5f82825260208201905092915050565b5f5b8381101561092e578082015181840152602081019050610913565b5f8484015250505050565b5f610943826108f7565b61094d8185610901565b935061095d818560208601610911565b6109668161064c565b840191505092915050565b5f60c0820190506109845f830189610876565b61099160208301886108ce565b61099e60408301876108e8565b81810360608301526109b08186610939565b905081810360808301526109c48185610939565b905081810360a08301526109d88184610939565b9050979650505050505050565b7f4e487b71000000000000000000000000000000000000000000000000000000005f52602260045260245ffd5b5f6002820490506001821680610a2957607f821691505b602082108103610a3c57610a3b6109e5565b5b50919050565b5f819050815f5260205f209050919050565b5f6020601f8301049050919050565b5f82821b905092915050565b5f60088302610a9e7fffffffffffffffffffffffffffffffffffffffffffffffffffffffffffffffff82610a63565b610aa88683610a63565b95508019841693508086168417925050509392505050565b5f819050919050565b5f610ae3610ade610ad984610611565b610ac0565b610611565b9050919050565b5f819050919050565b610afc83610ac9565b610b10610b0882610aea565b848454610a6f565b825550505050565b5f90565b610b24610b18565b610b2f818484610af3565b505050565b5b81811015610b5257610b475f82610b1c565b600181019050610b35565b5050565b601f821115610b9757610b6881610a42565b610b7184610a54565b81016020851015610b80578190505b610b94610b8c85610a54565b830182610b34565b50505b505050565b5f82821c905092915050565b5f610bb75f1984600802610b9c565b1980831691505092915050565b5f610bcf8383610ba8565b9150826002028217905092915050565b610be8826108f7565b67ffffffffffffffff811115610c0157610c0061065c565b5b610c0b8254610a12565b610c16828285610b56565b5f60209050601f831160018114610c47575f8415610c35578287015190505b610c3f8582610bc4565b865550610ca6565b601f198416610c5586610a42565b5f5b82811015610c7c57848901518255600182019150602085019450602081019050610c57565b86831015610c995784890151610c95601f891682610ba8565b8355505b6001600288020188555050505b505050505050565b7f50726f7065727479206973206e6f7420666f722073616c652e000000000000005f82015250565b5f610ce2601983610901565b9150610ced82610cae565b602082019050919050565b5f6020820190508181035f830152610d0f81610cd6565b9050919050565b7f496e73756666696369656e742066756e647300000000000000000000000000005f82015250565b5f610d4a601283610901565b9150610d5582610d16565b602082019050919050565b5f6020820190508181035f830152610d7781610d3e565b905091905056fea2646970667358221220fb37845f73aea2f8442a27bbbb1de046d8e29f2b24b265026e315837b678846b64736f6c63430008160033",
					"opcodes": "PUSH1 0x80 PUSH1 0x40 MSTORE CALLVALUE DUP1 ISZERO PUSH2 0xF JUMPI PUSH0 DUP1 REVERT JUMPDEST POP PUSH2 0xDB4 DUP1 PUSH2 0x1D PUSH0 CODECOPY PUSH0 RETURN INVALID PUSH1 0x80 PUSH1 0x40 MSTORE PUSH1 0x4 CALLDATASIZE LT PUSH2 0x3E JUMPI PUSH0 CALLDATALOAD PUSH1 0xE0 SHR DUP1 PUSH4 0x611CF614 EQ PUSH2 0x42 JUMPI DUP1 PUSH4 0x6FA830A6 EQ PUSH2 0x6A JUMPI DUP1 PUSH4 0xEAE6CD4B EQ PUSH2 0x86 JUMPI DUP1 PUSH4 0xF7B10808 EQ PUSH2 0xC2 JUMPI JUMPDEST PUSH0 DUP1 REVERT JUMPDEST CALLVALUE DUP1 ISZERO PUSH2 0x4D JUMPI PUSH0 DUP1 REVERT JUMPDEST POP PUSH2 0x68 PUSH1 0x4 DUP1 CALLDATASIZE SUB DUP2 ADD SWAP1 PUSH2 0x63 SWAP2 SWAP1 PUSH2 0x780 JUMP JUMPDEST PUSH2 0x103 JUMP JUMPDEST STOP JUMPDEST PUSH2 0x84 PUSH1 0x4 DUP1 CALLDATASIZE SUB DUP2 ADD SWAP1 PUSH2 0x7F SWAP2 SWAP1 PUSH2 0x84B JUMP JUMPDEST PUSH2 0x23E JUMP JUMPDEST STOP JUMPDEST CALLVALUE DUP1 ISZERO PUSH2 0x91 JUMPI PUSH0 DUP1 REVERT JUMPDEST POP PUSH2 0xAC PUSH1 0x4 DUP1 CALLDATASIZE SUB DUP2 ADD SWAP1 PUSH2 0xA7 SWAP2 SWAP1 PUSH2 0x84B JUMP JUMPDEST PUSH2 0x3EB JUMP JUMPDEST PUSH1 0x40 MLOAD PUSH2 0xB9 SWAP2 SWAP1 PUSH2 0x885 JUMP JUMPDEST PUSH1 0x40 MLOAD DUP1 SWAP2 SUB SWAP1 RETURN JUMPDEST CALLVALUE DUP1 ISZERO PUSH2 0xCD JUMPI PUSH0 DUP1 REVERT JUMPDEST POP PUSH2 0xE8 PUSH1 0x4 DUP1 CALLDATASIZE SUB DUP2 ADD SWAP1 PUSH2 0xE3 SWAP2 SWAP1 PUSH2 0x84B JUMP JUMPDEST PUSH2 0x40B JUMP JUMPDEST PUSH1 0x40 MLOAD PUSH2 0xFA SWAP7 SWAP6 SWAP5 SWAP4 SWAP3 SWAP2 SWAP1 PUSH2 0x971 JUMP JUMPDEST PUSH1 0x40 MLOAD DUP1 SWAP2 SUB SWAP1 RETURN JUMPDEST PUSH0 PUSH1 0x40 MLOAD DUP1 PUSH1 0xC0 ADD PUSH1 0x40 MSTORE DUP1 DUP7 DUP2 MSTORE PUSH1 0x20 ADD CALLER PUSH20 0xFFFFFFFFFFFFFFFFFFFFFFFFFFFFFFFFFFFFFFFF AND DUP2 MSTORE PUSH1 0x20 ADD PUSH1 0x1 ISZERO ISZERO DUP2 MSTORE PUSH1 0x20 ADD DUP6 DUP2 MSTORE PUSH1 0x20 ADD DUP5 DUP2 MSTORE PUSH1 0x20 ADD DUP4 DUP2 MSTORE POP SWAP1 POP DUP1 PUSH0 DUP1 DUP9 DUP2 MSTORE PUSH1 0x20 ADD SWAP1 DUP2 MSTORE PUSH1 0x20 ADD PUSH0 KECCAK256 PUSH0 DUP3 ADD MLOAD DUP2 PUSH0 ADD SSTORE PUSH1 0x20 DUP3 ADD MLOAD DUP2 PUSH1 0x1 ADD PUSH0 PUSH2 0x100 EXP DUP2 SLOAD DUP2 PUSH20 0xFFFFFFFFFFFFFFFFFFFFFFFFFFFFFFFFFFFFFFFF MUL NOT AND SWAP1 DUP4 PUSH20 0xFFFFFFFFFFFFFFFFFFFFFFFFFFFFFFFFFFFFFFFF AND MUL OR SWAP1 SSTORE POP PUSH1 0x40 DUP3 ADD MLOAD DUP2 PUSH1 0x1 ADD PUSH1 0x14 PUSH2 0x100 EXP DUP2 SLOAD DUP2 PUSH1 0xFF MUL NOT AND SWAP1 DUP4 ISZERO ISZERO MUL OR SWAP1 SSTORE POP PUSH1 0x60 DUP3 ADD MLOAD DUP2 PUSH1 0x2 ADD SWAP1 DUP2 PUSH2 0x1E0 SWAP2 SWAP1 PUSH2 0xBDF JUMP JUMPDEST POP PUSH1 0x80 DUP3 ADD MLOAD DUP2 PUSH1 0x3 ADD SWAP1 DUP2 PUSH2 0x1F6 SWAP2 SWAP1 PUSH2 0xBDF JUMP JUMPDEST POP PUSH1 0xA0 DUP3 ADD MLOAD DUP2 PUSH1 0x4 ADD SWAP1 DUP2 PUSH2 0x20C SWAP2 SWAP1 PUSH2 0xBDF JUMP JUMPDEST POP SWAP1 POP POP PUSH1 0x1 DUP7 SWAP1 DUP1 PUSH1 0x1 DUP2 SLOAD ADD DUP1 DUP3 SSTORE DUP1 SWAP2 POP POP PUSH1 0x1 SWAP1 SUB SWAP1 PUSH0 MSTORE PUSH1 0x20 PUSH0 KECCAK256 ADD PUSH0 SWAP1 SWAP2 SWAP1 SWAP2 SWAP1 SWAP2 POP SSTORE POP POP POP POP POP POP JUMP JUMPDEST PUSH0 DUP1 PUSH0 DUP4 DUP2 MSTORE PUSH1 0x20 ADD SWAP1 DUP2 MSTORE PUSH1 0x20 ADD PUSH0 KECCAK256 SWAP1 POP DUP1 PUSH1 0x1 ADD PUSH1 0x14 SWAP1 SLOAD SWAP1 PUSH2 0x100 EXP SWAP1 DIV PUSH1 0xFF AND PUSH2 0x2A2 JUMPI PUSH1 0x40 MLOAD PUSH32 0x8C379A000000000000000000000000000000000000000000000000000000000 DUP2 MSTORE PUSH1 0x4 ADD PUSH2 0x299 SWAP1 PUSH2 0xCF8 JUMP JUMPDEST PUSH1 0x40 MLOAD DUP1 SWAP2 SUB SWAP1 REVERT JUMPDEST CALLVALUE DUP2 PUSH0 ADD SLOAD GT ISZERO PUSH2 0x2E8 JUMPI PUSH1 0x40 MLOAD PUSH32 0x8C379A000000000000000000000000000000000000000000000000000000000 DUP2 MSTORE PUSH1 0x4 ADD PUSH2 0x2DF SWAP1 PUSH2 0xD60 JUMP JUMPDEST PUSH1 0x40 MLOAD DUP1 SWAP2 SUB SWAP1 REVERT JUMPDEST CALLER DUP2 PUSH1 0x1 ADD PUSH0 PUSH2 0x100 EXP DUP2 SLOAD DUP2 PUSH20 0xFFFFFFFFFFFFFFFFFFFFFFFFFFFFFFFFFFFFFFFF MUL NOT AND SWAP1 DUP4 PUSH20 0xFFFFFFFFFFFFFFFFFFFFFFFFFFFFFFFFFFFFFFFF AND MUL OR SWAP1 SSTORE POP PUSH0 DUP2 PUSH1 0x1 ADD PUSH1 0x14 PUSH2 0x100 EXP DUP2 SLOAD DUP2 PUSH1 0xFF MUL NOT AND SWAP1 DUP4 ISZERO ISZERO MUL OR SWAP1 SSTORE POP DUP1 PUSH1 0x1 ADD PUSH0 SWAP1 SLOAD SWAP1 PUSH2 0x100 EXP SWAP1 DIV PUSH20 0xFFFFFFFFFFFFFFFFFFFFFFFFFFFFFFFFFFFFFFFF AND PUSH20 0xFFFFFFFFFFFFFFFFFFFFFFFFFFFFFFFFFFFFFFFF AND PUSH2 0x8FC DUP3 PUSH0 ADD SLOAD SWAP1 DUP2 ISZERO MUL SWAP1 PUSH1 0x40 MLOAD PUSH0 PUSH1 0x40 MLOAD DUP1 DUP4 SUB DUP2 DUP6 DUP9 DUP9 CALL SWAP4 POP POP POP POP ISZERO DUP1 ISZERO PUSH2 0x3AF JUMPI RETURNDATASIZE PUSH0 DUP1 RETURNDATACOPY RETURNDATASIZE PUSH0 REVERT JUMPDEST POP PUSH32 0xCA00B0637134F6563551FFB097FFC572F30140029B94A4A1E7EF423B475A894F DUP3 PUSH1 0x40 MLOAD PUSH2 0x3DF SWAP2 SWAP1 PUSH2 0x885 JUMP JUMPDEST PUSH1 0x40 MLOAD DUP1 SWAP2 SUB SWAP1 LOG1 POP POP JUMP JUMPDEST PUSH1 0x1 DUP2 DUP2 SLOAD DUP2 LT PUSH2 0x3FA JUMPI PUSH0 DUP1 REVERT JUMPDEST SWAP1 PUSH0 MSTORE PUSH1 0x20 PUSH0 KECCAK256 ADD PUSH0 SWAP2 POP SWAP1 POP SLOAD DUP2 JUMP JUMPDEST PUSH0 PUSH1 0x20 MSTORE DUP1 PUSH0 MSTORE PUSH1 0x40 PUSH0 KECCAK256 PUSH0 SWAP2 POP SWAP1 POP DUP1 PUSH0 ADD SLOAD SWAP1 DUP1 PUSH1 0x1 ADD PUSH0 SWAP1 SLOAD SWAP1 PUSH2 0x100 EXP SWAP1 DIV PUSH20 0xFFFFFFFFFFFFFFFFFFFFFFFFFFFFFFFFFFFFFFFF AND SWAP1 DUP1 PUSH1 0x1 ADD PUSH1 0x14 SWAP1 SLOAD SWAP1 PUSH2 0x100 EXP SWAP1 DIV PUSH1 0xFF AND SWAP1 DUP1 PUSH1 0x2 ADD DUP1 SLOAD PUSH2 0x467 SWAP1 PUSH2 0xA12 JUMP JUMPDEST DUP1 PUSH1 0x1F ADD PUSH1 0x20 DUP1 SWAP2 DIV MUL PUSH1 0x20 ADD PUSH1 0x40 MLOAD SWAP1 DUP2 ADD PUSH1 0x40 MSTORE DUP1 SWAP3 SWAP2 SWAP1 DUP2 DUP2 MSTORE PUSH1 0x20 ADD DUP3 DUP1 SLOAD PUSH2 0x493 SWAP1 PUSH2 0xA12 JUMP JUMPDEST DUP1 ISZERO PUSH2 0x4DE JUMPI DUP1 PUSH1 0x1F LT PUSH2 0x4B5 JUMPI PUSH2 0x100 DUP1 DUP4 SLOAD DIV MUL DUP4 MSTORE SWAP2 PUSH1 0x20 ADD SWAP2 PUSH2 0x4DE JUMP JUMPDEST DUP3 ADD SWAP2 SWAP1 PUSH0 MSTORE PUSH1 0x20 PUSH0 KECCAK256 SWAP1 JUMPDEST DUP2 SLOAD DUP2 MSTORE SWAP1 PUSH1 0x1 ADD SWAP1 PUSH1 0x20 ADD DUP1 DUP4 GT PUSH2 0x4C1 JUMPI DUP3 SWAP1 SUB PUSH1 0x1F AND DUP3 ADD SWAP2 JUMPDEST POP POP POP POP POP SWAP1 DUP1 PUSH1 0x3 ADD DUP1 SLOAD PUSH2 0x4F3 SWAP1 PUSH2 0xA12 JUMP JUMPDEST DUP1 PUSH1 0x1F ADD PUSH1 0x20 DUP1 SWAP2 DIV MUL PUSH1 0x20 ADD PUSH1 0x40 MLOAD SWAP1 DUP2 ADD PUSH1 0x40 MSTORE DUP1 SWAP3 SWAP2 SWAP1 DUP2 DUP2 MSTORE PUSH1 0x20 ADD DUP3 DUP1 SLOAD PUSH2 0x51F SWAP1 PUSH2 0xA12 JUMP JUMPDEST DUP1 ISZERO PUSH2 0x56A JUMPI DUP1 PUSH1 0x1F LT PUSH2 0x541 JUMPI PUSH2 0x100 DUP1 DUP4 SLOAD DIV MUL DUP4 MSTORE SWAP2 PUSH1 0x20 ADD SWAP2 PUSH2 0x56A JUMP JUMPDEST DUP3 ADD SWAP2 SWAP1 PUSH0 MSTORE PUSH1 0x20 PUSH0 KECCAK256 SWAP1 JUMPDEST DUP2 SLOAD DUP2 MSTORE SWAP1 PUSH1 0x1 ADD SWAP1 PUSH1 0x20 ADD DUP1 DUP4 GT PUSH2 0x54D JUMPI DUP3 SWAP1 SUB PUSH1 0x1F AND DUP3 ADD SWAP2 JUMPDEST POP POP POP POP POP SWAP1 DUP1 PUSH1 0x4 ADD DUP1 SLOAD PUSH2 0x57F SWAP1 PUSH2 0xA12 JUMP JUMPDEST DUP1 PUSH1 0x1F ADD PUSH1 0x20 DUP1 SWAP2 DIV MUL PUSH1 0x20 ADD PUSH1 0x40 MLOAD SWAP1 DUP2 ADD PUSH1 0x40 MSTORE DUP1 SWAP3 SWAP2 SWAP1 DUP2 DUP2 MSTORE PUSH1 0x20 ADD DUP3 DUP1 SLOAD PUSH2 0x5AB SWAP1 PUSH2 0xA12 JUMP JUMPDEST DUP1 ISZERO PUSH2 0x5F6 JUMPI DUP1 PUSH1 0x1F LT PUSH2 0x5CD JUMPI PUSH2 0x100 DUP1 DUP4 SLOAD DIV MUL DUP4 MSTORE SWAP2 PUSH1 0x20 ADD SWAP2 PUSH2 0x5F6 JUMP JUMPDEST DUP3 ADD SWAP2 SWAP1 PUSH0 MSTORE PUSH1 0x20 PUSH0 KECCAK256 SWAP1 JUMPDEST DUP2 SLOAD DUP2 MSTORE SWAP1 PUSH1 0x1 ADD SWAP1 PUSH1 0x20 ADD DUP1 DUP4 GT PUSH2 0x5D9 JUMPI DUP3 SWAP1 SUB PUSH1 0x1F AND DUP3 ADD SWAP2 JUMPDEST POP POP POP POP POP SWAP1 POP DUP7 JUMP JUMPDEST PUSH0 PUSH1 0x40 MLOAD SWAP1 POP SWAP1 JUMP JUMPDEST PUSH0 DUP1 REVERT JUMPDEST PUSH0 DUP1 REVERT JUMPDEST PUSH0 DUP2 SWAP1 POP SWAP2 SWAP1 POP JUMP JUMPDEST PUSH2 0x623 DUP2 PUSH2 0x611 JUMP JUMPDEST DUP2 EQ PUSH2 0x62D JUMPI PUSH0 DUP1 REVERT JUMPDEST POP JUMP JUMPDEST PUSH0 DUP2 CALLDATALOAD SWAP1 POP PUSH2 0x63E DUP2 PUSH2 0x61A JUMP JUMPDEST SWAP3 SWAP2 POP POP JUMP JUMPDEST PUSH0 DUP1 REVERT JUMPDEST PUSH0 DUP1 REVERT JUMPDEST PUSH0 PUSH1 0x1F NOT PUSH1 0x1F DUP4 ADD AND SWAP1 POP SWAP2 SWAP1 POP JUMP JUMPDEST PUSH32 0x4E487B7100000000000000000000000000000000000000000000000000000000 PUSH0 MSTORE PUSH1 0x41 PUSH1 0x4 MSTORE PUSH1 0x24 PUSH0 REVERT JUMPDEST PUSH2 0x692 DUP3 PUSH2 0x64C JUMP JUMPDEST DUP2 ADD DUP2 DUP2 LT PUSH8 0xFFFFFFFFFFFFFFFF DUP3 GT OR ISZERO PUSH2 0x6B1 JUMPI PUSH2 0x6B0 PUSH2 0x65C JUMP JUMPDEST JUMPDEST DUP1 PUSH1 0x40 MSTORE POP POP POP JUMP JUMPDEST PUSH0 PUSH2 0x6C3 PUSH2 0x600 JUMP JUMPDEST SWAP1 POP PUSH2 0x6CF DUP3 DUP3 PUSH2 0x689 JUMP JUMPDEST SWAP2 SWAP1 POP JUMP JUMPDEST PUSH0 PUSH8 0xFFFFFFFFFFFFFFFF DUP3 GT ISZERO PUSH2 0x6EE JUMPI PUSH2 0x6ED PUSH2 0x65C JUMP JUMPDEST JUMPDEST PUSH2 0x6F7 DUP3 PUSH2 0x64C JUMP JUMPDEST SWAP1 POP PUSH1 0x20 DUP2 ADD SWAP1 POP SWAP2 SWAP1 POP JUMP JUMPDEST DUP3 DUP2 DUP4 CALLDATACOPY PUSH0 DUP4 DUP4 ADD MSTORE POP POP POP JUMP JUMPDEST PUSH0 PUSH2 0x724 PUSH2 0x71F DUP5 PUSH2 0x6D4 JUMP JUMPDEST PUSH2 0x6BA JUMP JUMPDEST SWAP1 POP DUP3 DUP2 MSTORE PUSH1 0x20 DUP2 ADD DUP5 DUP5 DUP5 ADD GT ISZERO PUSH2 0x740 JUMPI PUSH2 0x73F PUSH2 0x648 JUMP JUMPDEST JUMPDEST PUSH2 0x74B DUP5 DUP3 DUP6 PUSH2 0x704 JUMP JUMPDEST POP SWAP4 SWAP3 POP POP POP JUMP JUMPDEST PUSH0 DUP3 PUSH1 0x1F DUP4 ADD SLT PUSH2 0x767 JUMPI PUSH2 0x766 PUSH2 0x644 JUMP JUMPDEST JUMPDEST DUP2 CALLDATALOAD PUSH2 0x777 DUP5 DUP3 PUSH1 0x20 DUP7 ADD PUSH2 0x712 JUMP JUMPDEST SWAP2 POP POP SWAP3 SWAP2 POP POP JUMP JUMPDEST PUSH0 DUP1 PUSH0 DUP1 PUSH0 PUSH1 0xA0 DUP7 DUP9 SUB SLT ISZERO PUSH2 0x799 JUMPI PUSH2 0x798 PUSH2 0x609 JUMP JUMPDEST JUMPDEST PUSH0 PUSH2 0x7A6 DUP9 DUP3 DUP10 ADD PUSH2 0x630 JUMP JUMPDEST SWAP6 POP POP PUSH1 0x20 PUSH2 0x7B7 DUP9 DUP3 DUP10 ADD PUSH2 0x630 JUMP JUMPDEST SWAP5 POP POP PUSH1 0x40 DUP7 ADD CALLDATALOAD PUSH8 0xFFFFFFFFFFFFFFFF DUP2 GT ISZERO PUSH2 0x7D8 JUMPI PUSH2 0x7D7 PUSH2 0x60D JUMP JUMPDEST JUMPDEST PUSH2 0x7E4 DUP9 DUP3 DUP10 ADD PUSH2 0x753 JUMP JUMPDEST SWAP4 POP POP PUSH1 0x60 DUP7 ADD CALLDATALOAD PUSH8 0xFFFFFFFFFFFFFFFF DUP2 GT ISZERO PUSH2 0x805 JUMPI PUSH2 0x804 PUSH2 0x60D JUMP JUMPDEST JUMPDEST PUSH2 0x811 DUP9 DUP3 DUP10 ADD PUSH2 0x753 JUMP JUMPDEST SWAP3 POP POP PUSH1 0x80 DUP7 ADD CALLDATALOAD PUSH8 0xFFFFFFFFFFFFFFFF DUP2 GT ISZERO PUSH2 0x832 JUMPI PUSH2 0x831 PUSH2 0x60D JUMP JUMPDEST JUMPDEST PUSH2 0x83E DUP9 DUP3 DUP10 ADD PUSH2 0x753 JUMP JUMPDEST SWAP2 POP POP SWAP3 SWAP6 POP SWAP3 SWAP6 SWAP1 SWAP4 POP JUMP JUMPDEST PUSH0 PUSH1 0x20 DUP3 DUP5 SUB SLT ISZERO PUSH2 0x860 JUMPI PUSH2 0x85F PUSH2 0x609 JUMP JUMPDEST JUMPDEST PUSH0 PUSH2 0x86D DUP5 DUP3 DUP6 ADD PUSH2 0x630 JUMP JUMPDEST SWAP2 POP POP SWAP3 SWAP2 POP POP JUMP JUMPDEST PUSH2 0x87F DUP2 PUSH2 0x611 JUMP JUMPDEST DUP3 MSTORE POP POP JUMP JUMPDEST PUSH0 PUSH1 0x20 DUP3 ADD SWAP1 POP PUSH2 0x898 PUSH0 DUP4 ADD DUP5 PUSH2 0x876 JUMP JUMPDEST SWAP3 SWAP2 POP POP JUMP JUMPDEST PUSH0 PUSH20 0xFFFFFFFFFFFFFFFFFFFFFFFFFFFFFFFFFFFFFFFF DUP3 AND SWAP1 POP SWAP2 SWAP1 POP JUMP JUMPDEST PUSH0 PUSH2 0x8C7 DUP3 PUSH2 0x89E JUMP JUMPDEST SWAP1 POP SWAP2 SWAP1 POP JUMP JUMPDEST PUSH2 0x8D7 DUP2 PUSH2 0x8BD JUMP JUMPDEST DUP3 MSTORE POP POP JUMP JUMPDEST PUSH0 DUP2 ISZERO ISZERO SWAP1 POP SWAP2 SWAP1 POP JUMP JUMPDEST PUSH2 0x8F1 DUP2 PUSH2 0x8DD JUMP JUMPDEST DUP3 MSTORE POP POP JUMP JUMPDEST PUSH0 DUP2 MLOAD SWAP1 POP SWAP2 SWAP1 POP JUMP JUMPDEST PUSH0 DUP3 DUP3 MSTORE PUSH1 0x20 DUP3 ADD SWAP1 POP SWAP3 SWAP2 POP POP JUMP JUMPDEST PUSH0 JUMPDEST DUP4 DUP2 LT ISZERO PUSH2 0x92E JUMPI DUP1 DUP3 ADD MLOAD DUP2 DUP5 ADD MSTORE PUSH1 0x20 DUP2 ADD SWAP1 POP PUSH2 0x913 JUMP JUMPDEST PUSH0 DUP5 DUP5 ADD MSTORE POP POP POP POP JUMP JUMPDEST PUSH0 PUSH2 0x943 DUP3 PUSH2 0x8F7 JUMP JUMPDEST PUSH2 0x94D DUP2 DUP6 PUSH2 0x901 JUMP JUMPDEST SWAP4 POP PUSH2 0x95D DUP2 DUP6 PUSH1 0x20 DUP7 ADD PUSH2 0x911 JUMP JUMPDEST PUSH2 0x966 DUP2 PUSH2 0x64C JUMP JUMPDEST DUP5 ADD SWAP2 POP POP SWAP3 SWAP2 POP POP JUMP JUMPDEST PUSH0 PUSH1 0xC0 DUP3 ADD SWAP1 POP PUSH2 0x984 PUSH0 DUP4 ADD DUP10 PUSH2 0x876 JUMP JUMPDEST PUSH2 0x991 PUSH1 0x20 DUP4 ADD DUP9 PUSH2 0x8CE JUMP JUMPDEST PUSH2 0x99E PUSH1 0x40 DUP4 ADD DUP8 PUSH2 0x8E8 JUMP JUMPDEST DUP2 DUP2 SUB PUSH1 0x60 DUP4 ADD MSTORE PUSH2 0x9B0 DUP2 DUP7 PUSH2 0x939 JUMP JUMPDEST SWAP1 POP DUP2 DUP2 SUB PUSH1 0x80 DUP4 ADD MSTORE PUSH2 0x9C4 DUP2 DUP6 PUSH2 0x939 JUMP JUMPDEST SWAP1 POP DUP2 DUP2 SUB PUSH1 0xA0 DUP4 ADD MSTORE PUSH2 0x9D8 DUP2 DUP5 PUSH2 0x939 JUMP JUMPDEST SWAP1 POP SWAP8 SWAP7 POP POP POP POP POP POP POP JUMP JUMPDEST PUSH32 0x4E487B7100000000000000000000000000000000000000000000000000000000 PUSH0 MSTORE PUSH1 0x22 PUSH1 0x4 MSTORE PUSH1 0x24 PUSH0 REVERT JUMPDEST PUSH0 PUSH1 0x2 DUP3 DIV SWAP1 POP PUSH1 0x1 DUP3 AND DUP1 PUSH2 0xA29 JUMPI PUSH1 0x7F DUP3 AND SWAP2 POP JUMPDEST PUSH1 0x20 DUP3 LT DUP2 SUB PUSH2 0xA3C JUMPI PUSH2 0xA3B PUSH2 0x9E5 JUMP JUMPDEST JUMPDEST POP SWAP2 SWAP1 POP JUMP JUMPDEST PUSH0 DUP2 SWAP1 POP DUP2 PUSH0 MSTORE PUSH1 0x20 PUSH0 KECCAK256 SWAP1 POP SWAP2 SWAP1 POP JUMP JUMPDEST PUSH0 PUSH1 0x20 PUSH1 0x1F DUP4 ADD DIV SWAP1 POP SWAP2 SWAP1 POP JUMP JUMPDEST PUSH0 DUP3 DUP3 SHL SWAP1 POP SWAP3 SWAP2 POP POP JUMP JUMPDEST PUSH0 PUSH1 0x8 DUP4 MUL PUSH2 0xA9E PUSH32 0xFFFFFFFFFFFFFFFFFFFFFFFFFFFFFFFFFFFFFFFFFFFFFFFFFFFFFFFFFFFFFFFF DUP3 PUSH2 0xA63 JUMP JUMPDEST PUSH2 0xAA8 DUP7 DUP4 PUSH2 0xA63 JUMP JUMPDEST SWAP6 POP DUP1 NOT DUP5 AND SWAP4 POP DUP1 DUP7 AND DUP5 OR SWAP3 POP POP POP SWAP4 SWAP3 POP POP POP JUMP JUMPDEST PUSH0 DUP2 SWAP1 POP SWAP2 SWAP1 POP JUMP JUMPDEST PUSH0 PUSH2 0xAE3 PUSH2 0xADE PUSH2 0xAD9 DUP5 PUSH2 0x611 JUMP JUMPDEST PUSH2 0xAC0 JUMP JUMPDEST PUSH2 0x611 JUMP JUMPDEST SWAP1 POP SWAP2 SWAP1 POP JUMP JUMPDEST PUSH0 DUP2 SWAP1 POP SWAP2 SWAP1 POP JUMP JUMPDEST PUSH2 0xAFC DUP4 PUSH2 0xAC9 JUMP JUMPDEST PUSH2 0xB10 PUSH2 0xB08 DUP3 PUSH2 0xAEA JUMP JUMPDEST DUP5 DUP5 SLOAD PUSH2 0xA6F JUMP JUMPDEST DUP3 SSTORE POP POP POP POP JUMP JUMPDEST PUSH0 SWAP1 JUMP JUMPDEST PUSH2 0xB24 PUSH2 0xB18 JUMP JUMPDEST PUSH2 0xB2F DUP2 DUP5 DUP5 PUSH2 0xAF3 JUMP JUMPDEST POP POP POP JUMP JUMPDEST JUMPDEST DUP2 DUP2 LT ISZERO PUSH2 0xB52 JUMPI PUSH2 0xB47 PUSH0 DUP3 PUSH2 0xB1C JUMP JUMPDEST PUSH1 0x1 DUP2 ADD SWAP1 POP PUSH2 0xB35 JUMP JUMPDEST POP POP JUMP JUMPDEST PUSH1 0x1F DUP3 GT ISZERO PUSH2 0xB97 JUMPI PUSH2 0xB68 DUP2 PUSH2 0xA42 JUMP JUMPDEST PUSH2 0xB71 DUP5 PUSH2 0xA54 JUMP JUMPDEST DUP2 ADD PUSH1 0x20 DUP6 LT ISZERO PUSH2 0xB80 JUMPI DUP2 SWAP1 POP JUMPDEST PUSH2 0xB94 PUSH2 0xB8C DUP6 PUSH2 0xA54 JUMP JUMPDEST DUP4 ADD DUP3 PUSH2 0xB34 JUMP JUMPDEST POP POP JUMPDEST POP POP POP JUMP JUMPDEST PUSH0 DUP3 DUP3 SHR SWAP1 POP SWAP3 SWAP2 POP POP JUMP JUMPDEST PUSH0 PUSH2 0xBB7 PUSH0 NOT DUP5 PUSH1 0x8 MUL PUSH2 0xB9C JUMP JUMPDEST NOT DUP1 DUP4 AND SWAP2 POP POP SWAP3 SWAP2 POP POP JUMP JUMPDEST PUSH0 PUSH2 0xBCF DUP4 DUP4 PUSH2 0xBA8 JUMP JUMPDEST SWAP2 POP DUP3 PUSH1 0x2 MUL DUP3 OR SWAP1 POP SWAP3 SWAP2 POP POP JUMP JUMPDEST PUSH2 0xBE8 DUP3 PUSH2 0x8F7 JUMP JUMPDEST PUSH8 0xFFFFFFFFFFFFFFFF DUP2 GT ISZERO PUSH2 0xC01 JUMPI PUSH2 0xC00 PUSH2 0x65C JUMP JUMPDEST JUMPDEST PUSH2 0xC0B DUP3 SLOAD PUSH2 0xA12 JUMP JUMPDEST PUSH2 0xC16 DUP3 DUP3 DUP6 PUSH2 0xB56 JUMP JUMPDEST PUSH0 PUSH1 0x20 SWAP1 POP PUSH1 0x1F DUP4 GT PUSH1 0x1 DUP2 EQ PUSH2 0xC47 JUMPI PUSH0 DUP5 ISZERO PUSH2 0xC35 JUMPI DUP3 DUP8 ADD MLOAD SWAP1 POP JUMPDEST PUSH2 0xC3F DUP6 DUP3 PUSH2 0xBC4 JUMP JUMPDEST DUP7 SSTORE POP PUSH2 0xCA6 JUMP JUMPDEST PUSH1 0x1F NOT DUP5 AND PUSH2 0xC55 DUP7 PUSH2 0xA42 JUMP JUMPDEST PUSH0 JUMPDEST DUP3 DUP2 LT ISZERO PUSH2 0xC7C JUMPI DUP5 DUP10 ADD MLOAD DUP3 SSTORE PUSH1 0x1 DUP3 ADD SWAP2 POP PUSH1 0x20 DUP6 ADD SWAP5 POP PUSH1 0x20 DUP2 ADD SWAP1 POP PUSH2 0xC57 JUMP JUMPDEST DUP7 DUP4 LT ISZERO PUSH2 0xC99 JUMPI DUP5 DUP10 ADD MLOAD PUSH2 0xC95 PUSH1 0x1F DUP10 AND DUP3 PUSH2 0xBA8 JUMP JUMPDEST DUP4 SSTORE POP JUMPDEST PUSH1 0x1 PUSH1 0x2 DUP9 MUL ADD DUP9 SSTORE POP POP POP JUMPDEST POP POP POP POP POP POP JUMP JUMPDEST PUSH32 0x50726F7065727479206973206E6F7420666F722073616C652E00000000000000 PUSH0 DUP3 ADD MSTORE POP JUMP JUMPDEST PUSH0 PUSH2 0xCE2 PUSH1 0x19 DUP4 PUSH2 0x901 JUMP JUMPDEST SWAP2 POP PUSH2 0xCED DUP3 PUSH2 0xCAE JUMP JUMPDEST PUSH1 0x20 DUP3 ADD SWAP1 POP SWAP2 SWAP1 POP JUMP JUMPDEST PUSH0 PUSH1 0x20 DUP3 ADD SWAP1 POP DUP2 DUP2 SUB PUSH0 DUP4 ADD MSTORE PUSH2 0xD0F DUP2 PUSH2 0xCD6 JUMP JUMPDEST SWAP1 POP SWAP2 SWAP1 POP JUMP JUMPDEST PUSH32 0x496E73756666696369656E742066756E64730000000000000000000000000000 PUSH0 DUP3 ADD MSTORE POP JUMP JUMPDEST PUSH0 PUSH2 0xD4A PUSH1 0x12 DUP4 PUSH2 0x901 JUMP JUMPDEST SWAP2 POP PUSH2 0xD55 DUP3 PUSH2 0xD16 JUMP JUMPDEST PUSH1 0x20 DUP3 ADD SWAP1 POP SWAP2 SWAP1 POP JUMP JUMPDEST PUSH0 PUSH1 0x20 DUP3 ADD SWAP1 POP DUP2 DUP2 SUB PUSH0 DUP4 ADD MSTORE PUSH2 0xD77 DUP2 PUSH2 0xD3E JUMP JUMPDEST SWAP1 POP SWAP2 SWAP1 POP JUMP INVALID LOG2 PUSH5 0x6970667358 0x22 SLT KECCAK256 0xFB CALLDATACOPY DUP5 PUSH0 PUSH20 0xAEA2F8442A27BBBB1DE046D8E29F2B24B265026E BALANCE PC CALLDATACOPY 0xB6 PUSH25 0x846B64736F6C63430008160033000000000000000000000000 "
				},
				"gasEstimates": {
					"creation": {
						"codeDepositCost": "701600",
						"executionCost": "732",
						"totalCost": "702332"
					},
					"external": {
						"PropertyIds(uint256)": "infinite",
						"buyProperty(uint256)": "infinite",
						"listPropertyForSale(uint256,uint256,string,string,string)": "infinite",
						"properties(uint256)": "infinite"
					}
				},
				"methodIdentifiers": {
					"PropertyIds(uint256)": "eae6cd4b",
					"buyProperty(uint256)": "6fa830a6",
					"listPropertyForSale(uint256,uint256,string,string,string)": "611cf614",
					"properties(uint256)": "f7b10808"
				}
			},
			"storageLayout": {
				"storage": [
					{
						"astId": 335,
						"contract": "Real Estate Industry/Real Estate Smart Contract.sol:RealEstate",
						"label": "properties",
						"offset": 0,
						"slot": "0",
						"type": "t_mapping(t_uint256,t_struct(Property)330_storage)"
					},
					{
						"astId": 338,
						"contract": "Real Estate Industry/Real Estate Smart Contract.sol:RealEstate",
						"label": "PropertyIds",
						"offset": 0,
						"slot": "1",
						"type": "t_array(t_uint256)dyn_storage"
					}
				],
				"types": {
					"t_address": {
						"encoding": "inplace",
						"label": "address",
						"numberOfBytes": "20"
					},
					"t_array(t_uint256)dyn_storage": {
						"base": "t_uint256",
						"encoding": "dynamic_array",
						"label": "uint256[]",
						"numberOfBytes": "32"
					},
					"t_bool": {
						"encoding": "inplace",
						"label": "bool",
						"numberOfBytes": "1"
					},
					"t_mapping(t_uint256,t_struct(Property)330_storage)": {
						"encoding": "mapping",
						"key": "t_uint256",
						"label": "mapping(uint256 => struct RealEstate.Property)",
						"numberOfBytes": "32",
						"value": "t_struct(Property)330_storage"
					},
					"t_string_storage": {
						"encoding": "bytes",
						"label": "string",
						"numberOfBytes": "32"
					},
					"t_struct(Property)330_storage": {
						"encoding": "inplace",
						"label": "struct RealEstate.Property",
						"members": [
							{
								"astId": 319,
								"contract": "Real Estate Industry/Real Estate Smart Contract.sol:RealEstate",
								"label": "price",
								"offset": 0,
								"slot": "0",
								"type": "t_uint256"
							},
							{
								"astId": 321,
								"contract": "Real Estate Industry/Real Estate Smart Contract.sol:RealEstate",
								"label": "owner",
								"offset": 0,
								"slot": "1",
								"type": "t_address"
							},
							{
								"astId": 323,
								"contract": "Real Estate Industry/Real Estate Smart Contract.sol:RealEstate",
								"label": "forSale",
								"offset": 20,
								"slot": "1",
								"type": "t_bool"
							},
							{
								"astId": 325,
								"contract": "Real Estate Industry/Real Estate Smart Contract.sol:RealEstate",
								"label": "name",
								"offset": 0,
								"slot": "2",
								"type": "t_string_storage"
							},
							{
								"astId": 327,
								"contract": "Real Estate Industry/Real Estate Smart Contract.sol:RealEstate",
								"label": "location",
								"offset": 0,
								"slot": "3",
								"type": "t_string_storage"
							},
							{
								"astId": 329,
								"contract": "Real Estate Industry/Real Estate Smart Contract.sol:RealEstate",
								"label": "description",
								"offset": 0,
								"slot": "4",
								"type": "t_string_storage"
							}
						],
						"numberOfBytes": "160"
					},
					"t_uint256": {
						"encoding": "inplace",
						"label": "uint256",
						"numberOfBytes": "32"
					}
				}
			},
			"userdoc": {
				"kind": "user",
				"methods": {},
				"version": 1
			}
		}
	}
}