{
	"crowd fund/crowd fund smart contract 2.sol": {
		"CrowdFund": {
			"abi": [
				{
					"inputs": [
						{
							"internalType": "address",
							"name": "_token",
							"type": "address"
						}
					],
					"stateMutability": "nonpayable",
					"type": "constructor"
				},
				{
					"anonymous": false,
					"inputs": [
						{
							"indexed": false,
							"internalType": "uint256",
							"name": "id",
							"type": "uint256"
						}
					],
					"name": "Cancel",
					"type": "event"
				},
				{
					"anonymous": false,
					"inputs": [
						{
							"indexed": false,
							"internalType": "uint256",
							"name": "id",
							"type": "uint256"
						}
					],
					"name": "Claim",
					"type": "event"
				},
				{
					"anonymous": false,
					"inputs": [
						{
							"indexed": false,
							"internalType": "uint256",
							"name": "id",
							"type": "uint256"
						},
						{
							"indexed": true,
							"internalType": "address",
							"name": "creator",
							"type": "address"
						},
						{
							"indexed": false,
							"internalType": "uint256",
							"name": "goal",
							"type": "uint256"
						},
						{
							"indexed": false,
							"internalType": "uint32",
							"name": "startAt",
							"type": "uint32"
						},
						{
							"indexed": false,
							"internalType": "uint32",
							"name": "endAt",
							"type": "uint32"
						}
					],
					"name": "Launch",
					"type": "event"
				},
				{
					"anonymous": false,
					"inputs": [
						{
							"indexed": true,
							"internalType": "uint256",
							"name": "id",
							"type": "uint256"
						},
						{
							"indexed": true,
							"internalType": "address",
							"name": "caller",
							"type": "address"
						},
						{
							"indexed": false,
							"internalType": "uint256",
							"name": "amount",
							"type": "uint256"
						}
					],
					"name": "Pledge",
					"type": "event"
				},
				{
					"anonymous": false,
					"inputs": [
						{
							"indexed": false,
							"internalType": "uint256",
							"name": "id",
							"type": "uint256"
						},
						{
							"indexed": true,
							"internalType": "address",
							"name": "caller",
							"type": "address"
						},
						{
							"indexed": false,
							"internalType": "uint256",
							"name": "amount",
							"type": "uint256"
						}
					],
					"name": "Refund",
					"type": "event"
				},
				{
					"anonymous": false,
					"inputs": [
						{
							"indexed": true,
							"internalType": "uint256",
							"name": "id",
							"type": "uint256"
						},
						{
							"indexed": true,
							"internalType": "address",
							"name": "caller",
							"type": "address"
						},
						{
							"indexed": false,
							"internalType": "uint256",
							"name": "amount",
							"type": "uint256"
						}
					],
					"name": "Unpledge",
					"type": "event"
				},
				{
					"inputs": [
						{
							"internalType": "uint256",
							"name": "",
							"type": "uint256"
						}
					],
					"name": "campaigns",
					"outputs": [
						{
							"internalType": "address",
							"name": "creator",
							"type": "address"
						},
						{
							"internalType": "uint256",
							"name": "goal",
							"type": "uint256"
						},
						{
							"internalType": "uint256",
							"name": "pledged",
							"type": "uint256"
						},
						{
							"internalType": "uint32",
							"name": "startAt",
							"type": "uint32"
						},
						{
							"internalType": "uint32",
							"name": "endAt",
							"type": "uint32"
						},
						{
							"internalType": "bool",
							"name": "claimed",
							"type": "bool"
						}
					],
					"stateMutability": "view",
					"type": "function"
				},
				{
					"inputs": [
						{
							"internalType": "uint256",
							"name": "_id",
							"type": "uint256"
						}
					],
					"name": "cancel",
					"outputs": [],
					"stateMutability": "nonpayable",
					"type": "function"
				},
				{
					"inputs": [
						{
							"internalType": "uint256",
							"name": "_id",
							"type": "uint256"
						}
					],
					"name": "claim",
					"outputs": [],
					"stateMutability": "nonpayable",
					"type": "function"
				},
				{
					"inputs": [],
					"name": "count",
					"outputs": [
						{
							"internalType": "uint256",
							"name": "",
							"type": "uint256"
						}
					],
					"stateMutability": "view",
					"type": "function"
				},
				{
					"inputs": [
						{
							"internalType": "uint256",
							"name": "_goal",
							"type": "uint256"
						},
						{
							"internalType": "uint32",
							"name": "_startAt",
							"type": "uint32"
						},
						{
							"internalType": "uint32",
							"name": "_endAt",
							"type": "uint32"
						}
					],
					"name": "launch",
					"outputs": [],
					"stateMutability": "nonpayable",
					"type": "function"
				},
				{
					"inputs": [
						{
							"internalType": "uint256",
							"name": "_id",
							"type": "uint256"
						},
						{
							"internalType": "uint256",
							"name": "_amount",
							"type": "uint256"
						}
					],
					"name": "pledge",
					"outputs": [],
					"stateMutability": "nonpayable",
					"type": "function"
				},
				{
					"inputs": [
						{
							"internalType": "uint256",
							"name": "",
							"type": "uint256"
						},
						{
							"internalType": "address",
							"name": "",
							"type": "address"
						}
					],
					"name": "pledgedAmount",
					"outputs": [
						{
							"internalType": "uint256",
							"name": "",
							"type": "uint256"
						}
					],
					"stateMutability": "view",
					"type": "function"
				},
				{
					"inputs": [
						{
							"internalType": "uint256",
							"name": "_id",
							"type": "uint256"
						}
					],
					"name": "refund",
					"outputs": [],
					"stateMutability": "nonpayable",
					"type": "function"
				},
				{
					"inputs": [],
					"name": "token",
					"outputs": [
						{
							"internalType": "contract IERC20",
							"name": "",
							"type": "address"
						}
					],
					"stateMutability": "view",
					"type": "function"
				},
				{
					"inputs": [
						{
							"internalType": "uint256",
							"name": "_id",
							"type": "uint256"
						},
						{
							"internalType": "uint256",
							"name": "_amount",
							"type": "uint256"
						}
					],
					"name": "unpledge",
					"outputs": [],
					"stateMutability": "nonpayable",
					"type": "function"
				}
			],
			"devdoc": {
				"kind": "dev",
				"methods": {},
				"version": 1
			},
			"evm": {
				"assembly": "    /* \"crowd fund/crowd fund smart contract 2.sol\":487:5233  contract CrowdFund {... */\n  mstore(0x40, 0xa0)\n    /* \"crowd fund/crowd fund smart contract 2.sol\":1892:1959  constructor(address _token) {... */\n  callvalue\n  dup1\n  iszero\n  tag_1\n  jumpi\n  0x00\n  dup1\n  revert\ntag_1:\n  pop\n  mload(0x40)\n  sub(codesize, bytecodeSize)\n  dup1\n  bytecodeSize\n  dup4\n  codecopy\n  dup2\n  dup2\n  add\n  0x40\n  mstore\n  dup2\n  add\n  swap1\n  tag_2\n  swap2\n  swap1\n  tag_3\n  jump\t// in\ntag_2:\n    /* \"crowd fund/crowd fund smart contract 2.sol\":1945:1951  _token */\n  dup1\n    /* \"crowd fund/crowd fund smart contract 2.sol\":1930:1952  token = IERC20(_token) */\n  0xffffffffffffffffffffffffffffffffffffffff\n  and\n  0x80\n  dup2\n  0xffffffffffffffffffffffffffffffffffffffff\n  and\n  dup2\n  mstore\n  pop\n  pop\n    /* \"crowd fund/crowd fund smart contract 2.sol\":1892:1959  constructor(address _token) {... */\n  pop\n    /* \"crowd fund/crowd fund smart contract 2.sol\":487:5233  contract CrowdFund {... */\n  jump(tag_6)\n    /* \"#utility.yul\":88:205   */\ntag_8:\n    /* \"#utility.yul\":197:198   */\n  0x00\n    /* \"#utility.yul\":194:195   */\n  dup1\n    /* \"#utility.yul\":187:199   */\n  revert\n    /* \"#utility.yul\":334:460   */\ntag_10:\n    /* \"#utility.yul\":371:378   */\n  0x00\n    /* \"#utility.yul\":411:453   */\n  0xffffffffffffffffffffffffffffffffffffffff\n    /* \"#utility.yul\":404:409   */\n  dup3\n    /* \"#utility.yul\":400:454   */\n  and\n    /* \"#utility.yul\":389:454   */\n  swap1\n  pop\n    /* \"#utility.yul\":334:460   */\n  swap2\n  swap1\n  pop\n  jump\t// out\n    /* \"#utility.yul\":466:562   */\ntag_11:\n    /* \"#utility.yul\":503:510   */\n  0x00\n    /* \"#utility.yul\":532:556   */\n  tag_20\n    /* \"#utility.yul\":550:555   */\n  dup3\n    /* \"#utility.yul\":532:556   */\n  tag_10\n  jump\t// in\ntag_20:\n    /* \"#utility.yul\":521:556   */\n  swap1\n  pop\n    /* \"#utility.yul\":466:562   */\n  swap2\n  swap1\n  pop\n  jump\t// out\n    /* \"#utility.yul\":568:690   */\ntag_12:\n    /* \"#utility.yul\":641:665   */\n  tag_22\n    /* \"#utility.yul\":659:664   */\n  dup2\n    /* \"#utility.yul\":641:665   */\n  tag_11\n  jump\t// in\ntag_22:\n    /* \"#utility.yul\":634:639   */\n  dup2\n    /* \"#utility.yul\":631:666   */\n  eq\n    /* \"#utility.yul\":621:684   */\n  tag_23\n  jumpi\n    /* \"#utility.yul\":680:681   */\n  0x00\n    /* \"#utility.yul\":677:678   */\n  dup1\n    /* \"#utility.yul\":670:682   */\n  revert\n    /* \"#utility.yul\":621:684   */\ntag_23:\n    /* \"#utility.yul\":568:690   */\n  pop\n  jump\t// out\n    /* \"#utility.yul\":696:839   */\ntag_13:\n    /* \"#utility.yul\":753:758   */\n  0x00\n    /* \"#utility.yul\":784:790   */\n  dup2\n    /* \"#utility.yul\":778:791   */\n  mload\n    /* \"#utility.yul\":769:791   */\n  swap1\n  pop\n    /* \"#utility.yul\":800:833   */\n  tag_25\n    /* \"#utility.yul\":827:832   */\n  dup2\n    /* \"#utility.yul\":800:833   */\n  tag_12\n  jump\t// in\ntag_25:\n    /* \"#utility.yul\":696:839   */\n  swap3\n  swap2\n  pop\n  pop\n  jump\t// out\n    /* \"#utility.yul\":845:1196   */\ntag_3:\n    /* \"#utility.yul\":915:921   */\n  0x00\n    /* \"#utility.yul\":964:966   */\n  0x20\n    /* \"#utility.yul\":952:961   */\n  dup3\n    /* \"#utility.yul\":943:950   */\n  dup5\n    /* \"#utility.yul\":939:962   */\n  sub\n    /* \"#utility.yul\":935:967   */\n  slt\n    /* \"#utility.yul\":932:1051   */\n  iszero\n  tag_27\n  jumpi\n    /* \"#utility.yul\":970:1049   */\n  tag_28\n  tag_8\n  jump\t// in\ntag_28:\n    /* \"#utility.yul\":932:1051   */\ntag_27:\n    /* \"#utility.yul\":1090:1091   */\n  0x00\n    /* \"#utility.yul\":1115:1179   */\n  tag_29\n    /* \"#utility.yul\":1171:1178   */\n  dup5\n    /* \"#utility.yul\":1162:1168   */\n  dup3\n    /* \"#utility.yul\":1151:1160   */\n  dup6\n    /* \"#utility.yul\":1147:1169   */\n  add\n    /* \"#utility.yul\":1115:1179   */\n  tag_13\n  jump\t// in\ntag_29:\n    /* \"#utility.yul\":1105:1179   */\n  swap2\n  pop\n    /* \"#utility.yul\":1061:1189   */\n  pop\n    /* \"#utility.yul\":845:1196   */\n  swap3\n  swap2\n  pop\n  pop\n  jump\t// out\n    /* \"crowd fund/crowd fund smart contract 2.sol\":487:5233  contract CrowdFund {... */\ntag_6:\n  mload(0x80)\n  codecopy(0x00, dataOffset(sub_0), dataSize(sub_0))\n  0x00\n  assignImmutable(\"0x5392f7a671cdf89487ccf8e3646ea8f7570009490584962db6fa064c6e4ad499\")\n  return(0x00, dataSize(sub_0))\nstop\n\nsub_0: assembly {\n        /* \"crowd fund/crowd fund smart contract 2.sol\":487:5233  contract CrowdFund {... */\n      mstore(0x40, 0x80)\n      callvalue\n      dup1\n      iszero\n      tag_1\n      jumpi\n      0x00\n      dup1\n      revert\n    tag_1:\n      pop\n      jumpi(tag_2, lt(calldatasize, 0x04))\n      shr(0xe0, calldataload(0x00))\n      dup1\n      0x40e58ee5\n      gt\n      tag_13\n      jumpi\n      dup1\n      0x40e58ee5\n      eq\n      tag_8\n      jumpi\n      dup1\n      0x711853ab\n      eq\n      tag_9\n      jumpi\n      dup1\n      0xaa4fb63a\n      eq\n      tag_10\n      jumpi\n      dup1\n      0xfc0c546a\n      eq\n      tag_11\n      jumpi\n      dup1\n      0xfde327be\n      eq\n      tag_12\n      jumpi\n      jump(tag_2)\n    tag_13:\n      dup1\n      0x06661abd\n      eq\n      tag_3\n      jumpi\n      dup1\n      0x141961bc\n      eq\n      tag_4\n      jumpi\n      dup1\n      0x278ecde1\n      eq\n      tag_5\n      jumpi\n      dup1\n      0x2c63f146\n      eq\n      tag_6\n      jumpi\n      dup1\n      0x379607f5\n      eq\n      tag_7\n      jumpi\n    tag_2:\n      0x00\n      dup1\n      revert\n        /* \"crowd fund/crowd fund smart contract 2.sol\":1578:1595  uint public count */\n    tag_3:\n      tag_14\n      tag_15\n      jump\t// in\n    tag_14:\n      mload(0x40)\n      tag_16\n      swap2\n      swap1\n      tag_17\n      jump\t// in\n    tag_16:\n      mload(0x40)\n      dup1\n      swap2\n      sub\n      swap1\n      return\n        /* \"crowd fund/crowd fund smart contract 2.sol\":1651:1693  mapping(uint => Campaign) public campaigns */\n    tag_4:\n      tag_18\n      0x04\n      dup1\n      calldatasize\n      sub\n      dup2\n      add\n      swap1\n      tag_19\n      swap2\n      swap1\n      tag_20\n      jump\t// in\n    tag_19:\n      tag_21\n      jump\t// in\n    tag_18:\n      mload(0x40)\n      tag_22\n      swap7\n      swap6\n      swap5\n      swap4\n      swap3\n      swap2\n      swap1\n      tag_23\n      jump\t// in\n    tag_22:\n      mload(0x40)\n      dup1\n      swap2\n      sub\n      swap1\n      return\n        /* \"crowd fund/crowd fund smart contract 2.sol\":4762:5231  function refund(uint _id) external {... */\n    tag_5:\n      tag_24\n      0x04\n      dup1\n      calldatasize\n      sub\n      dup2\n      add\n      swap1\n      tag_25\n      swap2\n      swap1\n      tag_20\n      jump\t// in\n    tag_25:\n      tag_26\n      jump\t// in\n    tag_24:\n      stop\n        /* \"crowd fund/crowd fund smart contract 2.sol\":2008:2688  function launch(uint _goal, uint32 _startAt, uint32 _endAt) external {... */\n    tag_6:\n      tag_27\n      0x04\n      dup1\n      calldatasize\n      sub\n      dup2\n      add\n      swap1\n      tag_28\n      swap2\n      swap1\n      tag_29\n      jump\t// in\n    tag_28:\n      tag_30\n      jump\t// in\n    tag_27:\n      stop\n        /* \"crowd fund/crowd fund smart contract 2.sol\":4168:4677  function claim(uint _id) external {... */\n    tag_7:\n      tag_31\n      0x04\n      dup1\n      calldatasize\n      sub\n      dup2\n      add\n      swap1\n      tag_32\n      swap2\n      swap1\n      tag_20\n      jump\t// in\n    tag_32:\n      tag_33\n      jump\t// in\n    tag_31:\n      stop\n        /* \"crowd fund/crowd fund smart contract 2.sol\":2758:3069  function cancel(uint _id) external {... */\n    tag_8:\n      tag_34\n      0x04\n      dup1\n      calldatasize\n      sub\n      dup2\n      add\n      swap1\n      tag_35\n      swap2\n      swap1\n      tag_20\n      jump\t// in\n    tag_35:\n      tag_36\n      jump\t// in\n    tag_34:\n      stop\n        /* \"crowd fund/crowd fund smart contract 2.sol\":3675:4084  function unpledge(uint _id, uint _amount) external {... */\n    tag_9:\n      tag_37\n      0x04\n      dup1\n      calldatasize\n      sub\n      dup2\n      add\n      swap1\n      tag_38\n      swap2\n      swap1\n      tag_39\n      jump\t// in\n    tag_38:\n      tag_40\n      jump\t// in\n    tag_37:\n      stop\n        /* \"crowd fund/crowd fund smart contract 2.sol\":1771:1833  mapping(uint => mapping(address => uint)) public pledgedAmount */\n    tag_10:\n      tag_41\n      0x04\n      dup1\n      calldatasize\n      sub\n      dup2\n      add\n      swap1\n      tag_42\n      swap2\n      swap1\n      tag_43\n      jump\t// in\n    tag_42:\n      tag_44\n      jump\t// in\n    tag_41:\n      mload(0x40)\n      tag_45\n      swap2\n      swap1\n      tag_17\n      jump\t// in\n    tag_45:\n      mload(0x40)\n      dup1\n      swap2\n      sub\n      swap1\n      return\n        /* \"crowd fund/crowd fund smart contract 2.sol\":1485:1514  IERC20 public immutable token */\n    tag_11:\n      tag_46\n      tag_47\n      jump\t// in\n    tag_46:\n      mload(0x40)\n      tag_48\n      swap2\n      swap1\n      tag_49\n      jump\t// in\n    tag_48:\n      mload(0x40)\n      dup1\n      swap2\n      sub\n      swap1\n      return\n        /* \"crowd fund/crowd fund smart contract 2.sol\":3121:3618  function pledge(uint _id, uint _amount) external {... */\n    tag_12:\n      tag_50\n      0x04\n      dup1\n      calldatasize\n      sub\n      dup2\n      add\n      swap1\n      tag_51\n      swap2\n      swap1\n      tag_39\n      jump\t// in\n    tag_51:\n      tag_52\n      jump\t// in\n    tag_50:\n      stop\n        /* \"crowd fund/crowd fund smart contract 2.sol\":1578:1595  uint public count */\n    tag_15:\n      sload(0x00)\n      dup2\n      jump\t// out\n        /* \"crowd fund/crowd fund smart contract 2.sol\":1651:1693  mapping(uint => Campaign) public campaigns */\n    tag_21:\n      mstore(0x20, 0x01)\n      dup1\n      0x00\n      mstore\n      keccak256(0x00, 0x40)\n      0x00\n      swap2\n      pop\n      swap1\n      pop\n      dup1\n      0x00\n      add\n      0x00\n      swap1\n      sload\n      swap1\n      0x0100\n      exp\n      swap1\n      div\n      0xffffffffffffffffffffffffffffffffffffffff\n      and\n      swap1\n      dup1\n      0x01\n      add\n      sload\n      swap1\n      dup1\n      0x02\n      add\n      sload\n      swap1\n      dup1\n      0x03\n      add\n      0x00\n      swap1\n      sload\n      swap1\n      0x0100\n      exp\n      swap1\n      div\n      0xffffffff\n      and\n      swap1\n      dup1\n      0x03\n      add\n      0x04\n      swap1\n      sload\n      swap1\n      0x0100\n      exp\n      swap1\n      div\n      0xffffffff\n      and\n      swap1\n      dup1\n      0x03\n      add\n      0x08\n      swap1\n      sload\n      swap1\n      0x0100\n      exp\n      swap1\n      div\n      0xff\n      and\n      swap1\n      pop\n      dup7\n      jump\t// out\n        /* \"crowd fund/crowd fund smart contract 2.sol\":4762:5231  function refund(uint _id) external {... */\n    tag_26:\n        /* \"crowd fund/crowd fund smart contract 2.sol\":4807:4831  Campaign memory campaign */\n      0x00\n        /* \"crowd fund/crowd fund smart contract 2.sol\":4834:4843  campaigns */\n      0x01\n        /* \"crowd fund/crowd fund smart contract 2.sol\":4834:4848  campaigns[_id] */\n      0x00\n        /* \"crowd fund/crowd fund smart contract 2.sol\":4844:4847  _id */\n      dup4\n        /* \"crowd fund/crowd fund smart contract 2.sol\":4834:4848  campaigns[_id] */\n      dup2\n      mstore\n      0x20\n      add\n      swap1\n      dup2\n      mstore\n      0x20\n      add\n      0x00\n      keccak256\n        /* \"crowd fund/crowd fund smart contract 2.sol\":4807:4848  Campaign memory campaign = campaigns[_id] */\n      mload(0x40)\n      dup1\n      0xc0\n      add\n      0x40\n      mstore\n      swap1\n      dup2\n      0x00\n      dup3\n      add\n      0x00\n      swap1\n      sload\n      swap1\n      0x0100\n      exp\n      swap1\n      div\n      0xffffffffffffffffffffffffffffffffffffffff\n      and\n      0xffffffffffffffffffffffffffffffffffffffff\n      and\n      0xffffffffffffffffffffffffffffffffffffffff\n      and\n      dup2\n      mstore\n      0x20\n      add\n      0x01\n      dup3\n      add\n      sload\n      dup2\n      mstore\n      0x20\n      add\n      0x02\n      dup3\n      add\n      sload\n      dup2\n      mstore\n      0x20\n      add\n      0x03\n      dup3\n      add\n      0x00\n      swap1\n      sload\n      swap1\n      0x0100\n      exp\n      swap1\n      div\n      0xffffffff\n      and\n      0xffffffff\n      and\n      0xffffffff\n      and\n      dup2\n      mstore\n      0x20\n      add\n      0x03\n      dup3\n      add\n      0x04\n      swap1\n      sload\n      swap1\n      0x0100\n      exp\n      swap1\n      div\n      0xffffffff\n      and\n      0xffffffff\n      and\n      0xffffffff\n      and\n      dup2\n      mstore\n      0x20\n      add\n      0x03\n      dup3\n      add\n      0x08\n      swap1\n      sload\n      swap1\n      0x0100\n      exp\n      swap1\n      div\n      0xff\n      and\n      iszero\n      iszero\n      iszero\n      iszero\n      dup2\n      mstore\n      pop\n      pop\n      swap1\n      pop\n        /* \"crowd fund/crowd fund smart contract 2.sol\":4884:4892  campaign */\n      dup1\n        /* \"crowd fund/crowd fund smart contract 2.sol\":4884:4898  campaign.endAt */\n      0x80\n      add\n      mload\n        /* \"crowd fund/crowd fund smart contract 2.sol\":4866:4898  block.timestamp > campaign.endAt */\n      0xffffffff\n      and\n        /* \"crowd fund/crowd fund smart contract 2.sol\":4866:4881  block.timestamp */\n      timestamp\n        /* \"crowd fund/crowd fund smart contract 2.sol\":4866:4898  block.timestamp > campaign.endAt */\n      gt\n        /* \"crowd fund/crowd fund smart contract 2.sol\":4858:4912  require(block.timestamp > campaign.endAt, \"not ended\") */\n      tag_54\n      jumpi\n      mload(0x40)\n      0x08c379a000000000000000000000000000000000000000000000000000000000\n      dup2\n      mstore\n      0x04\n      add\n      tag_55\n      swap1\n      tag_56\n      jump\t// in\n    tag_55:\n      mload(0x40)\n      dup1\n      swap2\n      sub\n      swap1\n      revert\n    tag_54:\n        /* \"crowd fund/crowd fund smart contract 2.sol\":4949:4957  campaign */\n      dup1\n        /* \"crowd fund/crowd fund smart contract 2.sol\":4949:4962  campaign.goal */\n      0x20\n      add\n      mload\n        /* \"crowd fund/crowd fund smart contract 2.sol\":4930:4938  campaign */\n      dup2\n        /* \"crowd fund/crowd fund smart contract 2.sol\":4930:4946  campaign.pledged */\n      0x40\n      add\n      mload\n        /* \"crowd fund/crowd fund smart contract 2.sol\":4930:4962  campaign.pledged < campaign.goal */\n      lt\n        /* \"crowd fund/crowd fund smart contract 2.sol\":4922:4982  require(campaign.pledged < campaign.goal, \"pledged >= goal\") */\n      tag_57\n      jumpi\n      mload(0x40)\n      0x08c379a000000000000000000000000000000000000000000000000000000000\n      dup2\n      mstore\n      0x04\n      add\n      tag_58\n      swap1\n      tag_59\n      jump\t// in\n    tag_58:\n      mload(0x40)\n      dup1\n      swap2\n      sub\n      swap1\n      revert\n    tag_57:\n        /* \"crowd fund/crowd fund smart contract 2.sol\":5054:5062  uint bal */\n      0x00\n        /* \"crowd fund/crowd fund smart contract 2.sol\":5065:5078  pledgedAmount */\n      0x02\n        /* \"crowd fund/crowd fund smart contract 2.sol\":5065:5083  pledgedAmount[_id] */\n      0x00\n        /* \"crowd fund/crowd fund smart contract 2.sol\":5079:5082  _id */\n      dup5\n        /* \"crowd fund/crowd fund smart contract 2.sol\":5065:5083  pledgedAmount[_id] */\n      dup2\n      mstore\n      0x20\n      add\n      swap1\n      dup2\n      mstore\n      0x20\n      add\n      0x00\n      keccak256\n        /* \"crowd fund/crowd fund smart contract 2.sol\":5065:5095  pledgedAmount[_id][msg.sender] */\n      0x00\n        /* \"crowd fund/crowd fund smart contract 2.sol\":5084:5094  msg.sender */\n      caller\n        /* \"crowd fund/crowd fund smart contract 2.sol\":5065:5095  pledgedAmount[_id][msg.sender] */\n      0xffffffffffffffffffffffffffffffffffffffff\n      and\n      0xffffffffffffffffffffffffffffffffffffffff\n      and\n      dup2\n      mstore\n      0x20\n      add\n      swap1\n      dup2\n      mstore\n      0x20\n      add\n      0x00\n      keccak256\n      sload\n        /* \"crowd fund/crowd fund smart contract 2.sol\":5054:5095  uint bal = pledgedAmount[_id][msg.sender] */\n      swap1\n      pop\n        /* \"crowd fund/crowd fund smart contract 2.sol\":5138:5139  0 */\n      0x00\n        /* \"crowd fund/crowd fund smart contract 2.sol\":5105:5118  pledgedAmount */\n      0x02\n        /* \"crowd fund/crowd fund smart contract 2.sol\":5105:5123  pledgedAmount[_id] */\n      0x00\n        /* \"crowd fund/crowd fund smart contract 2.sol\":5119:5122  _id */\n      dup6\n        /* \"crowd fund/crowd fund smart contract 2.sol\":5105:5123  pledgedAmount[_id] */\n      dup2\n      mstore\n      0x20\n      add\n      swap1\n      dup2\n      mstore\n      0x20\n      add\n      0x00\n      keccak256\n        /* \"crowd fund/crowd fund smart contract 2.sol\":5105:5135  pledgedAmount[_id][msg.sender] */\n      0x00\n        /* \"crowd fund/crowd fund smart contract 2.sol\":5124:5134  msg.sender */\n      caller\n        /* \"crowd fund/crowd fund smart contract 2.sol\":5105:5135  pledgedAmount[_id][msg.sender] */\n      0xffffffffffffffffffffffffffffffffffffffff\n      and\n      0xffffffffffffffffffffffffffffffffffffffff\n      and\n      dup2\n      mstore\n      0x20\n      add\n      swap1\n      dup2\n      mstore\n      0x20\n      add\n      0x00\n      keccak256\n        /* \"crowd fund/crowd fund smart contract 2.sol\":5105:5139  pledgedAmount[_id][msg.sender] = 0 */\n      dup2\n      swap1\n      sstore\n      pop\n        /* \"crowd fund/crowd fund smart contract 2.sol\":5149:5154  token */\n      immutable(\"0x5392f7a671cdf89487ccf8e3646ea8f7570009490584962db6fa064c6e4ad499\")\n        /* \"crowd fund/crowd fund smart contract 2.sol\":5149:5163  token.transfer */\n      0xffffffffffffffffffffffffffffffffffffffff\n      and\n      0xa9059cbb\n        /* \"crowd fund/crowd fund smart contract 2.sol\":5164:5174  msg.sender */\n      caller\n        /* \"crowd fund/crowd fund smart contract 2.sol\":5176:5179  bal */\n      dup4\n        /* \"crowd fund/crowd fund smart contract 2.sol\":5149:5180  token.transfer(msg.sender, bal) */\n      mload(0x40)\n      dup4\n      0xffffffff\n      and\n      0xe0\n      shl\n      dup2\n      mstore\n      0x04\n      add\n      tag_60\n      swap3\n      swap2\n      swap1\n      tag_61\n      jump\t// in\n    tag_60:\n      0x20\n      mload(0x40)\n      dup1\n      dup4\n      sub\n      dup2\n      0x00\n      dup8\n      gas\n      call\n      iszero\n      dup1\n      iszero\n      tag_63\n      jumpi\n      returndatasize\n      0x00\n      dup1\n      returndatacopy\n      revert(0x00, returndatasize)\n    tag_63:\n      pop\n      pop\n      pop\n      pop\n      mload(0x40)\n      returndatasize\n      not(0x1f)\n      0x1f\n      dup3\n      add\n      and\n      dup3\n      add\n      dup1\n      0x40\n      mstore\n      pop\n      dup2\n      add\n      swap1\n      tag_64\n      swap2\n      swap1\n      tag_65\n      jump\t// in\n    tag_64:\n      pop\n        /* \"crowd fund/crowd fund smart contract 2.sol\":5208:5218  msg.sender */\n      caller\n        /* \"crowd fund/crowd fund smart contract 2.sol\":5196:5224  Refund(_id, msg.sender, bal) */\n      0xffffffffffffffffffffffffffffffffffffffff\n      and\n      0x21e12a7cad0da5928167e1084ea4d5fdf8d9af66657a2543a9ac76a0ca081477\n        /* \"crowd fund/crowd fund smart contract 2.sol\":5203:5206  _id */\n      dup5\n        /* \"crowd fund/crowd fund smart contract 2.sol\":5220:5223  bal */\n      dup4\n        /* \"crowd fund/crowd fund smart contract 2.sol\":5196:5224  Refund(_id, msg.sender, bal) */\n      mload(0x40)\n      tag_66\n      swap3\n      swap2\n      swap1\n      tag_67\n      jump\t// in\n    tag_66:\n      mload(0x40)\n      dup1\n      swap2\n      sub\n      swap1\n      log2\n        /* \"crowd fund/crowd fund smart contract 2.sol\":4797:5231  {... */\n      pop\n      pop\n        /* \"crowd fund/crowd fund smart contract 2.sol\":4762:5231  function refund(uint _id) external {... */\n      pop\n      jump\t// out\n        /* \"crowd fund/crowd fund smart contract 2.sol\":2008:2688  function launch(uint _goal, uint32 _startAt, uint32 _endAt) external {... */\n    tag_30:\n        /* \"crowd fund/crowd fund smart contract 2.sol\":2107:2122  block.timestamp */\n      timestamp\n        /* \"crowd fund/crowd fund smart contract 2.sol\":2095:2103  _startAt */\n      dup3\n        /* \"crowd fund/crowd fund smart contract 2.sol\":2095:2122  _startAt >= block.timestamp */\n      0xffffffff\n      and\n      lt\n      iszero\n        /* \"crowd fund/crowd fund smart contract 2.sol\":2087:2141  require(_startAt >= block.timestamp, \"start at < now\") */\n      tag_69\n      jumpi\n      mload(0x40)\n      0x08c379a000000000000000000000000000000000000000000000000000000000\n      dup2\n      mstore\n      0x04\n      add\n      tag_70\n      swap1\n      tag_71\n      jump\t// in\n    tag_70:\n      mload(0x40)\n      dup1\n      swap2\n      sub\n      swap1\n      revert\n    tag_69:\n        /* \"crowd fund/crowd fund smart contract 2.sol\":2169:2177  _startAt */\n      dup2\n        /* \"crowd fund/crowd fund smart contract 2.sol\":2159:2177  _endAt >= _startAt */\n      0xffffffff\n      and\n        /* \"crowd fund/crowd fund smart contract 2.sol\":2159:2165  _endAt */\n      dup2\n        /* \"crowd fund/crowd fund smart contract 2.sol\":2159:2177  _endAt >= _startAt */\n      0xffffffff\n      and\n      lt\n      iszero\n        /* \"crowd fund/crowd fund smart contract 2.sol\":2151:2199  require(_endAt >= _startAt, \"end at < start at\") */\n      tag_72\n      jumpi\n      mload(0x40)\n      0x08c379a000000000000000000000000000000000000000000000000000000000\n      dup2\n      mstore\n      0x04\n      add\n      tag_73\n      swap1\n      tag_74\n      jump\t// in\n    tag_73:\n      mload(0x40)\n      dup1\n      swap2\n      sub\n      swap1\n      revert\n    tag_72:\n        /* \"crowd fund/crowd fund smart contract 2.sol\":2245:2252  90 days */\n      0x76a700\n        /* \"crowd fund/crowd fund smart contract 2.sol\":2227:2242  block.timestamp */\n      timestamp\n        /* \"crowd fund/crowd fund smart contract 2.sol\":2227:2252  block.timestamp + 90 days */\n      tag_75\n      swap2\n      swap1\n      tag_76\n      jump\t// in\n    tag_75:\n        /* \"crowd fund/crowd fund smart contract 2.sol\":2217:2223  _endAt */\n      dup2\n        /* \"crowd fund/crowd fund smart contract 2.sol\":2217:2252  _endAt <= block.timestamp + 90 days */\n      0xffffffff\n      and\n      gt\n      iszero\n        /* \"crowd fund/crowd fund smart contract 2.sol\":2209:2278  require(_endAt <= block.timestamp + 90 days, \"end at > max duration\") */\n      tag_77\n      jumpi\n      mload(0x40)\n      0x08c379a000000000000000000000000000000000000000000000000000000000\n      dup2\n      mstore\n      0x04\n      add\n      tag_78\n      swap1\n      tag_79\n      jump\t// in\n    tag_78:\n      mload(0x40)\n      dup1\n      swap2\n      sub\n      swap1\n      revert\n    tag_77:\n        /* \"crowd fund/crowd fund smart contract 2.sol\":2361:2362  1 */\n      0x01\n        /* \"crowd fund/crowd fund smart contract 2.sol\":2352:2357  count */\n      0x00\n      dup1\n        /* \"crowd fund/crowd fund smart contract 2.sol\":2352:2362  count += 1 */\n      dup3\n      dup3\n      sload\n      tag_80\n      swap2\n      swap1\n      tag_76\n      jump\t// in\n    tag_80:\n      swap3\n      pop\n      pop\n      dup2\n      swap1\n      sstore\n      pop\n        /* \"crowd fund/crowd fund smart contract 2.sol\":2391:2579  Campaign({... */\n      mload(0x40)\n      dup1\n      0xc0\n      add\n      0x40\n      mstore\n      dup1\n        /* \"crowd fund/crowd fund smart contract 2.sol\":2423:2433  msg.sender */\n      caller\n        /* \"crowd fund/crowd fund smart contract 2.sol\":2391:2579  Campaign({... */\n      0xffffffffffffffffffffffffffffffffffffffff\n      and\n      dup2\n      mstore\n      0x20\n      add\n        /* \"crowd fund/crowd fund smart contract 2.sol\":2453:2458  _goal */\n      dup5\n        /* \"crowd fund/crowd fund smart contract 2.sol\":2391:2579  Campaign({... */\n      dup2\n      mstore\n      0x20\n      add\n        /* \"crowd fund/crowd fund smart contract 2.sol\":2481:2482  0 */\n      0x00\n        /* \"crowd fund/crowd fund smart contract 2.sol\":2391:2579  Campaign({... */\n      dup2\n      mstore\n      0x20\n      add\n        /* \"crowd fund/crowd fund smart contract 2.sol\":2505:2513  _startAt */\n      dup4\n        /* \"crowd fund/crowd fund smart contract 2.sol\":2391:2579  Campaign({... */\n      0xffffffff\n      and\n      dup2\n      mstore\n      0x20\n      add\n        /* \"crowd fund/crowd fund smart contract 2.sol\":2534:2540  _endAt */\n      dup3\n        /* \"crowd fund/crowd fund smart contract 2.sol\":2391:2579  Campaign({... */\n      0xffffffff\n      and\n      dup2\n      mstore\n      0x20\n      add\n        /* \"crowd fund/crowd fund smart contract 2.sol\":2563:2568  false */\n      0x00\n        /* \"crowd fund/crowd fund smart contract 2.sol\":2391:2579  Campaign({... */\n      iszero\n      iszero\n      dup2\n      mstore\n      pop\n        /* \"crowd fund/crowd fund smart contract 2.sol\":2372:2381  campaigns */\n      0x01\n        /* \"crowd fund/crowd fund smart contract 2.sol\":2372:2388  campaigns[count] */\n      0x00\n        /* \"crowd fund/crowd fund smart contract 2.sol\":2382:2387  count */\n      dup1\n      sload\n        /* \"crowd fund/crowd fund smart contract 2.sol\":2372:2388  campaigns[count] */\n      dup2\n      mstore\n      0x20\n      add\n      swap1\n      dup2\n      mstore\n      0x20\n      add\n      0x00\n      keccak256\n        /* \"crowd fund/crowd fund smart contract 2.sol\":2372:2579  campaigns[count] = Campaign({... */\n      0x00\n      dup3\n      add\n      mload\n      dup2\n      0x00\n      add\n      exp(0x0100, 0x00)\n      dup2\n      sload\n      dup2\n      0xffffffffffffffffffffffffffffffffffffffff\n      mul\n      not\n      and\n      swap1\n      dup4\n      0xffffffffffffffffffffffffffffffffffffffff\n      and\n      mul\n      or\n      swap1\n      sstore\n      pop\n      0x20\n      dup3\n      add\n      mload\n      dup2\n      0x01\n      add\n      sstore\n      0x40\n      dup3\n      add\n      mload\n      dup2\n      0x02\n      add\n      sstore\n      0x60\n      dup3\n      add\n      mload\n      dup2\n      0x03\n      add\n      exp(0x0100, 0x00)\n      dup2\n      sload\n      dup2\n      0xffffffff\n      mul\n      not\n      and\n      swap1\n      dup4\n      0xffffffff\n      and\n      mul\n      or\n      swap1\n      sstore\n      pop\n      0x80\n      dup3\n      add\n      mload\n      dup2\n      0x03\n      add\n      exp(0x0100, 0x04)\n      dup2\n      sload\n      dup2\n      0xffffffff\n      mul\n      not\n      and\n      swap1\n      dup4\n      0xffffffff\n      and\n      mul\n      or\n      swap1\n      sstore\n      pop\n      0xa0\n      dup3\n      add\n      mload\n      dup2\n      0x03\n      add\n      exp(0x0100, 0x08)\n      dup2\n      sload\n      dup2\n      0xff\n      mul\n      not\n      and\n      swap1\n      dup4\n      iszero\n      iszero\n      mul\n      or\n      swap1\n      sstore\n      pop\n      swap1\n      pop\n      pop\n        /* \"crowd fund/crowd fund smart contract 2.sol\":2645:2655  msg.sender */\n      caller\n        /* \"crowd fund/crowd fund smart contract 2.sol\":2631:2681  Launch(count, msg.sender, _goal, _startAt, _endAt) */\n      0xffffffffffffffffffffffffffffffffffffffff\n      and\n      0x0601cd0d650b473037e838a2696d41e654433d065b3f56b28d1d3302e44a304f\n        /* \"crowd fund/crowd fund smart contract 2.sol\":2638:2643  count */\n      sload(0x00)\n        /* \"crowd fund/crowd fund smart contract 2.sol\":2657:2662  _goal */\n      dup6\n        /* \"crowd fund/crowd fund smart contract 2.sol\":2664:2672  _startAt */\n      dup6\n        /* \"crowd fund/crowd fund smart contract 2.sol\":2674:2680  _endAt */\n      dup6\n        /* \"crowd fund/crowd fund smart contract 2.sol\":2631:2681  Launch(count, msg.sender, _goal, _startAt, _endAt) */\n      mload(0x40)\n      tag_81\n      swap5\n      swap4\n      swap3\n      swap2\n      swap1\n      tag_82\n      jump\t// in\n    tag_81:\n      mload(0x40)\n      dup1\n      swap2\n      sub\n      swap1\n      log2\n        /* \"crowd fund/crowd fund smart contract 2.sol\":2008:2688  function launch(uint _goal, uint32 _startAt, uint32 _endAt) external {... */\n      pop\n      pop\n      pop\n      jump\t// out\n        /* \"crowd fund/crowd fund smart contract 2.sol\":4168:4677  function claim(uint _id) external {... */\n    tag_33:\n        /* \"crowd fund/crowd fund smart contract 2.sol\":4212:4237  Campaign storage campaign */\n      0x00\n        /* \"crowd fund/crowd fund smart contract 2.sol\":4240:4249  campaigns */\n      0x01\n        /* \"crowd fund/crowd fund smart contract 2.sol\":4240:4254  campaigns[_id] */\n      0x00\n        /* \"crowd fund/crowd fund smart contract 2.sol\":4250:4253  _id */\n      dup4\n        /* \"crowd fund/crowd fund smart contract 2.sol\":4240:4254  campaigns[_id] */\n      dup2\n      mstore\n      0x20\n      add\n      swap1\n      dup2\n      mstore\n      0x20\n      add\n      0x00\n      keccak256\n        /* \"crowd fund/crowd fund smart contract 2.sol\":4212:4254  Campaign storage campaign = campaigns[_id] */\n      swap1\n      pop\n        /* \"crowd fund/crowd fund smart contract 2.sol\":4292:4302  msg.sender */\n      caller\n        /* \"crowd fund/crowd fund smart contract 2.sol\":4272:4302  campaign.creator == msg.sender */\n      0xffffffffffffffffffffffffffffffffffffffff\n      and\n        /* \"crowd fund/crowd fund smart contract 2.sol\":4272:4280  campaign */\n      dup2\n        /* \"crowd fund/crowd fund smart contract 2.sol\":4272:4288  campaign.creator */\n      0x00\n      add\n      0x00\n      swap1\n      sload\n      swap1\n      0x0100\n      exp\n      swap1\n      div\n      0xffffffffffffffffffffffffffffffffffffffff\n      and\n        /* \"crowd fund/crowd fund smart contract 2.sol\":4272:4302  campaign.creator == msg.sender */\n      0xffffffffffffffffffffffffffffffffffffffff\n      and\n      eq\n        /* \"crowd fund/crowd fund smart contract 2.sol\":4264:4318  require(campaign.creator == msg.sender, \"not creator\") */\n      tag_84\n      jumpi\n      mload(0x40)\n      0x08c379a000000000000000000000000000000000000000000000000000000000\n      dup2\n      mstore\n      0x04\n      add\n      tag_85\n      swap1\n      tag_86\n      jump\t// in\n    tag_85:\n      mload(0x40)\n      dup1\n      swap2\n      sub\n      swap1\n      revert\n    tag_84:\n        /* \"crowd fund/crowd fund smart contract 2.sol\":4354:4362  campaign */\n      dup1\n        /* \"crowd fund/crowd fund smart contract 2.sol\":4354:4368  campaign.endAt */\n      0x03\n      add\n      0x04\n      swap1\n      sload\n      swap1\n      0x0100\n      exp\n      swap1\n      div\n      0xffffffff\n      and\n        /* \"crowd fund/crowd fund smart contract 2.sol\":4336:4368  block.timestamp > campaign.endAt */\n      0xffffffff\n      and\n        /* \"crowd fund/crowd fund smart contract 2.sol\":4336:4351  block.timestamp */\n      timestamp\n        /* \"crowd fund/crowd fund smart contract 2.sol\":4336:4368  block.timestamp > campaign.endAt */\n      gt\n        /* \"crowd fund/crowd fund smart contract 2.sol\":4328:4382  require(block.timestamp > campaign.endAt, \"not ended\") */\n      tag_87\n      jumpi\n      mload(0x40)\n      0x08c379a000000000000000000000000000000000000000000000000000000000\n      dup2\n      mstore\n      0x04\n      add\n      tag_88\n      swap1\n      tag_56\n      jump\t// in\n    tag_88:\n      mload(0x40)\n      dup1\n      swap2\n      sub\n      swap1\n      revert\n    tag_87:\n        /* \"crowd fund/crowd fund smart contract 2.sol\":4420:4428  campaign */\n      dup1\n        /* \"crowd fund/crowd fund smart contract 2.sol\":4420:4433  campaign.goal */\n      0x01\n      add\n      sload\n        /* \"crowd fund/crowd fund smart contract 2.sol\":4400:4408  campaign */\n      dup2\n        /* \"crowd fund/crowd fund smart contract 2.sol\":4400:4416  campaign.pledged */\n      0x02\n      add\n      sload\n        /* \"crowd fund/crowd fund smart contract 2.sol\":4400:4433  campaign.pledged >= campaign.goal */\n      lt\n      iszero\n        /* \"crowd fund/crowd fund smart contract 2.sol\":4392:4452  require(campaign.pledged >= campaign.goal, \"pledged < goal\") */\n      tag_89\n      jumpi\n      mload(0x40)\n      0x08c379a000000000000000000000000000000000000000000000000000000000\n      dup2\n      mstore\n      0x04\n      add\n      tag_90\n      swap1\n      tag_91\n      jump\t// in\n    tag_90:\n      mload(0x40)\n      dup1\n      swap2\n      sub\n      swap1\n      revert\n    tag_89:\n        /* \"crowd fund/crowd fund smart contract 2.sol\":4471:4479  campaign */\n      dup1\n        /* \"crowd fund/crowd fund smart contract 2.sol\":4471:4487  campaign.claimed */\n      0x03\n      add\n      0x08\n      swap1\n      sload\n      swap1\n      0x0100\n      exp\n      swap1\n      div\n      0xff\n      and\n        /* \"crowd fund/crowd fund smart contract 2.sol\":4470:4487  !campaign.claimed */\n      iszero\n        /* \"crowd fund/crowd fund smart contract 2.sol\":4462:4499  require(!campaign.claimed, \"claimed\") */\n      tag_92\n      jumpi\n      mload(0x40)\n      0x08c379a000000000000000000000000000000000000000000000000000000000\n      dup2\n      mstore\n      0x04\n      add\n      tag_93\n      swap1\n      tag_94\n      jump\t// in\n    tag_93:\n      mload(0x40)\n      dup1\n      swap2\n      sub\n      swap1\n      revert\n    tag_92:\n        /* \"crowd fund/crowd fund smart contract 2.sol\":4580:4584  true */\n      0x01\n        /* \"crowd fund/crowd fund smart contract 2.sol\":4561:4569  campaign */\n      dup2\n        /* \"crowd fund/crowd fund smart contract 2.sol\":4561:4577  campaign.claimed */\n      0x03\n      add\n      0x08\n        /* \"crowd fund/crowd fund smart contract 2.sol\":4561:4584  campaign.claimed = true */\n      0x0100\n      exp\n      dup2\n      sload\n      dup2\n      0xff\n      mul\n      not\n      and\n      swap1\n      dup4\n      iszero\n      iszero\n      mul\n      or\n      swap1\n      sstore\n      pop\n        /* \"crowd fund/crowd fund smart contract 2.sol\":4594:4599  token */\n      immutable(\"0x5392f7a671cdf89487ccf8e3646ea8f7570009490584962db6fa064c6e4ad499\")\n        /* \"crowd fund/crowd fund smart contract 2.sol\":4594:4608  token.transfer */\n      0xffffffffffffffffffffffffffffffffffffffff\n      and\n      0xa9059cbb\n        /* \"crowd fund/crowd fund smart contract 2.sol\":4609:4617  campaign */\n      dup3\n        /* \"crowd fund/crowd fund smart contract 2.sol\":4609:4625  campaign.creator */\n      0x00\n      add\n      0x00\n      swap1\n      sload\n      swap1\n      0x0100\n      exp\n      swap1\n      div\n      0xffffffffffffffffffffffffffffffffffffffff\n      and\n        /* \"crowd fund/crowd fund smart contract 2.sol\":4627:4635  campaign */\n      dup4\n        /* \"crowd fund/crowd fund smart contract 2.sol\":4627:4643  campaign.pledged */\n      0x02\n      add\n      sload\n        /* \"crowd fund/crowd fund smart contract 2.sol\":4594:4644  token.transfer(campaign.creator, campaign.pledged) */\n      mload(0x40)\n      dup4\n      0xffffffff\n      and\n      0xe0\n      shl\n      dup2\n      mstore\n      0x04\n      add\n      tag_95\n      swap3\n      swap2\n      swap1\n      tag_61\n      jump\t// in\n    tag_95:\n      0x20\n      mload(0x40)\n      dup1\n      dup4\n      sub\n      dup2\n      0x00\n      dup8\n      gas\n      call\n      iszero\n      dup1\n      iszero\n      tag_97\n      jumpi\n      returndatasize\n      0x00\n      dup1\n      returndatacopy\n      revert(0x00, returndatasize)\n    tag_97:\n      pop\n      pop\n      pop\n      pop\n      mload(0x40)\n      returndatasize\n      not(0x1f)\n      0x1f\n      dup3\n      add\n      and\n      dup3\n      add\n      dup1\n      0x40\n      mstore\n      pop\n      dup2\n      add\n      swap1\n      tag_98\n      swap2\n      swap1\n      tag_65\n      jump\t// in\n    tag_98:\n      pop\n        /* \"crowd fund/crowd fund smart contract 2.sol\":4660:4670  Claim(_id) */\n      0x7bb2b3c10797baccb6f8c4791f1edd6ca2f0d028ee0eda64b01a9a57e3a653f7\n        /* \"crowd fund/crowd fund smart contract 2.sol\":4666:4669  _id */\n      dup3\n        /* \"crowd fund/crowd fund smart contract 2.sol\":4660:4670  Claim(_id) */\n      mload(0x40)\n      tag_99\n      swap2\n      swap1\n      tag_17\n      jump\t// in\n    tag_99:\n      mload(0x40)\n      dup1\n      swap2\n      sub\n      swap1\n      log1\n        /* \"crowd fund/crowd fund smart contract 2.sol\":4202:4677  {... */\n      pop\n        /* \"crowd fund/crowd fund smart contract 2.sol\":4168:4677  function claim(uint _id) external {... */\n      pop\n      jump\t// out\n        /* \"crowd fund/crowd fund smart contract 2.sol\":2758:3069  function cancel(uint _id) external {... */\n    tag_36:\n        /* \"crowd fund/crowd fund smart contract 2.sol\":2803:2827  Campaign memory campaign */\n      0x00\n        /* \"crowd fund/crowd fund smart contract 2.sol\":2830:2839  campaigns */\n      0x01\n        /* \"crowd fund/crowd fund smart contract 2.sol\":2830:2844  campaigns[_id] */\n      0x00\n        /* \"crowd fund/crowd fund smart contract 2.sol\":2840:2843  _id */\n      dup4\n        /* \"crowd fund/crowd fund smart contract 2.sol\":2830:2844  campaigns[_id] */\n      dup2\n      mstore\n      0x20\n      add\n      swap1\n      dup2\n      mstore\n      0x20\n      add\n      0x00\n      keccak256\n        /* \"crowd fund/crowd fund smart contract 2.sol\":2803:2844  Campaign memory campaign = campaigns[_id] */\n      mload(0x40)\n      dup1\n      0xc0\n      add\n      0x40\n      mstore\n      swap1\n      dup2\n      0x00\n      dup3\n      add\n      0x00\n      swap1\n      sload\n      swap1\n      0x0100\n      exp\n      swap1\n      div\n      0xffffffffffffffffffffffffffffffffffffffff\n      and\n      0xffffffffffffffffffffffffffffffffffffffff\n      and\n      0xffffffffffffffffffffffffffffffffffffffff\n      and\n      dup2\n      mstore\n      0x20\n      add\n      0x01\n      dup3\n      add\n      sload\n      dup2\n      mstore\n      0x20\n      add\n      0x02\n      dup3\n      add\n      sload\n      dup2\n      mstore\n      0x20\n      add\n      0x03\n      dup3\n      add\n      0x00\n      swap1\n      sload\n      swap1\n      0x0100\n      exp\n      swap1\n      div\n      0xffffffff\n      and\n      0xffffffff\n      and\n      0xffffffff\n      and\n      dup2\n      mstore\n      0x20\n      add\n      0x03\n      dup3\n      add\n      0x04\n      swap1\n      sload\n      swap1\n      0x0100\n      exp\n      swap1\n      div\n      0xffffffff\n      and\n      0xffffffff\n      and\n      0xffffffff\n      and\n      dup2\n      mstore\n      0x20\n      add\n      0x03\n      dup3\n      add\n      0x08\n      swap1\n      sload\n      swap1\n      0x0100\n      exp\n      swap1\n      div\n      0xff\n      and\n      iszero\n      iszero\n      iszero\n      iszero\n      dup2\n      mstore\n      pop\n      pop\n      swap1\n      pop\n        /* \"crowd fund/crowd fund smart contract 2.sol\":2882:2892  msg.sender */\n      caller\n        /* \"crowd fund/crowd fund smart contract 2.sol\":2862:2892  campaign.creator == msg.sender */\n      0xffffffffffffffffffffffffffffffffffffffff\n      and\n        /* \"crowd fund/crowd fund smart contract 2.sol\":2862:2870  campaign */\n      dup2\n        /* \"crowd fund/crowd fund smart contract 2.sol\":2862:2878  campaign.creator */\n      0x00\n      add\n      mload\n        /* \"crowd fund/crowd fund smart contract 2.sol\":2862:2892  campaign.creator == msg.sender */\n      0xffffffffffffffffffffffffffffffffffffffff\n      and\n      eq\n        /* \"crowd fund/crowd fund smart contract 2.sol\":2854:2908  require(campaign.creator == msg.sender, \"not creator\") */\n      tag_101\n      jumpi\n      mload(0x40)\n      0x08c379a000000000000000000000000000000000000000000000000000000000\n      dup2\n      mstore\n      0x04\n      add\n      tag_102\n      swap1\n      tag_86\n      jump\t// in\n    tag_102:\n      mload(0x40)\n      dup1\n      swap2\n      sub\n      swap1\n      revert\n    tag_101:\n        /* \"crowd fund/crowd fund smart contract 2.sol\":2944:2952  campaign */\n      dup1\n        /* \"crowd fund/crowd fund smart contract 2.sol\":2944:2960  campaign.startAt */\n      0x60\n      add\n      mload\n        /* \"crowd fund/crowd fund smart contract 2.sol\":2926:2960  block.timestamp < campaign.startAt */\n      0xffffffff\n      and\n        /* \"crowd fund/crowd fund smart contract 2.sol\":2926:2941  block.timestamp */\n      timestamp\n        /* \"crowd fund/crowd fund smart contract 2.sol\":2926:2960  block.timestamp < campaign.startAt */\n      lt\n        /* \"crowd fund/crowd fund smart contract 2.sol\":2918:2972  require(block.timestamp < campaign.startAt, \"started\") */\n      tag_103\n      jumpi\n      mload(0x40)\n      0x08c379a000000000000000000000000000000000000000000000000000000000\n      dup2\n      mstore\n      0x04\n      add\n      tag_104\n      swap1\n      tag_105\n      jump\t// in\n    tag_104:\n      mload(0x40)\n      dup1\n      swap2\n      sub\n      swap1\n      revert\n    tag_103:\n        /* \"crowd fund/crowd fund smart contract 2.sol\":3022:3031  campaigns */\n      0x01\n        /* \"crowd fund/crowd fund smart contract 2.sol\":3022:3036  campaigns[_id] */\n      0x00\n        /* \"crowd fund/crowd fund smart contract 2.sol\":3032:3035  _id */\n      dup4\n        /* \"crowd fund/crowd fund smart contract 2.sol\":3022:3036  campaigns[_id] */\n      dup2\n      mstore\n      0x20\n      add\n      swap1\n      dup2\n      mstore\n      0x20\n      add\n      0x00\n      keccak256\n      0x00\n        /* \"crowd fund/crowd fund smart contract 2.sol\":3015:3036  delete campaigns[_id] */\n      dup1\n      dup3\n      add\n      exp(0x0100, 0x00)\n      dup2\n      sload\n      swap1\n      0xffffffffffffffffffffffffffffffffffffffff\n      mul\n      not\n      and\n      swap1\n      sstore\n      0x01\n      dup3\n      add\n      0x00\n      swap1\n      sstore\n      0x02\n      dup3\n      add\n      0x00\n      swap1\n      sstore\n      0x03\n      dup3\n      add\n      exp(0x0100, 0x00)\n      dup2\n      sload\n      swap1\n      0xffffffff\n      mul\n      not\n      and\n      swap1\n      sstore\n      0x03\n      dup3\n      add\n      exp(0x0100, 0x04)\n      dup2\n      sload\n      swap1\n      0xffffffff\n      mul\n      not\n      and\n      swap1\n      sstore\n      0x03\n      dup3\n      add\n      exp(0x0100, 0x08)\n      dup2\n      sload\n      swap1\n      0xff\n      mul\n      not\n      and\n      swap1\n      sstore\n      pop\n      pop\n        /* \"crowd fund/crowd fund smart contract 2.sol\":3051:3062  Cancel(_id) */\n      0x8bf30e7ff26833413be5f69e1d373744864d600b664204b4a2f9844a8eedb9ed\n        /* \"crowd fund/crowd fund smart contract 2.sol\":3058:3061  _id */\n      dup3\n        /* \"crowd fund/crowd fund smart contract 2.sol\":3051:3062  Cancel(_id) */\n      mload(0x40)\n      tag_106\n      swap2\n      swap1\n      tag_17\n      jump\t// in\n    tag_106:\n      mload(0x40)\n      dup1\n      swap2\n      sub\n      swap1\n      log1\n        /* \"crowd fund/crowd fund smart contract 2.sol\":2793:3069  {... */\n      pop\n        /* \"crowd fund/crowd fund smart contract 2.sol\":2758:3069  function cancel(uint _id) external {... */\n      pop\n      jump\t// out\n        /* \"crowd fund/crowd fund smart contract 2.sol\":3675:4084  function unpledge(uint _id, uint _amount) external {... */\n    tag_40:\n        /* \"crowd fund/crowd fund smart contract 2.sol\":3736:3761  Campaign storage campaign */\n      0x00\n        /* \"crowd fund/crowd fund smart contract 2.sol\":3764:3773  campaigns */\n      0x01\n        /* \"crowd fund/crowd fund smart contract 2.sol\":3764:3778  campaigns[_id] */\n      0x00\n        /* \"crowd fund/crowd fund smart contract 2.sol\":3774:3777  _id */\n      dup5\n        /* \"crowd fund/crowd fund smart contract 2.sol\":3764:3778  campaigns[_id] */\n      dup2\n      mstore\n      0x20\n      add\n      swap1\n      dup2\n      mstore\n      0x20\n      add\n      0x00\n      keccak256\n        /* \"crowd fund/crowd fund smart contract 2.sol\":3736:3778  Campaign storage campaign = campaigns[_id] */\n      swap1\n      pop\n        /* \"crowd fund/crowd fund smart contract 2.sol\":3815:3823  campaign */\n      dup1\n        /* \"crowd fund/crowd fund smart contract 2.sol\":3815:3829  campaign.endAt */\n      0x03\n      add\n      0x04\n      swap1\n      sload\n      swap1\n      0x0100\n      exp\n      swap1\n      div\n      0xffffffff\n      and\n        /* \"crowd fund/crowd fund smart contract 2.sol\":3796:3829  block.timestamp <= campaign.endAt */\n      0xffffffff\n      and\n        /* \"crowd fund/crowd fund smart contract 2.sol\":3796:3811  block.timestamp */\n      timestamp\n        /* \"crowd fund/crowd fund smart contract 2.sol\":3796:3829  block.timestamp <= campaign.endAt */\n      gt\n      iszero\n        /* \"crowd fund/crowd fund smart contract 2.sol\":3788:3839  require(block.timestamp <= campaign.endAt, \"ended\") */\n      tag_108\n      jumpi\n      mload(0x40)\n      0x08c379a000000000000000000000000000000000000000000000000000000000\n      dup2\n      mstore\n      0x04\n      add\n      tag_109\n      swap1\n      tag_110\n      jump\t// in\n    tag_109:\n      mload(0x40)\n      dup1\n      swap2\n      sub\n      swap1\n      revert\n    tag_108:\n        /* \"crowd fund/crowd fund smart contract 2.sol\":3924:3931  _amount */\n      dup2\n        /* \"crowd fund/crowd fund smart contract 2.sol\":3904:3912  campaign */\n      dup2\n        /* \"crowd fund/crowd fund smart contract 2.sol\":3904:3920  campaign.pledged */\n      0x02\n      add\n      0x00\n        /* \"crowd fund/crowd fund smart contract 2.sol\":3904:3931  campaign.pledged -= _amount */\n      dup3\n      dup3\n      sload\n      tag_111\n      swap2\n      swap1\n      tag_112\n      jump\t// in\n    tag_111:\n      swap3\n      pop\n      pop\n      dup2\n      swap1\n      sstore\n      pop\n        /* \"crowd fund/crowd fund smart contract 2.sol\":3975:3982  _amount */\n      dup2\n        /* \"crowd fund/crowd fund smart contract 2.sol\":3941:3954  pledgedAmount */\n      0x02\n        /* \"crowd fund/crowd fund smart contract 2.sol\":3941:3959  pledgedAmount[_id] */\n      0x00\n        /* \"crowd fund/crowd fund smart contract 2.sol\":3955:3958  _id */\n      dup6\n        /* \"crowd fund/crowd fund smart contract 2.sol\":3941:3959  pledgedAmount[_id] */\n      dup2\n      mstore\n      0x20\n      add\n      swap1\n      dup2\n      mstore\n      0x20\n      add\n      0x00\n      keccak256\n        /* \"crowd fund/crowd fund smart contract 2.sol\":3941:3971  pledgedAmount[_id][msg.sender] */\n      0x00\n        /* \"crowd fund/crowd fund smart contract 2.sol\":3960:3970  msg.sender */\n      caller\n        /* \"crowd fund/crowd fund smart contract 2.sol\":3941:3971  pledgedAmount[_id][msg.sender] */\n      0xffffffffffffffffffffffffffffffffffffffff\n      and\n      0xffffffffffffffffffffffffffffffffffffffff\n      and\n      dup2\n      mstore\n      0x20\n      add\n      swap1\n      dup2\n      mstore\n      0x20\n      add\n      0x00\n      keccak256\n      0x00\n        /* \"crowd fund/crowd fund smart contract 2.sol\":3941:3982  pledgedAmount[_id][msg.sender] -= _amount */\n      dup3\n      dup3\n      sload\n      tag_113\n      swap2\n      swap1\n      tag_112\n      jump\t// in\n    tag_113:\n      swap3\n      pop\n      pop\n      dup2\n      swap1\n      sstore\n      pop\n        /* \"crowd fund/crowd fund smart contract 2.sol\":3992:3997  token */\n      immutable(\"0x5392f7a671cdf89487ccf8e3646ea8f7570009490584962db6fa064c6e4ad499\")\n        /* \"crowd fund/crowd fund smart contract 2.sol\":3992:4006  token.transfer */\n      0xffffffffffffffffffffffffffffffffffffffff\n      and\n      0xa9059cbb\n        /* \"crowd fund/crowd fund smart contract 2.sol\":4007:4017  msg.sender */\n      caller\n        /* \"crowd fund/crowd fund smart contract 2.sol\":4019:4026  _amount */\n      dup5\n        /* \"crowd fund/crowd fund smart contract 2.sol\":3992:4027  token.transfer(msg.sender, _amount) */\n      mload(0x40)\n      dup4\n      0xffffffff\n      and\n      0xe0\n      shl\n      dup2\n      mstore\n      0x04\n      add\n      tag_114\n      swap3\n      swap2\n      swap1\n      tag_61\n      jump\t// in\n    tag_114:\n      0x20\n      mload(0x40)\n      dup1\n      dup4\n      sub\n      dup2\n      0x00\n      dup8\n      gas\n      call\n      iszero\n      dup1\n      iszero\n      tag_116\n      jumpi\n      returndatasize\n      0x00\n      dup1\n      returndatacopy\n      revert(0x00, returndatasize)\n    tag_116:\n      pop\n      pop\n      pop\n      pop\n      mload(0x40)\n      returndatasize\n      not(0x1f)\n      0x1f\n      dup3\n      add\n      and\n      dup3\n      add\n      dup1\n      0x40\n      mstore\n      pop\n      dup2\n      add\n      swap1\n      tag_117\n      swap2\n      swap1\n      tag_65\n      jump\t// in\n    tag_117:\n      pop\n        /* \"crowd fund/crowd fund smart contract 2.sol\":4057:4067  msg.sender */\n      caller\n        /* \"crowd fund/crowd fund smart contract 2.sol\":4043:4077  Unpledge(_id, msg.sender, _amount) */\n      0xffffffffffffffffffffffffffffffffffffffff\n      and\n        /* \"crowd fund/crowd fund smart contract 2.sol\":4052:4055  _id */\n      dup4\n        /* \"crowd fund/crowd fund smart contract 2.sol\":4043:4077  Unpledge(_id, msg.sender, _amount) */\n      0x2eeeab891b26a214d1b25749f88a406bdea852bd8c9bfda977e0ef8114c180ba\n        /* \"crowd fund/crowd fund smart contract 2.sol\":4069:4076  _amount */\n      dup5\n        /* \"crowd fund/crowd fund smart contract 2.sol\":4043:4077  Unpledge(_id, msg.sender, _amount) */\n      mload(0x40)\n      tag_118\n      swap2\n      swap1\n      tag_17\n      jump\t// in\n    tag_118:\n      mload(0x40)\n      dup1\n      swap2\n      sub\n      swap1\n      log3\n        /* \"crowd fund/crowd fund smart contract 2.sol\":3726:4084  {... */\n      pop\n        /* \"crowd fund/crowd fund smart contract 2.sol\":3675:4084  function unpledge(uint _id, uint _amount) external {... */\n      pop\n      pop\n      jump\t// out\n        /* \"crowd fund/crowd fund smart contract 2.sol\":1771:1833  mapping(uint => mapping(address => uint)) public pledgedAmount */\n    tag_44:\n      mstore(0x20, 0x02)\n      dup2\n      0x00\n      mstore\n      mstore(0x20, keccak256(0x00, 0x40))\n      dup1\n      0x00\n      mstore\n      keccak256(0x00, 0x40)\n      0x00\n      swap2\n      pop\n      swap2\n      pop\n      pop\n      sload\n      dup2\n      jump\t// out\n        /* \"crowd fund/crowd fund smart contract 2.sol\":1485:1514  IERC20 public immutable token */\n    tag_47:\n      immutable(\"0x5392f7a671cdf89487ccf8e3646ea8f7570009490584962db6fa064c6e4ad499\")\n      dup2\n      jump\t// out\n        /* \"crowd fund/crowd fund smart contract 2.sol\":3121:3618  function pledge(uint _id, uint _amount) external {... */\n    tag_52:\n        /* \"crowd fund/crowd fund smart contract 2.sol\":3180:3205  Campaign storage campaign */\n      0x00\n        /* \"crowd fund/crowd fund smart contract 2.sol\":3208:3217  campaigns */\n      0x01\n        /* \"crowd fund/crowd fund smart contract 2.sol\":3208:3222  campaigns[_id] */\n      0x00\n        /* \"crowd fund/crowd fund smart contract 2.sol\":3218:3221  _id */\n      dup5\n        /* \"crowd fund/crowd fund smart contract 2.sol\":3208:3222  campaigns[_id] */\n      dup2\n      mstore\n      0x20\n      add\n      swap1\n      dup2\n      mstore\n      0x20\n      add\n      0x00\n      keccak256\n        /* \"crowd fund/crowd fund smart contract 2.sol\":3180:3222  Campaign storage campaign = campaigns[_id] */\n      swap1\n      pop\n        /* \"crowd fund/crowd fund smart contract 2.sol\":3259:3267  campaign */\n      dup1\n        /* \"crowd fund/crowd fund smart contract 2.sol\":3259:3275  campaign.startAt */\n      0x03\n      add\n      0x00\n      swap1\n      sload\n      swap1\n      0x0100\n      exp\n      swap1\n      div\n      0xffffffff\n      and\n        /* \"crowd fund/crowd fund smart contract 2.sol\":3240:3275  block.timestamp >= campaign.startAt */\n      0xffffffff\n      and\n        /* \"crowd fund/crowd fund smart contract 2.sol\":3240:3255  block.timestamp */\n      timestamp\n        /* \"crowd fund/crowd fund smart contract 2.sol\":3240:3275  block.timestamp >= campaign.startAt */\n      lt\n      iszero\n        /* \"crowd fund/crowd fund smart contract 2.sol\":3232:3291  require(block.timestamp >= campaign.startAt, \"not started\") */\n      tag_120\n      jumpi\n      mload(0x40)\n      0x08c379a000000000000000000000000000000000000000000000000000000000\n      dup2\n      mstore\n      0x04\n      add\n      tag_121\n      swap1\n      tag_122\n      jump\t// in\n    tag_121:\n      mload(0x40)\n      dup1\n      swap2\n      sub\n      swap1\n      revert\n    tag_120:\n        /* \"crowd fund/crowd fund smart contract 2.sol\":3328:3336  campaign */\n      dup1\n        /* \"crowd fund/crowd fund smart contract 2.sol\":3328:3342  campaign.endAt */\n      0x03\n      add\n      0x04\n      swap1\n      sload\n      swap1\n      0x0100\n      exp\n      swap1\n      div\n      0xffffffff\n      and\n        /* \"crowd fund/crowd fund smart contract 2.sol\":3309:3342  block.timestamp <= campaign.endAt */\n      0xffffffff\n      and\n        /* \"crowd fund/crowd fund smart contract 2.sol\":3309:3324  block.timestamp */\n      timestamp\n        /* \"crowd fund/crowd fund smart contract 2.sol\":3309:3342  block.timestamp <= campaign.endAt */\n      gt\n      iszero\n        /* \"crowd fund/crowd fund smart contract 2.sol\":3301:3352  require(block.timestamp <= campaign.endAt, \"ended\") */\n      tag_123\n      jumpi\n      mload(0x40)\n      0x08c379a000000000000000000000000000000000000000000000000000000000\n      dup2\n      mstore\n      0x04\n      add\n      tag_124\n      swap1\n      tag_110\n      jump\t// in\n    tag_124:\n      mload(0x40)\n      dup1\n      swap2\n      sub\n      swap1\n      revert\n    tag_123:\n        /* \"crowd fund/crowd fund smart contract 2.sol\":3441:3448  _amount */\n      dup2\n        /* \"crowd fund/crowd fund smart contract 2.sol\":3421:3429  campaign */\n      dup2\n        /* \"crowd fund/crowd fund smart contract 2.sol\":3421:3437  campaign.pledged */\n      0x02\n      add\n      0x00\n        /* \"crowd fund/crowd fund smart contract 2.sol\":3421:3448  campaign.pledged += _amount */\n      dup3\n      dup3\n      sload\n      tag_125\n      swap2\n      swap1\n      tag_76\n      jump\t// in\n    tag_125:\n      swap3\n      pop\n      pop\n      dup2\n      swap1\n      sstore\n      pop\n        /* \"crowd fund/crowd fund smart contract 2.sol\":3492:3499  _amount */\n      dup2\n        /* \"crowd fund/crowd fund smart contract 2.sol\":3458:3471  pledgedAmount */\n      0x02\n        /* \"crowd fund/crowd fund smart contract 2.sol\":3458:3476  pledgedAmount[_id] */\n      0x00\n        /* \"crowd fund/crowd fund smart contract 2.sol\":3472:3475  _id */\n      dup6\n        /* \"crowd fund/crowd fund smart contract 2.sol\":3458:3476  pledgedAmount[_id] */\n      dup2\n      mstore\n      0x20\n      add\n      swap1\n      dup2\n      mstore\n      0x20\n      add\n      0x00\n      keccak256\n        /* \"crowd fund/crowd fund smart contract 2.sol\":3458:3488  pledgedAmount[_id][msg.sender] */\n      0x00\n        /* \"crowd fund/crowd fund smart contract 2.sol\":3477:3487  msg.sender */\n      caller\n        /* \"crowd fund/crowd fund smart contract 2.sol\":3458:3488  pledgedAmount[_id][msg.sender] */\n      0xffffffffffffffffffffffffffffffffffffffff\n      and\n      0xffffffffffffffffffffffffffffffffffffffff\n      and\n      dup2\n      mstore\n      0x20\n      add\n      swap1\n      dup2\n      mstore\n      0x20\n      add\n      0x00\n      keccak256\n      0x00\n        /* \"crowd fund/crowd fund smart contract 2.sol\":3458:3499  pledgedAmount[_id][msg.sender] += _amount */\n      dup3\n      dup3\n      sload\n      tag_126\n      swap2\n      swap1\n      tag_76\n      jump\t// in\n    tag_126:\n      swap3\n      pop\n      pop\n      dup2\n      swap1\n      sstore\n      pop\n        /* \"crowd fund/crowd fund smart contract 2.sol\":3509:3514  token */\n      immutable(\"0x5392f7a671cdf89487ccf8e3646ea8f7570009490584962db6fa064c6e4ad499\")\n        /* \"crowd fund/crowd fund smart contract 2.sol\":3509:3527  token.transferFrom */\n      0xffffffffffffffffffffffffffffffffffffffff\n      and\n      0x23b872dd\n        /* \"crowd fund/crowd fund smart contract 2.sol\":3528:3538  msg.sender */\n      caller\n        /* \"crowd fund/crowd fund smart contract 2.sol\":3548:3552  this */\n      address\n        /* \"crowd fund/crowd fund smart contract 2.sol\":3555:3562  _amount */\n      dup6\n        /* \"crowd fund/crowd fund smart contract 2.sol\":3509:3563  token.transferFrom(msg.sender, address(this), _amount) */\n      mload(0x40)\n      dup5\n      0xffffffff\n      and\n      0xe0\n      shl\n      dup2\n      mstore\n      0x04\n      add\n      tag_127\n      swap4\n      swap3\n      swap2\n      swap1\n      tag_128\n      jump\t// in\n    tag_127:\n      0x20\n      mload(0x40)\n      dup1\n      dup4\n      sub\n      dup2\n      0x00\n      dup8\n      gas\n      call\n      iszero\n      dup1\n      iszero\n      tag_130\n      jumpi\n      returndatasize\n      0x00\n      dup1\n      returndatacopy\n      revert(0x00, returndatasize)\n    tag_130:\n      pop\n      pop\n      pop\n      pop\n      mload(0x40)\n      returndatasize\n      not(0x1f)\n      0x1f\n      dup3\n      add\n      and\n      dup3\n      add\n      dup1\n      0x40\n      mstore\n      pop\n      dup2\n      add\n      swap1\n      tag_131\n      swap2\n      swap1\n      tag_65\n      jump\t// in\n    tag_131:\n      pop\n        /* \"crowd fund/crowd fund smart contract 2.sol\":3591:3601  msg.sender */\n      caller\n        /* \"crowd fund/crowd fund smart contract 2.sol\":3579:3611  Pledge(_id, msg.sender, _amount) */\n      0xffffffffffffffffffffffffffffffffffffffff\n      and\n        /* \"crowd fund/crowd fund smart contract 2.sol\":3586:3589  _id */\n      dup4\n        /* \"crowd fund/crowd fund smart contract 2.sol\":3579:3611  Pledge(_id, msg.sender, _amount) */\n      0x06bdb975df800a73232998e71ed585d536222f1dfeaa622d7f62a23ada686c82\n        /* \"crowd fund/crowd fund smart contract 2.sol\":3603:3610  _amount */\n      dup5\n        /* \"crowd fund/crowd fund smart contract 2.sol\":3579:3611  Pledge(_id, msg.sender, _amount) */\n      mload(0x40)\n      tag_132\n      swap2\n      swap1\n      tag_17\n      jump\t// in\n    tag_132:\n      mload(0x40)\n      dup1\n      swap2\n      sub\n      swap1\n      log3\n        /* \"crowd fund/crowd fund smart contract 2.sol\":3170:3618  {... */\n      pop\n        /* \"crowd fund/crowd fund smart contract 2.sol\":3121:3618  function pledge(uint _id, uint _amount) external {... */\n      pop\n      pop\n      jump\t// out\n        /* \"#utility.yul\":7:84   */\n    tag_133:\n        /* \"#utility.yul\":44:51   */\n      0x00\n        /* \"#utility.yul\":73:78   */\n      dup2\n        /* \"#utility.yul\":62:78   */\n      swap1\n      pop\n        /* \"#utility.yul\":7:84   */\n      swap2\n      swap1\n      pop\n      jump\t// out\n        /* \"#utility.yul\":90:208   */\n    tag_134:\n        /* \"#utility.yul\":177:201   */\n      tag_185\n        /* \"#utility.yul\":195:200   */\n      dup2\n        /* \"#utility.yul\":177:201   */\n      tag_133\n      jump\t// in\n    tag_185:\n        /* \"#utility.yul\":172:175   */\n      dup3\n        /* \"#utility.yul\":165:202   */\n      mstore\n        /* \"#utility.yul\":90:208   */\n      pop\n      pop\n      jump\t// out\n        /* \"#utility.yul\":214:436   */\n    tag_17:\n        /* \"#utility.yul\":307:311   */\n      0x00\n        /* \"#utility.yul\":345:347   */\n      0x20\n        /* \"#utility.yul\":334:343   */\n      dup3\n        /* \"#utility.yul\":330:348   */\n      add\n        /* \"#utility.yul\":322:348   */\n      swap1\n      pop\n        /* \"#utility.yul\":358:429   */\n      tag_187\n        /* \"#utility.yul\":426:427   */\n      0x00\n        /* \"#utility.yul\":415:424   */\n      dup4\n        /* \"#utility.yul\":411:428   */\n      add\n        /* \"#utility.yul\":402:408   */\n      dup5\n        /* \"#utility.yul\":358:429   */\n      tag_134\n      jump\t// in\n    tag_187:\n        /* \"#utility.yul\":214:436   */\n      swap3\n      swap2\n      pop\n      pop\n      jump\t// out\n        /* \"#utility.yul\":523:640   */\n    tag_136:\n        /* \"#utility.yul\":632:633   */\n      0x00\n        /* \"#utility.yul\":629:630   */\n      dup1\n        /* \"#utility.yul\":622:634   */\n      revert\n        /* \"#utility.yul\":769:891   */\n    tag_138:\n        /* \"#utility.yul\":842:866   */\n      tag_192\n        /* \"#utility.yul\":860:865   */\n      dup2\n        /* \"#utility.yul\":842:866   */\n      tag_133\n      jump\t// in\n    tag_192:\n        /* \"#utility.yul\":835:840   */\n      dup2\n        /* \"#utility.yul\":832:867   */\n      eq\n        /* \"#utility.yul\":822:885   */\n      tag_193\n      jumpi\n        /* \"#utility.yul\":881:882   */\n      0x00\n        /* \"#utility.yul\":878:879   */\n      dup1\n        /* \"#utility.yul\":871:883   */\n      revert\n        /* \"#utility.yul\":822:885   */\n    tag_193:\n        /* \"#utility.yul\":769:891   */\n      pop\n      jump\t// out\n        /* \"#utility.yul\":897:1036   */\n    tag_139:\n        /* \"#utility.yul\":943:948   */\n      0x00\n        /* \"#utility.yul\":981:987   */\n      dup2\n        /* \"#utility.yul\":968:988   */\n      calldataload\n        /* \"#utility.yul\":959:988   */\n      swap1\n      pop\n        /* \"#utility.yul\":997:1030   */\n      tag_195\n        /* \"#utility.yul\":1024:1029   */\n      dup2\n        /* \"#utility.yul\":997:1030   */\n      tag_138\n      jump\t// in\n    tag_195:\n        /* \"#utility.yul\":897:1036   */\n      swap3\n      swap2\n      pop\n      pop\n      jump\t// out\n        /* \"#utility.yul\":1042:1371   */\n    tag_20:\n        /* \"#utility.yul\":1101:1107   */\n      0x00\n        /* \"#utility.yul\":1150:1152   */\n      0x20\n        /* \"#utility.yul\":1138:1147   */\n      dup3\n        /* \"#utility.yul\":1129:1136   */\n      dup5\n        /* \"#utility.yul\":1125:1148   */\n      sub\n        /* \"#utility.yul\":1121:1153   */\n      slt\n        /* \"#utility.yul\":1118:1237   */\n      iszero\n      tag_197\n      jumpi\n        /* \"#utility.yul\":1156:1235   */\n      tag_198\n      tag_136\n      jump\t// in\n    tag_198:\n        /* \"#utility.yul\":1118:1237   */\n    tag_197:\n        /* \"#utility.yul\":1276:1277   */\n      0x00\n        /* \"#utility.yul\":1301:1354   */\n      tag_199\n        /* \"#utility.yul\":1346:1353   */\n      dup5\n        /* \"#utility.yul\":1337:1343   */\n      dup3\n        /* \"#utility.yul\":1326:1335   */\n      dup6\n        /* \"#utility.yul\":1322:1344   */\n      add\n        /* \"#utility.yul\":1301:1354   */\n      tag_139\n      jump\t// in\n    tag_199:\n        /* \"#utility.yul\":1291:1354   */\n      swap2\n      pop\n        /* \"#utility.yul\":1247:1364   */\n      pop\n        /* \"#utility.yul\":1042:1371   */\n      swap3\n      swap2\n      pop\n      pop\n      jump\t// out\n        /* \"#utility.yul\":1377:1503   */\n    tag_140:\n        /* \"#utility.yul\":1414:1421   */\n      0x00\n        /* \"#utility.yul\":1454:1496   */\n      0xffffffffffffffffffffffffffffffffffffffff\n        /* \"#utility.yul\":1447:1452   */\n      dup3\n        /* \"#utility.yul\":1443:1497   */\n      and\n        /* \"#utility.yul\":1432:1497   */\n      swap1\n      pop\n        /* \"#utility.yul\":1377:1503   */\n      swap2\n      swap1\n      pop\n      jump\t// out\n        /* \"#utility.yul\":1509:1605   */\n    tag_141:\n        /* \"#utility.yul\":1546:1553   */\n      0x00\n        /* \"#utility.yul\":1575:1599   */\n      tag_202\n        /* \"#utility.yul\":1593:1598   */\n      dup3\n        /* \"#utility.yul\":1575:1599   */\n      tag_140\n      jump\t// in\n    tag_202:\n        /* \"#utility.yul\":1564:1599   */\n      swap1\n      pop\n        /* \"#utility.yul\":1509:1605   */\n      swap2\n      swap1\n      pop\n      jump\t// out\n        /* \"#utility.yul\":1611:1729   */\n    tag_142:\n        /* \"#utility.yul\":1698:1722   */\n      tag_204\n        /* \"#utility.yul\":1716:1721   */\n      dup2\n        /* \"#utility.yul\":1698:1722   */\n      tag_141\n      jump\t// in\n    tag_204:\n        /* \"#utility.yul\":1693:1696   */\n      dup3\n        /* \"#utility.yul\":1686:1723   */\n      mstore\n        /* \"#utility.yul\":1611:1729   */\n      pop\n      pop\n      jump\t// out\n        /* \"#utility.yul\":1735:1828   */\n    tag_143:\n        /* \"#utility.yul\":1771:1778   */\n      0x00\n        /* \"#utility.yul\":1811:1821   */\n      0xffffffff\n        /* \"#utility.yul\":1804:1809   */\n      dup3\n        /* \"#utility.yul\":1800:1822   */\n      and\n        /* \"#utility.yul\":1789:1822   */\n      swap1\n      pop\n        /* \"#utility.yul\":1735:1828   */\n      swap2\n      swap1\n      pop\n      jump\t// out\n        /* \"#utility.yul\":1834:1949   */\n    tag_144:\n        /* \"#utility.yul\":1919:1942   */\n      tag_207\n        /* \"#utility.yul\":1936:1941   */\n      dup2\n        /* \"#utility.yul\":1919:1942   */\n      tag_143\n      jump\t// in\n    tag_207:\n        /* \"#utility.yul\":1914:1917   */\n      dup3\n        /* \"#utility.yul\":1907:1943   */\n      mstore\n        /* \"#utility.yul\":1834:1949   */\n      pop\n      pop\n      jump\t// out\n        /* \"#utility.yul\":1955:2045   */\n    tag_145:\n        /* \"#utility.yul\":1989:1996   */\n      0x00\n        /* \"#utility.yul\":2032:2037   */\n      dup2\n        /* \"#utility.yul\":2025:2038   */\n      iszero\n        /* \"#utility.yul\":2018:2039   */\n      iszero\n        /* \"#utility.yul\":2007:2039   */\n      swap1\n      pop\n        /* \"#utility.yul\":1955:2045   */\n      swap2\n      swap1\n      pop\n      jump\t// out\n        /* \"#utility.yul\":2051:2160   */\n    tag_146:\n        /* \"#utility.yul\":2132:2153   */\n      tag_210\n        /* \"#utility.yul\":2147:2152   */\n      dup2\n        /* \"#utility.yul\":2132:2153   */\n      tag_145\n      jump\t// in\n    tag_210:\n        /* \"#utility.yul\":2127:2130   */\n      dup3\n        /* \"#utility.yul\":2120:2154   */\n      mstore\n        /* \"#utility.yul\":2051:2160   */\n      pop\n      pop\n      jump\t// out\n        /* \"#utility.yul\":2166:2921   */\n    tag_23:\n        /* \"#utility.yul\":2389:2393   */\n      0x00\n        /* \"#utility.yul\":2427:2430   */\n      0xc0\n        /* \"#utility.yul\":2416:2425   */\n      dup3\n        /* \"#utility.yul\":2412:2431   */\n      add\n        /* \"#utility.yul\":2404:2431   */\n      swap1\n      pop\n        /* \"#utility.yul\":2441:2512   */\n      tag_212\n        /* \"#utility.yul\":2509:2510   */\n      0x00\n        /* \"#utility.yul\":2498:2507   */\n      dup4\n        /* \"#utility.yul\":2494:2511   */\n      add\n        /* \"#utility.yul\":2485:2491   */\n      dup10\n        /* \"#utility.yul\":2441:2512   */\n      tag_142\n      jump\t// in\n    tag_212:\n        /* \"#utility.yul\":2522:2594   */\n      tag_213\n        /* \"#utility.yul\":2590:2592   */\n      0x20\n        /* \"#utility.yul\":2579:2588   */\n      dup4\n        /* \"#utility.yul\":2575:2593   */\n      add\n        /* \"#utility.yul\":2566:2572   */\n      dup9\n        /* \"#utility.yul\":2522:2594   */\n      tag_134\n      jump\t// in\n    tag_213:\n        /* \"#utility.yul\":2604:2676   */\n      tag_214\n        /* \"#utility.yul\":2672:2674   */\n      0x40\n        /* \"#utility.yul\":2661:2670   */\n      dup4\n        /* \"#utility.yul\":2657:2675   */\n      add\n        /* \"#utility.yul\":2648:2654   */\n      dup8\n        /* \"#utility.yul\":2604:2676   */\n      tag_134\n      jump\t// in\n    tag_214:\n        /* \"#utility.yul\":2686:2756   */\n      tag_215\n        /* \"#utility.yul\":2752:2754   */\n      0x60\n        /* \"#utility.yul\":2741:2750   */\n      dup4\n        /* \"#utility.yul\":2737:2755   */\n      add\n        /* \"#utility.yul\":2728:2734   */\n      dup7\n        /* \"#utility.yul\":2686:2756   */\n      tag_144\n      jump\t// in\n    tag_215:\n        /* \"#utility.yul\":2766:2837   */\n      tag_216\n        /* \"#utility.yul\":2832:2835   */\n      0x80\n        /* \"#utility.yul\":2821:2830   */\n      dup4\n        /* \"#utility.yul\":2817:2836   */\n      add\n        /* \"#utility.yul\":2808:2814   */\n      dup6\n        /* \"#utility.yul\":2766:2837   */\n      tag_144\n      jump\t// in\n    tag_216:\n        /* \"#utility.yul\":2847:2914   */\n      tag_217\n        /* \"#utility.yul\":2909:2912   */\n      0xa0\n        /* \"#utility.yul\":2898:2907   */\n      dup4\n        /* \"#utility.yul\":2894:2913   */\n      add\n        /* \"#utility.yul\":2885:2891   */\n      dup5\n        /* \"#utility.yul\":2847:2914   */\n      tag_146\n      jump\t// in\n    tag_217:\n        /* \"#utility.yul\":2166:2921   */\n      swap8\n      swap7\n      pop\n      pop\n      pop\n      pop\n      pop\n      pop\n      pop\n      jump\t// out\n        /* \"#utility.yul\":2927:3047   */\n    tag_147:\n        /* \"#utility.yul\":2999:3022   */\n      tag_219\n        /* \"#utility.yul\":3016:3021   */\n      dup2\n        /* \"#utility.yul\":2999:3022   */\n      tag_143\n      jump\t// in\n    tag_219:\n        /* \"#utility.yul\":2992:2997   */\n      dup2\n        /* \"#utility.yul\":2989:3023   */\n      eq\n        /* \"#utility.yul\":2979:3041   */\n      tag_220\n      jumpi\n        /* \"#utility.yul\":3037:3038   */\n      0x00\n        /* \"#utility.yul\":3034:3035   */\n      dup1\n        /* \"#utility.yul\":3027:3039   */\n      revert\n        /* \"#utility.yul\":2979:3041   */\n    tag_220:\n        /* \"#utility.yul\":2927:3047   */\n      pop\n      jump\t// out\n        /* \"#utility.yul\":3053:3190   */\n    tag_148:\n        /* \"#utility.yul\":3098:3103   */\n      0x00\n        /* \"#utility.yul\":3136:3142   */\n      dup2\n        /* \"#utility.yul\":3123:3143   */\n      calldataload\n        /* \"#utility.yul\":3114:3143   */\n      swap1\n      pop\n        /* \"#utility.yul\":3152:3184   */\n      tag_222\n        /* \"#utility.yul\":3178:3183   */\n      dup2\n        /* \"#utility.yul\":3152:3184   */\n      tag_147\n      jump\t// in\n    tag_222:\n        /* \"#utility.yul\":3053:3190   */\n      swap3\n      swap2\n      pop\n      pop\n      jump\t// out\n        /* \"#utility.yul\":3196:3811   */\n    tag_29:\n        /* \"#utility.yul\":3271:3277   */\n      0x00\n        /* \"#utility.yul\":3279:3285   */\n      dup1\n        /* \"#utility.yul\":3287:3293   */\n      0x00\n        /* \"#utility.yul\":3336:3338   */\n      0x60\n        /* \"#utility.yul\":3324:3333   */\n      dup5\n        /* \"#utility.yul\":3315:3322   */\n      dup7\n        /* \"#utility.yul\":3311:3334   */\n      sub\n        /* \"#utility.yul\":3307:3339   */\n      slt\n        /* \"#utility.yul\":3304:3423   */\n      iszero\n      tag_224\n      jumpi\n        /* \"#utility.yul\":3342:3421   */\n      tag_225\n      tag_136\n      jump\t// in\n    tag_225:\n        /* \"#utility.yul\":3304:3423   */\n    tag_224:\n        /* \"#utility.yul\":3462:3463   */\n      0x00\n        /* \"#utility.yul\":3487:3540   */\n      tag_226\n        /* \"#utility.yul\":3532:3539   */\n      dup7\n        /* \"#utility.yul\":3523:3529   */\n      dup3\n        /* \"#utility.yul\":3512:3521   */\n      dup8\n        /* \"#utility.yul\":3508:3530   */\n      add\n        /* \"#utility.yul\":3487:3540   */\n      tag_139\n      jump\t// in\n    tag_226:\n        /* \"#utility.yul\":3477:3540   */\n      swap4\n      pop\n        /* \"#utility.yul\":3433:3550   */\n      pop\n        /* \"#utility.yul\":3589:3591   */\n      0x20\n        /* \"#utility.yul\":3615:3667   */\n      tag_227\n        /* \"#utility.yul\":3659:3666   */\n      dup7\n        /* \"#utility.yul\":3650:3656   */\n      dup3\n        /* \"#utility.yul\":3639:3648   */\n      dup8\n        /* \"#utility.yul\":3635:3657   */\n      add\n        /* \"#utility.yul\":3615:3667   */\n      tag_148\n      jump\t// in\n    tag_227:\n        /* \"#utility.yul\":3605:3667   */\n      swap3\n      pop\n        /* \"#utility.yul\":3560:3677   */\n      pop\n        /* \"#utility.yul\":3716:3718   */\n      0x40\n        /* \"#utility.yul\":3742:3794   */\n      tag_228\n        /* \"#utility.yul\":3786:3793   */\n      dup7\n        /* \"#utility.yul\":3777:3783   */\n      dup3\n        /* \"#utility.yul\":3766:3775   */\n      dup8\n        /* \"#utility.yul\":3762:3784   */\n      add\n        /* \"#utility.yul\":3742:3794   */\n      tag_148\n      jump\t// in\n    tag_228:\n        /* \"#utility.yul\":3732:3794   */\n      swap2\n      pop\n        /* \"#utility.yul\":3687:3804   */\n      pop\n        /* \"#utility.yul\":3196:3811   */\n      swap3\n      pop\n      swap3\n      pop\n      swap3\n      jump\t// out\n        /* \"#utility.yul\":3817:4291   */\n    tag_39:\n        /* \"#utility.yul\":3885:3891   */\n      0x00\n        /* \"#utility.yul\":3893:3899   */\n      dup1\n        /* \"#utility.yul\":3942:3944   */\n      0x40\n        /* \"#utility.yul\":3930:3939   */\n      dup4\n        /* \"#utility.yul\":3921:3928   */\n      dup6\n        /* \"#utility.yul\":3917:3940   */\n      sub\n        /* \"#utility.yul\":3913:3945   */\n      slt\n        /* \"#utility.yul\":3910:4029   */\n      iszero\n      tag_230\n      jumpi\n        /* \"#utility.yul\":3948:4027   */\n      tag_231\n      tag_136\n      jump\t// in\n    tag_231:\n        /* \"#utility.yul\":3910:4029   */\n    tag_230:\n        /* \"#utility.yul\":4068:4069   */\n      0x00\n        /* \"#utility.yul\":4093:4146   */\n      tag_232\n        /* \"#utility.yul\":4138:4145   */\n      dup6\n        /* \"#utility.yul\":4129:4135   */\n      dup3\n        /* \"#utility.yul\":4118:4127   */\n      dup7\n        /* \"#utility.yul\":4114:4136   */\n      add\n        /* \"#utility.yul\":4093:4146   */\n      tag_139\n      jump\t// in\n    tag_232:\n        /* \"#utility.yul\":4083:4146   */\n      swap3\n      pop\n        /* \"#utility.yul\":4039:4156   */\n      pop\n        /* \"#utility.yul\":4195:4197   */\n      0x20\n        /* \"#utility.yul\":4221:4274   */\n      tag_233\n        /* \"#utility.yul\":4266:4273   */\n      dup6\n        /* \"#utility.yul\":4257:4263   */\n      dup3\n        /* \"#utility.yul\":4246:4255   */\n      dup7\n        /* \"#utility.yul\":4242:4264   */\n      add\n        /* \"#utility.yul\":4221:4274   */\n      tag_139\n      jump\t// in\n    tag_233:\n        /* \"#utility.yul\":4211:4274   */\n      swap2\n      pop\n        /* \"#utility.yul\":4166:4284   */\n      pop\n        /* \"#utility.yul\":3817:4291   */\n      swap3\n      pop\n      swap3\n      swap1\n      pop\n      jump\t// out\n        /* \"#utility.yul\":4297:4419   */\n    tag_149:\n        /* \"#utility.yul\":4370:4394   */\n      tag_235\n        /* \"#utility.yul\":4388:4393   */\n      dup2\n        /* \"#utility.yul\":4370:4394   */\n      tag_141\n      jump\t// in\n    tag_235:\n        /* \"#utility.yul\":4363:4368   */\n      dup2\n        /* \"#utility.yul\":4360:4395   */\n      eq\n        /* \"#utility.yul\":4350:4413   */\n      tag_236\n      jumpi\n        /* \"#utility.yul\":4409:4410   */\n      0x00\n        /* \"#utility.yul\":4406:4407   */\n      dup1\n        /* \"#utility.yul\":4399:4411   */\n      revert\n        /* \"#utility.yul\":4350:4413   */\n    tag_236:\n        /* \"#utility.yul\":4297:4419   */\n      pop\n      jump\t// out\n        /* \"#utility.yul\":4425:4564   */\n    tag_150:\n        /* \"#utility.yul\":4471:4476   */\n      0x00\n        /* \"#utility.yul\":4509:4515   */\n      dup2\n        /* \"#utility.yul\":4496:4516   */\n      calldataload\n        /* \"#utility.yul\":4487:4516   */\n      swap1\n      pop\n        /* \"#utility.yul\":4525:4558   */\n      tag_238\n        /* \"#utility.yul\":4552:4557   */\n      dup2\n        /* \"#utility.yul\":4525:4558   */\n      tag_149\n      jump\t// in\n    tag_238:\n        /* \"#utility.yul\":4425:4564   */\n      swap3\n      swap2\n      pop\n      pop\n      jump\t// out\n        /* \"#utility.yul\":4570:5044   */\n    tag_43:\n        /* \"#utility.yul\":4638:4644   */\n      0x00\n        /* \"#utility.yul\":4646:4652   */\n      dup1\n        /* \"#utility.yul\":4695:4697   */\n      0x40\n        /* \"#utility.yul\":4683:4692   */\n      dup4\n        /* \"#utility.yul\":4674:4681   */\n      dup6\n        /* \"#utility.yul\":4670:4693   */\n      sub\n        /* \"#utility.yul\":4666:4698   */\n      slt\n        /* \"#utility.yul\":4663:4782   */\n      iszero\n      tag_240\n      jumpi\n        /* \"#utility.yul\":4701:4780   */\n      tag_241\n      tag_136\n      jump\t// in\n    tag_241:\n        /* \"#utility.yul\":4663:4782   */\n    tag_240:\n        /* \"#utility.yul\":4821:4822   */\n      0x00\n        /* \"#utility.yul\":4846:4899   */\n      tag_242\n        /* \"#utility.yul\":4891:4898   */\n      dup6\n        /* \"#utility.yul\":4882:4888   */\n      dup3\n        /* \"#utility.yul\":4871:4880   */\n      dup7\n        /* \"#utility.yul\":4867:4889   */\n      add\n        /* \"#utility.yul\":4846:4899   */\n      tag_139\n      jump\t// in\n    tag_242:\n        /* \"#utility.yul\":4836:4899   */\n      swap3\n      pop\n        /* \"#utility.yul\":4792:4909   */\n      pop\n        /* \"#utility.yul\":4948:4950   */\n      0x20\n        /* \"#utility.yul\":4974:5027   */\n      tag_243\n        /* \"#utility.yul\":5019:5026   */\n      dup6\n        /* \"#utility.yul\":5010:5016   */\n      dup3\n        /* \"#utility.yul\":4999:5008   */\n      dup7\n        /* \"#utility.yul\":4995:5017   */\n      add\n        /* \"#utility.yul\":4974:5027   */\n      tag_150\n      jump\t// in\n    tag_243:\n        /* \"#utility.yul\":4964:5027   */\n      swap2\n      pop\n        /* \"#utility.yul\":4919:5037   */\n      pop\n        /* \"#utility.yul\":4570:5044   */\n      swap3\n      pop\n      swap3\n      swap1\n      pop\n      jump\t// out\n        /* \"#utility.yul\":5050:5110   */\n    tag_151:\n        /* \"#utility.yul\":5078:5081   */\n      0x00\n        /* \"#utility.yul\":5099:5104   */\n      dup2\n        /* \"#utility.yul\":5092:5104   */\n      swap1\n      pop\n        /* \"#utility.yul\":5050:5110   */\n      swap2\n      swap1\n      pop\n      jump\t// out\n        /* \"#utility.yul\":5116:5258   */\n    tag_152:\n        /* \"#utility.yul\":5166:5175   */\n      0x00\n        /* \"#utility.yul\":5199:5252   */\n      tag_246\n        /* \"#utility.yul\":5217:5251   */\n      tag_247\n        /* \"#utility.yul\":5226:5250   */\n      tag_248\n        /* \"#utility.yul\":5244:5249   */\n      dup5\n        /* \"#utility.yul\":5226:5250   */\n      tag_140\n      jump\t// in\n    tag_248:\n        /* \"#utility.yul\":5217:5251   */\n      tag_151\n      jump\t// in\n    tag_247:\n        /* \"#utility.yul\":5199:5252   */\n      tag_140\n      jump\t// in\n    tag_246:\n        /* \"#utility.yul\":5186:5252   */\n      swap1\n      pop\n        /* \"#utility.yul\":5116:5258   */\n      swap2\n      swap1\n      pop\n      jump\t// out\n        /* \"#utility.yul\":5264:5390   */\n    tag_153:\n        /* \"#utility.yul\":5314:5323   */\n      0x00\n        /* \"#utility.yul\":5347:5384   */\n      tag_250\n        /* \"#utility.yul\":5378:5383   */\n      dup3\n        /* \"#utility.yul\":5347:5384   */\n      tag_152\n      jump\t// in\n    tag_250:\n        /* \"#utility.yul\":5334:5384   */\n      swap1\n      pop\n        /* \"#utility.yul\":5264:5390   */\n      swap2\n      swap1\n      pop\n      jump\t// out\n        /* \"#utility.yul\":5396:5535   */\n    tag_154:\n        /* \"#utility.yul\":5459:5468   */\n      0x00\n        /* \"#utility.yul\":5492:5529   */\n      tag_252\n        /* \"#utility.yul\":5523:5528   */\n      dup3\n        /* \"#utility.yul\":5492:5529   */\n      tag_153\n      jump\t// in\n    tag_252:\n        /* \"#utility.yul\":5479:5529   */\n      swap1\n      pop\n        /* \"#utility.yul\":5396:5535   */\n      swap2\n      swap1\n      pop\n      jump\t// out\n        /* \"#utility.yul\":5541:5698   */\n    tag_155:\n        /* \"#utility.yul\":5641:5691   */\n      tag_254\n        /* \"#utility.yul\":5685:5690   */\n      dup2\n        /* \"#utility.yul\":5641:5691   */\n      tag_154\n      jump\t// in\n    tag_254:\n        /* \"#utility.yul\":5636:5639   */\n      dup3\n        /* \"#utility.yul\":5629:5692   */\n      mstore\n        /* \"#utility.yul\":5541:5698   */\n      pop\n      pop\n      jump\t// out\n        /* \"#utility.yul\":5704:5952   */\n    tag_49:\n        /* \"#utility.yul\":5810:5814   */\n      0x00\n        /* \"#utility.yul\":5848:5850   */\n      0x20\n        /* \"#utility.yul\":5837:5846   */\n      dup3\n        /* \"#utility.yul\":5833:5851   */\n      add\n        /* \"#utility.yul\":5825:5851   */\n      swap1\n      pop\n        /* \"#utility.yul\":5861:5945   */\n      tag_256\n        /* \"#utility.yul\":5942:5943   */\n      0x00\n        /* \"#utility.yul\":5931:5940   */\n      dup4\n        /* \"#utility.yul\":5927:5944   */\n      add\n        /* \"#utility.yul\":5918:5924   */\n      dup5\n        /* \"#utility.yul\":5861:5945   */\n      tag_155\n      jump\t// in\n    tag_256:\n        /* \"#utility.yul\":5704:5952   */\n      swap3\n      swap2\n      pop\n      pop\n      jump\t// out\n        /* \"#utility.yul\":5958:6127   */\n    tag_156:\n        /* \"#utility.yul\":6042:6053   */\n      0x00\n        /* \"#utility.yul\":6076:6082   */\n      dup3\n        /* \"#utility.yul\":6071:6074   */\n      dup3\n        /* \"#utility.yul\":6064:6083   */\n      mstore\n        /* \"#utility.yul\":6116:6120   */\n      0x20\n        /* \"#utility.yul\":6111:6114   */\n      dup3\n        /* \"#utility.yul\":6107:6121   */\n      add\n        /* \"#utility.yul\":6092:6121   */\n      swap1\n      pop\n        /* \"#utility.yul\":5958:6127   */\n      swap3\n      swap2\n      pop\n      pop\n      jump\t// out\n        /* \"#utility.yul\":6133:6292   */\n    tag_157:\n        /* \"#utility.yul\":6273:6284   */\n      0x6e6f7420656e6465640000000000000000000000000000000000000000000000\n        /* \"#utility.yul\":6269:6270   */\n      0x00\n        /* \"#utility.yul\":6261:6267   */\n      dup3\n        /* \"#utility.yul\":6257:6271   */\n      add\n        /* \"#utility.yul\":6250:6285   */\n      mstore\n        /* \"#utility.yul\":6133:6292   */\n      pop\n      jump\t// out\n        /* \"#utility.yul\":6298:6663   */\n    tag_158:\n        /* \"#utility.yul\":6440:6443   */\n      0x00\n        /* \"#utility.yul\":6461:6527   */\n      tag_260\n        /* \"#utility.yul\":6525:6526   */\n      0x09\n        /* \"#utility.yul\":6520:6523   */\n      dup4\n        /* \"#utility.yul\":6461:6527   */\n      tag_156\n      jump\t// in\n    tag_260:\n        /* \"#utility.yul\":6454:6527   */\n      swap2\n      pop\n        /* \"#utility.yul\":6536:6629   */\n      tag_261\n        /* \"#utility.yul\":6625:6628   */\n      dup3\n        /* \"#utility.yul\":6536:6629   */\n      tag_157\n      jump\t// in\n    tag_261:\n        /* \"#utility.yul\":6654:6656   */\n      0x20\n        /* \"#utility.yul\":6649:6652   */\n      dup3\n        /* \"#utility.yul\":6645:6657   */\n      add\n        /* \"#utility.yul\":6638:6657   */\n      swap1\n      pop\n        /* \"#utility.yul\":6298:6663   */\n      swap2\n      swap1\n      pop\n      jump\t// out\n        /* \"#utility.yul\":6669:7088   */\n    tag_56:\n        /* \"#utility.yul\":6835:6839   */\n      0x00\n        /* \"#utility.yul\":6873:6875   */\n      0x20\n        /* \"#utility.yul\":6862:6871   */\n      dup3\n        /* \"#utility.yul\":6858:6876   */\n      add\n        /* \"#utility.yul\":6850:6876   */\n      swap1\n      pop\n        /* \"#utility.yul\":6922:6931   */\n      dup2\n        /* \"#utility.yul\":6916:6920   */\n      dup2\n        /* \"#utility.yul\":6912:6932   */\n      sub\n        /* \"#utility.yul\":6908:6909   */\n      0x00\n        /* \"#utility.yul\":6897:6906   */\n      dup4\n        /* \"#utility.yul\":6893:6910   */\n      add\n        /* \"#utility.yul\":6886:6933   */\n      mstore\n        /* \"#utility.yul\":6950:7081   */\n      tag_263\n        /* \"#utility.yul\":7076:7080   */\n      dup2\n        /* \"#utility.yul\":6950:7081   */\n      tag_158\n      jump\t// in\n    tag_263:\n        /* \"#utility.yul\":6942:7081   */\n      swap1\n      pop\n        /* \"#utility.yul\":6669:7088   */\n      swap2\n      swap1\n      pop\n      jump\t// out\n        /* \"#utility.yul\":7094:7259   */\n    tag_159:\n        /* \"#utility.yul\":7234:7251   */\n      0x706c6564676564203e3d20676f616c0000000000000000000000000000000000\n        /* \"#utility.yul\":7230:7231   */\n      0x00\n        /* \"#utility.yul\":7222:7228   */\n      dup3\n        /* \"#utility.yul\":7218:7232   */\n      add\n        /* \"#utility.yul\":7211:7252   */\n      mstore\n        /* \"#utility.yul\":7094:7259   */\n      pop\n      jump\t// out\n        /* \"#utility.yul\":7265:7631   */\n    tag_160:\n        /* \"#utility.yul\":7407:7410   */\n      0x00\n        /* \"#utility.yul\":7428:7495   */\n      tag_266\n        /* \"#utility.yul\":7492:7494   */\n      0x0f\n        /* \"#utility.yul\":7487:7490   */\n      dup4\n        /* \"#utility.yul\":7428:7495   */\n      tag_156\n      jump\t// in\n    tag_266:\n        /* \"#utility.yul\":7421:7495   */\n      swap2\n      pop\n        /* \"#utility.yul\":7504:7597   */\n      tag_267\n        /* \"#utility.yul\":7593:7596   */\n      dup3\n        /* \"#utility.yul\":7504:7597   */\n      tag_159\n      jump\t// in\n    tag_267:\n        /* \"#utility.yul\":7622:7624   */\n      0x20\n        /* \"#utility.yul\":7617:7620   */\n      dup3\n        /* \"#utility.yul\":7613:7625   */\n      add\n        /* \"#utility.yul\":7606:7625   */\n      swap1\n      pop\n        /* \"#utility.yul\":7265:7631   */\n      swap2\n      swap1\n      pop\n      jump\t// out\n        /* \"#utility.yul\":7637:8056   */\n    tag_59:\n        /* \"#utility.yul\":7803:7807   */\n      0x00\n        /* \"#utility.yul\":7841:7843   */\n      0x20\n        /* \"#utility.yul\":7830:7839   */\n      dup3\n        /* \"#utility.yul\":7826:7844   */\n      add\n        /* \"#utility.yul\":7818:7844   */\n      swap1\n      pop\n        /* \"#utility.yul\":7890:7899   */\n      dup2\n        /* \"#utility.yul\":7884:7888   */\n      dup2\n        /* \"#utility.yul\":7880:7900   */\n      sub\n        /* \"#utility.yul\":7876:7877   */\n      0x00\n        /* \"#utility.yul\":7865:7874   */\n      dup4\n        /* \"#utility.yul\":7861:7878   */\n      add\n        /* \"#utility.yul\":7854:7901   */\n      mstore\n        /* \"#utility.yul\":7918:8049   */\n      tag_269\n        /* \"#utility.yul\":8044:8048   */\n      dup2\n        /* \"#utility.yul\":7918:8049   */\n      tag_160\n      jump\t// in\n    tag_269:\n        /* \"#utility.yul\":7910:8049   */\n      swap1\n      pop\n        /* \"#utility.yul\":7637:8056   */\n      swap2\n      swap1\n      pop\n      jump\t// out\n        /* \"#utility.yul\":8062:8394   */\n    tag_61:\n        /* \"#utility.yul\":8183:8187   */\n      0x00\n        /* \"#utility.yul\":8221:8223   */\n      0x40\n        /* \"#utility.yul\":8210:8219   */\n      dup3\n        /* \"#utility.yul\":8206:8224   */\n      add\n        /* \"#utility.yul\":8198:8224   */\n      swap1\n      pop\n        /* \"#utility.yul\":8234:8305   */\n      tag_271\n        /* \"#utility.yul\":8302:8303   */\n      0x00\n        /* \"#utility.yul\":8291:8300   */\n      dup4\n        /* \"#utility.yul\":8287:8304   */\n      add\n        /* \"#utility.yul\":8278:8284   */\n      dup6\n        /* \"#utility.yul\":8234:8305   */\n      tag_142\n      jump\t// in\n    tag_271:\n        /* \"#utility.yul\":8315:8387   */\n      tag_272\n        /* \"#utility.yul\":8383:8385   */\n      0x20\n        /* \"#utility.yul\":8372:8381   */\n      dup4\n        /* \"#utility.yul\":8368:8386   */\n      add\n        /* \"#utility.yul\":8359:8365   */\n      dup5\n        /* \"#utility.yul\":8315:8387   */\n      tag_134\n      jump\t// in\n    tag_272:\n        /* \"#utility.yul\":8062:8394   */\n      swap4\n      swap3\n      pop\n      pop\n      pop\n      jump\t// out\n        /* \"#utility.yul\":8400:8516   */\n    tag_161:\n        /* \"#utility.yul\":8470:8491   */\n      tag_274\n        /* \"#utility.yul\":8485:8490   */\n      dup2\n        /* \"#utility.yul\":8470:8491   */\n      tag_145\n      jump\t// in\n    tag_274:\n        /* \"#utility.yul\":8463:8468   */\n      dup2\n        /* \"#utility.yul\":8460:8492   */\n      eq\n        /* \"#utility.yul\":8450:8510   */\n      tag_275\n      jumpi\n        /* \"#utility.yul\":8506:8507   */\n      0x00\n        /* \"#utility.yul\":8503:8504   */\n      dup1\n        /* \"#utility.yul\":8496:8508   */\n      revert\n        /* \"#utility.yul\":8450:8510   */\n    tag_275:\n        /* \"#utility.yul\":8400:8516   */\n      pop\n      jump\t// out\n        /* \"#utility.yul\":8522:8659   */\n    tag_162:\n        /* \"#utility.yul\":8576:8581   */\n      0x00\n        /* \"#utility.yul\":8607:8613   */\n      dup2\n        /* \"#utility.yul\":8601:8614   */\n      mload\n        /* \"#utility.yul\":8592:8614   */\n      swap1\n      pop\n        /* \"#utility.yul\":8623:8653   */\n      tag_277\n        /* \"#utility.yul\":8647:8652   */\n      dup2\n        /* \"#utility.yul\":8623:8653   */\n      tag_161\n      jump\t// in\n    tag_277:\n        /* \"#utility.yul\":8522:8659   */\n      swap3\n      swap2\n      pop\n      pop\n      jump\t// out\n        /* \"#utility.yul\":8665:9010   */\n    tag_65:\n        /* \"#utility.yul\":8732:8738   */\n      0x00\n        /* \"#utility.yul\":8781:8783   */\n      0x20\n        /* \"#utility.yul\":8769:8778   */\n      dup3\n        /* \"#utility.yul\":8760:8767   */\n      dup5\n        /* \"#utility.yul\":8756:8779   */\n      sub\n        /* \"#utility.yul\":8752:8784   */\n      slt\n        /* \"#utility.yul\":8749:8868   */\n      iszero\n      tag_279\n      jumpi\n        /* \"#utility.yul\":8787:8866   */\n      tag_280\n      tag_136\n      jump\t// in\n    tag_280:\n        /* \"#utility.yul\":8749:8868   */\n    tag_279:\n        /* \"#utility.yul\":8907:8908   */\n      0x00\n        /* \"#utility.yul\":8932:8993   */\n      tag_281\n        /* \"#utility.yul\":8985:8992   */\n      dup5\n        /* \"#utility.yul\":8976:8982   */\n      dup3\n        /* \"#utility.yul\":8965:8974   */\n      dup6\n        /* \"#utility.yul\":8961:8983   */\n      add\n        /* \"#utility.yul\":8932:8993   */\n      tag_162\n      jump\t// in\n    tag_281:\n        /* \"#utility.yul\":8922:8993   */\n      swap2\n      pop\n        /* \"#utility.yul\":8878:9003   */\n      pop\n        /* \"#utility.yul\":8665:9010   */\n      swap3\n      swap2\n      pop\n      pop\n      jump\t// out\n        /* \"#utility.yul\":9016:9348   */\n    tag_67:\n        /* \"#utility.yul\":9137:9141   */\n      0x00\n        /* \"#utility.yul\":9175:9177   */\n      0x40\n        /* \"#utility.yul\":9164:9173   */\n      dup3\n        /* \"#utility.yul\":9160:9178   */\n      add\n        /* \"#utility.yul\":9152:9178   */\n      swap1\n      pop\n        /* \"#utility.yul\":9188:9259   */\n      tag_283\n        /* \"#utility.yul\":9256:9257   */\n      0x00\n        /* \"#utility.yul\":9245:9254   */\n      dup4\n        /* \"#utility.yul\":9241:9258   */\n      add\n        /* \"#utility.yul\":9232:9238   */\n      dup6\n        /* \"#utility.yul\":9188:9259   */\n      tag_134\n      jump\t// in\n    tag_283:\n        /* \"#utility.yul\":9269:9341   */\n      tag_284\n        /* \"#utility.yul\":9337:9339   */\n      0x20\n        /* \"#utility.yul\":9326:9335   */\n      dup4\n        /* \"#utility.yul\":9322:9340   */\n      add\n        /* \"#utility.yul\":9313:9319   */\n      dup5\n        /* \"#utility.yul\":9269:9341   */\n      tag_134\n      jump\t// in\n    tag_284:\n        /* \"#utility.yul\":9016:9348   */\n      swap4\n      swap3\n      pop\n      pop\n      pop\n      jump\t// out\n        /* \"#utility.yul\":9354:9518   */\n    tag_163:\n        /* \"#utility.yul\":9494:9510   */\n      0x7374617274206174203c206e6f77000000000000000000000000000000000000\n        /* \"#utility.yul\":9490:9491   */\n      0x00\n        /* \"#utility.yul\":9482:9488   */\n      dup3\n        /* \"#utility.yul\":9478:9492   */\n      add\n        /* \"#utility.yul\":9471:9511   */\n      mstore\n        /* \"#utility.yul\":9354:9518   */\n      pop\n      jump\t// out\n        /* \"#utility.yul\":9524:9890   */\n    tag_164:\n        /* \"#utility.yul\":9666:9669   */\n      0x00\n        /* \"#utility.yul\":9687:9754   */\n      tag_287\n        /* \"#utility.yul\":9751:9753   */\n      0x0e\n        /* \"#utility.yul\":9746:9749   */\n      dup4\n        /* \"#utility.yul\":9687:9754   */\n      tag_156\n      jump\t// in\n    tag_287:\n        /* \"#utility.yul\":9680:9754   */\n      swap2\n      pop\n        /* \"#utility.yul\":9763:9856   */\n      tag_288\n        /* \"#utility.yul\":9852:9855   */\n      dup3\n        /* \"#utility.yul\":9763:9856   */\n      tag_163\n      jump\t// in\n    tag_288:\n        /* \"#utility.yul\":9881:9883   */\n      0x20\n        /* \"#utility.yul\":9876:9879   */\n      dup3\n        /* \"#utility.yul\":9872:9884   */\n      add\n        /* \"#utility.yul\":9865:9884   */\n      swap1\n      pop\n        /* \"#utility.yul\":9524:9890   */\n      swap2\n      swap1\n      pop\n      jump\t// out\n        /* \"#utility.yul\":9896:10315   */\n    tag_71:\n        /* \"#utility.yul\":10062:10066   */\n      0x00\n        /* \"#utility.yul\":10100:10102   */\n      0x20\n        /* \"#utility.yul\":10089:10098   */\n      dup3\n        /* \"#utility.yul\":10085:10103   */\n      add\n        /* \"#utility.yul\":10077:10103   */\n      swap1\n      pop\n        /* \"#utility.yul\":10149:10158   */\n      dup2\n        /* \"#utility.yul\":10143:10147   */\n      dup2\n        /* \"#utility.yul\":10139:10159   */\n      sub\n        /* \"#utility.yul\":10135:10136   */\n      0x00\n        /* \"#utility.yul\":10124:10133   */\n      dup4\n        /* \"#utility.yul\":10120:10137   */\n      add\n        /* \"#utility.yul\":10113:10160   */\n      mstore\n        /* \"#utility.yul\":10177:10308   */\n      tag_290\n        /* \"#utility.yul\":10303:10307   */\n      dup2\n        /* \"#utility.yul\":10177:10308   */\n      tag_164\n      jump\t// in\n    tag_290:\n        /* \"#utility.yul\":10169:10308   */\n      swap1\n      pop\n        /* \"#utility.yul\":9896:10315   */\n      swap2\n      swap1\n      pop\n      jump\t// out\n        /* \"#utility.yul\":10321:10488   */\n    tag_165:\n        /* \"#utility.yul\":10461:10480   */\n      0x656e64206174203c207374617274206174000000000000000000000000000000\n        /* \"#utility.yul\":10457:10458   */\n      0x00\n        /* \"#utility.yul\":10449:10455   */\n      dup3\n        /* \"#utility.yul\":10445:10459   */\n      add\n        /* \"#utility.yul\":10438:10481   */\n      mstore\n        /* \"#utility.yul\":10321:10488   */\n      pop\n      jump\t// out\n        /* \"#utility.yul\":10494:10860   */\n    tag_166:\n        /* \"#utility.yul\":10636:10639   */\n      0x00\n        /* \"#utility.yul\":10657:10724   */\n      tag_293\n        /* \"#utility.yul\":10721:10723   */\n      0x11\n        /* \"#utility.yul\":10716:10719   */\n      dup4\n        /* \"#utility.yul\":10657:10724   */\n      tag_156\n      jump\t// in\n    tag_293:\n        /* \"#utility.yul\":10650:10724   */\n      swap2\n      pop\n        /* \"#utility.yul\":10733:10826   */\n      tag_294\n        /* \"#utility.yul\":10822:10825   */\n      dup3\n        /* \"#utility.yul\":10733:10826   */\n      tag_165\n      jump\t// in\n    tag_294:\n        /* \"#utility.yul\":10851:10853   */\n      0x20\n        /* \"#utility.yul\":10846:10849   */\n      dup3\n        /* \"#utility.yul\":10842:10854   */\n      add\n        /* \"#utility.yul\":10835:10854   */\n      swap1\n      pop\n        /* \"#utility.yul\":10494:10860   */\n      swap2\n      swap1\n      pop\n      jump\t// out\n        /* \"#utility.yul\":10866:11285   */\n    tag_74:\n        /* \"#utility.yul\":11032:11036   */\n      0x00\n        /* \"#utility.yul\":11070:11072   */\n      0x20\n        /* \"#utility.yul\":11059:11068   */\n      dup3\n        /* \"#utility.yul\":11055:11073   */\n      add\n        /* \"#utility.yul\":11047:11073   */\n      swap1\n      pop\n        /* \"#utility.yul\":11119:11128   */\n      dup2\n        /* \"#utility.yul\":11113:11117   */\n      dup2\n        /* \"#utility.yul\":11109:11129   */\n      sub\n        /* \"#utility.yul\":11105:11106   */\n      0x00\n        /* \"#utility.yul\":11094:11103   */\n      dup4\n        /* \"#utility.yul\":11090:11107   */\n      add\n        /* \"#utility.yul\":11083:11130   */\n      mstore\n        /* \"#utility.yul\":11147:11278   */\n      tag_296\n        /* \"#utility.yul\":11273:11277   */\n      dup2\n        /* \"#utility.yul\":11147:11278   */\n      tag_166\n      jump\t// in\n    tag_296:\n        /* \"#utility.yul\":11139:11278   */\n      swap1\n      pop\n        /* \"#utility.yul\":10866:11285   */\n      swap2\n      swap1\n      pop\n      jump\t// out\n        /* \"#utility.yul\":11291:11471   */\n    tag_167:\n        /* \"#utility.yul\":11339:11416   */\n      0x4e487b7100000000000000000000000000000000000000000000000000000000\n        /* \"#utility.yul\":11336:11337   */\n      0x00\n        /* \"#utility.yul\":11329:11417   */\n      mstore\n        /* \"#utility.yul\":11436:11440   */\n      0x11\n        /* \"#utility.yul\":11433:11434   */\n      0x04\n        /* \"#utility.yul\":11426:11441   */\n      mstore\n        /* \"#utility.yul\":11460:11464   */\n      0x24\n        /* \"#utility.yul\":11457:11458   */\n      0x00\n        /* \"#utility.yul\":11450:11465   */\n      revert\n        /* \"#utility.yul\":11477:11668   */\n    tag_76:\n        /* \"#utility.yul\":11517:11520   */\n      0x00\n        /* \"#utility.yul\":11536:11556   */\n      tag_299\n        /* \"#utility.yul\":11554:11555   */\n      dup3\n        /* \"#utility.yul\":11536:11556   */\n      tag_133\n      jump\t// in\n    tag_299:\n        /* \"#utility.yul\":11531:11556   */\n      swap2\n      pop\n        /* \"#utility.yul\":11570:11590   */\n      tag_300\n        /* \"#utility.yul\":11588:11589   */\n      dup4\n        /* \"#utility.yul\":11570:11590   */\n      tag_133\n      jump\t// in\n    tag_300:\n        /* \"#utility.yul\":11565:11590   */\n      swap3\n      pop\n        /* \"#utility.yul\":11613:11614   */\n      dup3\n        /* \"#utility.yul\":11610:11611   */\n      dup3\n        /* \"#utility.yul\":11606:11615   */\n      add\n        /* \"#utility.yul\":11599:11615   */\n      swap1\n      pop\n        /* \"#utility.yul\":11634:11637   */\n      dup1\n        /* \"#utility.yul\":11631:11632   */\n      dup3\n        /* \"#utility.yul\":11628:11638   */\n      gt\n        /* \"#utility.yul\":11625:11661   */\n      iszero\n      tag_301\n      jumpi\n        /* \"#utility.yul\":11641:11659   */\n      tag_302\n      tag_167\n      jump\t// in\n    tag_302:\n        /* \"#utility.yul\":11625:11661   */\n    tag_301:\n        /* \"#utility.yul\":11477:11668   */\n      swap3\n      swap2\n      pop\n      pop\n      jump\t// out\n        /* \"#utility.yul\":11674:11845   */\n    tag_168:\n        /* \"#utility.yul\":11814:11837   */\n      0x656e64206174203e206d6178206475726174696f6e0000000000000000000000\n        /* \"#utility.yul\":11810:11811   */\n      0x00\n        /* \"#utility.yul\":11802:11808   */\n      dup3\n        /* \"#utility.yul\":11798:11812   */\n      add\n        /* \"#utility.yul\":11791:11838   */\n      mstore\n        /* \"#utility.yul\":11674:11845   */\n      pop\n      jump\t// out\n        /* \"#utility.yul\":11851:12217   */\n    tag_169:\n        /* \"#utility.yul\":11993:11996   */\n      0x00\n        /* \"#utility.yul\":12014:12081   */\n      tag_305\n        /* \"#utility.yul\":12078:12080   */\n      0x15\n        /* \"#utility.yul\":12073:12076   */\n      dup4\n        /* \"#utility.yul\":12014:12081   */\n      tag_156\n      jump\t// in\n    tag_305:\n        /* \"#utility.yul\":12007:12081   */\n      swap2\n      pop\n        /* \"#utility.yul\":12090:12183   */\n      tag_306\n        /* \"#utility.yul\":12179:12182   */\n      dup3\n        /* \"#utility.yul\":12090:12183   */\n      tag_168\n      jump\t// in\n    tag_306:\n        /* \"#utility.yul\":12208:12210   */\n      0x20\n        /* \"#utility.yul\":12203:12206   */\n      dup3\n        /* \"#utility.yul\":12199:12211   */\n      add\n        /* \"#utility.yul\":12192:12211   */\n      swap1\n      pop\n        /* \"#utility.yul\":11851:12217   */\n      swap2\n      swap1\n      pop\n      jump\t// out\n        /* \"#utility.yul\":12223:12642   */\n    tag_79:\n        /* \"#utility.yul\":12389:12393   */\n      0x00\n        /* \"#utility.yul\":12427:12429   */\n      0x20\n        /* \"#utility.yul\":12416:12425   */\n      dup3\n        /* \"#utility.yul\":12412:12430   */\n      add\n        /* \"#utility.yul\":12404:12430   */\n      swap1\n      pop\n        /* \"#utility.yul\":12476:12485   */\n      dup2\n        /* \"#utility.yul\":12470:12474   */\n      dup2\n        /* \"#utility.yul\":12466:12486   */\n      sub\n        /* \"#utility.yul\":12462:12463   */\n      0x00\n        /* \"#utility.yul\":12451:12460   */\n      dup4\n        /* \"#utility.yul\":12447:12464   */\n      add\n        /* \"#utility.yul\":12440:12487   */\n      mstore\n        /* \"#utility.yul\":12504:12635   */\n      tag_308\n        /* \"#utility.yul\":12630:12634   */\n      dup2\n        /* \"#utility.yul\":12504:12635   */\n      tag_169\n      jump\t// in\n    tag_308:\n        /* \"#utility.yul\":12496:12635   */\n      swap1\n      pop\n        /* \"#utility.yul\":12223:12642   */\n      swap2\n      swap1\n      pop\n      jump\t// out\n        /* \"#utility.yul\":12648:13193   */\n    tag_82:\n        /* \"#utility.yul\":12821:12825   */\n      0x00\n        /* \"#utility.yul\":12859:12862   */\n      0x80\n        /* \"#utility.yul\":12848:12857   */\n      dup3\n        /* \"#utility.yul\":12844:12863   */\n      add\n        /* \"#utility.yul\":12836:12863   */\n      swap1\n      pop\n        /* \"#utility.yul\":12873:12944   */\n      tag_310\n        /* \"#utility.yul\":12941:12942   */\n      0x00\n        /* \"#utility.yul\":12930:12939   */\n      dup4\n        /* \"#utility.yul\":12926:12943   */\n      add\n        /* \"#utility.yul\":12917:12923   */\n      dup8\n        /* \"#utility.yul\":12873:12944   */\n      tag_134\n      jump\t// in\n    tag_310:\n        /* \"#utility.yul\":12954:13026   */\n      tag_311\n        /* \"#utility.yul\":13022:13024   */\n      0x20\n        /* \"#utility.yul\":13011:13020   */\n      dup4\n        /* \"#utility.yul\":13007:13025   */\n      add\n        /* \"#utility.yul\":12998:13004   */\n      dup7\n        /* \"#utility.yul\":12954:13026   */\n      tag_134\n      jump\t// in\n    tag_311:\n        /* \"#utility.yul\":13036:13106   */\n      tag_312\n        /* \"#utility.yul\":13102:13104   */\n      0x40\n        /* \"#utility.yul\":13091:13100   */\n      dup4\n        /* \"#utility.yul\":13087:13105   */\n      add\n        /* \"#utility.yul\":13078:13084   */\n      dup6\n        /* \"#utility.yul\":13036:13106   */\n      tag_144\n      jump\t// in\n    tag_312:\n        /* \"#utility.yul\":13116:13186   */\n      tag_313\n        /* \"#utility.yul\":13182:13184   */\n      0x60\n        /* \"#utility.yul\":13171:13180   */\n      dup4\n        /* \"#utility.yul\":13167:13185   */\n      add\n        /* \"#utility.yul\":13158:13164   */\n      dup5\n        /* \"#utility.yul\":13116:13186   */\n      tag_144\n      jump\t// in\n    tag_313:\n        /* \"#utility.yul\":12648:13193   */\n      swap6\n      swap5\n      pop\n      pop\n      pop\n      pop\n      pop\n      jump\t// out\n        /* \"#utility.yul\":13199:13360   */\n    tag_170:\n        /* \"#utility.yul\":13339:13352   */\n      0x6e6f742063726561746f72000000000000000000000000000000000000000000\n        /* \"#utility.yul\":13335:13336   */\n      0x00\n        /* \"#utility.yul\":13327:13333   */\n      dup3\n        /* \"#utility.yul\":13323:13337   */\n      add\n        /* \"#utility.yul\":13316:13353   */\n      mstore\n        /* \"#utility.yul\":13199:13360   */\n      pop\n      jump\t// out\n        /* \"#utility.yul\":13366:13732   */\n    tag_171:\n        /* \"#utility.yul\":13508:13511   */\n      0x00\n        /* \"#utility.yul\":13529:13596   */\n      tag_316\n        /* \"#utility.yul\":13593:13595   */\n      0x0b\n        /* \"#utility.yul\":13588:13591   */\n      dup4\n        /* \"#utility.yul\":13529:13596   */\n      tag_156\n      jump\t// in\n    tag_316:\n        /* \"#utility.yul\":13522:13596   */\n      swap2\n      pop\n        /* \"#utility.yul\":13605:13698   */\n      tag_317\n        /* \"#utility.yul\":13694:13697   */\n      dup3\n        /* \"#utility.yul\":13605:13698   */\n      tag_170\n      jump\t// in\n    tag_317:\n        /* \"#utility.yul\":13723:13725   */\n      0x20\n        /* \"#utility.yul\":13718:13721   */\n      dup3\n        /* \"#utility.yul\":13714:13726   */\n      add\n        /* \"#utility.yul\":13707:13726   */\n      swap1\n      pop\n        /* \"#utility.yul\":13366:13732   */\n      swap2\n      swap1\n      pop\n      jump\t// out\n        /* \"#utility.yul\":13738:14157   */\n    tag_86:\n        /* \"#utility.yul\":13904:13908   */\n      0x00\n        /* \"#utility.yul\":13942:13944   */\n      0x20\n        /* \"#utility.yul\":13931:13940   */\n      dup3\n        /* \"#utility.yul\":13927:13945   */\n      add\n        /* \"#utility.yul\":13919:13945   */\n      swap1\n      pop\n        /* \"#utility.yul\":13991:14000   */\n      dup2\n        /* \"#utility.yul\":13985:13989   */\n      dup2\n        /* \"#utility.yul\":13981:14001   */\n      sub\n        /* \"#utility.yul\":13977:13978   */\n      0x00\n        /* \"#utility.yul\":13966:13975   */\n      dup4\n        /* \"#utility.yul\":13962:13979   */\n      add\n        /* \"#utility.yul\":13955:14002   */\n      mstore\n        /* \"#utility.yul\":14019:14150   */\n      tag_319\n        /* \"#utility.yul\":14145:14149   */\n      dup2\n        /* \"#utility.yul\":14019:14150   */\n      tag_171\n      jump\t// in\n    tag_319:\n        /* \"#utility.yul\":14011:14150   */\n      swap1\n      pop\n        /* \"#utility.yul\":13738:14157   */\n      swap2\n      swap1\n      pop\n      jump\t// out\n        /* \"#utility.yul\":14163:14327   */\n    tag_172:\n        /* \"#utility.yul\":14303:14319   */\n      0x706c6564676564203c20676f616c000000000000000000000000000000000000\n        /* \"#utility.yul\":14299:14300   */\n      0x00\n        /* \"#utility.yul\":14291:14297   */\n      dup3\n        /* \"#utility.yul\":14287:14301   */\n      add\n        /* \"#utility.yul\":14280:14320   */\n      mstore\n        /* \"#utility.yul\":14163:14327   */\n      pop\n      jump\t// out\n        /* \"#utility.yul\":14333:14699   */\n    tag_173:\n        /* \"#utility.yul\":14475:14478   */\n      0x00\n        /* \"#utility.yul\":14496:14563   */\n      tag_322\n        /* \"#utility.yul\":14560:14562   */\n      0x0e\n        /* \"#utility.yul\":14555:14558   */\n      dup4\n        /* \"#utility.yul\":14496:14563   */\n      tag_156\n      jump\t// in\n    tag_322:\n        /* \"#utility.yul\":14489:14563   */\n      swap2\n      pop\n        /* \"#utility.yul\":14572:14665   */\n      tag_323\n        /* \"#utility.yul\":14661:14664   */\n      dup3\n        /* \"#utility.yul\":14572:14665   */\n      tag_172\n      jump\t// in\n    tag_323:\n        /* \"#utility.yul\":14690:14692   */\n      0x20\n        /* \"#utility.yul\":14685:14688   */\n      dup3\n        /* \"#utility.yul\":14681:14693   */\n      add\n        /* \"#utility.yul\":14674:14693   */\n      swap1\n      pop\n        /* \"#utility.yul\":14333:14699   */\n      swap2\n      swap1\n      pop\n      jump\t// out\n        /* \"#utility.yul\":14705:15124   */\n    tag_91:\n        /* \"#utility.yul\":14871:14875   */\n      0x00\n        /* \"#utility.yul\":14909:14911   */\n      0x20\n        /* \"#utility.yul\":14898:14907   */\n      dup3\n        /* \"#utility.yul\":14894:14912   */\n      add\n        /* \"#utility.yul\":14886:14912   */\n      swap1\n      pop\n        /* \"#utility.yul\":14958:14967   */\n      dup2\n        /* \"#utility.yul\":14952:14956   */\n      dup2\n        /* \"#utility.yul\":14948:14968   */\n      sub\n        /* \"#utility.yul\":14944:14945   */\n      0x00\n        /* \"#utility.yul\":14933:14942   */\n      dup4\n        /* \"#utility.yul\":14929:14946   */\n      add\n        /* \"#utility.yul\":14922:14969   */\n      mstore\n        /* \"#utility.yul\":14986:15117   */\n      tag_325\n        /* \"#utility.yul\":15112:15116   */\n      dup2\n        /* \"#utility.yul\":14986:15117   */\n      tag_173\n      jump\t// in\n    tag_325:\n        /* \"#utility.yul\":14978:15117   */\n      swap1\n      pop\n        /* \"#utility.yul\":14705:15124   */\n      swap2\n      swap1\n      pop\n      jump\t// out\n        /* \"#utility.yul\":15130:15287   */\n    tag_174:\n        /* \"#utility.yul\":15270:15279   */\n      0x636c61696d656400000000000000000000000000000000000000000000000000\n        /* \"#utility.yul\":15266:15267   */\n      0x00\n        /* \"#utility.yul\":15258:15264   */\n      dup3\n        /* \"#utility.yul\":15254:15268   */\n      add\n        /* \"#utility.yul\":15247:15280   */\n      mstore\n        /* \"#utility.yul\":15130:15287   */\n      pop\n      jump\t// out\n        /* \"#utility.yul\":15293:15658   */\n    tag_175:\n        /* \"#utility.yul\":15435:15438   */\n      0x00\n        /* \"#utility.yul\":15456:15522   */\n      tag_328\n        /* \"#utility.yul\":15520:15521   */\n      0x07\n        /* \"#utility.yul\":15515:15518   */\n      dup4\n        /* \"#utility.yul\":15456:15522   */\n      tag_156\n      jump\t// in\n    tag_328:\n        /* \"#utility.yul\":15449:15522   */\n      swap2\n      pop\n        /* \"#utility.yul\":15531:15624   */\n      tag_329\n        /* \"#utility.yul\":15620:15623   */\n      dup3\n        /* \"#utility.yul\":15531:15624   */\n      tag_174\n      jump\t// in\n    tag_329:\n        /* \"#utility.yul\":15649:15651   */\n      0x20\n        /* \"#utility.yul\":15644:15647   */\n      dup3\n        /* \"#utility.yul\":15640:15652   */\n      add\n        /* \"#utility.yul\":15633:15652   */\n      swap1\n      pop\n        /* \"#utility.yul\":15293:15658   */\n      swap2\n      swap1\n      pop\n      jump\t// out\n        /* \"#utility.yul\":15664:16083   */\n    tag_94:\n        /* \"#utility.yul\":15830:15834   */\n      0x00\n        /* \"#utility.yul\":15868:15870   */\n      0x20\n        /* \"#utility.yul\":15857:15866   */\n      dup3\n        /* \"#utility.yul\":15853:15871   */\n      add\n        /* \"#utility.yul\":15845:15871   */\n      swap1\n      pop\n        /* \"#utility.yul\":15917:15926   */\n      dup2\n        /* \"#utility.yul\":15911:15915   */\n      dup2\n        /* \"#utility.yul\":15907:15927   */\n      sub\n        /* \"#utility.yul\":15903:15904   */\n      0x00\n        /* \"#utility.yul\":15892:15901   */\n      dup4\n        /* \"#utility.yul\":15888:15905   */\n      add\n        /* \"#utility.yul\":15881:15928   */\n      mstore\n        /* \"#utility.yul\":15945:16076   */\n      tag_331\n        /* \"#utility.yul\":16071:16075   */\n      dup2\n        /* \"#utility.yul\":15945:16076   */\n      tag_175\n      jump\t// in\n    tag_331:\n        /* \"#utility.yul\":15937:16076   */\n      swap1\n      pop\n        /* \"#utility.yul\":15664:16083   */\n      swap2\n      swap1\n      pop\n      jump\t// out\n        /* \"#utility.yul\":16089:16246   */\n    tag_176:\n        /* \"#utility.yul\":16229:16238   */\n      0x7374617274656400000000000000000000000000000000000000000000000000\n        /* \"#utility.yul\":16225:16226   */\n      0x00\n        /* \"#utility.yul\":16217:16223   */\n      dup3\n        /* \"#utility.yul\":16213:16227   */\n      add\n        /* \"#utility.yul\":16206:16239   */\n      mstore\n        /* \"#utility.yul\":16089:16246   */\n      pop\n      jump\t// out\n        /* \"#utility.yul\":16252:16617   */\n    tag_177:\n        /* \"#utility.yul\":16394:16397   */\n      0x00\n        /* \"#utility.yul\":16415:16481   */\n      tag_334\n        /* \"#utility.yul\":16479:16480   */\n      0x07\n        /* \"#utility.yul\":16474:16477   */\n      dup4\n        /* \"#utility.yul\":16415:16481   */\n      tag_156\n      jump\t// in\n    tag_334:\n        /* \"#utility.yul\":16408:16481   */\n      swap2\n      pop\n        /* \"#utility.yul\":16490:16583   */\n      tag_335\n        /* \"#utility.yul\":16579:16582   */\n      dup3\n        /* \"#utility.yul\":16490:16583   */\n      tag_176\n      jump\t// in\n    tag_335:\n        /* \"#utility.yul\":16608:16610   */\n      0x20\n        /* \"#utility.yul\":16603:16606   */\n      dup3\n        /* \"#utility.yul\":16599:16611   */\n      add\n        /* \"#utility.yul\":16592:16611   */\n      swap1\n      pop\n        /* \"#utility.yul\":16252:16617   */\n      swap2\n      swap1\n      pop\n      jump\t// out\n        /* \"#utility.yul\":16623:17042   */\n    tag_105:\n        /* \"#utility.yul\":16789:16793   */\n      0x00\n        /* \"#utility.yul\":16827:16829   */\n      0x20\n        /* \"#utility.yul\":16816:16825   */\n      dup3\n        /* \"#utility.yul\":16812:16830   */\n      add\n        /* \"#utility.yul\":16804:16830   */\n      swap1\n      pop\n        /* \"#utility.yul\":16876:16885   */\n      dup2\n        /* \"#utility.yul\":16870:16874   */\n      dup2\n        /* \"#utility.yul\":16866:16886   */\n      sub\n        /* \"#utility.yul\":16862:16863   */\n      0x00\n        /* \"#utility.yul\":16851:16860   */\n      dup4\n        /* \"#utility.yul\":16847:16864   */\n      add\n        /* \"#utility.yul\":16840:16887   */\n      mstore\n        /* \"#utility.yul\":16904:17035   */\n      tag_337\n        /* \"#utility.yul\":17030:17034   */\n      dup2\n        /* \"#utility.yul\":16904:17035   */\n      tag_177\n      jump\t// in\n    tag_337:\n        /* \"#utility.yul\":16896:17035   */\n      swap1\n      pop\n        /* \"#utility.yul\":16623:17042   */\n      swap2\n      swap1\n      pop\n      jump\t// out\n        /* \"#utility.yul\":17048:17203   */\n    tag_178:\n        /* \"#utility.yul\":17188:17195   */\n      0x656e646564000000000000000000000000000000000000000000000000000000\n        /* \"#utility.yul\":17184:17185   */\n      0x00\n        /* \"#utility.yul\":17176:17182   */\n      dup3\n        /* \"#utility.yul\":17172:17186   */\n      add\n        /* \"#utility.yul\":17165:17196   */\n      mstore\n        /* \"#utility.yul\":17048:17203   */\n      pop\n      jump\t// out\n        /* \"#utility.yul\":17209:17574   */\n    tag_179:\n        /* \"#utility.yul\":17351:17354   */\n      0x00\n        /* \"#utility.yul\":17372:17438   */\n      tag_340\n        /* \"#utility.yul\":17436:17437   */\n      0x05\n        /* \"#utility.yul\":17431:17434   */\n      dup4\n        /* \"#utility.yul\":17372:17438   */\n      tag_156\n      jump\t// in\n    tag_340:\n        /* \"#utility.yul\":17365:17438   */\n      swap2\n      pop\n        /* \"#utility.yul\":17447:17540   */\n      tag_341\n        /* \"#utility.yul\":17536:17539   */\n      dup3\n        /* \"#utility.yul\":17447:17540   */\n      tag_178\n      jump\t// in\n    tag_341:\n        /* \"#utility.yul\":17565:17567   */\n      0x20\n        /* \"#utility.yul\":17560:17563   */\n      dup3\n        /* \"#utility.yul\":17556:17568   */\n      add\n        /* \"#utility.yul\":17549:17568   */\n      swap1\n      pop\n        /* \"#utility.yul\":17209:17574   */\n      swap2\n      swap1\n      pop\n      jump\t// out\n        /* \"#utility.yul\":17580:17999   */\n    tag_110:\n        /* \"#utility.yul\":17746:17750   */\n      0x00\n        /* \"#utility.yul\":17784:17786   */\n      0x20\n        /* \"#utility.yul\":17773:17782   */\n      dup3\n        /* \"#utility.yul\":17769:17787   */\n      add\n        /* \"#utility.yul\":17761:17787   */\n      swap1\n      pop\n        /* \"#utility.yul\":17833:17842   */\n      dup2\n        /* \"#utility.yul\":17827:17831   */\n      dup2\n        /* \"#utility.yul\":17823:17843   */\n      sub\n        /* \"#utility.yul\":17819:17820   */\n      0x00\n        /* \"#utility.yul\":17808:17817   */\n      dup4\n        /* \"#utility.yul\":17804:17821   */\n      add\n        /* \"#utility.yul\":17797:17844   */\n      mstore\n        /* \"#utility.yul\":17861:17992   */\n      tag_343\n        /* \"#utility.yul\":17987:17991   */\n      dup2\n        /* \"#utility.yul\":17861:17992   */\n      tag_179\n      jump\t// in\n    tag_343:\n        /* \"#utility.yul\":17853:17992   */\n      swap1\n      pop\n        /* \"#utility.yul\":17580:17999   */\n      swap2\n      swap1\n      pop\n      jump\t// out\n        /* \"#utility.yul\":18005:18199   */\n    tag_112:\n        /* \"#utility.yul\":18045:18049   */\n      0x00\n        /* \"#utility.yul\":18065:18085   */\n      tag_345\n        /* \"#utility.yul\":18083:18084   */\n      dup3\n        /* \"#utility.yul\":18065:18085   */\n      tag_133\n      jump\t// in\n    tag_345:\n        /* \"#utility.yul\":18060:18085   */\n      swap2\n      pop\n        /* \"#utility.yul\":18099:18119   */\n      tag_346\n        /* \"#utility.yul\":18117:18118   */\n      dup4\n        /* \"#utility.yul\":18099:18119   */\n      tag_133\n      jump\t// in\n    tag_346:\n        /* \"#utility.yul\":18094:18119   */\n      swap3\n      pop\n        /* \"#utility.yul\":18143:18144   */\n      dup3\n        /* \"#utility.yul\":18140:18141   */\n      dup3\n        /* \"#utility.yul\":18136:18145   */\n      sub\n        /* \"#utility.yul\":18128:18145   */\n      swap1\n      pop\n        /* \"#utility.yul\":18167:18168   */\n      dup2\n        /* \"#utility.yul\":18161:18165   */\n      dup2\n        /* \"#utility.yul\":18158:18169   */\n      gt\n        /* \"#utility.yul\":18155:18192   */\n      iszero\n      tag_347\n      jumpi\n        /* \"#utility.yul\":18172:18190   */\n      tag_348\n      tag_167\n      jump\t// in\n    tag_348:\n        /* \"#utility.yul\":18155:18192   */\n    tag_347:\n        /* \"#utility.yul\":18005:18199   */\n      swap3\n      swap2\n      pop\n      pop\n      jump\t// out\n        /* \"#utility.yul\":18205:18366   */\n    tag_180:\n        /* \"#utility.yul\":18345:18358   */\n      0x6e6f742073746172746564000000000000000000000000000000000000000000\n        /* \"#utility.yul\":18341:18342   */\n      0x00\n        /* \"#utility.yul\":18333:18339   */\n      dup3\n        /* \"#utility.yul\":18329:18343   */\n      add\n        /* \"#utility.yul\":18322:18359   */\n      mstore\n        /* \"#utility.yul\":18205:18366   */\n      pop\n      jump\t// out\n        /* \"#utility.yul\":18372:18738   */\n    tag_181:\n        /* \"#utility.yul\":18514:18517   */\n      0x00\n        /* \"#utility.yul\":18535:18602   */\n      tag_351\n        /* \"#utility.yul\":18599:18601   */\n      0x0b\n        /* \"#utility.yul\":18594:18597   */\n      dup4\n        /* \"#utility.yul\":18535:18602   */\n      tag_156\n      jump\t// in\n    tag_351:\n        /* \"#utility.yul\":18528:18602   */\n      swap2\n      pop\n        /* \"#utility.yul\":18611:18704   */\n      tag_352\n        /* \"#utility.yul\":18700:18703   */\n      dup3\n        /* \"#utility.yul\":18611:18704   */\n      tag_180\n      jump\t// in\n    tag_352:\n        /* \"#utility.yul\":18729:18731   */\n      0x20\n        /* \"#utility.yul\":18724:18727   */\n      dup3\n        /* \"#utility.yul\":18720:18732   */\n      add\n        /* \"#utility.yul\":18713:18732   */\n      swap1\n      pop\n        /* \"#utility.yul\":18372:18738   */\n      swap2\n      swap1\n      pop\n      jump\t// out\n        /* \"#utility.yul\":18744:19163   */\n    tag_122:\n        /* \"#utility.yul\":18910:18914   */\n      0x00\n        /* \"#utility.yul\":18948:18950   */\n      0x20\n        /* \"#utility.yul\":18937:18946   */\n      dup3\n        /* \"#utility.yul\":18933:18951   */\n      add\n        /* \"#utility.yul\":18925:18951   */\n      swap1\n      pop\n        /* \"#utility.yul\":18997:19006   */\n      dup2\n        /* \"#utility.yul\":18991:18995   */\n      dup2\n        /* \"#utility.yul\":18987:19007   */\n      sub\n        /* \"#utility.yul\":18983:18984   */\n      0x00\n        /* \"#utility.yul\":18972:18981   */\n      dup4\n        /* \"#utility.yul\":18968:18985   */\n      add\n        /* \"#utility.yul\":18961:19008   */\n      mstore\n        /* \"#utility.yul\":19025:19156   */\n      tag_354\n        /* \"#utility.yul\":19151:19155   */\n      dup2\n        /* \"#utility.yul\":19025:19156   */\n      tag_181\n      jump\t// in\n    tag_354:\n        /* \"#utility.yul\":19017:19156   */\n      swap1\n      pop\n        /* \"#utility.yul\":18744:19163   */\n      swap2\n      swap1\n      pop\n      jump\t// out\n        /* \"#utility.yul\":19169:19611   */\n    tag_128:\n        /* \"#utility.yul\":19318:19322   */\n      0x00\n        /* \"#utility.yul\":19356:19358   */\n      0x60\n        /* \"#utility.yul\":19345:19354   */\n      dup3\n        /* \"#utility.yul\":19341:19359   */\n      add\n        /* \"#utility.yul\":19333:19359   */\n      swap1\n      pop\n        /* \"#utility.yul\":19369:19440   */\n      tag_356\n        /* \"#utility.yul\":19437:19438   */\n      0x00\n        /* \"#utility.yul\":19426:19435   */\n      dup4\n        /* \"#utility.yul\":19422:19439   */\n      add\n        /* \"#utility.yul\":19413:19419   */\n      dup7\n        /* \"#utility.yul\":19369:19440   */\n      tag_142\n      jump\t// in\n    tag_356:\n        /* \"#utility.yul\":19450:19522   */\n      tag_357\n        /* \"#utility.yul\":19518:19520   */\n      0x20\n        /* \"#utility.yul\":19507:19516   */\n      dup4\n        /* \"#utility.yul\":19503:19521   */\n      add\n        /* \"#utility.yul\":19494:19500   */\n      dup6\n        /* \"#utility.yul\":19450:19522   */\n      tag_142\n      jump\t// in\n    tag_357:\n        /* \"#utility.yul\":19532:19604   */\n      tag_358\n        /* \"#utility.yul\":19600:19602   */\n      0x40\n        /* \"#utility.yul\":19589:19598   */\n      dup4\n        /* \"#utility.yul\":19585:19603   */\n      add\n        /* \"#utility.yul\":19576:19582   */\n      dup5\n        /* \"#utility.yul\":19532:19604   */\n      tag_134\n      jump\t// in\n    tag_358:\n        /* \"#utility.yul\":19169:19611   */\n      swap5\n      swap4\n      pop\n      pop\n      pop\n      pop\n      jump\t// out\n\n    auxdata: 0xa264697066735822122009a8dfc8f9b29291737ec0d639735b897fee686502396ea1f35e6a35490e65e664736f6c63430008160033\n}\n",
				"bytecode": {
					"linkReferences": {},
					"object": "60a060405234801562000010575f80fd5b5060405162001c2d38038062001c2d8339818101604052810190620000369190620000d6565b8073ffffffffffffffffffffffffffffffffffffffff1660808173ffffffffffffffffffffffffffffffffffffffff16815250505062000106565b5f80fd5b5f73ffffffffffffffffffffffffffffffffffffffff82169050919050565b5f620000a08262000075565b9050919050565b620000b28162000094565b8114620000bd575f80fd5b50565b5f81519050620000d081620000a7565b92915050565b5f60208284031215620000ee57620000ed62000071565b5b5f620000fd84828501620000c0565b91505092915050565b608051611af26200013b5f395f8181610497015281816109ce01528181610e2501528181610f3501526110a20152611af25ff3fe608060405234801561000f575f80fd5b506004361061009c575f3560e01c806340e58ee51161006457806340e58ee514610147578063711853ab14610163578063aa4fb63a1461017f578063fc0c546a146101af578063fde327be146101cd5761009c565b806306661abd146100a0578063141961bc146100be578063278ecde1146100f35780632c63f1461461010f578063379607f51461012b575b5f80fd5b6100a86101e9565b6040516100b591906111aa565b60405180910390f35b6100d860048036038101906100d391906111f1565b6101ee565b6040516100ea96959493929190611293565b60405180910390f35b61010d600480360381019061010891906111f1565b610271565b005b6101296004803603810190610124919061131c565b610586565b005b610145600480360381019061014091906111f1565b610812565b005b610161600480360381019061015c91906111f1565b610ac9565b005b61017d6004803603810190610178919061136c565b610d36565b005b610199600480360381019061019491906113d4565b610f13565b6040516101a691906111aa565b60405180910390f35b6101b7610f33565b6040516101c4919061146d565b60405180910390f35b6101e760048036038101906101e2919061136c565b610f57565b005b5f5481565b6001602052805f5260405f205f91509050805f015f9054906101000a900473ffffffffffffffffffffffffffffffffffffffff1690806001015490806002015490806003015f9054906101000a900463ffffffff16908060030160049054906101000a900463ffffffff16908060030160089054906101000a900460ff16905086565b5f60015f8381526020019081526020015f206040518060c00160405290815f82015f9054906101000a900473ffffffffffffffffffffffffffffffffffffffff1673ffffffffffffffffffffffffffffffffffffffff1673ffffffffffffffffffffffffffffffffffffffff1681526020016001820154815260200160028201548152602001600382015f9054906101000a900463ffffffff1663ffffffff1663ffffffff1681526020016003820160049054906101000a900463ffffffff1663ffffffff1663ffffffff1681526020016003820160089054906101000a900460ff1615151515815250509050806080015163ffffffff1642116103aa576040517f08c379a00000000000000000000000000000000000000000000000000000000081526004016103a1906114e0565b60405180910390fd5b80602001518160400151106103f4576040517f08c379a00000000000000000000000000000000000000000000000000000000081526004016103eb90611548565b60405180910390fd5b5f60025f8481526020019081526020015f205f3373ffffffffffffffffffffffffffffffffffffffff1673ffffffffffffffffffffffffffffffffffffffff1681526020019081526020015f205490505f60025f8581526020019081526020015f205f3373ffffffffffffffffffffffffffffffffffffffff1673ffffffffffffffffffffffffffffffffffffffff1681526020019081526020015f20819055507f000000000000000000000000000000000000000000000000000000000000000073ffffffffffffffffffffffffffffffffffffffff1663a9059cbb33836040518363ffffffff1660e01b81526004016104f0929190611566565b6020604051808303815f875af115801561050c573d5f803e3d5ffd5b505050506040513d601f19601f8201168201806040525081019061053091906115b7565b503373ffffffffffffffffffffffffffffffffffffffff167f21e12a7cad0da5928167e1084ea4d5fdf8d9af66657a2543a9ac76a0ca08147784836040516105799291906115e2565b60405180910390a2505050565b428263ffffffff1610156105cf576040517f08c379a00000000000000000000000000000000000000000000000000000000081526004016105c690611653565b60405180910390fd5b8163ffffffff168163ffffffff16101561061e576040517f08c379a0000000000000000000000000000000000000000000000000000000008152600401610615906116bb565b60405180910390fd5b6276a7004261062d9190611706565b8163ffffffff161115610675576040517f08c379a000000000000000000000000000000000000000000000000000000000815260040161066c90611783565b60405180910390fd5b60015f808282546106869190611706565b925050819055506040518060c001604052803373ffffffffffffffffffffffffffffffffffffffff1681526020018481526020015f81526020018363ffffffff1681526020018263ffffffff1681526020015f151581525060015f805481526020019081526020015f205f820151815f015f6101000a81548173ffffffffffffffffffffffffffffffffffffffff021916908373ffffffffffffffffffffffffffffffffffffffff16021790555060208201518160010155604082015181600201556060820151816003015f6101000a81548163ffffffff021916908363ffffffff16021790555060808201518160030160046101000a81548163ffffffff021916908363ffffffff16021790555060a08201518160030160086101000a81548160ff0219169083151502179055509050503373ffffffffffffffffffffffffffffffffffffffff167f0601cd0d650b473037e838a2696d41e654433d065b3f56b28d1d3302e44a304f5f5485858560405161080594939291906117a1565b60405180910390a2505050565b5f60015f8381526020019081526020015f2090503373ffffffffffffffffffffffffffffffffffffffff16815f015f9054906101000a900473ffffffffffffffffffffffffffffffffffffffff1673ffffffffffffffffffffffffffffffffffffffff16146108b6576040517f08c379a00000000000000000000000000000000000000000000000000000000081526004016108ad9061182e565b60405180910390fd5b8060030160049054906101000a900463ffffffff1663ffffffff164211610912576040517f08c379a0000000000000000000000000000000000000000000000000000000008152600401610909906114e0565b60405180910390fd5b80600101548160020154101561095d576040517f08c379a000000000000000000000000000000000000000000000000000000000815260040161095490611896565b60405180910390fd5b8060030160089054906101000a900460ff16156109af576040517f08c379a00000000000000000000000000000000000000000000000000000000081526004016109a6906118fe565b60405180910390fd5b60018160030160086101000a81548160ff0219169083151502179055507f000000000000000000000000000000000000000000000000000000000000000073ffffffffffffffffffffffffffffffffffffffff1663a9059cbb825f015f9054906101000a900473ffffffffffffffffffffffffffffffffffffffff1683600201546040518363ffffffff1660e01b8152600401610a4d929190611566565b6020604051808303815f875af1158015610a69573d5f803e3d5ffd5b505050506040513d601f19601f82011682018060405250810190610a8d91906115b7565b507f7bb2b3c10797baccb6f8c4791f1edd6ca2f0d028ee0eda64b01a9a57e3a653f782604051610abd91906111aa565b60405180910390a15050565b5f60015f8381526020019081526020015f206040518060c00160405290815f82015f9054906101000a900473ffffffffffffffffffffffffffffffffffffffff1673ffffffffffffffffffffffffffffffffffffffff1673ffffffffffffffffffffffffffffffffffffffff1681526020016001820154815260200160028201548152602001600382015f9054906101000a900463ffffffff1663ffffffff1663ffffffff1681526020016003820160049054906101000a900463ffffffff1663ffffffff1663ffffffff1681526020016003820160089054906101000a900460ff16151515158152505090503373ffffffffffffffffffffffffffffffffffffffff16815f015173ffffffffffffffffffffffffffffffffffffffff1614610c27576040517f08c379a0000000000000000000000000000000000000000000000000000000008152600401610c1e9061182e565b60405180910390fd5b806060015163ffffffff164210610c73576040517f08c379a0000000000000000000000000000000000000000000000000000000008152600401610c6a90611966565b60405180910390fd5b60015f8381526020019081526020015f205f8082015f6101000a81549073ffffffffffffffffffffffffffffffffffffffff0219169055600182015f9055600282015f9055600382015f6101000a81549063ffffffff02191690556003820160046101000a81549063ffffffff02191690556003820160086101000a81549060ff021916905550507f8bf30e7ff26833413be5f69e1d373744864d600b664204b4a2f9844a8eedb9ed82604051610d2a91906111aa565b60405180910390a15050565b5f60015f8481526020019081526020015f2090508060030160049054906101000a900463ffffffff1663ffffffff16421115610da7576040517f08c379a0000000000000000000000000000000000000000000000000000000008152600401610d9e906119ce565b60405180910390fd5b81816002015f828254610dba91906119ec565b925050819055508160025f8581526020019081526020015f205f3373ffffffffffffffffffffffffffffffffffffffff1673ffffffffffffffffffffffffffffffffffffffff1681526020019081526020015f205f828254610e1c91906119ec565b925050819055507f000000000000000000000000000000000000000000000000000000000000000073ffffffffffffffffffffffffffffffffffffffff1663a9059cbb33846040518363ffffffff1660e01b8152600401610e7e929190611566565b6020604051808303815f875af1158015610e9a573d5f803e3d5ffd5b505050506040513d601f19601f82011682018060405250810190610ebe91906115b7565b503373ffffffffffffffffffffffffffffffffffffffff16837f2eeeab891b26a214d1b25749f88a406bdea852bd8c9bfda977e0ef8114c180ba84604051610f0691906111aa565b60405180910390a3505050565b6002602052815f5260405f20602052805f5260405f205f91509150505481565b7f000000000000000000000000000000000000000000000000000000000000000081565b5f60015f8481526020019081526020015f209050806003015f9054906101000a900463ffffffff1663ffffffff16421015610fc7576040517f08c379a0000000000000000000000000000000000000000000000000000000008152600401610fbe90611a69565b60405180910390fd5b8060030160049054906101000a900463ffffffff1663ffffffff16421115611024576040517f08c379a000000000000000000000000000000000000000000000000000000000815260040161101b906119ce565b60405180910390fd5b81816002015f8282546110379190611706565b925050819055508160025f8581526020019081526020015f205f3373ffffffffffffffffffffffffffffffffffffffff1673ffffffffffffffffffffffffffffffffffffffff1681526020019081526020015f205f8282546110999190611706565b925050819055507f000000000000000000000000000000000000000000000000000000000000000073ffffffffffffffffffffffffffffffffffffffff166323b872dd3330856040518463ffffffff1660e01b81526004016110fd93929190611a87565b6020604051808303815f875af1158015611119573d5f803e3d5ffd5b505050506040513d601f19601f8201168201806040525081019061113d91906115b7565b503373ffffffffffffffffffffffffffffffffffffffff16837f06bdb975df800a73232998e71ed585d536222f1dfeaa622d7f62a23ada686c828460405161118591906111aa565b60405180910390a3505050565b5f819050919050565b6111a481611192565b82525050565b5f6020820190506111bd5f83018461119b565b92915050565b5f80fd5b6111d081611192565b81146111da575f80fd5b50565b5f813590506111eb816111c7565b92915050565b5f60208284031215611206576112056111c3565b5b5f611213848285016111dd565b91505092915050565b5f73ffffffffffffffffffffffffffffffffffffffff82169050919050565b5f6112458261121c565b9050919050565b6112558161123b565b82525050565b5f63ffffffff82169050919050565b6112738161125b565b82525050565b5f8115159050919050565b61128d81611279565b82525050565b5f60c0820190506112a65f83018961124c565b6112b3602083018861119b565b6112c0604083018761119b565b6112cd606083018661126a565b6112da608083018561126a565b6112e760a0830184611284565b979650505050505050565b6112fb8161125b565b8114611305575f80fd5b50565b5f81359050611316816112f2565b92915050565b5f805f60608486031215611333576113326111c3565b5b5f611340868287016111dd565b935050602061135186828701611308565b925050604061136286828701611308565b9150509250925092565b5f8060408385031215611382576113816111c3565b5b5f61138f858286016111dd565b92505060206113a0858286016111dd565b9150509250929050565b6113b38161123b565b81146113bd575f80fd5b50565b5f813590506113ce816113aa565b92915050565b5f80604083850312156113ea576113e96111c3565b5b5f6113f7858286016111dd565b9250506020611408858286016113c0565b9150509250929050565b5f819050919050565b5f61143561143061142b8461121c565b611412565b61121c565b9050919050565b5f6114468261141b565b9050919050565b5f6114578261143c565b9050919050565b6114678161144d565b82525050565b5f6020820190506114805f83018461145e565b92915050565b5f82825260208201905092915050565b7f6e6f7420656e64656400000000000000000000000000000000000000000000005f82015250565b5f6114ca600983611486565b91506114d582611496565b602082019050919050565b5f6020820190508181035f8301526114f7816114be565b9050919050565b7f706c6564676564203e3d20676f616c00000000000000000000000000000000005f82015250565b5f611532600f83611486565b915061153d826114fe565b602082019050919050565b5f6020820190508181035f83015261155f81611526565b9050919050565b5f6040820190506115795f83018561124c565b611586602083018461119b565b9392505050565b61159681611279565b81146115a0575f80fd5b50565b5f815190506115b18161158d565b92915050565b5f602082840312156115cc576115cb6111c3565b5b5f6115d9848285016115a3565b91505092915050565b5f6040820190506115f55f83018561119b565b611602602083018461119b565b9392505050565b7f7374617274206174203c206e6f770000000000000000000000000000000000005f82015250565b5f61163d600e83611486565b915061164882611609565b602082019050919050565b5f6020820190508181035f83015261166a81611631565b9050919050565b7f656e64206174203c2073746172742061740000000000000000000000000000005f82015250565b5f6116a5601183611486565b91506116b082611671565b602082019050919050565b5f6020820190508181035f8301526116d281611699565b9050919050565b7f4e487b71000000000000000000000000000000000000000000000000000000005f52601160045260245ffd5b5f61171082611192565b915061171b83611192565b9250828201905080821115611733576117326116d9565b5b92915050565b7f656e64206174203e206d6178206475726174696f6e00000000000000000000005f82015250565b5f61176d601583611486565b915061177882611739565b602082019050919050565b5f6020820190508181035f83015261179a81611761565b9050919050565b5f6080820190506117b45f83018761119b565b6117c1602083018661119b565b6117ce604083018561126a565b6117db606083018461126a565b95945050505050565b7f6e6f742063726561746f720000000000000000000000000000000000000000005f82015250565b5f611818600b83611486565b9150611823826117e4565b602082019050919050565b5f6020820190508181035f8301526118458161180c565b9050919050565b7f706c6564676564203c20676f616c0000000000000000000000000000000000005f82015250565b5f611880600e83611486565b915061188b8261184c565b602082019050919050565b5f6020820190508181035f8301526118ad81611874565b9050919050565b7f636c61696d6564000000000000000000000000000000000000000000000000005f82015250565b5f6118e8600783611486565b91506118f3826118b4565b602082019050919050565b5f6020820190508181035f830152611915816118dc565b9050919050565b7f73746172746564000000000000000000000000000000000000000000000000005f82015250565b5f611950600783611486565b915061195b8261191c565b602082019050919050565b5f6020820190508181035f83015261197d81611944565b9050919050565b7f656e6465640000000000000000000000000000000000000000000000000000005f82015250565b5f6119b8600583611486565b91506119c382611984565b602082019050919050565b5f6020820190508181035f8301526119e5816119ac565b9050919050565b5f6119f682611192565b9150611a0183611192565b9250828203905081811115611a1957611a186116d9565b5b92915050565b7f6e6f7420737461727465640000000000000000000000000000000000000000005f82015250565b5f611a53600b83611486565b9150611a5e82611a1f565b602082019050919050565b5f6020820190508181035f830152611a8081611a47565b9050919050565b5f606082019050611a9a5f83018661124c565b611aa7602083018561124c565b611ab4604083018461119b565b94935050505056fea264697066735822122009a8dfc8f9b29291737ec0d639735b897fee686502396ea1f35e6a35490e65e664736f6c63430008160033",
					"opcodes": "PUSH1 0xA0 PUSH1 0x40 MSTORE CALLVALUE DUP1 ISZERO PUSH3 0x10 JUMPI PUSH0 DUP1 REVERT JUMPDEST POP PUSH1 0x40 MLOAD PUSH3 0x1C2D CODESIZE SUB DUP1 PUSH3 0x1C2D DUP4 CODECOPY DUP2 DUP2 ADD PUSH1 0x40 MSTORE DUP2 ADD SWAP1 PUSH3 0x36 SWAP2 SWAP1 PUSH3 0xD6 JUMP JUMPDEST DUP1 PUSH20 0xFFFFFFFFFFFFFFFFFFFFFFFFFFFFFFFFFFFFFFFF AND PUSH1 0x80 DUP2 PUSH20 0xFFFFFFFFFFFFFFFFFFFFFFFFFFFFFFFFFFFFFFFF AND DUP2 MSTORE POP POP POP PUSH3 0x106 JUMP JUMPDEST PUSH0 DUP1 REVERT JUMPDEST PUSH0 PUSH20 0xFFFFFFFFFFFFFFFFFFFFFFFFFFFFFFFFFFFFFFFF DUP3 AND SWAP1 POP SWAP2 SWAP1 POP JUMP JUMPDEST PUSH0 PUSH3 0xA0 DUP3 PUSH3 0x75 JUMP JUMPDEST SWAP1 POP SWAP2 SWAP1 POP JUMP JUMPDEST PUSH3 0xB2 DUP2 PUSH3 0x94 JUMP JUMPDEST DUP2 EQ PUSH3 0xBD JUMPI PUSH0 DUP1 REVERT JUMPDEST POP JUMP JUMPDEST PUSH0 DUP2 MLOAD SWAP1 POP PUSH3 0xD0 DUP2 PUSH3 0xA7 JUMP JUMPDEST SWAP3 SWAP2 POP POP JUMP JUMPDEST PUSH0 PUSH1 0x20 DUP3 DUP5 SUB SLT ISZERO PUSH3 0xEE JUMPI PUSH3 0xED PUSH3 0x71 JUMP JUMPDEST JUMPDEST PUSH0 PUSH3 0xFD DUP5 DUP3 DUP6 ADD PUSH3 0xC0 JUMP JUMPDEST SWAP2 POP POP SWAP3 SWAP2 POP POP JUMP JUMPDEST PUSH1 0x80 MLOAD PUSH2 0x1AF2 PUSH3 0x13B PUSH0 CODECOPY PUSH0 DUP2 DUP2 PUSH2 0x497 ADD MSTORE DUP2 DUP2 PUSH2 0x9CE ADD MSTORE DUP2 DUP2 PUSH2 0xE25 ADD MSTORE DUP2 DUP2 PUSH2 0xF35 ADD MSTORE PUSH2 0x10A2 ADD MSTORE PUSH2 0x1AF2 PUSH0 RETURN INVALID PUSH1 0x80 PUSH1 0x40 MSTORE CALLVALUE DUP1 ISZERO PUSH2 0xF JUMPI PUSH0 DUP1 REVERT JUMPDEST POP PUSH1 0x4 CALLDATASIZE LT PUSH2 0x9C JUMPI PUSH0 CALLDATALOAD PUSH1 0xE0 SHR DUP1 PUSH4 0x40E58EE5 GT PUSH2 0x64 JUMPI DUP1 PUSH4 0x40E58EE5 EQ PUSH2 0x147 JUMPI DUP1 PUSH4 0x711853AB EQ PUSH2 0x163 JUMPI DUP1 PUSH4 0xAA4FB63A EQ PUSH2 0x17F JUMPI DUP1 PUSH4 0xFC0C546A EQ PUSH2 0x1AF JUMPI DUP1 PUSH4 0xFDE327BE EQ PUSH2 0x1CD JUMPI PUSH2 0x9C JUMP JUMPDEST DUP1 PUSH4 0x6661ABD EQ PUSH2 0xA0 JUMPI DUP1 PUSH4 0x141961BC EQ PUSH2 0xBE JUMPI DUP1 PUSH4 0x278ECDE1 EQ PUSH2 0xF3 JUMPI DUP1 PUSH4 0x2C63F146 EQ PUSH2 0x10F JUMPI DUP1 PUSH4 0x379607F5 EQ PUSH2 0x12B JUMPI JUMPDEST PUSH0 DUP1 REVERT JUMPDEST PUSH2 0xA8 PUSH2 0x1E9 JUMP JUMPDEST PUSH1 0x40 MLOAD PUSH2 0xB5 SWAP2 SWAP1 PUSH2 0x11AA JUMP JUMPDEST PUSH1 0x40 MLOAD DUP1 SWAP2 SUB SWAP1 RETURN JUMPDEST PUSH2 0xD8 PUSH1 0x4 DUP1 CALLDATASIZE SUB DUP2 ADD SWAP1 PUSH2 0xD3 SWAP2 SWAP1 PUSH2 0x11F1 JUMP JUMPDEST PUSH2 0x1EE JUMP JUMPDEST PUSH1 0x40 MLOAD PUSH2 0xEA SWAP7 SWAP6 SWAP5 SWAP4 SWAP3 SWAP2 SWAP1 PUSH2 0x1293 JUMP JUMPDEST PUSH1 0x40 MLOAD DUP1 SWAP2 SUB SWAP1 RETURN JUMPDEST PUSH2 0x10D PUSH1 0x4 DUP1 CALLDATASIZE SUB DUP2 ADD SWAP1 PUSH2 0x108 SWAP2 SWAP1 PUSH2 0x11F1 JUMP JUMPDEST PUSH2 0x271 JUMP JUMPDEST STOP JUMPDEST PUSH2 0x129 PUSH1 0x4 DUP1 CALLDATASIZE SUB DUP2 ADD SWAP1 PUSH2 0x124 SWAP2 SWAP1 PUSH2 0x131C JUMP JUMPDEST PUSH2 0x586 JUMP JUMPDEST STOP JUMPDEST PUSH2 0x145 PUSH1 0x4 DUP1 CALLDATASIZE SUB DUP2 ADD SWAP1 PUSH2 0x140 SWAP2 SWAP1 PUSH2 0x11F1 JUMP JUMPDEST PUSH2 0x812 JUMP JUMPDEST STOP JUMPDEST PUSH2 0x161 PUSH1 0x4 DUP1 CALLDATASIZE SUB DUP2 ADD SWAP1 PUSH2 0x15C SWAP2 SWAP1 PUSH2 0x11F1 JUMP JUMPDEST PUSH2 0xAC9 JUMP JUMPDEST STOP JUMPDEST PUSH2 0x17D PUSH1 0x4 DUP1 CALLDATASIZE SUB DUP2 ADD SWAP1 PUSH2 0x178 SWAP2 SWAP1 PUSH2 0x136C JUMP JUMPDEST PUSH2 0xD36 JUMP JUMPDEST STOP JUMPDEST PUSH2 0x199 PUSH1 0x4 DUP1 CALLDATASIZE SUB DUP2 ADD SWAP1 PUSH2 0x194 SWAP2 SWAP1 PUSH2 0x13D4 JUMP JUMPDEST PUSH2 0xF13 JUMP JUMPDEST PUSH1 0x40 MLOAD PUSH2 0x1A6 SWAP2 SWAP1 PUSH2 0x11AA JUMP JUMPDEST PUSH1 0x40 MLOAD DUP1 SWAP2 SUB SWAP1 RETURN JUMPDEST PUSH2 0x1B7 PUSH2 0xF33 JUMP JUMPDEST PUSH1 0x40 MLOAD PUSH2 0x1C4 SWAP2 SWAP1 PUSH2 0x146D JUMP JUMPDEST PUSH1 0x40 MLOAD DUP1 SWAP2 SUB SWAP1 RETURN JUMPDEST PUSH2 0x1E7 PUSH1 0x4 DUP1 CALLDATASIZE SUB DUP2 ADD SWAP1 PUSH2 0x1E2 SWAP2 SWAP1 PUSH2 0x136C JUMP JUMPDEST PUSH2 0xF57 JUMP JUMPDEST STOP JUMPDEST PUSH0 SLOAD DUP2 JUMP JUMPDEST PUSH1 0x1 PUSH1 0x20 MSTORE DUP1 PUSH0 MSTORE PUSH1 0x40 PUSH0 KECCAK256 PUSH0 SWAP2 POP SWAP1 POP DUP1 PUSH0 ADD PUSH0 SWAP1 SLOAD SWAP1 PUSH2 0x100 EXP SWAP1 DIV PUSH20 0xFFFFFFFFFFFFFFFFFFFFFFFFFFFFFFFFFFFFFFFF AND SWAP1 DUP1 PUSH1 0x1 ADD SLOAD SWAP1 DUP1 PUSH1 0x2 ADD SLOAD SWAP1 DUP1 PUSH1 0x3 ADD PUSH0 SWAP1 SLOAD SWAP1 PUSH2 0x100 EXP SWAP1 DIV PUSH4 0xFFFFFFFF AND SWAP1 DUP1 PUSH1 0x3 ADD PUSH1 0x4 SWAP1 SLOAD SWAP1 PUSH2 0x100 EXP SWAP1 DIV PUSH4 0xFFFFFFFF AND SWAP1 DUP1 PUSH1 0x3 ADD PUSH1 0x8 SWAP1 SLOAD SWAP1 PUSH2 0x100 EXP SWAP1 DIV PUSH1 0xFF AND SWAP1 POP DUP7 JUMP JUMPDEST PUSH0 PUSH1 0x1 PUSH0 DUP4 DUP2 MSTORE PUSH1 0x20 ADD SWAP1 DUP2 MSTORE PUSH1 0x20 ADD PUSH0 KECCAK256 PUSH1 0x40 MLOAD DUP1 PUSH1 0xC0 ADD PUSH1 0x40 MSTORE SWAP1 DUP2 PUSH0 DUP3 ADD PUSH0 SWAP1 SLOAD SWAP1 PUSH2 0x100 EXP SWAP1 DIV PUSH20 0xFFFFFFFFFFFFFFFFFFFFFFFFFFFFFFFFFFFFFFFF AND PUSH20 0xFFFFFFFFFFFFFFFFFFFFFFFFFFFFFFFFFFFFFFFF AND PUSH20 0xFFFFFFFFFFFFFFFFFFFFFFFFFFFFFFFFFFFFFFFF AND DUP2 MSTORE PUSH1 0x20 ADD PUSH1 0x1 DUP3 ADD SLOAD DUP2 MSTORE PUSH1 0x20 ADD PUSH1 0x2 DUP3 ADD SLOAD DUP2 MSTORE PUSH1 0x20 ADD PUSH1 0x3 DUP3 ADD PUSH0 SWAP1 SLOAD SWAP1 PUSH2 0x100 EXP SWAP1 DIV PUSH4 0xFFFFFFFF AND PUSH4 0xFFFFFFFF AND PUSH4 0xFFFFFFFF AND DUP2 MSTORE PUSH1 0x20 ADD PUSH1 0x3 DUP3 ADD PUSH1 0x4 SWAP1 SLOAD SWAP1 PUSH2 0x100 EXP SWAP1 DIV PUSH4 0xFFFFFFFF AND PUSH4 0xFFFFFFFF AND PUSH4 0xFFFFFFFF AND DUP2 MSTORE PUSH1 0x20 ADD PUSH1 0x3 DUP3 ADD PUSH1 0x8 SWAP1 SLOAD SWAP1 PUSH2 0x100 EXP SWAP1 DIV PUSH1 0xFF AND ISZERO ISZERO ISZERO ISZERO DUP2 MSTORE POP POP SWAP1 POP DUP1 PUSH1 0x80 ADD MLOAD PUSH4 0xFFFFFFFF AND TIMESTAMP GT PUSH2 0x3AA JUMPI PUSH1 0x40 MLOAD PUSH32 0x8C379A000000000000000000000000000000000000000000000000000000000 DUP2 MSTORE PUSH1 0x4 ADD PUSH2 0x3A1 SWAP1 PUSH2 0x14E0 JUMP JUMPDEST PUSH1 0x40 MLOAD DUP1 SWAP2 SUB SWAP1 REVERT JUMPDEST DUP1 PUSH1 0x20 ADD MLOAD DUP2 PUSH1 0x40 ADD MLOAD LT PUSH2 0x3F4 JUMPI PUSH1 0x40 MLOAD PUSH32 0x8C379A000000000000000000000000000000000000000000000000000000000 DUP2 MSTORE PUSH1 0x4 ADD PUSH2 0x3EB SWAP1 PUSH2 0x1548 JUMP JUMPDEST PUSH1 0x40 MLOAD DUP1 SWAP2 SUB SWAP1 REVERT JUMPDEST PUSH0 PUSH1 0x2 PUSH0 DUP5 DUP2 MSTORE PUSH1 0x20 ADD SWAP1 DUP2 MSTORE PUSH1 0x20 ADD PUSH0 KECCAK256 PUSH0 CALLER PUSH20 0xFFFFFFFFFFFFFFFFFFFFFFFFFFFFFFFFFFFFFFFF AND PUSH20 0xFFFFFFFFFFFFFFFFFFFFFFFFFFFFFFFFFFFFFFFF AND DUP2 MSTORE PUSH1 0x20 ADD SWAP1 DUP2 MSTORE PUSH1 0x20 ADD PUSH0 KECCAK256 SLOAD SWAP1 POP PUSH0 PUSH1 0x2 PUSH0 DUP6 DUP2 MSTORE PUSH1 0x20 ADD SWAP1 DUP2 MSTORE PUSH1 0x20 ADD PUSH0 KECCAK256 PUSH0 CALLER PUSH20 0xFFFFFFFFFFFFFFFFFFFFFFFFFFFFFFFFFFFFFFFF AND PUSH20 0xFFFFFFFFFFFFFFFFFFFFFFFFFFFFFFFFFFFFFFFF AND DUP2 MSTORE PUSH1 0x20 ADD SWAP1 DUP2 MSTORE PUSH1 0x20 ADD PUSH0 KECCAK256 DUP2 SWAP1 SSTORE POP PUSH32 0x0 PUSH20 0xFFFFFFFFFFFFFFFFFFFFFFFFFFFFFFFFFFFFFFFF AND PUSH4 0xA9059CBB CALLER DUP4 PUSH1 0x40 MLOAD DUP4 PUSH4 0xFFFFFFFF AND PUSH1 0xE0 SHL DUP2 MSTORE PUSH1 0x4 ADD PUSH2 0x4F0 SWAP3 SWAP2 SWAP1 PUSH2 0x1566 JUMP JUMPDEST PUSH1 0x20 PUSH1 0x40 MLOAD DUP1 DUP4 SUB DUP2 PUSH0 DUP8 GAS CALL ISZERO DUP1 ISZERO PUSH2 0x50C JUMPI RETURNDATASIZE PUSH0 DUP1 RETURNDATACOPY RETURNDATASIZE PUSH0 REVERT JUMPDEST POP POP POP POP PUSH1 0x40 MLOAD RETURNDATASIZE PUSH1 0x1F NOT PUSH1 0x1F DUP3 ADD AND DUP3 ADD DUP1 PUSH1 0x40 MSTORE POP DUP2 ADD SWAP1 PUSH2 0x530 SWAP2 SWAP1 PUSH2 0x15B7 JUMP JUMPDEST POP CALLER PUSH20 0xFFFFFFFFFFFFFFFFFFFFFFFFFFFFFFFFFFFFFFFF AND PUSH32 0x21E12A7CAD0DA5928167E1084EA4D5FDF8D9AF66657A2543A9AC76A0CA081477 DUP5 DUP4 PUSH1 0x40 MLOAD PUSH2 0x579 SWAP3 SWAP2 SWAP1 PUSH2 0x15E2 JUMP JUMPDEST PUSH1 0x40 MLOAD DUP1 SWAP2 SUB SWAP1 LOG2 POP POP POP JUMP JUMPDEST TIMESTAMP DUP3 PUSH4 0xFFFFFFFF AND LT ISZERO PUSH2 0x5CF JUMPI PUSH1 0x40 MLOAD PUSH32 0x8C379A000000000000000000000000000000000000000000000000000000000 DUP2 MSTORE PUSH1 0x4 ADD PUSH2 0x5C6 SWAP1 PUSH2 0x1653 JUMP JUMPDEST PUSH1 0x40 MLOAD DUP1 SWAP2 SUB SWAP1 REVERT JUMPDEST DUP2 PUSH4 0xFFFFFFFF AND DUP2 PUSH4 0xFFFFFFFF AND LT ISZERO PUSH2 0x61E JUMPI PUSH1 0x40 MLOAD PUSH32 0x8C379A000000000000000000000000000000000000000000000000000000000 DUP2 MSTORE PUSH1 0x4 ADD PUSH2 0x615 SWAP1 PUSH2 0x16BB JUMP JUMPDEST PUSH1 0x40 MLOAD DUP1 SWAP2 SUB SWAP1 REVERT JUMPDEST PUSH3 0x76A700 TIMESTAMP PUSH2 0x62D SWAP2 SWAP1 PUSH2 0x1706 JUMP JUMPDEST DUP2 PUSH4 0xFFFFFFFF AND GT ISZERO PUSH2 0x675 JUMPI PUSH1 0x40 MLOAD PUSH32 0x8C379A000000000000000000000000000000000000000000000000000000000 DUP2 MSTORE PUSH1 0x4 ADD PUSH2 0x66C SWAP1 PUSH2 0x1783 JUMP JUMPDEST PUSH1 0x40 MLOAD DUP1 SWAP2 SUB SWAP1 REVERT JUMPDEST PUSH1 0x1 PUSH0 DUP1 DUP3 DUP3 SLOAD PUSH2 0x686 SWAP2 SWAP1 PUSH2 0x1706 JUMP JUMPDEST SWAP3 POP POP DUP2 SWAP1 SSTORE POP PUSH1 0x40 MLOAD DUP1 PUSH1 0xC0 ADD PUSH1 0x40 MSTORE DUP1 CALLER PUSH20 0xFFFFFFFFFFFFFFFFFFFFFFFFFFFFFFFFFFFFFFFF AND DUP2 MSTORE PUSH1 0x20 ADD DUP5 DUP2 MSTORE PUSH1 0x20 ADD PUSH0 DUP2 MSTORE PUSH1 0x20 ADD DUP4 PUSH4 0xFFFFFFFF AND DUP2 MSTORE PUSH1 0x20 ADD DUP3 PUSH4 0xFFFFFFFF AND DUP2 MSTORE PUSH1 0x20 ADD PUSH0 ISZERO ISZERO DUP2 MSTORE POP PUSH1 0x1 PUSH0 DUP1 SLOAD DUP2 MSTORE PUSH1 0x20 ADD SWAP1 DUP2 MSTORE PUSH1 0x20 ADD PUSH0 KECCAK256 PUSH0 DUP3 ADD MLOAD DUP2 PUSH0 ADD PUSH0 PUSH2 0x100 EXP DUP2 SLOAD DUP2 PUSH20 0xFFFFFFFFFFFFFFFFFFFFFFFFFFFFFFFFFFFFFFFF MUL NOT AND SWAP1 DUP4 PUSH20 0xFFFFFFFFFFFFFFFFFFFFFFFFFFFFFFFFFFFFFFFF AND MUL OR SWAP1 SSTORE POP PUSH1 0x20 DUP3 ADD MLOAD DUP2 PUSH1 0x1 ADD SSTORE PUSH1 0x40 DUP3 ADD MLOAD DUP2 PUSH1 0x2 ADD SSTORE PUSH1 0x60 DUP3 ADD MLOAD DUP2 PUSH1 0x3 ADD PUSH0 PUSH2 0x100 EXP DUP2 SLOAD DUP2 PUSH4 0xFFFFFFFF MUL NOT AND SWAP1 DUP4 PUSH4 0xFFFFFFFF AND MUL OR SWAP1 SSTORE POP PUSH1 0x80 DUP3 ADD MLOAD DUP2 PUSH1 0x3 ADD PUSH1 0x4 PUSH2 0x100 EXP DUP2 SLOAD DUP2 PUSH4 0xFFFFFFFF MUL NOT AND SWAP1 DUP4 PUSH4 0xFFFFFFFF AND MUL OR SWAP1 SSTORE POP PUSH1 0xA0 DUP3 ADD MLOAD DUP2 PUSH1 0x3 ADD PUSH1 0x8 PUSH2 0x100 EXP DUP2 SLOAD DUP2 PUSH1 0xFF MUL NOT AND SWAP1 DUP4 ISZERO ISZERO MUL OR SWAP1 SSTORE POP SWAP1 POP POP CALLER PUSH20 0xFFFFFFFFFFFFFFFFFFFFFFFFFFFFFFFFFFFFFFFF AND PUSH32 0x601CD0D650B473037E838A2696D41E654433D065B3F56B28D1D3302E44A304F PUSH0 SLOAD DUP6 DUP6 DUP6 PUSH1 0x40 MLOAD PUSH2 0x805 SWAP5 SWAP4 SWAP3 SWAP2 SWAP1 PUSH2 0x17A1 JUMP JUMPDEST PUSH1 0x40 MLOAD DUP1 SWAP2 SUB SWAP1 LOG2 POP POP POP JUMP JUMPDEST PUSH0 PUSH1 0x1 PUSH0 DUP4 DUP2 MSTORE PUSH1 0x20 ADD SWAP1 DUP2 MSTORE PUSH1 0x20 ADD PUSH0 KECCAK256 SWAP1 POP CALLER PUSH20 0xFFFFFFFFFFFFFFFFFFFFFFFFFFFFFFFFFFFFFFFF AND DUP2 PUSH0 ADD PUSH0 SWAP1 SLOAD SWAP1 PUSH2 0x100 EXP SWAP1 DIV PUSH20 0xFFFFFFFFFFFFFFFFFFFFFFFFFFFFFFFFFFFFFFFF AND PUSH20 0xFFFFFFFFFFFFFFFFFFFFFFFFFFFFFFFFFFFFFFFF AND EQ PUSH2 0x8B6 JUMPI PUSH1 0x40 MLOAD PUSH32 0x8C379A000000000000000000000000000000000000000000000000000000000 DUP2 MSTORE PUSH1 0x4 ADD PUSH2 0x8AD SWAP1 PUSH2 0x182E JUMP JUMPDEST PUSH1 0x40 MLOAD DUP1 SWAP2 SUB SWAP1 REVERT JUMPDEST DUP1 PUSH1 0x3 ADD PUSH1 0x4 SWAP1 SLOAD SWAP1 PUSH2 0x100 EXP SWAP1 DIV PUSH4 0xFFFFFFFF AND PUSH4 0xFFFFFFFF AND TIMESTAMP GT PUSH2 0x912 JUMPI PUSH1 0x40 MLOAD PUSH32 0x8C379A000000000000000000000000000000000000000000000000000000000 DUP2 MSTORE PUSH1 0x4 ADD PUSH2 0x909 SWAP1 PUSH2 0x14E0 JUMP JUMPDEST PUSH1 0x40 MLOAD DUP1 SWAP2 SUB SWAP1 REVERT JUMPDEST DUP1 PUSH1 0x1 ADD SLOAD DUP2 PUSH1 0x2 ADD SLOAD LT ISZERO PUSH2 0x95D JUMPI PUSH1 0x40 MLOAD PUSH32 0x8C379A000000000000000000000000000000000000000000000000000000000 DUP2 MSTORE PUSH1 0x4 ADD PUSH2 0x954 SWAP1 PUSH2 0x1896 JUMP JUMPDEST PUSH1 0x40 MLOAD DUP1 SWAP2 SUB SWAP1 REVERT JUMPDEST DUP1 PUSH1 0x3 ADD PUSH1 0x8 SWAP1 SLOAD SWAP1 PUSH2 0x100 EXP SWAP1 DIV PUSH1 0xFF AND ISZERO PUSH2 0x9AF JUMPI PUSH1 0x40 MLOAD PUSH32 0x8C379A000000000000000000000000000000000000000000000000000000000 DUP2 MSTORE PUSH1 0x4 ADD PUSH2 0x9A6 SWAP1 PUSH2 0x18FE JUMP JUMPDEST PUSH1 0x40 MLOAD DUP1 SWAP2 SUB SWAP1 REVERT JUMPDEST PUSH1 0x1 DUP2 PUSH1 0x3 ADD PUSH1 0x8 PUSH2 0x100 EXP DUP2 SLOAD DUP2 PUSH1 0xFF MUL NOT AND SWAP1 DUP4 ISZERO ISZERO MUL OR SWAP1 SSTORE POP PUSH32 0x0 PUSH20 0xFFFFFFFFFFFFFFFFFFFFFFFFFFFFFFFFFFFFFFFF AND PUSH4 0xA9059CBB DUP3 PUSH0 ADD PUSH0 SWAP1 SLOAD SWAP1 PUSH2 0x100 EXP SWAP1 DIV PUSH20 0xFFFFFFFFFFFFFFFFFFFFFFFFFFFFFFFFFFFFFFFF AND DUP4 PUSH1 0x2 ADD SLOAD PUSH1 0x40 MLOAD DUP4 PUSH4 0xFFFFFFFF AND PUSH1 0xE0 SHL DUP2 MSTORE PUSH1 0x4 ADD PUSH2 0xA4D SWAP3 SWAP2 SWAP1 PUSH2 0x1566 JUMP JUMPDEST PUSH1 0x20 PUSH1 0x40 MLOAD DUP1 DUP4 SUB DUP2 PUSH0 DUP8 GAS CALL ISZERO DUP1 ISZERO PUSH2 0xA69 JUMPI RETURNDATASIZE PUSH0 DUP1 RETURNDATACOPY RETURNDATASIZE PUSH0 REVERT JUMPDEST POP POP POP POP PUSH1 0x40 MLOAD RETURNDATASIZE PUSH1 0x1F NOT PUSH1 0x1F DUP3 ADD AND DUP3 ADD DUP1 PUSH1 0x40 MSTORE POP DUP2 ADD SWAP1 PUSH2 0xA8D SWAP2 SWAP1 PUSH2 0x15B7 JUMP JUMPDEST POP PUSH32 0x7BB2B3C10797BACCB6F8C4791F1EDD6CA2F0D028EE0EDA64B01A9A57E3A653F7 DUP3 PUSH1 0x40 MLOAD PUSH2 0xABD SWAP2 SWAP1 PUSH2 0x11AA JUMP JUMPDEST PUSH1 0x40 MLOAD DUP1 SWAP2 SUB SWAP1 LOG1 POP POP JUMP JUMPDEST PUSH0 PUSH1 0x1 PUSH0 DUP4 DUP2 MSTORE PUSH1 0x20 ADD SWAP1 DUP2 MSTORE PUSH1 0x20 ADD PUSH0 KECCAK256 PUSH1 0x40 MLOAD DUP1 PUSH1 0xC0 ADD PUSH1 0x40 MSTORE SWAP1 DUP2 PUSH0 DUP3 ADD PUSH0 SWAP1 SLOAD SWAP1 PUSH2 0x100 EXP SWAP1 DIV PUSH20 0xFFFFFFFFFFFFFFFFFFFFFFFFFFFFFFFFFFFFFFFF AND PUSH20 0xFFFFFFFFFFFFFFFFFFFFFFFFFFFFFFFFFFFFFFFF AND PUSH20 0xFFFFFFFFFFFFFFFFFFFFFFFFFFFFFFFFFFFFFFFF AND DUP2 MSTORE PUSH1 0x20 ADD PUSH1 0x1 DUP3 ADD SLOAD DUP2 MSTORE PUSH1 0x20 ADD PUSH1 0x2 DUP3 ADD SLOAD DUP2 MSTORE PUSH1 0x20 ADD PUSH1 0x3 DUP3 ADD PUSH0 SWAP1 SLOAD SWAP1 PUSH2 0x100 EXP SWAP1 DIV PUSH4 0xFFFFFFFF AND PUSH4 0xFFFFFFFF AND PUSH4 0xFFFFFFFF AND DUP2 MSTORE PUSH1 0x20 ADD PUSH1 0x3 DUP3 ADD PUSH1 0x4 SWAP1 SLOAD SWAP1 PUSH2 0x100 EXP SWAP1 DIV PUSH4 0xFFFFFFFF AND PUSH4 0xFFFFFFFF AND PUSH4 0xFFFFFFFF AND DUP2 MSTORE PUSH1 0x20 ADD PUSH1 0x3 DUP3 ADD PUSH1 0x8 SWAP1 SLOAD SWAP1 PUSH2 0x100 EXP SWAP1 DIV PUSH1 0xFF AND ISZERO ISZERO ISZERO ISZERO DUP2 MSTORE POP POP SWAP1 POP CALLER PUSH20 0xFFFFFFFFFFFFFFFFFFFFFFFFFFFFFFFFFFFFFFFF AND DUP2 PUSH0 ADD MLOAD PUSH20 0xFFFFFFFFFFFFFFFFFFFFFFFFFFFFFFFFFFFFFFFF AND EQ PUSH2 0xC27 JUMPI PUSH1 0x40 MLOAD PUSH32 0x8C379A000000000000000000000000000000000000000000000000000000000 DUP2 MSTORE PUSH1 0x4 ADD PUSH2 0xC1E SWAP1 PUSH2 0x182E JUMP JUMPDEST PUSH1 0x40 MLOAD DUP1 SWAP2 SUB SWAP1 REVERT JUMPDEST DUP1 PUSH1 0x60 ADD MLOAD PUSH4 0xFFFFFFFF AND TIMESTAMP LT PUSH2 0xC73 JUMPI PUSH1 0x40 MLOAD PUSH32 0x8C379A000000000000000000000000000000000000000000000000000000000 DUP2 MSTORE PUSH1 0x4 ADD PUSH2 0xC6A SWAP1 PUSH2 0x1966 JUMP JUMPDEST PUSH1 0x40 MLOAD DUP1 SWAP2 SUB SWAP1 REVERT JUMPDEST PUSH1 0x1 PUSH0 DUP4 DUP2 MSTORE PUSH1 0x20 ADD SWAP1 DUP2 MSTORE PUSH1 0x20 ADD PUSH0 KECCAK256 PUSH0 DUP1 DUP3 ADD PUSH0 PUSH2 0x100 EXP DUP2 SLOAD SWAP1 PUSH20 0xFFFFFFFFFFFFFFFFFFFFFFFFFFFFFFFFFFFFFFFF MUL NOT AND SWAP1 SSTORE PUSH1 0x1 DUP3 ADD PUSH0 SWAP1 SSTORE PUSH1 0x2 DUP3 ADD PUSH0 SWAP1 SSTORE PUSH1 0x3 DUP3 ADD PUSH0 PUSH2 0x100 EXP DUP2 SLOAD SWAP1 PUSH4 0xFFFFFFFF MUL NOT AND SWAP1 SSTORE PUSH1 0x3 DUP3 ADD PUSH1 0x4 PUSH2 0x100 EXP DUP2 SLOAD SWAP1 PUSH4 0xFFFFFFFF MUL NOT AND SWAP1 SSTORE PUSH1 0x3 DUP3 ADD PUSH1 0x8 PUSH2 0x100 EXP DUP2 SLOAD SWAP1 PUSH1 0xFF MUL NOT AND SWAP1 SSTORE POP POP PUSH32 0x8BF30E7FF26833413BE5F69E1D373744864D600B664204B4A2F9844A8EEDB9ED DUP3 PUSH1 0x40 MLOAD PUSH2 0xD2A SWAP2 SWAP1 PUSH2 0x11AA JUMP JUMPDEST PUSH1 0x40 MLOAD DUP1 SWAP2 SUB SWAP1 LOG1 POP POP JUMP JUMPDEST PUSH0 PUSH1 0x1 PUSH0 DUP5 DUP2 MSTORE PUSH1 0x20 ADD SWAP1 DUP2 MSTORE PUSH1 0x20 ADD PUSH0 KECCAK256 SWAP1 POP DUP1 PUSH1 0x3 ADD PUSH1 0x4 SWAP1 SLOAD SWAP1 PUSH2 0x100 EXP SWAP1 DIV PUSH4 0xFFFFFFFF AND PUSH4 0xFFFFFFFF AND TIMESTAMP GT ISZERO PUSH2 0xDA7 JUMPI PUSH1 0x40 MLOAD PUSH32 0x8C379A000000000000000000000000000000000000000000000000000000000 DUP2 MSTORE PUSH1 0x4 ADD PUSH2 0xD9E SWAP1 PUSH2 0x19CE JUMP JUMPDEST PUSH1 0x40 MLOAD DUP1 SWAP2 SUB SWAP1 REVERT JUMPDEST DUP2 DUP2 PUSH1 0x2 ADD PUSH0 DUP3 DUP3 SLOAD PUSH2 0xDBA SWAP2 SWAP1 PUSH2 0x19EC JUMP JUMPDEST SWAP3 POP POP DUP2 SWAP1 SSTORE POP DUP2 PUSH1 0x2 PUSH0 DUP6 DUP2 MSTORE PUSH1 0x20 ADD SWAP1 DUP2 MSTORE PUSH1 0x20 ADD PUSH0 KECCAK256 PUSH0 CALLER PUSH20 0xFFFFFFFFFFFFFFFFFFFFFFFFFFFFFFFFFFFFFFFF AND PUSH20 0xFFFFFFFFFFFFFFFFFFFFFFFFFFFFFFFFFFFFFFFF AND DUP2 MSTORE PUSH1 0x20 ADD SWAP1 DUP2 MSTORE PUSH1 0x20 ADD PUSH0 KECCAK256 PUSH0 DUP3 DUP3 SLOAD PUSH2 0xE1C SWAP2 SWAP1 PUSH2 0x19EC JUMP JUMPDEST SWAP3 POP POP DUP2 SWAP1 SSTORE POP PUSH32 0x0 PUSH20 0xFFFFFFFFFFFFFFFFFFFFFFFFFFFFFFFFFFFFFFFF AND PUSH4 0xA9059CBB CALLER DUP5 PUSH1 0x40 MLOAD DUP4 PUSH4 0xFFFFFFFF AND PUSH1 0xE0 SHL DUP2 MSTORE PUSH1 0x4 ADD PUSH2 0xE7E SWAP3 SWAP2 SWAP1 PUSH2 0x1566 JUMP JUMPDEST PUSH1 0x20 PUSH1 0x40 MLOAD DUP1 DUP4 SUB DUP2 PUSH0 DUP8 GAS CALL ISZERO DUP1 ISZERO PUSH2 0xE9A JUMPI RETURNDATASIZE PUSH0 DUP1 RETURNDATACOPY RETURNDATASIZE PUSH0 REVERT JUMPDEST POP POP POP POP PUSH1 0x40 MLOAD RETURNDATASIZE PUSH1 0x1F NOT PUSH1 0x1F DUP3 ADD AND DUP3 ADD DUP1 PUSH1 0x40 MSTORE POP DUP2 ADD SWAP1 PUSH2 0xEBE SWAP2 SWAP1 PUSH2 0x15B7 JUMP JUMPDEST POP CALLER PUSH20 0xFFFFFFFFFFFFFFFFFFFFFFFFFFFFFFFFFFFFFFFF AND DUP4 PUSH32 0x2EEEAB891B26A214D1B25749F88A406BDEA852BD8C9BFDA977E0EF8114C180BA DUP5 PUSH1 0x40 MLOAD PUSH2 0xF06 SWAP2 SWAP1 PUSH2 0x11AA JUMP JUMPDEST PUSH1 0x40 MLOAD DUP1 SWAP2 SUB SWAP1 LOG3 POP POP POP JUMP JUMPDEST PUSH1 0x2 PUSH1 0x20 MSTORE DUP2 PUSH0 MSTORE PUSH1 0x40 PUSH0 KECCAK256 PUSH1 0x20 MSTORE DUP1 PUSH0 MSTORE PUSH1 0x40 PUSH0 KECCAK256 PUSH0 SWAP2 POP SWAP2 POP POP SLOAD DUP2 JUMP JUMPDEST PUSH32 0x0 DUP2 JUMP JUMPDEST PUSH0 PUSH1 0x1 PUSH0 DUP5 DUP2 MSTORE PUSH1 0x20 ADD SWAP1 DUP2 MSTORE PUSH1 0x20 ADD PUSH0 KECCAK256 SWAP1 POP DUP1 PUSH1 0x3 ADD PUSH0 SWAP1 SLOAD SWAP1 PUSH2 0x100 EXP SWAP1 DIV PUSH4 0xFFFFFFFF AND PUSH4 0xFFFFFFFF AND TIMESTAMP LT ISZERO PUSH2 0xFC7 JUMPI PUSH1 0x40 MLOAD PUSH32 0x8C379A000000000000000000000000000000000000000000000000000000000 DUP2 MSTORE PUSH1 0x4 ADD PUSH2 0xFBE SWAP1 PUSH2 0x1A69 JUMP JUMPDEST PUSH1 0x40 MLOAD DUP1 SWAP2 SUB SWAP1 REVERT JUMPDEST DUP1 PUSH1 0x3 ADD PUSH1 0x4 SWAP1 SLOAD SWAP1 PUSH2 0x100 EXP SWAP1 DIV PUSH4 0xFFFFFFFF AND PUSH4 0xFFFFFFFF AND TIMESTAMP GT ISZERO PUSH2 0x1024 JUMPI PUSH1 0x40 MLOAD PUSH32 0x8C379A000000000000000000000000000000000000000000000000000000000 DUP2 MSTORE PUSH1 0x4 ADD PUSH2 0x101B SWAP1 PUSH2 0x19CE JUMP JUMPDEST PUSH1 0x40 MLOAD DUP1 SWAP2 SUB SWAP1 REVERT JUMPDEST DUP2 DUP2 PUSH1 0x2 ADD PUSH0 DUP3 DUP3 SLOAD PUSH2 0x1037 SWAP2 SWAP1 PUSH2 0x1706 JUMP JUMPDEST SWAP3 POP POP DUP2 SWAP1 SSTORE POP DUP2 PUSH1 0x2 PUSH0 DUP6 DUP2 MSTORE PUSH1 0x20 ADD SWAP1 DUP2 MSTORE PUSH1 0x20 ADD PUSH0 KECCAK256 PUSH0 CALLER PUSH20 0xFFFFFFFFFFFFFFFFFFFFFFFFFFFFFFFFFFFFFFFF AND PUSH20 0xFFFFFFFFFFFFFFFFFFFFFFFFFFFFFFFFFFFFFFFF AND DUP2 MSTORE PUSH1 0x20 ADD SWAP1 DUP2 MSTORE PUSH1 0x20 ADD PUSH0 KECCAK256 PUSH0 DUP3 DUP3 SLOAD PUSH2 0x1099 SWAP2 SWAP1 PUSH2 0x1706 JUMP JUMPDEST SWAP3 POP POP DUP2 SWAP1 SSTORE POP PUSH32 0x0 PUSH20 0xFFFFFFFFFFFFFFFFFFFFFFFFFFFFFFFFFFFFFFFF AND PUSH4 0x23B872DD CALLER ADDRESS DUP6 PUSH1 0x40 MLOAD DUP5 PUSH4 0xFFFFFFFF AND PUSH1 0xE0 SHL DUP2 MSTORE PUSH1 0x4 ADD PUSH2 0x10FD SWAP4 SWAP3 SWAP2 SWAP1 PUSH2 0x1A87 JUMP JUMPDEST PUSH1 0x20 PUSH1 0x40 MLOAD DUP1 DUP4 SUB DUP2 PUSH0 DUP8 GAS CALL ISZERO DUP1 ISZERO PUSH2 0x1119 JUMPI RETURNDATASIZE PUSH0 DUP1 RETURNDATACOPY RETURNDATASIZE PUSH0 REVERT JUMPDEST POP POP POP POP PUSH1 0x40 MLOAD RETURNDATASIZE PUSH1 0x1F NOT PUSH1 0x1F DUP3 ADD AND DUP3 ADD DUP1 PUSH1 0x40 MSTORE POP DUP2 ADD SWAP1 PUSH2 0x113D SWAP2 SWAP1 PUSH2 0x15B7 JUMP JUMPDEST POP CALLER PUSH20 0xFFFFFFFFFFFFFFFFFFFFFFFFFFFFFFFFFFFFFFFF AND DUP4 PUSH32 0x6BDB975DF800A73232998E71ED585D536222F1DFEAA622D7F62A23ADA686C82 DUP5 PUSH1 0x40 MLOAD PUSH2 0x1185 SWAP2 SWAP1 PUSH2 0x11AA JUMP JUMPDEST PUSH1 0x40 MLOAD DUP1 SWAP2 SUB SWAP1 LOG3 POP POP POP JUMP JUMPDEST PUSH0 DUP2 SWAP1 POP SWAP2 SWAP1 POP JUMP JUMPDEST PUSH2 0x11A4 DUP2 PUSH2 0x1192 JUMP JUMPDEST DUP3 MSTORE POP POP JUMP JUMPDEST PUSH0 PUSH1 0x20 DUP3 ADD SWAP1 POP PUSH2 0x11BD PUSH0 DUP4 ADD DUP5 PUSH2 0x119B JUMP JUMPDEST SWAP3 SWAP2 POP POP JUMP JUMPDEST PUSH0 DUP1 REVERT JUMPDEST PUSH2 0x11D0 DUP2 PUSH2 0x1192 JUMP JUMPDEST DUP2 EQ PUSH2 0x11DA JUMPI PUSH0 DUP1 REVERT JUMPDEST POP JUMP JUMPDEST PUSH0 DUP2 CALLDATALOAD SWAP1 POP PUSH2 0x11EB DUP2 PUSH2 0x11C7 JUMP JUMPDEST SWAP3 SWAP2 POP POP JUMP JUMPDEST PUSH0 PUSH1 0x20 DUP3 DUP5 SUB SLT ISZERO PUSH2 0x1206 JUMPI PUSH2 0x1205 PUSH2 0x11C3 JUMP JUMPDEST JUMPDEST PUSH0 PUSH2 0x1213 DUP5 DUP3 DUP6 ADD PUSH2 0x11DD JUMP JUMPDEST SWAP2 POP POP SWAP3 SWAP2 POP POP JUMP JUMPDEST PUSH0 PUSH20 0xFFFFFFFFFFFFFFFFFFFFFFFFFFFFFFFFFFFFFFFF DUP3 AND SWAP1 POP SWAP2 SWAP1 POP JUMP JUMPDEST PUSH0 PUSH2 0x1245 DUP3 PUSH2 0x121C JUMP JUMPDEST SWAP1 POP SWAP2 SWAP1 POP JUMP JUMPDEST PUSH2 0x1255 DUP2 PUSH2 0x123B JUMP JUMPDEST DUP3 MSTORE POP POP JUMP JUMPDEST PUSH0 PUSH4 0xFFFFFFFF DUP3 AND SWAP1 POP SWAP2 SWAP1 POP JUMP JUMPDEST PUSH2 0x1273 DUP2 PUSH2 0x125B JUMP JUMPDEST DUP3 MSTORE POP POP JUMP JUMPDEST PUSH0 DUP2 ISZERO ISZERO SWAP1 POP SWAP2 SWAP1 POP JUMP JUMPDEST PUSH2 0x128D DUP2 PUSH2 0x1279 JUMP JUMPDEST DUP3 MSTORE POP POP JUMP JUMPDEST PUSH0 PUSH1 0xC0 DUP3 ADD SWAP1 POP PUSH2 0x12A6 PUSH0 DUP4 ADD DUP10 PUSH2 0x124C JUMP JUMPDEST PUSH2 0x12B3 PUSH1 0x20 DUP4 ADD DUP9 PUSH2 0x119B JUMP JUMPDEST PUSH2 0x12C0 PUSH1 0x40 DUP4 ADD DUP8 PUSH2 0x119B JUMP JUMPDEST PUSH2 0x12CD PUSH1 0x60 DUP4 ADD DUP7 PUSH2 0x126A JUMP JUMPDEST PUSH2 0x12DA PUSH1 0x80 DUP4 ADD DUP6 PUSH2 0x126A JUMP JUMPDEST PUSH2 0x12E7 PUSH1 0xA0 DUP4 ADD DUP5 PUSH2 0x1284 JUMP JUMPDEST SWAP8 SWAP7 POP POP POP POP POP POP POP JUMP JUMPDEST PUSH2 0x12FB DUP2 PUSH2 0x125B JUMP JUMPDEST DUP2 EQ PUSH2 0x1305 JUMPI PUSH0 DUP1 REVERT JUMPDEST POP JUMP JUMPDEST PUSH0 DUP2 CALLDATALOAD SWAP1 POP PUSH2 0x1316 DUP2 PUSH2 0x12F2 JUMP JUMPDEST SWAP3 SWAP2 POP POP JUMP JUMPDEST PUSH0 DUP1 PUSH0 PUSH1 0x60 DUP5 DUP7 SUB SLT ISZERO PUSH2 0x1333 JUMPI PUSH2 0x1332 PUSH2 0x11C3 JUMP JUMPDEST JUMPDEST PUSH0 PUSH2 0x1340 DUP7 DUP3 DUP8 ADD PUSH2 0x11DD JUMP JUMPDEST SWAP4 POP POP PUSH1 0x20 PUSH2 0x1351 DUP7 DUP3 DUP8 ADD PUSH2 0x1308 JUMP JUMPDEST SWAP3 POP POP PUSH1 0x40 PUSH2 0x1362 DUP7 DUP3 DUP8 ADD PUSH2 0x1308 JUMP JUMPDEST SWAP2 POP POP SWAP3 POP SWAP3 POP SWAP3 JUMP JUMPDEST PUSH0 DUP1 PUSH1 0x40 DUP4 DUP6 SUB SLT ISZERO PUSH2 0x1382 JUMPI PUSH2 0x1381 PUSH2 0x11C3 JUMP JUMPDEST JUMPDEST PUSH0 PUSH2 0x138F DUP6 DUP3 DUP7 ADD PUSH2 0x11DD JUMP JUMPDEST SWAP3 POP POP PUSH1 0x20 PUSH2 0x13A0 DUP6 DUP3 DUP7 ADD PUSH2 0x11DD JUMP JUMPDEST SWAP2 POP POP SWAP3 POP SWAP3 SWAP1 POP JUMP JUMPDEST PUSH2 0x13B3 DUP2 PUSH2 0x123B JUMP JUMPDEST DUP2 EQ PUSH2 0x13BD JUMPI PUSH0 DUP1 REVERT JUMPDEST POP JUMP JUMPDEST PUSH0 DUP2 CALLDATALOAD SWAP1 POP PUSH2 0x13CE DUP2 PUSH2 0x13AA JUMP JUMPDEST SWAP3 SWAP2 POP POP JUMP JUMPDEST PUSH0 DUP1 PUSH1 0x40 DUP4 DUP6 SUB SLT ISZERO PUSH2 0x13EA JUMPI PUSH2 0x13E9 PUSH2 0x11C3 JUMP JUMPDEST JUMPDEST PUSH0 PUSH2 0x13F7 DUP6 DUP3 DUP7 ADD PUSH2 0x11DD JUMP JUMPDEST SWAP3 POP POP PUSH1 0x20 PUSH2 0x1408 DUP6 DUP3 DUP7 ADD PUSH2 0x13C0 JUMP JUMPDEST SWAP2 POP POP SWAP3 POP SWAP3 SWAP1 POP JUMP JUMPDEST PUSH0 DUP2 SWAP1 POP SWAP2 SWAP1 POP JUMP JUMPDEST PUSH0 PUSH2 0x1435 PUSH2 0x1430 PUSH2 0x142B DUP5 PUSH2 0x121C JUMP JUMPDEST PUSH2 0x1412 JUMP JUMPDEST PUSH2 0x121C JUMP JUMPDEST SWAP1 POP SWAP2 SWAP1 POP JUMP JUMPDEST PUSH0 PUSH2 0x1446 DUP3 PUSH2 0x141B JUMP JUMPDEST SWAP1 POP SWAP2 SWAP1 POP JUMP JUMPDEST PUSH0 PUSH2 0x1457 DUP3 PUSH2 0x143C JUMP JUMPDEST SWAP1 POP SWAP2 SWAP1 POP JUMP JUMPDEST PUSH2 0x1467 DUP2 PUSH2 0x144D JUMP JUMPDEST DUP3 MSTORE POP POP JUMP JUMPDEST PUSH0 PUSH1 0x20 DUP3 ADD SWAP1 POP PUSH2 0x1480 PUSH0 DUP4 ADD DUP5 PUSH2 0x145E JUMP JUMPDEST SWAP3 SWAP2 POP POP JUMP JUMPDEST PUSH0 DUP3 DUP3 MSTORE PUSH1 0x20 DUP3 ADD SWAP1 POP SWAP3 SWAP2 POP POP JUMP JUMPDEST PUSH32 0x6E6F7420656E6465640000000000000000000000000000000000000000000000 PUSH0 DUP3 ADD MSTORE POP JUMP JUMPDEST PUSH0 PUSH2 0x14CA PUSH1 0x9 DUP4 PUSH2 0x1486 JUMP JUMPDEST SWAP2 POP PUSH2 0x14D5 DUP3 PUSH2 0x1496 JUMP JUMPDEST PUSH1 0x20 DUP3 ADD SWAP1 POP SWAP2 SWAP1 POP JUMP JUMPDEST PUSH0 PUSH1 0x20 DUP3 ADD SWAP1 POP DUP2 DUP2 SUB PUSH0 DUP4 ADD MSTORE PUSH2 0x14F7 DUP2 PUSH2 0x14BE JUMP JUMPDEST SWAP1 POP SWAP2 SWAP1 POP JUMP JUMPDEST PUSH32 0x706C6564676564203E3D20676F616C0000000000000000000000000000000000 PUSH0 DUP3 ADD MSTORE POP JUMP JUMPDEST PUSH0 PUSH2 0x1532 PUSH1 0xF DUP4 PUSH2 0x1486 JUMP JUMPDEST SWAP2 POP PUSH2 0x153D DUP3 PUSH2 0x14FE JUMP JUMPDEST PUSH1 0x20 DUP3 ADD SWAP1 POP SWAP2 SWAP1 POP JUMP JUMPDEST PUSH0 PUSH1 0x20 DUP3 ADD SWAP1 POP DUP2 DUP2 SUB PUSH0 DUP4 ADD MSTORE PUSH2 0x155F DUP2 PUSH2 0x1526 JUMP JUMPDEST SWAP1 POP SWAP2 SWAP1 POP JUMP JUMPDEST PUSH0 PUSH1 0x40 DUP3 ADD SWAP1 POP PUSH2 0x1579 PUSH0 DUP4 ADD DUP6 PUSH2 0x124C JUMP JUMPDEST PUSH2 0x1586 PUSH1 0x20 DUP4 ADD DUP5 PUSH2 0x119B JUMP JUMPDEST SWAP4 SWAP3 POP POP POP JUMP JUMPDEST PUSH2 0x1596 DUP2 PUSH2 0x1279 JUMP JUMPDEST DUP2 EQ PUSH2 0x15A0 JUMPI PUSH0 DUP1 REVERT JUMPDEST POP JUMP JUMPDEST PUSH0 DUP2 MLOAD SWAP1 POP PUSH2 0x15B1 DUP2 PUSH2 0x158D JUMP JUMPDEST SWAP3 SWAP2 POP POP JUMP JUMPDEST PUSH0 PUSH1 0x20 DUP3 DUP5 SUB SLT ISZERO PUSH2 0x15CC JUMPI PUSH2 0x15CB PUSH2 0x11C3 JUMP JUMPDEST JUMPDEST PUSH0 PUSH2 0x15D9 DUP5 DUP3 DUP6 ADD PUSH2 0x15A3 JUMP JUMPDEST SWAP2 POP POP SWAP3 SWAP2 POP POP JUMP JUMPDEST PUSH0 PUSH1 0x40 DUP3 ADD SWAP1 POP PUSH2 0x15F5 PUSH0 DUP4 ADD DUP6 PUSH2 0x119B JUMP JUMPDEST PUSH2 0x1602 PUSH1 0x20 DUP4 ADD DUP5 PUSH2 0x119B JUMP JUMPDEST SWAP4 SWAP3 POP POP POP JUMP JUMPDEST PUSH32 0x7374617274206174203C206E6F77000000000000000000000000000000000000 PUSH0 DUP3 ADD MSTORE POP JUMP JUMPDEST PUSH0 PUSH2 0x163D PUSH1 0xE DUP4 PUSH2 0x1486 JUMP JUMPDEST SWAP2 POP PUSH2 0x1648 DUP3 PUSH2 0x1609 JUMP JUMPDEST PUSH1 0x20 DUP3 ADD SWAP1 POP SWAP2 SWAP1 POP JUMP JUMPDEST PUSH0 PUSH1 0x20 DUP3 ADD SWAP1 POP DUP2 DUP2 SUB PUSH0 DUP4 ADD MSTORE PUSH2 0x166A DUP2 PUSH2 0x1631 JUMP JUMPDEST SWAP1 POP SWAP2 SWAP1 POP JUMP JUMPDEST PUSH32 0x656E64206174203C207374617274206174000000000000000000000000000000 PUSH0 DUP3 ADD MSTORE POP JUMP JUMPDEST PUSH0 PUSH2 0x16A5 PUSH1 0x11 DUP4 PUSH2 0x1486 JUMP JUMPDEST SWAP2 POP PUSH2 0x16B0 DUP3 PUSH2 0x1671 JUMP JUMPDEST PUSH1 0x20 DUP3 ADD SWAP1 POP SWAP2 SWAP1 POP JUMP JUMPDEST PUSH0 PUSH1 0x20 DUP3 ADD SWAP1 POP DUP2 DUP2 SUB PUSH0 DUP4 ADD MSTORE PUSH2 0x16D2 DUP2 PUSH2 0x1699 JUMP JUMPDEST SWAP1 POP SWAP2 SWAP1 POP JUMP JUMPDEST PUSH32 0x4E487B7100000000000000000000000000000000000000000000000000000000 PUSH0 MSTORE PUSH1 0x11 PUSH1 0x4 MSTORE PUSH1 0x24 PUSH0 REVERT JUMPDEST PUSH0 PUSH2 0x1710 DUP3 PUSH2 0x1192 JUMP JUMPDEST SWAP2 POP PUSH2 0x171B DUP4 PUSH2 0x1192 JUMP JUMPDEST SWAP3 POP DUP3 DUP3 ADD SWAP1 POP DUP1 DUP3 GT ISZERO PUSH2 0x1733 JUMPI PUSH2 0x1732 PUSH2 0x16D9 JUMP JUMPDEST JUMPDEST SWAP3 SWAP2 POP POP JUMP JUMPDEST PUSH32 0x656E64206174203E206D6178206475726174696F6E0000000000000000000000 PUSH0 DUP3 ADD MSTORE POP JUMP JUMPDEST PUSH0 PUSH2 0x176D PUSH1 0x15 DUP4 PUSH2 0x1486 JUMP JUMPDEST SWAP2 POP PUSH2 0x1778 DUP3 PUSH2 0x1739 JUMP JUMPDEST PUSH1 0x20 DUP3 ADD SWAP1 POP SWAP2 SWAP1 POP JUMP JUMPDEST PUSH0 PUSH1 0x20 DUP3 ADD SWAP1 POP DUP2 DUP2 SUB PUSH0 DUP4 ADD MSTORE PUSH2 0x179A DUP2 PUSH2 0x1761 JUMP JUMPDEST SWAP1 POP SWAP2 SWAP1 POP JUMP JUMPDEST PUSH0 PUSH1 0x80 DUP3 ADD SWAP1 POP PUSH2 0x17B4 PUSH0 DUP4 ADD DUP8 PUSH2 0x119B JUMP JUMPDEST PUSH2 0x17C1 PUSH1 0x20 DUP4 ADD DUP7 PUSH2 0x119B JUMP JUMPDEST PUSH2 0x17CE PUSH1 0x40 DUP4 ADD DUP6 PUSH2 0x126A JUMP JUMPDEST PUSH2 0x17DB PUSH1 0x60 DUP4 ADD DUP5 PUSH2 0x126A JUMP JUMPDEST SWAP6 SWAP5 POP POP POP POP POP JUMP JUMPDEST PUSH32 0x6E6F742063726561746F72000000000000000000000000000000000000000000 PUSH0 DUP3 ADD MSTORE POP JUMP JUMPDEST PUSH0 PUSH2 0x1818 PUSH1 0xB DUP4 PUSH2 0x1486 JUMP JUMPDEST SWAP2 POP PUSH2 0x1823 DUP3 PUSH2 0x17E4 JUMP JUMPDEST PUSH1 0x20 DUP3 ADD SWAP1 POP SWAP2 SWAP1 POP JUMP JUMPDEST PUSH0 PUSH1 0x20 DUP3 ADD SWAP1 POP DUP2 DUP2 SUB PUSH0 DUP4 ADD MSTORE PUSH2 0x1845 DUP2 PUSH2 0x180C JUMP JUMPDEST SWAP1 POP SWAP2 SWAP1 POP JUMP JUMPDEST PUSH32 0x706C6564676564203C20676F616C000000000000000000000000000000000000 PUSH0 DUP3 ADD MSTORE POP JUMP JUMPDEST PUSH0 PUSH2 0x1880 PUSH1 0xE DUP4 PUSH2 0x1486 JUMP JUMPDEST SWAP2 POP PUSH2 0x188B DUP3 PUSH2 0x184C JUMP JUMPDEST PUSH1 0x20 DUP3 ADD SWAP1 POP SWAP2 SWAP1 POP JUMP JUMPDEST PUSH0 PUSH1 0x20 DUP3 ADD SWAP1 POP DUP2 DUP2 SUB PUSH0 DUP4 ADD MSTORE PUSH2 0x18AD DUP2 PUSH2 0x1874 JUMP JUMPDEST SWAP1 POP SWAP2 SWAP1 POP JUMP JUMPDEST PUSH32 0x636C61696D656400000000000000000000000000000000000000000000000000 PUSH0 DUP3 ADD MSTORE POP JUMP JUMPDEST PUSH0 PUSH2 0x18E8 PUSH1 0x7 DUP4 PUSH2 0x1486 JUMP JUMPDEST SWAP2 POP PUSH2 0x18F3 DUP3 PUSH2 0x18B4 JUMP JUMPDEST PUSH1 0x20 DUP3 ADD SWAP1 POP SWAP2 SWAP1 POP JUMP JUMPDEST PUSH0 PUSH1 0x20 DUP3 ADD SWAP1 POP DUP2 DUP2 SUB PUSH0 DUP4 ADD MSTORE PUSH2 0x1915 DUP2 PUSH2 0x18DC JUMP JUMPDEST SWAP1 POP SWAP2 SWAP1 POP JUMP JUMPDEST PUSH32 0x7374617274656400000000000000000000000000000000000000000000000000 PUSH0 DUP3 ADD MSTORE POP JUMP JUMPDEST PUSH0 PUSH2 0x1950 PUSH1 0x7 DUP4 PUSH2 0x1486 JUMP JUMPDEST SWAP2 POP PUSH2 0x195B DUP3 PUSH2 0x191C JUMP JUMPDEST PUSH1 0x20 DUP3 ADD SWAP1 POP SWAP2 SWAP1 POP JUMP JUMPDEST PUSH0 PUSH1 0x20 DUP3 ADD SWAP1 POP DUP2 DUP2 SUB PUSH0 DUP4 ADD MSTORE PUSH2 0x197D DUP2 PUSH2 0x1944 JUMP JUMPDEST SWAP1 POP SWAP2 SWAP1 POP JUMP JUMPDEST PUSH32 0x656E646564000000000000000000000000000000000000000000000000000000 PUSH0 DUP3 ADD MSTORE POP JUMP JUMPDEST PUSH0 PUSH2 0x19B8 PUSH1 0x5 DUP4 PUSH2 0x1486 JUMP JUMPDEST SWAP2 POP PUSH2 0x19C3 DUP3 PUSH2 0x1984 JUMP JUMPDEST PUSH1 0x20 DUP3 ADD SWAP1 POP SWAP2 SWAP1 POP JUMP JUMPDEST PUSH0 PUSH1 0x20 DUP3 ADD SWAP1 POP DUP2 DUP2 SUB PUSH0 DUP4 ADD MSTORE PUSH2 0x19E5 DUP2 PUSH2 0x19AC JUMP JUMPDEST SWAP1 POP SWAP2 SWAP1 POP JUMP JUMPDEST PUSH0 PUSH2 0x19F6 DUP3 PUSH2 0x1192 JUMP JUMPDEST SWAP2 POP PUSH2 0x1A01 DUP4 PUSH2 0x1192 JUMP JUMPDEST SWAP3 POP DUP3 DUP3 SUB SWAP1 POP DUP2 DUP2 GT ISZERO PUSH2 0x1A19 JUMPI PUSH2 0x1A18 PUSH2 0x16D9 JUMP JUMPDEST JUMPDEST SWAP3 SWAP2 POP POP JUMP JUMPDEST PUSH32 0x6E6F742073746172746564000000000000000000000000000000000000000000 PUSH0 DUP3 ADD MSTORE POP JUMP JUMPDEST PUSH0 PUSH2 0x1A53 PUSH1 0xB DUP4 PUSH2 0x1486 JUMP JUMPDEST SWAP2 POP PUSH2 0x1A5E DUP3 PUSH2 0x1A1F JUMP JUMPDEST PUSH1 0x20 DUP3 ADD SWAP1 POP SWAP2 SWAP1 POP JUMP JUMPDEST PUSH0 PUSH1 0x20 DUP3 ADD SWAP1 POP DUP2 DUP2 SUB PUSH0 DUP4 ADD MSTORE PUSH2 0x1A80 DUP2 PUSH2 0x1A47 JUMP JUMPDEST SWAP1 POP SWAP2 SWAP1 POP JUMP JUMPDEST PUSH0 PUSH1 0x60 DUP3 ADD SWAP1 POP PUSH2 0x1A9A PUSH0 DUP4 ADD DUP7 PUSH2 0x124C JUMP JUMPDEST PUSH2 0x1AA7 PUSH1 0x20 DUP4 ADD DUP6 PUSH2 0x124C JUMP JUMPDEST PUSH2 0x1AB4 PUSH1 0x40 DUP4 ADD DUP5 PUSH2 0x119B JUMP JUMPDEST SWAP5 SWAP4 POP POP POP POP JUMP INVALID LOG2 PUSH5 0x6970667358 0x22 SLT KECCAK256 MULMOD 0xA8 0xDF 0xC8 0xF9 0xB2 SWAP3 SWAP2 PUSH20 0x7EC0D639735B897FEE686502396EA1F35E6A3549 0xE PUSH6 0xE664736F6C63 NUMBER STOP ADDMOD AND STOP CALLER "
				},
				"gasEstimates": {
					"creation": {
						"codeDepositCost": "1379600",
						"executionCost": "infinite",
						"totalCost": "infinite"
					},
					"external": {
						"campaigns(uint256)": "infinite",
						"cancel(uint256)": "infinite",
						"claim(uint256)": "infinite",
						"count()": "2425",
						"launch(uint256,uint32,uint32)": "infinite",
						"pledge(uint256,uint256)": "infinite",
						"pledgedAmount(uint256,address)": "infinite",
						"refund(uint256)": "infinite",
						"token()": "infinite",
						"unpledge(uint256,uint256)": "infinite"
					}
				},
				"methodIdentifiers": {
					"campaigns(uint256)": "141961bc",
					"cancel(uint256)": "40e58ee5",
					"claim(uint256)": "379607f5",
					"count()": "06661abd",
					"launch(uint256,uint32,uint32)": "2c63f146",
					"pledge(uint256,uint256)": "fde327be",
					"pledgedAmount(uint256,address)": "aa4fb63a",
					"refund(uint256)": "278ecde1",
					"token()": "fc0c546a",
					"unpledge(uint256,uint256)": "711853ab"
				}
			},
			"storageLayout": {
				"storage": [
					{
						"astId": 84,
						"contract": "crowd fund/crowd fund smart contract 2.sol:CrowdFund",
						"label": "count",
						"offset": 0,
						"slot": "0",
						"type": "t_uint256"
					},
					{
						"astId": 89,
						"contract": "crowd fund/crowd fund smart contract 2.sol:CrowdFund",
						"label": "campaigns",
						"offset": 0,
						"slot": "1",
						"type": "t_mapping(t_uint256,t_struct(Campaign)79_storage)"
					},
					{
						"astId": 95,
						"contract": "crowd fund/crowd fund smart contract 2.sol:CrowdFund",
						"label": "pledgedAmount",
						"offset": 0,
						"slot": "2",
						"type": "t_mapping(t_uint256,t_mapping(t_address,t_uint256))"
					}
				],
				"types": {
					"t_address": {
						"encoding": "inplace",
						"label": "address",
						"numberOfBytes": "20"
					},
					"t_bool": {
						"encoding": "inplace",
						"label": "bool",
						"numberOfBytes": "1"
					},
					"t_mapping(t_address,t_uint256)": {
						"encoding": "mapping",
						"key": "t_address",
						"label": "mapping(address => uint256)",
						"numberOfBytes": "32",
						"value": "t_uint256"
					},
					"t_mapping(t_uint256,t_mapping(t_address,t_uint256))": {
						"encoding": "mapping",
						"key": "t_uint256",
						"label": "mapping(uint256 => mapping(address => uint256))",
						"numberOfBytes": "32",
						"value": "t_mapping(t_address,t_uint256)"
					},
					"t_mapping(t_uint256,t_struct(Campaign)79_storage)": {
						"encoding": "mapping",
						"key": "t_uint256",
						"label": "mapping(uint256 => struct CrowdFund.Campaign)",
						"numberOfBytes": "32",
						"value": "t_struct(Campaign)79_storage"
					},
					"t_struct(Campaign)79_storage": {
						"encoding": "inplace",
						"label": "struct CrowdFund.Campaign",
						"members": [
							{
								"astId": 68,
								"contract": "crowd fund/crowd fund smart contract 2.sol:CrowdFund",
								"label": "creator",
								"offset": 0,
								"slot": "0",
								"type": "t_address"
							},
							{
								"astId": 70,
								"contract": "crowd fund/crowd fund smart contract 2.sol:CrowdFund",
								"label": "goal",
								"offset": 0,
								"slot": "1",
								"type": "t_uint256"
							},
							{
								"astId": 72,
								"contract": "crowd fund/crowd fund smart contract 2.sol:CrowdFund",
								"label": "pledged",
								"offset": 0,
								"slot": "2",
								"type": "t_uint256"
							},
							{
								"astId": 74,
								"contract": "crowd fund/crowd fund smart contract 2.sol:CrowdFund",
								"label": "startAt",
								"offset": 0,
								"slot": "3",
								"type": "t_uint32"
							},
							{
								"astId": 76,
								"contract": "crowd fund/crowd fund smart contract 2.sol:CrowdFund",
								"label": "endAt",
								"offset": 4,
								"slot": "3",
								"type": "t_uint32"
							},
							{
								"astId": 78,
								"contract": "crowd fund/crowd fund smart contract 2.sol:CrowdFund",
								"label": "claimed",
								"offset": 8,
								"slot": "3",
								"type": "t_bool"
							}
						],
						"numberOfBytes": "128"
					},
					"t_uint256": {
						"encoding": "inplace",
						"label": "uint256",
						"numberOfBytes": "32"
					},
					"t_uint32": {
						"encoding": "inplace",
						"label": "uint32",
						"numberOfBytes": "4"
					}
				}
			},
			"userdoc": {
				"kind": "user",
				"methods": {},
				"version": 1
			}
		}
	}
}