{
	"Property Inheritance/Property Inheritance Smart Contract.sol": {
		"Inheritance": {
			"abi": [
				{
					"inputs": [],
					"stateMutability": "nonpayable",
					"type": "constructor"
				},
				{
					"anonymous": false,
					"inputs": [
						{
							"indexed": true,
							"internalType": "address",
							"name": "beneficiary",
							"type": "address"
						}
					],
					"name": "BeneficiaryAdded",
					"type": "event"
				},
				{
					"anonymous": false,
					"inputs": [
						{
							"indexed": true,
							"internalType": "address",
							"name": "beneficiary",
							"type": "address"
						}
					],
					"name": "BeneficiaryRemoved",
					"type": "event"
				},
				{
					"anonymous": false,
					"inputs": [
						{
							"indexed": true,
							"internalType": "address",
							"name": "beneficiary",
							"type": "address"
						},
						{
							"indexed": false,
							"internalType": "uint256",
							"name": "amount",
							"type": "uint256"
						}
					],
					"name": "InheritanceDistributed",
					"type": "event"
				},
				{
					"anonymous": false,
					"inputs": [
						{
							"indexed": true,
							"internalType": "address",
							"name": "from",
							"type": "address"
						},
						{
							"indexed": false,
							"internalType": "uint256",
							"name": "amount",
							"type": "uint256"
						}
					],
					"name": "InheritanceReceived",
					"type": "event"
				},
				{
					"inputs": [
						{
							"internalType": "address",
							"name": "beneficiary",
							"type": "address"
						}
					],
					"name": "addBeneficiary",
					"outputs": [],
					"stateMutability": "nonpayable",
					"type": "function"
				},
				{
					"inputs": [
						{
							"internalType": "address",
							"name": "",
							"type": "address"
						}
					],
					"name": "areBeneficiaries",
					"outputs": [
						{
							"internalType": "bool",
							"name": "",
							"type": "bool"
						}
					],
					"stateMutability": "view",
					"type": "function"
				},
				{
					"inputs": [
						{
							"internalType": "address",
							"name": "beneficiary",
							"type": "address"
						},
						{
							"internalType": "uint256",
							"name": "amount",
							"type": "uint256"
						}
					],
					"name": "distributeBeneficiary",
					"outputs": [],
					"stateMutability": "nonpayable",
					"type": "function"
				},
				{
					"inputs": [
						{
							"internalType": "address",
							"name": "",
							"type": "address"
						}
					],
					"name": "inheritances",
					"outputs": [
						{
							"internalType": "uint256",
							"name": "",
							"type": "uint256"
						}
					],
					"stateMutability": "view",
					"type": "function"
				},
				{
					"inputs": [],
					"name": "owner",
					"outputs": [
						{
							"internalType": "address",
							"name": "",
							"type": "address"
						}
					],
					"stateMutability": "view",
					"type": "function"
				},
				{
					"inputs": [],
					"name": "receivedInheritance",
					"outputs": [],
					"stateMutability": "payable",
					"type": "function"
				},
				{
					"inputs": [
						{
							"internalType": "address",
							"name": "beneficiary",
							"type": "address"
						}
					],
					"name": "removeBeneficiary",
					"outputs": [],
					"stateMutability": "nonpayable",
					"type": "function"
				}
			],
			"devdoc": {
				"kind": "dev",
				"methods": {},
				"version": 1
			},
			"evm": {
				"assembly": "    /* \"Property Inheritance/Property Inheritance Smart Contract.sol\":97:2083  contract Inheritance {... */\n  mstore(0x40, 0x80)\n    /* \"Property Inheritance/Property Inheritance Smart Contract.sol\":525:575  constructor () {... */\n  callvalue\n  dup1\n  iszero\n  tag_1\n  jumpi\n  0x00\n  dup1\n  revert\ntag_1:\n  pop\n    /* \"Property Inheritance/Property Inheritance Smart Contract.sol\":558:568  msg.sender */\n  caller\n    /* \"Property Inheritance/Property Inheritance Smart Contract.sol\":550:555  owner */\n  0x00\n  dup1\n    /* \"Property Inheritance/Property Inheritance Smart Contract.sol\":550:568  owner = msg.sender */\n  0x0100\n  exp\n  dup2\n  sload\n  dup2\n  0xffffffffffffffffffffffffffffffffffffffff\n  mul\n  not\n  and\n  swap1\n  dup4\n  0xffffffffffffffffffffffffffffffffffffffff\n  and\n  mul\n  or\n  swap1\n  sstore\n  pop\n    /* \"Property Inheritance/Property Inheritance Smart Contract.sol\":97:2083  contract Inheritance {... */\n  dataSize(sub_0)\n  dup1\n  dataOffset(sub_0)\n  0x00\n  codecopy\n  0x00\n  return\nstop\n\nsub_0: assembly {\n        /* \"Property Inheritance/Property Inheritance Smart Contract.sol\":97:2083  contract Inheritance {... */\n      mstore(0x40, 0x80)\n      jumpi(tag_1, lt(calldatasize, 0x04))\n      shr(0xe0, calldataload(0x00))\n      dup1\n      0x6122fed5\n      gt\n      tag_9\n      jumpi\n      dup1\n      0x6122fed5\n      eq\n      tag_5\n      jumpi\n      dup1\n      0x7bfccb88\n      eq\n      tag_6\n      jumpi\n      dup1\n      0x8da5cb5b\n      eq\n      tag_7\n      jumpi\n      dup1\n      0x9abf7d37\n      eq\n      tag_8\n      jumpi\n      jump(tag_1)\n    tag_9:\n      dup1\n      0x0bad7354\n      eq\n      tag_2\n      jumpi\n      dup1\n      0x5926651d\n      eq\n      tag_3\n      jumpi\n      dup1\n      0x59633a1c\n      eq\n      tag_4\n      jumpi\n    tag_1:\n      0x00\n      dup1\n      revert\n        /* \"Property Inheritance/Property Inheritance Smart Contract.sol\":204:253  mapping (address => bool) public areBeneficiaries */\n    tag_2:\n      callvalue\n      dup1\n      iszero\n      tag_10\n      jumpi\n      0x00\n      dup1\n      revert\n    tag_10:\n      pop\n      tag_11\n      0x04\n      dup1\n      calldatasize\n      sub\n      dup2\n      add\n      swap1\n      tag_12\n      swap2\n      swap1\n      tag_13\n      jump\t// in\n    tag_12:\n      tag_14\n      jump\t// in\n    tag_11:\n      mload(0x40)\n      tag_15\n      swap2\n      swap1\n      tag_16\n      jump\t// in\n    tag_15:\n      mload(0x40)\n      dup1\n      swap2\n      sub\n      swap1\n      return\n        /* \"Property Inheritance/Property Inheritance Smart Contract.sol\":939:1181  function addBeneficiary (address beneficiary) external  {... */\n    tag_3:\n      callvalue\n      dup1\n      iszero\n      tag_17\n      jumpi\n      0x00\n      dup1\n      revert\n    tag_17:\n      pop\n      tag_18\n      0x04\n      dup1\n      calldatasize\n      sub\n      dup2\n      add\n      swap1\n      tag_19\n      swap2\n      swap1\n      tag_13\n      jump\t// in\n    tag_19:\n      tag_20\n      jump\t// in\n    tag_18:\n      stop\n        /* \"Property Inheritance/Property Inheritance Smart Contract.sol\":1187:1520  function removeBeneficiary (address beneficiary) external {... */\n    tag_4:\n      callvalue\n      dup1\n      iszero\n      tag_21\n      jumpi\n      0x00\n      dup1\n      revert\n    tag_21:\n      pop\n      tag_22\n      0x04\n      dup1\n      calldatasize\n      sub\n      dup2\n      add\n      swap1\n      tag_23\n      swap2\n      swap1\n      tag_13\n      jump\t// in\n    tag_23:\n      tag_24\n      jump\t// in\n    tag_22:\n      stop\n        /* \"Property Inheritance/Property Inheritance Smart Contract.sol\":150:198  mapping (address => uint256) public inheritances */\n    tag_5:\n      callvalue\n      dup1\n      iszero\n      tag_25\n      jumpi\n      0x00\n      dup1\n      revert\n    tag_25:\n      pop\n      tag_26\n      0x04\n      dup1\n      calldatasize\n      sub\n      dup2\n      add\n      swap1\n      tag_27\n      swap2\n      swap1\n      tag_13\n      jump\t// in\n    tag_27:\n      tag_28\n      jump\t// in\n    tag_26:\n      mload(0x40)\n      tag_29\n      swap2\n      swap1\n      tag_30\n      jump\t// in\n    tag_29:\n      mload(0x40)\n      dup1\n      swap2\n      sub\n      swap1\n      return\n        /* \"Property Inheritance/Property Inheritance Smart Contract.sol\":707:933  function receivedInheritance() external payable {... */\n    tag_6:\n      tag_31\n      tag_32\n      jump\t// in\n    tag_31:\n      stop\n        /* \"Property Inheritance/Property Inheritance Smart Contract.sol\":124:144  address public owner */\n    tag_7:\n      callvalue\n      dup1\n      iszero\n      tag_33\n      jumpi\n      0x00\n      dup1\n      revert\n    tag_33:\n      pop\n      tag_34\n      tag_35\n      jump\t// in\n    tag_34:\n      mload(0x40)\n      tag_36\n      swap2\n      swap1\n      tag_37\n      jump\t// in\n    tag_36:\n      mload(0x40)\n      dup1\n      swap2\n      sub\n      swap1\n      return\n        /* \"Property Inheritance/Property Inheritance Smart Contract.sol\":1526:2081  function distributeBeneficiary (address beneficiary, uint256 amount) external onlyOwner {... */\n    tag_8:\n      callvalue\n      dup1\n      iszero\n      tag_38\n      jumpi\n      0x00\n      dup1\n      revert\n    tag_38:\n      pop\n      tag_39\n      0x04\n      dup1\n      calldatasize\n      sub\n      dup2\n      add\n      swap1\n      tag_40\n      swap2\n      swap1\n      tag_41\n      jump\t// in\n    tag_40:\n      tag_42\n      jump\t// in\n    tag_39:\n      stop\n        /* \"Property Inheritance/Property Inheritance Smart Contract.sol\":204:253  mapping (address => bool) public areBeneficiaries */\n    tag_14:\n      mstore(0x20, 0x02)\n      dup1\n      0x00\n      mstore\n      keccak256(0x00, 0x40)\n      0x00\n      swap2\n      pop\n      sload\n      swap1\n      0x0100\n      exp\n      swap1\n      div\n      0xff\n      and\n      dup2\n      jump\t// out\n        /* \"Property Inheritance/Property Inheritance Smart Contract.sol\":939:1181  function addBeneficiary (address beneficiary) external  {... */\n    tag_20:\n        /* \"Property Inheritance/Property Inheritance Smart Contract.sol\":1036:1037  0 */\n      0x00\n        /* \"Property Inheritance/Property Inheritance Smart Contract.sol\":1013:1038  beneficiary != address(0) */\n      0xffffffffffffffffffffffffffffffffffffffff\n      and\n        /* \"Property Inheritance/Property Inheritance Smart Contract.sol\":1013:1024  beneficiary */\n      dup2\n        /* \"Property Inheritance/Property Inheritance Smart Contract.sol\":1013:1038  beneficiary != address(0) */\n      0xffffffffffffffffffffffffffffffffffffffff\n      and\n      sub\n        /* \"Property Inheritance/Property Inheritance Smart Contract.sol\":1005:1082  require(beneficiary != address(0), \"Beneficiary address is invalid address.\") */\n      tag_44\n      jumpi\n      mload(0x40)\n      0x08c379a000000000000000000000000000000000000000000000000000000000\n      dup2\n      mstore\n      0x04\n      add\n      tag_45\n      swap1\n      tag_46\n      jump\t// in\n    tag_45:\n      mload(0x40)\n      dup1\n      swap2\n      sub\n      swap1\n      revert\n    tag_44:\n        /* \"Property Inheritance/Property Inheritance Smart Contract.sol\":1125:1129  true */\n      0x01\n        /* \"Property Inheritance/Property Inheritance Smart Contract.sol\":1093:1109  areBeneficiaries */\n      0x02\n        /* \"Property Inheritance/Property Inheritance Smart Contract.sol\":1093:1122  areBeneficiaries[beneficiary] */\n      0x00\n        /* \"Property Inheritance/Property Inheritance Smart Contract.sol\":1110:1121  beneficiary */\n      dup4\n        /* \"Property Inheritance/Property Inheritance Smart Contract.sol\":1093:1122  areBeneficiaries[beneficiary] */\n      0xffffffffffffffffffffffffffffffffffffffff\n      and\n      0xffffffffffffffffffffffffffffffffffffffff\n      and\n      dup2\n      mstore\n      0x20\n      add\n      swap1\n      dup2\n      mstore\n      0x20\n      add\n      0x00\n      keccak256\n      0x00\n        /* \"Property Inheritance/Property Inheritance Smart Contract.sol\":1093:1129  areBeneficiaries[beneficiary] = true */\n      0x0100\n      exp\n      dup2\n      sload\n      dup2\n      0xff\n      mul\n      not\n      and\n      swap1\n      dup4\n      iszero\n      iszero\n      mul\n      or\n      swap1\n      sstore\n      pop\n        /* \"Property Inheritance/Property Inheritance Smart Contract.sol\":1161:1172  beneficiary */\n      dup1\n        /* \"Property Inheritance/Property Inheritance Smart Contract.sol\":1144:1173  BeneficiaryAdded(beneficiary) */\n      0xffffffffffffffffffffffffffffffffffffffff\n      and\n      0xc3e089fc6227e049d0e41c3d7a383d57efe69c1955c5752f7e5a9b5f1f113020\n      mload(0x40)\n      mload(0x40)\n      dup1\n      swap2\n      sub\n      swap1\n      log2\n        /* \"Property Inheritance/Property Inheritance Smart Contract.sol\":939:1181  function addBeneficiary (address beneficiary) external  {... */\n      pop\n      jump\t// out\n        /* \"Property Inheritance/Property Inheritance Smart Contract.sol\":1187:1520  function removeBeneficiary (address beneficiary) external {... */\n    tag_24:\n        /* \"Property Inheritance/Property Inheritance Smart Contract.sol\":1286:1287  0 */\n      0x00\n        /* \"Property Inheritance/Property Inheritance Smart Contract.sol\":1263:1288  beneficiary != address(0) */\n      0xffffffffffffffffffffffffffffffffffffffff\n      and\n        /* \"Property Inheritance/Property Inheritance Smart Contract.sol\":1263:1274  beneficiary */\n      dup2\n        /* \"Property Inheritance/Property Inheritance Smart Contract.sol\":1263:1288  beneficiary != address(0) */\n      0xffffffffffffffffffffffffffffffffffffffff\n      and\n      sub\n        /* \"Property Inheritance/Property Inheritance Smart Contract.sol\":1255:1331  require(beneficiary != address(0), \"Beneficiary address is invalid address\") */\n      tag_48\n      jumpi\n      mload(0x40)\n      0x08c379a000000000000000000000000000000000000000000000000000000000\n      dup2\n      mstore\n      0x04\n      add\n      tag_49\n      swap1\n      tag_50\n      jump\t// in\n    tag_49:\n      mload(0x40)\n      dup1\n      swap2\n      sub\n      swap1\n      revert\n    tag_48:\n        /* \"Property Inheritance/Property Inheritance Smart Contract.sol\":1349:1365  areBeneficiaries */\n      0x02\n        /* \"Property Inheritance/Property Inheritance Smart Contract.sol\":1349:1378  areBeneficiaries[beneficiary] */\n      0x00\n        /* \"Property Inheritance/Property Inheritance Smart Contract.sol\":1366:1377  beneficiary */\n      dup3\n        /* \"Property Inheritance/Property Inheritance Smart Contract.sol\":1349:1378  areBeneficiaries[beneficiary] */\n      0xffffffffffffffffffffffffffffffffffffffff\n      and\n      0xffffffffffffffffffffffffffffffffffffffff\n      and\n      dup2\n      mstore\n      0x20\n      add\n      swap1\n      dup2\n      mstore\n      0x20\n      add\n      0x00\n      keccak256\n      0x00\n      swap1\n      sload\n      swap1\n      0x0100\n      exp\n      swap1\n      div\n      0xff\n      and\n        /* \"Property Inheritance/Property Inheritance Smart Contract.sol\":1341:1419  require(areBeneficiaries[beneficiary], \"Provided address is not beneficiary.\") */\n      tag_51\n      jumpi\n      mload(0x40)\n      0x08c379a000000000000000000000000000000000000000000000000000000000\n      dup2\n      mstore\n      0x04\n      add\n      tag_52\n      swap1\n      tag_53\n      jump\t// in\n    tag_52:\n      mload(0x40)\n      dup1\n      swap2\n      sub\n      swap1\n      revert\n    tag_51:\n        /* \"Property Inheritance/Property Inheritance Smart Contract.sol\":1462:1467  false */\n      0x00\n        /* \"Property Inheritance/Property Inheritance Smart Contract.sol\":1430:1446  areBeneficiaries */\n      0x02\n        /* \"Property Inheritance/Property Inheritance Smart Contract.sol\":1430:1459  areBeneficiaries[beneficiary] */\n      0x00\n        /* \"Property Inheritance/Property Inheritance Smart Contract.sol\":1447:1458  beneficiary */\n      dup4\n        /* \"Property Inheritance/Property Inheritance Smart Contract.sol\":1430:1459  areBeneficiaries[beneficiary] */\n      0xffffffffffffffffffffffffffffffffffffffff\n      and\n      0xffffffffffffffffffffffffffffffffffffffff\n      and\n      dup2\n      mstore\n      0x20\n      add\n      swap1\n      dup2\n      mstore\n      0x20\n      add\n      0x00\n      keccak256\n      0x00\n        /* \"Property Inheritance/Property Inheritance Smart Contract.sol\":1430:1467  areBeneficiaries[beneficiary] = false */\n      0x0100\n      exp\n      dup2\n      sload\n      dup2\n      0xff\n      mul\n      not\n      and\n      swap1\n      dup4\n      iszero\n      iszero\n      mul\n      or\n      swap1\n      sstore\n      pop\n        /* \"Property Inheritance/Property Inheritance Smart Contract.sol\":1501:1512  beneficiary */\n      dup1\n        /* \"Property Inheritance/Property Inheritance Smart Contract.sol\":1482:1513  BeneficiaryRemoved(beneficiary) */\n      0xffffffffffffffffffffffffffffffffffffffff\n      and\n      0x72977dad29432f655f11c2f0e72ef5124bb9ade7a512fb7a43a9f504df223428\n      mload(0x40)\n      mload(0x40)\n      dup1\n      swap2\n      sub\n      swap1\n      log2\n        /* \"Property Inheritance/Property Inheritance Smart Contract.sol\":1187:1520  function removeBeneficiary (address beneficiary) external {... */\n      pop\n      jump\t// out\n        /* \"Property Inheritance/Property Inheritance Smart Contract.sol\":150:198  mapping (address => uint256) public inheritances */\n    tag_28:\n      mstore(0x20, 0x01)\n      dup1\n      0x00\n      mstore\n      keccak256(0x00, 0x40)\n      0x00\n      swap2\n      pop\n      swap1\n      pop\n      sload\n      dup2\n      jump\t// out\n        /* \"Property Inheritance/Property Inheritance Smart Contract.sol\":707:933  function receivedInheritance() external payable {... */\n    tag_32:\n        /* \"Property Inheritance/Property Inheritance Smart Contract.sol\":785:786  0 */\n      0x00\n        /* \"Property Inheritance/Property Inheritance Smart Contract.sol\":773:782  msg.value */\n      callvalue\n        /* \"Property Inheritance/Property Inheritance Smart Contract.sol\":773:786  msg.value > 0 */\n      gt\n        /* \"Property Inheritance/Property Inheritance Smart Contract.sol\":765:821  require(msg.value > 0, \"Amount must be greater than 0.\") */\n      tag_55\n      jumpi\n      mload(0x40)\n      0x08c379a000000000000000000000000000000000000000000000000000000000\n      dup2\n      mstore\n      0x04\n      add\n      tag_56\n      swap1\n      tag_57\n      jump\t// in\n    tag_56:\n      mload(0x40)\n      dup1\n      swap2\n      sub\n      swap1\n      revert\n    tag_55:\n        /* \"Property Inheritance/Property Inheritance Smart Contract.sol\":860:869  msg.value */\n      callvalue\n        /* \"Property Inheritance/Property Inheritance Smart Contract.sol\":832:844  inheritances */\n      0x01\n        /* \"Property Inheritance/Property Inheritance Smart Contract.sol\":832:856  inheritances[msg.sender] */\n      0x00\n        /* \"Property Inheritance/Property Inheritance Smart Contract.sol\":845:855  msg.sender */\n      caller\n        /* \"Property Inheritance/Property Inheritance Smart Contract.sol\":832:856  inheritances[msg.sender] */\n      0xffffffffffffffffffffffffffffffffffffffff\n      and\n      0xffffffffffffffffffffffffffffffffffffffff\n      and\n      dup2\n      mstore\n      0x20\n      add\n      swap1\n      dup2\n      mstore\n      0x20\n      add\n      0x00\n      keccak256\n      0x00\n        /* \"Property Inheritance/Property Inheritance Smart Contract.sol\":832:869  inheritances[msg.sender] += msg.value */\n      dup3\n      dup3\n      sload\n      tag_58\n      swap2\n      swap1\n      tag_59\n      jump\t// in\n    tag_58:\n      swap3\n      pop\n      pop\n      dup2\n      swap1\n      sstore\n      pop\n        /* \"Property Inheritance/Property Inheritance Smart Contract.sol\":904:914  msg.sender */\n      caller\n        /* \"Property Inheritance/Property Inheritance Smart Contract.sol\":884:926  InheritanceReceived(msg.sender, msg.value) */\n      0xffffffffffffffffffffffffffffffffffffffff\n      and\n      0xd34407217bc1188b69edcf88532167050a4ee9fb14ed2eecd50166fb0cb19b64\n        /* \"Property Inheritance/Property Inheritance Smart Contract.sol\":916:925  msg.value */\n      callvalue\n        /* \"Property Inheritance/Property Inheritance Smart Contract.sol\":884:926  InheritanceReceived(msg.sender, msg.value) */\n      mload(0x40)\n      tag_60\n      swap2\n      swap1\n      tag_30\n      jump\t// in\n    tag_60:\n      mload(0x40)\n      dup1\n      swap2\n      sub\n      swap1\n      log2\n        /* \"Property Inheritance/Property Inheritance Smart Contract.sol\":707:933  function receivedInheritance() external payable {... */\n      jump\t// out\n        /* \"Property Inheritance/Property Inheritance Smart Contract.sol\":124:144  address public owner */\n    tag_35:\n      0x00\n      dup1\n      sload\n      swap1\n      0x0100\n      exp\n      swap1\n      div\n      0xffffffffffffffffffffffffffffffffffffffff\n      and\n      dup2\n      jump\t// out\n        /* \"Property Inheritance/Property Inheritance Smart Contract.sol\":1526:2081  function distributeBeneficiary (address beneficiary, uint256 amount) external onlyOwner {... */\n    tag_42:\n        /* \"Property Inheritance/Property Inheritance Smart Contract.sol\":635:640  owner */\n      0x00\n      dup1\n      sload\n      swap1\n      0x0100\n      exp\n      swap1\n      div\n      0xffffffffffffffffffffffffffffffffffffffff\n      and\n        /* \"Property Inheritance/Property Inheritance Smart Contract.sol\":621:640  msg.sender == owner */\n      0xffffffffffffffffffffffffffffffffffffffff\n      and\n        /* \"Property Inheritance/Property Inheritance Smart Contract.sol\":621:631  msg.sender */\n      caller\n        /* \"Property Inheritance/Property Inheritance Smart Contract.sol\":621:640  msg.sender == owner */\n      0xffffffffffffffffffffffffffffffffffffffff\n      and\n      eq\n        /* \"Property Inheritance/Property Inheritance Smart Contract.sol\":613:683  require(msg.sender == owner, \"Only the owner can call this function.\") */\n      tag_62\n      jumpi\n      mload(0x40)\n      0x08c379a000000000000000000000000000000000000000000000000000000000\n      dup2\n      mstore\n      0x04\n      add\n      tag_63\n      swap1\n      tag_64\n      jump\t// in\n    tag_63:\n      mload(0x40)\n      dup1\n      swap2\n      sub\n      swap1\n      revert\n    tag_62:\n        /* \"Property Inheritance/Property Inheritance Smart Contract.sol\":1655:1656  0 */\n      0x00\n        /* \"Property Inheritance/Property Inheritance Smart Contract.sol\":1632:1657  beneficiary != address(0) */\n      0xffffffffffffffffffffffffffffffffffffffff\n      and\n        /* \"Property Inheritance/Property Inheritance Smart Contract.sol\":1632:1643  beneficiary */\n      dup3\n        /* \"Property Inheritance/Property Inheritance Smart Contract.sol\":1632:1657  beneficiary != address(0) */\n      0xffffffffffffffffffffffffffffffffffffffff\n      and\n      sub\n        /* \"Property Inheritance/Property Inheritance Smart Contract.sol\":1624:1701  require(beneficiary != address(0), \"Beneficiary address is invalid address.\") */\n      tag_66\n      jumpi\n      mload(0x40)\n      0x08c379a000000000000000000000000000000000000000000000000000000000\n      dup2\n      mstore\n      0x04\n      add\n      tag_67\n      swap1\n      tag_46\n      jump\t// in\n    tag_67:\n      mload(0x40)\n      dup1\n      swap2\n      sub\n      swap1\n      revert\n    tag_66:\n        /* \"Property Inheritance/Property Inheritance Smart Contract.sol\":1719:1735  areBeneficiaries */\n      0x02\n        /* \"Property Inheritance/Property Inheritance Smart Contract.sol\":1719:1748  areBeneficiaries[beneficiary] */\n      0x00\n        /* \"Property Inheritance/Property Inheritance Smart Contract.sol\":1736:1747  beneficiary */\n      dup4\n        /* \"Property Inheritance/Property Inheritance Smart Contract.sol\":1719:1748  areBeneficiaries[beneficiary] */\n      0xffffffffffffffffffffffffffffffffffffffff\n      and\n      0xffffffffffffffffffffffffffffffffffffffff\n      and\n      dup2\n      mstore\n      0x20\n      add\n      swap1\n      dup2\n      mstore\n      0x20\n      add\n      0x00\n      keccak256\n      0x00\n      swap1\n      sload\n      swap1\n      0x0100\n      exp\n      swap1\n      div\n      0xff\n      and\n        /* \"Property Inheritance/Property Inheritance Smart Contract.sol\":1711:1788  require(areBeneficiaries[beneficiary], \"Provided address is not beneficiary\") */\n      tag_68\n      jumpi\n      mload(0x40)\n      0x08c379a000000000000000000000000000000000000000000000000000000000\n      dup2\n      mstore\n      0x04\n      add\n      tag_69\n      swap1\n      tag_70\n      jump\t// in\n    tag_69:\n      mload(0x40)\n      dup1\n      swap2\n      sub\n      swap1\n      revert\n    tag_68:\n        /* \"Property Inheritance/Property Inheritance Smart Contract.sol\":1815:1816  0 */\n      0x00\n        /* \"Property Inheritance/Property Inheritance Smart Contract.sol\":1806:1812  amount */\n      dup2\n        /* \"Property Inheritance/Property Inheritance Smart Contract.sol\":1806:1816  amount > 0 */\n      gt\n        /* \"Property Inheritance/Property Inheritance Smart Contract.sol\":1798:1853  require(amount > 0, \"amount has to be greater than 0.\") */\n      tag_71\n      jumpi\n      mload(0x40)\n      0x08c379a000000000000000000000000000000000000000000000000000000000\n      dup2\n      mstore\n      0x04\n      add\n      tag_72\n      swap1\n      tag_73\n      jump\t// in\n    tag_72:\n      mload(0x40)\n      dup1\n      swap2\n      sub\n      swap1\n      revert\n    tag_71:\n        /* \"Property Inheritance/Property Inheritance Smart Contract.sol\":1881:1893  inheritances */\n      0x01\n        /* \"Property Inheritance/Property Inheritance Smart Contract.sol\":1881:1900  inheritances[owner] */\n      0x00\n        /* \"Property Inheritance/Property Inheritance Smart Contract.sol\":1894:1899  owner */\n      dup1\n      0x00\n      swap1\n      sload\n      swap1\n      0x0100\n      exp\n      swap1\n      div\n      0xffffffffffffffffffffffffffffffffffffffff\n      and\n        /* \"Property Inheritance/Property Inheritance Smart Contract.sol\":1881:1900  inheritances[owner] */\n      0xffffffffffffffffffffffffffffffffffffffff\n      and\n      0xffffffffffffffffffffffffffffffffffffffff\n      and\n      dup2\n      mstore\n      0x20\n      add\n      swap1\n      dup2\n      mstore\n      0x20\n      add\n      0x00\n      keccak256\n      sload\n        /* \"Property Inheritance/Property Inheritance Smart Contract.sol\":1871:1877  amount */\n      dup2\n        /* \"Property Inheritance/Property Inheritance Smart Contract.sol\":1871:1900  amount <= inheritances[owner] */\n      gt\n      iszero\n        /* \"Property Inheritance/Property Inheritance Smart Contract.sol\":1863:1922  require(amount <= inheritances[owner], \"Insufficent funds\") */\n      tag_74\n      jumpi\n      mload(0x40)\n      0x08c379a000000000000000000000000000000000000000000000000000000000\n      dup2\n      mstore\n      0x04\n      add\n      tag_75\n      swap1\n      tag_76\n      jump\t// in\n    tag_75:\n      mload(0x40)\n      dup1\n      swap2\n      sub\n      swap1\n      revert\n    tag_74:\n        /* \"Property Inheritance/Property Inheritance Smart Contract.sol\":1964:1970  amount */\n      dup1\n        /* \"Property Inheritance/Property Inheritance Smart Contract.sol\":1941:1953  inheritances */\n      0x01\n        /* \"Property Inheritance/Property Inheritance Smart Contract.sol\":1941:1960  inheritances[owner] */\n      0x00\n        /* \"Property Inheritance/Property Inheritance Smart Contract.sol\":1954:1959  owner */\n      dup1\n      0x00\n      swap1\n      sload\n      swap1\n      0x0100\n      exp\n      swap1\n      div\n      0xffffffffffffffffffffffffffffffffffffffff\n      and\n        /* \"Property Inheritance/Property Inheritance Smart Contract.sol\":1941:1960  inheritances[owner] */\n      0xffffffffffffffffffffffffffffffffffffffff\n      and\n      0xffffffffffffffffffffffffffffffffffffffff\n      and\n      dup2\n      mstore\n      0x20\n      add\n      swap1\n      dup2\n      mstore\n      0x20\n      add\n      0x00\n      keccak256\n      0x00\n        /* \"Property Inheritance/Property Inheritance Smart Contract.sol\":1941:1970  inheritances[owner] -= amount */\n      dup3\n      dup3\n      sload\n      tag_77\n      swap2\n      swap1\n      tag_78\n      jump\t// in\n    tag_77:\n      swap3\n      pop\n      pop\n      dup2\n      swap1\n      sstore\n      pop\n        /* \"Property Inheritance/Property Inheritance Smart Contract.sol\":2009:2015  amount */\n      dup1\n        /* \"Property Inheritance/Property Inheritance Smart Contract.sol\":1980:1992  inheritances */\n      0x01\n        /* \"Property Inheritance/Property Inheritance Smart Contract.sol\":1980:2005  inheritances[beneficiary] */\n      0x00\n        /* \"Property Inheritance/Property Inheritance Smart Contract.sol\":1993:2004  beneficiary */\n      dup5\n        /* \"Property Inheritance/Property Inheritance Smart Contract.sol\":1980:2005  inheritances[beneficiary] */\n      0xffffffffffffffffffffffffffffffffffffffff\n      and\n      0xffffffffffffffffffffffffffffffffffffffff\n      and\n      dup2\n      mstore\n      0x20\n      add\n      swap1\n      dup2\n      mstore\n      0x20\n      add\n      0x00\n      keccak256\n      0x00\n        /* \"Property Inheritance/Property Inheritance Smart Contract.sol\":1980:2015  inheritances[beneficiary] += amount */\n      dup3\n      dup3\n      sload\n      tag_79\n      swap2\n      swap1\n      tag_59\n      jump\t// in\n    tag_79:\n      swap3\n      pop\n      pop\n      dup2\n      swap1\n      sstore\n      pop\n        /* \"Property Inheritance/Property Inheritance Smart Contract.sol\":2054:2065  beneficiary */\n      dup2\n        /* \"Property Inheritance/Property Inheritance Smart Contract.sol\":2031:2074  InheritanceDistributed(beneficiary, amount) */\n      0xffffffffffffffffffffffffffffffffffffffff\n      and\n      0x2a3fc9f6ac009bb0b1a42d00609a0e83a548aa248a6f2a03f5b2af26cae17d9e\n        /* \"Property Inheritance/Property Inheritance Smart Contract.sol\":2067:2073  amount */\n      dup3\n        /* \"Property Inheritance/Property Inheritance Smart Contract.sol\":2031:2074  InheritanceDistributed(beneficiary, amount) */\n      mload(0x40)\n      tag_80\n      swap2\n      swap1\n      tag_30\n      jump\t// in\n    tag_80:\n      mload(0x40)\n      dup1\n      swap2\n      sub\n      swap1\n      log2\n        /* \"Property Inheritance/Property Inheritance Smart Contract.sol\":1526:2081  function distributeBeneficiary (address beneficiary, uint256 amount) external onlyOwner {... */\n      pop\n      pop\n      jump\t// out\n        /* \"#utility.yul\":88:205   */\n    tag_82:\n        /* \"#utility.yul\":197:198   */\n      0x00\n        /* \"#utility.yul\":194:195   */\n      dup1\n        /* \"#utility.yul\":187:199   */\n      revert\n        /* \"#utility.yul\":334:460   */\n    tag_84:\n        /* \"#utility.yul\":371:378   */\n      0x00\n        /* \"#utility.yul\":411:453   */\n      0xffffffffffffffffffffffffffffffffffffffff\n        /* \"#utility.yul\":404:409   */\n      dup3\n        /* \"#utility.yul\":400:454   */\n      and\n        /* \"#utility.yul\":389:454   */\n      swap1\n      pop\n        /* \"#utility.yul\":334:460   */\n      swap2\n      swap1\n      pop\n      jump\t// out\n        /* \"#utility.yul\":466:562   */\n    tag_85:\n        /* \"#utility.yul\":503:510   */\n      0x00\n        /* \"#utility.yul\":532:556   */\n      tag_119\n        /* \"#utility.yul\":550:555   */\n      dup3\n        /* \"#utility.yul\":532:556   */\n      tag_84\n      jump\t// in\n    tag_119:\n        /* \"#utility.yul\":521:556   */\n      swap1\n      pop\n        /* \"#utility.yul\":466:562   */\n      swap2\n      swap1\n      pop\n      jump\t// out\n        /* \"#utility.yul\":568:690   */\n    tag_86:\n        /* \"#utility.yul\":641:665   */\n      tag_121\n        /* \"#utility.yul\":659:664   */\n      dup2\n        /* \"#utility.yul\":641:665   */\n      tag_85\n      jump\t// in\n    tag_121:\n        /* \"#utility.yul\":634:639   */\n      dup2\n        /* \"#utility.yul\":631:666   */\n      eq\n        /* \"#utility.yul\":621:684   */\n      tag_122\n      jumpi\n        /* \"#utility.yul\":680:681   */\n      0x00\n        /* \"#utility.yul\":677:678   */\n      dup1\n        /* \"#utility.yul\":670:682   */\n      revert\n        /* \"#utility.yul\":621:684   */\n    tag_122:\n        /* \"#utility.yul\":568:690   */\n      pop\n      jump\t// out\n        /* \"#utility.yul\":696:835   */\n    tag_87:\n        /* \"#utility.yul\":742:747   */\n      0x00\n        /* \"#utility.yul\":780:786   */\n      dup2\n        /* \"#utility.yul\":767:787   */\n      calldataload\n        /* \"#utility.yul\":758:787   */\n      swap1\n      pop\n        /* \"#utility.yul\":796:829   */\n      tag_124\n        /* \"#utility.yul\":823:828   */\n      dup2\n        /* \"#utility.yul\":796:829   */\n      tag_86\n      jump\t// in\n    tag_124:\n        /* \"#utility.yul\":696:835   */\n      swap3\n      swap2\n      pop\n      pop\n      jump\t// out\n        /* \"#utility.yul\":841:1170   */\n    tag_13:\n        /* \"#utility.yul\":900:906   */\n      0x00\n        /* \"#utility.yul\":949:951   */\n      0x20\n        /* \"#utility.yul\":937:946   */\n      dup3\n        /* \"#utility.yul\":928:935   */\n      dup5\n        /* \"#utility.yul\":924:947   */\n      sub\n        /* \"#utility.yul\":920:952   */\n      slt\n        /* \"#utility.yul\":917:1036   */\n      iszero\n      tag_126\n      jumpi\n        /* \"#utility.yul\":955:1034   */\n      tag_127\n      tag_82\n      jump\t// in\n    tag_127:\n        /* \"#utility.yul\":917:1036   */\n    tag_126:\n        /* \"#utility.yul\":1075:1076   */\n      0x00\n        /* \"#utility.yul\":1100:1153   */\n      tag_128\n        /* \"#utility.yul\":1145:1152   */\n      dup5\n        /* \"#utility.yul\":1136:1142   */\n      dup3\n        /* \"#utility.yul\":1125:1134   */\n      dup6\n        /* \"#utility.yul\":1121:1143   */\n      add\n        /* \"#utility.yul\":1100:1153   */\n      tag_87\n      jump\t// in\n    tag_128:\n        /* \"#utility.yul\":1090:1153   */\n      swap2\n      pop\n        /* \"#utility.yul\":1046:1163   */\n      pop\n        /* \"#utility.yul\":841:1170   */\n      swap3\n      swap2\n      pop\n      pop\n      jump\t// out\n        /* \"#utility.yul\":1176:1266   */\n    tag_88:\n        /* \"#utility.yul\":1210:1217   */\n      0x00\n        /* \"#utility.yul\":1253:1258   */\n      dup2\n        /* \"#utility.yul\":1246:1259   */\n      iszero\n        /* \"#utility.yul\":1239:1260   */\n      iszero\n        /* \"#utility.yul\":1228:1260   */\n      swap1\n      pop\n        /* \"#utility.yul\":1176:1266   */\n      swap2\n      swap1\n      pop\n      jump\t// out\n        /* \"#utility.yul\":1272:1381   */\n    tag_89:\n        /* \"#utility.yul\":1353:1374   */\n      tag_131\n        /* \"#utility.yul\":1368:1373   */\n      dup2\n        /* \"#utility.yul\":1353:1374   */\n      tag_88\n      jump\t// in\n    tag_131:\n        /* \"#utility.yul\":1348:1351   */\n      dup3\n        /* \"#utility.yul\":1341:1375   */\n      mstore\n        /* \"#utility.yul\":1272:1381   */\n      pop\n      pop\n      jump\t// out\n        /* \"#utility.yul\":1387:1597   */\n    tag_16:\n        /* \"#utility.yul\":1474:1478   */\n      0x00\n        /* \"#utility.yul\":1512:1514   */\n      0x20\n        /* \"#utility.yul\":1501:1510   */\n      dup3\n        /* \"#utility.yul\":1497:1515   */\n      add\n        /* \"#utility.yul\":1489:1515   */\n      swap1\n      pop\n        /* \"#utility.yul\":1525:1590   */\n      tag_133\n        /* \"#utility.yul\":1587:1588   */\n      0x00\n        /* \"#utility.yul\":1576:1585   */\n      dup4\n        /* \"#utility.yul\":1572:1589   */\n      add\n        /* \"#utility.yul\":1563:1569   */\n      dup5\n        /* \"#utility.yul\":1525:1590   */\n      tag_89\n      jump\t// in\n    tag_133:\n        /* \"#utility.yul\":1387:1597   */\n      swap3\n      swap2\n      pop\n      pop\n      jump\t// out\n        /* \"#utility.yul\":1603:1680   */\n    tag_90:\n        /* \"#utility.yul\":1640:1647   */\n      0x00\n        /* \"#utility.yul\":1669:1674   */\n      dup2\n        /* \"#utility.yul\":1658:1674   */\n      swap1\n      pop\n        /* \"#utility.yul\":1603:1680   */\n      swap2\n      swap1\n      pop\n      jump\t// out\n        /* \"#utility.yul\":1686:1804   */\n    tag_91:\n        /* \"#utility.yul\":1773:1797   */\n      tag_136\n        /* \"#utility.yul\":1791:1796   */\n      dup2\n        /* \"#utility.yul\":1773:1797   */\n      tag_90\n      jump\t// in\n    tag_136:\n        /* \"#utility.yul\":1768:1771   */\n      dup3\n        /* \"#utility.yul\":1761:1798   */\n      mstore\n        /* \"#utility.yul\":1686:1804   */\n      pop\n      pop\n      jump\t// out\n        /* \"#utility.yul\":1810:2032   */\n    tag_30:\n        /* \"#utility.yul\":1903:1907   */\n      0x00\n        /* \"#utility.yul\":1941:1943   */\n      0x20\n        /* \"#utility.yul\":1930:1939   */\n      dup3\n        /* \"#utility.yul\":1926:1944   */\n      add\n        /* \"#utility.yul\":1918:1944   */\n      swap1\n      pop\n        /* \"#utility.yul\":1954:2025   */\n      tag_138\n        /* \"#utility.yul\":2022:2023   */\n      0x00\n        /* \"#utility.yul\":2011:2020   */\n      dup4\n        /* \"#utility.yul\":2007:2024   */\n      add\n        /* \"#utility.yul\":1998:2004   */\n      dup5\n        /* \"#utility.yul\":1954:2025   */\n      tag_91\n      jump\t// in\n    tag_138:\n        /* \"#utility.yul\":1810:2032   */\n      swap3\n      swap2\n      pop\n      pop\n      jump\t// out\n        /* \"#utility.yul\":2038:2156   */\n    tag_92:\n        /* \"#utility.yul\":2125:2149   */\n      tag_140\n        /* \"#utility.yul\":2143:2148   */\n      dup2\n        /* \"#utility.yul\":2125:2149   */\n      tag_85\n      jump\t// in\n    tag_140:\n        /* \"#utility.yul\":2120:2123   */\n      dup3\n        /* \"#utility.yul\":2113:2150   */\n      mstore\n        /* \"#utility.yul\":2038:2156   */\n      pop\n      pop\n      jump\t// out\n        /* \"#utility.yul\":2162:2384   */\n    tag_37:\n        /* \"#utility.yul\":2255:2259   */\n      0x00\n        /* \"#utility.yul\":2293:2295   */\n      0x20\n        /* \"#utility.yul\":2282:2291   */\n      dup3\n        /* \"#utility.yul\":2278:2296   */\n      add\n        /* \"#utility.yul\":2270:2296   */\n      swap1\n      pop\n        /* \"#utility.yul\":2306:2377   */\n      tag_142\n        /* \"#utility.yul\":2374:2375   */\n      0x00\n        /* \"#utility.yul\":2363:2372   */\n      dup4\n        /* \"#utility.yul\":2359:2376   */\n      add\n        /* \"#utility.yul\":2350:2356   */\n      dup5\n        /* \"#utility.yul\":2306:2377   */\n      tag_92\n      jump\t// in\n    tag_142:\n        /* \"#utility.yul\":2162:2384   */\n      swap3\n      swap2\n      pop\n      pop\n      jump\t// out\n        /* \"#utility.yul\":2390:2512   */\n    tag_93:\n        /* \"#utility.yul\":2463:2487   */\n      tag_144\n        /* \"#utility.yul\":2481:2486   */\n      dup2\n        /* \"#utility.yul\":2463:2487   */\n      tag_90\n      jump\t// in\n    tag_144:\n        /* \"#utility.yul\":2456:2461   */\n      dup2\n        /* \"#utility.yul\":2453:2488   */\n      eq\n        /* \"#utility.yul\":2443:2506   */\n      tag_145\n      jumpi\n        /* \"#utility.yul\":2502:2503   */\n      0x00\n        /* \"#utility.yul\":2499:2500   */\n      dup1\n        /* \"#utility.yul\":2492:2504   */\n      revert\n        /* \"#utility.yul\":2443:2506   */\n    tag_145:\n        /* \"#utility.yul\":2390:2512   */\n      pop\n      jump\t// out\n        /* \"#utility.yul\":2518:2657   */\n    tag_94:\n        /* \"#utility.yul\":2564:2569   */\n      0x00\n        /* \"#utility.yul\":2602:2608   */\n      dup2\n        /* \"#utility.yul\":2589:2609   */\n      calldataload\n        /* \"#utility.yul\":2580:2609   */\n      swap1\n      pop\n        /* \"#utility.yul\":2618:2651   */\n      tag_147\n        /* \"#utility.yul\":2645:2650   */\n      dup2\n        /* \"#utility.yul\":2618:2651   */\n      tag_93\n      jump\t// in\n    tag_147:\n        /* \"#utility.yul\":2518:2657   */\n      swap3\n      swap2\n      pop\n      pop\n      jump\t// out\n        /* \"#utility.yul\":2663:3137   */\n    tag_41:\n        /* \"#utility.yul\":2731:2737   */\n      0x00\n        /* \"#utility.yul\":2739:2745   */\n      dup1\n        /* \"#utility.yul\":2788:2790   */\n      0x40\n        /* \"#utility.yul\":2776:2785   */\n      dup4\n        /* \"#utility.yul\":2767:2774   */\n      dup6\n        /* \"#utility.yul\":2763:2786   */\n      sub\n        /* \"#utility.yul\":2759:2791   */\n      slt\n        /* \"#utility.yul\":2756:2875   */\n      iszero\n      tag_149\n      jumpi\n        /* \"#utility.yul\":2794:2873   */\n      tag_150\n      tag_82\n      jump\t// in\n    tag_150:\n        /* \"#utility.yul\":2756:2875   */\n    tag_149:\n        /* \"#utility.yul\":2914:2915   */\n      0x00\n        /* \"#utility.yul\":2939:2992   */\n      tag_151\n        /* \"#utility.yul\":2984:2991   */\n      dup6\n        /* \"#utility.yul\":2975:2981   */\n      dup3\n        /* \"#utility.yul\":2964:2973   */\n      dup7\n        /* \"#utility.yul\":2960:2982   */\n      add\n        /* \"#utility.yul\":2939:2992   */\n      tag_87\n      jump\t// in\n    tag_151:\n        /* \"#utility.yul\":2929:2992   */\n      swap3\n      pop\n        /* \"#utility.yul\":2885:3002   */\n      pop\n        /* \"#utility.yul\":3041:3043   */\n      0x20\n        /* \"#utility.yul\":3067:3120   */\n      tag_152\n        /* \"#utility.yul\":3112:3119   */\n      dup6\n        /* \"#utility.yul\":3103:3109   */\n      dup3\n        /* \"#utility.yul\":3092:3101   */\n      dup7\n        /* \"#utility.yul\":3088:3110   */\n      add\n        /* \"#utility.yul\":3067:3120   */\n      tag_94\n      jump\t// in\n    tag_152:\n        /* \"#utility.yul\":3057:3120   */\n      swap2\n      pop\n        /* \"#utility.yul\":3012:3130   */\n      pop\n        /* \"#utility.yul\":2663:3137   */\n      swap3\n      pop\n      swap3\n      swap1\n      pop\n      jump\t// out\n        /* \"#utility.yul\":3143:3312   */\n    tag_95:\n        /* \"#utility.yul\":3227:3238   */\n      0x00\n        /* \"#utility.yul\":3261:3267   */\n      dup3\n        /* \"#utility.yul\":3256:3259   */\n      dup3\n        /* \"#utility.yul\":3249:3268   */\n      mstore\n        /* \"#utility.yul\":3301:3305   */\n      0x20\n        /* \"#utility.yul\":3296:3299   */\n      dup3\n        /* \"#utility.yul\":3292:3306   */\n      add\n        /* \"#utility.yul\":3277:3306   */\n      swap1\n      pop\n        /* \"#utility.yul\":3143:3312   */\n      swap3\n      swap2\n      pop\n      pop\n      jump\t// out\n        /* \"#utility.yul\":3318:3544   */\n    tag_96:\n        /* \"#utility.yul\":3458:3492   */\n      0x42656e6566696369617279206164647265737320697320696e76616c69642061\n        /* \"#utility.yul\":3454:3455   */\n      0x00\n        /* \"#utility.yul\":3446:3452   */\n      dup3\n        /* \"#utility.yul\":3442:3456   */\n      add\n        /* \"#utility.yul\":3435:3493   */\n      mstore\n        /* \"#utility.yul\":3527:3536   */\n      0x6464726573732e00000000000000000000000000000000000000000000000000\n        /* \"#utility.yul\":3522:3524   */\n      0x20\n        /* \"#utility.yul\":3514:3520   */\n      dup3\n        /* \"#utility.yul\":3510:3525   */\n      add\n        /* \"#utility.yul\":3503:3537   */\n      mstore\n        /* \"#utility.yul\":3318:3544   */\n      pop\n      jump\t// out\n        /* \"#utility.yul\":3550:3916   */\n    tag_97:\n        /* \"#utility.yul\":3692:3695   */\n      0x00\n        /* \"#utility.yul\":3713:3780   */\n      tag_156\n        /* \"#utility.yul\":3777:3779   */\n      0x27\n        /* \"#utility.yul\":3772:3775   */\n      dup4\n        /* \"#utility.yul\":3713:3780   */\n      tag_95\n      jump\t// in\n    tag_156:\n        /* \"#utility.yul\":3706:3780   */\n      swap2\n      pop\n        /* \"#utility.yul\":3789:3882   */\n      tag_157\n        /* \"#utility.yul\":3878:3881   */\n      dup3\n        /* \"#utility.yul\":3789:3882   */\n      tag_96\n      jump\t// in\n    tag_157:\n        /* \"#utility.yul\":3907:3909   */\n      0x40\n        /* \"#utility.yul\":3902:3905   */\n      dup3\n        /* \"#utility.yul\":3898:3910   */\n      add\n        /* \"#utility.yul\":3891:3910   */\n      swap1\n      pop\n        /* \"#utility.yul\":3550:3916   */\n      swap2\n      swap1\n      pop\n      jump\t// out\n        /* \"#utility.yul\":3922:4341   */\n    tag_46:\n        /* \"#utility.yul\":4088:4092   */\n      0x00\n        /* \"#utility.yul\":4126:4128   */\n      0x20\n        /* \"#utility.yul\":4115:4124   */\n      dup3\n        /* \"#utility.yul\":4111:4129   */\n      add\n        /* \"#utility.yul\":4103:4129   */\n      swap1\n      pop\n        /* \"#utility.yul\":4175:4184   */\n      dup2\n        /* \"#utility.yul\":4169:4173   */\n      dup2\n        /* \"#utility.yul\":4165:4185   */\n      sub\n        /* \"#utility.yul\":4161:4162   */\n      0x00\n        /* \"#utility.yul\":4150:4159   */\n      dup4\n        /* \"#utility.yul\":4146:4163   */\n      add\n        /* \"#utility.yul\":4139:4186   */\n      mstore\n        /* \"#utility.yul\":4203:4334   */\n      tag_159\n        /* \"#utility.yul\":4329:4333   */\n      dup2\n        /* \"#utility.yul\":4203:4334   */\n      tag_97\n      jump\t// in\n    tag_159:\n        /* \"#utility.yul\":4195:4334   */\n      swap1\n      pop\n        /* \"#utility.yul\":3922:4341   */\n      swap2\n      swap1\n      pop\n      jump\t// out\n        /* \"#utility.yul\":4347:4572   */\n    tag_98:\n        /* \"#utility.yul\":4487:4521   */\n      0x42656e6566696369617279206164647265737320697320696e76616c69642061\n        /* \"#utility.yul\":4483:4484   */\n      0x00\n        /* \"#utility.yul\":4475:4481   */\n      dup3\n        /* \"#utility.yul\":4471:4485   */\n      add\n        /* \"#utility.yul\":4464:4522   */\n      mstore\n        /* \"#utility.yul\":4556:4564   */\n      0x6464726573730000000000000000000000000000000000000000000000000000\n        /* \"#utility.yul\":4551:4553   */\n      0x20\n        /* \"#utility.yul\":4543:4549   */\n      dup3\n        /* \"#utility.yul\":4539:4554   */\n      add\n        /* \"#utility.yul\":4532:4565   */\n      mstore\n        /* \"#utility.yul\":4347:4572   */\n      pop\n      jump\t// out\n        /* \"#utility.yul\":4578:4944   */\n    tag_99:\n        /* \"#utility.yul\":4720:4723   */\n      0x00\n        /* \"#utility.yul\":4741:4808   */\n      tag_162\n        /* \"#utility.yul\":4805:4807   */\n      0x26\n        /* \"#utility.yul\":4800:4803   */\n      dup4\n        /* \"#utility.yul\":4741:4808   */\n      tag_95\n      jump\t// in\n    tag_162:\n        /* \"#utility.yul\":4734:4808   */\n      swap2\n      pop\n        /* \"#utility.yul\":4817:4910   */\n      tag_163\n        /* \"#utility.yul\":4906:4909   */\n      dup3\n        /* \"#utility.yul\":4817:4910   */\n      tag_98\n      jump\t// in\n    tag_163:\n        /* \"#utility.yul\":4935:4937   */\n      0x40\n        /* \"#utility.yul\":4930:4933   */\n      dup3\n        /* \"#utility.yul\":4926:4938   */\n      add\n        /* \"#utility.yul\":4919:4938   */\n      swap1\n      pop\n        /* \"#utility.yul\":4578:4944   */\n      swap2\n      swap1\n      pop\n      jump\t// out\n        /* \"#utility.yul\":4950:5369   */\n    tag_50:\n        /* \"#utility.yul\":5116:5120   */\n      0x00\n        /* \"#utility.yul\":5154:5156   */\n      0x20\n        /* \"#utility.yul\":5143:5152   */\n      dup3\n        /* \"#utility.yul\":5139:5157   */\n      add\n        /* \"#utility.yul\":5131:5157   */\n      swap1\n      pop\n        /* \"#utility.yul\":5203:5212   */\n      dup2\n        /* \"#utility.yul\":5197:5201   */\n      dup2\n        /* \"#utility.yul\":5193:5213   */\n      sub\n        /* \"#utility.yul\":5189:5190   */\n      0x00\n        /* \"#utility.yul\":5178:5187   */\n      dup4\n        /* \"#utility.yul\":5174:5191   */\n      add\n        /* \"#utility.yul\":5167:5214   */\n      mstore\n        /* \"#utility.yul\":5231:5362   */\n      tag_165\n        /* \"#utility.yul\":5357:5361   */\n      dup2\n        /* \"#utility.yul\":5231:5362   */\n      tag_99\n      jump\t// in\n    tag_165:\n        /* \"#utility.yul\":5223:5362   */\n      swap1\n      pop\n        /* \"#utility.yul\":4950:5369   */\n      swap2\n      swap1\n      pop\n      jump\t// out\n        /* \"#utility.yul\":5375:5598   */\n    tag_100:\n        /* \"#utility.yul\":5515:5549   */\n      0x50726f76696465642061646472657373206973206e6f742062656e6566696369\n        /* \"#utility.yul\":5511:5512   */\n      0x00\n        /* \"#utility.yul\":5503:5509   */\n      dup3\n        /* \"#utility.yul\":5499:5513   */\n      add\n        /* \"#utility.yul\":5492:5550   */\n      mstore\n        /* \"#utility.yul\":5584:5590   */\n      0x6172792e00000000000000000000000000000000000000000000000000000000\n        /* \"#utility.yul\":5579:5581   */\n      0x20\n        /* \"#utility.yul\":5571:5577   */\n      dup3\n        /* \"#utility.yul\":5567:5582   */\n      add\n        /* \"#utility.yul\":5560:5591   */\n      mstore\n        /* \"#utility.yul\":5375:5598   */\n      pop\n      jump\t// out\n        /* \"#utility.yul\":5604:5970   */\n    tag_101:\n        /* \"#utility.yul\":5746:5749   */\n      0x00\n        /* \"#utility.yul\":5767:5834   */\n      tag_168\n        /* \"#utility.yul\":5831:5833   */\n      0x24\n        /* \"#utility.yul\":5826:5829   */\n      dup4\n        /* \"#utility.yul\":5767:5834   */\n      tag_95\n      jump\t// in\n    tag_168:\n        /* \"#utility.yul\":5760:5834   */\n      swap2\n      pop\n        /* \"#utility.yul\":5843:5936   */\n      tag_169\n        /* \"#utility.yul\":5932:5935   */\n      dup3\n        /* \"#utility.yul\":5843:5936   */\n      tag_100\n      jump\t// in\n    tag_169:\n        /* \"#utility.yul\":5961:5963   */\n      0x40\n        /* \"#utility.yul\":5956:5959   */\n      dup3\n        /* \"#utility.yul\":5952:5964   */\n      add\n        /* \"#utility.yul\":5945:5964   */\n      swap1\n      pop\n        /* \"#utility.yul\":5604:5970   */\n      swap2\n      swap1\n      pop\n      jump\t// out\n        /* \"#utility.yul\":5976:6395   */\n    tag_53:\n        /* \"#utility.yul\":6142:6146   */\n      0x00\n        /* \"#utility.yul\":6180:6182   */\n      0x20\n        /* \"#utility.yul\":6169:6178   */\n      dup3\n        /* \"#utility.yul\":6165:6183   */\n      add\n        /* \"#utility.yul\":6157:6183   */\n      swap1\n      pop\n        /* \"#utility.yul\":6229:6238   */\n      dup2\n        /* \"#utility.yul\":6223:6227   */\n      dup2\n        /* \"#utility.yul\":6219:6239   */\n      sub\n        /* \"#utility.yul\":6215:6216   */\n      0x00\n        /* \"#utility.yul\":6204:6213   */\n      dup4\n        /* \"#utility.yul\":6200:6217   */\n      add\n        /* \"#utility.yul\":6193:6240   */\n      mstore\n        /* \"#utility.yul\":6257:6388   */\n      tag_171\n        /* \"#utility.yul\":6383:6387   */\n      dup2\n        /* \"#utility.yul\":6257:6388   */\n      tag_101\n      jump\t// in\n    tag_171:\n        /* \"#utility.yul\":6249:6388   */\n      swap1\n      pop\n        /* \"#utility.yul\":5976:6395   */\n      swap2\n      swap1\n      pop\n      jump\t// out\n        /* \"#utility.yul\":6401:6581   */\n    tag_102:\n        /* \"#utility.yul\":6541:6573   */\n      0x416d6f756e74206d7573742062652067726561746572207468616e20302e0000\n        /* \"#utility.yul\":6537:6538   */\n      0x00\n        /* \"#utility.yul\":6529:6535   */\n      dup3\n        /* \"#utility.yul\":6525:6539   */\n      add\n        /* \"#utility.yul\":6518:6574   */\n      mstore\n        /* \"#utility.yul\":6401:6581   */\n      pop\n      jump\t// out\n        /* \"#utility.yul\":6587:6953   */\n    tag_103:\n        /* \"#utility.yul\":6729:6732   */\n      0x00\n        /* \"#utility.yul\":6750:6817   */\n      tag_174\n        /* \"#utility.yul\":6814:6816   */\n      0x1e\n        /* \"#utility.yul\":6809:6812   */\n      dup4\n        /* \"#utility.yul\":6750:6817   */\n      tag_95\n      jump\t// in\n    tag_174:\n        /* \"#utility.yul\":6743:6817   */\n      swap2\n      pop\n        /* \"#utility.yul\":6826:6919   */\n      tag_175\n        /* \"#utility.yul\":6915:6918   */\n      dup3\n        /* \"#utility.yul\":6826:6919   */\n      tag_102\n      jump\t// in\n    tag_175:\n        /* \"#utility.yul\":6944:6946   */\n      0x20\n        /* \"#utility.yul\":6939:6942   */\n      dup3\n        /* \"#utility.yul\":6935:6947   */\n      add\n        /* \"#utility.yul\":6928:6947   */\n      swap1\n      pop\n        /* \"#utility.yul\":6587:6953   */\n      swap2\n      swap1\n      pop\n      jump\t// out\n        /* \"#utility.yul\":6959:7378   */\n    tag_57:\n        /* \"#utility.yul\":7125:7129   */\n      0x00\n        /* \"#utility.yul\":7163:7165   */\n      0x20\n        /* \"#utility.yul\":7152:7161   */\n      dup3\n        /* \"#utility.yul\":7148:7166   */\n      add\n        /* \"#utility.yul\":7140:7166   */\n      swap1\n      pop\n        /* \"#utility.yul\":7212:7221   */\n      dup2\n        /* \"#utility.yul\":7206:7210   */\n      dup2\n        /* \"#utility.yul\":7202:7222   */\n      sub\n        /* \"#utility.yul\":7198:7199   */\n      0x00\n        /* \"#utility.yul\":7187:7196   */\n      dup4\n        /* \"#utility.yul\":7183:7200   */\n      add\n        /* \"#utility.yul\":7176:7223   */\n      mstore\n        /* \"#utility.yul\":7240:7371   */\n      tag_177\n        /* \"#utility.yul\":7366:7370   */\n      dup2\n        /* \"#utility.yul\":7240:7371   */\n      tag_103\n      jump\t// in\n    tag_177:\n        /* \"#utility.yul\":7232:7371   */\n      swap1\n      pop\n        /* \"#utility.yul\":6959:7378   */\n      swap2\n      swap1\n      pop\n      jump\t// out\n        /* \"#utility.yul\":7384:7564   */\n    tag_104:\n        /* \"#utility.yul\":7432:7509   */\n      0x4e487b7100000000000000000000000000000000000000000000000000000000\n        /* \"#utility.yul\":7429:7430   */\n      0x00\n        /* \"#utility.yul\":7422:7510   */\n      mstore\n        /* \"#utility.yul\":7529:7533   */\n      0x11\n        /* \"#utility.yul\":7526:7527   */\n      0x04\n        /* \"#utility.yul\":7519:7534   */\n      mstore\n        /* \"#utility.yul\":7553:7557   */\n      0x24\n        /* \"#utility.yul\":7550:7551   */\n      0x00\n        /* \"#utility.yul\":7543:7558   */\n      revert\n        /* \"#utility.yul\":7570:7761   */\n    tag_59:\n        /* \"#utility.yul\":7610:7613   */\n      0x00\n        /* \"#utility.yul\":7629:7649   */\n      tag_180\n        /* \"#utility.yul\":7647:7648   */\n      dup3\n        /* \"#utility.yul\":7629:7649   */\n      tag_90\n      jump\t// in\n    tag_180:\n        /* \"#utility.yul\":7624:7649   */\n      swap2\n      pop\n        /* \"#utility.yul\":7663:7683   */\n      tag_181\n        /* \"#utility.yul\":7681:7682   */\n      dup4\n        /* \"#utility.yul\":7663:7683   */\n      tag_90\n      jump\t// in\n    tag_181:\n        /* \"#utility.yul\":7658:7683   */\n      swap3\n      pop\n        /* \"#utility.yul\":7706:7707   */\n      dup3\n        /* \"#utility.yul\":7703:7704   */\n      dup3\n        /* \"#utility.yul\":7699:7708   */\n      add\n        /* \"#utility.yul\":7692:7708   */\n      swap1\n      pop\n        /* \"#utility.yul\":7727:7730   */\n      dup1\n        /* \"#utility.yul\":7724:7725   */\n      dup3\n        /* \"#utility.yul\":7721:7731   */\n      gt\n        /* \"#utility.yul\":7718:7754   */\n      iszero\n      tag_182\n      jumpi\n        /* \"#utility.yul\":7734:7752   */\n      tag_183\n      tag_104\n      jump\t// in\n    tag_183:\n        /* \"#utility.yul\":7718:7754   */\n    tag_182:\n        /* \"#utility.yul\":7570:7761   */\n      swap3\n      swap2\n      pop\n      pop\n      jump\t// out\n        /* \"#utility.yul\":7767:7992   */\n    tag_105:\n        /* \"#utility.yul\":7907:7941   */\n      0x4f6e6c7920746865206f776e65722063616e2063616c6c20746869732066756e\n        /* \"#utility.yul\":7903:7904   */\n      0x00\n        /* \"#utility.yul\":7895:7901   */\n      dup3\n        /* \"#utility.yul\":7891:7905   */\n      add\n        /* \"#utility.yul\":7884:7942   */\n      mstore\n        /* \"#utility.yul\":7976:7984   */\n      0x6374696f6e2e0000000000000000000000000000000000000000000000000000\n        /* \"#utility.yul\":7971:7973   */\n      0x20\n        /* \"#utility.yul\":7963:7969   */\n      dup3\n        /* \"#utility.yul\":7959:7974   */\n      add\n        /* \"#utility.yul\":7952:7985   */\n      mstore\n        /* \"#utility.yul\":7767:7992   */\n      pop\n      jump\t// out\n        /* \"#utility.yul\":7998:8364   */\n    tag_106:\n        /* \"#utility.yul\":8140:8143   */\n      0x00\n        /* \"#utility.yul\":8161:8228   */\n      tag_186\n        /* \"#utility.yul\":8225:8227   */\n      0x26\n        /* \"#utility.yul\":8220:8223   */\n      dup4\n        /* \"#utility.yul\":8161:8228   */\n      tag_95\n      jump\t// in\n    tag_186:\n        /* \"#utility.yul\":8154:8228   */\n      swap2\n      pop\n        /* \"#utility.yul\":8237:8330   */\n      tag_187\n        /* \"#utility.yul\":8326:8329   */\n      dup3\n        /* \"#utility.yul\":8237:8330   */\n      tag_105\n      jump\t// in\n    tag_187:\n        /* \"#utility.yul\":8355:8357   */\n      0x40\n        /* \"#utility.yul\":8350:8353   */\n      dup3\n        /* \"#utility.yul\":8346:8358   */\n      add\n        /* \"#utility.yul\":8339:8358   */\n      swap1\n      pop\n        /* \"#utility.yul\":7998:8364   */\n      swap2\n      swap1\n      pop\n      jump\t// out\n        /* \"#utility.yul\":8370:8789   */\n    tag_64:\n        /* \"#utility.yul\":8536:8540   */\n      0x00\n        /* \"#utility.yul\":8574:8576   */\n      0x20\n        /* \"#utility.yul\":8563:8572   */\n      dup3\n        /* \"#utility.yul\":8559:8577   */\n      add\n        /* \"#utility.yul\":8551:8577   */\n      swap1\n      pop\n        /* \"#utility.yul\":8623:8632   */\n      dup2\n        /* \"#utility.yul\":8617:8621   */\n      dup2\n        /* \"#utility.yul\":8613:8633   */\n      sub\n        /* \"#utility.yul\":8609:8610   */\n      0x00\n        /* \"#utility.yul\":8598:8607   */\n      dup4\n        /* \"#utility.yul\":8594:8611   */\n      add\n        /* \"#utility.yul\":8587:8634   */\n      mstore\n        /* \"#utility.yul\":8651:8782   */\n      tag_189\n        /* \"#utility.yul\":8777:8781   */\n      dup2\n        /* \"#utility.yul\":8651:8782   */\n      tag_106\n      jump\t// in\n    tag_189:\n        /* \"#utility.yul\":8643:8782   */\n      swap1\n      pop\n        /* \"#utility.yul\":8370:8789   */\n      swap2\n      swap1\n      pop\n      jump\t// out\n        /* \"#utility.yul\":8795:9017   */\n    tag_107:\n        /* \"#utility.yul\":8935:8969   */\n      0x50726f76696465642061646472657373206973206e6f742062656e6566696369\n        /* \"#utility.yul\":8931:8932   */\n      0x00\n        /* \"#utility.yul\":8923:8929   */\n      dup3\n        /* \"#utility.yul\":8919:8933   */\n      add\n        /* \"#utility.yul\":8912:8970   */\n      mstore\n        /* \"#utility.yul\":9004:9009   */\n      0x6172790000000000000000000000000000000000000000000000000000000000\n        /* \"#utility.yul\":8999:9001   */\n      0x20\n        /* \"#utility.yul\":8991:8997   */\n      dup3\n        /* \"#utility.yul\":8987:9002   */\n      add\n        /* \"#utility.yul\":8980:9010   */\n      mstore\n        /* \"#utility.yul\":8795:9017   */\n      pop\n      jump\t// out\n        /* \"#utility.yul\":9023:9389   */\n    tag_108:\n        /* \"#utility.yul\":9165:9168   */\n      0x00\n        /* \"#utility.yul\":9186:9253   */\n      tag_192\n        /* \"#utility.yul\":9250:9252   */\n      0x23\n        /* \"#utility.yul\":9245:9248   */\n      dup4\n        /* \"#utility.yul\":9186:9253   */\n      tag_95\n      jump\t// in\n    tag_192:\n        /* \"#utility.yul\":9179:9253   */\n      swap2\n      pop\n        /* \"#utility.yul\":9262:9355   */\n      tag_193\n        /* \"#utility.yul\":9351:9354   */\n      dup3\n        /* \"#utility.yul\":9262:9355   */\n      tag_107\n      jump\t// in\n    tag_193:\n        /* \"#utility.yul\":9380:9382   */\n      0x40\n        /* \"#utility.yul\":9375:9378   */\n      dup3\n        /* \"#utility.yul\":9371:9383   */\n      add\n        /* \"#utility.yul\":9364:9383   */\n      swap1\n      pop\n        /* \"#utility.yul\":9023:9389   */\n      swap2\n      swap1\n      pop\n      jump\t// out\n        /* \"#utility.yul\":9395:9814   */\n    tag_70:\n        /* \"#utility.yul\":9561:9565   */\n      0x00\n        /* \"#utility.yul\":9599:9601   */\n      0x20\n        /* \"#utility.yul\":9588:9597   */\n      dup3\n        /* \"#utility.yul\":9584:9602   */\n      add\n        /* \"#utility.yul\":9576:9602   */\n      swap1\n      pop\n        /* \"#utility.yul\":9648:9657   */\n      dup2\n        /* \"#utility.yul\":9642:9646   */\n      dup2\n        /* \"#utility.yul\":9638:9658   */\n      sub\n        /* \"#utility.yul\":9634:9635   */\n      0x00\n        /* \"#utility.yul\":9623:9632   */\n      dup4\n        /* \"#utility.yul\":9619:9636   */\n      add\n        /* \"#utility.yul\":9612:9659   */\n      mstore\n        /* \"#utility.yul\":9676:9807   */\n      tag_195\n        /* \"#utility.yul\":9802:9806   */\n      dup2\n        /* \"#utility.yul\":9676:9807   */\n      tag_108\n      jump\t// in\n    tag_195:\n        /* \"#utility.yul\":9668:9807   */\n      swap1\n      pop\n        /* \"#utility.yul\":9395:9814   */\n      swap2\n      swap1\n      pop\n      jump\t// out\n        /* \"#utility.yul\":9820:10002   */\n    tag_109:\n        /* \"#utility.yul\":9960:9994   */\n      0x616d6f756e742068617320746f2062652067726561746572207468616e20302e\n        /* \"#utility.yul\":9956:9957   */\n      0x00\n        /* \"#utility.yul\":9948:9954   */\n      dup3\n        /* \"#utility.yul\":9944:9958   */\n      add\n        /* \"#utility.yul\":9937:9995   */\n      mstore\n        /* \"#utility.yul\":9820:10002   */\n      pop\n      jump\t// out\n        /* \"#utility.yul\":10008:10374   */\n    tag_110:\n        /* \"#utility.yul\":10150:10153   */\n      0x00\n        /* \"#utility.yul\":10171:10238   */\n      tag_198\n        /* \"#utility.yul\":10235:10237   */\n      0x20\n        /* \"#utility.yul\":10230:10233   */\n      dup4\n        /* \"#utility.yul\":10171:10238   */\n      tag_95\n      jump\t// in\n    tag_198:\n        /* \"#utility.yul\":10164:10238   */\n      swap2\n      pop\n        /* \"#utility.yul\":10247:10340   */\n      tag_199\n        /* \"#utility.yul\":10336:10339   */\n      dup3\n        /* \"#utility.yul\":10247:10340   */\n      tag_109\n      jump\t// in\n    tag_199:\n        /* \"#utility.yul\":10365:10367   */\n      0x20\n        /* \"#utility.yul\":10360:10363   */\n      dup3\n        /* \"#utility.yul\":10356:10368   */\n      add\n        /* \"#utility.yul\":10349:10368   */\n      swap1\n      pop\n        /* \"#utility.yul\":10008:10374   */\n      swap2\n      swap1\n      pop\n      jump\t// out\n        /* \"#utility.yul\":10380:10799   */\n    tag_73:\n        /* \"#utility.yul\":10546:10550   */\n      0x00\n        /* \"#utility.yul\":10584:10586   */\n      0x20\n        /* \"#utility.yul\":10573:10582   */\n      dup3\n        /* \"#utility.yul\":10569:10587   */\n      add\n        /* \"#utility.yul\":10561:10587   */\n      swap1\n      pop\n        /* \"#utility.yul\":10633:10642   */\n      dup2\n        /* \"#utility.yul\":10627:10631   */\n      dup2\n        /* \"#utility.yul\":10623:10643   */\n      sub\n        /* \"#utility.yul\":10619:10620   */\n      0x00\n        /* \"#utility.yul\":10608:10617   */\n      dup4\n        /* \"#utility.yul\":10604:10621   */\n      add\n        /* \"#utility.yul\":10597:10644   */\n      mstore\n        /* \"#utility.yul\":10661:10792   */\n      tag_201\n        /* \"#utility.yul\":10787:10791   */\n      dup2\n        /* \"#utility.yul\":10661:10792   */\n      tag_110\n      jump\t// in\n    tag_201:\n        /* \"#utility.yul\":10653:10792   */\n      swap1\n      pop\n        /* \"#utility.yul\":10380:10799   */\n      swap2\n      swap1\n      pop\n      jump\t// out\n        /* \"#utility.yul\":10805:10972   */\n    tag_111:\n        /* \"#utility.yul\":10945:10964   */\n      0x496e737566666963656e742066756e6473000000000000000000000000000000\n        /* \"#utility.yul\":10941:10942   */\n      0x00\n        /* \"#utility.yul\":10933:10939   */\n      dup3\n        /* \"#utility.yul\":10929:10943   */\n      add\n        /* \"#utility.yul\":10922:10965   */\n      mstore\n        /* \"#utility.yul\":10805:10972   */\n      pop\n      jump\t// out\n        /* \"#utility.yul\":10978:11344   */\n    tag_112:\n        /* \"#utility.yul\":11120:11123   */\n      0x00\n        /* \"#utility.yul\":11141:11208   */\n      tag_204\n        /* \"#utility.yul\":11205:11207   */\n      0x11\n        /* \"#utility.yul\":11200:11203   */\n      dup4\n        /* \"#utility.yul\":11141:11208   */\n      tag_95\n      jump\t// in\n    tag_204:\n        /* \"#utility.yul\":11134:11208   */\n      swap2\n      pop\n        /* \"#utility.yul\":11217:11310   */\n      tag_205\n        /* \"#utility.yul\":11306:11309   */\n      dup3\n        /* \"#utility.yul\":11217:11310   */\n      tag_111\n      jump\t// in\n    tag_205:\n        /* \"#utility.yul\":11335:11337   */\n      0x20\n        /* \"#utility.yul\":11330:11333   */\n      dup3\n        /* \"#utility.yul\":11326:11338   */\n      add\n        /* \"#utility.yul\":11319:11338   */\n      swap1\n      pop\n        /* \"#utility.yul\":10978:11344   */\n      swap2\n      swap1\n      pop\n      jump\t// out\n        /* \"#utility.yul\":11350:11769   */\n    tag_76:\n        /* \"#utility.yul\":11516:11520   */\n      0x00\n        /* \"#utility.yul\":11554:11556   */\n      0x20\n        /* \"#utility.yul\":11543:11552   */\n      dup3\n        /* \"#utility.yul\":11539:11557   */\n      add\n        /* \"#utility.yul\":11531:11557   */\n      swap1\n      pop\n        /* \"#utility.yul\":11603:11612   */\n      dup2\n        /* \"#utility.yul\":11597:11601   */\n      dup2\n        /* \"#utility.yul\":11593:11613   */\n      sub\n        /* \"#utility.yul\":11589:11590   */\n      0x00\n        /* \"#utility.yul\":11578:11587   */\n      dup4\n        /* \"#utility.yul\":11574:11591   */\n      add\n        /* \"#utility.yul\":11567:11614   */\n      mstore\n        /* \"#utility.yul\":11631:11762   */\n      tag_207\n        /* \"#utility.yul\":11757:11761   */\n      dup2\n        /* \"#utility.yul\":11631:11762   */\n      tag_112\n      jump\t// in\n    tag_207:\n        /* \"#utility.yul\":11623:11762   */\n      swap1\n      pop\n        /* \"#utility.yul\":11350:11769   */\n      swap2\n      swap1\n      pop\n      jump\t// out\n        /* \"#utility.yul\":11775:11969   */\n    tag_78:\n        /* \"#utility.yul\":11815:11819   */\n      0x00\n        /* \"#utility.yul\":11835:11855   */\n      tag_209\n        /* \"#utility.yul\":11853:11854   */\n      dup3\n        /* \"#utility.yul\":11835:11855   */\n      tag_90\n      jump\t// in\n    tag_209:\n        /* \"#utility.yul\":11830:11855   */\n      swap2\n      pop\n        /* \"#utility.yul\":11869:11889   */\n      tag_210\n        /* \"#utility.yul\":11887:11888   */\n      dup4\n        /* \"#utility.yul\":11869:11889   */\n      tag_90\n      jump\t// in\n    tag_210:\n        /* \"#utility.yul\":11864:11889   */\n      swap3\n      pop\n        /* \"#utility.yul\":11913:11914   */\n      dup3\n        /* \"#utility.yul\":11910:11911   */\n      dup3\n        /* \"#utility.yul\":11906:11915   */\n      sub\n        /* \"#utility.yul\":11898:11915   */\n      swap1\n      pop\n        /* \"#utility.yul\":11937:11938   */\n      dup2\n        /* \"#utility.yul\":11931:11935   */\n      dup2\n        /* \"#utility.yul\":11928:11939   */\n      gt\n        /* \"#utility.yul\":11925:11962   */\n      iszero\n      tag_211\n      jumpi\n        /* \"#utility.yul\":11942:11960   */\n      tag_212\n      tag_104\n      jump\t// in\n    tag_212:\n        /* \"#utility.yul\":11925:11962   */\n    tag_211:\n        /* \"#utility.yul\":11775:11969   */\n      swap3\n      swap2\n      pop\n      pop\n      jump\t// out\n\n    auxdata: 0xa26469706673582212207f329392099cc3f5b7ae6d03438fca7b3acd5c0e9799de7ad723a0e47265662764736f6c63430008160033\n}\n",
				"bytecode": {
					"linkReferences": {},
					"object": "608060405234801561000f575f80fd5b50335f806101000a81548173ffffffffffffffffffffffffffffffffffffffff021916908373ffffffffffffffffffffffffffffffffffffffff160217905550610f3d8061005c5f395ff3fe60806040526004361061006f575f3560e01c80636122fed51161004d5780636122fed5146100ff5780637bfccb881461013b5780638da5cb5b146101455780639abf7d371461016f5761006f565b80630bad7354146100735780635926651d146100af57806359633a1c146100d7575b5f80fd5b34801561007e575f80fd5b5061009960048036038101906100949190610947565b610197565b6040516100a6919061098c565b60405180910390f35b3480156100ba575f80fd5b506100d560048036038101906100d09190610947565b6101b4565b005b3480156100e2575f80fd5b506100fd60048036038101906100f89190610947565b6102bd565b005b34801561010a575f80fd5b5061012560048036038101906101209190610947565b61044e565b60405161013291906109bd565b60405180910390f35b610143610463565b005b348015610150575f80fd5b50610159610548565b60405161016691906109e5565b60405180910390f35b34801561017a575f80fd5b5061019560048036038101906101909190610a28565b61056b565b005b6002602052805f5260405f205f915054906101000a900460ff1681565b5f73ffffffffffffffffffffffffffffffffffffffff168173ffffffffffffffffffffffffffffffffffffffff1603610222576040517f08c379a000000000000000000000000000000000000000000000000000000000815260040161021990610ae6565b60405180910390fd5b600160025f8373ffffffffffffffffffffffffffffffffffffffff1673ffffffffffffffffffffffffffffffffffffffff1681526020019081526020015f205f6101000a81548160ff0219169083151502179055508073ffffffffffffffffffffffffffffffffffffffff167fc3e089fc6227e049d0e41c3d7a383d57efe69c1955c5752f7e5a9b5f1f11302060405160405180910390a250565b5f73ffffffffffffffffffffffffffffffffffffffff168173ffffffffffffffffffffffffffffffffffffffff160361032b576040517f08c379a000000000000000000000000000000000000000000000000000000000815260040161032290610b74565b60405180910390fd5b60025f8273ffffffffffffffffffffffffffffffffffffffff1673ffffffffffffffffffffffffffffffffffffffff1681526020019081526020015f205f9054906101000a900460ff166103b4576040517f08c379a00000000000000000000000000000000000000000000000000000000081526004016103ab90610c02565b60405180910390fd5b5f60025f8373ffffffffffffffffffffffffffffffffffffffff1673ffffffffffffffffffffffffffffffffffffffff1681526020019081526020015f205f6101000a81548160ff0219169083151502179055508073ffffffffffffffffffffffffffffffffffffffff167f72977dad29432f655f11c2f0e72ef5124bb9ade7a512fb7a43a9f504df22342860405160405180910390a250565b6001602052805f5260405f205f915090505481565b5f34116104a5576040517f08c379a000000000000000000000000000000000000000000000000000000000815260040161049c90610c6a565b60405180910390fd5b3460015f3373ffffffffffffffffffffffffffffffffffffffff1673ffffffffffffffffffffffffffffffffffffffff1681526020019081526020015f205f8282546104f19190610cb5565b925050819055503373ffffffffffffffffffffffffffffffffffffffff167fd34407217bc1188b69edcf88532167050a4ee9fb14ed2eecd50166fb0cb19b643460405161053e91906109bd565b60405180910390a2565b5f8054906101000a900473ffffffffffffffffffffffffffffffffffffffff1681565b5f8054906101000a900473ffffffffffffffffffffffffffffffffffffffff1673ffffffffffffffffffffffffffffffffffffffff163373ffffffffffffffffffffffffffffffffffffffff16146105f8576040517f08c379a00000000000000000000000000000000000000000000000000000000081526004016105ef90610d58565b60405180910390fd5b5f73ffffffffffffffffffffffffffffffffffffffff168273ffffffffffffffffffffffffffffffffffffffff1603610666576040517f08c379a000000000000000000000000000000000000000000000000000000000815260040161065d90610ae6565b60405180910390fd5b60025f8373ffffffffffffffffffffffffffffffffffffffff1673ffffffffffffffffffffffffffffffffffffffff1681526020019081526020015f205f9054906101000a900460ff166106ef576040517f08c379a00000000000000000000000000000000000000000000000000000000081526004016106e690610de6565b60405180910390fd5b5f8111610731576040517f08c379a000000000000000000000000000000000000000000000000000000000815260040161072890610e4e565b60405180910390fd5b60015f805f9054906101000a900473ffffffffffffffffffffffffffffffffffffffff1673ffffffffffffffffffffffffffffffffffffffff1673ffffffffffffffffffffffffffffffffffffffff1681526020019081526020015f20548111156107d1576040517f08c379a00000000000000000000000000000000000000000000000000000000081526004016107c890610eb6565b60405180910390fd5b8060015f805f9054906101000a900473ffffffffffffffffffffffffffffffffffffffff1673ffffffffffffffffffffffffffffffffffffffff1673ffffffffffffffffffffffffffffffffffffffff1681526020019081526020015f205f82825461083d9190610ed4565b925050819055508060015f8473ffffffffffffffffffffffffffffffffffffffff1673ffffffffffffffffffffffffffffffffffffffff1681526020019081526020015f205f8282546108909190610cb5565b925050819055508173ffffffffffffffffffffffffffffffffffffffff167f2a3fc9f6ac009bb0b1a42d00609a0e83a548aa248a6f2a03f5b2af26cae17d9e826040516108dd91906109bd565b60405180910390a25050565b5f80fd5b5f73ffffffffffffffffffffffffffffffffffffffff82169050919050565b5f610916826108ed565b9050919050565b6109268161090c565b8114610930575f80fd5b50565b5f813590506109418161091d565b92915050565b5f6020828403121561095c5761095b6108e9565b5b5f61096984828501610933565b91505092915050565b5f8115159050919050565b61098681610972565b82525050565b5f60208201905061099f5f83018461097d565b92915050565b5f819050919050565b6109b7816109a5565b82525050565b5f6020820190506109d05f8301846109ae565b92915050565b6109df8161090c565b82525050565b5f6020820190506109f85f8301846109d6565b92915050565b610a07816109a5565b8114610a11575f80fd5b50565b5f81359050610a22816109fe565b92915050565b5f8060408385031215610a3e57610a3d6108e9565b5b5f610a4b85828601610933565b9250506020610a5c85828601610a14565b9150509250929050565b5f82825260208201905092915050565b7f42656e6566696369617279206164647265737320697320696e76616c696420615f8201527f6464726573732e00000000000000000000000000000000000000000000000000602082015250565b5f610ad0602783610a66565b9150610adb82610a76565b604082019050919050565b5f6020820190508181035f830152610afd81610ac4565b9050919050565b7f42656e6566696369617279206164647265737320697320696e76616c696420615f8201527f6464726573730000000000000000000000000000000000000000000000000000602082015250565b5f610b5e602683610a66565b9150610b6982610b04565b604082019050919050565b5f6020820190508181035f830152610b8b81610b52565b9050919050565b7f50726f76696465642061646472657373206973206e6f742062656e65666963695f8201527f6172792e00000000000000000000000000000000000000000000000000000000602082015250565b5f610bec602483610a66565b9150610bf782610b92565b604082019050919050565b5f6020820190508181035f830152610c1981610be0565b9050919050565b7f416d6f756e74206d7573742062652067726561746572207468616e20302e00005f82015250565b5f610c54601e83610a66565b9150610c5f82610c20565b602082019050919050565b5f6020820190508181035f830152610c8181610c48565b9050919050565b7f4e487b71000000000000000000000000000000000000000000000000000000005f52601160045260245ffd5b5f610cbf826109a5565b9150610cca836109a5565b9250828201905080821115610ce257610ce1610c88565b5b92915050565b7f4f6e6c7920746865206f776e65722063616e2063616c6c20746869732066756e5f8201527f6374696f6e2e0000000000000000000000000000000000000000000000000000602082015250565b5f610d42602683610a66565b9150610d4d82610ce8565b604082019050919050565b5f6020820190508181035f830152610d6f81610d36565b9050919050565b7f50726f76696465642061646472657373206973206e6f742062656e65666963695f8201527f6172790000000000000000000000000000000000000000000000000000000000602082015250565b5f610dd0602383610a66565b9150610ddb82610d76565b604082019050919050565b5f6020820190508181035f830152610dfd81610dc4565b9050919050565b7f616d6f756e742068617320746f2062652067726561746572207468616e20302e5f82015250565b5f610e38602083610a66565b9150610e4382610e04565b602082019050919050565b5f6020820190508181035f830152610e6581610e2c565b9050919050565b7f496e737566666963656e742066756e64730000000000000000000000000000005f82015250565b5f610ea0601183610a66565b9150610eab82610e6c565b602082019050919050565b5f6020820190508181035f830152610ecd81610e94565b9050919050565b5f610ede826109a5565b9150610ee9836109a5565b9250828203905081811115610f0157610f00610c88565b5b9291505056fea26469706673582212207f329392099cc3f5b7ae6d03438fca7b3acd5c0e9799de7ad723a0e47265662764736f6c63430008160033",
					"opcodes": "PUSH1 0x80 PUSH1 0x40 MSTORE CALLVALUE DUP1 ISZERO PUSH2 0xF JUMPI PUSH0 DUP1 REVERT JUMPDEST POP CALLER PUSH0 DUP1 PUSH2 0x100 EXP DUP2 SLOAD DUP2 PUSH20 0xFFFFFFFFFFFFFFFFFFFFFFFFFFFFFFFFFFFFFFFF MUL NOT AND SWAP1 DUP4 PUSH20 0xFFFFFFFFFFFFFFFFFFFFFFFFFFFFFFFFFFFFFFFF AND MUL OR SWAP1 SSTORE POP PUSH2 0xF3D DUP1 PUSH2 0x5C PUSH0 CODECOPY PUSH0 RETURN INVALID PUSH1 0x80 PUSH1 0x40 MSTORE PUSH1 0x4 CALLDATASIZE LT PUSH2 0x6F JUMPI PUSH0 CALLDATALOAD PUSH1 0xE0 SHR DUP1 PUSH4 0x6122FED5 GT PUSH2 0x4D JUMPI DUP1 PUSH4 0x6122FED5 EQ PUSH2 0xFF JUMPI DUP1 PUSH4 0x7BFCCB88 EQ PUSH2 0x13B JUMPI DUP1 PUSH4 0x8DA5CB5B EQ PUSH2 0x145 JUMPI DUP1 PUSH4 0x9ABF7D37 EQ PUSH2 0x16F JUMPI PUSH2 0x6F JUMP JUMPDEST DUP1 PUSH4 0xBAD7354 EQ PUSH2 0x73 JUMPI DUP1 PUSH4 0x5926651D EQ PUSH2 0xAF JUMPI DUP1 PUSH4 0x59633A1C EQ PUSH2 0xD7 JUMPI JUMPDEST PUSH0 DUP1 REVERT JUMPDEST CALLVALUE DUP1 ISZERO PUSH2 0x7E JUMPI PUSH0 DUP1 REVERT JUMPDEST POP PUSH2 0x99 PUSH1 0x4 DUP1 CALLDATASIZE SUB DUP2 ADD SWAP1 PUSH2 0x94 SWAP2 SWAP1 PUSH2 0x947 JUMP JUMPDEST PUSH2 0x197 JUMP JUMPDEST PUSH1 0x40 MLOAD PUSH2 0xA6 SWAP2 SWAP1 PUSH2 0x98C JUMP JUMPDEST PUSH1 0x40 MLOAD DUP1 SWAP2 SUB SWAP1 RETURN JUMPDEST CALLVALUE DUP1 ISZERO PUSH2 0xBA JUMPI PUSH0 DUP1 REVERT JUMPDEST POP PUSH2 0xD5 PUSH1 0x4 DUP1 CALLDATASIZE SUB DUP2 ADD SWAP1 PUSH2 0xD0 SWAP2 SWAP1 PUSH2 0x947 JUMP JUMPDEST PUSH2 0x1B4 JUMP JUMPDEST STOP JUMPDEST CALLVALUE DUP1 ISZERO PUSH2 0xE2 JUMPI PUSH0 DUP1 REVERT JUMPDEST POP PUSH2 0xFD PUSH1 0x4 DUP1 CALLDATASIZE SUB DUP2 ADD SWAP1 PUSH2 0xF8 SWAP2 SWAP1 PUSH2 0x947 JUMP JUMPDEST PUSH2 0x2BD JUMP JUMPDEST STOP JUMPDEST CALLVALUE DUP1 ISZERO PUSH2 0x10A JUMPI PUSH0 DUP1 REVERT JUMPDEST POP PUSH2 0x125 PUSH1 0x4 DUP1 CALLDATASIZE SUB DUP2 ADD SWAP1 PUSH2 0x120 SWAP2 SWAP1 PUSH2 0x947 JUMP JUMPDEST PUSH2 0x44E JUMP JUMPDEST PUSH1 0x40 MLOAD PUSH2 0x132 SWAP2 SWAP1 PUSH2 0x9BD JUMP JUMPDEST PUSH1 0x40 MLOAD DUP1 SWAP2 SUB SWAP1 RETURN JUMPDEST PUSH2 0x143 PUSH2 0x463 JUMP JUMPDEST STOP JUMPDEST CALLVALUE DUP1 ISZERO PUSH2 0x150 JUMPI PUSH0 DUP1 REVERT JUMPDEST POP PUSH2 0x159 PUSH2 0x548 JUMP JUMPDEST PUSH1 0x40 MLOAD PUSH2 0x166 SWAP2 SWAP1 PUSH2 0x9E5 JUMP JUMPDEST PUSH1 0x40 MLOAD DUP1 SWAP2 SUB SWAP1 RETURN JUMPDEST CALLVALUE DUP1 ISZERO PUSH2 0x17A JUMPI PUSH0 DUP1 REVERT JUMPDEST POP PUSH2 0x195 PUSH1 0x4 DUP1 CALLDATASIZE SUB DUP2 ADD SWAP1 PUSH2 0x190 SWAP2 SWAP1 PUSH2 0xA28 JUMP JUMPDEST PUSH2 0x56B JUMP JUMPDEST STOP JUMPDEST PUSH1 0x2 PUSH1 0x20 MSTORE DUP1 PUSH0 MSTORE PUSH1 0x40 PUSH0 KECCAK256 PUSH0 SWAP2 POP SLOAD SWAP1 PUSH2 0x100 EXP SWAP1 DIV PUSH1 0xFF AND DUP2 JUMP JUMPDEST PUSH0 PUSH20 0xFFFFFFFFFFFFFFFFFFFFFFFFFFFFFFFFFFFFFFFF AND DUP2 PUSH20 0xFFFFFFFFFFFFFFFFFFFFFFFFFFFFFFFFFFFFFFFF AND SUB PUSH2 0x222 JUMPI PUSH1 0x40 MLOAD PUSH32 0x8C379A000000000000000000000000000000000000000000000000000000000 DUP2 MSTORE PUSH1 0x4 ADD PUSH2 0x219 SWAP1 PUSH2 0xAE6 JUMP JUMPDEST PUSH1 0x40 MLOAD DUP1 SWAP2 SUB SWAP1 REVERT JUMPDEST PUSH1 0x1 PUSH1 0x2 PUSH0 DUP4 PUSH20 0xFFFFFFFFFFFFFFFFFFFFFFFFFFFFFFFFFFFFFFFF AND PUSH20 0xFFFFFFFFFFFFFFFFFFFFFFFFFFFFFFFFFFFFFFFF AND DUP2 MSTORE PUSH1 0x20 ADD SWAP1 DUP2 MSTORE PUSH1 0x20 ADD PUSH0 KECCAK256 PUSH0 PUSH2 0x100 EXP DUP2 SLOAD DUP2 PUSH1 0xFF MUL NOT AND SWAP1 DUP4 ISZERO ISZERO MUL OR SWAP1 SSTORE POP DUP1 PUSH20 0xFFFFFFFFFFFFFFFFFFFFFFFFFFFFFFFFFFFFFFFF AND PUSH32 0xC3E089FC6227E049D0E41C3D7A383D57EFE69C1955C5752F7E5A9B5F1F113020 PUSH1 0x40 MLOAD PUSH1 0x40 MLOAD DUP1 SWAP2 SUB SWAP1 LOG2 POP JUMP JUMPDEST PUSH0 PUSH20 0xFFFFFFFFFFFFFFFFFFFFFFFFFFFFFFFFFFFFFFFF AND DUP2 PUSH20 0xFFFFFFFFFFFFFFFFFFFFFFFFFFFFFFFFFFFFFFFF AND SUB PUSH2 0x32B JUMPI PUSH1 0x40 MLOAD PUSH32 0x8C379A000000000000000000000000000000000000000000000000000000000 DUP2 MSTORE PUSH1 0x4 ADD PUSH2 0x322 SWAP1 PUSH2 0xB74 JUMP JUMPDEST PUSH1 0x40 MLOAD DUP1 SWAP2 SUB SWAP1 REVERT JUMPDEST PUSH1 0x2 PUSH0 DUP3 PUSH20 0xFFFFFFFFFFFFFFFFFFFFFFFFFFFFFFFFFFFFFFFF AND PUSH20 0xFFFFFFFFFFFFFFFFFFFFFFFFFFFFFFFFFFFFFFFF AND DUP2 MSTORE PUSH1 0x20 ADD SWAP1 DUP2 MSTORE PUSH1 0x20 ADD PUSH0 KECCAK256 PUSH0 SWAP1 SLOAD SWAP1 PUSH2 0x100 EXP SWAP1 DIV PUSH1 0xFF AND PUSH2 0x3B4 JUMPI PUSH1 0x40 MLOAD PUSH32 0x8C379A000000000000000000000000000000000000000000000000000000000 DUP2 MSTORE PUSH1 0x4 ADD PUSH2 0x3AB SWAP1 PUSH2 0xC02 JUMP JUMPDEST PUSH1 0x40 MLOAD DUP1 SWAP2 SUB SWAP1 REVERT JUMPDEST PUSH0 PUSH1 0x2 PUSH0 DUP4 PUSH20 0xFFFFFFFFFFFFFFFFFFFFFFFFFFFFFFFFFFFFFFFF AND PUSH20 0xFFFFFFFFFFFFFFFFFFFFFFFFFFFFFFFFFFFFFFFF AND DUP2 MSTORE PUSH1 0x20 ADD SWAP1 DUP2 MSTORE PUSH1 0x20 ADD PUSH0 KECCAK256 PUSH0 PUSH2 0x100 EXP DUP2 SLOAD DUP2 PUSH1 0xFF MUL NOT AND SWAP1 DUP4 ISZERO ISZERO MUL OR SWAP1 SSTORE POP DUP1 PUSH20 0xFFFFFFFFFFFFFFFFFFFFFFFFFFFFFFFFFFFFFFFF AND PUSH32 0x72977DAD29432F655F11C2F0E72EF5124BB9ADE7A512FB7A43A9F504DF223428 PUSH1 0x40 MLOAD PUSH1 0x40 MLOAD DUP1 SWAP2 SUB SWAP1 LOG2 POP JUMP JUMPDEST PUSH1 0x1 PUSH1 0x20 MSTORE DUP1 PUSH0 MSTORE PUSH1 0x40 PUSH0 KECCAK256 PUSH0 SWAP2 POP SWAP1 POP SLOAD DUP2 JUMP JUMPDEST PUSH0 CALLVALUE GT PUSH2 0x4A5 JUMPI PUSH1 0x40 MLOAD PUSH32 0x8C379A000000000000000000000000000000000000000000000000000000000 DUP2 MSTORE PUSH1 0x4 ADD PUSH2 0x49C SWAP1 PUSH2 0xC6A JUMP JUMPDEST PUSH1 0x40 MLOAD DUP1 SWAP2 SUB SWAP1 REVERT JUMPDEST CALLVALUE PUSH1 0x1 PUSH0 CALLER PUSH20 0xFFFFFFFFFFFFFFFFFFFFFFFFFFFFFFFFFFFFFFFF AND PUSH20 0xFFFFFFFFFFFFFFFFFFFFFFFFFFFFFFFFFFFFFFFF AND DUP2 MSTORE PUSH1 0x20 ADD SWAP1 DUP2 MSTORE PUSH1 0x20 ADD PUSH0 KECCAK256 PUSH0 DUP3 DUP3 SLOAD PUSH2 0x4F1 SWAP2 SWAP1 PUSH2 0xCB5 JUMP JUMPDEST SWAP3 POP POP DUP2 SWAP1 SSTORE POP CALLER PUSH20 0xFFFFFFFFFFFFFFFFFFFFFFFFFFFFFFFFFFFFFFFF AND PUSH32 0xD34407217BC1188B69EDCF88532167050A4EE9FB14ED2EECD50166FB0CB19B64 CALLVALUE PUSH1 0x40 MLOAD PUSH2 0x53E SWAP2 SWAP1 PUSH2 0x9BD JUMP JUMPDEST PUSH1 0x40 MLOAD DUP1 SWAP2 SUB SWAP1 LOG2 JUMP JUMPDEST PUSH0 DUP1 SLOAD SWAP1 PUSH2 0x100 EXP SWAP1 DIV PUSH20 0xFFFFFFFFFFFFFFFFFFFFFFFFFFFFFFFFFFFFFFFF AND DUP2 JUMP JUMPDEST PUSH0 DUP1 SLOAD SWAP1 PUSH2 0x100 EXP SWAP1 DIV PUSH20 0xFFFFFFFFFFFFFFFFFFFFFFFFFFFFFFFFFFFFFFFF AND PUSH20 0xFFFFFFFFFFFFFFFFFFFFFFFFFFFFFFFFFFFFFFFF AND CALLER PUSH20 0xFFFFFFFFFFFFFFFFFFFFFFFFFFFFFFFFFFFFFFFF AND EQ PUSH2 0x5F8 JUMPI PUSH1 0x40 MLOAD PUSH32 0x8C379A000000000000000000000000000000000000000000000000000000000 DUP2 MSTORE PUSH1 0x4 ADD PUSH2 0x5EF SWAP1 PUSH2 0xD58 JUMP JUMPDEST PUSH1 0x40 MLOAD DUP1 SWAP2 SUB SWAP1 REVERT JUMPDEST PUSH0 PUSH20 0xFFFFFFFFFFFFFFFFFFFFFFFFFFFFFFFFFFFFFFFF AND DUP3 PUSH20 0xFFFFFFFFFFFFFFFFFFFFFFFFFFFFFFFFFFFFFFFF AND SUB PUSH2 0x666 JUMPI PUSH1 0x40 MLOAD PUSH32 0x8C379A000000000000000000000000000000000000000000000000000000000 DUP2 MSTORE PUSH1 0x4 ADD PUSH2 0x65D SWAP1 PUSH2 0xAE6 JUMP JUMPDEST PUSH1 0x40 MLOAD DUP1 SWAP2 SUB SWAP1 REVERT JUMPDEST PUSH1 0x2 PUSH0 DUP4 PUSH20 0xFFFFFFFFFFFFFFFFFFFFFFFFFFFFFFFFFFFFFFFF AND PUSH20 0xFFFFFFFFFFFFFFFFFFFFFFFFFFFFFFFFFFFFFFFF AND DUP2 MSTORE PUSH1 0x20 ADD SWAP1 DUP2 MSTORE PUSH1 0x20 ADD PUSH0 KECCAK256 PUSH0 SWAP1 SLOAD SWAP1 PUSH2 0x100 EXP SWAP1 DIV PUSH1 0xFF AND PUSH2 0x6EF JUMPI PUSH1 0x40 MLOAD PUSH32 0x8C379A000000000000000000000000000000000000000000000000000000000 DUP2 MSTORE PUSH1 0x4 ADD PUSH2 0x6E6 SWAP1 PUSH2 0xDE6 JUMP JUMPDEST PUSH1 0x40 MLOAD DUP1 SWAP2 SUB SWAP1 REVERT JUMPDEST PUSH0 DUP2 GT PUSH2 0x731 JUMPI PUSH1 0x40 MLOAD PUSH32 0x8C379A000000000000000000000000000000000000000000000000000000000 DUP2 MSTORE PUSH1 0x4 ADD PUSH2 0x728 SWAP1 PUSH2 0xE4E JUMP JUMPDEST PUSH1 0x40 MLOAD DUP1 SWAP2 SUB SWAP1 REVERT JUMPDEST PUSH1 0x1 PUSH0 DUP1 PUSH0 SWAP1 SLOAD SWAP1 PUSH2 0x100 EXP SWAP1 DIV PUSH20 0xFFFFFFFFFFFFFFFFFFFFFFFFFFFFFFFFFFFFFFFF AND PUSH20 0xFFFFFFFFFFFFFFFFFFFFFFFFFFFFFFFFFFFFFFFF AND PUSH20 0xFFFFFFFFFFFFFFFFFFFFFFFFFFFFFFFFFFFFFFFF AND DUP2 MSTORE PUSH1 0x20 ADD SWAP1 DUP2 MSTORE PUSH1 0x20 ADD PUSH0 KECCAK256 SLOAD DUP2 GT ISZERO PUSH2 0x7D1 JUMPI PUSH1 0x40 MLOAD PUSH32 0x8C379A000000000000000000000000000000000000000000000000000000000 DUP2 MSTORE PUSH1 0x4 ADD PUSH2 0x7C8 SWAP1 PUSH2 0xEB6 JUMP JUMPDEST PUSH1 0x40 MLOAD DUP1 SWAP2 SUB SWAP1 REVERT JUMPDEST DUP1 PUSH1 0x1 PUSH0 DUP1 PUSH0 SWAP1 SLOAD SWAP1 PUSH2 0x100 EXP SWAP1 DIV PUSH20 0xFFFFFFFFFFFFFFFFFFFFFFFFFFFFFFFFFFFFFFFF AND PUSH20 0xFFFFFFFFFFFFFFFFFFFFFFFFFFFFFFFFFFFFFFFF AND PUSH20 0xFFFFFFFFFFFFFFFFFFFFFFFFFFFFFFFFFFFFFFFF AND DUP2 MSTORE PUSH1 0x20 ADD SWAP1 DUP2 MSTORE PUSH1 0x20 ADD PUSH0 KECCAK256 PUSH0 DUP3 DUP3 SLOAD PUSH2 0x83D SWAP2 SWAP1 PUSH2 0xED4 JUMP JUMPDEST SWAP3 POP POP DUP2 SWAP1 SSTORE POP DUP1 PUSH1 0x1 PUSH0 DUP5 PUSH20 0xFFFFFFFFFFFFFFFFFFFFFFFFFFFFFFFFFFFFFFFF AND PUSH20 0xFFFFFFFFFFFFFFFFFFFFFFFFFFFFFFFFFFFFFFFF AND DUP2 MSTORE PUSH1 0x20 ADD SWAP1 DUP2 MSTORE PUSH1 0x20 ADD PUSH0 KECCAK256 PUSH0 DUP3 DUP3 SLOAD PUSH2 0x890 SWAP2 SWAP1 PUSH2 0xCB5 JUMP JUMPDEST SWAP3 POP POP DUP2 SWAP1 SSTORE POP DUP2 PUSH20 0xFFFFFFFFFFFFFFFFFFFFFFFFFFFFFFFFFFFFFFFF AND PUSH32 0x2A3FC9F6AC009BB0B1A42D00609A0E83A548AA248A6F2A03F5B2AF26CAE17D9E DUP3 PUSH1 0x40 MLOAD PUSH2 0x8DD SWAP2 SWAP1 PUSH2 0x9BD JUMP JUMPDEST PUSH1 0x40 MLOAD DUP1 SWAP2 SUB SWAP1 LOG2 POP POP JUMP JUMPDEST PUSH0 DUP1 REVERT JUMPDEST PUSH0 PUSH20 0xFFFFFFFFFFFFFFFFFFFFFFFFFFFFFFFFFFFFFFFF DUP3 AND SWAP1 POP SWAP2 SWAP1 POP JUMP JUMPDEST PUSH0 PUSH2 0x916 DUP3 PUSH2 0x8ED JUMP JUMPDEST SWAP1 POP SWAP2 SWAP1 POP JUMP JUMPDEST PUSH2 0x926 DUP2 PUSH2 0x90C JUMP JUMPDEST DUP2 EQ PUSH2 0x930 JUMPI PUSH0 DUP1 REVERT JUMPDEST POP JUMP JUMPDEST PUSH0 DUP2 CALLDATALOAD SWAP1 POP PUSH2 0x941 DUP2 PUSH2 0x91D JUMP JUMPDEST SWAP3 SWAP2 POP POP JUMP JUMPDEST PUSH0 PUSH1 0x20 DUP3 DUP5 SUB SLT ISZERO PUSH2 0x95C JUMPI PUSH2 0x95B PUSH2 0x8E9 JUMP JUMPDEST JUMPDEST PUSH0 PUSH2 0x969 DUP5 DUP3 DUP6 ADD PUSH2 0x933 JUMP JUMPDEST SWAP2 POP POP SWAP3 SWAP2 POP POP JUMP JUMPDEST PUSH0 DUP2 ISZERO ISZERO SWAP1 POP SWAP2 SWAP1 POP JUMP JUMPDEST PUSH2 0x986 DUP2 PUSH2 0x972 JUMP JUMPDEST DUP3 MSTORE POP POP JUMP JUMPDEST PUSH0 PUSH1 0x20 DUP3 ADD SWAP1 POP PUSH2 0x99F PUSH0 DUP4 ADD DUP5 PUSH2 0x97D JUMP JUMPDEST SWAP3 SWAP2 POP POP JUMP JUMPDEST PUSH0 DUP2 SWAP1 POP SWAP2 SWAP1 POP JUMP JUMPDEST PUSH2 0x9B7 DUP2 PUSH2 0x9A5 JUMP JUMPDEST DUP3 MSTORE POP POP JUMP JUMPDEST PUSH0 PUSH1 0x20 DUP3 ADD SWAP1 POP PUSH2 0x9D0 PUSH0 DUP4 ADD DUP5 PUSH2 0x9AE JUMP JUMPDEST SWAP3 SWAP2 POP POP JUMP JUMPDEST PUSH2 0x9DF DUP2 PUSH2 0x90C JUMP JUMPDEST DUP3 MSTORE POP POP JUMP JUMPDEST PUSH0 PUSH1 0x20 DUP3 ADD SWAP1 POP PUSH2 0x9F8 PUSH0 DUP4 ADD DUP5 PUSH2 0x9D6 JUMP JUMPDEST SWAP3 SWAP2 POP POP JUMP JUMPDEST PUSH2 0xA07 DUP2 PUSH2 0x9A5 JUMP JUMPDEST DUP2 EQ PUSH2 0xA11 JUMPI PUSH0 DUP1 REVERT JUMPDEST POP JUMP JUMPDEST PUSH0 DUP2 CALLDATALOAD SWAP1 POP PUSH2 0xA22 DUP2 PUSH2 0x9FE JUMP JUMPDEST SWAP3 SWAP2 POP POP JUMP JUMPDEST PUSH0 DUP1 PUSH1 0x40 DUP4 DUP6 SUB SLT ISZERO PUSH2 0xA3E JUMPI PUSH2 0xA3D PUSH2 0x8E9 JUMP JUMPDEST JUMPDEST PUSH0 PUSH2 0xA4B DUP6 DUP3 DUP7 ADD PUSH2 0x933 JUMP JUMPDEST SWAP3 POP POP PUSH1 0x20 PUSH2 0xA5C DUP6 DUP3 DUP7 ADD PUSH2 0xA14 JUMP JUMPDEST SWAP2 POP POP SWAP3 POP SWAP3 SWAP1 POP JUMP JUMPDEST PUSH0 DUP3 DUP3 MSTORE PUSH1 0x20 DUP3 ADD SWAP1 POP SWAP3 SWAP2 POP POP JUMP JUMPDEST PUSH32 0x42656E6566696369617279206164647265737320697320696E76616C69642061 PUSH0 DUP3 ADD MSTORE PUSH32 0x6464726573732E00000000000000000000000000000000000000000000000000 PUSH1 0x20 DUP3 ADD MSTORE POP JUMP JUMPDEST PUSH0 PUSH2 0xAD0 PUSH1 0x27 DUP4 PUSH2 0xA66 JUMP JUMPDEST SWAP2 POP PUSH2 0xADB DUP3 PUSH2 0xA76 JUMP JUMPDEST PUSH1 0x40 DUP3 ADD SWAP1 POP SWAP2 SWAP1 POP JUMP JUMPDEST PUSH0 PUSH1 0x20 DUP3 ADD SWAP1 POP DUP2 DUP2 SUB PUSH0 DUP4 ADD MSTORE PUSH2 0xAFD DUP2 PUSH2 0xAC4 JUMP JUMPDEST SWAP1 POP SWAP2 SWAP1 POP JUMP JUMPDEST PUSH32 0x42656E6566696369617279206164647265737320697320696E76616C69642061 PUSH0 DUP3 ADD MSTORE PUSH32 0x6464726573730000000000000000000000000000000000000000000000000000 PUSH1 0x20 DUP3 ADD MSTORE POP JUMP JUMPDEST PUSH0 PUSH2 0xB5E PUSH1 0x26 DUP4 PUSH2 0xA66 JUMP JUMPDEST SWAP2 POP PUSH2 0xB69 DUP3 PUSH2 0xB04 JUMP JUMPDEST PUSH1 0x40 DUP3 ADD SWAP1 POP SWAP2 SWAP1 POP JUMP JUMPDEST PUSH0 PUSH1 0x20 DUP3 ADD SWAP1 POP DUP2 DUP2 SUB PUSH0 DUP4 ADD MSTORE PUSH2 0xB8B DUP2 PUSH2 0xB52 JUMP JUMPDEST SWAP1 POP SWAP2 SWAP1 POP JUMP JUMPDEST PUSH32 0x50726F76696465642061646472657373206973206E6F742062656E6566696369 PUSH0 DUP3 ADD MSTORE PUSH32 0x6172792E00000000000000000000000000000000000000000000000000000000 PUSH1 0x20 DUP3 ADD MSTORE POP JUMP JUMPDEST PUSH0 PUSH2 0xBEC PUSH1 0x24 DUP4 PUSH2 0xA66 JUMP JUMPDEST SWAP2 POP PUSH2 0xBF7 DUP3 PUSH2 0xB92 JUMP JUMPDEST PUSH1 0x40 DUP3 ADD SWAP1 POP SWAP2 SWAP1 POP JUMP JUMPDEST PUSH0 PUSH1 0x20 DUP3 ADD SWAP1 POP DUP2 DUP2 SUB PUSH0 DUP4 ADD MSTORE PUSH2 0xC19 DUP2 PUSH2 0xBE0 JUMP JUMPDEST SWAP1 POP SWAP2 SWAP1 POP JUMP JUMPDEST PUSH32 0x416D6F756E74206D7573742062652067726561746572207468616E20302E0000 PUSH0 DUP3 ADD MSTORE POP JUMP JUMPDEST PUSH0 PUSH2 0xC54 PUSH1 0x1E DUP4 PUSH2 0xA66 JUMP JUMPDEST SWAP2 POP PUSH2 0xC5F DUP3 PUSH2 0xC20 JUMP JUMPDEST PUSH1 0x20 DUP3 ADD SWAP1 POP SWAP2 SWAP1 POP JUMP JUMPDEST PUSH0 PUSH1 0x20 DUP3 ADD SWAP1 POP DUP2 DUP2 SUB PUSH0 DUP4 ADD MSTORE PUSH2 0xC81 DUP2 PUSH2 0xC48 JUMP JUMPDEST SWAP1 POP SWAP2 SWAP1 POP JUMP JUMPDEST PUSH32 0x4E487B7100000000000000000000000000000000000000000000000000000000 PUSH0 MSTORE PUSH1 0x11 PUSH1 0x4 MSTORE PUSH1 0x24 PUSH0 REVERT JUMPDEST PUSH0 PUSH2 0xCBF DUP3 PUSH2 0x9A5 JUMP JUMPDEST SWAP2 POP PUSH2 0xCCA DUP4 PUSH2 0x9A5 JUMP JUMPDEST SWAP3 POP DUP3 DUP3 ADD SWAP1 POP DUP1 DUP3 GT ISZERO PUSH2 0xCE2 JUMPI PUSH2 0xCE1 PUSH2 0xC88 JUMP JUMPDEST JUMPDEST SWAP3 SWAP2 POP POP JUMP JUMPDEST PUSH32 0x4F6E6C7920746865206F776E65722063616E2063616C6C20746869732066756E PUSH0 DUP3 ADD MSTORE PUSH32 0x6374696F6E2E0000000000000000000000000000000000000000000000000000 PUSH1 0x20 DUP3 ADD MSTORE POP JUMP JUMPDEST PUSH0 PUSH2 0xD42 PUSH1 0x26 DUP4 PUSH2 0xA66 JUMP JUMPDEST SWAP2 POP PUSH2 0xD4D DUP3 PUSH2 0xCE8 JUMP JUMPDEST PUSH1 0x40 DUP3 ADD SWAP1 POP SWAP2 SWAP1 POP JUMP JUMPDEST PUSH0 PUSH1 0x20 DUP3 ADD SWAP1 POP DUP2 DUP2 SUB PUSH0 DUP4 ADD MSTORE PUSH2 0xD6F DUP2 PUSH2 0xD36 JUMP JUMPDEST SWAP1 POP SWAP2 SWAP1 POP JUMP JUMPDEST PUSH32 0x50726F76696465642061646472657373206973206E6F742062656E6566696369 PUSH0 DUP3 ADD MSTORE PUSH32 0x6172790000000000000000000000000000000000000000000000000000000000 PUSH1 0x20 DUP3 ADD MSTORE POP JUMP JUMPDEST PUSH0 PUSH2 0xDD0 PUSH1 0x23 DUP4 PUSH2 0xA66 JUMP JUMPDEST SWAP2 POP PUSH2 0xDDB DUP3 PUSH2 0xD76 JUMP JUMPDEST PUSH1 0x40 DUP3 ADD SWAP1 POP SWAP2 SWAP1 POP JUMP JUMPDEST PUSH0 PUSH1 0x20 DUP3 ADD SWAP1 POP DUP2 DUP2 SUB PUSH0 DUP4 ADD MSTORE PUSH2 0xDFD DUP2 PUSH2 0xDC4 JUMP JUMPDEST SWAP1 POP SWAP2 SWAP1 POP JUMP JUMPDEST PUSH32 0x616D6F756E742068617320746F2062652067726561746572207468616E20302E PUSH0 DUP3 ADD MSTORE POP JUMP JUMPDEST PUSH0 PUSH2 0xE38 PUSH1 0x20 DUP4 PUSH2 0xA66 JUMP JUMPDEST SWAP2 POP PUSH2 0xE43 DUP3 PUSH2 0xE04 JUMP JUMPDEST PUSH1 0x20 DUP3 ADD SWAP1 POP SWAP2 SWAP1 POP JUMP JUMPDEST PUSH0 PUSH1 0x20 DUP3 ADD SWAP1 POP DUP2 DUP2 SUB PUSH0 DUP4 ADD MSTORE PUSH2 0xE65 DUP2 PUSH2 0xE2C JUMP JUMPDEST SWAP1 POP SWAP2 SWAP1 POP JUMP JUMPDEST PUSH32 0x496E737566666963656E742066756E6473000000000000000000000000000000 PUSH0 DUP3 ADD MSTORE POP JUMP JUMPDEST PUSH0 PUSH2 0xEA0 PUSH1 0x11 DUP4 PUSH2 0xA66 JUMP JUMPDEST SWAP2 POP PUSH2 0xEAB DUP3 PUSH2 0xE6C JUMP JUMPDEST PUSH1 0x20 DUP3 ADD SWAP1 POP SWAP2 SWAP1 POP JUMP JUMPDEST PUSH0 PUSH1 0x20 DUP3 ADD SWAP1 POP DUP2 DUP2 SUB PUSH0 DUP4 ADD MSTORE PUSH2 0xECD DUP2 PUSH2 0xE94 JUMP JUMPDEST SWAP1 POP SWAP2 SWAP1 POP JUMP JUMPDEST PUSH0 PUSH2 0xEDE DUP3 PUSH2 0x9A5 JUMP JUMPDEST SWAP2 POP PUSH2 0xEE9 DUP4 PUSH2 0x9A5 JUMP JUMPDEST SWAP3 POP DUP3 DUP3 SUB SWAP1 POP DUP2 DUP2 GT ISZERO PUSH2 0xF01 JUMPI PUSH2 0xF00 PUSH2 0xC88 JUMP JUMPDEST JUMPDEST SWAP3 SWAP2 POP POP JUMP INVALID LOG2 PUSH5 0x6970667358 0x22 SLT KECCAK256 PUSH32 0x329392099CC3F5B7AE6D03438FCA7B3ACD5C0E9799DE7AD723A0E47265662764 PUSH20 0x6F6C634300081600330000000000000000000000 "
				},
				"gasEstimates": {
					"creation": {
						"codeDepositCost": "780200",
						"executionCost": "25075",
						"totalCost": "805275"
					},
					"external": {
						"addBeneficiary(address)": "26021",
						"areBeneficiaries(address)": "2834",
						"distributeBeneficiary(address,uint256)": "infinite",
						"inheritances(address)": "2802",
						"owner()": "2549",
						"receivedInheritance()": "infinite",
						"removeBeneficiary(address)": "28282"
					}
				},
				"methodIdentifiers": {
					"addBeneficiary(address)": "5926651d",
					"areBeneficiaries(address)": "0bad7354",
					"distributeBeneficiary(address,uint256)": "9abf7d37",
					"inheritances(address)": "6122fed5",
					"owner()": "8da5cb5b",
					"receivedInheritance()": "7bfccb88",
					"removeBeneficiary(address)": "59633a1c"
				}
			},
			"storageLayout": {
				"storage": [
					{
						"astId": 3,
						"contract": "Property Inheritance/Property Inheritance Smart Contract.sol:Inheritance",
						"label": "owner",
						"offset": 0,
						"slot": "0",
						"type": "t_address"
					},
					{
						"astId": 7,
						"contract": "Property Inheritance/Property Inheritance Smart Contract.sol:Inheritance",
						"label": "inheritances",
						"offset": 0,
						"slot": "1",
						"type": "t_mapping(t_address,t_uint256)"
					},
					{
						"astId": 11,
						"contract": "Property Inheritance/Property Inheritance Smart Contract.sol:Inheritance",
						"label": "areBeneficiaries",
						"offset": 0,
						"slot": "2",
						"type": "t_mapping(t_address,t_bool)"
					}
				],
				"types": {
					"t_address": {
						"encoding": "inplace",
						"label": "address",
						"numberOfBytes": "20"
					},
					"t_bool": {
						"encoding": "inplace",
						"label": "bool",
						"numberOfBytes": "1"
					},
					"t_mapping(t_address,t_bool)": {
						"encoding": "mapping",
						"key": "t_address",
						"label": "mapping(address => bool)",
						"numberOfBytes": "32",
						"value": "t_bool"
					},
					"t_mapping(t_address,t_uint256)": {
						"encoding": "mapping",
						"key": "t_address",
						"label": "mapping(address => uint256)",
						"numberOfBytes": "32",
						"value": "t_uint256"
					},
					"t_uint256": {
						"encoding": "inplace",
						"label": "uint256",
						"numberOfBytes": "32"
					}
				}
			},
			"userdoc": {
				"kind": "user",
				"methods": {},
				"version": 1
			}
		}
	}
}