{
	"Property Inheritance/Property Inheritance Smart Contract.sol": {
		"Inheritance2": {
			"abi": [
				{
					"inputs": [],
					"stateMutability": "nonpayable",
					"type": "constructor"
				},
				{
					"anonymous": false,
					"inputs": [
						{
							"indexed": true,
							"internalType": "address",
							"name": "beneficiary",
							"type": "address"
						}
					],
					"name": "BeneficiaryAdded",
					"type": "event"
				},
				{
					"anonymous": false,
					"inputs": [
						{
							"indexed": true,
							"internalType": "address",
							"name": "beneficiary",
							"type": "address"
						}
					],
					"name": "BeneficiaryRemoved",
					"type": "event"
				},
				{
					"anonymous": false,
					"inputs": [
						{
							"indexed": true,
							"internalType": "address",
							"name": "beneficiary",
							"type": "address"
						},
						{
							"indexed": false,
							"internalType": "uint256",
							"name": "amount",
							"type": "uint256"
						}
					],
					"name": "InheritanceDistributed",
					"type": "event"
				},
				{
					"anonymous": false,
					"inputs": [
						{
							"indexed": true,
							"internalType": "address",
							"name": "from",
							"type": "address"
						},
						{
							"indexed": false,
							"internalType": "uint256",
							"name": "amount",
							"type": "uint256"
						}
					],
					"name": "InheritanceReceived",
					"type": "event"
				},
				{
					"inputs": [
						{
							"internalType": "address",
							"name": "_beneficiary",
							"type": "address"
						}
					],
					"name": "addBeneficiary",
					"outputs": [],
					"stateMutability": "nonpayable",
					"type": "function"
				},
				{
					"inputs": [
						{
							"internalType": "address",
							"name": "",
							"type": "address"
						}
					],
					"name": "beneficiaries",
					"outputs": [
						{
							"internalType": "uint256",
							"name": "inheritance",
							"type": "uint256"
						},
						{
							"internalType": "bool",
							"name": "isBeneficiary",
							"type": "bool"
						}
					],
					"stateMutability": "view",
					"type": "function"
				},
				{
					"inputs": [
						{
							"internalType": "address",
							"name": "_beneficiary",
							"type": "address"
						},
						{
							"internalType": "uint256",
							"name": "_amount",
							"type": "uint256"
						}
					],
					"name": "distributeBeneficiary",
					"outputs": [],
					"stateMutability": "nonpayable",
					"type": "function"
				},
				{
					"inputs": [],
					"name": "owner",
					"outputs": [
						{
							"internalType": "address",
							"name": "",
							"type": "address"
						}
					],
					"stateMutability": "view",
					"type": "function"
				},
				{
					"inputs": [],
					"name": "receivedInheritance",
					"outputs": [],
					"stateMutability": "payable",
					"type": "function"
				},
				{
					"inputs": [
						{
							"internalType": "address",
							"name": "_beneficiary",
							"type": "address"
						}
					],
					"name": "removeBeneficiary",
					"outputs": [],
					"stateMutability": "nonpayable",
					"type": "function"
				}
			],
			"devdoc": {
				"kind": "dev",
				"methods": {},
				"version": 1
			},
			"evm": {
				"assembly": "    /* \"Property Inheritance/Property Inheritance Smart Contract.sol\":2137:4435  contract Inheritance2 {... */\n  mstore(0x40, 0x80)\n    /* \"Property Inheritance/Property Inheritance Smart Contract.sol\":2604:2653  constructor() {... */\n  callvalue\n  dup1\n  iszero\n  tag_1\n  jumpi\n  0x00\n  dup1\n  revert\ntag_1:\n  pop\n    /* \"Property Inheritance/Property Inheritance Smart Contract.sol\":2636:2646  msg.sender */\n  caller\n    /* \"Property Inheritance/Property Inheritance Smart Contract.sol\":2628:2633  owner */\n  0x00\n  dup1\n    /* \"Property Inheritance/Property Inheritance Smart Contract.sol\":2628:2646  owner = msg.sender */\n  0x0100\n  exp\n  dup2\n  sload\n  dup2\n  0xffffffffffffffffffffffffffffffffffffffff\n  mul\n  not\n  and\n  swap1\n  dup4\n  0xffffffffffffffffffffffffffffffffffffffff\n  and\n  mul\n  or\n  swap1\n  sstore\n  pop\n    /* \"Property Inheritance/Property Inheritance Smart Contract.sol\":2137:4435  contract Inheritance2 {... */\n  dataSize(sub_0)\n  dup1\n  dataOffset(sub_0)\n  0x00\n  codecopy\n  0x00\n  return\nstop\n\nsub_0: assembly {\n        /* \"Property Inheritance/Property Inheritance Smart Contract.sol\":2137:4435  contract Inheritance2 {... */\n      mstore(0x40, 0x80)\n      jumpi(tag_1, lt(calldatasize, 0x04))\n      shr(0xe0, calldataload(0x00))\n      dup1\n      0x01567739\n      eq\n      tag_2\n      jumpi\n      dup1\n      0x5926651d\n      eq\n      tag_3\n      jumpi\n      dup1\n      0x59633a1c\n      eq\n      tag_4\n      jumpi\n      dup1\n      0x7bfccb88\n      eq\n      tag_5\n      jumpi\n      dup1\n      0x8da5cb5b\n      eq\n      tag_6\n      jumpi\n      dup1\n      0x9abf7d37\n      eq\n      tag_7\n      jumpi\n    tag_1:\n      0x00\n      dup1\n      revert\n        /* \"Property Inheritance/Property Inheritance Smart Contract.sol\":2191:2243  mapping(address => Beneficiary) public beneficiaries */\n    tag_2:\n      callvalue\n      dup1\n      iszero\n      tag_8\n      jumpi\n      0x00\n      dup1\n      revert\n    tag_8:\n      pop\n      tag_9\n      0x04\n      dup1\n      calldatasize\n      sub\n      dup2\n      add\n      swap1\n      tag_10\n      swap2\n      swap1\n      tag_11\n      jump\t// in\n    tag_10:\n      tag_12\n      jump\t// in\n    tag_9:\n      mload(0x40)\n      tag_13\n      swap3\n      swap2\n      swap1\n      tag_14\n      jump\t// in\n    tag_13:\n      mload(0x40)\n      dup1\n      swap2\n      sub\n      swap1\n      return\n        /* \"Property Inheritance/Property Inheritance Smart Contract.sol\":3215:3479  function addBeneficiary(address _beneficiary) external onlyOwner {... */\n    tag_3:\n      callvalue\n      dup1\n      iszero\n      tag_15\n      jumpi\n      0x00\n      dup1\n      revert\n    tag_15:\n      pop\n      tag_16\n      0x04\n      dup1\n      calldatasize\n      sub\n      dup2\n      add\n      swap1\n      tag_17\n      swap2\n      swap1\n      tag_11\n      jump\t// in\n    tag_17:\n      tag_18\n      jump\t// in\n    tag_16:\n      stop\n        /* \"Property Inheritance/Property Inheritance Smart Contract.sol\":3485:3866  function removeBeneficiary(address _beneficiary) external onlyOwner {... */\n    tag_4:\n      callvalue\n      dup1\n      iszero\n      tag_19\n      jumpi\n      0x00\n      dup1\n      revert\n    tag_19:\n      pop\n      tag_20\n      0x04\n      dup1\n      calldatasize\n      sub\n      dup2\n      add\n      swap1\n      tag_21\n      swap2\n      swap1\n      tag_11\n      jump\t// in\n    tag_21:\n      tag_22\n      jump\t// in\n    tag_20:\n      stop\n        /* \"Property Inheritance/Property Inheritance Smart Contract.sol\":2784:3209  function receivedInheritance() external payable {... */\n    tag_5:\n      tag_23\n      tag_24\n      jump\t// in\n    tag_23:\n      stop\n        /* \"Property Inheritance/Property Inheritance Smart Contract.sol\":2165:2185  address public owner */\n    tag_6:\n      callvalue\n      dup1\n      iszero\n      tag_25\n      jumpi\n      0x00\n      dup1\n      revert\n    tag_25:\n      pop\n      tag_26\n      tag_27\n      jump\t// in\n    tag_26:\n      mload(0x40)\n      tag_28\n      swap2\n      swap1\n      tag_29\n      jump\t// in\n    tag_28:\n      mload(0x40)\n      dup1\n      swap2\n      sub\n      swap1\n      return\n        /* \"Property Inheritance/Property Inheritance Smart Contract.sol\":3872:4433  function distributeBeneficiary(address _beneficiary, uint256 _amount) external onlyOwner {... */\n    tag_7:\n      callvalue\n      dup1\n      iszero\n      tag_30\n      jumpi\n      0x00\n      dup1\n      revert\n    tag_30:\n      pop\n      tag_31\n      0x04\n      dup1\n      calldatasize\n      sub\n      dup2\n      add\n      swap1\n      tag_32\n      swap2\n      swap1\n      tag_33\n      jump\t// in\n    tag_32:\n      tag_34\n      jump\t// in\n    tag_31:\n      stop\n        /* \"Property Inheritance/Property Inheritance Smart Contract.sol\":2191:2243  mapping(address => Beneficiary) public beneficiaries */\n    tag_12:\n      mstore(0x20, 0x01)\n      dup1\n      0x00\n      mstore\n      keccak256(0x00, 0x40)\n      0x00\n      swap2\n      pop\n      swap1\n      pop\n      dup1\n      0x00\n      add\n      sload\n      swap1\n      dup1\n      0x01\n      add\n      0x00\n      swap1\n      sload\n      swap1\n      0x0100\n      exp\n      swap1\n      div\n      0xff\n      and\n      swap1\n      pop\n      dup3\n      jump\t// out\n        /* \"Property Inheritance/Property Inheritance Smart Contract.sol\":3215:3479  function addBeneficiary(address _beneficiary) external onlyOwner {... */\n    tag_18:\n        /* \"Property Inheritance/Property Inheritance Smart Contract.sol\":2712:2717  owner */\n      0x00\n      dup1\n      sload\n      swap1\n      0x0100\n      exp\n      swap1\n      div\n      0xffffffffffffffffffffffffffffffffffffffff\n      and\n        /* \"Property Inheritance/Property Inheritance Smart Contract.sol\":2698:2717  msg.sender == owner */\n      0xffffffffffffffffffffffffffffffffffffffff\n      and\n        /* \"Property Inheritance/Property Inheritance Smart Contract.sol\":2698:2708  msg.sender */\n      caller\n        /* \"Property Inheritance/Property Inheritance Smart Contract.sol\":2698:2717  msg.sender == owner */\n      0xffffffffffffffffffffffffffffffffffffffff\n      and\n      eq\n        /* \"Property Inheritance/Property Inheritance Smart Contract.sol\":2690:2760  require(msg.sender == owner, \"Only the owner can call this function.\") */\n      tag_36\n      jumpi\n      mload(0x40)\n      0x08c379a000000000000000000000000000000000000000000000000000000000\n      dup2\n      mstore\n      0x04\n      add\n      tag_37\n      swap1\n      tag_38\n      jump\t// in\n    tag_37:\n      mload(0x40)\n      dup1\n      swap2\n      sub\n      swap1\n      revert\n    tag_36:\n        /* \"Property Inheritance/Property Inheritance Smart Contract.sol\":3322:3323  0 */\n      0x00\n        /* \"Property Inheritance/Property Inheritance Smart Contract.sol\":3298:3324  _beneficiary != address(0) */\n      0xffffffffffffffffffffffffffffffffffffffff\n      and\n        /* \"Property Inheritance/Property Inheritance Smart Contract.sol\":3298:3310  _beneficiary */\n      dup2\n        /* \"Property Inheritance/Property Inheritance Smart Contract.sol\":3298:3324  _beneficiary != address(0) */\n      0xffffffffffffffffffffffffffffffffffffffff\n      and\n      sub\n        /* \"Property Inheritance/Property Inheritance Smart Contract.sol\":3290:3360  require(_beneficiary != address(0), \"Beneficiary address is invalid.\") */\n      tag_40\n      jumpi\n      mload(0x40)\n      0x08c379a000000000000000000000000000000000000000000000000000000000\n      dup2\n      mstore\n      0x04\n      add\n      tag_41\n      swap1\n      tag_42\n      jump\t// in\n    tag_41:\n      mload(0x40)\n      dup1\n      swap2\n      sub\n      swap1\n      revert\n    tag_40:\n        /* \"Property Inheritance/Property Inheritance Smart Contract.sol\":3414:3418  true */\n      0x01\n        /* \"Property Inheritance/Property Inheritance Smart Contract.sol\":3370:3383  beneficiaries */\n      dup1\n        /* \"Property Inheritance/Property Inheritance Smart Contract.sol\":3370:3397  beneficiaries[_beneficiary] */\n      0x00\n        /* \"Property Inheritance/Property Inheritance Smart Contract.sol\":3384:3396  _beneficiary */\n      dup4\n        /* \"Property Inheritance/Property Inheritance Smart Contract.sol\":3370:3397  beneficiaries[_beneficiary] */\n      0xffffffffffffffffffffffffffffffffffffffff\n      and\n      0xffffffffffffffffffffffffffffffffffffffff\n      and\n      dup2\n      mstore\n      0x20\n      add\n      swap1\n      dup2\n      mstore\n      0x20\n      add\n      0x00\n      keccak256\n        /* \"Property Inheritance/Property Inheritance Smart Contract.sol\":3370:3411  beneficiaries[_beneficiary].isBeneficiary */\n      0x01\n      add\n      0x00\n        /* \"Property Inheritance/Property Inheritance Smart Contract.sol\":3370:3418  beneficiaries[_beneficiary].isBeneficiary = true */\n      0x0100\n      exp\n      dup2\n      sload\n      dup2\n      0xff\n      mul\n      not\n      and\n      swap1\n      dup4\n      iszero\n      iszero\n      mul\n      or\n      swap1\n      sstore\n      pop\n        /* \"Property Inheritance/Property Inheritance Smart Contract.sol\":3459:3471  _beneficiary */\n      dup1\n        /* \"Property Inheritance/Property Inheritance Smart Contract.sol\":3442:3472  BeneficiaryAdded(_beneficiary) */\n      0xffffffffffffffffffffffffffffffffffffffff\n      and\n      0xc3e089fc6227e049d0e41c3d7a383d57efe69c1955c5752f7e5a9b5f1f113020\n      mload(0x40)\n      mload(0x40)\n      dup1\n      swap2\n      sub\n      swap1\n      log2\n        /* \"Property Inheritance/Property Inheritance Smart Contract.sol\":3215:3479  function addBeneficiary(address _beneficiary) external onlyOwner {... */\n      pop\n      jump\t// out\n        /* \"Property Inheritance/Property Inheritance Smart Contract.sol\":3485:3866  function removeBeneficiary(address _beneficiary) external onlyOwner {... */\n    tag_22:\n        /* \"Property Inheritance/Property Inheritance Smart Contract.sol\":2712:2717  owner */\n      0x00\n      dup1\n      sload\n      swap1\n      0x0100\n      exp\n      swap1\n      div\n      0xffffffffffffffffffffffffffffffffffffffff\n      and\n        /* \"Property Inheritance/Property Inheritance Smart Contract.sol\":2698:2717  msg.sender == owner */\n      0xffffffffffffffffffffffffffffffffffffffff\n      and\n        /* \"Property Inheritance/Property Inheritance Smart Contract.sol\":2698:2708  msg.sender */\n      caller\n        /* \"Property Inheritance/Property Inheritance Smart Contract.sol\":2698:2717  msg.sender == owner */\n      0xffffffffffffffffffffffffffffffffffffffff\n      and\n      eq\n        /* \"Property Inheritance/Property Inheritance Smart Contract.sol\":2690:2760  require(msg.sender == owner, \"Only the owner can call this function.\") */\n      tag_44\n      jumpi\n      mload(0x40)\n      0x08c379a000000000000000000000000000000000000000000000000000000000\n      dup2\n      mstore\n      0x04\n      add\n      tag_45\n      swap1\n      tag_38\n      jump\t// in\n    tag_45:\n      mload(0x40)\n      dup1\n      swap2\n      sub\n      swap1\n      revert\n    tag_44:\n        /* \"Property Inheritance/Property Inheritance Smart Contract.sol\":3595:3596  0 */\n      0x00\n        /* \"Property Inheritance/Property Inheritance Smart Contract.sol\":3571:3597  _beneficiary != address(0) */\n      0xffffffffffffffffffffffffffffffffffffffff\n      and\n        /* \"Property Inheritance/Property Inheritance Smart Contract.sol\":3571:3583  _beneficiary */\n      dup2\n        /* \"Property Inheritance/Property Inheritance Smart Contract.sol\":3571:3597  _beneficiary != address(0) */\n      0xffffffffffffffffffffffffffffffffffffffff\n      and\n      sub\n        /* \"Property Inheritance/Property Inheritance Smart Contract.sol\":3563:3633  require(_beneficiary != address(0), \"Beneficiary address is invalid.\") */\n      tag_47\n      jumpi\n      mload(0x40)\n      0x08c379a000000000000000000000000000000000000000000000000000000000\n      dup2\n      mstore\n      0x04\n      add\n      tag_48\n      swap1\n      tag_42\n      jump\t// in\n    tag_48:\n      mload(0x40)\n      dup1\n      swap2\n      sub\n      swap1\n      revert\n    tag_47:\n        /* \"Property Inheritance/Property Inheritance Smart Contract.sol\":3651:3664  beneficiaries */\n      0x01\n        /* \"Property Inheritance/Property Inheritance Smart Contract.sol\":3651:3678  beneficiaries[_beneficiary] */\n      0x00\n        /* \"Property Inheritance/Property Inheritance Smart Contract.sol\":3665:3677  _beneficiary */\n      dup3\n        /* \"Property Inheritance/Property Inheritance Smart Contract.sol\":3651:3678  beneficiaries[_beneficiary] */\n      0xffffffffffffffffffffffffffffffffffffffff\n      and\n      0xffffffffffffffffffffffffffffffffffffffff\n      and\n      dup2\n      mstore\n      0x20\n      add\n      swap1\n      dup2\n      mstore\n      0x20\n      add\n      0x00\n      keccak256\n        /* \"Property Inheritance/Property Inheritance Smart Contract.sol\":3651:3692  beneficiaries[_beneficiary].isBeneficiary */\n      0x01\n      add\n      0x00\n      swap1\n      sload\n      swap1\n      0x0100\n      exp\n      swap1\n      div\n      0xff\n      and\n        /* \"Property Inheritance/Property Inheritance Smart Contract.sol\":3643:3735  require(beneficiaries[_beneficiary].isBeneficiary, \"Provided address is not a beneficiary.\") */\n      tag_49\n      jumpi\n      mload(0x40)\n      0x08c379a000000000000000000000000000000000000000000000000000000000\n      dup2\n      mstore\n      0x04\n      add\n      tag_50\n      swap1\n      tag_51\n      jump\t// in\n    tag_50:\n      mload(0x40)\n      dup1\n      swap2\n      sub\n      swap1\n      revert\n    tag_49:\n        /* \"Property Inheritance/Property Inheritance Smart Contract.sol\":3798:3803  false */\n      0x00\n        /* \"Property Inheritance/Property Inheritance Smart Contract.sol\":3754:3767  beneficiaries */\n      0x01\n        /* \"Property Inheritance/Property Inheritance Smart Contract.sol\":3754:3781  beneficiaries[_beneficiary] */\n      0x00\n        /* \"Property Inheritance/Property Inheritance Smart Contract.sol\":3768:3780  _beneficiary */\n      dup4\n        /* \"Property Inheritance/Property Inheritance Smart Contract.sol\":3754:3781  beneficiaries[_beneficiary] */\n      0xffffffffffffffffffffffffffffffffffffffff\n      and\n      0xffffffffffffffffffffffffffffffffffffffff\n      and\n      dup2\n      mstore\n      0x20\n      add\n      swap1\n      dup2\n      mstore\n      0x20\n      add\n      0x00\n      keccak256\n        /* \"Property Inheritance/Property Inheritance Smart Contract.sol\":3754:3795  beneficiaries[_beneficiary].isBeneficiary */\n      0x01\n      add\n      0x00\n        /* \"Property Inheritance/Property Inheritance Smart Contract.sol\":3754:3803  beneficiaries[_beneficiary].isBeneficiary = false */\n      0x0100\n      exp\n      dup2\n      sload\n      dup2\n      0xff\n      mul\n      not\n      and\n      swap1\n      dup4\n      iszero\n      iszero\n      mul\n      or\n      swap1\n      sstore\n      pop\n        /* \"Property Inheritance/Property Inheritance Smart Contract.sol\":3846:3858  _beneficiary */\n      dup1\n        /* \"Property Inheritance/Property Inheritance Smart Contract.sol\":3827:3859  BeneficiaryRemoved(_beneficiary) */\n      0xffffffffffffffffffffffffffffffffffffffff\n      and\n      0x72977dad29432f655f11c2f0e72ef5124bb9ade7a512fb7a43a9f504df223428\n      mload(0x40)\n      mload(0x40)\n      dup1\n      swap2\n      sub\n      swap1\n      log2\n        /* \"Property Inheritance/Property Inheritance Smart Contract.sol\":3485:3866  function removeBeneficiary(address _beneficiary) external onlyOwner {... */\n      pop\n      jump\t// out\n        /* \"Property Inheritance/Property Inheritance Smart Contract.sol\":2784:3209  function receivedInheritance() external payable {... */\n    tag_24:\n        /* \"Property Inheritance/Property Inheritance Smart Contract.sol\":2862:2863  0 */\n      0x00\n        /* \"Property Inheritance/Property Inheritance Smart Contract.sol\":2850:2859  msg.value */\n      callvalue\n        /* \"Property Inheritance/Property Inheritance Smart Contract.sol\":2850:2863  msg.value > 0 */\n      gt\n        /* \"Property Inheritance/Property Inheritance Smart Contract.sol\":2842:2898  require(msg.value > 0, \"Amount must be greater than 0.\") */\n      tag_53\n      jumpi\n      mload(0x40)\n      0x08c379a000000000000000000000000000000000000000000000000000000000\n      dup2\n      mstore\n      0x04\n      add\n      tag_54\n      swap1\n      tag_55\n      jump\t// in\n    tag_54:\n      mload(0x40)\n      dup1\n      swap2\n      sub\n      swap1\n      revert\n    tag_53:\n        /* \"Property Inheritance/Property Inheritance Smart Contract.sol\":2908:2939  Beneficiary storage beneficiary */\n      0x00\n        /* \"Property Inheritance/Property Inheritance Smart Contract.sol\":2942:2955  beneficiaries */\n      0x01\n        /* \"Property Inheritance/Property Inheritance Smart Contract.sol\":2942:2967  beneficiaries[msg.sender] */\n      0x00\n        /* \"Property Inheritance/Property Inheritance Smart Contract.sol\":2956:2966  msg.sender */\n      caller\n        /* \"Property Inheritance/Property Inheritance Smart Contract.sol\":2942:2967  beneficiaries[msg.sender] */\n      0xffffffffffffffffffffffffffffffffffffffff\n      and\n      0xffffffffffffffffffffffffffffffffffffffff\n      and\n      dup2\n      mstore\n      0x20\n      add\n      swap1\n      dup2\n      mstore\n      0x20\n      add\n      0x00\n      keccak256\n        /* \"Property Inheritance/Property Inheritance Smart Contract.sol\":2908:2967  Beneficiary storage beneficiary = beneficiaries[msg.sender] */\n      swap1\n      pop\n        /* \"Property Inheritance/Property Inheritance Smart Contract.sol\":3004:3013  msg.value */\n      callvalue\n        /* \"Property Inheritance/Property Inheritance Smart Contract.sol\":2977:2988  beneficiary */\n      dup2\n        /* \"Property Inheritance/Property Inheritance Smart Contract.sol\":2977:3000  beneficiary.inheritance */\n      0x00\n      add\n      0x00\n        /* \"Property Inheritance/Property Inheritance Smart Contract.sol\":2977:3013  beneficiary.inheritance += msg.value */\n      dup3\n      dup3\n      sload\n      tag_56\n      swap2\n      swap1\n      tag_57\n      jump\t// in\n    tag_56:\n      swap3\n      pop\n      pop\n      dup2\n      swap1\n      sstore\n      pop\n        /* \"Property Inheritance/Property Inheritance Smart Contract.sol\":3051:3055  true */\n      0x01\n        /* \"Property Inheritance/Property Inheritance Smart Contract.sol\":3023:3034  beneficiary */\n      dup2\n        /* \"Property Inheritance/Property Inheritance Smart Contract.sol\":3023:3048  beneficiary.isBeneficiary */\n      0x01\n      add\n      0x00\n        /* \"Property Inheritance/Property Inheritance Smart Contract.sol\":3023:3055  beneficiary.isBeneficiary = true */\n      0x0100\n      exp\n      dup2\n      sload\n      dup2\n      0xff\n      mul\n      not\n      and\n      swap1\n      dup4\n      iszero\n      iszero\n      mul\n      or\n      swap1\n      sstore\n      pop\n        /* \"Property Inheritance/Property Inheritance Smart Contract.sol\":3180:3190  msg.sender */\n      caller\n        /* \"Property Inheritance/Property Inheritance Smart Contract.sol\":3160:3202  InheritanceReceived(msg.sender, msg.value) */\n      0xffffffffffffffffffffffffffffffffffffffff\n      and\n      0xd34407217bc1188b69edcf88532167050a4ee9fb14ed2eecd50166fb0cb19b64\n        /* \"Property Inheritance/Property Inheritance Smart Contract.sol\":3192:3201  msg.value */\n      callvalue\n        /* \"Property Inheritance/Property Inheritance Smart Contract.sol\":3160:3202  InheritanceReceived(msg.sender, msg.value) */\n      mload(0x40)\n      tag_58\n      swap2\n      swap1\n      tag_59\n      jump\t// in\n    tag_58:\n      mload(0x40)\n      dup1\n      swap2\n      sub\n      swap1\n      log2\n        /* \"Property Inheritance/Property Inheritance Smart Contract.sol\":2832:3209  {... */\n      pop\n        /* \"Property Inheritance/Property Inheritance Smart Contract.sol\":2784:3209  function receivedInheritance() external payable {... */\n      jump\t// out\n        /* \"Property Inheritance/Property Inheritance Smart Contract.sol\":2165:2185  address public owner */\n    tag_27:\n      0x00\n      dup1\n      sload\n      swap1\n      0x0100\n      exp\n      swap1\n      div\n      0xffffffffffffffffffffffffffffffffffffffff\n      and\n      dup2\n      jump\t// out\n        /* \"Property Inheritance/Property Inheritance Smart Contract.sol\":3872:4433  function distributeBeneficiary(address _beneficiary, uint256 _amount) external onlyOwner {... */\n    tag_34:\n        /* \"Property Inheritance/Property Inheritance Smart Contract.sol\":2712:2717  owner */\n      0x00\n      dup1\n      sload\n      swap1\n      0x0100\n      exp\n      swap1\n      div\n      0xffffffffffffffffffffffffffffffffffffffff\n      and\n        /* \"Property Inheritance/Property Inheritance Smart Contract.sol\":2698:2717  msg.sender == owner */\n      0xffffffffffffffffffffffffffffffffffffffff\n      and\n        /* \"Property Inheritance/Property Inheritance Smart Contract.sol\":2698:2708  msg.sender */\n      caller\n        /* \"Property Inheritance/Property Inheritance Smart Contract.sol\":2698:2717  msg.sender == owner */\n      0xffffffffffffffffffffffffffffffffffffffff\n      and\n      eq\n        /* \"Property Inheritance/Property Inheritance Smart Contract.sol\":2690:2760  require(msg.sender == owner, \"Only the owner can call this function.\") */\n      tag_61\n      jumpi\n      mload(0x40)\n      0x08c379a000000000000000000000000000000000000000000000000000000000\n      dup2\n      mstore\n      0x04\n      add\n      tag_62\n      swap1\n      tag_38\n      jump\t// in\n    tag_62:\n      mload(0x40)\n      dup1\n      swap2\n      sub\n      swap1\n      revert\n    tag_61:\n        /* \"Property Inheritance/Property Inheritance Smart Contract.sol\":4003:4004  0 */\n      0x00\n        /* \"Property Inheritance/Property Inheritance Smart Contract.sol\":3979:4005  _beneficiary != address(0) */\n      0xffffffffffffffffffffffffffffffffffffffff\n      and\n        /* \"Property Inheritance/Property Inheritance Smart Contract.sol\":3979:3991  _beneficiary */\n      dup3\n        /* \"Property Inheritance/Property Inheritance Smart Contract.sol\":3979:4005  _beneficiary != address(0) */\n      0xffffffffffffffffffffffffffffffffffffffff\n      and\n      sub\n        /* \"Property Inheritance/Property Inheritance Smart Contract.sol\":3971:4041  require(_beneficiary != address(0), \"Beneficiary address is invalid.\") */\n      tag_64\n      jumpi\n      mload(0x40)\n      0x08c379a000000000000000000000000000000000000000000000000000000000\n      dup2\n      mstore\n      0x04\n      add\n      tag_65\n      swap1\n      tag_42\n      jump\t// in\n    tag_65:\n      mload(0x40)\n      dup1\n      swap2\n      sub\n      swap1\n      revert\n    tag_64:\n        /* \"Property Inheritance/Property Inheritance Smart Contract.sol\":4059:4072  beneficiaries */\n      0x01\n        /* \"Property Inheritance/Property Inheritance Smart Contract.sol\":4059:4086  beneficiaries[_beneficiary] */\n      0x00\n        /* \"Property Inheritance/Property Inheritance Smart Contract.sol\":4073:4085  _beneficiary */\n      dup4\n        /* \"Property Inheritance/Property Inheritance Smart Contract.sol\":4059:4086  beneficiaries[_beneficiary] */\n      0xffffffffffffffffffffffffffffffffffffffff\n      and\n      0xffffffffffffffffffffffffffffffffffffffff\n      and\n      dup2\n      mstore\n      0x20\n      add\n      swap1\n      dup2\n      mstore\n      0x20\n      add\n      0x00\n      keccak256\n        /* \"Property Inheritance/Property Inheritance Smart Contract.sol\":4059:4100  beneficiaries[_beneficiary].isBeneficiary */\n      0x01\n      add\n      0x00\n      swap1\n      sload\n      swap1\n      0x0100\n      exp\n      swap1\n      div\n      0xff\n      and\n        /* \"Property Inheritance/Property Inheritance Smart Contract.sol\":4051:4143  require(beneficiaries[_beneficiary].isBeneficiary, \"Provided address is not a beneficiary.\") */\n      tag_66\n      jumpi\n      mload(0x40)\n      0x08c379a000000000000000000000000000000000000000000000000000000000\n      dup2\n      mstore\n      0x04\n      add\n      tag_67\n      swap1\n      tag_51\n      jump\t// in\n    tag_67:\n      mload(0x40)\n      dup1\n      swap2\n      sub\n      swap1\n      revert\n    tag_66:\n        /* \"Property Inheritance/Property Inheritance Smart Contract.sol\":4171:4172  0 */\n      0x00\n        /* \"Property Inheritance/Property Inheritance Smart Contract.sol\":4161:4168  _amount */\n      dup2\n        /* \"Property Inheritance/Property Inheritance Smart Contract.sol\":4161:4172  _amount > 0 */\n      gt\n        /* \"Property Inheritance/Property Inheritance Smart Contract.sol\":4161:4219  _amount > 0 && _amount <= beneficiaries[owner].inheritance */\n      dup1\n      iszero\n      tag_68\n      jumpi\n      pop\n        /* \"Property Inheritance/Property Inheritance Smart Contract.sol\":4187:4200  beneficiaries */\n      0x01\n        /* \"Property Inheritance/Property Inheritance Smart Contract.sol\":4187:4207  beneficiaries[owner] */\n      0x00\n        /* \"Property Inheritance/Property Inheritance Smart Contract.sol\":4201:4206  owner */\n      dup1\n      0x00\n      swap1\n      sload\n      swap1\n      0x0100\n      exp\n      swap1\n      div\n      0xffffffffffffffffffffffffffffffffffffffff\n      and\n        /* \"Property Inheritance/Property Inheritance Smart Contract.sol\":4187:4207  beneficiaries[owner] */\n      0xffffffffffffffffffffffffffffffffffffffff\n      and\n      0xffffffffffffffffffffffffffffffffffffffff\n      and\n      dup2\n      mstore\n      0x20\n      add\n      swap1\n      dup2\n      mstore\n      0x20\n      add\n      0x00\n      keccak256\n        /* \"Property Inheritance/Property Inheritance Smart Contract.sol\":4187:4219  beneficiaries[owner].inheritance */\n      0x00\n      add\n      sload\n        /* \"Property Inheritance/Property Inheritance Smart Contract.sol\":4176:4183  _amount */\n      dup2\n        /* \"Property Inheritance/Property Inheritance Smart Contract.sol\":4176:4219  _amount <= beneficiaries[owner].inheritance */\n      gt\n      iszero\n        /* \"Property Inheritance/Property Inheritance Smart Contract.sol\":4161:4219  _amount > 0 && _amount <= beneficiaries[owner].inheritance */\n    tag_68:\n        /* \"Property Inheritance/Property Inheritance Smart Contract.sol\":4153:4243  require(_amount > 0 && _amount <= beneficiaries[owner].inheritance, \"Insufficient funds.\") */\n      tag_69\n      jumpi\n      mload(0x40)\n      0x08c379a000000000000000000000000000000000000000000000000000000000\n      dup2\n      mstore\n      0x04\n      add\n      tag_70\n      swap1\n      tag_71\n      jump\t// in\n    tag_70:\n      mload(0x40)\n      dup1\n      swap2\n      sub\n      swap1\n      revert\n    tag_69:\n        /* \"Property Inheritance/Property Inheritance Smart Contract.sol\":4298:4305  _amount */\n      dup1\n        /* \"Property Inheritance/Property Inheritance Smart Contract.sol\":4262:4275  beneficiaries */\n      0x01\n        /* \"Property Inheritance/Property Inheritance Smart Contract.sol\":4262:4282  beneficiaries[owner] */\n      0x00\n        /* \"Property Inheritance/Property Inheritance Smart Contract.sol\":4276:4281  owner */\n      dup1\n      0x00\n      swap1\n      sload\n      swap1\n      0x0100\n      exp\n      swap1\n      div\n      0xffffffffffffffffffffffffffffffffffffffff\n      and\n        /* \"Property Inheritance/Property Inheritance Smart Contract.sol\":4262:4282  beneficiaries[owner] */\n      0xffffffffffffffffffffffffffffffffffffffff\n      and\n      0xffffffffffffffffffffffffffffffffffffffff\n      and\n      dup2\n      mstore\n      0x20\n      add\n      swap1\n      dup2\n      mstore\n      0x20\n      add\n      0x00\n      keccak256\n        /* \"Property Inheritance/Property Inheritance Smart Contract.sol\":4262:4294  beneficiaries[owner].inheritance */\n      0x00\n      add\n      0x00\n        /* \"Property Inheritance/Property Inheritance Smart Contract.sol\":4262:4305  beneficiaries[owner].inheritance -= _amount */\n      dup3\n      dup3\n      sload\n      tag_72\n      swap2\n      swap1\n      tag_73\n      jump\t// in\n    tag_72:\n      swap3\n      pop\n      pop\n      dup2\n      swap1\n      sstore\n      pop\n        /* \"Property Inheritance/Property Inheritance Smart Contract.sol\":4358:4365  _amount */\n      dup1\n        /* \"Property Inheritance/Property Inheritance Smart Contract.sol\":4315:4328  beneficiaries */\n      0x01\n        /* \"Property Inheritance/Property Inheritance Smart Contract.sol\":4315:4342  beneficiaries[_beneficiary] */\n      0x00\n        /* \"Property Inheritance/Property Inheritance Smart Contract.sol\":4329:4341  _beneficiary */\n      dup5\n        /* \"Property Inheritance/Property Inheritance Smart Contract.sol\":4315:4342  beneficiaries[_beneficiary] */\n      0xffffffffffffffffffffffffffffffffffffffff\n      and\n      0xffffffffffffffffffffffffffffffffffffffff\n      and\n      dup2\n      mstore\n      0x20\n      add\n      swap1\n      dup2\n      mstore\n      0x20\n      add\n      0x00\n      keccak256\n        /* \"Property Inheritance/Property Inheritance Smart Contract.sol\":4315:4354  beneficiaries[_beneficiary].inheritance */\n      0x00\n      add\n      0x00\n        /* \"Property Inheritance/Property Inheritance Smart Contract.sol\":4315:4365  beneficiaries[_beneficiary].inheritance += _amount */\n      dup3\n      dup3\n      sload\n      tag_74\n      swap2\n      swap1\n      tag_57\n      jump\t// in\n    tag_74:\n      swap3\n      pop\n      pop\n      dup2\n      swap1\n      sstore\n      pop\n        /* \"Property Inheritance/Property Inheritance Smart Contract.sol\":4404:4416  _beneficiary */\n      dup2\n        /* \"Property Inheritance/Property Inheritance Smart Contract.sol\":4381:4426  InheritanceDistributed(_beneficiary, _amount) */\n      0xffffffffffffffffffffffffffffffffffffffff\n      and\n      0x2a3fc9f6ac009bb0b1a42d00609a0e83a548aa248a6f2a03f5b2af26cae17d9e\n        /* \"Property Inheritance/Property Inheritance Smart Contract.sol\":4418:4425  _amount */\n      dup3\n        /* \"Property Inheritance/Property Inheritance Smart Contract.sol\":4381:4426  InheritanceDistributed(_beneficiary, _amount) */\n      mload(0x40)\n      tag_75\n      swap2\n      swap1\n      tag_59\n      jump\t// in\n    tag_75:\n      mload(0x40)\n      dup1\n      swap2\n      sub\n      swap1\n      log2\n        /* \"Property Inheritance/Property Inheritance Smart Contract.sol\":3872:4433  function distributeBeneficiary(address _beneficiary, uint256 _amount) external onlyOwner {... */\n      pop\n      pop\n      jump\t// out\n        /* \"#utility.yul\":88:205   */\n    tag_77:\n        /* \"#utility.yul\":197:198   */\n      0x00\n        /* \"#utility.yul\":194:195   */\n      dup1\n        /* \"#utility.yul\":187:199   */\n      revert\n        /* \"#utility.yul\":334:460   */\n    tag_79:\n        /* \"#utility.yul\":371:378   */\n      0x00\n        /* \"#utility.yul\":411:453   */\n      0xffffffffffffffffffffffffffffffffffffffff\n        /* \"#utility.yul\":404:409   */\n      dup3\n        /* \"#utility.yul\":400:454   */\n      and\n        /* \"#utility.yul\":389:454   */\n      swap1\n      pop\n        /* \"#utility.yul\":334:460   */\n      swap2\n      swap1\n      pop\n      jump\t// out\n        /* \"#utility.yul\":466:562   */\n    tag_80:\n        /* \"#utility.yul\":503:510   */\n      0x00\n        /* \"#utility.yul\":532:556   */\n      tag_108\n        /* \"#utility.yul\":550:555   */\n      dup3\n        /* \"#utility.yul\":532:556   */\n      tag_79\n      jump\t// in\n    tag_108:\n        /* \"#utility.yul\":521:556   */\n      swap1\n      pop\n        /* \"#utility.yul\":466:562   */\n      swap2\n      swap1\n      pop\n      jump\t// out\n        /* \"#utility.yul\":568:690   */\n    tag_81:\n        /* \"#utility.yul\":641:665   */\n      tag_110\n        /* \"#utility.yul\":659:664   */\n      dup2\n        /* \"#utility.yul\":641:665   */\n      tag_80\n      jump\t// in\n    tag_110:\n        /* \"#utility.yul\":634:639   */\n      dup2\n        /* \"#utility.yul\":631:666   */\n      eq\n        /* \"#utility.yul\":621:684   */\n      tag_111\n      jumpi\n        /* \"#utility.yul\":680:681   */\n      0x00\n        /* \"#utility.yul\":677:678   */\n      dup1\n        /* \"#utility.yul\":670:682   */\n      revert\n        /* \"#utility.yul\":621:684   */\n    tag_111:\n        /* \"#utility.yul\":568:690   */\n      pop\n      jump\t// out\n        /* \"#utility.yul\":696:835   */\n    tag_82:\n        /* \"#utility.yul\":742:747   */\n      0x00\n        /* \"#utility.yul\":780:786   */\n      dup2\n        /* \"#utility.yul\":767:787   */\n      calldataload\n        /* \"#utility.yul\":758:787   */\n      swap1\n      pop\n        /* \"#utility.yul\":796:829   */\n      tag_113\n        /* \"#utility.yul\":823:828   */\n      dup2\n        /* \"#utility.yul\":796:829   */\n      tag_81\n      jump\t// in\n    tag_113:\n        /* \"#utility.yul\":696:835   */\n      swap3\n      swap2\n      pop\n      pop\n      jump\t// out\n        /* \"#utility.yul\":841:1170   */\n    tag_11:\n        /* \"#utility.yul\":900:906   */\n      0x00\n        /* \"#utility.yul\":949:951   */\n      0x20\n        /* \"#utility.yul\":937:946   */\n      dup3\n        /* \"#utility.yul\":928:935   */\n      dup5\n        /* \"#utility.yul\":924:947   */\n      sub\n        /* \"#utility.yul\":920:952   */\n      slt\n        /* \"#utility.yul\":917:1036   */\n      iszero\n      tag_115\n      jumpi\n        /* \"#utility.yul\":955:1034   */\n      tag_116\n      tag_77\n      jump\t// in\n    tag_116:\n        /* \"#utility.yul\":917:1036   */\n    tag_115:\n        /* \"#utility.yul\":1075:1076   */\n      0x00\n        /* \"#utility.yul\":1100:1153   */\n      tag_117\n        /* \"#utility.yul\":1145:1152   */\n      dup5\n        /* \"#utility.yul\":1136:1142   */\n      dup3\n        /* \"#utility.yul\":1125:1134   */\n      dup6\n        /* \"#utility.yul\":1121:1143   */\n      add\n        /* \"#utility.yul\":1100:1153   */\n      tag_82\n      jump\t// in\n    tag_117:\n        /* \"#utility.yul\":1090:1153   */\n      swap2\n      pop\n        /* \"#utility.yul\":1046:1163   */\n      pop\n        /* \"#utility.yul\":841:1170   */\n      swap3\n      swap2\n      pop\n      pop\n      jump\t// out\n        /* \"#utility.yul\":1176:1253   */\n    tag_83:\n        /* \"#utility.yul\":1213:1220   */\n      0x00\n        /* \"#utility.yul\":1242:1247   */\n      dup2\n        /* \"#utility.yul\":1231:1247   */\n      swap1\n      pop\n        /* \"#utility.yul\":1176:1253   */\n      swap2\n      swap1\n      pop\n      jump\t// out\n        /* \"#utility.yul\":1259:1377   */\n    tag_84:\n        /* \"#utility.yul\":1346:1370   */\n      tag_120\n        /* \"#utility.yul\":1364:1369   */\n      dup2\n        /* \"#utility.yul\":1346:1370   */\n      tag_83\n      jump\t// in\n    tag_120:\n        /* \"#utility.yul\":1341:1344   */\n      dup3\n        /* \"#utility.yul\":1334:1371   */\n      mstore\n        /* \"#utility.yul\":1259:1377   */\n      pop\n      pop\n      jump\t// out\n        /* \"#utility.yul\":1383:1473   */\n    tag_85:\n        /* \"#utility.yul\":1417:1424   */\n      0x00\n        /* \"#utility.yul\":1460:1465   */\n      dup2\n        /* \"#utility.yul\":1453:1466   */\n      iszero\n        /* \"#utility.yul\":1446:1467   */\n      iszero\n        /* \"#utility.yul\":1435:1467   */\n      swap1\n      pop\n        /* \"#utility.yul\":1383:1473   */\n      swap2\n      swap1\n      pop\n      jump\t// out\n        /* \"#utility.yul\":1479:1588   */\n    tag_86:\n        /* \"#utility.yul\":1560:1581   */\n      tag_123\n        /* \"#utility.yul\":1575:1580   */\n      dup2\n        /* \"#utility.yul\":1560:1581   */\n      tag_85\n      jump\t// in\n    tag_123:\n        /* \"#utility.yul\":1555:1558   */\n      dup3\n        /* \"#utility.yul\":1548:1582   */\n      mstore\n        /* \"#utility.yul\":1479:1588   */\n      pop\n      pop\n      jump\t// out\n        /* \"#utility.yul\":1594:1914   */\n    tag_14:\n        /* \"#utility.yul\":1709:1713   */\n      0x00\n        /* \"#utility.yul\":1747:1749   */\n      0x40\n        /* \"#utility.yul\":1736:1745   */\n      dup3\n        /* \"#utility.yul\":1732:1750   */\n      add\n        /* \"#utility.yul\":1724:1750   */\n      swap1\n      pop\n        /* \"#utility.yul\":1760:1831   */\n      tag_125\n        /* \"#utility.yul\":1828:1829   */\n      0x00\n        /* \"#utility.yul\":1817:1826   */\n      dup4\n        /* \"#utility.yul\":1813:1830   */\n      add\n        /* \"#utility.yul\":1804:1810   */\n      dup6\n        /* \"#utility.yul\":1760:1831   */\n      tag_84\n      jump\t// in\n    tag_125:\n        /* \"#utility.yul\":1841:1907   */\n      tag_126\n        /* \"#utility.yul\":1903:1905   */\n      0x20\n        /* \"#utility.yul\":1892:1901   */\n      dup4\n        /* \"#utility.yul\":1888:1906   */\n      add\n        /* \"#utility.yul\":1879:1885   */\n      dup5\n        /* \"#utility.yul\":1841:1907   */\n      tag_86\n      jump\t// in\n    tag_126:\n        /* \"#utility.yul\":1594:1914   */\n      swap4\n      swap3\n      pop\n      pop\n      pop\n      jump\t// out\n        /* \"#utility.yul\":1920:2038   */\n    tag_87:\n        /* \"#utility.yul\":2007:2031   */\n      tag_128\n        /* \"#utility.yul\":2025:2030   */\n      dup2\n        /* \"#utility.yul\":2007:2031   */\n      tag_80\n      jump\t// in\n    tag_128:\n        /* \"#utility.yul\":2002:2005   */\n      dup3\n        /* \"#utility.yul\":1995:2032   */\n      mstore\n        /* \"#utility.yul\":1920:2038   */\n      pop\n      pop\n      jump\t// out\n        /* \"#utility.yul\":2044:2266   */\n    tag_29:\n        /* \"#utility.yul\":2137:2141   */\n      0x00\n        /* \"#utility.yul\":2175:2177   */\n      0x20\n        /* \"#utility.yul\":2164:2173   */\n      dup3\n        /* \"#utility.yul\":2160:2178   */\n      add\n        /* \"#utility.yul\":2152:2178   */\n      swap1\n      pop\n        /* \"#utility.yul\":2188:2259   */\n      tag_130\n        /* \"#utility.yul\":2256:2257   */\n      0x00\n        /* \"#utility.yul\":2245:2254   */\n      dup4\n        /* \"#utility.yul\":2241:2258   */\n      add\n        /* \"#utility.yul\":2232:2238   */\n      dup5\n        /* \"#utility.yul\":2188:2259   */\n      tag_87\n      jump\t// in\n    tag_130:\n        /* \"#utility.yul\":2044:2266   */\n      swap3\n      swap2\n      pop\n      pop\n      jump\t// out\n        /* \"#utility.yul\":2272:2394   */\n    tag_88:\n        /* \"#utility.yul\":2345:2369   */\n      tag_132\n        /* \"#utility.yul\":2363:2368   */\n      dup2\n        /* \"#utility.yul\":2345:2369   */\n      tag_83\n      jump\t// in\n    tag_132:\n        /* \"#utility.yul\":2338:2343   */\n      dup2\n        /* \"#utility.yul\":2335:2370   */\n      eq\n        /* \"#utility.yul\":2325:2388   */\n      tag_133\n      jumpi\n        /* \"#utility.yul\":2384:2385   */\n      0x00\n        /* \"#utility.yul\":2381:2382   */\n      dup1\n        /* \"#utility.yul\":2374:2386   */\n      revert\n        /* \"#utility.yul\":2325:2388   */\n    tag_133:\n        /* \"#utility.yul\":2272:2394   */\n      pop\n      jump\t// out\n        /* \"#utility.yul\":2400:2539   */\n    tag_89:\n        /* \"#utility.yul\":2446:2451   */\n      0x00\n        /* \"#utility.yul\":2484:2490   */\n      dup2\n        /* \"#utility.yul\":2471:2491   */\n      calldataload\n        /* \"#utility.yul\":2462:2491   */\n      swap1\n      pop\n        /* \"#utility.yul\":2500:2533   */\n      tag_135\n        /* \"#utility.yul\":2527:2532   */\n      dup2\n        /* \"#utility.yul\":2500:2533   */\n      tag_88\n      jump\t// in\n    tag_135:\n        /* \"#utility.yul\":2400:2539   */\n      swap3\n      swap2\n      pop\n      pop\n      jump\t// out\n        /* \"#utility.yul\":2545:3019   */\n    tag_33:\n        /* \"#utility.yul\":2613:2619   */\n      0x00\n        /* \"#utility.yul\":2621:2627   */\n      dup1\n        /* \"#utility.yul\":2670:2672   */\n      0x40\n        /* \"#utility.yul\":2658:2667   */\n      dup4\n        /* \"#utility.yul\":2649:2656   */\n      dup6\n        /* \"#utility.yul\":2645:2668   */\n      sub\n        /* \"#utility.yul\":2641:2673   */\n      slt\n        /* \"#utility.yul\":2638:2757   */\n      iszero\n      tag_137\n      jumpi\n        /* \"#utility.yul\":2676:2755   */\n      tag_138\n      tag_77\n      jump\t// in\n    tag_138:\n        /* \"#utility.yul\":2638:2757   */\n    tag_137:\n        /* \"#utility.yul\":2796:2797   */\n      0x00\n        /* \"#utility.yul\":2821:2874   */\n      tag_139\n        /* \"#utility.yul\":2866:2873   */\n      dup6\n        /* \"#utility.yul\":2857:2863   */\n      dup3\n        /* \"#utility.yul\":2846:2855   */\n      dup7\n        /* \"#utility.yul\":2842:2864   */\n      add\n        /* \"#utility.yul\":2821:2874   */\n      tag_82\n      jump\t// in\n    tag_139:\n        /* \"#utility.yul\":2811:2874   */\n      swap3\n      pop\n        /* \"#utility.yul\":2767:2884   */\n      pop\n        /* \"#utility.yul\":2923:2925   */\n      0x20\n        /* \"#utility.yul\":2949:3002   */\n      tag_140\n        /* \"#utility.yul\":2994:3001   */\n      dup6\n        /* \"#utility.yul\":2985:2991   */\n      dup3\n        /* \"#utility.yul\":2974:2983   */\n      dup7\n        /* \"#utility.yul\":2970:2992   */\n      add\n        /* \"#utility.yul\":2949:3002   */\n      tag_89\n      jump\t// in\n    tag_140:\n        /* \"#utility.yul\":2939:3002   */\n      swap2\n      pop\n        /* \"#utility.yul\":2894:3012   */\n      pop\n        /* \"#utility.yul\":2545:3019   */\n      swap3\n      pop\n      swap3\n      swap1\n      pop\n      jump\t// out\n        /* \"#utility.yul\":3025:3194   */\n    tag_90:\n        /* \"#utility.yul\":3109:3120   */\n      0x00\n        /* \"#utility.yul\":3143:3149   */\n      dup3\n        /* \"#utility.yul\":3138:3141   */\n      dup3\n        /* \"#utility.yul\":3131:3150   */\n      mstore\n        /* \"#utility.yul\":3183:3187   */\n      0x20\n        /* \"#utility.yul\":3178:3181   */\n      dup3\n        /* \"#utility.yul\":3174:3188   */\n      add\n        /* \"#utility.yul\":3159:3188   */\n      swap1\n      pop\n        /* \"#utility.yul\":3025:3194   */\n      swap3\n      swap2\n      pop\n      pop\n      jump\t// out\n        /* \"#utility.yul\":3200:3425   */\n    tag_91:\n        /* \"#utility.yul\":3340:3374   */\n      0x4f6e6c7920746865206f776e65722063616e2063616c6c20746869732066756e\n        /* \"#utility.yul\":3336:3337   */\n      0x00\n        /* \"#utility.yul\":3328:3334   */\n      dup3\n        /* \"#utility.yul\":3324:3338   */\n      add\n        /* \"#utility.yul\":3317:3375   */\n      mstore\n        /* \"#utility.yul\":3409:3417   */\n      0x6374696f6e2e0000000000000000000000000000000000000000000000000000\n        /* \"#utility.yul\":3404:3406   */\n      0x20\n        /* \"#utility.yul\":3396:3402   */\n      dup3\n        /* \"#utility.yul\":3392:3407   */\n      add\n        /* \"#utility.yul\":3385:3418   */\n      mstore\n        /* \"#utility.yul\":3200:3425   */\n      pop\n      jump\t// out\n        /* \"#utility.yul\":3431:3797   */\n    tag_92:\n        /* \"#utility.yul\":3573:3576   */\n      0x00\n        /* \"#utility.yul\":3594:3661   */\n      tag_144\n        /* \"#utility.yul\":3658:3660   */\n      0x26\n        /* \"#utility.yul\":3653:3656   */\n      dup4\n        /* \"#utility.yul\":3594:3661   */\n      tag_90\n      jump\t// in\n    tag_144:\n        /* \"#utility.yul\":3587:3661   */\n      swap2\n      pop\n        /* \"#utility.yul\":3670:3763   */\n      tag_145\n        /* \"#utility.yul\":3759:3762   */\n      dup3\n        /* \"#utility.yul\":3670:3763   */\n      tag_91\n      jump\t// in\n    tag_145:\n        /* \"#utility.yul\":3788:3790   */\n      0x40\n        /* \"#utility.yul\":3783:3786   */\n      dup3\n        /* \"#utility.yul\":3779:3791   */\n      add\n        /* \"#utility.yul\":3772:3791   */\n      swap1\n      pop\n        /* \"#utility.yul\":3431:3797   */\n      swap2\n      swap1\n      pop\n      jump\t// out\n        /* \"#utility.yul\":3803:4222   */\n    tag_38:\n        /* \"#utility.yul\":3969:3973   */\n      0x00\n        /* \"#utility.yul\":4007:4009   */\n      0x20\n        /* \"#utility.yul\":3996:4005   */\n      dup3\n        /* \"#utility.yul\":3992:4010   */\n      add\n        /* \"#utility.yul\":3984:4010   */\n      swap1\n      pop\n        /* \"#utility.yul\":4056:4065   */\n      dup2\n        /* \"#utility.yul\":4050:4054   */\n      dup2\n        /* \"#utility.yul\":4046:4066   */\n      sub\n        /* \"#utility.yul\":4042:4043   */\n      0x00\n        /* \"#utility.yul\":4031:4040   */\n      dup4\n        /* \"#utility.yul\":4027:4044   */\n      add\n        /* \"#utility.yul\":4020:4067   */\n      mstore\n        /* \"#utility.yul\":4084:4215   */\n      tag_147\n        /* \"#utility.yul\":4210:4214   */\n      dup2\n        /* \"#utility.yul\":4084:4215   */\n      tag_92\n      jump\t// in\n    tag_147:\n        /* \"#utility.yul\":4076:4215   */\n      swap1\n      pop\n        /* \"#utility.yul\":3803:4222   */\n      swap2\n      swap1\n      pop\n      jump\t// out\n        /* \"#utility.yul\":4228:4409   */\n    tag_93:\n        /* \"#utility.yul\":4368:4401   */\n      0x42656e6566696369617279206164647265737320697320696e76616c69642e00\n        /* \"#utility.yul\":4364:4365   */\n      0x00\n        /* \"#utility.yul\":4356:4362   */\n      dup3\n        /* \"#utility.yul\":4352:4366   */\n      add\n        /* \"#utility.yul\":4345:4402   */\n      mstore\n        /* \"#utility.yul\":4228:4409   */\n      pop\n      jump\t// out\n        /* \"#utility.yul\":4415:4781   */\n    tag_94:\n        /* \"#utility.yul\":4557:4560   */\n      0x00\n        /* \"#utility.yul\":4578:4645   */\n      tag_150\n        /* \"#utility.yul\":4642:4644   */\n      0x1f\n        /* \"#utility.yul\":4637:4640   */\n      dup4\n        /* \"#utility.yul\":4578:4645   */\n      tag_90\n      jump\t// in\n    tag_150:\n        /* \"#utility.yul\":4571:4645   */\n      swap2\n      pop\n        /* \"#utility.yul\":4654:4747   */\n      tag_151\n        /* \"#utility.yul\":4743:4746   */\n      dup3\n        /* \"#utility.yul\":4654:4747   */\n      tag_93\n      jump\t// in\n    tag_151:\n        /* \"#utility.yul\":4772:4774   */\n      0x20\n        /* \"#utility.yul\":4767:4770   */\n      dup3\n        /* \"#utility.yul\":4763:4775   */\n      add\n        /* \"#utility.yul\":4756:4775   */\n      swap1\n      pop\n        /* \"#utility.yul\":4415:4781   */\n      swap2\n      swap1\n      pop\n      jump\t// out\n        /* \"#utility.yul\":4787:5206   */\n    tag_42:\n        /* \"#utility.yul\":4953:4957   */\n      0x00\n        /* \"#utility.yul\":4991:4993   */\n      0x20\n        /* \"#utility.yul\":4980:4989   */\n      dup3\n        /* \"#utility.yul\":4976:4994   */\n      add\n        /* \"#utility.yul\":4968:4994   */\n      swap1\n      pop\n        /* \"#utility.yul\":5040:5049   */\n      dup2\n        /* \"#utility.yul\":5034:5038   */\n      dup2\n        /* \"#utility.yul\":5030:5050   */\n      sub\n        /* \"#utility.yul\":5026:5027   */\n      0x00\n        /* \"#utility.yul\":5015:5024   */\n      dup4\n        /* \"#utility.yul\":5011:5028   */\n      add\n        /* \"#utility.yul\":5004:5051   */\n      mstore\n        /* \"#utility.yul\":5068:5199   */\n      tag_153\n        /* \"#utility.yul\":5194:5198   */\n      dup2\n        /* \"#utility.yul\":5068:5199   */\n      tag_94\n      jump\t// in\n    tag_153:\n        /* \"#utility.yul\":5060:5199   */\n      swap1\n      pop\n        /* \"#utility.yul\":4787:5206   */\n      swap2\n      swap1\n      pop\n      jump\t// out\n        /* \"#utility.yul\":5212:5437   */\n    tag_95:\n        /* \"#utility.yul\":5352:5386   */\n      0x50726f76696465642061646472657373206973206e6f7420612062656e656669\n        /* \"#utility.yul\":5348:5349   */\n      0x00\n        /* \"#utility.yul\":5340:5346   */\n      dup3\n        /* \"#utility.yul\":5336:5350   */\n      add\n        /* \"#utility.yul\":5329:5387   */\n      mstore\n        /* \"#utility.yul\":5421:5429   */\n      0x63696172792e0000000000000000000000000000000000000000000000000000\n        /* \"#utility.yul\":5416:5418   */\n      0x20\n        /* \"#utility.yul\":5408:5414   */\n      dup3\n        /* \"#utility.yul\":5404:5419   */\n      add\n        /* \"#utility.yul\":5397:5430   */\n      mstore\n        /* \"#utility.yul\":5212:5437   */\n      pop\n      jump\t// out\n        /* \"#utility.yul\":5443:5809   */\n    tag_96:\n        /* \"#utility.yul\":5585:5588   */\n      0x00\n        /* \"#utility.yul\":5606:5673   */\n      tag_156\n        /* \"#utility.yul\":5670:5672   */\n      0x26\n        /* \"#utility.yul\":5665:5668   */\n      dup4\n        /* \"#utility.yul\":5606:5673   */\n      tag_90\n      jump\t// in\n    tag_156:\n        /* \"#utility.yul\":5599:5673   */\n      swap2\n      pop\n        /* \"#utility.yul\":5682:5775   */\n      tag_157\n        /* \"#utility.yul\":5771:5774   */\n      dup3\n        /* \"#utility.yul\":5682:5775   */\n      tag_95\n      jump\t// in\n    tag_157:\n        /* \"#utility.yul\":5800:5802   */\n      0x40\n        /* \"#utility.yul\":5795:5798   */\n      dup3\n        /* \"#utility.yul\":5791:5803   */\n      add\n        /* \"#utility.yul\":5784:5803   */\n      swap1\n      pop\n        /* \"#utility.yul\":5443:5809   */\n      swap2\n      swap1\n      pop\n      jump\t// out\n        /* \"#utility.yul\":5815:6234   */\n    tag_51:\n        /* \"#utility.yul\":5981:5985   */\n      0x00\n        /* \"#utility.yul\":6019:6021   */\n      0x20\n        /* \"#utility.yul\":6008:6017   */\n      dup3\n        /* \"#utility.yul\":6004:6022   */\n      add\n        /* \"#utility.yul\":5996:6022   */\n      swap1\n      pop\n        /* \"#utility.yul\":6068:6077   */\n      dup2\n        /* \"#utility.yul\":6062:6066   */\n      dup2\n        /* \"#utility.yul\":6058:6078   */\n      sub\n        /* \"#utility.yul\":6054:6055   */\n      0x00\n        /* \"#utility.yul\":6043:6052   */\n      dup4\n        /* \"#utility.yul\":6039:6056   */\n      add\n        /* \"#utility.yul\":6032:6079   */\n      mstore\n        /* \"#utility.yul\":6096:6227   */\n      tag_159\n        /* \"#utility.yul\":6222:6226   */\n      dup2\n        /* \"#utility.yul\":6096:6227   */\n      tag_96\n      jump\t// in\n    tag_159:\n        /* \"#utility.yul\":6088:6227   */\n      swap1\n      pop\n        /* \"#utility.yul\":5815:6234   */\n      swap2\n      swap1\n      pop\n      jump\t// out\n        /* \"#utility.yul\":6240:6420   */\n    tag_97:\n        /* \"#utility.yul\":6380:6412   */\n      0x416d6f756e74206d7573742062652067726561746572207468616e20302e0000\n        /* \"#utility.yul\":6376:6377   */\n      0x00\n        /* \"#utility.yul\":6368:6374   */\n      dup3\n        /* \"#utility.yul\":6364:6378   */\n      add\n        /* \"#utility.yul\":6357:6413   */\n      mstore\n        /* \"#utility.yul\":6240:6420   */\n      pop\n      jump\t// out\n        /* \"#utility.yul\":6426:6792   */\n    tag_98:\n        /* \"#utility.yul\":6568:6571   */\n      0x00\n        /* \"#utility.yul\":6589:6656   */\n      tag_162\n        /* \"#utility.yul\":6653:6655   */\n      0x1e\n        /* \"#utility.yul\":6648:6651   */\n      dup4\n        /* \"#utility.yul\":6589:6656   */\n      tag_90\n      jump\t// in\n    tag_162:\n        /* \"#utility.yul\":6582:6656   */\n      swap2\n      pop\n        /* \"#utility.yul\":6665:6758   */\n      tag_163\n        /* \"#utility.yul\":6754:6757   */\n      dup3\n        /* \"#utility.yul\":6665:6758   */\n      tag_97\n      jump\t// in\n    tag_163:\n        /* \"#utility.yul\":6783:6785   */\n      0x20\n        /* \"#utility.yul\":6778:6781   */\n      dup3\n        /* \"#utility.yul\":6774:6786   */\n      add\n        /* \"#utility.yul\":6767:6786   */\n      swap1\n      pop\n        /* \"#utility.yul\":6426:6792   */\n      swap2\n      swap1\n      pop\n      jump\t// out\n        /* \"#utility.yul\":6798:7217   */\n    tag_55:\n        /* \"#utility.yul\":6964:6968   */\n      0x00\n        /* \"#utility.yul\":7002:7004   */\n      0x20\n        /* \"#utility.yul\":6991:7000   */\n      dup3\n        /* \"#utility.yul\":6987:7005   */\n      add\n        /* \"#utility.yul\":6979:7005   */\n      swap1\n      pop\n        /* \"#utility.yul\":7051:7060   */\n      dup2\n        /* \"#utility.yul\":7045:7049   */\n      dup2\n        /* \"#utility.yul\":7041:7061   */\n      sub\n        /* \"#utility.yul\":7037:7038   */\n      0x00\n        /* \"#utility.yul\":7026:7035   */\n      dup4\n        /* \"#utility.yul\":7022:7039   */\n      add\n        /* \"#utility.yul\":7015:7062   */\n      mstore\n        /* \"#utility.yul\":7079:7210   */\n      tag_165\n        /* \"#utility.yul\":7205:7209   */\n      dup2\n        /* \"#utility.yul\":7079:7210   */\n      tag_98\n      jump\t// in\n    tag_165:\n        /* \"#utility.yul\":7071:7210   */\n      swap1\n      pop\n        /* \"#utility.yul\":6798:7217   */\n      swap2\n      swap1\n      pop\n      jump\t// out\n        /* \"#utility.yul\":7223:7403   */\n    tag_99:\n        /* \"#utility.yul\":7271:7348   */\n      0x4e487b7100000000000000000000000000000000000000000000000000000000\n        /* \"#utility.yul\":7268:7269   */\n      0x00\n        /* \"#utility.yul\":7261:7349   */\n      mstore\n        /* \"#utility.yul\":7368:7372   */\n      0x11\n        /* \"#utility.yul\":7365:7366   */\n      0x04\n        /* \"#utility.yul\":7358:7373   */\n      mstore\n        /* \"#utility.yul\":7392:7396   */\n      0x24\n        /* \"#utility.yul\":7389:7390   */\n      0x00\n        /* \"#utility.yul\":7382:7397   */\n      revert\n        /* \"#utility.yul\":7409:7600   */\n    tag_57:\n        /* \"#utility.yul\":7449:7452   */\n      0x00\n        /* \"#utility.yul\":7468:7488   */\n      tag_168\n        /* \"#utility.yul\":7486:7487   */\n      dup3\n        /* \"#utility.yul\":7468:7488   */\n      tag_83\n      jump\t// in\n    tag_168:\n        /* \"#utility.yul\":7463:7488   */\n      swap2\n      pop\n        /* \"#utility.yul\":7502:7522   */\n      tag_169\n        /* \"#utility.yul\":7520:7521   */\n      dup4\n        /* \"#utility.yul\":7502:7522   */\n      tag_83\n      jump\t// in\n    tag_169:\n        /* \"#utility.yul\":7497:7522   */\n      swap3\n      pop\n        /* \"#utility.yul\":7545:7546   */\n      dup3\n        /* \"#utility.yul\":7542:7543   */\n      dup3\n        /* \"#utility.yul\":7538:7547   */\n      add\n        /* \"#utility.yul\":7531:7547   */\n      swap1\n      pop\n        /* \"#utility.yul\":7566:7569   */\n      dup1\n        /* \"#utility.yul\":7563:7564   */\n      dup3\n        /* \"#utility.yul\":7560:7570   */\n      gt\n        /* \"#utility.yul\":7557:7593   */\n      iszero\n      tag_170\n      jumpi\n        /* \"#utility.yul\":7573:7591   */\n      tag_171\n      tag_99\n      jump\t// in\n    tag_171:\n        /* \"#utility.yul\":7557:7593   */\n    tag_170:\n        /* \"#utility.yul\":7409:7600   */\n      swap3\n      swap2\n      pop\n      pop\n      jump\t// out\n        /* \"#utility.yul\":7606:7828   */\n    tag_59:\n        /* \"#utility.yul\":7699:7703   */\n      0x00\n        /* \"#utility.yul\":7737:7739   */\n      0x20\n        /* \"#utility.yul\":7726:7735   */\n      dup3\n        /* \"#utility.yul\":7722:7740   */\n      add\n        /* \"#utility.yul\":7714:7740   */\n      swap1\n      pop\n        /* \"#utility.yul\":7750:7821   */\n      tag_173\n        /* \"#utility.yul\":7818:7819   */\n      0x00\n        /* \"#utility.yul\":7807:7816   */\n      dup4\n        /* \"#utility.yul\":7803:7820   */\n      add\n        /* \"#utility.yul\":7794:7800   */\n      dup5\n        /* \"#utility.yul\":7750:7821   */\n      tag_84\n      jump\t// in\n    tag_173:\n        /* \"#utility.yul\":7606:7828   */\n      swap3\n      swap2\n      pop\n      pop\n      jump\t// out\n        /* \"#utility.yul\":7834:8003   */\n    tag_100:\n        /* \"#utility.yul\":7974:7995   */\n      0x496e73756666696369656e742066756e64732e00000000000000000000000000\n        /* \"#utility.yul\":7970:7971   */\n      0x00\n        /* \"#utility.yul\":7962:7968   */\n      dup3\n        /* \"#utility.yul\":7958:7972   */\n      add\n        /* \"#utility.yul\":7951:7996   */\n      mstore\n        /* \"#utility.yul\":7834:8003   */\n      pop\n      jump\t// out\n        /* \"#utility.yul\":8009:8375   */\n    tag_101:\n        /* \"#utility.yul\":8151:8154   */\n      0x00\n        /* \"#utility.yul\":8172:8239   */\n      tag_176\n        /* \"#utility.yul\":8236:8238   */\n      0x13\n        /* \"#utility.yul\":8231:8234   */\n      dup4\n        /* \"#utility.yul\":8172:8239   */\n      tag_90\n      jump\t// in\n    tag_176:\n        /* \"#utility.yul\":8165:8239   */\n      swap2\n      pop\n        /* \"#utility.yul\":8248:8341   */\n      tag_177\n        /* \"#utility.yul\":8337:8340   */\n      dup3\n        /* \"#utility.yul\":8248:8341   */\n      tag_100\n      jump\t// in\n    tag_177:\n        /* \"#utility.yul\":8366:8368   */\n      0x20\n        /* \"#utility.yul\":8361:8364   */\n      dup3\n        /* \"#utility.yul\":8357:8369   */\n      add\n        /* \"#utility.yul\":8350:8369   */\n      swap1\n      pop\n        /* \"#utility.yul\":8009:8375   */\n      swap2\n      swap1\n      pop\n      jump\t// out\n        /* \"#utility.yul\":8381:8800   */\n    tag_71:\n        /* \"#utility.yul\":8547:8551   */\n      0x00\n        /* \"#utility.yul\":8585:8587   */\n      0x20\n        /* \"#utility.yul\":8574:8583   */\n      dup3\n        /* \"#utility.yul\":8570:8588   */\n      add\n        /* \"#utility.yul\":8562:8588   */\n      swap1\n      pop\n        /* \"#utility.yul\":8634:8643   */\n      dup2\n        /* \"#utility.yul\":8628:8632   */\n      dup2\n        /* \"#utility.yul\":8624:8644   */\n      sub\n        /* \"#utility.yul\":8620:8621   */\n      0x00\n        /* \"#utility.yul\":8609:8618   */\n      dup4\n        /* \"#utility.yul\":8605:8622   */\n      add\n        /* \"#utility.yul\":8598:8645   */\n      mstore\n        /* \"#utility.yul\":8662:8793   */\n      tag_179\n        /* \"#utility.yul\":8788:8792   */\n      dup2\n        /* \"#utility.yul\":8662:8793   */\n      tag_101\n      jump\t// in\n    tag_179:\n        /* \"#utility.yul\":8654:8793   */\n      swap1\n      pop\n        /* \"#utility.yul\":8381:8800   */\n      swap2\n      swap1\n      pop\n      jump\t// out\n        /* \"#utility.yul\":8806:9000   */\n    tag_73:\n        /* \"#utility.yul\":8846:8850   */\n      0x00\n        /* \"#utility.yul\":8866:8886   */\n      tag_181\n        /* \"#utility.yul\":8884:8885   */\n      dup3\n        /* \"#utility.yul\":8866:8886   */\n      tag_83\n      jump\t// in\n    tag_181:\n        /* \"#utility.yul\":8861:8886   */\n      swap2\n      pop\n        /* \"#utility.yul\":8900:8920   */\n      tag_182\n        /* \"#utility.yul\":8918:8919   */\n      dup4\n        /* \"#utility.yul\":8900:8920   */\n      tag_83\n      jump\t// in\n    tag_182:\n        /* \"#utility.yul\":8895:8920   */\n      swap3\n      pop\n        /* \"#utility.yul\":8944:8945   */\n      dup3\n        /* \"#utility.yul\":8941:8942   */\n      dup3\n        /* \"#utility.yul\":8937:8946   */\n      sub\n        /* \"#utility.yul\":8929:8946   */\n      swap1\n      pop\n        /* \"#utility.yul\":8968:8969   */\n      dup2\n        /* \"#utility.yul\":8962:8966   */\n      dup2\n        /* \"#utility.yul\":8959:8970   */\n      gt\n        /* \"#utility.yul\":8956:8993   */\n      iszero\n      tag_183\n      jumpi\n        /* \"#utility.yul\":8973:8991   */\n      tag_184\n      tag_99\n      jump\t// in\n    tag_184:\n        /* \"#utility.yul\":8956:8993   */\n    tag_183:\n        /* \"#utility.yul\":8806:9000   */\n      swap3\n      swap2\n      pop\n      pop\n      jump\t// out\n\n    auxdata: 0xa264697066735822122039c46650dd471a82762801fd90d5e6da2d34757fe58982e15d9e694790b4a27464736f6c63430008160033\n}\n",
				"bytecode": {
					"linkReferences": {},
					"object": "608060405234801561000f575f80fd5b50335f806101000a81548173ffffffffffffffffffffffffffffffffffffffff021916908373ffffffffffffffffffffffffffffffffffffffff160217905550610e5c8061005c5f395ff3fe608060405260043610610054575f3560e01c806301567739146100585780635926651d1461009557806359633a1c146100bd5780637bfccb88146100e55780638da5cb5b146100ef5780639abf7d3714610119575b5f80fd5b348015610063575f80fd5b5061007e60048036038101906100799190610a02565b610141565b60405161008c929190610a5f565b60405180910390f35b3480156100a0575f80fd5b506100bb60048036038101906100b69190610a02565b61016d565b005b3480156100c8575f80fd5b506100e360048036038101906100de9190610a02565b610305565b005b6100ed610529565b005b3480156100fa575f80fd5b50610103610631565b6040516101109190610a95565b60405180910390f35b348015610124575f80fd5b5061013f600480360381019061013a9190610ad8565b610654565b005b6001602052805f5260405f205f91509050805f015490806001015f9054906101000a900460ff16905082565b5f8054906101000a900473ffffffffffffffffffffffffffffffffffffffff1673ffffffffffffffffffffffffffffffffffffffff163373ffffffffffffffffffffffffffffffffffffffff16146101fa576040517f08c379a00000000000000000000000000000000000000000000000000000000081526004016101f190610b96565b60405180910390fd5b5f73ffffffffffffffffffffffffffffffffffffffff168173ffffffffffffffffffffffffffffffffffffffff1603610268576040517f08c379a000000000000000000000000000000000000000000000000000000000815260040161025f90610bfe565b60405180910390fd5b6001805f8373ffffffffffffffffffffffffffffffffffffffff1673ffffffffffffffffffffffffffffffffffffffff1681526020019081526020015f206001015f6101000a81548160ff0219169083151502179055508073ffffffffffffffffffffffffffffffffffffffff167fc3e089fc6227e049d0e41c3d7a383d57efe69c1955c5752f7e5a9b5f1f11302060405160405180910390a250565b5f8054906101000a900473ffffffffffffffffffffffffffffffffffffffff1673ffffffffffffffffffffffffffffffffffffffff163373ffffffffffffffffffffffffffffffffffffffff1614610392576040517f08c379a000000000000000000000000000000000000000000000000000000000815260040161038990610b96565b60405180910390fd5b5f73ffffffffffffffffffffffffffffffffffffffff168173ffffffffffffffffffffffffffffffffffffffff1603610400576040517f08c379a00000000000000000000000000000000000000000000000000000000081526004016103f790610bfe565b60405180910390fd5b60015f8273ffffffffffffffffffffffffffffffffffffffff1673ffffffffffffffffffffffffffffffffffffffff1681526020019081526020015f206001015f9054906101000a900460ff1661048c576040517f08c379a000000000000000000000000000000000000000000000000000000000815260040161048390610c8c565b60405180910390fd5b5f60015f8373ffffffffffffffffffffffffffffffffffffffff1673ffffffffffffffffffffffffffffffffffffffff1681526020019081526020015f206001015f6101000a81548160ff0219169083151502179055508073ffffffffffffffffffffffffffffffffffffffff167f72977dad29432f655f11c2f0e72ef5124bb9ade7a512fb7a43a9f504df22342860405160405180910390a250565b5f341161056b576040517f08c379a000000000000000000000000000000000000000000000000000000000815260040161056290610cf4565b60405180910390fd5b5f60015f3373ffffffffffffffffffffffffffffffffffffffff1673ffffffffffffffffffffffffffffffffffffffff1681526020019081526020015f20905034815f015f8282546105bd9190610d3f565b925050819055506001816001015f6101000a81548160ff0219169083151502179055503373ffffffffffffffffffffffffffffffffffffffff167fd34407217bc1188b69edcf88532167050a4ee9fb14ed2eecd50166fb0cb19b64346040516106269190610d72565b60405180910390a250565b5f8054906101000a900473ffffffffffffffffffffffffffffffffffffffff1681565b5f8054906101000a900473ffffffffffffffffffffffffffffffffffffffff1673ffffffffffffffffffffffffffffffffffffffff163373ffffffffffffffffffffffffffffffffffffffff16146106e1576040517f08c379a00000000000000000000000000000000000000000000000000000000081526004016106d890610b96565b60405180910390fd5b5f73ffffffffffffffffffffffffffffffffffffffff168273ffffffffffffffffffffffffffffffffffffffff160361074f576040517f08c379a000000000000000000000000000000000000000000000000000000000815260040161074690610bfe565b60405180910390fd5b60015f8373ffffffffffffffffffffffffffffffffffffffff1673ffffffffffffffffffffffffffffffffffffffff1681526020019081526020015f206001015f9054906101000a900460ff166107db576040517f08c379a00000000000000000000000000000000000000000000000000000000081526004016107d290610c8c565b60405180910390fd5b5f81118015610849575060015f805f9054906101000a900473ffffffffffffffffffffffffffffffffffffffff1673ffffffffffffffffffffffffffffffffffffffff1673ffffffffffffffffffffffffffffffffffffffff1681526020019081526020015f205f01548111155b610888576040517f08c379a000000000000000000000000000000000000000000000000000000000815260040161087f90610dd5565b60405180910390fd5b8060015f805f9054906101000a900473ffffffffffffffffffffffffffffffffffffffff1673ffffffffffffffffffffffffffffffffffffffff1673ffffffffffffffffffffffffffffffffffffffff1681526020019081526020015f205f015f8282546108f69190610df3565b925050819055508060015f8473ffffffffffffffffffffffffffffffffffffffff1673ffffffffffffffffffffffffffffffffffffffff1681526020019081526020015f205f015f82825461094b9190610d3f565b925050819055508173ffffffffffffffffffffffffffffffffffffffff167f2a3fc9f6ac009bb0b1a42d00609a0e83a548aa248a6f2a03f5b2af26cae17d9e826040516109989190610d72565b60405180910390a25050565b5f80fd5b5f73ffffffffffffffffffffffffffffffffffffffff82169050919050565b5f6109d1826109a8565b9050919050565b6109e1816109c7565b81146109eb575f80fd5b50565b5f813590506109fc816109d8565b92915050565b5f60208284031215610a1757610a166109a4565b5b5f610a24848285016109ee565b91505092915050565b5f819050919050565b610a3f81610a2d565b82525050565b5f8115159050919050565b610a5981610a45565b82525050565b5f604082019050610a725f830185610a36565b610a7f6020830184610a50565b9392505050565b610a8f816109c7565b82525050565b5f602082019050610aa85f830184610a86565b92915050565b610ab781610a2d565b8114610ac1575f80fd5b50565b5f81359050610ad281610aae565b92915050565b5f8060408385031215610aee57610aed6109a4565b5b5f610afb858286016109ee565b9250506020610b0c85828601610ac4565b9150509250929050565b5f82825260208201905092915050565b7f4f6e6c7920746865206f776e65722063616e2063616c6c20746869732066756e5f8201527f6374696f6e2e0000000000000000000000000000000000000000000000000000602082015250565b5f610b80602683610b16565b9150610b8b82610b26565b604082019050919050565b5f6020820190508181035f830152610bad81610b74565b9050919050565b7f42656e6566696369617279206164647265737320697320696e76616c69642e005f82015250565b5f610be8601f83610b16565b9150610bf382610bb4565b602082019050919050565b5f6020820190508181035f830152610c1581610bdc565b9050919050565b7f50726f76696465642061646472657373206973206e6f7420612062656e6566695f8201527f63696172792e0000000000000000000000000000000000000000000000000000602082015250565b5f610c76602683610b16565b9150610c8182610c1c565b604082019050919050565b5f6020820190508181035f830152610ca381610c6a565b9050919050565b7f416d6f756e74206d7573742062652067726561746572207468616e20302e00005f82015250565b5f610cde601e83610b16565b9150610ce982610caa565b602082019050919050565b5f6020820190508181035f830152610d0b81610cd2565b9050919050565b7f4e487b71000000000000000000000000000000000000000000000000000000005f52601160045260245ffd5b5f610d4982610a2d565b9150610d5483610a2d565b9250828201905080821115610d6c57610d6b610d12565b5b92915050565b5f602082019050610d855f830184610a36565b92915050565b7f496e73756666696369656e742066756e64732e000000000000000000000000005f82015250565b5f610dbf601383610b16565b9150610dca82610d8b565b602082019050919050565b5f6020820190508181035f830152610dec81610db3565b9050919050565b5f610dfd82610a2d565b9150610e0883610a2d565b9250828203905081811115610e2057610e1f610d12565b5b9291505056fea264697066735822122039c46650dd471a82762801fd90d5e6da2d34757fe58982e15d9e694790b4a27464736f6c63430008160033",
					"opcodes": "PUSH1 0x80 PUSH1 0x40 MSTORE CALLVALUE DUP1 ISZERO PUSH2 0xF JUMPI PUSH0 DUP1 REVERT JUMPDEST POP CALLER PUSH0 DUP1 PUSH2 0x100 EXP DUP2 SLOAD DUP2 PUSH20 0xFFFFFFFFFFFFFFFFFFFFFFFFFFFFFFFFFFFFFFFF MUL NOT AND SWAP1 DUP4 PUSH20 0xFFFFFFFFFFFFFFFFFFFFFFFFFFFFFFFFFFFFFFFF AND MUL OR SWAP1 SSTORE POP PUSH2 0xE5C DUP1 PUSH2 0x5C PUSH0 CODECOPY PUSH0 RETURN INVALID PUSH1 0x80 PUSH1 0x40 MSTORE PUSH1 0x4 CALLDATASIZE LT PUSH2 0x54 JUMPI PUSH0 CALLDATALOAD PUSH1 0xE0 SHR DUP1 PUSH4 0x1567739 EQ PUSH2 0x58 JUMPI DUP1 PUSH4 0x5926651D EQ PUSH2 0x95 JUMPI DUP1 PUSH4 0x59633A1C EQ PUSH2 0xBD JUMPI DUP1 PUSH4 0x7BFCCB88 EQ PUSH2 0xE5 JUMPI DUP1 PUSH4 0x8DA5CB5B EQ PUSH2 0xEF JUMPI DUP1 PUSH4 0x9ABF7D37 EQ PUSH2 0x119 JUMPI JUMPDEST PUSH0 DUP1 REVERT JUMPDEST CALLVALUE DUP1 ISZERO PUSH2 0x63 JUMPI PUSH0 DUP1 REVERT JUMPDEST POP PUSH2 0x7E PUSH1 0x4 DUP1 CALLDATASIZE SUB DUP2 ADD SWAP1 PUSH2 0x79 SWAP2 SWAP1 PUSH2 0xA02 JUMP JUMPDEST PUSH2 0x141 JUMP JUMPDEST PUSH1 0x40 MLOAD PUSH2 0x8C SWAP3 SWAP2 SWAP1 PUSH2 0xA5F JUMP JUMPDEST PUSH1 0x40 MLOAD DUP1 SWAP2 SUB SWAP1 RETURN JUMPDEST CALLVALUE DUP1 ISZERO PUSH2 0xA0 JUMPI PUSH0 DUP1 REVERT JUMPDEST POP PUSH2 0xBB PUSH1 0x4 DUP1 CALLDATASIZE SUB DUP2 ADD SWAP1 PUSH2 0xB6 SWAP2 SWAP1 PUSH2 0xA02 JUMP JUMPDEST PUSH2 0x16D JUMP JUMPDEST STOP JUMPDEST CALLVALUE DUP1 ISZERO PUSH2 0xC8 JUMPI PUSH0 DUP1 REVERT JUMPDEST POP PUSH2 0xE3 PUSH1 0x4 DUP1 CALLDATASIZE SUB DUP2 ADD SWAP1 PUSH2 0xDE SWAP2 SWAP1 PUSH2 0xA02 JUMP JUMPDEST PUSH2 0x305 JUMP JUMPDEST STOP JUMPDEST PUSH2 0xED PUSH2 0x529 JUMP JUMPDEST STOP JUMPDEST CALLVALUE DUP1 ISZERO PUSH2 0xFA JUMPI PUSH0 DUP1 REVERT JUMPDEST POP PUSH2 0x103 PUSH2 0x631 JUMP JUMPDEST PUSH1 0x40 MLOAD PUSH2 0x110 SWAP2 SWAP1 PUSH2 0xA95 JUMP JUMPDEST PUSH1 0x40 MLOAD DUP1 SWAP2 SUB SWAP1 RETURN JUMPDEST CALLVALUE DUP1 ISZERO PUSH2 0x124 JUMPI PUSH0 DUP1 REVERT JUMPDEST POP PUSH2 0x13F PUSH1 0x4 DUP1 CALLDATASIZE SUB DUP2 ADD SWAP1 PUSH2 0x13A SWAP2 SWAP1 PUSH2 0xAD8 JUMP JUMPDEST PUSH2 0x654 JUMP JUMPDEST STOP JUMPDEST PUSH1 0x1 PUSH1 0x20 MSTORE DUP1 PUSH0 MSTORE PUSH1 0x40 PUSH0 KECCAK256 PUSH0 SWAP2 POP SWAP1 POP DUP1 PUSH0 ADD SLOAD SWAP1 DUP1 PUSH1 0x1 ADD PUSH0 SWAP1 SLOAD SWAP1 PUSH2 0x100 EXP SWAP1 DIV PUSH1 0xFF AND SWAP1 POP DUP3 JUMP JUMPDEST PUSH0 DUP1 SLOAD SWAP1 PUSH2 0x100 EXP SWAP1 DIV PUSH20 0xFFFFFFFFFFFFFFFFFFFFFFFFFFFFFFFFFFFFFFFF AND PUSH20 0xFFFFFFFFFFFFFFFFFFFFFFFFFFFFFFFFFFFFFFFF AND CALLER PUSH20 0xFFFFFFFFFFFFFFFFFFFFFFFFFFFFFFFFFFFFFFFF AND EQ PUSH2 0x1FA JUMPI PUSH1 0x40 MLOAD PUSH32 0x8C379A000000000000000000000000000000000000000000000000000000000 DUP2 MSTORE PUSH1 0x4 ADD PUSH2 0x1F1 SWAP1 PUSH2 0xB96 JUMP JUMPDEST PUSH1 0x40 MLOAD DUP1 SWAP2 SUB SWAP1 REVERT JUMPDEST PUSH0 PUSH20 0xFFFFFFFFFFFFFFFFFFFFFFFFFFFFFFFFFFFFFFFF AND DUP2 PUSH20 0xFFFFFFFFFFFFFFFFFFFFFFFFFFFFFFFFFFFFFFFF AND SUB PUSH2 0x268 JUMPI PUSH1 0x40 MLOAD PUSH32 0x8C379A000000000000000000000000000000000000000000000000000000000 DUP2 MSTORE PUSH1 0x4 ADD PUSH2 0x25F SWAP1 PUSH2 0xBFE JUMP JUMPDEST PUSH1 0x40 MLOAD DUP1 SWAP2 SUB SWAP1 REVERT JUMPDEST PUSH1 0x1 DUP1 PUSH0 DUP4 PUSH20 0xFFFFFFFFFFFFFFFFFFFFFFFFFFFFFFFFFFFFFFFF AND PUSH20 0xFFFFFFFFFFFFFFFFFFFFFFFFFFFFFFFFFFFFFFFF AND DUP2 MSTORE PUSH1 0x20 ADD SWAP1 DUP2 MSTORE PUSH1 0x20 ADD PUSH0 KECCAK256 PUSH1 0x1 ADD PUSH0 PUSH2 0x100 EXP DUP2 SLOAD DUP2 PUSH1 0xFF MUL NOT AND SWAP1 DUP4 ISZERO ISZERO MUL OR SWAP1 SSTORE POP DUP1 PUSH20 0xFFFFFFFFFFFFFFFFFFFFFFFFFFFFFFFFFFFFFFFF AND PUSH32 0xC3E089FC6227E049D0E41C3D7A383D57EFE69C1955C5752F7E5A9B5F1F113020 PUSH1 0x40 MLOAD PUSH1 0x40 MLOAD DUP1 SWAP2 SUB SWAP1 LOG2 POP JUMP JUMPDEST PUSH0 DUP1 SLOAD SWAP1 PUSH2 0x100 EXP SWAP1 DIV PUSH20 0xFFFFFFFFFFFFFFFFFFFFFFFFFFFFFFFFFFFFFFFF AND PUSH20 0xFFFFFFFFFFFFFFFFFFFFFFFFFFFFFFFFFFFFFFFF AND CALLER PUSH20 0xFFFFFFFFFFFFFFFFFFFFFFFFFFFFFFFFFFFFFFFF AND EQ PUSH2 0x392 JUMPI PUSH1 0x40 MLOAD PUSH32 0x8C379A000000000000000000000000000000000000000000000000000000000 DUP2 MSTORE PUSH1 0x4 ADD PUSH2 0x389 SWAP1 PUSH2 0xB96 JUMP JUMPDEST PUSH1 0x40 MLOAD DUP1 SWAP2 SUB SWAP1 REVERT JUMPDEST PUSH0 PUSH20 0xFFFFFFFFFFFFFFFFFFFFFFFFFFFFFFFFFFFFFFFF AND DUP2 PUSH20 0xFFFFFFFFFFFFFFFFFFFFFFFFFFFFFFFFFFFFFFFF AND SUB PUSH2 0x400 JUMPI PUSH1 0x40 MLOAD PUSH32 0x8C379A000000000000000000000000000000000000000000000000000000000 DUP2 MSTORE PUSH1 0x4 ADD PUSH2 0x3F7 SWAP1 PUSH2 0xBFE JUMP JUMPDEST PUSH1 0x40 MLOAD DUP1 SWAP2 SUB SWAP1 REVERT JUMPDEST PUSH1 0x1 PUSH0 DUP3 PUSH20 0xFFFFFFFFFFFFFFFFFFFFFFFFFFFFFFFFFFFFFFFF AND PUSH20 0xFFFFFFFFFFFFFFFFFFFFFFFFFFFFFFFFFFFFFFFF AND DUP2 MSTORE PUSH1 0x20 ADD SWAP1 DUP2 MSTORE PUSH1 0x20 ADD PUSH0 KECCAK256 PUSH1 0x1 ADD PUSH0 SWAP1 SLOAD SWAP1 PUSH2 0x100 EXP SWAP1 DIV PUSH1 0xFF AND PUSH2 0x48C JUMPI PUSH1 0x40 MLOAD PUSH32 0x8C379A000000000000000000000000000000000000000000000000000000000 DUP2 MSTORE PUSH1 0x4 ADD PUSH2 0x483 SWAP1 PUSH2 0xC8C JUMP JUMPDEST PUSH1 0x40 MLOAD DUP1 SWAP2 SUB SWAP1 REVERT JUMPDEST PUSH0 PUSH1 0x1 PUSH0 DUP4 PUSH20 0xFFFFFFFFFFFFFFFFFFFFFFFFFFFFFFFFFFFFFFFF AND PUSH20 0xFFFFFFFFFFFFFFFFFFFFFFFFFFFFFFFFFFFFFFFF AND DUP2 MSTORE PUSH1 0x20 ADD SWAP1 DUP2 MSTORE PUSH1 0x20 ADD PUSH0 KECCAK256 PUSH1 0x1 ADD PUSH0 PUSH2 0x100 EXP DUP2 SLOAD DUP2 PUSH1 0xFF MUL NOT AND SWAP1 DUP4 ISZERO ISZERO MUL OR SWAP1 SSTORE POP DUP1 PUSH20 0xFFFFFFFFFFFFFFFFFFFFFFFFFFFFFFFFFFFFFFFF AND PUSH32 0x72977DAD29432F655F11C2F0E72EF5124BB9ADE7A512FB7A43A9F504DF223428 PUSH1 0x40 MLOAD PUSH1 0x40 MLOAD DUP1 SWAP2 SUB SWAP1 LOG2 POP JUMP JUMPDEST PUSH0 CALLVALUE GT PUSH2 0x56B JUMPI PUSH1 0x40 MLOAD PUSH32 0x8C379A000000000000000000000000000000000000000000000000000000000 DUP2 MSTORE PUSH1 0x4 ADD PUSH2 0x562 SWAP1 PUSH2 0xCF4 JUMP JUMPDEST PUSH1 0x40 MLOAD DUP1 SWAP2 SUB SWAP1 REVERT JUMPDEST PUSH0 PUSH1 0x1 PUSH0 CALLER PUSH20 0xFFFFFFFFFFFFFFFFFFFFFFFFFFFFFFFFFFFFFFFF AND PUSH20 0xFFFFFFFFFFFFFFFFFFFFFFFFFFFFFFFFFFFFFFFF AND DUP2 MSTORE PUSH1 0x20 ADD SWAP1 DUP2 MSTORE PUSH1 0x20 ADD PUSH0 KECCAK256 SWAP1 POP CALLVALUE DUP2 PUSH0 ADD PUSH0 DUP3 DUP3 SLOAD PUSH2 0x5BD SWAP2 SWAP1 PUSH2 0xD3F JUMP JUMPDEST SWAP3 POP POP DUP2 SWAP1 SSTORE POP PUSH1 0x1 DUP2 PUSH1 0x1 ADD PUSH0 PUSH2 0x100 EXP DUP2 SLOAD DUP2 PUSH1 0xFF MUL NOT AND SWAP1 DUP4 ISZERO ISZERO MUL OR SWAP1 SSTORE POP CALLER PUSH20 0xFFFFFFFFFFFFFFFFFFFFFFFFFFFFFFFFFFFFFFFF AND PUSH32 0xD34407217BC1188B69EDCF88532167050A4EE9FB14ED2EECD50166FB0CB19B64 CALLVALUE PUSH1 0x40 MLOAD PUSH2 0x626 SWAP2 SWAP1 PUSH2 0xD72 JUMP JUMPDEST PUSH1 0x40 MLOAD DUP1 SWAP2 SUB SWAP1 LOG2 POP JUMP JUMPDEST PUSH0 DUP1 SLOAD SWAP1 PUSH2 0x100 EXP SWAP1 DIV PUSH20 0xFFFFFFFFFFFFFFFFFFFFFFFFFFFFFFFFFFFFFFFF AND DUP2 JUMP JUMPDEST PUSH0 DUP1 SLOAD SWAP1 PUSH2 0x100 EXP SWAP1 DIV PUSH20 0xFFFFFFFFFFFFFFFFFFFFFFFFFFFFFFFFFFFFFFFF AND PUSH20 0xFFFFFFFFFFFFFFFFFFFFFFFFFFFFFFFFFFFFFFFF AND CALLER PUSH20 0xFFFFFFFFFFFFFFFFFFFFFFFFFFFFFFFFFFFFFFFF AND EQ PUSH2 0x6E1 JUMPI PUSH1 0x40 MLOAD PUSH32 0x8C379A000000000000000000000000000000000000000000000000000000000 DUP2 MSTORE PUSH1 0x4 ADD PUSH2 0x6D8 SWAP1 PUSH2 0xB96 JUMP JUMPDEST PUSH1 0x40 MLOAD DUP1 SWAP2 SUB SWAP1 REVERT JUMPDEST PUSH0 PUSH20 0xFFFFFFFFFFFFFFFFFFFFFFFFFFFFFFFFFFFFFFFF AND DUP3 PUSH20 0xFFFFFFFFFFFFFFFFFFFFFFFFFFFFFFFFFFFFFFFF AND SUB PUSH2 0x74F JUMPI PUSH1 0x40 MLOAD PUSH32 0x8C379A000000000000000000000000000000000000000000000000000000000 DUP2 MSTORE PUSH1 0x4 ADD PUSH2 0x746 SWAP1 PUSH2 0xBFE JUMP JUMPDEST PUSH1 0x40 MLOAD DUP1 SWAP2 SUB SWAP1 REVERT JUMPDEST PUSH1 0x1 PUSH0 DUP4 PUSH20 0xFFFFFFFFFFFFFFFFFFFFFFFFFFFFFFFFFFFFFFFF AND PUSH20 0xFFFFFFFFFFFFFFFFFFFFFFFFFFFFFFFFFFFFFFFF AND DUP2 MSTORE PUSH1 0x20 ADD SWAP1 DUP2 MSTORE PUSH1 0x20 ADD PUSH0 KECCAK256 PUSH1 0x1 ADD PUSH0 SWAP1 SLOAD SWAP1 PUSH2 0x100 EXP SWAP1 DIV PUSH1 0xFF AND PUSH2 0x7DB JUMPI PUSH1 0x40 MLOAD PUSH32 0x8C379A000000000000000000000000000000000000000000000000000000000 DUP2 MSTORE PUSH1 0x4 ADD PUSH2 0x7D2 SWAP1 PUSH2 0xC8C JUMP JUMPDEST PUSH1 0x40 MLOAD DUP1 SWAP2 SUB SWAP1 REVERT JUMPDEST PUSH0 DUP2 GT DUP1 ISZERO PUSH2 0x849 JUMPI POP PUSH1 0x1 PUSH0 DUP1 PUSH0 SWAP1 SLOAD SWAP1 PUSH2 0x100 EXP SWAP1 DIV PUSH20 0xFFFFFFFFFFFFFFFFFFFFFFFFFFFFFFFFFFFFFFFF AND PUSH20 0xFFFFFFFFFFFFFFFFFFFFFFFFFFFFFFFFFFFFFFFF AND PUSH20 0xFFFFFFFFFFFFFFFFFFFFFFFFFFFFFFFFFFFFFFFF AND DUP2 MSTORE PUSH1 0x20 ADD SWAP1 DUP2 MSTORE PUSH1 0x20 ADD PUSH0 KECCAK256 PUSH0 ADD SLOAD DUP2 GT ISZERO JUMPDEST PUSH2 0x888 JUMPI PUSH1 0x40 MLOAD PUSH32 0x8C379A000000000000000000000000000000000000000000000000000000000 DUP2 MSTORE PUSH1 0x4 ADD PUSH2 0x87F SWAP1 PUSH2 0xDD5 JUMP JUMPDEST PUSH1 0x40 MLOAD DUP1 SWAP2 SUB SWAP1 REVERT JUMPDEST DUP1 PUSH1 0x1 PUSH0 DUP1 PUSH0 SWAP1 SLOAD SWAP1 PUSH2 0x100 EXP SWAP1 DIV PUSH20 0xFFFFFFFFFFFFFFFFFFFFFFFFFFFFFFFFFFFFFFFF AND PUSH20 0xFFFFFFFFFFFFFFFFFFFFFFFFFFFFFFFFFFFFFFFF AND PUSH20 0xFFFFFFFFFFFFFFFFFFFFFFFFFFFFFFFFFFFFFFFF AND DUP2 MSTORE PUSH1 0x20 ADD SWAP1 DUP2 MSTORE PUSH1 0x20 ADD PUSH0 KECCAK256 PUSH0 ADD PUSH0 DUP3 DUP3 SLOAD PUSH2 0x8F6 SWAP2 SWAP1 PUSH2 0xDF3 JUMP JUMPDEST SWAP3 POP POP DUP2 SWAP1 SSTORE POP DUP1 PUSH1 0x1 PUSH0 DUP5 PUSH20 0xFFFFFFFFFFFFFFFFFFFFFFFFFFFFFFFFFFFFFFFF AND PUSH20 0xFFFFFFFFFFFFFFFFFFFFFFFFFFFFFFFFFFFFFFFF AND DUP2 MSTORE PUSH1 0x20 ADD SWAP1 DUP2 MSTORE PUSH1 0x20 ADD PUSH0 KECCAK256 PUSH0 ADD PUSH0 DUP3 DUP3 SLOAD PUSH2 0x94B SWAP2 SWAP1 PUSH2 0xD3F JUMP JUMPDEST SWAP3 POP POP DUP2 SWAP1 SSTORE POP DUP2 PUSH20 0xFFFFFFFFFFFFFFFFFFFFFFFFFFFFFFFFFFFFFFFF AND PUSH32 0x2A3FC9F6AC009BB0B1A42D00609A0E83A548AA248A6F2A03F5B2AF26CAE17D9E DUP3 PUSH1 0x40 MLOAD PUSH2 0x998 SWAP2 SWAP1 PUSH2 0xD72 JUMP JUMPDEST PUSH1 0x40 MLOAD DUP1 SWAP2 SUB SWAP1 LOG2 POP POP JUMP JUMPDEST PUSH0 DUP1 REVERT JUMPDEST PUSH0 PUSH20 0xFFFFFFFFFFFFFFFFFFFFFFFFFFFFFFFFFFFFFFFF DUP3 AND SWAP1 POP SWAP2 SWAP1 POP JUMP JUMPDEST PUSH0 PUSH2 0x9D1 DUP3 PUSH2 0x9A8 JUMP JUMPDEST SWAP1 POP SWAP2 SWAP1 POP JUMP JUMPDEST PUSH2 0x9E1 DUP2 PUSH2 0x9C7 JUMP JUMPDEST DUP2 EQ PUSH2 0x9EB JUMPI PUSH0 DUP1 REVERT JUMPDEST POP JUMP JUMPDEST PUSH0 DUP2 CALLDATALOAD SWAP1 POP PUSH2 0x9FC DUP2 PUSH2 0x9D8 JUMP JUMPDEST SWAP3 SWAP2 POP POP JUMP JUMPDEST PUSH0 PUSH1 0x20 DUP3 DUP5 SUB SLT ISZERO PUSH2 0xA17 JUMPI PUSH2 0xA16 PUSH2 0x9A4 JUMP JUMPDEST JUMPDEST PUSH0 PUSH2 0xA24 DUP5 DUP3 DUP6 ADD PUSH2 0x9EE JUMP JUMPDEST SWAP2 POP POP SWAP3 SWAP2 POP POP JUMP JUMPDEST PUSH0 DUP2 SWAP1 POP SWAP2 SWAP1 POP JUMP JUMPDEST PUSH2 0xA3F DUP2 PUSH2 0xA2D JUMP JUMPDEST DUP3 MSTORE POP POP JUMP JUMPDEST PUSH0 DUP2 ISZERO ISZERO SWAP1 POP SWAP2 SWAP1 POP JUMP JUMPDEST PUSH2 0xA59 DUP2 PUSH2 0xA45 JUMP JUMPDEST DUP3 MSTORE POP POP JUMP JUMPDEST PUSH0 PUSH1 0x40 DUP3 ADD SWAP1 POP PUSH2 0xA72 PUSH0 DUP4 ADD DUP6 PUSH2 0xA36 JUMP JUMPDEST PUSH2 0xA7F PUSH1 0x20 DUP4 ADD DUP5 PUSH2 0xA50 JUMP JUMPDEST SWAP4 SWAP3 POP POP POP JUMP JUMPDEST PUSH2 0xA8F DUP2 PUSH2 0x9C7 JUMP JUMPDEST DUP3 MSTORE POP POP JUMP JUMPDEST PUSH0 PUSH1 0x20 DUP3 ADD SWAP1 POP PUSH2 0xAA8 PUSH0 DUP4 ADD DUP5 PUSH2 0xA86 JUMP JUMPDEST SWAP3 SWAP2 POP POP JUMP JUMPDEST PUSH2 0xAB7 DUP2 PUSH2 0xA2D JUMP JUMPDEST DUP2 EQ PUSH2 0xAC1 JUMPI PUSH0 DUP1 REVERT JUMPDEST POP JUMP JUMPDEST PUSH0 DUP2 CALLDATALOAD SWAP1 POP PUSH2 0xAD2 DUP2 PUSH2 0xAAE JUMP JUMPDEST SWAP3 SWAP2 POP POP JUMP JUMPDEST PUSH0 DUP1 PUSH1 0x40 DUP4 DUP6 SUB SLT ISZERO PUSH2 0xAEE JUMPI PUSH2 0xAED PUSH2 0x9A4 JUMP JUMPDEST JUMPDEST PUSH0 PUSH2 0xAFB DUP6 DUP3 DUP7 ADD PUSH2 0x9EE JUMP JUMPDEST SWAP3 POP POP PUSH1 0x20 PUSH2 0xB0C DUP6 DUP3 DUP7 ADD PUSH2 0xAC4 JUMP JUMPDEST SWAP2 POP POP SWAP3 POP SWAP3 SWAP1 POP JUMP JUMPDEST PUSH0 DUP3 DUP3 MSTORE PUSH1 0x20 DUP3 ADD SWAP1 POP SWAP3 SWAP2 POP POP JUMP JUMPDEST PUSH32 0x4F6E6C7920746865206F776E65722063616E2063616C6C20746869732066756E PUSH0 DUP3 ADD MSTORE PUSH32 0x6374696F6E2E0000000000000000000000000000000000000000000000000000 PUSH1 0x20 DUP3 ADD MSTORE POP JUMP JUMPDEST PUSH0 PUSH2 0xB80 PUSH1 0x26 DUP4 PUSH2 0xB16 JUMP JUMPDEST SWAP2 POP PUSH2 0xB8B DUP3 PUSH2 0xB26 JUMP JUMPDEST PUSH1 0x40 DUP3 ADD SWAP1 POP SWAP2 SWAP1 POP JUMP JUMPDEST PUSH0 PUSH1 0x20 DUP3 ADD SWAP1 POP DUP2 DUP2 SUB PUSH0 DUP4 ADD MSTORE PUSH2 0xBAD DUP2 PUSH2 0xB74 JUMP JUMPDEST SWAP1 POP SWAP2 SWAP1 POP JUMP JUMPDEST PUSH32 0x42656E6566696369617279206164647265737320697320696E76616C69642E00 PUSH0 DUP3 ADD MSTORE POP JUMP JUMPDEST PUSH0 PUSH2 0xBE8 PUSH1 0x1F DUP4 PUSH2 0xB16 JUMP JUMPDEST SWAP2 POP PUSH2 0xBF3 DUP3 PUSH2 0xBB4 JUMP JUMPDEST PUSH1 0x20 DUP3 ADD SWAP1 POP SWAP2 SWAP1 POP JUMP JUMPDEST PUSH0 PUSH1 0x20 DUP3 ADD SWAP1 POP DUP2 DUP2 SUB PUSH0 DUP4 ADD MSTORE PUSH2 0xC15 DUP2 PUSH2 0xBDC JUMP JUMPDEST SWAP1 POP SWAP2 SWAP1 POP JUMP JUMPDEST PUSH32 0x50726F76696465642061646472657373206973206E6F7420612062656E656669 PUSH0 DUP3 ADD MSTORE PUSH32 0x63696172792E0000000000000000000000000000000000000000000000000000 PUSH1 0x20 DUP3 ADD MSTORE POP JUMP JUMPDEST PUSH0 PUSH2 0xC76 PUSH1 0x26 DUP4 PUSH2 0xB16 JUMP JUMPDEST SWAP2 POP PUSH2 0xC81 DUP3 PUSH2 0xC1C JUMP JUMPDEST PUSH1 0x40 DUP3 ADD SWAP1 POP SWAP2 SWAP1 POP JUMP JUMPDEST PUSH0 PUSH1 0x20 DUP3 ADD SWAP1 POP DUP2 DUP2 SUB PUSH0 DUP4 ADD MSTORE PUSH2 0xCA3 DUP2 PUSH2 0xC6A JUMP JUMPDEST SWAP1 POP SWAP2 SWAP1 POP JUMP JUMPDEST PUSH32 0x416D6F756E74206D7573742062652067726561746572207468616E20302E0000 PUSH0 DUP3 ADD MSTORE POP JUMP JUMPDEST PUSH0 PUSH2 0xCDE PUSH1 0x1E DUP4 PUSH2 0xB16 JUMP JUMPDEST SWAP2 POP PUSH2 0xCE9 DUP3 PUSH2 0xCAA JUMP JUMPDEST PUSH1 0x20 DUP3 ADD SWAP1 POP SWAP2 SWAP1 POP JUMP JUMPDEST PUSH0 PUSH1 0x20 DUP3 ADD SWAP1 POP DUP2 DUP2 SUB PUSH0 DUP4 ADD MSTORE PUSH2 0xD0B DUP2 PUSH2 0xCD2 JUMP JUMPDEST SWAP1 POP SWAP2 SWAP1 POP JUMP JUMPDEST PUSH32 0x4E487B7100000000000000000000000000000000000000000000000000000000 PUSH0 MSTORE PUSH1 0x11 PUSH1 0x4 MSTORE PUSH1 0x24 PUSH0 REVERT JUMPDEST PUSH0 PUSH2 0xD49 DUP3 PUSH2 0xA2D JUMP JUMPDEST SWAP2 POP PUSH2 0xD54 DUP4 PUSH2 0xA2D JUMP JUMPDEST SWAP3 POP DUP3 DUP3 ADD SWAP1 POP DUP1 DUP3 GT ISZERO PUSH2 0xD6C JUMPI PUSH2 0xD6B PUSH2 0xD12 JUMP JUMPDEST JUMPDEST SWAP3 SWAP2 POP POP JUMP JUMPDEST PUSH0 PUSH1 0x20 DUP3 ADD SWAP1 POP PUSH2 0xD85 PUSH0 DUP4 ADD DUP5 PUSH2 0xA36 JUMP JUMPDEST SWAP3 SWAP2 POP POP JUMP JUMPDEST PUSH32 0x496E73756666696369656E742066756E64732E00000000000000000000000000 PUSH0 DUP3 ADD MSTORE POP JUMP JUMPDEST PUSH0 PUSH2 0xDBF PUSH1 0x13 DUP4 PUSH2 0xB16 JUMP JUMPDEST SWAP2 POP PUSH2 0xDCA DUP3 PUSH2 0xD8B JUMP JUMPDEST PUSH1 0x20 DUP3 ADD SWAP1 POP SWAP2 SWAP1 POP JUMP JUMPDEST PUSH0 PUSH1 0x20 DUP3 ADD SWAP1 POP DUP2 DUP2 SUB PUSH0 DUP4 ADD MSTORE PUSH2 0xDEC DUP2 PUSH2 0xDB3 JUMP JUMPDEST SWAP1 POP SWAP2 SWAP1 POP JUMP JUMPDEST PUSH0 PUSH2 0xDFD DUP3 PUSH2 0xA2D JUMP JUMPDEST SWAP2 POP PUSH2 0xE08 DUP4 PUSH2 0xA2D JUMP JUMPDEST SWAP3 POP DUP3 DUP3 SUB SWAP1 POP DUP2 DUP2 GT ISZERO PUSH2 0xE20 JUMPI PUSH2 0xE1F PUSH2 0xD12 JUMP JUMPDEST JUMPDEST SWAP3 SWAP2 POP POP JUMP INVALID LOG2 PUSH5 0x6970667358 0x22 SLT KECCAK256 CODECOPY 0xC4 PUSH7 0x50DD471A827628 ADD REVERT SWAP1 0xD5 0xE6 0xDA 0x2D CALLVALUE PUSH22 0x7FE58982E15D9E694790B4A27464736F6C6343000816 STOP CALLER "
				},
				"gasEstimates": {
					"creation": {
						"codeDepositCost": "735200",
						"executionCost": "25029",
						"totalCost": "760229"
					},
					"external": {
						"addBeneficiary(address)": "28170",
						"beneficiaries(address)": "5045",
						"distributeBeneficiary(address,uint256)": "infinite",
						"owner()": "2571",
						"receivedInheritance()": "infinite",
						"removeBeneficiary(address)": "30437"
					}
				},
				"methodIdentifiers": {
					"addBeneficiary(address)": "5926651d",
					"beneficiaries(address)": "01567739",
					"distributeBeneficiary(address,uint256)": "9abf7d37",
					"owner()": "8da5cb5b",
					"receivedInheritance()": "7bfccb88",
					"removeBeneficiary(address)": "59633a1c"
				}
			},
			"storageLayout": {
				"storage": [
					{
						"astId": 201,
						"contract": "Property Inheritance/Property Inheritance Smart Contract.sol:Inheritance2",
						"label": "owner",
						"offset": 0,
						"slot": "0",
						"type": "t_address"
					},
					{
						"astId": 206,
						"contract": "Property Inheritance/Property Inheritance Smart Contract.sol:Inheritance2",
						"label": "beneficiaries",
						"offset": 0,
						"slot": "1",
						"type": "t_mapping(t_address,t_struct(Beneficiary)211_storage)"
					}
				],
				"types": {
					"t_address": {
						"encoding": "inplace",
						"label": "address",
						"numberOfBytes": "20"
					},
					"t_bool": {
						"encoding": "inplace",
						"label": "bool",
						"numberOfBytes": "1"
					},
					"t_mapping(t_address,t_struct(Beneficiary)211_storage)": {
						"encoding": "mapping",
						"key": "t_address",
						"label": "mapping(address => struct Inheritance2.Beneficiary)",
						"numberOfBytes": "32",
						"value": "t_struct(Beneficiary)211_storage"
					},
					"t_struct(Beneficiary)211_storage": {
						"encoding": "inplace",
						"label": "struct Inheritance2.Beneficiary",
						"members": [
							{
								"astId": 208,
								"contract": "Property Inheritance/Property Inheritance Smart Contract.sol:Inheritance2",
								"label": "inheritance",
								"offset": 0,
								"slot": "0",
								"type": "t_uint256"
							},
							{
								"astId": 210,
								"contract": "Property Inheritance/Property Inheritance Smart Contract.sol:Inheritance2",
								"label": "isBeneficiary",
								"offset": 0,
								"slot": "1",
								"type": "t_bool"
							}
						],
						"numberOfBytes": "64"
					},
					"t_uint256": {
						"encoding": "inplace",
						"label": "uint256",
						"numberOfBytes": "32"
					}
				}
			},
			"userdoc": {
				"kind": "user",
				"methods": {},
				"version": 1
			}
		}
	}
}