{
	"Automotive industry/Automotive industry smart contract-2.sol": {
		"AutmotiveContract": {
			"abi": [
				{
					"inputs": [],
					"stateMutability": "nonpayable",
					"type": "constructor"
				},
				{
					"anonymous": false,
					"inputs": [
						{
							"indexed": false,
							"internalType": "address",
							"name": "buyer",
							"type": "address"
						},
						{
							"indexed": false,
							"internalType": "string",
							"name": "vehicleMake",
							"type": "string"
						},
						{
							"indexed": false,
							"internalType": "string",
							"name": "vehicleModel",
							"type": "string"
						},
						{
							"indexed": false,
							"internalType": "uint256",
							"name": "vehiclePrice",
							"type": "uint256"
						}
					],
					"name": "Purchase",
					"type": "event"
				},
				{
					"inputs": [
						{
							"internalType": "string",
							"name": "_vehicleMake",
							"type": "string"
						},
						{
							"internalType": "string",
							"name": "_vehicleModel",
							"type": "string"
						}
					],
					"name": "buyVehicle",
					"outputs": [],
					"stateMutability": "payable",
					"type": "function"
				},
				{
					"inputs": [
						{
							"internalType": "address",
							"name": "",
							"type": "address"
						}
					],
					"name": "buyers",
					"outputs": [
						{
							"internalType": "bool",
							"name": "",
							"type": "bool"
						}
					],
					"stateMutability": "view",
					"type": "function"
				},
				{
					"inputs": [],
					"name": "checkOwnership",
					"outputs": [
						{
							"internalType": "bool",
							"name": "",
							"type": "bool"
						}
					],
					"stateMutability": "view",
					"type": "function"
				},
				{
					"inputs": [],
					"name": "owner",
					"outputs": [
						{
							"internalType": "address",
							"name": "",
							"type": "address"
						}
					],
					"stateMutability": "view",
					"type": "function"
				},
				{
					"inputs": [
						{
							"internalType": "uint256",
							"name": "_vehiclePrice",
							"type": "uint256"
						}
					],
					"name": "setPrice",
					"outputs": [],
					"stateMutability": "nonpayable",
					"type": "function"
				},
				{
					"inputs": [],
					"name": "vehicleMake",
					"outputs": [
						{
							"internalType": "string",
							"name": "",
							"type": "string"
						}
					],
					"stateMutability": "view",
					"type": "function"
				},
				{
					"inputs": [],
					"name": "vehicleModel",
					"outputs": [
						{
							"internalType": "string",
							"name": "",
							"type": "string"
						}
					],
					"stateMutability": "view",
					"type": "function"
				},
				{
					"inputs": [],
					"name": "vehiclePrice",
					"outputs": [
						{
							"internalType": "uint256",
							"name": "",
							"type": "uint256"
						}
					],
					"stateMutability": "view",
					"type": "function"
				}
			],
			"devdoc": {
				"kind": "dev",
				"methods": {},
				"version": 1
			},
			"evm": {
				"assembly": "    /* \"Automotive industry/Automotive industry smart contract-2.sol\":58:1318  contract AutmotiveContract {... */\n  mstore(0x40, 0x80)\n    /* \"Automotive industry/Automotive industry smart contract-2.sol\":536:585  constructor() {... */\n  callvalue\n  dup1\n  iszero\n  tag_1\n  jumpi\n  0x00\n  dup1\n  revert\ntag_1:\n  pop\n    /* \"Automotive industry/Automotive industry smart contract-2.sol\":568:578  msg.sender */\n  caller\n    /* \"Automotive industry/Automotive industry smart contract-2.sol\":560:565  owner */\n  0x00\n  dup1\n    /* \"Automotive industry/Automotive industry smart contract-2.sol\":560:578  owner = msg.sender */\n  0x0100\n  exp\n  dup2\n  sload\n  dup2\n  0xffffffffffffffffffffffffffffffffffffffff\n  mul\n  not\n  and\n  swap1\n  dup4\n  0xffffffffffffffffffffffffffffffffffffffff\n  and\n  mul\n  or\n  swap1\n  sstore\n  pop\n    /* \"Automotive industry/Automotive industry smart contract-2.sol\":58:1318  contract AutmotiveContract {... */\n  dataSize(sub_0)\n  dup1\n  dataOffset(sub_0)\n  0x00\n  codecopy\n  0x00\n  return\nstop\n\nsub_0: assembly {\n        /* \"Automotive industry/Automotive industry smart contract-2.sol\":58:1318  contract AutmotiveContract {... */\n      mstore(0x40, 0x80)\n      jumpi(tag_1, lt(calldatasize, 0x04))\n      shr(0xe0, calldataload(0x00))\n      dup1\n      0x975d279c\n      gt\n      tag_10\n      jumpi\n      dup1\n      0x975d279c\n      eq\n      tag_6\n      jumpi\n      dup1\n      0x97a993aa\n      eq\n      tag_7\n      jumpi\n      dup1\n      0xd25cf0f5\n      eq\n      tag_8\n      jumpi\n      dup1\n      0xf2c09670\n      eq\n      tag_9\n      jumpi\n      jump(tag_1)\n    tag_10:\n      dup1\n      0x219a1d77\n      eq\n      tag_2\n      jumpi\n      dup1\n      0x3d13924e\n      eq\n      tag_3\n      jumpi\n      dup1\n      0x8da5cb5b\n      eq\n      tag_4\n      jumpi\n      dup1\n      0x91b7f5ed\n      eq\n      tag_5\n      jumpi\n    tag_1:\n      0x00\n      dup1\n      revert\n        /* \"Automotive industry/Automotive industry smart contract-2.sol\":1221:1316  function checkOwnership() public view returns (bool) {... */\n    tag_2:\n      callvalue\n      dup1\n      iszero\n      tag_11\n      jumpi\n      0x00\n      dup1\n      revert\n    tag_11:\n      pop\n      tag_12\n      tag_13\n      jump\t// in\n    tag_12:\n      mload(0x40)\n      tag_14\n      swap2\n      swap1\n      tag_15\n      jump\t// in\n    tag_14:\n      mload(0x40)\n      dup1\n      swap2\n      sub\n      swap1\n      return\n        /* \"Automotive industry/Automotive industry smart contract-2.sol\":247:271  uint public vehiclePrice */\n    tag_3:\n      callvalue\n      dup1\n      iszero\n      tag_16\n      jumpi\n      0x00\n      dup1\n      revert\n    tag_16:\n      pop\n      tag_17\n      tag_18\n      jump\t// in\n    tag_17:\n      mload(0x40)\n      tag_19\n      swap2\n      swap1\n      tag_20\n      jump\t// in\n    tag_19:\n      mload(0x40)\n      dup1\n      swap2\n      sub\n      swap1\n      return\n        /* \"Automotive industry/Automotive industry smart contract-2.sol\":114:134  address public owner */\n    tag_4:\n      callvalue\n      dup1\n      iszero\n      tag_21\n      jumpi\n      0x00\n      dup1\n      revert\n    tag_21:\n      pop\n      tag_22\n      tag_23\n      jump\t// in\n    tag_22:\n      mload(0x40)\n      tag_24\n      swap2\n      swap1\n      tag_25\n      jump\t// in\n    tag_24:\n      mload(0x40)\n      dup1\n      swap2\n      sub\n      swap1\n      return\n        /* \"Automotive industry/Automotive industry smart contract-2.sol\":1051:1180  function setPrice(uint _vehiclePrice) public {... */\n    tag_5:\n      callvalue\n      dup1\n      iszero\n      tag_26\n      jumpi\n      0x00\n      dup1\n      revert\n    tag_26:\n      pop\n      tag_27\n      0x04\n      dup1\n      calldatasize\n      sub\n      dup2\n      add\n      swap1\n      tag_28\n      swap2\n      swap1\n      tag_29\n      jump\t// in\n    tag_28:\n      tag_30\n      jump\t// in\n    tag_27:\n      stop\n        /* \"Automotive industry/Automotive industry smart contract-2.sol\":624:1001  function buyVehicle(string memory _vehicleMake, string memory _vehicleModel) public payable {... */\n    tag_6:\n      tag_31\n      0x04\n      dup1\n      calldatasize\n      sub\n      dup2\n      add\n      swap1\n      tag_32\n      swap2\n      swap1\n      tag_33\n      jump\t// in\n    tag_32:\n      tag_34\n      jump\t// in\n    tag_31:\n      stop\n        /* \"Automotive industry/Automotive industry smart contract-2.sol\":140:178  mapping(address => bool) public buyers */\n    tag_7:\n      callvalue\n      dup1\n      iszero\n      tag_35\n      jumpi\n      0x00\n      dup1\n      revert\n    tag_35:\n      pop\n      tag_36\n      0x04\n      dup1\n      calldatasize\n      sub\n      dup2\n      add\n      swap1\n      tag_37\n      swap2\n      swap1\n      tag_38\n      jump\t// in\n    tag_37:\n      tag_39\n      jump\t// in\n    tag_36:\n      mload(0x40)\n      tag_40\n      swap2\n      swap1\n      tag_15\n      jump\t// in\n    tag_40:\n      mload(0x40)\n      dup1\n      swap2\n      sub\n      swap1\n      return\n        /* \"Automotive industry/Automotive industry smart contract-2.sol\":184:209  string public vehicleMake */\n    tag_8:\n      callvalue\n      dup1\n      iszero\n      tag_41\n      jumpi\n      0x00\n      dup1\n      revert\n    tag_41:\n      pop\n      tag_42\n      tag_43\n      jump\t// in\n    tag_42:\n      mload(0x40)\n      tag_44\n      swap2\n      swap1\n      tag_45\n      jump\t// in\n    tag_44:\n      mload(0x40)\n      dup1\n      swap2\n      sub\n      swap1\n      return\n        /* \"Automotive industry/Automotive industry smart contract-2.sol\":215:241  string public vehicleModel */\n    tag_9:\n      callvalue\n      dup1\n      iszero\n      tag_46\n      jumpi\n      0x00\n      dup1\n      revert\n    tag_46:\n      pop\n      tag_47\n      tag_48\n      jump\t// in\n    tag_47:\n      mload(0x40)\n      tag_49\n      swap2\n      swap1\n      tag_45\n      jump\t// in\n    tag_49:\n      mload(0x40)\n      dup1\n      swap2\n      sub\n      swap1\n      return\n        /* \"Automotive industry/Automotive industry smart contract-2.sol\":1221:1316  function checkOwnership() public view returns (bool) {... */\n    tag_13:\n        /* \"Automotive industry/Automotive industry smart contract-2.sol\":1268:1272  bool */\n      0x00\n        /* \"Automotive industry/Automotive industry smart contract-2.sol\":1291:1297  buyers */\n      0x01\n        /* \"Automotive industry/Automotive industry smart contract-2.sol\":1291:1309  buyers[msg.sender] */\n      0x00\n        /* \"Automotive industry/Automotive industry smart contract-2.sol\":1298:1308  msg.sender */\n      caller\n        /* \"Automotive industry/Automotive industry smart contract-2.sol\":1291:1309  buyers[msg.sender] */\n      0xffffffffffffffffffffffffffffffffffffffff\n      and\n      0xffffffffffffffffffffffffffffffffffffffff\n      and\n      dup2\n      mstore\n      0x20\n      add\n      swap1\n      dup2\n      mstore\n      0x20\n      add\n      0x00\n      keccak256\n      0x00\n      swap1\n      sload\n      swap1\n      0x0100\n      exp\n      swap1\n      div\n      0xff\n      and\n        /* \"Automotive industry/Automotive industry smart contract-2.sol\":1284:1309  return buyers[msg.sender] */\n      swap1\n      pop\n        /* \"Automotive industry/Automotive industry smart contract-2.sol\":1221:1316  function checkOwnership() public view returns (bool) {... */\n      swap1\n      jump\t// out\n        /* \"Automotive industry/Automotive industry smart contract-2.sol\":247:271  uint public vehiclePrice */\n    tag_18:\n      sload(0x04)\n      dup2\n      jump\t// out\n        /* \"Automotive industry/Automotive industry smart contract-2.sol\":114:134  address public owner */\n    tag_23:\n      0x00\n      dup1\n      sload\n      swap1\n      0x0100\n      exp\n      swap1\n      div\n      0xffffffffffffffffffffffffffffffffffffffff\n      and\n      dup2\n      jump\t// out\n        /* \"Automotive industry/Automotive industry smart contract-2.sol\":1051:1180  function setPrice(uint _vehiclePrice) public {... */\n    tag_30:\n        /* \"Automotive industry/Automotive industry smart contract-2.sol\":1128:1133  owner */\n      0x00\n      dup1\n      sload\n      swap1\n      0x0100\n      exp\n      swap1\n      div\n      0xffffffffffffffffffffffffffffffffffffffff\n      and\n        /* \"Automotive industry/Automotive industry smart contract-2.sol\":1114:1133  msg.sender == owner */\n      0xffffffffffffffffffffffffffffffffffffffff\n      and\n        /* \"Automotive industry/Automotive industry smart contract-2.sol\":1114:1124  msg.sender */\n      caller\n        /* \"Automotive industry/Automotive industry smart contract-2.sol\":1114:1133  msg.sender == owner */\n      0xffffffffffffffffffffffffffffffffffffffff\n      and\n      eq\n        /* \"Automotive industry/Automotive industry smart contract-2.sol\":1106:1134  require(msg.sender == owner) */\n      tag_52\n      jumpi\n      0x00\n      dup1\n      revert\n    tag_52:\n        /* \"Automotive industry/Automotive industry smart contract-2.sol\":1160:1173  _vehiclePrice */\n      dup1\n        /* \"Automotive industry/Automotive industry smart contract-2.sol\":1145:1157  vehiclePrice */\n      0x04\n        /* \"Automotive industry/Automotive industry smart contract-2.sol\":1145:1173  vehiclePrice = _vehiclePrice */\n      dup2\n      swap1\n      sstore\n      pop\n        /* \"Automotive industry/Automotive industry smart contract-2.sol\":1051:1180  function setPrice(uint _vehiclePrice) public {... */\n      pop\n      jump\t// out\n        /* \"Automotive industry/Automotive industry smart contract-2.sol\":624:1001  function buyVehicle(string memory _vehicleMake, string memory _vehicleModel) public payable {... */\n    tag_34:\n        /* \"Automotive industry/Automotive industry smart contract-2.sol\":747:759  vehiclePrice */\n      sload(0x04)\n        /* \"Automotive industry/Automotive industry smart contract-2.sol\":734:743  msg.value */\n      callvalue\n        /* \"Automotive industry/Automotive industry smart contract-2.sol\":734:759  msg.value >= vehiclePrice */\n      lt\n      iszero\n        /* \"Automotive industry/Automotive industry smart contract-2.sol\":726:760  require(msg.value >= vehiclePrice) */\n      tag_54\n      jumpi\n      0x00\n      dup1\n      revert\n    tag_54:\n        /* \"Automotive industry/Automotive industry smart contract-2.sol\":800:805  false */\n      0x00\n        /* \"Automotive industry/Automotive industry smart contract-2.sol\":778:805  buyers[msg.sender] == false */\n      iszero\n      iszero\n        /* \"Automotive industry/Automotive industry smart contract-2.sol\":778:784  buyers */\n      0x01\n        /* \"Automotive industry/Automotive industry smart contract-2.sol\":778:796  buyers[msg.sender] */\n      0x00\n        /* \"Automotive industry/Automotive industry smart contract-2.sol\":785:795  msg.sender */\n      caller\n        /* \"Automotive industry/Automotive industry smart contract-2.sol\":778:796  buyers[msg.sender] */\n      0xffffffffffffffffffffffffffffffffffffffff\n      and\n      0xffffffffffffffffffffffffffffffffffffffff\n      and\n      dup2\n      mstore\n      0x20\n      add\n      swap1\n      dup2\n      mstore\n      0x20\n      add\n      0x00\n      keccak256\n      0x00\n      swap1\n      sload\n      swap1\n      0x0100\n      exp\n      swap1\n      div\n      0xff\n      and\n        /* \"Automotive industry/Automotive industry smart contract-2.sol\":778:805  buyers[msg.sender] == false */\n      iszero\n      iszero\n      eq\n        /* \"Automotive industry/Automotive industry smart contract-2.sol\":770:806  require(buyers[msg.sender] == false) */\n      tag_55\n      jumpi\n      0x00\n      dup1\n      revert\n    tag_55:\n        /* \"Automotive industry/Automotive industry smart contract-2.sol\":830:842  _vehicleMake */\n      dup2\n        /* \"Automotive industry/Automotive industry smart contract-2.sol\":816:827  vehicleMake */\n      0x02\n        /* \"Automotive industry/Automotive industry smart contract-2.sol\":816:842  vehicleMake = _vehicleMake */\n      swap1\n      dup2\n      tag_56\n      swap2\n      swap1\n      tag_57\n      jump\t// in\n    tag_56:\n      pop\n        /* \"Automotive industry/Automotive industry smart contract-2.sol\":867:880  _vehicleModel */\n      dup1\n        /* \"Automotive industry/Automotive industry smart contract-2.sol\":852:864  vehicleModel */\n      0x03\n        /* \"Automotive industry/Automotive industry smart contract-2.sol\":852:880  vehicleModel = _vehicleModel */\n      swap1\n      dup2\n      tag_58\n      swap2\n      swap1\n      tag_57\n      jump\t// in\n    tag_58:\n      pop\n        /* \"Automotive industry/Automotive industry smart contract-2.sol\":911:915  true */\n      0x01\n        /* \"Automotive industry/Automotive industry smart contract-2.sol\":890:896  buyers */\n      dup1\n        /* \"Automotive industry/Automotive industry smart contract-2.sol\":890:908  buyers[msg.sender] */\n      0x00\n        /* \"Automotive industry/Automotive industry smart contract-2.sol\":897:907  msg.sender */\n      caller\n        /* \"Automotive industry/Automotive industry smart contract-2.sol\":890:908  buyers[msg.sender] */\n      0xffffffffffffffffffffffffffffffffffffffff\n      and\n      0xffffffffffffffffffffffffffffffffffffffff\n      and\n      dup2\n      mstore\n      0x20\n      add\n      swap1\n      dup2\n      mstore\n      0x20\n      add\n      0x00\n      keccak256\n      0x00\n        /* \"Automotive industry/Automotive industry smart contract-2.sol\":890:915  buyers[msg.sender] = true */\n      0x0100\n      exp\n      dup2\n      sload\n      dup2\n      0xff\n      mul\n      not\n      and\n      swap1\n      dup4\n      iszero\n      iszero\n      mul\n      or\n      swap1\n      sstore\n      pop\n        /* \"Automotive industry/Automotive industry smart contract-2.sol\":931:994  Purchase(msg.sender, _vehicleMake, _vehicleModel, vehiclePrice) */\n      0xb7d525d230b4a7b392c8e8c7cb545883b05ad379bddb9fc3c91a3e340b88222b\n        /* \"Automotive industry/Automotive industry smart contract-2.sol\":940:950  msg.sender */\n      caller\n        /* \"Automotive industry/Automotive industry smart contract-2.sol\":952:964  _vehicleMake */\n      dup4\n        /* \"Automotive industry/Automotive industry smart contract-2.sol\":966:979  _vehicleModel */\n      dup4\n        /* \"Automotive industry/Automotive industry smart contract-2.sol\":981:993  vehiclePrice */\n      sload(0x04)\n        /* \"Automotive industry/Automotive industry smart contract-2.sol\":931:994  Purchase(msg.sender, _vehicleMake, _vehicleModel, vehiclePrice) */\n      mload(0x40)\n      tag_59\n      swap5\n      swap4\n      swap3\n      swap2\n      swap1\n      tag_60\n      jump\t// in\n    tag_59:\n      mload(0x40)\n      dup1\n      swap2\n      sub\n      swap1\n      log1\n        /* \"Automotive industry/Automotive industry smart contract-2.sol\":624:1001  function buyVehicle(string memory _vehicleMake, string memory _vehicleModel) public payable {... */\n      pop\n      pop\n      jump\t// out\n        /* \"Automotive industry/Automotive industry smart contract-2.sol\":140:178  mapping(address => bool) public buyers */\n    tag_39:\n      mstore(0x20, 0x01)\n      dup1\n      0x00\n      mstore\n      keccak256(0x00, 0x40)\n      0x00\n      swap2\n      pop\n      sload\n      swap1\n      0x0100\n      exp\n      swap1\n      div\n      0xff\n      and\n      dup2\n      jump\t// out\n        /* \"Automotive industry/Automotive industry smart contract-2.sol\":184:209  string public vehicleMake */\n    tag_43:\n      0x02\n      dup1\n      sload\n      tag_61\n      swap1\n      tag_62\n      jump\t// in\n    tag_61:\n      dup1\n      0x1f\n      add\n      0x20\n      dup1\n      swap2\n      div\n      mul\n      0x20\n      add\n      mload(0x40)\n      swap1\n      dup2\n      add\n      0x40\n      mstore\n      dup1\n      swap3\n      swap2\n      swap1\n      dup2\n      dup2\n      mstore\n      0x20\n      add\n      dup3\n      dup1\n      sload\n      tag_63\n      swap1\n      tag_62\n      jump\t// in\n    tag_63:\n      dup1\n      iszero\n      tag_64\n      jumpi\n      dup1\n      0x1f\n      lt\n      tag_65\n      jumpi\n      0x0100\n      dup1\n      dup4\n      sload\n      div\n      mul\n      dup4\n      mstore\n      swap2\n      0x20\n      add\n      swap2\n      jump(tag_64)\n    tag_65:\n      dup3\n      add\n      swap2\n      swap1\n      0x00\n      mstore\n      keccak256(0x00, 0x20)\n      swap1\n    tag_66:\n      dup2\n      sload\n      dup2\n      mstore\n      swap1\n      0x01\n      add\n      swap1\n      0x20\n      add\n      dup1\n      dup4\n      gt\n      tag_66\n      jumpi\n      dup3\n      swap1\n      sub\n      0x1f\n      and\n      dup3\n      add\n      swap2\n    tag_64:\n      pop\n      pop\n      pop\n      pop\n      pop\n      dup2\n      jump\t// out\n        /* \"Automotive industry/Automotive industry smart contract-2.sol\":215:241  string public vehicleModel */\n    tag_48:\n      0x03\n      dup1\n      sload\n      tag_67\n      swap1\n      tag_62\n      jump\t// in\n    tag_67:\n      dup1\n      0x1f\n      add\n      0x20\n      dup1\n      swap2\n      div\n      mul\n      0x20\n      add\n      mload(0x40)\n      swap1\n      dup2\n      add\n      0x40\n      mstore\n      dup1\n      swap3\n      swap2\n      swap1\n      dup2\n      dup2\n      mstore\n      0x20\n      add\n      dup3\n      dup1\n      sload\n      tag_68\n      swap1\n      tag_62\n      jump\t// in\n    tag_68:\n      dup1\n      iszero\n      tag_69\n      jumpi\n      dup1\n      0x1f\n      lt\n      tag_70\n      jumpi\n      0x0100\n      dup1\n      dup4\n      sload\n      div\n      mul\n      dup4\n      mstore\n      swap2\n      0x20\n      add\n      swap2\n      jump(tag_69)\n    tag_70:\n      dup3\n      add\n      swap2\n      swap1\n      0x00\n      mstore\n      keccak256(0x00, 0x20)\n      swap1\n    tag_71:\n      dup2\n      sload\n      dup2\n      mstore\n      swap1\n      0x01\n      add\n      swap1\n      0x20\n      add\n      dup1\n      dup4\n      gt\n      tag_71\n      jumpi\n      dup3\n      swap1\n      sub\n      0x1f\n      and\n      dup3\n      add\n      swap2\n    tag_69:\n      pop\n      pop\n      pop\n      pop\n      pop\n      dup2\n      jump\t// out\n        /* \"#utility.yul\":7:97   */\n    tag_72:\n        /* \"#utility.yul\":41:48   */\n      0x00\n        /* \"#utility.yul\":84:89   */\n      dup2\n        /* \"#utility.yul\":77:90   */\n      iszero\n        /* \"#utility.yul\":70:91   */\n      iszero\n        /* \"#utility.yul\":59:91   */\n      swap1\n      pop\n        /* \"#utility.yul\":7:97   */\n      swap2\n      swap1\n      pop\n      jump\t// out\n        /* \"#utility.yul\":103:212   */\n    tag_73:\n        /* \"#utility.yul\":184:205   */\n      tag_119\n        /* \"#utility.yul\":199:204   */\n      dup2\n        /* \"#utility.yul\":184:205   */\n      tag_72\n      jump\t// in\n    tag_119:\n        /* \"#utility.yul\":179:182   */\n      dup3\n        /* \"#utility.yul\":172:206   */\n      mstore\n        /* \"#utility.yul\":103:212   */\n      pop\n      pop\n      jump\t// out\n        /* \"#utility.yul\":218:428   */\n    tag_15:\n        /* \"#utility.yul\":305:309   */\n      0x00\n        /* \"#utility.yul\":343:345   */\n      0x20\n        /* \"#utility.yul\":332:341   */\n      dup3\n        /* \"#utility.yul\":328:346   */\n      add\n        /* \"#utility.yul\":320:346   */\n      swap1\n      pop\n        /* \"#utility.yul\":356:421   */\n      tag_121\n        /* \"#utility.yul\":418:419   */\n      0x00\n        /* \"#utility.yul\":407:416   */\n      dup4\n        /* \"#utility.yul\":403:420   */\n      add\n        /* \"#utility.yul\":394:400   */\n      dup5\n        /* \"#utility.yul\":356:421   */\n      tag_73\n      jump\t// in\n    tag_121:\n        /* \"#utility.yul\":218:428   */\n      swap3\n      swap2\n      pop\n      pop\n      jump\t// out\n        /* \"#utility.yul\":434:511   */\n    tag_74:\n        /* \"#utility.yul\":471:478   */\n      0x00\n        /* \"#utility.yul\":500:505   */\n      dup2\n        /* \"#utility.yul\":489:505   */\n      swap1\n      pop\n        /* \"#utility.yul\":434:511   */\n      swap2\n      swap1\n      pop\n      jump\t// out\n        /* \"#utility.yul\":517:635   */\n    tag_75:\n        /* \"#utility.yul\":604:628   */\n      tag_124\n        /* \"#utility.yul\":622:627   */\n      dup2\n        /* \"#utility.yul\":604:628   */\n      tag_74\n      jump\t// in\n    tag_124:\n        /* \"#utility.yul\":599:602   */\n      dup3\n        /* \"#utility.yul\":592:629   */\n      mstore\n        /* \"#utility.yul\":517:635   */\n      pop\n      pop\n      jump\t// out\n        /* \"#utility.yul\":641:863   */\n    tag_20:\n        /* \"#utility.yul\":734:738   */\n      0x00\n        /* \"#utility.yul\":772:774   */\n      0x20\n        /* \"#utility.yul\":761:770   */\n      dup3\n        /* \"#utility.yul\":757:775   */\n      add\n        /* \"#utility.yul\":749:775   */\n      swap1\n      pop\n        /* \"#utility.yul\":785:856   */\n      tag_126\n        /* \"#utility.yul\":853:854   */\n      0x00\n        /* \"#utility.yul\":842:851   */\n      dup4\n        /* \"#utility.yul\":838:855   */\n      add\n        /* \"#utility.yul\":829:835   */\n      dup5\n        /* \"#utility.yul\":785:856   */\n      tag_75\n      jump\t// in\n    tag_126:\n        /* \"#utility.yul\":641:863   */\n      swap3\n      swap2\n      pop\n      pop\n      jump\t// out\n        /* \"#utility.yul\":869:995   */\n    tag_76:\n        /* \"#utility.yul\":906:913   */\n      0x00\n        /* \"#utility.yul\":946:988   */\n      0xffffffffffffffffffffffffffffffffffffffff\n        /* \"#utility.yul\":939:944   */\n      dup3\n        /* \"#utility.yul\":935:989   */\n      and\n        /* \"#utility.yul\":924:989   */\n      swap1\n      pop\n        /* \"#utility.yul\":869:995   */\n      swap2\n      swap1\n      pop\n      jump\t// out\n        /* \"#utility.yul\":1001:1097   */\n    tag_77:\n        /* \"#utility.yul\":1038:1045   */\n      0x00\n        /* \"#utility.yul\":1067:1091   */\n      tag_129\n        /* \"#utility.yul\":1085:1090   */\n      dup3\n        /* \"#utility.yul\":1067:1091   */\n      tag_76\n      jump\t// in\n    tag_129:\n        /* \"#utility.yul\":1056:1091   */\n      swap1\n      pop\n        /* \"#utility.yul\":1001:1097   */\n      swap2\n      swap1\n      pop\n      jump\t// out\n        /* \"#utility.yul\":1103:1221   */\n    tag_78:\n        /* \"#utility.yul\":1190:1214   */\n      tag_131\n        /* \"#utility.yul\":1208:1213   */\n      dup2\n        /* \"#utility.yul\":1190:1214   */\n      tag_77\n      jump\t// in\n    tag_131:\n        /* \"#utility.yul\":1185:1188   */\n      dup3\n        /* \"#utility.yul\":1178:1215   */\n      mstore\n        /* \"#utility.yul\":1103:1221   */\n      pop\n      pop\n      jump\t// out\n        /* \"#utility.yul\":1227:1449   */\n    tag_25:\n        /* \"#utility.yul\":1320:1324   */\n      0x00\n        /* \"#utility.yul\":1358:1360   */\n      0x20\n        /* \"#utility.yul\":1347:1356   */\n      dup3\n        /* \"#utility.yul\":1343:1361   */\n      add\n        /* \"#utility.yul\":1335:1361   */\n      swap1\n      pop\n        /* \"#utility.yul\":1371:1442   */\n      tag_133\n        /* \"#utility.yul\":1439:1440   */\n      0x00\n        /* \"#utility.yul\":1428:1437   */\n      dup4\n        /* \"#utility.yul\":1424:1441   */\n      add\n        /* \"#utility.yul\":1415:1421   */\n      dup5\n        /* \"#utility.yul\":1371:1442   */\n      tag_78\n      jump\t// in\n    tag_133:\n        /* \"#utility.yul\":1227:1449   */\n      swap3\n      swap2\n      pop\n      pop\n      jump\t// out\n        /* \"#utility.yul\":1455:1530   */\n    tag_79:\n        /* \"#utility.yul\":1488:1494   */\n      0x00\n        /* \"#utility.yul\":1521:1523   */\n      0x40\n        /* \"#utility.yul\":1515:1524   */\n      mload\n        /* \"#utility.yul\":1505:1524   */\n      swap1\n      pop\n        /* \"#utility.yul\":1455:1530   */\n      swap1\n      jump\t// out\n        /* \"#utility.yul\":1536:1653   */\n    tag_80:\n        /* \"#utility.yul\":1645:1646   */\n      0x00\n        /* \"#utility.yul\":1642:1643   */\n      dup1\n        /* \"#utility.yul\":1635:1647   */\n      revert\n        /* \"#utility.yul\":1659:1776   */\n    tag_81:\n        /* \"#utility.yul\":1768:1769   */\n      0x00\n        /* \"#utility.yul\":1765:1766   */\n      dup1\n        /* \"#utility.yul\":1758:1770   */\n      revert\n        /* \"#utility.yul\":1782:1904   */\n    tag_82:\n        /* \"#utility.yul\":1855:1879   */\n      tag_138\n        /* \"#utility.yul\":1873:1878   */\n      dup2\n        /* \"#utility.yul\":1855:1879   */\n      tag_74\n      jump\t// in\n    tag_138:\n        /* \"#utility.yul\":1848:1853   */\n      dup2\n        /* \"#utility.yul\":1845:1880   */\n      eq\n        /* \"#utility.yul\":1835:1898   */\n      tag_139\n      jumpi\n        /* \"#utility.yul\":1894:1895   */\n      0x00\n        /* \"#utility.yul\":1891:1892   */\n      dup1\n        /* \"#utility.yul\":1884:1896   */\n      revert\n        /* \"#utility.yul\":1835:1898   */\n    tag_139:\n        /* \"#utility.yul\":1782:1904   */\n      pop\n      jump\t// out\n        /* \"#utility.yul\":1910:2049   */\n    tag_83:\n        /* \"#utility.yul\":1956:1961   */\n      0x00\n        /* \"#utility.yul\":1994:2000   */\n      dup2\n        /* \"#utility.yul\":1981:2001   */\n      calldataload\n        /* \"#utility.yul\":1972:2001   */\n      swap1\n      pop\n        /* \"#utility.yul\":2010:2043   */\n      tag_141\n        /* \"#utility.yul\":2037:2042   */\n      dup2\n        /* \"#utility.yul\":2010:2043   */\n      tag_82\n      jump\t// in\n    tag_141:\n        /* \"#utility.yul\":1910:2049   */\n      swap3\n      swap2\n      pop\n      pop\n      jump\t// out\n        /* \"#utility.yul\":2055:2384   */\n    tag_29:\n        /* \"#utility.yul\":2114:2120   */\n      0x00\n        /* \"#utility.yul\":2163:2165   */\n      0x20\n        /* \"#utility.yul\":2151:2160   */\n      dup3\n        /* \"#utility.yul\":2142:2149   */\n      dup5\n        /* \"#utility.yul\":2138:2161   */\n      sub\n        /* \"#utility.yul\":2134:2166   */\n      slt\n        /* \"#utility.yul\":2131:2250   */\n      iszero\n      tag_143\n      jumpi\n        /* \"#utility.yul\":2169:2248   */\n      tag_144\n      tag_80\n      jump\t// in\n    tag_144:\n        /* \"#utility.yul\":2131:2250   */\n    tag_143:\n        /* \"#utility.yul\":2289:2290   */\n      0x00\n        /* \"#utility.yul\":2314:2367   */\n      tag_145\n        /* \"#utility.yul\":2359:2366   */\n      dup5\n        /* \"#utility.yul\":2350:2356   */\n      dup3\n        /* \"#utility.yul\":2339:2348   */\n      dup6\n        /* \"#utility.yul\":2335:2357   */\n      add\n        /* \"#utility.yul\":2314:2367   */\n      tag_83\n      jump\t// in\n    tag_145:\n        /* \"#utility.yul\":2304:2367   */\n      swap2\n      pop\n        /* \"#utility.yul\":2260:2377   */\n      pop\n        /* \"#utility.yul\":2055:2384   */\n      swap3\n      swap2\n      pop\n      pop\n      jump\t// out\n        /* \"#utility.yul\":2390:2507   */\n    tag_84:\n        /* \"#utility.yul\":2499:2500   */\n      0x00\n        /* \"#utility.yul\":2496:2497   */\n      dup1\n        /* \"#utility.yul\":2489:2501   */\n      revert\n        /* \"#utility.yul\":2513:2630   */\n    tag_85:\n        /* \"#utility.yul\":2622:2623   */\n      0x00\n        /* \"#utility.yul\":2619:2620   */\n      dup1\n        /* \"#utility.yul\":2612:2624   */\n      revert\n        /* \"#utility.yul\":2636:2738   */\n    tag_86:\n        /* \"#utility.yul\":2677:2683   */\n      0x00\n        /* \"#utility.yul\":2728:2730   */\n      0x1f\n        /* \"#utility.yul\":2724:2731   */\n      not\n        /* \"#utility.yul\":2719:2721   */\n      0x1f\n        /* \"#utility.yul\":2712:2717   */\n      dup4\n        /* \"#utility.yul\":2708:2722   */\n      add\n        /* \"#utility.yul\":2704:2732   */\n      and\n        /* \"#utility.yul\":2694:2732   */\n      swap1\n      pop\n        /* \"#utility.yul\":2636:2738   */\n      swap2\n      swap1\n      pop\n      jump\t// out\n        /* \"#utility.yul\":2744:2924   */\n    tag_87:\n        /* \"#utility.yul\":2792:2869   */\n      0x4e487b7100000000000000000000000000000000000000000000000000000000\n        /* \"#utility.yul\":2789:2790   */\n      0x00\n        /* \"#utility.yul\":2782:2870   */\n      mstore\n        /* \"#utility.yul\":2889:2893   */\n      0x41\n        /* \"#utility.yul\":2886:2887   */\n      0x04\n        /* \"#utility.yul\":2879:2894   */\n      mstore\n        /* \"#utility.yul\":2913:2917   */\n      0x24\n        /* \"#utility.yul\":2910:2911   */\n      0x00\n        /* \"#utility.yul\":2903:2918   */\n      revert\n        /* \"#utility.yul\":2930:3211   */\n    tag_88:\n        /* \"#utility.yul\":3013:3040   */\n      tag_151\n        /* \"#utility.yul\":3035:3039   */\n      dup3\n        /* \"#utility.yul\":3013:3040   */\n      tag_86\n      jump\t// in\n    tag_151:\n        /* \"#utility.yul\":3005:3011   */\n      dup2\n        /* \"#utility.yul\":3001:3041   */\n      add\n        /* \"#utility.yul\":3143:3149   */\n      dup2\n        /* \"#utility.yul\":3131:3141   */\n      dup2\n        /* \"#utility.yul\":3128:3150   */\n      lt\n        /* \"#utility.yul\":3107:3125   */\n      0xffffffffffffffff\n        /* \"#utility.yul\":3095:3105   */\n      dup3\n        /* \"#utility.yul\":3092:3126   */\n      gt\n        /* \"#utility.yul\":3089:3151   */\n      or\n        /* \"#utility.yul\":3086:3174   */\n      iszero\n      tag_152\n      jumpi\n        /* \"#utility.yul\":3154:3172   */\n      tag_153\n      tag_87\n      jump\t// in\n    tag_153:\n        /* \"#utility.yul\":3086:3174   */\n    tag_152:\n        /* \"#utility.yul\":3194:3204   */\n      dup1\n        /* \"#utility.yul\":3190:3192   */\n      0x40\n        /* \"#utility.yul\":3183:3205   */\n      mstore\n        /* \"#utility.yul\":2973:3211   */\n      pop\n        /* \"#utility.yul\":2930:3211   */\n      pop\n      pop\n      jump\t// out\n        /* \"#utility.yul\":3217:3346   */\n    tag_89:\n        /* \"#utility.yul\":3251:3257   */\n      0x00\n        /* \"#utility.yul\":3278:3298   */\n      tag_155\n      tag_79\n      jump\t// in\n    tag_155:\n        /* \"#utility.yul\":3268:3298   */\n      swap1\n      pop\n        /* \"#utility.yul\":3307:3340   */\n      tag_156\n        /* \"#utility.yul\":3335:3339   */\n      dup3\n        /* \"#utility.yul\":3327:3333   */\n      dup3\n        /* \"#utility.yul\":3307:3340   */\n      tag_88\n      jump\t// in\n    tag_156:\n        /* \"#utility.yul\":3217:3346   */\n      swap2\n      swap1\n      pop\n      jump\t// out\n        /* \"#utility.yul\":3352:3660   */\n    tag_90:\n        /* \"#utility.yul\":3414:3418   */\n      0x00\n        /* \"#utility.yul\":3504:3522   */\n      0xffffffffffffffff\n        /* \"#utility.yul\":3496:3502   */\n      dup3\n        /* \"#utility.yul\":3493:3523   */\n      gt\n        /* \"#utility.yul\":3490:3546   */\n      iszero\n      tag_158\n      jumpi\n        /* \"#utility.yul\":3526:3544   */\n      tag_159\n      tag_87\n      jump\t// in\n    tag_159:\n        /* \"#utility.yul\":3490:3546   */\n    tag_158:\n        /* \"#utility.yul\":3564:3593   */\n      tag_160\n        /* \"#utility.yul\":3586:3592   */\n      dup3\n        /* \"#utility.yul\":3564:3593   */\n      tag_86\n      jump\t// in\n    tag_160:\n        /* \"#utility.yul\":3556:3593   */\n      swap1\n      pop\n        /* \"#utility.yul\":3648:3652   */\n      0x20\n        /* \"#utility.yul\":3642:3646   */\n      dup2\n        /* \"#utility.yul\":3638:3653   */\n      add\n        /* \"#utility.yul\":3630:3653   */\n      swap1\n      pop\n        /* \"#utility.yul\":3352:3660   */\n      swap2\n      swap1\n      pop\n      jump\t// out\n        /* \"#utility.yul\":3666:3812   */\n    tag_91:\n        /* \"#utility.yul\":3763:3769   */\n      dup3\n        /* \"#utility.yul\":3758:3761   */\n      dup2\n        /* \"#utility.yul\":3753:3756   */\n      dup4\n        /* \"#utility.yul\":3740:3770   */\n      calldatacopy\n        /* \"#utility.yul\":3804:3805   */\n      0x00\n        /* \"#utility.yul\":3795:3801   */\n      dup4\n        /* \"#utility.yul\":3790:3793   */\n      dup4\n        /* \"#utility.yul\":3786:3802   */\n      add\n        /* \"#utility.yul\":3779:3806   */\n      mstore\n        /* \"#utility.yul\":3666:3812   */\n      pop\n      pop\n      pop\n      jump\t// out\n        /* \"#utility.yul\":3818:4243   */\n    tag_92:\n        /* \"#utility.yul\":3896:3901   */\n      0x00\n        /* \"#utility.yul\":3921:3987   */\n      tag_163\n        /* \"#utility.yul\":3937:3986   */\n      tag_164\n        /* \"#utility.yul\":3979:3985   */\n      dup5\n        /* \"#utility.yul\":3937:3986   */\n      tag_90\n      jump\t// in\n    tag_164:\n        /* \"#utility.yul\":3921:3987   */\n      tag_89\n      jump\t// in\n    tag_163:\n        /* \"#utility.yul\":3912:3987   */\n      swap1\n      pop\n        /* \"#utility.yul\":4010:4016   */\n      dup3\n        /* \"#utility.yul\":4003:4008   */\n      dup2\n        /* \"#utility.yul\":3996:4017   */\n      mstore\n        /* \"#utility.yul\":4048:4052   */\n      0x20\n        /* \"#utility.yul\":4041:4046   */\n      dup2\n        /* \"#utility.yul\":4037:4053   */\n      add\n        /* \"#utility.yul\":4086:4089   */\n      dup5\n        /* \"#utility.yul\":4077:4083   */\n      dup5\n        /* \"#utility.yul\":4072:4075   */\n      dup5\n        /* \"#utility.yul\":4068:4084   */\n      add\n        /* \"#utility.yul\":4065:4090   */\n      gt\n        /* \"#utility.yul\":4062:4174   */\n      iszero\n      tag_165\n      jumpi\n        /* \"#utility.yul\":4093:4172   */\n      tag_166\n      tag_85\n      jump\t// in\n    tag_166:\n        /* \"#utility.yul\":4062:4174   */\n    tag_165:\n        /* \"#utility.yul\":4183:4237   */\n      tag_167\n        /* \"#utility.yul\":4230:4236   */\n      dup5\n        /* \"#utility.yul\":4225:4228   */\n      dup3\n        /* \"#utility.yul\":4220:4223   */\n      dup6\n        /* \"#utility.yul\":4183:4237   */\n      tag_91\n      jump\t// in\n    tag_167:\n        /* \"#utility.yul\":3902:4243   */\n      pop\n        /* \"#utility.yul\":3818:4243   */\n      swap4\n      swap3\n      pop\n      pop\n      pop\n      jump\t// out\n        /* \"#utility.yul\":4263:4603   */\n    tag_93:\n        /* \"#utility.yul\":4319:4324   */\n      0x00\n        /* \"#utility.yul\":4368:4371   */\n      dup3\n        /* \"#utility.yul\":4361:4365   */\n      0x1f\n        /* \"#utility.yul\":4353:4359   */\n      dup4\n        /* \"#utility.yul\":4349:4366   */\n      add\n        /* \"#utility.yul\":4345:4372   */\n      slt\n        /* \"#utility.yul\":4335:4457   */\n      tag_169\n      jumpi\n        /* \"#utility.yul\":4376:4455   */\n      tag_170\n      tag_84\n      jump\t// in\n    tag_170:\n        /* \"#utility.yul\":4335:4457   */\n    tag_169:\n        /* \"#utility.yul\":4493:4499   */\n      dup2\n        /* \"#utility.yul\":4480:4500   */\n      calldataload\n        /* \"#utility.yul\":4518:4597   */\n      tag_171\n        /* \"#utility.yul\":4593:4596   */\n      dup5\n        /* \"#utility.yul\":4585:4591   */\n      dup3\n        /* \"#utility.yul\":4578:4582   */\n      0x20\n        /* \"#utility.yul\":4570:4576   */\n      dup7\n        /* \"#utility.yul\":4566:4583   */\n      add\n        /* \"#utility.yul\":4518:4597   */\n      tag_92\n      jump\t// in\n    tag_171:\n        /* \"#utility.yul\":4509:4597   */\n      swap2\n      pop\n        /* \"#utility.yul\":4325:4603   */\n      pop\n        /* \"#utility.yul\":4263:4603   */\n      swap3\n      swap2\n      pop\n      pop\n      jump\t// out\n        /* \"#utility.yul\":4609:5443   */\n    tag_33:\n        /* \"#utility.yul\":4697:4703   */\n      0x00\n        /* \"#utility.yul\":4705:4711   */\n      dup1\n        /* \"#utility.yul\":4754:4756   */\n      0x40\n        /* \"#utility.yul\":4742:4751   */\n      dup4\n        /* \"#utility.yul\":4733:4740   */\n      dup6\n        /* \"#utility.yul\":4729:4752   */\n      sub\n        /* \"#utility.yul\":4725:4757   */\n      slt\n        /* \"#utility.yul\":4722:4841   */\n      iszero\n      tag_173\n      jumpi\n        /* \"#utility.yul\":4760:4839   */\n      tag_174\n      tag_80\n      jump\t// in\n    tag_174:\n        /* \"#utility.yul\":4722:4841   */\n    tag_173:\n        /* \"#utility.yul\":4908:4909   */\n      0x00\n        /* \"#utility.yul\":4897:4906   */\n      dup4\n        /* \"#utility.yul\":4893:4910   */\n      add\n        /* \"#utility.yul\":4880:4911   */\n      calldataload\n        /* \"#utility.yul\":4938:4956   */\n      0xffffffffffffffff\n        /* \"#utility.yul\":4930:4936   */\n      dup2\n        /* \"#utility.yul\":4927:4957   */\n      gt\n        /* \"#utility.yul\":4924:5041   */\n      iszero\n      tag_175\n      jumpi\n        /* \"#utility.yul\":4960:5039   */\n      tag_176\n      tag_81\n      jump\t// in\n    tag_176:\n        /* \"#utility.yul\":4924:5041   */\n    tag_175:\n        /* \"#utility.yul\":5065:5128   */\n      tag_177\n        /* \"#utility.yul\":5120:5127   */\n      dup6\n        /* \"#utility.yul\":5111:5117   */\n      dup3\n        /* \"#utility.yul\":5100:5109   */\n      dup7\n        /* \"#utility.yul\":5096:5118   */\n      add\n        /* \"#utility.yul\":5065:5128   */\n      tag_93\n      jump\t// in\n    tag_177:\n        /* \"#utility.yul\":5055:5128   */\n      swap3\n      pop\n        /* \"#utility.yul\":4851:5138   */\n      pop\n        /* \"#utility.yul\":5205:5207   */\n      0x20\n        /* \"#utility.yul\":5194:5203   */\n      dup4\n        /* \"#utility.yul\":5190:5208   */\n      add\n        /* \"#utility.yul\":5177:5209   */\n      calldataload\n        /* \"#utility.yul\":5236:5254   */\n      0xffffffffffffffff\n        /* \"#utility.yul\":5228:5234   */\n      dup2\n        /* \"#utility.yul\":5225:5255   */\n      gt\n        /* \"#utility.yul\":5222:5339   */\n      iszero\n      tag_178\n      jumpi\n        /* \"#utility.yul\":5258:5337   */\n      tag_179\n      tag_81\n      jump\t// in\n    tag_179:\n        /* \"#utility.yul\":5222:5339   */\n    tag_178:\n        /* \"#utility.yul\":5363:5426   */\n      tag_180\n        /* \"#utility.yul\":5418:5425   */\n      dup6\n        /* \"#utility.yul\":5409:5415   */\n      dup3\n        /* \"#utility.yul\":5398:5407   */\n      dup7\n        /* \"#utility.yul\":5394:5416   */\n      add\n        /* \"#utility.yul\":5363:5426   */\n      tag_93\n      jump\t// in\n    tag_180:\n        /* \"#utility.yul\":5353:5426   */\n      swap2\n      pop\n        /* \"#utility.yul\":5148:5436   */\n      pop\n        /* \"#utility.yul\":4609:5443   */\n      swap3\n      pop\n      swap3\n      swap1\n      pop\n      jump\t// out\n        /* \"#utility.yul\":5449:5571   */\n    tag_94:\n        /* \"#utility.yul\":5522:5546   */\n      tag_182\n        /* \"#utility.yul\":5540:5545   */\n      dup2\n        /* \"#utility.yul\":5522:5546   */\n      tag_77\n      jump\t// in\n    tag_182:\n        /* \"#utility.yul\":5515:5520   */\n      dup2\n        /* \"#utility.yul\":5512:5547   */\n      eq\n        /* \"#utility.yul\":5502:5565   */\n      tag_183\n      jumpi\n        /* \"#utility.yul\":5561:5562   */\n      0x00\n        /* \"#utility.yul\":5558:5559   */\n      dup1\n        /* \"#utility.yul\":5551:5563   */\n      revert\n        /* \"#utility.yul\":5502:5565   */\n    tag_183:\n        /* \"#utility.yul\":5449:5571   */\n      pop\n      jump\t// out\n        /* \"#utility.yul\":5577:5716   */\n    tag_95:\n        /* \"#utility.yul\":5623:5628   */\n      0x00\n        /* \"#utility.yul\":5661:5667   */\n      dup2\n        /* \"#utility.yul\":5648:5668   */\n      calldataload\n        /* \"#utility.yul\":5639:5668   */\n      swap1\n      pop\n        /* \"#utility.yul\":5677:5710   */\n      tag_185\n        /* \"#utility.yul\":5704:5709   */\n      dup2\n        /* \"#utility.yul\":5677:5710   */\n      tag_94\n      jump\t// in\n    tag_185:\n        /* \"#utility.yul\":5577:5716   */\n      swap3\n      swap2\n      pop\n      pop\n      jump\t// out\n        /* \"#utility.yul\":5722:6051   */\n    tag_38:\n        /* \"#utility.yul\":5781:5787   */\n      0x00\n        /* \"#utility.yul\":5830:5832   */\n      0x20\n        /* \"#utility.yul\":5818:5827   */\n      dup3\n        /* \"#utility.yul\":5809:5816   */\n      dup5\n        /* \"#utility.yul\":5805:5828   */\n      sub\n        /* \"#utility.yul\":5801:5833   */\n      slt\n        /* \"#utility.yul\":5798:5917   */\n      iszero\n      tag_187\n      jumpi\n        /* \"#utility.yul\":5836:5915   */\n      tag_188\n      tag_80\n      jump\t// in\n    tag_188:\n        /* \"#utility.yul\":5798:5917   */\n    tag_187:\n        /* \"#utility.yul\":5956:5957   */\n      0x00\n        /* \"#utility.yul\":5981:6034   */\n      tag_189\n        /* \"#utility.yul\":6026:6033   */\n      dup5\n        /* \"#utility.yul\":6017:6023   */\n      dup3\n        /* \"#utility.yul\":6006:6015   */\n      dup6\n        /* \"#utility.yul\":6002:6024   */\n      add\n        /* \"#utility.yul\":5981:6034   */\n      tag_95\n      jump\t// in\n    tag_189:\n        /* \"#utility.yul\":5971:6034   */\n      swap2\n      pop\n        /* \"#utility.yul\":5927:6044   */\n      pop\n        /* \"#utility.yul\":5722:6051   */\n      swap3\n      swap2\n      pop\n      pop\n      jump\t// out\n        /* \"#utility.yul\":6057:6156   */\n    tag_96:\n        /* \"#utility.yul\":6109:6115   */\n      0x00\n        /* \"#utility.yul\":6143:6148   */\n      dup2\n        /* \"#utility.yul\":6137:6149   */\n      mload\n        /* \"#utility.yul\":6127:6149   */\n      swap1\n      pop\n        /* \"#utility.yul\":6057:6156   */\n      swap2\n      swap1\n      pop\n      jump\t// out\n        /* \"#utility.yul\":6162:6331   */\n    tag_97:\n        /* \"#utility.yul\":6246:6257   */\n      0x00\n        /* \"#utility.yul\":6280:6286   */\n      dup3\n        /* \"#utility.yul\":6275:6278   */\n      dup3\n        /* \"#utility.yul\":6268:6287   */\n      mstore\n        /* \"#utility.yul\":6320:6324   */\n      0x20\n        /* \"#utility.yul\":6315:6318   */\n      dup3\n        /* \"#utility.yul\":6311:6325   */\n      add\n        /* \"#utility.yul\":6296:6325   */\n      swap1\n      pop\n        /* \"#utility.yul\":6162:6331   */\n      swap3\n      swap2\n      pop\n      pop\n      jump\t// out\n        /* \"#utility.yul\":6337:6583   */\n    tag_98:\n        /* \"#utility.yul\":6418:6419   */\n      0x00\n        /* \"#utility.yul\":6428:6541   */\n    tag_193:\n        /* \"#utility.yul\":6442:6448   */\n      dup4\n        /* \"#utility.yul\":6439:6440   */\n      dup2\n        /* \"#utility.yul\":6436:6449   */\n      lt\n        /* \"#utility.yul\":6428:6541   */\n      iszero\n      tag_195\n      jumpi\n        /* \"#utility.yul\":6527:6528   */\n      dup1\n        /* \"#utility.yul\":6522:6525   */\n      dup3\n        /* \"#utility.yul\":6518:6529   */\n      add\n        /* \"#utility.yul\":6512:6530   */\n      mload\n        /* \"#utility.yul\":6508:6509   */\n      dup2\n        /* \"#utility.yul\":6503:6506   */\n      dup5\n        /* \"#utility.yul\":6499:6510   */\n      add\n        /* \"#utility.yul\":6492:6531   */\n      mstore\n        /* \"#utility.yul\":6464:6466   */\n      0x20\n        /* \"#utility.yul\":6461:6462   */\n      dup2\n        /* \"#utility.yul\":6457:6467   */\n      add\n        /* \"#utility.yul\":6452:6467   */\n      swap1\n      pop\n        /* \"#utility.yul\":6428:6541   */\n      jump(tag_193)\n    tag_195:\n        /* \"#utility.yul\":6575:6576   */\n      0x00\n        /* \"#utility.yul\":6566:6572   */\n      dup5\n        /* \"#utility.yul\":6561:6564   */\n      dup5\n        /* \"#utility.yul\":6557:6573   */\n      add\n        /* \"#utility.yul\":6550:6577   */\n      mstore\n        /* \"#utility.yul\":6399:6583   */\n      pop\n        /* \"#utility.yul\":6337:6583   */\n      pop\n      pop\n      pop\n      jump\t// out\n        /* \"#utility.yul\":6589:6966   */\n    tag_99:\n        /* \"#utility.yul\":6677:6680   */\n      0x00\n        /* \"#utility.yul\":6705:6744   */\n      tag_197\n        /* \"#utility.yul\":6738:6743   */\n      dup3\n        /* \"#utility.yul\":6705:6744   */\n      tag_96\n      jump\t// in\n    tag_197:\n        /* \"#utility.yul\":6760:6831   */\n      tag_198\n        /* \"#utility.yul\":6824:6830   */\n      dup2\n        /* \"#utility.yul\":6819:6822   */\n      dup6\n        /* \"#utility.yul\":6760:6831   */\n      tag_97\n      jump\t// in\n    tag_198:\n        /* \"#utility.yul\":6753:6831   */\n      swap4\n      pop\n        /* \"#utility.yul\":6840:6905   */\n      tag_199\n        /* \"#utility.yul\":6898:6904   */\n      dup2\n        /* \"#utility.yul\":6893:6896   */\n      dup6\n        /* \"#utility.yul\":6886:6890   */\n      0x20\n        /* \"#utility.yul\":6879:6884   */\n      dup7\n        /* \"#utility.yul\":6875:6891   */\n      add\n        /* \"#utility.yul\":6840:6905   */\n      tag_98\n      jump\t// in\n    tag_199:\n        /* \"#utility.yul\":6930:6959   */\n      tag_200\n        /* \"#utility.yul\":6952:6958   */\n      dup2\n        /* \"#utility.yul\":6930:6959   */\n      tag_86\n      jump\t// in\n    tag_200:\n        /* \"#utility.yul\":6925:6928   */\n      dup5\n        /* \"#utility.yul\":6921:6960   */\n      add\n        /* \"#utility.yul\":6914:6960   */\n      swap2\n      pop\n        /* \"#utility.yul\":6681:6966   */\n      pop\n        /* \"#utility.yul\":6589:6966   */\n      swap3\n      swap2\n      pop\n      pop\n      jump\t// out\n        /* \"#utility.yul\":6972:7285   */\n    tag_45:\n        /* \"#utility.yul\":7085:7089   */\n      0x00\n        /* \"#utility.yul\":7123:7125   */\n      0x20\n        /* \"#utility.yul\":7112:7121   */\n      dup3\n        /* \"#utility.yul\":7108:7126   */\n      add\n        /* \"#utility.yul\":7100:7126   */\n      swap1\n      pop\n        /* \"#utility.yul\":7172:7181   */\n      dup2\n        /* \"#utility.yul\":7166:7170   */\n      dup2\n        /* \"#utility.yul\":7162:7182   */\n      sub\n        /* \"#utility.yul\":7158:7159   */\n      0x00\n        /* \"#utility.yul\":7147:7156   */\n      dup4\n        /* \"#utility.yul\":7143:7160   */\n      add\n        /* \"#utility.yul\":7136:7183   */\n      mstore\n        /* \"#utility.yul\":7200:7278   */\n      tag_202\n        /* \"#utility.yul\":7273:7277   */\n      dup2\n        /* \"#utility.yul\":7264:7270   */\n      dup5\n        /* \"#utility.yul\":7200:7278   */\n      tag_99\n      jump\t// in\n    tag_202:\n        /* \"#utility.yul\":7192:7278   */\n      swap1\n      pop\n        /* \"#utility.yul\":6972:7285   */\n      swap3\n      swap2\n      pop\n      pop\n      jump\t// out\n        /* \"#utility.yul\":7291:7471   */\n    tag_100:\n        /* \"#utility.yul\":7339:7416   */\n      0x4e487b7100000000000000000000000000000000000000000000000000000000\n        /* \"#utility.yul\":7336:7337   */\n      0x00\n        /* \"#utility.yul\":7329:7417   */\n      mstore\n        /* \"#utility.yul\":7436:7440   */\n      0x22\n        /* \"#utility.yul\":7433:7434   */\n      0x04\n        /* \"#utility.yul\":7426:7441   */\n      mstore\n        /* \"#utility.yul\":7460:7464   */\n      0x24\n        /* \"#utility.yul\":7457:7458   */\n      0x00\n        /* \"#utility.yul\":7450:7465   */\n      revert\n        /* \"#utility.yul\":7477:7797   */\n    tag_62:\n        /* \"#utility.yul\":7521:7527   */\n      0x00\n        /* \"#utility.yul\":7558:7559   */\n      0x02\n        /* \"#utility.yul\":7552:7556   */\n      dup3\n        /* \"#utility.yul\":7548:7560   */\n      div\n        /* \"#utility.yul\":7538:7560   */\n      swap1\n      pop\n        /* \"#utility.yul\":7605:7606   */\n      0x01\n        /* \"#utility.yul\":7599:7603   */\n      dup3\n        /* \"#utility.yul\":7595:7607   */\n      and\n        /* \"#utility.yul\":7626:7644   */\n      dup1\n        /* \"#utility.yul\":7616:7697   */\n      tag_205\n      jumpi\n        /* \"#utility.yul\":7682:7686   */\n      0x7f\n        /* \"#utility.yul\":7674:7680   */\n      dup3\n        /* \"#utility.yul\":7670:7687   */\n      and\n        /* \"#utility.yul\":7660:7687   */\n      swap2\n      pop\n        /* \"#utility.yul\":7616:7697   */\n    tag_205:\n        /* \"#utility.yul\":7744:7746   */\n      0x20\n        /* \"#utility.yul\":7736:7742   */\n      dup3\n        /* \"#utility.yul\":7733:7747   */\n      lt\n        /* \"#utility.yul\":7713:7731   */\n      dup2\n        /* \"#utility.yul\":7710:7748   */\n      sub\n        /* \"#utility.yul\":7707:7791   */\n      tag_206\n      jumpi\n        /* \"#utility.yul\":7763:7781   */\n      tag_207\n      tag_100\n      jump\t// in\n    tag_207:\n        /* \"#utility.yul\":7707:7791   */\n    tag_206:\n        /* \"#utility.yul\":7528:7797   */\n      pop\n        /* \"#utility.yul\":7477:7797   */\n      swap2\n      swap1\n      pop\n      jump\t// out\n        /* \"#utility.yul\":7803:7944   */\n    tag_101:\n        /* \"#utility.yul\":7852:7856   */\n      0x00\n        /* \"#utility.yul\":7875:7878   */\n      dup2\n        /* \"#utility.yul\":7867:7878   */\n      swap1\n      pop\n        /* \"#utility.yul\":7898:7901   */\n      dup2\n        /* \"#utility.yul\":7895:7896   */\n      0x00\n        /* \"#utility.yul\":7888:7902   */\n      mstore\n        /* \"#utility.yul\":7932:7936   */\n      0x20\n        /* \"#utility.yul\":7929:7930   */\n      0x00\n        /* \"#utility.yul\":7919:7937   */\n      keccak256\n        /* \"#utility.yul\":7911:7937   */\n      swap1\n      pop\n        /* \"#utility.yul\":7803:7944   */\n      swap2\n      swap1\n      pop\n      jump\t// out\n        /* \"#utility.yul\":7950:8043   */\n    tag_102:\n        /* \"#utility.yul\":7987:7993   */\n      0x00\n        /* \"#utility.yul\":8034:8036   */\n      0x20\n        /* \"#utility.yul\":8029:8031   */\n      0x1f\n        /* \"#utility.yul\":8022:8027   */\n      dup4\n        /* \"#utility.yul\":8018:8032   */\n      add\n        /* \"#utility.yul\":8014:8037   */\n      div\n        /* \"#utility.yul\":8004:8037   */\n      swap1\n      pop\n        /* \"#utility.yul\":7950:8043   */\n      swap2\n      swap1\n      pop\n      jump\t// out\n        /* \"#utility.yul\":8049:8156   */\n    tag_103:\n        /* \"#utility.yul\":8093:8101   */\n      0x00\n        /* \"#utility.yul\":8143:8148   */\n      dup3\n        /* \"#utility.yul\":8137:8141   */\n      dup3\n        /* \"#utility.yul\":8133:8149   */\n      shl\n        /* \"#utility.yul\":8112:8149   */\n      swap1\n      pop\n        /* \"#utility.yul\":8049:8156   */\n      swap3\n      swap2\n      pop\n      pop\n      jump\t// out\n        /* \"#utility.yul\":8162:8555   */\n    tag_104:\n        /* \"#utility.yul\":8231:8237   */\n      0x00\n        /* \"#utility.yul\":8281:8282   */\n      0x08\n        /* \"#utility.yul\":8269:8279   */\n      dup4\n        /* \"#utility.yul\":8265:8283   */\n      mul\n        /* \"#utility.yul\":8304:8401   */\n      tag_212\n        /* \"#utility.yul\":8334:8400   */\n      0xffffffffffffffffffffffffffffffffffffffffffffffffffffffffffffffff\n        /* \"#utility.yul\":8323:8332   */\n      dup3\n        /* \"#utility.yul\":8304:8401   */\n      tag_103\n      jump\t// in\n    tag_212:\n        /* \"#utility.yul\":8422:8461   */\n      tag_213\n        /* \"#utility.yul\":8452:8460   */\n      dup7\n        /* \"#utility.yul\":8441:8450   */\n      dup4\n        /* \"#utility.yul\":8422:8461   */\n      tag_103\n      jump\t// in\n    tag_213:\n        /* \"#utility.yul\":8410:8461   */\n      swap6\n      pop\n        /* \"#utility.yul\":8494:8498   */\n      dup1\n        /* \"#utility.yul\":8490:8499   */\n      not\n        /* \"#utility.yul\":8483:8488   */\n      dup5\n        /* \"#utility.yul\":8479:8500   */\n      and\n        /* \"#utility.yul\":8470:8500   */\n      swap4\n      pop\n        /* \"#utility.yul\":8543:8547   */\n      dup1\n        /* \"#utility.yul\":8533:8541   */\n      dup7\n        /* \"#utility.yul\":8529:8548   */\n      and\n        /* \"#utility.yul\":8522:8527   */\n      dup5\n        /* \"#utility.yul\":8519:8549   */\n      or\n        /* \"#utility.yul\":8509:8549   */\n      swap3\n      pop\n        /* \"#utility.yul\":8238:8555   */\n      pop\n      pop\n        /* \"#utility.yul\":8162:8555   */\n      swap4\n      swap3\n      pop\n      pop\n      pop\n      jump\t// out\n        /* \"#utility.yul\":8561:8621   */\n    tag_105:\n        /* \"#utility.yul\":8589:8592   */\n      0x00\n        /* \"#utility.yul\":8610:8615   */\n      dup2\n        /* \"#utility.yul\":8603:8615   */\n      swap1\n      pop\n        /* \"#utility.yul\":8561:8621   */\n      swap2\n      swap1\n      pop\n      jump\t// out\n        /* \"#utility.yul\":8627:8769   */\n    tag_106:\n        /* \"#utility.yul\":8677:8686   */\n      0x00\n        /* \"#utility.yul\":8710:8763   */\n      tag_216\n        /* \"#utility.yul\":8728:8762   */\n      tag_217\n        /* \"#utility.yul\":8737:8761   */\n      tag_218\n        /* \"#utility.yul\":8755:8760   */\n      dup5\n        /* \"#utility.yul\":8737:8761   */\n      tag_74\n      jump\t// in\n    tag_218:\n        /* \"#utility.yul\":8728:8762   */\n      tag_105\n      jump\t// in\n    tag_217:\n        /* \"#utility.yul\":8710:8763   */\n      tag_74\n      jump\t// in\n    tag_216:\n        /* \"#utility.yul\":8697:8763   */\n      swap1\n      pop\n        /* \"#utility.yul\":8627:8769   */\n      swap2\n      swap1\n      pop\n      jump\t// out\n        /* \"#utility.yul\":8775:8850   */\n    tag_107:\n        /* \"#utility.yul\":8818:8821   */\n      0x00\n        /* \"#utility.yul\":8839:8844   */\n      dup2\n        /* \"#utility.yul\":8832:8844   */\n      swap1\n      pop\n        /* \"#utility.yul\":8775:8850   */\n      swap2\n      swap1\n      pop\n      jump\t// out\n        /* \"#utility.yul\":8856:9125   */\n    tag_108:\n        /* \"#utility.yul\":8966:9005   */\n      tag_221\n        /* \"#utility.yul\":8997:9004   */\n      dup4\n        /* \"#utility.yul\":8966:9005   */\n      tag_106\n      jump\t// in\n    tag_221:\n        /* \"#utility.yul\":9027:9118   */\n      tag_222\n        /* \"#utility.yul\":9076:9117   */\n      tag_223\n        /* \"#utility.yul\":9100:9116   */\n      dup3\n        /* \"#utility.yul\":9076:9117   */\n      tag_107\n      jump\t// in\n    tag_223:\n        /* \"#utility.yul\":9068:9074   */\n      dup5\n        /* \"#utility.yul\":9061:9065   */\n      dup5\n        /* \"#utility.yul\":9055:9066   */\n      sload\n        /* \"#utility.yul\":9027:9118   */\n      tag_104\n      jump\t// in\n    tag_222:\n        /* \"#utility.yul\":9021:9025   */\n      dup3\n        /* \"#utility.yul\":9014:9119   */\n      sstore\n        /* \"#utility.yul\":8932:9125   */\n      pop\n        /* \"#utility.yul\":8856:9125   */\n      pop\n      pop\n      pop\n      jump\t// out\n        /* \"#utility.yul\":9131:9204   */\n    tag_109:\n        /* \"#utility.yul\":9176:9179   */\n      0x00\n        /* \"#utility.yul\":9131:9204   */\n      swap1\n      jump\t// out\n        /* \"#utility.yul\":9210:9399   */\n    tag_110:\n        /* \"#utility.yul\":9287:9319   */\n      tag_226\n      tag_109\n      jump\t// in\n    tag_226:\n        /* \"#utility.yul\":9328:9393   */\n      tag_227\n        /* \"#utility.yul\":9386:9392   */\n      dup2\n        /* \"#utility.yul\":9378:9384   */\n      dup5\n        /* \"#utility.yul\":9372:9376   */\n      dup5\n        /* \"#utility.yul\":9328:9393   */\n      tag_108\n      jump\t// in\n    tag_227:\n        /* \"#utility.yul\":9263:9399   */\n      pop\n        /* \"#utility.yul\":9210:9399   */\n      pop\n      pop\n      jump\t// out\n        /* \"#utility.yul\":9405:9591   */\n    tag_111:\n        /* \"#utility.yul\":9465:9585   */\n    tag_229:\n        /* \"#utility.yul\":9482:9485   */\n      dup2\n        /* \"#utility.yul\":9475:9480   */\n      dup2\n        /* \"#utility.yul\":9472:9486   */\n      lt\n        /* \"#utility.yul\":9465:9585   */\n      iszero\n      tag_231\n      jumpi\n        /* \"#utility.yul\":9536:9575   */\n      tag_232\n        /* \"#utility.yul\":9573:9574   */\n      0x00\n        /* \"#utility.yul\":9566:9571   */\n      dup3\n        /* \"#utility.yul\":9536:9575   */\n      tag_110\n      jump\t// in\n    tag_232:\n        /* \"#utility.yul\":9509:9510   */\n      0x01\n        /* \"#utility.yul\":9502:9507   */\n      dup2\n        /* \"#utility.yul\":9498:9511   */\n      add\n        /* \"#utility.yul\":9489:9511   */\n      swap1\n      pop\n        /* \"#utility.yul\":9465:9585   */\n      jump(tag_229)\n    tag_231:\n        /* \"#utility.yul\":9405:9591   */\n      pop\n      pop\n      jump\t// out\n        /* \"#utility.yul\":9597:10140   */\n    tag_112:\n        /* \"#utility.yul\":9698:9700   */\n      0x1f\n        /* \"#utility.yul\":9693:9696   */\n      dup3\n        /* \"#utility.yul\":9690:9701   */\n      gt\n        /* \"#utility.yul\":9687:10133   */\n      iszero\n      tag_234\n      jumpi\n        /* \"#utility.yul\":9732:9770   */\n      tag_235\n        /* \"#utility.yul\":9764:9769   */\n      dup2\n        /* \"#utility.yul\":9732:9770   */\n      tag_101\n      jump\t// in\n    tag_235:\n        /* \"#utility.yul\":9816:9845   */\n      tag_236\n        /* \"#utility.yul\":9834:9844   */\n      dup5\n        /* \"#utility.yul\":9816:9845   */\n      tag_102\n      jump\t// in\n    tag_236:\n        /* \"#utility.yul\":9806:9814   */\n      dup2\n        /* \"#utility.yul\":9802:9846   */\n      add\n        /* \"#utility.yul\":9999:10001   */\n      0x20\n        /* \"#utility.yul\":9987:9997   */\n      dup6\n        /* \"#utility.yul\":9984:10002   */\n      lt\n        /* \"#utility.yul\":9981:10030   */\n      iszero\n      tag_237\n      jumpi\n        /* \"#utility.yul\":10020:10028   */\n      dup2\n        /* \"#utility.yul\":10005:10028   */\n      swap1\n      pop\n        /* \"#utility.yul\":9981:10030   */\n    tag_237:\n        /* \"#utility.yul\":10043:10123   */\n      tag_238\n        /* \"#utility.yul\":10099:10121   */\n      tag_239\n        /* \"#utility.yul\":10117:10120   */\n      dup6\n        /* \"#utility.yul\":10099:10121   */\n      tag_102\n      jump\t// in\n    tag_239:\n        /* \"#utility.yul\":10089:10097   */\n      dup4\n        /* \"#utility.yul\":10085:10122   */\n      add\n        /* \"#utility.yul\":10072:10083   */\n      dup3\n        /* \"#utility.yul\":10043:10123   */\n      tag_111\n      jump\t// in\n    tag_238:\n        /* \"#utility.yul\":9702:10133   */\n      pop\n      pop\n        /* \"#utility.yul\":9687:10133   */\n    tag_234:\n        /* \"#utility.yul\":9597:10140   */\n      pop\n      pop\n      pop\n      jump\t// out\n        /* \"#utility.yul\":10146:10263   */\n    tag_113:\n        /* \"#utility.yul\":10200:10208   */\n      0x00\n        /* \"#utility.yul\":10250:10255   */\n      dup3\n        /* \"#utility.yul\":10244:10248   */\n      dup3\n        /* \"#utility.yul\":10240:10256   */\n      shr\n        /* \"#utility.yul\":10219:10256   */\n      swap1\n      pop\n        /* \"#utility.yul\":10146:10263   */\n      swap3\n      swap2\n      pop\n      pop\n      jump\t// out\n        /* \"#utility.yul\":10269:10438   */\n    tag_114:\n        /* \"#utility.yul\":10313:10319   */\n      0x00\n        /* \"#utility.yul\":10346:10397   */\n      tag_242\n        /* \"#utility.yul\":10394:10395   */\n      0x00\n        /* \"#utility.yul\":10390:10396   */\n      not\n        /* \"#utility.yul\":10382:10387   */\n      dup5\n        /* \"#utility.yul\":10379:10380   */\n      0x08\n        /* \"#utility.yul\":10375:10388   */\n      mul\n        /* \"#utility.yul\":10346:10397   */\n      tag_113\n      jump\t// in\n    tag_242:\n        /* \"#utility.yul\":10342:10398   */\n      not\n        /* \"#utility.yul\":10427:10431   */\n      dup1\n        /* \"#utility.yul\":10421:10425   */\n      dup4\n        /* \"#utility.yul\":10417:10432   */\n      and\n        /* \"#utility.yul\":10407:10432   */\n      swap2\n      pop\n        /* \"#utility.yul\":10320:10438   */\n      pop\n        /* \"#utility.yul\":10269:10438   */\n      swap3\n      swap2\n      pop\n      pop\n      jump\t// out\n        /* \"#utility.yul\":10443:10738   */\n    tag_115:\n        /* \"#utility.yul\":10519:10523   */\n      0x00\n        /* \"#utility.yul\":10665:10694   */\n      tag_244\n        /* \"#utility.yul\":10690:10693   */\n      dup4\n        /* \"#utility.yul\":10684:10688   */\n      dup4\n        /* \"#utility.yul\":10665:10694   */\n      tag_114\n      jump\t// in\n    tag_244:\n        /* \"#utility.yul\":10657:10694   */\n      swap2\n      pop\n        /* \"#utility.yul\":10727:10730   */\n      dup3\n        /* \"#utility.yul\":10724:10725   */\n      0x02\n        /* \"#utility.yul\":10720:10731   */\n      mul\n        /* \"#utility.yul\":10714:10718   */\n      dup3\n        /* \"#utility.yul\":10711:10732   */\n      or\n        /* \"#utility.yul\":10703:10732   */\n      swap1\n      pop\n        /* \"#utility.yul\":10443:10738   */\n      swap3\n      swap2\n      pop\n      pop\n      jump\t// out\n        /* \"#utility.yul\":10743:12138   */\n    tag_57:\n        /* \"#utility.yul\":10860:10897   */\n      tag_246\n        /* \"#utility.yul\":10893:10896   */\n      dup3\n        /* \"#utility.yul\":10860:10897   */\n      tag_96\n      jump\t// in\n    tag_246:\n        /* \"#utility.yul\":10962:10980   */\n      0xffffffffffffffff\n        /* \"#utility.yul\":10954:10960   */\n      dup2\n        /* \"#utility.yul\":10951:10981   */\n      gt\n        /* \"#utility.yul\":10948:11004   */\n      iszero\n      tag_247\n      jumpi\n        /* \"#utility.yul\":10984:11002   */\n      tag_248\n      tag_87\n      jump\t// in\n    tag_248:\n        /* \"#utility.yul\":10948:11004   */\n    tag_247:\n        /* \"#utility.yul\":11028:11066   */\n      tag_249\n        /* \"#utility.yul\":11060:11064   */\n      dup3\n        /* \"#utility.yul\":11054:11065   */\n      sload\n        /* \"#utility.yul\":11028:11066   */\n      tag_62\n      jump\t// in\n    tag_249:\n        /* \"#utility.yul\":11113:11180   */\n      tag_250\n        /* \"#utility.yul\":11173:11179   */\n      dup3\n        /* \"#utility.yul\":11165:11171   */\n      dup3\n        /* \"#utility.yul\":11159:11163   */\n      dup6\n        /* \"#utility.yul\":11113:11180   */\n      tag_112\n      jump\t// in\n    tag_250:\n        /* \"#utility.yul\":11207:11208   */\n      0x00\n        /* \"#utility.yul\":11231:11235   */\n      0x20\n        /* \"#utility.yul\":11218:11235   */\n      swap1\n      pop\n        /* \"#utility.yul\":11263:11265   */\n      0x1f\n        /* \"#utility.yul\":11255:11261   */\n      dup4\n        /* \"#utility.yul\":11252:11266   */\n      gt\n        /* \"#utility.yul\":11280:11281   */\n      0x01\n        /* \"#utility.yul\":11275:11893   */\n      dup2\n      eq\n      tag_252\n      jumpi\n        /* \"#utility.yul\":11937:11938   */\n      0x00\n        /* \"#utility.yul\":11954:11960   */\n      dup5\n        /* \"#utility.yul\":11951:12028   */\n      iszero\n      tag_253\n      jumpi\n        /* \"#utility.yul\":12003:12012   */\n      dup3\n        /* \"#utility.yul\":11998:12001   */\n      dup8\n        /* \"#utility.yul\":11994:12013   */\n      add\n        /* \"#utility.yul\":11988:12014   */\n      mload\n        /* \"#utility.yul\":11979:12014   */\n      swap1\n      pop\n        /* \"#utility.yul\":11951:12028   */\n    tag_253:\n        /* \"#utility.yul\":12054:12121   */\n      tag_254\n        /* \"#utility.yul\":12114:12120   */\n      dup6\n        /* \"#utility.yul\":12107:12112   */\n      dup3\n        /* \"#utility.yul\":12054:12121   */\n      tag_115\n      jump\t// in\n    tag_254:\n        /* \"#utility.yul\":12048:12052   */\n      dup7\n        /* \"#utility.yul\":12041:12122   */\n      sstore\n        /* \"#utility.yul\":11910:12132   */\n      pop\n        /* \"#utility.yul\":11245:12132   */\n      jump(tag_251)\n        /* \"#utility.yul\":11275:11893   */\n    tag_252:\n        /* \"#utility.yul\":11327:11331   */\n      0x1f\n        /* \"#utility.yul\":11323:11332   */\n      not\n        /* \"#utility.yul\":11315:11321   */\n      dup5\n        /* \"#utility.yul\":11311:11333   */\n      and\n        /* \"#utility.yul\":11361:11398   */\n      tag_255\n        /* \"#utility.yul\":11393:11397   */\n      dup7\n        /* \"#utility.yul\":11361:11398   */\n      tag_101\n      jump\t// in\n    tag_255:\n        /* \"#utility.yul\":11420:11421   */\n      0x00\n        /* \"#utility.yul\":11434:11642   */\n    tag_256:\n        /* \"#utility.yul\":11448:11455   */\n      dup3\n        /* \"#utility.yul\":11445:11446   */\n      dup2\n        /* \"#utility.yul\":11442:11456   */\n      lt\n        /* \"#utility.yul\":11434:11642   */\n      iszero\n      tag_258\n      jumpi\n        /* \"#utility.yul\":11527:11536   */\n      dup5\n        /* \"#utility.yul\":11522:11525   */\n      dup10\n        /* \"#utility.yul\":11518:11537   */\n      add\n        /* \"#utility.yul\":11512:11538   */\n      mload\n        /* \"#utility.yul\":11504:11510   */\n      dup3\n        /* \"#utility.yul\":11497:11539   */\n      sstore\n        /* \"#utility.yul\":11578:11579   */\n      0x01\n        /* \"#utility.yul\":11570:11576   */\n      dup3\n        /* \"#utility.yul\":11566:11580   */\n      add\n        /* \"#utility.yul\":11556:11580   */\n      swap2\n      pop\n        /* \"#utility.yul\":11625:11627   */\n      0x20\n        /* \"#utility.yul\":11614:11623   */\n      dup6\n        /* \"#utility.yul\":11610:11628   */\n      add\n        /* \"#utility.yul\":11597:11628   */\n      swap5\n      pop\n        /* \"#utility.yul\":11471:11475   */\n      0x20\n        /* \"#utility.yul\":11468:11469   */\n      dup2\n        /* \"#utility.yul\":11464:11476   */\n      add\n        /* \"#utility.yul\":11459:11476   */\n      swap1\n      pop\n        /* \"#utility.yul\":11434:11642   */\n      jump(tag_256)\n    tag_258:\n        /* \"#utility.yul\":11670:11676   */\n      dup7\n        /* \"#utility.yul\":11661:11668   */\n      dup4\n        /* \"#utility.yul\":11658:11677   */\n      lt\n        /* \"#utility.yul\":11655:11834   */\n      iszero\n      tag_259\n      jumpi\n        /* \"#utility.yul\":11728:11737   */\n      dup5\n        /* \"#utility.yul\":11723:11726   */\n      dup10\n        /* \"#utility.yul\":11719:11738   */\n      add\n        /* \"#utility.yul\":11713:11739   */\n      mload\n        /* \"#utility.yul\":11771:11819   */\n      tag_260\n        /* \"#utility.yul\":11813:11817   */\n      0x1f\n        /* \"#utility.yul\":11805:11811   */\n      dup10\n        /* \"#utility.yul\":11801:11818   */\n      and\n        /* \"#utility.yul\":11790:11799   */\n      dup3\n        /* \"#utility.yul\":11771:11819   */\n      tag_114\n      jump\t// in\n    tag_260:\n        /* \"#utility.yul\":11763:11769   */\n      dup4\n        /* \"#utility.yul\":11756:11820   */\n      sstore\n        /* \"#utility.yul\":11678:11834   */\n      pop\n        /* \"#utility.yul\":11655:11834   */\n    tag_259:\n        /* \"#utility.yul\":11880:11881   */\n      0x01\n        /* \"#utility.yul\":11876:11877   */\n      0x02\n        /* \"#utility.yul\":11868:11874   */\n      dup9\n        /* \"#utility.yul\":11864:11878   */\n      mul\n        /* \"#utility.yul\":11860:11882   */\n      add\n        /* \"#utility.yul\":11854:11858   */\n      dup9\n        /* \"#utility.yul\":11847:11883   */\n      sstore\n        /* \"#utility.yul\":11282:11893   */\n      pop\n      pop\n      pop\n        /* \"#utility.yul\":11245:12132   */\n    tag_251:\n      pop\n        /* \"#utility.yul\":10835:12138   */\n      pop\n      pop\n      pop\n        /* \"#utility.yul\":10743:12138   */\n      pop\n      pop\n      jump\t// out\n        /* \"#utility.yul\":12144:12879   */\n    tag_60:\n        /* \"#utility.yul\":12361:12365   */\n      0x00\n        /* \"#utility.yul\":12399:12402   */\n      0x80\n        /* \"#utility.yul\":12388:12397   */\n      dup3\n        /* \"#utility.yul\":12384:12403   */\n      add\n        /* \"#utility.yul\":12376:12403   */\n      swap1\n      pop\n        /* \"#utility.yul\":12413:12484   */\n      tag_262\n        /* \"#utility.yul\":12481:12482   */\n      0x00\n        /* \"#utility.yul\":12470:12479   */\n      dup4\n        /* \"#utility.yul\":12466:12483   */\n      add\n        /* \"#utility.yul\":12457:12463   */\n      dup8\n        /* \"#utility.yul\":12413:12484   */\n      tag_78\n      jump\t// in\n    tag_262:\n        /* \"#utility.yul\":12531:12540   */\n      dup2\n        /* \"#utility.yul\":12525:12529   */\n      dup2\n        /* \"#utility.yul\":12521:12541   */\n      sub\n        /* \"#utility.yul\":12516:12518   */\n      0x20\n        /* \"#utility.yul\":12505:12514   */\n      dup4\n        /* \"#utility.yul\":12501:12519   */\n      add\n        /* \"#utility.yul\":12494:12542   */\n      mstore\n        /* \"#utility.yul\":12559:12637   */\n      tag_263\n        /* \"#utility.yul\":12632:12636   */\n      dup2\n        /* \"#utility.yul\":12623:12629   */\n      dup7\n        /* \"#utility.yul\":12559:12637   */\n      tag_99\n      jump\t// in\n    tag_263:\n        /* \"#utility.yul\":12551:12637   */\n      swap1\n      pop\n        /* \"#utility.yul\":12684:12693   */\n      dup2\n        /* \"#utility.yul\":12678:12682   */\n      dup2\n        /* \"#utility.yul\":12674:12694   */\n      sub\n        /* \"#utility.yul\":12669:12671   */\n      0x40\n        /* \"#utility.yul\":12658:12667   */\n      dup4\n        /* \"#utility.yul\":12654:12672   */\n      add\n        /* \"#utility.yul\":12647:12695   */\n      mstore\n        /* \"#utility.yul\":12712:12790   */\n      tag_264\n        /* \"#utility.yul\":12785:12789   */\n      dup2\n        /* \"#utility.yul\":12776:12782   */\n      dup6\n        /* \"#utility.yul\":12712:12790   */\n      tag_99\n      jump\t// in\n    tag_264:\n        /* \"#utility.yul\":12704:12790   */\n      swap1\n      pop\n        /* \"#utility.yul\":12800:12872   */\n      tag_265\n        /* \"#utility.yul\":12868:12870   */\n      0x60\n        /* \"#utility.yul\":12857:12866   */\n      dup4\n        /* \"#utility.yul\":12853:12871   */\n      add\n        /* \"#utility.yul\":12844:12850   */\n      dup5\n        /* \"#utility.yul\":12800:12872   */\n      tag_75\n      jump\t// in\n    tag_265:\n        /* \"#utility.yul\":12144:12879   */\n      swap6\n      swap5\n      pop\n      pop\n      pop\n      pop\n      pop\n      jump\t// out\n\n    auxdata: 0xa26469706673582212204cba9aba1dcbb6b5644cc8ec83dc8d6a12db49c9707358e741e9da3b3c2daca264736f6c63430008160033\n}\n",
				"bytecode": {
					"linkReferences": {},
					"object": "608060405234801561000f575f80fd5b50335f806101000a81548173ffffffffffffffffffffffffffffffffffffffff021916908373ffffffffffffffffffffffffffffffffffffffff160217905550610c0e8061005c5f395ff3fe60806040526004361061007a575f3560e01c8063975d279c1161004d578063975d279c1461012457806397a993aa14610140578063d25cf0f51461017c578063f2c09670146101a65761007a565b8063219a1d771461007e5780633d13924e146100a85780638da5cb5b146100d257806391b7f5ed146100fc575b5f80fd5b348015610089575f80fd5b506100926101d0565b60405161009f9190610515565b60405180910390f35b3480156100b3575f80fd5b506100bc610220565b6040516100c99190610546565b60405180910390f35b3480156100dd575f80fd5b506100e6610226565b6040516100f3919061059e565b60405180910390f35b348015610107575f80fd5b50610122600480360381019061011d91906105f2565b610249565b005b61013e60048036038101906101399190610759565b6102a9565b005b34801561014b575f80fd5b50610166600480360381019061016191906107f9565b6103c6565b6040516101739190610515565b60405180910390f35b348015610187575f80fd5b506101906103e3565b60405161019d919061089e565b60405180910390f35b3480156101b1575f80fd5b506101ba61046f565b6040516101c7919061089e565b60405180910390f35b5f60015f3373ffffffffffffffffffffffffffffffffffffffff1673ffffffffffffffffffffffffffffffffffffffff1681526020019081526020015f205f9054906101000a900460ff16905090565b60045481565b5f8054906101000a900473ffffffffffffffffffffffffffffffffffffffff1681565b5f8054906101000a900473ffffffffffffffffffffffffffffffffffffffff1673ffffffffffffffffffffffffffffffffffffffff163373ffffffffffffffffffffffffffffffffffffffff161461029f575f80fd5b8060048190555050565b6004543410156102b7575f80fd5b5f151560015f3373ffffffffffffffffffffffffffffffffffffffff1673ffffffffffffffffffffffffffffffffffffffff1681526020019081526020015f205f9054906101000a900460ff1615151461030f575f80fd5b816002908161031e9190610ab8565b50806003908161032e9190610ab8565b506001805f3373ffffffffffffffffffffffffffffffffffffffff1673ffffffffffffffffffffffffffffffffffffffff1681526020019081526020015f205f6101000a81548160ff0219169083151502179055507fb7d525d230b4a7b392c8e8c7cb545883b05ad379bddb9fc3c91a3e340b88222b3383836004546040516103ba9493929190610b87565b60405180910390a15050565b6001602052805f5260405f205f915054906101000a900460ff1681565b600280546103f0906108eb565b80601f016020809104026020016040519081016040528092919081815260200182805461041c906108eb565b80156104675780601f1061043e57610100808354040283529160200191610467565b820191905f5260205f20905b81548152906001019060200180831161044a57829003601f168201915b505050505081565b6003805461047c906108eb565b80601f01602080910402602001604051908101604052809291908181526020018280546104a8906108eb565b80156104f35780601f106104ca576101008083540402835291602001916104f3565b820191905f5260205f20905b8154815290600101906020018083116104d657829003601f168201915b505050505081565b5f8115159050919050565b61050f816104fb565b82525050565b5f6020820190506105285f830184610506565b92915050565b5f819050919050565b6105408161052e565b82525050565b5f6020820190506105595f830184610537565b92915050565b5f73ffffffffffffffffffffffffffffffffffffffff82169050919050565b5f6105888261055f565b9050919050565b6105988161057e565b82525050565b5f6020820190506105b15f83018461058f565b92915050565b5f604051905090565b5f80fd5b5f80fd5b6105d18161052e565b81146105db575f80fd5b50565b5f813590506105ec816105c8565b92915050565b5f60208284031215610607576106066105c0565b5b5f610614848285016105de565b91505092915050565b5f80fd5b5f80fd5b5f601f19601f8301169050919050565b7f4e487b71000000000000000000000000000000000000000000000000000000005f52604160045260245ffd5b61066b82610625565b810181811067ffffffffffffffff8211171561068a57610689610635565b5b80604052505050565b5f61069c6105b7565b90506106a88282610662565b919050565b5f67ffffffffffffffff8211156106c7576106c6610635565b5b6106d082610625565b9050602081019050919050565b828183375f83830152505050565b5f6106fd6106f8846106ad565b610693565b90508281526020810184848401111561071957610718610621565b5b6107248482856106dd565b509392505050565b5f82601f8301126107405761073f61061d565b5b81356107508482602086016106eb565b91505092915050565b5f806040838503121561076f5761076e6105c0565b5b5f83013567ffffffffffffffff81111561078c5761078b6105c4565b5b6107988582860161072c565b925050602083013567ffffffffffffffff8111156107b9576107b86105c4565b5b6107c58582860161072c565b9150509250929050565b6107d88161057e565b81146107e2575f80fd5b50565b5f813590506107f3816107cf565b92915050565b5f6020828403121561080e5761080d6105c0565b5b5f61081b848285016107e5565b91505092915050565b5f81519050919050565b5f82825260208201905092915050565b5f5b8381101561085b578082015181840152602081019050610840565b5f8484015250505050565b5f61087082610824565b61087a818561082e565b935061088a81856020860161083e565b61089381610625565b840191505092915050565b5f6020820190508181035f8301526108b68184610866565b905092915050565b7f4e487b71000000000000000000000000000000000000000000000000000000005f52602260045260245ffd5b5f600282049050600182168061090257607f821691505b602082108103610915576109146108be565b5b50919050565b5f819050815f5260205f209050919050565b5f6020601f8301049050919050565b5f82821b905092915050565b5f600883026109777fffffffffffffffffffffffffffffffffffffffffffffffffffffffffffffffff8261093c565b610981868361093c565b95508019841693508086168417925050509392505050565b5f819050919050565b5f6109bc6109b76109b28461052e565b610999565b61052e565b9050919050565b5f819050919050565b6109d5836109a2565b6109e96109e1826109c3565b848454610948565b825550505050565b5f90565b6109fd6109f1565b610a088184846109cc565b505050565b5b81811015610a2b57610a205f826109f5565b600181019050610a0e565b5050565b601f821115610a7057610a418161091b565b610a4a8461092d565b81016020851015610a59578190505b610a6d610a658561092d565b830182610a0d565b50505b505050565b5f82821c905092915050565b5f610a905f1984600802610a75565b1980831691505092915050565b5f610aa88383610a81565b9150826002028217905092915050565b610ac182610824565b67ffffffffffffffff811115610ada57610ad9610635565b5b610ae482546108eb565b610aef828285610a2f565b5f60209050601f831160018114610b20575f8415610b0e578287015190505b610b188582610a9d565b865550610b7f565b601f198416610b2e8661091b565b5f5b82811015610b5557848901518255600182019150602085019450602081019050610b30565b86831015610b725784890151610b6e601f891682610a81565b8355505b6001600288020188555050505b505050505050565b5f608082019050610b9a5f83018761058f565b8181036020830152610bac8186610866565b90508181036040830152610bc08185610866565b9050610bcf6060830184610537565b9594505050505056fea26469706673582212204cba9aba1dcbb6b5644cc8ec83dc8d6a12db49c9707358e741e9da3b3c2daca264736f6c63430008160033",
					"opcodes": "PUSH1 0x80 PUSH1 0x40 MSTORE CALLVALUE DUP1 ISZERO PUSH2 0xF JUMPI PUSH0 DUP1 REVERT JUMPDEST POP CALLER PUSH0 DUP1 PUSH2 0x100 EXP DUP2 SLOAD DUP2 PUSH20 0xFFFFFFFFFFFFFFFFFFFFFFFFFFFFFFFFFFFFFFFF MUL NOT AND SWAP1 DUP4 PUSH20 0xFFFFFFFFFFFFFFFFFFFFFFFFFFFFFFFFFFFFFFFF AND MUL OR SWAP1 SSTORE POP PUSH2 0xC0E DUP1 PUSH2 0x5C PUSH0 CODECOPY PUSH0 RETURN INVALID PUSH1 0x80 PUSH1 0x40 MSTORE PUSH1 0x4 CALLDATASIZE LT PUSH2 0x7A JUMPI PUSH0 CALLDATALOAD PUSH1 0xE0 SHR DUP1 PUSH4 0x975D279C GT PUSH2 0x4D JUMPI DUP1 PUSH4 0x975D279C EQ PUSH2 0x124 JUMPI DUP1 PUSH4 0x97A993AA EQ PUSH2 0x140 JUMPI DUP1 PUSH4 0xD25CF0F5 EQ PUSH2 0x17C JUMPI DUP1 PUSH4 0xF2C09670 EQ PUSH2 0x1A6 JUMPI PUSH2 0x7A JUMP JUMPDEST DUP1 PUSH4 0x219A1D77 EQ PUSH2 0x7E JUMPI DUP1 PUSH4 0x3D13924E EQ PUSH2 0xA8 JUMPI DUP1 PUSH4 0x8DA5CB5B EQ PUSH2 0xD2 JUMPI DUP1 PUSH4 0x91B7F5ED EQ PUSH2 0xFC JUMPI JUMPDEST PUSH0 DUP1 REVERT JUMPDEST CALLVALUE DUP1 ISZERO PUSH2 0x89 JUMPI PUSH0 DUP1 REVERT JUMPDEST POP PUSH2 0x92 PUSH2 0x1D0 JUMP JUMPDEST PUSH1 0x40 MLOAD PUSH2 0x9F SWAP2 SWAP1 PUSH2 0x515 JUMP JUMPDEST PUSH1 0x40 MLOAD DUP1 SWAP2 SUB SWAP1 RETURN JUMPDEST CALLVALUE DUP1 ISZERO PUSH2 0xB3 JUMPI PUSH0 DUP1 REVERT JUMPDEST POP PUSH2 0xBC PUSH2 0x220 JUMP JUMPDEST PUSH1 0x40 MLOAD PUSH2 0xC9 SWAP2 SWAP1 PUSH2 0x546 JUMP JUMPDEST PUSH1 0x40 MLOAD DUP1 SWAP2 SUB SWAP1 RETURN JUMPDEST CALLVALUE DUP1 ISZERO PUSH2 0xDD JUMPI PUSH0 DUP1 REVERT JUMPDEST POP PUSH2 0xE6 PUSH2 0x226 JUMP JUMPDEST PUSH1 0x40 MLOAD PUSH2 0xF3 SWAP2 SWAP1 PUSH2 0x59E JUMP JUMPDEST PUSH1 0x40 MLOAD DUP1 SWAP2 SUB SWAP1 RETURN JUMPDEST CALLVALUE DUP1 ISZERO PUSH2 0x107 JUMPI PUSH0 DUP1 REVERT JUMPDEST POP PUSH2 0x122 PUSH1 0x4 DUP1 CALLDATASIZE SUB DUP2 ADD SWAP1 PUSH2 0x11D SWAP2 SWAP1 PUSH2 0x5F2 JUMP JUMPDEST PUSH2 0x249 JUMP JUMPDEST STOP JUMPDEST PUSH2 0x13E PUSH1 0x4 DUP1 CALLDATASIZE SUB DUP2 ADD SWAP1 PUSH2 0x139 SWAP2 SWAP1 PUSH2 0x759 JUMP JUMPDEST PUSH2 0x2A9 JUMP JUMPDEST STOP JUMPDEST CALLVALUE DUP1 ISZERO PUSH2 0x14B JUMPI PUSH0 DUP1 REVERT JUMPDEST POP PUSH2 0x166 PUSH1 0x4 DUP1 CALLDATASIZE SUB DUP2 ADD SWAP1 PUSH2 0x161 SWAP2 SWAP1 PUSH2 0x7F9 JUMP JUMPDEST PUSH2 0x3C6 JUMP JUMPDEST PUSH1 0x40 MLOAD PUSH2 0x173 SWAP2 SWAP1 PUSH2 0x515 JUMP JUMPDEST PUSH1 0x40 MLOAD DUP1 SWAP2 SUB SWAP1 RETURN JUMPDEST CALLVALUE DUP1 ISZERO PUSH2 0x187 JUMPI PUSH0 DUP1 REVERT JUMPDEST POP PUSH2 0x190 PUSH2 0x3E3 JUMP JUMPDEST PUSH1 0x40 MLOAD PUSH2 0x19D SWAP2 SWAP1 PUSH2 0x89E JUMP JUMPDEST PUSH1 0x40 MLOAD DUP1 SWAP2 SUB SWAP1 RETURN JUMPDEST CALLVALUE DUP1 ISZERO PUSH2 0x1B1 JUMPI PUSH0 DUP1 REVERT JUMPDEST POP PUSH2 0x1BA PUSH2 0x46F JUMP JUMPDEST PUSH1 0x40 MLOAD PUSH2 0x1C7 SWAP2 SWAP1 PUSH2 0x89E JUMP JUMPDEST PUSH1 0x40 MLOAD DUP1 SWAP2 SUB SWAP1 RETURN JUMPDEST PUSH0 PUSH1 0x1 PUSH0 CALLER PUSH20 0xFFFFFFFFFFFFFFFFFFFFFFFFFFFFFFFFFFFFFFFF AND PUSH20 0xFFFFFFFFFFFFFFFFFFFFFFFFFFFFFFFFFFFFFFFF AND DUP2 MSTORE PUSH1 0x20 ADD SWAP1 DUP2 MSTORE PUSH1 0x20 ADD PUSH0 KECCAK256 PUSH0 SWAP1 SLOAD SWAP1 PUSH2 0x100 EXP SWAP1 DIV PUSH1 0xFF AND SWAP1 POP SWAP1 JUMP JUMPDEST PUSH1 0x4 SLOAD DUP2 JUMP JUMPDEST PUSH0 DUP1 SLOAD SWAP1 PUSH2 0x100 EXP SWAP1 DIV PUSH20 0xFFFFFFFFFFFFFFFFFFFFFFFFFFFFFFFFFFFFFFFF AND DUP2 JUMP JUMPDEST PUSH0 DUP1 SLOAD SWAP1 PUSH2 0x100 EXP SWAP1 DIV PUSH20 0xFFFFFFFFFFFFFFFFFFFFFFFFFFFFFFFFFFFFFFFF AND PUSH20 0xFFFFFFFFFFFFFFFFFFFFFFFFFFFFFFFFFFFFFFFF AND CALLER PUSH20 0xFFFFFFFFFFFFFFFFFFFFFFFFFFFFFFFFFFFFFFFF AND EQ PUSH2 0x29F JUMPI PUSH0 DUP1 REVERT JUMPDEST DUP1 PUSH1 0x4 DUP2 SWAP1 SSTORE POP POP JUMP JUMPDEST PUSH1 0x4 SLOAD CALLVALUE LT ISZERO PUSH2 0x2B7 JUMPI PUSH0 DUP1 REVERT JUMPDEST PUSH0 ISZERO ISZERO PUSH1 0x1 PUSH0 CALLER PUSH20 0xFFFFFFFFFFFFFFFFFFFFFFFFFFFFFFFFFFFFFFFF AND PUSH20 0xFFFFFFFFFFFFFFFFFFFFFFFFFFFFFFFFFFFFFFFF AND DUP2 MSTORE PUSH1 0x20 ADD SWAP1 DUP2 MSTORE PUSH1 0x20 ADD PUSH0 KECCAK256 PUSH0 SWAP1 SLOAD SWAP1 PUSH2 0x100 EXP SWAP1 DIV PUSH1 0xFF AND ISZERO ISZERO EQ PUSH2 0x30F JUMPI PUSH0 DUP1 REVERT JUMPDEST DUP2 PUSH1 0x2 SWAP1 DUP2 PUSH2 0x31E SWAP2 SWAP1 PUSH2 0xAB8 JUMP JUMPDEST POP DUP1 PUSH1 0x3 SWAP1 DUP2 PUSH2 0x32E SWAP2 SWAP1 PUSH2 0xAB8 JUMP JUMPDEST POP PUSH1 0x1 DUP1 PUSH0 CALLER PUSH20 0xFFFFFFFFFFFFFFFFFFFFFFFFFFFFFFFFFFFFFFFF AND PUSH20 0xFFFFFFFFFFFFFFFFFFFFFFFFFFFFFFFFFFFFFFFF AND DUP2 MSTORE PUSH1 0x20 ADD SWAP1 DUP2 MSTORE PUSH1 0x20 ADD PUSH0 KECCAK256 PUSH0 PUSH2 0x100 EXP DUP2 SLOAD DUP2 PUSH1 0xFF MUL NOT AND SWAP1 DUP4 ISZERO ISZERO MUL OR SWAP1 SSTORE POP PUSH32 0xB7D525D230B4A7B392C8E8C7CB545883B05AD379BDDB9FC3C91A3E340B88222B CALLER DUP4 DUP4 PUSH1 0x4 SLOAD PUSH1 0x40 MLOAD PUSH2 0x3BA SWAP5 SWAP4 SWAP3 SWAP2 SWAP1 PUSH2 0xB87 JUMP JUMPDEST PUSH1 0x40 MLOAD DUP1 SWAP2 SUB SWAP1 LOG1 POP POP JUMP JUMPDEST PUSH1 0x1 PUSH1 0x20 MSTORE DUP1 PUSH0 MSTORE PUSH1 0x40 PUSH0 KECCAK256 PUSH0 SWAP2 POP SLOAD SWAP1 PUSH2 0x100 EXP SWAP1 DIV PUSH1 0xFF AND DUP2 JUMP JUMPDEST PUSH1 0x2 DUP1 SLOAD PUSH2 0x3F0 SWAP1 PUSH2 0x8EB JUMP JUMPDEST DUP1 PUSH1 0x1F ADD PUSH1 0x20 DUP1 SWAP2 DIV MUL PUSH1 0x20 ADD PUSH1 0x40 MLOAD SWAP1 DUP2 ADD PUSH1 0x40 MSTORE DUP1 SWAP3 SWAP2 SWAP1 DUP2 DUP2 MSTORE PUSH1 0x20 ADD DUP3 DUP1 SLOAD PUSH2 0x41C SWAP1 PUSH2 0x8EB JUMP JUMPDEST DUP1 ISZERO PUSH2 0x467 JUMPI DUP1 PUSH1 0x1F LT PUSH2 0x43E JUMPI PUSH2 0x100 DUP1 DUP4 SLOAD DIV MUL DUP4 MSTORE SWAP2 PUSH1 0x20 ADD SWAP2 PUSH2 0x467 JUMP JUMPDEST DUP3 ADD SWAP2 SWAP1 PUSH0 MSTORE PUSH1 0x20 PUSH0 KECCAK256 SWAP1 JUMPDEST DUP2 SLOAD DUP2 MSTORE SWAP1 PUSH1 0x1 ADD SWAP1 PUSH1 0x20 ADD DUP1 DUP4 GT PUSH2 0x44A JUMPI DUP3 SWAP1 SUB PUSH1 0x1F AND DUP3 ADD SWAP2 JUMPDEST POP POP POP POP POP DUP2 JUMP JUMPDEST PUSH1 0x3 DUP1 SLOAD PUSH2 0x47C SWAP1 PUSH2 0x8EB JUMP JUMPDEST DUP1 PUSH1 0x1F ADD PUSH1 0x20 DUP1 SWAP2 DIV MUL PUSH1 0x20 ADD PUSH1 0x40 MLOAD SWAP1 DUP2 ADD PUSH1 0x40 MSTORE DUP1 SWAP3 SWAP2 SWAP1 DUP2 DUP2 MSTORE PUSH1 0x20 ADD DUP3 DUP1 SLOAD PUSH2 0x4A8 SWAP1 PUSH2 0x8EB JUMP JUMPDEST DUP1 ISZERO PUSH2 0x4F3 JUMPI DUP1 PUSH1 0x1F LT PUSH2 0x4CA JUMPI PUSH2 0x100 DUP1 DUP4 SLOAD DIV MUL DUP4 MSTORE SWAP2 PUSH1 0x20 ADD SWAP2 PUSH2 0x4F3 JUMP JUMPDEST DUP3 ADD SWAP2 SWAP1 PUSH0 MSTORE PUSH1 0x20 PUSH0 KECCAK256 SWAP1 JUMPDEST DUP2 SLOAD DUP2 MSTORE SWAP1 PUSH1 0x1 ADD SWAP1 PUSH1 0x20 ADD DUP1 DUP4 GT PUSH2 0x4D6 JUMPI DUP3 SWAP1 SUB PUSH1 0x1F AND DUP3 ADD SWAP2 JUMPDEST POP POP POP POP POP DUP2 JUMP JUMPDEST PUSH0 DUP2 ISZERO ISZERO SWAP1 POP SWAP2 SWAP1 POP JUMP JUMPDEST PUSH2 0x50F DUP2 PUSH2 0x4FB JUMP JUMPDEST DUP3 MSTORE POP POP JUMP JUMPDEST PUSH0 PUSH1 0x20 DUP3 ADD SWAP1 POP PUSH2 0x528 PUSH0 DUP4 ADD DUP5 PUSH2 0x506 JUMP JUMPDEST SWAP3 SWAP2 POP POP JUMP JUMPDEST PUSH0 DUP2 SWAP1 POP SWAP2 SWAP1 POP JUMP JUMPDEST PUSH2 0x540 DUP2 PUSH2 0x52E JUMP JUMPDEST DUP3 MSTORE POP POP JUMP JUMPDEST PUSH0 PUSH1 0x20 DUP3 ADD SWAP1 POP PUSH2 0x559 PUSH0 DUP4 ADD DUP5 PUSH2 0x537 JUMP JUMPDEST SWAP3 SWAP2 POP POP JUMP JUMPDEST PUSH0 PUSH20 0xFFFFFFFFFFFFFFFFFFFFFFFFFFFFFFFFFFFFFFFF DUP3 AND SWAP1 POP SWAP2 SWAP1 POP JUMP JUMPDEST PUSH0 PUSH2 0x588 DUP3 PUSH2 0x55F JUMP JUMPDEST SWAP1 POP SWAP2 SWAP1 POP JUMP JUMPDEST PUSH2 0x598 DUP2 PUSH2 0x57E JUMP JUMPDEST DUP3 MSTORE POP POP JUMP JUMPDEST PUSH0 PUSH1 0x20 DUP3 ADD SWAP1 POP PUSH2 0x5B1 PUSH0 DUP4 ADD DUP5 PUSH2 0x58F JUMP JUMPDEST SWAP3 SWAP2 POP POP JUMP JUMPDEST PUSH0 PUSH1 0x40 MLOAD SWAP1 POP SWAP1 JUMP JUMPDEST PUSH0 DUP1 REVERT JUMPDEST PUSH0 DUP1 REVERT JUMPDEST PUSH2 0x5D1 DUP2 PUSH2 0x52E JUMP JUMPDEST DUP2 EQ PUSH2 0x5DB JUMPI PUSH0 DUP1 REVERT JUMPDEST POP JUMP JUMPDEST PUSH0 DUP2 CALLDATALOAD SWAP1 POP PUSH2 0x5EC DUP2 PUSH2 0x5C8 JUMP JUMPDEST SWAP3 SWAP2 POP POP JUMP JUMPDEST PUSH0 PUSH1 0x20 DUP3 DUP5 SUB SLT ISZERO PUSH2 0x607 JUMPI PUSH2 0x606 PUSH2 0x5C0 JUMP JUMPDEST JUMPDEST PUSH0 PUSH2 0x614 DUP5 DUP3 DUP6 ADD PUSH2 0x5DE JUMP JUMPDEST SWAP2 POP POP SWAP3 SWAP2 POP POP JUMP JUMPDEST PUSH0 DUP1 REVERT JUMPDEST PUSH0 DUP1 REVERT JUMPDEST PUSH0 PUSH1 0x1F NOT PUSH1 0x1F DUP4 ADD AND SWAP1 POP SWAP2 SWAP1 POP JUMP JUMPDEST PUSH32 0x4E487B7100000000000000000000000000000000000000000000000000000000 PUSH0 MSTORE PUSH1 0x41 PUSH1 0x4 MSTORE PUSH1 0x24 PUSH0 REVERT JUMPDEST PUSH2 0x66B DUP3 PUSH2 0x625 JUMP JUMPDEST DUP2 ADD DUP2 DUP2 LT PUSH8 0xFFFFFFFFFFFFFFFF DUP3 GT OR ISZERO PUSH2 0x68A JUMPI PUSH2 0x689 PUSH2 0x635 JUMP JUMPDEST JUMPDEST DUP1 PUSH1 0x40 MSTORE POP POP POP JUMP JUMPDEST PUSH0 PUSH2 0x69C PUSH2 0x5B7 JUMP JUMPDEST SWAP1 POP PUSH2 0x6A8 DUP3 DUP3 PUSH2 0x662 JUMP JUMPDEST SWAP2 SWAP1 POP JUMP JUMPDEST PUSH0 PUSH8 0xFFFFFFFFFFFFFFFF DUP3 GT ISZERO PUSH2 0x6C7 JUMPI PUSH2 0x6C6 PUSH2 0x635 JUMP JUMPDEST JUMPDEST PUSH2 0x6D0 DUP3 PUSH2 0x625 JUMP JUMPDEST SWAP1 POP PUSH1 0x20 DUP2 ADD SWAP1 POP SWAP2 SWAP1 POP JUMP JUMPDEST DUP3 DUP2 DUP4 CALLDATACOPY PUSH0 DUP4 DUP4 ADD MSTORE POP POP POP JUMP JUMPDEST PUSH0 PUSH2 0x6FD PUSH2 0x6F8 DUP5 PUSH2 0x6AD JUMP JUMPDEST PUSH2 0x693 JUMP JUMPDEST SWAP1 POP DUP3 DUP2 MSTORE PUSH1 0x20 DUP2 ADD DUP5 DUP5 DUP5 ADD GT ISZERO PUSH2 0x719 JUMPI PUSH2 0x718 PUSH2 0x621 JUMP JUMPDEST JUMPDEST PUSH2 0x724 DUP5 DUP3 DUP6 PUSH2 0x6DD JUMP JUMPDEST POP SWAP4 SWAP3 POP POP POP JUMP JUMPDEST PUSH0 DUP3 PUSH1 0x1F DUP4 ADD SLT PUSH2 0x740 JUMPI PUSH2 0x73F PUSH2 0x61D JUMP JUMPDEST JUMPDEST DUP2 CALLDATALOAD PUSH2 0x750 DUP5 DUP3 PUSH1 0x20 DUP7 ADD PUSH2 0x6EB JUMP JUMPDEST SWAP2 POP POP SWAP3 SWAP2 POP POP JUMP JUMPDEST PUSH0 DUP1 PUSH1 0x40 DUP4 DUP6 SUB SLT ISZERO PUSH2 0x76F JUMPI PUSH2 0x76E PUSH2 0x5C0 JUMP JUMPDEST JUMPDEST PUSH0 DUP4 ADD CALLDATALOAD PUSH8 0xFFFFFFFFFFFFFFFF DUP2 GT ISZERO PUSH2 0x78C JUMPI PUSH2 0x78B PUSH2 0x5C4 JUMP JUMPDEST JUMPDEST PUSH2 0x798 DUP6 DUP3 DUP7 ADD PUSH2 0x72C JUMP JUMPDEST SWAP3 POP POP PUSH1 0x20 DUP4 ADD CALLDATALOAD PUSH8 0xFFFFFFFFFFFFFFFF DUP2 GT ISZERO PUSH2 0x7B9 JUMPI PUSH2 0x7B8 PUSH2 0x5C4 JUMP JUMPDEST JUMPDEST PUSH2 0x7C5 DUP6 DUP3 DUP7 ADD PUSH2 0x72C JUMP JUMPDEST SWAP2 POP POP SWAP3 POP SWAP3 SWAP1 POP JUMP JUMPDEST PUSH2 0x7D8 DUP2 PUSH2 0x57E JUMP JUMPDEST DUP2 EQ PUSH2 0x7E2 JUMPI PUSH0 DUP1 REVERT JUMPDEST POP JUMP JUMPDEST PUSH0 DUP2 CALLDATALOAD SWAP1 POP PUSH2 0x7F3 DUP2 PUSH2 0x7CF JUMP JUMPDEST SWAP3 SWAP2 POP POP JUMP JUMPDEST PUSH0 PUSH1 0x20 DUP3 DUP5 SUB SLT ISZERO PUSH2 0x80E JUMPI PUSH2 0x80D PUSH2 0x5C0 JUMP JUMPDEST JUMPDEST PUSH0 PUSH2 0x81B DUP5 DUP3 DUP6 ADD PUSH2 0x7E5 JUMP JUMPDEST SWAP2 POP POP SWAP3 SWAP2 POP POP JUMP JUMPDEST PUSH0 DUP2 MLOAD SWAP1 POP SWAP2 SWAP1 POP JUMP JUMPDEST PUSH0 DUP3 DUP3 MSTORE PUSH1 0x20 DUP3 ADD SWAP1 POP SWAP3 SWAP2 POP POP JUMP JUMPDEST PUSH0 JUMPDEST DUP4 DUP2 LT ISZERO PUSH2 0x85B JUMPI DUP1 DUP3 ADD MLOAD DUP2 DUP5 ADD MSTORE PUSH1 0x20 DUP2 ADD SWAP1 POP PUSH2 0x840 JUMP JUMPDEST PUSH0 DUP5 DUP5 ADD MSTORE POP POP POP POP JUMP JUMPDEST PUSH0 PUSH2 0x870 DUP3 PUSH2 0x824 JUMP JUMPDEST PUSH2 0x87A DUP2 DUP6 PUSH2 0x82E JUMP JUMPDEST SWAP4 POP PUSH2 0x88A DUP2 DUP6 PUSH1 0x20 DUP7 ADD PUSH2 0x83E JUMP JUMPDEST PUSH2 0x893 DUP2 PUSH2 0x625 JUMP JUMPDEST DUP5 ADD SWAP2 POP POP SWAP3 SWAP2 POP POP JUMP JUMPDEST PUSH0 PUSH1 0x20 DUP3 ADD SWAP1 POP DUP2 DUP2 SUB PUSH0 DUP4 ADD MSTORE PUSH2 0x8B6 DUP2 DUP5 PUSH2 0x866 JUMP JUMPDEST SWAP1 POP SWAP3 SWAP2 POP POP JUMP JUMPDEST PUSH32 0x4E487B7100000000000000000000000000000000000000000000000000000000 PUSH0 MSTORE PUSH1 0x22 PUSH1 0x4 MSTORE PUSH1 0x24 PUSH0 REVERT JUMPDEST PUSH0 PUSH1 0x2 DUP3 DIV SWAP1 POP PUSH1 0x1 DUP3 AND DUP1 PUSH2 0x902 JUMPI PUSH1 0x7F DUP3 AND SWAP2 POP JUMPDEST PUSH1 0x20 DUP3 LT DUP2 SUB PUSH2 0x915 JUMPI PUSH2 0x914 PUSH2 0x8BE JUMP JUMPDEST JUMPDEST POP SWAP2 SWAP1 POP JUMP JUMPDEST PUSH0 DUP2 SWAP1 POP DUP2 PUSH0 MSTORE PUSH1 0x20 PUSH0 KECCAK256 SWAP1 POP SWAP2 SWAP1 POP JUMP JUMPDEST PUSH0 PUSH1 0x20 PUSH1 0x1F DUP4 ADD DIV SWAP1 POP SWAP2 SWAP1 POP JUMP JUMPDEST PUSH0 DUP3 DUP3 SHL SWAP1 POP SWAP3 SWAP2 POP POP JUMP JUMPDEST PUSH0 PUSH1 0x8 DUP4 MUL PUSH2 0x977 PUSH32 0xFFFFFFFFFFFFFFFFFFFFFFFFFFFFFFFFFFFFFFFFFFFFFFFFFFFFFFFFFFFFFFFF DUP3 PUSH2 0x93C JUMP JUMPDEST PUSH2 0x981 DUP7 DUP4 PUSH2 0x93C JUMP JUMPDEST SWAP6 POP DUP1 NOT DUP5 AND SWAP4 POP DUP1 DUP7 AND DUP5 OR SWAP3 POP POP POP SWAP4 SWAP3 POP POP POP JUMP JUMPDEST PUSH0 DUP2 SWAP1 POP SWAP2 SWAP1 POP JUMP JUMPDEST PUSH0 PUSH2 0x9BC PUSH2 0x9B7 PUSH2 0x9B2 DUP5 PUSH2 0x52E JUMP JUMPDEST PUSH2 0x999 JUMP JUMPDEST PUSH2 0x52E JUMP JUMPDEST SWAP1 POP SWAP2 SWAP1 POP JUMP JUMPDEST PUSH0 DUP2 SWAP1 POP SWAP2 SWAP1 POP JUMP JUMPDEST PUSH2 0x9D5 DUP4 PUSH2 0x9A2 JUMP JUMPDEST PUSH2 0x9E9 PUSH2 0x9E1 DUP3 PUSH2 0x9C3 JUMP JUMPDEST DUP5 DUP5 SLOAD PUSH2 0x948 JUMP JUMPDEST DUP3 SSTORE POP POP POP POP JUMP JUMPDEST PUSH0 SWAP1 JUMP JUMPDEST PUSH2 0x9FD PUSH2 0x9F1 JUMP JUMPDEST PUSH2 0xA08 DUP2 DUP5 DUP5 PUSH2 0x9CC JUMP JUMPDEST POP POP POP JUMP JUMPDEST JUMPDEST DUP2 DUP2 LT ISZERO PUSH2 0xA2B JUMPI PUSH2 0xA20 PUSH0 DUP3 PUSH2 0x9F5 JUMP JUMPDEST PUSH1 0x1 DUP2 ADD SWAP1 POP PUSH2 0xA0E JUMP JUMPDEST POP POP JUMP JUMPDEST PUSH1 0x1F DUP3 GT ISZERO PUSH2 0xA70 JUMPI PUSH2 0xA41 DUP2 PUSH2 0x91B JUMP JUMPDEST PUSH2 0xA4A DUP5 PUSH2 0x92D JUMP JUMPDEST DUP2 ADD PUSH1 0x20 DUP6 LT ISZERO PUSH2 0xA59 JUMPI DUP2 SWAP1 POP JUMPDEST PUSH2 0xA6D PUSH2 0xA65 DUP6 PUSH2 0x92D JUMP JUMPDEST DUP4 ADD DUP3 PUSH2 0xA0D JUMP JUMPDEST POP POP JUMPDEST POP POP POP JUMP JUMPDEST PUSH0 DUP3 DUP3 SHR SWAP1 POP SWAP3 SWAP2 POP POP JUMP JUMPDEST PUSH0 PUSH2 0xA90 PUSH0 NOT DUP5 PUSH1 0x8 MUL PUSH2 0xA75 JUMP JUMPDEST NOT DUP1 DUP4 AND SWAP2 POP POP SWAP3 SWAP2 POP POP JUMP JUMPDEST PUSH0 PUSH2 0xAA8 DUP4 DUP4 PUSH2 0xA81 JUMP JUMPDEST SWAP2 POP DUP3 PUSH1 0x2 MUL DUP3 OR SWAP1 POP SWAP3 SWAP2 POP POP JUMP JUMPDEST PUSH2 0xAC1 DUP3 PUSH2 0x824 JUMP JUMPDEST PUSH8 0xFFFFFFFFFFFFFFFF DUP2 GT ISZERO PUSH2 0xADA JUMPI PUSH2 0xAD9 PUSH2 0x635 JUMP JUMPDEST JUMPDEST PUSH2 0xAE4 DUP3 SLOAD PUSH2 0x8EB JUMP JUMPDEST PUSH2 0xAEF DUP3 DUP3 DUP6 PUSH2 0xA2F JUMP JUMPDEST PUSH0 PUSH1 0x20 SWAP1 POP PUSH1 0x1F DUP4 GT PUSH1 0x1 DUP2 EQ PUSH2 0xB20 JUMPI PUSH0 DUP5 ISZERO PUSH2 0xB0E JUMPI DUP3 DUP8 ADD MLOAD SWAP1 POP JUMPDEST PUSH2 0xB18 DUP6 DUP3 PUSH2 0xA9D JUMP JUMPDEST DUP7 SSTORE POP PUSH2 0xB7F JUMP JUMPDEST PUSH1 0x1F NOT DUP5 AND PUSH2 0xB2E DUP7 PUSH2 0x91B JUMP JUMPDEST PUSH0 JUMPDEST DUP3 DUP2 LT ISZERO PUSH2 0xB55 JUMPI DUP5 DUP10 ADD MLOAD DUP3 SSTORE PUSH1 0x1 DUP3 ADD SWAP2 POP PUSH1 0x20 DUP6 ADD SWAP5 POP PUSH1 0x20 DUP2 ADD SWAP1 POP PUSH2 0xB30 JUMP JUMPDEST DUP7 DUP4 LT ISZERO PUSH2 0xB72 JUMPI DUP5 DUP10 ADD MLOAD PUSH2 0xB6E PUSH1 0x1F DUP10 AND DUP3 PUSH2 0xA81 JUMP JUMPDEST DUP4 SSTORE POP JUMPDEST PUSH1 0x1 PUSH1 0x2 DUP9 MUL ADD DUP9 SSTORE POP POP POP JUMPDEST POP POP POP POP POP POP JUMP JUMPDEST PUSH0 PUSH1 0x80 DUP3 ADD SWAP1 POP PUSH2 0xB9A PUSH0 DUP4 ADD DUP8 PUSH2 0x58F JUMP JUMPDEST DUP2 DUP2 SUB PUSH1 0x20 DUP4 ADD MSTORE PUSH2 0xBAC DUP2 DUP7 PUSH2 0x866 JUMP JUMPDEST SWAP1 POP DUP2 DUP2 SUB PUSH1 0x40 DUP4 ADD MSTORE PUSH2 0xBC0 DUP2 DUP6 PUSH2 0x866 JUMP JUMPDEST SWAP1 POP PUSH2 0xBCF PUSH1 0x60 DUP4 ADD DUP5 PUSH2 0x537 JUMP JUMPDEST SWAP6 SWAP5 POP POP POP POP POP JUMP INVALID LOG2 PUSH5 0x6970667358 0x22 SLT KECCAK256 0x4C 0xBA SWAP11 0xBA SAR 0xCB 0xB6 0xB5 PUSH5 0x4CC8EC83DC DUP14 PUSH11 0x12DB49C9707358E741E9DA EXTCODESIZE EXTCODECOPY 0x2D 0xAC LOG2 PUSH5 0x736F6C6343 STOP ADDMOD AND STOP CALLER "
				},
				"gasEstimates": {
					"creation": {
						"codeDepositCost": "617200",
						"executionCost": "24914",
						"totalCost": "642114"
					},
					"external": {
						"buyVehicle(string,string)": "infinite",
						"buyers(address)": "2855",
						"checkOwnership()": "2561",
						"owner()": "2550",
						"setPrice(uint256)": "24748",
						"vehicleMake()": "infinite",
						"vehicleModel()": "infinite",
						"vehiclePrice()": "2448"
					}
				},
				"methodIdentifiers": {
					"buyVehicle(string,string)": "975d279c",
					"buyers(address)": "97a993aa",
					"checkOwnership()": "219a1d77",
					"owner()": "8da5cb5b",
					"setPrice(uint256)": "91b7f5ed",
					"vehicleMake()": "d25cf0f5",
					"vehicleModel()": "f2c09670",
					"vehiclePrice()": "3d13924e"
				}
			},
			"storageLayout": {
				"storage": [
					{
						"astId": 3,
						"contract": "Automotive industry/Automotive industry smart contract-2.sol:AutmotiveContract",
						"label": "owner",
						"offset": 0,
						"slot": "0",
						"type": "t_address"
					},
					{
						"astId": 7,
						"contract": "Automotive industry/Automotive industry smart contract-2.sol:AutmotiveContract",
						"label": "buyers",
						"offset": 0,
						"slot": "1",
						"type": "t_mapping(t_address,t_bool)"
					},
					{
						"astId": 9,
						"contract": "Automotive industry/Automotive industry smart contract-2.sol:AutmotiveContract",
						"label": "vehicleMake",
						"offset": 0,
						"slot": "2",
						"type": "t_string_storage"
					},
					{
						"astId": 11,
						"contract": "Automotive industry/Automotive industry smart contract-2.sol:AutmotiveContract",
						"label": "vehicleModel",
						"offset": 0,
						"slot": "3",
						"type": "t_string_storage"
					},
					{
						"astId": 13,
						"contract": "Automotive industry/Automotive industry smart contract-2.sol:AutmotiveContract",
						"label": "vehiclePrice",
						"offset": 0,
						"slot": "4",
						"type": "t_uint256"
					}
				],
				"types": {
					"t_address": {
						"encoding": "inplace",
						"label": "address",
						"numberOfBytes": "20"
					},
					"t_bool": {
						"encoding": "inplace",
						"label": "bool",
						"numberOfBytes": "1"
					},
					"t_mapping(t_address,t_bool)": {
						"encoding": "mapping",
						"key": "t_address",
						"label": "mapping(address => bool)",
						"numberOfBytes": "32",
						"value": "t_bool"
					},
					"t_string_storage": {
						"encoding": "bytes",
						"label": "string",
						"numberOfBytes": "32"
					},
					"t_uint256": {
						"encoding": "inplace",
						"label": "uint256",
						"numberOfBytes": "32"
					}
				}
			},
			"userdoc": {
				"kind": "user",
				"methods": {},
				"version": 1
			}
		}
	}
}