{
	"Decentralizing car leasing and sell/AdvancedCarLeasingAndSales part 2.sol": {
		"AdvancedCarLeasingAndSales": {
			"abi": [
				{
					"anonymous": false,
					"inputs": [
						{
							"indexed": true,
							"internalType": "uint256",
							"name": "carId",
							"type": "uint256"
						},
						{
							"indexed": true,
							"internalType": "address",
							"name": "leasee",
							"type": "address"
						},
						{
							"indexed": false,
							"internalType": "uint256",
							"name": "leaseEnd",
							"type": "uint256"
						}
					],
					"name": "CarLeased",
					"type": "event"
				},
				{
					"anonymous": false,
					"inputs": [
						{
							"indexed": true,
							"internalType": "uint256",
							"name": "carId",
							"type": "uint256"
						},
						{
							"indexed": true,
							"internalType": "address",
							"name": "newOwner",
							"type": "address"
						}
					],
					"name": "CarPurchased",
					"type": "event"
				},
				{
					"anonymous": false,
					"inputs": [
						{
							"indexed": true,
							"internalType": "uint256",
							"name": "carId",
							"type": "uint256"
						},
						{
							"indexed": true,
							"internalType": "address",
							"name": "owner",
							"type": "address"
						}
					],
					"name": "CarRegistered",
					"type": "event"
				},
				{
					"anonymous": false,
					"inputs": [
						{
							"indexed": true,
							"internalType": "uint256",
							"name": "carId",
							"type": "uint256"
						},
						{
							"indexed": false,
							"internalType": "uint256",
							"name": "newLeaseEnd",
							"type": "uint256"
						}
					],
					"name": "LeaseExtended",
					"type": "event"
				},
				{
					"inputs": [
						{
							"internalType": "uint256",
							"name": "",
							"type": "uint256"
						}
					],
					"name": "cars",
					"outputs": [
						{
							"internalType": "uint256",
							"name": "id",
							"type": "uint256"
						},
						{
							"internalType": "address",
							"name": "owner",
							"type": "address"
						},
						{
							"internalType": "uint256",
							"name": "price",
							"type": "uint256"
						},
						{
							"internalType": "uint256",
							"name": "deposit",
							"type": "uint256"
						},
						{
							"internalType": "uint256",
							"name": "leaseTerm",
							"type": "uint256"
						},
						{
							"internalType": "uint256",
							"name": "leaseEnd",
							"type": "uint256"
						},
						{
							"internalType": "bool",
							"name": "isAvailableForLease",
							"type": "bool"
						},
						{
							"internalType": "bool",
							"name": "isAvailableForSale",
							"type": "bool"
						}
					],
					"stateMutability": "view",
					"type": "function"
				},
				{
					"inputs": [
						{
							"internalType": "uint256",
							"name": "carId",
							"type": "uint256"
						}
					],
					"name": "extendLease",
					"outputs": [],
					"stateMutability": "payable",
					"type": "function"
				},
				{
					"inputs": [
						{
							"internalType": "uint256",
							"name": "carId",
							"type": "uint256"
						}
					],
					"name": "getCarDetails",
					"outputs": [
						{
							"components": [
								{
									"internalType": "uint256",
									"name": "id",
									"type": "uint256"
								},
								{
									"internalType": "address",
									"name": "owner",
									"type": "address"
								},
								{
									"internalType": "uint256",
									"name": "price",
									"type": "uint256"
								},
								{
									"internalType": "uint256",
									"name": "deposit",
									"type": "uint256"
								},
								{
									"internalType": "uint256",
									"name": "leaseTerm",
									"type": "uint256"
								},
								{
									"internalType": "uint256",
									"name": "leaseEnd",
									"type": "uint256"
								},
								{
									"internalType": "bool",
									"name": "isAvailableForLease",
									"type": "bool"
								},
								{
									"internalType": "bool",
									"name": "isAvailableForSale",
									"type": "bool"
								}
							],
							"internalType": "struct AdvancedCarLeasingAndSales.Car",
							"name": "",
							"type": "tuple"
						}
					],
					"stateMutability": "view",
					"type": "function"
				},
				{
					"inputs": [
						{
							"internalType": "address",
							"name": "userAddress",
							"type": "address"
						}
					],
					"name": "getUserStats",
					"outputs": [
						{
							"components": [
								{
									"internalType": "uint256",
									"name": "totalLeased",
									"type": "uint256"
								},
								{
									"internalType": "uint256",
									"name": "totalPurchased",
									"type": "uint256"
								}
							],
							"internalType": "struct AdvancedCarLeasingAndSales.User",
							"name": "",
							"type": "tuple"
						}
					],
					"stateMutability": "view",
					"type": "function"
				},
				{
					"inputs": [
						{
							"internalType": "uint256",
							"name": "carId",
							"type": "uint256"
						}
					],
					"name": "leaseCar",
					"outputs": [],
					"stateMutability": "payable",
					"type": "function"
				},
				{
					"inputs": [],
					"name": "nextCarId",
					"outputs": [
						{
							"internalType": "uint256",
							"name": "",
							"type": "uint256"
						}
					],
					"stateMutability": "view",
					"type": "function"
				},
				{
					"inputs": [
						{
							"internalType": "uint256",
							"name": "carId",
							"type": "uint256"
						}
					],
					"name": "purchaseCar",
					"outputs": [],
					"stateMutability": "payable",
					"type": "function"
				},
				{
					"inputs": [
						{
							"internalType": "uint256",
							"name": "price",
							"type": "uint256"
						},
						{
							"internalType": "uint256",
							"name": "deposit",
							"type": "uint256"
						},
						{
							"internalType": "uint256",
							"name": "leaseTerm",
							"type": "uint256"
						},
						{
							"internalType": "bool",
							"name": "availableForLease",
							"type": "bool"
						},
						{
							"internalType": "bool",
							"name": "availableForSale",
							"type": "bool"
						}
					],
					"name": "registerCar",
					"outputs": [],
					"stateMutability": "nonpayable",
					"type": "function"
				},
				{
					"inputs": [
						{
							"internalType": "address",
							"name": "",
							"type": "address"
						}
					],
					"name": "users",
					"outputs": [
						{
							"internalType": "uint256",
							"name": "totalLeased",
							"type": "uint256"
						},
						{
							"internalType": "uint256",
							"name": "totalPurchased",
							"type": "uint256"
						}
					],
					"stateMutability": "view",
					"type": "function"
				}
			],
			"devdoc": {
				"kind": "dev",
				"methods": {},
				"version": 1
			},
			"evm": {
				"assembly": "    /* \"Decentralizing car leasing and sell/AdvancedCarLeasingAndSales\\xc2\\xa0part 2.sol\":86:3712  contract AdvancedCarLeasingAndSales {... */\n  mstore(0x40, 0x80)\n  callvalue\n  dup1\n  iszero\n  tag_1\n  jumpi\n  0x00\n  dup1\n  revert\ntag_1:\n  pop\n  dataSize(sub_0)\n  dup1\n  dataOffset(sub_0)\n  0x00\n  codecopy\n  0x00\n  return\nstop\n\nsub_0: assembly {\n        /* \"Decentralizing car leasing and sell/AdvancedCarLeasingAndSales\\xc2\\xa0part 2.sol\":86:3712  contract AdvancedCarLeasingAndSales {... */\n      mstore(0x40, 0x80)\n      jumpi(tag_1, lt(calldatasize, 0x04))\n      shr(0xe0, calldataload(0x00))\n      dup1\n      0x8c8bfa06\n      gt\n      tag_11\n      jumpi\n      dup1\n      0x8c8bfa06\n      eq\n      tag_6\n      jumpi\n      dup1\n      0xa87430ba\n      eq\n      tag_7\n      jumpi\n      dup1\n      0xe0ba3fe5\n      eq\n      tag_8\n      jumpi\n      dup1\n      0xe55ddecb\n      eq\n      tag_9\n      jumpi\n      dup1\n      0xf7746e36\n      eq\n      tag_10\n      jumpi\n      jump(tag_1)\n    tag_11:\n      dup1\n      0x421abf3b\n      eq\n      tag_2\n      jumpi\n      dup1\n      0x472ec454\n      eq\n      tag_3\n      jumpi\n      dup1\n      0x4e43603a\n      eq\n      tag_4\n      jumpi\n      dup1\n      0x5d09f7d3\n      eq\n      tag_5\n      jumpi\n    tag_1:\n      0x00\n      dup1\n      revert\n        /* \"Decentralizing car leasing and sell/AdvancedCarLeasingAndSales\\xc2\\xa0part 2.sol\":1985:2494  function leaseCar(uint256 carId) external payable {... */\n    tag_2:\n      tag_12\n      0x04\n      dup1\n      calldatasize\n      sub\n      dup2\n      add\n      swap1\n      tag_13\n      swap2\n      swap1\n      tag_14\n      jump\t// in\n    tag_13:\n      tag_15\n      jump\t// in\n    tag_12:\n      stop\n        /* \"Decentralizing car leasing and sell/AdvancedCarLeasingAndSales\\xc2\\xa0part 2.sol\":3434:3542  function getCarDetails(uint256 carId) external view returns (Car memory) {... */\n    tag_3:\n      callvalue\n      dup1\n      iszero\n      tag_16\n      jumpi\n      0x00\n      dup1\n      revert\n    tag_16:\n      pop\n      tag_17\n      0x04\n      dup1\n      calldatasize\n      sub\n      dup2\n      add\n      swap1\n      tag_18\n      swap2\n      swap1\n      tag_14\n      jump\t// in\n    tag_18:\n      tag_19\n      jump\t// in\n    tag_17:\n      mload(0x40)\n      tag_20\n      swap2\n      swap1\n      tag_21\n      jump\t// in\n    tag_20:\n      mload(0x40)\n      dup1\n      swap2\n      sub\n      swap1\n      return\n        /* \"Decentralizing car leasing and sell/AdvancedCarLeasingAndSales\\xc2\\xa0part 2.sol\":3589:3710  function getUserStats(address userAddress) external view returns (User memory) {... */\n    tag_4:\n      callvalue\n      dup1\n      iszero\n      tag_22\n      jumpi\n      0x00\n      dup1\n      revert\n    tag_22:\n      pop\n      tag_23\n      0x04\n      dup1\n      calldatasize\n      sub\n      dup2\n      add\n      swap1\n      tag_24\n      swap2\n      swap1\n      tag_25\n      jump\t// in\n    tag_24:\n      tag_26\n      jump\t// in\n    tag_23:\n      mload(0x40)\n      tag_27\n      swap2\n      swap1\n      tag_28\n      jump\t// in\n    tag_27:\n      mload(0x40)\n      dup1\n      swap2\n      sub\n      swap1\n      return\n        /* \"Decentralizing car leasing and sell/AdvancedCarLeasingAndSales\\xc2\\xa0part 2.sol\":2575:2936  function extendLease(uint256 carId) external payable {... */\n    tag_5:\n      tag_29\n      0x04\n      dup1\n      calldatasize\n      sub\n      dup2\n      add\n      swap1\n      tag_30\n      swap2\n      swap1\n      tag_14\n      jump\t// in\n    tag_30:\n      tag_31\n      jump\t// in\n    tag_29:\n      stop\n        /* \"Decentralizing car leasing and sell/AdvancedCarLeasingAndSales\\xc2\\xa0part 2.sol\":1140:1164  uint256 public nextCarId */\n    tag_6:\n      callvalue\n      dup1\n      iszero\n      tag_32\n      jumpi\n      0x00\n      dup1\n      revert\n    tag_32:\n      pop\n      tag_33\n      tag_34\n      jump\t// in\n    tag_33:\n      mload(0x40)\n      tag_35\n      swap2\n      swap1\n      tag_36\n      jump\t// in\n    tag_35:\n      mload(0x40)\n      dup1\n      swap2\n      sub\n      swap1\n      return\n        /* \"Decentralizing car leasing and sell/AdvancedCarLeasingAndSales\\xc2\\xa0part 2.sol\":1049:1086  mapping(address => User) public users */\n    tag_7:\n      callvalue\n      dup1\n      iszero\n      tag_37\n      jumpi\n      0x00\n      dup1\n      revert\n    tag_37:\n      pop\n      tag_38\n      0x04\n      dup1\n      calldatasize\n      sub\n      dup2\n      add\n      swap1\n      tag_39\n      swap2\n      swap1\n      tag_25\n      jump\t// in\n    tag_39:\n      tag_40\n      jump\t// in\n    tag_38:\n      mload(0x40)\n      tag_41\n      swap3\n      swap2\n      swap1\n      tag_42\n      jump\t// in\n    tag_41:\n      mload(0x40)\n      dup1\n      swap2\n      sub\n      swap1\n      return\n        /* \"Decentralizing car leasing and sell/AdvancedCarLeasingAndSales\\xc2\\xa0part 2.sol\":2981:3382  function purchaseCar(uint256 carId) external payable {... */\n    tag_8:\n      tag_43\n      0x04\n      dup1\n      calldatasize\n      sub\n      dup2\n      add\n      swap1\n      tag_44\n      swap2\n      swap1\n      tag_14\n      jump\t// in\n    tag_44:\n      tag_45\n      jump\t// in\n    tag_43:\n      stop\n        /* \"Decentralizing car leasing and sell/AdvancedCarLeasingAndSales\\xc2\\xa0part 2.sol\":1575:1907  function registerCar(uint256 price, uint256 deposit, uint256 leaseTerm, bool availableForLease, bool availableForSale) external {... */\n    tag_9:\n      callvalue\n      dup1\n      iszero\n      tag_46\n      jumpi\n      0x00\n      dup1\n      revert\n    tag_46:\n      pop\n      tag_47\n      0x04\n      dup1\n      calldatasize\n      sub\n      dup2\n      add\n      swap1\n      tag_48\n      swap2\n      swap1\n      tag_49\n      jump\t// in\n    tag_48:\n      tag_50\n      jump\t// in\n    tag_47:\n      stop\n        /* \"Decentralizing car leasing and sell/AdvancedCarLeasingAndSales\\xc2\\xa0part 2.sol\":960:995  mapping(uint256 => Car) public cars */\n    tag_10:\n      callvalue\n      dup1\n      iszero\n      tag_51\n      jumpi\n      0x00\n      dup1\n      revert\n    tag_51:\n      pop\n      tag_52\n      0x04\n      dup1\n      calldatasize\n      sub\n      dup2\n      add\n      swap1\n      tag_53\n      swap2\n      swap1\n      tag_14\n      jump\t// in\n    tag_53:\n      tag_54\n      jump\t// in\n    tag_52:\n      mload(0x40)\n      tag_55\n      swap9\n      swap8\n      swap7\n      swap6\n      swap5\n      swap4\n      swap3\n      swap2\n      swap1\n      tag_56\n      jump\t// in\n    tag_55:\n      mload(0x40)\n      dup1\n      swap2\n      sub\n      swap1\n      return\n        /* \"Decentralizing car leasing and sell/AdvancedCarLeasingAndSales\\xc2\\xa0part 2.sol\":1985:2494  function leaseCar(uint256 carId) external payable {... */\n    tag_15:\n        /* \"Decentralizing car leasing and sell/AdvancedCarLeasingAndSales\\xc2\\xa0part 2.sol\":2045:2060  Car storage car */\n      0x00\n        /* \"Decentralizing car leasing and sell/AdvancedCarLeasingAndSales\\xc2\\xa0part 2.sol\":2063:2067  cars */\n      dup1\n        /* \"Decentralizing car leasing and sell/AdvancedCarLeasingAndSales\\xc2\\xa0part 2.sol\":2063:2074  cars[carId] */\n      0x00\n        /* \"Decentralizing car leasing and sell/AdvancedCarLeasingAndSales\\xc2\\xa0part 2.sol\":2068:2073  carId */\n      dup4\n        /* \"Decentralizing car leasing and sell/AdvancedCarLeasingAndSales\\xc2\\xa0part 2.sol\":2063:2074  cars[carId] */\n      dup2\n      mstore\n      0x20\n      add\n      swap1\n      dup2\n      mstore\n      0x20\n      add\n      0x00\n      keccak256\n        /* \"Decentralizing car leasing and sell/AdvancedCarLeasingAndSales\\xc2\\xa0part 2.sol\":2045:2074  Car storage car = cars[carId] */\n      swap1\n      pop\n        /* \"Decentralizing car leasing and sell/AdvancedCarLeasingAndSales\\xc2\\xa0part 2.sol\":2092:2095  car */\n      dup1\n        /* \"Decentralizing car leasing and sell/AdvancedCarLeasingAndSales\\xc2\\xa0part 2.sol\":2092:2115  car.isAvailableForLease */\n      0x06\n      add\n      0x00\n      swap1\n      sload\n      swap1\n      0x0100\n      exp\n      swap1\n      div\n      0xff\n      and\n        /* \"Decentralizing car leasing and sell/AdvancedCarLeasingAndSales\\xc2\\xa0part 2.sol\":2084:2148  require(car.isAvailableForLease, \"Car not available for lease.\") */\n      tag_58\n      jumpi\n      mload(0x40)\n      0x08c379a000000000000000000000000000000000000000000000000000000000\n      dup2\n      mstore\n      0x04\n      add\n      tag_59\n      swap1\n      tag_60\n      jump\t// in\n    tag_59:\n      mload(0x40)\n      dup1\n      swap2\n      sub\n      swap1\n      revert\n    tag_58:\n        /* \"Decentralizing car leasing and sell/AdvancedCarLeasingAndSales\\xc2\\xa0part 2.sol\":2179:2182  car */\n      dup1\n        /* \"Decentralizing car leasing and sell/AdvancedCarLeasingAndSales\\xc2\\xa0part 2.sol\":2179:2190  car.deposit */\n      0x03\n      add\n      sload\n        /* \"Decentralizing car leasing and sell/AdvancedCarLeasingAndSales\\xc2\\xa0part 2.sol\":2166:2175  msg.value */\n      callvalue\n        /* \"Decentralizing car leasing and sell/AdvancedCarLeasingAndSales\\xc2\\xa0part 2.sol\":2166:2190  msg.value == car.deposit */\n      eq\n        /* \"Decentralizing car leasing and sell/AdvancedCarLeasingAndSales\\xc2\\xa0part 2.sol\":2158:2220  require(msg.value == car.deposit, \"Incorrect deposit amount.\") */\n      tag_61\n      jumpi\n      mload(0x40)\n      0x08c379a000000000000000000000000000000000000000000000000000000000\n      dup2\n      mstore\n      0x04\n      add\n      tag_62\n      swap1\n      tag_63\n      jump\t// in\n    tag_62:\n      mload(0x40)\n      dup1\n      swap2\n      sub\n      swap1\n      revert\n    tag_61:\n        /* \"Decentralizing car leasing and sell/AdvancedCarLeasingAndSales\\xc2\\xa0part 2.sol\":2254:2255  0 */\n      0x00\n        /* \"Decentralizing car leasing and sell/AdvancedCarLeasingAndSales\\xc2\\xa0part 2.sol\":2238:2241  car */\n      dup2\n        /* \"Decentralizing car leasing and sell/AdvancedCarLeasingAndSales\\xc2\\xa0part 2.sol\":2238:2251  car.leaseTerm */\n      0x04\n      add\n      sload\n        /* \"Decentralizing car leasing and sell/AdvancedCarLeasingAndSales\\xc2\\xa0part 2.sol\":2238:2255  car.leaseTerm > 0 */\n      gt\n        /* \"Decentralizing car leasing and sell/AdvancedCarLeasingAndSales\\xc2\\xa0part 2.sol\":2230:2279  require(car.leaseTerm > 0, \"Invalid lease term.\") */\n      tag_64\n      jumpi\n      mload(0x40)\n      0x08c379a000000000000000000000000000000000000000000000000000000000\n      dup2\n      mstore\n      0x04\n      add\n      tag_65\n      swap1\n      tag_66\n      jump\t// in\n    tag_65:\n      mload(0x40)\n      dup1\n      swap2\n      sub\n      swap1\n      revert\n    tag_64:\n        /* \"Decentralizing car leasing and sell/AdvancedCarLeasingAndSales\\xc2\\xa0part 2.sol\":2340:2346  1 days */\n      0x015180\n        /* \"Decentralizing car leasing and sell/AdvancedCarLeasingAndSales\\xc2\\xa0part 2.sol\":2324:2327  car */\n      dup2\n        /* \"Decentralizing car leasing and sell/AdvancedCarLeasingAndSales\\xc2\\xa0part 2.sol\":2324:2337  car.leaseTerm */\n      0x04\n      add\n      sload\n        /* \"Decentralizing car leasing and sell/AdvancedCarLeasingAndSales\\xc2\\xa0part 2.sol\":2324:2346  car.leaseTerm * 1 days */\n      tag_67\n      swap2\n      swap1\n      tag_68\n      jump\t// in\n    tag_67:\n        /* \"Decentralizing car leasing and sell/AdvancedCarLeasingAndSales\\xc2\\xa0part 2.sol\":2305:2320  block.timestamp */\n      timestamp\n        /* \"Decentralizing car leasing and sell/AdvancedCarLeasingAndSales\\xc2\\xa0part 2.sol\":2305:2347  block.timestamp + (car.leaseTerm * 1 days) */\n      tag_69\n      swap2\n      swap1\n      tag_70\n      jump\t// in\n    tag_69:\n        /* \"Decentralizing car leasing and sell/AdvancedCarLeasingAndSales\\xc2\\xa0part 2.sol\":2290:2293  car */\n      dup2\n        /* \"Decentralizing car leasing and sell/AdvancedCarLeasingAndSales\\xc2\\xa0part 2.sol\":2290:2302  car.leaseEnd */\n      0x05\n      add\n        /* \"Decentralizing car leasing and sell/AdvancedCarLeasingAndSales\\xc2\\xa0part 2.sol\":2290:2347  car.leaseEnd = block.timestamp + (car.leaseTerm * 1 days) */\n      dup2\n      swap1\n      sstore\n      pop\n        /* \"Decentralizing car leasing and sell/AdvancedCarLeasingAndSales\\xc2\\xa0part 2.sol\":2383:2388  false */\n      0x00\n        /* \"Decentralizing car leasing and sell/AdvancedCarLeasingAndSales\\xc2\\xa0part 2.sol\":2357:2360  car */\n      dup2\n        /* \"Decentralizing car leasing and sell/AdvancedCarLeasingAndSales\\xc2\\xa0part 2.sol\":2357:2380  car.isAvailableForLease */\n      0x06\n      add\n      0x00\n        /* \"Decentralizing car leasing and sell/AdvancedCarLeasingAndSales\\xc2\\xa0part 2.sol\":2357:2388  car.isAvailableForLease = false */\n      0x0100\n      exp\n      dup2\n      sload\n      dup2\n      0xff\n      mul\n      not\n      and\n      swap1\n      dup4\n      iszero\n      iszero\n      mul\n      or\n      swap1\n      sstore\n      pop\n        /* \"Decentralizing car leasing and sell/AdvancedCarLeasingAndSales\\xc2\\xa0part 2.sol\":2398:2403  users */\n      0x01\n        /* \"Decentralizing car leasing and sell/AdvancedCarLeasingAndSales\\xc2\\xa0part 2.sol\":2398:2415  users[msg.sender] */\n      0x00\n        /* \"Decentralizing car leasing and sell/AdvancedCarLeasingAndSales\\xc2\\xa0part 2.sol\":2404:2414  msg.sender */\n      caller\n        /* \"Decentralizing car leasing and sell/AdvancedCarLeasingAndSales\\xc2\\xa0part 2.sol\":2398:2415  users[msg.sender] */\n      0xffffffffffffffffffffffffffffffffffffffff\n      and\n      0xffffffffffffffffffffffffffffffffffffffff\n      and\n      dup2\n      mstore\n      0x20\n      add\n      swap1\n      dup2\n      mstore\n      0x20\n      add\n      0x00\n      keccak256\n        /* \"Decentralizing car leasing and sell/AdvancedCarLeasingAndSales\\xc2\\xa0part 2.sol\":2398:2427  users[msg.sender].totalLeased */\n      0x00\n      add\n      0x00\n        /* \"Decentralizing car leasing and sell/AdvancedCarLeasingAndSales\\xc2\\xa0part 2.sol\":2398:2429  users[msg.sender].totalLeased++ */\n      dup2\n      sload\n      dup1\n      swap3\n      swap2\n      swap1\n      tag_71\n      swap1\n      tag_72\n      jump\t// in\n    tag_71:\n      swap2\n      swap1\n      pop\n      sstore\n      pop\n        /* \"Decentralizing car leasing and sell/AdvancedCarLeasingAndSales\\xc2\\xa0part 2.sol\":2462:2472  msg.sender */\n      caller\n        /* \"Decentralizing car leasing and sell/AdvancedCarLeasingAndSales\\xc2\\xa0part 2.sol\":2445:2487  CarLeased(carId, msg.sender, car.leaseEnd) */\n      0xffffffffffffffffffffffffffffffffffffffff\n      and\n        /* \"Decentralizing car leasing and sell/AdvancedCarLeasingAndSales\\xc2\\xa0part 2.sol\":2455:2460  carId */\n      dup3\n        /* \"Decentralizing car leasing and sell/AdvancedCarLeasingAndSales\\xc2\\xa0part 2.sol\":2445:2487  CarLeased(carId, msg.sender, car.leaseEnd) */\n      0x895b702ceb191a27930fb9aeadcdd3208e697d0850c766f2ff5acaff05ef40aa\n        /* \"Decentralizing car leasing and sell/AdvancedCarLeasingAndSales\\xc2\\xa0part 2.sol\":2474:2477  car */\n      dup4\n        /* \"Decentralizing car leasing and sell/AdvancedCarLeasingAndSales\\xc2\\xa0part 2.sol\":2474:2486  car.leaseEnd */\n      0x05\n      add\n      sload\n        /* \"Decentralizing car leasing and sell/AdvancedCarLeasingAndSales\\xc2\\xa0part 2.sol\":2445:2487  CarLeased(carId, msg.sender, car.leaseEnd) */\n      mload(0x40)\n      tag_73\n      swap2\n      swap1\n      tag_36\n      jump\t// in\n    tag_73:\n      mload(0x40)\n      dup1\n      swap2\n      sub\n      swap1\n      log3\n        /* \"Decentralizing car leasing and sell/AdvancedCarLeasingAndSales\\xc2\\xa0part 2.sol\":2035:2494  {... */\n      pop\n        /* \"Decentralizing car leasing and sell/AdvancedCarLeasingAndSales\\xc2\\xa0part 2.sol\":1985:2494  function leaseCar(uint256 carId) external payable {... */\n      pop\n      jump\t// out\n        /* \"Decentralizing car leasing and sell/AdvancedCarLeasingAndSales\\xc2\\xa0part 2.sol\":3434:3542  function getCarDetails(uint256 carId) external view returns (Car memory) {... */\n    tag_19:\n        /* \"Decentralizing car leasing and sell/AdvancedCarLeasingAndSales\\xc2\\xa0part 2.sol\":3495:3505  Car memory */\n      tag_74\n      tag_75\n      jump\t// in\n    tag_74:\n        /* \"Decentralizing car leasing and sell/AdvancedCarLeasingAndSales\\xc2\\xa0part 2.sol\":3524:3528  cars */\n      0x00\n        /* \"Decentralizing car leasing and sell/AdvancedCarLeasingAndSales\\xc2\\xa0part 2.sol\":3524:3535  cars[carId] */\n      dup1\n        /* \"Decentralizing car leasing and sell/AdvancedCarLeasingAndSales\\xc2\\xa0part 2.sol\":3529:3534  carId */\n      dup4\n        /* \"Decentralizing car leasing and sell/AdvancedCarLeasingAndSales\\xc2\\xa0part 2.sol\":3524:3535  cars[carId] */\n      dup2\n      mstore\n      0x20\n      add\n      swap1\n      dup2\n      mstore\n      0x20\n      add\n      0x00\n      keccak256\n        /* \"Decentralizing car leasing and sell/AdvancedCarLeasingAndSales\\xc2\\xa0part 2.sol\":3517:3535  return cars[carId] */\n      mload(0x40)\n      dup1\n      0x0100\n      add\n      0x40\n      mstore\n      swap1\n      dup2\n      0x00\n      dup3\n      add\n      sload\n      dup2\n      mstore\n      0x20\n      add\n      0x01\n      dup3\n      add\n      0x00\n      swap1\n      sload\n      swap1\n      0x0100\n      exp\n      swap1\n      div\n      0xffffffffffffffffffffffffffffffffffffffff\n      and\n      0xffffffffffffffffffffffffffffffffffffffff\n      and\n      0xffffffffffffffffffffffffffffffffffffffff\n      and\n      dup2\n      mstore\n      0x20\n      add\n      0x02\n      dup3\n      add\n      sload\n      dup2\n      mstore\n      0x20\n      add\n      0x03\n      dup3\n      add\n      sload\n      dup2\n      mstore\n      0x20\n      add\n      0x04\n      dup3\n      add\n      sload\n      dup2\n      mstore\n      0x20\n      add\n      0x05\n      dup3\n      add\n      sload\n      dup2\n      mstore\n      0x20\n      add\n      0x06\n      dup3\n      add\n      0x00\n      swap1\n      sload\n      swap1\n      0x0100\n      exp\n      swap1\n      div\n      0xff\n      and\n      iszero\n      iszero\n      iszero\n      iszero\n      dup2\n      mstore\n      0x20\n      add\n      0x06\n      dup3\n      add\n      0x01\n      swap1\n      sload\n      swap1\n      0x0100\n      exp\n      swap1\n      div\n      0xff\n      and\n      iszero\n      iszero\n      iszero\n      iszero\n      dup2\n      mstore\n      pop\n      pop\n      swap1\n      pop\n        /* \"Decentralizing car leasing and sell/AdvancedCarLeasingAndSales\\xc2\\xa0part 2.sol\":3434:3542  function getCarDetails(uint256 carId) external view returns (Car memory) {... */\n      swap2\n      swap1\n      pop\n      jump\t// out\n        /* \"Decentralizing car leasing and sell/AdvancedCarLeasingAndSales\\xc2\\xa0part 2.sol\":3589:3710  function getUserStats(address userAddress) external view returns (User memory) {... */\n    tag_26:\n        /* \"Decentralizing car leasing and sell/AdvancedCarLeasingAndSales\\xc2\\xa0part 2.sol\":3655:3666  User memory */\n      tag_77\n      tag_78\n      jump\t// in\n    tag_77:\n        /* \"Decentralizing car leasing and sell/AdvancedCarLeasingAndSales\\xc2\\xa0part 2.sol\":3685:3690  users */\n      0x01\n        /* \"Decentralizing car leasing and sell/AdvancedCarLeasingAndSales\\xc2\\xa0part 2.sol\":3685:3703  users[userAddress] */\n      0x00\n        /* \"Decentralizing car leasing and sell/AdvancedCarLeasingAndSales\\xc2\\xa0part 2.sol\":3691:3702  userAddress */\n      dup4\n        /* \"Decentralizing car leasing and sell/AdvancedCarLeasingAndSales\\xc2\\xa0part 2.sol\":3685:3703  users[userAddress] */\n      0xffffffffffffffffffffffffffffffffffffffff\n      and\n      0xffffffffffffffffffffffffffffffffffffffff\n      and\n      dup2\n      mstore\n      0x20\n      add\n      swap1\n      dup2\n      mstore\n      0x20\n      add\n      0x00\n      keccak256\n        /* \"Decentralizing car leasing and sell/AdvancedCarLeasingAndSales\\xc2\\xa0part 2.sol\":3678:3703  return users[userAddress] */\n      mload(0x40)\n      dup1\n      0x40\n      add\n      0x40\n      mstore\n      swap1\n      dup2\n      0x00\n      dup3\n      add\n      sload\n      dup2\n      mstore\n      0x20\n      add\n      0x01\n      dup3\n      add\n      sload\n      dup2\n      mstore\n      pop\n      pop\n      swap1\n      pop\n        /* \"Decentralizing car leasing and sell/AdvancedCarLeasingAndSales\\xc2\\xa0part 2.sol\":3589:3710  function getUserStats(address userAddress) external view returns (User memory) {... */\n      swap2\n      swap1\n      pop\n      jump\t// out\n        /* \"Decentralizing car leasing and sell/AdvancedCarLeasingAndSales\\xc2\\xa0part 2.sol\":2575:2936  function extendLease(uint256 carId) external payable {... */\n    tag_31:\n        /* \"Decentralizing car leasing and sell/AdvancedCarLeasingAndSales\\xc2\\xa0part 2.sol\":2638:2653  Car storage car */\n      0x00\n        /* \"Decentralizing car leasing and sell/AdvancedCarLeasingAndSales\\xc2\\xa0part 2.sol\":2656:2660  cars */\n      dup1\n        /* \"Decentralizing car leasing and sell/AdvancedCarLeasingAndSales\\xc2\\xa0part 2.sol\":2656:2667  cars[carId] */\n      0x00\n        /* \"Decentralizing car leasing and sell/AdvancedCarLeasingAndSales\\xc2\\xa0part 2.sol\":2661:2666  carId */\n      dup4\n        /* \"Decentralizing car leasing and sell/AdvancedCarLeasingAndSales\\xc2\\xa0part 2.sol\":2656:2667  cars[carId] */\n      dup2\n      mstore\n      0x20\n      add\n      swap1\n      dup2\n      mstore\n      0x20\n      add\n      0x00\n      keccak256\n        /* \"Decentralizing car leasing and sell/AdvancedCarLeasingAndSales\\xc2\\xa0part 2.sol\":2638:2667  Car storage car = cars[carId] */\n      swap1\n      pop\n        /* \"Decentralizing car leasing and sell/AdvancedCarLeasingAndSales\\xc2\\xa0part 2.sol\":2703:2706  car */\n      dup1\n        /* \"Decentralizing car leasing and sell/AdvancedCarLeasingAndSales\\xc2\\xa0part 2.sol\":2703:2715  car.leaseEnd */\n      0x05\n      add\n      sload\n        /* \"Decentralizing car leasing and sell/AdvancedCarLeasingAndSales\\xc2\\xa0part 2.sol\":2685:2700  block.timestamp */\n      timestamp\n        /* \"Decentralizing car leasing and sell/AdvancedCarLeasingAndSales\\xc2\\xa0part 2.sol\":2685:2715  block.timestamp < car.leaseEnd */\n      lt\n        /* \"Decentralizing car leasing and sell/AdvancedCarLeasingAndSales\\xc2\\xa0part 2.sol\":2677:2744  require(block.timestamp < car.leaseEnd, \"Current lease has ended.\") */\n      tag_81\n      jumpi\n      mload(0x40)\n      0x08c379a000000000000000000000000000000000000000000000000000000000\n      dup2\n      mstore\n      0x04\n      add\n      tag_82\n      swap1\n      tag_83\n      jump\t// in\n    tag_82:\n      mload(0x40)\n      dup1\n      swap2\n      sub\n      swap1\n      revert\n    tag_81:\n        /* \"Decentralizing car leasing and sell/AdvancedCarLeasingAndSales\\xc2\\xa0part 2.sol\":2775:2778  car */\n      dup1\n        /* \"Decentralizing car leasing and sell/AdvancedCarLeasingAndSales\\xc2\\xa0part 2.sol\":2775:2786  car.deposit */\n      0x03\n      add\n      sload\n        /* \"Decentralizing car leasing and sell/AdvancedCarLeasingAndSales\\xc2\\xa0part 2.sol\":2762:2771  msg.value */\n      callvalue\n        /* \"Decentralizing car leasing and sell/AdvancedCarLeasingAndSales\\xc2\\xa0part 2.sol\":2762:2786  msg.value == car.deposit */\n      eq\n        /* \"Decentralizing car leasing and sell/AdvancedCarLeasingAndSales\\xc2\\xa0part 2.sol\":2754:2830  require(msg.value == car.deposit, \"Incorrect deposit amount for extension.\") */\n      tag_84\n      jumpi\n      mload(0x40)\n      0x08c379a000000000000000000000000000000000000000000000000000000000\n      dup2\n      mstore\n      0x04\n      add\n      tag_85\n      swap1\n      tag_86\n      jump\t// in\n    tag_85:\n      mload(0x40)\n      dup1\n      swap2\n      sub\n      swap1\n      revert\n    tag_84:\n        /* \"Decentralizing car leasing and sell/AdvancedCarLeasingAndSales\\xc2\\xa0part 2.sol\":2873:2879  1 days */\n      0x015180\n        /* \"Decentralizing car leasing and sell/AdvancedCarLeasingAndSales\\xc2\\xa0part 2.sol\":2857:2860  car */\n      dup2\n        /* \"Decentralizing car leasing and sell/AdvancedCarLeasingAndSales\\xc2\\xa0part 2.sol\":2857:2870  car.leaseTerm */\n      0x04\n      add\n      sload\n        /* \"Decentralizing car leasing and sell/AdvancedCarLeasingAndSales\\xc2\\xa0part 2.sol\":2857:2879  car.leaseTerm * 1 days */\n      tag_87\n      swap2\n      swap1\n      tag_68\n      jump\t// in\n    tag_87:\n        /* \"Decentralizing car leasing and sell/AdvancedCarLeasingAndSales\\xc2\\xa0part 2.sol\":2841:2844  car */\n      dup2\n        /* \"Decentralizing car leasing and sell/AdvancedCarLeasingAndSales\\xc2\\xa0part 2.sol\":2841:2853  car.leaseEnd */\n      0x05\n      add\n      0x00\n        /* \"Decentralizing car leasing and sell/AdvancedCarLeasingAndSales\\xc2\\xa0part 2.sol\":2841:2879  car.leaseEnd += car.leaseTerm * 1 days */\n      dup3\n      dup3\n      sload\n      tag_88\n      swap2\n      swap1\n      tag_70\n      jump\t// in\n    tag_88:\n      swap3\n      pop\n      pop\n      dup2\n      swap1\n      sstore\n      pop\n        /* \"Decentralizing car leasing and sell/AdvancedCarLeasingAndSales\\xc2\\xa0part 2.sol\":2909:2914  carId */\n      dup2\n        /* \"Decentralizing car leasing and sell/AdvancedCarLeasingAndSales\\xc2\\xa0part 2.sol\":2895:2929  LeaseExtended(carId, car.leaseEnd) */\n      0xbe8718ddf8e3be9e92c7675f70838781862c60e726fc7ca7717ec53360e18299\n        /* \"Decentralizing car leasing and sell/AdvancedCarLeasingAndSales\\xc2\\xa0part 2.sol\":2916:2919  car */\n      dup3\n        /* \"Decentralizing car leasing and sell/AdvancedCarLeasingAndSales\\xc2\\xa0part 2.sol\":2916:2928  car.leaseEnd */\n      0x05\n      add\n      sload\n        /* \"Decentralizing car leasing and sell/AdvancedCarLeasingAndSales\\xc2\\xa0part 2.sol\":2895:2929  LeaseExtended(carId, car.leaseEnd) */\n      mload(0x40)\n      tag_89\n      swap2\n      swap1\n      tag_36\n      jump\t// in\n    tag_89:\n      mload(0x40)\n      dup1\n      swap2\n      sub\n      swap1\n      log2\n        /* \"Decentralizing car leasing and sell/AdvancedCarLeasingAndSales\\xc2\\xa0part 2.sol\":2628:2936  {... */\n      pop\n        /* \"Decentralizing car leasing and sell/AdvancedCarLeasingAndSales\\xc2\\xa0part 2.sol\":2575:2936  function extendLease(uint256 carId) external payable {... */\n      pop\n      jump\t// out\n        /* \"Decentralizing car leasing and sell/AdvancedCarLeasingAndSales\\xc2\\xa0part 2.sol\":1140:1164  uint256 public nextCarId */\n    tag_34:\n      sload(0x02)\n      dup2\n      jump\t// out\n        /* \"Decentralizing car leasing and sell/AdvancedCarLeasingAndSales\\xc2\\xa0part 2.sol\":1049:1086  mapping(address => User) public users */\n    tag_40:\n      mstore(0x20, 0x01)\n      dup1\n      0x00\n      mstore\n      keccak256(0x00, 0x40)\n      0x00\n      swap2\n      pop\n      swap1\n      pop\n      dup1\n      0x00\n      add\n      sload\n      swap1\n      dup1\n      0x01\n      add\n      sload\n      swap1\n      pop\n      dup3\n      jump\t// out\n        /* \"Decentralizing car leasing and sell/AdvancedCarLeasingAndSales\\xc2\\xa0part 2.sol\":2981:3382  function purchaseCar(uint256 carId) external payable {... */\n    tag_45:\n        /* \"Decentralizing car leasing and sell/AdvancedCarLeasingAndSales\\xc2\\xa0part 2.sol\":3044:3059  Car storage car */\n      0x00\n        /* \"Decentralizing car leasing and sell/AdvancedCarLeasingAndSales\\xc2\\xa0part 2.sol\":3062:3066  cars */\n      dup1\n        /* \"Decentralizing car leasing and sell/AdvancedCarLeasingAndSales\\xc2\\xa0part 2.sol\":3062:3073  cars[carId] */\n      0x00\n        /* \"Decentralizing car leasing and sell/AdvancedCarLeasingAndSales\\xc2\\xa0part 2.sol\":3067:3072  carId */\n      dup4\n        /* \"Decentralizing car leasing and sell/AdvancedCarLeasingAndSales\\xc2\\xa0part 2.sol\":3062:3073  cars[carId] */\n      dup2\n      mstore\n      0x20\n      add\n      swap1\n      dup2\n      mstore\n      0x20\n      add\n      0x00\n      keccak256\n        /* \"Decentralizing car leasing and sell/AdvancedCarLeasingAndSales\\xc2\\xa0part 2.sol\":3044:3073  Car storage car = cars[carId] */\n      swap1\n      pop\n        /* \"Decentralizing car leasing and sell/AdvancedCarLeasingAndSales\\xc2\\xa0part 2.sol\":3091:3094  car */\n      dup1\n        /* \"Decentralizing car leasing and sell/AdvancedCarLeasingAndSales\\xc2\\xa0part 2.sol\":3091:3113  car.isAvailableForSale */\n      0x06\n      add\n      0x01\n      swap1\n      sload\n      swap1\n      0x0100\n      exp\n      swap1\n      div\n      0xff\n      and\n        /* \"Decentralizing car leasing and sell/AdvancedCarLeasingAndSales\\xc2\\xa0part 2.sol\":3083:3145  require(car.isAvailableForSale, \"Car not available for sale.\") */\n      tag_91\n      jumpi\n      mload(0x40)\n      0x08c379a000000000000000000000000000000000000000000000000000000000\n      dup2\n      mstore\n      0x04\n      add\n      tag_92\n      swap1\n      tag_93\n      jump\t// in\n    tag_92:\n      mload(0x40)\n      dup1\n      swap2\n      sub\n      swap1\n      revert\n    tag_91:\n        /* \"Decentralizing car leasing and sell/AdvancedCarLeasingAndSales\\xc2\\xa0part 2.sol\":3176:3179  car */\n      dup1\n        /* \"Decentralizing car leasing and sell/AdvancedCarLeasingAndSales\\xc2\\xa0part 2.sol\":3176:3185  car.price */\n      0x02\n      add\n      sload\n        /* \"Decentralizing car leasing and sell/AdvancedCarLeasingAndSales\\xc2\\xa0part 2.sol\":3163:3172  msg.value */\n      callvalue\n        /* \"Decentralizing car leasing and sell/AdvancedCarLeasingAndSales\\xc2\\xa0part 2.sol\":3163:3185  msg.value == car.price */\n      eq\n        /* \"Decentralizing car leasing and sell/AdvancedCarLeasingAndSales\\xc2\\xa0part 2.sol\":3155:3211  require(msg.value == car.price, \"Incorrect price paid.\") */\n      tag_94\n      jumpi\n      mload(0x40)\n      0x08c379a000000000000000000000000000000000000000000000000000000000\n      dup2\n      mstore\n      0x04\n      add\n      tag_95\n      swap1\n      tag_96\n      jump\t// in\n    tag_95:\n      mload(0x40)\n      dup1\n      swap2\n      sub\n      swap1\n      revert\n    tag_94:\n        /* \"Decentralizing car leasing and sell/AdvancedCarLeasingAndSales\\xc2\\xa0part 2.sol\":3234:3244  msg.sender */\n      caller\n        /* \"Decentralizing car leasing and sell/AdvancedCarLeasingAndSales\\xc2\\xa0part 2.sol\":3222:3225  car */\n      dup2\n        /* \"Decentralizing car leasing and sell/AdvancedCarLeasingAndSales\\xc2\\xa0part 2.sol\":3222:3231  car.owner */\n      0x01\n      add\n      0x00\n        /* \"Decentralizing car leasing and sell/AdvancedCarLeasingAndSales\\xc2\\xa0part 2.sol\":3222:3244  car.owner = msg.sender */\n      0x0100\n      exp\n      dup2\n      sload\n      dup2\n      0xffffffffffffffffffffffffffffffffffffffff\n      mul\n      not\n      and\n      swap1\n      dup4\n      0xffffffffffffffffffffffffffffffffffffffff\n      and\n      mul\n      or\n      swap1\n      sstore\n      pop\n        /* \"Decentralizing car leasing and sell/AdvancedCarLeasingAndSales\\xc2\\xa0part 2.sol\":3279:3284  false */\n      0x00\n        /* \"Decentralizing car leasing and sell/AdvancedCarLeasingAndSales\\xc2\\xa0part 2.sol\":3254:3257  car */\n      dup2\n        /* \"Decentralizing car leasing and sell/AdvancedCarLeasingAndSales\\xc2\\xa0part 2.sol\":3254:3276  car.isAvailableForSale */\n      0x06\n      add\n      0x01\n        /* \"Decentralizing car leasing and sell/AdvancedCarLeasingAndSales\\xc2\\xa0part 2.sol\":3254:3284  car.isAvailableForSale = false */\n      0x0100\n      exp\n      dup2\n      sload\n      dup2\n      0xff\n      mul\n      not\n      and\n      swap1\n      dup4\n      iszero\n      iszero\n      mul\n      or\n      swap1\n      sstore\n      pop\n        /* \"Decentralizing car leasing and sell/AdvancedCarLeasingAndSales\\xc2\\xa0part 2.sol\":3294:3299  users */\n      0x01\n        /* \"Decentralizing car leasing and sell/AdvancedCarLeasingAndSales\\xc2\\xa0part 2.sol\":3294:3311  users[msg.sender] */\n      0x00\n        /* \"Decentralizing car leasing and sell/AdvancedCarLeasingAndSales\\xc2\\xa0part 2.sol\":3300:3310  msg.sender */\n      caller\n        /* \"Decentralizing car leasing and sell/AdvancedCarLeasingAndSales\\xc2\\xa0part 2.sol\":3294:3311  users[msg.sender] */\n      0xffffffffffffffffffffffffffffffffffffffff\n      and\n      0xffffffffffffffffffffffffffffffffffffffff\n      and\n      dup2\n      mstore\n      0x20\n      add\n      swap1\n      dup2\n      mstore\n      0x20\n      add\n      0x00\n      keccak256\n        /* \"Decentralizing car leasing and sell/AdvancedCarLeasingAndSales\\xc2\\xa0part 2.sol\":3294:3326  users[msg.sender].totalPurchased */\n      0x01\n      add\n      0x00\n        /* \"Decentralizing car leasing and sell/AdvancedCarLeasingAndSales\\xc2\\xa0part 2.sol\":3294:3328  users[msg.sender].totalPurchased++ */\n      dup2\n      sload\n      dup1\n      swap3\n      swap2\n      swap1\n      tag_97\n      swap1\n      tag_72\n      jump\t// in\n    tag_97:\n      swap2\n      swap1\n      pop\n      sstore\n      pop\n        /* \"Decentralizing car leasing and sell/AdvancedCarLeasingAndSales\\xc2\\xa0part 2.sol\":3364:3374  msg.sender */\n      caller\n        /* \"Decentralizing car leasing and sell/AdvancedCarLeasingAndSales\\xc2\\xa0part 2.sol\":3344:3375  CarPurchased(carId, msg.sender) */\n      0xffffffffffffffffffffffffffffffffffffffff\n      and\n        /* \"Decentralizing car leasing and sell/AdvancedCarLeasingAndSales\\xc2\\xa0part 2.sol\":3357:3362  carId */\n      dup3\n        /* \"Decentralizing car leasing and sell/AdvancedCarLeasingAndSales\\xc2\\xa0part 2.sol\":3344:3375  CarPurchased(carId, msg.sender) */\n      0x80ca24d2a1344a89386e729be0463ca3613656f33d52a5f7674c02cc11594b9b\n      mload(0x40)\n      mload(0x40)\n      dup1\n      swap2\n      sub\n      swap1\n      log3\n        /* \"Decentralizing car leasing and sell/AdvancedCarLeasingAndSales\\xc2\\xa0part 2.sol\":3034:3382  {... */\n      pop\n        /* \"Decentralizing car leasing and sell/AdvancedCarLeasingAndSales\\xc2\\xa0part 2.sol\":2981:3382  function purchaseCar(uint256 carId) external payable {... */\n      pop\n      jump\t// out\n        /* \"Decentralizing car leasing and sell/AdvancedCarLeasingAndSales\\xc2\\xa0part 2.sol\":1575:1907  function registerCar(uint256 price, uint256 deposit, uint256 leaseTerm, bool availableForLease, bool availableForSale) external {... */\n    tag_50:\n        /* \"Decentralizing car leasing and sell/AdvancedCarLeasingAndSales\\xc2\\xa0part 2.sol\":1713:1726  uint256 carId */\n      0x00\n        /* \"Decentralizing car leasing and sell/AdvancedCarLeasingAndSales\\xc2\\xa0part 2.sol\":1729:1738  nextCarId */\n      0x02\n      0x00\n        /* \"Decentralizing car leasing and sell/AdvancedCarLeasingAndSales\\xc2\\xa0part 2.sol\":1729:1740  nextCarId++ */\n      dup2\n      sload\n      dup1\n      swap3\n      swap2\n      swap1\n      tag_99\n      swap1\n      tag_72\n      jump\t// in\n    tag_99:\n      swap2\n      swap1\n      pop\n      sstore\n        /* \"Decentralizing car leasing and sell/AdvancedCarLeasingAndSales\\xc2\\xa0part 2.sol\":1713:1740  uint256 carId = nextCarId++ */\n      swap1\n      pop\n        /* \"Decentralizing car leasing and sell/AdvancedCarLeasingAndSales\\xc2\\xa0part 2.sol\":1764:1853  Car(carId, msg.sender, price, deposit, leaseTerm, 0, availableForLease, availableForSale) */\n      mload(0x40)\n      dup1\n      0x0100\n      add\n      0x40\n      mstore\n      dup1\n        /* \"Decentralizing car leasing and sell/AdvancedCarLeasingAndSales\\xc2\\xa0part 2.sol\":1768:1773  carId */\n      dup3\n        /* \"Decentralizing car leasing and sell/AdvancedCarLeasingAndSales\\xc2\\xa0part 2.sol\":1764:1853  Car(carId, msg.sender, price, deposit, leaseTerm, 0, availableForLease, availableForSale) */\n      dup2\n      mstore\n      0x20\n      add\n        /* \"Decentralizing car leasing and sell/AdvancedCarLeasingAndSales\\xc2\\xa0part 2.sol\":1775:1785  msg.sender */\n      caller\n        /* \"Decentralizing car leasing and sell/AdvancedCarLeasingAndSales\\xc2\\xa0part 2.sol\":1764:1853  Car(carId, msg.sender, price, deposit, leaseTerm, 0, availableForLease, availableForSale) */\n      0xffffffffffffffffffffffffffffffffffffffff\n      and\n      dup2\n      mstore\n      0x20\n      add\n        /* \"Decentralizing car leasing and sell/AdvancedCarLeasingAndSales\\xc2\\xa0part 2.sol\":1787:1792  price */\n      dup8\n        /* \"Decentralizing car leasing and sell/AdvancedCarLeasingAndSales\\xc2\\xa0part 2.sol\":1764:1853  Car(carId, msg.sender, price, deposit, leaseTerm, 0, availableForLease, availableForSale) */\n      dup2\n      mstore\n      0x20\n      add\n        /* \"Decentralizing car leasing and sell/AdvancedCarLeasingAndSales\\xc2\\xa0part 2.sol\":1794:1801  deposit */\n      dup7\n        /* \"Decentralizing car leasing and sell/AdvancedCarLeasingAndSales\\xc2\\xa0part 2.sol\":1764:1853  Car(carId, msg.sender, price, deposit, leaseTerm, 0, availableForLease, availableForSale) */\n      dup2\n      mstore\n      0x20\n      add\n        /* \"Decentralizing car leasing and sell/AdvancedCarLeasingAndSales\\xc2\\xa0part 2.sol\":1803:1812  leaseTerm */\n      dup6\n        /* \"Decentralizing car leasing and sell/AdvancedCarLeasingAndSales\\xc2\\xa0part 2.sol\":1764:1853  Car(carId, msg.sender, price, deposit, leaseTerm, 0, availableForLease, availableForSale) */\n      dup2\n      mstore\n      0x20\n      add\n        /* \"Decentralizing car leasing and sell/AdvancedCarLeasingAndSales\\xc2\\xa0part 2.sol\":1814:1815  0 */\n      0x00\n        /* \"Decentralizing car leasing and sell/AdvancedCarLeasingAndSales\\xc2\\xa0part 2.sol\":1764:1853  Car(carId, msg.sender, price, deposit, leaseTerm, 0, availableForLease, availableForSale) */\n      dup2\n      mstore\n      0x20\n      add\n        /* \"Decentralizing car leasing and sell/AdvancedCarLeasingAndSales\\xc2\\xa0part 2.sol\":1817:1834  availableForLease */\n      dup5\n        /* \"Decentralizing car leasing and sell/AdvancedCarLeasingAndSales\\xc2\\xa0part 2.sol\":1764:1853  Car(carId, msg.sender, price, deposit, leaseTerm, 0, availableForLease, availableForSale) */\n      iszero\n      iszero\n      dup2\n      mstore\n      0x20\n      add\n        /* \"Decentralizing car leasing and sell/AdvancedCarLeasingAndSales\\xc2\\xa0part 2.sol\":1836:1852  availableForSale */\n      dup4\n        /* \"Decentralizing car leasing and sell/AdvancedCarLeasingAndSales\\xc2\\xa0part 2.sol\":1764:1853  Car(carId, msg.sender, price, deposit, leaseTerm, 0, availableForLease, availableForSale) */\n      iszero\n      iszero\n      dup2\n      mstore\n      pop\n        /* \"Decentralizing car leasing and sell/AdvancedCarLeasingAndSales\\xc2\\xa0part 2.sol\":1750:1754  cars */\n      0x00\n        /* \"Decentralizing car leasing and sell/AdvancedCarLeasingAndSales\\xc2\\xa0part 2.sol\":1750:1761  cars[carId] */\n      dup1\n        /* \"Decentralizing car leasing and sell/AdvancedCarLeasingAndSales\\xc2\\xa0part 2.sol\":1755:1760  carId */\n      dup4\n        /* \"Decentralizing car leasing and sell/AdvancedCarLeasingAndSales\\xc2\\xa0part 2.sol\":1750:1761  cars[carId] */\n      dup2\n      mstore\n      0x20\n      add\n      swap1\n      dup2\n      mstore\n      0x20\n      add\n      0x00\n      keccak256\n        /* \"Decentralizing car leasing and sell/AdvancedCarLeasingAndSales\\xc2\\xa0part 2.sol\":1750:1853  cars[carId] = Car(carId, msg.sender, price, deposit, leaseTerm, 0, availableForLease, availableForSale) */\n      0x00\n      dup3\n      add\n      mload\n      dup2\n      0x00\n      add\n      sstore\n      0x20\n      dup3\n      add\n      mload\n      dup2\n      0x01\n      add\n      exp(0x0100, 0x00)\n      dup2\n      sload\n      dup2\n      0xffffffffffffffffffffffffffffffffffffffff\n      mul\n      not\n      and\n      swap1\n      dup4\n      0xffffffffffffffffffffffffffffffffffffffff\n      and\n      mul\n      or\n      swap1\n      sstore\n      pop\n      0x40\n      dup3\n      add\n      mload\n      dup2\n      0x02\n      add\n      sstore\n      0x60\n      dup3\n      add\n      mload\n      dup2\n      0x03\n      add\n      sstore\n      0x80\n      dup3\n      add\n      mload\n      dup2\n      0x04\n      add\n      sstore\n      0xa0\n      dup3\n      add\n      mload\n      dup2\n      0x05\n      add\n      sstore\n      0xc0\n      dup3\n      add\n      mload\n      dup2\n      0x06\n      add\n      exp(0x0100, 0x00)\n      dup2\n      sload\n      dup2\n      0xff\n      mul\n      not\n      and\n      swap1\n      dup4\n      iszero\n      iszero\n      mul\n      or\n      swap1\n      sstore\n      pop\n      0xe0\n      dup3\n      add\n      mload\n      dup2\n      0x06\n      add\n      exp(0x0100, 0x01)\n      dup2\n      sload\n      dup2\n      0xff\n      mul\n      not\n      and\n      swap1\n      dup4\n      iszero\n      iszero\n      mul\n      or\n      swap1\n      sstore\n      pop\n      swap1\n      pop\n      pop\n        /* \"Decentralizing car leasing and sell/AdvancedCarLeasingAndSales\\xc2\\xa0part 2.sol\":1889:1899  msg.sender */\n      caller\n        /* \"Decentralizing car leasing and sell/AdvancedCarLeasingAndSales\\xc2\\xa0part 2.sol\":1868:1900  CarRegistered(carId, msg.sender) */\n      0xffffffffffffffffffffffffffffffffffffffff\n      and\n        /* \"Decentralizing car leasing and sell/AdvancedCarLeasingAndSales\\xc2\\xa0part 2.sol\":1882:1887  carId */\n      dup2\n        /* \"Decentralizing car leasing and sell/AdvancedCarLeasingAndSales\\xc2\\xa0part 2.sol\":1868:1900  CarRegistered(carId, msg.sender) */\n      0x459e1abea8d58f1f390ad63904970bc184e7e026ff12f2f7f3c3aed6677ad187\n      mload(0x40)\n      mload(0x40)\n      dup1\n      swap2\n      sub\n      swap1\n      log3\n        /* \"Decentralizing car leasing and sell/AdvancedCarLeasingAndSales\\xc2\\xa0part 2.sol\":1703:1907  {... */\n      pop\n        /* \"Decentralizing car leasing and sell/AdvancedCarLeasingAndSales\\xc2\\xa0part 2.sol\":1575:1907  function registerCar(uint256 price, uint256 deposit, uint256 leaseTerm, bool availableForLease, bool availableForSale) external {... */\n      pop\n      pop\n      pop\n      pop\n      pop\n      jump\t// out\n        /* \"Decentralizing car leasing and sell/AdvancedCarLeasingAndSales\\xc2\\xa0part 2.sol\":960:995  mapping(uint256 => Car) public cars */\n    tag_54:\n      mstore(0x20, 0x00)\n      dup1\n      0x00\n      mstore\n      keccak256(0x00, 0x40)\n      0x00\n      swap2\n      pop\n      swap1\n      pop\n      dup1\n      0x00\n      add\n      sload\n      swap1\n      dup1\n      0x01\n      add\n      0x00\n      swap1\n      sload\n      swap1\n      0x0100\n      exp\n      swap1\n      div\n      0xffffffffffffffffffffffffffffffffffffffff\n      and\n      swap1\n      dup1\n      0x02\n      add\n      sload\n      swap1\n      dup1\n      0x03\n      add\n      sload\n      swap1\n      dup1\n      0x04\n      add\n      sload\n      swap1\n      dup1\n      0x05\n      add\n      sload\n      swap1\n      dup1\n      0x06\n      add\n      0x00\n      swap1\n      sload\n      swap1\n      0x0100\n      exp\n      swap1\n      div\n      0xff\n      and\n      swap1\n      dup1\n      0x06\n      add\n      0x01\n      swap1\n      sload\n      swap1\n      0x0100\n      exp\n      swap1\n      div\n      0xff\n      and\n      swap1\n      pop\n      dup9\n      jump\t// out\n    tag_75:\n      mload(0x40)\n      dup1\n      0x0100\n      add\n      0x40\n      mstore\n      dup1\n      0x00\n      dup2\n      mstore\n      0x20\n      add\n      and(0xffffffffffffffffffffffffffffffffffffffff, 0x00)\n      dup2\n      mstore\n      0x20\n      add\n      0x00\n      dup2\n      mstore\n      0x20\n      add\n      0x00\n      dup2\n      mstore\n      0x20\n      add\n      0x00\n      dup2\n      mstore\n      0x20\n      add\n      0x00\n      dup2\n      mstore\n      0x20\n      add\n      iszero(iszero(0x00))\n      dup2\n      mstore\n      0x20\n      add\n      iszero(iszero(0x00))\n      dup2\n      mstore\n      pop\n      swap1\n      jump\t// out\n    tag_78:\n      mload(0x40)\n      dup1\n      0x40\n      add\n      0x40\n      mstore\n      dup1\n      0x00\n      dup2\n      mstore\n      0x20\n      add\n      0x00\n      dup2\n      mstore\n      pop\n      swap1\n      jump\t// out\n        /* \"#utility.yul\":88:205   */\n    tag_101:\n        /* \"#utility.yul\":197:198   */\n      0x00\n        /* \"#utility.yul\":194:195   */\n      dup1\n        /* \"#utility.yul\":187:199   */\n      revert\n        /* \"#utility.yul\":334:411   */\n    tag_103:\n        /* \"#utility.yul\":371:378   */\n      0x00\n        /* \"#utility.yul\":400:405   */\n      dup2\n        /* \"#utility.yul\":389:405   */\n      swap1\n      pop\n        /* \"#utility.yul\":334:411   */\n      swap2\n      swap1\n      pop\n      jump\t// out\n        /* \"#utility.yul\":417:539   */\n    tag_104:\n        /* \"#utility.yul\":490:514   */\n      tag_143\n        /* \"#utility.yul\":508:513   */\n      dup2\n        /* \"#utility.yul\":490:514   */\n      tag_103\n      jump\t// in\n    tag_143:\n        /* \"#utility.yul\":483:488   */\n      dup2\n        /* \"#utility.yul\":480:515   */\n      eq\n        /* \"#utility.yul\":470:533   */\n      tag_144\n      jumpi\n        /* \"#utility.yul\":529:530   */\n      0x00\n        /* \"#utility.yul\":526:527   */\n      dup1\n        /* \"#utility.yul\":519:531   */\n      revert\n        /* \"#utility.yul\":470:533   */\n    tag_144:\n        /* \"#utility.yul\":417:539   */\n      pop\n      jump\t// out\n        /* \"#utility.yul\":545:684   */\n    tag_105:\n        /* \"#utility.yul\":591:596   */\n      0x00\n        /* \"#utility.yul\":629:635   */\n      dup2\n        /* \"#utility.yul\":616:636   */\n      calldataload\n        /* \"#utility.yul\":607:636   */\n      swap1\n      pop\n        /* \"#utility.yul\":645:678   */\n      tag_146\n        /* \"#utility.yul\":672:677   */\n      dup2\n        /* \"#utility.yul\":645:678   */\n      tag_104\n      jump\t// in\n    tag_146:\n        /* \"#utility.yul\":545:684   */\n      swap3\n      swap2\n      pop\n      pop\n      jump\t// out\n        /* \"#utility.yul\":690:1019   */\n    tag_14:\n        /* \"#utility.yul\":749:755   */\n      0x00\n        /* \"#utility.yul\":798:800   */\n      0x20\n        /* \"#utility.yul\":786:795   */\n      dup3\n        /* \"#utility.yul\":777:784   */\n      dup5\n        /* \"#utility.yul\":773:796   */\n      sub\n        /* \"#utility.yul\":769:801   */\n      slt\n        /* \"#utility.yul\":766:885   */\n      iszero\n      tag_148\n      jumpi\n        /* \"#utility.yul\":804:883   */\n      tag_149\n      tag_101\n      jump\t// in\n    tag_149:\n        /* \"#utility.yul\":766:885   */\n    tag_148:\n        /* \"#utility.yul\":924:925   */\n      0x00\n        /* \"#utility.yul\":949:1002   */\n      tag_150\n        /* \"#utility.yul\":994:1001   */\n      dup5\n        /* \"#utility.yul\":985:991   */\n      dup3\n        /* \"#utility.yul\":974:983   */\n      dup6\n        /* \"#utility.yul\":970:992   */\n      add\n        /* \"#utility.yul\":949:1002   */\n      tag_105\n      jump\t// in\n    tag_150:\n        /* \"#utility.yul\":939:1002   */\n      swap2\n      pop\n        /* \"#utility.yul\":895:1012   */\n      pop\n        /* \"#utility.yul\":690:1019   */\n      swap3\n      swap2\n      pop\n      pop\n      jump\t// out\n        /* \"#utility.yul\":1025:1133   */\n    tag_106:\n        /* \"#utility.yul\":1102:1126   */\n      tag_152\n        /* \"#utility.yul\":1120:1125   */\n      dup2\n        /* \"#utility.yul\":1102:1126   */\n      tag_103\n      jump\t// in\n    tag_152:\n        /* \"#utility.yul\":1097:1100   */\n      dup3\n        /* \"#utility.yul\":1090:1127   */\n      mstore\n        /* \"#utility.yul\":1025:1133   */\n      pop\n      pop\n      jump\t// out\n        /* \"#utility.yul\":1139:1265   */\n    tag_107:\n        /* \"#utility.yul\":1176:1183   */\n      0x00\n        /* \"#utility.yul\":1216:1258   */\n      0xffffffffffffffffffffffffffffffffffffffff\n        /* \"#utility.yul\":1209:1214   */\n      dup3\n        /* \"#utility.yul\":1205:1259   */\n      and\n        /* \"#utility.yul\":1194:1259   */\n      swap1\n      pop\n        /* \"#utility.yul\":1139:1265   */\n      swap2\n      swap1\n      pop\n      jump\t// out\n        /* \"#utility.yul\":1271:1367   */\n    tag_108:\n        /* \"#utility.yul\":1308:1315   */\n      0x00\n        /* \"#utility.yul\":1337:1361   */\n      tag_155\n        /* \"#utility.yul\":1355:1360   */\n      dup3\n        /* \"#utility.yul\":1337:1361   */\n      tag_107\n      jump\t// in\n    tag_155:\n        /* \"#utility.yul\":1326:1361   */\n      swap1\n      pop\n        /* \"#utility.yul\":1271:1367   */\n      swap2\n      swap1\n      pop\n      jump\t// out\n        /* \"#utility.yul\":1373:1481   */\n    tag_109:\n        /* \"#utility.yul\":1450:1474   */\n      tag_157\n        /* \"#utility.yul\":1468:1473   */\n      dup2\n        /* \"#utility.yul\":1450:1474   */\n      tag_108\n      jump\t// in\n    tag_157:\n        /* \"#utility.yul\":1445:1448   */\n      dup3\n        /* \"#utility.yul\":1438:1475   */\n      mstore\n        /* \"#utility.yul\":1373:1481   */\n      pop\n      pop\n      jump\t// out\n        /* \"#utility.yul\":1487:1577   */\n    tag_110:\n        /* \"#utility.yul\":1521:1528   */\n      0x00\n        /* \"#utility.yul\":1564:1569   */\n      dup2\n        /* \"#utility.yul\":1557:1570   */\n      iszero\n        /* \"#utility.yul\":1550:1571   */\n      iszero\n        /* \"#utility.yul\":1539:1571   */\n      swap1\n      pop\n        /* \"#utility.yul\":1487:1577   */\n      swap2\n      swap1\n      pop\n      jump\t// out\n        /* \"#utility.yul\":1583:1682   */\n    tag_111:\n        /* \"#utility.yul\":1654:1675   */\n      tag_160\n        /* \"#utility.yul\":1669:1674   */\n      dup2\n        /* \"#utility.yul\":1654:1675   */\n      tag_110\n      jump\t// in\n    tag_160:\n        /* \"#utility.yul\":1649:1652   */\n      dup3\n        /* \"#utility.yul\":1642:1676   */\n      mstore\n        /* \"#utility.yul\":1583:1682   */\n      pop\n      pop\n      jump\t// out\n        /* \"#utility.yul\":1774:3344   */\n    tag_112:\n        /* \"#utility.yul\":1909:1915   */\n      0x0100\n        /* \"#utility.yul\":1904:1907   */\n      dup3\n        /* \"#utility.yul\":1900:1916   */\n      add\n        /* \"#utility.yul\":1996:2000   */\n      0x00\n        /* \"#utility.yul\":1989:1994   */\n      dup3\n        /* \"#utility.yul\":1985:2001   */\n      add\n        /* \"#utility.yul\":1979:2002   */\n      mload\n        /* \"#utility.yul\":2015:2078   */\n      tag_162\n        /* \"#utility.yul\":2072:2076   */\n      0x00\n        /* \"#utility.yul\":2067:2070   */\n      dup6\n        /* \"#utility.yul\":2063:2077   */\n      add\n        /* \"#utility.yul\":2049:2061   */\n      dup3\n        /* \"#utility.yul\":2015:2078   */\n      tag_106\n      jump\t// in\n    tag_162:\n        /* \"#utility.yul\":1926:2088   */\n      pop\n        /* \"#utility.yul\":2171:2175   */\n      0x20\n        /* \"#utility.yul\":2164:2169   */\n      dup3\n        /* \"#utility.yul\":2160:2176   */\n      add\n        /* \"#utility.yul\":2154:2177   */\n      mload\n        /* \"#utility.yul\":2190:2253   */\n      tag_163\n        /* \"#utility.yul\":2247:2251   */\n      0x20\n        /* \"#utility.yul\":2242:2245   */\n      dup6\n        /* \"#utility.yul\":2238:2252   */\n      add\n        /* \"#utility.yul\":2224:2236   */\n      dup3\n        /* \"#utility.yul\":2190:2253   */\n      tag_109\n      jump\t// in\n    tag_163:\n        /* \"#utility.yul\":2098:2263   */\n      pop\n        /* \"#utility.yul\":2346:2350   */\n      0x40\n        /* \"#utility.yul\":2339:2344   */\n      dup3\n        /* \"#utility.yul\":2335:2351   */\n      add\n        /* \"#utility.yul\":2329:2352   */\n      mload\n        /* \"#utility.yul\":2365:2428   */\n      tag_164\n        /* \"#utility.yul\":2422:2426   */\n      0x40\n        /* \"#utility.yul\":2417:2420   */\n      dup6\n        /* \"#utility.yul\":2413:2427   */\n      add\n        /* \"#utility.yul\":2399:2411   */\n      dup3\n        /* \"#utility.yul\":2365:2428   */\n      tag_106\n      jump\t// in\n    tag_164:\n        /* \"#utility.yul\":2273:2438   */\n      pop\n        /* \"#utility.yul\":2523:2527   */\n      0x60\n        /* \"#utility.yul\":2516:2521   */\n      dup3\n        /* \"#utility.yul\":2512:2528   */\n      add\n        /* \"#utility.yul\":2506:2529   */\n      mload\n        /* \"#utility.yul\":2542:2605   */\n      tag_165\n        /* \"#utility.yul\":2599:2603   */\n      0x60\n        /* \"#utility.yul\":2594:2597   */\n      dup6\n        /* \"#utility.yul\":2590:2604   */\n      add\n        /* \"#utility.yul\":2576:2588   */\n      dup3\n        /* \"#utility.yul\":2542:2605   */\n      tag_106\n      jump\t// in\n    tag_165:\n        /* \"#utility.yul\":2448:2615   */\n      pop\n        /* \"#utility.yul\":2702:2706   */\n      0x80\n        /* \"#utility.yul\":2695:2700   */\n      dup3\n        /* \"#utility.yul\":2691:2707   */\n      add\n        /* \"#utility.yul\":2685:2708   */\n      mload\n        /* \"#utility.yul\":2721:2784   */\n      tag_166\n        /* \"#utility.yul\":2778:2782   */\n      0x80\n        /* \"#utility.yul\":2773:2776   */\n      dup6\n        /* \"#utility.yul\":2769:2783   */\n      add\n        /* \"#utility.yul\":2755:2767   */\n      dup3\n        /* \"#utility.yul\":2721:2784   */\n      tag_106\n      jump\t// in\n    tag_166:\n        /* \"#utility.yul\":2625:2794   */\n      pop\n        /* \"#utility.yul\":2880:2884   */\n      0xa0\n        /* \"#utility.yul\":2873:2878   */\n      dup3\n        /* \"#utility.yul\":2869:2885   */\n      add\n        /* \"#utility.yul\":2863:2886   */\n      mload\n        /* \"#utility.yul\":2899:2962   */\n      tag_167\n        /* \"#utility.yul\":2956:2960   */\n      0xa0\n        /* \"#utility.yul\":2951:2954   */\n      dup6\n        /* \"#utility.yul\":2947:2961   */\n      add\n        /* \"#utility.yul\":2933:2945   */\n      dup3\n        /* \"#utility.yul\":2899:2962   */\n      tag_106\n      jump\t// in\n    tag_167:\n        /* \"#utility.yul\":2804:2972   */\n      pop\n        /* \"#utility.yul\":3069:3073   */\n      0xc0\n        /* \"#utility.yul\":3062:3067   */\n      dup3\n        /* \"#utility.yul\":3058:3074   */\n      add\n        /* \"#utility.yul\":3052:3075   */\n      mload\n        /* \"#utility.yul\":3088:3145   */\n      tag_168\n        /* \"#utility.yul\":3139:3143   */\n      0xc0\n        /* \"#utility.yul\":3134:3137   */\n      dup6\n        /* \"#utility.yul\":3130:3144   */\n      add\n        /* \"#utility.yul\":3116:3128   */\n      dup3\n        /* \"#utility.yul\":3088:3145   */\n      tag_111\n      jump\t// in\n    tag_168:\n        /* \"#utility.yul\":2982:3155   */\n      pop\n        /* \"#utility.yul\":3251:3255   */\n      0xe0\n        /* \"#utility.yul\":3244:3249   */\n      dup3\n        /* \"#utility.yul\":3240:3256   */\n      add\n        /* \"#utility.yul\":3234:3257   */\n      mload\n        /* \"#utility.yul\":3270:3327   */\n      tag_169\n        /* \"#utility.yul\":3321:3325   */\n      0xe0\n        /* \"#utility.yul\":3316:3319   */\n      dup6\n        /* \"#utility.yul\":3312:3326   */\n      add\n        /* \"#utility.yul\":3298:3310   */\n      dup3\n        /* \"#utility.yul\":3270:3327   */\n      tag_111\n      jump\t// in\n    tag_169:\n        /* \"#utility.yul\":3165:3337   */\n      pop\n        /* \"#utility.yul\":1878:3344   */\n      pop\n        /* \"#utility.yul\":1774:3344   */\n      pop\n      pop\n      jump\t// out\n        /* \"#utility.yul\":3350:3649   */\n    tag_21:\n        /* \"#utility.yul\":3481:3485   */\n      0x00\n        /* \"#utility.yul\":3519:3522   */\n      0x0100\n        /* \"#utility.yul\":3508:3517   */\n      dup3\n        /* \"#utility.yul\":3504:3523   */\n      add\n        /* \"#utility.yul\":3496:3523   */\n      swap1\n      pop\n        /* \"#utility.yul\":3533:3642   */\n      tag_171\n        /* \"#utility.yul\":3639:3640   */\n      0x00\n        /* \"#utility.yul\":3628:3637   */\n      dup4\n        /* \"#utility.yul\":3624:3641   */\n      add\n        /* \"#utility.yul\":3615:3621   */\n      dup5\n        /* \"#utility.yul\":3533:3642   */\n      tag_112\n      jump\t// in\n    tag_171:\n        /* \"#utility.yul\":3350:3649   */\n      swap3\n      swap2\n      pop\n      pop\n      jump\t// out\n        /* \"#utility.yul\":3655:3777   */\n    tag_113:\n        /* \"#utility.yul\":3728:3752   */\n      tag_173\n        /* \"#utility.yul\":3746:3751   */\n      dup2\n        /* \"#utility.yul\":3728:3752   */\n      tag_108\n      jump\t// in\n    tag_173:\n        /* \"#utility.yul\":3721:3726   */\n      dup2\n        /* \"#utility.yul\":3718:3753   */\n      eq\n        /* \"#utility.yul\":3708:3771   */\n      tag_174\n      jumpi\n        /* \"#utility.yul\":3767:3768   */\n      0x00\n        /* \"#utility.yul\":3764:3765   */\n      dup1\n        /* \"#utility.yul\":3757:3769   */\n      revert\n        /* \"#utility.yul\":3708:3771   */\n    tag_174:\n        /* \"#utility.yul\":3655:3777   */\n      pop\n      jump\t// out\n        /* \"#utility.yul\":3783:3922   */\n    tag_114:\n        /* \"#utility.yul\":3829:3834   */\n      0x00\n        /* \"#utility.yul\":3867:3873   */\n      dup2\n        /* \"#utility.yul\":3854:3874   */\n      calldataload\n        /* \"#utility.yul\":3845:3874   */\n      swap1\n      pop\n        /* \"#utility.yul\":3883:3916   */\n      tag_176\n        /* \"#utility.yul\":3910:3915   */\n      dup2\n        /* \"#utility.yul\":3883:3916   */\n      tag_113\n      jump\t// in\n    tag_176:\n        /* \"#utility.yul\":3783:3922   */\n      swap3\n      swap2\n      pop\n      pop\n      jump\t// out\n        /* \"#utility.yul\":3928:4257   */\n    tag_25:\n        /* \"#utility.yul\":3987:3993   */\n      0x00\n        /* \"#utility.yul\":4036:4038   */\n      0x20\n        /* \"#utility.yul\":4024:4033   */\n      dup3\n        /* \"#utility.yul\":4015:4022   */\n      dup5\n        /* \"#utility.yul\":4011:4034   */\n      sub\n        /* \"#utility.yul\":4007:4039   */\n      slt\n        /* \"#utility.yul\":4004:4123   */\n      iszero\n      tag_178\n      jumpi\n        /* \"#utility.yul\":4042:4121   */\n      tag_179\n      tag_101\n      jump\t// in\n    tag_179:\n        /* \"#utility.yul\":4004:4123   */\n    tag_178:\n        /* \"#utility.yul\":4162:4163   */\n      0x00\n        /* \"#utility.yul\":4187:4240   */\n      tag_180\n        /* \"#utility.yul\":4232:4239   */\n      dup5\n        /* \"#utility.yul\":4223:4229   */\n      dup3\n        /* \"#utility.yul\":4212:4221   */\n      dup6\n        /* \"#utility.yul\":4208:4230   */\n      add\n        /* \"#utility.yul\":4187:4240   */\n      tag_114\n      jump\t// in\n    tag_180:\n        /* \"#utility.yul\":4177:4240   */\n      swap2\n      pop\n        /* \"#utility.yul\":4133:4250   */\n      pop\n        /* \"#utility.yul\":3928:4257   */\n      swap3\n      swap2\n      pop\n      pop\n      jump\t// out\n        /* \"#utility.yul\":4351:4865   */\n    tag_115:\n        /* \"#utility.yul\":4488:4492   */\n      0x40\n        /* \"#utility.yul\":4483:4486   */\n      dup3\n        /* \"#utility.yul\":4479:4493   */\n      add\n        /* \"#utility.yul\":4582:4586   */\n      0x00\n        /* \"#utility.yul\":4575:4580   */\n      dup3\n        /* \"#utility.yul\":4571:4587   */\n      add\n        /* \"#utility.yul\":4565:4588   */\n      mload\n        /* \"#utility.yul\":4601:4664   */\n      tag_182\n        /* \"#utility.yul\":4658:4662   */\n      0x00\n        /* \"#utility.yul\":4653:4656   */\n      dup6\n        /* \"#utility.yul\":4649:4663   */\n      add\n        /* \"#utility.yul\":4635:4647   */\n      dup3\n        /* \"#utility.yul\":4601:4664   */\n      tag_106\n      jump\t// in\n    tag_182:\n        /* \"#utility.yul\":4503:4674   */\n      pop\n        /* \"#utility.yul\":4766:4770   */\n      0x20\n        /* \"#utility.yul\":4759:4764   */\n      dup3\n        /* \"#utility.yul\":4755:4771   */\n      add\n        /* \"#utility.yul\":4749:4772   */\n      mload\n        /* \"#utility.yul\":4785:4848   */\n      tag_183\n        /* \"#utility.yul\":4842:4846   */\n      0x20\n        /* \"#utility.yul\":4837:4840   */\n      dup6\n        /* \"#utility.yul\":4833:4847   */\n      add\n        /* \"#utility.yul\":4819:4831   */\n      dup3\n        /* \"#utility.yul\":4785:4848   */\n      tag_106\n      jump\t// in\n    tag_183:\n        /* \"#utility.yul\":4684:4858   */\n      pop\n        /* \"#utility.yul\":4457:4865   */\n      pop\n        /* \"#utility.yul\":4351:4865   */\n      pop\n      pop\n      jump\t// out\n        /* \"#utility.yul\":4871:5173   */\n    tag_28:\n        /* \"#utility.yul\":5004:5008   */\n      0x00\n        /* \"#utility.yul\":5042:5044   */\n      0x40\n        /* \"#utility.yul\":5031:5040   */\n      dup3\n        /* \"#utility.yul\":5027:5045   */\n      add\n        /* \"#utility.yul\":5019:5045   */\n      swap1\n      pop\n        /* \"#utility.yul\":5055:5166   */\n      tag_185\n        /* \"#utility.yul\":5163:5164   */\n      0x00\n        /* \"#utility.yul\":5152:5161   */\n      dup4\n        /* \"#utility.yul\":5148:5165   */\n      add\n        /* \"#utility.yul\":5139:5145   */\n      dup5\n        /* \"#utility.yul\":5055:5166   */\n      tag_115\n      jump\t// in\n    tag_185:\n        /* \"#utility.yul\":4871:5173   */\n      swap3\n      swap2\n      pop\n      pop\n      jump\t// out\n        /* \"#utility.yul\":5179:5297   */\n    tag_116:\n        /* \"#utility.yul\":5266:5290   */\n      tag_187\n        /* \"#utility.yul\":5284:5289   */\n      dup2\n        /* \"#utility.yul\":5266:5290   */\n      tag_103\n      jump\t// in\n    tag_187:\n        /* \"#utility.yul\":5261:5264   */\n      dup3\n        /* \"#utility.yul\":5254:5291   */\n      mstore\n        /* \"#utility.yul\":5179:5297   */\n      pop\n      pop\n      jump\t// out\n        /* \"#utility.yul\":5303:5525   */\n    tag_36:\n        /* \"#utility.yul\":5396:5400   */\n      0x00\n        /* \"#utility.yul\":5434:5436   */\n      0x20\n        /* \"#utility.yul\":5423:5432   */\n      dup3\n        /* \"#utility.yul\":5419:5437   */\n      add\n        /* \"#utility.yul\":5411:5437   */\n      swap1\n      pop\n        /* \"#utility.yul\":5447:5518   */\n      tag_189\n        /* \"#utility.yul\":5515:5516   */\n      0x00\n        /* \"#utility.yul\":5504:5513   */\n      dup4\n        /* \"#utility.yul\":5500:5517   */\n      add\n        /* \"#utility.yul\":5491:5497   */\n      dup5\n        /* \"#utility.yul\":5447:5518   */\n      tag_116\n      jump\t// in\n    tag_189:\n        /* \"#utility.yul\":5303:5525   */\n      swap3\n      swap2\n      pop\n      pop\n      jump\t// out\n        /* \"#utility.yul\":5531:5863   */\n    tag_42:\n        /* \"#utility.yul\":5652:5656   */\n      0x00\n        /* \"#utility.yul\":5690:5692   */\n      0x40\n        /* \"#utility.yul\":5679:5688   */\n      dup3\n        /* \"#utility.yul\":5675:5693   */\n      add\n        /* \"#utility.yul\":5667:5693   */\n      swap1\n      pop\n        /* \"#utility.yul\":5703:5774   */\n      tag_191\n        /* \"#utility.yul\":5771:5772   */\n      0x00\n        /* \"#utility.yul\":5760:5769   */\n      dup4\n        /* \"#utility.yul\":5756:5773   */\n      add\n        /* \"#utility.yul\":5747:5753   */\n      dup6\n        /* \"#utility.yul\":5703:5774   */\n      tag_116\n      jump\t// in\n    tag_191:\n        /* \"#utility.yul\":5784:5856   */\n      tag_192\n        /* \"#utility.yul\":5852:5854   */\n      0x20\n        /* \"#utility.yul\":5841:5850   */\n      dup4\n        /* \"#utility.yul\":5837:5855   */\n      add\n        /* \"#utility.yul\":5828:5834   */\n      dup5\n        /* \"#utility.yul\":5784:5856   */\n      tag_116\n      jump\t// in\n    tag_192:\n        /* \"#utility.yul\":5531:5863   */\n      swap4\n      swap3\n      pop\n      pop\n      pop\n      jump\t// out\n        /* \"#utility.yul\":5869:5985   */\n    tag_117:\n        /* \"#utility.yul\":5939:5960   */\n      tag_194\n        /* \"#utility.yul\":5954:5959   */\n      dup2\n        /* \"#utility.yul\":5939:5960   */\n      tag_110\n      jump\t// in\n    tag_194:\n        /* \"#utility.yul\":5932:5937   */\n      dup2\n        /* \"#utility.yul\":5929:5961   */\n      eq\n        /* \"#utility.yul\":5919:5979   */\n      tag_195\n      jumpi\n        /* \"#utility.yul\":5975:5976   */\n      0x00\n        /* \"#utility.yul\":5972:5973   */\n      dup1\n        /* \"#utility.yul\":5965:5977   */\n      revert\n        /* \"#utility.yul\":5919:5979   */\n    tag_195:\n        /* \"#utility.yul\":5869:5985   */\n      pop\n      jump\t// out\n        /* \"#utility.yul\":5991:6124   */\n    tag_118:\n        /* \"#utility.yul\":6034:6039   */\n      0x00\n        /* \"#utility.yul\":6072:6078   */\n      dup2\n        /* \"#utility.yul\":6059:6079   */\n      calldataload\n        /* \"#utility.yul\":6050:6079   */\n      swap1\n      pop\n        /* \"#utility.yul\":6088:6118   */\n      tag_197\n        /* \"#utility.yul\":6112:6117   */\n      dup2\n        /* \"#utility.yul\":6088:6118   */\n      tag_117\n      jump\t// in\n    tag_197:\n        /* \"#utility.yul\":5991:6124   */\n      swap3\n      swap2\n      pop\n      pop\n      jump\t// out\n        /* \"#utility.yul\":6130:7029   */\n    tag_49:\n        /* \"#utility.yul\":6219:6225   */\n      0x00\n        /* \"#utility.yul\":6227:6233   */\n      dup1\n        /* \"#utility.yul\":6235:6241   */\n      0x00\n        /* \"#utility.yul\":6243:6249   */\n      dup1\n        /* \"#utility.yul\":6251:6257   */\n      0x00\n        /* \"#utility.yul\":6300:6303   */\n      0xa0\n        /* \"#utility.yul\":6288:6297   */\n      dup7\n        /* \"#utility.yul\":6279:6286   */\n      dup9\n        /* \"#utility.yul\":6275:6298   */\n      sub\n        /* \"#utility.yul\":6271:6304   */\n      slt\n        /* \"#utility.yul\":6268:6388   */\n      iszero\n      tag_199\n      jumpi\n        /* \"#utility.yul\":6307:6386   */\n      tag_200\n      tag_101\n      jump\t// in\n    tag_200:\n        /* \"#utility.yul\":6268:6388   */\n    tag_199:\n        /* \"#utility.yul\":6427:6428   */\n      0x00\n        /* \"#utility.yul\":6452:6505   */\n      tag_201\n        /* \"#utility.yul\":6497:6504   */\n      dup9\n        /* \"#utility.yul\":6488:6494   */\n      dup3\n        /* \"#utility.yul\":6477:6486   */\n      dup10\n        /* \"#utility.yul\":6473:6495   */\n      add\n        /* \"#utility.yul\":6452:6505   */\n      tag_105\n      jump\t// in\n    tag_201:\n        /* \"#utility.yul\":6442:6505   */\n      swap6\n      pop\n        /* \"#utility.yul\":6398:6515   */\n      pop\n        /* \"#utility.yul\":6554:6556   */\n      0x20\n        /* \"#utility.yul\":6580:6633   */\n      tag_202\n        /* \"#utility.yul\":6625:6632   */\n      dup9\n        /* \"#utility.yul\":6616:6622   */\n      dup3\n        /* \"#utility.yul\":6605:6614   */\n      dup10\n        /* \"#utility.yul\":6601:6623   */\n      add\n        /* \"#utility.yul\":6580:6633   */\n      tag_105\n      jump\t// in\n    tag_202:\n        /* \"#utility.yul\":6570:6633   */\n      swap5\n      pop\n        /* \"#utility.yul\":6525:6643   */\n      pop\n        /* \"#utility.yul\":6682:6684   */\n      0x40\n        /* \"#utility.yul\":6708:6761   */\n      tag_203\n        /* \"#utility.yul\":6753:6760   */\n      dup9\n        /* \"#utility.yul\":6744:6750   */\n      dup3\n        /* \"#utility.yul\":6733:6742   */\n      dup10\n        /* \"#utility.yul\":6729:6751   */\n      add\n        /* \"#utility.yul\":6708:6761   */\n      tag_105\n      jump\t// in\n    tag_203:\n        /* \"#utility.yul\":6698:6761   */\n      swap4\n      pop\n        /* \"#utility.yul\":6653:6771   */\n      pop\n        /* \"#utility.yul\":6810:6812   */\n      0x60\n        /* \"#utility.yul\":6836:6886   */\n      tag_204\n        /* \"#utility.yul\":6878:6885   */\n      dup9\n        /* \"#utility.yul\":6869:6875   */\n      dup3\n        /* \"#utility.yul\":6858:6867   */\n      dup10\n        /* \"#utility.yul\":6854:6876   */\n      add\n        /* \"#utility.yul\":6836:6886   */\n      tag_118\n      jump\t// in\n    tag_204:\n        /* \"#utility.yul\":6826:6886   */\n      swap3\n      pop\n        /* \"#utility.yul\":6781:6896   */\n      pop\n        /* \"#utility.yul\":6935:6938   */\n      0x80\n        /* \"#utility.yul\":6962:7012   */\n      tag_205\n        /* \"#utility.yul\":7004:7011   */\n      dup9\n        /* \"#utility.yul\":6995:7001   */\n      dup3\n        /* \"#utility.yul\":6984:6993   */\n      dup10\n        /* \"#utility.yul\":6980:7002   */\n      add\n        /* \"#utility.yul\":6962:7012   */\n      tag_118\n      jump\t// in\n    tag_205:\n        /* \"#utility.yul\":6952:7012   */\n      swap2\n      pop\n        /* \"#utility.yul\":6906:7022   */\n      pop\n        /* \"#utility.yul\":6130:7029   */\n      swap3\n      swap6\n      pop\n      swap3\n      swap6\n      swap1\n      swap4\n      pop\n      jump\t// out\n        /* \"#utility.yul\":7035:7153   */\n    tag_119:\n        /* \"#utility.yul\":7122:7146   */\n      tag_207\n        /* \"#utility.yul\":7140:7145   */\n      dup2\n        /* \"#utility.yul\":7122:7146   */\n      tag_108\n      jump\t// in\n    tag_207:\n        /* \"#utility.yul\":7117:7120   */\n      dup3\n        /* \"#utility.yul\":7110:7147   */\n      mstore\n        /* \"#utility.yul\":7035:7153   */\n      pop\n      pop\n      jump\t// out\n        /* \"#utility.yul\":7159:7268   */\n    tag_120:\n        /* \"#utility.yul\":7240:7261   */\n      tag_209\n        /* \"#utility.yul\":7255:7260   */\n      dup2\n        /* \"#utility.yul\":7240:7261   */\n      tag_110\n      jump\t// in\n    tag_209:\n        /* \"#utility.yul\":7235:7238   */\n      dup3\n        /* \"#utility.yul\":7228:7262   */\n      mstore\n        /* \"#utility.yul\":7159:7268   */\n      pop\n      pop\n      jump\t// out\n        /* \"#utility.yul\":7274:8247   */\n    tag_56:\n        /* \"#utility.yul\":7551:7555   */\n      0x00\n        /* \"#utility.yul\":7589:7592   */\n      0x0100\n        /* \"#utility.yul\":7578:7587   */\n      dup3\n        /* \"#utility.yul\":7574:7593   */\n      add\n        /* \"#utility.yul\":7566:7593   */\n      swap1\n      pop\n        /* \"#utility.yul\":7603:7674   */\n      tag_211\n        /* \"#utility.yul\":7671:7672   */\n      0x00\n        /* \"#utility.yul\":7660:7669   */\n      dup4\n        /* \"#utility.yul\":7656:7673   */\n      add\n        /* \"#utility.yul\":7647:7653   */\n      dup12\n        /* \"#utility.yul\":7603:7674   */\n      tag_116\n      jump\t// in\n    tag_211:\n        /* \"#utility.yul\":7684:7756   */\n      tag_212\n        /* \"#utility.yul\":7752:7754   */\n      0x20\n        /* \"#utility.yul\":7741:7750   */\n      dup4\n        /* \"#utility.yul\":7737:7755   */\n      add\n        /* \"#utility.yul\":7728:7734   */\n      dup11\n        /* \"#utility.yul\":7684:7756   */\n      tag_119\n      jump\t// in\n    tag_212:\n        /* \"#utility.yul\":7766:7838   */\n      tag_213\n        /* \"#utility.yul\":7834:7836   */\n      0x40\n        /* \"#utility.yul\":7823:7832   */\n      dup4\n        /* \"#utility.yul\":7819:7837   */\n      add\n        /* \"#utility.yul\":7810:7816   */\n      dup10\n        /* \"#utility.yul\":7766:7838   */\n      tag_116\n      jump\t// in\n    tag_213:\n        /* \"#utility.yul\":7848:7920   */\n      tag_214\n        /* \"#utility.yul\":7916:7918   */\n      0x60\n        /* \"#utility.yul\":7905:7914   */\n      dup4\n        /* \"#utility.yul\":7901:7919   */\n      add\n        /* \"#utility.yul\":7892:7898   */\n      dup9\n        /* \"#utility.yul\":7848:7920   */\n      tag_116\n      jump\t// in\n    tag_214:\n        /* \"#utility.yul\":7930:8003   */\n      tag_215\n        /* \"#utility.yul\":7998:8001   */\n      0x80\n        /* \"#utility.yul\":7987:7996   */\n      dup4\n        /* \"#utility.yul\":7983:8002   */\n      add\n        /* \"#utility.yul\":7974:7980   */\n      dup8\n        /* \"#utility.yul\":7930:8003   */\n      tag_116\n      jump\t// in\n    tag_215:\n        /* \"#utility.yul\":8013:8086   */\n      tag_216\n        /* \"#utility.yul\":8081:8084   */\n      0xa0\n        /* \"#utility.yul\":8070:8079   */\n      dup4\n        /* \"#utility.yul\":8066:8085   */\n      add\n        /* \"#utility.yul\":8057:8063   */\n      dup7\n        /* \"#utility.yul\":8013:8086   */\n      tag_116\n      jump\t// in\n    tag_216:\n        /* \"#utility.yul\":8096:8163   */\n      tag_217\n        /* \"#utility.yul\":8158:8161   */\n      0xc0\n        /* \"#utility.yul\":8147:8156   */\n      dup4\n        /* \"#utility.yul\":8143:8162   */\n      add\n        /* \"#utility.yul\":8134:8140   */\n      dup6\n        /* \"#utility.yul\":8096:8163   */\n      tag_120\n      jump\t// in\n    tag_217:\n        /* \"#utility.yul\":8173:8240   */\n      tag_218\n        /* \"#utility.yul\":8235:8238   */\n      0xe0\n        /* \"#utility.yul\":8224:8233   */\n      dup4\n        /* \"#utility.yul\":8220:8239   */\n      add\n        /* \"#utility.yul\":8211:8217   */\n      dup5\n        /* \"#utility.yul\":8173:8240   */\n      tag_120\n      jump\t// in\n    tag_218:\n        /* \"#utility.yul\":7274:8247   */\n      swap10\n      swap9\n      pop\n      pop\n      pop\n      pop\n      pop\n      pop\n      pop\n      pop\n      pop\n      jump\t// out\n        /* \"#utility.yul\":8253:8422   */\n    tag_121:\n        /* \"#utility.yul\":8337:8348   */\n      0x00\n        /* \"#utility.yul\":8371:8377   */\n      dup3\n        /* \"#utility.yul\":8366:8369   */\n      dup3\n        /* \"#utility.yul\":8359:8378   */\n      mstore\n        /* \"#utility.yul\":8411:8415   */\n      0x20\n        /* \"#utility.yul\":8406:8409   */\n      dup3\n        /* \"#utility.yul\":8402:8416   */\n      add\n        /* \"#utility.yul\":8387:8416   */\n      swap1\n      pop\n        /* \"#utility.yul\":8253:8422   */\n      swap3\n      swap2\n      pop\n      pop\n      jump\t// out\n        /* \"#utility.yul\":8428:8606   */\n    tag_122:\n        /* \"#utility.yul\":8568:8598   */\n      0x436172206e6f7420617661696c61626c6520666f72206c656173652e00000000\n        /* \"#utility.yul\":8564:8565   */\n      0x00\n        /* \"#utility.yul\":8556:8562   */\n      dup3\n        /* \"#utility.yul\":8552:8566   */\n      add\n        /* \"#utility.yul\":8545:8599   */\n      mstore\n        /* \"#utility.yul\":8428:8606   */\n      pop\n      jump\t// out\n        /* \"#utility.yul\":8612:8978   */\n    tag_123:\n        /* \"#utility.yul\":8754:8757   */\n      0x00\n        /* \"#utility.yul\":8775:8842   */\n      tag_222\n        /* \"#utility.yul\":8839:8841   */\n      0x1c\n        /* \"#utility.yul\":8834:8837   */\n      dup4\n        /* \"#utility.yul\":8775:8842   */\n      tag_121\n      jump\t// in\n    tag_222:\n        /* \"#utility.yul\":8768:8842   */\n      swap2\n      pop\n        /* \"#utility.yul\":8851:8944   */\n      tag_223\n        /* \"#utility.yul\":8940:8943   */\n      dup3\n        /* \"#utility.yul\":8851:8944   */\n      tag_122\n      jump\t// in\n    tag_223:\n        /* \"#utility.yul\":8969:8971   */\n      0x20\n        /* \"#utility.yul\":8964:8967   */\n      dup3\n        /* \"#utility.yul\":8960:8972   */\n      add\n        /* \"#utility.yul\":8953:8972   */\n      swap1\n      pop\n        /* \"#utility.yul\":8612:8978   */\n      swap2\n      swap1\n      pop\n      jump\t// out\n        /* \"#utility.yul\":8984:9403   */\n    tag_60:\n        /* \"#utility.yul\":9150:9154   */\n      0x00\n        /* \"#utility.yul\":9188:9190   */\n      0x20\n        /* \"#utility.yul\":9177:9186   */\n      dup3\n        /* \"#utility.yul\":9173:9191   */\n      add\n        /* \"#utility.yul\":9165:9191   */\n      swap1\n      pop\n        /* \"#utility.yul\":9237:9246   */\n      dup2\n        /* \"#utility.yul\":9231:9235   */\n      dup2\n        /* \"#utility.yul\":9227:9247   */\n      sub\n        /* \"#utility.yul\":9223:9224   */\n      0x00\n        /* \"#utility.yul\":9212:9221   */\n      dup4\n        /* \"#utility.yul\":9208:9225   */\n      add\n        /* \"#utility.yul\":9201:9248   */\n      mstore\n        /* \"#utility.yul\":9265:9396   */\n      tag_225\n        /* \"#utility.yul\":9391:9395   */\n      dup2\n        /* \"#utility.yul\":9265:9396   */\n      tag_123\n      jump\t// in\n    tag_225:\n        /* \"#utility.yul\":9257:9396   */\n      swap1\n      pop\n        /* \"#utility.yul\":8984:9403   */\n      swap2\n      swap1\n      pop\n      jump\t// out\n        /* \"#utility.yul\":9409:9584   */\n    tag_124:\n        /* \"#utility.yul\":9549:9576   */\n      0x496e636f7272656374206465706f73697420616d6f756e742e00000000000000\n        /* \"#utility.yul\":9545:9546   */\n      0x00\n        /* \"#utility.yul\":9537:9543   */\n      dup3\n        /* \"#utility.yul\":9533:9547   */\n      add\n        /* \"#utility.yul\":9526:9577   */\n      mstore\n        /* \"#utility.yul\":9409:9584   */\n      pop\n      jump\t// out\n        /* \"#utility.yul\":9590:9956   */\n    tag_125:\n        /* \"#utility.yul\":9732:9735   */\n      0x00\n        /* \"#utility.yul\":9753:9820   */\n      tag_228\n        /* \"#utility.yul\":9817:9819   */\n      0x19\n        /* \"#utility.yul\":9812:9815   */\n      dup4\n        /* \"#utility.yul\":9753:9820   */\n      tag_121\n      jump\t// in\n    tag_228:\n        /* \"#utility.yul\":9746:9820   */\n      swap2\n      pop\n        /* \"#utility.yul\":9829:9922   */\n      tag_229\n        /* \"#utility.yul\":9918:9921   */\n      dup3\n        /* \"#utility.yul\":9829:9922   */\n      tag_124\n      jump\t// in\n    tag_229:\n        /* \"#utility.yul\":9947:9949   */\n      0x20\n        /* \"#utility.yul\":9942:9945   */\n      dup3\n        /* \"#utility.yul\":9938:9950   */\n      add\n        /* \"#utility.yul\":9931:9950   */\n      swap1\n      pop\n        /* \"#utility.yul\":9590:9956   */\n      swap2\n      swap1\n      pop\n      jump\t// out\n        /* \"#utility.yul\":9962:10381   */\n    tag_63:\n        /* \"#utility.yul\":10128:10132   */\n      0x00\n        /* \"#utility.yul\":10166:10168   */\n      0x20\n        /* \"#utility.yul\":10155:10164   */\n      dup3\n        /* \"#utility.yul\":10151:10169   */\n      add\n        /* \"#utility.yul\":10143:10169   */\n      swap1\n      pop\n        /* \"#utility.yul\":10215:10224   */\n      dup2\n        /* \"#utility.yul\":10209:10213   */\n      dup2\n        /* \"#utility.yul\":10205:10225   */\n      sub\n        /* \"#utility.yul\":10201:10202   */\n      0x00\n        /* \"#utility.yul\":10190:10199   */\n      dup4\n        /* \"#utility.yul\":10186:10203   */\n      add\n        /* \"#utility.yul\":10179:10226   */\n      mstore\n        /* \"#utility.yul\":10243:10374   */\n      tag_231\n        /* \"#utility.yul\":10369:10373   */\n      dup2\n        /* \"#utility.yul\":10243:10374   */\n      tag_125\n      jump\t// in\n    tag_231:\n        /* \"#utility.yul\":10235:10374   */\n      swap1\n      pop\n        /* \"#utility.yul\":9962:10381   */\n      swap2\n      swap1\n      pop\n      jump\t// out\n        /* \"#utility.yul\":10387:10556   */\n    tag_126:\n        /* \"#utility.yul\":10527:10548   */\n      0x496e76616c6964206c65617365207465726d2e00000000000000000000000000\n        /* \"#utility.yul\":10523:10524   */\n      0x00\n        /* \"#utility.yul\":10515:10521   */\n      dup3\n        /* \"#utility.yul\":10511:10525   */\n      add\n        /* \"#utility.yul\":10504:10549   */\n      mstore\n        /* \"#utility.yul\":10387:10556   */\n      pop\n      jump\t// out\n        /* \"#utility.yul\":10562:10928   */\n    tag_127:\n        /* \"#utility.yul\":10704:10707   */\n      0x00\n        /* \"#utility.yul\":10725:10792   */\n      tag_234\n        /* \"#utility.yul\":10789:10791   */\n      0x13\n        /* \"#utility.yul\":10784:10787   */\n      dup4\n        /* \"#utility.yul\":10725:10792   */\n      tag_121\n      jump\t// in\n    tag_234:\n        /* \"#utility.yul\":10718:10792   */\n      swap2\n      pop\n        /* \"#utility.yul\":10801:10894   */\n      tag_235\n        /* \"#utility.yul\":10890:10893   */\n      dup3\n        /* \"#utility.yul\":10801:10894   */\n      tag_126\n      jump\t// in\n    tag_235:\n        /* \"#utility.yul\":10919:10921   */\n      0x20\n        /* \"#utility.yul\":10914:10917   */\n      dup3\n        /* \"#utility.yul\":10910:10922   */\n      add\n        /* \"#utility.yul\":10903:10922   */\n      swap1\n      pop\n        /* \"#utility.yul\":10562:10928   */\n      swap2\n      swap1\n      pop\n      jump\t// out\n        /* \"#utility.yul\":10934:11353   */\n    tag_66:\n        /* \"#utility.yul\":11100:11104   */\n      0x00\n        /* \"#utility.yul\":11138:11140   */\n      0x20\n        /* \"#utility.yul\":11127:11136   */\n      dup3\n        /* \"#utility.yul\":11123:11141   */\n      add\n        /* \"#utility.yul\":11115:11141   */\n      swap1\n      pop\n        /* \"#utility.yul\":11187:11196   */\n      dup2\n        /* \"#utility.yul\":11181:11185   */\n      dup2\n        /* \"#utility.yul\":11177:11197   */\n      sub\n        /* \"#utility.yul\":11173:11174   */\n      0x00\n        /* \"#utility.yul\":11162:11171   */\n      dup4\n        /* \"#utility.yul\":11158:11175   */\n      add\n        /* \"#utility.yul\":11151:11198   */\n      mstore\n        /* \"#utility.yul\":11215:11346   */\n      tag_237\n        /* \"#utility.yul\":11341:11345   */\n      dup2\n        /* \"#utility.yul\":11215:11346   */\n      tag_127\n      jump\t// in\n    tag_237:\n        /* \"#utility.yul\":11207:11346   */\n      swap1\n      pop\n        /* \"#utility.yul\":10934:11353   */\n      swap2\n      swap1\n      pop\n      jump\t// out\n        /* \"#utility.yul\":11359:11539   */\n    tag_128:\n        /* \"#utility.yul\":11407:11484   */\n      0x4e487b7100000000000000000000000000000000000000000000000000000000\n        /* \"#utility.yul\":11404:11405   */\n      0x00\n        /* \"#utility.yul\":11397:11485   */\n      mstore\n        /* \"#utility.yul\":11504:11508   */\n      0x11\n        /* \"#utility.yul\":11501:11502   */\n      0x04\n        /* \"#utility.yul\":11494:11509   */\n      mstore\n        /* \"#utility.yul\":11528:11532   */\n      0x24\n        /* \"#utility.yul\":11525:11526   */\n      0x00\n        /* \"#utility.yul\":11518:11533   */\n      revert\n        /* \"#utility.yul\":11545:11955   */\n    tag_68:\n        /* \"#utility.yul\":11585:11592   */\n      0x00\n        /* \"#utility.yul\":11608:11628   */\n      tag_240\n        /* \"#utility.yul\":11626:11627   */\n      dup3\n        /* \"#utility.yul\":11608:11628   */\n      tag_103\n      jump\t// in\n    tag_240:\n        /* \"#utility.yul\":11603:11628   */\n      swap2\n      pop\n        /* \"#utility.yul\":11642:11662   */\n      tag_241\n        /* \"#utility.yul\":11660:11661   */\n      dup4\n        /* \"#utility.yul\":11642:11662   */\n      tag_103\n      jump\t// in\n    tag_241:\n        /* \"#utility.yul\":11637:11662   */\n      swap3\n      pop\n        /* \"#utility.yul\":11697:11698   */\n      dup3\n        /* \"#utility.yul\":11694:11695   */\n      dup3\n        /* \"#utility.yul\":11690:11699   */\n      mul\n        /* \"#utility.yul\":11719:11749   */\n      tag_242\n        /* \"#utility.yul\":11737:11748   */\n      dup2\n        /* \"#utility.yul\":11719:11749   */\n      tag_103\n      jump\t// in\n    tag_242:\n        /* \"#utility.yul\":11708:11749   */\n      swap2\n      pop\n        /* \"#utility.yul\":11898:11899   */\n      dup3\n        /* \"#utility.yul\":11889:11896   */\n      dup3\n        /* \"#utility.yul\":11885:11900   */\n      div\n        /* \"#utility.yul\":11882:11883   */\n      dup5\n        /* \"#utility.yul\":11879:11901   */\n      eq\n        /* \"#utility.yul\":11859:11860   */\n      dup4\n        /* \"#utility.yul\":11852:11861   */\n      iszero\n        /* \"#utility.yul\":11832:11915   */\n      or\n        /* \"#utility.yul\":11809:11948   */\n      tag_243\n      jumpi\n        /* \"#utility.yul\":11928:11946   */\n      tag_244\n      tag_128\n      jump\t// in\n    tag_244:\n        /* \"#utility.yul\":11809:11948   */\n    tag_243:\n        /* \"#utility.yul\":11593:11955   */\n      pop\n        /* \"#utility.yul\":11545:11955   */\n      swap3\n      swap2\n      pop\n      pop\n      jump\t// out\n        /* \"#utility.yul\":11961:12152   */\n    tag_70:\n        /* \"#utility.yul\":12001:12004   */\n      0x00\n        /* \"#utility.yul\":12020:12040   */\n      tag_246\n        /* \"#utility.yul\":12038:12039   */\n      dup3\n        /* \"#utility.yul\":12020:12040   */\n      tag_103\n      jump\t// in\n    tag_246:\n        /* \"#utility.yul\":12015:12040   */\n      swap2\n      pop\n        /* \"#utility.yul\":12054:12074   */\n      tag_247\n        /* \"#utility.yul\":12072:12073   */\n      dup4\n        /* \"#utility.yul\":12054:12074   */\n      tag_103\n      jump\t// in\n    tag_247:\n        /* \"#utility.yul\":12049:12074   */\n      swap3\n      pop\n        /* \"#utility.yul\":12097:12098   */\n      dup3\n        /* \"#utility.yul\":12094:12095   */\n      dup3\n        /* \"#utility.yul\":12090:12099   */\n      add\n        /* \"#utility.yul\":12083:12099   */\n      swap1\n      pop\n        /* \"#utility.yul\":12118:12121   */\n      dup1\n        /* \"#utility.yul\":12115:12116   */\n      dup3\n        /* \"#utility.yul\":12112:12122   */\n      gt\n        /* \"#utility.yul\":12109:12145   */\n      iszero\n      tag_248\n      jumpi\n        /* \"#utility.yul\":12125:12143   */\n      tag_249\n      tag_128\n      jump\t// in\n    tag_249:\n        /* \"#utility.yul\":12109:12145   */\n    tag_248:\n        /* \"#utility.yul\":11961:12152   */\n      swap3\n      swap2\n      pop\n      pop\n      jump\t// out\n        /* \"#utility.yul\":12158:12391   */\n    tag_72:\n        /* \"#utility.yul\":12197:12200   */\n      0x00\n        /* \"#utility.yul\":12220:12244   */\n      tag_251\n        /* \"#utility.yul\":12238:12243   */\n      dup3\n        /* \"#utility.yul\":12220:12244   */\n      tag_103\n      jump\t// in\n    tag_251:\n        /* \"#utility.yul\":12211:12244   */\n      swap2\n      pop\n        /* \"#utility.yul\":12266:12332   */\n      0xffffffffffffffffffffffffffffffffffffffffffffffffffffffffffffffff\n        /* \"#utility.yul\":12259:12264   */\n      dup3\n        /* \"#utility.yul\":12256:12333   */\n      sub\n        /* \"#utility.yul\":12253:12356   */\n      tag_252\n      jumpi\n        /* \"#utility.yul\":12336:12354   */\n      tag_253\n      tag_128\n      jump\t// in\n    tag_253:\n        /* \"#utility.yul\":12253:12356   */\n    tag_252:\n        /* \"#utility.yul\":12383:12384   */\n      0x01\n        /* \"#utility.yul\":12376:12381   */\n      dup3\n        /* \"#utility.yul\":12372:12385   */\n      add\n        /* \"#utility.yul\":12365:12385   */\n      swap1\n      pop\n        /* \"#utility.yul\":12158:12391   */\n      swap2\n      swap1\n      pop\n      jump\t// out\n        /* \"#utility.yul\":12397:12571   */\n    tag_129:\n        /* \"#utility.yul\":12537:12563   */\n      0x43757272656e74206c656173652068617320656e6465642e0000000000000000\n        /* \"#utility.yul\":12533:12534   */\n      0x00\n        /* \"#utility.yul\":12525:12531   */\n      dup3\n        /* \"#utility.yul\":12521:12535   */\n      add\n        /* \"#utility.yul\":12514:12564   */\n      mstore\n        /* \"#utility.yul\":12397:12571   */\n      pop\n      jump\t// out\n        /* \"#utility.yul\":12577:12943   */\n    tag_130:\n        /* \"#utility.yul\":12719:12722   */\n      0x00\n        /* \"#utility.yul\":12740:12807   */\n      tag_256\n        /* \"#utility.yul\":12804:12806   */\n      0x18\n        /* \"#utility.yul\":12799:12802   */\n      dup4\n        /* \"#utility.yul\":12740:12807   */\n      tag_121\n      jump\t// in\n    tag_256:\n        /* \"#utility.yul\":12733:12807   */\n      swap2\n      pop\n        /* \"#utility.yul\":12816:12909   */\n      tag_257\n        /* \"#utility.yul\":12905:12908   */\n      dup3\n        /* \"#utility.yul\":12816:12909   */\n      tag_129\n      jump\t// in\n    tag_257:\n        /* \"#utility.yul\":12934:12936   */\n      0x20\n        /* \"#utility.yul\":12929:12932   */\n      dup3\n        /* \"#utility.yul\":12925:12937   */\n      add\n        /* \"#utility.yul\":12918:12937   */\n      swap1\n      pop\n        /* \"#utility.yul\":12577:12943   */\n      swap2\n      swap1\n      pop\n      jump\t// out\n        /* \"#utility.yul\":12949:13368   */\n    tag_83:\n        /* \"#utility.yul\":13115:13119   */\n      0x00\n        /* \"#utility.yul\":13153:13155   */\n      0x20\n        /* \"#utility.yul\":13142:13151   */\n      dup3\n        /* \"#utility.yul\":13138:13156   */\n      add\n        /* \"#utility.yul\":13130:13156   */\n      swap1\n      pop\n        /* \"#utility.yul\":13202:13211   */\n      dup2\n        /* \"#utility.yul\":13196:13200   */\n      dup2\n        /* \"#utility.yul\":13192:13212   */\n      sub\n        /* \"#utility.yul\":13188:13189   */\n      0x00\n        /* \"#utility.yul\":13177:13186   */\n      dup4\n        /* \"#utility.yul\":13173:13190   */\n      add\n        /* \"#utility.yul\":13166:13213   */\n      mstore\n        /* \"#utility.yul\":13230:13361   */\n      tag_259\n        /* \"#utility.yul\":13356:13360   */\n      dup2\n        /* \"#utility.yul\":13230:13361   */\n      tag_130\n      jump\t// in\n    tag_259:\n        /* \"#utility.yul\":13222:13361   */\n      swap1\n      pop\n        /* \"#utility.yul\":12949:13368   */\n      swap2\n      swap1\n      pop\n      jump\t// out\n        /* \"#utility.yul\":13374:13600   */\n    tag_131:\n        /* \"#utility.yul\":13514:13548   */\n      0x496e636f7272656374206465706f73697420616d6f756e7420666f7220657874\n        /* \"#utility.yul\":13510:13511   */\n      0x00\n        /* \"#utility.yul\":13502:13508   */\n      dup3\n        /* \"#utility.yul\":13498:13512   */\n      add\n        /* \"#utility.yul\":13491:13549   */\n      mstore\n        /* \"#utility.yul\":13583:13592   */\n      0x656e73696f6e2e00000000000000000000000000000000000000000000000000\n        /* \"#utility.yul\":13578:13580   */\n      0x20\n        /* \"#utility.yul\":13570:13576   */\n      dup3\n        /* \"#utility.yul\":13566:13581   */\n      add\n        /* \"#utility.yul\":13559:13593   */\n      mstore\n        /* \"#utility.yul\":13374:13600   */\n      pop\n      jump\t// out\n        /* \"#utility.yul\":13606:13972   */\n    tag_132:\n        /* \"#utility.yul\":13748:13751   */\n      0x00\n        /* \"#utility.yul\":13769:13836   */\n      tag_262\n        /* \"#utility.yul\":13833:13835   */\n      0x27\n        /* \"#utility.yul\":13828:13831   */\n      dup4\n        /* \"#utility.yul\":13769:13836   */\n      tag_121\n      jump\t// in\n    tag_262:\n        /* \"#utility.yul\":13762:13836   */\n      swap2\n      pop\n        /* \"#utility.yul\":13845:13938   */\n      tag_263\n        /* \"#utility.yul\":13934:13937   */\n      dup3\n        /* \"#utility.yul\":13845:13938   */\n      tag_131\n      jump\t// in\n    tag_263:\n        /* \"#utility.yul\":13963:13965   */\n      0x40\n        /* \"#utility.yul\":13958:13961   */\n      dup3\n        /* \"#utility.yul\":13954:13966   */\n      add\n        /* \"#utility.yul\":13947:13966   */\n      swap1\n      pop\n        /* \"#utility.yul\":13606:13972   */\n      swap2\n      swap1\n      pop\n      jump\t// out\n        /* \"#utility.yul\":13978:14397   */\n    tag_86:\n        /* \"#utility.yul\":14144:14148   */\n      0x00\n        /* \"#utility.yul\":14182:14184   */\n      0x20\n        /* \"#utility.yul\":14171:14180   */\n      dup3\n        /* \"#utility.yul\":14167:14185   */\n      add\n        /* \"#utility.yul\":14159:14185   */\n      swap1\n      pop\n        /* \"#utility.yul\":14231:14240   */\n      dup2\n        /* \"#utility.yul\":14225:14229   */\n      dup2\n        /* \"#utility.yul\":14221:14241   */\n      sub\n        /* \"#utility.yul\":14217:14218   */\n      0x00\n        /* \"#utility.yul\":14206:14215   */\n      dup4\n        /* \"#utility.yul\":14202:14219   */\n      add\n        /* \"#utility.yul\":14195:14242   */\n      mstore\n        /* \"#utility.yul\":14259:14390   */\n      tag_265\n        /* \"#utility.yul\":14385:14389   */\n      dup2\n        /* \"#utility.yul\":14259:14390   */\n      tag_132\n      jump\t// in\n    tag_265:\n        /* \"#utility.yul\":14251:14390   */\n      swap1\n      pop\n        /* \"#utility.yul\":13978:14397   */\n      swap2\n      swap1\n      pop\n      jump\t// out\n        /* \"#utility.yul\":14403:14580   */\n    tag_133:\n        /* \"#utility.yul\":14543:14572   */\n      0x436172206e6f7420617661696c61626c6520666f722073616c652e0000000000\n        /* \"#utility.yul\":14539:14540   */\n      0x00\n        /* \"#utility.yul\":14531:14537   */\n      dup3\n        /* \"#utility.yul\":14527:14541   */\n      add\n        /* \"#utility.yul\":14520:14573   */\n      mstore\n        /* \"#utility.yul\":14403:14580   */\n      pop\n      jump\t// out\n        /* \"#utility.yul\":14586:14952   */\n    tag_134:\n        /* \"#utility.yul\":14728:14731   */\n      0x00\n        /* \"#utility.yul\":14749:14816   */\n      tag_268\n        /* \"#utility.yul\":14813:14815   */\n      0x1b\n        /* \"#utility.yul\":14808:14811   */\n      dup4\n        /* \"#utility.yul\":14749:14816   */\n      tag_121\n      jump\t// in\n    tag_268:\n        /* \"#utility.yul\":14742:14816   */\n      swap2\n      pop\n        /* \"#utility.yul\":14825:14918   */\n      tag_269\n        /* \"#utility.yul\":14914:14917   */\n      dup3\n        /* \"#utility.yul\":14825:14918   */\n      tag_133\n      jump\t// in\n    tag_269:\n        /* \"#utility.yul\":14943:14945   */\n      0x20\n        /* \"#utility.yul\":14938:14941   */\n      dup3\n        /* \"#utility.yul\":14934:14946   */\n      add\n        /* \"#utility.yul\":14927:14946   */\n      swap1\n      pop\n        /* \"#utility.yul\":14586:14952   */\n      swap2\n      swap1\n      pop\n      jump\t// out\n        /* \"#utility.yul\":14958:15377   */\n    tag_93:\n        /* \"#utility.yul\":15124:15128   */\n      0x00\n        /* \"#utility.yul\":15162:15164   */\n      0x20\n        /* \"#utility.yul\":15151:15160   */\n      dup3\n        /* \"#utility.yul\":15147:15165   */\n      add\n        /* \"#utility.yul\":15139:15165   */\n      swap1\n      pop\n        /* \"#utility.yul\":15211:15220   */\n      dup2\n        /* \"#utility.yul\":15205:15209   */\n      dup2\n        /* \"#utility.yul\":15201:15221   */\n      sub\n        /* \"#utility.yul\":15197:15198   */\n      0x00\n        /* \"#utility.yul\":15186:15195   */\n      dup4\n        /* \"#utility.yul\":15182:15199   */\n      add\n        /* \"#utility.yul\":15175:15222   */\n      mstore\n        /* \"#utility.yul\":15239:15370   */\n      tag_271\n        /* \"#utility.yul\":15365:15369   */\n      dup2\n        /* \"#utility.yul\":15239:15370   */\n      tag_134\n      jump\t// in\n    tag_271:\n        /* \"#utility.yul\":15231:15370   */\n      swap1\n      pop\n        /* \"#utility.yul\":14958:15377   */\n      swap2\n      swap1\n      pop\n      jump\t// out\n        /* \"#utility.yul\":15383:15554   */\n    tag_135:\n        /* \"#utility.yul\":15523:15546   */\n      0x496e636f727265637420707269636520706169642e0000000000000000000000\n        /* \"#utility.yul\":15519:15520   */\n      0x00\n        /* \"#utility.yul\":15511:15517   */\n      dup3\n        /* \"#utility.yul\":15507:15521   */\n      add\n        /* \"#utility.yul\":15500:15547   */\n      mstore\n        /* \"#utility.yul\":15383:15554   */\n      pop\n      jump\t// out\n        /* \"#utility.yul\":15560:15926   */\n    tag_136:\n        /* \"#utility.yul\":15702:15705   */\n      0x00\n        /* \"#utility.yul\":15723:15790   */\n      tag_274\n        /* \"#utility.yul\":15787:15789   */\n      0x15\n        /* \"#utility.yul\":15782:15785   */\n      dup4\n        /* \"#utility.yul\":15723:15790   */\n      tag_121\n      jump\t// in\n    tag_274:\n        /* \"#utility.yul\":15716:15790   */\n      swap2\n      pop\n        /* \"#utility.yul\":15799:15892   */\n      tag_275\n        /* \"#utility.yul\":15888:15891   */\n      dup3\n        /* \"#utility.yul\":15799:15892   */\n      tag_135\n      jump\t// in\n    tag_275:\n        /* \"#utility.yul\":15917:15919   */\n      0x20\n        /* \"#utility.yul\":15912:15915   */\n      dup3\n        /* \"#utility.yul\":15908:15920   */\n      add\n        /* \"#utility.yul\":15901:15920   */\n      swap1\n      pop\n        /* \"#utility.yul\":15560:15926   */\n      swap2\n      swap1\n      pop\n      jump\t// out\n        /* \"#utility.yul\":15932:16351   */\n    tag_96:\n        /* \"#utility.yul\":16098:16102   */\n      0x00\n        /* \"#utility.yul\":16136:16138   */\n      0x20\n        /* \"#utility.yul\":16125:16134   */\n      dup3\n        /* \"#utility.yul\":16121:16139   */\n      add\n        /* \"#utility.yul\":16113:16139   */\n      swap1\n      pop\n        /* \"#utility.yul\":16185:16194   */\n      dup2\n        /* \"#utility.yul\":16179:16183   */\n      dup2\n        /* \"#utility.yul\":16175:16195   */\n      sub\n        /* \"#utility.yul\":16171:16172   */\n      0x00\n        /* \"#utility.yul\":16160:16169   */\n      dup4\n        /* \"#utility.yul\":16156:16173   */\n      add\n        /* \"#utility.yul\":16149:16196   */\n      mstore\n        /* \"#utility.yul\":16213:16344   */\n      tag_277\n        /* \"#utility.yul\":16339:16343   */\n      dup2\n        /* \"#utility.yul\":16213:16344   */\n      tag_136\n      jump\t// in\n    tag_277:\n        /* \"#utility.yul\":16205:16344   */\n      swap1\n      pop\n        /* \"#utility.yul\":15932:16351   */\n      swap2\n      swap1\n      pop\n      jump\t// out\n\n    auxdata: 0xa26469706673582212208a8df647395c92c8a2bdbdd91153dce98c749b66c971f1bdc7d60eb4fca2195e64736f6c63430008160033\n}\n",
				"bytecode": {
					"linkReferences": {},
					"object": "608060405234801561000f575f80fd5b506112688061001d5f395ff3fe608060405260043610610085575f3560e01c80638c8bfa06116100585780638c8bfa0614610139578063a87430ba14610163578063e0ba3fe5146101a0578063e55ddecb146101bc578063f7746e36146101e457610085565b8063421abf3b14610089578063472ec454146100a55780634e43603a146100e15780635d09f7d31461011d575b5f80fd5b6100a3600480360381019061009e9190610aca565b610227565b005b3480156100b0575f80fd5b506100cb60048036038101906100c69190610aca565b610402565b6040516100d89190610bfd565b60405180910390f35b3480156100ec575f80fd5b5061010760048036038101906101029190610c41565b6104e8565b6040516101149190610c99565b60405180910390f35b61013760048036038101906101329190610aca565b610552565b005b348015610144575f80fd5b5061014d61065d565b60405161015a9190610cc1565b60405180910390f35b34801561016e575f80fd5b5061018960048036038101906101849190610c41565b610663565b604051610197929190610cda565b60405180910390f35b6101ba60048036038101906101b59190610aca565b610683565b005b3480156101c7575f80fd5b506101e260048036038101906101dd9190610d2b565b610828565b005b3480156101ef575f80fd5b5061020a60048036038101906102059190610aca565b6109a9565b60405161021e989796959493929190610dc0565b60405180910390f35b5f805f8381526020019081526020015f209050806006015f9054906101000a900460ff1661028a576040517f08c379a000000000000000000000000000000000000000000000000000000000815260040161028190610e96565b60405180910390fd5b806003015434146102d0576040517f08c379a00000000000000000000000000000000000000000000000000000000081526004016102c790610efe565b60405180910390fd5b5f816004015411610316576040517f08c379a000000000000000000000000000000000000000000000000000000000815260040161030d90610f66565b60405180910390fd5b6201518081600401546103299190610fb1565b426103349190610ff2565b81600501819055505f816006015f6101000a81548160ff02191690831515021790555060015f3373ffffffffffffffffffffffffffffffffffffffff1673ffffffffffffffffffffffffffffffffffffffff1681526020019081526020015f205f015f8154809291906103a690611025565b91905055503373ffffffffffffffffffffffffffffffffffffffff16827f895b702ceb191a27930fb9aeadcdd3208e697d0850c766f2ff5acaff05ef40aa83600501546040516103f69190610cc1565b60405180910390a35050565b61040a610a24565b5f808381526020019081526020015f20604051806101000160405290815f8201548152602001600182015f9054906101000a900473ffffffffffffffffffffffffffffffffffffffff1673ffffffffffffffffffffffffffffffffffffffff1673ffffffffffffffffffffffffffffffffffffffff16815260200160028201548152602001600382015481526020016004820154815260200160058201548152602001600682015f9054906101000a900460ff161515151581526020016006820160019054906101000a900460ff1615151515815250509050919050565b6104f0610a7b565b60015f8373ffffffffffffffffffffffffffffffffffffffff1673ffffffffffffffffffffffffffffffffffffffff1681526020019081526020015f206040518060400160405290815f82015481526020016001820154815250509050919050565b5f805f8381526020019081526020015f209050806005015442106105ab576040517f08c379a00000000000000000000000000000000000000000000000000000000081526004016105a2906110b6565b60405180910390fd5b806003015434146105f1576040517f08c379a00000000000000000000000000000000000000000000000000000000081526004016105e890611144565b60405180910390fd5b6201518081600401546106049190610fb1565b816005015f8282546106169190610ff2565b92505081905550817fbe8718ddf8e3be9e92c7675f70838781862c60e726fc7ca7717ec53360e1829982600501546040516106519190610cc1565b60405180910390a25050565b60025481565b6001602052805f5260405f205f91509050805f0154908060010154905082565b5f805f8381526020019081526020015f2090508060060160019054906101000a900460ff166106e7576040517f08c379a00000000000000000000000000000000000000000000000000000000081526004016106de906111ac565b60405180910390fd5b8060020154341461072d576040517f08c379a000000000000000000000000000000000000000000000000000000000815260040161072490611214565b60405180910390fd5b33816001015f6101000a81548173ffffffffffffffffffffffffffffffffffffffff021916908373ffffffffffffffffffffffffffffffffffffffff1602179055505f8160060160016101000a81548160ff02191690831515021790555060015f3373ffffffffffffffffffffffffffffffffffffffff1673ffffffffffffffffffffffffffffffffffffffff1681526020019081526020015f206001015f8154809291906107db90611025565b91905055503373ffffffffffffffffffffffffffffffffffffffff16827f80ca24d2a1344a89386e729be0463ca3613656f33d52a5f7674c02cc11594b9b60405160405180910390a35050565b5f60025f81548092919061083b90611025565b9190505590506040518061010001604052808281526020013373ffffffffffffffffffffffffffffffffffffffff1681526020018781526020018681526020018581526020015f815260200184151581526020018315158152505f808381526020019081526020015f205f820151815f01556020820151816001015f6101000a81548173ffffffffffffffffffffffffffffffffffffffff021916908373ffffffffffffffffffffffffffffffffffffffff16021790555060408201518160020155606082015181600301556080820151816004015560a0820151816005015560c0820151816006015f6101000a81548160ff02191690831515021790555060e08201518160060160016101000a81548160ff0219169083151502179055509050503373ffffffffffffffffffffffffffffffffffffffff16817f459e1abea8d58f1f390ad63904970bc184e7e026ff12f2f7f3c3aed6677ad18760405160405180910390a3505050505050565b5f602052805f5260405f205f91509050805f015490806001015f9054906101000a900473ffffffffffffffffffffffffffffffffffffffff1690806002015490806003015490806004015490806005015490806006015f9054906101000a900460ff16908060060160019054906101000a900460ff16905088565b6040518061010001604052805f81526020015f73ffffffffffffffffffffffffffffffffffffffff1681526020015f81526020015f81526020015f81526020015f81526020015f151581526020015f151581525090565b60405180604001604052805f81526020015f81525090565b5f80fd5b5f819050919050565b610aa981610a97565b8114610ab3575f80fd5b50565b5f81359050610ac481610aa0565b92915050565b5f60208284031215610adf57610ade610a93565b5b5f610aec84828501610ab6565b91505092915050565b610afe81610a97565b82525050565b5f73ffffffffffffffffffffffffffffffffffffffff82169050919050565b5f610b2d82610b04565b9050919050565b610b3d81610b23565b82525050565b5f8115159050919050565b610b5781610b43565b82525050565b61010082015f820151610b725f850182610af5565b506020820151610b856020850182610b34565b506040820151610b986040850182610af5565b506060820151610bab6060850182610af5565b506080820151610bbe6080850182610af5565b5060a0820151610bd160a0850182610af5565b5060c0820151610be460c0850182610b4e565b5060e0820151610bf760e0850182610b4e565b50505050565b5f61010082019050610c115f830184610b5d565b92915050565b610c2081610b23565b8114610c2a575f80fd5b50565b5f81359050610c3b81610c17565b92915050565b5f60208284031215610c5657610c55610a93565b5b5f610c6384828501610c2d565b91505092915050565b604082015f820151610c805f850182610af5565b506020820151610c936020850182610af5565b50505050565b5f604082019050610cac5f830184610c6c565b92915050565b610cbb81610a97565b82525050565b5f602082019050610cd45f830184610cb2565b92915050565b5f604082019050610ced5f830185610cb2565b610cfa6020830184610cb2565b9392505050565b610d0a81610b43565b8114610d14575f80fd5b50565b5f81359050610d2581610d01565b92915050565b5f805f805f60a08688031215610d4457610d43610a93565b5b5f610d5188828901610ab6565b9550506020610d6288828901610ab6565b9450506040610d7388828901610ab6565b9350506060610d8488828901610d17565b9250506080610d9588828901610d17565b9150509295509295909350565b610dab81610b23565b82525050565b610dba81610b43565b82525050565b5f61010082019050610dd45f83018b610cb2565b610de1602083018a610da2565b610dee6040830189610cb2565b610dfb6060830188610cb2565b610e086080830187610cb2565b610e1560a0830186610cb2565b610e2260c0830185610db1565b610e2f60e0830184610db1565b9998505050505050505050565b5f82825260208201905092915050565b7f436172206e6f7420617661696c61626c6520666f72206c656173652e000000005f82015250565b5f610e80601c83610e3c565b9150610e8b82610e4c565b602082019050919050565b5f6020820190508181035f830152610ead81610e74565b9050919050565b7f496e636f7272656374206465706f73697420616d6f756e742e000000000000005f82015250565b5f610ee8601983610e3c565b9150610ef382610eb4565b602082019050919050565b5f6020820190508181035f830152610f1581610edc565b9050919050565b7f496e76616c6964206c65617365207465726d2e000000000000000000000000005f82015250565b5f610f50601383610e3c565b9150610f5b82610f1c565b602082019050919050565b5f6020820190508181035f830152610f7d81610f44565b9050919050565b7f4e487b71000000000000000000000000000000000000000000000000000000005f52601160045260245ffd5b5f610fbb82610a97565b9150610fc683610a97565b9250828202610fd481610a97565b91508282048414831517610feb57610fea610f84565b5b5092915050565b5f610ffc82610a97565b915061100783610a97565b925082820190508082111561101f5761101e610f84565b5b92915050565b5f61102f82610a97565b91507fffffffffffffffffffffffffffffffffffffffffffffffffffffffffffffffff820361106157611060610f84565b5b600182019050919050565b7f43757272656e74206c656173652068617320656e6465642e00000000000000005f82015250565b5f6110a0601883610e3c565b91506110ab8261106c565b602082019050919050565b5f6020820190508181035f8301526110cd81611094565b9050919050565b7f496e636f7272656374206465706f73697420616d6f756e7420666f72206578745f8201527f656e73696f6e2e00000000000000000000000000000000000000000000000000602082015250565b5f61112e602783610e3c565b9150611139826110d4565b604082019050919050565b5f6020820190508181035f83015261115b81611122565b9050919050565b7f436172206e6f7420617661696c61626c6520666f722073616c652e00000000005f82015250565b5f611196601b83610e3c565b91506111a182611162565b602082019050919050565b5f6020820190508181035f8301526111c38161118a565b9050919050565b7f496e636f727265637420707269636520706169642e00000000000000000000005f82015250565b5f6111fe601583610e3c565b9150611209826111ca565b602082019050919050565b5f6020820190508181035f83015261122b816111f2565b905091905056fea26469706673582212208a8df647395c92c8a2bdbdd91153dce98c749b66c971f1bdc7d60eb4fca2195e64736f6c63430008160033",
					"opcodes": "PUSH1 0x80 PUSH1 0x40 MSTORE CALLVALUE DUP1 ISZERO PUSH2 0xF JUMPI PUSH0 DUP1 REVERT JUMPDEST POP PUSH2 0x1268 DUP1 PUSH2 0x1D PUSH0 CODECOPY PUSH0 RETURN INVALID PUSH1 0x80 PUSH1 0x40 MSTORE PUSH1 0x4 CALLDATASIZE LT PUSH2 0x85 JUMPI PUSH0 CALLDATALOAD PUSH1 0xE0 SHR DUP1 PUSH4 0x8C8BFA06 GT PUSH2 0x58 JUMPI DUP1 PUSH4 0x8C8BFA06 EQ PUSH2 0x139 JUMPI DUP1 PUSH4 0xA87430BA EQ PUSH2 0x163 JUMPI DUP1 PUSH4 0xE0BA3FE5 EQ PUSH2 0x1A0 JUMPI DUP1 PUSH4 0xE55DDECB EQ PUSH2 0x1BC JUMPI DUP1 PUSH4 0xF7746E36 EQ PUSH2 0x1E4 JUMPI PUSH2 0x85 JUMP JUMPDEST DUP1 PUSH4 0x421ABF3B EQ PUSH2 0x89 JUMPI DUP1 PUSH4 0x472EC454 EQ PUSH2 0xA5 JUMPI DUP1 PUSH4 0x4E43603A EQ PUSH2 0xE1 JUMPI DUP1 PUSH4 0x5D09F7D3 EQ PUSH2 0x11D JUMPI JUMPDEST PUSH0 DUP1 REVERT JUMPDEST PUSH2 0xA3 PUSH1 0x4 DUP1 CALLDATASIZE SUB DUP2 ADD SWAP1 PUSH2 0x9E SWAP2 SWAP1 PUSH2 0xACA JUMP JUMPDEST PUSH2 0x227 JUMP JUMPDEST STOP JUMPDEST CALLVALUE DUP1 ISZERO PUSH2 0xB0 JUMPI PUSH0 DUP1 REVERT JUMPDEST POP PUSH2 0xCB PUSH1 0x4 DUP1 CALLDATASIZE SUB DUP2 ADD SWAP1 PUSH2 0xC6 SWAP2 SWAP1 PUSH2 0xACA JUMP JUMPDEST PUSH2 0x402 JUMP JUMPDEST PUSH1 0x40 MLOAD PUSH2 0xD8 SWAP2 SWAP1 PUSH2 0xBFD JUMP JUMPDEST PUSH1 0x40 MLOAD DUP1 SWAP2 SUB SWAP1 RETURN JUMPDEST CALLVALUE DUP1 ISZERO PUSH2 0xEC JUMPI PUSH0 DUP1 REVERT JUMPDEST POP PUSH2 0x107 PUSH1 0x4 DUP1 CALLDATASIZE SUB DUP2 ADD SWAP1 PUSH2 0x102 SWAP2 SWAP1 PUSH2 0xC41 JUMP JUMPDEST PUSH2 0x4E8 JUMP JUMPDEST PUSH1 0x40 MLOAD PUSH2 0x114 SWAP2 SWAP1 PUSH2 0xC99 JUMP JUMPDEST PUSH1 0x40 MLOAD DUP1 SWAP2 SUB SWAP1 RETURN JUMPDEST PUSH2 0x137 PUSH1 0x4 DUP1 CALLDATASIZE SUB DUP2 ADD SWAP1 PUSH2 0x132 SWAP2 SWAP1 PUSH2 0xACA JUMP JUMPDEST PUSH2 0x552 JUMP JUMPDEST STOP JUMPDEST CALLVALUE DUP1 ISZERO PUSH2 0x144 JUMPI PUSH0 DUP1 REVERT JUMPDEST POP PUSH2 0x14D PUSH2 0x65D JUMP JUMPDEST PUSH1 0x40 MLOAD PUSH2 0x15A SWAP2 SWAP1 PUSH2 0xCC1 JUMP JUMPDEST PUSH1 0x40 MLOAD DUP1 SWAP2 SUB SWAP1 RETURN JUMPDEST CALLVALUE DUP1 ISZERO PUSH2 0x16E JUMPI PUSH0 DUP1 REVERT JUMPDEST POP PUSH2 0x189 PUSH1 0x4 DUP1 CALLDATASIZE SUB DUP2 ADD SWAP1 PUSH2 0x184 SWAP2 SWAP1 PUSH2 0xC41 JUMP JUMPDEST PUSH2 0x663 JUMP JUMPDEST PUSH1 0x40 MLOAD PUSH2 0x197 SWAP3 SWAP2 SWAP1 PUSH2 0xCDA JUMP JUMPDEST PUSH1 0x40 MLOAD DUP1 SWAP2 SUB SWAP1 RETURN JUMPDEST PUSH2 0x1BA PUSH1 0x4 DUP1 CALLDATASIZE SUB DUP2 ADD SWAP1 PUSH2 0x1B5 SWAP2 SWAP1 PUSH2 0xACA JUMP JUMPDEST PUSH2 0x683 JUMP JUMPDEST STOP JUMPDEST CALLVALUE DUP1 ISZERO PUSH2 0x1C7 JUMPI PUSH0 DUP1 REVERT JUMPDEST POP PUSH2 0x1E2 PUSH1 0x4 DUP1 CALLDATASIZE SUB DUP2 ADD SWAP1 PUSH2 0x1DD SWAP2 SWAP1 PUSH2 0xD2B JUMP JUMPDEST PUSH2 0x828 JUMP JUMPDEST STOP JUMPDEST CALLVALUE DUP1 ISZERO PUSH2 0x1EF JUMPI PUSH0 DUP1 REVERT JUMPDEST POP PUSH2 0x20A PUSH1 0x4 DUP1 CALLDATASIZE SUB DUP2 ADD SWAP1 PUSH2 0x205 SWAP2 SWAP1 PUSH2 0xACA JUMP JUMPDEST PUSH2 0x9A9 JUMP JUMPDEST PUSH1 0x40 MLOAD PUSH2 0x21E SWAP9 SWAP8 SWAP7 SWAP6 SWAP5 SWAP4 SWAP3 SWAP2 SWAP1 PUSH2 0xDC0 JUMP JUMPDEST PUSH1 0x40 MLOAD DUP1 SWAP2 SUB SWAP1 RETURN JUMPDEST PUSH0 DUP1 PUSH0 DUP4 DUP2 MSTORE PUSH1 0x20 ADD SWAP1 DUP2 MSTORE PUSH1 0x20 ADD PUSH0 KECCAK256 SWAP1 POP DUP1 PUSH1 0x6 ADD PUSH0 SWAP1 SLOAD SWAP1 PUSH2 0x100 EXP SWAP1 DIV PUSH1 0xFF AND PUSH2 0x28A JUMPI PUSH1 0x40 MLOAD PUSH32 0x8C379A000000000000000000000000000000000000000000000000000000000 DUP2 MSTORE PUSH1 0x4 ADD PUSH2 0x281 SWAP1 PUSH2 0xE96 JUMP JUMPDEST PUSH1 0x40 MLOAD DUP1 SWAP2 SUB SWAP1 REVERT JUMPDEST DUP1 PUSH1 0x3 ADD SLOAD CALLVALUE EQ PUSH2 0x2D0 JUMPI PUSH1 0x40 MLOAD PUSH32 0x8C379A000000000000000000000000000000000000000000000000000000000 DUP2 MSTORE PUSH1 0x4 ADD PUSH2 0x2C7 SWAP1 PUSH2 0xEFE JUMP JUMPDEST PUSH1 0x40 MLOAD DUP1 SWAP2 SUB SWAP1 REVERT JUMPDEST PUSH0 DUP2 PUSH1 0x4 ADD SLOAD GT PUSH2 0x316 JUMPI PUSH1 0x40 MLOAD PUSH32 0x8C379A000000000000000000000000000000000000000000000000000000000 DUP2 MSTORE PUSH1 0x4 ADD PUSH2 0x30D SWAP1 PUSH2 0xF66 JUMP JUMPDEST PUSH1 0x40 MLOAD DUP1 SWAP2 SUB SWAP1 REVERT JUMPDEST PUSH3 0x15180 DUP2 PUSH1 0x4 ADD SLOAD PUSH2 0x329 SWAP2 SWAP1 PUSH2 0xFB1 JUMP JUMPDEST TIMESTAMP PUSH2 0x334 SWAP2 SWAP1 PUSH2 0xFF2 JUMP JUMPDEST DUP2 PUSH1 0x5 ADD DUP2 SWAP1 SSTORE POP PUSH0 DUP2 PUSH1 0x6 ADD PUSH0 PUSH2 0x100 EXP DUP2 SLOAD DUP2 PUSH1 0xFF MUL NOT AND SWAP1 DUP4 ISZERO ISZERO MUL OR SWAP1 SSTORE POP PUSH1 0x1 PUSH0 CALLER PUSH20 0xFFFFFFFFFFFFFFFFFFFFFFFFFFFFFFFFFFFFFFFF AND PUSH20 0xFFFFFFFFFFFFFFFFFFFFFFFFFFFFFFFFFFFFFFFF AND DUP2 MSTORE PUSH1 0x20 ADD SWAP1 DUP2 MSTORE PUSH1 0x20 ADD PUSH0 KECCAK256 PUSH0 ADD PUSH0 DUP2 SLOAD DUP1 SWAP3 SWAP2 SWAP1 PUSH2 0x3A6 SWAP1 PUSH2 0x1025 JUMP JUMPDEST SWAP2 SWAP1 POP SSTORE POP CALLER PUSH20 0xFFFFFFFFFFFFFFFFFFFFFFFFFFFFFFFFFFFFFFFF AND DUP3 PUSH32 0x895B702CEB191A27930FB9AEADCDD3208E697D0850C766F2FF5ACAFF05EF40AA DUP4 PUSH1 0x5 ADD SLOAD PUSH1 0x40 MLOAD PUSH2 0x3F6 SWAP2 SWAP1 PUSH2 0xCC1 JUMP JUMPDEST PUSH1 0x40 MLOAD DUP1 SWAP2 SUB SWAP1 LOG3 POP POP JUMP JUMPDEST PUSH2 0x40A PUSH2 0xA24 JUMP JUMPDEST PUSH0 DUP1 DUP4 DUP2 MSTORE PUSH1 0x20 ADD SWAP1 DUP2 MSTORE PUSH1 0x20 ADD PUSH0 KECCAK256 PUSH1 0x40 MLOAD DUP1 PUSH2 0x100 ADD PUSH1 0x40 MSTORE SWAP1 DUP2 PUSH0 DUP3 ADD SLOAD DUP2 MSTORE PUSH1 0x20 ADD PUSH1 0x1 DUP3 ADD PUSH0 SWAP1 SLOAD SWAP1 PUSH2 0x100 EXP SWAP1 DIV PUSH20 0xFFFFFFFFFFFFFFFFFFFFFFFFFFFFFFFFFFFFFFFF AND PUSH20 0xFFFFFFFFFFFFFFFFFFFFFFFFFFFFFFFFFFFFFFFF AND PUSH20 0xFFFFFFFFFFFFFFFFFFFFFFFFFFFFFFFFFFFFFFFF AND DUP2 MSTORE PUSH1 0x20 ADD PUSH1 0x2 DUP3 ADD SLOAD DUP2 MSTORE PUSH1 0x20 ADD PUSH1 0x3 DUP3 ADD SLOAD DUP2 MSTORE PUSH1 0x20 ADD PUSH1 0x4 DUP3 ADD SLOAD DUP2 MSTORE PUSH1 0x20 ADD PUSH1 0x5 DUP3 ADD SLOAD DUP2 MSTORE PUSH1 0x20 ADD PUSH1 0x6 DUP3 ADD PUSH0 SWAP1 SLOAD SWAP1 PUSH2 0x100 EXP SWAP1 DIV PUSH1 0xFF AND ISZERO ISZERO ISZERO ISZERO DUP2 MSTORE PUSH1 0x20 ADD PUSH1 0x6 DUP3 ADD PUSH1 0x1 SWAP1 SLOAD SWAP1 PUSH2 0x100 EXP SWAP1 DIV PUSH1 0xFF AND ISZERO ISZERO ISZERO ISZERO DUP2 MSTORE POP POP SWAP1 POP SWAP2 SWAP1 POP JUMP JUMPDEST PUSH2 0x4F0 PUSH2 0xA7B JUMP JUMPDEST PUSH1 0x1 PUSH0 DUP4 PUSH20 0xFFFFFFFFFFFFFFFFFFFFFFFFFFFFFFFFFFFFFFFF AND PUSH20 0xFFFFFFFFFFFFFFFFFFFFFFFFFFFFFFFFFFFFFFFF AND DUP2 MSTORE PUSH1 0x20 ADD SWAP1 DUP2 MSTORE PUSH1 0x20 ADD PUSH0 KECCAK256 PUSH1 0x40 MLOAD DUP1 PUSH1 0x40 ADD PUSH1 0x40 MSTORE SWAP1 DUP2 PUSH0 DUP3 ADD SLOAD DUP2 MSTORE PUSH1 0x20 ADD PUSH1 0x1 DUP3 ADD SLOAD DUP2 MSTORE POP POP SWAP1 POP SWAP2 SWAP1 POP JUMP JUMPDEST PUSH0 DUP1 PUSH0 DUP4 DUP2 MSTORE PUSH1 0x20 ADD SWAP1 DUP2 MSTORE PUSH1 0x20 ADD PUSH0 KECCAK256 SWAP1 POP DUP1 PUSH1 0x5 ADD SLOAD TIMESTAMP LT PUSH2 0x5AB JUMPI PUSH1 0x40 MLOAD PUSH32 0x8C379A000000000000000000000000000000000000000000000000000000000 DUP2 MSTORE PUSH1 0x4 ADD PUSH2 0x5A2 SWAP1 PUSH2 0x10B6 JUMP JUMPDEST PUSH1 0x40 MLOAD DUP1 SWAP2 SUB SWAP1 REVERT JUMPDEST DUP1 PUSH1 0x3 ADD SLOAD CALLVALUE EQ PUSH2 0x5F1 JUMPI PUSH1 0x40 MLOAD PUSH32 0x8C379A000000000000000000000000000000000000000000000000000000000 DUP2 MSTORE PUSH1 0x4 ADD PUSH2 0x5E8 SWAP1 PUSH2 0x1144 JUMP JUMPDEST PUSH1 0x40 MLOAD DUP1 SWAP2 SUB SWAP1 REVERT JUMPDEST PUSH3 0x15180 DUP2 PUSH1 0x4 ADD SLOAD PUSH2 0x604 SWAP2 SWAP1 PUSH2 0xFB1 JUMP JUMPDEST DUP2 PUSH1 0x5 ADD PUSH0 DUP3 DUP3 SLOAD PUSH2 0x616 SWAP2 SWAP1 PUSH2 0xFF2 JUMP JUMPDEST SWAP3 POP POP DUP2 SWAP1 SSTORE POP DUP2 PUSH32 0xBE8718DDF8E3BE9E92C7675F70838781862C60E726FC7CA7717EC53360E18299 DUP3 PUSH1 0x5 ADD SLOAD PUSH1 0x40 MLOAD PUSH2 0x651 SWAP2 SWAP1 PUSH2 0xCC1 JUMP JUMPDEST PUSH1 0x40 MLOAD DUP1 SWAP2 SUB SWAP1 LOG2 POP POP JUMP JUMPDEST PUSH1 0x2 SLOAD DUP2 JUMP JUMPDEST PUSH1 0x1 PUSH1 0x20 MSTORE DUP1 PUSH0 MSTORE PUSH1 0x40 PUSH0 KECCAK256 PUSH0 SWAP2 POP SWAP1 POP DUP1 PUSH0 ADD SLOAD SWAP1 DUP1 PUSH1 0x1 ADD SLOAD SWAP1 POP DUP3 JUMP JUMPDEST PUSH0 DUP1 PUSH0 DUP4 DUP2 MSTORE PUSH1 0x20 ADD SWAP1 DUP2 MSTORE PUSH1 0x20 ADD PUSH0 KECCAK256 SWAP1 POP DUP1 PUSH1 0x6 ADD PUSH1 0x1 SWAP1 SLOAD SWAP1 PUSH2 0x100 EXP SWAP1 DIV PUSH1 0xFF AND PUSH2 0x6E7 JUMPI PUSH1 0x40 MLOAD PUSH32 0x8C379A000000000000000000000000000000000000000000000000000000000 DUP2 MSTORE PUSH1 0x4 ADD PUSH2 0x6DE SWAP1 PUSH2 0x11AC JUMP JUMPDEST PUSH1 0x40 MLOAD DUP1 SWAP2 SUB SWAP1 REVERT JUMPDEST DUP1 PUSH1 0x2 ADD SLOAD CALLVALUE EQ PUSH2 0x72D JUMPI PUSH1 0x40 MLOAD PUSH32 0x8C379A000000000000000000000000000000000000000000000000000000000 DUP2 MSTORE PUSH1 0x4 ADD PUSH2 0x724 SWAP1 PUSH2 0x1214 JUMP JUMPDEST PUSH1 0x40 MLOAD DUP1 SWAP2 SUB SWAP1 REVERT JUMPDEST CALLER DUP2 PUSH1 0x1 ADD PUSH0 PUSH2 0x100 EXP DUP2 SLOAD DUP2 PUSH20 0xFFFFFFFFFFFFFFFFFFFFFFFFFFFFFFFFFFFFFFFF MUL NOT AND SWAP1 DUP4 PUSH20 0xFFFFFFFFFFFFFFFFFFFFFFFFFFFFFFFFFFFFFFFF AND MUL OR SWAP1 SSTORE POP PUSH0 DUP2 PUSH1 0x6 ADD PUSH1 0x1 PUSH2 0x100 EXP DUP2 SLOAD DUP2 PUSH1 0xFF MUL NOT AND SWAP1 DUP4 ISZERO ISZERO MUL OR SWAP1 SSTORE POP PUSH1 0x1 PUSH0 CALLER PUSH20 0xFFFFFFFFFFFFFFFFFFFFFFFFFFFFFFFFFFFFFFFF AND PUSH20 0xFFFFFFFFFFFFFFFFFFFFFFFFFFFFFFFFFFFFFFFF AND DUP2 MSTORE PUSH1 0x20 ADD SWAP1 DUP2 MSTORE PUSH1 0x20 ADD PUSH0 KECCAK256 PUSH1 0x1 ADD PUSH0 DUP2 SLOAD DUP1 SWAP3 SWAP2 SWAP1 PUSH2 0x7DB SWAP1 PUSH2 0x1025 JUMP JUMPDEST SWAP2 SWAP1 POP SSTORE POP CALLER PUSH20 0xFFFFFFFFFFFFFFFFFFFFFFFFFFFFFFFFFFFFFFFF AND DUP3 PUSH32 0x80CA24D2A1344A89386E729BE0463CA3613656F33D52A5F7674C02CC11594B9B PUSH1 0x40 MLOAD PUSH1 0x40 MLOAD DUP1 SWAP2 SUB SWAP1 LOG3 POP POP JUMP JUMPDEST PUSH0 PUSH1 0x2 PUSH0 DUP2 SLOAD DUP1 SWAP3 SWAP2 SWAP1 PUSH2 0x83B SWAP1 PUSH2 0x1025 JUMP JUMPDEST SWAP2 SWAP1 POP SSTORE SWAP1 POP PUSH1 0x40 MLOAD DUP1 PUSH2 0x100 ADD PUSH1 0x40 MSTORE DUP1 DUP3 DUP2 MSTORE PUSH1 0x20 ADD CALLER PUSH20 0xFFFFFFFFFFFFFFFFFFFFFFFFFFFFFFFFFFFFFFFF AND DUP2 MSTORE PUSH1 0x20 ADD DUP8 DUP2 MSTORE PUSH1 0x20 ADD DUP7 DUP2 MSTORE PUSH1 0x20 ADD DUP6 DUP2 MSTORE PUSH1 0x20 ADD PUSH0 DUP2 MSTORE PUSH1 0x20 ADD DUP5 ISZERO ISZERO DUP2 MSTORE PUSH1 0x20 ADD DUP4 ISZERO ISZERO DUP2 MSTORE POP PUSH0 DUP1 DUP4 DUP2 MSTORE PUSH1 0x20 ADD SWAP1 DUP2 MSTORE PUSH1 0x20 ADD PUSH0 KECCAK256 PUSH0 DUP3 ADD MLOAD DUP2 PUSH0 ADD SSTORE PUSH1 0x20 DUP3 ADD MLOAD DUP2 PUSH1 0x1 ADD PUSH0 PUSH2 0x100 EXP DUP2 SLOAD DUP2 PUSH20 0xFFFFFFFFFFFFFFFFFFFFFFFFFFFFFFFFFFFFFFFF MUL NOT AND SWAP1 DUP4 PUSH20 0xFFFFFFFFFFFFFFFFFFFFFFFFFFFFFFFFFFFFFFFF AND MUL OR SWAP1 SSTORE POP PUSH1 0x40 DUP3 ADD MLOAD DUP2 PUSH1 0x2 ADD SSTORE PUSH1 0x60 DUP3 ADD MLOAD DUP2 PUSH1 0x3 ADD SSTORE PUSH1 0x80 DUP3 ADD MLOAD DUP2 PUSH1 0x4 ADD SSTORE PUSH1 0xA0 DUP3 ADD MLOAD DUP2 PUSH1 0x5 ADD SSTORE PUSH1 0xC0 DUP3 ADD MLOAD DUP2 PUSH1 0x6 ADD PUSH0 PUSH2 0x100 EXP DUP2 SLOAD DUP2 PUSH1 0xFF MUL NOT AND SWAP1 DUP4 ISZERO ISZERO MUL OR SWAP1 SSTORE POP PUSH1 0xE0 DUP3 ADD MLOAD DUP2 PUSH1 0x6 ADD PUSH1 0x1 PUSH2 0x100 EXP DUP2 SLOAD DUP2 PUSH1 0xFF MUL NOT AND SWAP1 DUP4 ISZERO ISZERO MUL OR SWAP1 SSTORE POP SWAP1 POP POP CALLER PUSH20 0xFFFFFFFFFFFFFFFFFFFFFFFFFFFFFFFFFFFFFFFF AND DUP2 PUSH32 0x459E1ABEA8D58F1F390AD63904970BC184E7E026FF12F2F7F3C3AED6677AD187 PUSH1 0x40 MLOAD PUSH1 0x40 MLOAD DUP1 SWAP2 SUB SWAP1 LOG3 POP POP POP POP POP POP JUMP JUMPDEST PUSH0 PUSH1 0x20 MSTORE DUP1 PUSH0 MSTORE PUSH1 0x40 PUSH0 KECCAK256 PUSH0 SWAP2 POP SWAP1 POP DUP1 PUSH0 ADD SLOAD SWAP1 DUP1 PUSH1 0x1 ADD PUSH0 SWAP1 SLOAD SWAP1 PUSH2 0x100 EXP SWAP1 DIV PUSH20 0xFFFFFFFFFFFFFFFFFFFFFFFFFFFFFFFFFFFFFFFF AND SWAP1 DUP1 PUSH1 0x2 ADD SLOAD SWAP1 DUP1 PUSH1 0x3 ADD SLOAD SWAP1 DUP1 PUSH1 0x4 ADD SLOAD SWAP1 DUP1 PUSH1 0x5 ADD SLOAD SWAP1 DUP1 PUSH1 0x6 ADD PUSH0 SWAP1 SLOAD SWAP1 PUSH2 0x100 EXP SWAP1 DIV PUSH1 0xFF AND SWAP1 DUP1 PUSH1 0x6 ADD PUSH1 0x1 SWAP1 SLOAD SWAP1 PUSH2 0x100 EXP SWAP1 DIV PUSH1 0xFF AND SWAP1 POP DUP9 JUMP JUMPDEST PUSH1 0x40 MLOAD DUP1 PUSH2 0x100 ADD PUSH1 0x40 MSTORE DUP1 PUSH0 DUP2 MSTORE PUSH1 0x20 ADD PUSH0 PUSH20 0xFFFFFFFFFFFFFFFFFFFFFFFFFFFFFFFFFFFFFFFF AND DUP2 MSTORE PUSH1 0x20 ADD PUSH0 DUP2 MSTORE PUSH1 0x20 ADD PUSH0 DUP2 MSTORE PUSH1 0x20 ADD PUSH0 DUP2 MSTORE PUSH1 0x20 ADD PUSH0 DUP2 MSTORE PUSH1 0x20 ADD PUSH0 ISZERO ISZERO DUP2 MSTORE PUSH1 0x20 ADD PUSH0 ISZERO ISZERO DUP2 MSTORE POP SWAP1 JUMP JUMPDEST PUSH1 0x40 MLOAD DUP1 PUSH1 0x40 ADD PUSH1 0x40 MSTORE DUP1 PUSH0 DUP2 MSTORE PUSH1 0x20 ADD PUSH0 DUP2 MSTORE POP SWAP1 JUMP JUMPDEST PUSH0 DUP1 REVERT JUMPDEST PUSH0 DUP2 SWAP1 POP SWAP2 SWAP1 POP JUMP JUMPDEST PUSH2 0xAA9 DUP2 PUSH2 0xA97 JUMP JUMPDEST DUP2 EQ PUSH2 0xAB3 JUMPI PUSH0 DUP1 REVERT JUMPDEST POP JUMP JUMPDEST PUSH0 DUP2 CALLDATALOAD SWAP1 POP PUSH2 0xAC4 DUP2 PUSH2 0xAA0 JUMP JUMPDEST SWAP3 SWAP2 POP POP JUMP JUMPDEST PUSH0 PUSH1 0x20 DUP3 DUP5 SUB SLT ISZERO PUSH2 0xADF JUMPI PUSH2 0xADE PUSH2 0xA93 JUMP JUMPDEST JUMPDEST PUSH0 PUSH2 0xAEC DUP5 DUP3 DUP6 ADD PUSH2 0xAB6 JUMP JUMPDEST SWAP2 POP POP SWAP3 SWAP2 POP POP JUMP JUMPDEST PUSH2 0xAFE DUP2 PUSH2 0xA97 JUMP JUMPDEST DUP3 MSTORE POP POP JUMP JUMPDEST PUSH0 PUSH20 0xFFFFFFFFFFFFFFFFFFFFFFFFFFFFFFFFFFFFFFFF DUP3 AND SWAP1 POP SWAP2 SWAP1 POP JUMP JUMPDEST PUSH0 PUSH2 0xB2D DUP3 PUSH2 0xB04 JUMP JUMPDEST SWAP1 POP SWAP2 SWAP1 POP JUMP JUMPDEST PUSH2 0xB3D DUP2 PUSH2 0xB23 JUMP JUMPDEST DUP3 MSTORE POP POP JUMP JUMPDEST PUSH0 DUP2 ISZERO ISZERO SWAP1 POP SWAP2 SWAP1 POP JUMP JUMPDEST PUSH2 0xB57 DUP2 PUSH2 0xB43 JUMP JUMPDEST DUP3 MSTORE POP POP JUMP JUMPDEST PUSH2 0x100 DUP3 ADD PUSH0 DUP3 ADD MLOAD PUSH2 0xB72 PUSH0 DUP6 ADD DUP3 PUSH2 0xAF5 JUMP JUMPDEST POP PUSH1 0x20 DUP3 ADD MLOAD PUSH2 0xB85 PUSH1 0x20 DUP6 ADD DUP3 PUSH2 0xB34 JUMP JUMPDEST POP PUSH1 0x40 DUP3 ADD MLOAD PUSH2 0xB98 PUSH1 0x40 DUP6 ADD DUP3 PUSH2 0xAF5 JUMP JUMPDEST POP PUSH1 0x60 DUP3 ADD MLOAD PUSH2 0xBAB PUSH1 0x60 DUP6 ADD DUP3 PUSH2 0xAF5 JUMP JUMPDEST POP PUSH1 0x80 DUP3 ADD MLOAD PUSH2 0xBBE PUSH1 0x80 DUP6 ADD DUP3 PUSH2 0xAF5 JUMP JUMPDEST POP PUSH1 0xA0 DUP3 ADD MLOAD PUSH2 0xBD1 PUSH1 0xA0 DUP6 ADD DUP3 PUSH2 0xAF5 JUMP JUMPDEST POP PUSH1 0xC0 DUP3 ADD MLOAD PUSH2 0xBE4 PUSH1 0xC0 DUP6 ADD DUP3 PUSH2 0xB4E JUMP JUMPDEST POP PUSH1 0xE0 DUP3 ADD MLOAD PUSH2 0xBF7 PUSH1 0xE0 DUP6 ADD DUP3 PUSH2 0xB4E JUMP JUMPDEST POP POP POP POP JUMP JUMPDEST PUSH0 PUSH2 0x100 DUP3 ADD SWAP1 POP PUSH2 0xC11 PUSH0 DUP4 ADD DUP5 PUSH2 0xB5D JUMP JUMPDEST SWAP3 SWAP2 POP POP JUMP JUMPDEST PUSH2 0xC20 DUP2 PUSH2 0xB23 JUMP JUMPDEST DUP2 EQ PUSH2 0xC2A JUMPI PUSH0 DUP1 REVERT JUMPDEST POP JUMP JUMPDEST PUSH0 DUP2 CALLDATALOAD SWAP1 POP PUSH2 0xC3B DUP2 PUSH2 0xC17 JUMP JUMPDEST SWAP3 SWAP2 POP POP JUMP JUMPDEST PUSH0 PUSH1 0x20 DUP3 DUP5 SUB SLT ISZERO PUSH2 0xC56 JUMPI PUSH2 0xC55 PUSH2 0xA93 JUMP JUMPDEST JUMPDEST PUSH0 PUSH2 0xC63 DUP5 DUP3 DUP6 ADD PUSH2 0xC2D JUMP JUMPDEST SWAP2 POP POP SWAP3 SWAP2 POP POP JUMP JUMPDEST PUSH1 0x40 DUP3 ADD PUSH0 DUP3 ADD MLOAD PUSH2 0xC80 PUSH0 DUP6 ADD DUP3 PUSH2 0xAF5 JUMP JUMPDEST POP PUSH1 0x20 DUP3 ADD MLOAD PUSH2 0xC93 PUSH1 0x20 DUP6 ADD DUP3 PUSH2 0xAF5 JUMP JUMPDEST POP POP POP POP JUMP JUMPDEST PUSH0 PUSH1 0x40 DUP3 ADD SWAP1 POP PUSH2 0xCAC PUSH0 DUP4 ADD DUP5 PUSH2 0xC6C JUMP JUMPDEST SWAP3 SWAP2 POP POP JUMP JUMPDEST PUSH2 0xCBB DUP2 PUSH2 0xA97 JUMP JUMPDEST DUP3 MSTORE POP POP JUMP JUMPDEST PUSH0 PUSH1 0x20 DUP3 ADD SWAP1 POP PUSH2 0xCD4 PUSH0 DUP4 ADD DUP5 PUSH2 0xCB2 JUMP JUMPDEST SWAP3 SWAP2 POP POP JUMP JUMPDEST PUSH0 PUSH1 0x40 DUP3 ADD SWAP1 POP PUSH2 0xCED PUSH0 DUP4 ADD DUP6 PUSH2 0xCB2 JUMP JUMPDEST PUSH2 0xCFA PUSH1 0x20 DUP4 ADD DUP5 PUSH2 0xCB2 JUMP JUMPDEST SWAP4 SWAP3 POP POP POP JUMP JUMPDEST PUSH2 0xD0A DUP2 PUSH2 0xB43 JUMP JUMPDEST DUP2 EQ PUSH2 0xD14 JUMPI PUSH0 DUP1 REVERT JUMPDEST POP JUMP JUMPDEST PUSH0 DUP2 CALLDATALOAD SWAP1 POP PUSH2 0xD25 DUP2 PUSH2 0xD01 JUMP JUMPDEST SWAP3 SWAP2 POP POP JUMP JUMPDEST PUSH0 DUP1 PUSH0 DUP1 PUSH0 PUSH1 0xA0 DUP7 DUP9 SUB SLT ISZERO PUSH2 0xD44 JUMPI PUSH2 0xD43 PUSH2 0xA93 JUMP JUMPDEST JUMPDEST PUSH0 PUSH2 0xD51 DUP9 DUP3 DUP10 ADD PUSH2 0xAB6 JUMP JUMPDEST SWAP6 POP POP PUSH1 0x20 PUSH2 0xD62 DUP9 DUP3 DUP10 ADD PUSH2 0xAB6 JUMP JUMPDEST SWAP5 POP POP PUSH1 0x40 PUSH2 0xD73 DUP9 DUP3 DUP10 ADD PUSH2 0xAB6 JUMP JUMPDEST SWAP4 POP POP PUSH1 0x60 PUSH2 0xD84 DUP9 DUP3 DUP10 ADD PUSH2 0xD17 JUMP JUMPDEST SWAP3 POP POP PUSH1 0x80 PUSH2 0xD95 DUP9 DUP3 DUP10 ADD PUSH2 0xD17 JUMP JUMPDEST SWAP2 POP POP SWAP3 SWAP6 POP SWAP3 SWAP6 SWAP1 SWAP4 POP JUMP JUMPDEST PUSH2 0xDAB DUP2 PUSH2 0xB23 JUMP JUMPDEST DUP3 MSTORE POP POP JUMP JUMPDEST PUSH2 0xDBA DUP2 PUSH2 0xB43 JUMP JUMPDEST DUP3 MSTORE POP POP JUMP JUMPDEST PUSH0 PUSH2 0x100 DUP3 ADD SWAP1 POP PUSH2 0xDD4 PUSH0 DUP4 ADD DUP12 PUSH2 0xCB2 JUMP JUMPDEST PUSH2 0xDE1 PUSH1 0x20 DUP4 ADD DUP11 PUSH2 0xDA2 JUMP JUMPDEST PUSH2 0xDEE PUSH1 0x40 DUP4 ADD DUP10 PUSH2 0xCB2 JUMP JUMPDEST PUSH2 0xDFB PUSH1 0x60 DUP4 ADD DUP9 PUSH2 0xCB2 JUMP JUMPDEST PUSH2 0xE08 PUSH1 0x80 DUP4 ADD DUP8 PUSH2 0xCB2 JUMP JUMPDEST PUSH2 0xE15 PUSH1 0xA0 DUP4 ADD DUP7 PUSH2 0xCB2 JUMP JUMPDEST PUSH2 0xE22 PUSH1 0xC0 DUP4 ADD DUP6 PUSH2 0xDB1 JUMP JUMPDEST PUSH2 0xE2F PUSH1 0xE0 DUP4 ADD DUP5 PUSH2 0xDB1 JUMP JUMPDEST SWAP10 SWAP9 POP POP POP POP POP POP POP POP POP JUMP JUMPDEST PUSH0 DUP3 DUP3 MSTORE PUSH1 0x20 DUP3 ADD SWAP1 POP SWAP3 SWAP2 POP POP JUMP JUMPDEST PUSH32 0x436172206E6F7420617661696C61626C6520666F72206C656173652E00000000 PUSH0 DUP3 ADD MSTORE POP JUMP JUMPDEST PUSH0 PUSH2 0xE80 PUSH1 0x1C DUP4 PUSH2 0xE3C JUMP JUMPDEST SWAP2 POP PUSH2 0xE8B DUP3 PUSH2 0xE4C JUMP JUMPDEST PUSH1 0x20 DUP3 ADD SWAP1 POP SWAP2 SWAP1 POP JUMP JUMPDEST PUSH0 PUSH1 0x20 DUP3 ADD SWAP1 POP DUP2 DUP2 SUB PUSH0 DUP4 ADD MSTORE PUSH2 0xEAD DUP2 PUSH2 0xE74 JUMP JUMPDEST SWAP1 POP SWAP2 SWAP1 POP JUMP JUMPDEST PUSH32 0x496E636F7272656374206465706F73697420616D6F756E742E00000000000000 PUSH0 DUP3 ADD MSTORE POP JUMP JUMPDEST PUSH0 PUSH2 0xEE8 PUSH1 0x19 DUP4 PUSH2 0xE3C JUMP JUMPDEST SWAP2 POP PUSH2 0xEF3 DUP3 PUSH2 0xEB4 JUMP JUMPDEST PUSH1 0x20 DUP3 ADD SWAP1 POP SWAP2 SWAP1 POP JUMP JUMPDEST PUSH0 PUSH1 0x20 DUP3 ADD SWAP1 POP DUP2 DUP2 SUB PUSH0 DUP4 ADD MSTORE PUSH2 0xF15 DUP2 PUSH2 0xEDC JUMP JUMPDEST SWAP1 POP SWAP2 SWAP1 POP JUMP JUMPDEST PUSH32 0x496E76616C6964206C65617365207465726D2E00000000000000000000000000 PUSH0 DUP3 ADD MSTORE POP JUMP JUMPDEST PUSH0 PUSH2 0xF50 PUSH1 0x13 DUP4 PUSH2 0xE3C JUMP JUMPDEST SWAP2 POP PUSH2 0xF5B DUP3 PUSH2 0xF1C JUMP JUMPDEST PUSH1 0x20 DUP3 ADD SWAP1 POP SWAP2 SWAP1 POP JUMP JUMPDEST PUSH0 PUSH1 0x20 DUP3 ADD SWAP1 POP DUP2 DUP2 SUB PUSH0 DUP4 ADD MSTORE PUSH2 0xF7D DUP2 PUSH2 0xF44 JUMP JUMPDEST SWAP1 POP SWAP2 SWAP1 POP JUMP JUMPDEST PUSH32 0x4E487B7100000000000000000000000000000000000000000000000000000000 PUSH0 MSTORE PUSH1 0x11 PUSH1 0x4 MSTORE PUSH1 0x24 PUSH0 REVERT JUMPDEST PUSH0 PUSH2 0xFBB DUP3 PUSH2 0xA97 JUMP JUMPDEST SWAP2 POP PUSH2 0xFC6 DUP4 PUSH2 0xA97 JUMP JUMPDEST SWAP3 POP DUP3 DUP3 MUL PUSH2 0xFD4 DUP2 PUSH2 0xA97 JUMP JUMPDEST SWAP2 POP DUP3 DUP3 DIV DUP5 EQ DUP4 ISZERO OR PUSH2 0xFEB JUMPI PUSH2 0xFEA PUSH2 0xF84 JUMP JUMPDEST JUMPDEST POP SWAP3 SWAP2 POP POP JUMP JUMPDEST PUSH0 PUSH2 0xFFC DUP3 PUSH2 0xA97 JUMP JUMPDEST SWAP2 POP PUSH2 0x1007 DUP4 PUSH2 0xA97 JUMP JUMPDEST SWAP3 POP DUP3 DUP3 ADD SWAP1 POP DUP1 DUP3 GT ISZERO PUSH2 0x101F JUMPI PUSH2 0x101E PUSH2 0xF84 JUMP JUMPDEST JUMPDEST SWAP3 SWAP2 POP POP JUMP JUMPDEST PUSH0 PUSH2 0x102F DUP3 PUSH2 0xA97 JUMP JUMPDEST SWAP2 POP PUSH32 0xFFFFFFFFFFFFFFFFFFFFFFFFFFFFFFFFFFFFFFFFFFFFFFFFFFFFFFFFFFFFFFFF DUP3 SUB PUSH2 0x1061 JUMPI PUSH2 0x1060 PUSH2 0xF84 JUMP JUMPDEST JUMPDEST PUSH1 0x1 DUP3 ADD SWAP1 POP SWAP2 SWAP1 POP JUMP JUMPDEST PUSH32 0x43757272656E74206C656173652068617320656E6465642E0000000000000000 PUSH0 DUP3 ADD MSTORE POP JUMP JUMPDEST PUSH0 PUSH2 0x10A0 PUSH1 0x18 DUP4 PUSH2 0xE3C JUMP JUMPDEST SWAP2 POP PUSH2 0x10AB DUP3 PUSH2 0x106C JUMP JUMPDEST PUSH1 0x20 DUP3 ADD SWAP1 POP SWAP2 SWAP1 POP JUMP JUMPDEST PUSH0 PUSH1 0x20 DUP3 ADD SWAP1 POP DUP2 DUP2 SUB PUSH0 DUP4 ADD MSTORE PUSH2 0x10CD DUP2 PUSH2 0x1094 JUMP JUMPDEST SWAP1 POP SWAP2 SWAP1 POP JUMP JUMPDEST PUSH32 0x496E636F7272656374206465706F73697420616D6F756E7420666F7220657874 PUSH0 DUP3 ADD MSTORE PUSH32 0x656E73696F6E2E00000000000000000000000000000000000000000000000000 PUSH1 0x20 DUP3 ADD MSTORE POP JUMP JUMPDEST PUSH0 PUSH2 0x112E PUSH1 0x27 DUP4 PUSH2 0xE3C JUMP JUMPDEST SWAP2 POP PUSH2 0x1139 DUP3 PUSH2 0x10D4 JUMP JUMPDEST PUSH1 0x40 DUP3 ADD SWAP1 POP SWAP2 SWAP1 POP JUMP JUMPDEST PUSH0 PUSH1 0x20 DUP3 ADD SWAP1 POP DUP2 DUP2 SUB PUSH0 DUP4 ADD MSTORE PUSH2 0x115B DUP2 PUSH2 0x1122 JUMP JUMPDEST SWAP1 POP SWAP2 SWAP1 POP JUMP JUMPDEST PUSH32 0x436172206E6F7420617661696C61626C6520666F722073616C652E0000000000 PUSH0 DUP3 ADD MSTORE POP JUMP JUMPDEST PUSH0 PUSH2 0x1196 PUSH1 0x1B DUP4 PUSH2 0xE3C JUMP JUMPDEST SWAP2 POP PUSH2 0x11A1 DUP3 PUSH2 0x1162 JUMP JUMPDEST PUSH1 0x20 DUP3 ADD SWAP1 POP SWAP2 SWAP1 POP JUMP JUMPDEST PUSH0 PUSH1 0x20 DUP3 ADD SWAP1 POP DUP2 DUP2 SUB PUSH0 DUP4 ADD MSTORE PUSH2 0x11C3 DUP2 PUSH2 0x118A JUMP JUMPDEST SWAP1 POP SWAP2 SWAP1 POP JUMP JUMPDEST PUSH32 0x496E636F727265637420707269636520706169642E0000000000000000000000 PUSH0 DUP3 ADD MSTORE POP JUMP JUMPDEST PUSH0 PUSH2 0x11FE PUSH1 0x15 DUP4 PUSH2 0xE3C JUMP JUMPDEST SWAP2 POP PUSH2 0x1209 DUP3 PUSH2 0x11CA JUMP JUMPDEST PUSH1 0x20 DUP3 ADD SWAP1 POP SWAP2 SWAP1 POP JUMP JUMPDEST PUSH0 PUSH1 0x20 DUP3 ADD SWAP1 POP DUP2 DUP2 SUB PUSH0 DUP4 ADD MSTORE PUSH2 0x122B DUP2 PUSH2 0x11F2 JUMP JUMPDEST SWAP1 POP SWAP2 SWAP1 POP JUMP INVALID LOG2 PUSH5 0x6970667358 0x22 SLT KECCAK256 DUP11 DUP14 0xF6 SELFBALANCE CODECOPY 0x5C SWAP3 0xC8 LOG2 0xBD 0xBD 0xD9 GT MSTORE8 0xDC 0xE9 DUP13 PUSH21 0x9B66C971F1BDC7D60EB4FCA2195E64736F6C634300 ADDMOD AND STOP CALLER "
				},
				"gasEstimates": {
					"creation": {
						"codeDepositCost": "942400",
						"executionCost": "979",
						"totalCost": "943379"
					},
					"external": {
						"cars(uint256)": "infinite",
						"extendLease(uint256)": "infinite",
						"getCarDetails(uint256)": "infinite",
						"getUserStats(address)": "infinite",
						"leaseCar(uint256)": "infinite",
						"nextCarId()": "2425",
						"purchaseCar(uint256)": "infinite",
						"registerCar(uint256,uint256,uint256,bool,bool)": "infinite",
						"users(address)": "infinite"
					}
				},
				"methodIdentifiers": {
					"cars(uint256)": "f7746e36",
					"extendLease(uint256)": "5d09f7d3",
					"getCarDetails(uint256)": "472ec454",
					"getUserStats(address)": "4e43603a",
					"leaseCar(uint256)": "421abf3b",
					"nextCarId()": "8c8bfa06",
					"purchaseCar(uint256)": "e0ba3fe5",
					"registerCar(uint256,uint256,uint256,bool,bool)": "e55ddecb",
					"users(address)": "a87430ba"
				}
			},
			"storageLayout": {
				"storage": [
					{
						"astId": 28,
						"contract": "Decentralizing car leasing and sell/AdvancedCarLeasingAndSales part 2.sol:AdvancedCarLeasingAndSales",
						"label": "cars",
						"offset": 0,
						"slot": "0",
						"type": "t_mapping(t_uint256,t_struct(Car)18_storage)"
					},
					{
						"astId": 33,
						"contract": "Decentralizing car leasing and sell/AdvancedCarLeasingAndSales part 2.sol:AdvancedCarLeasingAndSales",
						"label": "users",
						"offset": 0,
						"slot": "1",
						"type": "t_mapping(t_address,t_struct(User)23_storage)"
					},
					{
						"astId": 35,
						"contract": "Decentralizing car leasing and sell/AdvancedCarLeasingAndSales part 2.sol:AdvancedCarLeasingAndSales",
						"label": "nextCarId",
						"offset": 0,
						"slot": "2",
						"type": "t_uint256"
					}
				],
				"types": {
					"t_address": {
						"encoding": "inplace",
						"label": "address",
						"numberOfBytes": "20"
					},
					"t_bool": {
						"encoding": "inplace",
						"label": "bool",
						"numberOfBytes": "1"
					},
					"t_mapping(t_address,t_struct(User)23_storage)": {
						"encoding": "mapping",
						"key": "t_address",
						"label": "mapping(address => struct AdvancedCarLeasingAndSales.User)",
						"numberOfBytes": "32",
						"value": "t_struct(User)23_storage"
					},
					"t_mapping(t_uint256,t_struct(Car)18_storage)": {
						"encoding": "mapping",
						"key": "t_uint256",
						"label": "mapping(uint256 => struct AdvancedCarLeasingAndSales.Car)",
						"numberOfBytes": "32",
						"value": "t_struct(Car)18_storage"
					},
					"t_struct(Car)18_storage": {
						"encoding": "inplace",
						"label": "struct AdvancedCarLeasingAndSales.Car",
						"members": [
							{
								"astId": 3,
								"contract": "Decentralizing car leasing and sell/AdvancedCarLeasingAndSales part 2.sol:AdvancedCarLeasingAndSales",
								"label": "id",
								"offset": 0,
								"slot": "0",
								"type": "t_uint256"
							},
							{
								"astId": 5,
								"contract": "Decentralizing car leasing and sell/AdvancedCarLeasingAndSales part 2.sol:AdvancedCarLeasingAndSales",
								"label": "owner",
								"offset": 0,
								"slot": "1",
								"type": "t_address"
							},
							{
								"astId": 7,
								"contract": "Decentralizing car leasing and sell/AdvancedCarLeasingAndSales part 2.sol:AdvancedCarLeasingAndSales",
								"label": "price",
								"offset": 0,
								"slot": "2",
								"type": "t_uint256"
							},
							{
								"astId": 9,
								"contract": "Decentralizing car leasing and sell/AdvancedCarLeasingAndSales part 2.sol:AdvancedCarLeasingAndSales",
								"label": "deposit",
								"offset": 0,
								"slot": "3",
								"type": "t_uint256"
							},
							{
								"astId": 11,
								"contract": "Decentralizing car leasing and sell/AdvancedCarLeasingAndSales part 2.sol:AdvancedCarLeasingAndSales",
								"label": "leaseTerm",
								"offset": 0,
								"slot": "4",
								"type": "t_uint256"
							},
							{
								"astId": 13,
								"contract": "Decentralizing car leasing and sell/AdvancedCarLeasingAndSales part 2.sol:AdvancedCarLeasingAndSales",
								"label": "leaseEnd",
								"offset": 0,
								"slot": "5",
								"type": "t_uint256"
							},
							{
								"astId": 15,
								"contract": "Decentralizing car leasing and sell/AdvancedCarLeasingAndSales part 2.sol:AdvancedCarLeasingAndSales",
								"label": "isAvailableForLease",
								"offset": 0,
								"slot": "6",
								"type": "t_bool"
							},
							{
								"astId": 17,
								"contract": "Decentralizing car leasing and sell/AdvancedCarLeasingAndSales part 2.sol:AdvancedCarLeasingAndSales",
								"label": "isAvailableForSale",
								"offset": 1,
								"slot": "6",
								"type": "t_bool"
							}
						],
						"numberOfBytes": "224"
					},
					"t_struct(User)23_storage": {
						"encoding": "inplace",
						"label": "struct AdvancedCarLeasingAndSales.User",
						"members": [
							{
								"astId": 20,
								"contract": "Decentralizing car leasing and sell/AdvancedCarLeasingAndSales part 2.sol:AdvancedCarLeasingAndSales",
								"label": "totalLeased",
								"offset": 0,
								"slot": "0",
								"type": "t_uint256"
							},
							{
								"astId": 22,
								"contract": "Decentralizing car leasing and sell/AdvancedCarLeasingAndSales part 2.sol:AdvancedCarLeasingAndSales",
								"label": "totalPurchased",
								"offset": 0,
								"slot": "1",
								"type": "t_uint256"
							}
						],
						"numberOfBytes": "64"
					},
					"t_uint256": {
						"encoding": "inplace",
						"label": "uint256",
						"numberOfBytes": "32"
					}
				}
			},
			"userdoc": {
				"kind": "user",
				"methods": {},
				"version": 1
			}
		}
	}
}