{
	"Decentralizing car leasing and sell/car leasing and sell S_C part 1.sol": {
		"CarLeasingAndSales": {
			"abi": [
				{
					"inputs": [],
					"stateMutability": "nonpayable",
					"type": "constructor"
				},
				{
					"anonymous": false,
					"inputs": [
						{
							"indexed": true,
							"internalType": "address",
							"name": "buyer",
							"type": "address"
						}
					],
					"name": "CarBought",
					"type": "event"
				},
				{
					"anonymous": false,
					"inputs": [
						{
							"indexed": true,
							"internalType": "address",
							"name": "leasee",
							"type": "address"
						},
						{
							"indexed": false,
							"internalType": "uint256",
							"name": "leaseEnd",
							"type": "uint256"
						}
					],
					"name": "CarLeased",
					"type": "event"
				},
				{
					"anonymous": false,
					"inputs": [
						{
							"indexed": true,
							"internalType": "address",
							"name": "owner",
							"type": "address"
						},
						{
							"indexed": false,
							"internalType": "uint256",
							"name": "price",
							"type": "uint256"
						},
						{
							"indexed": false,
							"internalType": "uint256",
							"name": "deposit",
							"type": "uint256"
						},
						{
							"indexed": false,
							"internalType": "uint256",
							"name": "leaseTerm",
							"type": "uint256"
						}
					],
					"name": "CarRegistered",
					"type": "event"
				},
				{
					"inputs": [
						{
							"internalType": "address",
							"name": "_carOwner",
							"type": "address"
						}
					],
					"name": "buyCar",
					"outputs": [],
					"stateMutability": "payable",
					"type": "function"
				},
				{
					"inputs": [],
					"name": "carCount",
					"outputs": [
						{
							"internalType": "uint256",
							"name": "",
							"type": "uint256"
						}
					],
					"stateMutability": "view",
					"type": "function"
				},
				{
					"inputs": [
						{
							"internalType": "address",
							"name": "",
							"type": "address"
						}
					],
					"name": "cars",
					"outputs": [
						{
							"internalType": "address",
							"name": "owner",
							"type": "address"
						},
						{
							"internalType": "uint256",
							"name": "price",
							"type": "uint256"
						},
						{
							"internalType": "uint256",
							"name": "deposit",
							"type": "uint256"
						},
						{
							"internalType": "uint256",
							"name": "leaseTerm",
							"type": "uint256"
						},
						{
							"internalType": "uint256",
							"name": "leaseEnd",
							"type": "uint256"
						},
						{
							"internalType": "bool",
							"name": "isLeased",
							"type": "bool"
						}
					],
					"stateMutability": "view",
					"type": "function"
				},
				{
					"inputs": [
						{
							"internalType": "address",
							"name": "_carOwner",
							"type": "address"
						}
					],
					"name": "getCar",
					"outputs": [
						{
							"internalType": "uint256",
							"name": "",
							"type": "uint256"
						},
						{
							"internalType": "uint256",
							"name": "",
							"type": "uint256"
						},
						{
							"internalType": "uint256",
							"name": "",
							"type": "uint256"
						},
						{
							"internalType": "bool",
							"name": "",
							"type": "bool"
						}
					],
					"stateMutability": "view",
					"type": "function"
				},
				{
					"inputs": [
						{
							"internalType": "address",
							"name": "_carOwner",
							"type": "address"
						}
					],
					"name": "leaseCar",
					"outputs": [],
					"stateMutability": "payable",
					"type": "function"
				},
				{
					"inputs": [
						{
							"internalType": "uint256",
							"name": "_price",
							"type": "uint256"
						},
						{
							"internalType": "uint256",
							"name": "_deposit",
							"type": "uint256"
						},
						{
							"internalType": "uint256",
							"name": "_leaseTerm",
							"type": "uint256"
						}
					],
					"name": "registerCar",
					"outputs": [],
					"stateMutability": "nonpayable",
					"type": "function"
				}
			],
			"devdoc": {
				"kind": "dev",
				"methods": {},
				"version": 1
			},
			"evm": {
				"assembly": "    /* \"Decentralizing car leasing and sell/car leasing and sell S_C part 1.sol\":57:2452  contract CarLeasingAndSales {... */\n  mstore(0x40, 0x80)\n    /* \"Decentralizing car leasing and sell/car leasing and sell S_C part 1.sol\":640:683  constructor() {... */\n  callvalue\n  dup1\n  iszero\n  tag_1\n  jumpi\n  0x00\n  dup1\n  revert\ntag_1:\n  pop\n    /* \"Decentralizing car leasing and sell/car leasing and sell S_C part 1.sol\":675:676  0 */\n  0x00\n    /* \"Decentralizing car leasing and sell/car leasing and sell S_C part 1.sol\":664:672  carCount */\n  0x01\n    /* \"Decentralizing car leasing and sell/car leasing and sell S_C part 1.sol\":664:676  carCount = 0 */\n  dup2\n  swap1\n  sstore\n  pop\n    /* \"Decentralizing car leasing and sell/car leasing and sell S_C part 1.sol\":57:2452  contract CarLeasingAndSales {... */\n  dataSize(sub_0)\n  dup1\n  dataOffset(sub_0)\n  0x00\n  codecopy\n  0x00\n  return\nstop\n\nsub_0: assembly {\n        /* \"Decentralizing car leasing and sell/car leasing and sell S_C part 1.sol\":57:2452  contract CarLeasingAndSales {... */\n      mstore(0x40, 0x80)\n      jumpi(tag_1, lt(calldatasize, 0x04))\n      shr(0xe0, calldataload(0x00))\n      dup1\n      0x297a1f56\n      eq\n      tag_2\n      jumpi\n      dup1\n      0x39faf3ae\n      eq\n      tag_3\n      jumpi\n      dup1\n      0x55f6b073\n      eq\n      tag_4\n      jumpi\n      dup1\n      0x5e624a2a\n      eq\n      tag_5\n      jumpi\n      dup1\n      0xafd79cbd\n      eq\n      tag_6\n      jumpi\n      dup1\n      0xeae3c03f\n      eq\n      tag_7\n      jumpi\n    tag_1:\n      0x00\n      dup1\n      revert\n        /* \"Decentralizing car leasing and sell/car leasing and sell S_C part 1.sol\":369:392  uint256 public carCount */\n    tag_2:\n      callvalue\n      dup1\n      iszero\n      tag_8\n      jumpi\n      0x00\n      dup1\n      revert\n    tag_8:\n      pop\n      tag_9\n      tag_10\n      jump\t// in\n    tag_9:\n      mload(0x40)\n      tag_11\n      swap2\n      swap1\n      tag_12\n      jump\t// in\n    tag_11:\n      mload(0x40)\n      dup1\n      swap2\n      sub\n      swap1\n      return\n        /* \"Decentralizing car leasing and sell/car leasing and sell S_C part 1.sol\":1850:2231  function buyCar(address _carOwner) public payable {... */\n    tag_3:\n      tag_13\n      0x04\n      dup1\n      calldatasize\n      sub\n      dup2\n      add\n      swap1\n      tag_14\n      swap2\n      swap1\n      tag_15\n      jump\t// in\n    tag_14:\n      tag_16\n      jump\t// in\n    tag_13:\n      stop\n        /* \"Decentralizing car leasing and sell/car leasing and sell S_C part 1.sol\":2241:2449  function getCar(address _carOwner) public view returns (uint256, uint256, uint256, bool) {... */\n    tag_4:\n      callvalue\n      dup1\n      iszero\n      tag_17\n      jumpi\n      0x00\n      dup1\n      revert\n    tag_17:\n      pop\n      tag_18\n      0x04\n      dup1\n      calldatasize\n      sub\n      dup2\n      add\n      swap1\n      tag_19\n      swap2\n      swap1\n      tag_15\n      jump\t// in\n    tag_19:\n      tag_20\n      jump\t// in\n    tag_18:\n      mload(0x40)\n      tag_21\n      swap5\n      swap4\n      swap3\n      swap2\n      swap1\n      tag_22\n      jump\t// in\n    tag_21:\n      mload(0x40)\n      dup1\n      swap2\n      sub\n      swap1\n      return\n        /* \"Decentralizing car leasing and sell/car leasing and sell S_C part 1.sol\":1378:1844  function leaseCar(address _carOwner) public payable {... */\n    tag_5:\n      tag_23\n      0x04\n      dup1\n      calldatasize\n      sub\n      dup2\n      add\n      swap1\n      tag_24\n      swap2\n      swap1\n      tag_15\n      jump\t// in\n    tag_24:\n      tag_25\n      jump\t// in\n    tag_23:\n      stop\n        /* \"Decentralizing car leasing and sell/car leasing and sell S_C part 1.sol\":327:363  mapping (address => Car) public cars */\n    tag_6:\n      callvalue\n      dup1\n      iszero\n      tag_26\n      jumpi\n      0x00\n      dup1\n      revert\n    tag_26:\n      pop\n      tag_27\n      0x04\n      dup1\n      calldatasize\n      sub\n      dup2\n      add\n      swap1\n      tag_28\n      swap2\n      swap1\n      tag_15\n      jump\t// in\n    tag_28:\n      tag_29\n      jump\t// in\n    tag_27:\n      mload(0x40)\n      tag_30\n      swap7\n      swap6\n      swap5\n      swap4\n      swap3\n      swap2\n      swap1\n      tag_31\n      jump\t// in\n    tag_30:\n      mload(0x40)\n      dup1\n      swap2\n      sub\n      swap1\n      return\n        /* \"Decentralizing car leasing and sell/car leasing and sell S_C part 1.sol\":881:1372  function registerCar(uint256 _price, uint256 _deposit, uint256 _leaseTerm) public {... */\n    tag_7:\n      callvalue\n      dup1\n      iszero\n      tag_32\n      jumpi\n      0x00\n      dup1\n      revert\n    tag_32:\n      pop\n      tag_33\n      0x04\n      dup1\n      calldatasize\n      sub\n      dup2\n      add\n      swap1\n      tag_34\n      swap2\n      swap1\n      tag_35\n      jump\t// in\n    tag_34:\n      tag_36\n      jump\t// in\n    tag_33:\n      stop\n        /* \"Decentralizing car leasing and sell/car leasing and sell S_C part 1.sol\":369:392  uint256 public carCount */\n    tag_10:\n      sload(0x01)\n      dup2\n      jump\t// out\n        /* \"Decentralizing car leasing and sell/car leasing and sell S_C part 1.sol\":1850:2231  function buyCar(address _carOwner) public payable {... */\n    tag_16:\n        /* \"Decentralizing car leasing and sell/car leasing and sell S_C part 1.sol\":1910:1925  Car storage car */\n      0x00\n        /* \"Decentralizing car leasing and sell/car leasing and sell S_C part 1.sol\":1928:1932  cars */\n      dup1\n        /* \"Decentralizing car leasing and sell/car leasing and sell S_C part 1.sol\":1928:1943  cars[_carOwner] */\n      0x00\n        /* \"Decentralizing car leasing and sell/car leasing and sell S_C part 1.sol\":1933:1942  _carOwner */\n      dup4\n        /* \"Decentralizing car leasing and sell/car leasing and sell S_C part 1.sol\":1928:1943  cars[_carOwner] */\n      0xffffffffffffffffffffffffffffffffffffffff\n      and\n      0xffffffffffffffffffffffffffffffffffffffff\n      and\n      dup2\n      mstore\n      0x20\n      add\n      swap1\n      dup2\n      mstore\n      0x20\n      add\n      0x00\n      keccak256\n        /* \"Decentralizing car leasing and sell/car leasing and sell S_C part 1.sol\":1910:1943  Car storage car = cars[_carOwner] */\n      swap1\n      pop\n        /* \"Decentralizing car leasing and sell/car leasing and sell S_C part 1.sol\":1983:1984  0 */\n      0x00\n        /* \"Decentralizing car leasing and sell/car leasing and sell S_C part 1.sol\":1962:1985  car.owner != address(0) */\n      0xffffffffffffffffffffffffffffffffffffffff\n      and\n        /* \"Decentralizing car leasing and sell/car leasing and sell S_C part 1.sol\":1962:1965  car */\n      dup2\n        /* \"Decentralizing car leasing and sell/car leasing and sell S_C part 1.sol\":1962:1971  car.owner */\n      0x00\n      add\n      0x00\n      swap1\n      sload\n      swap1\n      0x0100\n      exp\n      swap1\n      div\n      0xffffffffffffffffffffffffffffffffffffffff\n      and\n        /* \"Decentralizing car leasing and sell/car leasing and sell S_C part 1.sol\":1962:1985  car.owner != address(0) */\n      0xffffffffffffffffffffffffffffffffffffffff\n      and\n      sub\n        /* \"Decentralizing car leasing and sell/car leasing and sell S_C part 1.sol\":1954:2010  require(car.owner != address(0), \"Car owner not found.\") */\n      tag_38\n      jumpi\n      mload(0x40)\n      0x08c379a000000000000000000000000000000000000000000000000000000000\n      dup2\n      mstore\n      0x04\n      add\n      tag_39\n      swap1\n      tag_40\n      jump\t// in\n    tag_39:\n      mload(0x40)\n      dup1\n      swap2\n      sub\n      swap1\n      revert\n    tag_38:\n        /* \"Decentralizing car leasing and sell/car leasing and sell S_C part 1.sol\":2029:2032  car */\n      dup1\n        /* \"Decentralizing car leasing and sell/car leasing and sell S_C part 1.sol\":2029:2041  car.isLeased */\n      0x05\n      add\n      0x00\n      swap1\n      sload\n      swap1\n      0x0100\n      exp\n      swap1\n      div\n      0xff\n      and\n        /* \"Decentralizing car leasing and sell/car leasing and sell S_C part 1.sol\":2028:2041  !car.isLeased */\n      iszero\n        /* \"Decentralizing car leasing and sell/car leasing and sell S_C part 1.sol\":2020:2070  require(!car.isLeased, \"Car is currently leased.\") */\n      tag_41\n      jumpi\n      mload(0x40)\n      0x08c379a000000000000000000000000000000000000000000000000000000000\n      dup2\n      mstore\n      0x04\n      add\n      tag_42\n      swap1\n      tag_43\n      jump\t// in\n    tag_42:\n      mload(0x40)\n      dup1\n      swap2\n      sub\n      swap1\n      revert\n    tag_41:\n        /* \"Decentralizing car leasing and sell/car leasing and sell S_C part 1.sol\":2101:2104  car */\n      dup1\n        /* \"Decentralizing car leasing and sell/car leasing and sell S_C part 1.sol\":2101:2110  car.price */\n      0x01\n      add\n      sload\n        /* \"Decentralizing car leasing and sell/car leasing and sell S_C part 1.sol\":2088:2097  msg.value */\n      callvalue\n        /* \"Decentralizing car leasing and sell/car leasing and sell S_C part 1.sol\":2088:2110  msg.value == car.price */\n      eq\n        /* \"Decentralizing car leasing and sell/car leasing and sell S_C part 1.sol\":2080:2154  require(msg.value == car.price, \"Snet amount must be equal to car price,\") */\n      tag_44\n      jumpi\n      mload(0x40)\n      0x08c379a000000000000000000000000000000000000000000000000000000000\n      dup2\n      mstore\n      0x04\n      add\n      tag_45\n      swap1\n      tag_46\n      jump\t// in\n    tag_45:\n      mload(0x40)\n      dup1\n      swap2\n      sub\n      swap1\n      revert\n    tag_44:\n        /* \"Decentralizing car leasing and sell/car leasing and sell S_C part 1.sol\":2177:2187  msg.sender */\n      caller\n        /* \"Decentralizing car leasing and sell/car leasing and sell S_C part 1.sol\":2165:2168  car */\n      dup2\n        /* \"Decentralizing car leasing and sell/car leasing and sell S_C part 1.sol\":2165:2174  car.owner */\n      0x00\n      add\n      0x00\n        /* \"Decentralizing car leasing and sell/car leasing and sell S_C part 1.sol\":2165:2187  car.owner = msg.sender */\n      0x0100\n      exp\n      dup2\n      sload\n      dup2\n      0xffffffffffffffffffffffffffffffffffffffff\n      mul\n      not\n      and\n      swap1\n      dup4\n      0xffffffffffffffffffffffffffffffffffffffff\n      and\n      mul\n      or\n      swap1\n      sstore\n      pop\n        /* \"Decentralizing car leasing and sell/car leasing and sell S_C part 1.sol\":2213:2223  msg.sender */\n      caller\n        /* \"Decentralizing car leasing and sell/car leasing and sell S_C part 1.sol\":2203:2224  CarBought(msg.sender) */\n      0xffffffffffffffffffffffffffffffffffffffff\n      and\n      0xd39c7810ff5b061d7b8194988abf1053d2ef93805360424a0047c6455af23e17\n      mload(0x40)\n      mload(0x40)\n      dup1\n      swap2\n      sub\n      swap1\n      log2\n        /* \"Decentralizing car leasing and sell/car leasing and sell S_C part 1.sol\":1900:2231  {... */\n      pop\n        /* \"Decentralizing car leasing and sell/car leasing and sell S_C part 1.sol\":1850:2231  function buyCar(address _carOwner) public payable {... */\n      pop\n      jump\t// out\n        /* \"Decentralizing car leasing and sell/car leasing and sell S_C part 1.sol\":2241:2449  function getCar(address _carOwner) public view returns (uint256, uint256, uint256, bool) {... */\n    tag_20:\n        /* \"Decentralizing car leasing and sell/car leasing and sell S_C part 1.sol\":2297:2304  uint256 */\n      0x00\n        /* \"Decentralizing car leasing and sell/car leasing and sell S_C part 1.sol\":2306:2313  uint256 */\n      dup1\n        /* \"Decentralizing car leasing and sell/car leasing and sell S_C part 1.sol\":2315:2322  uint256 */\n      0x00\n        /* \"Decentralizing car leasing and sell/car leasing and sell S_C part 1.sol\":2324:2328  bool */\n      dup1\n        /* \"Decentralizing car leasing and sell/car leasing and sell S_C part 1.sol\":2340:2354  Car memory car */\n      0x00\n        /* \"Decentralizing car leasing and sell/car leasing and sell S_C part 1.sol\":2357:2361  cars */\n      dup1\n        /* \"Decentralizing car leasing and sell/car leasing and sell S_C part 1.sol\":2357:2372  cars[_carOwner] */\n      0x00\n        /* \"Decentralizing car leasing and sell/car leasing and sell S_C part 1.sol\":2362:2371  _carOwner */\n      dup8\n        /* \"Decentralizing car leasing and sell/car leasing and sell S_C part 1.sol\":2357:2372  cars[_carOwner] */\n      0xffffffffffffffffffffffffffffffffffffffff\n      and\n      0xffffffffffffffffffffffffffffffffffffffff\n      and\n      dup2\n      mstore\n      0x20\n      add\n      swap1\n      dup2\n      mstore\n      0x20\n      add\n      0x00\n      keccak256\n        /* \"Decentralizing car leasing and sell/car leasing and sell S_C part 1.sol\":2340:2372  Car memory car = cars[_carOwner] */\n      mload(0x40)\n      dup1\n      0xc0\n      add\n      0x40\n      mstore\n      swap1\n      dup2\n      0x00\n      dup3\n      add\n      0x00\n      swap1\n      sload\n      swap1\n      0x0100\n      exp\n      swap1\n      div\n      0xffffffffffffffffffffffffffffffffffffffff\n      and\n      0xffffffffffffffffffffffffffffffffffffffff\n      and\n      0xffffffffffffffffffffffffffffffffffffffff\n      and\n      dup2\n      mstore\n      0x20\n      add\n      0x01\n      dup3\n      add\n      sload\n      dup2\n      mstore\n      0x20\n      add\n      0x02\n      dup3\n      add\n      sload\n      dup2\n      mstore\n      0x20\n      add\n      0x03\n      dup3\n      add\n      sload\n      dup2\n      mstore\n      0x20\n      add\n      0x04\n      dup3\n      add\n      sload\n      dup2\n      mstore\n      0x20\n      add\n      0x05\n      dup3\n      add\n      0x00\n      swap1\n      sload\n      swap1\n      0x0100\n      exp\n      swap1\n      div\n      0xff\n      and\n      iszero\n      iszero\n      iszero\n      iszero\n      dup2\n      mstore\n      pop\n      pop\n      swap1\n      pop\n        /* \"Decentralizing car leasing and sell/car leasing and sell S_C part 1.sol\":2390:2393  car */\n      dup1\n        /* \"Decentralizing car leasing and sell/car leasing and sell S_C part 1.sol\":2390:2399  car.price */\n      0x20\n      add\n      mload\n        /* \"Decentralizing car leasing and sell/car leasing and sell S_C part 1.sol\":2401:2404  car */\n      dup2\n        /* \"Decentralizing car leasing and sell/car leasing and sell S_C part 1.sol\":2401:2412  car.deposit */\n      0x40\n      add\n      mload\n        /* \"Decentralizing car leasing and sell/car leasing and sell S_C part 1.sol\":2414:2417  car */\n      dup3\n        /* \"Decentralizing car leasing and sell/car leasing and sell S_C part 1.sol\":2414:2427  car.leaseTerm */\n      0x60\n      add\n      mload\n        /* \"Decentralizing car leasing and sell/car leasing and sell S_C part 1.sol\":2429:2432  car */\n      dup4\n        /* \"Decentralizing car leasing and sell/car leasing and sell S_C part 1.sol\":2429:2441  car.isLeased */\n      0xa0\n      add\n      mload\n        /* \"Decentralizing car leasing and sell/car leasing and sell S_C part 1.sol\":2382:2442  return (car.price, car.deposit, car.leaseTerm, car.isLeased) */\n      swap5\n      pop\n      swap5\n      pop\n      swap5\n      pop\n      swap5\n      pop\n      pop\n        /* \"Decentralizing car leasing and sell/car leasing and sell S_C part 1.sol\":2241:2449  function getCar(address _carOwner) public view returns (uint256, uint256, uint256, bool) {... */\n      swap2\n      swap4\n      pop\n      swap2\n      swap4\n      jump\t// out\n        /* \"Decentralizing car leasing and sell/car leasing and sell S_C part 1.sol\":1378:1844  function leaseCar(address _carOwner) public payable {... */\n    tag_25:\n        /* \"Decentralizing car leasing and sell/car leasing and sell S_C part 1.sol\":1440:1455  Car storage car */\n      0x00\n        /* \"Decentralizing car leasing and sell/car leasing and sell S_C part 1.sol\":1458:1462  cars */\n      dup1\n        /* \"Decentralizing car leasing and sell/car leasing and sell S_C part 1.sol\":1458:1473  cars[_carOwner] */\n      0x00\n        /* \"Decentralizing car leasing and sell/car leasing and sell S_C part 1.sol\":1463:1472  _carOwner */\n      dup4\n        /* \"Decentralizing car leasing and sell/car leasing and sell S_C part 1.sol\":1458:1473  cars[_carOwner] */\n      0xffffffffffffffffffffffffffffffffffffffff\n      and\n      0xffffffffffffffffffffffffffffffffffffffff\n      and\n      dup2\n      mstore\n      0x20\n      add\n      swap1\n      dup2\n      mstore\n      0x20\n      add\n      0x00\n      keccak256\n        /* \"Decentralizing car leasing and sell/car leasing and sell S_C part 1.sol\":1440:1473  Car storage car = cars[_carOwner] */\n      swap1\n      pop\n        /* \"Decentralizing car leasing and sell/car leasing and sell S_C part 1.sol\":1513:1514  0 */\n      0x00\n        /* \"Decentralizing car leasing and sell/car leasing and sell S_C part 1.sol\":1492:1515  car.owner != address(0) */\n      0xffffffffffffffffffffffffffffffffffffffff\n      and\n        /* \"Decentralizing car leasing and sell/car leasing and sell S_C part 1.sol\":1492:1495  car */\n      dup2\n        /* \"Decentralizing car leasing and sell/car leasing and sell S_C part 1.sol\":1492:1501  car.owner */\n      0x00\n      add\n      0x00\n      swap1\n      sload\n      swap1\n      0x0100\n      exp\n      swap1\n      div\n      0xffffffffffffffffffffffffffffffffffffffff\n      and\n        /* \"Decentralizing car leasing and sell/car leasing and sell S_C part 1.sol\":1492:1515  car.owner != address(0) */\n      0xffffffffffffffffffffffffffffffffffffffff\n      and\n      sub\n        /* \"Decentralizing car leasing and sell/car leasing and sell S_C part 1.sol\":1484:1540  require(car.owner != address(0), \"Car owner not found.\") */\n      tag_49\n      jumpi\n      mload(0x40)\n      0x08c379a000000000000000000000000000000000000000000000000000000000\n      dup2\n      mstore\n      0x04\n      add\n      tag_50\n      swap1\n      tag_40\n      jump\t// in\n    tag_50:\n      mload(0x40)\n      dup1\n      swap2\n      sub\n      swap1\n      revert\n    tag_49:\n        /* \"Decentralizing car leasing and sell/car leasing and sell S_C part 1.sol\":1559:1562  car */\n      dup1\n        /* \"Decentralizing car leasing and sell/car leasing and sell S_C part 1.sol\":1559:1571  car.isLeased */\n      0x05\n      add\n      0x00\n      swap1\n      sload\n      swap1\n      0x0100\n      exp\n      swap1\n      div\n      0xff\n      and\n        /* \"Decentralizing car leasing and sell/car leasing and sell S_C part 1.sol\":1558:1571  !car.isLeased */\n      iszero\n        /* \"Decentralizing car leasing and sell/car leasing and sell S_C part 1.sol\":1550:1598  require(!car.isLeased, \"Car is already leased.\") */\n      tag_51\n      jumpi\n      mload(0x40)\n      0x08c379a000000000000000000000000000000000000000000000000000000000\n      dup2\n      mstore\n      0x04\n      add\n      tag_52\n      swap1\n      tag_53\n      jump\t// in\n    tag_52:\n      mload(0x40)\n      dup1\n      swap2\n      sub\n      swap1\n      revert\n    tag_51:\n        /* \"Decentralizing car leasing and sell/car leasing and sell S_C part 1.sol\":1629:1632  car */\n      dup1\n        /* \"Decentralizing car leasing and sell/car leasing and sell S_C part 1.sol\":1629:1640  car.deposit */\n      0x02\n      add\n      sload\n        /* \"Decentralizing car leasing and sell/car leasing and sell S_C part 1.sol\":1616:1625  msg.value */\n      callvalue\n        /* \"Decentralizing car leasing and sell/car leasing and sell S_C part 1.sol\":1616:1640  msg.value == car.deposit */\n      eq\n        /* \"Decentralizing car leasing and sell/car leasing and sell S_C part 1.sol\":1608:1689  require(msg.value == car.deposit, \"Sent amount must be equal to deposit amount.\") */\n      tag_54\n      jumpi\n      mload(0x40)\n      0x08c379a000000000000000000000000000000000000000000000000000000000\n      dup2\n      mstore\n      0x04\n      add\n      tag_55\n      swap1\n      tag_56\n      jump\t// in\n    tag_55:\n      mload(0x40)\n      dup1\n      swap2\n      sub\n      swap1\n      revert\n    tag_54:\n        /* \"Decentralizing car leasing and sell/car leasing and sell S_C part 1.sol\":1715:1719  true */\n      0x01\n        /* \"Decentralizing car leasing and sell/car leasing and sell S_C part 1.sol\":1700:1703  car */\n      dup2\n        /* \"Decentralizing car leasing and sell/car leasing and sell S_C part 1.sol\":1700:1712  car.isLeased */\n      0x05\n      add\n      0x00\n        /* \"Decentralizing car leasing and sell/car leasing and sell S_C part 1.sol\":1700:1719  car.isLeased = true */\n      0x0100\n      exp\n      dup2\n      sload\n      dup2\n      0xff\n      mul\n      not\n      and\n      swap1\n      dup4\n      iszero\n      iszero\n      mul\n      or\n      swap1\n      sstore\n      pop\n        /* \"Decentralizing car leasing and sell/car leasing and sell S_C part 1.sol\":1779:1785  1 days */\n      0x015180\n        /* \"Decentralizing car leasing and sell/car leasing and sell S_C part 1.sol\":1763:1766  car */\n      dup2\n        /* \"Decentralizing car leasing and sell/car leasing and sell S_C part 1.sol\":1763:1776  car.leaseTerm */\n      0x03\n      add\n      sload\n        /* \"Decentralizing car leasing and sell/car leasing and sell S_C part 1.sol\":1763:1785  car.leaseTerm * 1 days */\n      tag_57\n      swap2\n      swap1\n      tag_58\n      jump\t// in\n    tag_57:\n        /* \"Decentralizing car leasing and sell/car leasing and sell S_C part 1.sol\":1744:1759  block.timestamp */\n      timestamp\n        /* \"Decentralizing car leasing and sell/car leasing and sell S_C part 1.sol\":1744:1786  block.timestamp + (car.leaseTerm * 1 days) */\n      tag_59\n      swap2\n      swap1\n      tag_60\n      jump\t// in\n    tag_59:\n        /* \"Decentralizing car leasing and sell/car leasing and sell S_C part 1.sol\":1729:1732  car */\n      dup2\n        /* \"Decentralizing car leasing and sell/car leasing and sell S_C part 1.sol\":1729:1741  car.leaseEnd */\n      0x04\n      add\n        /* \"Decentralizing car leasing and sell/car leasing and sell S_C part 1.sol\":1729:1786  car.leaseEnd = block.timestamp + (car.leaseTerm * 1 days) */\n      dup2\n      swap1\n      sstore\n      pop\n        /* \"Decentralizing car leasing and sell/car leasing and sell S_C part 1.sol\":1812:1822  msg.sender */\n      caller\n        /* \"Decentralizing car leasing and sell/car leasing and sell S_C part 1.sol\":1802:1837  CarLeased(msg.sender, car.leaseEnd) */\n      0xffffffffffffffffffffffffffffffffffffffff\n      and\n      0x805ecc0a8a5bd3a06d7274608b789b709dfcbcaa69d2a525fa668d2ecd9efd87\n        /* \"Decentralizing car leasing and sell/car leasing and sell S_C part 1.sol\":1824:1827  car */\n      dup3\n        /* \"Decentralizing car leasing and sell/car leasing and sell S_C part 1.sol\":1824:1836  car.leaseEnd */\n      0x04\n      add\n      sload\n        /* \"Decentralizing car leasing and sell/car leasing and sell S_C part 1.sol\":1802:1837  CarLeased(msg.sender, car.leaseEnd) */\n      mload(0x40)\n      tag_61\n      swap2\n      swap1\n      tag_12\n      jump\t// in\n    tag_61:\n      mload(0x40)\n      dup1\n      swap2\n      sub\n      swap1\n      log2\n        /* \"Decentralizing car leasing and sell/car leasing and sell S_C part 1.sol\":1430:1844  {... */\n      pop\n        /* \"Decentralizing car leasing and sell/car leasing and sell S_C part 1.sol\":1378:1844  function leaseCar(address _carOwner) public payable {... */\n      pop\n      jump\t// out\n        /* \"Decentralizing car leasing and sell/car leasing and sell S_C part 1.sol\":327:363  mapping (address => Car) public cars */\n    tag_29:\n      mstore(0x20, 0x00)\n      dup1\n      0x00\n      mstore\n      keccak256(0x00, 0x40)\n      0x00\n      swap2\n      pop\n      swap1\n      pop\n      dup1\n      0x00\n      add\n      0x00\n      swap1\n      sload\n      swap1\n      0x0100\n      exp\n      swap1\n      div\n      0xffffffffffffffffffffffffffffffffffffffff\n      and\n      swap1\n      dup1\n      0x01\n      add\n      sload\n      swap1\n      dup1\n      0x02\n      add\n      sload\n      swap1\n      dup1\n      0x03\n      add\n      sload\n      swap1\n      dup1\n      0x04\n      add\n      sload\n      swap1\n      dup1\n      0x05\n      add\n      0x00\n      swap1\n      sload\n      swap1\n      0x0100\n      exp\n      swap1\n      div\n      0xff\n      and\n      swap1\n      pop\n      dup7\n      jump\t// out\n        /* \"Decentralizing car leasing and sell/car leasing and sell S_C part 1.sol\":881:1372  function registerCar(uint256 _price, uint256 _deposit, uint256 _leaseTerm) public {... */\n    tag_36:\n        /* \"Decentralizing car leasing and sell/car leasing and sell S_C part 1.sol\":990:991  0 */\n      0x00\n        /* \"Decentralizing car leasing and sell/car leasing and sell S_C part 1.sol\":981:987  _price */\n      dup4\n        /* \"Decentralizing car leasing and sell/car leasing and sell S_C part 1.sol\":981:991  _price > 0 */\n      gt\n        /* \"Decentralizing car leasing and sell/car leasing and sell S_C part 1.sol\":973:1013  require(_price > 0, \"Price must be > 0\") */\n      tag_63\n      jumpi\n      mload(0x40)\n      0x08c379a000000000000000000000000000000000000000000000000000000000\n      dup2\n      mstore\n      0x04\n      add\n      tag_64\n      swap1\n      tag_65\n      jump\t// in\n    tag_64:\n      mload(0x40)\n      dup1\n      swap2\n      sub\n      swap1\n      revert\n    tag_63:\n        /* \"Decentralizing car leasing and sell/car leasing and sell S_C part 1.sol\":1042:1043  0 */\n      0x00\n        /* \"Decentralizing car leasing and sell/car leasing and sell S_C part 1.sol\":1031:1039  _deposit */\n      dup3\n        /* \"Decentralizing car leasing and sell/car leasing and sell S_C part 1.sol\":1031:1043  _deposit > 0 */\n      gt\n        /* \"Decentralizing car leasing and sell/car leasing and sell S_C part 1.sol\":1023:1082  require(_deposit > 0, \"Deposit must be greater than zero.\") */\n      tag_66\n      jumpi\n      mload(0x40)\n      0x08c379a000000000000000000000000000000000000000000000000000000000\n      dup2\n      mstore\n      0x04\n      add\n      tag_67\n      swap1\n      tag_68\n      jump\t// in\n    tag_67:\n      mload(0x40)\n      dup1\n      swap2\n      sub\n      swap1\n      revert\n    tag_66:\n        /* \"Decentralizing car leasing and sell/car leasing and sell S_C part 1.sol\":1113:1114  0 */\n      0x00\n        /* \"Decentralizing car leasing and sell/car leasing and sell S_C part 1.sol\":1100:1110  _leaseTerm */\n      dup2\n        /* \"Decentralizing car leasing and sell/car leasing and sell S_C part 1.sol\":1100:1114  _leaseTerm > 0 */\n      gt\n        /* \"Decentralizing car leasing and sell/car leasing and sell S_C part 1.sol\":1092:1156  require(_leaseTerm > 0, \"Lease term must be greater than zero.\") */\n      tag_69\n      jumpi\n      mload(0x40)\n      0x08c379a000000000000000000000000000000000000000000000000000000000\n      dup2\n      mstore\n      0x04\n      add\n      tag_70\n      swap1\n      tag_71\n      jump\t// in\n    tag_70:\n      mload(0x40)\n      dup1\n      swap2\n      sub\n      swap1\n      revert\n    tag_69:\n        /* \"Decentralizing car leasing and sell/car leasing and sell S_C part 1.sol\":1169:1183  Car memory car */\n      0x00\n        /* \"Decentralizing car leasing and sell/car leasing and sell S_C part 1.sol\":1186:1241  Car(msg.sender, _price, _deposit, _leaseTerm, 0, false) */\n      mload(0x40)\n      dup1\n      0xc0\n      add\n      0x40\n      mstore\n      dup1\n        /* \"Decentralizing car leasing and sell/car leasing and sell S_C part 1.sol\":1190:1200  msg.sender */\n      caller\n        /* \"Decentralizing car leasing and sell/car leasing and sell S_C part 1.sol\":1186:1241  Car(msg.sender, _price, _deposit, _leaseTerm, 0, false) */\n      0xffffffffffffffffffffffffffffffffffffffff\n      and\n      dup2\n      mstore\n      0x20\n      add\n        /* \"Decentralizing car leasing and sell/car leasing and sell S_C part 1.sol\":1202:1208  _price */\n      dup6\n        /* \"Decentralizing car leasing and sell/car leasing and sell S_C part 1.sol\":1186:1241  Car(msg.sender, _price, _deposit, _leaseTerm, 0, false) */\n      dup2\n      mstore\n      0x20\n      add\n        /* \"Decentralizing car leasing and sell/car leasing and sell S_C part 1.sol\":1210:1218  _deposit */\n      dup5\n        /* \"Decentralizing car leasing and sell/car leasing and sell S_C part 1.sol\":1186:1241  Car(msg.sender, _price, _deposit, _leaseTerm, 0, false) */\n      dup2\n      mstore\n      0x20\n      add\n        /* \"Decentralizing car leasing and sell/car leasing and sell S_C part 1.sol\":1220:1230  _leaseTerm */\n      dup4\n        /* \"Decentralizing car leasing and sell/car leasing and sell S_C part 1.sol\":1186:1241  Car(msg.sender, _price, _deposit, _leaseTerm, 0, false) */\n      dup2\n      mstore\n      0x20\n      add\n        /* \"Decentralizing car leasing and sell/car leasing and sell S_C part 1.sol\":1232:1233  0 */\n      0x00\n        /* \"Decentralizing car leasing and sell/car leasing and sell S_C part 1.sol\":1186:1241  Car(msg.sender, _price, _deposit, _leaseTerm, 0, false) */\n      dup2\n      mstore\n      0x20\n      add\n        /* \"Decentralizing car leasing and sell/car leasing and sell S_C part 1.sol\":1235:1240  false */\n      0x00\n        /* \"Decentralizing car leasing and sell/car leasing and sell S_C part 1.sol\":1186:1241  Car(msg.sender, _price, _deposit, _leaseTerm, 0, false) */\n      iszero\n      iszero\n      dup2\n      mstore\n      pop\n        /* \"Decentralizing car leasing and sell/car leasing and sell S_C part 1.sol\":1169:1241  Car memory car = Car(msg.sender, _price, _deposit, _leaseTerm, 0, false) */\n      swap1\n      pop\n        /* \"Decentralizing car leasing and sell/car leasing and sell S_C part 1.sol\":1271:1274  car */\n      dup1\n        /* \"Decentralizing car leasing and sell/car leasing and sell S_C part 1.sol\":1252:1256  cars */\n      0x00\n        /* \"Decentralizing car leasing and sell/car leasing and sell S_C part 1.sol\":1252:1268  cars[msg.sender] */\n      dup1\n        /* \"Decentralizing car leasing and sell/car leasing and sell S_C part 1.sol\":1257:1267  msg.sender */\n      caller\n        /* \"Decentralizing car leasing and sell/car leasing and sell S_C part 1.sol\":1252:1268  cars[msg.sender] */\n      0xffffffffffffffffffffffffffffffffffffffff\n      and\n      0xffffffffffffffffffffffffffffffffffffffff\n      and\n      dup2\n      mstore\n      0x20\n      add\n      swap1\n      dup2\n      mstore\n      0x20\n      add\n      0x00\n      keccak256\n        /* \"Decentralizing car leasing and sell/car leasing and sell S_C part 1.sol\":1252:1274  cars[msg.sender] = car */\n      0x00\n      dup3\n      add\n      mload\n      dup2\n      0x00\n      add\n      exp(0x0100, 0x00)\n      dup2\n      sload\n      dup2\n      0xffffffffffffffffffffffffffffffffffffffff\n      mul\n      not\n      and\n      swap1\n      dup4\n      0xffffffffffffffffffffffffffffffffffffffff\n      and\n      mul\n      or\n      swap1\n      sstore\n      pop\n      0x20\n      dup3\n      add\n      mload\n      dup2\n      0x01\n      add\n      sstore\n      0x40\n      dup3\n      add\n      mload\n      dup2\n      0x02\n      add\n      sstore\n      0x60\n      dup3\n      add\n      mload\n      dup2\n      0x03\n      add\n      sstore\n      0x80\n      dup3\n      add\n      mload\n      dup2\n      0x04\n      add\n      sstore\n      0xa0\n      dup3\n      add\n      mload\n      dup2\n      0x05\n      add\n      exp(0x0100, 0x00)\n      dup2\n      sload\n      dup2\n      0xff\n      mul\n      not\n      and\n      swap1\n      dup4\n      iszero\n      iszero\n      mul\n      or\n      swap1\n      sstore\n      pop\n      swap1\n      pop\n      pop\n        /* \"Decentralizing car leasing and sell/car leasing and sell S_C part 1.sol\":1284:1292  carCount */\n      0x01\n      0x00\n        /* \"Decentralizing car leasing and sell/car leasing and sell S_C part 1.sol\":1284:1294  carCount++ */\n      dup2\n      sload\n      dup1\n      swap3\n      swap2\n      swap1\n      tag_72\n      swap1\n      tag_73\n      jump\t// in\n    tag_72:\n      swap2\n      swap1\n      pop\n      sstore\n      pop\n        /* \"Decentralizing car leasing and sell/car leasing and sell S_C part 1.sol\":1324:1334  msg.sender */\n      caller\n        /* \"Decentralizing car leasing and sell/car leasing and sell S_C part 1.sol\":1310:1365  CarRegistered(msg.sender, _price, _deposit, _leaseTerm) */\n      0xffffffffffffffffffffffffffffffffffffffff\n      and\n      0xa4dba689200e85ed3727de0f7e1e96b62560814e131e21c85c7b93981f6afb05\n        /* \"Decentralizing car leasing and sell/car leasing and sell S_C part 1.sol\":1336:1342  _price */\n      dup6\n        /* \"Decentralizing car leasing and sell/car leasing and sell S_C part 1.sol\":1344:1352  _deposit */\n      dup6\n        /* \"Decentralizing car leasing and sell/car leasing and sell S_C part 1.sol\":1354:1364  _leaseTerm */\n      dup6\n        /* \"Decentralizing car leasing and sell/car leasing and sell S_C part 1.sol\":1310:1365  CarRegistered(msg.sender, _price, _deposit, _leaseTerm) */\n      mload(0x40)\n      tag_74\n      swap4\n      swap3\n      swap2\n      swap1\n      tag_75\n      jump\t// in\n    tag_74:\n      mload(0x40)\n      dup1\n      swap2\n      sub\n      swap1\n      log2\n        /* \"Decentralizing car leasing and sell/car leasing and sell S_C part 1.sol\":963:1372  {... */\n      pop\n        /* \"Decentralizing car leasing and sell/car leasing and sell S_C part 1.sol\":881:1372  function registerCar(uint256 _price, uint256 _deposit, uint256 _leaseTerm) public {... */\n      pop\n      pop\n      pop\n      jump\t// out\n        /* \"#utility.yul\":7:84   */\n    tag_76:\n        /* \"#utility.yul\":44:51   */\n      0x00\n        /* \"#utility.yul\":73:78   */\n      dup2\n        /* \"#utility.yul\":62:78   */\n      swap1\n      pop\n        /* \"#utility.yul\":7:84   */\n      swap2\n      swap1\n      pop\n      jump\t// out\n        /* \"#utility.yul\":90:208   */\n    tag_77:\n        /* \"#utility.yul\":177:201   */\n      tag_111\n        /* \"#utility.yul\":195:200   */\n      dup2\n        /* \"#utility.yul\":177:201   */\n      tag_76\n      jump\t// in\n    tag_111:\n        /* \"#utility.yul\":172:175   */\n      dup3\n        /* \"#utility.yul\":165:202   */\n      mstore\n        /* \"#utility.yul\":90:208   */\n      pop\n      pop\n      jump\t// out\n        /* \"#utility.yul\":214:436   */\n    tag_12:\n        /* \"#utility.yul\":307:311   */\n      0x00\n        /* \"#utility.yul\":345:347   */\n      0x20\n        /* \"#utility.yul\":334:343   */\n      dup3\n        /* \"#utility.yul\":330:348   */\n      add\n        /* \"#utility.yul\":322:348   */\n      swap1\n      pop\n        /* \"#utility.yul\":358:429   */\n      tag_113\n        /* \"#utility.yul\":426:427   */\n      0x00\n        /* \"#utility.yul\":415:424   */\n      dup4\n        /* \"#utility.yul\":411:428   */\n      add\n        /* \"#utility.yul\":402:408   */\n      dup5\n        /* \"#utility.yul\":358:429   */\n      tag_77\n      jump\t// in\n    tag_113:\n        /* \"#utility.yul\":214:436   */\n      swap3\n      swap2\n      pop\n      pop\n      jump\t// out\n        /* \"#utility.yul\":523:640   */\n    tag_79:\n        /* \"#utility.yul\":632:633   */\n      0x00\n        /* \"#utility.yul\":629:630   */\n      dup1\n        /* \"#utility.yul\":622:634   */\n      revert\n        /* \"#utility.yul\":769:895   */\n    tag_81:\n        /* \"#utility.yul\":806:813   */\n      0x00\n        /* \"#utility.yul\":846:888   */\n      0xffffffffffffffffffffffffffffffffffffffff\n        /* \"#utility.yul\":839:844   */\n      dup3\n        /* \"#utility.yul\":835:889   */\n      and\n        /* \"#utility.yul\":824:889   */\n      swap1\n      pop\n        /* \"#utility.yul\":769:895   */\n      swap2\n      swap1\n      pop\n      jump\t// out\n        /* \"#utility.yul\":901:997   */\n    tag_82:\n        /* \"#utility.yul\":938:945   */\n      0x00\n        /* \"#utility.yul\":967:991   */\n      tag_119\n        /* \"#utility.yul\":985:990   */\n      dup3\n        /* \"#utility.yul\":967:991   */\n      tag_81\n      jump\t// in\n    tag_119:\n        /* \"#utility.yul\":956:991   */\n      swap1\n      pop\n        /* \"#utility.yul\":901:997   */\n      swap2\n      swap1\n      pop\n      jump\t// out\n        /* \"#utility.yul\":1003:1125   */\n    tag_83:\n        /* \"#utility.yul\":1076:1100   */\n      tag_121\n        /* \"#utility.yul\":1094:1099   */\n      dup2\n        /* \"#utility.yul\":1076:1100   */\n      tag_82\n      jump\t// in\n    tag_121:\n        /* \"#utility.yul\":1069:1074   */\n      dup2\n        /* \"#utility.yul\":1066:1101   */\n      eq\n        /* \"#utility.yul\":1056:1119   */\n      tag_122\n      jumpi\n        /* \"#utility.yul\":1115:1116   */\n      0x00\n        /* \"#utility.yul\":1112:1113   */\n      dup1\n        /* \"#utility.yul\":1105:1117   */\n      revert\n        /* \"#utility.yul\":1056:1119   */\n    tag_122:\n        /* \"#utility.yul\":1003:1125   */\n      pop\n      jump\t// out\n        /* \"#utility.yul\":1131:1270   */\n    tag_84:\n        /* \"#utility.yul\":1177:1182   */\n      0x00\n        /* \"#utility.yul\":1215:1221   */\n      dup2\n        /* \"#utility.yul\":1202:1222   */\n      calldataload\n        /* \"#utility.yul\":1193:1222   */\n      swap1\n      pop\n        /* \"#utility.yul\":1231:1264   */\n      tag_124\n        /* \"#utility.yul\":1258:1263   */\n      dup2\n        /* \"#utility.yul\":1231:1264   */\n      tag_83\n      jump\t// in\n    tag_124:\n        /* \"#utility.yul\":1131:1270   */\n      swap3\n      swap2\n      pop\n      pop\n      jump\t// out\n        /* \"#utility.yul\":1276:1605   */\n    tag_15:\n        /* \"#utility.yul\":1335:1341   */\n      0x00\n        /* \"#utility.yul\":1384:1386   */\n      0x20\n        /* \"#utility.yul\":1372:1381   */\n      dup3\n        /* \"#utility.yul\":1363:1370   */\n      dup5\n        /* \"#utility.yul\":1359:1382   */\n      sub\n        /* \"#utility.yul\":1355:1387   */\n      slt\n        /* \"#utility.yul\":1352:1471   */\n      iszero\n      tag_126\n      jumpi\n        /* \"#utility.yul\":1390:1469   */\n      tag_127\n      tag_79\n      jump\t// in\n    tag_127:\n        /* \"#utility.yul\":1352:1471   */\n    tag_126:\n        /* \"#utility.yul\":1510:1511   */\n      0x00\n        /* \"#utility.yul\":1535:1588   */\n      tag_128\n        /* \"#utility.yul\":1580:1587   */\n      dup5\n        /* \"#utility.yul\":1571:1577   */\n      dup3\n        /* \"#utility.yul\":1560:1569   */\n      dup6\n        /* \"#utility.yul\":1556:1578   */\n      add\n        /* \"#utility.yul\":1535:1588   */\n      tag_84\n      jump\t// in\n    tag_128:\n        /* \"#utility.yul\":1525:1588   */\n      swap2\n      pop\n        /* \"#utility.yul\":1481:1598   */\n      pop\n        /* \"#utility.yul\":1276:1605   */\n      swap3\n      swap2\n      pop\n      pop\n      jump\t// out\n        /* \"#utility.yul\":1611:1701   */\n    tag_85:\n        /* \"#utility.yul\":1645:1652   */\n      0x00\n        /* \"#utility.yul\":1688:1693   */\n      dup2\n        /* \"#utility.yul\":1681:1694   */\n      iszero\n        /* \"#utility.yul\":1674:1695   */\n      iszero\n        /* \"#utility.yul\":1663:1695   */\n      swap1\n      pop\n        /* \"#utility.yul\":1611:1701   */\n      swap2\n      swap1\n      pop\n      jump\t// out\n        /* \"#utility.yul\":1707:1816   */\n    tag_86:\n        /* \"#utility.yul\":1788:1809   */\n      tag_131\n        /* \"#utility.yul\":1803:1808   */\n      dup2\n        /* \"#utility.yul\":1788:1809   */\n      tag_85\n      jump\t// in\n    tag_131:\n        /* \"#utility.yul\":1783:1786   */\n      dup3\n        /* \"#utility.yul\":1776:1810   */\n      mstore\n        /* \"#utility.yul\":1707:1816   */\n      pop\n      pop\n      jump\t// out\n        /* \"#utility.yul\":1822:2363   */\n    tag_22:\n        /* \"#utility.yul\":1993:1997   */\n      0x00\n        /* \"#utility.yul\":2031:2034   */\n      0x80\n        /* \"#utility.yul\":2020:2029   */\n      dup3\n        /* \"#utility.yul\":2016:2035   */\n      add\n        /* \"#utility.yul\":2008:2035   */\n      swap1\n      pop\n        /* \"#utility.yul\":2045:2116   */\n      tag_133\n        /* \"#utility.yul\":2113:2114   */\n      0x00\n        /* \"#utility.yul\":2102:2111   */\n      dup4\n        /* \"#utility.yul\":2098:2115   */\n      add\n        /* \"#utility.yul\":2089:2095   */\n      dup8\n        /* \"#utility.yul\":2045:2116   */\n      tag_77\n      jump\t// in\n    tag_133:\n        /* \"#utility.yul\":2126:2198   */\n      tag_134\n        /* \"#utility.yul\":2194:2196   */\n      0x20\n        /* \"#utility.yul\":2183:2192   */\n      dup4\n        /* \"#utility.yul\":2179:2197   */\n      add\n        /* \"#utility.yul\":2170:2176   */\n      dup7\n        /* \"#utility.yul\":2126:2198   */\n      tag_77\n      jump\t// in\n    tag_134:\n        /* \"#utility.yul\":2208:2280   */\n      tag_135\n        /* \"#utility.yul\":2276:2278   */\n      0x40\n        /* \"#utility.yul\":2265:2274   */\n      dup4\n        /* \"#utility.yul\":2261:2279   */\n      add\n        /* \"#utility.yul\":2252:2258   */\n      dup6\n        /* \"#utility.yul\":2208:2280   */\n      tag_77\n      jump\t// in\n    tag_135:\n        /* \"#utility.yul\":2290:2356   */\n      tag_136\n        /* \"#utility.yul\":2352:2354   */\n      0x60\n        /* \"#utility.yul\":2341:2350   */\n      dup4\n        /* \"#utility.yul\":2337:2355   */\n      add\n        /* \"#utility.yul\":2328:2334   */\n      dup5\n        /* \"#utility.yul\":2290:2356   */\n      tag_86\n      jump\t// in\n    tag_136:\n        /* \"#utility.yul\":1822:2363   */\n      swap6\n      swap5\n      pop\n      pop\n      pop\n      pop\n      pop\n      jump\t// out\n        /* \"#utility.yul\":2369:2487   */\n    tag_87:\n        /* \"#utility.yul\":2456:2480   */\n      tag_138\n        /* \"#utility.yul\":2474:2479   */\n      dup2\n        /* \"#utility.yul\":2456:2480   */\n      tag_82\n      jump\t// in\n    tag_138:\n        /* \"#utility.yul\":2451:2454   */\n      dup3\n        /* \"#utility.yul\":2444:2481   */\n      mstore\n        /* \"#utility.yul\":2369:2487   */\n      pop\n      pop\n      jump\t// out\n        /* \"#utility.yul\":2493:3256   */\n    tag_31:\n        /* \"#utility.yul\":2720:2724   */\n      0x00\n        /* \"#utility.yul\":2758:2761   */\n      0xc0\n        /* \"#utility.yul\":2747:2756   */\n      dup3\n        /* \"#utility.yul\":2743:2762   */\n      add\n        /* \"#utility.yul\":2735:2762   */\n      swap1\n      pop\n        /* \"#utility.yul\":2772:2843   */\n      tag_140\n        /* \"#utility.yul\":2840:2841   */\n      0x00\n        /* \"#utility.yul\":2829:2838   */\n      dup4\n        /* \"#utility.yul\":2825:2842   */\n      add\n        /* \"#utility.yul\":2816:2822   */\n      dup10\n        /* \"#utility.yul\":2772:2843   */\n      tag_87\n      jump\t// in\n    tag_140:\n        /* \"#utility.yul\":2853:2925   */\n      tag_141\n        /* \"#utility.yul\":2921:2923   */\n      0x20\n        /* \"#utility.yul\":2910:2919   */\n      dup4\n        /* \"#utility.yul\":2906:2924   */\n      add\n        /* \"#utility.yul\":2897:2903   */\n      dup9\n        /* \"#utility.yul\":2853:2925   */\n      tag_77\n      jump\t// in\n    tag_141:\n        /* \"#utility.yul\":2935:3007   */\n      tag_142\n        /* \"#utility.yul\":3003:3005   */\n      0x40\n        /* \"#utility.yul\":2992:3001   */\n      dup4\n        /* \"#utility.yul\":2988:3006   */\n      add\n        /* \"#utility.yul\":2979:2985   */\n      dup8\n        /* \"#utility.yul\":2935:3007   */\n      tag_77\n      jump\t// in\n    tag_142:\n        /* \"#utility.yul\":3017:3089   */\n      tag_143\n        /* \"#utility.yul\":3085:3087   */\n      0x60\n        /* \"#utility.yul\":3074:3083   */\n      dup4\n        /* \"#utility.yul\":3070:3088   */\n      add\n        /* \"#utility.yul\":3061:3067   */\n      dup7\n        /* \"#utility.yul\":3017:3089   */\n      tag_77\n      jump\t// in\n    tag_143:\n        /* \"#utility.yul\":3099:3172   */\n      tag_144\n        /* \"#utility.yul\":3167:3170   */\n      0x80\n        /* \"#utility.yul\":3156:3165   */\n      dup4\n        /* \"#utility.yul\":3152:3171   */\n      add\n        /* \"#utility.yul\":3143:3149   */\n      dup6\n        /* \"#utility.yul\":3099:3172   */\n      tag_77\n      jump\t// in\n    tag_144:\n        /* \"#utility.yul\":3182:3249   */\n      tag_145\n        /* \"#utility.yul\":3244:3247   */\n      0xa0\n        /* \"#utility.yul\":3233:3242   */\n      dup4\n        /* \"#utility.yul\":3229:3248   */\n      add\n        /* \"#utility.yul\":3220:3226   */\n      dup5\n        /* \"#utility.yul\":3182:3249   */\n      tag_86\n      jump\t// in\n    tag_145:\n        /* \"#utility.yul\":2493:3256   */\n      swap8\n      swap7\n      pop\n      pop\n      pop\n      pop\n      pop\n      pop\n      pop\n      jump\t// out\n        /* \"#utility.yul\":3262:3384   */\n    tag_88:\n        /* \"#utility.yul\":3335:3359   */\n      tag_147\n        /* \"#utility.yul\":3353:3358   */\n      dup2\n        /* \"#utility.yul\":3335:3359   */\n      tag_76\n      jump\t// in\n    tag_147:\n        /* \"#utility.yul\":3328:3333   */\n      dup2\n        /* \"#utility.yul\":3325:3360   */\n      eq\n        /* \"#utility.yul\":3315:3378   */\n      tag_148\n      jumpi\n        /* \"#utility.yul\":3374:3375   */\n      0x00\n        /* \"#utility.yul\":3371:3372   */\n      dup1\n        /* \"#utility.yul\":3364:3376   */\n      revert\n        /* \"#utility.yul\":3315:3378   */\n    tag_148:\n        /* \"#utility.yul\":3262:3384   */\n      pop\n      jump\t// out\n        /* \"#utility.yul\":3390:3529   */\n    tag_89:\n        /* \"#utility.yul\":3436:3441   */\n      0x00\n        /* \"#utility.yul\":3474:3480   */\n      dup2\n        /* \"#utility.yul\":3461:3481   */\n      calldataload\n        /* \"#utility.yul\":3452:3481   */\n      swap1\n      pop\n        /* \"#utility.yul\":3490:3523   */\n      tag_150\n        /* \"#utility.yul\":3517:3522   */\n      dup2\n        /* \"#utility.yul\":3490:3523   */\n      tag_88\n      jump\t// in\n    tag_150:\n        /* \"#utility.yul\":3390:3529   */\n      swap3\n      swap2\n      pop\n      pop\n      jump\t// out\n        /* \"#utility.yul\":3535:4154   */\n    tag_35:\n        /* \"#utility.yul\":3612:3618   */\n      0x00\n        /* \"#utility.yul\":3620:3626   */\n      dup1\n        /* \"#utility.yul\":3628:3634   */\n      0x00\n        /* \"#utility.yul\":3677:3679   */\n      0x60\n        /* \"#utility.yul\":3665:3674   */\n      dup5\n        /* \"#utility.yul\":3656:3663   */\n      dup7\n        /* \"#utility.yul\":3652:3675   */\n      sub\n        /* \"#utility.yul\":3648:3680   */\n      slt\n        /* \"#utility.yul\":3645:3764   */\n      iszero\n      tag_152\n      jumpi\n        /* \"#utility.yul\":3683:3762   */\n      tag_153\n      tag_79\n      jump\t// in\n    tag_153:\n        /* \"#utility.yul\":3645:3764   */\n    tag_152:\n        /* \"#utility.yul\":3803:3804   */\n      0x00\n        /* \"#utility.yul\":3828:3881   */\n      tag_154\n        /* \"#utility.yul\":3873:3880   */\n      dup7\n        /* \"#utility.yul\":3864:3870   */\n      dup3\n        /* \"#utility.yul\":3853:3862   */\n      dup8\n        /* \"#utility.yul\":3849:3871   */\n      add\n        /* \"#utility.yul\":3828:3881   */\n      tag_89\n      jump\t// in\n    tag_154:\n        /* \"#utility.yul\":3818:3881   */\n      swap4\n      pop\n        /* \"#utility.yul\":3774:3891   */\n      pop\n        /* \"#utility.yul\":3930:3932   */\n      0x20\n        /* \"#utility.yul\":3956:4009   */\n      tag_155\n        /* \"#utility.yul\":4001:4008   */\n      dup7\n        /* \"#utility.yul\":3992:3998   */\n      dup3\n        /* \"#utility.yul\":3981:3990   */\n      dup8\n        /* \"#utility.yul\":3977:3999   */\n      add\n        /* \"#utility.yul\":3956:4009   */\n      tag_89\n      jump\t// in\n    tag_155:\n        /* \"#utility.yul\":3946:4009   */\n      swap3\n      pop\n        /* \"#utility.yul\":3901:4019   */\n      pop\n        /* \"#utility.yul\":4058:4060   */\n      0x40\n        /* \"#utility.yul\":4084:4137   */\n      tag_156\n        /* \"#utility.yul\":4129:4136   */\n      dup7\n        /* \"#utility.yul\":4120:4126   */\n      dup3\n        /* \"#utility.yul\":4109:4118   */\n      dup8\n        /* \"#utility.yul\":4105:4127   */\n      add\n        /* \"#utility.yul\":4084:4137   */\n      tag_89\n      jump\t// in\n    tag_156:\n        /* \"#utility.yul\":4074:4137   */\n      swap2\n      pop\n        /* \"#utility.yul\":4029:4147   */\n      pop\n        /* \"#utility.yul\":3535:4154   */\n      swap3\n      pop\n      swap3\n      pop\n      swap3\n      jump\t// out\n        /* \"#utility.yul\":4160:4329   */\n    tag_90:\n        /* \"#utility.yul\":4244:4255   */\n      0x00\n        /* \"#utility.yul\":4278:4284   */\n      dup3\n        /* \"#utility.yul\":4273:4276   */\n      dup3\n        /* \"#utility.yul\":4266:4285   */\n      mstore\n        /* \"#utility.yul\":4318:4322   */\n      0x20\n        /* \"#utility.yul\":4313:4316   */\n      dup3\n        /* \"#utility.yul\":4309:4323   */\n      add\n        /* \"#utility.yul\":4294:4323   */\n      swap1\n      pop\n        /* \"#utility.yul\":4160:4329   */\n      swap3\n      swap2\n      pop\n      pop\n      jump\t// out\n        /* \"#utility.yul\":4335:4505   */\n    tag_91:\n        /* \"#utility.yul\":4475:4497   */\n      0x436172206f776e6572206e6f7420666f756e642e000000000000000000000000\n        /* \"#utility.yul\":4471:4472   */\n      0x00\n        /* \"#utility.yul\":4463:4469   */\n      dup3\n        /* \"#utility.yul\":4459:4473   */\n      add\n        /* \"#utility.yul\":4452:4498   */\n      mstore\n        /* \"#utility.yul\":4335:4505   */\n      pop\n      jump\t// out\n        /* \"#utility.yul\":4511:4877   */\n    tag_92:\n        /* \"#utility.yul\":4653:4656   */\n      0x00\n        /* \"#utility.yul\":4674:4741   */\n      tag_160\n        /* \"#utility.yul\":4738:4740   */\n      0x14\n        /* \"#utility.yul\":4733:4736   */\n      dup4\n        /* \"#utility.yul\":4674:4741   */\n      tag_90\n      jump\t// in\n    tag_160:\n        /* \"#utility.yul\":4667:4741   */\n      swap2\n      pop\n        /* \"#utility.yul\":4750:4843   */\n      tag_161\n        /* \"#utility.yul\":4839:4842   */\n      dup3\n        /* \"#utility.yul\":4750:4843   */\n      tag_91\n      jump\t// in\n    tag_161:\n        /* \"#utility.yul\":4868:4870   */\n      0x20\n        /* \"#utility.yul\":4863:4866   */\n      dup3\n        /* \"#utility.yul\":4859:4871   */\n      add\n        /* \"#utility.yul\":4852:4871   */\n      swap1\n      pop\n        /* \"#utility.yul\":4511:4877   */\n      swap2\n      swap1\n      pop\n      jump\t// out\n        /* \"#utility.yul\":4883:5302   */\n    tag_40:\n        /* \"#utility.yul\":5049:5053   */\n      0x00\n        /* \"#utility.yul\":5087:5089   */\n      0x20\n        /* \"#utility.yul\":5076:5085   */\n      dup3\n        /* \"#utility.yul\":5072:5090   */\n      add\n        /* \"#utility.yul\":5064:5090   */\n      swap1\n      pop\n        /* \"#utility.yul\":5136:5145   */\n      dup2\n        /* \"#utility.yul\":5130:5134   */\n      dup2\n        /* \"#utility.yul\":5126:5146   */\n      sub\n        /* \"#utility.yul\":5122:5123   */\n      0x00\n        /* \"#utility.yul\":5111:5120   */\n      dup4\n        /* \"#utility.yul\":5107:5124   */\n      add\n        /* \"#utility.yul\":5100:5147   */\n      mstore\n        /* \"#utility.yul\":5164:5295   */\n      tag_163\n        /* \"#utility.yul\":5290:5294   */\n      dup2\n        /* \"#utility.yul\":5164:5295   */\n      tag_92\n      jump\t// in\n    tag_163:\n        /* \"#utility.yul\":5156:5295   */\n      swap1\n      pop\n        /* \"#utility.yul\":4883:5302   */\n      swap2\n      swap1\n      pop\n      jump\t// out\n        /* \"#utility.yul\":5308:5482   */\n    tag_93:\n        /* \"#utility.yul\":5448:5474   */\n      0x4361722069732063757272656e746c79206c65617365642e0000000000000000\n        /* \"#utility.yul\":5444:5445   */\n      0x00\n        /* \"#utility.yul\":5436:5442   */\n      dup3\n        /* \"#utility.yul\":5432:5446   */\n      add\n        /* \"#utility.yul\":5425:5475   */\n      mstore\n        /* \"#utility.yul\":5308:5482   */\n      pop\n      jump\t// out\n        /* \"#utility.yul\":5488:5854   */\n    tag_94:\n        /* \"#utility.yul\":5630:5633   */\n      0x00\n        /* \"#utility.yul\":5651:5718   */\n      tag_166\n        /* \"#utility.yul\":5715:5717   */\n      0x18\n        /* \"#utility.yul\":5710:5713   */\n      dup4\n        /* \"#utility.yul\":5651:5718   */\n      tag_90\n      jump\t// in\n    tag_166:\n        /* \"#utility.yul\":5644:5718   */\n      swap2\n      pop\n        /* \"#utility.yul\":5727:5820   */\n      tag_167\n        /* \"#utility.yul\":5816:5819   */\n      dup3\n        /* \"#utility.yul\":5727:5820   */\n      tag_93\n      jump\t// in\n    tag_167:\n        /* \"#utility.yul\":5845:5847   */\n      0x20\n        /* \"#utility.yul\":5840:5843   */\n      dup3\n        /* \"#utility.yul\":5836:5848   */\n      add\n        /* \"#utility.yul\":5829:5848   */\n      swap1\n      pop\n        /* \"#utility.yul\":5488:5854   */\n      swap2\n      swap1\n      pop\n      jump\t// out\n        /* \"#utility.yul\":5860:6279   */\n    tag_43:\n        /* \"#utility.yul\":6026:6030   */\n      0x00\n        /* \"#utility.yul\":6064:6066   */\n      0x20\n        /* \"#utility.yul\":6053:6062   */\n      dup3\n        /* \"#utility.yul\":6049:6067   */\n      add\n        /* \"#utility.yul\":6041:6067   */\n      swap1\n      pop\n        /* \"#utility.yul\":6113:6122   */\n      dup2\n        /* \"#utility.yul\":6107:6111   */\n      dup2\n        /* \"#utility.yul\":6103:6123   */\n      sub\n        /* \"#utility.yul\":6099:6100   */\n      0x00\n        /* \"#utility.yul\":6088:6097   */\n      dup4\n        /* \"#utility.yul\":6084:6101   */\n      add\n        /* \"#utility.yul\":6077:6124   */\n      mstore\n        /* \"#utility.yul\":6141:6272   */\n      tag_169\n        /* \"#utility.yul\":6267:6271   */\n      dup2\n        /* \"#utility.yul\":6141:6272   */\n      tag_94\n      jump\t// in\n    tag_169:\n        /* \"#utility.yul\":6133:6272   */\n      swap1\n      pop\n        /* \"#utility.yul\":5860:6279   */\n      swap2\n      swap1\n      pop\n      jump\t// out\n        /* \"#utility.yul\":6285:6511   */\n    tag_95:\n        /* \"#utility.yul\":6425:6459   */\n      0x536e657420616d6f756e74206d75737420626520657175616c20746f20636172\n        /* \"#utility.yul\":6421:6422   */\n      0x00\n        /* \"#utility.yul\":6413:6419   */\n      dup3\n        /* \"#utility.yul\":6409:6423   */\n      add\n        /* \"#utility.yul\":6402:6460   */\n      mstore\n        /* \"#utility.yul\":6494:6503   */\n      0x2070726963652c00000000000000000000000000000000000000000000000000\n        /* \"#utility.yul\":6489:6491   */\n      0x20\n        /* \"#utility.yul\":6481:6487   */\n      dup3\n        /* \"#utility.yul\":6477:6492   */\n      add\n        /* \"#utility.yul\":6470:6504   */\n      mstore\n        /* \"#utility.yul\":6285:6511   */\n      pop\n      jump\t// out\n        /* \"#utility.yul\":6517:6883   */\n    tag_96:\n        /* \"#utility.yul\":6659:6662   */\n      0x00\n        /* \"#utility.yul\":6680:6747   */\n      tag_172\n        /* \"#utility.yul\":6744:6746   */\n      0x27\n        /* \"#utility.yul\":6739:6742   */\n      dup4\n        /* \"#utility.yul\":6680:6747   */\n      tag_90\n      jump\t// in\n    tag_172:\n        /* \"#utility.yul\":6673:6747   */\n      swap2\n      pop\n        /* \"#utility.yul\":6756:6849   */\n      tag_173\n        /* \"#utility.yul\":6845:6848   */\n      dup3\n        /* \"#utility.yul\":6756:6849   */\n      tag_95\n      jump\t// in\n    tag_173:\n        /* \"#utility.yul\":6874:6876   */\n      0x40\n        /* \"#utility.yul\":6869:6872   */\n      dup3\n        /* \"#utility.yul\":6865:6877   */\n      add\n        /* \"#utility.yul\":6858:6877   */\n      swap1\n      pop\n        /* \"#utility.yul\":6517:6883   */\n      swap2\n      swap1\n      pop\n      jump\t// out\n        /* \"#utility.yul\":6889:7308   */\n    tag_46:\n        /* \"#utility.yul\":7055:7059   */\n      0x00\n        /* \"#utility.yul\":7093:7095   */\n      0x20\n        /* \"#utility.yul\":7082:7091   */\n      dup3\n        /* \"#utility.yul\":7078:7096   */\n      add\n        /* \"#utility.yul\":7070:7096   */\n      swap1\n      pop\n        /* \"#utility.yul\":7142:7151   */\n      dup2\n        /* \"#utility.yul\":7136:7140   */\n      dup2\n        /* \"#utility.yul\":7132:7152   */\n      sub\n        /* \"#utility.yul\":7128:7129   */\n      0x00\n        /* \"#utility.yul\":7117:7126   */\n      dup4\n        /* \"#utility.yul\":7113:7130   */\n      add\n        /* \"#utility.yul\":7106:7153   */\n      mstore\n        /* \"#utility.yul\":7170:7301   */\n      tag_175\n        /* \"#utility.yul\":7296:7300   */\n      dup2\n        /* \"#utility.yul\":7170:7301   */\n      tag_96\n      jump\t// in\n    tag_175:\n        /* \"#utility.yul\":7162:7301   */\n      swap1\n      pop\n        /* \"#utility.yul\":6889:7308   */\n      swap2\n      swap1\n      pop\n      jump\t// out\n        /* \"#utility.yul\":7314:7486   */\n    tag_97:\n        /* \"#utility.yul\":7454:7478   */\n      0x43617220697320616c7265616479206c65617365642e00000000000000000000\n        /* \"#utility.yul\":7450:7451   */\n      0x00\n        /* \"#utility.yul\":7442:7448   */\n      dup3\n        /* \"#utility.yul\":7438:7452   */\n      add\n        /* \"#utility.yul\":7431:7479   */\n      mstore\n        /* \"#utility.yul\":7314:7486   */\n      pop\n      jump\t// out\n        /* \"#utility.yul\":7492:7858   */\n    tag_98:\n        /* \"#utility.yul\":7634:7637   */\n      0x00\n        /* \"#utility.yul\":7655:7722   */\n      tag_178\n        /* \"#utility.yul\":7719:7721   */\n      0x16\n        /* \"#utility.yul\":7714:7717   */\n      dup4\n        /* \"#utility.yul\":7655:7722   */\n      tag_90\n      jump\t// in\n    tag_178:\n        /* \"#utility.yul\":7648:7722   */\n      swap2\n      pop\n        /* \"#utility.yul\":7731:7824   */\n      tag_179\n        /* \"#utility.yul\":7820:7823   */\n      dup3\n        /* \"#utility.yul\":7731:7824   */\n      tag_97\n      jump\t// in\n    tag_179:\n        /* \"#utility.yul\":7849:7851   */\n      0x20\n        /* \"#utility.yul\":7844:7847   */\n      dup3\n        /* \"#utility.yul\":7840:7852   */\n      add\n        /* \"#utility.yul\":7833:7852   */\n      swap1\n      pop\n        /* \"#utility.yul\":7492:7858   */\n      swap2\n      swap1\n      pop\n      jump\t// out\n        /* \"#utility.yul\":7864:8283   */\n    tag_53:\n        /* \"#utility.yul\":8030:8034   */\n      0x00\n        /* \"#utility.yul\":8068:8070   */\n      0x20\n        /* \"#utility.yul\":8057:8066   */\n      dup3\n        /* \"#utility.yul\":8053:8071   */\n      add\n        /* \"#utility.yul\":8045:8071   */\n      swap1\n      pop\n        /* \"#utility.yul\":8117:8126   */\n      dup2\n        /* \"#utility.yul\":8111:8115   */\n      dup2\n        /* \"#utility.yul\":8107:8127   */\n      sub\n        /* \"#utility.yul\":8103:8104   */\n      0x00\n        /* \"#utility.yul\":8092:8101   */\n      dup4\n        /* \"#utility.yul\":8088:8105   */\n      add\n        /* \"#utility.yul\":8081:8128   */\n      mstore\n        /* \"#utility.yul\":8145:8276   */\n      tag_181\n        /* \"#utility.yul\":8271:8275   */\n      dup2\n        /* \"#utility.yul\":8145:8276   */\n      tag_98\n      jump\t// in\n    tag_181:\n        /* \"#utility.yul\":8137:8276   */\n      swap1\n      pop\n        /* \"#utility.yul\":7864:8283   */\n      swap2\n      swap1\n      pop\n      jump\t// out\n        /* \"#utility.yul\":8289:8520   */\n    tag_99:\n        /* \"#utility.yul\":8429:8463   */\n      0x53656e7420616d6f756e74206d75737420626520657175616c20746f20646570\n        /* \"#utility.yul\":8425:8426   */\n      0x00\n        /* \"#utility.yul\":8417:8423   */\n      dup3\n        /* \"#utility.yul\":8413:8427   */\n      add\n        /* \"#utility.yul\":8406:8464   */\n      mstore\n        /* \"#utility.yul\":8498:8512   */\n      0x6f73697420616d6f756e742e0000000000000000000000000000000000000000\n        /* \"#utility.yul\":8493:8495   */\n      0x20\n        /* \"#utility.yul\":8485:8491   */\n      dup3\n        /* \"#utility.yul\":8481:8496   */\n      add\n        /* \"#utility.yul\":8474:8513   */\n      mstore\n        /* \"#utility.yul\":8289:8520   */\n      pop\n      jump\t// out\n        /* \"#utility.yul\":8526:8892   */\n    tag_100:\n        /* \"#utility.yul\":8668:8671   */\n      0x00\n        /* \"#utility.yul\":8689:8756   */\n      tag_184\n        /* \"#utility.yul\":8753:8755   */\n      0x2c\n        /* \"#utility.yul\":8748:8751   */\n      dup4\n        /* \"#utility.yul\":8689:8756   */\n      tag_90\n      jump\t// in\n    tag_184:\n        /* \"#utility.yul\":8682:8756   */\n      swap2\n      pop\n        /* \"#utility.yul\":8765:8858   */\n      tag_185\n        /* \"#utility.yul\":8854:8857   */\n      dup3\n        /* \"#utility.yul\":8765:8858   */\n      tag_99\n      jump\t// in\n    tag_185:\n        /* \"#utility.yul\":8883:8885   */\n      0x40\n        /* \"#utility.yul\":8878:8881   */\n      dup3\n        /* \"#utility.yul\":8874:8886   */\n      add\n        /* \"#utility.yul\":8867:8886   */\n      swap1\n      pop\n        /* \"#utility.yul\":8526:8892   */\n      swap2\n      swap1\n      pop\n      jump\t// out\n        /* \"#utility.yul\":8898:9317   */\n    tag_56:\n        /* \"#utility.yul\":9064:9068   */\n      0x00\n        /* \"#utility.yul\":9102:9104   */\n      0x20\n        /* \"#utility.yul\":9091:9100   */\n      dup3\n        /* \"#utility.yul\":9087:9105   */\n      add\n        /* \"#utility.yul\":9079:9105   */\n      swap1\n      pop\n        /* \"#utility.yul\":9151:9160   */\n      dup2\n        /* \"#utility.yul\":9145:9149   */\n      dup2\n        /* \"#utility.yul\":9141:9161   */\n      sub\n        /* \"#utility.yul\":9137:9138   */\n      0x00\n        /* \"#utility.yul\":9126:9135   */\n      dup4\n        /* \"#utility.yul\":9122:9139   */\n      add\n        /* \"#utility.yul\":9115:9162   */\n      mstore\n        /* \"#utility.yul\":9179:9310   */\n      tag_187\n        /* \"#utility.yul\":9305:9309   */\n      dup2\n        /* \"#utility.yul\":9179:9310   */\n      tag_100\n      jump\t// in\n    tag_187:\n        /* \"#utility.yul\":9171:9310   */\n      swap1\n      pop\n        /* \"#utility.yul\":8898:9317   */\n      swap2\n      swap1\n      pop\n      jump\t// out\n        /* \"#utility.yul\":9323:9503   */\n    tag_101:\n        /* \"#utility.yul\":9371:9448   */\n      0x4e487b7100000000000000000000000000000000000000000000000000000000\n        /* \"#utility.yul\":9368:9369   */\n      0x00\n        /* \"#utility.yul\":9361:9449   */\n      mstore\n        /* \"#utility.yul\":9468:9472   */\n      0x11\n        /* \"#utility.yul\":9465:9466   */\n      0x04\n        /* \"#utility.yul\":9458:9473   */\n      mstore\n        /* \"#utility.yul\":9492:9496   */\n      0x24\n        /* \"#utility.yul\":9489:9490   */\n      0x00\n        /* \"#utility.yul\":9482:9497   */\n      revert\n        /* \"#utility.yul\":9509:9919   */\n    tag_58:\n        /* \"#utility.yul\":9549:9556   */\n      0x00\n        /* \"#utility.yul\":9572:9592   */\n      tag_190\n        /* \"#utility.yul\":9590:9591   */\n      dup3\n        /* \"#utility.yul\":9572:9592   */\n      tag_76\n      jump\t// in\n    tag_190:\n        /* \"#utility.yul\":9567:9592   */\n      swap2\n      pop\n        /* \"#utility.yul\":9606:9626   */\n      tag_191\n        /* \"#utility.yul\":9624:9625   */\n      dup4\n        /* \"#utility.yul\":9606:9626   */\n      tag_76\n      jump\t// in\n    tag_191:\n        /* \"#utility.yul\":9601:9626   */\n      swap3\n      pop\n        /* \"#utility.yul\":9661:9662   */\n      dup3\n        /* \"#utility.yul\":9658:9659   */\n      dup3\n        /* \"#utility.yul\":9654:9663   */\n      mul\n        /* \"#utility.yul\":9683:9713   */\n      tag_192\n        /* \"#utility.yul\":9701:9712   */\n      dup2\n        /* \"#utility.yul\":9683:9713   */\n      tag_76\n      jump\t// in\n    tag_192:\n        /* \"#utility.yul\":9672:9713   */\n      swap2\n      pop\n        /* \"#utility.yul\":9862:9863   */\n      dup3\n        /* \"#utility.yul\":9853:9860   */\n      dup3\n        /* \"#utility.yul\":9849:9864   */\n      div\n        /* \"#utility.yul\":9846:9847   */\n      dup5\n        /* \"#utility.yul\":9843:9865   */\n      eq\n        /* \"#utility.yul\":9823:9824   */\n      dup4\n        /* \"#utility.yul\":9816:9825   */\n      iszero\n        /* \"#utility.yul\":9796:9879   */\n      or\n        /* \"#utility.yul\":9773:9912   */\n      tag_193\n      jumpi\n        /* \"#utility.yul\":9892:9910   */\n      tag_194\n      tag_101\n      jump\t// in\n    tag_194:\n        /* \"#utility.yul\":9773:9912   */\n    tag_193:\n        /* \"#utility.yul\":9557:9919   */\n      pop\n        /* \"#utility.yul\":9509:9919   */\n      swap3\n      swap2\n      pop\n      pop\n      jump\t// out\n        /* \"#utility.yul\":9925:10116   */\n    tag_60:\n        /* \"#utility.yul\":9965:9968   */\n      0x00\n        /* \"#utility.yul\":9984:10004   */\n      tag_196\n        /* \"#utility.yul\":10002:10003   */\n      dup3\n        /* \"#utility.yul\":9984:10004   */\n      tag_76\n      jump\t// in\n    tag_196:\n        /* \"#utility.yul\":9979:10004   */\n      swap2\n      pop\n        /* \"#utility.yul\":10018:10038   */\n      tag_197\n        /* \"#utility.yul\":10036:10037   */\n      dup4\n        /* \"#utility.yul\":10018:10038   */\n      tag_76\n      jump\t// in\n    tag_197:\n        /* \"#utility.yul\":10013:10038   */\n      swap3\n      pop\n        /* \"#utility.yul\":10061:10062   */\n      dup3\n        /* \"#utility.yul\":10058:10059   */\n      dup3\n        /* \"#utility.yul\":10054:10063   */\n      add\n        /* \"#utility.yul\":10047:10063   */\n      swap1\n      pop\n        /* \"#utility.yul\":10082:10085   */\n      dup1\n        /* \"#utility.yul\":10079:10080   */\n      dup3\n        /* \"#utility.yul\":10076:10086   */\n      gt\n        /* \"#utility.yul\":10073:10109   */\n      iszero\n      tag_198\n      jumpi\n        /* \"#utility.yul\":10089:10107   */\n      tag_199\n      tag_101\n      jump\t// in\n    tag_199:\n        /* \"#utility.yul\":10073:10109   */\n    tag_198:\n        /* \"#utility.yul\":9925:10116   */\n      swap3\n      swap2\n      pop\n      pop\n      jump\t// out\n        /* \"#utility.yul\":10122:10289   */\n    tag_102:\n        /* \"#utility.yul\":10262:10281   */\n      0x5072696365206d757374206265203e2030000000000000000000000000000000\n        /* \"#utility.yul\":10258:10259   */\n      0x00\n        /* \"#utility.yul\":10250:10256   */\n      dup3\n        /* \"#utility.yul\":10246:10260   */\n      add\n        /* \"#utility.yul\":10239:10282   */\n      mstore\n        /* \"#utility.yul\":10122:10289   */\n      pop\n      jump\t// out\n        /* \"#utility.yul\":10295:10661   */\n    tag_103:\n        /* \"#utility.yul\":10437:10440   */\n      0x00\n        /* \"#utility.yul\":10458:10525   */\n      tag_202\n        /* \"#utility.yul\":10522:10524   */\n      0x11\n        /* \"#utility.yul\":10517:10520   */\n      dup4\n        /* \"#utility.yul\":10458:10525   */\n      tag_90\n      jump\t// in\n    tag_202:\n        /* \"#utility.yul\":10451:10525   */\n      swap2\n      pop\n        /* \"#utility.yul\":10534:10627   */\n      tag_203\n        /* \"#utility.yul\":10623:10626   */\n      dup3\n        /* \"#utility.yul\":10534:10627   */\n      tag_102\n      jump\t// in\n    tag_203:\n        /* \"#utility.yul\":10652:10654   */\n      0x20\n        /* \"#utility.yul\":10647:10650   */\n      dup3\n        /* \"#utility.yul\":10643:10655   */\n      add\n        /* \"#utility.yul\":10636:10655   */\n      swap1\n      pop\n        /* \"#utility.yul\":10295:10661   */\n      swap2\n      swap1\n      pop\n      jump\t// out\n        /* \"#utility.yul\":10667:11086   */\n    tag_65:\n        /* \"#utility.yul\":10833:10837   */\n      0x00\n        /* \"#utility.yul\":10871:10873   */\n      0x20\n        /* \"#utility.yul\":10860:10869   */\n      dup3\n        /* \"#utility.yul\":10856:10874   */\n      add\n        /* \"#utility.yul\":10848:10874   */\n      swap1\n      pop\n        /* \"#utility.yul\":10920:10929   */\n      dup2\n        /* \"#utility.yul\":10914:10918   */\n      dup2\n        /* \"#utility.yul\":10910:10930   */\n      sub\n        /* \"#utility.yul\":10906:10907   */\n      0x00\n        /* \"#utility.yul\":10895:10904   */\n      dup4\n        /* \"#utility.yul\":10891:10908   */\n      add\n        /* \"#utility.yul\":10884:10931   */\n      mstore\n        /* \"#utility.yul\":10948:11079   */\n      tag_205\n        /* \"#utility.yul\":11074:11078   */\n      dup2\n        /* \"#utility.yul\":10948:11079   */\n      tag_103\n      jump\t// in\n    tag_205:\n        /* \"#utility.yul\":10940:11079   */\n      swap1\n      pop\n        /* \"#utility.yul\":10667:11086   */\n      swap2\n      swap1\n      pop\n      jump\t// out\n        /* \"#utility.yul\":11092:11313   */\n    tag_104:\n        /* \"#utility.yul\":11232:11266   */\n      0x4465706f736974206d7573742062652067726561746572207468616e207a6572\n        /* \"#utility.yul\":11228:11229   */\n      0x00\n        /* \"#utility.yul\":11220:11226   */\n      dup3\n        /* \"#utility.yul\":11216:11230   */\n      add\n        /* \"#utility.yul\":11209:11267   */\n      mstore\n        /* \"#utility.yul\":11301:11305   */\n      0x6f2e000000000000000000000000000000000000000000000000000000000000\n        /* \"#utility.yul\":11296:11298   */\n      0x20\n        /* \"#utility.yul\":11288:11294   */\n      dup3\n        /* \"#utility.yul\":11284:11299   */\n      add\n        /* \"#utility.yul\":11277:11306   */\n      mstore\n        /* \"#utility.yul\":11092:11313   */\n      pop\n      jump\t// out\n        /* \"#utility.yul\":11319:11685   */\n    tag_105:\n        /* \"#utility.yul\":11461:11464   */\n      0x00\n        /* \"#utility.yul\":11482:11549   */\n      tag_208\n        /* \"#utility.yul\":11546:11548   */\n      0x22\n        /* \"#utility.yul\":11541:11544   */\n      dup4\n        /* \"#utility.yul\":11482:11549   */\n      tag_90\n      jump\t// in\n    tag_208:\n        /* \"#utility.yul\":11475:11549   */\n      swap2\n      pop\n        /* \"#utility.yul\":11558:11651   */\n      tag_209\n        /* \"#utility.yul\":11647:11650   */\n      dup3\n        /* \"#utility.yul\":11558:11651   */\n      tag_104\n      jump\t// in\n    tag_209:\n        /* \"#utility.yul\":11676:11678   */\n      0x40\n        /* \"#utility.yul\":11671:11674   */\n      dup3\n        /* \"#utility.yul\":11667:11679   */\n      add\n        /* \"#utility.yul\":11660:11679   */\n      swap1\n      pop\n        /* \"#utility.yul\":11319:11685   */\n      swap2\n      swap1\n      pop\n      jump\t// out\n        /* \"#utility.yul\":11691:12110   */\n    tag_68:\n        /* \"#utility.yul\":11857:11861   */\n      0x00\n        /* \"#utility.yul\":11895:11897   */\n      0x20\n        /* \"#utility.yul\":11884:11893   */\n      dup3\n        /* \"#utility.yul\":11880:11898   */\n      add\n        /* \"#utility.yul\":11872:11898   */\n      swap1\n      pop\n        /* \"#utility.yul\":11944:11953   */\n      dup2\n        /* \"#utility.yul\":11938:11942   */\n      dup2\n        /* \"#utility.yul\":11934:11954   */\n      sub\n        /* \"#utility.yul\":11930:11931   */\n      0x00\n        /* \"#utility.yul\":11919:11928   */\n      dup4\n        /* \"#utility.yul\":11915:11932   */\n      add\n        /* \"#utility.yul\":11908:11955   */\n      mstore\n        /* \"#utility.yul\":11972:12103   */\n      tag_211\n        /* \"#utility.yul\":12098:12102   */\n      dup2\n        /* \"#utility.yul\":11972:12103   */\n      tag_105\n      jump\t// in\n    tag_211:\n        /* \"#utility.yul\":11964:12103   */\n      swap1\n      pop\n        /* \"#utility.yul\":11691:12110   */\n      swap2\n      swap1\n      pop\n      jump\t// out\n        /* \"#utility.yul\":12116:12340   */\n    tag_106:\n        /* \"#utility.yul\":12256:12290   */\n      0x4c65617365207465726d206d7573742062652067726561746572207468616e20\n        /* \"#utility.yul\":12252:12253   */\n      0x00\n        /* \"#utility.yul\":12244:12250   */\n      dup3\n        /* \"#utility.yul\":12240:12254   */\n      add\n        /* \"#utility.yul\":12233:12291   */\n      mstore\n        /* \"#utility.yul\":12325:12332   */\n      0x7a65726f2e000000000000000000000000000000000000000000000000000000\n        /* \"#utility.yul\":12320:12322   */\n      0x20\n        /* \"#utility.yul\":12312:12318   */\n      dup3\n        /* \"#utility.yul\":12308:12323   */\n      add\n        /* \"#utility.yul\":12301:12333   */\n      mstore\n        /* \"#utility.yul\":12116:12340   */\n      pop\n      jump\t// out\n        /* \"#utility.yul\":12346:12712   */\n    tag_107:\n        /* \"#utility.yul\":12488:12491   */\n      0x00\n        /* \"#utility.yul\":12509:12576   */\n      tag_214\n        /* \"#utility.yul\":12573:12575   */\n      0x25\n        /* \"#utility.yul\":12568:12571   */\n      dup4\n        /* \"#utility.yul\":12509:12576   */\n      tag_90\n      jump\t// in\n    tag_214:\n        /* \"#utility.yul\":12502:12576   */\n      swap2\n      pop\n        /* \"#utility.yul\":12585:12678   */\n      tag_215\n        /* \"#utility.yul\":12674:12677   */\n      dup3\n        /* \"#utility.yul\":12585:12678   */\n      tag_106\n      jump\t// in\n    tag_215:\n        /* \"#utility.yul\":12703:12705   */\n      0x40\n        /* \"#utility.yul\":12698:12701   */\n      dup3\n        /* \"#utility.yul\":12694:12706   */\n      add\n        /* \"#utility.yul\":12687:12706   */\n      swap1\n      pop\n        /* \"#utility.yul\":12346:12712   */\n      swap2\n      swap1\n      pop\n      jump\t// out\n        /* \"#utility.yul\":12718:13137   */\n    tag_71:\n        /* \"#utility.yul\":12884:12888   */\n      0x00\n        /* \"#utility.yul\":12922:12924   */\n      0x20\n        /* \"#utility.yul\":12911:12920   */\n      dup3\n        /* \"#utility.yul\":12907:12925   */\n      add\n        /* \"#utility.yul\":12899:12925   */\n      swap1\n      pop\n        /* \"#utility.yul\":12971:12980   */\n      dup2\n        /* \"#utility.yul\":12965:12969   */\n      dup2\n        /* \"#utility.yul\":12961:12981   */\n      sub\n        /* \"#utility.yul\":12957:12958   */\n      0x00\n        /* \"#utility.yul\":12946:12955   */\n      dup4\n        /* \"#utility.yul\":12942:12959   */\n      add\n        /* \"#utility.yul\":12935:12982   */\n      mstore\n        /* \"#utility.yul\":12999:13130   */\n      tag_217\n        /* \"#utility.yul\":13125:13129   */\n      dup2\n        /* \"#utility.yul\":12999:13130   */\n      tag_107\n      jump\t// in\n    tag_217:\n        /* \"#utility.yul\":12991:13130   */\n      swap1\n      pop\n        /* \"#utility.yul\":12718:13137   */\n      swap2\n      swap1\n      pop\n      jump\t// out\n        /* \"#utility.yul\":13143:13376   */\n    tag_73:\n        /* \"#utility.yul\":13182:13185   */\n      0x00\n        /* \"#utility.yul\":13205:13229   */\n      tag_219\n        /* \"#utility.yul\":13223:13228   */\n      dup3\n        /* \"#utility.yul\":13205:13229   */\n      tag_76\n      jump\t// in\n    tag_219:\n        /* \"#utility.yul\":13196:13229   */\n      swap2\n      pop\n        /* \"#utility.yul\":13251:13317   */\n      0xffffffffffffffffffffffffffffffffffffffffffffffffffffffffffffffff\n        /* \"#utility.yul\":13244:13249   */\n      dup3\n        /* \"#utility.yul\":13241:13318   */\n      sub\n        /* \"#utility.yul\":13238:13341   */\n      tag_220\n      jumpi\n        /* \"#utility.yul\":13321:13339   */\n      tag_221\n      tag_101\n      jump\t// in\n    tag_221:\n        /* \"#utility.yul\":13238:13341   */\n    tag_220:\n        /* \"#utility.yul\":13368:13369   */\n      0x01\n        /* \"#utility.yul\":13361:13366   */\n      dup3\n        /* \"#utility.yul\":13357:13370   */\n      add\n        /* \"#utility.yul\":13350:13370   */\n      swap1\n      pop\n        /* \"#utility.yul\":13143:13376   */\n      swap2\n      swap1\n      pop\n      jump\t// out\n        /* \"#utility.yul\":13382:13824   */\n    tag_75:\n        /* \"#utility.yul\":13531:13535   */\n      0x00\n        /* \"#utility.yul\":13569:13571   */\n      0x60\n        /* \"#utility.yul\":13558:13567   */\n      dup3\n        /* \"#utility.yul\":13554:13572   */\n      add\n        /* \"#utility.yul\":13546:13572   */\n      swap1\n      pop\n        /* \"#utility.yul\":13582:13653   */\n      tag_223\n        /* \"#utility.yul\":13650:13651   */\n      0x00\n        /* \"#utility.yul\":13639:13648   */\n      dup4\n        /* \"#utility.yul\":13635:13652   */\n      add\n        /* \"#utility.yul\":13626:13632   */\n      dup7\n        /* \"#utility.yul\":13582:13653   */\n      tag_77\n      jump\t// in\n    tag_223:\n        /* \"#utility.yul\":13663:13735   */\n      tag_224\n        /* \"#utility.yul\":13731:13733   */\n      0x20\n        /* \"#utility.yul\":13720:13729   */\n      dup4\n        /* \"#utility.yul\":13716:13734   */\n      add\n        /* \"#utility.yul\":13707:13713   */\n      dup6\n        /* \"#utility.yul\":13663:13735   */\n      tag_77\n      jump\t// in\n    tag_224:\n        /* \"#utility.yul\":13745:13817   */\n      tag_225\n        /* \"#utility.yul\":13813:13815   */\n      0x40\n        /* \"#utility.yul\":13802:13811   */\n      dup4\n        /* \"#utility.yul\":13798:13816   */\n      add\n        /* \"#utility.yul\":13789:13795   */\n      dup5\n        /* \"#utility.yul\":13745:13817   */\n      tag_77\n      jump\t// in\n    tag_225:\n        /* \"#utility.yul\":13382:13824   */\n      swap5\n      swap4\n      pop\n      pop\n      pop\n      pop\n      jump\t// out\n\n    auxdata: 0xa2646970667358221220be046b444246cd7ade2b99bb85f504106bd1f4622efd44eb79f12858b0abcfc464736f6c63430008160033\n}\n",
				"bytecode": {
					"linkReferences": {},
					"object": "608060405234801561000f575f80fd5b505f600181905550611040806100245f395ff3fe608060405260043610610054575f3560e01c8063297a1f561461005857806339faf3ae1461008257806355f6b0731461009e5780635e624a2a146100dd578063afd79cbd146100f9578063eae3c03f1461013a575b5f80fd5b348015610063575f80fd5b5061006c610162565b604051610079919061091e565b60405180910390f35b61009c60048036038101906100979190610995565b610168565b005b3480156100a9575f80fd5b506100c460048036038101906100bf9190610995565b610356565b6040516100d494939291906109da565b60405180910390f35b6100f760048036038101906100f29190610995565b61045e565b005b348015610104575f80fd5b5061011f600480360381019061011a9190610995565b61065c565b60405161013196959493929190610a2c565b60405180910390f35b348015610145575f80fd5b50610160600480360381019061015b9190610ab5565b6106be565b005b60015481565b5f805f8373ffffffffffffffffffffffffffffffffffffffff1673ffffffffffffffffffffffffffffffffffffffff1681526020019081526020015f2090505f73ffffffffffffffffffffffffffffffffffffffff16815f015f9054906101000a900473ffffffffffffffffffffffffffffffffffffffff1673ffffffffffffffffffffffffffffffffffffffff1603610237576040517f08c379a000000000000000000000000000000000000000000000000000000000815260040161022e90610b5f565b60405180910390fd5b806005015f9054906101000a900460ff1615610288576040517f08c379a000000000000000000000000000000000000000000000000000000000815260040161027f90610bc7565b60405180910390fd5b806001015434146102ce576040517f08c379a00000000000000000000000000000000000000000000000000000000081526004016102c590610c55565b60405180910390fd5b33815f015f6101000a81548173ffffffffffffffffffffffffffffffffffffffff021916908373ffffffffffffffffffffffffffffffffffffffff1602179055503373ffffffffffffffffffffffffffffffffffffffff167fd39c7810ff5b061d7b8194988abf1053d2ef93805360424a0047c6455af23e1760405160405180910390a25050565b5f805f805f805f8773ffffffffffffffffffffffffffffffffffffffff1673ffffffffffffffffffffffffffffffffffffffff1681526020019081526020015f206040518060c00160405290815f82015f9054906101000a900473ffffffffffffffffffffffffffffffffffffffff1673ffffffffffffffffffffffffffffffffffffffff1673ffffffffffffffffffffffffffffffffffffffff16815260200160018201548152602001600282015481526020016003820154815260200160048201548152602001600582015f9054906101000a900460ff16151515158152505090508060200151816040015182606001518360a001519450945094509450509193509193565b5f805f8373ffffffffffffffffffffffffffffffffffffffff1673ffffffffffffffffffffffffffffffffffffffff1681526020019081526020015f2090505f73ffffffffffffffffffffffffffffffffffffffff16815f015f9054906101000a900473ffffffffffffffffffffffffffffffffffffffff1673ffffffffffffffffffffffffffffffffffffffff160361052d576040517f08c379a000000000000000000000000000000000000000000000000000000000815260040161052490610b5f565b60405180910390fd5b806005015f9054906101000a900460ff161561057e576040517f08c379a000000000000000000000000000000000000000000000000000000000815260040161057590610cbd565b60405180910390fd5b806002015434146105c4576040517f08c379a00000000000000000000000000000000000000000000000000000000081526004016105bb90610d4b565b60405180910390fd5b6001816005015f6101000a81548160ff0219169083151502179055506201518081600301546105f39190610d96565b426105fe9190610dd7565b81600401819055503373ffffffffffffffffffffffffffffffffffffffff167f805ecc0a8a5bd3a06d7274608b789b709dfcbcaa69d2a525fa668d2ecd9efd878260040154604051610650919061091e565b60405180910390a25050565b5f602052805f5260405f205f91509050805f015f9054906101000a900473ffffffffffffffffffffffffffffffffffffffff1690806001015490806002015490806003015490806004015490806005015f9054906101000a900460ff16905086565b5f8311610700576040517f08c379a00000000000000000000000000000000000000000000000000000000081526004016106f790610e54565b60405180910390fd5b5f8211610742576040517f08c379a000000000000000000000000000000000000000000000000000000000815260040161073990610ee2565b60405180910390fd5b5f8111610784576040517f08c379a000000000000000000000000000000000000000000000000000000000815260040161077b90610f70565b60405180910390fd5b5f6040518060c001604052803373ffffffffffffffffffffffffffffffffffffffff1681526020018581526020018481526020018381526020015f81526020015f15158152509050805f803373ffffffffffffffffffffffffffffffffffffffff1673ffffffffffffffffffffffffffffffffffffffff1681526020019081526020015f205f820151815f015f6101000a81548173ffffffffffffffffffffffffffffffffffffffff021916908373ffffffffffffffffffffffffffffffffffffffff1602179055506020820151816001015560408201518160020155606082015181600301556080820151816004015560a0820151816005015f6101000a81548160ff02191690831515021790555090505060015f8154809291906108a990610f8e565b91905055503373ffffffffffffffffffffffffffffffffffffffff167fa4dba689200e85ed3727de0f7e1e96b62560814e131e21c85c7b93981f6afb058585856040516108f893929190610fd5565b60405180910390a250505050565b5f819050919050565b61091881610906565b82525050565b5f6020820190506109315f83018461090f565b92915050565b5f80fd5b5f73ffffffffffffffffffffffffffffffffffffffff82169050919050565b5f6109648261093b565b9050919050565b6109748161095a565b811461097e575f80fd5b50565b5f8135905061098f8161096b565b92915050565b5f602082840312156109aa576109a9610937565b5b5f6109b784828501610981565b91505092915050565b5f8115159050919050565b6109d4816109c0565b82525050565b5f6080820190506109ed5f83018761090f565b6109fa602083018661090f565b610a07604083018561090f565b610a1460608301846109cb565b95945050505050565b610a268161095a565b82525050565b5f60c082019050610a3f5f830189610a1d565b610a4c602083018861090f565b610a59604083018761090f565b610a66606083018661090f565b610a73608083018561090f565b610a8060a08301846109cb565b979650505050505050565b610a9481610906565b8114610a9e575f80fd5b50565b5f81359050610aaf81610a8b565b92915050565b5f805f60608486031215610acc57610acb610937565b5b5f610ad986828701610aa1565b9350506020610aea86828701610aa1565b9250506040610afb86828701610aa1565b9150509250925092565b5f82825260208201905092915050565b7f436172206f776e6572206e6f7420666f756e642e0000000000000000000000005f82015250565b5f610b49601483610b05565b9150610b5482610b15565b602082019050919050565b5f6020820190508181035f830152610b7681610b3d565b9050919050565b7f4361722069732063757272656e746c79206c65617365642e00000000000000005f82015250565b5f610bb1601883610b05565b9150610bbc82610b7d565b602082019050919050565b5f6020820190508181035f830152610bde81610ba5565b9050919050565b7f536e657420616d6f756e74206d75737420626520657175616c20746f206361725f8201527f2070726963652c00000000000000000000000000000000000000000000000000602082015250565b5f610c3f602783610b05565b9150610c4a82610be5565b604082019050919050565b5f6020820190508181035f830152610c6c81610c33565b9050919050565b7f43617220697320616c7265616479206c65617365642e000000000000000000005f82015250565b5f610ca7601683610b05565b9150610cb282610c73565b602082019050919050565b5f6020820190508181035f830152610cd481610c9b565b9050919050565b7f53656e7420616d6f756e74206d75737420626520657175616c20746f206465705f8201527f6f73697420616d6f756e742e0000000000000000000000000000000000000000602082015250565b5f610d35602c83610b05565b9150610d4082610cdb565b604082019050919050565b5f6020820190508181035f830152610d6281610d29565b9050919050565b7f4e487b71000000000000000000000000000000000000000000000000000000005f52601160045260245ffd5b5f610da082610906565b9150610dab83610906565b9250828202610db981610906565b91508282048414831517610dd057610dcf610d69565b5b5092915050565b5f610de182610906565b9150610dec83610906565b9250828201905080821115610e0457610e03610d69565b5b92915050565b7f5072696365206d757374206265203e20300000000000000000000000000000005f82015250565b5f610e3e601183610b05565b9150610e4982610e0a565b602082019050919050565b5f6020820190508181035f830152610e6b81610e32565b9050919050565b7f4465706f736974206d7573742062652067726561746572207468616e207a65725f8201527f6f2e000000000000000000000000000000000000000000000000000000000000602082015250565b5f610ecc602283610b05565b9150610ed782610e72565b604082019050919050565b5f6020820190508181035f830152610ef981610ec0565b9050919050565b7f4c65617365207465726d206d7573742062652067726561746572207468616e205f8201527f7a65726f2e000000000000000000000000000000000000000000000000000000602082015250565b5f610f5a602583610b05565b9150610f6582610f00565b604082019050919050565b5f6020820190508181035f830152610f8781610f4e565b9050919050565b5f610f9882610906565b91507fffffffffffffffffffffffffffffffffffffffffffffffffffffffffffffffff8203610fca57610fc9610d69565b5b600182019050919050565b5f606082019050610fe85f83018661090f565b610ff5602083018561090f565b611002604083018461090f565b94935050505056fea2646970667358221220be046b444246cd7ade2b99bb85f504106bd1f4622efd44eb79f12858b0abcfc464736f6c63430008160033",
					"opcodes": "PUSH1 0x80 PUSH1 0x40 MSTORE CALLVALUE DUP1 ISZERO PUSH2 0xF JUMPI PUSH0 DUP1 REVERT JUMPDEST POP PUSH0 PUSH1 0x1 DUP2 SWAP1 SSTORE POP PUSH2 0x1040 DUP1 PUSH2 0x24 PUSH0 CODECOPY PUSH0 RETURN INVALID PUSH1 0x80 PUSH1 0x40 MSTORE PUSH1 0x4 CALLDATASIZE LT PUSH2 0x54 JUMPI PUSH0 CALLDATALOAD PUSH1 0xE0 SHR DUP1 PUSH4 0x297A1F56 EQ PUSH2 0x58 JUMPI DUP1 PUSH4 0x39FAF3AE EQ PUSH2 0x82 JUMPI DUP1 PUSH4 0x55F6B073 EQ PUSH2 0x9E JUMPI DUP1 PUSH4 0x5E624A2A EQ PUSH2 0xDD JUMPI DUP1 PUSH4 0xAFD79CBD EQ PUSH2 0xF9 JUMPI DUP1 PUSH4 0xEAE3C03F EQ PUSH2 0x13A JUMPI JUMPDEST PUSH0 DUP1 REVERT JUMPDEST CALLVALUE DUP1 ISZERO PUSH2 0x63 JUMPI PUSH0 DUP1 REVERT JUMPDEST POP PUSH2 0x6C PUSH2 0x162 JUMP JUMPDEST PUSH1 0x40 MLOAD PUSH2 0x79 SWAP2 SWAP1 PUSH2 0x91E JUMP JUMPDEST PUSH1 0x40 MLOAD DUP1 SWAP2 SUB SWAP1 RETURN JUMPDEST PUSH2 0x9C PUSH1 0x4 DUP1 CALLDATASIZE SUB DUP2 ADD SWAP1 PUSH2 0x97 SWAP2 SWAP1 PUSH2 0x995 JUMP JUMPDEST PUSH2 0x168 JUMP JUMPDEST STOP JUMPDEST CALLVALUE DUP1 ISZERO PUSH2 0xA9 JUMPI PUSH0 DUP1 REVERT JUMPDEST POP PUSH2 0xC4 PUSH1 0x4 DUP1 CALLDATASIZE SUB DUP2 ADD SWAP1 PUSH2 0xBF SWAP2 SWAP1 PUSH2 0x995 JUMP JUMPDEST PUSH2 0x356 JUMP JUMPDEST PUSH1 0x40 MLOAD PUSH2 0xD4 SWAP5 SWAP4 SWAP3 SWAP2 SWAP1 PUSH2 0x9DA JUMP JUMPDEST PUSH1 0x40 MLOAD DUP1 SWAP2 SUB SWAP1 RETURN JUMPDEST PUSH2 0xF7 PUSH1 0x4 DUP1 CALLDATASIZE SUB DUP2 ADD SWAP1 PUSH2 0xF2 SWAP2 SWAP1 PUSH2 0x995 JUMP JUMPDEST PUSH2 0x45E JUMP JUMPDEST STOP JUMPDEST CALLVALUE DUP1 ISZERO PUSH2 0x104 JUMPI PUSH0 DUP1 REVERT JUMPDEST POP PUSH2 0x11F PUSH1 0x4 DUP1 CALLDATASIZE SUB DUP2 ADD SWAP1 PUSH2 0x11A SWAP2 SWAP1 PUSH2 0x995 JUMP JUMPDEST PUSH2 0x65C JUMP JUMPDEST PUSH1 0x40 MLOAD PUSH2 0x131 SWAP7 SWAP6 SWAP5 SWAP4 SWAP3 SWAP2 SWAP1 PUSH2 0xA2C JUMP JUMPDEST PUSH1 0x40 MLOAD DUP1 SWAP2 SUB SWAP1 RETURN JUMPDEST CALLVALUE DUP1 ISZERO PUSH2 0x145 JUMPI PUSH0 DUP1 REVERT JUMPDEST POP PUSH2 0x160 PUSH1 0x4 DUP1 CALLDATASIZE SUB DUP2 ADD SWAP1 PUSH2 0x15B SWAP2 SWAP1 PUSH2 0xAB5 JUMP JUMPDEST PUSH2 0x6BE JUMP JUMPDEST STOP JUMPDEST PUSH1 0x1 SLOAD DUP2 JUMP JUMPDEST PUSH0 DUP1 PUSH0 DUP4 PUSH20 0xFFFFFFFFFFFFFFFFFFFFFFFFFFFFFFFFFFFFFFFF AND PUSH20 0xFFFFFFFFFFFFFFFFFFFFFFFFFFFFFFFFFFFFFFFF AND DUP2 MSTORE PUSH1 0x20 ADD SWAP1 DUP2 MSTORE PUSH1 0x20 ADD PUSH0 KECCAK256 SWAP1 POP PUSH0 PUSH20 0xFFFFFFFFFFFFFFFFFFFFFFFFFFFFFFFFFFFFFFFF AND DUP2 PUSH0 ADD PUSH0 SWAP1 SLOAD SWAP1 PUSH2 0x100 EXP SWAP1 DIV PUSH20 0xFFFFFFFFFFFFFFFFFFFFFFFFFFFFFFFFFFFFFFFF AND PUSH20 0xFFFFFFFFFFFFFFFFFFFFFFFFFFFFFFFFFFFFFFFF AND SUB PUSH2 0x237 JUMPI PUSH1 0x40 MLOAD PUSH32 0x8C379A000000000000000000000000000000000000000000000000000000000 DUP2 MSTORE PUSH1 0x4 ADD PUSH2 0x22E SWAP1 PUSH2 0xB5F JUMP JUMPDEST PUSH1 0x40 MLOAD DUP1 SWAP2 SUB SWAP1 REVERT JUMPDEST DUP1 PUSH1 0x5 ADD PUSH0 SWAP1 SLOAD SWAP1 PUSH2 0x100 EXP SWAP1 DIV PUSH1 0xFF AND ISZERO PUSH2 0x288 JUMPI PUSH1 0x40 MLOAD PUSH32 0x8C379A000000000000000000000000000000000000000000000000000000000 DUP2 MSTORE PUSH1 0x4 ADD PUSH2 0x27F SWAP1 PUSH2 0xBC7 JUMP JUMPDEST PUSH1 0x40 MLOAD DUP1 SWAP2 SUB SWAP1 REVERT JUMPDEST DUP1 PUSH1 0x1 ADD SLOAD CALLVALUE EQ PUSH2 0x2CE JUMPI PUSH1 0x40 MLOAD PUSH32 0x8C379A000000000000000000000000000000000000000000000000000000000 DUP2 MSTORE PUSH1 0x4 ADD PUSH2 0x2C5 SWAP1 PUSH2 0xC55 JUMP JUMPDEST PUSH1 0x40 MLOAD DUP1 SWAP2 SUB SWAP1 REVERT JUMPDEST CALLER DUP2 PUSH0 ADD PUSH0 PUSH2 0x100 EXP DUP2 SLOAD DUP2 PUSH20 0xFFFFFFFFFFFFFFFFFFFFFFFFFFFFFFFFFFFFFFFF MUL NOT AND SWAP1 DUP4 PUSH20 0xFFFFFFFFFFFFFFFFFFFFFFFFFFFFFFFFFFFFFFFF AND MUL OR SWAP1 SSTORE POP CALLER PUSH20 0xFFFFFFFFFFFFFFFFFFFFFFFFFFFFFFFFFFFFFFFF AND PUSH32 0xD39C7810FF5B061D7B8194988ABF1053D2EF93805360424A0047C6455AF23E17 PUSH1 0x40 MLOAD PUSH1 0x40 MLOAD DUP1 SWAP2 SUB SWAP1 LOG2 POP POP JUMP JUMPDEST PUSH0 DUP1 PUSH0 DUP1 PUSH0 DUP1 PUSH0 DUP8 PUSH20 0xFFFFFFFFFFFFFFFFFFFFFFFFFFFFFFFFFFFFFFFF AND PUSH20 0xFFFFFFFFFFFFFFFFFFFFFFFFFFFFFFFFFFFFFFFF AND DUP2 MSTORE PUSH1 0x20 ADD SWAP1 DUP2 MSTORE PUSH1 0x20 ADD PUSH0 KECCAK256 PUSH1 0x40 MLOAD DUP1 PUSH1 0xC0 ADD PUSH1 0x40 MSTORE SWAP1 DUP2 PUSH0 DUP3 ADD PUSH0 SWAP1 SLOAD SWAP1 PUSH2 0x100 EXP SWAP1 DIV PUSH20 0xFFFFFFFFFFFFFFFFFFFFFFFFFFFFFFFFFFFFFFFF AND PUSH20 0xFFFFFFFFFFFFFFFFFFFFFFFFFFFFFFFFFFFFFFFF AND PUSH20 0xFFFFFFFFFFFFFFFFFFFFFFFFFFFFFFFFFFFFFFFF AND DUP2 MSTORE PUSH1 0x20 ADD PUSH1 0x1 DUP3 ADD SLOAD DUP2 MSTORE PUSH1 0x20 ADD PUSH1 0x2 DUP3 ADD SLOAD DUP2 MSTORE PUSH1 0x20 ADD PUSH1 0x3 DUP3 ADD SLOAD DUP2 MSTORE PUSH1 0x20 ADD PUSH1 0x4 DUP3 ADD SLOAD DUP2 MSTORE PUSH1 0x20 ADD PUSH1 0x5 DUP3 ADD PUSH0 SWAP1 SLOAD SWAP1 PUSH2 0x100 EXP SWAP1 DIV PUSH1 0xFF AND ISZERO ISZERO ISZERO ISZERO DUP2 MSTORE POP POP SWAP1 POP DUP1 PUSH1 0x20 ADD MLOAD DUP2 PUSH1 0x40 ADD MLOAD DUP3 PUSH1 0x60 ADD MLOAD DUP4 PUSH1 0xA0 ADD MLOAD SWAP5 POP SWAP5 POP SWAP5 POP SWAP5 POP POP SWAP2 SWAP4 POP SWAP2 SWAP4 JUMP JUMPDEST PUSH0 DUP1 PUSH0 DUP4 PUSH20 0xFFFFFFFFFFFFFFFFFFFFFFFFFFFFFFFFFFFFFFFF AND PUSH20 0xFFFFFFFFFFFFFFFFFFFFFFFFFFFFFFFFFFFFFFFF AND DUP2 MSTORE PUSH1 0x20 ADD SWAP1 DUP2 MSTORE PUSH1 0x20 ADD PUSH0 KECCAK256 SWAP1 POP PUSH0 PUSH20 0xFFFFFFFFFFFFFFFFFFFFFFFFFFFFFFFFFFFFFFFF AND DUP2 PUSH0 ADD PUSH0 SWAP1 SLOAD SWAP1 PUSH2 0x100 EXP SWAP1 DIV PUSH20 0xFFFFFFFFFFFFFFFFFFFFFFFFFFFFFFFFFFFFFFFF AND PUSH20 0xFFFFFFFFFFFFFFFFFFFFFFFFFFFFFFFFFFFFFFFF AND SUB PUSH2 0x52D JUMPI PUSH1 0x40 MLOAD PUSH32 0x8C379A000000000000000000000000000000000000000000000000000000000 DUP2 MSTORE PUSH1 0x4 ADD PUSH2 0x524 SWAP1 PUSH2 0xB5F JUMP JUMPDEST PUSH1 0x40 MLOAD DUP1 SWAP2 SUB SWAP1 REVERT JUMPDEST DUP1 PUSH1 0x5 ADD PUSH0 SWAP1 SLOAD SWAP1 PUSH2 0x100 EXP SWAP1 DIV PUSH1 0xFF AND ISZERO PUSH2 0x57E JUMPI PUSH1 0x40 MLOAD PUSH32 0x8C379A000000000000000000000000000000000000000000000000000000000 DUP2 MSTORE PUSH1 0x4 ADD PUSH2 0x575 SWAP1 PUSH2 0xCBD JUMP JUMPDEST PUSH1 0x40 MLOAD DUP1 SWAP2 SUB SWAP1 REVERT JUMPDEST DUP1 PUSH1 0x2 ADD SLOAD CALLVALUE EQ PUSH2 0x5C4 JUMPI PUSH1 0x40 MLOAD PUSH32 0x8C379A000000000000000000000000000000000000000000000000000000000 DUP2 MSTORE PUSH1 0x4 ADD PUSH2 0x5BB SWAP1 PUSH2 0xD4B JUMP JUMPDEST PUSH1 0x40 MLOAD DUP1 SWAP2 SUB SWAP1 REVERT JUMPDEST PUSH1 0x1 DUP2 PUSH1 0x5 ADD PUSH0 PUSH2 0x100 EXP DUP2 SLOAD DUP2 PUSH1 0xFF MUL NOT AND SWAP1 DUP4 ISZERO ISZERO MUL OR SWAP1 SSTORE POP PUSH3 0x15180 DUP2 PUSH1 0x3 ADD SLOAD PUSH2 0x5F3 SWAP2 SWAP1 PUSH2 0xD96 JUMP JUMPDEST TIMESTAMP PUSH2 0x5FE SWAP2 SWAP1 PUSH2 0xDD7 JUMP JUMPDEST DUP2 PUSH1 0x4 ADD DUP2 SWAP1 SSTORE POP CALLER PUSH20 0xFFFFFFFFFFFFFFFFFFFFFFFFFFFFFFFFFFFFFFFF AND PUSH32 0x805ECC0A8A5BD3A06D7274608B789B709DFCBCAA69D2A525FA668D2ECD9EFD87 DUP3 PUSH1 0x4 ADD SLOAD PUSH1 0x40 MLOAD PUSH2 0x650 SWAP2 SWAP1 PUSH2 0x91E JUMP JUMPDEST PUSH1 0x40 MLOAD DUP1 SWAP2 SUB SWAP1 LOG2 POP POP JUMP JUMPDEST PUSH0 PUSH1 0x20 MSTORE DUP1 PUSH0 MSTORE PUSH1 0x40 PUSH0 KECCAK256 PUSH0 SWAP2 POP SWAP1 POP DUP1 PUSH0 ADD PUSH0 SWAP1 SLOAD SWAP1 PUSH2 0x100 EXP SWAP1 DIV PUSH20 0xFFFFFFFFFFFFFFFFFFFFFFFFFFFFFFFFFFFFFFFF AND SWAP1 DUP1 PUSH1 0x1 ADD SLOAD SWAP1 DUP1 PUSH1 0x2 ADD SLOAD SWAP1 DUP1 PUSH1 0x3 ADD SLOAD SWAP1 DUP1 PUSH1 0x4 ADD SLOAD SWAP1 DUP1 PUSH1 0x5 ADD PUSH0 SWAP1 SLOAD SWAP1 PUSH2 0x100 EXP SWAP1 DIV PUSH1 0xFF AND SWAP1 POP DUP7 JUMP JUMPDEST PUSH0 DUP4 GT PUSH2 0x700 JUMPI PUSH1 0x40 MLOAD PUSH32 0x8C379A000000000000000000000000000000000000000000000000000000000 DUP2 MSTORE PUSH1 0x4 ADD PUSH2 0x6F7 SWAP1 PUSH2 0xE54 JUMP JUMPDEST PUSH1 0x40 MLOAD DUP1 SWAP2 SUB SWAP1 REVERT JUMPDEST PUSH0 DUP3 GT PUSH2 0x742 JUMPI PUSH1 0x40 MLOAD PUSH32 0x8C379A000000000000000000000000000000000000000000000000000000000 DUP2 MSTORE PUSH1 0x4 ADD PUSH2 0x739 SWAP1 PUSH2 0xEE2 JUMP JUMPDEST PUSH1 0x40 MLOAD DUP1 SWAP2 SUB SWAP1 REVERT JUMPDEST PUSH0 DUP2 GT PUSH2 0x784 JUMPI PUSH1 0x40 MLOAD PUSH32 0x8C379A000000000000000000000000000000000000000000000000000000000 DUP2 MSTORE PUSH1 0x4 ADD PUSH2 0x77B SWAP1 PUSH2 0xF70 JUMP JUMPDEST PUSH1 0x40 MLOAD DUP1 SWAP2 SUB SWAP1 REVERT JUMPDEST PUSH0 PUSH1 0x40 MLOAD DUP1 PUSH1 0xC0 ADD PUSH1 0x40 MSTORE DUP1 CALLER PUSH20 0xFFFFFFFFFFFFFFFFFFFFFFFFFFFFFFFFFFFFFFFF AND DUP2 MSTORE PUSH1 0x20 ADD DUP6 DUP2 MSTORE PUSH1 0x20 ADD DUP5 DUP2 MSTORE PUSH1 0x20 ADD DUP4 DUP2 MSTORE PUSH1 0x20 ADD PUSH0 DUP2 MSTORE PUSH1 0x20 ADD PUSH0 ISZERO ISZERO DUP2 MSTORE POP SWAP1 POP DUP1 PUSH0 DUP1 CALLER PUSH20 0xFFFFFFFFFFFFFFFFFFFFFFFFFFFFFFFFFFFFFFFF AND PUSH20 0xFFFFFFFFFFFFFFFFFFFFFFFFFFFFFFFFFFFFFFFF AND DUP2 MSTORE PUSH1 0x20 ADD SWAP1 DUP2 MSTORE PUSH1 0x20 ADD PUSH0 KECCAK256 PUSH0 DUP3 ADD MLOAD DUP2 PUSH0 ADD PUSH0 PUSH2 0x100 EXP DUP2 SLOAD DUP2 PUSH20 0xFFFFFFFFFFFFFFFFFFFFFFFFFFFFFFFFFFFFFFFF MUL NOT AND SWAP1 DUP4 PUSH20 0xFFFFFFFFFFFFFFFFFFFFFFFFFFFFFFFFFFFFFFFF AND MUL OR SWAP1 SSTORE POP PUSH1 0x20 DUP3 ADD MLOAD DUP2 PUSH1 0x1 ADD SSTORE PUSH1 0x40 DUP3 ADD MLOAD DUP2 PUSH1 0x2 ADD SSTORE PUSH1 0x60 DUP3 ADD MLOAD DUP2 PUSH1 0x3 ADD SSTORE PUSH1 0x80 DUP3 ADD MLOAD DUP2 PUSH1 0x4 ADD SSTORE PUSH1 0xA0 DUP3 ADD MLOAD DUP2 PUSH1 0x5 ADD PUSH0 PUSH2 0x100 EXP DUP2 SLOAD DUP2 PUSH1 0xFF MUL NOT AND SWAP1 DUP4 ISZERO ISZERO MUL OR SWAP1 SSTORE POP SWAP1 POP POP PUSH1 0x1 PUSH0 DUP2 SLOAD DUP1 SWAP3 SWAP2 SWAP1 PUSH2 0x8A9 SWAP1 PUSH2 0xF8E JUMP JUMPDEST SWAP2 SWAP1 POP SSTORE POP CALLER PUSH20 0xFFFFFFFFFFFFFFFFFFFFFFFFFFFFFFFFFFFFFFFF AND PUSH32 0xA4DBA689200E85ED3727DE0F7E1E96B62560814E131E21C85C7B93981F6AFB05 DUP6 DUP6 DUP6 PUSH1 0x40 MLOAD PUSH2 0x8F8 SWAP4 SWAP3 SWAP2 SWAP1 PUSH2 0xFD5 JUMP JUMPDEST PUSH1 0x40 MLOAD DUP1 SWAP2 SUB SWAP1 LOG2 POP POP POP POP JUMP JUMPDEST PUSH0 DUP2 SWAP1 POP SWAP2 SWAP1 POP JUMP JUMPDEST PUSH2 0x918 DUP2 PUSH2 0x906 JUMP JUMPDEST DUP3 MSTORE POP POP JUMP JUMPDEST PUSH0 PUSH1 0x20 DUP3 ADD SWAP1 POP PUSH2 0x931 PUSH0 DUP4 ADD DUP5 PUSH2 0x90F JUMP JUMPDEST SWAP3 SWAP2 POP POP JUMP JUMPDEST PUSH0 DUP1 REVERT JUMPDEST PUSH0 PUSH20 0xFFFFFFFFFFFFFFFFFFFFFFFFFFFFFFFFFFFFFFFF DUP3 AND SWAP1 POP SWAP2 SWAP1 POP JUMP JUMPDEST PUSH0 PUSH2 0x964 DUP3 PUSH2 0x93B JUMP JUMPDEST SWAP1 POP SWAP2 SWAP1 POP JUMP JUMPDEST PUSH2 0x974 DUP2 PUSH2 0x95A JUMP JUMPDEST DUP2 EQ PUSH2 0x97E JUMPI PUSH0 DUP1 REVERT JUMPDEST POP JUMP JUMPDEST PUSH0 DUP2 CALLDATALOAD SWAP1 POP PUSH2 0x98F DUP2 PUSH2 0x96B JUMP JUMPDEST SWAP3 SWAP2 POP POP JUMP JUMPDEST PUSH0 PUSH1 0x20 DUP3 DUP5 SUB SLT ISZERO PUSH2 0x9AA JUMPI PUSH2 0x9A9 PUSH2 0x937 JUMP JUMPDEST JUMPDEST PUSH0 PUSH2 0x9B7 DUP5 DUP3 DUP6 ADD PUSH2 0x981 JUMP JUMPDEST SWAP2 POP POP SWAP3 SWAP2 POP POP JUMP JUMPDEST PUSH0 DUP2 ISZERO ISZERO SWAP1 POP SWAP2 SWAP1 POP JUMP JUMPDEST PUSH2 0x9D4 DUP2 PUSH2 0x9C0 JUMP JUMPDEST DUP3 MSTORE POP POP JUMP JUMPDEST PUSH0 PUSH1 0x80 DUP3 ADD SWAP1 POP PUSH2 0x9ED PUSH0 DUP4 ADD DUP8 PUSH2 0x90F JUMP JUMPDEST PUSH2 0x9FA PUSH1 0x20 DUP4 ADD DUP7 PUSH2 0x90F JUMP JUMPDEST PUSH2 0xA07 PUSH1 0x40 DUP4 ADD DUP6 PUSH2 0x90F JUMP JUMPDEST PUSH2 0xA14 PUSH1 0x60 DUP4 ADD DUP5 PUSH2 0x9CB JUMP JUMPDEST SWAP6 SWAP5 POP POP POP POP POP JUMP JUMPDEST PUSH2 0xA26 DUP2 PUSH2 0x95A JUMP JUMPDEST DUP3 MSTORE POP POP JUMP JUMPDEST PUSH0 PUSH1 0xC0 DUP3 ADD SWAP1 POP PUSH2 0xA3F PUSH0 DUP4 ADD DUP10 PUSH2 0xA1D JUMP JUMPDEST PUSH2 0xA4C PUSH1 0x20 DUP4 ADD DUP9 PUSH2 0x90F JUMP JUMPDEST PUSH2 0xA59 PUSH1 0x40 DUP4 ADD DUP8 PUSH2 0x90F JUMP JUMPDEST PUSH2 0xA66 PUSH1 0x60 DUP4 ADD DUP7 PUSH2 0x90F JUMP JUMPDEST PUSH2 0xA73 PUSH1 0x80 DUP4 ADD DUP6 PUSH2 0x90F JUMP JUMPDEST PUSH2 0xA80 PUSH1 0xA0 DUP4 ADD DUP5 PUSH2 0x9CB JUMP JUMPDEST SWAP8 SWAP7 POP POP POP POP POP POP POP JUMP JUMPDEST PUSH2 0xA94 DUP2 PUSH2 0x906 JUMP JUMPDEST DUP2 EQ PUSH2 0xA9E JUMPI PUSH0 DUP1 REVERT JUMPDEST POP JUMP JUMPDEST PUSH0 DUP2 CALLDATALOAD SWAP1 POP PUSH2 0xAAF DUP2 PUSH2 0xA8B JUMP JUMPDEST SWAP3 SWAP2 POP POP JUMP JUMPDEST PUSH0 DUP1 PUSH0 PUSH1 0x60 DUP5 DUP7 SUB SLT ISZERO PUSH2 0xACC JUMPI PUSH2 0xACB PUSH2 0x937 JUMP JUMPDEST JUMPDEST PUSH0 PUSH2 0xAD9 DUP7 DUP3 DUP8 ADD PUSH2 0xAA1 JUMP JUMPDEST SWAP4 POP POP PUSH1 0x20 PUSH2 0xAEA DUP7 DUP3 DUP8 ADD PUSH2 0xAA1 JUMP JUMPDEST SWAP3 POP POP PUSH1 0x40 PUSH2 0xAFB DUP7 DUP3 DUP8 ADD PUSH2 0xAA1 JUMP JUMPDEST SWAP2 POP POP SWAP3 POP SWAP3 POP SWAP3 JUMP JUMPDEST PUSH0 DUP3 DUP3 MSTORE PUSH1 0x20 DUP3 ADD SWAP1 POP SWAP3 SWAP2 POP POP JUMP JUMPDEST PUSH32 0x436172206F776E6572206E6F7420666F756E642E000000000000000000000000 PUSH0 DUP3 ADD MSTORE POP JUMP JUMPDEST PUSH0 PUSH2 0xB49 PUSH1 0x14 DUP4 PUSH2 0xB05 JUMP JUMPDEST SWAP2 POP PUSH2 0xB54 DUP3 PUSH2 0xB15 JUMP JUMPDEST PUSH1 0x20 DUP3 ADD SWAP1 POP SWAP2 SWAP1 POP JUMP JUMPDEST PUSH0 PUSH1 0x20 DUP3 ADD SWAP1 POP DUP2 DUP2 SUB PUSH0 DUP4 ADD MSTORE PUSH2 0xB76 DUP2 PUSH2 0xB3D JUMP JUMPDEST SWAP1 POP SWAP2 SWAP1 POP JUMP JUMPDEST PUSH32 0x4361722069732063757272656E746C79206C65617365642E0000000000000000 PUSH0 DUP3 ADD MSTORE POP JUMP JUMPDEST PUSH0 PUSH2 0xBB1 PUSH1 0x18 DUP4 PUSH2 0xB05 JUMP JUMPDEST SWAP2 POP PUSH2 0xBBC DUP3 PUSH2 0xB7D JUMP JUMPDEST PUSH1 0x20 DUP3 ADD SWAP1 POP SWAP2 SWAP1 POP JUMP JUMPDEST PUSH0 PUSH1 0x20 DUP3 ADD SWAP1 POP DUP2 DUP2 SUB PUSH0 DUP4 ADD MSTORE PUSH2 0xBDE DUP2 PUSH2 0xBA5 JUMP JUMPDEST SWAP1 POP SWAP2 SWAP1 POP JUMP JUMPDEST PUSH32 0x536E657420616D6F756E74206D75737420626520657175616C20746F20636172 PUSH0 DUP3 ADD MSTORE PUSH32 0x2070726963652C00000000000000000000000000000000000000000000000000 PUSH1 0x20 DUP3 ADD MSTORE POP JUMP JUMPDEST PUSH0 PUSH2 0xC3F PUSH1 0x27 DUP4 PUSH2 0xB05 JUMP JUMPDEST SWAP2 POP PUSH2 0xC4A DUP3 PUSH2 0xBE5 JUMP JUMPDEST PUSH1 0x40 DUP3 ADD SWAP1 POP SWAP2 SWAP1 POP JUMP JUMPDEST PUSH0 PUSH1 0x20 DUP3 ADD SWAP1 POP DUP2 DUP2 SUB PUSH0 DUP4 ADD MSTORE PUSH2 0xC6C DUP2 PUSH2 0xC33 JUMP JUMPDEST SWAP1 POP SWAP2 SWAP1 POP JUMP JUMPDEST PUSH32 0x43617220697320616C7265616479206C65617365642E00000000000000000000 PUSH0 DUP3 ADD MSTORE POP JUMP JUMPDEST PUSH0 PUSH2 0xCA7 PUSH1 0x16 DUP4 PUSH2 0xB05 JUMP JUMPDEST SWAP2 POP PUSH2 0xCB2 DUP3 PUSH2 0xC73 JUMP JUMPDEST PUSH1 0x20 DUP3 ADD SWAP1 POP SWAP2 SWAP1 POP JUMP JUMPDEST PUSH0 PUSH1 0x20 DUP3 ADD SWAP1 POP DUP2 DUP2 SUB PUSH0 DUP4 ADD MSTORE PUSH2 0xCD4 DUP2 PUSH2 0xC9B JUMP JUMPDEST SWAP1 POP SWAP2 SWAP1 POP JUMP JUMPDEST PUSH32 0x53656E7420616D6F756E74206D75737420626520657175616C20746F20646570 PUSH0 DUP3 ADD MSTORE PUSH32 0x6F73697420616D6F756E742E0000000000000000000000000000000000000000 PUSH1 0x20 DUP3 ADD MSTORE POP JUMP JUMPDEST PUSH0 PUSH2 0xD35 PUSH1 0x2C DUP4 PUSH2 0xB05 JUMP JUMPDEST SWAP2 POP PUSH2 0xD40 DUP3 PUSH2 0xCDB JUMP JUMPDEST PUSH1 0x40 DUP3 ADD SWAP1 POP SWAP2 SWAP1 POP JUMP JUMPDEST PUSH0 PUSH1 0x20 DUP3 ADD SWAP1 POP DUP2 DUP2 SUB PUSH0 DUP4 ADD MSTORE PUSH2 0xD62 DUP2 PUSH2 0xD29 JUMP JUMPDEST SWAP1 POP SWAP2 SWAP1 POP JUMP JUMPDEST PUSH32 0x4E487B7100000000000000000000000000000000000000000000000000000000 PUSH0 MSTORE PUSH1 0x11 PUSH1 0x4 MSTORE PUSH1 0x24 PUSH0 REVERT JUMPDEST PUSH0 PUSH2 0xDA0 DUP3 PUSH2 0x906 JUMP JUMPDEST SWAP2 POP PUSH2 0xDAB DUP4 PUSH2 0x906 JUMP JUMPDEST SWAP3 POP DUP3 DUP3 MUL PUSH2 0xDB9 DUP2 PUSH2 0x906 JUMP JUMPDEST SWAP2 POP DUP3 DUP3 DIV DUP5 EQ DUP4 ISZERO OR PUSH2 0xDD0 JUMPI PUSH2 0xDCF PUSH2 0xD69 JUMP JUMPDEST JUMPDEST POP SWAP3 SWAP2 POP POP JUMP JUMPDEST PUSH0 PUSH2 0xDE1 DUP3 PUSH2 0x906 JUMP JUMPDEST SWAP2 POP PUSH2 0xDEC DUP4 PUSH2 0x906 JUMP JUMPDEST SWAP3 POP DUP3 DUP3 ADD SWAP1 POP DUP1 DUP3 GT ISZERO PUSH2 0xE04 JUMPI PUSH2 0xE03 PUSH2 0xD69 JUMP JUMPDEST JUMPDEST SWAP3 SWAP2 POP POP JUMP JUMPDEST PUSH32 0x5072696365206D757374206265203E2030000000000000000000000000000000 PUSH0 DUP3 ADD MSTORE POP JUMP JUMPDEST PUSH0 PUSH2 0xE3E PUSH1 0x11 DUP4 PUSH2 0xB05 JUMP JUMPDEST SWAP2 POP PUSH2 0xE49 DUP3 PUSH2 0xE0A JUMP JUMPDEST PUSH1 0x20 DUP3 ADD SWAP1 POP SWAP2 SWAP1 POP JUMP JUMPDEST PUSH0 PUSH1 0x20 DUP3 ADD SWAP1 POP DUP2 DUP2 SUB PUSH0 DUP4 ADD MSTORE PUSH2 0xE6B DUP2 PUSH2 0xE32 JUMP JUMPDEST SWAP1 POP SWAP2 SWAP1 POP JUMP JUMPDEST PUSH32 0x4465706F736974206D7573742062652067726561746572207468616E207A6572 PUSH0 DUP3 ADD MSTORE PUSH32 0x6F2E000000000000000000000000000000000000000000000000000000000000 PUSH1 0x20 DUP3 ADD MSTORE POP JUMP JUMPDEST PUSH0 PUSH2 0xECC PUSH1 0x22 DUP4 PUSH2 0xB05 JUMP JUMPDEST SWAP2 POP PUSH2 0xED7 DUP3 PUSH2 0xE72 JUMP JUMPDEST PUSH1 0x40 DUP3 ADD SWAP1 POP SWAP2 SWAP1 POP JUMP JUMPDEST PUSH0 PUSH1 0x20 DUP3 ADD SWAP1 POP DUP2 DUP2 SUB PUSH0 DUP4 ADD MSTORE PUSH2 0xEF9 DUP2 PUSH2 0xEC0 JUMP JUMPDEST SWAP1 POP SWAP2 SWAP1 POP JUMP JUMPDEST PUSH32 0x4C65617365207465726D206D7573742062652067726561746572207468616E20 PUSH0 DUP3 ADD MSTORE PUSH32 0x7A65726F2E000000000000000000000000000000000000000000000000000000 PUSH1 0x20 DUP3 ADD MSTORE POP JUMP JUMPDEST PUSH0 PUSH2 0xF5A PUSH1 0x25 DUP4 PUSH2 0xB05 JUMP JUMPDEST SWAP2 POP PUSH2 0xF65 DUP3 PUSH2 0xF00 JUMP JUMPDEST PUSH1 0x40 DUP3 ADD SWAP1 POP SWAP2 SWAP1 POP JUMP JUMPDEST PUSH0 PUSH1 0x20 DUP3 ADD SWAP1 POP DUP2 DUP2 SUB PUSH0 DUP4 ADD MSTORE PUSH2 0xF87 DUP2 PUSH2 0xF4E JUMP JUMPDEST SWAP1 POP SWAP2 SWAP1 POP JUMP JUMPDEST PUSH0 PUSH2 0xF98 DUP3 PUSH2 0x906 JUMP JUMPDEST SWAP2 POP PUSH32 0xFFFFFFFFFFFFFFFFFFFFFFFFFFFFFFFFFFFFFFFFFFFFFFFFFFFFFFFFFFFFFFFF DUP3 SUB PUSH2 0xFCA JUMPI PUSH2 0xFC9 PUSH2 0xD69 JUMP JUMPDEST JUMPDEST PUSH1 0x1 DUP3 ADD SWAP1 POP SWAP2 SWAP1 POP JUMP JUMPDEST PUSH0 PUSH1 0x60 DUP3 ADD SWAP1 POP PUSH2 0xFE8 PUSH0 DUP4 ADD DUP7 PUSH2 0x90F JUMP JUMPDEST PUSH2 0xFF5 PUSH1 0x20 DUP4 ADD DUP6 PUSH2 0x90F JUMP JUMPDEST PUSH2 0x1002 PUSH1 0x40 DUP4 ADD DUP5 PUSH2 0x90F JUMP JUMPDEST SWAP5 SWAP4 POP POP POP POP JUMP INVALID LOG2 PUSH5 0x6970667358 0x22 SLT KECCAK256 0xBE DIV PUSH12 0x444246CD7ADE2B99BB85F504 LT PUSH12 0xD1F4622EFD44EB79F12858B0 0xAB 0xCF 0xC4 PUSH5 0x736F6C6343 STOP ADDMOD AND STOP CALLER "
				},
				"gasEstimates": {
					"creation": {
						"codeDepositCost": "832000",
						"executionCost": "5875",
						"totalCost": "837875"
					},
					"external": {
						"buyCar(address)": "32418",
						"carCount()": "2403",
						"cars(address)": "infinite",
						"getCar(address)": "infinite",
						"leaseCar(address)": "infinite",
						"registerCar(uint256,uint256,uint256)": "infinite"
					}
				},
				"methodIdentifiers": {
					"buyCar(address)": "39faf3ae",
					"carCount()": "297a1f56",
					"cars(address)": "afd79cbd",
					"getCar(address)": "55f6b073",
					"leaseCar(address)": "5e624a2a",
					"registerCar(uint256,uint256,uint256)": "eae3c03f"
				}
			},
			"storageLayout": {
				"storage": [
					{
						"astId": 19,
						"contract": "Decentralizing car leasing and sell/car leasing and sell S_C part 1.sol:CarLeasingAndSales",
						"label": "cars",
						"offset": 0,
						"slot": "0",
						"type": "t_mapping(t_address,t_struct(Car)14_storage)"
					},
					{
						"astId": 21,
						"contract": "Decentralizing car leasing and sell/car leasing and sell S_C part 1.sol:CarLeasingAndSales",
						"label": "carCount",
						"offset": 0,
						"slot": "1",
						"type": "t_uint256"
					}
				],
				"types": {
					"t_address": {
						"encoding": "inplace",
						"label": "address",
						"numberOfBytes": "20"
					},
					"t_bool": {
						"encoding": "inplace",
						"label": "bool",
						"numberOfBytes": "1"
					},
					"t_mapping(t_address,t_struct(Car)14_storage)": {
						"encoding": "mapping",
						"key": "t_address",
						"label": "mapping(address => struct CarLeasingAndSales.Car)",
						"numberOfBytes": "32",
						"value": "t_struct(Car)14_storage"
					},
					"t_struct(Car)14_storage": {
						"encoding": "inplace",
						"label": "struct CarLeasingAndSales.Car",
						"members": [
							{
								"astId": 3,
								"contract": "Decentralizing car leasing and sell/car leasing and sell S_C part 1.sol:CarLeasingAndSales",
								"label": "owner",
								"offset": 0,
								"slot": "0",
								"type": "t_address"
							},
							{
								"astId": 5,
								"contract": "Decentralizing car leasing and sell/car leasing and sell S_C part 1.sol:CarLeasingAndSales",
								"label": "price",
								"offset": 0,
								"slot": "1",
								"type": "t_uint256"
							},
							{
								"astId": 7,
								"contract": "Decentralizing car leasing and sell/car leasing and sell S_C part 1.sol:CarLeasingAndSales",
								"label": "deposit",
								"offset": 0,
								"slot": "2",
								"type": "t_uint256"
							},
							{
								"astId": 9,
								"contract": "Decentralizing car leasing and sell/car leasing and sell S_C part 1.sol:CarLeasingAndSales",
								"label": "leaseTerm",
								"offset": 0,
								"slot": "3",
								"type": "t_uint256"
							},
							{
								"astId": 11,
								"contract": "Decentralizing car leasing and sell/car leasing and sell S_C part 1.sol:CarLeasingAndSales",
								"label": "leaseEnd",
								"offset": 0,
								"slot": "4",
								"type": "t_uint256"
							},
							{
								"astId": 13,
								"contract": "Decentralizing car leasing and sell/car leasing and sell S_C part 1.sol:CarLeasingAndSales",
								"label": "isLeased",
								"offset": 0,
								"slot": "5",
								"type": "t_bool"
							}
						],
						"numberOfBytes": "192"
					},
					"t_uint256": {
						"encoding": "inplace",
						"label": "uint256",
						"numberOfBytes": "32"
					}
				}
			},
			"userdoc": {
				"kind": "user",
				"methods": {},
				"version": 1
			}
		}
	}
}